{"abi":[{"type":"function","name":"DEAD","inputs":[],"outputs":[{"name":"","type":"address","internalType":"address"}],"stateMutability":"view"},{"type":"function","name":"UPGRADE_INTERFACE_VERSION","inputs":[],"outputs":[{"name":"","type":"string","internalType":"string"}],"stateMutability":"view"},{"type":"function","name":"accRewardPerShare","inputs":[],"outputs":[{"name":"","type":"uint256","internalType":"uint256"}],"stateMutability":"view"},{"type":"function","name":"claim","inputs":[],"outputs":[],"stateMutability":"nonpayable"},{"type":"function","name":"destroy","inputs":[{"name":"_amount","type":"uint256","internalType":"uint256"}],"outputs":[],"stateMutability":"nonpayable"},{"type":"function","name":"emergencyWithdraw","inputs":[],"outputs":[],"stateMutability":"nonpayable"},{"type":"function","name":"flap","inputs":[],"outputs":[{"name":"","type":"address","internalType":"address"}],"stateMutability":"view"},{"type":"function","name":"initialize","inputs":[{"name":"_flap","type":"address","internalType":"address"},{"name":"_subToken","type":"address","internalType":"address"}],"outputs":[],"stateMutability":"nonpayable"},{"type":"function","name":"lastRewardTime","inputs":[],"outputs":[{"name":"","type":"uint256","internalType":"uint256"}],"stateMutability":"view"},{"type":"function","name":"owner","inputs":[],"outputs":[{"name":"","type":"address","internalType":"address"}],"stateMutability":"view"},{"type":"function","name":"pendingReward","inputs":[{"name":"_user","type":"address","internalType":"address"}],"outputs":[{"name":"","type":"uint256","internalType":"uint256"}],"stateMutability":"view"},{"type":"function","name":"proxiableUUID","inputs":[],"outputs":[{"name":"","type":"bytes32","internalType":"bytes32"}],"stateMutability":"view"},{"type":"function","name":"renounceOwnership","inputs":[],"outputs":[],"stateMutability":"nonpayable"},{"type":"function","name":"rewardPerSecond","inputs":[],"outputs":[{"name":"","type":"uint256","internalType":"uint256"}],"stateMutability":"view"},{"type":"function","name":"setTokenAddr","inputs":[{"name":"_flap","type":"address","internalType":"address"},{"name":"_subToken","type":"address","internalType":"address"}],"outputs":[],"stateMutability":"nonpayable"},{"type":"function","name":"setTotalDailyOutput","inputs":[{"name":"_new","type":"uint256","internalType":"uint256"}],"outputs":[],"stateMutability":"nonpayable"},{"type":"function","name":"subToken","inputs":[],"outputs":[{"name":"","type":"address","internalType":"address"}],"stateMutability":"view"},{"type":"function","name":"totalDailyOutput","inputs":[],"outputs":[{"name":"","type":"uint256","internalType":"uint256"}],"stateMutability":"view"},{"type":"function","name":"totalStaked","inputs":[],"outputs":[{"name":"","type":"uint256","internalType":"uint256"}],"stateMutability":"view"},{"type":"function","name":"transferOwnership","inputs":[{"name":"newOwner","type":"address","internalType":"address"}],"outputs":[],"stateMutability":"nonpayable"},{"type":"function","name":"upgradeToAndCall","inputs":[{"name":"newImplementation","type":"address","internalType":"address"},{"name":"data","type":"bytes","internalType":"bytes"}],"outputs":[],"stateMutability":"payable"},{"type":"function","name":"userInfo","inputs":[{"name":"","type":"address","internalType":"address"}],"outputs":[{"name":"stakingAmount","type":"uint256","internalType":"uint256"},{"name":"pending","type":"uint256","internalType":"uint256"},{"name":"debt","type":"uint256","internalType":"uint256"}],"stateMutability":"view"},{"type":"event","name":"Claimed","inputs":[{"name":"user","type":"address","indexed":true,"internalType":"address"},{"name":"amount","type":"uint256","indexed":false,"internalType":"uint256"}],"anonymous":false},{"type":"event","name":"FlapDestroyed","inputs":[{"name":"user","type":"address","indexed":true,"internalType":"address"},{"name":"amount","type":"uint256","indexed":false,"internalType":"uint256"}],"anonymous":false},{"type":"event","name":"Initialized","inputs":[{"name":"version","type":"uint64","indexed":false,"internalType":"uint64"}],"anonymous":false},{"type":"event","name":"OwnershipTransferred","inputs":[{"name":"previousOwner","type":"address","indexed":true,"internalType":"address"},{"name":"newOwner","type":"address","indexed":true,"internalType":"address"}],"anonymous":false},{"type":"event","name":"TotalDailyOutputChanged","inputs":[{"name":"oldVal","type":"uint256","indexed":false,"internalType":"uint256"},{"name":"newVal","type":"uint256","indexed":false,"internalType":"uint256"}],"anonymous":false},{"type":"event","name":"Unstaked","inputs":[{"name":"user","type":"address","indexed":true,"internalType":"address"},{"name":"amount","type":"uint256","indexed":false,"internalType":"uint256"},{"name":"fee","type":"uint256","indexed":false,"internalType":"uint256"}],"anonymous":false},{"type":"event","name":"Upgraded","inputs":[{"name":"implementation","type":"address","indexed":true,"internalType":"address"}],"anonymous":false},{"type":"error","name":"AddressEmptyCode","inputs":[{"name":"target","type":"address","internalType":"address"}]},{"type":"error","name":"ERC1967InvalidImplementation","inputs":[{"name":"implementation","type":"address","internalType":"address"}]},{"type":"error","name":"ERC1967NonPayable","inputs":[]},{"type":"error","name":"FailedCall","inputs":[]},{"type":"error","name":"InvalidInitialization","inputs":[]},{"type":"error","name":"NotInitializing","inputs":[]},{"type":"error","name":"OwnableInvalidOwner","inputs":[{"name":"owner","type":"address","internalType":"address"}]},{"type":"error","name":"OwnableUnauthorizedAccount","inputs":[{"name":"account","type":"address","internalType":"address"}]},{"type":"error","name":"ReentrancyGuardReentrantCall","inputs":[]},{"type":"error","name":"UUPSUnauthorizedCallContext","inputs":[]},{"type":"error","name":"UUPSUnsupportedProxiableUUID","inputs":[{"name":"slot","type":"bytes32","internalType":"bytes32"}]}],"bytecode":{"object":"0x60a06040523073ffffffffffffffffffffffffffffffffffffffff1660809073ffffffffffffffffffffffffffffffffffffffff168152503480156041575f5ffd5b5060015f819055506080516124e461006f5f395f818161128a015281816112df015261149901526124e45ff3fe608060405260043610610134575f3560e01c80638da5cb5b116100aa5780639d1187701161006e5780639d118770146103b0578063ad3cb1cc146103d8578063db2e21bc14610402578063e9ffa9f414610418578063f2fde38b14610442578063f40f0f521461046a57610134565b80638da5cb5b146102de5780638f10369a146103085780639231cf7414610332578063933beeab1461035c578063939d62371461038657610134565b80634f1ef286116100fc5780634f1ef2861461020857806352d1902d14610224578063715018a61461024e5780637f1d259b14610264578063817b1cd21461028c578063846383e5146102b657610134565b806303fd2a45146101385780630e01198b146101625780631959a0021461018c578063485cc955146101ca5780634e71d92d146101f2575b5f5ffd5b348015610143575f5ffd5b5061014c6104a6565b6040516101599190611bb9565b60405180910390f35b34801561016d575f5ffd5b506101766104ac565b6040516101839190611bb9565b60405180910390f35b348015610197575f5ffd5b506101b260048036038101906101ad9190611c0d565b6104d1565b6040516101c193929190611c50565b60405180910390f35b3480156101d5575f5ffd5b506101f060048036038101906101eb9190611c85565b6104f7565b005b3480156101fd575f5ffd5b5061020661071f565b005b610222600480360381019061021d9190611dff565b6108af565b005b34801561022f575f5ffd5b506102386108ce565b6040516102459190611e71565b60405180910390f35b348015610259575f5ffd5b506102626108ff565b005b34801561026f575f5ffd5b5061028a60048036038101906102859190611c85565b610912565b005b348015610297575f5ffd5b506102a061099e565b6040516102ad9190611e8a565b60405180910390f35b3480156102c1575f5ffd5b506102dc60048036038101906102d79190611ecd565b6109a4565b005b3480156102e9575f5ffd5b506102f26109f9565b6040516102ff9190611bb9565b60405180910390f35b348015610313575f5ffd5b5061031c610a2e565b6040516103299190611e8a565b60405180910390f35b34801561033d575f5ffd5b50610346610a45565b6040516103539190611e8a565b60405180910390f35b348015610367575f5ffd5b50610370610a4b565b60405161037d9190611e8a565b60405180910390f35b348015610391575f5ffd5b5061039a610a51565b6040516103a79190611e8a565b60405180910390f35b3480156103bb575f5ffd5b506103d660048036038101906103d19190611ecd565b610a57565b005b3480156103e3575f5ffd5b506103ec610c35565b6040516103f99190611f58565b60405180910390f35b34801561040d575f5ffd5b50610416610c6e565b005b348015610423575f5ffd5b5061042c610e2c565b6040516104399190611bb9565b60405180910390f35b34801561044d575f5ffd5b5061046860048036038101906104639190611c0d565b610e51565b005b348015610475575f5ffd5b50610490600480360381019061048b9190611c0d565b610ed5565b60405161049d9190611e8a565b60405180910390f35b61dead81565b60025f9054906101000a900473ffffffffffffffffffffffffffffffffffffffff1681565b6001602052805f5260405f205f91509050805f0154908060010154908060020154905083565b5f610500610fd9565b90505f815f0160089054906101000a900460ff161590505f825f015f9054906101000a900467ffffffffffffffff1690505f5f8267ffffffffffffffff161480156105485750825b90505f60018367ffffffffffffffff1614801561057b57505f3073ffffffffffffffffffffffffffffffffffffffff163b145b905081158015610589575080155b156105c0576040517ff92ee8a900000000000000000000000000000000000000000000000000000000815260040160405180910390fd5b6001855f015f6101000a81548167ffffffffffffffff021916908367ffffffffffffffff160217905550831561060d576001855f0160086101000a81548160ff0219169083151502179055505b61061d610618610fec565b610ff3565b610625611077565b8660025f6101000a81548173ffffffffffffffffffffffffffffffffffffffff021916908373ffffffffffffffffffffffffffffffffffffffff1602179055508560035f6101000a81548173ffffffffffffffffffffffffffffffffffffffff021916908373ffffffffffffffffffffffffffffffffffffffff160217905550681b1ae4d6e2ef500000600481905550426006819055508315610716575f855f0160086101000a81548160ff0219169083151502179055507fc7f505b2f371ae2175ee4913f4499e1f2633a7b5936321eed1cdaeb6115181d2600160405161070d9190611fcd565b60405180910390a15b50505050505050565b610727611081565b5f60015f3373ffffffffffffffffffffffffffffffffffffffff1673ffffffffffffffffffffffffffffffffffffffff1681526020019081526020015f20905061076f6110c5565b5f670de0b6b3a7640000600554835f015461078a9190612013565b6107949190612081565b905081600201548111156107cc578160020154816107b291906120b1565b826001015f8282546107c491906120e4565b925050819055505b8082600201819055505f826001015490505f811161081f576040517f08c379a000000000000000000000000000000000000000000000000000000000815260040161081690612161565b60405180910390fd5b5f836001018190555061085460035f9054906101000a900473ffffffffffffffffffffffffffffffffffffffff16338361114f565b3373ffffffffffffffffffffffffffffffffffffffff167fd8138f8a3f377c5259ca548e70e4c2de94f129f5a11036a15b69513cba2b426a8260405161089a9190611e8a565b60405180910390a25050506108ad61127f565b565b6108b7611288565b6108c08261136e565b6108ca8282611379565b5050565b5f6108d7611497565b7f360894a13ba1a3210667c828492db98dca3e2076cc3735a920a3ca505d382bbc5f1b905090565b61090761151e565b6109105f6115a5565b565b61091a61151e565b8160025f6101000a81548173ffffffffffffffffffffffffffffffffffffffff021916908373ffffffffffffffffffffffffffffffffffffffff1602179055508060035f6101000a81548173ffffffffffffffffffffffffffffffffffffffff021916908373ffffffffffffffffffffffffffffffffffffffff1602179055505050565b60075481565b6109ac61151e565b7f4855ffb7897d1910d830d8f17ee72e2e179a7ff0d978c6f2ed178e1e5126c90e600454826040516109df92919061217f565b60405180910390a16109ef6110c5565b8060048190555050565b5f5f610a03611676565b9050805f015f9054906101000a900473ffffffffffffffffffffffffffffffffffffffff1691505090565b5f62015180600454610a409190612081565b905090565b60065481565b60045481565b60055481565b610a5f611081565b5f8111610aa1576040517f08c379a0000000000000000000000000000000000000000000000000000000008152600401610a98906121f0565b60405180910390fd5b5f60015f3373ffffffffffffffffffffffffffffffffffffffff1673ffffffffffffffffffffffffffffffffffffffff1681526020019081526020015f209050610ae96110c5565b5f670de0b6b3a7640000600554835f0154610b049190612013565b610b0e9190612081565b90505f5f90508260020154821115610b4d57826002015482610b3091906120b1565b905080836001015f828254610b4591906120e4565b925050819055505b610b7c60025f9054906101000a900473ffffffffffffffffffffffffffffffffffffffff163361dead8761169d565b83835f015f828254610b8e91906120e4565b925050819055508360075f828254610ba691906120e4565b92505081905550670de0b6b3a7640000600554845f0154610bc79190612013565b610bd19190612081565b83600201819055503373ffffffffffffffffffffffffffffffffffffffff167fff2cc66ab001c76a4255757f95f29eed11c9d5760190bdc565cb0942d77f24c285604051610c1f9190611e8a565b60405180910390a2505050610c3261127f565b50565b6040518060400160405280600581526020017f352e302e3000000000000000000000000000000000000000000000000000000081525081565b610c76611081565b610c7e61151e565b5f60025f9054906101000a900473ffffffffffffffffffffffffffffffffffffffff1673ffffffffffffffffffffffffffffffffffffffff166370a08231306040518263ffffffff1660e01b8152600401610cd99190611bb9565b602060405180830381865afa158015610cf4573d5f5f3e3d5ffd5b505050506040513d601f19601f82011682018060405250810190610d189190612222565b90505f60035f9054906101000a900473ffffffffffffffffffffffffffffffffffffffff1673ffffffffffffffffffffffffffffffffffffffff166370a08231306040518263ffffffff1660e01b8152600401610d759190611bb9565b602060405180830381865afa158015610d90573d5f5f3e3d5ffd5b505050506040513d601f19601f82011682018060405250810190610db49190612222565b90505f821115610deb57610dea60025f9054906101000a900473ffffffffffffffffffffffffffffffffffffffff16338461114f565b5b5f811115610e2057610e1f60035f9054906101000a900473ffffffffffffffffffffffffffffffffffffffff16338361114f565b5b5050610e2a61127f565b565b60035f9054906101000a900473ffffffffffffffffffffffffffffffffffffffff1681565b610e5961151e565b5f73ffffffffffffffffffffffffffffffffffffffff168173ffffffffffffffffffffffffffffffffffffffff1603610ec9575f6040517f1e4fbdf7000000000000000000000000000000000000000000000000000000008152600401610ec09190611bb9565b60405180910390fd5b610ed2816115a5565b50565b5f5f60015f8473ffffffffffffffffffffffffffffffffffffffff1673ffffffffffffffffffffffffffffffffffffffff1681526020019081526020015f2090505f600554905060065442118015610f2e57505f600754115b15610f8b575f60065442610f4291906120b1565b90505f610f4d610a2e565b82610f589190612013565b9050600754670de0b6b3a764000082610f719190612013565b610f7b9190612081565b83610f8691906120e4565b925050505b5f670de0b6b3a764000082845f0154610fa49190612013565b610fae9190612081565b9050826002015481610fc091906120b1565b8360010154610fcf91906120e4565b9350505050919050565b5f5f610fe36117d0565b90508091505090565b5f33905090565b610ffb6117f9565b5f73ffffffffffffffffffffffffffffffffffffffff168173ffffffffffffffffffffffffffffffffffffffff160361106b575f6040517f1e4fbdf70000000000000000000000000000000000000000000000000000000081526004016110629190611bb9565b60405180910390fd5b611074816115a5565b50565b61107f6117f9565b565b60025f54036110bc576040517f3ee5aeb500000000000000000000000000000000000000000000000000000000815260040160405180910390fd5b60025f81905550565b60065442111561114d575f600754036110e4574260068190555061114d565b5f600654426110f391906120b1565b90505f6110fe610a2e565b826111099190612013565b9050600754670de0b6b3a7640000826111229190612013565b61112c9190612081565b60055f82825461113c91906120e4565b925050819055504260068190555050505b565b5f5f8473ffffffffffffffffffffffffffffffffffffffff1663a9059cbb858560405160240161118092919061224d565b6040516020818303038152906040529060e01b6020820180517bffffffffffffffffffffffffffffffffffffffffffffffffffffffff83818316178352505050506040516111ce91906122b8565b5f604051808303815f865af19150503d805f8114611207576040519150601f19603f3d011682016040523d82523d5f602084013e61120c565b606091505b509150915081801561123957505f815114806112385750808060200190518101906112379190612303565b5b5b611278576040517f08c379a000000000000000000000000000000000000000000000000000000000815260040161126f90612378565b60405180910390fd5b5050505050565b60015f81905550565b7f000000000000000000000000000000000000000000000000000000000000000073ffffffffffffffffffffffffffffffffffffffff163073ffffffffffffffffffffffffffffffffffffffff16148061133557507f000000000000000000000000000000000000000000000000000000000000000073ffffffffffffffffffffffffffffffffffffffff1661131c611839565b73ffffffffffffffffffffffffffffffffffffffff1614155b1561136c576040517fe07c8dba00000000000000000000000000000000000000000000000000000000815260040160405180910390fd5b565b61137661151e565b50565b8173ffffffffffffffffffffffffffffffffffffffff166352d1902d6040518163ffffffff1660e01b8152600401602060405180830381865afa9250505080156113e157506040513d601f19601f820116820180604052508101906113de91906123c0565b60015b61142257816040517f4c9c8ce30000000000000000000000000000000000000000000000000000000081526004016114199190611bb9565b60405180910390fd5b7f360894a13ba1a3210667c828492db98dca3e2076cc3735a920a3ca505d382bbc5f1b811461148857806040517faa1d49a400000000000000000000000000000000000000000000000000000000815260040161147f9190611e71565b60405180910390fd5b611492838361188c565b505050565b7f000000000000000000000000000000000000000000000000000000000000000073ffffffffffffffffffffffffffffffffffffffff163073ffffffffffffffffffffffffffffffffffffffff161461151c576040517fe07c8dba00000000000000000000000000000000000000000000000000000000815260040160405180910390fd5b565b611526610fec565b73ffffffffffffffffffffffffffffffffffffffff166115446109f9565b73ffffffffffffffffffffffffffffffffffffffff16146115a357611567610fec565b6040517f118cdaa700000000000000000000000000000000000000000000000000000000815260040161159a9190611bb9565b60405180910390fd5b565b5f6115ae611676565b90505f815f015f9054906101000a900473ffffffffffffffffffffffffffffffffffffffff16905082825f015f6101000a81548173ffffffffffffffffffffffffffffffffffffffff021916908373ffffffffffffffffffffffffffffffffffffffff1602179055508273ffffffffffffffffffffffffffffffffffffffff168173ffffffffffffffffffffffffffffffffffffffff167f8be0079c531659141344cd1fd0a4f28419497f9722a3daafe3b4186f6b6457e060405160405180910390a3505050565b5f7f9016d09d72d40fdae2fd8ceac6b6234c7706214fd39c1cd1e609a0528c199300905090565b5f5f8573ffffffffffffffffffffffffffffffffffffffff166323b872dd8686866040516024016116d0939291906123eb565b6040516020818303038152906040529060e01b6020820180517bffffffffffffffffffffffffffffffffffffffffffffffffffffffff838183161783525050505060405161171e91906122b8565b5f604051808303815f865af19150503d805f8114611757576040519150601f19603f3d011682016040523d82523d5f602084013e61175c565b606091505b509150915081801561178957505f815114806117885750808060200190518101906117879190612303565b5b5b6117c8576040517f08c379a00000000000000000000000000000000000000000000000000000000081526004016117bf90612490565b60405180910390fd5b505050505050565b5f7ff0c57e16840df040f15088dc2f81fe391c3923bec73e23a9662efc9c229c6a005f1b905090565b6118016118fe565b611837576040517fd7e6bcf800000000000000000000000000000000000000000000000000000000815260040160405180910390fd5b565b5f6118657f360894a13ba1a3210667c828492db98dca3e2076cc3735a920a3ca505d382bbc5f1b61191c565b5f015f9054906101000a900473ffffffffffffffffffffffffffffffffffffffff16905090565b61189582611925565b8173ffffffffffffffffffffffffffffffffffffffff167fbc7cd75a20ee27fd9adebab32041f755214dbc6bffa90cc0225b39da2e5c2d3b60405160405180910390a25f815111156118f1576118eb82826119ee565b506118fa565b6118f9611a6e565b5b5050565b5f611907610fd9565b5f0160089054906101000a900460ff16905090565b5f819050919050565b5f8173ffffffffffffffffffffffffffffffffffffffff163b0361198057806040517f4c9c8ce30000000000000000000000000000000000000000000000000000000081526004016119779190611bb9565b60405180910390fd5b806119ac7f360894a13ba1a3210667c828492db98dca3e2076cc3735a920a3ca505d382bbc5f1b61191c565b5f015f6101000a81548173ffffffffffffffffffffffffffffffffffffffff021916908373ffffffffffffffffffffffffffffffffffffffff16021790555050565b60605f5f8473ffffffffffffffffffffffffffffffffffffffff1684604051611a1791906122b8565b5f60405180830381855af49150503d805f8114611a4f576040519150601f19603f3d011682016040523d82523d5f602084013e611a54565b606091505b5091509150611a64858383611aaa565b9250505092915050565b5f341115611aa8576040517fb398979f00000000000000000000000000000000000000000000000000000000815260040160405180910390fd5b565b606082611abf57611aba82611b37565b611b2f565b5f8251148015611ae557505f8473ffffffffffffffffffffffffffffffffffffffff163b145b15611b2757836040517f9996b315000000000000000000000000000000000000000000000000000000008152600401611b1e9190611bb9565b60405180910390fd5b819050611b30565b5b9392505050565b5f81511115611b4857805160208201fd5b6040517fd6bda27500000000000000000000000000000000000000000000000000000000815260040160405180910390fd5b5f73ffffffffffffffffffffffffffffffffffffffff82169050919050565b5f611ba382611b7a565b9050919050565b611bb381611b99565b82525050565b5f602082019050611bcc5f830184611baa565b92915050565b5f604051905090565b5f5ffd5b5f5ffd5b611bec81611b99565b8114611bf6575f5ffd5b50565b5f81359050611c0781611be3565b92915050565b5f60208284031215611c2257611c21611bdb565b5b5f611c2f84828501611bf9565b91505092915050565b5f819050919050565b611c4a81611c38565b82525050565b5f606082019050611c635f830186611c41565b611c706020830185611c41565b611c7d6040830184611c41565b949350505050565b5f5f60408385031215611c9b57611c9a611bdb565b5b5f611ca885828601611bf9565b9250506020611cb985828601611bf9565b9150509250929050565b5f5ffd5b5f5ffd5b5f601f19601f8301169050919050565b7f4e487b71000000000000000000000000000000000000000000000000000000005f52604160045260245ffd5b611d1182611ccb565b810181811067ffffffffffffffff82111715611d3057611d2f611cdb565b5b80604052505050565b5f611d42611bd2565b9050611d4e8282611d08565b919050565b5f67ffffffffffffffff821115611d6d57611d6c611cdb565b5b611d7682611ccb565b9050602081019050919050565b828183375f83830152505050565b5f611da3611d9e84611d53565b611d39565b905082815260208101848484011115611dbf57611dbe611cc7565b5b611dca848285611d83565b509392505050565b5f82601f830112611de657611de5611cc3565b5b8135611df6848260208601611d91565b91505092915050565b5f5f60408385031215611e1557611e14611bdb565b5b5f611e2285828601611bf9565b925050602083013567ffffffffffffffff811115611e4357611e42611bdf565b5b611e4f85828601611dd2565b9150509250929050565b5f819050919050565b611e6b81611e59565b82525050565b5f602082019050611e845f830184611e62565b92915050565b5f602082019050611e9d5f830184611c41565b92915050565b611eac81611c38565b8114611eb6575f5ffd5b50565b5f81359050611ec781611ea3565b92915050565b5f60208284031215611ee257611ee1611bdb565b5b5f611eef84828501611eb9565b91505092915050565b5f81519050919050565b5f82825260208201905092915050565b8281835e5f83830152505050565b5f611f2a82611ef8565b611f348185611f02565b9350611f44818560208601611f12565b611f4d81611ccb565b840191505092915050565b5f6020820190508181035f830152611f708184611f20565b905092915050565b5f819050919050565b5f67ffffffffffffffff82169050919050565b5f819050919050565b5f611fb7611fb2611fad84611f78565b611f94565b611f81565b9050919050565b611fc781611f9d565b82525050565b5f602082019050611fe05f830184611fbe565b92915050565b7f4e487b71000000000000000000000000000000000000000000000000000000005f52601160045260245ffd5b5f61201d82611c38565b915061202883611c38565b925082820261203681611c38565b9150828204841483151761204d5761204c611fe6565b5b5092915050565b7f4e487b71000000000000000000000000000000000000000000000000000000005f52601260045260245ffd5b5f61208b82611c38565b915061209683611c38565b9250826120a6576120a5612054565b5b828204905092915050565b5f6120bb82611c38565b91506120c683611c38565b92508282039050818111156120de576120dd611fe6565b5b92915050565b5f6120ee82611c38565b91506120f983611c38565b925082820190508082111561211157612110611fe6565b5b92915050565b7f6e6f2072657761726473000000000000000000000000000000000000000000005f82015250565b5f61214b600a83611f02565b915061215682612117565b602082019050919050565b5f6020820190508181035f8301526121788161213f565b9050919050565b5f6040820190506121925f830185611c41565b61219f6020830184611c41565b9392505050565b7f7a65726f20616d6f756e740000000000000000000000000000000000000000005f82015250565b5f6121da600b83611f02565b91506121e5826121a6565b602082019050919050565b5f6020820190508181035f830152612207816121ce565b9050919050565b5f8151905061221c81611ea3565b92915050565b5f6020828403121561223757612236611bdb565b5b5f6122448482850161220e565b91505092915050565b5f6040820190506122605f830185611baa565b61226d6020830184611c41565b9392505050565b5f81519050919050565b5f81905092915050565b5f61229282612274565b61229c818561227e565b93506122ac818560208601611f12565b80840191505092915050565b5f6122c38284612288565b915081905092915050565b5f8115159050919050565b6122e2816122ce565b81146122ec575f5ffd5b50565b5f815190506122fd816122d9565b92915050565b5f6020828403121561231857612317611bdb565b5b5f612325848285016122ef565b91505092915050565b7f5472616e7366657248656c7065723a205452414e534645525f4641494c4544005f82015250565b5f612362601f83611f02565b915061236d8261232e565b602082019050919050565b5f6020820190508181035f83015261238f81612356565b9050919050565b61239f81611e59565b81146123a9575f5ffd5b50565b5f815190506123ba81612396565b92915050565b5f602082840312156123d5576123d4611bdb565b5b5f6123e2848285016123ac565b91505092915050565b5f6060820190506123fe5f830186611baa565b61240b6020830185611baa565b6124186040830184611c41565b949350505050565b7f5472616e7366657248656c7065723a205452414e534645525f46524f4d5f46415f8201527f494c454400000000000000000000000000000000000000000000000000000000602082015250565b5f61247a602483611f02565b915061248582612420565b604082019050919050565b5f6020820190508181035f8301526124a78161246e565b905091905056fea2646970667358221220388832f3f5881e48e0bc8de2cd871732b2701b88e035b3fb7bf97f6caaa282d764736f6c634300081e0033","linkReferences":{}},"methodIdentifiers":{"DEAD()":"03fd2a45","UPGRADE_INTERFACE_VERSION()":"ad3cb1cc","accRewardPerShare()":"939d6237","claim()":"4e71d92d","destroy(uint256)":"9d118770","emergencyWithdraw()":"db2e21bc","flap()":"0e01198b","initialize(address,address)":"485cc955","lastRewardTime()":"9231cf74","owner()":"8da5cb5b","pendingReward(address)":"f40f0f52","proxiableUUID()":"52d1902d","renounceOwnership()":"715018a6","rewardPerSecond()":"8f10369a","setTokenAddr(address,address)":"7f1d259b","setTotalDailyOutput(uint256)":"846383e5","subToken()":"e9ffa9f4","totalDailyOutput()":"933beeab","totalStaked()":"817b1cd2","transferOwnership(address)":"f2fde38b","upgradeToAndCall(address,bytes)":"4f1ef286","userInfo(address)":"1959a002"},"id":35}