{"abi":[{"type":"receive","stateMutability":"payable"},{"type":"function","name":"FIXED_AMOUNT","inputs":[],"outputs":[{"name":"","type":"uint256","internalType":"uint256"}],"stateMutability":"view"},{"type":"function","name":"MAX_REFERRAL_DEPTH","inputs":[],"outputs":[{"name":"","type":"uint256","internalType":"uint256"}],"stateMutability":"view"},{"type":"function","name":"UPGRADE_INTERFACE_VERSION","inputs":[],"outputs":[{"name":"","type":"string","internalType":"string"}],"stateMutability":"view"},{"type":"function","name":"USDT","inputs":[],"outputs":[{"name":"","type":"address","internalType":"address"}],"stateMutability":"view"},{"type":"function","name":"VENUS","inputs":[],"outputs":[{"name":"","type":"address","internalType":"address"}],"stateMutability":"view"},{"type":"function","name":"admin","inputs":[],"outputs":[{"name":"","type":"address","internalType":"address"}],"stateMutability":"view"},{"type":"function","name":"awardRecords","inputs":[{"name":"","type":"address","internalType":"address"},{"name":"","type":"uint256","internalType":"uint256"}],"outputs":[{"name":"from","type":"address","internalType":"address"},{"name":"amount","type":"uint256","internalType":"uint256"},{"name":"time","type":"uint256","internalType":"uint256"}],"stateMutability":"view"},{"type":"function","name":"claim","inputs":[{"name":"amountUSDT","type":"uint256","internalType":"uint256"}],"outputs":[],"stateMutability":"nonpayable"},{"type":"function","name":"directReferrals","inputs":[{"name":"","type":"address","internalType":"address"},{"name":"","type":"uint256","internalType":"uint256"}],"outputs":[{"name":"","type":"address","internalType":"address"}],"stateMutability":"view"},{"type":"function","name":"emergencyWithdraw","inputs":[{"name":"token","type":"address","internalType":"address"},{"name":"amount","type":"uint256","internalType":"uint256"},{"name":"to","type":"address","internalType":"address"}],"outputs":[],"stateMutability":"nonpayable"},{"type":"function","name":"getAddrCollection","inputs":[],"outputs":[{"name":"","type":"address[]","internalType":"address[]"}],"stateMutability":"view"},{"type":"function","name":"getAddrCollectionLength","inputs":[],"outputs":[{"name":"","type":"uint256","internalType":"uint256"}],"stateMutability":"view"},{"type":"function","name":"getAwardRecords","inputs":[{"name":"user","type":"address","internalType":"address"}],"outputs":[{"name":"","type":"tuple[]","internalType":"struct Staking.Record[]","components":[{"name":"from","type":"address","internalType":"address"},{"name":"amount","type":"uint256","internalType":"uint256"},{"name":"time","type":"uint256","internalType":"uint256"}]}],"stateMutability":"view"},{"type":"function","name":"getDirectReferrals","inputs":[{"name":"user","type":"address","internalType":"address"}],"outputs":[{"name":"","type":"address[]","internalType":"address[]"}],"stateMutability":"view"},{"type":"function","name":"getDirectReferralsInfo","inputs":[{"name":"user","type":"address","internalType":"address"}],"outputs":[{"name":"","type":"tuple[]","internalType":"struct Staking.DirectReferralsInfo[]","components":[{"name":"referral","type":"address","internalType":"address"},{"name":"performance","type":"uint256","internalType":"uint256"}]}],"stateMutability":"view"},{"type":"function","name":"getUserInfo","inputs":[{"name":"user","type":"address","internalType":"address"}],"outputs":[{"name":"recommender","type":"address","internalType":"address"},{"name":"staking","type":"uint256","internalType":"uint256"},{"name":"referralAward","type":"uint256","internalType":"uint256"},{"name":"performance","type":"uint256","internalType":"uint256"},{"name":"referralNum","type":"uint256","internalType":"uint256"},{"name":"referrals","type":"address[]","internalType":"address[]"}],"stateMutability":"view"},{"type":"function","name":"initialCode","inputs":[],"outputs":[{"name":"","type":"address","internalType":"address"}],"stateMutability":"view"},{"type":"function","name":"initialize","inputs":[{"name":"_admin","type":"address","internalType":"address"},{"name":"_recipient","type":"address","internalType":"address"},{"name":"_initialCode","type":"address","internalType":"address"}],"outputs":[],"stateMutability":"nonpayable"},{"type":"function","name":"isAddCollection","inputs":[{"name":"","type":"address","internalType":"address"}],"outputs":[{"name":"","type":"bool","internalType":"bool"}],"stateMutability":"view"},{"type":"function","name":"owner","inputs":[],"outputs":[{"name":"","type":"address","internalType":"address"}],"stateMutability":"view"},{"type":"function","name":"pause","inputs":[],"outputs":[{"name":"","type":"bool","internalType":"bool"}],"stateMutability":"view"},{"type":"function","name":"proxiableUUID","inputs":[],"outputs":[{"name":"","type":"bytes32","internalType":"bytes32"}],"stateMutability":"view"},{"type":"function","name":"recipient","inputs":[],"outputs":[{"name":"","type":"address","internalType":"address"}],"stateMutability":"view"},{"type":"function","name":"referral","inputs":[{"name":"recommender","type":"address","internalType":"address"}],"outputs":[],"stateMutability":"nonpayable"},{"type":"function","name":"renounceOwnership","inputs":[],"outputs":[],"stateMutability":"nonpayable"},{"type":"function","name":"setGenesisNode","inputs":[{"name":"user","type":"address","internalType":"address"},{"name":"isGenesisNode","type":"bool","internalType":"bool"}],"outputs":[],"stateMutability":"nonpayable"},{"type":"function","name":"setPause","inputs":[{"name":"isPause","type":"bool","internalType":"bool"}],"outputs":[],"stateMutability":"nonpayable"},{"type":"function","name":"setRecipient","inputs":[{"name":"_recipient","type":"address","internalType":"address"}],"outputs":[],"stateMutability":"nonpayable"},{"type":"function","name":"singleRecharge","inputs":[],"outputs":[],"stateMutability":"nonpayable"},{"type":"function","name":"totalPerformance","inputs":[],"outputs":[{"name":"","type":"uint256","internalType":"uint256"}],"stateMutability":"view"},{"type":"function","name":"transferOwnership","inputs":[{"name":"newOwner","type":"address","internalType":"address"}],"outputs":[],"stateMutability":"nonpayable"},{"type":"function","name":"upgradeToAndCall","inputs":[{"name":"newImplementation","type":"address","internalType":"address"},{"name":"data","type":"bytes","internalType":"bytes"}],"outputs":[],"stateMutability":"payable"},{"type":"function","name":"userInfo","inputs":[{"name":"","type":"address","internalType":"address"}],"outputs":[{"name":"recommender","type":"address","internalType":"address"},{"name":"staking","type":"uint256","internalType":"uint256"},{"name":"referralAwards","type":"uint256","internalType":"uint256"},{"name":"performance","type":"uint256","internalType":"uint256"},{"name":"referralNum","type":"uint256","internalType":"uint256"},{"name":"genesisNode","type":"bool","internalType":"bool"}],"stateMutability":"view"},{"type":"function","name":"validInvitationCode","inputs":[{"name":"user","type":"address","internalType":"address"}],"outputs":[{"name":"","type":"bool","internalType":"bool"}],"stateMutability":"view"},{"type":"event","name":"Initialized","inputs":[{"name":"version","type":"uint64","indexed":false,"internalType":"uint64"}],"anonymous":false},{"type":"event","name":"MultiRecharge","inputs":[{"name":"user","type":"address","indexed":false,"internalType":"address"},{"name":"token0","type":"address","indexed":false,"internalType":"address"},{"name":"amount0","type":"uint256","indexed":false,"internalType":"uint256"},{"name":"token1","type":"address","indexed":false,"internalType":"address"},{"name":"amount1","type":"uint256","indexed":false,"internalType":"uint256"},{"name":"remark","type":"string","indexed":false,"internalType":"string"}],"anonymous":false},{"type":"event","name":"OwnershipTransferred","inputs":[{"name":"previousOwner","type":"address","indexed":true,"internalType":"address"},{"name":"newOwner","type":"address","indexed":true,"internalType":"address"}],"anonymous":false},{"type":"event","name":"Referral","inputs":[{"name":"recommender","type":"address","indexed":false,"internalType":"address"},{"name":"referred","type":"address","indexed":false,"internalType":"address"}],"anonymous":false},{"type":"event","name":"Upgraded","inputs":[{"name":"implementation","type":"address","indexed":true,"internalType":"address"}],"anonymous":false},{"type":"error","name":"AddressEmptyCode","inputs":[{"name":"target","type":"address","internalType":"address"}]},{"type":"error","name":"ERC1967InvalidImplementation","inputs":[{"name":"implementation","type":"address","internalType":"address"}]},{"type":"error","name":"ERC1967NonPayable","inputs":[]},{"type":"error","name":"FailedCall","inputs":[]},{"type":"error","name":"InvalidInitialization","inputs":[]},{"type":"error","name":"NotInitializing","inputs":[]},{"type":"error","name":"OwnableInvalidOwner","inputs":[{"name":"owner","type":"address","internalType":"address"}]},{"type":"error","name":"OwnableUnauthorizedAccount","inputs":[{"name":"account","type":"address","internalType":"address"}]},{"type":"error","name":"ReentrancyGuardReentrantCall","inputs":[]},{"type":"error","name":"UUPSUnauthorizedCallContext","inputs":[]},{"type":"error","name":"UUPSUnsupportedProxiableUUID","inputs":[{"name":"slot","type":"bytes32","internalType":"bytes32"}]}],"bytecode":{"object":"0x60a06040523073ffffffffffffffffffffffffffffffffffffffff1660809073ffffffffffffffffffffffffffffffffffffffff168152503480156041575f5ffd5b5060015f8190555060805161488561006f5f395f8181612474015281816124c9015261268301526148855ff3fe6080604052600436106101fc575f3560e01c80637247959a1161010c578063c023b3a51161009f578063df99b4d01161006e578063df99b4d014610748578063ec18ac7914610784578063eccf1694146107c0578063f2fde38b146107ea578063f851a440146108125761023c565b8063c023b3a51461067c578063c0c53b8b146106ba578063c54e44eb146106e2578063d2c8e0e51461070c5761023c565b80638da5cb5b116100db5780638da5cb5b146105d6578063a2b0332b14610600578063ad3cb1cc1461062a578063bedb86fb146106545761023c565b80637247959a146105325780638456cb591461055a57806389e59ea0146105845780638c2e5517146105ae5761023c565b80633c4e9d741161018f578063551512de1161015e578063551512de146104735780636386c1c71461049b57806366d003ac146104dc578063689d2a8214610506578063715018a61461051c5761023c565b80633c4e9d74146103c75780634d38857c146104035780634f1ef2861461042d57806352d1902d146104495761023c565b80631a78ccc1116101cb5780631a78ccc114610311578063379607f51461033b57806339fe3b99146103635780633bbed4a01461039f5761023c565b806305ad39351461024057806306876dbe1461027c57806310baf089146102a65780631959a002146102d05761023c565b3661023c576040517f08c379a0000000000000000000000000000000000000000000000000000000008152600401610233906134f8565b60405180910390fd5b5f5ffd5b34801561024b575f5ffd5b50610266600480360381019061026191906135b4565b61083c565b6040516102739190613601565b60405180910390f35b348015610287575f5ffd5b50610290610884565b60405161029d9190613629565b60405180910390f35b3480156102b1575f5ffd5b506102ba61088a565b6040516102c79190613601565b60405180910390f35b3480156102db575f5ffd5b506102f660048036038101906102f19190613642565b6108af565b60405161030896959493929190613687565b60405180910390f35b34801561031c575f5ffd5b50610325610912565b6040516103329190613601565b60405180910390f35b348015610346575f5ffd5b50610361600480360381019061035c91906136e6565b61092a565b005b34801561036e575f5ffd5b5061038960048036038101906103849190613642565b610a26565b6040516103969190613711565b60405180910390f35b3480156103aa575f5ffd5b506103c560048036038101906103c09190613642565b610a43565b005b3480156103d2575f5ffd5b506103ed60048036038101906103e89190613642565b610b83565b6040516103fa9190613711565b60405180910390f35b34801561040e575f5ffd5b50610417610c77565b6040516104249190613629565b60405180910390f35b61044760048036038101906104429190613866565b610c83565b005b348015610454575f5ffd5b5061045d610ca2565b60405161046a91906138d8565b60405180910390f35b34801561047e575f5ffd5b50610499600480360381019061049491906138f1565b610cd3565b005b3480156104a6575f5ffd5b506104c160048036038101906104bc9190613642565b610d72565b6040516104d3969594939291906139f8565b60405180910390f35b3480156104e7575f5ffd5b506104f0610f4c565b6040516104fd9190613601565b60405180910390f35b348015610511575f5ffd5b5061051a610f71565b005b348015610527575f5ffd5b50610530611457565b005b34801561053d575f5ffd5b5061055860048036038101906105539190613642565b61146a565b005b348015610565575f5ffd5b5061056e6119f3565b60405161057b9190613711565b60405180910390f35b34801561058f575f5ffd5b50610598611a05565b6040516105a59190613629565b60405180910390f35b3480156105b9575f5ffd5b506105d460048036038101906105cf9190613a88565b611a0b565b005b3480156105e1575f5ffd5b506105ea611af5565b6040516105f79190613601565b60405180910390f35b34801561060b575f5ffd5b50610614611b2a565b6040516106219190613ac6565b60405180910390f35b348015610635575f5ffd5b5061063e611bb5565b60405161064b9190613b36565b60405180910390f35b34801561065f575f5ffd5b5061067a60048036038101906106759190613b56565b611bee565b005b348015610687575f5ffd5b506106a2600480360381019061069d91906135b4565b611c12565b6040516106b193929190613b81565b60405180910390f35b3480156106c5575f5ffd5b506106e060048036038101906106db9190613bb6565b611c71565b005b3480156106ed575f5ffd5b506106f6611ebb565b6040516107039190613601565b60405180910390f35b348015610717575f5ffd5b50610732600480360381019061072d9190613642565b611ed3565b60405161073f9190613ac6565b60405180910390f35b348015610753575f5ffd5b5061076e60048036038101906107699190613642565b611f9b565b60405161077b9190613cfd565b60405180910390f35b34801561078f575f5ffd5b506107aa60048036038101906107a59190613642565b61209c565b6040516107b79190613df2565b60405180910390f35b3480156107cb575f5ffd5b506107d461228a565b6040516107e19190613629565b60405180910390f35b3480156107f5575f5ffd5b50610810600480360381019061080b9190613642565b612296565b005b34801561081d575f5ffd5b5061082661231a565b6040516108339190613601565b60405180910390f35b6005602052815f5260405f208181548110610855575f80fd5b905f5260205f20015f915091509054906101000a900473ffffffffffffffffffffffffffffffffffffffff1681565b60075481565b60035f9054906101000a900473ffffffffffffffffffffffffffffffffffffffff1681565b6004602052805f5260405f205f91509050805f015f9054906101000a900473ffffffffffffffffffffffffffffffffffffffff1690806001015490806002015490806003015490806004015490806005015f9054906101000a900460ff16905086565b73fd5840cd36d94d7229439859c0112a4185bc025581565b60045f3373ffffffffffffffffffffffffffffffffffffffff1673ffffffffffffffffffffffffffffffffffffffff1681526020019081526020015f20600201548111156109ad576040517f08c379a00000000000000000000000000000000000000000000000000000000081526004016109a490613e5c565b60405180910390fd5b6109cd7355d398326f99059ff775485246999027b319795530338461233f565b8060045f3373ffffffffffffffffffffffffffffffffffffffff1673ffffffffffffffffffffffffffffffffffffffff1681526020019081526020015f206002015f828254610a1c9190613ea7565b9250508190555050565b6009602052805f5260405f205f915054906101000a900460ff1681565b3373ffffffffffffffffffffffffffffffffffffffff1660015f9054906101000a900473ffffffffffffffffffffffffffffffffffffffff1673ffffffffffffffffffffffffffffffffffffffff1614610ad2576040517f08c379a0000000000000000000000000000000000000000000000000000000008152600401610ac990613f24565b60405180910390fd5b5f73ffffffffffffffffffffffffffffffffffffffff168173ffffffffffffffffffffffffffffffffffffffff1603610b40576040517f08c379a0000000000000000000000000000000000000000000000000000000008152600401610b3790613f8c565b60405180910390fd5b8060025f6101000a81548173ffffffffffffffffffffffffffffffffffffffff021916908373ffffffffffffffffffffffffffffffffffffffff16021790555050565b5f60035f9054906101000a900473ffffffffffffffffffffffffffffffffffffffff1673ffffffffffffffffffffffffffffffffffffffff168273ffffffffffffffffffffffffffffffffffffffff1603610be15760019050610c72565b5f73ffffffffffffffffffffffffffffffffffffffff1660045f8473ffffffffffffffffffffffffffffffffffffffff1673ffffffffffffffffffffffffffffffffffffffff1681526020019081526020015f205f015f9054906101000a900473ffffffffffffffffffffffffffffffffffffffff1673ffffffffffffffffffffffffffffffffffffffff16141590505b919050565b5f600880549050905090565b610c8b612472565b610c9482612558565b610c9e8282612563565b5050565b5f610cab612681565b7f360894a13ba1a3210667c828492db98dca3e2076cc3735a920a3ca505d382bbc5f1b905090565b3373ffffffffffffffffffffffffffffffffffffffff1660015f9054906101000a900473ffffffffffffffffffffffffffffffffffffffff1673ffffffffffffffffffffffffffffffffffffffff1614610d62576040517f08c379a0000000000000000000000000000000000000000000000000000000008152600401610d5990613f24565b60405180910390fd5b610d6d838284612708565b505050565b5f5f5f5f5f60605f60045f8973ffffffffffffffffffffffffffffffffffffffff1673ffffffffffffffffffffffffffffffffffffffff1681526020019081526020015f206040518060c00160405290815f82015f9054906101000a900473ffffffffffffffffffffffffffffffffffffffff1673ffffffffffffffffffffffffffffffffffffffff1673ffffffffffffffffffffffffffffffffffffffff16815260200160018201548152602001600282015481526020016003820154815260200160048201548152602001600582015f9054906101000a900460ff16151515158152505090505f60055f8a73ffffffffffffffffffffffffffffffffffffffff1673ffffffffffffffffffffffffffffffffffffffff1681526020019081526020015f20805480602002602001604051908101604052809291908181526020018280548015610f1557602002820191905f5260205f20905b815f9054906101000a900473ffffffffffffffffffffffffffffffffffffffff1673ffffffffffffffffffffffffffffffffffffffff1681526020019060010190808311610ecc575b50505050509050815f0151826020015183604001518460600151856080015185975097509750975097509750505091939550919395565b60025f9054906101000a900473ffffffffffffffffffffffffffffffffffffffff1681565b610f79612838565b600a5f9054906101000a900460ff1615610fc8576040517f08c379a0000000000000000000000000000000000000000000000000000000008152600401610fbf90613ff4565b60405180910390fd5b5f73ffffffffffffffffffffffffffffffffffffffff1660045f3373ffffffffffffffffffffffffffffffffffffffff1673ffffffffffffffffffffffffffffffffffffffff1681526020019081526020015f205f015f9054906101000a900473ffffffffffffffffffffffffffffffffffffffff1673ffffffffffffffffffffffffffffffffffffffff1603611094576040517f08c379a000000000000000000000000000000000000000000000000000000000815260040161108b90614082565b60405180910390fd5b6110bc7355d398326f99059ff775485246999027b3197955333067016345785d8a000061233f565b6110ef7355d398326f99059ff775485246999027b319795573fd5840cd36d94d7229439859c0112a4185bc02555f61287c565b61112a7355d398326f99059ff775485246999027b319795573fd5840cd36d94d7229439859c0112a4185bc025567016345785d8a000061287c565b5f73fd5840cd36d94d7229439859c0112a4185bc025573ffffffffffffffffffffffffffffffffffffffff1663a0712d6867016345785d8a00006040518263ffffffff1660e01b81526004016111809190613629565b6020604051808303815f875af115801561119c573d5f5f3e3d5ffd5b505050506040513d601f19601f820116820180604052508101906111c091906140b4565b14611200576040517f08c379a00000000000000000000000000000000000000000000000000000000081526004016111f790614129565b60405180910390fd5b5f73fd5840cd36d94d7229439859c0112a4185bc025573ffffffffffffffffffffffffffffffffffffffff166370a08231306040518263ffffffff1660e01b815260040161124e9190613601565b602060405180830381865afa158015611269573d5f5f3e3d5ffd5b505050506040513d601f19601f8201168201806040525081019061128d91906140b4565b90506112cf73fd5840cd36d94d7229439859c0112a4185bc025560025f9054906101000a900473ffffffffffffffffffffffffffffffffffffffff1683612708565b67016345785d8a000060045f3373ffffffffffffffffffffffffffffffffffffffff1673ffffffffffffffffffffffffffffffffffffffff1681526020019081526020015f206001015f8282546113269190614147565b9250508190555067016345785d8a000060075f8282546113469190614147565b925050819055505f73ffffffffffffffffffffffffffffffffffffffff1660045f3373ffffffffffffffffffffffffffffffffffffffff1673ffffffffffffffffffffffffffffffffffffffff1681526020019081526020015f205f015f9054906101000a900473ffffffffffffffffffffffffffffffffffffffff1673ffffffffffffffffffffffffffffffffffffffff16146113f1576113f03367016345785d8a00006129ac565b5b7f92bfe9b63523d7c8baff8387323dd4c1c8ccd48705d9c91e19160ebcabb053b8337355d398326f99059ff775485246999027b319795567016345785d8a00005f5f6040516114449594939291906141df565b60405180910390a150611455612cfb565b565b61145f612d04565b6114685f612d8b565b565b611472612838565b600a5f9054906101000a900460ff16156114c1576040517f08c379a00000000000000000000000000000000000000000000000000000000081526004016114b890613ff4565b60405180910390fd5b5f73ffffffffffffffffffffffffffffffffffffffff168173ffffffffffffffffffffffffffffffffffffffff160361152f576040517f08c379a00000000000000000000000000000000000000000000000000000000081526004016115269061428d565b60405180910390fd5b3373ffffffffffffffffffffffffffffffffffffffff168173ffffffffffffffffffffffffffffffffffffffff160361159d576040517f08c379a0000000000000000000000000000000000000000000000000000000008152600401611594906142f5565b60405180910390fd5b60035f9054906101000a900473ffffffffffffffffffffffffffffffffffffffff1673ffffffffffffffffffffffffffffffffffffffff168173ffffffffffffffffffffffffffffffffffffffff16146116be575f73ffffffffffffffffffffffffffffffffffffffff1660045f8373ffffffffffffffffffffffffffffffffffffffff1673ffffffffffffffffffffffffffffffffffffffff1681526020019081526020015f205f015f9054906101000a900473ffffffffffffffffffffffffffffffffffffffff1673ffffffffffffffffffffffffffffffffffffffff16036116bd576040517f08c379a00000000000000000000000000000000000000000000000000000000081526004016116b490614383565b60405180910390fd5b5b5f73ffffffffffffffffffffffffffffffffffffffff1660045f3373ffffffffffffffffffffffffffffffffffffffff1673ffffffffffffffffffffffffffffffffffffffff1681526020019081526020015f205f015f9054906101000a900473ffffffffffffffffffffffffffffffffffffffff1673ffffffffffffffffffffffffffffffffffffffff161461178a576040517f08c379a0000000000000000000000000000000000000000000000000000000008152600401611781906143eb565b60405180910390fd5b8060045f3373ffffffffffffffffffffffffffffffffffffffff1673ffffffffffffffffffffffffffffffffffffffff1681526020019081526020015f205f015f6101000a81548173ffffffffffffffffffffffffffffffffffffffff021916908373ffffffffffffffffffffffffffffffffffffffff16021790555060055f8273ffffffffffffffffffffffffffffffffffffffff1673ffffffffffffffffffffffffffffffffffffffff1681526020019081526020015f2033908060018154018082558091505060019003905f5260205f20015f9091909190916101000a81548173ffffffffffffffffffffffffffffffffffffffff021916908373ffffffffffffffffffffffffffffffffffffffff16021790555060095f3373ffffffffffffffffffffffffffffffffffffffff1673ffffffffffffffffffffffffffffffffffffffff1681526020019081526020015f205f9054906101000a900460ff166119a657600833908060018154018082558091505060019003905f5260205f20015f9091909190916101000a81548173ffffffffffffffffffffffffffffffffffffffff021916908373ffffffffffffffffffffffffffffffffffffffff160217905550600160095f3373ffffffffffffffffffffffffffffffffffffffff1673ffffffffffffffffffffffffffffffffffffffff1681526020019081526020015f205f6101000a81548160ff0219169083151502179055505b6119af33612e5c565b7f9d05414fb79fac216c15606de5cc06664e91a254e4d5f57664d5f1beaf7fb7ef81336040516119e0929190614409565b60405180910390a16119f0612cfb565b50565b600a5f9054906101000a900460ff1681565b6101f481565b3373ffffffffffffffffffffffffffffffffffffffff1660015f9054906101000a900473ffffffffffffffffffffffffffffffffffffffff1673ffffffffffffffffffffffffffffffffffffffff1614611a9a576040517f08c379a0000000000000000000000000000000000000000000000000000000008152600401611a9190613f24565b60405180910390fd5b8060045f8473ffffffffffffffffffffffffffffffffffffffff1673ffffffffffffffffffffffffffffffffffffffff1681526020019081526020015f206005015f6101000a81548160ff0219169083151502179055505050565b5f5f611aff613009565b9050805f015f9054906101000a900473ffffffffffffffffffffffffffffffffffffffff1691505090565b60606008805480602002602001604051908101604052809291908181526020018280548015611bab57602002820191905f5260205f20905b815f9054906101000a900473ffffffffffffffffffffffffffffffffffffffff1673ffffffffffffffffffffffffffffffffffffffff1681526020019060010190808311611b62575b5050505050905090565b6040518060400160405280600581526020017f352e302e3000000000000000000000000000000000000000000000000000000081525081565b611bf6612d04565b80600a5f6101000a81548160ff02191690831515021790555050565b6006602052815f5260405f208181548110611c2b575f80fd5b905f5260205f2090600302015f9150915050805f015f9054906101000a900473ffffffffffffffffffffffffffffffffffffffff16908060010154908060020154905083565b5f611c7a613030565b90505f815f0160089054906101000a900460ff161590505f825f015f9054906101000a900467ffffffffffffffff1690505f5f8267ffffffffffffffff16148015611cc25750825b90505f60018367ffffffffffffffff16148015611cf557505f3073ffffffffffffffffffffffffffffffffffffffff163b145b905081158015611d03575080155b15611d3a576040517ff92ee8a900000000000000000000000000000000000000000000000000000000815260040160405180910390fd5b6001855f015f6101000a81548167ffffffffffffffff021916908367ffffffffffffffff1602179055508315611d87576001855f0160086101000a81548160ff0219169083151502179055505b611d97611d92613043565b61304a565b8760015f6101000a81548173ffffffffffffffffffffffffffffffffffffffff021916908373ffffffffffffffffffffffffffffffffffffffff1602179055508660025f6101000a81548173ffffffffffffffffffffffffffffffffffffffff021916908373ffffffffffffffffffffffffffffffffffffffff1602179055508560035f6101000a81548173ffffffffffffffffffffffffffffffffffffffff021916908373ffffffffffffffffffffffffffffffffffffffff1602179055508315611eb1575f855f0160086101000a81548160ff0219169083151502179055507fc7f505b2f371ae2175ee4913f4499e1f2633a7b5936321eed1cdaeb6115181d26001604051611ea8919061447c565b60405180910390a15b5050505050505050565b7355d398326f99059ff775485246999027b319795581565b606060055f8373ffffffffffffffffffffffffffffffffffffffff1673ffffffffffffffffffffffffffffffffffffffff1681526020019081526020015f20805480602002602001604051908101604052809291908181526020018280548015611f8f57602002820191905f5260205f20905b815f9054906101000a900473ffffffffffffffffffffffffffffffffffffffff1673ffffffffffffffffffffffffffffffffffffffff1681526020019060010190808311611f46575b50505050509050919050565b606060065f8373ffffffffffffffffffffffffffffffffffffffff1673ffffffffffffffffffffffffffffffffffffffff1681526020019081526020015f20805480602002602001604051908101604052809291908181526020015f905b82821015612091578382905f5260205f2090600302016040518060600160405290815f82015f9054906101000a900473ffffffffffffffffffffffffffffffffffffffff1673ffffffffffffffffffffffffffffffffffffffff1673ffffffffffffffffffffffffffffffffffffffff1681526020016001820154815260200160028201548152505081526020019060010190611ff9565b505050509050919050565b60605f60055f8473ffffffffffffffffffffffffffffffffffffffff1673ffffffffffffffffffffffffffffffffffffffff1681526020019081526020015f2080548060200260200160405190810160405280929190818152602001828054801561215957602002820191905f5260205f20905b815f9054906101000a900473ffffffffffffffffffffffffffffffffffffffff1673ffffffffffffffffffffffffffffffffffffffff1681526020019060010190808311612110575b505050505090505f815190505f8167ffffffffffffffff8111156121805761217f613742565b5b6040519080825280602002602001820160405280156121b957816020015b6121a6613470565b81526020019060019003908161219e5790505b5090505f5f90505b8281101561227e575f8482815181106121dd576121dc614495565b5b6020026020010151905060405180604001604052808273ffffffffffffffffffffffffffffffffffffffff16815260200160045f8473ffffffffffffffffffffffffffffffffffffffff1673ffffffffffffffffffffffffffffffffffffffff1681526020019081526020015f206003015481525083838151811061226557612264614495565b5b60200260200101819052505080806001019150506121c1565b50809350505050919050565b67016345785d8a000081565b61229e612d04565b5f73ffffffffffffffffffffffffffffffffffffffff168173ffffffffffffffffffffffffffffffffffffffff160361230e575f6040517f1e4fbdf70000000000000000000000000000000000000000000000000000000081526004016123059190613601565b60405180910390fd5b61231781612d8b565b50565b60015f9054906101000a900473ffffffffffffffffffffffffffffffffffffffff1681565b5f5f8573ffffffffffffffffffffffffffffffffffffffff166323b872dd868686604051602401612372939291906144c2565b6040516020818303038152906040529060e01b6020820180517bffffffffffffffffffffffffffffffffffffffffffffffffffffffff83818316178352505050506040516123c0919061453b565b5f604051808303815f865af19150503d805f81146123f9576040519150601f19603f3d011682016040523d82523d5f602084013e6123fe565b606091505b509150915081801561242b57505f8151148061242a5750808060200190518101906124299190614565565b5b5b61246a576040517f08c379a000000000000000000000000000000000000000000000000000000000815260040161246190614600565b60405180910390fd5b505050505050565b7f000000000000000000000000000000000000000000000000000000000000000073ffffffffffffffffffffffffffffffffffffffff163073ffffffffffffffffffffffffffffffffffffffff16148061251f57507f000000000000000000000000000000000000000000000000000000000000000073ffffffffffffffffffffffffffffffffffffffff1661250661305e565b73ffffffffffffffffffffffffffffffffffffffff1614155b15612556576040517fe07c8dba00000000000000000000000000000000000000000000000000000000815260040160405180910390fd5b565b612560612d04565b50565b8173ffffffffffffffffffffffffffffffffffffffff166352d1902d6040518163ffffffff1660e01b8152600401602060405180830381865afa9250505080156125cb57506040513d601f19601f820116820180604052508101906125c89190614648565b60015b61260c57816040517f4c9c8ce30000000000000000000000000000000000000000000000000000000081526004016126039190613601565b60405180910390fd5b7f360894a13ba1a3210667c828492db98dca3e2076cc3735a920a3ca505d382bbc5f1b811461267257806040517faa1d49a400000000000000000000000000000000000000000000000000000000815260040161266991906138d8565b60405180910390fd5b61267c83836130b1565b505050565b7f000000000000000000000000000000000000000000000000000000000000000073ffffffffffffffffffffffffffffffffffffffff163073ffffffffffffffffffffffffffffffffffffffff1614612706576040517fe07c8dba00000000000000000000000000000000000000000000000000000000815260040160405180910390fd5b565b5f5f8473ffffffffffffffffffffffffffffffffffffffff1663a9059cbb8585604051602401612739929190614673565b6040516020818303038152906040529060e01b6020820180517bffffffffffffffffffffffffffffffffffffffffffffffffffffffff8381831617835250505050604051612787919061453b565b5f604051808303815f865af19150503d805f81146127c0576040519150601f19603f3d011682016040523d82523d5f602084013e6127c5565b606091505b50915091508180156127f257505f815114806127f15750808060200190518101906127f09190614565565b5b5b612831576040517f08c379a0000000000000000000000000000000000000000000000000000000008152600401612828906146e4565b60405180910390fd5b5050505050565b60025f5403612873576040517f3ee5aeb500000000000000000000000000000000000000000000000000000000815260040160405180910390fd5b60025f81905550565b5f5f8473ffffffffffffffffffffffffffffffffffffffff1663095ea7b385856040516024016128ad929190614673565b6040516020818303038152906040529060e01b6020820180517bffffffffffffffffffffffffffffffffffffffffffffffffffffffff83818316178352505050506040516128fb919061453b565b5f604051808303815f865af19150503d805f8114612934576040519150601f19603f3d011682016040523d82523d5f602084013e612939565b606091505b509150915081801561296657505f815114806129655750808060200190518101906129649190614565565b5b5b6129a5576040517f08c379a000000000000000000000000000000000000000000000000000000000815260040161299c9061474c565b60405180910390fd5b5050505050565b5f60045f8473ffffffffffffffffffffffffffffffffffffffff1673ffffffffffffffffffffffffffffffffffffffff1681526020019081526020015f205f015f9054906101000a900473ffffffffffffffffffffffffffffffffffffffff1690505f5b5f73ffffffffffffffffffffffffffffffffffffffff168273ffffffffffffffffffffffffffffffffffffffff1614612cf5578373ffffffffffffffffffffffffffffffffffffffff168273ffffffffffffffffffffffffffffffffffffffff160315612cf5578260045f8473ffffffffffffffffffffffffffffffffffffffff1673ffffffffffffffffffffffffffffffffffffffff1681526020019081526020015f206003015f828254612ac69190614147565b9250508190555060045f8373ffffffffffffffffffffffffffffffffffffffff1673ffffffffffffffffffffffffffffffffffffffff1681526020019081526020015f206005015f9054906101000a900460ff168015612b24575080155b15612c8f575f6064600f85612b39919061476a565b612b4391906147d8565b90508060045f8573ffffffffffffffffffffffffffffffffffffffff1673ffffffffffffffffffffffffffffffffffffffff1681526020019081526020015f206002015f828254612b949190614147565b9250508190555060065f8473ffffffffffffffffffffffffffffffffffffffff1673ffffffffffffffffffffffffffffffffffffffff1681526020019081526020015f2060405180606001604052808773ffffffffffffffffffffffffffffffffffffffff16815260200183815260200142815250908060018154018082558091505060019003905f5260205f2090600302015f909190919091505f820151815f015f6101000a81548173ffffffffffffffffffffffffffffffffffffffff021916908373ffffffffffffffffffffffffffffffffffffffff1602179055506020820151816001015560408201518160020155505060019150505b60045f8373ffffffffffffffffffffffffffffffffffffffff1673ffffffffffffffffffffffffffffffffffffffff1681526020019081526020015f205f015f9054906101000a900473ffffffffffffffffffffffffffffffffffffffff169150612a10565b50505050565b60015f81905550565b612d0c613043565b73ffffffffffffffffffffffffffffffffffffffff16612d2a611af5565b73ffffffffffffffffffffffffffffffffffffffff1614612d8957612d4d613043565b6040517f118cdaa7000000000000000000000000000000000000000000000000000000008152600401612d809190613601565b60405180910390fd5b565b5f612d94613009565b90505f815f015f9054906101000a900473ffffffffffffffffffffffffffffffffffffffff16905082825f015f6101000a81548173ffffffffffffffffffffffffffffffffffffffff021916908373ffffffffffffffffffffffffffffffffffffffff1602179055508273ffffffffffffffffffffffffffffffffffffffff168173ffffffffffffffffffffffffffffffffffffffff167f8be0079c531659141344cd1fd0a4f28419497f9722a3daafe3b4186f6b6457e060405160405180910390a3505050565b5f60045f8373ffffffffffffffffffffffffffffffffffffffff1673ffffffffffffffffffffffffffffffffffffffff1681526020019081526020015f205f015f9054906101000a900473ffffffffffffffffffffffffffffffffffffffff1690505f5f90505b5f73ffffffffffffffffffffffffffffffffffffffff168273ffffffffffffffffffffffffffffffffffffffff1614158015612f0057506101f481105b15613004578273ffffffffffffffffffffffffffffffffffffffff168273ffffffffffffffffffffffffffffffffffffffff16031561300457600160045f8473ffffffffffffffffffffffffffffffffffffffff1673ffffffffffffffffffffffffffffffffffffffff1681526020019081526020015f206004015f828254612f899190614147565b9250508190555060045f8373ffffffffffffffffffffffffffffffffffffffff1673ffffffffffffffffffffffffffffffffffffffff1681526020019081526020015f205f015f9054906101000a900473ffffffffffffffffffffffffffffffffffffffff1691508080612ffc90614808565b915050612ec3565b505050565b5f7f9016d09d72d40fdae2fd8ceac6b6234c7706214fd39c1cd1e609a0528c199300905090565b5f5f61303a613123565b90508091505090565b5f33905090565b61305261314c565b61305b8161318c565b50565b5f61308a7f360894a13ba1a3210667c828492db98dca3e2076cc3735a920a3ca505d382bbc5f1b613210565b5f015f9054906101000a900473ffffffffffffffffffffffffffffffffffffffff16905090565b6130ba82613219565b8173ffffffffffffffffffffffffffffffffffffffff167fbc7cd75a20ee27fd9adebab32041f755214dbc6bffa90cc0225b39da2e5c2d3b60405160405180910390a25f815111156131165761311082826132e2565b5061311f565b61311e6133d3565b5b5050565b5f7ff0c57e16840df040f15088dc2f81fe391c3923bec73e23a9662efc9c229c6a005f1b905090565b61315461340f565b61318a576040517fd7e6bcf800000000000000000000000000000000000000000000000000000000815260040160405180910390fd5b565b61319461314c565b5f73ffffffffffffffffffffffffffffffffffffffff168173ffffffffffffffffffffffffffffffffffffffff1603613204575f6040517f1e4fbdf70000000000000000000000000000000000000000000000000000000081526004016131fb9190613601565b60405180910390fd5b61320d81612d8b565b50565b5f819050919050565b5f8173ffffffffffffffffffffffffffffffffffffffff163b0361327457806040517f4c9c8ce300000000000000000000000000000000000000000000000000000000815260040161326b9190613601565b60405180910390fd5b806132a07f360894a13ba1a3210667c828492db98dca3e2076cc3735a920a3ca505d382bbc5f1b613210565b5f015f6101000a81548173ffffffffffffffffffffffffffffffffffffffff021916908373ffffffffffffffffffffffffffffffffffffffff16021790555050565b60605f6132ef848461342d565b905080801561332557505f613302613441565b118061332457505f8473ffffffffffffffffffffffffffffffffffffffff163b115b5b1561333a57613332613448565b9150506133cd565b801561337d57836040517f9996b3150000000000000000000000000000000000000000000000000000000081526004016133749190613601565b60405180910390fd5b5f613386613441565b111561339957613394613465565b6133cb565b6040517fd6bda27500000000000000000000000000000000000000000000000000000000815260040160405180910390fd5b505b92915050565b5f34111561340d576040517fb398979f00000000000000000000000000000000000000000000000000000000815260040160405180910390fd5b565b5f613418613030565b5f0160089054906101000a900460ff16905090565b5f5f5f835160208501865af4905092915050565b5f3d905090565b606060405190503d81523d5f602083013e3d602001810160405290565b6040513d5f823e3d81fd5b60405180604001604052805f73ffffffffffffffffffffffffffffffffffffffff1681526020015f81525090565b5f82825260208201905092915050565b7f4e4f5f4449524543545f53454e440000000000000000000000000000000000005f82015250565b5f6134e2600e8361349e565b91506134ed826134ae565b602082019050919050565b5f6020820190508181035f83015261350f816134d6565b9050919050565b5f604051905090565b5f5ffd5b5f5ffd5b5f73ffffffffffffffffffffffffffffffffffffffff82169050919050565b5f61355082613527565b9050919050565b61356081613546565b811461356a575f5ffd5b50565b5f8135905061357b81613557565b92915050565b5f819050919050565b61359381613581565b811461359d575f5ffd5b50565b5f813590506135ae8161358a565b92915050565b5f5f604083850312156135ca576135c961351f565b5b5f6135d78582860161356d565b92505060206135e8858286016135a0565b9150509250929050565b6135fb81613546565b82525050565b5f6020820190506136145f8301846135f2565b92915050565b61362381613581565b82525050565b5f60208201905061363c5f83018461361a565b92915050565b5f602082840312156136575761365661351f565b5b5f6136648482850161356d565b91505092915050565b5f8115159050919050565b6136818161366d565b82525050565b5f60c08201905061369a5f8301896135f2565b6136a7602083018861361a565b6136b4604083018761361a565b6136c1606083018661361a565b6136ce608083018561361a565b6136db60a0830184613678565b979650505050505050565b5f602082840312156136fb576136fa61351f565b5b5f613708848285016135a0565b91505092915050565b5f6020820190506137245f830184613678565b92915050565b5f5ffd5b5f5ffd5b5f601f19601f8301169050919050565b7f4e487b71000000000000000000000000000000000000000000000000000000005f52604160045260245ffd5b61377882613732565b810181811067ffffffffffffffff8211171561379757613796613742565b5b80604052505050565b5f6137a9613516565b90506137b5828261376f565b919050565b5f67ffffffffffffffff8211156137d4576137d3613742565b5b6137dd82613732565b9050602081019050919050565b828183375f83830152505050565b5f61380a613805846137ba565b6137a0565b9050828152602081018484840111156138265761382561372e565b5b6138318482856137ea565b509392505050565b5f82601f83011261384d5761384c61372a565b5b813561385d8482602086016137f8565b91505092915050565b5f5f6040838503121561387c5761387b61351f565b5b5f6138898582860161356d565b925050602083013567ffffffffffffffff8111156138aa576138a9613523565b5b6138b685828601613839565b9150509250929050565b5f819050919050565b6138d2816138c0565b82525050565b5f6020820190506138eb5f8301846138c9565b92915050565b5f5f5f606084860312156139085761390761351f565b5b5f6139158682870161356d565b9350506020613926868287016135a0565b92505060406139378682870161356d565b9150509250925092565b5f81519050919050565b5f82825260208201905092915050565b5f819050602082019050919050565b61397381613546565b82525050565b5f613984838361396a565b60208301905092915050565b5f602082019050919050565b5f6139a682613941565b6139b0818561394b565b93506139bb8361395b565b805f5b838110156139eb5781516139d28882613979565b97506139dd83613990565b9250506001810190506139be565b5085935050505092915050565b5f60c082019050613a0b5f8301896135f2565b613a18602083018861361a565b613a25604083018761361a565b613a32606083018661361a565b613a3f608083018561361a565b81810360a0830152613a51818461399c565b9050979650505050505050565b613a678161366d565b8114613a71575f5ffd5b50565b5f81359050613a8281613a5e565b92915050565b5f5f60408385031215613a9e57613a9d61351f565b5b5f613aab8582860161356d565b9250506020613abc85828601613a74565b9150509250929050565b5f6020820190508181035f830152613ade818461399c565b905092915050565b5f81519050919050565b8281835e5f83830152505050565b5f613b0882613ae6565b613b12818561349e565b9350613b22818560208601613af0565b613b2b81613732565b840191505092915050565b5f6020820190508181035f830152613b4e8184613afe565b905092915050565b5f60208284031215613b6b57613b6a61351f565b5b5f613b7884828501613a74565b91505092915050565b5f606082019050613b945f8301866135f2565b613ba1602083018561361a565b613bae604083018461361a565b949350505050565b5f5f5f60608486031215613bcd57613bcc61351f565b5b5f613bda8682870161356d565b9350506020613beb8682870161356d565b9250506040613bfc8682870161356d565b9150509250925092565b5f81519050919050565b5f82825260208201905092915050565b5f819050602082019050919050565b613c3881613581565b82525050565b606082015f820151613c525f85018261396a565b506020820151613c656020850182613c2f565b506040820151613c786040850182613c2f565b50505050565b5f613c898383613c3e565b60608301905092915050565b5f602082019050919050565b5f613cab82613c06565b613cb58185613c10565b9350613cc083613c20565b805f5b83811015613cf0578151613cd78882613c7e565b9750613ce283613c95565b925050600181019050613cc3565b5085935050505092915050565b5f6020820190508181035f830152613d158184613ca1565b905092915050565b5f81519050919050565b5f82825260208201905092915050565b5f819050602082019050919050565b604082015f820151613d5a5f85018261396a565b506020820151613d6d6020850182613c2f565b50505050565b5f613d7e8383613d46565b60408301905092915050565b5f602082019050919050565b5f613da082613d1d565b613daa8185613d27565b9350613db583613d37565b805f5b83811015613de5578151613dcc8882613d73565b9750613dd783613d8a565b925050600181019050613db8565b5085935050505092915050565b5f6020820190508181035f830152613e0a8184613d96565b905092915050565b7f4552524f525f414d4f554e545f555344542e00000000000000000000000000005f82015250565b5f613e4660128361349e565b9150613e5182613e12565b602082019050919050565b5f6020820190508181035f830152613e7381613e3a565b9050919050565b7f4e487b71000000000000000000000000000000000000000000000000000000005f52601160045260245ffd5b5f613eb182613581565b9150613ebc83613581565b9250828203905081811115613ed457613ed3613e7a565b5b92915050565b7f4552524f525f5045524d49542e000000000000000000000000000000000000005f82015250565b5f613f0e600d8361349e565b9150613f1982613eda565b602082019050919050565b5f6020820190508181035f830152613f3b81613f02565b9050919050565b7f5a45524f5f4144445245535300000000000000000000000000000000000000005f82015250565b5f613f76600c8361349e565b9150613f8182613f42565b602082019050919050565b5f6020820190508181035f830152613fa381613f6a565b9050919050565b7f50415553455f52454348415247452e00000000000000000000000000000000005f82015250565b5f613fde600f8361349e565b9150613fe982613faa565b602082019050919050565b5f6020820190508181035f83015261400b81613fd2565b9050919050565b7f5245434f4d4d454e444154494f4e5f49535f52455155495245445f52454348415f8201527f5247452e00000000000000000000000000000000000000000000000000000000602082015250565b5f61406c60248361349e565b915061407782614012565b604082019050919050565b5f6020820190508181035f83015261409981614060565b9050919050565b5f815190506140ae8161358a565b92915050565b5f602082840312156140c9576140c861351f565b5b5f6140d6848285016140a0565b91505092915050565b7f56454e55535f4d494e545f4641494c45440000000000000000000000000000005f82015250565b5f61411360118361349e565b915061411e826140df565b602082019050919050565b5f6020820190508181035f83015261414081614107565b9050919050565b5f61415182613581565b915061415c83613581565b925082820190508082111561417457614173613e7a565b5b92915050565b5f819050919050565b5f819050919050565b5f6141a66141a161419c8461417a565b614183565b613581565b9050919050565b6141b68161418c565b82525050565b50565b5f6141ca5f8361349e565b91506141d5826141bc565b5f82019050919050565b5f60c0820190506141f25f8301886135f2565b6141ff60208301876135f2565b61420c604083018661361a565b61421960608301856135f2565b61422660808301846141ad565b81810360a0830152614237816141bf565b90509695505050505050565b7f5a45524f5f414444524553532e000000000000000000000000000000000000005f82015250565b5f614277600d8361349e565b915061428282614243565b602082019050919050565b5f6020820190508181035f8301526142a48161426b565b9050919050565b7f494e56414c49445f5245434f4d4d454e4445522e0000000000000000000000005f82015250565b5f6142df60148361349e565b91506142ea826142ab565b602082019050919050565b5f6020820190508181035f83015261430c816142d3565b9050919050565b7f5245434f4d4d454e444154494f4e5f49535f52455155495245445f52454645525f8201527f52414c2e00000000000000000000000000000000000000000000000000000000602082015250565b5f61436d60248361349e565b915061437882614313565b604082019050919050565b5f6020820190508181035f83015261439a81614361565b9050919050565b7f494e56495445525f414c52454144595f4558495354532e0000000000000000005f82015250565b5f6143d560178361349e565b91506143e0826143a1565b602082019050919050565b5f6020820190508181035f830152614402816143c9565b9050919050565b5f60408201905061441c5f8301856135f2565b61442960208301846135f2565b9392505050565b5f819050919050565b5f67ffffffffffffffff82169050919050565b5f61446661446161445c84614430565b614183565b614439565b9050919050565b6144768161444c565b82525050565b5f60208201905061448f5f83018461446d565b92915050565b7f4e487b71000000000000000000000000000000000000000000000000000000005f52603260045260245ffd5b5f6060820190506144d55f8301866135f2565b6144e260208301856135f2565b6144ef604083018461361a565b949350505050565b5f81519050919050565b5f81905092915050565b5f614515826144f7565b61451f8185614501565b935061452f818560208601613af0565b80840191505092915050565b5f614546828461450b565b915081905092915050565b5f8151905061455f81613a5e565b92915050565b5f6020828403121561457a5761457961351f565b5b5f61458784828501614551565b91505092915050565b7f5472616e7366657248656c7065723a205452414e534645525f46524f4d5f46415f8201527f494c454400000000000000000000000000000000000000000000000000000000602082015250565b5f6145ea60248361349e565b91506145f582614590565b604082019050919050565b5f6020820190508181035f830152614617816145de565b9050919050565b614627816138c0565b8114614631575f5ffd5b50565b5f815190506146428161461e565b92915050565b5f6020828403121561465d5761465c61351f565b5b5f61466a84828501614634565b91505092915050565b5f6040820190506146865f8301856135f2565b614693602083018461361a565b9392505050565b7f5472616e7366657248656c7065723a205452414e534645525f4641494c4544005f82015250565b5f6146ce601f8361349e565b91506146d98261469a565b602082019050919050565b5f6020820190508181035f8301526146fb816146c2565b9050919050565b7f5472616e7366657248656c7065723a20415050524f56455f4641494c454400005f82015250565b5f614736601e8361349e565b915061474182614702565b602082019050919050565b5f6020820190508181035f8301526147638161472a565b9050919050565b5f61477482613581565b915061477f83613581565b925082820261478d81613581565b915082820484148315176147a4576147a3613e7a565b5b5092915050565b7f4e487b71000000000000000000000000000000000000000000000000000000005f52601260045260245ffd5b5f6147e282613581565b91506147ed83613581565b9250826147fd576147fc6147ab565b5b828204905092915050565b5f61481282613581565b91507fffffffffffffffffffffffffffffffffffffffffffffffffffffffffffffffff820361484457614843613e7a565b5b60018201905091905056fea26469706673582212206cc18694fecfef09a6d9538632a05b4eeeb55235564d3285dfe1a8eabbe5120664736f6c634300081e0033","linkReferences":{}},"methodIdentifiers":{"FIXED_AMOUNT()":"eccf1694","MAX_REFERRAL_DEPTH()":"89e59ea0","UPGRADE_INTERFACE_VERSION()":"ad3cb1cc","USDT()":"c54e44eb","VENUS()":"1a78ccc1","admin()":"f851a440","awardRecords(address,uint256)":"c023b3a5","claim(uint256)":"379607f5","directReferrals(address,uint256)":"05ad3935","emergencyWithdraw(address,uint256,address)":"551512de","getAddrCollection()":"a2b0332b","getAddrCollectionLength()":"4d38857c","getAwardRecords(address)":"df99b4d0","getDirectReferrals(address)":"d2c8e0e5","getDirectReferralsInfo(address)":"ec18ac79","getUserInfo(address)":"6386c1c7","initialCode()":"10baf089","initialize(address,address,address)":"c0c53b8b","isAddCollection(address)":"39fe3b99","owner()":"8da5cb5b","pause()":"8456cb59","proxiableUUID()":"52d1902d","recipient()":"66d003ac","referral(address)":"7247959a","renounceOwnership()":"715018a6","setGenesisNode(address,bool)":"8c2e5517","setPause(bool)":"bedb86fb","setRecipient(address)":"3bbed4a0","singleRecharge()":"689d2a82","totalPerformance()":"06876dbe","transferOwnership(address)":"f2fde38b","upgradeToAndCall(address,bytes)":"4f1ef286","userInfo(address)":"1959a002","validInvitationCode(address)":"3c4e9d74"},"id":40}