{"abi":[{"type":"receive","stateMutability":"payable"},{"type":"function","name":"FIXED_AMOUNT","inputs":[],"outputs":[{"name":"","type":"uint256","internalType":"uint256"}],"stateMutability":"view"},{"type":"function","name":"MAX_REFERRAL_DEPTH","inputs":[],"outputs":[{"name":"","type":"uint256","internalType":"uint256"}],"stateMutability":"view"},{"type":"function","name":"UPGRADE_INTERFACE_VERSION","inputs":[],"outputs":[{"name":"","type":"string","internalType":"string"}],"stateMutability":"view"},{"type":"function","name":"USDT","inputs":[],"outputs":[{"name":"","type":"address","internalType":"address"}],"stateMutability":"view"},{"type":"function","name":"VENUS","inputs":[],"outputs":[{"name":"","type":"address","internalType":"address"}],"stateMutability":"view"},{"type":"function","name":"admin","inputs":[],"outputs":[{"name":"","type":"address","internalType":"address"}],"stateMutability":"view"},{"type":"function","name":"awardRecords","inputs":[{"name":"","type":"address","internalType":"address"},{"name":"","type":"uint256","internalType":"uint256"}],"outputs":[{"name":"from","type":"address","internalType":"address"},{"name":"amount","type":"uint256","internalType":"uint256"},{"name":"time","type":"uint256","internalType":"uint256"}],"stateMutability":"view"},{"type":"function","name":"claim","inputs":[{"name":"amountUSDT","type":"uint256","internalType":"uint256"}],"outputs":[],"stateMutability":"nonpayable"},{"type":"function","name":"directReferrals","inputs":[{"name":"","type":"address","internalType":"address"},{"name":"","type":"uint256","internalType":"uint256"}],"outputs":[{"name":"","type":"address","internalType":"address"}],"stateMutability":"view"},{"type":"function","name":"emergencyWithdraw","inputs":[{"name":"token","type":"address","internalType":"address"},{"name":"amount","type":"uint256","internalType":"uint256"},{"name":"to","type":"address","internalType":"address"}],"outputs":[],"stateMutability":"nonpayable"},{"type":"function","name":"getAddrCollection","inputs":[],"outputs":[{"name":"","type":"address[]","internalType":"address[]"}],"stateMutability":"view"},{"type":"function","name":"getAddrCollectionLength","inputs":[],"outputs":[{"name":"","type":"uint256","internalType":"uint256"}],"stateMutability":"view"},{"type":"function","name":"getAwardRecords","inputs":[{"name":"user","type":"address","internalType":"address"}],"outputs":[{"name":"","type":"tuple[]","internalType":"struct Staking.Record[]","components":[{"name":"from","type":"address","internalType":"address"},{"name":"amount","type":"uint256","internalType":"uint256"},{"name":"time","type":"uint256","internalType":"uint256"}]}],"stateMutability":"view"},{"type":"function","name":"getDirectReferrals","inputs":[{"name":"user","type":"address","internalType":"address"}],"outputs":[{"name":"","type":"address[]","internalType":"address[]"}],"stateMutability":"view"},{"type":"function","name":"getDirectReferralsInfo","inputs":[{"name":"user","type":"address","internalType":"address"}],"outputs":[{"name":"","type":"tuple[]","internalType":"struct Staking.DirectReferralsInfo[]","components":[{"name":"referral","type":"address","internalType":"address"},{"name":"performance","type":"uint256","internalType":"uint256"}]}],"stateMutability":"view"},{"type":"function","name":"getUserInfo","inputs":[{"name":"user","type":"address","internalType":"address"}],"outputs":[{"name":"recommender","type":"address","internalType":"address"},{"name":"staking","type":"uint256","internalType":"uint256"},{"name":"referralAward","type":"uint256","internalType":"uint256"},{"name":"performance","type":"uint256","internalType":"uint256"},{"name":"referralNum","type":"uint256","internalType":"uint256"},{"name":"isGenesisNode","type":"bool","internalType":"bool"},{"name":"referrals","type":"address[]","internalType":"address[]"}],"stateMutability":"view"},{"type":"function","name":"initialCode","inputs":[],"outputs":[{"name":"","type":"address","internalType":"address"}],"stateMutability":"view"},{"type":"function","name":"initialize","inputs":[{"name":"_admin","type":"address","internalType":"address"},{"name":"_recipient","type":"address","internalType":"address"},{"name":"_initialCode","type":"address","internalType":"address"}],"outputs":[],"stateMutability":"nonpayable"},{"type":"function","name":"isAddCollection","inputs":[{"name":"","type":"address","internalType":"address"}],"outputs":[{"name":"","type":"bool","internalType":"bool"}],"stateMutability":"view"},{"type":"function","name":"owner","inputs":[],"outputs":[{"name":"","type":"address","internalType":"address"}],"stateMutability":"view"},{"type":"function","name":"pause","inputs":[],"outputs":[{"name":"","type":"bool","internalType":"bool"}],"stateMutability":"view"},{"type":"function","name":"proxiableUUID","inputs":[],"outputs":[{"name":"","type":"bytes32","internalType":"bytes32"}],"stateMutability":"view"},{"type":"function","name":"recipient","inputs":[],"outputs":[{"name":"","type":"address","internalType":"address"}],"stateMutability":"view"},{"type":"function","name":"referral","inputs":[{"name":"recommender","type":"address","internalType":"address"}],"outputs":[],"stateMutability":"nonpayable"},{"type":"function","name":"renounceOwnership","inputs":[],"outputs":[],"stateMutability":"nonpayable"},{"type":"function","name":"setGenesisNode","inputs":[{"name":"user","type":"address","internalType":"address"},{"name":"isGenesisNode","type":"bool","internalType":"bool"}],"outputs":[],"stateMutability":"nonpayable"},{"type":"function","name":"setPause","inputs":[{"name":"isPause","type":"bool","internalType":"bool"}],"outputs":[],"stateMutability":"nonpayable"},{"type":"function","name":"setRecipient","inputs":[{"name":"_recipient","type":"address","internalType":"address"}],"outputs":[],"stateMutability":"nonpayable"},{"type":"function","name":"singleRecharge","inputs":[],"outputs":[],"stateMutability":"nonpayable"},{"type":"function","name":"totalPerformance","inputs":[],"outputs":[{"name":"","type":"uint256","internalType":"uint256"}],"stateMutability":"view"},{"type":"function","name":"transferOwnership","inputs":[{"name":"newOwner","type":"address","internalType":"address"}],"outputs":[],"stateMutability":"nonpayable"},{"type":"function","name":"upgradeToAndCall","inputs":[{"name":"newImplementation","type":"address","internalType":"address"},{"name":"data","type":"bytes","internalType":"bytes"}],"outputs":[],"stateMutability":"payable"},{"type":"function","name":"userInfo","inputs":[{"name":"","type":"address","internalType":"address"}],"outputs":[{"name":"recommender","type":"address","internalType":"address"},{"name":"staking","type":"uint256","internalType":"uint256"},{"name":"referralAwards","type":"uint256","internalType":"uint256"},{"name":"performance","type":"uint256","internalType":"uint256"},{"name":"referralNum","type":"uint256","internalType":"uint256"},{"name":"genesisNode","type":"bool","internalType":"bool"}],"stateMutability":"view"},{"type":"function","name":"validInvitationCode","inputs":[{"name":"user","type":"address","internalType":"address"}],"outputs":[{"name":"","type":"bool","internalType":"bool"}],"stateMutability":"view"},{"type":"event","name":"Initialized","inputs":[{"name":"version","type":"uint64","indexed":false,"internalType":"uint64"}],"anonymous":false},{"type":"event","name":"MultiRecharge","inputs":[{"name":"user","type":"address","indexed":false,"internalType":"address"},{"name":"token0","type":"address","indexed":false,"internalType":"address"},{"name":"amount0","type":"uint256","indexed":false,"internalType":"uint256"},{"name":"token1","type":"address","indexed":false,"internalType":"address"},{"name":"amount1","type":"uint256","indexed":false,"internalType":"uint256"},{"name":"remark","type":"string","indexed":false,"internalType":"string"}],"anonymous":false},{"type":"event","name":"OwnershipTransferred","inputs":[{"name":"previousOwner","type":"address","indexed":true,"internalType":"address"},{"name":"newOwner","type":"address","indexed":true,"internalType":"address"}],"anonymous":false},{"type":"event","name":"Referral","inputs":[{"name":"recommender","type":"address","indexed":false,"internalType":"address"},{"name":"referred","type":"address","indexed":false,"internalType":"address"}],"anonymous":false},{"type":"event","name":"Upgraded","inputs":[{"name":"implementation","type":"address","indexed":true,"internalType":"address"}],"anonymous":false},{"type":"error","name":"AddressEmptyCode","inputs":[{"name":"target","type":"address","internalType":"address"}]},{"type":"error","name":"ERC1967InvalidImplementation","inputs":[{"name":"implementation","type":"address","internalType":"address"}]},{"type":"error","name":"ERC1967NonPayable","inputs":[]},{"type":"error","name":"FailedCall","inputs":[]},{"type":"error","name":"InvalidInitialization","inputs":[]},{"type":"error","name":"NotInitializing","inputs":[]},{"type":"error","name":"OwnableInvalidOwner","inputs":[{"name":"owner","type":"address","internalType":"address"}]},{"type":"error","name":"OwnableUnauthorizedAccount","inputs":[{"name":"account","type":"address","internalType":"address"}]},{"type":"error","name":"ReentrancyGuardReentrantCall","inputs":[]},{"type":"error","name":"UUPSUnauthorizedCallContext","inputs":[]},{"type":"error","name":"UUPSUnsupportedProxiableUUID","inputs":[{"name":"slot","type":"bytes32","internalType":"bytes32"}]}],"bytecode":{"object":"0x60a06040523073ffffffffffffffffffffffffffffffffffffffff1660809073ffffffffffffffffffffffffffffffffffffffff168152503480156041575f5ffd5b5060015f819055506080516148f161006f5f395f81816124d20152818161252701526126e101526148f15ff3fe6080604052600436106101fc575f3560e01c80637247959a1161010c578063c023b3a51161009f578063df99b4d01161006e578063df99b4d014610749578063ec18ac7914610785578063eccf1694146107c1578063f2fde38b146107eb578063f851a440146108135761023c565b8063c023b3a51461067d578063c0c53b8b146106bb578063c54e44eb146106e3578063d2c8e0e51461070d5761023c565b80638da5cb5b116100db5780638da5cb5b146105d7578063a2b0332b14610601578063ad3cb1cc1461062b578063bedb86fb146106555761023c565b80637247959a146105335780638456cb591461055b57806389e59ea0146105855780638c2e5517146105af5761023c565b80633c4e9d741161018f578063551512de1161015e578063551512de146104735780636386c1c71461049b57806366d003ac146104dd578063689d2a8214610507578063715018a61461051d5761023c565b80633c4e9d74146103c75780634d38857c146104035780634f1ef2861461042d57806352d1902d146104495761023c565b80631a78ccc1116101cb5780631a78ccc114610311578063379607f51461033b57806339fe3b99146103635780633bbed4a01461039f5761023c565b806305ad39351461024057806306876dbe1461027c57806310baf089146102a65780631959a002146102d05761023c565b3661023c576040517f08c379a000000000000000000000000000000000000000000000000000000000815260040161023390613556565b60405180910390fd5b5f5ffd5b34801561024b575f5ffd5b5061026660048036038101906102619190613612565b61083d565b604051610273919061365f565b60405180910390f35b348015610287575f5ffd5b50610290610885565b60405161029d9190613687565b60405180910390f35b3480156102b1575f5ffd5b506102ba61088b565b6040516102c7919061365f565b60405180910390f35b3480156102db575f5ffd5b506102f660048036038101906102f191906136a0565b6108b0565b604051610308969594939291906136e5565b60405180910390f35b34801561031c575f5ffd5b50610325610913565b604051610332919061365f565b60405180910390f35b348015610346575f5ffd5b50610361600480360381019061035c9190613744565b61092b565b005b34801561036e575f5ffd5b50610389600480360381019061038491906136a0565b610a27565b604051610396919061376f565b60405180910390f35b3480156103aa575f5ffd5b506103c560048036038101906103c091906136a0565b610a44565b005b3480156103d2575f5ffd5b506103ed60048036038101906103e891906136a0565b610b84565b6040516103fa919061376f565b60405180910390f35b34801561040e575f5ffd5b50610417610c78565b6040516104249190613687565b60405180910390f35b610447600480360381019061044291906138c4565b610c84565b005b348015610454575f5ffd5b5061045d610ca3565b60405161046a9190613936565b60405180910390f35b34801561047e575f5ffd5b506104996004803603810190610494919061394f565b610cd4565b005b3480156104a6575f5ffd5b506104c160048036038101906104bc91906136a0565b610d73565b6040516104d49796959493929190613a56565b60405180910390f35b3480156104e8575f5ffd5b506104f1610f57565b6040516104fe919061365f565b60405180910390f35b348015610512575f5ffd5b5061051b610f7c565b005b348015610528575f5ffd5b50610531611469565b005b34801561053e575f5ffd5b50610559600480360381019061055491906136a0565b61147c565b005b348015610566575f5ffd5b5061056f611a05565b60405161057c919061376f565b60405180910390f35b348015610590575f5ffd5b50610599611a17565b6040516105a69190613687565b60405180910390f35b3480156105ba575f5ffd5b506105d560048036038101906105d09190613af4565b611a1d565b005b3480156105e2575f5ffd5b506105eb611b07565b6040516105f8919061365f565b60405180910390f35b34801561060c575f5ffd5b50610615611b3c565b6040516106229190613b32565b60405180910390f35b348015610636575f5ffd5b5061063f611bc7565b60405161064c9190613ba2565b60405180910390f35b348015610660575f5ffd5b5061067b60048036038101906106769190613bc2565b611c00565b005b348015610688575f5ffd5b506106a3600480360381019061069e9190613612565b611c24565b6040516106b293929190613bed565b60405180910390f35b3480156106c6575f5ffd5b506106e160048036038101906106dc9190613c22565b611c83565b005b3480156106ee575f5ffd5b506106f7611ecd565b604051610704919061365f565b60405180910390f35b348015610718575f5ffd5b50610733600480360381019061072e91906136a0565b611ee5565b6040516107409190613b32565b60405180910390f35b348015610754575f5ffd5b5061076f600480360381019061076a91906136a0565b611fad565b60405161077c9190613d69565b60405180910390f35b348015610790575f5ffd5b506107ab60048036038101906107a691906136a0565b6120ae565b6040516107b89190613e5e565b60405180910390f35b3480156107cc575f5ffd5b506107d56122e7565b6040516107e29190613687565b60405180910390f35b3480156107f6575f5ffd5b50610811600480360381019061080c91906136a0565b6122f4565b005b34801561081e575f5ffd5b50610827612378565b604051610834919061365f565b60405180910390f35b6005602052815f5260405f208181548110610856575f80fd5b905f5260205f20015f915091509054906101000a900473ffffffffffffffffffffffffffffffffffffffff1681565b60075481565b60035f9054906101000a900473ffffffffffffffffffffffffffffffffffffffff1681565b6004602052805f5260405f205f91509050805f015f9054906101000a900473ffffffffffffffffffffffffffffffffffffffff1690806001015490806002015490806003015490806004015490806005015f9054906101000a900460ff16905086565b73fd5840cd36d94d7229439859c0112a4185bc025581565b60045f3373ffffffffffffffffffffffffffffffffffffffff1673ffffffffffffffffffffffffffffffffffffffff1681526020019081526020015f20600201548111156109ae576040517f08c379a00000000000000000000000000000000000000000000000000000000081526004016109a590613ec8565b60405180910390fd5b6109ce7355d398326f99059ff775485246999027b319795530338461239d565b8060045f3373ffffffffffffffffffffffffffffffffffffffff1673ffffffffffffffffffffffffffffffffffffffff1681526020019081526020015f206002015f828254610a1d9190613f13565b9250508190555050565b6009602052805f5260405f205f915054906101000a900460ff1681565b3373ffffffffffffffffffffffffffffffffffffffff1660015f9054906101000a900473ffffffffffffffffffffffffffffffffffffffff1673ffffffffffffffffffffffffffffffffffffffff1614610ad3576040517f08c379a0000000000000000000000000000000000000000000000000000000008152600401610aca90613f90565b60405180910390fd5b5f73ffffffffffffffffffffffffffffffffffffffff168173ffffffffffffffffffffffffffffffffffffffff1603610b41576040517f08c379a0000000000000000000000000000000000000000000000000000000008152600401610b3890613ff8565b60405180910390fd5b8060025f6101000a81548173ffffffffffffffffffffffffffffffffffffffff021916908373ffffffffffffffffffffffffffffffffffffffff16021790555050565b5f60035f9054906101000a900473ffffffffffffffffffffffffffffffffffffffff1673ffffffffffffffffffffffffffffffffffffffff168273ffffffffffffffffffffffffffffffffffffffff1603610be25760019050610c73565b5f73ffffffffffffffffffffffffffffffffffffffff1660045f8473ffffffffffffffffffffffffffffffffffffffff1673ffffffffffffffffffffffffffffffffffffffff1681526020019081526020015f205f015f9054906101000a900473ffffffffffffffffffffffffffffffffffffffff1673ffffffffffffffffffffffffffffffffffffffff16141590505b919050565b5f600880549050905090565b610c8c6124d0565b610c95826125b6565b610c9f82826125c1565b5050565b5f610cac6126df565b7f360894a13ba1a3210667c828492db98dca3e2076cc3735a920a3ca505d382bbc5f1b905090565b3373ffffffffffffffffffffffffffffffffffffffff1660015f9054906101000a900473ffffffffffffffffffffffffffffffffffffffff1673ffffffffffffffffffffffffffffffffffffffff1614610d63576040517f08c379a0000000000000000000000000000000000000000000000000000000008152600401610d5a90613f90565b60405180910390fd5b610d6e838284612766565b505050565b5f5f5f5f5f5f60605f60045f8a73ffffffffffffffffffffffffffffffffffffffff1673ffffffffffffffffffffffffffffffffffffffff1681526020019081526020015f206040518060c00160405290815f82015f9054906101000a900473ffffffffffffffffffffffffffffffffffffffff1673ffffffffffffffffffffffffffffffffffffffff1673ffffffffffffffffffffffffffffffffffffffff16815260200160018201548152602001600282015481526020016003820154815260200160048201548152602001600582015f9054906101000a900460ff16151515158152505090505f60055f8b73ffffffffffffffffffffffffffffffffffffffff1673ffffffffffffffffffffffffffffffffffffffff1681526020019081526020015f20805480602002602001604051908101604052809291908181526020018280548015610f1757602002820191905f5260205f20905b815f9054906101000a900473ffffffffffffffffffffffffffffffffffffffff1673ffffffffffffffffffffffffffffffffffffffff1681526020019060010190808311610ece575b50505050509050815f015182602001518360400151846060015185608001518660a001518698509850985098509850985098505050919395979092949650565b60025f9054906101000a900473ffffffffffffffffffffffffffffffffffffffff1681565b610f84612896565b600a5f9054906101000a900460ff1615610fd3576040517f08c379a0000000000000000000000000000000000000000000000000000000008152600401610fca90614060565b60405180910390fd5b5f73ffffffffffffffffffffffffffffffffffffffff1660045f3373ffffffffffffffffffffffffffffffffffffffff1673ffffffffffffffffffffffffffffffffffffffff1681526020019081526020015f205f015f9054906101000a900473ffffffffffffffffffffffffffffffffffffffff1673ffffffffffffffffffffffffffffffffffffffff160361109f576040517f08c379a0000000000000000000000000000000000000000000000000000000008152600401611096906140ee565b60405180910390fd5b6110c87355d398326f99059ff775485246999027b31979553330683635c9adc5dea0000061239d565b6110fb7355d398326f99059ff775485246999027b319795573fd5840cd36d94d7229439859c0112a4185bc02555f6128da565b6111377355d398326f99059ff775485246999027b319795573fd5840cd36d94d7229439859c0112a4185bc0255683635c9adc5dea000006128da565b5f73fd5840cd36d94d7229439859c0112a4185bc025573ffffffffffffffffffffffffffffffffffffffff1663a0712d68683635c9adc5dea000006040518263ffffffff1660e01b815260040161118e9190613687565b6020604051808303815f875af11580156111aa573d5f5f3e3d5ffd5b505050506040513d601f19601f820116820180604052508101906111ce9190614120565b1461120e576040517f08c379a000000000000000000000000000000000000000000000000000000000815260040161120590614195565b60405180910390fd5b5f73fd5840cd36d94d7229439859c0112a4185bc025573ffffffffffffffffffffffffffffffffffffffff166370a08231306040518263ffffffff1660e01b815260040161125c919061365f565b602060405180830381865afa158015611277573d5f5f3e3d5ffd5b505050506040513d601f19601f8201168201806040525081019061129b9190614120565b90506112dd73fd5840cd36d94d7229439859c0112a4185bc025560025f9054906101000a900473ffffffffffffffffffffffffffffffffffffffff1683612766565b683635c9adc5dea0000060045f3373ffffffffffffffffffffffffffffffffffffffff1673ffffffffffffffffffffffffffffffffffffffff1681526020019081526020015f206001015f82825461133591906141b3565b92505081905550683635c9adc5dea0000060075f82825461135691906141b3565b925050819055505f73ffffffffffffffffffffffffffffffffffffffff1660045f3373ffffffffffffffffffffffffffffffffffffffff1673ffffffffffffffffffffffffffffffffffffffff1681526020019081526020015f205f015f9054906101000a900473ffffffffffffffffffffffffffffffffffffffff1673ffffffffffffffffffffffffffffffffffffffff16146114025761140133683635c9adc5dea00000612a0a565b5b7f92bfe9b63523d7c8baff8387323dd4c1c8ccd48705d9c91e19160ebcabb053b8337355d398326f99059ff775485246999027b3197955683635c9adc5dea000005f5f60405161145695949392919061424b565b60405180910390a150611467612d59565b565b611471612d62565b61147a5f612de9565b565b611484612896565b600a5f9054906101000a900460ff16156114d3576040517f08c379a00000000000000000000000000000000000000000000000000000000081526004016114ca90614060565b60405180910390fd5b5f73ffffffffffffffffffffffffffffffffffffffff168173ffffffffffffffffffffffffffffffffffffffff1603611541576040517f08c379a0000000000000000000000000000000000000000000000000000000008152600401611538906142f9565b60405180910390fd5b3373ffffffffffffffffffffffffffffffffffffffff168173ffffffffffffffffffffffffffffffffffffffff16036115af576040517f08c379a00000000000000000000000000000000000000000000000000000000081526004016115a690614361565b60405180910390fd5b60035f9054906101000a900473ffffffffffffffffffffffffffffffffffffffff1673ffffffffffffffffffffffffffffffffffffffff168173ffffffffffffffffffffffffffffffffffffffff16146116d0575f73ffffffffffffffffffffffffffffffffffffffff1660045f8373ffffffffffffffffffffffffffffffffffffffff1673ffffffffffffffffffffffffffffffffffffffff1681526020019081526020015f205f015f9054906101000a900473ffffffffffffffffffffffffffffffffffffffff1673ffffffffffffffffffffffffffffffffffffffff16036116cf576040517f08c379a00000000000000000000000000000000000000000000000000000000081526004016116c6906143ef565b60405180910390fd5b5b5f73ffffffffffffffffffffffffffffffffffffffff1660045f3373ffffffffffffffffffffffffffffffffffffffff1673ffffffffffffffffffffffffffffffffffffffff1681526020019081526020015f205f015f9054906101000a900473ffffffffffffffffffffffffffffffffffffffff1673ffffffffffffffffffffffffffffffffffffffff161461179c576040517f08c379a000000000000000000000000000000000000000000000000000000000815260040161179390614457565b60405180910390fd5b8060045f3373ffffffffffffffffffffffffffffffffffffffff1673ffffffffffffffffffffffffffffffffffffffff1681526020019081526020015f205f015f6101000a81548173ffffffffffffffffffffffffffffffffffffffff021916908373ffffffffffffffffffffffffffffffffffffffff16021790555060055f8273ffffffffffffffffffffffffffffffffffffffff1673ffffffffffffffffffffffffffffffffffffffff1681526020019081526020015f2033908060018154018082558091505060019003905f5260205f20015f9091909190916101000a81548173ffffffffffffffffffffffffffffffffffffffff021916908373ffffffffffffffffffffffffffffffffffffffff16021790555060095f3373ffffffffffffffffffffffffffffffffffffffff1673ffffffffffffffffffffffffffffffffffffffff1681526020019081526020015f205f9054906101000a900460ff166119b857600833908060018154018082558091505060019003905f5260205f20015f9091909190916101000a81548173ffffffffffffffffffffffffffffffffffffffff021916908373ffffffffffffffffffffffffffffffffffffffff160217905550600160095f3373ffffffffffffffffffffffffffffffffffffffff1673ffffffffffffffffffffffffffffffffffffffff1681526020019081526020015f205f6101000a81548160ff0219169083151502179055505b6119c133612eba565b7f9d05414fb79fac216c15606de5cc06664e91a254e4d5f57664d5f1beaf7fb7ef81336040516119f2929190614475565b60405180910390a1611a02612d59565b50565b600a5f9054906101000a900460ff1681565b6101f481565b3373ffffffffffffffffffffffffffffffffffffffff1660015f9054906101000a900473ffffffffffffffffffffffffffffffffffffffff1673ffffffffffffffffffffffffffffffffffffffff1614611aac576040517f08c379a0000000000000000000000000000000000000000000000000000000008152600401611aa390613f90565b60405180910390fd5b8060045f8473ffffffffffffffffffffffffffffffffffffffff1673ffffffffffffffffffffffffffffffffffffffff1681526020019081526020015f206005015f6101000a81548160ff0219169083151502179055505050565b5f5f611b11613067565b9050805f015f9054906101000a900473ffffffffffffffffffffffffffffffffffffffff1691505090565b60606008805480602002602001604051908101604052809291908181526020018280548015611bbd57602002820191905f5260205f20905b815f9054906101000a900473ffffffffffffffffffffffffffffffffffffffff1673ffffffffffffffffffffffffffffffffffffffff1681526020019060010190808311611b74575b5050505050905090565b6040518060400160405280600581526020017f352e302e3000000000000000000000000000000000000000000000000000000081525081565b611c08612d62565b80600a5f6101000a81548160ff02191690831515021790555050565b6006602052815f5260405f208181548110611c3d575f80fd5b905f5260205f2090600302015f9150915050805f015f9054906101000a900473ffffffffffffffffffffffffffffffffffffffff16908060010154908060020154905083565b5f611c8c61308e565b90505f815f0160089054906101000a900460ff161590505f825f015f9054906101000a900467ffffffffffffffff1690505f5f8267ffffffffffffffff16148015611cd45750825b90505f60018367ffffffffffffffff16148015611d0757505f3073ffffffffffffffffffffffffffffffffffffffff163b145b905081158015611d15575080155b15611d4c576040517ff92ee8a900000000000000000000000000000000000000000000000000000000815260040160405180910390fd5b6001855f015f6101000a81548167ffffffffffffffff021916908367ffffffffffffffff1602179055508315611d99576001855f0160086101000a81548160ff0219169083151502179055505b611da9611da46130a1565b6130a8565b8760015f6101000a81548173ffffffffffffffffffffffffffffffffffffffff021916908373ffffffffffffffffffffffffffffffffffffffff1602179055508660025f6101000a81548173ffffffffffffffffffffffffffffffffffffffff021916908373ffffffffffffffffffffffffffffffffffffffff1602179055508560035f6101000a81548173ffffffffffffffffffffffffffffffffffffffff021916908373ffffffffffffffffffffffffffffffffffffffff1602179055508315611ec3575f855f0160086101000a81548160ff0219169083151502179055507fc7f505b2f371ae2175ee4913f4499e1f2633a7b5936321eed1cdaeb6115181d26001604051611eba91906144e8565b60405180910390a15b5050505050505050565b7355d398326f99059ff775485246999027b319795581565b606060055f8373ffffffffffffffffffffffffffffffffffffffff1673ffffffffffffffffffffffffffffffffffffffff1681526020019081526020015f20805480602002602001604051908101604052809291908181526020018280548015611fa157602002820191905f5260205f20905b815f9054906101000a900473ffffffffffffffffffffffffffffffffffffffff1673ffffffffffffffffffffffffffffffffffffffff1681526020019060010190808311611f58575b50505050509050919050565b606060065f8373ffffffffffffffffffffffffffffffffffffffff1673ffffffffffffffffffffffffffffffffffffffff1681526020019081526020015f20805480602002602001604051908101604052809291908181526020015f905b828210156120a3578382905f5260205f2090600302016040518060600160405290815f82015f9054906101000a900473ffffffffffffffffffffffffffffffffffffffff1673ffffffffffffffffffffffffffffffffffffffff1673ffffffffffffffffffffffffffffffffffffffff168152602001600182015481526020016002820154815250508152602001906001019061200b565b505050509050919050565b60605f60055f8473ffffffffffffffffffffffffffffffffffffffff1673ffffffffffffffffffffffffffffffffffffffff1681526020019081526020015f2080548060200260200160405190810160405280929190818152602001828054801561216b57602002820191905f5260205f20905b815f9054906101000a900473ffffffffffffffffffffffffffffffffffffffff1673ffffffffffffffffffffffffffffffffffffffff1681526020019060010190808311612122575b505050505090505f815190505f8167ffffffffffffffff811115612192576121916137a0565b5b6040519080825280602002602001820160405280156121cb57816020015b6121b86134ce565b8152602001906001900390816121b05790505b5090505f5f90505b828110156122db575f8482815181106121ef576121ee614501565b5b6020026020010151905060405180604001604052808273ffffffffffffffffffffffffffffffffffffffff16815260200160045f8473ffffffffffffffffffffffffffffffffffffffff1673ffffffffffffffffffffffffffffffffffffffff1681526020019081526020015f206003015460045f8573ffffffffffffffffffffffffffffffffffffffff1673ffffffffffffffffffffffffffffffffffffffff1681526020019081526020015f20600101546122ac91906141b3565b8152508383815181106122c2576122c1614501565b5b60200260200101819052505080806001019150506121d3565b50809350505050919050565b683635c9adc5dea0000081565b6122fc612d62565b5f73ffffffffffffffffffffffffffffffffffffffff168173ffffffffffffffffffffffffffffffffffffffff160361236c575f6040517f1e4fbdf7000000000000000000000000000000000000000000000000000000008152600401612363919061365f565b60405180910390fd5b61237581612de9565b50565b60015f9054906101000a900473ffffffffffffffffffffffffffffffffffffffff1681565b5f5f8573ffffffffffffffffffffffffffffffffffffffff166323b872dd8686866040516024016123d09392919061452e565b6040516020818303038152906040529060e01b6020820180517bffffffffffffffffffffffffffffffffffffffffffffffffffffffff838183161783525050505060405161241e91906145a7565b5f604051808303815f865af19150503d805f8114612457576040519150601f19603f3d011682016040523d82523d5f602084013e61245c565b606091505b509150915081801561248957505f8151148061248857508080602001905181019061248791906145d1565b5b5b6124c8576040517f08c379a00000000000000000000000000000000000000000000000000000000081526004016124bf9061466c565b60405180910390fd5b505050505050565b7f000000000000000000000000000000000000000000000000000000000000000073ffffffffffffffffffffffffffffffffffffffff163073ffffffffffffffffffffffffffffffffffffffff16148061257d57507f000000000000000000000000000000000000000000000000000000000000000073ffffffffffffffffffffffffffffffffffffffff166125646130bc565b73ffffffffffffffffffffffffffffffffffffffff1614155b156125b4576040517fe07c8dba00000000000000000000000000000000000000000000000000000000815260040160405180910390fd5b565b6125be612d62565b50565b8173ffffffffffffffffffffffffffffffffffffffff166352d1902d6040518163ffffffff1660e01b8152600401602060405180830381865afa92505050801561262957506040513d601f19601f8201168201806040525081019061262691906146b4565b60015b61266a57816040517f4c9c8ce3000000000000000000000000000000000000000000000000000000008152600401612661919061365f565b60405180910390fd5b7f360894a13ba1a3210667c828492db98dca3e2076cc3735a920a3ca505d382bbc5f1b81146126d057806040517faa1d49a40000000000000000000000000000000000000000000000000000000081526004016126c79190613936565b60405180910390fd5b6126da838361310f565b505050565b7f000000000000000000000000000000000000000000000000000000000000000073ffffffffffffffffffffffffffffffffffffffff163073ffffffffffffffffffffffffffffffffffffffff1614612764576040517fe07c8dba00000000000000000000000000000000000000000000000000000000815260040160405180910390fd5b565b5f5f8473ffffffffffffffffffffffffffffffffffffffff1663a9059cbb85856040516024016127979291906146df565b6040516020818303038152906040529060e01b6020820180517bffffffffffffffffffffffffffffffffffffffffffffffffffffffff83818316178352505050506040516127e591906145a7565b5f604051808303815f865af19150503d805f811461281e576040519150601f19603f3d011682016040523d82523d5f602084013e612823565b606091505b509150915081801561285057505f8151148061284f57508080602001905181019061284e91906145d1565b5b5b61288f576040517f08c379a000000000000000000000000000000000000000000000000000000000815260040161288690614750565b60405180910390fd5b5050505050565b60025f54036128d1576040517f3ee5aeb500000000000000000000000000000000000000000000000000000000815260040160405180910390fd5b60025f81905550565b5f5f8473ffffffffffffffffffffffffffffffffffffffff1663095ea7b3858560405160240161290b9291906146df565b6040516020818303038152906040529060e01b6020820180517bffffffffffffffffffffffffffffffffffffffffffffffffffffffff838183161783525050505060405161295991906145a7565b5f604051808303815f865af19150503d805f8114612992576040519150601f19603f3d011682016040523d82523d5f602084013e612997565b606091505b50915091508180156129c457505f815114806129c35750808060200190518101906129c291906145d1565b5b5b612a03576040517f08c379a00000000000000000000000000000000000000000000000000000000081526004016129fa906147b8565b60405180910390fd5b5050505050565b5f60045f8473ffffffffffffffffffffffffffffffffffffffff1673ffffffffffffffffffffffffffffffffffffffff1681526020019081526020015f205f015f9054906101000a900473ffffffffffffffffffffffffffffffffffffffff1690505f5b5f73ffffffffffffffffffffffffffffffffffffffff168273ffffffffffffffffffffffffffffffffffffffff1614612d53578373ffffffffffffffffffffffffffffffffffffffff168273ffffffffffffffffffffffffffffffffffffffff160315612d53578260045f8473ffffffffffffffffffffffffffffffffffffffff1673ffffffffffffffffffffffffffffffffffffffff1681526020019081526020015f206003015f828254612b2491906141b3565b9250508190555060045f8373ffffffffffffffffffffffffffffffffffffffff1673ffffffffffffffffffffffffffffffffffffffff1681526020019081526020015f206005015f9054906101000a900460ff168015612b82575080155b15612ced575f6064600f85612b9791906147d6565b612ba19190614844565b90508060045f8573ffffffffffffffffffffffffffffffffffffffff1673ffffffffffffffffffffffffffffffffffffffff1681526020019081526020015f206002015f828254612bf291906141b3565b9250508190555060065f8473ffffffffffffffffffffffffffffffffffffffff1673ffffffffffffffffffffffffffffffffffffffff1681526020019081526020015f2060405180606001604052808773ffffffffffffffffffffffffffffffffffffffff16815260200183815260200142815250908060018154018082558091505060019003905f5260205f2090600302015f909190919091505f820151815f015f6101000a81548173ffffffffffffffffffffffffffffffffffffffff021916908373ffffffffffffffffffffffffffffffffffffffff1602179055506020820151816001015560408201518160020155505060019150505b60045f8373ffffffffffffffffffffffffffffffffffffffff1673ffffffffffffffffffffffffffffffffffffffff1681526020019081526020015f205f015f9054906101000a900473ffffffffffffffffffffffffffffffffffffffff169150612a6e565b50505050565b60015f81905550565b612d6a6130a1565b73ffffffffffffffffffffffffffffffffffffffff16612d88611b07565b73ffffffffffffffffffffffffffffffffffffffff1614612de757612dab6130a1565b6040517f118cdaa7000000000000000000000000000000000000000000000000000000008152600401612dde919061365f565b60405180910390fd5b565b5f612df2613067565b90505f815f015f9054906101000a900473ffffffffffffffffffffffffffffffffffffffff16905082825f015f6101000a81548173ffffffffffffffffffffffffffffffffffffffff021916908373ffffffffffffffffffffffffffffffffffffffff1602179055508273ffffffffffffffffffffffffffffffffffffffff168173ffffffffffffffffffffffffffffffffffffffff167f8be0079c531659141344cd1fd0a4f28419497f9722a3daafe3b4186f6b6457e060405160405180910390a3505050565b5f60045f8373ffffffffffffffffffffffffffffffffffffffff1673ffffffffffffffffffffffffffffffffffffffff1681526020019081526020015f205f015f9054906101000a900473ffffffffffffffffffffffffffffffffffffffff1690505f5f90505b5f73ffffffffffffffffffffffffffffffffffffffff168273ffffffffffffffffffffffffffffffffffffffff1614158015612f5e57506101f481105b15613062578273ffffffffffffffffffffffffffffffffffffffff168273ffffffffffffffffffffffffffffffffffffffff16031561306257600160045f8473ffffffffffffffffffffffffffffffffffffffff1673ffffffffffffffffffffffffffffffffffffffff1681526020019081526020015f206004015f828254612fe791906141b3565b9250508190555060045f8373ffffffffffffffffffffffffffffffffffffffff1673ffffffffffffffffffffffffffffffffffffffff1681526020019081526020015f205f015f9054906101000a900473ffffffffffffffffffffffffffffffffffffffff169150808061305a90614874565b915050612f21565b505050565b5f7f9016d09d72d40fdae2fd8ceac6b6234c7706214fd39c1cd1e609a0528c199300905090565b5f5f613098613181565b90508091505090565b5f33905090565b6130b06131aa565b6130b9816131ea565b50565b5f6130e87f360894a13ba1a3210667c828492db98dca3e2076cc3735a920a3ca505d382bbc5f1b61326e565b5f015f9054906101000a900473ffffffffffffffffffffffffffffffffffffffff16905090565b61311882613277565b8173ffffffffffffffffffffffffffffffffffffffff167fbc7cd75a20ee27fd9adebab32041f755214dbc6bffa90cc0225b39da2e5c2d3b60405160405180910390a25f815111156131745761316e8282613340565b5061317d565b61317c613431565b5b5050565b5f7ff0c57e16840df040f15088dc2f81fe391c3923bec73e23a9662efc9c229c6a005f1b905090565b6131b261346d565b6131e8576040517fd7e6bcf800000000000000000000000000000000000000000000000000000000815260040160405180910390fd5b565b6131f26131aa565b5f73ffffffffffffffffffffffffffffffffffffffff168173ffffffffffffffffffffffffffffffffffffffff1603613262575f6040517f1e4fbdf7000000000000000000000000000000000000000000000000000000008152600401613259919061365f565b60405180910390fd5b61326b81612de9565b50565b5f819050919050565b5f8173ffffffffffffffffffffffffffffffffffffffff163b036132d257806040517f4c9c8ce30000000000000000000000000000000000000000000000000000000081526004016132c9919061365f565b60405180910390fd5b806132fe7f360894a13ba1a3210667c828492db98dca3e2076cc3735a920a3ca505d382bbc5f1b61326e565b5f015f6101000a81548173ffffffffffffffffffffffffffffffffffffffff021916908373ffffffffffffffffffffffffffffffffffffffff16021790555050565b60605f61334d848461348b565b905080801561338357505f61336061349f565b118061338257505f8473ffffffffffffffffffffffffffffffffffffffff163b115b5b15613398576133906134a6565b91505061342b565b80156133db57836040517f9996b3150000000000000000000000000000000000000000000000000000000081526004016133d2919061365f565b60405180910390fd5b5f6133e461349f565b11156133f7576133f26134c3565b613429565b6040517fd6bda27500000000000000000000000000000000000000000000000000000000815260040160405180910390fd5b505b92915050565b5f34111561346b576040517fb398979f00000000000000000000000000000000000000000000000000000000815260040160405180910390fd5b565b5f61347661308e565b5f0160089054906101000a900460ff16905090565b5f5f5f835160208501865af4905092915050565b5f3d905090565b606060405190503d81523d5f602083013e3d602001810160405290565b6040513d5f823e3d81fd5b60405180604001604052805f73ffffffffffffffffffffffffffffffffffffffff1681526020015f81525090565b5f82825260208201905092915050565b7f4e4f5f4449524543545f53454e440000000000000000000000000000000000005f82015250565b5f613540600e836134fc565b915061354b8261350c565b602082019050919050565b5f6020820190508181035f83015261356d81613534565b9050919050565b5f604051905090565b5f5ffd5b5f5ffd5b5f73ffffffffffffffffffffffffffffffffffffffff82169050919050565b5f6135ae82613585565b9050919050565b6135be816135a4565b81146135c8575f5ffd5b50565b5f813590506135d9816135b5565b92915050565b5f819050919050565b6135f1816135df565b81146135fb575f5ffd5b50565b5f8135905061360c816135e8565b92915050565b5f5f604083850312156136285761362761357d565b5b5f613635858286016135cb565b9250506020613646858286016135fe565b9150509250929050565b613659816135a4565b82525050565b5f6020820190506136725f830184613650565b92915050565b613681816135df565b82525050565b5f60208201905061369a5f830184613678565b92915050565b5f602082840312156136b5576136b461357d565b5b5f6136c2848285016135cb565b91505092915050565b5f8115159050919050565b6136df816136cb565b82525050565b5f60c0820190506136f85f830189613650565b6137056020830188613678565b6137126040830187613678565b61371f6060830186613678565b61372c6080830185613678565b61373960a08301846136d6565b979650505050505050565b5f602082840312156137595761375861357d565b5b5f613766848285016135fe565b91505092915050565b5f6020820190506137825f8301846136d6565b92915050565b5f5ffd5b5f5ffd5b5f601f19601f8301169050919050565b7f4e487b71000000000000000000000000000000000000000000000000000000005f52604160045260245ffd5b6137d682613790565b810181811067ffffffffffffffff821117156137f5576137f46137a0565b5b80604052505050565b5f613807613574565b905061381382826137cd565b919050565b5f67ffffffffffffffff821115613832576138316137a0565b5b61383b82613790565b9050602081019050919050565b828183375f83830152505050565b5f61386861386384613818565b6137fe565b9050828152602081018484840111156138845761388361378c565b5b61388f848285613848565b509392505050565b5f82601f8301126138ab576138aa613788565b5b81356138bb848260208601613856565b91505092915050565b5f5f604083850312156138da576138d961357d565b5b5f6138e7858286016135cb565b925050602083013567ffffffffffffffff81111561390857613907613581565b5b61391485828601613897565b9150509250929050565b5f819050919050565b6139308161391e565b82525050565b5f6020820190506139495f830184613927565b92915050565b5f5f5f606084860312156139665761396561357d565b5b5f613973868287016135cb565b9350506020613984868287016135fe565b9250506040613995868287016135cb565b9150509250925092565b5f81519050919050565b5f82825260208201905092915050565b5f819050602082019050919050565b6139d1816135a4565b82525050565b5f6139e283836139c8565b60208301905092915050565b5f602082019050919050565b5f613a048261399f565b613a0e81856139a9565b9350613a19836139b9565b805f5b83811015613a49578151613a3088826139d7565b9750613a3b836139ee565b925050600181019050613a1c565b5085935050505092915050565b5f60e082019050613a695f83018a613650565b613a766020830189613678565b613a836040830188613678565b613a906060830187613678565b613a9d6080830186613678565b613aaa60a08301856136d6565b81810360c0830152613abc81846139fa565b905098975050505050505050565b613ad3816136cb565b8114613add575f5ffd5b50565b5f81359050613aee81613aca565b92915050565b5f5f60408385031215613b0a57613b0961357d565b5b5f613b17858286016135cb565b9250506020613b2885828601613ae0565b9150509250929050565b5f6020820190508181035f830152613b4a81846139fa565b905092915050565b5f81519050919050565b8281835e5f83830152505050565b5f613b7482613b52565b613b7e81856134fc565b9350613b8e818560208601613b5c565b613b9781613790565b840191505092915050565b5f6020820190508181035f830152613bba8184613b6a565b905092915050565b5f60208284031215613bd757613bd661357d565b5b5f613be484828501613ae0565b91505092915050565b5f606082019050613c005f830186613650565b613c0d6020830185613678565b613c1a6040830184613678565b949350505050565b5f5f5f60608486031215613c3957613c3861357d565b5b5f613c46868287016135cb565b9350506020613c57868287016135cb565b9250506040613c68868287016135cb565b9150509250925092565b5f81519050919050565b5f82825260208201905092915050565b5f819050602082019050919050565b613ca4816135df565b82525050565b606082015f820151613cbe5f8501826139c8565b506020820151613cd16020850182613c9b565b506040820151613ce46040850182613c9b565b50505050565b5f613cf58383613caa565b60608301905092915050565b5f602082019050919050565b5f613d1782613c72565b613d218185613c7c565b9350613d2c83613c8c565b805f5b83811015613d5c578151613d438882613cea565b9750613d4e83613d01565b925050600181019050613d2f565b5085935050505092915050565b5f6020820190508181035f830152613d818184613d0d565b905092915050565b5f81519050919050565b5f82825260208201905092915050565b5f819050602082019050919050565b604082015f820151613dc65f8501826139c8565b506020820151613dd96020850182613c9b565b50505050565b5f613dea8383613db2565b60408301905092915050565b5f602082019050919050565b5f613e0c82613d89565b613e168185613d93565b9350613e2183613da3565b805f5b83811015613e51578151613e388882613ddf565b9750613e4383613df6565b925050600181019050613e24565b5085935050505092915050565b5f6020820190508181035f830152613e768184613e02565b905092915050565b7f4552524f525f414d4f554e545f555344542e00000000000000000000000000005f82015250565b5f613eb26012836134fc565b9150613ebd82613e7e565b602082019050919050565b5f6020820190508181035f830152613edf81613ea6565b9050919050565b7f4e487b71000000000000000000000000000000000000000000000000000000005f52601160045260245ffd5b5f613f1d826135df565b9150613f28836135df565b9250828203905081811115613f4057613f3f613ee6565b5b92915050565b7f4552524f525f5045524d49542e000000000000000000000000000000000000005f82015250565b5f613f7a600d836134fc565b9150613f8582613f46565b602082019050919050565b5f6020820190508181035f830152613fa781613f6e565b9050919050565b7f5a45524f5f4144445245535300000000000000000000000000000000000000005f82015250565b5f613fe2600c836134fc565b9150613fed82613fae565b602082019050919050565b5f6020820190508181035f83015261400f81613fd6565b9050919050565b7f50415553455f52454348415247452e00000000000000000000000000000000005f82015250565b5f61404a600f836134fc565b915061405582614016565b602082019050919050565b5f6020820190508181035f8301526140778161403e565b9050919050565b7f5245434f4d4d454e444154494f4e5f49535f52455155495245445f52454348415f8201527f5247452e00000000000000000000000000000000000000000000000000000000602082015250565b5f6140d86024836134fc565b91506140e38261407e565b604082019050919050565b5f6020820190508181035f830152614105816140cc565b9050919050565b5f8151905061411a816135e8565b92915050565b5f602082840312156141355761413461357d565b5b5f6141428482850161410c565b91505092915050565b7f56454e55535f4d494e545f4641494c45440000000000000000000000000000005f82015250565b5f61417f6011836134fc565b915061418a8261414b565b602082019050919050565b5f6020820190508181035f8301526141ac81614173565b9050919050565b5f6141bd826135df565b91506141c8836135df565b92508282019050808211156141e0576141df613ee6565b5b92915050565b5f819050919050565b5f819050919050565b5f61421261420d614208846141e6565b6141ef565b6135df565b9050919050565b614222816141f8565b82525050565b50565b5f6142365f836134fc565b915061424182614228565b5f82019050919050565b5f60c08201905061425e5f830188613650565b61426b6020830187613650565b6142786040830186613678565b6142856060830185613650565b6142926080830184614219565b81810360a08301526142a38161422b565b90509695505050505050565b7f5a45524f5f414444524553532e000000000000000000000000000000000000005f82015250565b5f6142e3600d836134fc565b91506142ee826142af565b602082019050919050565b5f6020820190508181035f830152614310816142d7565b9050919050565b7f494e56414c49445f5245434f4d4d454e4445522e0000000000000000000000005f82015250565b5f61434b6014836134fc565b915061435682614317565b602082019050919050565b5f6020820190508181035f8301526143788161433f565b9050919050565b7f5245434f4d4d454e444154494f4e5f49535f52455155495245445f52454645525f8201527f52414c2e00000000000000000000000000000000000000000000000000000000602082015250565b5f6143d96024836134fc565b91506143e48261437f565b604082019050919050565b5f6020820190508181035f830152614406816143cd565b9050919050565b7f494e56495445525f414c52454144595f4558495354532e0000000000000000005f82015250565b5f6144416017836134fc565b915061444c8261440d565b602082019050919050565b5f6020820190508181035f83015261446e81614435565b9050919050565b5f6040820190506144885f830185613650565b6144956020830184613650565b9392505050565b5f819050919050565b5f67ffffffffffffffff82169050919050565b5f6144d26144cd6144c88461449c565b6141ef565b6144a5565b9050919050565b6144e2816144b8565b82525050565b5f6020820190506144fb5f8301846144d9565b92915050565b7f4e487b71000000000000000000000000000000000000000000000000000000005f52603260045260245ffd5b5f6060820190506145415f830186613650565b61454e6020830185613650565b61455b6040830184613678565b949350505050565b5f81519050919050565b5f81905092915050565b5f61458182614563565b61458b818561456d565b935061459b818560208601613b5c565b80840191505092915050565b5f6145b28284614577565b915081905092915050565b5f815190506145cb81613aca565b92915050565b5f602082840312156145e6576145e561357d565b5b5f6145f3848285016145bd565b91505092915050565b7f5472616e7366657248656c7065723a205452414e534645525f46524f4d5f46415f8201527f494c454400000000000000000000000000000000000000000000000000000000602082015250565b5f6146566024836134fc565b9150614661826145fc565b604082019050919050565b5f6020820190508181035f8301526146838161464a565b9050919050565b6146938161391e565b811461469d575f5ffd5b50565b5f815190506146ae8161468a565b92915050565b5f602082840312156146c9576146c861357d565b5b5f6146d6848285016146a0565b91505092915050565b5f6040820190506146f25f830185613650565b6146ff6020830184613678565b9392505050565b7f5472616e7366657248656c7065723a205452414e534645525f4641494c4544005f82015250565b5f61473a601f836134fc565b915061474582614706565b602082019050919050565b5f6020820190508181035f8301526147678161472e565b9050919050565b7f5472616e7366657248656c7065723a20415050524f56455f4641494c454400005f82015250565b5f6147a2601e836134fc565b91506147ad8261476e565b602082019050919050565b5f6020820190508181035f8301526147cf81614796565b9050919050565b5f6147e0826135df565b91506147eb836135df565b92508282026147f9816135df565b915082820484148315176148105761480f613ee6565b5b5092915050565b7f4e487b71000000000000000000000000000000000000000000000000000000005f52601260045260245ffd5b5f61484e826135df565b9150614859836135df565b92508261486957614868614817565b5b828204905092915050565b5f61487e826135df565b91507fffffffffffffffffffffffffffffffffffffffffffffffffffffffffffffffff82036148b0576148af613ee6565b5b60018201905091905056fea264697066735822122049f42026091d6d1a0f2abf61768080cacd80cd4e8ab5750bc82b7eea63ca396b64736f6c634300081e0033","linkReferences":{}},"methodIdentifiers":{"FIXED_AMOUNT()":"eccf1694","MAX_REFERRAL_DEPTH()":"89e59ea0","UPGRADE_INTERFACE_VERSION()":"ad3cb1cc","USDT()":"c54e44eb","VENUS()":"1a78ccc1","admin()":"f851a440","awardRecords(address,uint256)":"c023b3a5","claim(uint256)":"379607f5","directReferrals(address,uint256)":"05ad3935","emergencyWithdraw(address,uint256,address)":"551512de","getAddrCollection()":"a2b0332b","getAddrCollectionLength()":"4d38857c","getAwardRecords(address)":"df99b4d0","getDirectReferrals(address)":"d2c8e0e5","getDirectReferralsInfo(address)":"ec18ac79","getUserInfo(address)":"6386c1c7","initialCode()":"10baf089","initialize(address,address,address)":"c0c53b8b","isAddCollection(address)":"39fe3b99","owner()":"8da5cb5b","pause()":"8456cb59","proxiableUUID()":"52d1902d","recipient()":"66d003ac","referral(address)":"7247959a","renounceOwnership()":"715018a6","setGenesisNode(address,bool)":"8c2e5517","setPause(bool)":"bedb86fb","setRecipient(address)":"3bbed4a0","singleRecharge()":"689d2a82","totalPerformance()":"06876dbe","transferOwnership(address)":"f2fde38b","upgradeToAndCall(address,bytes)":"4f1ef286","userInfo(address)":"1959a002","validInvitationCode(address)":"3c4e9d74"},"id":34}