{"abi":[{"type":"receive","stateMutability":"payable"},{"type":"function","name":"FIXED_AMOUNT","inputs":[],"outputs":[{"name":"","type":"uint256","internalType":"uint256"}],"stateMutability":"view"},{"type":"function","name":"MAX_REFERRAL_DEPTH","inputs":[],"outputs":[{"name":"","type":"uint256","internalType":"uint256"}],"stateMutability":"view"},{"type":"function","name":"UPGRADE_INTERFACE_VERSION","inputs":[],"outputs":[{"name":"","type":"string","internalType":"string"}],"stateMutability":"view"},{"type":"function","name":"USDT","inputs":[],"outputs":[{"name":"","type":"address","internalType":"address"}],"stateMutability":"view"},{"type":"function","name":"VENUS","inputs":[],"outputs":[{"name":"","type":"address","internalType":"address"}],"stateMutability":"view"},{"type":"function","name":"admin","inputs":[],"outputs":[{"name":"","type":"address","internalType":"address"}],"stateMutability":"view"},{"type":"function","name":"claim","inputs":[{"name":"amountUSDT","type":"uint256","internalType":"uint256"}],"outputs":[],"stateMutability":"nonpayable"},{"type":"function","name":"directReferrals","inputs":[{"name":"","type":"address","internalType":"address"},{"name":"","type":"uint256","internalType":"uint256"}],"outputs":[{"name":"","type":"address","internalType":"address"}],"stateMutability":"view"},{"type":"function","name":"emergencyWithdraw","inputs":[{"name":"token","type":"address","internalType":"address"},{"name":"amount","type":"uint256","internalType":"uint256"},{"name":"to","type":"address","internalType":"address"}],"outputs":[],"stateMutability":"nonpayable"},{"type":"function","name":"getAddrCollection","inputs":[],"outputs":[{"name":"","type":"address[]","internalType":"address[]"}],"stateMutability":"view"},{"type":"function","name":"getAddrCollectionLength","inputs":[],"outputs":[{"name":"","type":"uint256","internalType":"uint256"}],"stateMutability":"view"},{"type":"function","name":"getDirectReferrals","inputs":[{"name":"user","type":"address","internalType":"address"}],"outputs":[{"name":"","type":"address[]","internalType":"address[]"}],"stateMutability":"view"},{"type":"function","name":"getDirectReferralsInfo","inputs":[{"name":"user","type":"address","internalType":"address"}],"outputs":[{"name":"","type":"tuple[]","internalType":"struct Staking.DirectReferralsInfo[]","components":[{"name":"referral","type":"address","internalType":"address"},{"name":"performance","type":"uint256","internalType":"uint256"}]}],"stateMutability":"view"},{"type":"function","name":"getSenderApprove","inputs":[],"outputs":[{"name":"","type":"uint256","internalType":"uint256"}],"stateMutability":"view"},{"type":"function","name":"getUserInfo","inputs":[{"name":"user","type":"address","internalType":"address"}],"outputs":[{"name":"recommender","type":"address","internalType":"address"},{"name":"staking","type":"uint256","internalType":"uint256"},{"name":"referralAward","type":"uint256","internalType":"uint256"},{"name":"performance","type":"uint256","internalType":"uint256"},{"name":"referralNum","type":"uint256","internalType":"uint256"},{"name":"referrals","type":"address[]","internalType":"address[]"}],"stateMutability":"view"},{"type":"function","name":"initialCode","inputs":[],"outputs":[{"name":"","type":"address","internalType":"address"}],"stateMutability":"view"},{"type":"function","name":"initialize","inputs":[{"name":"_admin","type":"address","internalType":"address"},{"name":"_recipient","type":"address","internalType":"address"},{"name":"_sender","type":"address","internalType":"address"},{"name":"_initialCode","type":"address","internalType":"address"}],"outputs":[],"stateMutability":"nonpayable"},{"type":"function","name":"isAddCollection","inputs":[{"name":"","type":"address","internalType":"address"}],"outputs":[{"name":"","type":"bool","internalType":"bool"}],"stateMutability":"view"},{"type":"function","name":"owner","inputs":[],"outputs":[{"name":"","type":"address","internalType":"address"}],"stateMutability":"view"},{"type":"function","name":"pause","inputs":[],"outputs":[{"name":"","type":"bool","internalType":"bool"}],"stateMutability":"view"},{"type":"function","name":"proxiableUUID","inputs":[],"outputs":[{"name":"","type":"bytes32","internalType":"bytes32"}],"stateMutability":"view"},{"type":"function","name":"recipient","inputs":[],"outputs":[{"name":"","type":"address","internalType":"address"}],"stateMutability":"view"},{"type":"function","name":"referral","inputs":[{"name":"recommender","type":"address","internalType":"address"}],"outputs":[],"stateMutability":"nonpayable"},{"type":"function","name":"renounceOwnership","inputs":[],"outputs":[],"stateMutability":"nonpayable"},{"type":"function","name":"sender","inputs":[],"outputs":[{"name":"","type":"address","internalType":"address"}],"stateMutability":"view"},{"type":"function","name":"setGenesisNode","inputs":[{"name":"user","type":"address","internalType":"address"},{"name":"isGenesisNode","type":"bool","internalType":"bool"}],"outputs":[],"stateMutability":"nonpayable"},{"type":"function","name":"setPause","inputs":[{"name":"isPause","type":"bool","internalType":"bool"}],"outputs":[],"stateMutability":"nonpayable"},{"type":"function","name":"setRecipient","inputs":[{"name":"_recipient","type":"address","internalType":"address"}],"outputs":[],"stateMutability":"nonpayable"},{"type":"function","name":"setSender","inputs":[{"name":"_sender","type":"address","internalType":"address"}],"outputs":[],"stateMutability":"nonpayable"},{"type":"function","name":"singleRecharge","inputs":[],"outputs":[],"stateMutability":"nonpayable"},{"type":"function","name":"totalPerformance","inputs":[],"outputs":[{"name":"","type":"uint256","internalType":"uint256"}],"stateMutability":"view"},{"type":"function","name":"transferOwnership","inputs":[{"name":"newOwner","type":"address","internalType":"address"}],"outputs":[],"stateMutability":"nonpayable"},{"type":"function","name":"upgradeToAndCall","inputs":[{"name":"newImplementation","type":"address","internalType":"address"},{"name":"data","type":"bytes","internalType":"bytes"}],"outputs":[],"stateMutability":"payable"},{"type":"function","name":"userInfo","inputs":[{"name":"","type":"address","internalType":"address"}],"outputs":[{"name":"recommender","type":"address","internalType":"address"},{"name":"staking","type":"uint256","internalType":"uint256"},{"name":"referralAwards","type":"uint256","internalType":"uint256"},{"name":"performance","type":"uint256","internalType":"uint256"},{"name":"referralNum","type":"uint256","internalType":"uint256"},{"name":"genesisNode","type":"bool","internalType":"bool"}],"stateMutability":"view"},{"type":"function","name":"validInvitationCode","inputs":[{"name":"user","type":"address","internalType":"address"}],"outputs":[{"name":"","type":"bool","internalType":"bool"}],"stateMutability":"view"},{"type":"event","name":"Initialized","inputs":[{"name":"version","type":"uint64","indexed":false,"internalType":"uint64"}],"anonymous":false},{"type":"event","name":"MultiRecharge","inputs":[{"name":"user","type":"address","indexed":false,"internalType":"address"},{"name":"token0","type":"address","indexed":false,"internalType":"address"},{"name":"amount0","type":"uint256","indexed":false,"internalType":"uint256"},{"name":"token1","type":"address","indexed":false,"internalType":"address"},{"name":"amount1","type":"uint256","indexed":false,"internalType":"uint256"},{"name":"remark","type":"string","indexed":false,"internalType":"string"}],"anonymous":false},{"type":"event","name":"OwnershipTransferred","inputs":[{"name":"previousOwner","type":"address","indexed":true,"internalType":"address"},{"name":"newOwner","type":"address","indexed":true,"internalType":"address"}],"anonymous":false},{"type":"event","name":"Referral","inputs":[{"name":"recommender","type":"address","indexed":false,"internalType":"address"},{"name":"referred","type":"address","indexed":false,"internalType":"address"}],"anonymous":false},{"type":"event","name":"Upgraded","inputs":[{"name":"implementation","type":"address","indexed":true,"internalType":"address"}],"anonymous":false},{"type":"error","name":"AddressEmptyCode","inputs":[{"name":"target","type":"address","internalType":"address"}]},{"type":"error","name":"ERC1967InvalidImplementation","inputs":[{"name":"implementation","type":"address","internalType":"address"}]},{"type":"error","name":"ERC1967NonPayable","inputs":[]},{"type":"error","name":"FailedCall","inputs":[]},{"type":"error","name":"InvalidInitialization","inputs":[]},{"type":"error","name":"NotInitializing","inputs":[]},{"type":"error","name":"OwnableInvalidOwner","inputs":[{"name":"owner","type":"address","internalType":"address"}]},{"type":"error","name":"OwnableUnauthorizedAccount","inputs":[{"name":"account","type":"address","internalType":"address"}]},{"type":"error","name":"ReentrancyGuardReentrantCall","inputs":[]},{"type":"error","name":"UUPSUnauthorizedCallContext","inputs":[]},{"type":"error","name":"UUPSUnsupportedProxiableUUID","inputs":[{"name":"slot","type":"bytes32","internalType":"bytes32"}]}],"bytecode":{"object":"0x60a06040523073ffffffffffffffffffffffffffffffffffffffff1660809073ffffffffffffffffffffffffffffffffffffffff168152503480156041575f5ffd5b5060015f819055506080516145fd61006f5f395f818161248f015281816124e4015261269e01526145fd5ff3fe608060405260043610610207575f3560e01c8063689d2a8211610117578063bedb86fb1161009f578063ec18ac791161006e578063ec18ac7914610769578063eccf1694146107a5578063f2fde38b146107cf578063f851a440146107f7578063f8c8765e1461082157610247565b8063bedb86fb146106b3578063c54e44eb146106db578063ced32b0c14610705578063d2c8e0e51461072d57610247565b806389e59ea0116100e657806389e59ea0146105e35780638c2e55171461060d5780638da5cb5b14610635578063a2b0332b1461065f578063ad3cb1cc1461068957610247565b8063689d2a8214610565578063715018a61461057b5780637247959a146105915780638456cb59146105b957610247565b80633bbed4a01161019a57806352d1902d1161016957806352d1902d1461047e578063551512de146104a85780636386c1c7146104d057806366d003ac1461051157806367e404ce1461053b57610247565b80633bbed4a0146103d45780633c4e9d74146103fc5780634d38857c146104385780634f1ef2861461046257610247565b80631959a002116101d65780631959a002146103055780631a78ccc114610346578063379607f51461037057806339fe3b991461039857610247565b806305ad39351461024b57806306876dbe146102875780630be04d7a146102b157806310baf089146102db57610247565b36610247576040517f08c379a000000000000000000000000000000000000000000000000000000000815260040161023e90613399565b60405180910390fd5b5f5ffd5b348015610256575f5ffd5b50610271600480360381019061026c9190613455565b610849565b60405161027e91906134a2565b60405180910390f35b348015610292575f5ffd5b5061029b610891565b6040516102a891906134ca565b60405180910390f35b3480156102bc575f5ffd5b506102c5610897565b6040516102d291906134ca565b60405180910390f35b3480156102e6575f5ffd5b506102ef61094c565b6040516102fc91906134a2565b60405180910390f35b348015610310575f5ffd5b5061032b600480360381019061032691906134e3565b610971565b60405161033d96959493929190613528565b60405180910390f35b348015610351575f5ffd5b5061035a6109d4565b60405161036791906134a2565b60405180910390f35b34801561037b575f5ffd5b5061039660048036038101906103919190613587565b6109ec565b005b3480156103a3575f5ffd5b506103be60048036038101906103b991906134e3565b610b09565b6040516103cb91906135b2565b60405180910390f35b3480156103df575f5ffd5b506103fa60048036038101906103f591906134e3565b610b26565b005b348015610407575f5ffd5b50610422600480360381019061041d91906134e3565b610bdf565b60405161042f91906135b2565b60405180910390f35b348015610443575f5ffd5b5061044c610cd3565b60405161045991906134ca565b60405180910390f35b61047c60048036038101906104779190613707565b610cdf565b005b348015610489575f5ffd5b50610492610cfe565b60405161049f9190613779565b60405180910390f35b3480156104b3575f5ffd5b506104ce60048036038101906104c99190613792565b610d2f565b005b3480156104db575f5ffd5b506104f660048036038101906104f191906134e3565b610d47565b60405161050896959493929190613899565b60405180910390f35b34801561051c575f5ffd5b50610525610f21565b60405161053291906134a2565b60405180910390f35b348015610546575f5ffd5b5061054f610f46565b60405161055c91906134a2565b60405180910390f35b348015610570575f5ffd5b50610579610f6b565b005b348015610586575f5ffd5b5061058f611451565b005b34801561059c575f5ffd5b506105b760048036038101906105b291906134e3565b611464565b005b3480156105c4575f5ffd5b506105cd6119ed565b6040516105da91906135b2565b60405180910390f35b3480156105ee575f5ffd5b506105f76119ff565b60405161060491906134ca565b60405180910390f35b348015610618575f5ffd5b50610633600480360381019061062e9190613929565b611a05565b005b348015610640575f5ffd5b50610649611aef565b60405161065691906134a2565b60405180910390f35b34801561066a575f5ffd5b50610673611b24565b6040516106809190613967565b60405180910390f35b348015610694575f5ffd5b5061069d611baf565b6040516106aa91906139d7565b60405180910390f35b3480156106be575f5ffd5b506106d960048036038101906106d491906139f7565b611be8565b005b3480156106e6575f5ffd5b506106ef611c0c565b6040516106fc91906134a2565b60405180910390f35b348015610710575f5ffd5b5061072b600480360381019061072691906134e3565b611c24565b005b348015610738575f5ffd5b50610753600480360381019061074e91906134e3565b611cdd565b6040516107609190613967565b60405180910390f35b348015610774575f5ffd5b5061078f600480360381019061078a91906134e3565b611da5565b60405161079c9190613b06565b60405180910390f35b3480156107b0575f5ffd5b506107b9611f93565b6040516107c691906134ca565b60405180910390f35b3480156107da575f5ffd5b506107f560048036038101906107f091906134e3565b611f9f565b005b348015610802575f5ffd5b5061080b612023565b60405161081891906134a2565b60405180910390f35b34801561082c575f5ffd5b5061084760048036038101906108429190613b26565b612048565b005b6006602052815f5260405f208181548110610862575f80fd5b905f5260205f20015f915091509054906101000a900473ffffffffffffffffffffffffffffffffffffffff1681565b60075481565b5f7355d398326f99059ff775485246999027b319795573ffffffffffffffffffffffffffffffffffffffff1663dd62ed3e60035f9054906101000a900473ffffffffffffffffffffffffffffffffffffffff16306040518363ffffffff1660e01b8152600401610908929190613b8a565b602060405180830381865afa158015610923573d5f5f3e3d5ffd5b505050506040513d601f19601f820116820180604052508101906109479190613bc5565b905090565b60045f9054906101000a900473ffffffffffffffffffffffffffffffffffffffff1681565b6005602052805f5260405f205f91509050805f015f9054906101000a900473ffffffffffffffffffffffffffffffffffffffff1690806001015490806002015490806003015490806004015490806005015f9054906101000a900460ff16905086565b73fd5840cd36d94d7229439859c0112a4185bc025581565b60055f3373ffffffffffffffffffffffffffffffffffffffff1673ffffffffffffffffffffffffffffffffffffffff1681526020019081526020015f2060020154811115610a6f576040517f08c379a0000000000000000000000000000000000000000000000000000000008152600401610a6690613c3a565b60405180910390fd5b610ab07355d398326f99059ff775485246999027b319795560035f9054906101000a900473ffffffffffffffffffffffffffffffffffffffff1633846122d3565b8060055f3373ffffffffffffffffffffffffffffffffffffffff1673ffffffffffffffffffffffffffffffffffffffff1681526020019081526020015f206002015f828254610aff9190613c85565b9250508190555050565b6009602052805f5260405f205f915054906101000a900460ff1681565b610b2e612406565b5f73ffffffffffffffffffffffffffffffffffffffff168173ffffffffffffffffffffffffffffffffffffffff1603610b9c576040517f08c379a0000000000000000000000000000000000000000000000000000000008152600401610b9390613d02565b60405180910390fd5b8060025f6101000a81548173ffffffffffffffffffffffffffffffffffffffff021916908373ffffffffffffffffffffffffffffffffffffffff16021790555050565b5f60045f9054906101000a900473ffffffffffffffffffffffffffffffffffffffff1673ffffffffffffffffffffffffffffffffffffffff168273ffffffffffffffffffffffffffffffffffffffff1603610c3d5760019050610cce565b5f73ffffffffffffffffffffffffffffffffffffffff1660055f8473ffffffffffffffffffffffffffffffffffffffff1673ffffffffffffffffffffffffffffffffffffffff1681526020019081526020015f205f015f9054906101000a900473ffffffffffffffffffffffffffffffffffffffff1673ffffffffffffffffffffffffffffffffffffffff16141590505b919050565b5f600880549050905090565b610ce761248d565b610cf082612573565b610cfa828261257e565b5050565b5f610d0761269c565b7f360894a13ba1a3210667c828492db98dca3e2076cc3735a920a3ca505d382bbc5f1b905090565b610d37612406565b610d42838284612723565b505050565b5f5f5f5f5f60605f60055f8973ffffffffffffffffffffffffffffffffffffffff1673ffffffffffffffffffffffffffffffffffffffff1681526020019081526020015f206040518060c00160405290815f82015f9054906101000a900473ffffffffffffffffffffffffffffffffffffffff1673ffffffffffffffffffffffffffffffffffffffff1673ffffffffffffffffffffffffffffffffffffffff16815260200160018201548152602001600282015481526020016003820154815260200160048201548152602001600582015f9054906101000a900460ff16151515158152505090505f60065f8a73ffffffffffffffffffffffffffffffffffffffff1673ffffffffffffffffffffffffffffffffffffffff1681526020019081526020015f20805480602002602001604051908101604052809291908181526020018280548015610eea57602002820191905f5260205f20905b815f9054906101000a900473ffffffffffffffffffffffffffffffffffffffff1673ffffffffffffffffffffffffffffffffffffffff1681526020019060010190808311610ea1575b50505050509050815f0151826020015183604001518460600151856080015185975097509750975097509750505091939550919395565b60025f9054906101000a900473ffffffffffffffffffffffffffffffffffffffff1681565b60035f9054906101000a900473ffffffffffffffffffffffffffffffffffffffff1681565b610f73612853565b600a5f9054906101000a900460ff1615610fc2576040517f08c379a0000000000000000000000000000000000000000000000000000000008152600401610fb990613d6a565b60405180910390fd5b5f73ffffffffffffffffffffffffffffffffffffffff1660055f3373ffffffffffffffffffffffffffffffffffffffff1673ffffffffffffffffffffffffffffffffffffffff1681526020019081526020015f205f015f9054906101000a900473ffffffffffffffffffffffffffffffffffffffff1673ffffffffffffffffffffffffffffffffffffffff160361108e576040517f08c379a000000000000000000000000000000000000000000000000000000000815260040161108590613df8565b60405180910390fd5b6110b67355d398326f99059ff775485246999027b3197955333067016345785d8a00006122d3565b6110e97355d398326f99059ff775485246999027b319795573fd5840cd36d94d7229439859c0112a4185bc02555f612897565b6111247355d398326f99059ff775485246999027b319795573fd5840cd36d94d7229439859c0112a4185bc025567016345785d8a0000612897565b5f73fd5840cd36d94d7229439859c0112a4185bc025573ffffffffffffffffffffffffffffffffffffffff1663a0712d6867016345785d8a00006040518263ffffffff1660e01b815260040161117a91906134ca565b6020604051808303815f875af1158015611196573d5f5f3e3d5ffd5b505050506040513d601f19601f820116820180604052508101906111ba9190613bc5565b146111fa576040517f08c379a00000000000000000000000000000000000000000000000000000000081526004016111f190613e60565b60405180910390fd5b5f73fd5840cd36d94d7229439859c0112a4185bc025573ffffffffffffffffffffffffffffffffffffffff166370a08231306040518263ffffffff1660e01b815260040161124891906134a2565b602060405180830381865afa158015611263573d5f5f3e3d5ffd5b505050506040513d601f19601f820116820180604052508101906112879190613bc5565b90506112c973fd5840cd36d94d7229439859c0112a4185bc025560025f9054906101000a900473ffffffffffffffffffffffffffffffffffffffff1683612723565b67016345785d8a000060055f3373ffffffffffffffffffffffffffffffffffffffff1673ffffffffffffffffffffffffffffffffffffffff1681526020019081526020015f206001015f8282546113209190613e7e565b9250508190555067016345785d8a000060075f8282546113409190613e7e565b925050819055505f73ffffffffffffffffffffffffffffffffffffffff1660055f3373ffffffffffffffffffffffffffffffffffffffff1673ffffffffffffffffffffffffffffffffffffffff1681526020019081526020015f205f015f9054906101000a900473ffffffffffffffffffffffffffffffffffffffff1673ffffffffffffffffffffffffffffffffffffffff16146113eb576113ea3367016345785d8a00006129c7565b5b7f92bfe9b63523d7c8baff8387323dd4c1c8ccd48705d9c91e19160ebcabb053b8337355d398326f99059ff775485246999027b319795567016345785d8a00005f5f60405161143e959493929190613f16565b60405180910390a15061144f612c23565b565b611459612406565b6114625f612c2c565b565b61146c612853565b600a5f9054906101000a900460ff16156114bb576040517f08c379a00000000000000000000000000000000000000000000000000000000081526004016114b290613d6a565b60405180910390fd5b5f73ffffffffffffffffffffffffffffffffffffffff168173ffffffffffffffffffffffffffffffffffffffff1603611529576040517f08c379a000000000000000000000000000000000000000000000000000000000815260040161152090613fc4565b60405180910390fd5b3373ffffffffffffffffffffffffffffffffffffffff168173ffffffffffffffffffffffffffffffffffffffff1603611597576040517f08c379a000000000000000000000000000000000000000000000000000000000815260040161158e9061402c565b60405180910390fd5b60045f9054906101000a900473ffffffffffffffffffffffffffffffffffffffff1673ffffffffffffffffffffffffffffffffffffffff168173ffffffffffffffffffffffffffffffffffffffff16146116b8575f73ffffffffffffffffffffffffffffffffffffffff1660055f8373ffffffffffffffffffffffffffffffffffffffff1673ffffffffffffffffffffffffffffffffffffffff1681526020019081526020015f205f015f9054906101000a900473ffffffffffffffffffffffffffffffffffffffff1673ffffffffffffffffffffffffffffffffffffffff16036116b7576040517f08c379a00000000000000000000000000000000000000000000000000000000081526004016116ae906140ba565b60405180910390fd5b5b5f73ffffffffffffffffffffffffffffffffffffffff1660055f3373ffffffffffffffffffffffffffffffffffffffff1673ffffffffffffffffffffffffffffffffffffffff1681526020019081526020015f205f015f9054906101000a900473ffffffffffffffffffffffffffffffffffffffff1673ffffffffffffffffffffffffffffffffffffffff1614611784576040517f08c379a000000000000000000000000000000000000000000000000000000000815260040161177b90614122565b60405180910390fd5b8060055f3373ffffffffffffffffffffffffffffffffffffffff1673ffffffffffffffffffffffffffffffffffffffff1681526020019081526020015f205f015f6101000a81548173ffffffffffffffffffffffffffffffffffffffff021916908373ffffffffffffffffffffffffffffffffffffffff16021790555060065f8273ffffffffffffffffffffffffffffffffffffffff1673ffffffffffffffffffffffffffffffffffffffff1681526020019081526020015f2033908060018154018082558091505060019003905f5260205f20015f9091909190916101000a81548173ffffffffffffffffffffffffffffffffffffffff021916908373ffffffffffffffffffffffffffffffffffffffff16021790555060095f3373ffffffffffffffffffffffffffffffffffffffff1673ffffffffffffffffffffffffffffffffffffffff1681526020019081526020015f205f9054906101000a900460ff166119a057600833908060018154018082558091505060019003905f5260205f20015f9091909190916101000a81548173ffffffffffffffffffffffffffffffffffffffff021916908373ffffffffffffffffffffffffffffffffffffffff160217905550600160095f3373ffffffffffffffffffffffffffffffffffffffff1673ffffffffffffffffffffffffffffffffffffffff1681526020019081526020015f205f6101000a81548160ff0219169083151502179055505b6119a933612cfd565b7f9d05414fb79fac216c15606de5cc06664e91a254e4d5f57664d5f1beaf7fb7ef81336040516119da929190613b8a565b60405180910390a16119ea612c23565b50565b600a5f9054906101000a900460ff1681565b6101f481565b3373ffffffffffffffffffffffffffffffffffffffff1660015f9054906101000a900473ffffffffffffffffffffffffffffffffffffffff1673ffffffffffffffffffffffffffffffffffffffff1614611a94576040517f08c379a0000000000000000000000000000000000000000000000000000000008152600401611a8b9061418a565b60405180910390fd5b8060055f8473ffffffffffffffffffffffffffffffffffffffff1673ffffffffffffffffffffffffffffffffffffffff1681526020019081526020015f206005015f6101000a81548160ff0219169083151502179055505050565b5f5f611af9612eaa565b9050805f015f9054906101000a900473ffffffffffffffffffffffffffffffffffffffff1691505090565b60606008805480602002602001604051908101604052809291908181526020018280548015611ba557602002820191905f5260205f20905b815f9054906101000a900473ffffffffffffffffffffffffffffffffffffffff1673ffffffffffffffffffffffffffffffffffffffff1681526020019060010190808311611b5c575b5050505050905090565b6040518060400160405280600581526020017f352e302e3000000000000000000000000000000000000000000000000000000081525081565b611bf0612406565b80600a5f6101000a81548160ff02191690831515021790555050565b7355d398326f99059ff775485246999027b319795581565b611c2c612406565b5f73ffffffffffffffffffffffffffffffffffffffff168173ffffffffffffffffffffffffffffffffffffffff1603611c9a576040517f08c379a0000000000000000000000000000000000000000000000000000000008152600401611c9190613fc4565b60405180910390fd5b8060035f6101000a81548173ffffffffffffffffffffffffffffffffffffffff021916908373ffffffffffffffffffffffffffffffffffffffff16021790555050565b606060065f8373ffffffffffffffffffffffffffffffffffffffff1673ffffffffffffffffffffffffffffffffffffffff1681526020019081526020015f20805480602002602001604051908101604052809291908181526020018280548015611d9957602002820191905f5260205f20905b815f9054906101000a900473ffffffffffffffffffffffffffffffffffffffff1673ffffffffffffffffffffffffffffffffffffffff1681526020019060010190808311611d50575b50505050509050919050565b60605f60065f8473ffffffffffffffffffffffffffffffffffffffff1673ffffffffffffffffffffffffffffffffffffffff1681526020019081526020015f20805480602002602001604051908101604052809291908181526020018280548015611e6257602002820191905f5260205f20905b815f9054906101000a900473ffffffffffffffffffffffffffffffffffffffff1673ffffffffffffffffffffffffffffffffffffffff1681526020019060010190808311611e19575b505050505090505f815190505f8167ffffffffffffffff811115611e8957611e886135e3565b5b604051908082528060200260200182016040528015611ec257816020015b611eaf613311565b815260200190600190039081611ea75790505b5090505f5f90505b82811015611f87575f848281518110611ee657611ee56141a8565b5b6020026020010151905060405180604001604052808273ffffffffffffffffffffffffffffffffffffffff16815260200160055f8473ffffffffffffffffffffffffffffffffffffffff1673ffffffffffffffffffffffffffffffffffffffff1681526020019081526020015f2060030154815250838381518110611f6e57611f6d6141a8565b5b6020026020010181905250508080600101915050611eca565b50809350505050919050565b67016345785d8a000081565b611fa7612406565b5f73ffffffffffffffffffffffffffffffffffffffff168173ffffffffffffffffffffffffffffffffffffffff1603612017575f6040517f1e4fbdf700000000000000000000000000000000000000000000000000000000815260040161200e91906134a2565b60405180910390fd5b61202081612c2c565b50565b60015f9054906101000a900473ffffffffffffffffffffffffffffffffffffffff1681565b5f612051612ed1565b90505f815f0160089054906101000a900460ff161590505f825f015f9054906101000a900467ffffffffffffffff1690505f5f8267ffffffffffffffff161480156120995750825b90505f60018367ffffffffffffffff161480156120cc57505f3073ffffffffffffffffffffffffffffffffffffffff163b145b9050811580156120da575080155b15612111576040517ff92ee8a900000000000000000000000000000000000000000000000000000000815260040160405180910390fd5b6001855f015f6101000a81548167ffffffffffffffff021916908367ffffffffffffffff160217905550831561215e576001855f0160086101000a81548160ff0219169083151502179055505b61216e612169612ee4565b612eeb565b8860015f6101000a81548173ffffffffffffffffffffffffffffffffffffffff021916908373ffffffffffffffffffffffffffffffffffffffff1602179055508760025f6101000a81548173ffffffffffffffffffffffffffffffffffffffff021916908373ffffffffffffffffffffffffffffffffffffffff1602179055508660035f6101000a81548173ffffffffffffffffffffffffffffffffffffffff021916908373ffffffffffffffffffffffffffffffffffffffff1602179055508560045f6101000a81548173ffffffffffffffffffffffffffffffffffffffff021916908373ffffffffffffffffffffffffffffffffffffffff16021790555083156122c8575f855f0160086101000a81548160ff0219169083151502179055507fc7f505b2f371ae2175ee4913f4499e1f2633a7b5936321eed1cdaeb6115181d260016040516122bf9190614221565b60405180910390a15b505050505050505050565b5f5f8573ffffffffffffffffffffffffffffffffffffffff166323b872dd8686866040516024016123069392919061423a565b6040516020818303038152906040529060e01b6020820180517bffffffffffffffffffffffffffffffffffffffffffffffffffffffff838183161783525050505060405161235491906142b3565b5f604051808303815f865af19150503d805f811461238d576040519150601f19603f3d011682016040523d82523d5f602084013e612392565b606091505b50915091508180156123bf57505f815114806123be5750808060200190518101906123bd91906142dd565b5b5b6123fe576040517f08c379a00000000000000000000000000000000000000000000000000000000081526004016123f590614378565b60405180910390fd5b505050505050565b61240e612ee4565b73ffffffffffffffffffffffffffffffffffffffff1661242c611aef565b73ffffffffffffffffffffffffffffffffffffffff161461248b5761244f612ee4565b6040517f118cdaa700000000000000000000000000000000000000000000000000000000815260040161248291906134a2565b60405180910390fd5b565b7f000000000000000000000000000000000000000000000000000000000000000073ffffffffffffffffffffffffffffffffffffffff163073ffffffffffffffffffffffffffffffffffffffff16148061253a57507f000000000000000000000000000000000000000000000000000000000000000073ffffffffffffffffffffffffffffffffffffffff16612521612eff565b73ffffffffffffffffffffffffffffffffffffffff1614155b15612571576040517fe07c8dba00000000000000000000000000000000000000000000000000000000815260040160405180910390fd5b565b61257b612406565b50565b8173ffffffffffffffffffffffffffffffffffffffff166352d1902d6040518163ffffffff1660e01b8152600401602060405180830381865afa9250505080156125e657506040513d601f19601f820116820180604052508101906125e391906143c0565b60015b61262757816040517f4c9c8ce300000000000000000000000000000000000000000000000000000000815260040161261e91906134a2565b60405180910390fd5b7f360894a13ba1a3210667c828492db98dca3e2076cc3735a920a3ca505d382bbc5f1b811461268d57806040517faa1d49a40000000000000000000000000000000000000000000000000000000081526004016126849190613779565b60405180910390fd5b6126978383612f52565b505050565b7f000000000000000000000000000000000000000000000000000000000000000073ffffffffffffffffffffffffffffffffffffffff163073ffffffffffffffffffffffffffffffffffffffff1614612721576040517fe07c8dba00000000000000000000000000000000000000000000000000000000815260040160405180910390fd5b565b5f5f8473ffffffffffffffffffffffffffffffffffffffff1663a9059cbb85856040516024016127549291906143eb565b6040516020818303038152906040529060e01b6020820180517bffffffffffffffffffffffffffffffffffffffffffffffffffffffff83818316178352505050506040516127a291906142b3565b5f604051808303815f865af19150503d805f81146127db576040519150601f19603f3d011682016040523d82523d5f602084013e6127e0565b606091505b509150915081801561280d57505f8151148061280c57508080602001905181019061280b91906142dd565b5b5b61284c576040517f08c379a00000000000000000000000000000000000000000000000000000000081526004016128439061445c565b60405180910390fd5b5050505050565b60025f540361288e576040517f3ee5aeb500000000000000000000000000000000000000000000000000000000815260040160405180910390fd5b60025f81905550565b5f5f8473ffffffffffffffffffffffffffffffffffffffff1663095ea7b385856040516024016128c89291906143eb565b6040516020818303038152906040529060e01b6020820180517bffffffffffffffffffffffffffffffffffffffffffffffffffffffff838183161783525050505060405161291691906142b3565b5f604051808303815f865af19150503d805f811461294f576040519150601f19603f3d011682016040523d82523d5f602084013e612954565b606091505b509150915081801561298157505f8151148061298057508080602001905181019061297f91906142dd565b5b5b6129c0576040517f08c379a00000000000000000000000000000000000000000000000000000000081526004016129b7906144c4565b60405180910390fd5b5050505050565b5f60055f8473ffffffffffffffffffffffffffffffffffffffff1673ffffffffffffffffffffffffffffffffffffffff1681526020019081526020015f205f015f9054906101000a900473ffffffffffffffffffffffffffffffffffffffff1690505f5b5f73ffffffffffffffffffffffffffffffffffffffff168273ffffffffffffffffffffffffffffffffffffffff1614612c1d578373ffffffffffffffffffffffffffffffffffffffff168273ffffffffffffffffffffffffffffffffffffffff160315612c1d578260055f8473ffffffffffffffffffffffffffffffffffffffff1673ffffffffffffffffffffffffffffffffffffffff1681526020019081526020015f206003015f828254612ae19190613e7e565b9250508190555060055f8373ffffffffffffffffffffffffffffffffffffffff1673ffffffffffffffffffffffffffffffffffffffff1681526020019081526020015f206005015f9054906101000a900460ff168015612b3f575080155b15612bb7576064600f84612b5391906144e2565b612b5d9190614550565b60055f8473ffffffffffffffffffffffffffffffffffffffff1673ffffffffffffffffffffffffffffffffffffffff1681526020019081526020015f206002015f828254612bab9190613e7e565b92505081905550600190505b60055f8373ffffffffffffffffffffffffffffffffffffffff1673ffffffffffffffffffffffffffffffffffffffff1681526020019081526020015f205f015f9054906101000a900473ffffffffffffffffffffffffffffffffffffffff169150612a2b565b50505050565b60015f81905550565b5f612c35612eaa565b90505f815f015f9054906101000a900473ffffffffffffffffffffffffffffffffffffffff16905082825f015f6101000a81548173ffffffffffffffffffffffffffffffffffffffff021916908373ffffffffffffffffffffffffffffffffffffffff1602179055508273ffffffffffffffffffffffffffffffffffffffff168173ffffffffffffffffffffffffffffffffffffffff167f8be0079c531659141344cd1fd0a4f28419497f9722a3daafe3b4186f6b6457e060405160405180910390a3505050565b5f60055f8373ffffffffffffffffffffffffffffffffffffffff1673ffffffffffffffffffffffffffffffffffffffff1681526020019081526020015f205f015f9054906101000a900473ffffffffffffffffffffffffffffffffffffffff1690505f5f90505b5f73ffffffffffffffffffffffffffffffffffffffff168273ffffffffffffffffffffffffffffffffffffffff1614158015612da157506101f481105b15612ea5578273ffffffffffffffffffffffffffffffffffffffff168273ffffffffffffffffffffffffffffffffffffffff160315612ea557600160055f8473ffffffffffffffffffffffffffffffffffffffff1673ffffffffffffffffffffffffffffffffffffffff1681526020019081526020015f206004015f828254612e2a9190613e7e565b9250508190555060055f8373ffffffffffffffffffffffffffffffffffffffff1673ffffffffffffffffffffffffffffffffffffffff1681526020019081526020015f205f015f9054906101000a900473ffffffffffffffffffffffffffffffffffffffff1691508080612e9d90614580565b915050612d64565b505050565b5f7f9016d09d72d40fdae2fd8ceac6b6234c7706214fd39c1cd1e609a0528c199300905090565b5f5f612edb612fc4565b90508091505090565b5f33905090565b612ef3612fed565b612efc8161302d565b50565b5f612f2b7f360894a13ba1a3210667c828492db98dca3e2076cc3735a920a3ca505d382bbc5f1b6130b1565b5f015f9054906101000a900473ffffffffffffffffffffffffffffffffffffffff16905090565b612f5b826130ba565b8173ffffffffffffffffffffffffffffffffffffffff167fbc7cd75a20ee27fd9adebab32041f755214dbc6bffa90cc0225b39da2e5c2d3b60405160405180910390a25f81511115612fb757612fb18282613183565b50612fc0565b612fbf613274565b5b5050565b5f7ff0c57e16840df040f15088dc2f81fe391c3923bec73e23a9662efc9c229c6a005f1b905090565b612ff56132b0565b61302b576040517fd7e6bcf800000000000000000000000000000000000000000000000000000000815260040160405180910390fd5b565b613035612fed565b5f73ffffffffffffffffffffffffffffffffffffffff168173ffffffffffffffffffffffffffffffffffffffff16036130a5575f6040517f1e4fbdf700000000000000000000000000000000000000000000000000000000815260040161309c91906134a2565b60405180910390fd5b6130ae81612c2c565b50565b5f819050919050565b5f8173ffffffffffffffffffffffffffffffffffffffff163b0361311557806040517f4c9c8ce300000000000000000000000000000000000000000000000000000000815260040161310c91906134a2565b60405180910390fd5b806131417f360894a13ba1a3210667c828492db98dca3e2076cc3735a920a3ca505d382bbc5f1b6130b1565b5f015f6101000a81548173ffffffffffffffffffffffffffffffffffffffff021916908373ffffffffffffffffffffffffffffffffffffffff16021790555050565b60605f61319084846132ce565b90508080156131c657505f6131a36132e2565b11806131c557505f8473ffffffffffffffffffffffffffffffffffffffff163b115b5b156131db576131d36132e9565b91505061326e565b801561321e57836040517f9996b31500000000000000000000000000000000000000000000000000000000815260040161321591906134a2565b60405180910390fd5b5f6132276132e2565b111561323a57613235613306565b61326c565b6040517fd6bda27500000000000000000000000000000000000000000000000000000000815260040160405180910390fd5b505b92915050565b5f3411156132ae576040517fb398979f00000000000000000000000000000000000000000000000000000000815260040160405180910390fd5b565b5f6132b9612ed1565b5f0160089054906101000a900460ff16905090565b5f5f5f835160208501865af4905092915050565b5f3d905090565b606060405190503d81523d5f602083013e3d602001810160405290565b6040513d5f823e3d81fd5b60405180604001604052805f73ffffffffffffffffffffffffffffffffffffffff1681526020015f81525090565b5f82825260208201905092915050565b7f4e4f5f4449524543545f53454e440000000000000000000000000000000000005f82015250565b5f613383600e8361333f565b915061338e8261334f565b602082019050919050565b5f6020820190508181035f8301526133b081613377565b9050919050565b5f604051905090565b5f5ffd5b5f5ffd5b5f73ffffffffffffffffffffffffffffffffffffffff82169050919050565b5f6133f1826133c8565b9050919050565b613401816133e7565b811461340b575f5ffd5b50565b5f8135905061341c816133f8565b92915050565b5f819050919050565b61343481613422565b811461343e575f5ffd5b50565b5f8135905061344f8161342b565b92915050565b5f5f6040838503121561346b5761346a6133c0565b5b5f6134788582860161340e565b925050602061348985828601613441565b9150509250929050565b61349c816133e7565b82525050565b5f6020820190506134b55f830184613493565b92915050565b6134c481613422565b82525050565b5f6020820190506134dd5f8301846134bb565b92915050565b5f602082840312156134f8576134f76133c0565b5b5f6135058482850161340e565b91505092915050565b5f8115159050919050565b6135228161350e565b82525050565b5f60c08201905061353b5f830189613493565b61354860208301886134bb565b61355560408301876134bb565b61356260608301866134bb565b61356f60808301856134bb565b61357c60a0830184613519565b979650505050505050565b5f6020828403121561359c5761359b6133c0565b5b5f6135a984828501613441565b91505092915050565b5f6020820190506135c55f830184613519565b92915050565b5f5ffd5b5f5ffd5b5f601f19601f8301169050919050565b7f4e487b71000000000000000000000000000000000000000000000000000000005f52604160045260245ffd5b613619826135d3565b810181811067ffffffffffffffff82111715613638576136376135e3565b5b80604052505050565b5f61364a6133b7565b90506136568282613610565b919050565b5f67ffffffffffffffff821115613675576136746135e3565b5b61367e826135d3565b9050602081019050919050565b828183375f83830152505050565b5f6136ab6136a68461365b565b613641565b9050828152602081018484840111156136c7576136c66135cf565b5b6136d284828561368b565b509392505050565b5f82601f8301126136ee576136ed6135cb565b5b81356136fe848260208601613699565b91505092915050565b5f5f6040838503121561371d5761371c6133c0565b5b5f61372a8582860161340e565b925050602083013567ffffffffffffffff81111561374b5761374a6133c4565b5b613757858286016136da565b9150509250929050565b5f819050919050565b61377381613761565b82525050565b5f60208201905061378c5f83018461376a565b92915050565b5f5f5f606084860312156137a9576137a86133c0565b5b5f6137b68682870161340e565b93505060206137c786828701613441565b92505060406137d88682870161340e565b9150509250925092565b5f81519050919050565b5f82825260208201905092915050565b5f819050602082019050919050565b613814816133e7565b82525050565b5f613825838361380b565b60208301905092915050565b5f602082019050919050565b5f613847826137e2565b61385181856137ec565b935061385c836137fc565b805f5b8381101561388c578151613873888261381a565b975061387e83613831565b92505060018101905061385f565b5085935050505092915050565b5f60c0820190506138ac5f830189613493565b6138b960208301886134bb565b6138c660408301876134bb565b6138d360608301866134bb565b6138e060808301856134bb565b81810360a08301526138f2818461383d565b9050979650505050505050565b6139088161350e565b8114613912575f5ffd5b50565b5f81359050613923816138ff565b92915050565b5f5f6040838503121561393f5761393e6133c0565b5b5f61394c8582860161340e565b925050602061395d85828601613915565b9150509250929050565b5f6020820190508181035f83015261397f818461383d565b905092915050565b5f81519050919050565b8281835e5f83830152505050565b5f6139a982613987565b6139b3818561333f565b93506139c3818560208601613991565b6139cc816135d3565b840191505092915050565b5f6020820190508181035f8301526139ef818461399f565b905092915050565b5f60208284031215613a0c57613a0b6133c0565b5b5f613a1984828501613915565b91505092915050565b5f81519050919050565b5f82825260208201905092915050565b5f819050602082019050919050565b613a5481613422565b82525050565b604082015f820151613a6e5f85018261380b565b506020820151613a816020850182613a4b565b50505050565b5f613a928383613a5a565b60408301905092915050565b5f602082019050919050565b5f613ab482613a22565b613abe8185613a2c565b9350613ac983613a3c565b805f5b83811015613af9578151613ae08882613a87565b9750613aeb83613a9e565b925050600181019050613acc565b5085935050505092915050565b5f6020820190508181035f830152613b1e8184613aaa565b905092915050565b5f5f5f5f60808587031215613b3e57613b3d6133c0565b5b5f613b4b8782880161340e565b9450506020613b5c8782880161340e565b9350506040613b6d8782880161340e565b9250506060613b7e8782880161340e565b91505092959194509250565b5f604082019050613b9d5f830185613493565b613baa6020830184613493565b9392505050565b5f81519050613bbf8161342b565b92915050565b5f60208284031215613bda57613bd96133c0565b5b5f613be784828501613bb1565b91505092915050565b7f4552524f525f414d4f554e545f555344542e00000000000000000000000000005f82015250565b5f613c2460128361333f565b9150613c2f82613bf0565b602082019050919050565b5f6020820190508181035f830152613c5181613c18565b9050919050565b7f4e487b71000000000000000000000000000000000000000000000000000000005f52601160045260245ffd5b5f613c8f82613422565b9150613c9a83613422565b9250828203905081811115613cb257613cb1613c58565b5b92915050565b7f5a45524f5f4144445245535300000000000000000000000000000000000000005f82015250565b5f613cec600c8361333f565b9150613cf782613cb8565b602082019050919050565b5f6020820190508181035f830152613d1981613ce0565b9050919050565b7f50415553455f52454348415247452e00000000000000000000000000000000005f82015250565b5f613d54600f8361333f565b9150613d5f82613d20565b602082019050919050565b5f6020820190508181035f830152613d8181613d48565b9050919050565b7f5245434f4d4d454e444154494f4e5f49535f52455155495245445f52454348415f8201527f5247452e00000000000000000000000000000000000000000000000000000000602082015250565b5f613de260248361333f565b9150613ded82613d88565b604082019050919050565b5f6020820190508181035f830152613e0f81613dd6565b9050919050565b7f56454e55535f4d494e545f4641494c45440000000000000000000000000000005f82015250565b5f613e4a60118361333f565b9150613e5582613e16565b602082019050919050565b5f6020820190508181035f830152613e7781613e3e565b9050919050565b5f613e8882613422565b9150613e9383613422565b9250828201905080821115613eab57613eaa613c58565b5b92915050565b5f819050919050565b5f819050919050565b5f613edd613ed8613ed384613eb1565b613eba565b613422565b9050919050565b613eed81613ec3565b82525050565b50565b5f613f015f8361333f565b9150613f0c82613ef3565b5f82019050919050565b5f60c082019050613f295f830188613493565b613f366020830187613493565b613f4360408301866134bb565b613f506060830185613493565b613f5d6080830184613ee4565b81810360a0830152613f6e81613ef6565b90509695505050505050565b7f5a45524f5f414444524553532e000000000000000000000000000000000000005f82015250565b5f613fae600d8361333f565b9150613fb982613f7a565b602082019050919050565b5f6020820190508181035f830152613fdb81613fa2565b9050919050565b7f494e56414c49445f5245434f4d4d454e4445522e0000000000000000000000005f82015250565b5f61401660148361333f565b915061402182613fe2565b602082019050919050565b5f6020820190508181035f8301526140438161400a565b9050919050565b7f5245434f4d4d454e444154494f4e5f49535f52455155495245445f52454645525f8201527f52414c2e00000000000000000000000000000000000000000000000000000000602082015250565b5f6140a460248361333f565b91506140af8261404a565b604082019050919050565b5f6020820190508181035f8301526140d181614098565b9050919050565b7f494e56495445525f414c52454144595f4558495354532e0000000000000000005f82015250565b5f61410c60178361333f565b9150614117826140d8565b602082019050919050565b5f6020820190508181035f83015261413981614100565b9050919050565b7f4552524f525f5045524d49542e000000000000000000000000000000000000005f82015250565b5f614174600d8361333f565b915061417f82614140565b602082019050919050565b5f6020820190508181035f8301526141a181614168565b9050919050565b7f4e487b71000000000000000000000000000000000000000000000000000000005f52603260045260245ffd5b5f819050919050565b5f67ffffffffffffffff82169050919050565b5f61420b614206614201846141d5565b613eba565b6141de565b9050919050565b61421b816141f1565b82525050565b5f6020820190506142345f830184614212565b92915050565b5f60608201905061424d5f830186613493565b61425a6020830185613493565b61426760408301846134bb565b949350505050565b5f81519050919050565b5f81905092915050565b5f61428d8261426f565b6142978185614279565b93506142a7818560208601613991565b80840191505092915050565b5f6142be8284614283565b915081905092915050565b5f815190506142d7816138ff565b92915050565b5f602082840312156142f2576142f16133c0565b5b5f6142ff848285016142c9565b91505092915050565b7f5472616e7366657248656c7065723a205452414e534645525f46524f4d5f46415f8201527f494c454400000000000000000000000000000000000000000000000000000000602082015250565b5f61436260248361333f565b915061436d82614308565b604082019050919050565b5f6020820190508181035f83015261438f81614356565b9050919050565b61439f81613761565b81146143a9575f5ffd5b50565b5f815190506143ba81614396565b92915050565b5f602082840312156143d5576143d46133c0565b5b5f6143e2848285016143ac565b91505092915050565b5f6040820190506143fe5f830185613493565b61440b60208301846134bb565b9392505050565b7f5472616e7366657248656c7065723a205452414e534645525f4641494c4544005f82015250565b5f614446601f8361333f565b915061445182614412565b602082019050919050565b5f6020820190508181035f8301526144738161443a565b9050919050565b7f5472616e7366657248656c7065723a20415050524f56455f4641494c454400005f82015250565b5f6144ae601e8361333f565b91506144b98261447a565b602082019050919050565b5f6020820190508181035f8301526144db816144a2565b9050919050565b5f6144ec82613422565b91506144f783613422565b925082820261450581613422565b9150828204841483151761451c5761451b613c58565b5b5092915050565b7f4e487b71000000000000000000000000000000000000000000000000000000005f52601260045260245ffd5b5f61455a82613422565b915061456583613422565b92508261457557614574614523565b5b828204905092915050565b5f61458a82613422565b91507fffffffffffffffffffffffffffffffffffffffffffffffffffffffffffffffff82036145bc576145bb613c58565b5b60018201905091905056fea26469706673582212201b55454c0c71aef6813ae13a70979d5f088436fd37a6e83a732c91a002cc06ca64736f6c634300081e0033","linkReferences":{}},"methodIdentifiers":{"FIXED_AMOUNT()":"eccf1694","MAX_REFERRAL_DEPTH()":"89e59ea0","UPGRADE_INTERFACE_VERSION()":"ad3cb1cc","USDT()":"c54e44eb","VENUS()":"1a78ccc1","admin()":"f851a440","claim(uint256)":"379607f5","directReferrals(address,uint256)":"05ad3935","emergencyWithdraw(address,uint256,address)":"551512de","getAddrCollection()":"a2b0332b","getAddrCollectionLength()":"4d38857c","getDirectReferrals(address)":"d2c8e0e5","getDirectReferralsInfo(address)":"ec18ac79","getSenderApprove()":"0be04d7a","getUserInfo(address)":"6386c1c7","initialCode()":"10baf089","initialize(address,address,address,address)":"f8c8765e","isAddCollection(address)":"39fe3b99","owner()":"8da5cb5b","pause()":"8456cb59","proxiableUUID()":"52d1902d","recipient()":"66d003ac","referral(address)":"7247959a","renounceOwnership()":"715018a6","sender()":"67e404ce","setGenesisNode(address,bool)":"8c2e5517","setPause(bool)":"bedb86fb","setRecipient(address)":"3bbed4a0","setSender(address)":"ced32b0c","singleRecharge()":"689d2a82","totalPerformance()":"06876dbe","transferOwnership(address)":"f2fde38b","upgradeToAndCall(address,bytes)":"4f1ef286","userInfo(address)":"1959a002","validInvitationCode(address)":"3c4e9d74"},"id":33}