{"abi":[{"type":"receive","stateMutability":"payable"},{"type":"function","name":"FIXED_AMOUNT","inputs":[],"outputs":[{"name":"","type":"uint256","internalType":"uint256"}],"stateMutability":"view"},{"type":"function","name":"MAX_REFERRAL_DEPTH","inputs":[],"outputs":[{"name":"","type":"uint256","internalType":"uint256"}],"stateMutability":"view"},{"type":"function","name":"UPGRADE_INTERFACE_VERSION","inputs":[],"outputs":[{"name":"","type":"string","internalType":"string"}],"stateMutability":"view"},{"type":"function","name":"USDT","inputs":[],"outputs":[{"name":"","type":"address","internalType":"address"}],"stateMutability":"view"},{"type":"function","name":"VENUS","inputs":[],"outputs":[{"name":"","type":"address","internalType":"address"}],"stateMutability":"view"},{"type":"function","name":"admin","inputs":[],"outputs":[{"name":"","type":"address","internalType":"address"}],"stateMutability":"view"},{"type":"function","name":"awardRecords","inputs":[{"name":"","type":"address","internalType":"address"},{"name":"","type":"uint256","internalType":"uint256"}],"outputs":[{"name":"from","type":"address","internalType":"address"},{"name":"amount","type":"uint256","internalType":"uint256"},{"name":"time","type":"uint256","internalType":"uint256"}],"stateMutability":"view"},{"type":"function","name":"claim","inputs":[{"name":"amountUSDT","type":"uint256","internalType":"uint256"}],"outputs":[],"stateMutability":"nonpayable"},{"type":"function","name":"directReferrals","inputs":[{"name":"","type":"address","internalType":"address"},{"name":"","type":"uint256","internalType":"uint256"}],"outputs":[{"name":"","type":"address","internalType":"address"}],"stateMutability":"view"},{"type":"function","name":"emergencyWithdraw","inputs":[{"name":"token","type":"address","internalType":"address"},{"name":"amount","type":"uint256","internalType":"uint256"},{"name":"to","type":"address","internalType":"address"}],"outputs":[],"stateMutability":"nonpayable"},{"type":"function","name":"getAddrCollection","inputs":[],"outputs":[{"name":"","type":"address[]","internalType":"address[]"}],"stateMutability":"view"},{"type":"function","name":"getAddrCollectionLength","inputs":[],"outputs":[{"name":"","type":"uint256","internalType":"uint256"}],"stateMutability":"view"},{"type":"function","name":"getAwardRecords","inputs":[{"name":"user","type":"address","internalType":"address"}],"outputs":[{"name":"","type":"tuple[]","internalType":"struct Staking.Record[]","components":[{"name":"from","type":"address","internalType":"address"},{"name":"amount","type":"uint256","internalType":"uint256"},{"name":"time","type":"uint256","internalType":"uint256"}]}],"stateMutability":"view"},{"type":"function","name":"getDirectReferrals","inputs":[{"name":"user","type":"address","internalType":"address"}],"outputs":[{"name":"","type":"address[]","internalType":"address[]"}],"stateMutability":"view"},{"type":"function","name":"getDirectReferralsInfo","inputs":[{"name":"user","type":"address","internalType":"address"}],"outputs":[{"name":"","type":"tuple[]","internalType":"struct Staking.DirectReferralsInfo[]","components":[{"name":"referral","type":"address","internalType":"address"},{"name":"performance","type":"uint256","internalType":"uint256"}]}],"stateMutability":"view"},{"type":"function","name":"getSenderApprove","inputs":[],"outputs":[{"name":"","type":"uint256","internalType":"uint256"}],"stateMutability":"view"},{"type":"function","name":"getUserInfo","inputs":[{"name":"user","type":"address","internalType":"address"}],"outputs":[{"name":"recommender","type":"address","internalType":"address"},{"name":"staking","type":"uint256","internalType":"uint256"},{"name":"referralAward","type":"uint256","internalType":"uint256"},{"name":"performance","type":"uint256","internalType":"uint256"},{"name":"referralNum","type":"uint256","internalType":"uint256"},{"name":"referrals","type":"address[]","internalType":"address[]"}],"stateMutability":"view"},{"type":"function","name":"initialCode","inputs":[],"outputs":[{"name":"","type":"address","internalType":"address"}],"stateMutability":"view"},{"type":"function","name":"initialize","inputs":[{"name":"_admin","type":"address","internalType":"address"},{"name":"_recipient","type":"address","internalType":"address"},{"name":"_sender","type":"address","internalType":"address"},{"name":"_initialCode","type":"address","internalType":"address"}],"outputs":[],"stateMutability":"nonpayable"},{"type":"function","name":"isAddCollection","inputs":[{"name":"","type":"address","internalType":"address"}],"outputs":[{"name":"","type":"bool","internalType":"bool"}],"stateMutability":"view"},{"type":"function","name":"owner","inputs":[],"outputs":[{"name":"","type":"address","internalType":"address"}],"stateMutability":"view"},{"type":"function","name":"pause","inputs":[],"outputs":[{"name":"","type":"bool","internalType":"bool"}],"stateMutability":"view"},{"type":"function","name":"proxiableUUID","inputs":[],"outputs":[{"name":"","type":"bytes32","internalType":"bytes32"}],"stateMutability":"view"},{"type":"function","name":"recipient","inputs":[],"outputs":[{"name":"","type":"address","internalType":"address"}],"stateMutability":"view"},{"type":"function","name":"referral","inputs":[{"name":"recommender","type":"address","internalType":"address"}],"outputs":[],"stateMutability":"nonpayable"},{"type":"function","name":"renounceOwnership","inputs":[],"outputs":[],"stateMutability":"nonpayable"},{"type":"function","name":"sender","inputs":[],"outputs":[{"name":"","type":"address","internalType":"address"}],"stateMutability":"view"},{"type":"function","name":"setGenesisNode","inputs":[{"name":"user","type":"address","internalType":"address"},{"name":"isGenesisNode","type":"bool","internalType":"bool"}],"outputs":[],"stateMutability":"nonpayable"},{"type":"function","name":"setPause","inputs":[{"name":"isPause","type":"bool","internalType":"bool"}],"outputs":[],"stateMutability":"nonpayable"},{"type":"function","name":"setRecipient","inputs":[{"name":"_recipient","type":"address","internalType":"address"}],"outputs":[],"stateMutability":"nonpayable"},{"type":"function","name":"setSender","inputs":[{"name":"_sender","type":"address","internalType":"address"}],"outputs":[],"stateMutability":"nonpayable"},{"type":"function","name":"singleRecharge","inputs":[],"outputs":[],"stateMutability":"nonpayable"},{"type":"function","name":"totalPerformance","inputs":[],"outputs":[{"name":"","type":"uint256","internalType":"uint256"}],"stateMutability":"view"},{"type":"function","name":"transferOwnership","inputs":[{"name":"newOwner","type":"address","internalType":"address"}],"outputs":[],"stateMutability":"nonpayable"},{"type":"function","name":"upgradeToAndCall","inputs":[{"name":"newImplementation","type":"address","internalType":"address"},{"name":"data","type":"bytes","internalType":"bytes"}],"outputs":[],"stateMutability":"payable"},{"type":"function","name":"userInfo","inputs":[{"name":"","type":"address","internalType":"address"}],"outputs":[{"name":"recommender","type":"address","internalType":"address"},{"name":"staking","type":"uint256","internalType":"uint256"},{"name":"referralAwards","type":"uint256","internalType":"uint256"},{"name":"performance","type":"uint256","internalType":"uint256"},{"name":"referralNum","type":"uint256","internalType":"uint256"},{"name":"genesisNode","type":"bool","internalType":"bool"}],"stateMutability":"view"},{"type":"function","name":"validInvitationCode","inputs":[{"name":"user","type":"address","internalType":"address"}],"outputs":[{"name":"","type":"bool","internalType":"bool"}],"stateMutability":"view"},{"type":"event","name":"Initialized","inputs":[{"name":"version","type":"uint64","indexed":false,"internalType":"uint64"}],"anonymous":false},{"type":"event","name":"MultiRecharge","inputs":[{"name":"user","type":"address","indexed":false,"internalType":"address"},{"name":"token0","type":"address","indexed":false,"internalType":"address"},{"name":"amount0","type":"uint256","indexed":false,"internalType":"uint256"},{"name":"token1","type":"address","indexed":false,"internalType":"address"},{"name":"amount1","type":"uint256","indexed":false,"internalType":"uint256"},{"name":"remark","type":"string","indexed":false,"internalType":"string"}],"anonymous":false},{"type":"event","name":"OwnershipTransferred","inputs":[{"name":"previousOwner","type":"address","indexed":true,"internalType":"address"},{"name":"newOwner","type":"address","indexed":true,"internalType":"address"}],"anonymous":false},{"type":"event","name":"Referral","inputs":[{"name":"recommender","type":"address","indexed":false,"internalType":"address"},{"name":"referred","type":"address","indexed":false,"internalType":"address"}],"anonymous":false},{"type":"event","name":"Upgraded","inputs":[{"name":"implementation","type":"address","indexed":true,"internalType":"address"}],"anonymous":false},{"type":"error","name":"AddressEmptyCode","inputs":[{"name":"target","type":"address","internalType":"address"}]},{"type":"error","name":"ERC1967InvalidImplementation","inputs":[{"name":"implementation","type":"address","internalType":"address"}]},{"type":"error","name":"ERC1967NonPayable","inputs":[]},{"type":"error","name":"FailedCall","inputs":[]},{"type":"error","name":"InvalidInitialization","inputs":[]},{"type":"error","name":"NotInitializing","inputs":[]},{"type":"error","name":"OwnableInvalidOwner","inputs":[{"name":"owner","type":"address","internalType":"address"}]},{"type":"error","name":"OwnableUnauthorizedAccount","inputs":[{"name":"account","type":"address","internalType":"address"}]},{"type":"error","name":"ReentrancyGuardReentrantCall","inputs":[]},{"type":"error","name":"UUPSUnauthorizedCallContext","inputs":[]},{"type":"error","name":"UUPSUnsupportedProxiableUUID","inputs":[{"name":"slot","type":"bytes32","internalType":"bytes32"}]}],"bytecode":{"object":"0x60a06040523073ffffffffffffffffffffffffffffffffffffffff1660809073ffffffffffffffffffffffffffffffffffffffff168152503480156041575f5ffd5b5060015f81905550608051614a1d61006f5f395f818161267f015281816126d4015261288e0152614a1d5ff3fe60806040526004361061021d575f3560e01c8063715018a611610122578063c023b3a5116100aa578063ec18ac791161006e578063ec18ac79146107f9578063eccf169414610835578063f2fde38b1461085f578063f851a44014610887578063f8c8765e146108b15761025d565b8063c023b3a5146106f1578063c54e44eb1461072f578063ced32b0c14610759578063d2c8e0e514610781578063df99b4d0146107bd5761025d565b80638c2e5517116100f15780638c2e5517146106235780638da5cb5b1461064b578063a2b0332b14610675578063ad3cb1cc1461069f578063bedb86fb146106c95761025d565b8063715018a6146105915780637247959a146105a75780638456cb59146105cf57806389e59ea0146105f95761025d565b80633c4e9d74116101a5578063551512de11610174578063551512de146104be5780636386c1c7146104e657806366d003ac1461052757806367e404ce14610551578063689d2a821461057b5761025d565b80633c4e9d74146104125780634d38857c1461044e5780634f1ef2861461047857806352d1902d146104945761025d565b80631959a002116101ec5780631959a0021461031b5780631a78ccc11461035c578063379607f51461038657806339fe3b99146103ae5780633bbed4a0146103ea5761025d565b806305ad39351461026157806306876dbe1461029d5780630be04d7a146102c757806310baf089146102f15761025d565b3661025d576040517f08c379a00000000000000000000000000000000000000000000000000000000081526004016102549061367c565b60405180910390fd5b5f5ffd5b34801561026c575f5ffd5b5061028760048036038101906102829190613738565b6108d9565b6040516102949190613785565b60405180910390f35b3480156102a8575f5ffd5b506102b1610921565b6040516102be91906137ad565b60405180910390f35b3480156102d2575f5ffd5b506102db610927565b6040516102e891906137ad565b60405180910390f35b3480156102fc575f5ffd5b506103056109dc565b6040516103129190613785565b60405180910390f35b348015610326575f5ffd5b50610341600480360381019061033c91906137c6565b610a01565b6040516103539695949392919061380b565b60405180910390f35b348015610367575f5ffd5b50610370610a64565b60405161037d9190613785565b60405180910390f35b348015610391575f5ffd5b506103ac60048036038101906103a7919061386a565b610a7c565b005b3480156103b9575f5ffd5b506103d460048036038101906103cf91906137c6565b610b99565b6040516103e19190613895565b60405180910390f35b3480156103f5575f5ffd5b50610410600480360381019061040b91906137c6565b610bb6565b005b34801561041d575f5ffd5b50610438600480360381019061043391906137c6565b610c6f565b6040516104459190613895565b60405180910390f35b348015610459575f5ffd5b50610462610d63565b60405161046f91906137ad565b60405180910390f35b610492600480360381019061048d91906139ea565b610d6f565b005b34801561049f575f5ffd5b506104a8610d8e565b6040516104b59190613a5c565b60405180910390f35b3480156104c9575f5ffd5b506104e460048036038101906104df9190613a75565b610dbf565b005b3480156104f1575f5ffd5b5061050c600480360381019061050791906137c6565b610dd7565b60405161051e96959493929190613b7c565b60405180910390f35b348015610532575f5ffd5b5061053b610fb1565b6040516105489190613785565b60405180910390f35b34801561055c575f5ffd5b50610565610fd6565b6040516105729190613785565b60405180910390f35b348015610586575f5ffd5b5061058f610ffb565b005b34801561059c575f5ffd5b506105a56114e1565b005b3480156105b2575f5ffd5b506105cd60048036038101906105c891906137c6565b6114f4565b005b3480156105da575f5ffd5b506105e3611a7d565b6040516105f09190613895565b60405180910390f35b348015610604575f5ffd5b5061060d611a8f565b60405161061a91906137ad565b60405180910390f35b34801561062e575f5ffd5b5061064960048036038101906106449190613c0c565b611a95565b005b348015610656575f5ffd5b5061065f611b7f565b60405161066c9190613785565b60405180910390f35b348015610680575f5ffd5b50610689611bb4565b6040516106969190613c4a565b60405180910390f35b3480156106aa575f5ffd5b506106b3611c3f565b6040516106c09190613cba565b60405180910390f35b3480156106d4575f5ffd5b506106ef60048036038101906106ea9190613cda565b611c78565b005b3480156106fc575f5ffd5b5061071760048036038101906107129190613738565b611c9c565b60405161072693929190613d05565b60405180910390f35b34801561073a575f5ffd5b50610743611cfb565b6040516107509190613785565b60405180910390f35b348015610764575f5ffd5b5061077f600480360381019061077a91906137c6565b611d13565b005b34801561078c575f5ffd5b506107a760048036038101906107a291906137c6565b611dcc565b6040516107b49190613c4a565b60405180910390f35b3480156107c8575f5ffd5b506107e360048036038101906107de91906137c6565b611e94565b6040516107f09190613e31565b60405180910390f35b348015610804575f5ffd5b5061081f600480360381019061081a91906137c6565b611f95565b60405161082c9190613f26565b60405180910390f35b348015610840575f5ffd5b50610849612183565b60405161085691906137ad565b60405180910390f35b34801561086a575f5ffd5b50610885600480360381019061088091906137c6565b61218f565b005b348015610892575f5ffd5b5061089b612213565b6040516108a89190613785565b60405180910390f35b3480156108bc575f5ffd5b506108d760048036038101906108d29190613f46565b612238565b005b6006602052815f5260405f2081815481106108f2575f80fd5b905f5260205f20015f915091509054906101000a900473ffffffffffffffffffffffffffffffffffffffff1681565b60085481565b5f7355d398326f99059ff775485246999027b319795573ffffffffffffffffffffffffffffffffffffffff1663dd62ed3e60035f9054906101000a900473ffffffffffffffffffffffffffffffffffffffff16306040518363ffffffff1660e01b8152600401610998929190613faa565b602060405180830381865afa1580156109b3573d5f5f3e3d5ffd5b505050506040513d601f19601f820116820180604052508101906109d79190613fe5565b905090565b60045f9054906101000a900473ffffffffffffffffffffffffffffffffffffffff1681565b6005602052805f5260405f205f91509050805f015f9054906101000a900473ffffffffffffffffffffffffffffffffffffffff1690806001015490806002015490806003015490806004015490806005015f9054906101000a900460ff16905086565b73fd5840cd36d94d7229439859c0112a4185bc025581565b60055f3373ffffffffffffffffffffffffffffffffffffffff1673ffffffffffffffffffffffffffffffffffffffff1681526020019081526020015f2060020154811115610aff576040517f08c379a0000000000000000000000000000000000000000000000000000000008152600401610af69061405a565b60405180910390fd5b610b407355d398326f99059ff775485246999027b319795560035f9054906101000a900473ffffffffffffffffffffffffffffffffffffffff1633846124c3565b8060055f3373ffffffffffffffffffffffffffffffffffffffff1673ffffffffffffffffffffffffffffffffffffffff1681526020019081526020015f206002015f828254610b8f91906140a5565b9250508190555050565b600a602052805f5260405f205f915054906101000a900460ff1681565b610bbe6125f6565b5f73ffffffffffffffffffffffffffffffffffffffff168173ffffffffffffffffffffffffffffffffffffffff1603610c2c576040517f08c379a0000000000000000000000000000000000000000000000000000000008152600401610c2390614122565b60405180910390fd5b8060025f6101000a81548173ffffffffffffffffffffffffffffffffffffffff021916908373ffffffffffffffffffffffffffffffffffffffff16021790555050565b5f60045f9054906101000a900473ffffffffffffffffffffffffffffffffffffffff1673ffffffffffffffffffffffffffffffffffffffff168273ffffffffffffffffffffffffffffffffffffffff1603610ccd5760019050610d5e565b5f73ffffffffffffffffffffffffffffffffffffffff1660055f8473ffffffffffffffffffffffffffffffffffffffff1673ffffffffffffffffffffffffffffffffffffffff1681526020019081526020015f205f015f9054906101000a900473ffffffffffffffffffffffffffffffffffffffff1673ffffffffffffffffffffffffffffffffffffffff16141590505b919050565b5f600980549050905090565b610d7761267d565b610d8082612763565b610d8a828261276e565b5050565b5f610d9761288c565b7f360894a13ba1a3210667c828492db98dca3e2076cc3735a920a3ca505d382bbc5f1b905090565b610dc76125f6565b610dd2838284612913565b505050565b5f5f5f5f5f60605f60055f8973ffffffffffffffffffffffffffffffffffffffff1673ffffffffffffffffffffffffffffffffffffffff1681526020019081526020015f206040518060c00160405290815f82015f9054906101000a900473ffffffffffffffffffffffffffffffffffffffff1673ffffffffffffffffffffffffffffffffffffffff1673ffffffffffffffffffffffffffffffffffffffff16815260200160018201548152602001600282015481526020016003820154815260200160048201548152602001600582015f9054906101000a900460ff16151515158152505090505f60065f8a73ffffffffffffffffffffffffffffffffffffffff1673ffffffffffffffffffffffffffffffffffffffff1681526020019081526020015f20805480602002602001604051908101604052809291908181526020018280548015610f7a57602002820191905f5260205f20905b815f9054906101000a900473ffffffffffffffffffffffffffffffffffffffff1673ffffffffffffffffffffffffffffffffffffffff1681526020019060010190808311610f31575b50505050509050815f0151826020015183604001518460600151856080015185975097509750975097509750505091939550919395565b60025f9054906101000a900473ffffffffffffffffffffffffffffffffffffffff1681565b60035f9054906101000a900473ffffffffffffffffffffffffffffffffffffffff1681565b611003612a43565b600b5f9054906101000a900460ff1615611052576040517f08c379a00000000000000000000000000000000000000000000000000000000081526004016110499061418a565b60405180910390fd5b5f73ffffffffffffffffffffffffffffffffffffffff1660055f3373ffffffffffffffffffffffffffffffffffffffff1673ffffffffffffffffffffffffffffffffffffffff1681526020019081526020015f205f015f9054906101000a900473ffffffffffffffffffffffffffffffffffffffff1673ffffffffffffffffffffffffffffffffffffffff160361111e576040517f08c379a000000000000000000000000000000000000000000000000000000000815260040161111590614218565b60405180910390fd5b6111467355d398326f99059ff775485246999027b3197955333067016345785d8a00006124c3565b6111797355d398326f99059ff775485246999027b319795573fd5840cd36d94d7229439859c0112a4185bc02555f612a87565b6111b47355d398326f99059ff775485246999027b319795573fd5840cd36d94d7229439859c0112a4185bc025567016345785d8a0000612a87565b5f73fd5840cd36d94d7229439859c0112a4185bc025573ffffffffffffffffffffffffffffffffffffffff1663a0712d6867016345785d8a00006040518263ffffffff1660e01b815260040161120a91906137ad565b6020604051808303815f875af1158015611226573d5f5f3e3d5ffd5b505050506040513d601f19601f8201168201806040525081019061124a9190613fe5565b1461128a576040517f08c379a000000000000000000000000000000000000000000000000000000000815260040161128190614280565b60405180910390fd5b5f73fd5840cd36d94d7229439859c0112a4185bc025573ffffffffffffffffffffffffffffffffffffffff166370a08231306040518263ffffffff1660e01b81526004016112d89190613785565b602060405180830381865afa1580156112f3573d5f5f3e3d5ffd5b505050506040513d601f19601f820116820180604052508101906113179190613fe5565b905061135973fd5840cd36d94d7229439859c0112a4185bc025560025f9054906101000a900473ffffffffffffffffffffffffffffffffffffffff1683612913565b67016345785d8a000060055f3373ffffffffffffffffffffffffffffffffffffffff1673ffffffffffffffffffffffffffffffffffffffff1681526020019081526020015f206001015f8282546113b0919061429e565b9250508190555067016345785d8a000060085f8282546113d0919061429e565b925050819055505f73ffffffffffffffffffffffffffffffffffffffff1660055f3373ffffffffffffffffffffffffffffffffffffffff1673ffffffffffffffffffffffffffffffffffffffff1681526020019081526020015f205f015f9054906101000a900473ffffffffffffffffffffffffffffffffffffffff1673ffffffffffffffffffffffffffffffffffffffff161461147b5761147a3367016345785d8a0000612bb7565b5b7f92bfe9b63523d7c8baff8387323dd4c1c8ccd48705d9c91e19160ebcabb053b8337355d398326f99059ff775485246999027b319795567016345785d8a00005f5f6040516114ce959493929190614336565b60405180910390a1506114df612f06565b565b6114e96125f6565b6114f25f612f0f565b565b6114fc612a43565b600b5f9054906101000a900460ff161561154b576040517f08c379a00000000000000000000000000000000000000000000000000000000081526004016115429061418a565b60405180910390fd5b5f73ffffffffffffffffffffffffffffffffffffffff168173ffffffffffffffffffffffffffffffffffffffff16036115b9576040517f08c379a00000000000000000000000000000000000000000000000000000000081526004016115b0906143e4565b60405180910390fd5b3373ffffffffffffffffffffffffffffffffffffffff168173ffffffffffffffffffffffffffffffffffffffff1603611627576040517f08c379a000000000000000000000000000000000000000000000000000000000815260040161161e9061444c565b60405180910390fd5b60045f9054906101000a900473ffffffffffffffffffffffffffffffffffffffff1673ffffffffffffffffffffffffffffffffffffffff168173ffffffffffffffffffffffffffffffffffffffff1614611748575f73ffffffffffffffffffffffffffffffffffffffff1660055f8373ffffffffffffffffffffffffffffffffffffffff1673ffffffffffffffffffffffffffffffffffffffff1681526020019081526020015f205f015f9054906101000a900473ffffffffffffffffffffffffffffffffffffffff1673ffffffffffffffffffffffffffffffffffffffff1603611747576040517f08c379a000000000000000000000000000000000000000000000000000000000815260040161173e906144da565b60405180910390fd5b5b5f73ffffffffffffffffffffffffffffffffffffffff1660055f3373ffffffffffffffffffffffffffffffffffffffff1673ffffffffffffffffffffffffffffffffffffffff1681526020019081526020015f205f015f9054906101000a900473ffffffffffffffffffffffffffffffffffffffff1673ffffffffffffffffffffffffffffffffffffffff1614611814576040517f08c379a000000000000000000000000000000000000000000000000000000000815260040161180b90614542565b60405180910390fd5b8060055f3373ffffffffffffffffffffffffffffffffffffffff1673ffffffffffffffffffffffffffffffffffffffff1681526020019081526020015f205f015f6101000a81548173ffffffffffffffffffffffffffffffffffffffff021916908373ffffffffffffffffffffffffffffffffffffffff16021790555060065f8273ffffffffffffffffffffffffffffffffffffffff1673ffffffffffffffffffffffffffffffffffffffff1681526020019081526020015f2033908060018154018082558091505060019003905f5260205f20015f9091909190916101000a81548173ffffffffffffffffffffffffffffffffffffffff021916908373ffffffffffffffffffffffffffffffffffffffff160217905550600a5f3373ffffffffffffffffffffffffffffffffffffffff1673ffffffffffffffffffffffffffffffffffffffff1681526020019081526020015f205f9054906101000a900460ff16611a3057600933908060018154018082558091505060019003905f5260205f20015f9091909190916101000a81548173ffffffffffffffffffffffffffffffffffffffff021916908373ffffffffffffffffffffffffffffffffffffffff1602179055506001600a5f3373ffffffffffffffffffffffffffffffffffffffff1673ffffffffffffffffffffffffffffffffffffffff1681526020019081526020015f205f6101000a81548160ff0219169083151502179055505b611a3933612fe0565b7f9d05414fb79fac216c15606de5cc06664e91a254e4d5f57664d5f1beaf7fb7ef8133604051611a6a929190613faa565b60405180910390a1611a7a612f06565b50565b600b5f9054906101000a900460ff1681565b6101f481565b3373ffffffffffffffffffffffffffffffffffffffff1660015f9054906101000a900473ffffffffffffffffffffffffffffffffffffffff1673ffffffffffffffffffffffffffffffffffffffff1614611b24576040517f08c379a0000000000000000000000000000000000000000000000000000000008152600401611b1b906145aa565b60405180910390fd5b8060055f8473ffffffffffffffffffffffffffffffffffffffff1673ffffffffffffffffffffffffffffffffffffffff1681526020019081526020015f206005015f6101000a81548160ff0219169083151502179055505050565b5f5f611b8961318d565b9050805f015f9054906101000a900473ffffffffffffffffffffffffffffffffffffffff1691505090565b60606009805480602002602001604051908101604052809291908181526020018280548015611c3557602002820191905f5260205f20905b815f9054906101000a900473ffffffffffffffffffffffffffffffffffffffff1673ffffffffffffffffffffffffffffffffffffffff1681526020019060010190808311611bec575b5050505050905090565b6040518060400160405280600581526020017f352e302e3000000000000000000000000000000000000000000000000000000081525081565b611c806125f6565b80600b5f6101000a81548160ff02191690831515021790555050565b6007602052815f5260405f208181548110611cb5575f80fd5b905f5260205f2090600302015f9150915050805f015f9054906101000a900473ffffffffffffffffffffffffffffffffffffffff16908060010154908060020154905083565b7355d398326f99059ff775485246999027b319795581565b611d1b6125f6565b5f73ffffffffffffffffffffffffffffffffffffffff168173ffffffffffffffffffffffffffffffffffffffff1603611d89576040517f08c379a0000000000000000000000000000000000000000000000000000000008152600401611d80906143e4565b60405180910390fd5b8060035f6101000a81548173ffffffffffffffffffffffffffffffffffffffff021916908373ffffffffffffffffffffffffffffffffffffffff16021790555050565b606060065f8373ffffffffffffffffffffffffffffffffffffffff1673ffffffffffffffffffffffffffffffffffffffff1681526020019081526020015f20805480602002602001604051908101604052809291908181526020018280548015611e8857602002820191905f5260205f20905b815f9054906101000a900473ffffffffffffffffffffffffffffffffffffffff1673ffffffffffffffffffffffffffffffffffffffff1681526020019060010190808311611e3f575b50505050509050919050565b606060075f8373ffffffffffffffffffffffffffffffffffffffff1673ffffffffffffffffffffffffffffffffffffffff1681526020019081526020015f20805480602002602001604051908101604052809291908181526020015f905b82821015611f8a578382905f5260205f2090600302016040518060600160405290815f82015f9054906101000a900473ffffffffffffffffffffffffffffffffffffffff1673ffffffffffffffffffffffffffffffffffffffff1673ffffffffffffffffffffffffffffffffffffffff1681526020016001820154815260200160028201548152505081526020019060010190611ef2565b505050509050919050565b60605f60065f8473ffffffffffffffffffffffffffffffffffffffff1673ffffffffffffffffffffffffffffffffffffffff1681526020019081526020015f2080548060200260200160405190810160405280929190818152602001828054801561205257602002820191905f5260205f20905b815f9054906101000a900473ffffffffffffffffffffffffffffffffffffffff1673ffffffffffffffffffffffffffffffffffffffff1681526020019060010190808311612009575b505050505090505f815190505f8167ffffffffffffffff811115612079576120786138c6565b5b6040519080825280602002602001820160405280156120b257816020015b61209f6135f4565b8152602001906001900390816120975790505b5090505f5f90505b82811015612177575f8482815181106120d6576120d56145c8565b5b6020026020010151905060405180604001604052808273ffffffffffffffffffffffffffffffffffffffff16815260200160055f8473ffffffffffffffffffffffffffffffffffffffff1673ffffffffffffffffffffffffffffffffffffffff1681526020019081526020015f206003015481525083838151811061215e5761215d6145c8565b5b60200260200101819052505080806001019150506120ba565b50809350505050919050565b67016345785d8a000081565b6121976125f6565b5f73ffffffffffffffffffffffffffffffffffffffff168173ffffffffffffffffffffffffffffffffffffffff1603612207575f6040517f1e4fbdf70000000000000000000000000000000000000000000000000000000081526004016121fe9190613785565b60405180910390fd5b61221081612f0f565b50565b60015f9054906101000a900473ffffffffffffffffffffffffffffffffffffffff1681565b5f6122416131b4565b90505f815f0160089054906101000a900460ff161590505f825f015f9054906101000a900467ffffffffffffffff1690505f5f8267ffffffffffffffff161480156122895750825b90505f60018367ffffffffffffffff161480156122bc57505f3073ffffffffffffffffffffffffffffffffffffffff163b145b9050811580156122ca575080155b15612301576040517ff92ee8a900000000000000000000000000000000000000000000000000000000815260040160405180910390fd5b6001855f015f6101000a81548167ffffffffffffffff021916908367ffffffffffffffff160217905550831561234e576001855f0160086101000a81548160ff0219169083151502179055505b61235e6123596131c7565b6131ce565b8860015f6101000a81548173ffffffffffffffffffffffffffffffffffffffff021916908373ffffffffffffffffffffffffffffffffffffffff1602179055508760025f6101000a81548173ffffffffffffffffffffffffffffffffffffffff021916908373ffffffffffffffffffffffffffffffffffffffff1602179055508660035f6101000a81548173ffffffffffffffffffffffffffffffffffffffff021916908373ffffffffffffffffffffffffffffffffffffffff1602179055508560045f6101000a81548173ffffffffffffffffffffffffffffffffffffffff021916908373ffffffffffffffffffffffffffffffffffffffff16021790555083156124b8575f855f0160086101000a81548160ff0219169083151502179055507fc7f505b2f371ae2175ee4913f4499e1f2633a7b5936321eed1cdaeb6115181d260016040516124af9190614641565b60405180910390a15b505050505050505050565b5f5f8573ffffffffffffffffffffffffffffffffffffffff166323b872dd8686866040516024016124f69392919061465a565b6040516020818303038152906040529060e01b6020820180517bffffffffffffffffffffffffffffffffffffffffffffffffffffffff838183161783525050505060405161254491906146d3565b5f604051808303815f865af19150503d805f811461257d576040519150601f19603f3d011682016040523d82523d5f602084013e612582565b606091505b50915091508180156125af57505f815114806125ae5750808060200190518101906125ad91906146fd565b5b5b6125ee576040517f08c379a00000000000000000000000000000000000000000000000000000000081526004016125e590614798565b60405180910390fd5b505050505050565b6125fe6131c7565b73ffffffffffffffffffffffffffffffffffffffff1661261c611b7f565b73ffffffffffffffffffffffffffffffffffffffff161461267b5761263f6131c7565b6040517f118cdaa70000000000000000000000000000000000000000000000000000000081526004016126729190613785565b60405180910390fd5b565b7f000000000000000000000000000000000000000000000000000000000000000073ffffffffffffffffffffffffffffffffffffffff163073ffffffffffffffffffffffffffffffffffffffff16148061272a57507f000000000000000000000000000000000000000000000000000000000000000073ffffffffffffffffffffffffffffffffffffffff166127116131e2565b73ffffffffffffffffffffffffffffffffffffffff1614155b15612761576040517fe07c8dba00000000000000000000000000000000000000000000000000000000815260040160405180910390fd5b565b61276b6125f6565b50565b8173ffffffffffffffffffffffffffffffffffffffff166352d1902d6040518163ffffffff1660e01b8152600401602060405180830381865afa9250505080156127d657506040513d601f19601f820116820180604052508101906127d391906147e0565b60015b61281757816040517f4c9c8ce300000000000000000000000000000000000000000000000000000000815260040161280e9190613785565b60405180910390fd5b7f360894a13ba1a3210667c828492db98dca3e2076cc3735a920a3ca505d382bbc5f1b811461287d57806040517faa1d49a40000000000000000000000000000000000000000000000000000000081526004016128749190613a5c565b60405180910390fd5b6128878383613235565b505050565b7f000000000000000000000000000000000000000000000000000000000000000073ffffffffffffffffffffffffffffffffffffffff163073ffffffffffffffffffffffffffffffffffffffff1614612911576040517fe07c8dba00000000000000000000000000000000000000000000000000000000815260040160405180910390fd5b565b5f5f8473ffffffffffffffffffffffffffffffffffffffff1663a9059cbb858560405160240161294492919061480b565b6040516020818303038152906040529060e01b6020820180517bffffffffffffffffffffffffffffffffffffffffffffffffffffffff838183161783525050505060405161299291906146d3565b5f604051808303815f865af19150503d805f81146129cb576040519150601f19603f3d011682016040523d82523d5f602084013e6129d0565b606091505b50915091508180156129fd57505f815114806129fc5750808060200190518101906129fb91906146fd565b5b5b612a3c576040517f08c379a0000000000000000000000000000000000000000000000000000000008152600401612a339061487c565b60405180910390fd5b5050505050565b60025f5403612a7e576040517f3ee5aeb500000000000000000000000000000000000000000000000000000000815260040160405180910390fd5b60025f81905550565b5f5f8473ffffffffffffffffffffffffffffffffffffffff1663095ea7b38585604051602401612ab892919061480b565b6040516020818303038152906040529060e01b6020820180517bffffffffffffffffffffffffffffffffffffffffffffffffffffffff8381831617835250505050604051612b0691906146d3565b5f604051808303815f865af19150503d805f8114612b3f576040519150601f19603f3d011682016040523d82523d5f602084013e612b44565b606091505b5091509150818015612b7157505f81511480612b70575080806020019051810190612b6f91906146fd565b5b5b612bb0576040517f08c379a0000000000000000000000000000000000000000000000000000000008152600401612ba7906148e4565b60405180910390fd5b5050505050565b5f60055f8473ffffffffffffffffffffffffffffffffffffffff1673ffffffffffffffffffffffffffffffffffffffff1681526020019081526020015f205f015f9054906101000a900473ffffffffffffffffffffffffffffffffffffffff1690505f5b5f73ffffffffffffffffffffffffffffffffffffffff168273ffffffffffffffffffffffffffffffffffffffff1614612f00578373ffffffffffffffffffffffffffffffffffffffff168273ffffffffffffffffffffffffffffffffffffffff160315612f00578260055f8473ffffffffffffffffffffffffffffffffffffffff1673ffffffffffffffffffffffffffffffffffffffff1681526020019081526020015f206003015f828254612cd1919061429e565b9250508190555060055f8373ffffffffffffffffffffffffffffffffffffffff1673ffffffffffffffffffffffffffffffffffffffff1681526020019081526020015f206005015f9054906101000a900460ff168015612d2f575080155b15612e9a575f6064600f85612d449190614902565b612d4e9190614970565b90508060055f8573ffffffffffffffffffffffffffffffffffffffff1673ffffffffffffffffffffffffffffffffffffffff1681526020019081526020015f206002015f828254612d9f919061429e565b9250508190555060075f8473ffffffffffffffffffffffffffffffffffffffff1673ffffffffffffffffffffffffffffffffffffffff1681526020019081526020015f2060405180606001604052808773ffffffffffffffffffffffffffffffffffffffff16815260200183815260200142815250908060018154018082558091505060019003905f5260205f2090600302015f909190919091505f820151815f015f6101000a81548173ffffffffffffffffffffffffffffffffffffffff021916908373ffffffffffffffffffffffffffffffffffffffff1602179055506020820151816001015560408201518160020155505060019150505b60055f8373ffffffffffffffffffffffffffffffffffffffff1673ffffffffffffffffffffffffffffffffffffffff1681526020019081526020015f205f015f9054906101000a900473ffffffffffffffffffffffffffffffffffffffff169150612c1b565b50505050565b60015f81905550565b5f612f1861318d565b90505f815f015f9054906101000a900473ffffffffffffffffffffffffffffffffffffffff16905082825f015f6101000a81548173ffffffffffffffffffffffffffffffffffffffff021916908373ffffffffffffffffffffffffffffffffffffffff1602179055508273ffffffffffffffffffffffffffffffffffffffff168173ffffffffffffffffffffffffffffffffffffffff167f8be0079c531659141344cd1fd0a4f28419497f9722a3daafe3b4186f6b6457e060405160405180910390a3505050565b5f60055f8373ffffffffffffffffffffffffffffffffffffffff1673ffffffffffffffffffffffffffffffffffffffff1681526020019081526020015f205f015f9054906101000a900473ffffffffffffffffffffffffffffffffffffffff1690505f5f90505b5f73ffffffffffffffffffffffffffffffffffffffff168273ffffffffffffffffffffffffffffffffffffffff161415801561308457506101f481105b15613188578273ffffffffffffffffffffffffffffffffffffffff168273ffffffffffffffffffffffffffffffffffffffff16031561318857600160055f8473ffffffffffffffffffffffffffffffffffffffff1673ffffffffffffffffffffffffffffffffffffffff1681526020019081526020015f206004015f82825461310d919061429e565b9250508190555060055f8373ffffffffffffffffffffffffffffffffffffffff1673ffffffffffffffffffffffffffffffffffffffff1681526020019081526020015f205f015f9054906101000a900473ffffffffffffffffffffffffffffffffffffffff1691508080613180906149a0565b915050613047565b505050565b5f7f9016d09d72d40fdae2fd8ceac6b6234c7706214fd39c1cd1e609a0528c199300905090565b5f5f6131be6132a7565b90508091505090565b5f33905090565b6131d66132d0565b6131df81613310565b50565b5f61320e7f360894a13ba1a3210667c828492db98dca3e2076cc3735a920a3ca505d382bbc5f1b613394565b5f015f9054906101000a900473ffffffffffffffffffffffffffffffffffffffff16905090565b61323e8261339d565b8173ffffffffffffffffffffffffffffffffffffffff167fbc7cd75a20ee27fd9adebab32041f755214dbc6bffa90cc0225b39da2e5c2d3b60405160405180910390a25f8151111561329a576132948282613466565b506132a3565b6132a2613557565b5b5050565b5f7ff0c57e16840df040f15088dc2f81fe391c3923bec73e23a9662efc9c229c6a005f1b905090565b6132d8613593565b61330e576040517fd7e6bcf800000000000000000000000000000000000000000000000000000000815260040160405180910390fd5b565b6133186132d0565b5f73ffffffffffffffffffffffffffffffffffffffff168173ffffffffffffffffffffffffffffffffffffffff1603613388575f6040517f1e4fbdf700000000000000000000000000000000000000000000000000000000815260040161337f9190613785565b60405180910390fd5b61339181612f0f565b50565b5f819050919050565b5f8173ffffffffffffffffffffffffffffffffffffffff163b036133f857806040517f4c9c8ce30000000000000000000000000000000000000000000000000000000081526004016133ef9190613785565b60405180910390fd5b806134247f360894a13ba1a3210667c828492db98dca3e2076cc3735a920a3ca505d382bbc5f1b613394565b5f015f6101000a81548173ffffffffffffffffffffffffffffffffffffffff021916908373ffffffffffffffffffffffffffffffffffffffff16021790555050565b60605f61347384846135b1565b90508080156134a957505f6134866135c5565b11806134a857505f8473ffffffffffffffffffffffffffffffffffffffff163b115b5b156134be576134b66135cc565b915050613551565b801561350157836040517f9996b3150000000000000000000000000000000000000000000000000000000081526004016134f89190613785565b60405180910390fd5b5f61350a6135c5565b111561351d576135186135e9565b61354f565b6040517fd6bda27500000000000000000000000000000000000000000000000000000000815260040160405180910390fd5b505b92915050565b5f341115613591576040517fb398979f00000000000000000000000000000000000000000000000000000000815260040160405180910390fd5b565b5f61359c6131b4565b5f0160089054906101000a900460ff16905090565b5f5f5f835160208501865af4905092915050565b5f3d905090565b606060405190503d81523d5f602083013e3d602001810160405290565b6040513d5f823e3d81fd5b60405180604001604052805f73ffffffffffffffffffffffffffffffffffffffff1681526020015f81525090565b5f82825260208201905092915050565b7f4e4f5f4449524543545f53454e440000000000000000000000000000000000005f82015250565b5f613666600e83613622565b915061367182613632565b602082019050919050565b5f6020820190508181035f8301526136938161365a565b9050919050565b5f604051905090565b5f5ffd5b5f5ffd5b5f73ffffffffffffffffffffffffffffffffffffffff82169050919050565b5f6136d4826136ab565b9050919050565b6136e4816136ca565b81146136ee575f5ffd5b50565b5f813590506136ff816136db565b92915050565b5f819050919050565b61371781613705565b8114613721575f5ffd5b50565b5f813590506137328161370e565b92915050565b5f5f6040838503121561374e5761374d6136a3565b5b5f61375b858286016136f1565b925050602061376c85828601613724565b9150509250929050565b61377f816136ca565b82525050565b5f6020820190506137985f830184613776565b92915050565b6137a781613705565b82525050565b5f6020820190506137c05f83018461379e565b92915050565b5f602082840312156137db576137da6136a3565b5b5f6137e8848285016136f1565b91505092915050565b5f8115159050919050565b613805816137f1565b82525050565b5f60c08201905061381e5f830189613776565b61382b602083018861379e565b613838604083018761379e565b613845606083018661379e565b613852608083018561379e565b61385f60a08301846137fc565b979650505050505050565b5f6020828403121561387f5761387e6136a3565b5b5f61388c84828501613724565b91505092915050565b5f6020820190506138a85f8301846137fc565b92915050565b5f5ffd5b5f5ffd5b5f601f19601f8301169050919050565b7f4e487b71000000000000000000000000000000000000000000000000000000005f52604160045260245ffd5b6138fc826138b6565b810181811067ffffffffffffffff8211171561391b5761391a6138c6565b5b80604052505050565b5f61392d61369a565b905061393982826138f3565b919050565b5f67ffffffffffffffff821115613958576139576138c6565b5b613961826138b6565b9050602081019050919050565b828183375f83830152505050565b5f61398e6139898461393e565b613924565b9050828152602081018484840111156139aa576139a96138b2565b5b6139b584828561396e565b509392505050565b5f82601f8301126139d1576139d06138ae565b5b81356139e184826020860161397c565b91505092915050565b5f5f60408385031215613a00576139ff6136a3565b5b5f613a0d858286016136f1565b925050602083013567ffffffffffffffff811115613a2e57613a2d6136a7565b5b613a3a858286016139bd565b9150509250929050565b5f819050919050565b613a5681613a44565b82525050565b5f602082019050613a6f5f830184613a4d565b92915050565b5f5f5f60608486031215613a8c57613a8b6136a3565b5b5f613a99868287016136f1565b9350506020613aaa86828701613724565b9250506040613abb868287016136f1565b9150509250925092565b5f81519050919050565b5f82825260208201905092915050565b5f819050602082019050919050565b613af7816136ca565b82525050565b5f613b088383613aee565b60208301905092915050565b5f602082019050919050565b5f613b2a82613ac5565b613b348185613acf565b9350613b3f83613adf565b805f5b83811015613b6f578151613b568882613afd565b9750613b6183613b14565b925050600181019050613b42565b5085935050505092915050565b5f60c082019050613b8f5f830189613776565b613b9c602083018861379e565b613ba9604083018761379e565b613bb6606083018661379e565b613bc3608083018561379e565b81810360a0830152613bd58184613b20565b9050979650505050505050565b613beb816137f1565b8114613bf5575f5ffd5b50565b5f81359050613c0681613be2565b92915050565b5f5f60408385031215613c2257613c216136a3565b5b5f613c2f858286016136f1565b9250506020613c4085828601613bf8565b9150509250929050565b5f6020820190508181035f830152613c628184613b20565b905092915050565b5f81519050919050565b8281835e5f83830152505050565b5f613c8c82613c6a565b613c968185613622565b9350613ca6818560208601613c74565b613caf816138b6565b840191505092915050565b5f6020820190508181035f830152613cd28184613c82565b905092915050565b5f60208284031215613cef57613cee6136a3565b5b5f613cfc84828501613bf8565b91505092915050565b5f606082019050613d185f830186613776565b613d25602083018561379e565b613d32604083018461379e565b949350505050565b5f81519050919050565b5f82825260208201905092915050565b5f819050602082019050919050565b613d6c81613705565b82525050565b606082015f820151613d865f850182613aee565b506020820151613d996020850182613d63565b506040820151613dac6040850182613d63565b50505050565b5f613dbd8383613d72565b60608301905092915050565b5f602082019050919050565b5f613ddf82613d3a565b613de98185613d44565b9350613df483613d54565b805f5b83811015613e24578151613e0b8882613db2565b9750613e1683613dc9565b925050600181019050613df7565b5085935050505092915050565b5f6020820190508181035f830152613e498184613dd5565b905092915050565b5f81519050919050565b5f82825260208201905092915050565b5f819050602082019050919050565b604082015f820151613e8e5f850182613aee565b506020820151613ea16020850182613d63565b50505050565b5f613eb28383613e7a565b60408301905092915050565b5f602082019050919050565b5f613ed482613e51565b613ede8185613e5b565b9350613ee983613e6b565b805f5b83811015613f19578151613f008882613ea7565b9750613f0b83613ebe565b925050600181019050613eec565b5085935050505092915050565b5f6020820190508181035f830152613f3e8184613eca565b905092915050565b5f5f5f5f60808587031215613f5e57613f5d6136a3565b5b5f613f6b878288016136f1565b9450506020613f7c878288016136f1565b9350506040613f8d878288016136f1565b9250506060613f9e878288016136f1565b91505092959194509250565b5f604082019050613fbd5f830185613776565b613fca6020830184613776565b9392505050565b5f81519050613fdf8161370e565b92915050565b5f60208284031215613ffa57613ff96136a3565b5b5f61400784828501613fd1565b91505092915050565b7f4552524f525f414d4f554e545f555344542e00000000000000000000000000005f82015250565b5f614044601283613622565b915061404f82614010565b602082019050919050565b5f6020820190508181035f83015261407181614038565b9050919050565b7f4e487b71000000000000000000000000000000000000000000000000000000005f52601160045260245ffd5b5f6140af82613705565b91506140ba83613705565b92508282039050818111156140d2576140d1614078565b5b92915050565b7f5a45524f5f4144445245535300000000000000000000000000000000000000005f82015250565b5f61410c600c83613622565b9150614117826140d8565b602082019050919050565b5f6020820190508181035f83015261413981614100565b9050919050565b7f50415553455f52454348415247452e00000000000000000000000000000000005f82015250565b5f614174600f83613622565b915061417f82614140565b602082019050919050565b5f6020820190508181035f8301526141a181614168565b9050919050565b7f5245434f4d4d454e444154494f4e5f49535f52455155495245445f52454348415f8201527f5247452e00000000000000000000000000000000000000000000000000000000602082015250565b5f614202602483613622565b915061420d826141a8565b604082019050919050565b5f6020820190508181035f83015261422f816141f6565b9050919050565b7f56454e55535f4d494e545f4641494c45440000000000000000000000000000005f82015250565b5f61426a601183613622565b915061427582614236565b602082019050919050565b5f6020820190508181035f8301526142978161425e565b9050919050565b5f6142a882613705565b91506142b383613705565b92508282019050808211156142cb576142ca614078565b5b92915050565b5f819050919050565b5f819050919050565b5f6142fd6142f86142f3846142d1565b6142da565b613705565b9050919050565b61430d816142e3565b82525050565b50565b5f6143215f83613622565b915061432c82614313565b5f82019050919050565b5f60c0820190506143495f830188613776565b6143566020830187613776565b614363604083018661379e565b6143706060830185613776565b61437d6080830184614304565b81810360a083015261438e81614316565b90509695505050505050565b7f5a45524f5f414444524553532e000000000000000000000000000000000000005f82015250565b5f6143ce600d83613622565b91506143d98261439a565b602082019050919050565b5f6020820190508181035f8301526143fb816143c2565b9050919050565b7f494e56414c49445f5245434f4d4d454e4445522e0000000000000000000000005f82015250565b5f614436601483613622565b915061444182614402565b602082019050919050565b5f6020820190508181035f8301526144638161442a565b9050919050565b7f5245434f4d4d454e444154494f4e5f49535f52455155495245445f52454645525f8201527f52414c2e00000000000000000000000000000000000000000000000000000000602082015250565b5f6144c4602483613622565b91506144cf8261446a565b604082019050919050565b5f6020820190508181035f8301526144f1816144b8565b9050919050565b7f494e56495445525f414c52454144595f4558495354532e0000000000000000005f82015250565b5f61452c601783613622565b9150614537826144f8565b602082019050919050565b5f6020820190508181035f83015261455981614520565b9050919050565b7f4552524f525f5045524d49542e000000000000000000000000000000000000005f82015250565b5f614594600d83613622565b915061459f82614560565b602082019050919050565b5f6020820190508181035f8301526145c181614588565b9050919050565b7f4e487b71000000000000000000000000000000000000000000000000000000005f52603260045260245ffd5b5f819050919050565b5f67ffffffffffffffff82169050919050565b5f61462b614626614621846145f5565b6142da565b6145fe565b9050919050565b61463b81614611565b82525050565b5f6020820190506146545f830184614632565b92915050565b5f60608201905061466d5f830186613776565b61467a6020830185613776565b614687604083018461379e565b949350505050565b5f81519050919050565b5f81905092915050565b5f6146ad8261468f565b6146b78185614699565b93506146c7818560208601613c74565b80840191505092915050565b5f6146de82846146a3565b915081905092915050565b5f815190506146f781613be2565b92915050565b5f60208284031215614712576147116136a3565b5b5f61471f848285016146e9565b91505092915050565b7f5472616e7366657248656c7065723a205452414e534645525f46524f4d5f46415f8201527f494c454400000000000000000000000000000000000000000000000000000000602082015250565b5f614782602483613622565b915061478d82614728565b604082019050919050565b5f6020820190508181035f8301526147af81614776565b9050919050565b6147bf81613a44565b81146147c9575f5ffd5b50565b5f815190506147da816147b6565b92915050565b5f602082840312156147f5576147f46136a3565b5b5f614802848285016147cc565b91505092915050565b5f60408201905061481e5f830185613776565b61482b602083018461379e565b9392505050565b7f5472616e7366657248656c7065723a205452414e534645525f4641494c4544005f82015250565b5f614866601f83613622565b915061487182614832565b602082019050919050565b5f6020820190508181035f8301526148938161485a565b9050919050565b7f5472616e7366657248656c7065723a20415050524f56455f4641494c454400005f82015250565b5f6148ce601e83613622565b91506148d98261489a565b602082019050919050565b5f6020820190508181035f8301526148fb816148c2565b9050919050565b5f61490c82613705565b915061491783613705565b925082820261492581613705565b9150828204841483151761493c5761493b614078565b5b5092915050565b7f4e487b71000000000000000000000000000000000000000000000000000000005f52601260045260245ffd5b5f61497a82613705565b915061498583613705565b92508261499557614994614943565b5b828204905092915050565b5f6149aa82613705565b91507fffffffffffffffffffffffffffffffffffffffffffffffffffffffffffffffff82036149dc576149db614078565b5b60018201905091905056fea264697066735822122086de78e65caf916e5c4d437e4b8c55b1398aacdc6d39bc33360b6ed47f22322064736f6c634300081e0033","linkReferences":{}},"methodIdentifiers":{"FIXED_AMOUNT()":"eccf1694","MAX_REFERRAL_DEPTH()":"89e59ea0","UPGRADE_INTERFACE_VERSION()":"ad3cb1cc","USDT()":"c54e44eb","VENUS()":"1a78ccc1","admin()":"f851a440","awardRecords(address,uint256)":"c023b3a5","claim(uint256)":"379607f5","directReferrals(address,uint256)":"05ad3935","emergencyWithdraw(address,uint256,address)":"551512de","getAddrCollection()":"a2b0332b","getAddrCollectionLength()":"4d38857c","getAwardRecords(address)":"df99b4d0","getDirectReferrals(address)":"d2c8e0e5","getDirectReferralsInfo(address)":"ec18ac79","getSenderApprove()":"0be04d7a","getUserInfo(address)":"6386c1c7","initialCode()":"10baf089","initialize(address,address,address,address)":"f8c8765e","isAddCollection(address)":"39fe3b99","owner()":"8da5cb5b","pause()":"8456cb59","proxiableUUID()":"52d1902d","recipient()":"66d003ac","referral(address)":"7247959a","renounceOwnership()":"715018a6","sender()":"67e404ce","setGenesisNode(address,bool)":"8c2e5517","setPause(bool)":"bedb86fb","setRecipient(address)":"3bbed4a0","setSender(address)":"ced32b0c","singleRecharge()":"689d2a82","totalPerformance()":"06876dbe","transferOwnership(address)":"f2fde38b","upgradeToAndCall(address,bytes)":"4f1ef286","userInfo(address)":"1959a002","validInvitationCode(address)":"3c4e9d74"},"id":40}