{"abi":[{"type":"receive","stateMutability":"payable"},{"type":"function","name":"FIXED_AMOUNT","inputs":[],"outputs":[{"name":"","type":"uint256","internalType":"uint256"}],"stateMutability":"view"},{"type":"function","name":"MAX_REFERRAL_DEPTH","inputs":[],"outputs":[{"name":"","type":"uint256","internalType":"uint256"}],"stateMutability":"view"},{"type":"function","name":"UPGRADE_INTERFACE_VERSION","inputs":[],"outputs":[{"name":"","type":"string","internalType":"string"}],"stateMutability":"view"},{"type":"function","name":"USDT","inputs":[],"outputs":[{"name":"","type":"address","internalType":"address"}],"stateMutability":"view"},{"type":"function","name":"VENUS","inputs":[],"outputs":[{"name":"","type":"address","internalType":"address"}],"stateMutability":"view"},{"type":"function","name":"admin","inputs":[],"outputs":[{"name":"","type":"address","internalType":"address"}],"stateMutability":"view"},{"type":"function","name":"claim","inputs":[{"name":"amountUSDT","type":"uint256","internalType":"uint256"}],"outputs":[],"stateMutability":"nonpayable"},{"type":"function","name":"directReferrals","inputs":[{"name":"","type":"address","internalType":"address"},{"name":"","type":"uint256","internalType":"uint256"}],"outputs":[{"name":"","type":"address","internalType":"address"}],"stateMutability":"view"},{"type":"function","name":"emergencyWithdraw","inputs":[{"name":"token","type":"address","internalType":"address"},{"name":"amount","type":"uint256","internalType":"uint256"},{"name":"to","type":"address","internalType":"address"}],"outputs":[],"stateMutability":"nonpayable"},{"type":"function","name":"getAddrCollection","inputs":[],"outputs":[{"name":"","type":"address[]","internalType":"address[]"}],"stateMutability":"view"},{"type":"function","name":"getAddrCollectionLength","inputs":[],"outputs":[{"name":"","type":"uint256","internalType":"uint256"}],"stateMutability":"view"},{"type":"function","name":"getDirectReferrals","inputs":[{"name":"user","type":"address","internalType":"address"}],"outputs":[{"name":"","type":"address[]","internalType":"address[]"}],"stateMutability":"view"},{"type":"function","name":"getSenderApprove","inputs":[],"outputs":[{"name":"","type":"uint256","internalType":"uint256"}],"stateMutability":"view"},{"type":"function","name":"getUserInfo","inputs":[{"name":"user","type":"address","internalType":"address"}],"outputs":[{"name":"recommender","type":"address","internalType":"address"},{"name":"staking","type":"uint256","internalType":"uint256"},{"name":"referralAward","type":"uint256","internalType":"uint256"},{"name":"performance","type":"uint256","internalType":"uint256"},{"name":"referralNum","type":"uint256","internalType":"uint256"},{"name":"referrals","type":"address[]","internalType":"address[]"}],"stateMutability":"view"},{"type":"function","name":"initialCode","inputs":[],"outputs":[{"name":"","type":"address","internalType":"address"}],"stateMutability":"view"},{"type":"function","name":"initialize","inputs":[{"name":"_admin","type":"address","internalType":"address"},{"name":"_recipient","type":"address","internalType":"address"},{"name":"_sender","type":"address","internalType":"address"},{"name":"_initialCode","type":"address","internalType":"address"}],"outputs":[],"stateMutability":"nonpayable"},{"type":"function","name":"isAddCollection","inputs":[{"name":"","type":"address","internalType":"address"}],"outputs":[{"name":"","type":"bool","internalType":"bool"}],"stateMutability":"view"},{"type":"function","name":"owner","inputs":[],"outputs":[{"name":"","type":"address","internalType":"address"}],"stateMutability":"view"},{"type":"function","name":"pause","inputs":[],"outputs":[{"name":"","type":"bool","internalType":"bool"}],"stateMutability":"view"},{"type":"function","name":"proxiableUUID","inputs":[],"outputs":[{"name":"","type":"bytes32","internalType":"bytes32"}],"stateMutability":"view"},{"type":"function","name":"recipient","inputs":[],"outputs":[{"name":"","type":"address","internalType":"address"}],"stateMutability":"view"},{"type":"function","name":"referral","inputs":[{"name":"recommender","type":"address","internalType":"address"}],"outputs":[],"stateMutability":"nonpayable"},{"type":"function","name":"renounceOwnership","inputs":[],"outputs":[],"stateMutability":"nonpayable"},{"type":"function","name":"sender","inputs":[],"outputs":[{"name":"","type":"address","internalType":"address"}],"stateMutability":"view"},{"type":"function","name":"setGenesisNode","inputs":[{"name":"user","type":"address","internalType":"address"},{"name":"isGenesisNode","type":"bool","internalType":"bool"}],"outputs":[],"stateMutability":"nonpayable"},{"type":"function","name":"setPause","inputs":[{"name":"isPause","type":"bool","internalType":"bool"}],"outputs":[],"stateMutability":"nonpayable"},{"type":"function","name":"setRecipient","inputs":[{"name":"_recipient","type":"address","internalType":"address"}],"outputs":[],"stateMutability":"nonpayable"},{"type":"function","name":"setSender","inputs":[{"name":"_sender","type":"address","internalType":"address"}],"outputs":[],"stateMutability":"nonpayable"},{"type":"function","name":"singleRecharge","inputs":[],"outputs":[],"stateMutability":"nonpayable"},{"type":"function","name":"totalPerformance","inputs":[],"outputs":[{"name":"","type":"uint256","internalType":"uint256"}],"stateMutability":"view"},{"type":"function","name":"transferOwnership","inputs":[{"name":"newOwner","type":"address","internalType":"address"}],"outputs":[],"stateMutability":"nonpayable"},{"type":"function","name":"upgradeToAndCall","inputs":[{"name":"newImplementation","type":"address","internalType":"address"},{"name":"data","type":"bytes","internalType":"bytes"}],"outputs":[],"stateMutability":"payable"},{"type":"function","name":"userInfo","inputs":[{"name":"","type":"address","internalType":"address"}],"outputs":[{"name":"recommender","type":"address","internalType":"address"},{"name":"staking","type":"uint256","internalType":"uint256"},{"name":"referralAwards","type":"uint256","internalType":"uint256"},{"name":"performance","type":"uint256","internalType":"uint256"},{"name":"referralNum","type":"uint256","internalType":"uint256"},{"name":"genesisNode","type":"bool","internalType":"bool"}],"stateMutability":"view"},{"type":"function","name":"validInvitationCode","inputs":[{"name":"user","type":"address","internalType":"address"}],"outputs":[{"name":"","type":"bool","internalType":"bool"}],"stateMutability":"view"},{"type":"event","name":"Initialized","inputs":[{"name":"version","type":"uint64","indexed":false,"internalType":"uint64"}],"anonymous":false},{"type":"event","name":"MultiRecharge","inputs":[{"name":"user","type":"address","indexed":false,"internalType":"address"},{"name":"token0","type":"address","indexed":false,"internalType":"address"},{"name":"amount0","type":"uint256","indexed":false,"internalType":"uint256"},{"name":"token1","type":"address","indexed":false,"internalType":"address"},{"name":"amount1","type":"uint256","indexed":false,"internalType":"uint256"},{"name":"remark","type":"string","indexed":false,"internalType":"string"}],"anonymous":false},{"type":"event","name":"OwnershipTransferred","inputs":[{"name":"previousOwner","type":"address","indexed":true,"internalType":"address"},{"name":"newOwner","type":"address","indexed":true,"internalType":"address"}],"anonymous":false},{"type":"event","name":"Referral","inputs":[{"name":"recommender","type":"address","indexed":false,"internalType":"address"},{"name":"referred","type":"address","indexed":false,"internalType":"address"}],"anonymous":false},{"type":"event","name":"Upgraded","inputs":[{"name":"implementation","type":"address","indexed":true,"internalType":"address"}],"anonymous":false},{"type":"error","name":"AddressEmptyCode","inputs":[{"name":"target","type":"address","internalType":"address"}]},{"type":"error","name":"ERC1967InvalidImplementation","inputs":[{"name":"implementation","type":"address","internalType":"address"}]},{"type":"error","name":"ERC1967NonPayable","inputs":[]},{"type":"error","name":"FailedCall","inputs":[]},{"type":"error","name":"InvalidInitialization","inputs":[]},{"type":"error","name":"NotInitializing","inputs":[]},{"type":"error","name":"OwnableInvalidOwner","inputs":[{"name":"owner","type":"address","internalType":"address"}]},{"type":"error","name":"OwnableUnauthorizedAccount","inputs":[{"name":"account","type":"address","internalType":"address"}]},{"type":"error","name":"ReentrancyGuardReentrantCall","inputs":[]},{"type":"error","name":"UUPSUnauthorizedCallContext","inputs":[]},{"type":"error","name":"UUPSUnsupportedProxiableUUID","inputs":[{"name":"slot","type":"bytes32","internalType":"bytes32"}]}],"bytecode":{"object":"0x60a06040523073ffffffffffffffffffffffffffffffffffffffff1660809073ffffffffffffffffffffffffffffffffffffffff168152503480156041575f5ffd5b5060015f8190555060805161426961006f5f395f818161225a015281816122af015261246901526142695ff3fe6080604052600436106101fc575f3560e01c8063689d2a821161010c578063ad3cb1cc1161009f578063d2c8e0e51161006e578063d2c8e0e514610722578063eccf16941461075e578063f2fde38b14610788578063f851a440146107b0578063f8c8765e146107da5761023c565b8063ad3cb1cc1461067e578063bedb86fb146106a8578063c54e44eb146106d0578063ced32b0c146106fa5761023c565b806389e59ea0116100db57806389e59ea0146105d85780638c2e5517146106025780638da5cb5b1461062a578063a2b0332b146106545761023c565b8063689d2a821461055a578063715018a6146105705780637247959a146105865780638456cb59146105ae5761023c565b80633bbed4a01161018f57806352d1902d1161015e57806352d1902d14610473578063551512de1461049d5780636386c1c7146104c557806366d003ac1461050657806367e404ce146105305761023c565b80633bbed4a0146103c95780633c4e9d74146103f15780634d38857c1461042d5780634f1ef286146104575761023c565b80631959a002116101cb5780631959a002146102fa5780631a78ccc11461033b578063379607f51461036557806339fe3b991461038d5761023c565b806305ad39351461024057806306876dbe1461027c5780630be04d7a146102a657806310baf089146102d05761023c565b3661023c576040517f08c379a000000000000000000000000000000000000000000000000000000000815260040161023390613136565b60405180910390fd5b5f5ffd5b34801561024b575f5ffd5b50610266600480360381019061026191906131f2565b610802565b604051610273919061323f565b60405180910390f35b348015610287575f5ffd5b5061029061084a565b60405161029d9190613267565b60405180910390f35b3480156102b1575f5ffd5b506102ba610850565b6040516102c79190613267565b60405180910390f35b3480156102db575f5ffd5b506102e4610905565b6040516102f1919061323f565b60405180910390f35b348015610305575f5ffd5b50610320600480360381019061031b9190613280565b61092a565b604051610332969594939291906132c5565b60405180910390f35b348015610346575f5ffd5b5061034f61098d565b60405161035c919061323f565b60405180910390f35b348015610370575f5ffd5b5061038b60048036038101906103869190613324565b6109a5565b005b348015610398575f5ffd5b506103b360048036038101906103ae9190613280565b610ac2565b6040516103c0919061334f565b60405180910390f35b3480156103d4575f5ffd5b506103ef60048036038101906103ea9190613280565b610adf565b005b3480156103fc575f5ffd5b5061041760048036038101906104129190613280565b610b98565b604051610424919061334f565b60405180910390f35b348015610438575f5ffd5b50610441610c8c565b60405161044e9190613267565b60405180910390f35b610471600480360381019061046c91906134a4565b610c98565b005b34801561047e575f5ffd5b50610487610cb7565b6040516104949190613516565b60405180910390f35b3480156104a8575f5ffd5b506104c360048036038101906104be919061352f565b610ce8565b005b3480156104d0575f5ffd5b506104eb60048036038101906104e69190613280565b610d00565b6040516104fd96959493929190613636565b60405180910390f35b348015610511575f5ffd5b5061051a610eda565b604051610527919061323f565b60405180910390f35b34801561053b575f5ffd5b50610544610eff565b604051610551919061323f565b60405180910390f35b348015610565575f5ffd5b5061056e610f24565b005b34801561057b575f5ffd5b5061058461140a565b005b348015610591575f5ffd5b506105ac60048036038101906105a79190613280565b61141d565b005b3480156105b9575f5ffd5b506105c26119a6565b6040516105cf919061334f565b60405180910390f35b3480156105e3575f5ffd5b506105ec6119b8565b6040516105f99190613267565b60405180910390f35b34801561060d575f5ffd5b50610628600480360381019061062391906136c6565b6119be565b005b348015610635575f5ffd5b5061063e611aa8565b60405161064b919061323f565b60405180910390f35b34801561065f575f5ffd5b50610668611add565b6040516106759190613704565b60405180910390f35b348015610689575f5ffd5b50610692611b68565b60405161069f9190613774565b60405180910390f35b3480156106b3575f5ffd5b506106ce60048036038101906106c99190613794565b611ba1565b005b3480156106db575f5ffd5b506106e4611bc5565b6040516106f1919061323f565b60405180910390f35b348015610705575f5ffd5b50610720600480360381019061071b9190613280565b611bdd565b005b34801561072d575f5ffd5b5061074860048036038101906107439190613280565b611c96565b6040516107559190613704565b60405180910390f35b348015610769575f5ffd5b50610772611d5e565b60405161077f9190613267565b60405180910390f35b348015610793575f5ffd5b506107ae60048036038101906107a99190613280565b611d6a565b005b3480156107bb575f5ffd5b506107c4611dee565b6040516107d1919061323f565b60405180910390f35b3480156107e5575f5ffd5b5061080060048036038101906107fb91906137bf565b611e13565b005b6006602052815f5260405f20818154811061081b575f80fd5b905f5260205f20015f915091509054906101000a900473ffffffffffffffffffffffffffffffffffffffff1681565b60075481565b5f7355d398326f99059ff775485246999027b319795573ffffffffffffffffffffffffffffffffffffffff1663dd62ed3e60035f9054906101000a900473ffffffffffffffffffffffffffffffffffffffff16306040518363ffffffff1660e01b81526004016108c1929190613823565b602060405180830381865afa1580156108dc573d5f5f3e3d5ffd5b505050506040513d601f19601f82011682018060405250810190610900919061385e565b905090565b60045f9054906101000a900473ffffffffffffffffffffffffffffffffffffffff1681565b6005602052805f5260405f205f91509050805f015f9054906101000a900473ffffffffffffffffffffffffffffffffffffffff1690806001015490806002015490806003015490806004015490806005015f9054906101000a900460ff16905086565b73fd5840cd36d94d7229439859c0112a4185bc025581565b60055f3373ffffffffffffffffffffffffffffffffffffffff1673ffffffffffffffffffffffffffffffffffffffff1681526020019081526020015f2060020154811115610a28576040517f08c379a0000000000000000000000000000000000000000000000000000000008152600401610a1f906138d3565b60405180910390fd5b610a697355d398326f99059ff775485246999027b319795560035f9054906101000a900473ffffffffffffffffffffffffffffffffffffffff16338461209e565b8060055f3373ffffffffffffffffffffffffffffffffffffffff1673ffffffffffffffffffffffffffffffffffffffff1681526020019081526020015f206002015f828254610ab8919061391e565b9250508190555050565b6009602052805f5260405f205f915054906101000a900460ff1681565b610ae76121d1565b5f73ffffffffffffffffffffffffffffffffffffffff168173ffffffffffffffffffffffffffffffffffffffff1603610b55576040517f08c379a0000000000000000000000000000000000000000000000000000000008152600401610b4c9061399b565b60405180910390fd5b8060025f6101000a81548173ffffffffffffffffffffffffffffffffffffffff021916908373ffffffffffffffffffffffffffffffffffffffff16021790555050565b5f60045f9054906101000a900473ffffffffffffffffffffffffffffffffffffffff1673ffffffffffffffffffffffffffffffffffffffff168273ffffffffffffffffffffffffffffffffffffffff1603610bf65760019050610c87565b5f73ffffffffffffffffffffffffffffffffffffffff1660055f8473ffffffffffffffffffffffffffffffffffffffff1673ffffffffffffffffffffffffffffffffffffffff1681526020019081526020015f205f015f9054906101000a900473ffffffffffffffffffffffffffffffffffffffff1673ffffffffffffffffffffffffffffffffffffffff16141590505b919050565b5f600880549050905090565b610ca0612258565b610ca98261233e565b610cb38282612349565b5050565b5f610cc0612467565b7f360894a13ba1a3210667c828492db98dca3e2076cc3735a920a3ca505d382bbc5f1b905090565b610cf06121d1565b610cfb8382846124ee565b505050565b5f5f5f5f5f60605f60055f8973ffffffffffffffffffffffffffffffffffffffff1673ffffffffffffffffffffffffffffffffffffffff1681526020019081526020015f206040518060c00160405290815f82015f9054906101000a900473ffffffffffffffffffffffffffffffffffffffff1673ffffffffffffffffffffffffffffffffffffffff1673ffffffffffffffffffffffffffffffffffffffff16815260200160018201548152602001600282015481526020016003820154815260200160048201548152602001600582015f9054906101000a900460ff16151515158152505090505f60065f8a73ffffffffffffffffffffffffffffffffffffffff1673ffffffffffffffffffffffffffffffffffffffff1681526020019081526020015f20805480602002602001604051908101604052809291908181526020018280548015610ea357602002820191905f5260205f20905b815f9054906101000a900473ffffffffffffffffffffffffffffffffffffffff1673ffffffffffffffffffffffffffffffffffffffff1681526020019060010190808311610e5a575b50505050509050815f0151826020015183604001518460600151856080015185975097509750975097509750505091939550919395565b60025f9054906101000a900473ffffffffffffffffffffffffffffffffffffffff1681565b60035f9054906101000a900473ffffffffffffffffffffffffffffffffffffffff1681565b610f2c61261e565b600a5f9054906101000a900460ff1615610f7b576040517f08c379a0000000000000000000000000000000000000000000000000000000008152600401610f7290613a03565b60405180910390fd5b5f73ffffffffffffffffffffffffffffffffffffffff1660055f3373ffffffffffffffffffffffffffffffffffffffff1673ffffffffffffffffffffffffffffffffffffffff1681526020019081526020015f205f015f9054906101000a900473ffffffffffffffffffffffffffffffffffffffff1673ffffffffffffffffffffffffffffffffffffffff1603611047576040517f08c379a000000000000000000000000000000000000000000000000000000000815260040161103e90613a91565b60405180910390fd5b61106f7355d398326f99059ff775485246999027b3197955333067016345785d8a000061209e565b6110a27355d398326f99059ff775485246999027b319795573fd5840cd36d94d7229439859c0112a4185bc02555f612662565b6110dd7355d398326f99059ff775485246999027b319795573fd5840cd36d94d7229439859c0112a4185bc025567016345785d8a0000612662565b5f73fd5840cd36d94d7229439859c0112a4185bc025573ffffffffffffffffffffffffffffffffffffffff1663a0712d6867016345785d8a00006040518263ffffffff1660e01b81526004016111339190613267565b6020604051808303815f875af115801561114f573d5f5f3e3d5ffd5b505050506040513d601f19601f82011682018060405250810190611173919061385e565b146111b3576040517f08c379a00000000000000000000000000000000000000000000000000000000081526004016111aa90613af9565b60405180910390fd5b5f73fd5840cd36d94d7229439859c0112a4185bc025573ffffffffffffffffffffffffffffffffffffffff166370a08231306040518263ffffffff1660e01b8152600401611201919061323f565b602060405180830381865afa15801561121c573d5f5f3e3d5ffd5b505050506040513d601f19601f82011682018060405250810190611240919061385e565b905061128273fd5840cd36d94d7229439859c0112a4185bc025560025f9054906101000a900473ffffffffffffffffffffffffffffffffffffffff16836124ee565b67016345785d8a000060055f3373ffffffffffffffffffffffffffffffffffffffff1673ffffffffffffffffffffffffffffffffffffffff1681526020019081526020015f206001015f8282546112d99190613b17565b9250508190555067016345785d8a000060075f8282546112f99190613b17565b925050819055505f73ffffffffffffffffffffffffffffffffffffffff1660055f3373ffffffffffffffffffffffffffffffffffffffff1673ffffffffffffffffffffffffffffffffffffffff1681526020019081526020015f205f015f9054906101000a900473ffffffffffffffffffffffffffffffffffffffff1673ffffffffffffffffffffffffffffffffffffffff16146113a4576113a33367016345785d8a0000612792565b5b7f92bfe9b63523d7c8baff8387323dd4c1c8ccd48705d9c91e19160ebcabb053b8337355d398326f99059ff775485246999027b319795567016345785d8a00005f5f6040516113f7959493929190613baf565b60405180910390a1506114086129ee565b565b6114126121d1565b61141b5f6129f7565b565b61142561261e565b600a5f9054906101000a900460ff1615611474576040517f08c379a000000000000000000000000000000000000000000000000000000000815260040161146b90613a03565b60405180910390fd5b5f73ffffffffffffffffffffffffffffffffffffffff168173ffffffffffffffffffffffffffffffffffffffff16036114e2576040517f08c379a00000000000000000000000000000000000000000000000000000000081526004016114d990613c5d565b60405180910390fd5b3373ffffffffffffffffffffffffffffffffffffffff168173ffffffffffffffffffffffffffffffffffffffff1603611550576040517f08c379a000000000000000000000000000000000000000000000000000000000815260040161154790613cc5565b60405180910390fd5b60045f9054906101000a900473ffffffffffffffffffffffffffffffffffffffff1673ffffffffffffffffffffffffffffffffffffffff168173ffffffffffffffffffffffffffffffffffffffff1614611671575f73ffffffffffffffffffffffffffffffffffffffff1660055f8373ffffffffffffffffffffffffffffffffffffffff1673ffffffffffffffffffffffffffffffffffffffff1681526020019081526020015f205f015f9054906101000a900473ffffffffffffffffffffffffffffffffffffffff1673ffffffffffffffffffffffffffffffffffffffff1603611670576040517f08c379a000000000000000000000000000000000000000000000000000000000815260040161166790613d53565b60405180910390fd5b5b5f73ffffffffffffffffffffffffffffffffffffffff1660055f3373ffffffffffffffffffffffffffffffffffffffff1673ffffffffffffffffffffffffffffffffffffffff1681526020019081526020015f205f015f9054906101000a900473ffffffffffffffffffffffffffffffffffffffff1673ffffffffffffffffffffffffffffffffffffffff161461173d576040517f08c379a000000000000000000000000000000000000000000000000000000000815260040161173490613dbb565b60405180910390fd5b8060055f3373ffffffffffffffffffffffffffffffffffffffff1673ffffffffffffffffffffffffffffffffffffffff1681526020019081526020015f205f015f6101000a81548173ffffffffffffffffffffffffffffffffffffffff021916908373ffffffffffffffffffffffffffffffffffffffff16021790555060065f8273ffffffffffffffffffffffffffffffffffffffff1673ffffffffffffffffffffffffffffffffffffffff1681526020019081526020015f2033908060018154018082558091505060019003905f5260205f20015f9091909190916101000a81548173ffffffffffffffffffffffffffffffffffffffff021916908373ffffffffffffffffffffffffffffffffffffffff16021790555060095f3373ffffffffffffffffffffffffffffffffffffffff1673ffffffffffffffffffffffffffffffffffffffff1681526020019081526020015f205f9054906101000a900460ff1661195957600833908060018154018082558091505060019003905f5260205f20015f9091909190916101000a81548173ffffffffffffffffffffffffffffffffffffffff021916908373ffffffffffffffffffffffffffffffffffffffff160217905550600160095f3373ffffffffffffffffffffffffffffffffffffffff1673ffffffffffffffffffffffffffffffffffffffff1681526020019081526020015f205f6101000a81548160ff0219169083151502179055505b61196233612ac8565b7f9d05414fb79fac216c15606de5cc06664e91a254e4d5f57664d5f1beaf7fb7ef8133604051611993929190613823565b60405180910390a16119a36129ee565b50565b600a5f9054906101000a900460ff1681565b6101f481565b3373ffffffffffffffffffffffffffffffffffffffff1660015f9054906101000a900473ffffffffffffffffffffffffffffffffffffffff1673ffffffffffffffffffffffffffffffffffffffff1614611a4d576040517f08c379a0000000000000000000000000000000000000000000000000000000008152600401611a4490613e23565b60405180910390fd5b8060055f8473ffffffffffffffffffffffffffffffffffffffff1673ffffffffffffffffffffffffffffffffffffffff1681526020019081526020015f206005015f6101000a81548160ff0219169083151502179055505050565b5f5f611ab2612c75565b9050805f015f9054906101000a900473ffffffffffffffffffffffffffffffffffffffff1691505090565b60606008805480602002602001604051908101604052809291908181526020018280548015611b5e57602002820191905f5260205f20905b815f9054906101000a900473ffffffffffffffffffffffffffffffffffffffff1673ffffffffffffffffffffffffffffffffffffffff1681526020019060010190808311611b15575b5050505050905090565b6040518060400160405280600581526020017f352e302e3000000000000000000000000000000000000000000000000000000081525081565b611ba96121d1565b80600a5f6101000a81548160ff02191690831515021790555050565b7355d398326f99059ff775485246999027b319795581565b611be56121d1565b5f73ffffffffffffffffffffffffffffffffffffffff168173ffffffffffffffffffffffffffffffffffffffff1603611c53576040517f08c379a0000000000000000000000000000000000000000000000000000000008152600401611c4a90613c5d565b60405180910390fd5b8060035f6101000a81548173ffffffffffffffffffffffffffffffffffffffff021916908373ffffffffffffffffffffffffffffffffffffffff16021790555050565b606060065f8373ffffffffffffffffffffffffffffffffffffffff1673ffffffffffffffffffffffffffffffffffffffff1681526020019081526020015f20805480602002602001604051908101604052809291908181526020018280548015611d5257602002820191905f5260205f20905b815f9054906101000a900473ffffffffffffffffffffffffffffffffffffffff1673ffffffffffffffffffffffffffffffffffffffff1681526020019060010190808311611d09575b50505050509050919050565b67016345785d8a000081565b611d726121d1565b5f73ffffffffffffffffffffffffffffffffffffffff168173ffffffffffffffffffffffffffffffffffffffff1603611de2575f6040517f1e4fbdf7000000000000000000000000000000000000000000000000000000008152600401611dd9919061323f565b60405180910390fd5b611deb816129f7565b50565b60015f9054906101000a900473ffffffffffffffffffffffffffffffffffffffff1681565b5f611e1c612c9c565b90505f815f0160089054906101000a900460ff161590505f825f015f9054906101000a900467ffffffffffffffff1690505f5f8267ffffffffffffffff16148015611e645750825b90505f60018367ffffffffffffffff16148015611e9757505f3073ffffffffffffffffffffffffffffffffffffffff163b145b905081158015611ea5575080155b15611edc576040517ff92ee8a900000000000000000000000000000000000000000000000000000000815260040160405180910390fd5b6001855f015f6101000a81548167ffffffffffffffff021916908367ffffffffffffffff1602179055508315611f29576001855f0160086101000a81548160ff0219169083151502179055505b611f39611f34612caf565b612cb6565b8860015f6101000a81548173ffffffffffffffffffffffffffffffffffffffff021916908373ffffffffffffffffffffffffffffffffffffffff1602179055508760025f6101000a81548173ffffffffffffffffffffffffffffffffffffffff021916908373ffffffffffffffffffffffffffffffffffffffff1602179055508660035f6101000a81548173ffffffffffffffffffffffffffffffffffffffff021916908373ffffffffffffffffffffffffffffffffffffffff1602179055508560045f6101000a81548173ffffffffffffffffffffffffffffffffffffffff021916908373ffffffffffffffffffffffffffffffffffffffff1602179055508315612093575f855f0160086101000a81548160ff0219169083151502179055507fc7f505b2f371ae2175ee4913f4499e1f2633a7b5936321eed1cdaeb6115181d2600160405161208a9190613e8d565b60405180910390a15b505050505050505050565b5f5f8573ffffffffffffffffffffffffffffffffffffffff166323b872dd8686866040516024016120d193929190613ea6565b6040516020818303038152906040529060e01b6020820180517bffffffffffffffffffffffffffffffffffffffffffffffffffffffff838183161783525050505060405161211f9190613f1f565b5f604051808303815f865af19150503d805f8114612158576040519150601f19603f3d011682016040523d82523d5f602084013e61215d565b606091505b509150915081801561218a57505f815114806121895750808060200190518101906121889190613f49565b5b5b6121c9576040517f08c379a00000000000000000000000000000000000000000000000000000000081526004016121c090613fe4565b60405180910390fd5b505050505050565b6121d9612caf565b73ffffffffffffffffffffffffffffffffffffffff166121f7611aa8565b73ffffffffffffffffffffffffffffffffffffffff16146122565761221a612caf565b6040517f118cdaa700000000000000000000000000000000000000000000000000000000815260040161224d919061323f565b60405180910390fd5b565b7f000000000000000000000000000000000000000000000000000000000000000073ffffffffffffffffffffffffffffffffffffffff163073ffffffffffffffffffffffffffffffffffffffff16148061230557507f000000000000000000000000000000000000000000000000000000000000000073ffffffffffffffffffffffffffffffffffffffff166122ec612cca565b73ffffffffffffffffffffffffffffffffffffffff1614155b1561233c576040517fe07c8dba00000000000000000000000000000000000000000000000000000000815260040160405180910390fd5b565b6123466121d1565b50565b8173ffffffffffffffffffffffffffffffffffffffff166352d1902d6040518163ffffffff1660e01b8152600401602060405180830381865afa9250505080156123b157506040513d601f19601f820116820180604052508101906123ae919061402c565b60015b6123f257816040517f4c9c8ce30000000000000000000000000000000000000000000000000000000081526004016123e9919061323f565b60405180910390fd5b7f360894a13ba1a3210667c828492db98dca3e2076cc3735a920a3ca505d382bbc5f1b811461245857806040517faa1d49a400000000000000000000000000000000000000000000000000000000815260040161244f9190613516565b60405180910390fd5b6124628383612d1d565b505050565b7f000000000000000000000000000000000000000000000000000000000000000073ffffffffffffffffffffffffffffffffffffffff163073ffffffffffffffffffffffffffffffffffffffff16146124ec576040517fe07c8dba00000000000000000000000000000000000000000000000000000000815260040160405180910390fd5b565b5f5f8473ffffffffffffffffffffffffffffffffffffffff1663a9059cbb858560405160240161251f929190614057565b6040516020818303038152906040529060e01b6020820180517bffffffffffffffffffffffffffffffffffffffffffffffffffffffff838183161783525050505060405161256d9190613f1f565b5f604051808303815f865af19150503d805f81146125a6576040519150601f19603f3d011682016040523d82523d5f602084013e6125ab565b606091505b50915091508180156125d857505f815114806125d75750808060200190518101906125d69190613f49565b5b5b612617576040517f08c379a000000000000000000000000000000000000000000000000000000000815260040161260e906140c8565b60405180910390fd5b5050505050565b60025f5403612659576040517f3ee5aeb500000000000000000000000000000000000000000000000000000000815260040160405180910390fd5b60025f81905550565b5f5f8473ffffffffffffffffffffffffffffffffffffffff1663095ea7b38585604051602401612693929190614057565b6040516020818303038152906040529060e01b6020820180517bffffffffffffffffffffffffffffffffffffffffffffffffffffffff83818316178352505050506040516126e19190613f1f565b5f604051808303815f865af19150503d805f811461271a576040519150601f19603f3d011682016040523d82523d5f602084013e61271f565b606091505b509150915081801561274c57505f8151148061274b57508080602001905181019061274a9190613f49565b5b5b61278b576040517f08c379a000000000000000000000000000000000000000000000000000000000815260040161278290614130565b60405180910390fd5b5050505050565b5f60055f8473ffffffffffffffffffffffffffffffffffffffff1673ffffffffffffffffffffffffffffffffffffffff1681526020019081526020015f205f015f9054906101000a900473ffffffffffffffffffffffffffffffffffffffff1690505f5b5f73ffffffffffffffffffffffffffffffffffffffff168273ffffffffffffffffffffffffffffffffffffffff16146129e8578373ffffffffffffffffffffffffffffffffffffffff168273ffffffffffffffffffffffffffffffffffffffff1603156129e8578260055f8473ffffffffffffffffffffffffffffffffffffffff1673ffffffffffffffffffffffffffffffffffffffff1681526020019081526020015f206003015f8282546128ac9190613b17565b9250508190555060055f8373ffffffffffffffffffffffffffffffffffffffff1673ffffffffffffffffffffffffffffffffffffffff1681526020019081526020015f206005015f9054906101000a900460ff16801561290a575080155b15612982576064600f8461291e919061414e565b61292891906141bc565b60055f8473ffffffffffffffffffffffffffffffffffffffff1673ffffffffffffffffffffffffffffffffffffffff1681526020019081526020015f206002015f8282546129769190613b17565b92505081905550600190505b60055f8373ffffffffffffffffffffffffffffffffffffffff1673ffffffffffffffffffffffffffffffffffffffff1681526020019081526020015f205f015f9054906101000a900473ffffffffffffffffffffffffffffffffffffffff1691506127f6565b50505050565b60015f81905550565b5f612a00612c75565b90505f815f015f9054906101000a900473ffffffffffffffffffffffffffffffffffffffff16905082825f015f6101000a81548173ffffffffffffffffffffffffffffffffffffffff021916908373ffffffffffffffffffffffffffffffffffffffff1602179055508273ffffffffffffffffffffffffffffffffffffffff168173ffffffffffffffffffffffffffffffffffffffff167f8be0079c531659141344cd1fd0a4f28419497f9722a3daafe3b4186f6b6457e060405160405180910390a3505050565b5f60055f8373ffffffffffffffffffffffffffffffffffffffff1673ffffffffffffffffffffffffffffffffffffffff1681526020019081526020015f205f015f9054906101000a900473ffffffffffffffffffffffffffffffffffffffff1690505f5f90505b5f73ffffffffffffffffffffffffffffffffffffffff168273ffffffffffffffffffffffffffffffffffffffff1614158015612b6c57506101f481105b15612c70578273ffffffffffffffffffffffffffffffffffffffff168273ffffffffffffffffffffffffffffffffffffffff160315612c7057600160055f8473ffffffffffffffffffffffffffffffffffffffff1673ffffffffffffffffffffffffffffffffffffffff1681526020019081526020015f206004015f828254612bf59190613b17565b9250508190555060055f8373ffffffffffffffffffffffffffffffffffffffff1673ffffffffffffffffffffffffffffffffffffffff1681526020019081526020015f205f015f9054906101000a900473ffffffffffffffffffffffffffffffffffffffff1691508080612c68906141ec565b915050612b2f565b505050565b5f7f9016d09d72d40fdae2fd8ceac6b6234c7706214fd39c1cd1e609a0528c199300905090565b5f5f612ca6612d8f565b90508091505090565b5f33905090565b612cbe612db8565b612cc781612df8565b50565b5f612cf67f360894a13ba1a3210667c828492db98dca3e2076cc3735a920a3ca505d382bbc5f1b612e7c565b5f015f9054906101000a900473ffffffffffffffffffffffffffffffffffffffff16905090565b612d2682612e85565b8173ffffffffffffffffffffffffffffffffffffffff167fbc7cd75a20ee27fd9adebab32041f755214dbc6bffa90cc0225b39da2e5c2d3b60405160405180910390a25f81511115612d8257612d7c8282612f4e565b50612d8b565b612d8a61303f565b5b5050565b5f7ff0c57e16840df040f15088dc2f81fe391c3923bec73e23a9662efc9c229c6a005f1b905090565b612dc061307b565b612df6576040517fd7e6bcf800000000000000000000000000000000000000000000000000000000815260040160405180910390fd5b565b612e00612db8565b5f73ffffffffffffffffffffffffffffffffffffffff168173ffffffffffffffffffffffffffffffffffffffff1603612e70575f6040517f1e4fbdf7000000000000000000000000000000000000000000000000000000008152600401612e67919061323f565b60405180910390fd5b612e79816129f7565b50565b5f819050919050565b5f8173ffffffffffffffffffffffffffffffffffffffff163b03612ee057806040517f4c9c8ce3000000000000000000000000000000000000000000000000000000008152600401612ed7919061323f565b60405180910390fd5b80612f0c7f360894a13ba1a3210667c828492db98dca3e2076cc3735a920a3ca505d382bbc5f1b612e7c565b5f015f6101000a81548173ffffffffffffffffffffffffffffffffffffffff021916908373ffffffffffffffffffffffffffffffffffffffff16021790555050565b60605f612f5b8484613099565b9050808015612f9157505f612f6e6130ad565b1180612f9057505f8473ffffffffffffffffffffffffffffffffffffffff163b115b5b15612fa657612f9e6130b4565b915050613039565b8015612fe957836040517f9996b315000000000000000000000000000000000000000000000000000000008152600401612fe0919061323f565b60405180910390fd5b5f612ff26130ad565b1115613005576130006130d1565b613037565b6040517fd6bda27500000000000000000000000000000000000000000000000000000000815260040160405180910390fd5b505b92915050565b5f341115613079576040517fb398979f00000000000000000000000000000000000000000000000000000000815260040160405180910390fd5b565b5f613084612c9c565b5f0160089054906101000a900460ff16905090565b5f5f5f835160208501865af4905092915050565b5f3d905090565b606060405190503d81523d5f602083013e3d602001810160405290565b6040513d5f823e3d81fd5b5f82825260208201905092915050565b7f4e4f5f4449524543545f53454e440000000000000000000000000000000000005f82015250565b5f613120600e836130dc565b915061312b826130ec565b602082019050919050565b5f6020820190508181035f83015261314d81613114565b9050919050565b5f604051905090565b5f5ffd5b5f5ffd5b5f73ffffffffffffffffffffffffffffffffffffffff82169050919050565b5f61318e82613165565b9050919050565b61319e81613184565b81146131a8575f5ffd5b50565b5f813590506131b981613195565b92915050565b5f819050919050565b6131d1816131bf565b81146131db575f5ffd5b50565b5f813590506131ec816131c8565b92915050565b5f5f604083850312156132085761320761315d565b5b5f613215858286016131ab565b9250506020613226858286016131de565b9150509250929050565b61323981613184565b82525050565b5f6020820190506132525f830184613230565b92915050565b613261816131bf565b82525050565b5f60208201905061327a5f830184613258565b92915050565b5f602082840312156132955761329461315d565b5b5f6132a2848285016131ab565b91505092915050565b5f8115159050919050565b6132bf816132ab565b82525050565b5f60c0820190506132d85f830189613230565b6132e56020830188613258565b6132f26040830187613258565b6132ff6060830186613258565b61330c6080830185613258565b61331960a08301846132b6565b979650505050505050565b5f602082840312156133395761333861315d565b5b5f613346848285016131de565b91505092915050565b5f6020820190506133625f8301846132b6565b92915050565b5f5ffd5b5f5ffd5b5f601f19601f8301169050919050565b7f4e487b71000000000000000000000000000000000000000000000000000000005f52604160045260245ffd5b6133b682613370565b810181811067ffffffffffffffff821117156133d5576133d4613380565b5b80604052505050565b5f6133e7613154565b90506133f382826133ad565b919050565b5f67ffffffffffffffff82111561341257613411613380565b5b61341b82613370565b9050602081019050919050565b828183375f83830152505050565b5f613448613443846133f8565b6133de565b9050828152602081018484840111156134645761346361336c565b5b61346f848285613428565b509392505050565b5f82601f83011261348b5761348a613368565b5b813561349b848260208601613436565b91505092915050565b5f5f604083850312156134ba576134b961315d565b5b5f6134c7858286016131ab565b925050602083013567ffffffffffffffff8111156134e8576134e7613161565b5b6134f485828601613477565b9150509250929050565b5f819050919050565b613510816134fe565b82525050565b5f6020820190506135295f830184613507565b92915050565b5f5f5f606084860312156135465761354561315d565b5b5f613553868287016131ab565b9350506020613564868287016131de565b9250506040613575868287016131ab565b9150509250925092565b5f81519050919050565b5f82825260208201905092915050565b5f819050602082019050919050565b6135b181613184565b82525050565b5f6135c283836135a8565b60208301905092915050565b5f602082019050919050565b5f6135e48261357f565b6135ee8185613589565b93506135f983613599565b805f5b8381101561362957815161361088826135b7565b975061361b836135ce565b9250506001810190506135fc565b5085935050505092915050565b5f60c0820190506136495f830189613230565b6136566020830188613258565b6136636040830187613258565b6136706060830186613258565b61367d6080830185613258565b81810360a083015261368f81846135da565b9050979650505050505050565b6136a5816132ab565b81146136af575f5ffd5b50565b5f813590506136c08161369c565b92915050565b5f5f604083850312156136dc576136db61315d565b5b5f6136e9858286016131ab565b92505060206136fa858286016136b2565b9150509250929050565b5f6020820190508181035f83015261371c81846135da565b905092915050565b5f81519050919050565b8281835e5f83830152505050565b5f61374682613724565b61375081856130dc565b935061376081856020860161372e565b61376981613370565b840191505092915050565b5f6020820190508181035f83015261378c818461373c565b905092915050565b5f602082840312156137a9576137a861315d565b5b5f6137b6848285016136b2565b91505092915050565b5f5f5f5f608085870312156137d7576137d661315d565b5b5f6137e4878288016131ab565b94505060206137f5878288016131ab565b9350506040613806878288016131ab565b9250506060613817878288016131ab565b91505092959194509250565b5f6040820190506138365f830185613230565b6138436020830184613230565b9392505050565b5f81519050613858816131c8565b92915050565b5f602082840312156138735761387261315d565b5b5f6138808482850161384a565b91505092915050565b7f4552524f525f414d4f554e545f555344542e00000000000000000000000000005f82015250565b5f6138bd6012836130dc565b91506138c882613889565b602082019050919050565b5f6020820190508181035f8301526138ea816138b1565b9050919050565b7f4e487b71000000000000000000000000000000000000000000000000000000005f52601160045260245ffd5b5f613928826131bf565b9150613933836131bf565b925082820390508181111561394b5761394a6138f1565b5b92915050565b7f5a45524f5f4144445245535300000000000000000000000000000000000000005f82015250565b5f613985600c836130dc565b915061399082613951565b602082019050919050565b5f6020820190508181035f8301526139b281613979565b9050919050565b7f50415553455f52454348415247452e00000000000000000000000000000000005f82015250565b5f6139ed600f836130dc565b91506139f8826139b9565b602082019050919050565b5f6020820190508181035f830152613a1a816139e1565b9050919050565b7f5245434f4d4d454e444154494f4e5f49535f52455155495245445f52454348415f8201527f5247452e00000000000000000000000000000000000000000000000000000000602082015250565b5f613a7b6024836130dc565b9150613a8682613a21565b604082019050919050565b5f6020820190508181035f830152613aa881613a6f565b9050919050565b7f56454e55535f4d494e545f4641494c45440000000000000000000000000000005f82015250565b5f613ae36011836130dc565b9150613aee82613aaf565b602082019050919050565b5f6020820190508181035f830152613b1081613ad7565b9050919050565b5f613b21826131bf565b9150613b2c836131bf565b9250828201905080821115613b4457613b436138f1565b5b92915050565b5f819050919050565b5f819050919050565b5f613b76613b71613b6c84613b4a565b613b53565b6131bf565b9050919050565b613b8681613b5c565b82525050565b50565b5f613b9a5f836130dc565b9150613ba582613b8c565b5f82019050919050565b5f60c082019050613bc25f830188613230565b613bcf6020830187613230565b613bdc6040830186613258565b613be96060830185613230565b613bf66080830184613b7d565b81810360a0830152613c0781613b8f565b90509695505050505050565b7f5a45524f5f414444524553532e000000000000000000000000000000000000005f82015250565b5f613c47600d836130dc565b9150613c5282613c13565b602082019050919050565b5f6020820190508181035f830152613c7481613c3b565b9050919050565b7f494e56414c49445f5245434f4d4d454e4445522e0000000000000000000000005f82015250565b5f613caf6014836130dc565b9150613cba82613c7b565b602082019050919050565b5f6020820190508181035f830152613cdc81613ca3565b9050919050565b7f5245434f4d4d454e444154494f4e5f49535f52455155495245445f52454645525f8201527f52414c2e00000000000000000000000000000000000000000000000000000000602082015250565b5f613d3d6024836130dc565b9150613d4882613ce3565b604082019050919050565b5f6020820190508181035f830152613d6a81613d31565b9050919050565b7f494e56495445525f414c52454144595f4558495354532e0000000000000000005f82015250565b5f613da56017836130dc565b9150613db082613d71565b602082019050919050565b5f6020820190508181035f830152613dd281613d99565b9050919050565b7f4552524f525f5045524d49542e000000000000000000000000000000000000005f82015250565b5f613e0d600d836130dc565b9150613e1882613dd9565b602082019050919050565b5f6020820190508181035f830152613e3a81613e01565b9050919050565b5f819050919050565b5f67ffffffffffffffff82169050919050565b5f613e77613e72613e6d84613e41565b613b53565b613e4a565b9050919050565b613e8781613e5d565b82525050565b5f602082019050613ea05f830184613e7e565b92915050565b5f606082019050613eb95f830186613230565b613ec66020830185613230565b613ed36040830184613258565b949350505050565b5f81519050919050565b5f81905092915050565b5f613ef982613edb565b613f038185613ee5565b9350613f1381856020860161372e565b80840191505092915050565b5f613f2a8284613eef565b915081905092915050565b5f81519050613f438161369c565b92915050565b5f60208284031215613f5e57613f5d61315d565b5b5f613f6b84828501613f35565b91505092915050565b7f5472616e7366657248656c7065723a205452414e534645525f46524f4d5f46415f8201527f494c454400000000000000000000000000000000000000000000000000000000602082015250565b5f613fce6024836130dc565b9150613fd982613f74565b604082019050919050565b5f6020820190508181035f830152613ffb81613fc2565b9050919050565b61400b816134fe565b8114614015575f5ffd5b50565b5f8151905061402681614002565b92915050565b5f602082840312156140415761404061315d565b5b5f61404e84828501614018565b91505092915050565b5f60408201905061406a5f830185613230565b6140776020830184613258565b9392505050565b7f5472616e7366657248656c7065723a205452414e534645525f4641494c4544005f82015250565b5f6140b2601f836130dc565b91506140bd8261407e565b602082019050919050565b5f6020820190508181035f8301526140df816140a6565b9050919050565b7f5472616e7366657248656c7065723a20415050524f56455f4641494c454400005f82015250565b5f61411a601e836130dc565b9150614125826140e6565b602082019050919050565b5f6020820190508181035f8301526141478161410e565b9050919050565b5f614158826131bf565b9150614163836131bf565b9250828202614171816131bf565b91508282048414831517614188576141876138f1565b5b5092915050565b7f4e487b71000000000000000000000000000000000000000000000000000000005f52601260045260245ffd5b5f6141c6826131bf565b91506141d1836131bf565b9250826141e1576141e061418f565b5b828204905092915050565b5f6141f6826131bf565b91507fffffffffffffffffffffffffffffffffffffffffffffffffffffffffffffffff8203614228576142276138f1565b5b60018201905091905056fea264697066735822122004262e8503ecbaf192304409e4bb3a34785e4d4fafaba573662fc7814d5acd5064736f6c634300081e0033","linkReferences":{}},"methodIdentifiers":{"FIXED_AMOUNT()":"eccf1694","MAX_REFERRAL_DEPTH()":"89e59ea0","UPGRADE_INTERFACE_VERSION()":"ad3cb1cc","USDT()":"c54e44eb","VENUS()":"1a78ccc1","admin()":"f851a440","claim(uint256)":"379607f5","directReferrals(address,uint256)":"05ad3935","emergencyWithdraw(address,uint256,address)":"551512de","getAddrCollection()":"a2b0332b","getAddrCollectionLength()":"4d38857c","getDirectReferrals(address)":"d2c8e0e5","getSenderApprove()":"0be04d7a","getUserInfo(address)":"6386c1c7","initialCode()":"10baf089","initialize(address,address,address,address)":"f8c8765e","isAddCollection(address)":"39fe3b99","owner()":"8da5cb5b","pause()":"8456cb59","proxiableUUID()":"52d1902d","recipient()":"66d003ac","referral(address)":"7247959a","renounceOwnership()":"715018a6","sender()":"67e404ce","setGenesisNode(address,bool)":"8c2e5517","setPause(bool)":"bedb86fb","setRecipient(address)":"3bbed4a0","setSender(address)":"ced32b0c","singleRecharge()":"689d2a82","totalPerformance()":"06876dbe","transferOwnership(address)":"f2fde38b","upgradeToAndCall(address,bytes)":"4f1ef286","userInfo(address)":"1959a002","validInvitationCode(address)":"3c4e9d74"},"id":40}