{"abi":[{"type":"function","name":"DEAD","inputs":[],"outputs":[{"name":"","type":"address","internalType":"address"}],"stateMutability":"view"},{"type":"function","name":"UPGRADE_INTERFACE_VERSION","inputs":[],"outputs":[{"name":"","type":"string","internalType":"string"}],"stateMutability":"view"},{"type":"function","name":"accRewardPerShare","inputs":[],"outputs":[{"name":"","type":"uint256","internalType":"uint256"}],"stateMutability":"view"},{"type":"function","name":"claim","inputs":[],"outputs":[],"stateMutability":"nonpayable"},{"type":"function","name":"emergencyWithdraw","inputs":[],"outputs":[],"stateMutability":"nonpayable"},{"type":"function","name":"flap","inputs":[],"outputs":[{"name":"","type":"address","internalType":"address"}],"stateMutability":"view"},{"type":"function","name":"initialize","inputs":[{"name":"_flap","type":"address","internalType":"address"},{"name":"_subToken","type":"address","internalType":"address"}],"outputs":[],"stateMutability":"nonpayable"},{"type":"function","name":"lastRewardTime","inputs":[],"outputs":[{"name":"","type":"uint256","internalType":"uint256"}],"stateMutability":"view"},{"type":"function","name":"owner","inputs":[],"outputs":[{"name":"","type":"address","internalType":"address"}],"stateMutability":"view"},{"type":"function","name":"pendingReward","inputs":[{"name":"_user","type":"address","internalType":"address"}],"outputs":[{"name":"","type":"uint256","internalType":"uint256"}],"stateMutability":"view"},{"type":"function","name":"proxiableUUID","inputs":[],"outputs":[{"name":"","type":"bytes32","internalType":"bytes32"}],"stateMutability":"view"},{"type":"function","name":"renounceOwnership","inputs":[],"outputs":[],"stateMutability":"nonpayable"},{"type":"function","name":"rewardPerSecond","inputs":[],"outputs":[{"name":"","type":"uint256","internalType":"uint256"}],"stateMutability":"view"},{"type":"function","name":"setTokenAddr","inputs":[{"name":"_flap","type":"address","internalType":"address"},{"name":"_subToken","type":"address","internalType":"address"}],"outputs":[],"stateMutability":"nonpayable"},{"type":"function","name":"setTotalDailyOutput","inputs":[{"name":"_new","type":"uint256","internalType":"uint256"}],"outputs":[],"stateMutability":"nonpayable"},{"type":"function","name":"stake","inputs":[{"name":"_amount","type":"uint256","internalType":"uint256"}],"outputs":[],"stateMutability":"nonpayable"},{"type":"function","name":"subToken","inputs":[],"outputs":[{"name":"","type":"address","internalType":"address"}],"stateMutability":"view"},{"type":"function","name":"totalDailyOutput","inputs":[],"outputs":[{"name":"","type":"uint256","internalType":"uint256"}],"stateMutability":"view"},{"type":"function","name":"totalStaked","inputs":[],"outputs":[{"name":"","type":"uint256","internalType":"uint256"}],"stateMutability":"view"},{"type":"function","name":"transferOwnership","inputs":[{"name":"newOwner","type":"address","internalType":"address"}],"outputs":[],"stateMutability":"nonpayable"},{"type":"function","name":"unstake","inputs":[{"name":"_amount","type":"uint256","internalType":"uint256"}],"outputs":[],"stateMutability":"nonpayable"},{"type":"function","name":"upgradeToAndCall","inputs":[{"name":"newImplementation","type":"address","internalType":"address"},{"name":"data","type":"bytes","internalType":"bytes"}],"outputs":[],"stateMutability":"payable"},{"type":"function","name":"userInfo","inputs":[{"name":"","type":"address","internalType":"address"}],"outputs":[{"name":"stakingAmount","type":"uint256","internalType":"uint256"},{"name":"pending","type":"uint256","internalType":"uint256"},{"name":"debt","type":"uint256","internalType":"uint256"}],"stateMutability":"view"},{"type":"event","name":"Claimed","inputs":[{"name":"user","type":"address","indexed":true,"internalType":"address"},{"name":"amount","type":"uint256","indexed":false,"internalType":"uint256"}],"anonymous":false},{"type":"event","name":"Initialized","inputs":[{"name":"version","type":"uint64","indexed":false,"internalType":"uint64"}],"anonymous":false},{"type":"event","name":"OwnershipTransferred","inputs":[{"name":"previousOwner","type":"address","indexed":true,"internalType":"address"},{"name":"newOwner","type":"address","indexed":true,"internalType":"address"}],"anonymous":false},{"type":"event","name":"Staked","inputs":[{"name":"user","type":"address","indexed":true,"internalType":"address"},{"name":"amount","type":"uint256","indexed":false,"internalType":"uint256"}],"anonymous":false},{"type":"event","name":"TotalDailyOutputChanged","inputs":[{"name":"oldVal","type":"uint256","indexed":false,"internalType":"uint256"},{"name":"newVal","type":"uint256","indexed":false,"internalType":"uint256"}],"anonymous":false},{"type":"event","name":"Unstaked","inputs":[{"name":"user","type":"address","indexed":true,"internalType":"address"},{"name":"amount","type":"uint256","indexed":false,"internalType":"uint256"},{"name":"fee","type":"uint256","indexed":false,"internalType":"uint256"}],"anonymous":false},{"type":"event","name":"Upgraded","inputs":[{"name":"implementation","type":"address","indexed":true,"internalType":"address"}],"anonymous":false},{"type":"error","name":"AddressEmptyCode","inputs":[{"name":"target","type":"address","internalType":"address"}]},{"type":"error","name":"ERC1967InvalidImplementation","inputs":[{"name":"implementation","type":"address","internalType":"address"}]},{"type":"error","name":"ERC1967NonPayable","inputs":[]},{"type":"error","name":"FailedCall","inputs":[]},{"type":"error","name":"InvalidInitialization","inputs":[]},{"type":"error","name":"NotInitializing","inputs":[]},{"type":"error","name":"OwnableInvalidOwner","inputs":[{"name":"owner","type":"address","internalType":"address"}]},{"type":"error","name":"OwnableUnauthorizedAccount","inputs":[{"name":"account","type":"address","internalType":"address"}]},{"type":"error","name":"ReentrancyGuardReentrantCall","inputs":[]},{"type":"error","name":"UUPSUnauthorizedCallContext","inputs":[]},{"type":"error","name":"UUPSUnsupportedProxiableUUID","inputs":[{"name":"slot","type":"bytes32","internalType":"bytes32"}]}],"bytecode":{"object":"0x60a06040523073ffffffffffffffffffffffffffffffffffffffff1660809073ffffffffffffffffffffffffffffffffffffffff168152503480156041575f5ffd5b5060015f819055506080516127ee61006f5f395f818161152c01528181611581015261173b01526127ee5ff3fe60806040526004361061013f575f3560e01c8063846383e5116100b5578063a694fc3a1161006e578063a694fc3a146103e3578063ad3cb1cc1461040b578063db2e21bc14610435578063e9ffa9f41461044b578063f2fde38b14610475578063f40f0f521461049d5761013f565b8063846383e5146102e95780638da5cb5b146103115780638f10369a1461033b5780639231cf7414610365578063933beeab1461038f578063939d6237146103b95761013f565b80634e71d92d116101075780634e71d92d146102255780634f1ef2861461023b57806352d1902d14610257578063715018a6146102815780637f1d259b14610297578063817b1cd2146102bf5761013f565b806303fd2a45146101435780630e01198b1461016d5780631959a002146101975780632e17de78146101d5578063485cc955146101fd575b5f5ffd5b34801561014e575f5ffd5b506101576104d9565b6040516101649190611e5b565b60405180910390f35b348015610178575f5ffd5b506101816104df565b60405161018e9190611e5b565b60405180910390f35b3480156101a2575f5ffd5b506101bd60048036038101906101b89190611eaf565b610504565b6040516101cc93929190611ef2565b60405180910390f35b3480156101e0575f5ffd5b506101fb60048036038101906101f69190611f51565b61052a565b005b348015610208575f5ffd5b50610223600480360381019061021e9190611f7c565b61079b565b005b348015610230575f5ffd5b506102396109c3565b005b610255600480360381019061025091906120f6565b610b53565b005b348015610262575f5ffd5b5061026b610b72565b6040516102789190612168565b60405180910390f35b34801561028c575f5ffd5b50610295610ba3565b005b3480156102a2575f5ffd5b506102bd60048036038101906102b89190611f7c565b610bb6565b005b3480156102ca575f5ffd5b506102d3610c42565b6040516102e09190612181565b60405180910390f35b3480156102f4575f5ffd5b5061030f600480360381019061030a9190611f51565b610c48565b005b34801561031c575f5ffd5b50610325610c9d565b6040516103329190611e5b565b60405180910390f35b348015610346575f5ffd5b5061034f610cd2565b60405161035c9190612181565b60405180910390f35b348015610370575f5ffd5b50610379610ce9565b6040516103869190612181565b60405180910390f35b34801561039a575f5ffd5b506103a3610cef565b6040516103b09190612181565b60405180910390f35b3480156103c4575f5ffd5b506103cd610cf5565b6040516103da9190612181565b60405180910390f35b3480156103ee575f5ffd5b5061040960048036038101906104049190611f51565b610cfb565b005b348015610416575f5ffd5b5061041f610ed7565b60405161042c91906121fa565b60405180910390f35b348015610440575f5ffd5b50610449610f10565b005b348015610456575f5ffd5b5061045f6110ce565b60405161046c9190611e5b565b60405180910390f35b348015610480575f5ffd5b5061049b60048036038101906104969190611eaf565b6110f3565b005b3480156104a8575f5ffd5b506104c360048036038101906104be9190611eaf565b611177565b6040516104d09190612181565b60405180910390f35b61dead81565b60025f9054906101000a900473ffffffffffffffffffffffffffffffffffffffff1681565b6001602052805f5260405f205f91509050805f0154908060010154908060020154905083565b61053261127b565b5f8111610574576040517f08c379a000000000000000000000000000000000000000000000000000000000815260040161056b90612264565b60405180910390fd5b5f60015f3373ffffffffffffffffffffffffffffffffffffffff1673ffffffffffffffffffffffffffffffffffffffff1681526020019081526020015f20905081815f015410156105fa576040517f08c379a00000000000000000000000000000000000000000000000000000000081526004016105f1906122cc565b60405180910390fd5b6106026112bf565b5f670de0b6b3a7640000600554835f015461061d9190612317565b6106279190612385565b9050816002015481111561065f5781600201548161064591906123b5565b826001015f82825461065791906123e8565b925050819055505b5f6064600a8561066f9190612317565b6106799190612385565b905083835f015f82825461068d91906123b5565b925050819055508360075f8282546106a591906123b5565b92505081905550670de0b6b3a7640000600554845f01546106c69190612317565b6106d09190612385565b836002018190555061070660025f9054906101000a900473ffffffffffffffffffffffffffffffffffffffff1661dead83611349565b61073d60025f9054906101000a900473ffffffffffffffffffffffffffffffffffffffff1633838761073891906123b5565b611349565b3373ffffffffffffffffffffffffffffffffffffffff167f7fc4727e062e336010f2c282598ef5f14facb3de68cf8195c2f23e1454b2b74e858360405161078592919061241b565b60405180910390a2505050610798611479565b50565b5f6107a4611482565b90505f815f0160089054906101000a900460ff161590505f825f015f9054906101000a900467ffffffffffffffff1690505f5f8267ffffffffffffffff161480156107ec5750825b90505f60018367ffffffffffffffff1614801561081f57505f3073ffffffffffffffffffffffffffffffffffffffff163b145b90508115801561082d575080155b15610864576040517ff92ee8a900000000000000000000000000000000000000000000000000000000815260040160405180910390fd5b6001855f015f6101000a81548167ffffffffffffffff021916908367ffffffffffffffff16021790555083156108b1576001855f0160086101000a81548160ff0219169083151502179055505b6108c16108bc611495565b61149c565b6108c9611520565b8660025f6101000a81548173ffffffffffffffffffffffffffffffffffffffff021916908373ffffffffffffffffffffffffffffffffffffffff1602179055508560035f6101000a81548173ffffffffffffffffffffffffffffffffffffffff021916908373ffffffffffffffffffffffffffffffffffffffff160217905550681b1ae4d6e2ef5000006004819055504260068190555083156109ba575f855f0160086101000a81548160ff0219169083151502179055507fc7f505b2f371ae2175ee4913f4499e1f2633a7b5936321eed1cdaeb6115181d260016040516109b19190612497565b60405180910390a15b50505050505050565b6109cb61127b565b5f60015f3373ffffffffffffffffffffffffffffffffffffffff1673ffffffffffffffffffffffffffffffffffffffff1681526020019081526020015f209050610a136112bf565b5f670de0b6b3a7640000600554835f0154610a2e9190612317565b610a389190612385565b90508160020154811115610a7057816002015481610a5691906123b5565b826001015f828254610a6891906123e8565b925050819055505b8082600201819055505f826001015490505f8111610ac3576040517f08c379a0000000000000000000000000000000000000000000000000000000008152600401610aba906124fa565b60405180910390fd5b5f8360010181905550610af860035f9054906101000a900473ffffffffffffffffffffffffffffffffffffffff163383611349565b3373ffffffffffffffffffffffffffffffffffffffff167fd8138f8a3f377c5259ca548e70e4c2de94f129f5a11036a15b69513cba2b426a82604051610b3e9190612181565b60405180910390a2505050610b51611479565b565b610b5b61152a565b610b6482611610565b610b6e828261161b565b5050565b5f610b7b611739565b7f360894a13ba1a3210667c828492db98dca3e2076cc3735a920a3ca505d382bbc5f1b905090565b610bab6117c0565b610bb45f611847565b565b610bbe6117c0565b8160025f6101000a81548173ffffffffffffffffffffffffffffffffffffffff021916908373ffffffffffffffffffffffffffffffffffffffff1602179055508060035f6101000a81548173ffffffffffffffffffffffffffffffffffffffff021916908373ffffffffffffffffffffffffffffffffffffffff1602179055505050565b60075481565b610c506117c0565b7f4855ffb7897d1910d830d8f17ee72e2e179a7ff0d978c6f2ed178e1e5126c90e60045482604051610c8392919061241b565b60405180910390a1610c936112bf565b8060048190555050565b5f5f610ca7611918565b9050805f015f9054906101000a900473ffffffffffffffffffffffffffffffffffffffff1691505090565b5f62015180600454610ce49190612385565b905090565b60065481565b60045481565b60055481565b610d0361127b565b5f8111610d45576040517f08c379a0000000000000000000000000000000000000000000000000000000008152600401610d3c90612264565b60405180910390fd5b5f60015f3373ffffffffffffffffffffffffffffffffffffffff1673ffffffffffffffffffffffffffffffffffffffff1681526020019081526020015f209050610d8d6112bf565b5f670de0b6b3a7640000600554835f0154610da89190612317565b610db29190612385565b90505f5f90508260020154821115610df157826002015482610dd491906123b5565b905080836001015f828254610de991906123e8565b925050819055505b610e1e60025f9054906101000a900473ffffffffffffffffffffffffffffffffffffffff1633308761193f565b83835f015f828254610e3091906123e8565b925050819055508360075f828254610e4891906123e8565b92505081905550670de0b6b3a7640000600554845f0154610e699190612317565b610e739190612385565b83600201819055503373ffffffffffffffffffffffffffffffffffffffff167f9e71bc8eea02a63969f509818f2dafb9254532904319f9dbda79b67bd34a5f3d85604051610ec19190612181565b60405180910390a2505050610ed4611479565b50565b6040518060400160405280600581526020017f352e302e3000000000000000000000000000000000000000000000000000000081525081565b610f1861127b565b610f206117c0565b5f60025f9054906101000a900473ffffffffffffffffffffffffffffffffffffffff1673ffffffffffffffffffffffffffffffffffffffff166370a08231306040518263ffffffff1660e01b8152600401610f7b9190611e5b565b602060405180830381865afa158015610f96573d5f5f3e3d5ffd5b505050506040513d601f19601f82011682018060405250810190610fba919061252c565b90505f60035f9054906101000a900473ffffffffffffffffffffffffffffffffffffffff1673ffffffffffffffffffffffffffffffffffffffff166370a08231306040518263ffffffff1660e01b81526004016110179190611e5b565b602060405180830381865afa158015611032573d5f5f3e3d5ffd5b505050506040513d601f19601f82011682018060405250810190611056919061252c565b90505f82111561108d5761108c60025f9054906101000a900473ffffffffffffffffffffffffffffffffffffffff163384611349565b5b5f8111156110c2576110c160035f9054906101000a900473ffffffffffffffffffffffffffffffffffffffff163383611349565b5b50506110cc611479565b565b60035f9054906101000a900473ffffffffffffffffffffffffffffffffffffffff1681565b6110fb6117c0565b5f73ffffffffffffffffffffffffffffffffffffffff168173ffffffffffffffffffffffffffffffffffffffff160361116b575f6040517f1e4fbdf70000000000000000000000000000000000000000000000000000000081526004016111629190611e5b565b60405180910390fd5b61117481611847565b50565b5f5f60015f8473ffffffffffffffffffffffffffffffffffffffff1673ffffffffffffffffffffffffffffffffffffffff1681526020019081526020015f2090505f6005549050600654421180156111d057505f600754115b1561122d575f600654426111e491906123b5565b90505f6111ef610cd2565b826111fa9190612317565b9050600754670de0b6b3a7640000826112139190612317565b61121d9190612385565b8361122891906123e8565b925050505b5f670de0b6b3a764000082845f01546112469190612317565b6112509190612385565b905082600201548161126291906123b5565b836001015461127191906123e8565b9350505050919050565b60025f54036112b6576040517f3ee5aeb500000000000000000000000000000000000000000000000000000000815260040160405180910390fd5b60025f81905550565b600654421115611347575f600754036112de5742600681905550611347565b5f600654426112ed91906123b5565b90505f6112f8610cd2565b826113039190612317565b9050600754670de0b6b3a76400008261131c9190612317565b6113269190612385565b60055f82825461133691906123e8565b925050819055504260068190555050505b565b5f5f8473ffffffffffffffffffffffffffffffffffffffff1663a9059cbb858560405160240161137a929190612557565b6040516020818303038152906040529060e01b6020820180517bffffffffffffffffffffffffffffffffffffffffffffffffffffffff83818316178352505050506040516113c891906125c2565b5f604051808303815f865af19150503d805f8114611401576040519150601f19603f3d011682016040523d82523d5f602084013e611406565b606091505b509150915081801561143357505f81511480611432575080806020019051810190611431919061260d565b5b5b611472576040517f08c379a000000000000000000000000000000000000000000000000000000000815260040161146990612682565b60405180910390fd5b5050505050565b60015f81905550565b5f5f61148c611a72565b90508091505090565b5f33905090565b6114a4611a9b565b5f73ffffffffffffffffffffffffffffffffffffffff168173ffffffffffffffffffffffffffffffffffffffff1603611514575f6040517f1e4fbdf700000000000000000000000000000000000000000000000000000000815260040161150b9190611e5b565b60405180910390fd5b61151d81611847565b50565b611528611a9b565b565b7f000000000000000000000000000000000000000000000000000000000000000073ffffffffffffffffffffffffffffffffffffffff163073ffffffffffffffffffffffffffffffffffffffff1614806115d757507f000000000000000000000000000000000000000000000000000000000000000073ffffffffffffffffffffffffffffffffffffffff166115be611adb565b73ffffffffffffffffffffffffffffffffffffffff1614155b1561160e576040517fe07c8dba00000000000000000000000000000000000000000000000000000000815260040160405180910390fd5b565b6116186117c0565b50565b8173ffffffffffffffffffffffffffffffffffffffff166352d1902d6040518163ffffffff1660e01b8152600401602060405180830381865afa92505050801561168357506040513d601f19601f8201168201806040525081019061168091906126ca565b60015b6116c457816040517f4c9c8ce30000000000000000000000000000000000000000000000000000000081526004016116bb9190611e5b565b60405180910390fd5b7f360894a13ba1a3210667c828492db98dca3e2076cc3735a920a3ca505d382bbc5f1b811461172a57806040517faa1d49a40000000000000000000000000000000000000000000000000000000081526004016117219190612168565b60405180910390fd5b6117348383611b2e565b505050565b7f000000000000000000000000000000000000000000000000000000000000000073ffffffffffffffffffffffffffffffffffffffff163073ffffffffffffffffffffffffffffffffffffffff16146117be576040517fe07c8dba00000000000000000000000000000000000000000000000000000000815260040160405180910390fd5b565b6117c8611495565b73ffffffffffffffffffffffffffffffffffffffff166117e6610c9d565b73ffffffffffffffffffffffffffffffffffffffff161461184557611809611495565b6040517f118cdaa700000000000000000000000000000000000000000000000000000000815260040161183c9190611e5b565b60405180910390fd5b565b5f611850611918565b90505f815f015f9054906101000a900473ffffffffffffffffffffffffffffffffffffffff16905082825f015f6101000a81548173ffffffffffffffffffffffffffffffffffffffff021916908373ffffffffffffffffffffffffffffffffffffffff1602179055508273ffffffffffffffffffffffffffffffffffffffff168173ffffffffffffffffffffffffffffffffffffffff167f8be0079c531659141344cd1fd0a4f28419497f9722a3daafe3b4186f6b6457e060405160405180910390a3505050565b5f7f9016d09d72d40fdae2fd8ceac6b6234c7706214fd39c1cd1e609a0528c199300905090565b5f5f8573ffffffffffffffffffffffffffffffffffffffff166323b872dd868686604051602401611972939291906126f5565b6040516020818303038152906040529060e01b6020820180517bffffffffffffffffffffffffffffffffffffffffffffffffffffffff83818316178352505050506040516119c091906125c2565b5f604051808303815f865af19150503d805f81146119f9576040519150601f19603f3d011682016040523d82523d5f602084013e6119fe565b606091505b5091509150818015611a2b57505f81511480611a2a575080806020019051810190611a29919061260d565b5b5b611a6a576040517f08c379a0000000000000000000000000000000000000000000000000000000008152600401611a619061279a565b60405180910390fd5b505050505050565b5f7ff0c57e16840df040f15088dc2f81fe391c3923bec73e23a9662efc9c229c6a005f1b905090565b611aa3611ba0565b611ad9576040517fd7e6bcf800000000000000000000000000000000000000000000000000000000815260040160405180910390fd5b565b5f611b077f360894a13ba1a3210667c828492db98dca3e2076cc3735a920a3ca505d382bbc5f1b611bbe565b5f015f9054906101000a900473ffffffffffffffffffffffffffffffffffffffff16905090565b611b3782611bc7565b8173ffffffffffffffffffffffffffffffffffffffff167fbc7cd75a20ee27fd9adebab32041f755214dbc6bffa90cc0225b39da2e5c2d3b60405160405180910390a25f81511115611b9357611b8d8282611c90565b50611b9c565b611b9b611d10565b5b5050565b5f611ba9611482565b5f0160089054906101000a900460ff16905090565b5f819050919050565b5f8173ffffffffffffffffffffffffffffffffffffffff163b03611c2257806040517f4c9c8ce3000000000000000000000000000000000000000000000000000000008152600401611c199190611e5b565b60405180910390fd5b80611c4e7f360894a13ba1a3210667c828492db98dca3e2076cc3735a920a3ca505d382bbc5f1b611bbe565b5f015f6101000a81548173ffffffffffffffffffffffffffffffffffffffff021916908373ffffffffffffffffffffffffffffffffffffffff16021790555050565b60605f5f8473ffffffffffffffffffffffffffffffffffffffff1684604051611cb991906125c2565b5f60405180830381855af49150503d805f8114611cf1576040519150601f19603f3d011682016040523d82523d5f602084013e611cf6565b606091505b5091509150611d06858383611d4c565b9250505092915050565b5f341115611d4a576040517fb398979f00000000000000000000000000000000000000000000000000000000815260040160405180910390fd5b565b606082611d6157611d5c82611dd9565b611dd1565b5f8251148015611d8757505f8473ffffffffffffffffffffffffffffffffffffffff163b145b15611dc957836040517f9996b315000000000000000000000000000000000000000000000000000000008152600401611dc09190611e5b565b60405180910390fd5b819050611dd2565b5b9392505050565b5f81511115611dea57805160208201fd5b6040517fd6bda27500000000000000000000000000000000000000000000000000000000815260040160405180910390fd5b5f73ffffffffffffffffffffffffffffffffffffffff82169050919050565b5f611e4582611e1c565b9050919050565b611e5581611e3b565b82525050565b5f602082019050611e6e5f830184611e4c565b92915050565b5f604051905090565b5f5ffd5b5f5ffd5b611e8e81611e3b565b8114611e98575f5ffd5b50565b5f81359050611ea981611e85565b92915050565b5f60208284031215611ec457611ec3611e7d565b5b5f611ed184828501611e9b565b91505092915050565b5f819050919050565b611eec81611eda565b82525050565b5f606082019050611f055f830186611ee3565b611f126020830185611ee3565b611f1f6040830184611ee3565b949350505050565b611f3081611eda565b8114611f3a575f5ffd5b50565b5f81359050611f4b81611f27565b92915050565b5f60208284031215611f6657611f65611e7d565b5b5f611f7384828501611f3d565b91505092915050565b5f5f60408385031215611f9257611f91611e7d565b5b5f611f9f85828601611e9b565b9250506020611fb085828601611e9b565b9150509250929050565b5f5ffd5b5f5ffd5b5f601f19601f8301169050919050565b7f4e487b71000000000000000000000000000000000000000000000000000000005f52604160045260245ffd5b61200882611fc2565b810181811067ffffffffffffffff8211171561202757612026611fd2565b5b80604052505050565b5f612039611e74565b90506120458282611fff565b919050565b5f67ffffffffffffffff82111561206457612063611fd2565b5b61206d82611fc2565b9050602081019050919050565b828183375f83830152505050565b5f61209a6120958461204a565b612030565b9050828152602081018484840111156120b6576120b5611fbe565b5b6120c184828561207a565b509392505050565b5f82601f8301126120dd576120dc611fba565b5b81356120ed848260208601612088565b91505092915050565b5f5f6040838503121561210c5761210b611e7d565b5b5f61211985828601611e9b565b925050602083013567ffffffffffffffff81111561213a57612139611e81565b5b612146858286016120c9565b9150509250929050565b5f819050919050565b61216281612150565b82525050565b5f60208201905061217b5f830184612159565b92915050565b5f6020820190506121945f830184611ee3565b92915050565b5f81519050919050565b5f82825260208201905092915050565b8281835e5f83830152505050565b5f6121cc8261219a565b6121d681856121a4565b93506121e68185602086016121b4565b6121ef81611fc2565b840191505092915050565b5f6020820190508181035f83015261221281846121c2565b905092915050565b7f7a65726f20616d6f756e740000000000000000000000000000000000000000005f82015250565b5f61224e600b836121a4565b91506122598261221a565b602082019050919050565b5f6020820190508181035f83015261227b81612242565b9050919050565b7f696e73756666696369656e74207374616b6500000000000000000000000000005f82015250565b5f6122b66012836121a4565b91506122c182612282565b602082019050919050565b5f6020820190508181035f8301526122e3816122aa565b9050919050565b7f4e487b71000000000000000000000000000000000000000000000000000000005f52601160045260245ffd5b5f61232182611eda565b915061232c83611eda565b925082820261233a81611eda565b91508282048414831517612351576123506122ea565b5b5092915050565b7f4e487b71000000000000000000000000000000000000000000000000000000005f52601260045260245ffd5b5f61238f82611eda565b915061239a83611eda565b9250826123aa576123a9612358565b5b828204905092915050565b5f6123bf82611eda565b91506123ca83611eda565b92508282039050818111156123e2576123e16122ea565b5b92915050565b5f6123f282611eda565b91506123fd83611eda565b9250828201905080821115612415576124146122ea565b5b92915050565b5f60408201905061242e5f830185611ee3565b61243b6020830184611ee3565b9392505050565b5f819050919050565b5f67ffffffffffffffff82169050919050565b5f819050919050565b5f61248161247c61247784612442565b61245e565b61244b565b9050919050565b61249181612467565b82525050565b5f6020820190506124aa5f830184612488565b92915050565b7f6e6f2072657761726473000000000000000000000000000000000000000000005f82015250565b5f6124e4600a836121a4565b91506124ef826124b0565b602082019050919050565b5f6020820190508181035f830152612511816124d8565b9050919050565b5f8151905061252681611f27565b92915050565b5f6020828403121561254157612540611e7d565b5b5f61254e84828501612518565b91505092915050565b5f60408201905061256a5f830185611e4c565b6125776020830184611ee3565b9392505050565b5f81519050919050565b5f81905092915050565b5f61259c8261257e565b6125a68185612588565b93506125b68185602086016121b4565b80840191505092915050565b5f6125cd8284612592565b915081905092915050565b5f8115159050919050565b6125ec816125d8565b81146125f6575f5ffd5b50565b5f81519050612607816125e3565b92915050565b5f6020828403121561262257612621611e7d565b5b5f61262f848285016125f9565b91505092915050565b7f5472616e7366657248656c7065723a205452414e534645525f4641494c4544005f82015250565b5f61266c601f836121a4565b915061267782612638565b602082019050919050565b5f6020820190508181035f83015261269981612660565b9050919050565b6126a981612150565b81146126b3575f5ffd5b50565b5f815190506126c4816126a0565b92915050565b5f602082840312156126df576126de611e7d565b5b5f6126ec848285016126b6565b91505092915050565b5f6060820190506127085f830186611e4c565b6127156020830185611e4c565b6127226040830184611ee3565b949350505050565b7f5472616e7366657248656c7065723a205452414e534645525f46524f4d5f46415f8201527f494c454400000000000000000000000000000000000000000000000000000000602082015250565b5f6127846024836121a4565b915061278f8261272a565b604082019050919050565b5f6020820190508181035f8301526127b181612778565b905091905056fea26469706673582212209ddeec70508070c637d12e0652a11eba89caa2e7be1698bb5ebf8674ebfc021c64736f6c634300081e0033","linkReferences":{}},"methodIdentifiers":{"DEAD()":"03fd2a45","UPGRADE_INTERFACE_VERSION()":"ad3cb1cc","accRewardPerShare()":"939d6237","claim()":"4e71d92d","emergencyWithdraw()":"db2e21bc","flap()":"0e01198b","initialize(address,address)":"485cc955","lastRewardTime()":"9231cf74","owner()":"8da5cb5b","pendingReward(address)":"f40f0f52","proxiableUUID()":"52d1902d","renounceOwnership()":"715018a6","rewardPerSecond()":"8f10369a","setTokenAddr(address,address)":"7f1d259b","setTotalDailyOutput(uint256)":"846383e5","stake(uint256)":"a694fc3a","subToken()":"e9ffa9f4","totalDailyOutput()":"933beeab","totalStaked()":"817b1cd2","transferOwnership(address)":"f2fde38b","unstake(uint256)":"2e17de78","upgradeToAndCall(address,bytes)":"4f1ef286","userInfo(address)":"1959a002"},"id":36}