{"abi":[{"type":"receive","stateMutability":"payable"},{"type":"function","name":"FIXED_AMOUNT","inputs":[],"outputs":[{"name":"","type":"uint256","internalType":"uint256"}],"stateMutability":"view"},{"type":"function","name":"MAX_REFERRAL_DEPTH","inputs":[],"outputs":[{"name":"","type":"uint256","internalType":"uint256"}],"stateMutability":"view"},{"type":"function","name":"UPGRADE_INTERFACE_VERSION","inputs":[],"outputs":[{"name":"","type":"string","internalType":"string"}],"stateMutability":"view"},{"type":"function","name":"USDT","inputs":[],"outputs":[{"name":"","type":"address","internalType":"address"}],"stateMutability":"view"},{"type":"function","name":"VENUS","inputs":[],"outputs":[{"name":"","type":"address","internalType":"address"}],"stateMutability":"view"},{"type":"function","name":"directReferrals","inputs":[{"name":"","type":"address","internalType":"address"},{"name":"","type":"uint256","internalType":"uint256"}],"outputs":[{"name":"","type":"address","internalType":"address"}],"stateMutability":"view"},{"type":"function","name":"emergencyWithdraw","inputs":[{"name":"token","type":"address","internalType":"address"},{"name":"amount","type":"uint256","internalType":"uint256"},{"name":"to","type":"address","internalType":"address"}],"outputs":[],"stateMutability":"nonpayable"},{"type":"function","name":"getAddrCollection","inputs":[],"outputs":[{"name":"","type":"address[]","internalType":"address[]"}],"stateMutability":"view"},{"type":"function","name":"getAddrCollectionLength","inputs":[],"outputs":[{"name":"","type":"uint256","internalType":"uint256"}],"stateMutability":"view"},{"type":"function","name":"getDirectReferrals","inputs":[{"name":"user","type":"address","internalType":"address"}],"outputs":[{"name":"","type":"address[]","internalType":"address[]"}],"stateMutability":"view"},{"type":"function","name":"getDirectReferralsInfo","inputs":[{"name":"user","type":"address","internalType":"address"}],"outputs":[{"name":"","type":"tuple[]","internalType":"struct Recharge.DirectReferralsInfo[]","components":[{"name":"referral","type":"address","internalType":"address"},{"name":"performance","type":"uint256","internalType":"uint256"}]}],"stateMutability":"view"},{"type":"function","name":"getUserInfo","inputs":[{"name":"user","type":"address","internalType":"address"}],"outputs":[{"name":"recommender","type":"address","internalType":"address"},{"name":"staking","type":"uint256","internalType":"uint256"},{"name":"performance","type":"uint256","internalType":"uint256"},{"name":"referralNum","type":"uint256","internalType":"uint256"},{"name":"referrals","type":"address[]","internalType":"address[]"}],"stateMutability":"view"},{"type":"function","name":"initialCode","inputs":[],"outputs":[{"name":"","type":"address","internalType":"address"}],"stateMutability":"view"},{"type":"function","name":"initialize","inputs":[{"name":"_recipient","type":"address","internalType":"address"},{"name":"_initialCode","type":"address","internalType":"address"}],"outputs":[],"stateMutability":"nonpayable"},{"type":"function","name":"isAddCollection","inputs":[{"name":"","type":"address","internalType":"address"}],"outputs":[{"name":"","type":"bool","internalType":"bool"}],"stateMutability":"view"},{"type":"function","name":"owner","inputs":[],"outputs":[{"name":"","type":"address","internalType":"address"}],"stateMutability":"view"},{"type":"function","name":"pause","inputs":[],"outputs":[{"name":"","type":"bool","internalType":"bool"}],"stateMutability":"view"},{"type":"function","name":"proxiableUUID","inputs":[],"outputs":[{"name":"","type":"bytes32","internalType":"bytes32"}],"stateMutability":"view"},{"type":"function","name":"recipient","inputs":[],"outputs":[{"name":"","type":"address","internalType":"address"}],"stateMutability":"view"},{"type":"function","name":"referral","inputs":[{"name":"recommender","type":"address","internalType":"address"}],"outputs":[],"stateMutability":"nonpayable"},{"type":"function","name":"renounceOwnership","inputs":[],"outputs":[],"stateMutability":"nonpayable"},{"type":"function","name":"setPause","inputs":[{"name":"isPause","type":"bool","internalType":"bool"}],"outputs":[],"stateMutability":"nonpayable"},{"type":"function","name":"setRecipient","inputs":[{"name":"_recipient","type":"address","internalType":"address"}],"outputs":[],"stateMutability":"nonpayable"},{"type":"function","name":"singleRecharge","inputs":[],"outputs":[],"stateMutability":"nonpayable"},{"type":"function","name":"totalPerformance","inputs":[],"outputs":[{"name":"","type":"uint256","internalType":"uint256"}],"stateMutability":"view"},{"type":"function","name":"transferOwnership","inputs":[{"name":"newOwner","type":"address","internalType":"address"}],"outputs":[],"stateMutability":"nonpayable"},{"type":"function","name":"upgradeToAndCall","inputs":[{"name":"newImplementation","type":"address","internalType":"address"},{"name":"data","type":"bytes","internalType":"bytes"}],"outputs":[],"stateMutability":"payable"},{"type":"function","name":"userInfo","inputs":[{"name":"","type":"address","internalType":"address"}],"outputs":[{"name":"recommender","type":"address","internalType":"address"},{"name":"staking","type":"uint256","internalType":"uint256"},{"name":"performance","type":"uint256","internalType":"uint256"},{"name":"referralNum","type":"uint256","internalType":"uint256"}],"stateMutability":"view"},{"type":"function","name":"validInvitationCode","inputs":[{"name":"user","type":"address","internalType":"address"}],"outputs":[{"name":"","type":"bool","internalType":"bool"}],"stateMutability":"view"},{"type":"event","name":"Initialized","inputs":[{"name":"version","type":"uint64","indexed":false,"internalType":"uint64"}],"anonymous":false},{"type":"event","name":"MultiRecharge","inputs":[{"name":"user","type":"address","indexed":false,"internalType":"address"},{"name":"token0","type":"address","indexed":false,"internalType":"address"},{"name":"amount0","type":"uint256","indexed":false,"internalType":"uint256"},{"name":"token1","type":"address","indexed":false,"internalType":"address"},{"name":"amount1","type":"uint256","indexed":false,"internalType":"uint256"},{"name":"remark","type":"string","indexed":false,"internalType":"string"}],"anonymous":false},{"type":"event","name":"OwnershipTransferred","inputs":[{"name":"previousOwner","type":"address","indexed":true,"internalType":"address"},{"name":"newOwner","type":"address","indexed":true,"internalType":"address"}],"anonymous":false},{"type":"event","name":"Referral","inputs":[{"name":"recommender","type":"address","indexed":false,"internalType":"address"},{"name":"referred","type":"address","indexed":false,"internalType":"address"}],"anonymous":false},{"type":"event","name":"Upgraded","inputs":[{"name":"implementation","type":"address","indexed":true,"internalType":"address"}],"anonymous":false},{"type":"error","name":"AddressEmptyCode","inputs":[{"name":"target","type":"address","internalType":"address"}]},{"type":"error","name":"ERC1967InvalidImplementation","inputs":[{"name":"implementation","type":"address","internalType":"address"}]},{"type":"error","name":"ERC1967NonPayable","inputs":[]},{"type":"error","name":"FailedCall","inputs":[]},{"type":"error","name":"InvalidInitialization","inputs":[]},{"type":"error","name":"NotInitializing","inputs":[]},{"type":"error","name":"OwnableInvalidOwner","inputs":[{"name":"owner","type":"address","internalType":"address"}]},{"type":"error","name":"OwnableUnauthorizedAccount","inputs":[{"name":"account","type":"address","internalType":"address"}]},{"type":"error","name":"ReentrancyGuardReentrantCall","inputs":[]},{"type":"error","name":"UUPSUnauthorizedCallContext","inputs":[]},{"type":"error","name":"UUPSUnsupportedProxiableUUID","inputs":[{"name":"slot","type":"bytes32","internalType":"bytes32"}]}],"bytecode":{"object":"0x60a06040523073ffffffffffffffffffffffffffffffffffffffff1660809073ffffffffffffffffffffffffffffffffffffffff168152503480156041575f5ffd5b5060015f81905550608051613d0261006f5f395f8181611dba01528181611e0f0152611fc90152613d025ff3fe6080604052600436106101c5575f3560e01c806366d003ac116100f6578063a2b0332b11610094578063d2c8e0e511610063578063d2c8e0e514610644578063ec18ac7914610680578063eccf1694146106bc578063f2fde38b146106e657610205565b8063a2b0332b1461059e578063ad3cb1cc146105c8578063bedb86fb146105f2578063c54e44eb1461061a57610205565b80637247959a116100d05780637247959a146104f85780638456cb591461052057806389e59ea01461054a5780638da5cb5b1461057457610205565b806366d003ac146104a2578063689d2a82146104cc578063715018a6146104e257610205565b80633c4e9d74116101635780634f1ef2861161013d5780634f1ef286146103f457806352d1902d14610410578063551512de1461043a5780636386c1c71461046257610205565b80633c4e9d7414610366578063485cc955146103a25780634d38857c146103ca57610205565b80631959a0021161019f5780631959a002146102995780631a78ccc1146102d857806339fe3b99146103025780633bbed4a01461033e57610205565b806305ad39351461020957806306876dbe1461024557806310baf0891461026f57610205565b36610205576040517f08c379a00000000000000000000000000000000000000000000000000000000081526004016101fc90612cf8565b60405180910390fd5b5f5ffd5b348015610214575f5ffd5b5061022f600480360381019061022a9190612db4565b61070e565b60405161023c9190612e01565b60405180910390f35b348015610250575f5ffd5b50610259610756565b6040516102669190612e29565b60405180910390f35b34801561027a575f5ffd5b5061028361075c565b6040516102909190612e01565b60405180910390f35b3480156102a4575f5ffd5b506102bf60048036038101906102ba9190612e42565b610781565b6040516102cf9493929190612e6d565b60405180910390f35b3480156102e3575f5ffd5b506102ec6107cc565b6040516102f99190612e01565b60405180910390f35b34801561030d575f5ffd5b5061032860048036038101906103239190612e42565b6107e4565b6040516103359190612eca565b60405180910390f35b348015610349575f5ffd5b50610364600480360381019061035f9190612e42565b610801565b005b348015610371575f5ffd5b5061038c60048036038101906103879190612e42565b6108ba565b6040516103999190612eca565b60405180910390f35b3480156103ad575f5ffd5b506103c860048036038101906103c39190612ee3565b6109ae565b005b3480156103d5575f5ffd5b506103de610bb7565b6040516103eb9190612e29565b60405180910390f35b61040e6004803603810190610409919061305d565b610bc3565b005b34801561041b575f5ffd5b50610424610be2565b60405161043191906130cf565b60405180910390f35b348015610445575f5ffd5b50610460600480360381019061045b91906130e8565b610c13565b005b34801561046d575f5ffd5b5061048860048036038101906104839190612e42565b610c2b565b6040516104999594939291906131ef565b60405180910390f35b3480156104ad575f5ffd5b506104b6610dd9565b6040516104c39190612e01565b60405180910390f35b3480156104d7575f5ffd5b506104e0610dfe565b005b3480156104ed575f5ffd5b506104f66112e4565b005b348015610503575f5ffd5b5061051e60048036038101906105199190612e42565b6112f7565b005b34801561052b575f5ffd5b50610534611870565b6040516105419190612eca565b60405180910390f35b348015610555575f5ffd5b5061055e611882565b60405161056b9190612e29565b60405180910390f35b34801561057f575f5ffd5b50610588611888565b6040516105959190612e01565b60405180910390f35b3480156105a9575f5ffd5b506105b26118bd565b6040516105bf9190613247565b60405180910390f35b3480156105d3575f5ffd5b506105dc611948565b6040516105e991906132b7565b60405180910390f35b3480156105fd575f5ffd5b5061061860048036038101906106139190613301565b611981565b005b348015610625575f5ffd5b5061062e6119a5565b60405161063b9190612e01565b60405180910390f35b34801561064f575f5ffd5b5061066a60048036038101906106659190612e42565b6119bd565b6040516106779190613247565b60405180910390f35b34801561068b575f5ffd5b506106a660048036038101906106a19190612e42565b611a85565b6040516106b39190613410565b60405180910390f35b3480156106c7575f5ffd5b506106d0611c73565b6040516106dd9190612e29565b60405180910390f35b3480156106f1575f5ffd5b5061070c60048036038101906107079190612e42565b611c7f565b005b6004602052815f5260405f208181548110610727575f80fd5b905f5260205f20015f915091509054906101000a900473ffffffffffffffffffffffffffffffffffffffff1681565b60055481565b60025f9054906101000a900473ffffffffffffffffffffffffffffffffffffffff1681565b6003602052805f5260405f205f91509050805f015f9054906101000a900473ffffffffffffffffffffffffffffffffffffffff16908060010154908060020154908060030154905084565b73fd5840cd36d94d7229439859c0112a4185bc025581565b6007602052805f5260405f205f915054906101000a900460ff1681565b610809611d03565b5f73ffffffffffffffffffffffffffffffffffffffff168173ffffffffffffffffffffffffffffffffffffffff1603610877576040517f08c379a000000000000000000000000000000000000000000000000000000000815260040161086e9061347a565b60405180910390fd5b8060015f6101000a81548173ffffffffffffffffffffffffffffffffffffffff021916908373ffffffffffffffffffffffffffffffffffffffff16021790555050565b5f60025f9054906101000a900473ffffffffffffffffffffffffffffffffffffffff1673ffffffffffffffffffffffffffffffffffffffff168273ffffffffffffffffffffffffffffffffffffffff160361091857600190506109a9565b5f73ffffffffffffffffffffffffffffffffffffffff1660035f8473ffffffffffffffffffffffffffffffffffffffff1673ffffffffffffffffffffffffffffffffffffffff1681526020019081526020015f205f015f9054906101000a900473ffffffffffffffffffffffffffffffffffffffff1673ffffffffffffffffffffffffffffffffffffffff16141590505b919050565b5f6109b7611d8a565b90505f815f0160089054906101000a900460ff161590505f825f015f9054906101000a900467ffffffffffffffff1690505f5f8267ffffffffffffffff161480156109ff5750825b90505f60018367ffffffffffffffff16148015610a3257505f3073ffffffffffffffffffffffffffffffffffffffff163b145b905081158015610a40575080155b15610a77576040517ff92ee8a900000000000000000000000000000000000000000000000000000000815260040160405180910390fd5b6001855f015f6101000a81548167ffffffffffffffff021916908367ffffffffffffffff1602179055508315610ac4576001855f0160086101000a81548160ff0219169083151502179055505b610ad4610acf611d9d565b611da4565b8660015f6101000a81548173ffffffffffffffffffffffffffffffffffffffff021916908373ffffffffffffffffffffffffffffffffffffffff1602179055508560025f6101000a81548173ffffffffffffffffffffffffffffffffffffffff021916908373ffffffffffffffffffffffffffffffffffffffff1602179055508315610bae575f855f0160086101000a81548160ff0219169083151502179055507fc7f505b2f371ae2175ee4913f4499e1f2633a7b5936321eed1cdaeb6115181d26001604051610ba591906134ed565b60405180910390a15b50505050505050565b5f600680549050905090565b610bcb611db8565b610bd482611e9e565b610bde8282611ea9565b5050565b5f610beb611fc7565b7f360894a13ba1a3210667c828492db98dca3e2076cc3735a920a3ca505d382bbc5f1b905090565b610c1b611d03565b610c2683828461204e565b505050565b5f5f5f5f60605f60035f8873ffffffffffffffffffffffffffffffffffffffff1673ffffffffffffffffffffffffffffffffffffffff1681526020019081526020015f206040518060800160405290815f82015f9054906101000a900473ffffffffffffffffffffffffffffffffffffffff1673ffffffffffffffffffffffffffffffffffffffff1673ffffffffffffffffffffffffffffffffffffffff168152602001600182015481526020016002820154815260200160038201548152505090505f60045f8973ffffffffffffffffffffffffffffffffffffffff1673ffffffffffffffffffffffffffffffffffffffff1681526020019081526020015f20805480602002602001604051908101604052809291908181526020018280548015610da957602002820191905f5260205f20905b815f9054906101000a900473ffffffffffffffffffffffffffffffffffffffff1673ffffffffffffffffffffffffffffffffffffffff1681526020019060010190808311610d60575b50505050509050815f01518260200151836040015184606001518496509650965096509650505091939590929450565b60015f9054906101000a900473ffffffffffffffffffffffffffffffffffffffff1681565b610e0661217e565b60085f9054906101000a900460ff1615610e55576040517f08c379a0000000000000000000000000000000000000000000000000000000008152600401610e4c90613550565b60405180910390fd5b5f73ffffffffffffffffffffffffffffffffffffffff1660035f3373ffffffffffffffffffffffffffffffffffffffff1673ffffffffffffffffffffffffffffffffffffffff1681526020019081526020015f205f015f9054906101000a900473ffffffffffffffffffffffffffffffffffffffff1673ffffffffffffffffffffffffffffffffffffffff1603610f21576040517f08c379a0000000000000000000000000000000000000000000000000000000008152600401610f18906135de565b60405180910390fd5b610f497355d398326f99059ff775485246999027b3197955333067016345785d8a00006121c2565b610f7c7355d398326f99059ff775485246999027b319795573fd5840cd36d94d7229439859c0112a4185bc02555f6122f5565b610fb77355d398326f99059ff775485246999027b319795573fd5840cd36d94d7229439859c0112a4185bc025567016345785d8a00006122f5565b5f73fd5840cd36d94d7229439859c0112a4185bc025573ffffffffffffffffffffffffffffffffffffffff1663a0712d6867016345785d8a00006040518263ffffffff1660e01b815260040161100d9190612e29565b6020604051808303815f875af1158015611029573d5f5f3e3d5ffd5b505050506040513d601f19601f8201168201806040525081019061104d9190613610565b1461108d576040517f08c379a000000000000000000000000000000000000000000000000000000000815260040161108490613685565b60405180910390fd5b5f73fd5840cd36d94d7229439859c0112a4185bc025573ffffffffffffffffffffffffffffffffffffffff166370a08231306040518263ffffffff1660e01b81526004016110db9190612e01565b602060405180830381865afa1580156110f6573d5f5f3e3d5ffd5b505050506040513d601f19601f8201168201806040525081019061111a9190613610565b905061115c73fd5840cd36d94d7229439859c0112a4185bc025560015f9054906101000a900473ffffffffffffffffffffffffffffffffffffffff168361204e565b67016345785d8a000060035f3373ffffffffffffffffffffffffffffffffffffffff1673ffffffffffffffffffffffffffffffffffffffff1681526020019081526020015f206001015f8282546111b391906136d0565b9250508190555067016345785d8a000060055f8282546111d391906136d0565b925050819055505f73ffffffffffffffffffffffffffffffffffffffff1660035f3373ffffffffffffffffffffffffffffffffffffffff1673ffffffffffffffffffffffffffffffffffffffff1681526020019081526020015f205f015f9054906101000a900473ffffffffffffffffffffffffffffffffffffffff1673ffffffffffffffffffffffffffffffffffffffff161461127e5761127d3367016345785d8a0000612425565b5b7f92bfe9b63523d7c8baff8387323dd4c1c8ccd48705d9c91e19160ebcabb053b8337355d398326f99059ff775485246999027b319795567016345785d8a00005f5f6040516112d195949392919061375f565b60405180910390a1506112e26125b0565b565b6112ec611d03565b6112f55f6125b9565b565b60085f9054906101000a900460ff1615611346576040517f08c379a000000000000000000000000000000000000000000000000000000000815260040161133d90613550565b60405180910390fd5b5f73ffffffffffffffffffffffffffffffffffffffff168173ffffffffffffffffffffffffffffffffffffffff16036113b4576040517f08c379a00000000000000000000000000000000000000000000000000000000081526004016113ab9061380d565b60405180910390fd5b3373ffffffffffffffffffffffffffffffffffffffff168173ffffffffffffffffffffffffffffffffffffffff1603611422576040517f08c379a000000000000000000000000000000000000000000000000000000000815260040161141990613875565b60405180910390fd5b60025f9054906101000a900473ffffffffffffffffffffffffffffffffffffffff1673ffffffffffffffffffffffffffffffffffffffff168173ffffffffffffffffffffffffffffffffffffffff1614611543575f73ffffffffffffffffffffffffffffffffffffffff1660035f8373ffffffffffffffffffffffffffffffffffffffff1673ffffffffffffffffffffffffffffffffffffffff1681526020019081526020015f205f015f9054906101000a900473ffffffffffffffffffffffffffffffffffffffff1673ffffffffffffffffffffffffffffffffffffffff1603611542576040517f08c379a000000000000000000000000000000000000000000000000000000000815260040161153990613903565b60405180910390fd5b5b5f73ffffffffffffffffffffffffffffffffffffffff1660035f3373ffffffffffffffffffffffffffffffffffffffff1673ffffffffffffffffffffffffffffffffffffffff1681526020019081526020015f205f015f9054906101000a900473ffffffffffffffffffffffffffffffffffffffff1673ffffffffffffffffffffffffffffffffffffffff161461160f576040517f08c379a00000000000000000000000000000000000000000000000000000000081526004016116069061396b565b60405180910390fd5b8060035f3373ffffffffffffffffffffffffffffffffffffffff1673ffffffffffffffffffffffffffffffffffffffff1681526020019081526020015f205f015f6101000a81548173ffffffffffffffffffffffffffffffffffffffff021916908373ffffffffffffffffffffffffffffffffffffffff16021790555060045f8273ffffffffffffffffffffffffffffffffffffffff1673ffffffffffffffffffffffffffffffffffffffff1681526020019081526020015f2033908060018154018082558091505060019003905f5260205f20015f9091909190916101000a81548173ffffffffffffffffffffffffffffffffffffffff021916908373ffffffffffffffffffffffffffffffffffffffff16021790555060075f3373ffffffffffffffffffffffffffffffffffffffff1673ffffffffffffffffffffffffffffffffffffffff1681526020019081526020015f205f9054906101000a900460ff1661182b57600633908060018154018082558091505060019003905f5260205f20015f9091909190916101000a81548173ffffffffffffffffffffffffffffffffffffffff021916908373ffffffffffffffffffffffffffffffffffffffff160217905550600160075f3373ffffffffffffffffffffffffffffffffffffffff1673ffffffffffffffffffffffffffffffffffffffff1681526020019081526020015f205f6101000a81548160ff0219169083151502179055505b6118343361268a565b7f9d05414fb79fac216c15606de5cc06664e91a254e4d5f57664d5f1beaf7fb7ef8133604051611865929190613989565b60405180910390a150565b60085f9054906101000a900460ff1681565b6101f481565b5f5f611892612837565b9050805f015f9054906101000a900473ffffffffffffffffffffffffffffffffffffffff1691505090565b6060600680548060200260200160405190810160405280929190818152602001828054801561193e57602002820191905f5260205f20905b815f9054906101000a900473ffffffffffffffffffffffffffffffffffffffff1673ffffffffffffffffffffffffffffffffffffffff16815260200190600101908083116118f5575b5050505050905090565b6040518060400160405280600581526020017f352e302e3000000000000000000000000000000000000000000000000000000081525081565b611989611d03565b8060085f6101000a81548160ff02191690831515021790555050565b7355d398326f99059ff775485246999027b319795581565b606060045f8373ffffffffffffffffffffffffffffffffffffffff1673ffffffffffffffffffffffffffffffffffffffff1681526020019081526020015f20805480602002602001604051908101604052809291908181526020018280548015611a7957602002820191905f5260205f20905b815f9054906101000a900473ffffffffffffffffffffffffffffffffffffffff1673ffffffffffffffffffffffffffffffffffffffff1681526020019060010190808311611a30575b50505050509050919050565b60605f60045f8473ffffffffffffffffffffffffffffffffffffffff1673ffffffffffffffffffffffffffffffffffffffff1681526020019081526020015f20805480602002602001604051908101604052809291908181526020018280548015611b4257602002820191905f5260205f20905b815f9054906101000a900473ffffffffffffffffffffffffffffffffffffffff1673ffffffffffffffffffffffffffffffffffffffff1681526020019060010190808311611af9575b505050505090505f815190505f8167ffffffffffffffff811115611b6957611b68612f39565b5b604051908082528060200260200182016040528015611ba257816020015b611b8f612c70565b815260200190600190039081611b875790505b5090505f5f90505b82811015611c67575f848281518110611bc657611bc56139b0565b5b6020026020010151905060405180604001604052808273ffffffffffffffffffffffffffffffffffffffff16815260200160035f8473ffffffffffffffffffffffffffffffffffffffff1673ffffffffffffffffffffffffffffffffffffffff1681526020019081526020015f2060020154815250838381518110611c4e57611c4d6139b0565b5b6020026020010181905250508080600101915050611baa565b50809350505050919050565b67016345785d8a000081565b611c87611d03565b5f73ffffffffffffffffffffffffffffffffffffffff168173ffffffffffffffffffffffffffffffffffffffff1603611cf7575f6040517f1e4fbdf7000000000000000000000000000000000000000000000000000000008152600401611cee9190612e01565b60405180910390fd5b611d00816125b9565b50565b611d0b611d9d565b73ffffffffffffffffffffffffffffffffffffffff16611d29611888565b73ffffffffffffffffffffffffffffffffffffffff1614611d8857611d4c611d9d565b6040517f118cdaa7000000000000000000000000000000000000000000000000000000008152600401611d7f9190612e01565b60405180910390fd5b565b5f5f611d9461285e565b90508091505090565b5f33905090565b611dac612887565b611db5816128c7565b50565b7f000000000000000000000000000000000000000000000000000000000000000073ffffffffffffffffffffffffffffffffffffffff163073ffffffffffffffffffffffffffffffffffffffff161480611e6557507f000000000000000000000000000000000000000000000000000000000000000073ffffffffffffffffffffffffffffffffffffffff16611e4c61294b565b73ffffffffffffffffffffffffffffffffffffffff1614155b15611e9c576040517fe07c8dba00000000000000000000000000000000000000000000000000000000815260040160405180910390fd5b565b611ea6611d03565b50565b8173ffffffffffffffffffffffffffffffffffffffff166352d1902d6040518163ffffffff1660e01b8152600401602060405180830381865afa925050508015611f1157506040513d601f19601f82011682018060405250810190611f0e9190613a07565b60015b611f5257816040517f4c9c8ce3000000000000000000000000000000000000000000000000000000008152600401611f499190612e01565b60405180910390fd5b7f360894a13ba1a3210667c828492db98dca3e2076cc3735a920a3ca505d382bbc5f1b8114611fb857806040517faa1d49a4000000000000000000000000000000000000000000000000000000008152600401611faf91906130cf565b60405180910390fd5b611fc2838361299e565b505050565b7f000000000000000000000000000000000000000000000000000000000000000073ffffffffffffffffffffffffffffffffffffffff163073ffffffffffffffffffffffffffffffffffffffff161461204c576040517fe07c8dba00000000000000000000000000000000000000000000000000000000815260040160405180910390fd5b565b5f5f8473ffffffffffffffffffffffffffffffffffffffff1663a9059cbb858560405160240161207f929190613a32565b6040516020818303038152906040529060e01b6020820180517bffffffffffffffffffffffffffffffffffffffffffffffffffffffff83818316178352505050506040516120cd9190613a9d565b5f604051808303815f865af19150503d805f8114612106576040519150601f19603f3d011682016040523d82523d5f602084013e61210b565b606091505b509150915081801561213857505f815114806121375750808060200190518101906121369190613ac7565b5b5b612177576040517f08c379a000000000000000000000000000000000000000000000000000000000815260040161216e90613b3c565b60405180910390fd5b5050505050565b60025f54036121b9576040517f3ee5aeb500000000000000000000000000000000000000000000000000000000815260040160405180910390fd5b60025f81905550565b5f5f8573ffffffffffffffffffffffffffffffffffffffff166323b872dd8686866040516024016121f593929190613b5a565b6040516020818303038152906040529060e01b6020820180517bffffffffffffffffffffffffffffffffffffffffffffffffffffffff83818316178352505050506040516122439190613a9d565b5f604051808303815f865af19150503d805f811461227c576040519150601f19603f3d011682016040523d82523d5f602084013e612281565b606091505b50915091508180156122ae57505f815114806122ad5750808060200190518101906122ac9190613ac7565b5b5b6122ed576040517f08c379a00000000000000000000000000000000000000000000000000000000081526004016122e490613bff565b60405180910390fd5b505050505050565b5f5f8473ffffffffffffffffffffffffffffffffffffffff1663095ea7b38585604051602401612326929190613a32565b6040516020818303038152906040529060e01b6020820180517bffffffffffffffffffffffffffffffffffffffffffffffffffffffff83818316178352505050506040516123749190613a9d565b5f604051808303815f865af19150503d805f81146123ad576040519150601f19603f3d011682016040523d82523d5f602084013e6123b2565b606091505b50915091508180156123df57505f815114806123de5750808060200190518101906123dd9190613ac7565b5b5b61241e576040517f08c379a000000000000000000000000000000000000000000000000000000000815260040161241590613c67565b60405180910390fd5b5050505050565b5f60035f8473ffffffffffffffffffffffffffffffffffffffff1673ffffffffffffffffffffffffffffffffffffffff1681526020019081526020015f205f015f9054906101000a900473ffffffffffffffffffffffffffffffffffffffff1690505b5f73ffffffffffffffffffffffffffffffffffffffff168173ffffffffffffffffffffffffffffffffffffffff16146125ab578273ffffffffffffffffffffffffffffffffffffffff168173ffffffffffffffffffffffffffffffffffffffff1603156125ab578160035f8373ffffffffffffffffffffffffffffffffffffffff1673ffffffffffffffffffffffffffffffffffffffff1681526020019081526020015f206002015f82825461253e91906136d0565b9250508190555060035f8273ffffffffffffffffffffffffffffffffffffffff1673ffffffffffffffffffffffffffffffffffffffff1681526020019081526020015f205f015f9054906101000a900473ffffffffffffffffffffffffffffffffffffffff169050612488565b505050565b60015f81905550565b5f6125c2612837565b90505f815f015f9054906101000a900473ffffffffffffffffffffffffffffffffffffffff16905082825f015f6101000a81548173ffffffffffffffffffffffffffffffffffffffff021916908373ffffffffffffffffffffffffffffffffffffffff1602179055508273ffffffffffffffffffffffffffffffffffffffff168173ffffffffffffffffffffffffffffffffffffffff167f8be0079c531659141344cd1fd0a4f28419497f9722a3daafe3b4186f6b6457e060405160405180910390a3505050565b5f60035f8373ffffffffffffffffffffffffffffffffffffffff1673ffffffffffffffffffffffffffffffffffffffff1681526020019081526020015f205f015f9054906101000a900473ffffffffffffffffffffffffffffffffffffffff1690505f5f90505b5f73ffffffffffffffffffffffffffffffffffffffff168273ffffffffffffffffffffffffffffffffffffffff161415801561272e57506101f481105b15612832578273ffffffffffffffffffffffffffffffffffffffff168273ffffffffffffffffffffffffffffffffffffffff16031561283257600160035f8473ffffffffffffffffffffffffffffffffffffffff1673ffffffffffffffffffffffffffffffffffffffff1681526020019081526020015f206003015f8282546127b791906136d0565b9250508190555060035f8373ffffffffffffffffffffffffffffffffffffffff1673ffffffffffffffffffffffffffffffffffffffff1681526020019081526020015f205f015f9054906101000a900473ffffffffffffffffffffffffffffffffffffffff169150808061282a90613c85565b9150506126f1565b505050565b5f7f9016d09d72d40fdae2fd8ceac6b6234c7706214fd39c1cd1e609a0528c199300905090565b5f7ff0c57e16840df040f15088dc2f81fe391c3923bec73e23a9662efc9c229c6a005f1b905090565b61288f612a10565b6128c5576040517fd7e6bcf800000000000000000000000000000000000000000000000000000000815260040160405180910390fd5b565b6128cf612887565b5f73ffffffffffffffffffffffffffffffffffffffff168173ffffffffffffffffffffffffffffffffffffffff160361293f575f6040517f1e4fbdf70000000000000000000000000000000000000000000000000000000081526004016129369190612e01565b60405180910390fd5b612948816125b9565b50565b5f6129777f360894a13ba1a3210667c828492db98dca3e2076cc3735a920a3ca505d382bbc5f1b612a2e565b5f015f9054906101000a900473ffffffffffffffffffffffffffffffffffffffff16905090565b6129a782612a37565b8173ffffffffffffffffffffffffffffffffffffffff167fbc7cd75a20ee27fd9adebab32041f755214dbc6bffa90cc0225b39da2e5c2d3b60405160405180910390a25f81511115612a03576129fd8282612b00565b50612a0c565b612a0b612bf1565b5b5050565b5f612a19611d8a565b5f0160089054906101000a900460ff16905090565b5f819050919050565b5f8173ffffffffffffffffffffffffffffffffffffffff163b03612a9257806040517f4c9c8ce3000000000000000000000000000000000000000000000000000000008152600401612a899190612e01565b60405180910390fd5b80612abe7f360894a13ba1a3210667c828492db98dca3e2076cc3735a920a3ca505d382bbc5f1b612a2e565b5f015f6101000a81548173ffffffffffffffffffffffffffffffffffffffff021916908373ffffffffffffffffffffffffffffffffffffffff16021790555050565b60605f612b0d8484612c2d565b9050808015612b4357505f612b20612c41565b1180612b4257505f8473ffffffffffffffffffffffffffffffffffffffff163b115b5b15612b5857612b50612c48565b915050612beb565b8015612b9b57836040517f9996b315000000000000000000000000000000000000000000000000000000008152600401612b929190612e01565b60405180910390fd5b5f612ba4612c41565b1115612bb757612bb2612c65565b612be9565b6040517fd6bda27500000000000000000000000000000000000000000000000000000000815260040160405180910390fd5b505b92915050565b5f341115612c2b576040517fb398979f00000000000000000000000000000000000000000000000000000000815260040160405180910390fd5b565b5f5f5f835160208501865af4905092915050565b5f3d905090565b606060405190503d81523d5f602083013e3d602001810160405290565b6040513d5f823e3d81fd5b60405180604001604052805f73ffffffffffffffffffffffffffffffffffffffff1681526020015f81525090565b5f82825260208201905092915050565b7f4e4f5f4449524543545f53454e440000000000000000000000000000000000005f82015250565b5f612ce2600e83612c9e565b9150612ced82612cae565b602082019050919050565b5f6020820190508181035f830152612d0f81612cd6565b9050919050565b5f604051905090565b5f5ffd5b5f5ffd5b5f73ffffffffffffffffffffffffffffffffffffffff82169050919050565b5f612d5082612d27565b9050919050565b612d6081612d46565b8114612d6a575f5ffd5b50565b5f81359050612d7b81612d57565b92915050565b5f819050919050565b612d9381612d81565b8114612d9d575f5ffd5b50565b5f81359050612dae81612d8a565b92915050565b5f5f60408385031215612dca57612dc9612d1f565b5b5f612dd785828601612d6d565b9250506020612de885828601612da0565b9150509250929050565b612dfb81612d46565b82525050565b5f602082019050612e145f830184612df2565b92915050565b612e2381612d81565b82525050565b5f602082019050612e3c5f830184612e1a565b92915050565b5f60208284031215612e5757612e56612d1f565b5b5f612e6484828501612d6d565b91505092915050565b5f608082019050612e805f830187612df2565b612e8d6020830186612e1a565b612e9a6040830185612e1a565b612ea76060830184612e1a565b95945050505050565b5f8115159050919050565b612ec481612eb0565b82525050565b5f602082019050612edd5f830184612ebb565b92915050565b5f5f60408385031215612ef957612ef8612d1f565b5b5f612f0685828601612d6d565b9250506020612f1785828601612d6d565b9150509250929050565b5f5ffd5b5f5ffd5b5f601f19601f8301169050919050565b7f4e487b71000000000000000000000000000000000000000000000000000000005f52604160045260245ffd5b612f6f82612f29565b810181811067ffffffffffffffff82111715612f8e57612f8d612f39565b5b80604052505050565b5f612fa0612d16565b9050612fac8282612f66565b919050565b5f67ffffffffffffffff821115612fcb57612fca612f39565b5b612fd482612f29565b9050602081019050919050565b828183375f83830152505050565b5f613001612ffc84612fb1565b612f97565b90508281526020810184848401111561301d5761301c612f25565b5b613028848285612fe1565b509392505050565b5f82601f83011261304457613043612f21565b5b8135613054848260208601612fef565b91505092915050565b5f5f6040838503121561307357613072612d1f565b5b5f61308085828601612d6d565b925050602083013567ffffffffffffffff8111156130a1576130a0612d23565b5b6130ad85828601613030565b9150509250929050565b5f819050919050565b6130c9816130b7565b82525050565b5f6020820190506130e25f8301846130c0565b92915050565b5f5f5f606084860312156130ff576130fe612d1f565b5b5f61310c86828701612d6d565b935050602061311d86828701612da0565b925050604061312e86828701612d6d565b9150509250925092565b5f81519050919050565b5f82825260208201905092915050565b5f819050602082019050919050565b61316a81612d46565b82525050565b5f61317b8383613161565b60208301905092915050565b5f602082019050919050565b5f61319d82613138565b6131a78185613142565b93506131b283613152565b805f5b838110156131e25781516131c98882613170565b97506131d483613187565b9250506001810190506131b5565b5085935050505092915050565b5f60a0820190506132025f830188612df2565b61320f6020830187612e1a565b61321c6040830186612e1a565b6132296060830185612e1a565b818103608083015261323b8184613193565b90509695505050505050565b5f6020820190508181035f83015261325f8184613193565b905092915050565b5f81519050919050565b8281835e5f83830152505050565b5f61328982613267565b6132938185612c9e565b93506132a3818560208601613271565b6132ac81612f29565b840191505092915050565b5f6020820190508181035f8301526132cf818461327f565b905092915050565b6132e081612eb0565b81146132ea575f5ffd5b50565b5f813590506132fb816132d7565b92915050565b5f6020828403121561331657613315612d1f565b5b5f613323848285016132ed565b91505092915050565b5f81519050919050565b5f82825260208201905092915050565b5f819050602082019050919050565b61335e81612d81565b82525050565b604082015f8201516133785f850182613161565b50602082015161338b6020850182613355565b50505050565b5f61339c8383613364565b60408301905092915050565b5f602082019050919050565b5f6133be8261332c565b6133c88185613336565b93506133d383613346565b805f5b838110156134035781516133ea8882613391565b97506133f5836133a8565b9250506001810190506133d6565b5085935050505092915050565b5f6020820190508181035f83015261342881846133b4565b905092915050565b7f5a45524f000000000000000000000000000000000000000000000000000000005f82015250565b5f613464600483612c9e565b915061346f82613430565b602082019050919050565b5f6020820190508181035f83015261349181613458565b9050919050565b5f819050919050565b5f67ffffffffffffffff82169050919050565b5f819050919050565b5f6134d76134d26134cd84613498565b6134b4565b6134a1565b9050919050565b6134e7816134bd565b82525050565b5f6020820190506135005f8301846134de565b92915050565b7f50415553455f52454348415247452e00000000000000000000000000000000005f82015250565b5f61353a600f83612c9e565b915061354582613506565b602082019050919050565b5f6020820190508181035f8301526135678161352e565b9050919050565b7f5245434f4d4d454e444154494f4e5f49535f52455155495245445f52454348415f8201527f5247452e00000000000000000000000000000000000000000000000000000000602082015250565b5f6135c8602483612c9e565b91506135d38261356e565b604082019050919050565b5f6020820190508181035f8301526135f5816135bc565b9050919050565b5f8151905061360a81612d8a565b92915050565b5f6020828403121561362557613624612d1f565b5b5f613632848285016135fc565b91505092915050565b7f56454e55535f4d494e545f4641494c45440000000000000000000000000000005f82015250565b5f61366f601183612c9e565b915061367a8261363b565b602082019050919050565b5f6020820190508181035f83015261369c81613663565b9050919050565b7f4e487b71000000000000000000000000000000000000000000000000000000005f52601160045260245ffd5b5f6136da82612d81565b91506136e583612d81565b92508282019050808211156136fd576136fc6136a3565b5b92915050565b5f819050919050565b5f61372661372161371c84613703565b6134b4565b612d81565b9050919050565b6137368161370c565b82525050565b50565b5f61374a5f83612c9e565b91506137558261373c565b5f82019050919050565b5f60c0820190506137725f830188612df2565b61377f6020830187612df2565b61378c6040830186612e1a565b6137996060830185612df2565b6137a6608083018461372d565b81810360a08301526137b78161373f565b90509695505050505050565b7f5a45524f5f414444524553532e000000000000000000000000000000000000005f82015250565b5f6137f7600d83612c9e565b9150613802826137c3565b602082019050919050565b5f6020820190508181035f830152613824816137eb565b9050919050565b7f494e56414c49445f5245434f4d4d454e4445522e0000000000000000000000005f82015250565b5f61385f601483612c9e565b915061386a8261382b565b602082019050919050565b5f6020820190508181035f83015261388c81613853565b9050919050565b7f5245434f4d4d454e444154494f4e5f49535f52455155495245445f52454645525f8201527f52414c2e00000000000000000000000000000000000000000000000000000000602082015250565b5f6138ed602483612c9e565b91506138f882613893565b604082019050919050565b5f6020820190508181035f83015261391a816138e1565b9050919050565b7f494e56495445525f414c52454144595f4558495354532e0000000000000000005f82015250565b5f613955601783612c9e565b915061396082613921565b602082019050919050565b5f6020820190508181035f83015261398281613949565b9050919050565b5f60408201905061399c5f830185612df2565b6139a96020830184612df2565b9392505050565b7f4e487b71000000000000000000000000000000000000000000000000000000005f52603260045260245ffd5b6139e6816130b7565b81146139f0575f5ffd5b50565b5f81519050613a01816139dd565b92915050565b5f60208284031215613a1c57613a1b612d1f565b5b5f613a29848285016139f3565b91505092915050565b5f604082019050613a455f830185612df2565b613a526020830184612e1a565b9392505050565b5f81519050919050565b5f81905092915050565b5f613a7782613a59565b613a818185613a63565b9350613a91818560208601613271565b80840191505092915050565b5f613aa88284613a6d565b915081905092915050565b5f81519050613ac1816132d7565b92915050565b5f60208284031215613adc57613adb612d1f565b5b5f613ae984828501613ab3565b91505092915050565b7f5472616e7366657248656c7065723a205452414e534645525f4641494c4544005f82015250565b5f613b26601f83612c9e565b9150613b3182613af2565b602082019050919050565b5f6020820190508181035f830152613b5381613b1a565b9050919050565b5f606082019050613b6d5f830186612df2565b613b7a6020830185612df2565b613b876040830184612e1a565b949350505050565b7f5472616e7366657248656c7065723a205452414e534645525f46524f4d5f46415f8201527f494c454400000000000000000000000000000000000000000000000000000000602082015250565b5f613be9602483612c9e565b9150613bf482613b8f565b604082019050919050565b5f6020820190508181035f830152613c1681613bdd565b9050919050565b7f5472616e7366657248656c7065723a20415050524f56455f4641494c454400005f82015250565b5f613c51601e83612c9e565b9150613c5c82613c1d565b602082019050919050565b5f6020820190508181035f830152613c7e81613c45565b9050919050565b5f613c8f82612d81565b91507fffffffffffffffffffffffffffffffffffffffffffffffffffffffffffffffff8203613cc157613cc06136a3565b5b60018201905091905056fea264697066735822122089e42bf66ae610a49b56fbb304b455b8e63274bf0015e9fe24985d76aef91f0964736f6c634300081e0033","linkReferences":{}},"methodIdentifiers":{"FIXED_AMOUNT()":"eccf1694","MAX_REFERRAL_DEPTH()":"89e59ea0","UPGRADE_INTERFACE_VERSION()":"ad3cb1cc","USDT()":"c54e44eb","VENUS()":"1a78ccc1","directReferrals(address,uint256)":"05ad3935","emergencyWithdraw(address,uint256,address)":"551512de","getAddrCollection()":"a2b0332b","getAddrCollectionLength()":"4d38857c","getDirectReferrals(address)":"d2c8e0e5","getDirectReferralsInfo(address)":"ec18ac79","getUserInfo(address)":"6386c1c7","initialCode()":"10baf089","initialize(address,address)":"485cc955","isAddCollection(address)":"39fe3b99","owner()":"8da5cb5b","pause()":"8456cb59","proxiableUUID()":"52d1902d","recipient()":"66d003ac","referral(address)":"7247959a","renounceOwnership()":"715018a6","setPause(bool)":"bedb86fb","setRecipient(address)":"3bbed4a0","singleRecharge()":"689d2a82","totalPerformance()":"06876dbe","transferOwnership(address)":"f2fde38b","upgradeToAndCall(address,bytes)":"4f1ef286","userInfo(address)":"1959a002","validInvitationCode(address)":"3c4e9d74"},"id":38}