{"abi":[{"type":"receive","stateMutability":"payable"},{"type":"function","name":"FIXED_AMOUNT","inputs":[],"outputs":[{"name":"","type":"uint256","internalType":"uint256"}],"stateMutability":"view"},{"type":"function","name":"MAX_REFERRAL_DEPTH","inputs":[],"outputs":[{"name":"","type":"uint256","internalType":"uint256"}],"stateMutability":"view"},{"type":"function","name":"UPGRADE_INTERFACE_VERSION","inputs":[],"outputs":[{"name":"","type":"string","internalType":"string"}],"stateMutability":"view"},{"type":"function","name":"USDT","inputs":[],"outputs":[{"name":"","type":"address","internalType":"address"}],"stateMutability":"view"},{"type":"function","name":"VENUS","inputs":[],"outputs":[{"name":"","type":"address","internalType":"address"}],"stateMutability":"view"},{"type":"function","name":"directReferrals","inputs":[{"name":"","type":"address","internalType":"address"},{"name":"","type":"uint256","internalType":"uint256"}],"outputs":[{"name":"","type":"address","internalType":"address"}],"stateMutability":"view"},{"type":"function","name":"emergencyWithdraw","inputs":[{"name":"token","type":"address","internalType":"address"},{"name":"amount","type":"uint256","internalType":"uint256"},{"name":"to","type":"address","internalType":"address"}],"outputs":[],"stateMutability":"nonpayable"},{"type":"function","name":"getAddrCollection","inputs":[],"outputs":[{"name":"","type":"address[]","internalType":"address[]"}],"stateMutability":"view"},{"type":"function","name":"getAddrCollectionLength","inputs":[],"outputs":[{"name":"","type":"uint256","internalType":"uint256"}],"stateMutability":"view"},{"type":"function","name":"getDirectReferrals","inputs":[{"name":"user","type":"address","internalType":"address"}],"outputs":[{"name":"","type":"address[]","internalType":"address[]"}],"stateMutability":"view"},{"type":"function","name":"getUserInfo","inputs":[{"name":"user","type":"address","internalType":"address"}],"outputs":[{"name":"recommender","type":"address","internalType":"address"},{"name":"staking","type":"uint256","internalType":"uint256"},{"name":"performance","type":"uint256","internalType":"uint256"},{"name":"referralNum","type":"uint256","internalType":"uint256"},{"name":"referrals","type":"address[]","internalType":"address[]"}],"stateMutability":"view"},{"type":"function","name":"initialCode","inputs":[],"outputs":[{"name":"","type":"address","internalType":"address"}],"stateMutability":"view"},{"type":"function","name":"initialize","inputs":[{"name":"_recipient","type":"address","internalType":"address"},{"name":"_initialCode","type":"address","internalType":"address"}],"outputs":[],"stateMutability":"nonpayable"},{"type":"function","name":"isAddCollection","inputs":[{"name":"","type":"address","internalType":"address"}],"outputs":[{"name":"","type":"bool","internalType":"bool"}],"stateMutability":"view"},{"type":"function","name":"owner","inputs":[],"outputs":[{"name":"","type":"address","internalType":"address"}],"stateMutability":"view"},{"type":"function","name":"pause","inputs":[],"outputs":[{"name":"","type":"bool","internalType":"bool"}],"stateMutability":"view"},{"type":"function","name":"proxiableUUID","inputs":[],"outputs":[{"name":"","type":"bytes32","internalType":"bytes32"}],"stateMutability":"view"},{"type":"function","name":"recipient","inputs":[],"outputs":[{"name":"","type":"address","internalType":"address"}],"stateMutability":"view"},{"type":"function","name":"referral","inputs":[{"name":"recommender","type":"address","internalType":"address"}],"outputs":[],"stateMutability":"nonpayable"},{"type":"function","name":"renounceOwnership","inputs":[],"outputs":[],"stateMutability":"nonpayable"},{"type":"function","name":"setPause","inputs":[{"name":"isPause","type":"bool","internalType":"bool"}],"outputs":[],"stateMutability":"nonpayable"},{"type":"function","name":"setRecipient","inputs":[{"name":"_recipient","type":"address","internalType":"address"}],"outputs":[],"stateMutability":"nonpayable"},{"type":"function","name":"singleRecharge","inputs":[],"outputs":[],"stateMutability":"nonpayable"},{"type":"function","name":"totalPerformance","inputs":[],"outputs":[{"name":"","type":"uint256","internalType":"uint256"}],"stateMutability":"view"},{"type":"function","name":"transferOwnership","inputs":[{"name":"newOwner","type":"address","internalType":"address"}],"outputs":[],"stateMutability":"nonpayable"},{"type":"function","name":"upgradeToAndCall","inputs":[{"name":"newImplementation","type":"address","internalType":"address"},{"name":"data","type":"bytes","internalType":"bytes"}],"outputs":[],"stateMutability":"payable"},{"type":"function","name":"userInfo","inputs":[{"name":"","type":"address","internalType":"address"}],"outputs":[{"name":"recommender","type":"address","internalType":"address"},{"name":"staking","type":"uint256","internalType":"uint256"},{"name":"performance","type":"uint256","internalType":"uint256"},{"name":"referralNum","type":"uint256","internalType":"uint256"}],"stateMutability":"view"},{"type":"function","name":"validInvitationCode","inputs":[{"name":"user","type":"address","internalType":"address"}],"outputs":[{"name":"","type":"bool","internalType":"bool"}],"stateMutability":"view"},{"type":"event","name":"Initialized","inputs":[{"name":"version","type":"uint64","indexed":false,"internalType":"uint64"}],"anonymous":false},{"type":"event","name":"MultiRecharge","inputs":[{"name":"user","type":"address","indexed":false,"internalType":"address"},{"name":"token0","type":"address","indexed":false,"internalType":"address"},{"name":"amount0","type":"uint256","indexed":false,"internalType":"uint256"},{"name":"token1","type":"address","indexed":false,"internalType":"address"},{"name":"amount1","type":"uint256","indexed":false,"internalType":"uint256"},{"name":"remark","type":"string","indexed":false,"internalType":"string"}],"anonymous":false},{"type":"event","name":"OwnershipTransferred","inputs":[{"name":"previousOwner","type":"address","indexed":true,"internalType":"address"},{"name":"newOwner","type":"address","indexed":true,"internalType":"address"}],"anonymous":false},{"type":"event","name":"Referral","inputs":[{"name":"recommender","type":"address","indexed":false,"internalType":"address"},{"name":"referred","type":"address","indexed":false,"internalType":"address"}],"anonymous":false},{"type":"event","name":"Upgraded","inputs":[{"name":"implementation","type":"address","indexed":true,"internalType":"address"}],"anonymous":false},{"type":"error","name":"AddressEmptyCode","inputs":[{"name":"target","type":"address","internalType":"address"}]},{"type":"error","name":"ERC1967InvalidImplementation","inputs":[{"name":"implementation","type":"address","internalType":"address"}]},{"type":"error","name":"ERC1967NonPayable","inputs":[]},{"type":"error","name":"FailedCall","inputs":[]},{"type":"error","name":"InvalidInitialization","inputs":[]},{"type":"error","name":"NotInitializing","inputs":[]},{"type":"error","name":"OwnableInvalidOwner","inputs":[{"name":"owner","type":"address","internalType":"address"}]},{"type":"error","name":"OwnableUnauthorizedAccount","inputs":[{"name":"account","type":"address","internalType":"address"}]},{"type":"error","name":"ReentrancyGuardReentrantCall","inputs":[]},{"type":"error","name":"UUPSUnauthorizedCallContext","inputs":[]},{"type":"error","name":"UUPSUnsupportedProxiableUUID","inputs":[{"name":"slot","type":"bytes32","internalType":"bytes32"}]}],"bytecode":{"object":"0x60a06040523073ffffffffffffffffffffffffffffffffffffffff1660809073ffffffffffffffffffffffffffffffffffffffff168152503480156041575f5ffd5b5060015f81905550608051613a7a61006f5f395f8181611c9101528181611ce60152611ea00152613a7a5ff3fe6080604052600436106101ba575f3560e01c806366d003ac116100eb578063a2b0332b11610089578063c54e44eb11610063578063c54e44eb1461060f578063d2c8e0e514610639578063eccf169414610675578063f2fde38b1461069f576101fa565b8063a2b0332b14610593578063ad3cb1cc146105bd578063bedb86fb146105e7576101fa565b80637247959a116100c55780637247959a146104ed5780638456cb591461051557806389e59ea01461053f5780638da5cb5b14610569576101fa565b806366d003ac14610497578063689d2a82146104c1578063715018a6146104d7576101fa565b80633c4e9d74116101585780634f1ef286116101325780634f1ef286146103e957806352d1902d14610405578063551512de1461042f5780636386c1c714610457576101fa565b80633c4e9d741461035b578063485cc955146103975780634d38857c146103bf576101fa565b80631959a002116101945780631959a0021461028e5780631a78ccc1146102cd57806339fe3b99146102f75780633bbed4a014610333576101fa565b806305ad3935146101fe57806306876dbe1461023a57806310baf08914610264576101fa565b366101fa576040517f08c379a00000000000000000000000000000000000000000000000000000000081526004016101f190612ba1565b60405180910390fd5b5f5ffd5b348015610209575f5ffd5b50610224600480360381019061021f9190612c5d565b6106c7565b6040516102319190612caa565b60405180910390f35b348015610245575f5ffd5b5061024e61070f565b60405161025b9190612cd2565b60405180910390f35b34801561026f575f5ffd5b50610278610715565b6040516102859190612caa565b60405180910390f35b348015610299575f5ffd5b506102b460048036038101906102af9190612ceb565b61073a565b6040516102c49493929190612d16565b60405180910390f35b3480156102d8575f5ffd5b506102e1610785565b6040516102ee9190612caa565b60405180910390f35b348015610302575f5ffd5b5061031d60048036038101906103189190612ceb565b61079d565b60405161032a9190612d73565b60405180910390f35b34801561033e575f5ffd5b5061035960048036038101906103549190612ceb565b6107ba565b005b348015610366575f5ffd5b50610381600480360381019061037c9190612ceb565b610873565b60405161038e9190612d73565b60405180910390f35b3480156103a2575f5ffd5b506103bd60048036038101906103b89190612d8c565b610967565b005b3480156103ca575f5ffd5b506103d3610b70565b6040516103e09190612cd2565b60405180910390f35b61040360048036038101906103fe9190612f06565b610b7c565b005b348015610410575f5ffd5b50610419610b9b565b6040516104269190612f78565b60405180910390f35b34801561043a575f5ffd5b5061045560048036038101906104509190612f91565b610bcc565b005b348015610462575f5ffd5b5061047d60048036038101906104789190612ceb565b610be4565b60405161048e959493929190613098565b60405180910390f35b3480156104a2575f5ffd5b506104ab610d92565b6040516104b89190612caa565b60405180910390f35b3480156104cc575f5ffd5b506104d5610db7565b005b3480156104e2575f5ffd5b506104eb6113a8565b005b3480156104f8575f5ffd5b50610513600480360381019061050e9190612ceb565b6113bb565b005b348015610520575f5ffd5b50610529611934565b6040516105369190612d73565b60405180910390f35b34801561054a575f5ffd5b50610553611946565b6040516105609190612cd2565b60405180910390f35b348015610574575f5ffd5b5061057d61194c565b60405161058a9190612caa565b60405180910390f35b34801561059e575f5ffd5b506105a7611981565b6040516105b491906130f0565b60405180910390f35b3480156105c8575f5ffd5b506105d1611a0c565b6040516105de9190613160565b60405180910390f35b3480156105f2575f5ffd5b5061060d600480360381019061060891906131aa565b611a45565b005b34801561061a575f5ffd5b50610623611a69565b6040516106309190612caa565b60405180910390f35b348015610644575f5ffd5b5061065f600480360381019061065a9190612ceb565b611a81565b60405161066c91906130f0565b60405180910390f35b348015610680575f5ffd5b50610689611b49565b6040516106969190612cd2565b60405180910390f35b3480156106aa575f5ffd5b506106c560048036038101906106c09190612ceb565b611b56565b005b6004602052815f5260405f2081815481106106e0575f80fd5b905f5260205f20015f915091509054906101000a900473ffffffffffffffffffffffffffffffffffffffff1681565b60055481565b60025f9054906101000a900473ffffffffffffffffffffffffffffffffffffffff1681565b6003602052805f5260405f205f91509050805f015f9054906101000a900473ffffffffffffffffffffffffffffffffffffffff16908060010154908060020154908060030154905084565b73fd5840cd36d94d7229439859c0112a4185bc025581565b6007602052805f5260405f205f915054906101000a900460ff1681565b6107c2611bda565b5f73ffffffffffffffffffffffffffffffffffffffff168173ffffffffffffffffffffffffffffffffffffffff1603610830576040517f08c379a00000000000000000000000000000000000000000000000000000000081526004016108279061321f565b60405180910390fd5b8060015f6101000a81548173ffffffffffffffffffffffffffffffffffffffff021916908373ffffffffffffffffffffffffffffffffffffffff16021790555050565b5f60025f9054906101000a900473ffffffffffffffffffffffffffffffffffffffff1673ffffffffffffffffffffffffffffffffffffffff168273ffffffffffffffffffffffffffffffffffffffff16036108d15760019050610962565b5f73ffffffffffffffffffffffffffffffffffffffff1660035f8473ffffffffffffffffffffffffffffffffffffffff1673ffffffffffffffffffffffffffffffffffffffff1681526020019081526020015f205f015f9054906101000a900473ffffffffffffffffffffffffffffffffffffffff1673ffffffffffffffffffffffffffffffffffffffff16141590505b919050565b5f610970611c61565b90505f815f0160089054906101000a900460ff161590505f825f015f9054906101000a900467ffffffffffffffff1690505f5f8267ffffffffffffffff161480156109b85750825b90505f60018367ffffffffffffffff161480156109eb57505f3073ffffffffffffffffffffffffffffffffffffffff163b145b9050811580156109f9575080155b15610a30576040517ff92ee8a900000000000000000000000000000000000000000000000000000000815260040160405180910390fd5b6001855f015f6101000a81548167ffffffffffffffff021916908367ffffffffffffffff1602179055508315610a7d576001855f0160086101000a81548160ff0219169083151502179055505b610a8d610a88611c74565b611c7b565b8660015f6101000a81548173ffffffffffffffffffffffffffffffffffffffff021916908373ffffffffffffffffffffffffffffffffffffffff1602179055508560025f6101000a81548173ffffffffffffffffffffffffffffffffffffffff021916908373ffffffffffffffffffffffffffffffffffffffff1602179055508315610b67575f855f0160086101000a81548160ff0219169083151502179055507fc7f505b2f371ae2175ee4913f4499e1f2633a7b5936321eed1cdaeb6115181d26001604051610b5e9190613292565b60405180910390a15b50505050505050565b5f600680549050905090565b610b84611c8f565b610b8d82611d75565b610b978282611d80565b5050565b5f610ba4611e9e565b7f360894a13ba1a3210667c828492db98dca3e2076cc3735a920a3ca505d382bbc5f1b905090565b610bd4611bda565b610bdf838284611f25565b505050565b5f5f5f5f60605f60035f8873ffffffffffffffffffffffffffffffffffffffff1673ffffffffffffffffffffffffffffffffffffffff1681526020019081526020015f206040518060800160405290815f82015f9054906101000a900473ffffffffffffffffffffffffffffffffffffffff1673ffffffffffffffffffffffffffffffffffffffff1673ffffffffffffffffffffffffffffffffffffffff168152602001600182015481526020016002820154815260200160038201548152505090505f60045f8973ffffffffffffffffffffffffffffffffffffffff1673ffffffffffffffffffffffffffffffffffffffff1681526020019081526020015f20805480602002602001604051908101604052809291908181526020018280548015610d6257602002820191905f5260205f20905b815f9054906101000a900473ffffffffffffffffffffffffffffffffffffffff1673ffffffffffffffffffffffffffffffffffffffff1681526020019060010190808311610d19575b50505050509050815f01518260200151836040015184606001518496509650965096509650505091939590929450565b60015f9054906101000a900473ffffffffffffffffffffffffffffffffffffffff1681565b610dbf612055565b60085f9054906101000a900460ff1615610e0e576040517f08c379a0000000000000000000000000000000000000000000000000000000008152600401610e05906132f5565b60405180910390fd5b5f73ffffffffffffffffffffffffffffffffffffffff1660035f3373ffffffffffffffffffffffffffffffffffffffff1673ffffffffffffffffffffffffffffffffffffffff1681526020019081526020015f205f015f9054906101000a900473ffffffffffffffffffffffffffffffffffffffff1673ffffffffffffffffffffffffffffffffffffffff1603610eda576040517f08c379a0000000000000000000000000000000000000000000000000000000008152600401610ed190613383565b60405180910390fd5b610f037355d398326f99059ff775485246999027b31979553330681b1ae4d6e2ef500000612099565b610f367355d398326f99059ff775485246999027b319795573fd5840cd36d94d7229439859c0112a4185bc02555f6121cc565b610f727355d398326f99059ff775485246999027b319795573fd5840cd36d94d7229439859c0112a4185bc0255681b1ae4d6e2ef5000006121cc565b5f73fd5840cd36d94d7229439859c0112a4185bc025573ffffffffffffffffffffffffffffffffffffffff1663a0712d68681b1ae4d6e2ef5000006040518263ffffffff1660e01b8152600401610fc99190612cd2565b6020604051808303815f875af1158015610fe5573d5f5f3e3d5ffd5b505050506040513d601f19601f8201168201806040525081019061100991906133b5565b14611049576040517f08c379a00000000000000000000000000000000000000000000000000000000081526004016110409061342a565b60405180910390fd5b5f73fd5840cd36d94d7229439859c0112a4185bc025573ffffffffffffffffffffffffffffffffffffffff166370a08231306040518263ffffffff1660e01b81526004016110979190612caa565b602060405180830381865afa1580156110b2573d5f5f3e3d5ffd5b505050506040513d601f19601f820116820180604052508101906110d691906133b5565b905061111873fd5840cd36d94d7229439859c0112a4185bc025560015f9054906101000a900473ffffffffffffffffffffffffffffffffffffffff1683611f25565b681b1ae4d6e2ef50000060035f3373ffffffffffffffffffffffffffffffffffffffff1673ffffffffffffffffffffffffffffffffffffffff1681526020019081526020015f206001015f8282546111709190613475565b92505081905550681b1ae4d6e2ef50000060055f8282546111919190613475565b9250508190555060075f3373ffffffffffffffffffffffffffffffffffffffff1673ffffffffffffffffffffffffffffffffffffffff1681526020019081526020015f205f9054906101000a900460ff1661129c57600633908060018154018082558091505060019003905f5260205f20015f9091909190916101000a81548173ffffffffffffffffffffffffffffffffffffffff021916908373ffffffffffffffffffffffffffffffffffffffff160217905550600160075f3373ffffffffffffffffffffffffffffffffffffffff1673ffffffffffffffffffffffffffffffffffffffff1681526020019081526020015f205f6101000a81548160ff0219169083151502179055505b5f73ffffffffffffffffffffffffffffffffffffffff1660035f3373ffffffffffffffffffffffffffffffffffffffff1673ffffffffffffffffffffffffffffffffffffffff1681526020019081526020015f205f015f9054906101000a900473ffffffffffffffffffffffffffffffffffffffff1673ffffffffffffffffffffffffffffffffffffffff16146113415761134033681b1ae4d6e2ef5000006122fc565b5b7f92bfe9b63523d7c8baff8387323dd4c1c8ccd48705d9c91e19160ebcabb053b8337355d398326f99059ff775485246999027b3197955681b1ae4d6e2ef5000005f5f604051611395959493929190613504565b60405180910390a1506113a6612487565b565b6113b0611bda565b6113b95f612490565b565b60085f9054906101000a900460ff161561140a576040517f08c379a0000000000000000000000000000000000000000000000000000000008152600401611401906132f5565b60405180910390fd5b5f73ffffffffffffffffffffffffffffffffffffffff168173ffffffffffffffffffffffffffffffffffffffff1603611478576040517f08c379a000000000000000000000000000000000000000000000000000000000815260040161146f906135b2565b60405180910390fd5b3373ffffffffffffffffffffffffffffffffffffffff168173ffffffffffffffffffffffffffffffffffffffff16036114e6576040517f08c379a00000000000000000000000000000000000000000000000000000000081526004016114dd9061361a565b60405180910390fd5b60025f9054906101000a900473ffffffffffffffffffffffffffffffffffffffff1673ffffffffffffffffffffffffffffffffffffffff168173ffffffffffffffffffffffffffffffffffffffff1614611607575f73ffffffffffffffffffffffffffffffffffffffff1660035f8373ffffffffffffffffffffffffffffffffffffffff1673ffffffffffffffffffffffffffffffffffffffff1681526020019081526020015f205f015f9054906101000a900473ffffffffffffffffffffffffffffffffffffffff1673ffffffffffffffffffffffffffffffffffffffff1603611606576040517f08c379a00000000000000000000000000000000000000000000000000000000081526004016115fd906136a8565b60405180910390fd5b5b5f73ffffffffffffffffffffffffffffffffffffffff1660035f3373ffffffffffffffffffffffffffffffffffffffff1673ffffffffffffffffffffffffffffffffffffffff1681526020019081526020015f205f015f9054906101000a900473ffffffffffffffffffffffffffffffffffffffff1673ffffffffffffffffffffffffffffffffffffffff16146116d3576040517f08c379a00000000000000000000000000000000000000000000000000000000081526004016116ca90613710565b60405180910390fd5b8060035f3373ffffffffffffffffffffffffffffffffffffffff1673ffffffffffffffffffffffffffffffffffffffff1681526020019081526020015f205f015f6101000a81548173ffffffffffffffffffffffffffffffffffffffff021916908373ffffffffffffffffffffffffffffffffffffffff16021790555060045f8273ffffffffffffffffffffffffffffffffffffffff1673ffffffffffffffffffffffffffffffffffffffff1681526020019081526020015f2033908060018154018082558091505060019003905f5260205f20015f9091909190916101000a81548173ffffffffffffffffffffffffffffffffffffffff021916908373ffffffffffffffffffffffffffffffffffffffff16021790555060075f3373ffffffffffffffffffffffffffffffffffffffff1673ffffffffffffffffffffffffffffffffffffffff1681526020019081526020015f205f9054906101000a900460ff166118ef57600633908060018154018082558091505060019003905f5260205f20015f9091909190916101000a81548173ffffffffffffffffffffffffffffffffffffffff021916908373ffffffffffffffffffffffffffffffffffffffff160217905550600160075f3373ffffffffffffffffffffffffffffffffffffffff1673ffffffffffffffffffffffffffffffffffffffff1681526020019081526020015f205f6101000a81548160ff0219169083151502179055505b6118f833612561565b7f9d05414fb79fac216c15606de5cc06664e91a254e4d5f57664d5f1beaf7fb7ef813360405161192992919061372e565b60405180910390a150565b60085f9054906101000a900460ff1681565b6101f481565b5f5f61195661270e565b9050805f015f9054906101000a900473ffffffffffffffffffffffffffffffffffffffff1691505090565b60606006805480602002602001604051908101604052809291908181526020018280548015611a0257602002820191905f5260205f20905b815f9054906101000a900473ffffffffffffffffffffffffffffffffffffffff1673ffffffffffffffffffffffffffffffffffffffff16815260200190600101908083116119b9575b5050505050905090565b6040518060400160405280600581526020017f352e302e3000000000000000000000000000000000000000000000000000000081525081565b611a4d611bda565b8060085f6101000a81548160ff02191690831515021790555050565b7355d398326f99059ff775485246999027b319795581565b606060045f8373ffffffffffffffffffffffffffffffffffffffff1673ffffffffffffffffffffffffffffffffffffffff1681526020019081526020015f20805480602002602001604051908101604052809291908181526020018280548015611b3d57602002820191905f5260205f20905b815f9054906101000a900473ffffffffffffffffffffffffffffffffffffffff1673ffffffffffffffffffffffffffffffffffffffff1681526020019060010190808311611af4575b50505050509050919050565b681b1ae4d6e2ef50000081565b611b5e611bda565b5f73ffffffffffffffffffffffffffffffffffffffff168173ffffffffffffffffffffffffffffffffffffffff1603611bce575f6040517f1e4fbdf7000000000000000000000000000000000000000000000000000000008152600401611bc59190612caa565b60405180910390fd5b611bd781612490565b50565b611be2611c74565b73ffffffffffffffffffffffffffffffffffffffff16611c0061194c565b73ffffffffffffffffffffffffffffffffffffffff1614611c5f57611c23611c74565b6040517f118cdaa7000000000000000000000000000000000000000000000000000000008152600401611c569190612caa565b60405180910390fd5b565b5f5f611c6b612735565b90508091505090565b5f33905090565b611c8361275e565b611c8c8161279e565b50565b7f000000000000000000000000000000000000000000000000000000000000000073ffffffffffffffffffffffffffffffffffffffff163073ffffffffffffffffffffffffffffffffffffffff161480611d3c57507f000000000000000000000000000000000000000000000000000000000000000073ffffffffffffffffffffffffffffffffffffffff16611d23612822565b73ffffffffffffffffffffffffffffffffffffffff1614155b15611d73576040517fe07c8dba00000000000000000000000000000000000000000000000000000000815260040160405180910390fd5b565b611d7d611bda565b50565b8173ffffffffffffffffffffffffffffffffffffffff166352d1902d6040518163ffffffff1660e01b8152600401602060405180830381865afa925050508015611de857506040513d601f19601f82011682018060405250810190611de5919061377f565b60015b611e2957816040517f4c9c8ce3000000000000000000000000000000000000000000000000000000008152600401611e209190612caa565b60405180910390fd5b7f360894a13ba1a3210667c828492db98dca3e2076cc3735a920a3ca505d382bbc5f1b8114611e8f57806040517faa1d49a4000000000000000000000000000000000000000000000000000000008152600401611e869190612f78565b60405180910390fd5b611e998383612875565b505050565b7f000000000000000000000000000000000000000000000000000000000000000073ffffffffffffffffffffffffffffffffffffffff163073ffffffffffffffffffffffffffffffffffffffff1614611f23576040517fe07c8dba00000000000000000000000000000000000000000000000000000000815260040160405180910390fd5b565b5f5f8473ffffffffffffffffffffffffffffffffffffffff1663a9059cbb8585604051602401611f569291906137aa565b6040516020818303038152906040529060e01b6020820180517bffffffffffffffffffffffffffffffffffffffffffffffffffffffff8381831617835250505050604051611fa49190613815565b5f604051808303815f865af19150503d805f8114611fdd576040519150601f19603f3d011682016040523d82523d5f602084013e611fe2565b606091505b509150915081801561200f57505f8151148061200e57508080602001905181019061200d919061383f565b5b5b61204e576040517f08c379a0000000000000000000000000000000000000000000000000000000008152600401612045906138b4565b60405180910390fd5b5050505050565b60025f5403612090576040517f3ee5aeb500000000000000000000000000000000000000000000000000000000815260040160405180910390fd5b60025f81905550565b5f5f8573ffffffffffffffffffffffffffffffffffffffff166323b872dd8686866040516024016120cc939291906138d2565b6040516020818303038152906040529060e01b6020820180517bffffffffffffffffffffffffffffffffffffffffffffffffffffffff838183161783525050505060405161211a9190613815565b5f604051808303815f865af19150503d805f8114612153576040519150601f19603f3d011682016040523d82523d5f602084013e612158565b606091505b509150915081801561218557505f81511480612184575080806020019051810190612183919061383f565b5b5b6121c4576040517f08c379a00000000000000000000000000000000000000000000000000000000081526004016121bb90613977565b60405180910390fd5b505050505050565b5f5f8473ffffffffffffffffffffffffffffffffffffffff1663095ea7b385856040516024016121fd9291906137aa565b6040516020818303038152906040529060e01b6020820180517bffffffffffffffffffffffffffffffffffffffffffffffffffffffff838183161783525050505060405161224b9190613815565b5f604051808303815f865af19150503d805f8114612284576040519150601f19603f3d011682016040523d82523d5f602084013e612289565b606091505b50915091508180156122b657505f815114806122b55750808060200190518101906122b4919061383f565b5b5b6122f5576040517f08c379a00000000000000000000000000000000000000000000000000000000081526004016122ec906139df565b60405180910390fd5b5050505050565b5f60035f8473ffffffffffffffffffffffffffffffffffffffff1673ffffffffffffffffffffffffffffffffffffffff1681526020019081526020015f205f015f9054906101000a900473ffffffffffffffffffffffffffffffffffffffff1690505b5f73ffffffffffffffffffffffffffffffffffffffff168173ffffffffffffffffffffffffffffffffffffffff1614612482578273ffffffffffffffffffffffffffffffffffffffff168173ffffffffffffffffffffffffffffffffffffffff160315612482578160035f8373ffffffffffffffffffffffffffffffffffffffff1673ffffffffffffffffffffffffffffffffffffffff1681526020019081526020015f206002015f8282546124159190613475565b9250508190555060035f8273ffffffffffffffffffffffffffffffffffffffff1673ffffffffffffffffffffffffffffffffffffffff1681526020019081526020015f205f015f9054906101000a900473ffffffffffffffffffffffffffffffffffffffff16905061235f565b505050565b60015f81905550565b5f61249961270e565b90505f815f015f9054906101000a900473ffffffffffffffffffffffffffffffffffffffff16905082825f015f6101000a81548173ffffffffffffffffffffffffffffffffffffffff021916908373ffffffffffffffffffffffffffffffffffffffff1602179055508273ffffffffffffffffffffffffffffffffffffffff168173ffffffffffffffffffffffffffffffffffffffff167f8be0079c531659141344cd1fd0a4f28419497f9722a3daafe3b4186f6b6457e060405160405180910390a3505050565b5f60035f8373ffffffffffffffffffffffffffffffffffffffff1673ffffffffffffffffffffffffffffffffffffffff1681526020019081526020015f205f015f9054906101000a900473ffffffffffffffffffffffffffffffffffffffff1690505f5f90505b5f73ffffffffffffffffffffffffffffffffffffffff168273ffffffffffffffffffffffffffffffffffffffff161415801561260557506101f481105b15612709578273ffffffffffffffffffffffffffffffffffffffff168273ffffffffffffffffffffffffffffffffffffffff16031561270957600160035f8473ffffffffffffffffffffffffffffffffffffffff1673ffffffffffffffffffffffffffffffffffffffff1681526020019081526020015f206003015f82825461268e9190613475565b9250508190555060035f8373ffffffffffffffffffffffffffffffffffffffff1673ffffffffffffffffffffffffffffffffffffffff1681526020019081526020015f205f015f9054906101000a900473ffffffffffffffffffffffffffffffffffffffff1691508080612701906139fd565b9150506125c8565b505050565b5f7f9016d09d72d40fdae2fd8ceac6b6234c7706214fd39c1cd1e609a0528c199300905090565b5f7ff0c57e16840df040f15088dc2f81fe391c3923bec73e23a9662efc9c229c6a005f1b905090565b6127666128e7565b61279c576040517fd7e6bcf800000000000000000000000000000000000000000000000000000000815260040160405180910390fd5b565b6127a661275e565b5f73ffffffffffffffffffffffffffffffffffffffff168173ffffffffffffffffffffffffffffffffffffffff1603612816575f6040517f1e4fbdf700000000000000000000000000000000000000000000000000000000815260040161280d9190612caa565b60405180910390fd5b61281f81612490565b50565b5f61284e7f360894a13ba1a3210667c828492db98dca3e2076cc3735a920a3ca505d382bbc5f1b612905565b5f015f9054906101000a900473ffffffffffffffffffffffffffffffffffffffff16905090565b61287e8261290e565b8173ffffffffffffffffffffffffffffffffffffffff167fbc7cd75a20ee27fd9adebab32041f755214dbc6bffa90cc0225b39da2e5c2d3b60405160405180910390a25f815111156128da576128d482826129d7565b506128e3565b6128e2612ac8565b5b5050565b5f6128f0611c61565b5f0160089054906101000a900460ff16905090565b5f819050919050565b5f8173ffffffffffffffffffffffffffffffffffffffff163b0361296957806040517f4c9c8ce30000000000000000000000000000000000000000000000000000000081526004016129609190612caa565b60405180910390fd5b806129957f360894a13ba1a3210667c828492db98dca3e2076cc3735a920a3ca505d382bbc5f1b612905565b5f015f6101000a81548173ffffffffffffffffffffffffffffffffffffffff021916908373ffffffffffffffffffffffffffffffffffffffff16021790555050565b60605f6129e48484612b04565b9050808015612a1a57505f6129f7612b18565b1180612a1957505f8473ffffffffffffffffffffffffffffffffffffffff163b115b5b15612a2f57612a27612b1f565b915050612ac2565b8015612a7257836040517f9996b315000000000000000000000000000000000000000000000000000000008152600401612a699190612caa565b60405180910390fd5b5f612a7b612b18565b1115612a8e57612a89612b3c565b612ac0565b6040517fd6bda27500000000000000000000000000000000000000000000000000000000815260040160405180910390fd5b505b92915050565b5f341115612b02576040517fb398979f00000000000000000000000000000000000000000000000000000000815260040160405180910390fd5b565b5f5f5f835160208501865af4905092915050565b5f3d905090565b606060405190503d81523d5f602083013e3d602001810160405290565b6040513d5f823e3d81fd5b5f82825260208201905092915050565b7f4e4f5f4449524543545f53454e440000000000000000000000000000000000005f82015250565b5f612b8b600e83612b47565b9150612b9682612b57565b602082019050919050565b5f6020820190508181035f830152612bb881612b7f565b9050919050565b5f604051905090565b5f5ffd5b5f5ffd5b5f73ffffffffffffffffffffffffffffffffffffffff82169050919050565b5f612bf982612bd0565b9050919050565b612c0981612bef565b8114612c13575f5ffd5b50565b5f81359050612c2481612c00565b92915050565b5f819050919050565b612c3c81612c2a565b8114612c46575f5ffd5b50565b5f81359050612c5781612c33565b92915050565b5f5f60408385031215612c7357612c72612bc8565b5b5f612c8085828601612c16565b9250506020612c9185828601612c49565b9150509250929050565b612ca481612bef565b82525050565b5f602082019050612cbd5f830184612c9b565b92915050565b612ccc81612c2a565b82525050565b5f602082019050612ce55f830184612cc3565b92915050565b5f60208284031215612d0057612cff612bc8565b5b5f612d0d84828501612c16565b91505092915050565b5f608082019050612d295f830187612c9b565b612d366020830186612cc3565b612d436040830185612cc3565b612d506060830184612cc3565b95945050505050565b5f8115159050919050565b612d6d81612d59565b82525050565b5f602082019050612d865f830184612d64565b92915050565b5f5f60408385031215612da257612da1612bc8565b5b5f612daf85828601612c16565b9250506020612dc085828601612c16565b9150509250929050565b5f5ffd5b5f5ffd5b5f601f19601f8301169050919050565b7f4e487b71000000000000000000000000000000000000000000000000000000005f52604160045260245ffd5b612e1882612dd2565b810181811067ffffffffffffffff82111715612e3757612e36612de2565b5b80604052505050565b5f612e49612bbf565b9050612e558282612e0f565b919050565b5f67ffffffffffffffff821115612e7457612e73612de2565b5b612e7d82612dd2565b9050602081019050919050565b828183375f83830152505050565b5f612eaa612ea584612e5a565b612e40565b905082815260208101848484011115612ec657612ec5612dce565b5b612ed1848285612e8a565b509392505050565b5f82601f830112612eed57612eec612dca565b5b8135612efd848260208601612e98565b91505092915050565b5f5f60408385031215612f1c57612f1b612bc8565b5b5f612f2985828601612c16565b925050602083013567ffffffffffffffff811115612f4a57612f49612bcc565b5b612f5685828601612ed9565b9150509250929050565b5f819050919050565b612f7281612f60565b82525050565b5f602082019050612f8b5f830184612f69565b92915050565b5f5f5f60608486031215612fa857612fa7612bc8565b5b5f612fb586828701612c16565b9350506020612fc686828701612c49565b9250506040612fd786828701612c16565b9150509250925092565b5f81519050919050565b5f82825260208201905092915050565b5f819050602082019050919050565b61301381612bef565b82525050565b5f613024838361300a565b60208301905092915050565b5f602082019050919050565b5f61304682612fe1565b6130508185612feb565b935061305b83612ffb565b805f5b8381101561308b5781516130728882613019565b975061307d83613030565b92505060018101905061305e565b5085935050505092915050565b5f60a0820190506130ab5f830188612c9b565b6130b86020830187612cc3565b6130c56040830186612cc3565b6130d26060830185612cc3565b81810360808301526130e4818461303c565b90509695505050505050565b5f6020820190508181035f830152613108818461303c565b905092915050565b5f81519050919050565b8281835e5f83830152505050565b5f61313282613110565b61313c8185612b47565b935061314c81856020860161311a565b61315581612dd2565b840191505092915050565b5f6020820190508181035f8301526131788184613128565b905092915050565b61318981612d59565b8114613193575f5ffd5b50565b5f813590506131a481613180565b92915050565b5f602082840312156131bf576131be612bc8565b5b5f6131cc84828501613196565b91505092915050565b7f5a45524f000000000000000000000000000000000000000000000000000000005f82015250565b5f613209600483612b47565b9150613214826131d5565b602082019050919050565b5f6020820190508181035f830152613236816131fd565b9050919050565b5f819050919050565b5f67ffffffffffffffff82169050919050565b5f819050919050565b5f61327c6132776132728461323d565b613259565b613246565b9050919050565b61328c81613262565b82525050565b5f6020820190506132a55f830184613283565b92915050565b7f50415553455f52454348415247452e00000000000000000000000000000000005f82015250565b5f6132df600f83612b47565b91506132ea826132ab565b602082019050919050565b5f6020820190508181035f83015261330c816132d3565b9050919050565b7f5245434f4d4d454e444154494f4e5f49535f52455155495245445f52454348415f8201527f5247452e00000000000000000000000000000000000000000000000000000000602082015250565b5f61336d602483612b47565b915061337882613313565b604082019050919050565b5f6020820190508181035f83015261339a81613361565b9050919050565b5f815190506133af81612c33565b92915050565b5f602082840312156133ca576133c9612bc8565b5b5f6133d7848285016133a1565b91505092915050565b7f56454e55535f4d494e545f4641494c45440000000000000000000000000000005f82015250565b5f613414601183612b47565b915061341f826133e0565b602082019050919050565b5f6020820190508181035f83015261344181613408565b9050919050565b7f4e487b71000000000000000000000000000000000000000000000000000000005f52601160045260245ffd5b5f61347f82612c2a565b915061348a83612c2a565b92508282019050808211156134a2576134a1613448565b5b92915050565b5f819050919050565b5f6134cb6134c66134c1846134a8565b613259565b612c2a565b9050919050565b6134db816134b1565b82525050565b50565b5f6134ef5f83612b47565b91506134fa826134e1565b5f82019050919050565b5f60c0820190506135175f830188612c9b565b6135246020830187612c9b565b6135316040830186612cc3565b61353e6060830185612c9b565b61354b60808301846134d2565b81810360a083015261355c816134e4565b90509695505050505050565b7f5a45524f5f414444524553532e000000000000000000000000000000000000005f82015250565b5f61359c600d83612b47565b91506135a782613568565b602082019050919050565b5f6020820190508181035f8301526135c981613590565b9050919050565b7f494e56414c49445f5245434f4d4d454e4445522e0000000000000000000000005f82015250565b5f613604601483612b47565b915061360f826135d0565b602082019050919050565b5f6020820190508181035f830152613631816135f8565b9050919050565b7f5245434f4d4d454e444154494f4e5f49535f52455155495245445f52454645525f8201527f52414c2e00000000000000000000000000000000000000000000000000000000602082015250565b5f613692602483612b47565b915061369d82613638565b604082019050919050565b5f6020820190508181035f8301526136bf81613686565b9050919050565b7f494e56495445525f414c52454144595f4558495354532e0000000000000000005f82015250565b5f6136fa601783612b47565b9150613705826136c6565b602082019050919050565b5f6020820190508181035f830152613727816136ee565b9050919050565b5f6040820190506137415f830185612c9b565b61374e6020830184612c9b565b9392505050565b61375e81612f60565b8114613768575f5ffd5b50565b5f8151905061377981613755565b92915050565b5f6020828403121561379457613793612bc8565b5b5f6137a18482850161376b565b91505092915050565b5f6040820190506137bd5f830185612c9b565b6137ca6020830184612cc3565b9392505050565b5f81519050919050565b5f81905092915050565b5f6137ef826137d1565b6137f981856137db565b935061380981856020860161311a565b80840191505092915050565b5f61382082846137e5565b915081905092915050565b5f8151905061383981613180565b92915050565b5f6020828403121561385457613853612bc8565b5b5f6138618482850161382b565b91505092915050565b7f5472616e7366657248656c7065723a205452414e534645525f4641494c4544005f82015250565b5f61389e601f83612b47565b91506138a98261386a565b602082019050919050565b5f6020820190508181035f8301526138cb81613892565b9050919050565b5f6060820190506138e55f830186612c9b565b6138f26020830185612c9b565b6138ff6040830184612cc3565b949350505050565b7f5472616e7366657248656c7065723a205452414e534645525f46524f4d5f46415f8201527f494c454400000000000000000000000000000000000000000000000000000000602082015250565b5f613961602483612b47565b915061396c82613907565b604082019050919050565b5f6020820190508181035f83015261398e81613955565b9050919050565b7f5472616e7366657248656c7065723a20415050524f56455f4641494c454400005f82015250565b5f6139c9601e83612b47565b91506139d482613995565b602082019050919050565b5f6020820190508181035f8301526139f6816139bd565b9050919050565b5f613a0782612c2a565b91507fffffffffffffffffffffffffffffffffffffffffffffffffffffffffffffffff8203613a3957613a38613448565b5b60018201905091905056fea26469706673582212203762999cdf342ffc43dc661a45d4bed93fdb3bdccee29877e602fdfc705390d564736f6c634300081e0033","linkReferences":{}},"methodIdentifiers":{"FIXED_AMOUNT()":"eccf1694","MAX_REFERRAL_DEPTH()":"89e59ea0","UPGRADE_INTERFACE_VERSION()":"ad3cb1cc","USDT()":"c54e44eb","VENUS()":"1a78ccc1","directReferrals(address,uint256)":"05ad3935","emergencyWithdraw(address,uint256,address)":"551512de","getAddrCollection()":"a2b0332b","getAddrCollectionLength()":"4d38857c","getDirectReferrals(address)":"d2c8e0e5","getUserInfo(address)":"6386c1c7","initialCode()":"10baf089","initialize(address,address)":"485cc955","isAddCollection(address)":"39fe3b99","owner()":"8da5cb5b","pause()":"8456cb59","proxiableUUID()":"52d1902d","recipient()":"66d003ac","referral(address)":"7247959a","renounceOwnership()":"715018a6","setPause(bool)":"bedb86fb","setRecipient(address)":"3bbed4a0","singleRecharge()":"689d2a82","totalPerformance()":"06876dbe","transferOwnership(address)":"f2fde38b","upgradeToAndCall(address,bytes)":"4f1ef286","userInfo(address)":"1959a002","validInvitationCode(address)":"3c4e9d74"},"id":33}