{"abi":[{"type":"receive","stateMutability":"payable"},{"type":"function","name":"FIXED_AMOUNT","inputs":[],"outputs":[{"name":"","type":"uint256","internalType":"uint256"}],"stateMutability":"view"},{"type":"function","name":"MAX_REFERRAL_DEPTH","inputs":[],"outputs":[{"name":"","type":"uint256","internalType":"uint256"}],"stateMutability":"view"},{"type":"function","name":"UPGRADE_INTERFACE_VERSION","inputs":[],"outputs":[{"name":"","type":"string","internalType":"string"}],"stateMutability":"view"},{"type":"function","name":"USDT","inputs":[],"outputs":[{"name":"","type":"address","internalType":"address"}],"stateMutability":"view"},{"type":"function","name":"VENUS","inputs":[],"outputs":[{"name":"","type":"address","internalType":"address"}],"stateMutability":"view"},{"type":"function","name":"directReferrals","inputs":[{"name":"","type":"address","internalType":"address"},{"name":"","type":"uint256","internalType":"uint256"}],"outputs":[{"name":"","type":"address","internalType":"address"}],"stateMutability":"view"},{"type":"function","name":"emergencyWithdraw","inputs":[{"name":"token","type":"address","internalType":"address"},{"name":"amount","type":"uint256","internalType":"uint256"},{"name":"to","type":"address","internalType":"address"}],"outputs":[],"stateMutability":"nonpayable"},{"type":"function","name":"getAddrCollection","inputs":[],"outputs":[{"name":"","type":"address[]","internalType":"address[]"}],"stateMutability":"view"},{"type":"function","name":"getAddrCollectionLength","inputs":[],"outputs":[{"name":"","type":"uint256","internalType":"uint256"}],"stateMutability":"view"},{"type":"function","name":"getDirectReferrals","inputs":[{"name":"user","type":"address","internalType":"address"}],"outputs":[{"name":"","type":"address[]","internalType":"address[]"}],"stateMutability":"view"},{"type":"function","name":"getDirectReferralsInfo","inputs":[{"name":"user","type":"address","internalType":"address"}],"outputs":[{"name":"","type":"tuple[]","internalType":"struct Recharge.DirectReferralsInfo[]","components":[{"name":"referral","type":"address","internalType":"address"},{"name":"performance","type":"uint256","internalType":"uint256"}]}],"stateMutability":"view"},{"type":"function","name":"getUserInfo","inputs":[{"name":"user","type":"address","internalType":"address"}],"outputs":[{"name":"recommender","type":"address","internalType":"address"},{"name":"staking","type":"uint256","internalType":"uint256"},{"name":"performance","type":"uint256","internalType":"uint256"},{"name":"referralNum","type":"uint256","internalType":"uint256"},{"name":"referrals","type":"address[]","internalType":"address[]"}],"stateMutability":"view"},{"type":"function","name":"initialCode","inputs":[],"outputs":[{"name":"","type":"address","internalType":"address"}],"stateMutability":"view"},{"type":"function","name":"initialize","inputs":[{"name":"_recipient","type":"address","internalType":"address"},{"name":"_initialCode","type":"address","internalType":"address"},{"name":"_nfts","type":"address","internalType":"address"}],"outputs":[],"stateMutability":"nonpayable"},{"type":"function","name":"isAddCollection","inputs":[{"name":"","type":"address","internalType":"address"}],"outputs":[{"name":"","type":"bool","internalType":"bool"}],"stateMutability":"view"},{"type":"function","name":"nfts","inputs":[],"outputs":[{"name":"","type":"address","internalType":"address"}],"stateMutability":"view"},{"type":"function","name":"owner","inputs":[],"outputs":[{"name":"","type":"address","internalType":"address"}],"stateMutability":"view"},{"type":"function","name":"pause","inputs":[],"outputs":[{"name":"","type":"bool","internalType":"bool"}],"stateMutability":"view"},{"type":"function","name":"proxiableUUID","inputs":[],"outputs":[{"name":"","type":"bytes32","internalType":"bytes32"}],"stateMutability":"view"},{"type":"function","name":"recipient","inputs":[],"outputs":[{"name":"","type":"address","internalType":"address"}],"stateMutability":"view"},{"type":"function","name":"referral","inputs":[{"name":"recommender","type":"address","internalType":"address"}],"outputs":[],"stateMutability":"nonpayable"},{"type":"function","name":"renounceOwnership","inputs":[],"outputs":[],"stateMutability":"nonpayable"},{"type":"function","name":"setNfts","inputs":[{"name":"_nfts","type":"address","internalType":"address"}],"outputs":[],"stateMutability":"nonpayable"},{"type":"function","name":"setPause","inputs":[{"name":"isPause","type":"bool","internalType":"bool"}],"outputs":[],"stateMutability":"nonpayable"},{"type":"function","name":"setRecipient","inputs":[{"name":"_recipient","type":"address","internalType":"address"}],"outputs":[],"stateMutability":"nonpayable"},{"type":"function","name":"singleRecharge","inputs":[],"outputs":[],"stateMutability":"nonpayable"},{"type":"function","name":"totalPerformance","inputs":[],"outputs":[{"name":"","type":"uint256","internalType":"uint256"}],"stateMutability":"view"},{"type":"function","name":"transferOwnership","inputs":[{"name":"newOwner","type":"address","internalType":"address"}],"outputs":[],"stateMutability":"nonpayable"},{"type":"function","name":"upgradeToAndCall","inputs":[{"name":"newImplementation","type":"address","internalType":"address"},{"name":"data","type":"bytes","internalType":"bytes"}],"outputs":[],"stateMutability":"payable"},{"type":"function","name":"userInfo","inputs":[{"name":"","type":"address","internalType":"address"}],"outputs":[{"name":"recommender","type":"address","internalType":"address"},{"name":"staking","type":"uint256","internalType":"uint256"},{"name":"performance","type":"uint256","internalType":"uint256"},{"name":"referralNum","type":"uint256","internalType":"uint256"}],"stateMutability":"view"},{"type":"function","name":"validInvitationCode","inputs":[{"name":"user","type":"address","internalType":"address"}],"outputs":[{"name":"","type":"bool","internalType":"bool"}],"stateMutability":"view"},{"type":"event","name":"Initialized","inputs":[{"name":"version","type":"uint64","indexed":false,"internalType":"uint64"}],"anonymous":false},{"type":"event","name":"MultiRecharge","inputs":[{"name":"user","type":"address","indexed":false,"internalType":"address"},{"name":"token0","type":"address","indexed":false,"internalType":"address"},{"name":"amount0","type":"uint256","indexed":false,"internalType":"uint256"},{"name":"token1","type":"address","indexed":false,"internalType":"address"},{"name":"amount1","type":"uint256","indexed":false,"internalType":"uint256"},{"name":"remark","type":"string","indexed":false,"internalType":"string"}],"anonymous":false},{"type":"event","name":"OwnershipTransferred","inputs":[{"name":"previousOwner","type":"address","indexed":true,"internalType":"address"},{"name":"newOwner","type":"address","indexed":true,"internalType":"address"}],"anonymous":false},{"type":"event","name":"Referral","inputs":[{"name":"recommender","type":"address","indexed":false,"internalType":"address"},{"name":"referred","type":"address","indexed":false,"internalType":"address"}],"anonymous":false},{"type":"event","name":"Upgraded","inputs":[{"name":"implementation","type":"address","indexed":true,"internalType":"address"}],"anonymous":false},{"type":"error","name":"AddressEmptyCode","inputs":[{"name":"target","type":"address","internalType":"address"}]},{"type":"error","name":"ERC1967InvalidImplementation","inputs":[{"name":"implementation","type":"address","internalType":"address"}]},{"type":"error","name":"ERC1967NonPayable","inputs":[]},{"type":"error","name":"FailedCall","inputs":[]},{"type":"error","name":"InvalidInitialization","inputs":[]},{"type":"error","name":"NotInitializing","inputs":[]},{"type":"error","name":"OwnableInvalidOwner","inputs":[{"name":"owner","type":"address","internalType":"address"}]},{"type":"error","name":"OwnableUnauthorizedAccount","inputs":[{"name":"account","type":"address","internalType":"address"}]},{"type":"error","name":"ReentrancyGuardReentrantCall","inputs":[]},{"type":"error","name":"UUPSUnauthorizedCallContext","inputs":[]},{"type":"error","name":"UUPSUnsupportedProxiableUUID","inputs":[{"name":"slot","type":"bytes32","internalType":"bytes32"}]}],"bytecode":{"object":"0x60a06040523073ffffffffffffffffffffffffffffffffffffffff1660809073ffffffffffffffffffffffffffffffffffffffff168152503480156041575f5ffd5b5060015f81905550608051613f2a61006f5f395f8181611fa201528181611ff701526121b10152613f2a5ff3fe6080604052600436106101db575f3560e01c8063689d2a8211610101578063ad3cb1cc11610094578063d2c8e0e511610063578063d2c8e0e5146106ac578063ec18ac79146106e8578063eccf169414610724578063f2fde38b1461074e5761021b565b8063ad3cb1cc14610608578063bedb86fb14610632578063c0c53b8b1461065a578063c54e44eb146106825761021b565b80638456cb59116100d05780638456cb591461056057806389e59ea01461058a5780638da5cb5b146105b4578063a2b0332b146105de5761021b565b8063689d2a82146104e4578063715018a6146104fa5780637247959a1461051057806375214581146105385761021b565b80633bbed4a01161017957806352d1902d1161014857806352d1902d14610428578063551512de146104525780636386c1c71461047a57806366d003ac146104ba5761021b565b80633bbed4a01461037e5780633c4e9d74146103a65780634d38857c146103e25780634f1ef2861461040c5761021b565b80631714f2e0116101b55780631714f2e0146102af5780631959a002146102d95780631a78ccc11461031857806339fe3b99146103425761021b565b806305ad39351461021f57806306876dbe1461025b57806310baf089146102855761021b565b3661021b576040517f08c379a000000000000000000000000000000000000000000000000000000000815260040161021290612f0e565b60405180910390fd5b5f5ffd5b34801561022a575f5ffd5b5061024560048036038101906102409190612fca565b610776565b6040516102529190613017565b60405180910390f35b348015610266575f5ffd5b5061026f6107be565b60405161027c919061303f565b60405180910390f35b348015610290575f5ffd5b506102996107c4565b6040516102a69190613017565b60405180910390f35b3480156102ba575f5ffd5b506102c36107e9565b6040516102d09190613017565b60405180910390f35b3480156102e4575f5ffd5b506102ff60048036038101906102fa9190613058565b61080e565b60405161030f9493929190613083565b60405180910390f35b348015610323575f5ffd5b5061032c610859565b6040516103399190613017565b60405180910390f35b34801561034d575f5ffd5b5061036860048036038101906103639190613058565b610871565b60405161037591906130e0565b60405180910390f35b348015610389575f5ffd5b506103a4600480360381019061039f9190613058565b61088e565b005b3480156103b1575f5ffd5b506103cc60048036038101906103c79190613058565b610947565b6040516103d991906130e0565b60405180910390f35b3480156103ed575f5ffd5b506103f6610a3b565b604051610403919061303f565b60405180910390f35b61042660048036038101906104219190613235565b610a47565b005b348015610433575f5ffd5b5061043c610a66565b60405161044991906132a7565b60405180910390f35b34801561045d575f5ffd5b50610478600480360381019061047391906132c0565b610a97565b005b348015610485575f5ffd5b506104a0600480360381019061049b9190613058565b610aaf565b6040516104b19594939291906133c7565b60405180910390f35b3480156104c5575f5ffd5b506104ce610c5d565b6040516104db9190613017565b60405180910390f35b3480156104ef575f5ffd5b506104f8610c82565b005b348015610505575f5ffd5b5061050e6111f6565b005b34801561051b575f5ffd5b5061053660048036038101906105319190613058565b611209565b005b348015610543575f5ffd5b5061055e60048036038101906105599190613058565b611782565b005b34801561056b575f5ffd5b5061057461183b565b60405161058191906130e0565b60405180910390f35b348015610595575f5ffd5b5061059e61184d565b6040516105ab919061303f565b60405180910390f35b3480156105bf575f5ffd5b506105c8611853565b6040516105d59190613017565b60405180910390f35b3480156105e9575f5ffd5b506105f2611888565b6040516105ff919061341f565b60405180910390f35b348015610613575f5ffd5b5061061c611913565b604051610629919061348f565b60405180910390f35b34801561063d575f5ffd5b50610658600480360381019061065391906134d9565b61194c565b005b348015610665575f5ffd5b50610680600480360381019061067b9190613504565b611970565b005b34801561068d575f5ffd5b50610696611bba565b6040516106a39190613017565b60405180910390f35b3480156106b7575f5ffd5b506106d260048036038101906106cd9190613058565b611bd2565b6040516106df919061341f565b60405180910390f35b3480156106f3575f5ffd5b5061070e60048036038101906107099190613058565b611c9a565b60405161071b9190613638565b60405180910390f35b34801561072f575f5ffd5b50610738611e88565b604051610745919061303f565b60405180910390f35b348015610759575f5ffd5b50610774600480360381019061076f9190613058565b611e95565b005b6005602052815f5260405f20818154811061078f575f80fd5b905f5260205f20015f915091509054906101000a900473ffffffffffffffffffffffffffffffffffffffff1681565b60065481565b60025f9054906101000a900473ffffffffffffffffffffffffffffffffffffffff1681565b60035f9054906101000a900473ffffffffffffffffffffffffffffffffffffffff1681565b6004602052805f5260405f205f91509050805f015f9054906101000a900473ffffffffffffffffffffffffffffffffffffffff16908060010154908060020154908060030154905084565b73fd5840cd36d94d7229439859c0112a4185bc025581565b6008602052805f5260405f205f915054906101000a900460ff1681565b610896611f19565b5f73ffffffffffffffffffffffffffffffffffffffff168173ffffffffffffffffffffffffffffffffffffffff1603610904576040517f08c379a00000000000000000000000000000000000000000000000000000000081526004016108fb906136a2565b60405180910390fd5b8060015f6101000a81548173ffffffffffffffffffffffffffffffffffffffff021916908373ffffffffffffffffffffffffffffffffffffffff16021790555050565b5f60025f9054906101000a900473ffffffffffffffffffffffffffffffffffffffff1673ffffffffffffffffffffffffffffffffffffffff168273ffffffffffffffffffffffffffffffffffffffff16036109a55760019050610a36565b5f73ffffffffffffffffffffffffffffffffffffffff1660045f8473ffffffffffffffffffffffffffffffffffffffff1673ffffffffffffffffffffffffffffffffffffffff1681526020019081526020015f205f015f9054906101000a900473ffffffffffffffffffffffffffffffffffffffff1673ffffffffffffffffffffffffffffffffffffffff16141590505b919050565b5f600780549050905090565b610a4f611fa0565b610a5882612086565b610a628282612091565b5050565b5f610a6f6121af565b7f360894a13ba1a3210667c828492db98dca3e2076cc3735a920a3ca505d382bbc5f1b905090565b610a9f611f19565b610aaa838284612236565b505050565b5f5f5f5f60605f60045f8873ffffffffffffffffffffffffffffffffffffffff1673ffffffffffffffffffffffffffffffffffffffff1681526020019081526020015f206040518060800160405290815f82015f9054906101000a900473ffffffffffffffffffffffffffffffffffffffff1673ffffffffffffffffffffffffffffffffffffffff1673ffffffffffffffffffffffffffffffffffffffff168152602001600182015481526020016002820154815260200160038201548152505090505f60055f8973ffffffffffffffffffffffffffffffffffffffff1673ffffffffffffffffffffffffffffffffffffffff1681526020019081526020015f20805480602002602001604051908101604052809291908181526020018280548015610c2d57602002820191905f5260205f20905b815f9054906101000a900473ffffffffffffffffffffffffffffffffffffffff1673ffffffffffffffffffffffffffffffffffffffff1681526020019060010190808311610be4575b50505050509050815f01518260200151836040015184606001518496509650965096509650505091939590929450565b60015f9054906101000a900473ffffffffffffffffffffffffffffffffffffffff1681565b610c8a612366565b60095f9054906101000a900460ff1615610cd9576040517f08c379a0000000000000000000000000000000000000000000000000000000008152600401610cd09061370a565b60405180910390fd5b5f73ffffffffffffffffffffffffffffffffffffffff1660045f3373ffffffffffffffffffffffffffffffffffffffff1673ffffffffffffffffffffffffffffffffffffffff1681526020019081526020015f205f015f9054906101000a900473ffffffffffffffffffffffffffffffffffffffff1673ffffffffffffffffffffffffffffffffffffffff1603610da5576040517f08c379a0000000000000000000000000000000000000000000000000000000008152600401610d9c90613798565b60405180910390fd5b610dce7355d398326f99059ff775485246999027b31979553330681b1ae4d6e2ef5000006123aa565b610e017355d398326f99059ff775485246999027b319795573fd5840cd36d94d7229439859c0112a4185bc02555f6124dd565b610e3d7355d398326f99059ff775485246999027b319795573fd5840cd36d94d7229439859c0112a4185bc0255681b1ae4d6e2ef5000006124dd565b5f73fd5840cd36d94d7229439859c0112a4185bc025573ffffffffffffffffffffffffffffffffffffffff1663a0712d68681b1ae4d6e2ef5000006040518263ffffffff1660e01b8152600401610e94919061303f565b6020604051808303815f875af1158015610eb0573d5f5f3e3d5ffd5b505050506040513d601f19601f82011682018060405250810190610ed491906137ca565b14610f14576040517f08c379a0000000000000000000000000000000000000000000000000000000008152600401610f0b9061383f565b60405180910390fd5b5f73fd5840cd36d94d7229439859c0112a4185bc025573ffffffffffffffffffffffffffffffffffffffff166370a08231306040518263ffffffff1660e01b8152600401610f629190613017565b602060405180830381865afa158015610f7d573d5f5f3e3d5ffd5b505050506040513d601f19601f82011682018060405250810190610fa191906137ca565b9050610fe373fd5840cd36d94d7229439859c0112a4185bc025560015f9054906101000a900473ffffffffffffffffffffffffffffffffffffffff1683612236565b681b1ae4d6e2ef50000060045f3373ffffffffffffffffffffffffffffffffffffffff1673ffffffffffffffffffffffffffffffffffffffff1681526020019081526020015f206001015f82825461103b919061388a565b92505081905550681b1ae4d6e2ef50000060065f82825461105c919061388a565b9250508190555060035f9054906101000a900473ffffffffffffffffffffffffffffffffffffffff1673ffffffffffffffffffffffffffffffffffffffff16636a627842336040518263ffffffff1660e01b81526004016110bd9190613017565b5f604051808303815f87803b1580156110d4575f5ffd5b505af11580156110e6573d5f5f3e3d5ffd5b505050505f73ffffffffffffffffffffffffffffffffffffffff1660045f3373ffffffffffffffffffffffffffffffffffffffff1673ffffffffffffffffffffffffffffffffffffffff1681526020019081526020015f205f015f9054906101000a900473ffffffffffffffffffffffffffffffffffffffff1673ffffffffffffffffffffffffffffffffffffffff161461118f5761118e33681b1ae4d6e2ef50000061260d565b5b7f92bfe9b63523d7c8baff8387323dd4c1c8ccd48705d9c91e19160ebcabb053b8337355d398326f99059ff775485246999027b3197955681b1ae4d6e2ef5000005f5f6040516111e3959493929190613922565b60405180910390a1506111f4612798565b565b6111fe611f19565b6112075f6127a1565b565b60095f9054906101000a900460ff1615611258576040517f08c379a000000000000000000000000000000000000000000000000000000000815260040161124f9061370a565b60405180910390fd5b5f73ffffffffffffffffffffffffffffffffffffffff168173ffffffffffffffffffffffffffffffffffffffff16036112c6576040517f08c379a00000000000000000000000000000000000000000000000000000000081526004016112bd906139d0565b60405180910390fd5b3373ffffffffffffffffffffffffffffffffffffffff168173ffffffffffffffffffffffffffffffffffffffff1603611334576040517f08c379a000000000000000000000000000000000000000000000000000000000815260040161132b90613a38565b60405180910390fd5b60025f9054906101000a900473ffffffffffffffffffffffffffffffffffffffff1673ffffffffffffffffffffffffffffffffffffffff168173ffffffffffffffffffffffffffffffffffffffff1614611455575f73ffffffffffffffffffffffffffffffffffffffff1660045f8373ffffffffffffffffffffffffffffffffffffffff1673ffffffffffffffffffffffffffffffffffffffff1681526020019081526020015f205f015f9054906101000a900473ffffffffffffffffffffffffffffffffffffffff1673ffffffffffffffffffffffffffffffffffffffff1603611454576040517f08c379a000000000000000000000000000000000000000000000000000000000815260040161144b90613ac6565b60405180910390fd5b5b5f73ffffffffffffffffffffffffffffffffffffffff1660045f3373ffffffffffffffffffffffffffffffffffffffff1673ffffffffffffffffffffffffffffffffffffffff1681526020019081526020015f205f015f9054906101000a900473ffffffffffffffffffffffffffffffffffffffff1673ffffffffffffffffffffffffffffffffffffffff1614611521576040517f08c379a000000000000000000000000000000000000000000000000000000000815260040161151890613b2e565b60405180910390fd5b8060045f3373ffffffffffffffffffffffffffffffffffffffff1673ffffffffffffffffffffffffffffffffffffffff1681526020019081526020015f205f015f6101000a81548173ffffffffffffffffffffffffffffffffffffffff021916908373ffffffffffffffffffffffffffffffffffffffff16021790555060055f8273ffffffffffffffffffffffffffffffffffffffff1673ffffffffffffffffffffffffffffffffffffffff1681526020019081526020015f2033908060018154018082558091505060019003905f5260205f20015f9091909190916101000a81548173ffffffffffffffffffffffffffffffffffffffff021916908373ffffffffffffffffffffffffffffffffffffffff16021790555060085f3373ffffffffffffffffffffffffffffffffffffffff1673ffffffffffffffffffffffffffffffffffffffff1681526020019081526020015f205f9054906101000a900460ff1661173d57600733908060018154018082558091505060019003905f5260205f20015f9091909190916101000a81548173ffffffffffffffffffffffffffffffffffffffff021916908373ffffffffffffffffffffffffffffffffffffffff160217905550600160085f3373ffffffffffffffffffffffffffffffffffffffff1673ffffffffffffffffffffffffffffffffffffffff1681526020019081526020015f205f6101000a81548160ff0219169083151502179055505b61174633612872565b7f9d05414fb79fac216c15606de5cc06664e91a254e4d5f57664d5f1beaf7fb7ef8133604051611777929190613b4c565b60405180910390a150565b61178a611f19565b5f73ffffffffffffffffffffffffffffffffffffffff168173ffffffffffffffffffffffffffffffffffffffff16036117f8576040517f08c379a00000000000000000000000000000000000000000000000000000000081526004016117ef906139d0565b60405180910390fd5b8060035f6101000a81548173ffffffffffffffffffffffffffffffffffffffff021916908373ffffffffffffffffffffffffffffffffffffffff16021790555050565b60095f9054906101000a900460ff1681565b6101f481565b5f5f61185d612a1f565b9050805f015f9054906101000a900473ffffffffffffffffffffffffffffffffffffffff1691505090565b6060600780548060200260200160405190810160405280929190818152602001828054801561190957602002820191905f5260205f20905b815f9054906101000a900473ffffffffffffffffffffffffffffffffffffffff1673ffffffffffffffffffffffffffffffffffffffff16815260200190600101908083116118c0575b5050505050905090565b6040518060400160405280600581526020017f352e302e3000000000000000000000000000000000000000000000000000000081525081565b611954611f19565b8060095f6101000a81548160ff02191690831515021790555050565b5f611979612a46565b90505f815f0160089054906101000a900460ff161590505f825f015f9054906101000a900467ffffffffffffffff1690505f5f8267ffffffffffffffff161480156119c15750825b90505f60018367ffffffffffffffff161480156119f457505f3073ffffffffffffffffffffffffffffffffffffffff163b145b905081158015611a02575080155b15611a39576040517ff92ee8a900000000000000000000000000000000000000000000000000000000815260040160405180910390fd5b6001855f015f6101000a81548167ffffffffffffffff021916908367ffffffffffffffff1602179055508315611a86576001855f0160086101000a81548160ff0219169083151502179055505b611a96611a91612a59565b612a60565b8760015f6101000a81548173ffffffffffffffffffffffffffffffffffffffff021916908373ffffffffffffffffffffffffffffffffffffffff1602179055508660025f6101000a81548173ffffffffffffffffffffffffffffffffffffffff021916908373ffffffffffffffffffffffffffffffffffffffff1602179055508560035f6101000a81548173ffffffffffffffffffffffffffffffffffffffff021916908373ffffffffffffffffffffffffffffffffffffffff1602179055508315611bb0575f855f0160086101000a81548160ff0219169083151502179055507fc7f505b2f371ae2175ee4913f4499e1f2633a7b5936321eed1cdaeb6115181d26001604051611ba79190613bbf565b60405180910390a15b5050505050505050565b7355d398326f99059ff775485246999027b319795581565b606060055f8373ffffffffffffffffffffffffffffffffffffffff1673ffffffffffffffffffffffffffffffffffffffff1681526020019081526020015f20805480602002602001604051908101604052809291908181526020018280548015611c8e57602002820191905f5260205f20905b815f9054906101000a900473ffffffffffffffffffffffffffffffffffffffff1673ffffffffffffffffffffffffffffffffffffffff1681526020019060010190808311611c45575b50505050509050919050565b60605f60055f8473ffffffffffffffffffffffffffffffffffffffff1673ffffffffffffffffffffffffffffffffffffffff1681526020019081526020015f20805480602002602001604051908101604052809291908181526020018280548015611d5757602002820191905f5260205f20905b815f9054906101000a900473ffffffffffffffffffffffffffffffffffffffff1673ffffffffffffffffffffffffffffffffffffffff1681526020019060010190808311611d0e575b505050505090505f815190505f8167ffffffffffffffff811115611d7e57611d7d613111565b5b604051908082528060200260200182016040528015611db757816020015b611da4612e86565b815260200190600190039081611d9c5790505b5090505f5f90505b82811015611e7c575f848281518110611ddb57611dda613bd8565b5b6020026020010151905060405180604001604052808273ffffffffffffffffffffffffffffffffffffffff16815260200160045f8473ffffffffffffffffffffffffffffffffffffffff1673ffffffffffffffffffffffffffffffffffffffff1681526020019081526020015f2060020154815250838381518110611e6357611e62613bd8565b5b6020026020010181905250508080600101915050611dbf565b50809350505050919050565b681b1ae4d6e2ef50000081565b611e9d611f19565b5f73ffffffffffffffffffffffffffffffffffffffff168173ffffffffffffffffffffffffffffffffffffffff1603611f0d575f6040517f1e4fbdf7000000000000000000000000000000000000000000000000000000008152600401611f049190613017565b60405180910390fd5b611f16816127a1565b50565b611f21612a59565b73ffffffffffffffffffffffffffffffffffffffff16611f3f611853565b73ffffffffffffffffffffffffffffffffffffffff1614611f9e57611f62612a59565b6040517f118cdaa7000000000000000000000000000000000000000000000000000000008152600401611f959190613017565b60405180910390fd5b565b7f000000000000000000000000000000000000000000000000000000000000000073ffffffffffffffffffffffffffffffffffffffff163073ffffffffffffffffffffffffffffffffffffffff16148061204d57507f000000000000000000000000000000000000000000000000000000000000000073ffffffffffffffffffffffffffffffffffffffff16612034612a74565b73ffffffffffffffffffffffffffffffffffffffff1614155b15612084576040517fe07c8dba00000000000000000000000000000000000000000000000000000000815260040160405180910390fd5b565b61208e611f19565b50565b8173ffffffffffffffffffffffffffffffffffffffff166352d1902d6040518163ffffffff1660e01b8152600401602060405180830381865afa9250505080156120f957506040513d601f19601f820116820180604052508101906120f69190613c2f565b60015b61213a57816040517f4c9c8ce30000000000000000000000000000000000000000000000000000000081526004016121319190613017565b60405180910390fd5b7f360894a13ba1a3210667c828492db98dca3e2076cc3735a920a3ca505d382bbc5f1b81146121a057806040517faa1d49a400000000000000000000000000000000000000000000000000000000815260040161219791906132a7565b60405180910390fd5b6121aa8383612ac7565b505050565b7f000000000000000000000000000000000000000000000000000000000000000073ffffffffffffffffffffffffffffffffffffffff163073ffffffffffffffffffffffffffffffffffffffff1614612234576040517fe07c8dba00000000000000000000000000000000000000000000000000000000815260040160405180910390fd5b565b5f5f8473ffffffffffffffffffffffffffffffffffffffff1663a9059cbb8585604051602401612267929190613c5a565b6040516020818303038152906040529060e01b6020820180517bffffffffffffffffffffffffffffffffffffffffffffffffffffffff83818316178352505050506040516122b59190613cc5565b5f604051808303815f865af19150503d805f81146122ee576040519150601f19603f3d011682016040523d82523d5f602084013e6122f3565b606091505b509150915081801561232057505f8151148061231f57508080602001905181019061231e9190613cef565b5b5b61235f576040517f08c379a000000000000000000000000000000000000000000000000000000000815260040161235690613d64565b60405180910390fd5b5050505050565b60025f54036123a1576040517f3ee5aeb500000000000000000000000000000000000000000000000000000000815260040160405180910390fd5b60025f81905550565b5f5f8573ffffffffffffffffffffffffffffffffffffffff166323b872dd8686866040516024016123dd93929190613d82565b6040516020818303038152906040529060e01b6020820180517bffffffffffffffffffffffffffffffffffffffffffffffffffffffff838183161783525050505060405161242b9190613cc5565b5f604051808303815f865af19150503d805f8114612464576040519150601f19603f3d011682016040523d82523d5f602084013e612469565b606091505b509150915081801561249657505f815114806124955750808060200190518101906124949190613cef565b5b5b6124d5576040517f08c379a00000000000000000000000000000000000000000000000000000000081526004016124cc90613e27565b60405180910390fd5b505050505050565b5f5f8473ffffffffffffffffffffffffffffffffffffffff1663095ea7b3858560405160240161250e929190613c5a565b6040516020818303038152906040529060e01b6020820180517bffffffffffffffffffffffffffffffffffffffffffffffffffffffff838183161783525050505060405161255c9190613cc5565b5f604051808303815f865af19150503d805f8114612595576040519150601f19603f3d011682016040523d82523d5f602084013e61259a565b606091505b50915091508180156125c757505f815114806125c65750808060200190518101906125c59190613cef565b5b5b612606576040517f08c379a00000000000000000000000000000000000000000000000000000000081526004016125fd90613e8f565b60405180910390fd5b5050505050565b5f60045f8473ffffffffffffffffffffffffffffffffffffffff1673ffffffffffffffffffffffffffffffffffffffff1681526020019081526020015f205f015f9054906101000a900473ffffffffffffffffffffffffffffffffffffffff1690505b5f73ffffffffffffffffffffffffffffffffffffffff168173ffffffffffffffffffffffffffffffffffffffff1614612793578273ffffffffffffffffffffffffffffffffffffffff168173ffffffffffffffffffffffffffffffffffffffff160315612793578160045f8373ffffffffffffffffffffffffffffffffffffffff1673ffffffffffffffffffffffffffffffffffffffff1681526020019081526020015f206002015f828254612726919061388a565b9250508190555060045f8273ffffffffffffffffffffffffffffffffffffffff1673ffffffffffffffffffffffffffffffffffffffff1681526020019081526020015f205f015f9054906101000a900473ffffffffffffffffffffffffffffffffffffffff169050612670565b505050565b60015f81905550565b5f6127aa612a1f565b90505f815f015f9054906101000a900473ffffffffffffffffffffffffffffffffffffffff16905082825f015f6101000a81548173ffffffffffffffffffffffffffffffffffffffff021916908373ffffffffffffffffffffffffffffffffffffffff1602179055508273ffffffffffffffffffffffffffffffffffffffff168173ffffffffffffffffffffffffffffffffffffffff167f8be0079c531659141344cd1fd0a4f28419497f9722a3daafe3b4186f6b6457e060405160405180910390a3505050565b5f60045f8373ffffffffffffffffffffffffffffffffffffffff1673ffffffffffffffffffffffffffffffffffffffff1681526020019081526020015f205f015f9054906101000a900473ffffffffffffffffffffffffffffffffffffffff1690505f5f90505b5f73ffffffffffffffffffffffffffffffffffffffff168273ffffffffffffffffffffffffffffffffffffffff161415801561291657506101f481105b15612a1a578273ffffffffffffffffffffffffffffffffffffffff168273ffffffffffffffffffffffffffffffffffffffff160315612a1a57600160045f8473ffffffffffffffffffffffffffffffffffffffff1673ffffffffffffffffffffffffffffffffffffffff1681526020019081526020015f206003015f82825461299f919061388a565b9250508190555060045f8373ffffffffffffffffffffffffffffffffffffffff1673ffffffffffffffffffffffffffffffffffffffff1681526020019081526020015f205f015f9054906101000a900473ffffffffffffffffffffffffffffffffffffffff1691508080612a1290613ead565b9150506128d9565b505050565b5f7f9016d09d72d40fdae2fd8ceac6b6234c7706214fd39c1cd1e609a0528c199300905090565b5f5f612a50612b39565b90508091505090565b5f33905090565b612a68612b62565b612a7181612ba2565b50565b5f612aa07f360894a13ba1a3210667c828492db98dca3e2076cc3735a920a3ca505d382bbc5f1b612c26565b5f015f9054906101000a900473ffffffffffffffffffffffffffffffffffffffff16905090565b612ad082612c2f565b8173ffffffffffffffffffffffffffffffffffffffff167fbc7cd75a20ee27fd9adebab32041f755214dbc6bffa90cc0225b39da2e5c2d3b60405160405180910390a25f81511115612b2c57612b268282612cf8565b50612b35565b612b34612de9565b5b5050565b5f7ff0c57e16840df040f15088dc2f81fe391c3923bec73e23a9662efc9c229c6a005f1b905090565b612b6a612e25565b612ba0576040517fd7e6bcf800000000000000000000000000000000000000000000000000000000815260040160405180910390fd5b565b612baa612b62565b5f73ffffffffffffffffffffffffffffffffffffffff168173ffffffffffffffffffffffffffffffffffffffff1603612c1a575f6040517f1e4fbdf7000000000000000000000000000000000000000000000000000000008152600401612c119190613017565b60405180910390fd5b612c23816127a1565b50565b5f819050919050565b5f8173ffffffffffffffffffffffffffffffffffffffff163b03612c8a57806040517f4c9c8ce3000000000000000000000000000000000000000000000000000000008152600401612c819190613017565b60405180910390fd5b80612cb67f360894a13ba1a3210667c828492db98dca3e2076cc3735a920a3ca505d382bbc5f1b612c26565b5f015f6101000a81548173ffffffffffffffffffffffffffffffffffffffff021916908373ffffffffffffffffffffffffffffffffffffffff16021790555050565b60605f612d058484612e43565b9050808015612d3b57505f612d18612e57565b1180612d3a57505f8473ffffffffffffffffffffffffffffffffffffffff163b115b5b15612d5057612d48612e5e565b915050612de3565b8015612d9357836040517f9996b315000000000000000000000000000000000000000000000000000000008152600401612d8a9190613017565b60405180910390fd5b5f612d9c612e57565b1115612daf57612daa612e7b565b612de1565b6040517fd6bda27500000000000000000000000000000000000000000000000000000000815260040160405180910390fd5b505b92915050565b5f341115612e23576040517fb398979f00000000000000000000000000000000000000000000000000000000815260040160405180910390fd5b565b5f612e2e612a46565b5f0160089054906101000a900460ff16905090565b5f5f5f835160208501865af4905092915050565b5f3d905090565b606060405190503d81523d5f602083013e3d602001810160405290565b6040513d5f823e3d81fd5b60405180604001604052805f73ffffffffffffffffffffffffffffffffffffffff1681526020015f81525090565b5f82825260208201905092915050565b7f4e4f5f4449524543545f53454e440000000000000000000000000000000000005f82015250565b5f612ef8600e83612eb4565b9150612f0382612ec4565b602082019050919050565b5f6020820190508181035f830152612f2581612eec565b9050919050565b5f604051905090565b5f5ffd5b5f5ffd5b5f73ffffffffffffffffffffffffffffffffffffffff82169050919050565b5f612f6682612f3d565b9050919050565b612f7681612f5c565b8114612f80575f5ffd5b50565b5f81359050612f9181612f6d565b92915050565b5f819050919050565b612fa981612f97565b8114612fb3575f5ffd5b50565b5f81359050612fc481612fa0565b92915050565b5f5f60408385031215612fe057612fdf612f35565b5b5f612fed85828601612f83565b9250506020612ffe85828601612fb6565b9150509250929050565b61301181612f5c565b82525050565b5f60208201905061302a5f830184613008565b92915050565b61303981612f97565b82525050565b5f6020820190506130525f830184613030565b92915050565b5f6020828403121561306d5761306c612f35565b5b5f61307a84828501612f83565b91505092915050565b5f6080820190506130965f830187613008565b6130a36020830186613030565b6130b06040830185613030565b6130bd6060830184613030565b95945050505050565b5f8115159050919050565b6130da816130c6565b82525050565b5f6020820190506130f35f8301846130d1565b92915050565b5f5ffd5b5f5ffd5b5f601f19601f8301169050919050565b7f4e487b71000000000000000000000000000000000000000000000000000000005f52604160045260245ffd5b61314782613101565b810181811067ffffffffffffffff8211171561316657613165613111565b5b80604052505050565b5f613178612f2c565b9050613184828261313e565b919050565b5f67ffffffffffffffff8211156131a3576131a2613111565b5b6131ac82613101565b9050602081019050919050565b828183375f83830152505050565b5f6131d96131d484613189565b61316f565b9050828152602081018484840111156131f5576131f46130fd565b5b6132008482856131b9565b509392505050565b5f82601f83011261321c5761321b6130f9565b5b813561322c8482602086016131c7565b91505092915050565b5f5f6040838503121561324b5761324a612f35565b5b5f61325885828601612f83565b925050602083013567ffffffffffffffff81111561327957613278612f39565b5b61328585828601613208565b9150509250929050565b5f819050919050565b6132a18161328f565b82525050565b5f6020820190506132ba5f830184613298565b92915050565b5f5f5f606084860312156132d7576132d6612f35565b5b5f6132e486828701612f83565b93505060206132f586828701612fb6565b925050604061330686828701612f83565b9150509250925092565b5f81519050919050565b5f82825260208201905092915050565b5f819050602082019050919050565b61334281612f5c565b82525050565b5f6133538383613339565b60208301905092915050565b5f602082019050919050565b5f61337582613310565b61337f818561331a565b935061338a8361332a565b805f5b838110156133ba5781516133a18882613348565b97506133ac8361335f565b92505060018101905061338d565b5085935050505092915050565b5f60a0820190506133da5f830188613008565b6133e76020830187613030565b6133f46040830186613030565b6134016060830185613030565b8181036080830152613413818461336b565b90509695505050505050565b5f6020820190508181035f830152613437818461336b565b905092915050565b5f81519050919050565b8281835e5f83830152505050565b5f6134618261343f565b61346b8185612eb4565b935061347b818560208601613449565b61348481613101565b840191505092915050565b5f6020820190508181035f8301526134a78184613457565b905092915050565b6134b8816130c6565b81146134c2575f5ffd5b50565b5f813590506134d3816134af565b92915050565b5f602082840312156134ee576134ed612f35565b5b5f6134fb848285016134c5565b91505092915050565b5f5f5f6060848603121561351b5761351a612f35565b5b5f61352886828701612f83565b935050602061353986828701612f83565b925050604061354a86828701612f83565b9150509250925092565b5f81519050919050565b5f82825260208201905092915050565b5f819050602082019050919050565b61358681612f97565b82525050565b604082015f8201516135a05f850182613339565b5060208201516135b3602085018261357d565b50505050565b5f6135c4838361358c565b60408301905092915050565b5f602082019050919050565b5f6135e682613554565b6135f0818561355e565b93506135fb8361356e565b805f5b8381101561362b57815161361288826135b9565b975061361d836135d0565b9250506001810190506135fe565b5085935050505092915050565b5f6020820190508181035f83015261365081846135dc565b905092915050565b7f5a45524f5f4144445245535300000000000000000000000000000000000000005f82015250565b5f61368c600c83612eb4565b915061369782613658565b602082019050919050565b5f6020820190508181035f8301526136b981613680565b9050919050565b7f50415553455f52454348415247452e00000000000000000000000000000000005f82015250565b5f6136f4600f83612eb4565b91506136ff826136c0565b602082019050919050565b5f6020820190508181035f830152613721816136e8565b9050919050565b7f5245434f4d4d454e444154494f4e5f49535f52455155495245445f52454348415f8201527f5247452e00000000000000000000000000000000000000000000000000000000602082015250565b5f613782602483612eb4565b915061378d82613728565b604082019050919050565b5f6020820190508181035f8301526137af81613776565b9050919050565b5f815190506137c481612fa0565b92915050565b5f602082840312156137df576137de612f35565b5b5f6137ec848285016137b6565b91505092915050565b7f56454e55535f4d494e545f4641494c45440000000000000000000000000000005f82015250565b5f613829601183612eb4565b9150613834826137f5565b602082019050919050565b5f6020820190508181035f8301526138568161381d565b9050919050565b7f4e487b71000000000000000000000000000000000000000000000000000000005f52601160045260245ffd5b5f61389482612f97565b915061389f83612f97565b92508282019050808211156138b7576138b661385d565b5b92915050565b5f819050919050565b5f819050919050565b5f6138e96138e46138df846138bd565b6138c6565b612f97565b9050919050565b6138f9816138cf565b82525050565b50565b5f61390d5f83612eb4565b9150613918826138ff565b5f82019050919050565b5f60c0820190506139355f830188613008565b6139426020830187613008565b61394f6040830186613030565b61395c6060830185613008565b61396960808301846138f0565b81810360a083015261397a81613902565b90509695505050505050565b7f5a45524f5f414444524553532e000000000000000000000000000000000000005f82015250565b5f6139ba600d83612eb4565b91506139c582613986565b602082019050919050565b5f6020820190508181035f8301526139e7816139ae565b9050919050565b7f494e56414c49445f5245434f4d4d454e4445522e0000000000000000000000005f82015250565b5f613a22601483612eb4565b9150613a2d826139ee565b602082019050919050565b5f6020820190508181035f830152613a4f81613a16565b9050919050565b7f5245434f4d4d454e444154494f4e5f49535f52455155495245445f52454645525f8201527f52414c2e00000000000000000000000000000000000000000000000000000000602082015250565b5f613ab0602483612eb4565b9150613abb82613a56565b604082019050919050565b5f6020820190508181035f830152613add81613aa4565b9050919050565b7f494e56495445525f414c52454144595f4558495354532e0000000000000000005f82015250565b5f613b18601783612eb4565b9150613b2382613ae4565b602082019050919050565b5f6020820190508181035f830152613b4581613b0c565b9050919050565b5f604082019050613b5f5f830185613008565b613b6c6020830184613008565b9392505050565b5f819050919050565b5f67ffffffffffffffff82169050919050565b5f613ba9613ba4613b9f84613b73565b6138c6565b613b7c565b9050919050565b613bb981613b8f565b82525050565b5f602082019050613bd25f830184613bb0565b92915050565b7f4e487b71000000000000000000000000000000000000000000000000000000005f52603260045260245ffd5b613c0e8161328f565b8114613c18575f5ffd5b50565b5f81519050613c2981613c05565b92915050565b5f60208284031215613c4457613c43612f35565b5b5f613c5184828501613c1b565b91505092915050565b5f604082019050613c6d5f830185613008565b613c7a6020830184613030565b9392505050565b5f81519050919050565b5f81905092915050565b5f613c9f82613c81565b613ca98185613c8b565b9350613cb9818560208601613449565b80840191505092915050565b5f613cd08284613c95565b915081905092915050565b5f81519050613ce9816134af565b92915050565b5f60208284031215613d0457613d03612f35565b5b5f613d1184828501613cdb565b91505092915050565b7f5472616e7366657248656c7065723a205452414e534645525f4641494c4544005f82015250565b5f613d4e601f83612eb4565b9150613d5982613d1a565b602082019050919050565b5f6020820190508181035f830152613d7b81613d42565b9050919050565b5f606082019050613d955f830186613008565b613da26020830185613008565b613daf6040830184613030565b949350505050565b7f5472616e7366657248656c7065723a205452414e534645525f46524f4d5f46415f8201527f494c454400000000000000000000000000000000000000000000000000000000602082015250565b5f613e11602483612eb4565b9150613e1c82613db7565b604082019050919050565b5f6020820190508181035f830152613e3e81613e05565b9050919050565b7f5472616e7366657248656c7065723a20415050524f56455f4641494c454400005f82015250565b5f613e79601e83612eb4565b9150613e8482613e45565b602082019050919050565b5f6020820190508181035f830152613ea681613e6d565b9050919050565b5f613eb782612f97565b91507fffffffffffffffffffffffffffffffffffffffffffffffffffffffffffffffff8203613ee957613ee861385d565b5b60018201905091905056fea26469706673582212204bf3b3fdd2fbf08a95452908727cfaacea73273cccae534538e71355c6c943b464736f6c634300081e0033","linkReferences":{}},"methodIdentifiers":{"FIXED_AMOUNT()":"eccf1694","MAX_REFERRAL_DEPTH()":"89e59ea0","UPGRADE_INTERFACE_VERSION()":"ad3cb1cc","USDT()":"c54e44eb","VENUS()":"1a78ccc1","directReferrals(address,uint256)":"05ad3935","emergencyWithdraw(address,uint256,address)":"551512de","getAddrCollection()":"a2b0332b","getAddrCollectionLength()":"4d38857c","getDirectReferrals(address)":"d2c8e0e5","getDirectReferralsInfo(address)":"ec18ac79","getUserInfo(address)":"6386c1c7","initialCode()":"10baf089","initialize(address,address,address)":"c0c53b8b","isAddCollection(address)":"39fe3b99","nfts()":"1714f2e0","owner()":"8da5cb5b","pause()":"8456cb59","proxiableUUID()":"52d1902d","recipient()":"66d003ac","referral(address)":"7247959a","renounceOwnership()":"715018a6","setNfts(address)":"75214581","setPause(bool)":"bedb86fb","setRecipient(address)":"3bbed4a0","singleRecharge()":"689d2a82","totalPerformance()":"06876dbe","transferOwnership(address)":"f2fde38b","upgradeToAndCall(address,bytes)":"4f1ef286","userInfo(address)":"1959a002","validInvitationCode(address)":"3c4e9d74"},"id":55}