{"abi":[{"type":"receive","stateMutability":"payable"},{"type":"function","name":"DEAD","inputs":[],"outputs":[{"name":"","type":"address","internalType":"address"}],"stateMutability":"view"},{"type":"function","name":"FACT","inputs":[],"outputs":[{"name":"","type":"address","internalType":"address"}],"stateMutability":"view"},{"type":"function","name":"UPGRADE_INTERFACE_VERSION","inputs":[],"outputs":[{"name":"","type":"string","internalType":"string"}],"stateMutability":"view"},{"type":"function","name":"USDT","inputs":[],"outputs":[{"name":"","type":"address","internalType":"address"}],"stateMutability":"view"},{"type":"function","name":"WBNB","inputs":[],"outputs":[{"name":"","type":"address","internalType":"address"}],"stateMutability":"view"},{"type":"function","name":"admin","inputs":[],"outputs":[{"name":"","type":"address","internalType":"address"}],"stateMutability":"view"},{"type":"function","name":"changeAdmin","inputs":[{"name":"_newAdmin","type":"address","internalType":"address"}],"outputs":[],"stateMutability":"nonpayable"},{"type":"function","name":"changeOperator","inputs":[{"name":"_newOperator","type":"address","internalType":"address"}],"outputs":[],"stateMutability":"nonpayable"},{"type":"function","name":"changeRecipient","inputs":[{"name":"_newRecipient","type":"address","internalType":"address"}],"outputs":[],"stateMutability":"nonpayable"},{"type":"function","name":"changeSender","inputs":[{"name":"_newSender","type":"address","internalType":"address"}],"outputs":[],"stateMutability":"nonpayable"},{"type":"function","name":"donation","inputs":[],"outputs":[{"name":"","type":"address","internalType":"address"}],"stateMutability":"view"},{"type":"function","name":"factory","inputs":[],"outputs":[{"name":"","type":"address","internalType":"address"}],"stateMutability":"view"},{"type":"function","name":"getPrice","inputs":[{"name":"token","type":"address","internalType":"address"}],"outputs":[{"name":"","type":"address","internalType":"address"},{"name":"","type":"uint256","internalType":"uint256"}],"stateMutability":"view"},{"type":"function","name":"initialize","inputs":[{"name":"_admin","type":"address","internalType":"address"},{"name":"_recipient","type":"address","internalType":"address"},{"name":"_sender","type":"address","internalType":"address"}],"outputs":[],"stateMutability":"nonpayable"},{"type":"function","name":"multiBalanceOf","inputs":[{"name":"token","type":"address","internalType":"address"},{"name":"users","type":"address[]","internalType":"address[]"}],"outputs":[{"name":"","type":"tuple[]","internalType":"struct Recharge.Info[]","components":[{"name":"user","type":"address","internalType":"address"},{"name":"amount","type":"uint256","internalType":"uint256"}]}],"stateMutability":"view"},{"type":"function","name":"multiRecharge","inputs":[{"name":"token0","type":"address","internalType":"address"},{"name":"amount0","type":"uint256","internalType":"uint256"},{"name":"token1","type":"address","internalType":"address"},{"name":"amount1","type":"uint256","internalType":"uint256"},{"name":"remark","type":"string","internalType":"string"}],"outputs":[],"stateMutability":"payable"},{"type":"function","name":"operator","inputs":[],"outputs":[{"name":"","type":"address","internalType":"address"}],"stateMutability":"view"},{"type":"function","name":"owner","inputs":[],"outputs":[{"name":"","type":"address","internalType":"address"}],"stateMutability":"view"},{"type":"function","name":"proxiableUUID","inputs":[],"outputs":[{"name":"","type":"bytes32","internalType":"bytes32"}],"stateMutability":"view"},{"type":"function","name":"recipient","inputs":[],"outputs":[{"name":"","type":"address","internalType":"address"}],"stateMutability":"view"},{"type":"function","name":"renounceOwnership","inputs":[],"outputs":[],"stateMutability":"nonpayable"},{"type":"function","name":"router","inputs":[],"outputs":[{"name":"","type":"address","internalType":"address"}],"stateMutability":"view"},{"type":"function","name":"sender","inputs":[],"outputs":[{"name":"","type":"address","internalType":"address"}],"stateMutability":"view"},{"type":"function","name":"singleRecharge","inputs":[{"name":"token","type":"address","internalType":"address"},{"name":"amount","type":"uint256","internalType":"uint256"},{"name":"remark","type":"string","internalType":"string"}],"outputs":[],"stateMutability":"payable"},{"type":"function","name":"transferOwnership","inputs":[{"name":"newOwner","type":"address","internalType":"address"}],"outputs":[],"stateMutability":"nonpayable"},{"type":"function","name":"upgradeToAndCall","inputs":[{"name":"newImplementation","type":"address","internalType":"address"},{"name":"data","type":"bytes","internalType":"bytes"}],"outputs":[],"stateMutability":"payable"},{"type":"function","name":"withdraw","inputs":[{"name":"remark","type":"string","internalType":"string"},{"name":"token","type":"address","internalType":"address"},{"name":"amount","type":"uint256","internalType":"uint256"},{"name":"to","type":"address","internalType":"address"}],"outputs":[],"stateMutability":"nonpayable"},{"type":"event","name":"AdminshipTransferred","inputs":[{"name":"previousAdmin","type":"address","indexed":true,"internalType":"address"},{"name":"newAdmin","type":"address","indexed":true,"internalType":"address"}],"anonymous":false},{"type":"event","name":"Initialized","inputs":[{"name":"version","type":"uint64","indexed":false,"internalType":"uint64"}],"anonymous":false},{"type":"event","name":"MultiRecharge","inputs":[{"name":"user","type":"address","indexed":false,"internalType":"address"},{"name":"token0","type":"address","indexed":false,"internalType":"address"},{"name":"amount0","type":"uint256","indexed":false,"internalType":"uint256"},{"name":"token1","type":"address","indexed":false,"internalType":"address"},{"name":"amount1","type":"uint256","indexed":false,"internalType":"uint256"},{"name":"remark","type":"string","indexed":false,"internalType":"string"}],"anonymous":false},{"type":"event","name":"OwnershipTransferred","inputs":[{"name":"previousOwner","type":"address","indexed":true,"internalType":"address"},{"name":"newOwner","type":"address","indexed":true,"internalType":"address"}],"anonymous":false},{"type":"event","name":"Upgraded","inputs":[{"name":"implementation","type":"address","indexed":true,"internalType":"address"}],"anonymous":false},{"type":"event","name":"Withdraw","inputs":[{"name":"remark","type":"string","indexed":false,"internalType":"string"},{"name":"token","type":"address","indexed":false,"internalType":"address"},{"name":"to","type":"address","indexed":false,"internalType":"address"},{"name":"amount","type":"uint256","indexed":false,"internalType":"uint256"}],"anonymous":false},{"type":"error","name":"AddressEmptyCode","inputs":[{"name":"target","type":"address","internalType":"address"}]},{"type":"error","name":"ERC1967InvalidImplementation","inputs":[{"name":"implementation","type":"address","internalType":"address"}]},{"type":"error","name":"ERC1967NonPayable","inputs":[]},{"type":"error","name":"FailedCall","inputs":[]},{"type":"error","name":"InvalidInitialization","inputs":[]},{"type":"error","name":"NotInitializing","inputs":[]},{"type":"error","name":"OwnableInvalidOwner","inputs":[{"name":"owner","type":"address","internalType":"address"}]},{"type":"error","name":"OwnableUnauthorizedAccount","inputs":[{"name":"account","type":"address","internalType":"address"}]},{"type":"error","name":"ReentrancyGuardReentrantCall","inputs":[]},{"type":"error","name":"UUPSUnauthorizedCallContext","inputs":[]},{"type":"error","name":"UUPSUnsupportedProxiableUUID","inputs":[{"name":"slot","type":"bytes32","internalType":"bytes32"}]}],"bytecode":{"object":"0x60a06040523073ffffffffffffffffffffffffffffffffffffffff1660809073ffffffffffffffffffffffffffffffffffffffff1681525073f8d9fbc9db44e378c603b45000c81066630eccd260055f6101000a81548173ffffffffffffffffffffffffffffffffffffffff021916908373ffffffffffffffffffffffffffffffffffffffff160217905550348015610096575f5ffd5b5060015f819055506080516143d36100c45f395f8181611d2801528181611d7d0152611f3701526143d35ff3fe60806040526004361061019f575f3560e01c80638dd95002116100eb578063b280a7e711610089578063c54e44eb11610063578063c54e44eb1461054b578063f2fde38b14610575578063f851a4401461059d578063f887ea40146105c7576101a6565b8063b280a7e7146104d1578063c0c53b8b146104f9578063c45a015514610521576101a6565b806392c2bcb4116100c557806392c2bcb4146104275780639f166cf11461044f578063aa7e7eb91461048b578063ad3cb1cc146104a7576101a6565b80638dd95002146103ab5780638edeb15d146103d55780638f283970146103ff576101a6565b806362a3381111610158578063715018a611610132578063715018a61461032557806373abf0af1461033b5780638c644e69146103575780638da5cb5b14610381576101a6565b806362a33811146102a957806366d003ac146102d157806367e404ce146102fb576101a6565b806303fd2a45146101aa57806306394c9b146101d457806341976e09146101fc5780634f1ef2861461023957806352d1902d14610255578063570ca7351461027f576101a6565b366101a657005b5f5ffd5b3480156101b5575f5ffd5b506101be6105f1565b6040516101cb9190613020565b60405180910390f35b3480156101df575f5ffd5b506101fa60048036038101906101f59190613074565b6105f7565b005b348015610207575f5ffd5b50610222600480360381019061021d9190613074565b610737565b6040516102309291906130b7565b60405180910390f35b610253600480360381019061024e919061321a565b610cc8565b005b348015610260575f5ffd5b50610269610ce7565b604051610276919061328c565b60405180910390f35b34801561028a575f5ffd5b50610293610d18565b6040516102a09190613020565b60405180910390f35b3480156102b4575f5ffd5b506102cf60048036038101906102ca919061336d565b610d3d565b005b3480156102dc575f5ffd5b506102e5610ec1565b6040516102f29190613020565b60405180910390f35b348015610306575f5ffd5b5061030f610ee6565b60405161031c9190613020565b60405180910390f35b348015610330575f5ffd5b50610339610f0b565b005b6103556004803603810190610350919061344a565b610f1e565b005b348015610362575f5ffd5b5061036b611139565b6040516103789190613020565b60405180910390f35b34801561038c575f5ffd5b50610395611151565b6040516103a29190613020565b60405180910390f35b3480156103b6575f5ffd5b506103bf611186565b6040516103cc9190613020565b60405180910390f35b3480156103e0575f5ffd5b506103e961119e565b6040516103f69190613020565b60405180910390f35b34801561040a575f5ffd5b5061042560048036038101906104209190613074565b6111c3565b005b348015610432575f5ffd5b5061044d60048036038101906104489190613074565b6112f7565b005b34801561045a575f5ffd5b5061047560048036038101906104709190613535565b611437565b6040516104829190613685565b60405180910390f35b6104a560048036038101906104a091906136a5565b6116d3565b005b3480156104b2575f5ffd5b506104bb611872565b6040516104c89190613776565b60405180910390f35b3480156104dc575f5ffd5b506104f760048036038101906104f29190613074565b6118ab565b005b348015610504575f5ffd5b5061051f600480360381019061051a9190613796565b6119eb565b005b34801561052c575f5ffd5b50610535611c35565b6040516105429190613020565b60405180910390f35b348015610556575f5ffd5b5061055f611c4d565b60405161056c9190613020565b60405180910390f35b348015610580575f5ffd5b5061059b60048036038101906105969190613074565b611c65565b005b3480156105a8575f5ffd5b506105b1611ce9565b6040516105be9190613020565b60405180910390f35b3480156105d2575f5ffd5b506105db611d0e565b6040516105e89190613020565b60405180910390f35b61dead81565b60015f9054906101000a900473ffffffffffffffffffffffffffffffffffffffff1673ffffffffffffffffffffffffffffffffffffffff163373ffffffffffffffffffffffffffffffffffffffff1614610686576040517f08c379a000000000000000000000000000000000000000000000000000000000815260040161067d90613830565b60405180910390fd5b5f73ffffffffffffffffffffffffffffffffffffffff168173ffffffffffffffffffffffffffffffffffffffff16036106f4576040517f08c379a00000000000000000000000000000000000000000000000000000000081526004016106eb90613898565b60405180910390fd5b8060025f6101000a81548173ffffffffffffffffffffffffffffffffffffffff021916908373ffffffffffffffffffffffffffffffffffffffff16021790555050565b5f5f5f73ca143ce32fe78f1f7019d7d551a6402fc5350c7373ffffffffffffffffffffffffffffffffffffffff1663e6a439058573bb4cdb9cbd36b01bd1cbaebf2de08d9173bc095c6040518363ffffffff1660e01b815260040161079d9291906138b6565b602060405180830381865afa1580156107b8573d5f5f3e3d5ffd5b505050506040513d601f19601f820116820180604052508101906107dc91906138f1565b90505f73ca143ce32fe78f1f7019d7d551a6402fc5350c7373ffffffffffffffffffffffffffffffffffffffff1663e6a43905867355d398326f99059ff775485246999027b31979556040518363ffffffff1660e01b81526004016108429291906138b6565b602060405180830381865afa15801561085d573d5f5f3e3d5ffd5b505050506040513d601f19601f8201168201806040525081019061088191906138f1565b90505f670de0b6b3a764000090505f5f73ffffffffffffffffffffffffffffffffffffffff168373ffffffffffffffffffffffffffffffffffffffff1614610aa4575f600267ffffffffffffffff8111156108df576108de6130f6565b5b60405190808252806020026020018201604052801561090d5781602001602082028036833780820191505090505b50905087815f815181106109245761092361391c565b5b602002602001019073ffffffffffffffffffffffffffffffffffffffff16908173ffffffffffffffffffffffffffffffffffffffff16815250507355d398326f99059ff775485246999027b3197955816001815181106109875761098661391c565b5b602002602001019073ffffffffffffffffffffffffffffffffffffffff16908173ffffffffffffffffffffffffffffffffffffffff16815250505f7310ed43c718714eb63d5aa57b78b54704e256024e73ffffffffffffffffffffffffffffffffffffffff1663d06ca61f85846040518363ffffffff1660e01b8152600401610a119291906139f1565b5f60405180830381865afa158015610a2b573d5f5f3e3d5ffd5b505050506040513d5f823e3d601f19601f82011682018060405250810190610a539190613af3565b90508060018251610a649190613b67565b81518110610a7557610a7461391c565b5b602002602001015192507355d398326f99059ff775485246999027b31979558397509750505050505050610cc3565b5f73ffffffffffffffffffffffffffffffffffffffff168473ffffffffffffffffffffffffffffffffffffffff1614610cb8575f600267ffffffffffffffff811115610af357610af26130f6565b5b604051908082528060200260200182016040528015610b215781602001602082028036833780820191505090505b50905087815f81518110610b3857610b3761391c565b5b602002602001019073ffffffffffffffffffffffffffffffffffffffff16908173ffffffffffffffffffffffffffffffffffffffff168152505073bb4cdb9cbd36b01bd1cbaebf2de08d9173bc095c81600181518110610b9b57610b9a61391c565b5b602002602001019073ffffffffffffffffffffffffffffffffffffffff16908173ffffffffffffffffffffffffffffffffffffffff16815250505f7310ed43c718714eb63d5aa57b78b54704e256024e73ffffffffffffffffffffffffffffffffffffffff1663d06ca61f85846040518363ffffffff1660e01b8152600401610c259291906139f1565b5f60405180830381865afa158015610c3f573d5f5f3e3d5ffd5b505050506040513d5f823e3d601f19601f82011682018060405250810190610c679190613af3565b90508060018251610c789190613b67565b81518110610c8957610c8861391c565b5b6020026020010151925073bb4cdb9cbd36b01bd1cbaebf2de08d9173bc095c8397509750505050505050610cc3565b5f5f95509550505050505b915091565b610cd0611d26565b610cd982611e0c565b610ce38282611e17565b5050565b5f610cf0611f35565b7f360894a13ba1a3210667c828492db98dca3e2076cc3735a920a3ca505d382bbc5f1b905090565b60025f9054906101000a900473ffffffffffffffffffffffffffffffffffffffff1681565b60015f9054906101000a900473ffffffffffffffffffffffffffffffffffffffff1673ffffffffffffffffffffffffffffffffffffffff163373ffffffffffffffffffffffffffffffffffffffff1614610dcc576040517f08c379a0000000000000000000000000000000000000000000000000000000008152600401610dc390613830565b60405180910390fd5b5f8211610e0e576040517f08c379a0000000000000000000000000000000000000000000000000000000008152600401610e0590613be4565b60405180910390fd5b5f73ffffffffffffffffffffffffffffffffffffffff168373ffffffffffffffffffffffffffffffffffffffff1614610e7357610e6e8360045f9054906101000a900473ffffffffffffffffffffffffffffffffffffffff168385611fbc565b610e7e565b610e7d81836120ef565b5b7f99310eed5bb161586b62449f89ccaa4580f85f953cd64218092edfc2b1f5fce784848385604051610eb39493929190613c02565b60405180910390a150505050565b60035f9054906101000a900473ffffffffffffffffffffffffffffffffffffffff1681565b60045f9054906101000a900473ffffffffffffffffffffffffffffffffffffffff1681565b610f136121ea565b610f1c5f612271565b565b5f851180610f2b57505f83115b610f6a576040517f08c379a0000000000000000000000000000000000000000000000000000000008152600401610f6190613c96565b60405180910390fd5b5f600267ffffffffffffffff811115610f8657610f856130f6565b5b604051908082528060200260200182016040528015610fb45781602001602082028036833780820191505090505b5090505f600267ffffffffffffffff811115610fd357610fd26130f6565b5b6040519080825280602002602001820160405280156110015781602001602082028036833780820191505090505b50905087825f815181106110185761101761391c565b5b602002602001019073ffffffffffffffffffffffffffffffffffffffff16908173ffffffffffffffffffffffffffffffffffffffff168152505086815f815181106110665761106561391c565b5b60200260200101818152505085826001815181106110875761108661391c565b5b602002602001019073ffffffffffffffffffffffffffffffffffffffff16908173ffffffffffffffffffffffffffffffffffffffff168152505084816001815181106110d6576110d561391c565b5b6020026020010181815250506110ec8282612342565b7f92bfe9b63523d7c8baff8387323dd4c1c8ccd48705d9c91e19160ebcabb053b8338989898989896040516111279796959493929190613ce0565b60405180910390a15050505050505050565b73472b135f6e6db73cf5c5fa2d7e590c8283d1be7881565b5f5f61115b61282b565b9050805f015f9054906101000a900473ffffffffffffffffffffffffffffffffffffffff1691505090565b73bb4cdb9cbd36b01bd1cbaebf2de08d9173bc095c81565b60055f9054906101000a900473ffffffffffffffffffffffffffffffffffffffff1681565b6111cb6121ea565b5f73ffffffffffffffffffffffffffffffffffffffff168173ffffffffffffffffffffffffffffffffffffffff1603611239576040517f08c379a000000000000000000000000000000000000000000000000000000000815260040161123090613898565b60405180910390fd5b8073ffffffffffffffffffffffffffffffffffffffff1660015f9054906101000a900473ffffffffffffffffffffffffffffffffffffffff1673ffffffffffffffffffffffffffffffffffffffff167f2931ebb3d190545dcf6801c37aa686b74f2e1000e753d0fac6e471a2aa5a621360405160405180910390a38060015f6101000a81548173ffffffffffffffffffffffffffffffffffffffff021916908373ffffffffffffffffffffffffffffffffffffffff16021790555050565b60015f9054906101000a900473ffffffffffffffffffffffffffffffffffffffff1673ffffffffffffffffffffffffffffffffffffffff163373ffffffffffffffffffffffffffffffffffffffff1614611386576040517f08c379a000000000000000000000000000000000000000000000000000000000815260040161137d90613830565b60405180910390fd5b5f73ffffffffffffffffffffffffffffffffffffffff168173ffffffffffffffffffffffffffffffffffffffff16036113f4576040517f08c379a00000000000000000000000000000000000000000000000000000000081526004016113eb90613898565b60405180910390fd5b8060035f6101000a81548173ffffffffffffffffffffffffffffffffffffffff021916908373ffffffffffffffffffffffffffffffffffffffff16021790555050565b60605f8383905090505f8167ffffffffffffffff81111561145b5761145a6130f6565b5b60405190808252806020026020018201604052801561149457816020015b611481612fb3565b8152602001906001900390816114795790505b5090505f73ffffffffffffffffffffffffffffffffffffffff168673ffffffffffffffffffffffffffffffffffffffff1603611598575f5f90505b828110156115925760405180604001604052808787848181106114f5576114f461391c565b5b905060200201602081019061150a9190613074565b73ffffffffffffffffffffffffffffffffffffffff1681526020018787848181106115385761153761391c565b5b905060200201602081019061154d9190613074565b73ffffffffffffffffffffffffffffffffffffffff163181525082828151811061157a5761157961391c565b5b602002602001018190525080806001019150506114cf565b506116c7565b5f8690505f5f90505b838110156116c45760405180604001604052808888848181106115c7576115c661391c565b5b90506020020160208101906115dc9190613074565b73ffffffffffffffffffffffffffffffffffffffff1681526020018373ffffffffffffffffffffffffffffffffffffffff166370a082318a8a868181106116265761162561391c565b5b905060200201602081019061163b9190613074565b6040518263ffffffff1660e01b81526004016116579190613020565b602060405180830381865afa158015611672573d5f5f3e3d5ffd5b505050506040513d601f19601f820116820180604052508101906116969190613d48565b8152508382815181106116ac576116ab61391c565b5b602002602001018190525080806001019150506115a1565b50505b80925050509392505050565b5f8311611715576040517f08c379a000000000000000000000000000000000000000000000000000000000815260040161170c90613c96565b60405180910390fd5b5f600167ffffffffffffffff811115611731576117306130f6565b5b60405190808252806020026020018201604052801561175f5781602001602082028036833780820191505090505b5090505f600167ffffffffffffffff81111561177e5761177d6130f6565b5b6040519080825280602002602001820160405280156117ac5781602001602082028036833780820191505090505b50905085825f815181106117c3576117c261391c565b5b602002602001019073ffffffffffffffffffffffffffffffffffffffff16908173ffffffffffffffffffffffffffffffffffffffff168152505084815f815181106118115761181061391c565b5b6020026020010181815250506118278282612342565b7f92bfe9b63523d7c8baff8387323dd4c1c8ccd48705d9c91e19160ebcabb053b83387875f5f89896040516118629796959493929190613db5565b60405180910390a1505050505050565b6040518060400160405280600581526020017f352e302e3000000000000000000000000000000000000000000000000000000081525081565b60015f9054906101000a900473ffffffffffffffffffffffffffffffffffffffff1673ffffffffffffffffffffffffffffffffffffffff163373ffffffffffffffffffffffffffffffffffffffff161461193a576040517f08c379a000000000000000000000000000000000000000000000000000000000815260040161193190613830565b60405180910390fd5b5f73ffffffffffffffffffffffffffffffffffffffff168173ffffffffffffffffffffffffffffffffffffffff16036119a8576040517f08c379a000000000000000000000000000000000000000000000000000000000815260040161199f90613898565b60405180910390fd5b8060045f6101000a81548173ffffffffffffffffffffffffffffffffffffffff021916908373ffffffffffffffffffffffffffffffffffffffff16021790555050565b5f6119f4612852565b90505f815f0160089054906101000a900460ff161590505f825f015f9054906101000a900467ffffffffffffffff1690505f5f8267ffffffffffffffff16148015611a3c5750825b90505f60018367ffffffffffffffff16148015611a6f57505f3073ffffffffffffffffffffffffffffffffffffffff163b145b905081158015611a7d575080155b15611ab4576040517ff92ee8a900000000000000000000000000000000000000000000000000000000815260040160405180910390fd5b6001855f015f6101000a81548167ffffffffffffffff021916908367ffffffffffffffff1602179055508315611b01576001855f0160086101000a81548160ff0219169083151502179055505b611b11611b0c612865565b61286c565b8760015f6101000a81548173ffffffffffffffffffffffffffffffffffffffff021916908373ffffffffffffffffffffffffffffffffffffffff1602179055508660035f6101000a81548173ffffffffffffffffffffffffffffffffffffffff021916908373ffffffffffffffffffffffffffffffffffffffff1602179055508560045f6101000a81548173ffffffffffffffffffffffffffffffffffffffff021916908373ffffffffffffffffffffffffffffffffffffffff1602179055508315611c2b575f855f0160086101000a81548160ff0219169083151502179055507fc7f505b2f371ae2175ee4913f4499e1f2633a7b5936321eed1cdaeb6115181d26001604051611c229190613e69565b60405180910390a15b5050505050505050565b73ca143ce32fe78f1f7019d7d551a6402fc5350c7381565b7355d398326f99059ff775485246999027b319795581565b611c6d6121ea565b5f73ffffffffffffffffffffffffffffffffffffffff168173ffffffffffffffffffffffffffffffffffffffff1603611cdd575f6040517f1e4fbdf7000000000000000000000000000000000000000000000000000000008152600401611cd49190613020565b60405180910390fd5b611ce681612271565b50565b60015f9054906101000a900473ffffffffffffffffffffffffffffffffffffffff1681565b7310ed43c718714eb63d5aa57b78b54704e256024e81565b7f000000000000000000000000000000000000000000000000000000000000000073ffffffffffffffffffffffffffffffffffffffff163073ffffffffffffffffffffffffffffffffffffffff161480611dd357507f000000000000000000000000000000000000000000000000000000000000000073ffffffffffffffffffffffffffffffffffffffff16611dba612880565b73ffffffffffffffffffffffffffffffffffffffff1614155b15611e0a576040517fe07c8dba00000000000000000000000000000000000000000000000000000000815260040160405180910390fd5b565b611e146121ea565b50565b8173ffffffffffffffffffffffffffffffffffffffff166352d1902d6040518163ffffffff1660e01b8152600401602060405180830381865afa925050508015611e7f57506040513d601f19601f82011682018060405250810190611e7c9190613eac565b60015b611ec057816040517f4c9c8ce3000000000000000000000000000000000000000000000000000000008152600401611eb79190613020565b60405180910390fd5b7f360894a13ba1a3210667c828492db98dca3e2076cc3735a920a3ca505d382bbc5f1b8114611f2657806040517faa1d49a4000000000000000000000000000000000000000000000000000000008152600401611f1d919061328c565b60405180910390fd5b611f3083836128d3565b505050565b7f000000000000000000000000000000000000000000000000000000000000000073ffffffffffffffffffffffffffffffffffffffff163073ffffffffffffffffffffffffffffffffffffffff1614611fba576040517fe07c8dba00000000000000000000000000000000000000000000000000000000815260040160405180910390fd5b565b5f5f8573ffffffffffffffffffffffffffffffffffffffff166323b872dd868686604051602401611fef93929190613ed7565b6040516020818303038152906040529060e01b6020820180517bffffffffffffffffffffffffffffffffffffffffffffffffffffffff838183161783525050505060405161203d9190613f50565b5f604051808303815f865af19150503d805f8114612076576040519150601f19603f3d011682016040523d82523d5f602084013e61207b565b606091505b50915091508180156120a857505f815114806120a75750808060200190518101906120a69190613f9b565b5b5b6120e7576040517f08c379a00000000000000000000000000000000000000000000000000000000081526004016120de90614036565b60405180910390fd5b505050505050565b5f8273ffffffffffffffffffffffffffffffffffffffff16825f67ffffffffffffffff811115612122576121216130f6565b5b6040519080825280601f01601f1916602001820160405280156121545781602001600182028036833780820191505090505b506040516121629190613f50565b5f6040518083038185875af1925050503d805f811461219c576040519150601f19603f3d011682016040523d82523d5f602084013e6121a1565b606091505b50509050806121e5576040517f08c379a00000000000000000000000000000000000000000000000000000000081526004016121dc906140c4565b60405180910390fd5b505050565b6121f2612865565b73ffffffffffffffffffffffffffffffffffffffff16612210611151565b73ffffffffffffffffffffffffffffffffffffffff161461226f57612233612865565b6040517f118cdaa70000000000000000000000000000000000000000000000000000000081526004016122669190613020565b60405180910390fd5b565b5f61227a61282b565b90505f815f015f9054906101000a900473ffffffffffffffffffffffffffffffffffffffff16905082825f015f6101000a81548173ffffffffffffffffffffffffffffffffffffffff021916908373ffffffffffffffffffffffffffffffffffffffff1602179055508273ffffffffffffffffffffffffffffffffffffffff168173ffffffffffffffffffffffffffffffffffffffff167f8be0079c531659141344cd1fd0a4f28419497f9722a3daafe3b4186f6b6457e060405160405180910390a3505050565b61234a612945565b805182511461238e576040517f08c379a00000000000000000000000000000000000000000000000000000000081526004016123859061412c565b60405180910390fd5b5f5f90505f5f90505f5f90505b8451811015612537575f8582815181106123b8576123b761391c565b5b602002602001015190505f8583815181106123d6576123d561391c565b5b602002602001015190505f81036123ee57505061252a565b5f73ffffffffffffffffffffffffffffffffffffffff168273ffffffffffffffffffffffffffffffffffffffff160361243a57808561242d919061414a565b945060019350505061252a565b73472b135f6e6db73cf5c5fa2d7e590c8283d1be7873ffffffffffffffffffffffffffffffffffffffff168273ffffffffffffffffffffffffffffffffffffffff16036124fa5761248d82333084611fbc565b5f6064601e8361249d919061417d565b6124a791906141eb565b90505f81836124b69190613b67565b90506124e48460055f9054906101000a900473ffffffffffffffffffffffffffffffffffffffff1684612989565b6124f18461dead83612989565b5050505061252a565b612527823360035f9054906101000a900473ffffffffffffffffffffffffffffffffffffffff1684611fbc565b50505b808060010191505061239b565b5080156127da5781341015612581576040517f08c379a000000000000000000000000000000000000000000000000000000000815260040161257890614265565b60405180910390fd5b5f6064601e84612591919061417d565b61259b91906141eb565b90505f81846125aa9190613b67565b90505f73472b135f6e6db73cf5c5fa2d7e590c8283d1be7873ffffffffffffffffffffffffffffffffffffffff166370a08231306040518263ffffffff1660e01b81526004016125fa9190613020565b602060405180830381865afa158015612615573d5f5f3e3d5ffd5b505050506040513d601f19601f820116820180604052508101906126399190613d48565b905061264483612ab9565b5f73472b135f6e6db73cf5c5fa2d7e590c8283d1be7873ffffffffffffffffffffffffffffffffffffffff166370a08231306040518263ffffffff1660e01b81526004016126929190613020565b602060405180830381865afa1580156126ad573d5f5f3e3d5ffd5b505050506040513d601f19601f820116820180604052508101906126d19190613d48565b90505f82826126e09190613b67565b90505f811115612779575f6064601e836126fa919061417d565b61270491906141eb565b90505f81836127139190613b67565b905061275573472b135f6e6db73cf5c5fa2d7e590c8283d1be7860055f9054906101000a900473ffffffffffffffffffffffffffffffffffffffff1684612989565b61277673472b135f6e6db73cf5c5fa2d7e590c8283d1be7861dead83612989565b50505b5f8411156127ad576127ac60035f9054906101000a900473ffffffffffffffffffffffffffffffffffffffff16856120ef565b5b5f87346127ba9190613b67565b90505f8111156127cf576127ce33826120ef565b5b50505050505061281d565b5f341461281c576040517f08c379a0000000000000000000000000000000000000000000000000000000008152600401612813906142cd565b60405180910390fd5b5b5050612827612c5d565b5050565b5f7f9016d09d72d40fdae2fd8ceac6b6234c7706214fd39c1cd1e609a0528c199300905090565b5f5f61285c612c66565b90508091505090565b5f33905090565b612874612c8f565b61287d81612ccf565b50565b5f6128ac7f360894a13ba1a3210667c828492db98dca3e2076cc3735a920a3ca505d382bbc5f1b612d53565b5f015f9054906101000a900473ffffffffffffffffffffffffffffffffffffffff16905090565b6128dc82612d5c565b8173ffffffffffffffffffffffffffffffffffffffff167fbc7cd75a20ee27fd9adebab32041f755214dbc6bffa90cc0225b39da2e5c2d3b60405160405180910390a25f81511115612938576129328282612e25565b50612941565b612940612f16565b5b5050565b60025f5403612980576040517f3ee5aeb500000000000000000000000000000000000000000000000000000000815260040160405180910390fd5b60025f81905550565b5f5f8473ffffffffffffffffffffffffffffffffffffffff1663a9059cbb85856040516024016129ba9291906130b7565b6040516020818303038152906040529060e01b6020820180517bffffffffffffffffffffffffffffffffffffffffffffffffffffffff8381831617835250505050604051612a089190613f50565b5f604051808303815f865af19150503d805f8114612a41576040519150601f19603f3d011682016040523d82523d5f602084013e612a46565b606091505b5091509150818015612a7357505f81511480612a72575080806020019051810190612a719190613f9b565b5b5b612ab2576040517f08c379a0000000000000000000000000000000000000000000000000000000008152600401612aa990614335565b60405180910390fd5b5050505050565b5f600267ffffffffffffffff811115612ad557612ad46130f6565b5b604051908082528060200260200182016040528015612b035781602001602082028036833780820191505090505b50905073bb4cdb9cbd36b01bd1cbaebf2de08d9173bc095c815f81518110612b2e57612b2d61391c565b5b602002602001019073ffffffffffffffffffffffffffffffffffffffff16908173ffffffffffffffffffffffffffffffffffffffff168152505073472b135f6e6db73cf5c5fa2d7e590c8283d1be7881600181518110612b9157612b9061391c565b5b602002602001019073ffffffffffffffffffffffffffffffffffffffff16908173ffffffffffffffffffffffffffffffffffffffff16815250507310ed43c718714eb63d5aa57b78b54704e256024e73ffffffffffffffffffffffffffffffffffffffff1663b6f9de95835f8430600a42612c0c919061414a565b6040518663ffffffff1660e01b8152600401612c2b9493929190614353565b5f604051808303818588803b158015612c42575f5ffd5b505af1158015612c54573d5f5f3e3d5ffd5b50505050505050565b60015f81905550565b5f7ff0c57e16840df040f15088dc2f81fe391c3923bec73e23a9662efc9c229c6a005f1b905090565b612c97612f52565b612ccd576040517fd7e6bcf800000000000000000000000000000000000000000000000000000000815260040160405180910390fd5b565b612cd7612c8f565b5f73ffffffffffffffffffffffffffffffffffffffff168173ffffffffffffffffffffffffffffffffffffffff1603612d47575f6040517f1e4fbdf7000000000000000000000000000000000000000000000000000000008152600401612d3e9190613020565b60405180910390fd5b612d5081612271565b50565b5f819050919050565b5f8173ffffffffffffffffffffffffffffffffffffffff163b03612db757806040517f4c9c8ce3000000000000000000000000000000000000000000000000000000008152600401612dae9190613020565b60405180910390fd5b80612de37f360894a13ba1a3210667c828492db98dca3e2076cc3735a920a3ca505d382bbc5f1b612d53565b5f015f6101000a81548173ffffffffffffffffffffffffffffffffffffffff021916908373ffffffffffffffffffffffffffffffffffffffff16021790555050565b60605f612e328484612f70565b9050808015612e6857505f612e45612f84565b1180612e6757505f8473ffffffffffffffffffffffffffffffffffffffff163b115b5b15612e7d57612e75612f8b565b915050612f10565b8015612ec057836040517f9996b315000000000000000000000000000000000000000000000000000000008152600401612eb79190613020565b60405180910390fd5b5f612ec9612f84565b1115612edc57612ed7612fa8565b612f0e565b6040517fd6bda27500000000000000000000000000000000000000000000000000000000815260040160405180910390fd5b505b92915050565b5f341115612f50576040517fb398979f00000000000000000000000000000000000000000000000000000000815260040160405180910390fd5b565b5f612f5b612852565b5f0160089054906101000a900460ff16905090565b5f5f5f835160208501865af4905092915050565b5f3d905090565b606060405190503d81523d5f602083013e3d602001810160405290565b6040513d5f823e3d81fd5b60405180604001604052805f73ffffffffffffffffffffffffffffffffffffffff1681526020015f81525090565b5f73ffffffffffffffffffffffffffffffffffffffff82169050919050565b5f61300a82612fe1565b9050919050565b61301a81613000565b82525050565b5f6020820190506130335f830184613011565b92915050565b5f604051905090565b5f5ffd5b5f5ffd5b61305381613000565b811461305d575f5ffd5b50565b5f8135905061306e8161304a565b92915050565b5f6020828403121561308957613088613042565b5b5f61309684828501613060565b91505092915050565b5f819050919050565b6130b18161309f565b82525050565b5f6040820190506130ca5f830185613011565b6130d760208301846130a8565b9392505050565b5f5ffd5b5f5ffd5b5f601f19601f8301169050919050565b7f4e487b71000000000000000000000000000000000000000000000000000000005f52604160045260245ffd5b61312c826130e6565b810181811067ffffffffffffffff8211171561314b5761314a6130f6565b5b80604052505050565b5f61315d613039565b90506131698282613123565b919050565b5f67ffffffffffffffff821115613188576131876130f6565b5b613191826130e6565b9050602081019050919050565b828183375f83830152505050565b5f6131be6131b98461316e565b613154565b9050828152602081018484840111156131da576131d96130e2565b5b6131e584828561319e565b509392505050565b5f82601f830112613201576132006130de565b5b81356132118482602086016131ac565b91505092915050565b5f5f604083850312156132305761322f613042565b5b5f61323d85828601613060565b925050602083013567ffffffffffffffff81111561325e5761325d613046565b5b61326a858286016131ed565b9150509250929050565b5f819050919050565b61328681613274565b82525050565b5f60208201905061329f5f83018461327d565b92915050565b5f67ffffffffffffffff8211156132bf576132be6130f6565b5b6132c8826130e6565b9050602081019050919050565b5f6132e76132e2846132a5565b613154565b905082815260208101848484011115613303576133026130e2565b5b61330e84828561319e565b509392505050565b5f82601f83011261332a576133296130de565b5b813561333a8482602086016132d5565b91505092915050565b61334c8161309f565b8114613356575f5ffd5b50565b5f8135905061336781613343565b92915050565b5f5f5f5f6080858703121561338557613384613042565b5b5f85013567ffffffffffffffff8111156133a2576133a1613046565b5b6133ae87828801613316565b94505060206133bf87828801613060565b93505060406133d087828801613359565b92505060606133e187828801613060565b91505092959194509250565b5f5ffd5b5f5ffd5b5f5f83601f84011261340a576134096130de565b5b8235905067ffffffffffffffff811115613427576134266133ed565b5b602083019150836001820283011115613443576134426133f1565b5b9250929050565b5f5f5f5f5f5f60a0878903121561346457613463613042565b5b5f61347189828a01613060565b965050602061348289828a01613359565b955050604061349389828a01613060565b94505060606134a489828a01613359565b935050608087013567ffffffffffffffff8111156134c5576134c4613046565b5b6134d189828a016133f5565b92509250509295509295509295565b5f5f83601f8401126134f5576134f46130de565b5b8235905067ffffffffffffffff811115613512576135116133ed565b5b60208301915083602082028301111561352e5761352d6133f1565b5b9250929050565b5f5f5f6040848603121561354c5761354b613042565b5b5f61355986828701613060565b935050602084013567ffffffffffffffff81111561357a57613579613046565b5b613586868287016134e0565b92509250509250925092565b5f81519050919050565b5f82825260208201905092915050565b5f819050602082019050919050565b6135c481613000565b82525050565b6135d38161309f565b82525050565b604082015f8201516135ed5f8501826135bb565b50602082015161360060208501826135ca565b50505050565b5f61361183836135d9565b60408301905092915050565b5f602082019050919050565b5f61363382613592565b61363d818561359c565b9350613648836135ac565b805f5b8381101561367857815161365f8882613606565b975061366a8361361d565b92505060018101905061364b565b5085935050505092915050565b5f6020820190508181035f83015261369d8184613629565b905092915050565b5f5f5f5f606085870312156136bd576136bc613042565b5b5f6136ca87828801613060565b94505060206136db87828801613359565b935050604085013567ffffffffffffffff8111156136fc576136fb613046565b5b613708878288016133f5565b925092505092959194509250565b5f81519050919050565b5f82825260208201905092915050565b8281835e5f83830152505050565b5f61374882613716565b6137528185613720565b9350613762818560208601613730565b61376b816130e6565b840191505092915050565b5f6020820190508181035f83015261378e818461373e565b905092915050565b5f5f5f606084860312156137ad576137ac613042565b5b5f6137ba86828701613060565b93505060206137cb86828701613060565b92505060406137dc86828701613060565b9150509250925092565b7f4552524f525f41444d494e2e00000000000000000000000000000000000000005f82015250565b5f61381a600c83613720565b9150613825826137e6565b602082019050919050565b5f6020820190508181035f8301526138478161380e565b9050919050565b7f5a45524f5f414444524553532e000000000000000000000000000000000000005f82015250565b5f613882600d83613720565b915061388d8261384e565b602082019050919050565b5f6020820190508181035f8301526138af81613876565b9050919050565b5f6040820190506138c95f830185613011565b6138d66020830184613011565b9392505050565b5f815190506138eb8161304a565b92915050565b5f6020828403121561390657613905613042565b5b5f613913848285016138dd565b91505092915050565b7f4e487b71000000000000000000000000000000000000000000000000000000005f52603260045260245ffd5b5f81519050919050565b5f82825260208201905092915050565b5f819050602082019050919050565b5f61397d83836135bb565b60208301905092915050565b5f602082019050919050565b5f61399f82613949565b6139a98185613953565b93506139b483613963565b805f5b838110156139e45781516139cb8882613972565b97506139d683613989565b9250506001810190506139b7565b5085935050505092915050565b5f604082019050613a045f8301856130a8565b8181036020830152613a168184613995565b90509392505050565b5f67ffffffffffffffff821115613a3957613a386130f6565b5b602082029050602081019050919050565b5f81519050613a5881613343565b92915050565b5f613a70613a6b84613a1f565b613154565b90508083825260208201905060208402830185811115613a9357613a926133f1565b5b835b81811015613abc5780613aa88882613a4a565b845260208401935050602081019050613a95565b5050509392505050565b5f82601f830112613ada57613ad96130de565b5b8151613aea848260208601613a5e565b91505092915050565b5f60208284031215613b0857613b07613042565b5b5f82015167ffffffffffffffff811115613b2557613b24613046565b5b613b3184828501613ac6565b91505092915050565b7f4e487b71000000000000000000000000000000000000000000000000000000005f52601160045260245ffd5b5f613b718261309f565b9150613b7c8361309f565b9250828203905081811115613b9457613b93613b3a565b5b92915050565b7f4552524f525f414d4f554e542e000000000000000000000000000000000000005f82015250565b5f613bce600d83613720565b9150613bd982613b9a565b602082019050919050565b5f6020820190508181035f830152613bfb81613bc2565b9050919050565b5f6080820190508181035f830152613c1a818761373e565b9050613c296020830186613011565b613c366040830185613011565b613c4360608301846130a8565b95945050505050565b7f4552524f525f414d4f554e5400000000000000000000000000000000000000005f82015250565b5f613c80600c83613720565b9150613c8b82613c4c565b602082019050919050565b5f6020820190508181035f830152613cad81613c74565b9050919050565b5f613cbf8385613720565b9350613ccc83858461319e565b613cd5836130e6565b840190509392505050565b5f60c082019050613cf35f83018a613011565b613d006020830189613011565b613d0d60408301886130a8565b613d1a6060830187613011565b613d2760808301866130a8565b81810360a0830152613d3a818486613cb4565b905098975050505050505050565b5f60208284031215613d5d57613d5c613042565b5b5f613d6a84828501613a4a565b91505092915050565b5f819050919050565b5f819050919050565b5f613d9f613d9a613d9584613d73565b613d7c565b61309f565b9050919050565b613daf81613d85565b82525050565b5f60c082019050613dc85f83018a613011565b613dd56020830189613011565b613de260408301886130a8565b613def6060830187613011565b613dfc6080830186613da6565b81810360a0830152613e0f818486613cb4565b905098975050505050505050565b5f819050919050565b5f67ffffffffffffffff82169050919050565b5f613e53613e4e613e4984613e1d565b613d7c565b613e26565b9050919050565b613e6381613e39565b82525050565b5f602082019050613e7c5f830184613e5a565b92915050565b613e8b81613274565b8114613e95575f5ffd5b50565b5f81519050613ea681613e82565b92915050565b5f60208284031215613ec157613ec0613042565b5b5f613ece84828501613e98565b91505092915050565b5f606082019050613eea5f830186613011565b613ef76020830185613011565b613f0460408301846130a8565b949350505050565b5f81519050919050565b5f81905092915050565b5f613f2a82613f0c565b613f348185613f16565b9350613f44818560208601613730565b80840191505092915050565b5f613f5b8284613f20565b915081905092915050565b5f8115159050919050565b613f7a81613f66565b8114613f84575f5ffd5b50565b5f81519050613f9581613f71565b92915050565b5f60208284031215613fb057613faf613042565b5b5f613fbd84828501613f87565b91505092915050565b7f5472616e7366657248656c7065723a205452414e534645525f46524f4d5f46415f8201527f494c454400000000000000000000000000000000000000000000000000000000602082015250565b5f614020602483613720565b915061402b82613fc6565b604082019050919050565b5f6020820190508181035f83015261404d81614014565b9050919050565b7f5472616e7366657248656c7065723a204554485f5452414e534645525f4641495f8201527f4c45440000000000000000000000000000000000000000000000000000000000602082015250565b5f6140ae602383613720565b91506140b982614054565b604082019050919050565b5f6020820190508181035f8301526140db816140a2565b9050919050565b7f4d49534d415443485f4c454e47544800000000000000000000000000000000005f82015250565b5f614116600f83613720565b9150614121826140e2565b602082019050919050565b5f6020820190508181035f8301526141438161410a565b9050919050565b5f6141548261309f565b915061415f8361309f565b925082820190508082111561417757614176613b3a565b5b92915050565b5f6141878261309f565b91506141928361309f565b92508282026141a08161309f565b915082820484148315176141b7576141b6613b3a565b5b5092915050565b7f4e487b71000000000000000000000000000000000000000000000000000000005f52601260045260245ffd5b5f6141f58261309f565b91506142008361309f565b9250826142105761420f6141be565b5b828204905092915050565b7f4552524f525f50415941424c455f414d4f554e540000000000000000000000005f82015250565b5f61424f601483613720565b915061425a8261421b565b602082019050919050565b5f6020820190508181035f83015261427c81614243565b9050919050565b7f4e4f5f4554485f524551554952454400000000000000000000000000000000005f82015250565b5f6142b7600f83613720565b91506142c282614283565b602082019050919050565b5f6020820190508181035f8301526142e4816142ab565b9050919050565b7f5472616e7366657248656c7065723a205452414e534645525f4641494c4544005f82015250565b5f61431f601f83613720565b915061432a826142eb565b602082019050919050565b5f6020820190508181035f83015261434c81614313565b9050919050565b5f6080820190506143665f830187613da6565b81810360208301526143788186613995565b90506143876040830185613011565b61439460608301846130a8565b9594505050505056fea264697066735822122069a22590c2670526874d809542e71f52e1cc94d3267a75ce9b6700d2a63fc83a64736f6c634300081e0033","linkReferences":{}},"methodIdentifiers":{"DEAD()":"03fd2a45","FACT()":"8c644e69","UPGRADE_INTERFACE_VERSION()":"ad3cb1cc","USDT()":"c54e44eb","WBNB()":"8dd95002","admin()":"f851a440","changeAdmin(address)":"8f283970","changeOperator(address)":"06394c9b","changeRecipient(address)":"92c2bcb4","changeSender(address)":"b280a7e7","donation()":"8edeb15d","factory()":"c45a0155","getPrice(address)":"41976e09","initialize(address,address,address)":"c0c53b8b","multiBalanceOf(address,address[])":"9f166cf1","multiRecharge(address,uint256,address,uint256,string)":"73abf0af","operator()":"570ca735","owner()":"8da5cb5b","proxiableUUID()":"52d1902d","recipient()":"66d003ac","renounceOwnership()":"715018a6","router()":"f887ea40","sender()":"67e404ce","singleRecharge(address,uint256,string)":"aa7e7eb9","transferOwnership(address)":"f2fde38b","upgradeToAndCall(address,bytes)":"4f1ef286","withdraw(string,address,uint256,address)":"62a33811"},"id":45}