{"abi":[{"type":"receive","stateMutability":"payable"},{"type":"function","name":"DEAD","inputs":[],"outputs":[{"name":"","type":"address","internalType":"address"}],"stateMutability":"view"},{"type":"function","name":"UPGRADE_INTERFACE_VERSION","inputs":[],"outputs":[{"name":"","type":"string","internalType":"string"}],"stateMutability":"view"},{"type":"function","name":"USDT","inputs":[],"outputs":[{"name":"","type":"address","internalType":"address"}],"stateMutability":"view"},{"type":"function","name":"WBNB","inputs":[],"outputs":[{"name":"","type":"address","internalType":"address"}],"stateMutability":"view"},{"type":"function","name":"admin","inputs":[],"outputs":[{"name":"","type":"address","internalType":"address"}],"stateMutability":"view"},{"type":"function","name":"changeAdmin","inputs":[{"name":"_newAdmin","type":"address","internalType":"address"}],"outputs":[],"stateMutability":"nonpayable"},{"type":"function","name":"changeOperator","inputs":[{"name":"_newOperator","type":"address","internalType":"address"}],"outputs":[],"stateMutability":"nonpayable"},{"type":"function","name":"changePercent100","inputs":[{"name":"_percent100","type":"address","internalType":"address"}],"outputs":[],"stateMutability":"nonpayable"},{"type":"function","name":"changeRecipient","inputs":[{"name":"_newRecipient","type":"address","internalType":"address"}],"outputs":[],"stateMutability":"nonpayable"},{"type":"function","name":"changeSender","inputs":[{"name":"_newSender","type":"address","internalType":"address"}],"outputs":[],"stateMutability":"nonpayable"},{"type":"function","name":"donation","inputs":[],"outputs":[{"name":"","type":"address","internalType":"address"}],"stateMutability":"view"},{"type":"function","name":"fact","inputs":[],"outputs":[{"name":"","type":"address","internalType":"address"}],"stateMutability":"view"},{"type":"function","name":"factory","inputs":[],"outputs":[{"name":"","type":"address","internalType":"address"}],"stateMutability":"view"},{"type":"function","name":"getPrice","inputs":[{"name":"token","type":"address","internalType":"address"}],"outputs":[{"name":"","type":"address","internalType":"address"},{"name":"","type":"uint256","internalType":"uint256"}],"stateMutability":"view"},{"type":"function","name":"initialize","inputs":[{"name":"_admin","type":"address","internalType":"address"},{"name":"_recipient","type":"address","internalType":"address"},{"name":"_sender","type":"address","internalType":"address"},{"name":"_percent100","type":"address","internalType":"address"},{"name":"_fact","type":"address","internalType":"address"}],"outputs":[],"stateMutability":"nonpayable"},{"type":"function","name":"multiBalanceOf","inputs":[{"name":"token","type":"address","internalType":"address"},{"name":"users","type":"address[]","internalType":"address[]"}],"outputs":[{"name":"","type":"tuple[]","internalType":"struct Recharge.Info[]","components":[{"name":"user","type":"address","internalType":"address"},{"name":"amount","type":"uint256","internalType":"uint256"}]}],"stateMutability":"view"},{"type":"function","name":"multiRecharge","inputs":[{"name":"token0","type":"address","internalType":"address"},{"name":"amount0","type":"uint256","internalType":"uint256"},{"name":"token1","type":"address","internalType":"address"},{"name":"amount1","type":"uint256","internalType":"uint256"},{"name":"remark","type":"string","internalType":"string"}],"outputs":[],"stateMutability":"payable"},{"type":"function","name":"operator","inputs":[],"outputs":[{"name":"","type":"address","internalType":"address"}],"stateMutability":"view"},{"type":"function","name":"owner","inputs":[],"outputs":[{"name":"","type":"address","internalType":"address"}],"stateMutability":"view"},{"type":"function","name":"percent100","inputs":[],"outputs":[{"name":"","type":"address","internalType":"address"}],"stateMutability":"view"},{"type":"function","name":"proxiableUUID","inputs":[],"outputs":[{"name":"","type":"bytes32","internalType":"bytes32"}],"stateMutability":"view"},{"type":"function","name":"recipient","inputs":[],"outputs":[{"name":"","type":"address","internalType":"address"}],"stateMutability":"view"},{"type":"function","name":"renounceOwnership","inputs":[],"outputs":[],"stateMutability":"nonpayable"},{"type":"function","name":"router","inputs":[],"outputs":[{"name":"","type":"address","internalType":"address"}],"stateMutability":"view"},{"type":"function","name":"sender","inputs":[],"outputs":[{"name":"","type":"address","internalType":"address"}],"stateMutability":"view"},{"type":"function","name":"singleRecharge","inputs":[{"name":"token","type":"address","internalType":"address"},{"name":"amount","type":"uint256","internalType":"uint256"},{"name":"remark","type":"string","internalType":"string"}],"outputs":[],"stateMutability":"payable"},{"type":"function","name":"singleRechargePercent100","inputs":[{"name":"token","type":"address","internalType":"address"},{"name":"amount","type":"uint256","internalType":"uint256"},{"name":"remark","type":"string","internalType":"string"}],"outputs":[],"stateMutability":"payable"},{"type":"function","name":"transferOwnership","inputs":[{"name":"newOwner","type":"address","internalType":"address"}],"outputs":[],"stateMutability":"nonpayable"},{"type":"function","name":"upgradeToAndCall","inputs":[{"name":"newImplementation","type":"address","internalType":"address"},{"name":"data","type":"bytes","internalType":"bytes"}],"outputs":[],"stateMutability":"payable"},{"type":"function","name":"withdraw","inputs":[{"name":"remark","type":"string","internalType":"string"},{"name":"token","type":"address","internalType":"address"},{"name":"amount","type":"uint256","internalType":"uint256"},{"name":"to","type":"address","internalType":"address"}],"outputs":[],"stateMutability":"nonpayable"},{"type":"event","name":"AdminshipTransferred","inputs":[{"name":"previousAdmin","type":"address","indexed":true,"internalType":"address"},{"name":"newAdmin","type":"address","indexed":true,"internalType":"address"}],"anonymous":false},{"type":"event","name":"Initialized","inputs":[{"name":"version","type":"uint64","indexed":false,"internalType":"uint64"}],"anonymous":false},{"type":"event","name":"MultiRecharge","inputs":[{"name":"user","type":"address","indexed":false,"internalType":"address"},{"name":"token0","type":"address","indexed":false,"internalType":"address"},{"name":"amount0","type":"uint256","indexed":false,"internalType":"uint256"},{"name":"token1","type":"address","indexed":false,"internalType":"address"},{"name":"amount1","type":"uint256","indexed":false,"internalType":"uint256"},{"name":"remark","type":"string","indexed":false,"internalType":"string"}],"anonymous":false},{"type":"event","name":"OwnershipTransferred","inputs":[{"name":"previousOwner","type":"address","indexed":true,"internalType":"address"},{"name":"newOwner","type":"address","indexed":true,"internalType":"address"}],"anonymous":false},{"type":"event","name":"Upgraded","inputs":[{"name":"implementation","type":"address","indexed":true,"internalType":"address"}],"anonymous":false},{"type":"event","name":"Withdraw","inputs":[{"name":"remark","type":"string","indexed":false,"internalType":"string"},{"name":"token","type":"address","indexed":false,"internalType":"address"},{"name":"to","type":"address","indexed":false,"internalType":"address"},{"name":"amount","type":"uint256","indexed":false,"internalType":"uint256"}],"anonymous":false},{"type":"error","name":"AddressEmptyCode","inputs":[{"name":"target","type":"address","internalType":"address"}]},{"type":"error","name":"ERC1967InvalidImplementation","inputs":[{"name":"implementation","type":"address","internalType":"address"}]},{"type":"error","name":"ERC1967NonPayable","inputs":[]},{"type":"error","name":"FailedCall","inputs":[]},{"type":"error","name":"InvalidInitialization","inputs":[]},{"type":"error","name":"NotInitializing","inputs":[]},{"type":"error","name":"OwnableInvalidOwner","inputs":[{"name":"owner","type":"address","internalType":"address"}]},{"type":"error","name":"OwnableUnauthorizedAccount","inputs":[{"name":"account","type":"address","internalType":"address"}]},{"type":"error","name":"ReentrancyGuardReentrantCall","inputs":[]},{"type":"error","name":"UUPSUnauthorizedCallContext","inputs":[]},{"type":"error","name":"UUPSUnsupportedProxiableUUID","inputs":[{"name":"slot","type":"bytes32","internalType":"bytes32"}]}],"bytecode":{"object":"0x60a06040523073ffffffffffffffffffffffffffffffffffffffff1660809073ffffffffffffffffffffffffffffffffffffffff168152503480156041575f5ffd5b5060015f8190555060805161488961006f5f395f81816121b10152818161220601526123c001526148895ff3fe6080604052600436106101d0575f3560e01c80638dd95002116100f6578063b0a574f911610094578063de0d732711610063578063de0d7327146105ea578063f2fde38b14610614578063f851a4401461063c578063f887ea4014610666576101d7565b8063b0a574f914610552578063b280a7e71461056e578063c45a015514610596578063c54e44eb146105c0576101d7565b806392c2bcb4116100d057806392c2bcb4146104a85780639f166cf1146104d0578063aa7e7eb91461050c578063ad3cb1cc14610528576101d7565b80638dd950021461042c5780638edeb15d146104565780638f28397014610480576101d7565b80636225a3831161016e578063715018a61161013d578063715018a6146103a657806373abf0af146103bc57806373e3ce80146103d85780638da5cb5b14610402576101d7565b80636225a3831461030257806362a338111461032a57806366d003ac1461035257806367e404ce1461037c576101d7565b806341976e09116101aa57806341976e09146102555780634f1ef2861461029257806352d1902d146102ae578063570ca735146102d8576101d7565b806303fd2a45146101db57806306394c9b146102055780631459457a1461022d576101d7565b366101d757005b5f5ffd5b3480156101e6575f5ffd5b506101ef610690565b6040516101fc91906134af565b60405180910390f35b348015610210575f5ffd5b5061022b60048036038101906102269190613503565b610696565b005b348015610238575f5ffd5b50610253600480360381019061024e919061352e565b6107d6565b005b348015610260575f5ffd5b5061027b60048036038101906102769190613503565b610aa2565b6040516102899291906135bd565b60405180910390f35b6102ac60048036038101906102a79190613720565b611033565b005b3480156102b9575f5ffd5b506102c2611052565b6040516102cf9190613792565b60405180910390f35b3480156102e3575f5ffd5b506102ec611083565b6040516102f991906134af565b60405180910390f35b34801561030d575f5ffd5b5061032860048036038101906103239190613503565b6110a8565b005b348015610335575f5ffd5b50610350600480360381019061034b9190613873565b6111e8565b005b34801561035d575f5ffd5b5061036661136c565b60405161037391906134af565b60405180910390f35b348015610387575f5ffd5b50610390611391565b60405161039d91906134af565b60405180910390f35b3480156103b1575f5ffd5b506103ba6113b6565b005b6103d660048036038101906103d19190613950565b6113c9565b005b3480156103e3575f5ffd5b506103ec6115e4565b6040516103f991906134af565b60405180910390f35b34801561040d575f5ffd5b50610416611609565b60405161042391906134af565b60405180910390f35b348015610437575f5ffd5b5061044061163e565b60405161044d91906134af565b60405180910390f35b348015610461575f5ffd5b5061046a611656565b60405161047791906134af565b60405180910390f35b34801561048b575f5ffd5b506104a660048036038101906104a19190613503565b61166e565b005b3480156104b3575f5ffd5b506104ce60048036038101906104c99190613503565b6117a2565b005b3480156104db575f5ffd5b506104f660048036038101906104f19190613a3b565b6118e2565b6040516105039190613b8b565b60405180910390f35b61052660048036038101906105219190613bab565b611b7e565b005b348015610533575f5ffd5b5061053c611d1d565b6040516105499190613c7c565b60405180910390f35b61056c60048036038101906105679190613bab565b611d56565b005b348015610579575f5ffd5b50610594600480360381019061058f9190613503565b611f2b565b005b3480156105a1575f5ffd5b506105aa61206b565b6040516105b791906134af565b60405180910390f35b3480156105cb575f5ffd5b506105d4612083565b6040516105e191906134af565b60405180910390f35b3480156105f5575f5ffd5b506105fe61209b565b60405161060b91906134af565b60405180910390f35b34801561061f575f5ffd5b5061063a60048036038101906106359190613503565b6120c0565b005b348015610647575f5ffd5b50610650612144565b60405161065d91906134af565b60405180910390f35b348015610671575f5ffd5b5061067a612169565b60405161068791906134af565b60405180910390f35b61dead81565b60015f9054906101000a900473ffffffffffffffffffffffffffffffffffffffff1673ffffffffffffffffffffffffffffffffffffffff163373ffffffffffffffffffffffffffffffffffffffff1614610725576040517f08c379a000000000000000000000000000000000000000000000000000000000815260040161071c90613ce6565b60405180910390fd5b5f73ffffffffffffffffffffffffffffffffffffffff168173ffffffffffffffffffffffffffffffffffffffff1603610793576040517f08c379a000000000000000000000000000000000000000000000000000000000815260040161078a90613d4e565b60405180910390fd5b8060025f6101000a81548173ffffffffffffffffffffffffffffffffffffffff021916908373ffffffffffffffffffffffffffffffffffffffff16021790555050565b5f6107df612181565b90505f815f0160089054906101000a900460ff161590505f825f015f9054906101000a900467ffffffffffffffff1690505f5f8267ffffffffffffffff161480156108275750825b90505f60018367ffffffffffffffff1614801561085a57505f3073ffffffffffffffffffffffffffffffffffffffff163b145b905081158015610868575080155b1561089f576040517ff92ee8a900000000000000000000000000000000000000000000000000000000815260040160405180910390fd5b6001855f015f6101000a81548167ffffffffffffffff021916908367ffffffffffffffff16021790555083156108ec576001855f0160086101000a81548160ff0219169083151502179055505b6108fc6108f7612194565b61219b565b8960015f6101000a81548173ffffffffffffffffffffffffffffffffffffffff021916908373ffffffffffffffffffffffffffffffffffffffff1602179055508860035f6101000a81548173ffffffffffffffffffffffffffffffffffffffff021916908373ffffffffffffffffffffffffffffffffffffffff1602179055508760045f6101000a81548173ffffffffffffffffffffffffffffffffffffffff021916908373ffffffffffffffffffffffffffffffffffffffff1602179055508660055f6101000a81548173ffffffffffffffffffffffffffffffffffffffff021916908373ffffffffffffffffffffffffffffffffffffffff1602179055508560065f6101000a81548173ffffffffffffffffffffffffffffffffffffffff021916908373ffffffffffffffffffffffffffffffffffffffff1602179055508315610a96575f855f0160086101000a81548160ff0219169083151502179055507fc7f505b2f371ae2175ee4913f4499e1f2633a7b5936321eed1cdaeb6115181d26001604051610a8d9190613dc1565b60405180910390a15b50505050505050505050565b5f5f5f73ca143ce32fe78f1f7019d7d551a6402fc5350c7373ffffffffffffffffffffffffffffffffffffffff1663e6a439058573bb4cdb9cbd36b01bd1cbaebf2de08d9173bc095c6040518363ffffffff1660e01b8152600401610b08929190613dda565b602060405180830381865afa158015610b23573d5f5f3e3d5ffd5b505050506040513d601f19601f82011682018060405250810190610b479190613e15565b90505f73ca143ce32fe78f1f7019d7d551a6402fc5350c7373ffffffffffffffffffffffffffffffffffffffff1663e6a43905867355d398326f99059ff775485246999027b31979556040518363ffffffff1660e01b8152600401610bad929190613dda565b602060405180830381865afa158015610bc8573d5f5f3e3d5ffd5b505050506040513d601f19601f82011682018060405250810190610bec9190613e15565b90505f670de0b6b3a764000090505f5f73ffffffffffffffffffffffffffffffffffffffff168373ffffffffffffffffffffffffffffffffffffffff1614610e0f575f600267ffffffffffffffff811115610c4a57610c496135fc565b5b604051908082528060200260200182016040528015610c785781602001602082028036833780820191505090505b50905087815f81518110610c8f57610c8e613e40565b5b602002602001019073ffffffffffffffffffffffffffffffffffffffff16908173ffffffffffffffffffffffffffffffffffffffff16815250507355d398326f99059ff775485246999027b319795581600181518110610cf257610cf1613e40565b5b602002602001019073ffffffffffffffffffffffffffffffffffffffff16908173ffffffffffffffffffffffffffffffffffffffff16815250505f7310ed43c718714eb63d5aa57b78b54704e256024e73ffffffffffffffffffffffffffffffffffffffff1663d06ca61f85846040518363ffffffff1660e01b8152600401610d7c929190613f15565b5f60405180830381865afa158015610d96573d5f5f3e3d5ffd5b505050506040513d5f823e3d601f19601f82011682018060405250810190610dbe9190614017565b90508060018251610dcf919061408b565b81518110610de057610ddf613e40565b5b602002602001015192507355d398326f99059ff775485246999027b3197955839750975050505050505061102e565b5f73ffffffffffffffffffffffffffffffffffffffff168473ffffffffffffffffffffffffffffffffffffffff1614611023575f600267ffffffffffffffff811115610e5e57610e5d6135fc565b5b604051908082528060200260200182016040528015610e8c5781602001602082028036833780820191505090505b50905087815f81518110610ea357610ea2613e40565b5b602002602001019073ffffffffffffffffffffffffffffffffffffffff16908173ffffffffffffffffffffffffffffffffffffffff168152505073bb4cdb9cbd36b01bd1cbaebf2de08d9173bc095c81600181518110610f0657610f05613e40565b5b602002602001019073ffffffffffffffffffffffffffffffffffffffff16908173ffffffffffffffffffffffffffffffffffffffff16815250505f7310ed43c718714eb63d5aa57b78b54704e256024e73ffffffffffffffffffffffffffffffffffffffff1663d06ca61f85846040518363ffffffff1660e01b8152600401610f90929190613f15565b5f60405180830381865afa158015610faa573d5f5f3e3d5ffd5b505050506040513d5f823e3d601f19601f82011682018060405250810190610fd29190614017565b90508060018251610fe3919061408b565b81518110610ff457610ff3613e40565b5b6020026020010151925073bb4cdb9cbd36b01bd1cbaebf2de08d9173bc095c839750975050505050505061102e565b5f5f95509550505050505b915091565b61103b6121af565b61104482612295565b61104e82826122a0565b5050565b5f61105b6123be565b7f360894a13ba1a3210667c828492db98dca3e2076cc3735a920a3ca505d382bbc5f1b905090565b60025f9054906101000a900473ffffffffffffffffffffffffffffffffffffffff1681565b60015f9054906101000a900473ffffffffffffffffffffffffffffffffffffffff1673ffffffffffffffffffffffffffffffffffffffff163373ffffffffffffffffffffffffffffffffffffffff1614611137576040517f08c379a000000000000000000000000000000000000000000000000000000000815260040161112e90613ce6565b60405180910390fd5b5f73ffffffffffffffffffffffffffffffffffffffff168173ffffffffffffffffffffffffffffffffffffffff16036111a5576040517f08c379a000000000000000000000000000000000000000000000000000000000815260040161119c90613d4e565b60405180910390fd5b8060055f6101000a81548173ffffffffffffffffffffffffffffffffffffffff021916908373ffffffffffffffffffffffffffffffffffffffff16021790555050565b60015f9054906101000a900473ffffffffffffffffffffffffffffffffffffffff1673ffffffffffffffffffffffffffffffffffffffff163373ffffffffffffffffffffffffffffffffffffffff1614611277576040517f08c379a000000000000000000000000000000000000000000000000000000000815260040161126e90613ce6565b60405180910390fd5b5f82116112b9576040517f08c379a00000000000000000000000000000000000000000000000000000000081526004016112b090614108565b60405180910390fd5b5f73ffffffffffffffffffffffffffffffffffffffff168373ffffffffffffffffffffffffffffffffffffffff161461131e576113198360045f9054906101000a900473ffffffffffffffffffffffffffffffffffffffff168385612445565b611329565b6113288183612578565b5b7f99310eed5bb161586b62449f89ccaa4580f85f953cd64218092edfc2b1f5fce78484838560405161135e9493929190614126565b60405180910390a150505050565b60035f9054906101000a900473ffffffffffffffffffffffffffffffffffffffff1681565b60045f9054906101000a900473ffffffffffffffffffffffffffffffffffffffff1681565b6113be612673565b6113c75f6126fa565b565b5f8511806113d657505f83115b611415576040517f08c379a000000000000000000000000000000000000000000000000000000000815260040161140c906141ba565b60405180910390fd5b5f600267ffffffffffffffff811115611431576114306135fc565b5b60405190808252806020026020018201604052801561145f5781602001602082028036833780820191505090505b5090505f600267ffffffffffffffff81111561147e5761147d6135fc565b5b6040519080825280602002602001820160405280156114ac5781602001602082028036833780820191505090505b50905087825f815181106114c3576114c2613e40565b5b602002602001019073ffffffffffffffffffffffffffffffffffffffff16908173ffffffffffffffffffffffffffffffffffffffff168152505086815f8151811061151157611510613e40565b5b602002602001018181525050858260018151811061153257611531613e40565b5b602002602001019073ffffffffffffffffffffffffffffffffffffffff16908173ffffffffffffffffffffffffffffffffffffffff1681525050848160018151811061158157611580613e40565b5b60200260200101818152505061159782826127cb565b7f92bfe9b63523d7c8baff8387323dd4c1c8ccd48705d9c91e19160ebcabb053b8338989898989896040516115d29796959493929190614204565b60405180910390a15050505050505050565b60065f9054906101000a900473ffffffffffffffffffffffffffffffffffffffff1681565b5f5f611613612cdb565b9050805f015f9054906101000a900473ffffffffffffffffffffffffffffffffffffffff1691505090565b73bb4cdb9cbd36b01bd1cbaebf2de08d9173bc095c81565b73f8d9fbc9db44e378c603b45000c81066630eccd281565b611676612673565b5f73ffffffffffffffffffffffffffffffffffffffff168173ffffffffffffffffffffffffffffffffffffffff16036116e4576040517f08c379a00000000000000000000000000000000000000000000000000000000081526004016116db90613d4e565b60405180910390fd5b8073ffffffffffffffffffffffffffffffffffffffff1660015f9054906101000a900473ffffffffffffffffffffffffffffffffffffffff1673ffffffffffffffffffffffffffffffffffffffff167f2931ebb3d190545dcf6801c37aa686b74f2e1000e753d0fac6e471a2aa5a621360405160405180910390a38060015f6101000a81548173ffffffffffffffffffffffffffffffffffffffff021916908373ffffffffffffffffffffffffffffffffffffffff16021790555050565b60015f9054906101000a900473ffffffffffffffffffffffffffffffffffffffff1673ffffffffffffffffffffffffffffffffffffffff163373ffffffffffffffffffffffffffffffffffffffff1614611831576040517f08c379a000000000000000000000000000000000000000000000000000000000815260040161182890613ce6565b60405180910390fd5b5f73ffffffffffffffffffffffffffffffffffffffff168173ffffffffffffffffffffffffffffffffffffffff160361189f576040517f08c379a000000000000000000000000000000000000000000000000000000000815260040161189690613d4e565b60405180910390fd5b8060035f6101000a81548173ffffffffffffffffffffffffffffffffffffffff021916908373ffffffffffffffffffffffffffffffffffffffff16021790555050565b60605f8383905090505f8167ffffffffffffffff811115611906576119056135fc565b5b60405190808252806020026020018201604052801561193f57816020015b61192c613442565b8152602001906001900390816119245790505b5090505f73ffffffffffffffffffffffffffffffffffffffff168673ffffffffffffffffffffffffffffffffffffffff1603611a43575f5f90505b82811015611a3d5760405180604001604052808787848181106119a05761199f613e40565b5b90506020020160208101906119b59190613503565b73ffffffffffffffffffffffffffffffffffffffff1681526020018787848181106119e3576119e2613e40565b5b90506020020160208101906119f89190613503565b73ffffffffffffffffffffffffffffffffffffffff1631815250828281518110611a2557611a24613e40565b5b6020026020010181905250808060010191505061197a565b50611b72565b5f8690505f5f90505b83811015611b6f576040518060400160405280888884818110611a7257611a71613e40565b5b9050602002016020810190611a879190613503565b73ffffffffffffffffffffffffffffffffffffffff1681526020018373ffffffffffffffffffffffffffffffffffffffff166370a082318a8a86818110611ad157611ad0613e40565b5b9050602002016020810190611ae69190613503565b6040518263ffffffff1660e01b8152600401611b0291906134af565b602060405180830381865afa158015611b1d573d5f5f3e3d5ffd5b505050506040513d601f19601f82011682018060405250810190611b41919061426c565b815250838281518110611b5757611b56613e40565b5b60200260200101819052508080600101915050611a4c565b50505b80925050509392505050565b5f8311611bc0576040517f08c379a0000000000000000000000000000000000000000000000000000000008152600401611bb7906141ba565b60405180910390fd5b5f600167ffffffffffffffff811115611bdc57611bdb6135fc565b5b604051908082528060200260200182016040528015611c0a5781602001602082028036833780820191505090505b5090505f600167ffffffffffffffff811115611c2957611c286135fc565b5b604051908082528060200260200182016040528015611c575781602001602082028036833780820191505090505b50905085825f81518110611c6e57611c6d613e40565b5b602002602001019073ffffffffffffffffffffffffffffffffffffffff16908173ffffffffffffffffffffffffffffffffffffffff168152505084815f81518110611cbc57611cbb613e40565b5b602002602001018181525050611cd282826127cb565b7f92bfe9b63523d7c8baff8387323dd4c1c8ccd48705d9c91e19160ebcabb053b83387875f5f8989604051611d0d97969594939291906142d0565b60405180910390a1505050505050565b6040518060400160405280600581526020017f352e302e3000000000000000000000000000000000000000000000000000000081525081565b611d5e612d02565b5f8311611da0576040517f08c379a0000000000000000000000000000000000000000000000000000000008152600401611d97906141ba565b60405180910390fd5b5f73ffffffffffffffffffffffffffffffffffffffff168473ffffffffffffffffffffffffffffffffffffffff1603611eac5782341015611e16576040517f08c379a0000000000000000000000000000000000000000000000000000000008152600401611e0d90614382565b60405180910390fd5b611e4160055f9054906101000a900473ffffffffffffffffffffffffffffffffffffffff1684612578565b5f8334611e4e919061408b565b90505f811115611e6357611e623382612578565b5b7f92bfe9b63523d7c8baff8387323dd4c1c8ccd48705d9c91e19160ebcabb053b8335f865f5f8888604051611e9e97969594939291906142d0565b60405180910390a150611f1d565b611ed9843360055f9054906101000a900473ffffffffffffffffffffffffffffffffffffffff1686612445565b7f92bfe9b63523d7c8baff8387323dd4c1c8ccd48705d9c91e19160ebcabb053b83385855f5f8787604051611f1497969594939291906142d0565b60405180910390a15b611f25612d46565b50505050565b60015f9054906101000a900473ffffffffffffffffffffffffffffffffffffffff1673ffffffffffffffffffffffffffffffffffffffff163373ffffffffffffffffffffffffffffffffffffffff1614611fba576040517f08c379a0000000000000000000000000000000000000000000000000000000008152600401611fb190613ce6565b60405180910390fd5b5f73ffffffffffffffffffffffffffffffffffffffff168173ffffffffffffffffffffffffffffffffffffffff1603612028576040517f08c379a000000000000000000000000000000000000000000000000000000000815260040161201f90613d4e565b60405180910390fd5b8060045f6101000a81548173ffffffffffffffffffffffffffffffffffffffff021916908373ffffffffffffffffffffffffffffffffffffffff16021790555050565b73ca143ce32fe78f1f7019d7d551a6402fc5350c7381565b7355d398326f99059ff775485246999027b319795581565b60055f9054906101000a900473ffffffffffffffffffffffffffffffffffffffff1681565b6120c8612673565b5f73ffffffffffffffffffffffffffffffffffffffff168173ffffffffffffffffffffffffffffffffffffffff1603612138575f6040517f1e4fbdf700000000000000000000000000000000000000000000000000000000815260040161212f91906134af565b60405180910390fd5b612141816126fa565b50565b60015f9054906101000a900473ffffffffffffffffffffffffffffffffffffffff1681565b7310ed43c718714eb63d5aa57b78b54704e256024e81565b5f5f61218b612d4f565b90508091505090565b5f33905090565b6121a3612d78565b6121ac81612db8565b50565b7f000000000000000000000000000000000000000000000000000000000000000073ffffffffffffffffffffffffffffffffffffffff163073ffffffffffffffffffffffffffffffffffffffff16148061225c57507f000000000000000000000000000000000000000000000000000000000000000073ffffffffffffffffffffffffffffffffffffffff16612243612e3c565b73ffffffffffffffffffffffffffffffffffffffff1614155b15612293576040517fe07c8dba00000000000000000000000000000000000000000000000000000000815260040160405180910390fd5b565b61229d612673565b50565b8173ffffffffffffffffffffffffffffffffffffffff166352d1902d6040518163ffffffff1660e01b8152600401602060405180830381865afa92505050801561230857506040513d601f19601f8201168201806040525081019061230591906143ca565b60015b61234957816040517f4c9c8ce300000000000000000000000000000000000000000000000000000000815260040161234091906134af565b60405180910390fd5b7f360894a13ba1a3210667c828492db98dca3e2076cc3735a920a3ca505d382bbc5f1b81146123af57806040517faa1d49a40000000000000000000000000000000000000000000000000000000081526004016123a69190613792565b60405180910390fd5b6123b98383612e8f565b505050565b7f000000000000000000000000000000000000000000000000000000000000000073ffffffffffffffffffffffffffffffffffffffff163073ffffffffffffffffffffffffffffffffffffffff1614612443576040517fe07c8dba00000000000000000000000000000000000000000000000000000000815260040160405180910390fd5b565b5f5f8573ffffffffffffffffffffffffffffffffffffffff166323b872dd868686604051602401612478939291906143f5565b6040516020818303038152906040529060e01b6020820180517bffffffffffffffffffffffffffffffffffffffffffffffffffffffff83818316178352505050506040516124c6919061446e565b5f604051808303815f865af19150503d805f81146124ff576040519150601f19603f3d011682016040523d82523d5f602084013e612504565b606091505b509150915081801561253157505f8151148061253057508080602001905181019061252f91906144b9565b5b5b612570576040517f08c379a000000000000000000000000000000000000000000000000000000000815260040161256790614554565b60405180910390fd5b505050505050565b5f8273ffffffffffffffffffffffffffffffffffffffff16825f67ffffffffffffffff8111156125ab576125aa6135fc565b5b6040519080825280601f01601f1916602001820160405280156125dd5781602001600182028036833780820191505090505b506040516125eb919061446e565b5f6040518083038185875af1925050503d805f8114612625576040519150601f19603f3d011682016040523d82523d5f602084013e61262a565b606091505b505090508061266e576040517f08c379a0000000000000000000000000000000000000000000000000000000008152600401612665906145e2565b60405180910390fd5b505050565b61267b612194565b73ffffffffffffffffffffffffffffffffffffffff16612699611609565b73ffffffffffffffffffffffffffffffffffffffff16146126f8576126bc612194565b6040517f118cdaa70000000000000000000000000000000000000000000000000000000081526004016126ef91906134af565b60405180910390fd5b565b5f612703612cdb565b90505f815f015f9054906101000a900473ffffffffffffffffffffffffffffffffffffffff16905082825f015f6101000a81548173ffffffffffffffffffffffffffffffffffffffff021916908373ffffffffffffffffffffffffffffffffffffffff1602179055508273ffffffffffffffffffffffffffffffffffffffff168173ffffffffffffffffffffffffffffffffffffffff167f8be0079c531659141344cd1fd0a4f28419497f9722a3daafe3b4186f6b6457e060405160405180910390a3505050565b6127d3612d02565b8051825114612817576040517f08c379a000000000000000000000000000000000000000000000000000000000815260040161280e9061464a565b60405180910390fd5b5f5f90505f5f90505f5f90505b84518110156129c0575f85828151811061284157612840613e40565b5b602002602001015190505f85838151811061285f5761285e613e40565b5b602002602001015190505f81036128775750506129b3565b5f73ffffffffffffffffffffffffffffffffffffffff168273ffffffffffffffffffffffffffffffffffffffff16036128c35780856128b69190614668565b94506001935050506129b3565b60065f9054906101000a900473ffffffffffffffffffffffffffffffffffffffff1673ffffffffffffffffffffffffffffffffffffffff168273ffffffffffffffffffffffffffffffffffffffff16036129835761292382333084612445565b5f6064601e83612933919061469b565b61293d9190614709565b90505f818361294c919061408b565b905061296d8473f8d9fbc9db44e378c603b45000c81066630eccd284612f01565b61297a8461dead83612f01565b505050506129b3565b6129b0823360035f9054906101000a900473ffffffffffffffffffffffffffffffffffffffff1684612445565b50505b8080600101915050612824565b508015612c8a5781341015612a0a576040517f08c379a0000000000000000000000000000000000000000000000000000000008152600401612a0190614382565b60405180910390fd5b5f6064601e84612a1a919061469b565b612a249190614709565b90505f8184612a33919061408b565b90505f60065f9054906101000a900473ffffffffffffffffffffffffffffffffffffffff1673ffffffffffffffffffffffffffffffffffffffff166370a08231306040518263ffffffff1660e01b8152600401612a9091906134af565b602060405180830381865afa158015612aab573d5f5f3e3d5ffd5b505050506040513d601f19601f82011682018060405250810190612acf919061426c565b9050612ada83613031565b5f60065f9054906101000a900473ffffffffffffffffffffffffffffffffffffffff1673ffffffffffffffffffffffffffffffffffffffff166370a08231306040518263ffffffff1660e01b8152600401612b3591906134af565b602060405180830381865afa158015612b50573d5f5f3e3d5ffd5b505050506040513d601f19601f82011682018060405250810190612b74919061426c565b90505f8282612b83919061408b565b90505f811115612c29575f6064601e83612b9d919061469b565b612ba79190614709565b90505f8183612bb6919061408b565b9050612bf860065f9054906101000a900473ffffffffffffffffffffffffffffffffffffffff1673f8d9fbc9db44e378c603b45000c81066630eccd284612f01565b612c2660065f9054906101000a900473ffffffffffffffffffffffffffffffffffffffff1661dead83612f01565b50505b5f841115612c5d57612c5c60035f9054906101000a900473ffffffffffffffffffffffffffffffffffffffff1685612578565b5b5f8734612c6a919061408b565b90505f811115612c7f57612c7e3382612578565b5b505050505050612ccd565b5f3414612ccc576040517f08c379a0000000000000000000000000000000000000000000000000000000008152600401612cc390614783565b60405180910390fd5b5b5050612cd7612d46565b5050565b5f7f9016d09d72d40fdae2fd8ceac6b6234c7706214fd39c1cd1e609a0528c199300905090565b60025f5403612d3d576040517f3ee5aeb500000000000000000000000000000000000000000000000000000000815260040160405180910390fd5b60025f81905550565b60015f81905550565b5f7ff0c57e16840df040f15088dc2f81fe391c3923bec73e23a9662efc9c229c6a005f1b905090565b612d806131e2565b612db6576040517fd7e6bcf800000000000000000000000000000000000000000000000000000000815260040160405180910390fd5b565b612dc0612d78565b5f73ffffffffffffffffffffffffffffffffffffffff168173ffffffffffffffffffffffffffffffffffffffff1603612e30575f6040517f1e4fbdf7000000000000000000000000000000000000000000000000000000008152600401612e2791906134af565b60405180910390fd5b612e39816126fa565b50565b5f612e687f360894a13ba1a3210667c828492db98dca3e2076cc3735a920a3ca505d382bbc5f1b613200565b5f015f9054906101000a900473ffffffffffffffffffffffffffffffffffffffff16905090565b612e9882613209565b8173ffffffffffffffffffffffffffffffffffffffff167fbc7cd75a20ee27fd9adebab32041f755214dbc6bffa90cc0225b39da2e5c2d3b60405160405180910390a25f81511115612ef457612eee82826132d2565b50612efd565b612efc6133c3565b5b5050565b5f5f8473ffffffffffffffffffffffffffffffffffffffff1663a9059cbb8585604051602401612f329291906135bd565b6040516020818303038152906040529060e01b6020820180517bffffffffffffffffffffffffffffffffffffffffffffffffffffffff8381831617835250505050604051612f80919061446e565b5f604051808303815f865af19150503d805f8114612fb9576040519150601f19603f3d011682016040523d82523d5f602084013e612fbe565b606091505b5091509150818015612feb57505f81511480612fea575080806020019051810190612fe991906144b9565b5b5b61302a576040517f08c379a0000000000000000000000000000000000000000000000000000000008152600401613021906147eb565b60405180910390fd5b5050505050565b5f600267ffffffffffffffff81111561304d5761304c6135fc565b5b60405190808252806020026020018201604052801561307b5781602001602082028036833780820191505090505b50905073bb4cdb9cbd36b01bd1cbaebf2de08d9173bc095c815f815181106130a6576130a5613e40565b5b602002602001019073ffffffffffffffffffffffffffffffffffffffff16908173ffffffffffffffffffffffffffffffffffffffff168152505060065f9054906101000a900473ffffffffffffffffffffffffffffffffffffffff168160018151811061311657613115613e40565b5b602002602001019073ffffffffffffffffffffffffffffffffffffffff16908173ffffffffffffffffffffffffffffffffffffffff16815250507310ed43c718714eb63d5aa57b78b54704e256024e73ffffffffffffffffffffffffffffffffffffffff1663b6f9de95835f8430600a426131919190614668565b6040518663ffffffff1660e01b81526004016131b09493929190614809565b5f604051808303818588803b1580156131c7575f5ffd5b505af11580156131d9573d5f5f3e3d5ffd5b50505050505050565b5f6131eb612181565b5f0160089054906101000a900460ff16905090565b5f819050919050565b5f8173ffffffffffffffffffffffffffffffffffffffff163b0361326457806040517f4c9c8ce300000000000000000000000000000000000000000000000000000000815260040161325b91906134af565b60405180910390fd5b806132907f360894a13ba1a3210667c828492db98dca3e2076cc3735a920a3ca505d382bbc5f1b613200565b5f015f6101000a81548173ffffffffffffffffffffffffffffffffffffffff021916908373ffffffffffffffffffffffffffffffffffffffff16021790555050565b60605f6132df84846133ff565b905080801561331557505f6132f2613413565b118061331457505f8473ffffffffffffffffffffffffffffffffffffffff163b115b5b1561332a5761332261341a565b9150506133bd565b801561336d57836040517f9996b31500000000000000000000000000000000000000000000000000000000815260040161336491906134af565b60405180910390fd5b5f613376613413565b111561338957613384613437565b6133bb565b6040517fd6bda27500000000000000000000000000000000000000000000000000000000815260040160405180910390fd5b505b92915050565b5f3411156133fd576040517fb398979f00000000000000000000000000000000000000000000000000000000815260040160405180910390fd5b565b5f5f5f835160208501865af4905092915050565b5f3d905090565b606060405190503d81523d5f602083013e3d602001810160405290565b6040513d5f823e3d81fd5b60405180604001604052805f73ffffffffffffffffffffffffffffffffffffffff1681526020015f81525090565b5f73ffffffffffffffffffffffffffffffffffffffff82169050919050565b5f61349982613470565b9050919050565b6134a98161348f565b82525050565b5f6020820190506134c25f8301846134a0565b92915050565b5f604051905090565b5f5ffd5b5f5ffd5b6134e28161348f565b81146134ec575f5ffd5b50565b5f813590506134fd816134d9565b92915050565b5f60208284031215613518576135176134d1565b5b5f613525848285016134ef565b91505092915050565b5f5f5f5f5f60a08688031215613547576135466134d1565b5b5f613554888289016134ef565b9550506020613565888289016134ef565b9450506040613576888289016134ef565b9350506060613587888289016134ef565b9250506080613598888289016134ef565b9150509295509295909350565b5f819050919050565b6135b7816135a5565b82525050565b5f6040820190506135d05f8301856134a0565b6135dd60208301846135ae565b9392505050565b5f5ffd5b5f5ffd5b5f601f19601f8301169050919050565b7f4e487b71000000000000000000000000000000000000000000000000000000005f52604160045260245ffd5b613632826135ec565b810181811067ffffffffffffffff82111715613651576136506135fc565b5b80604052505050565b5f6136636134c8565b905061366f8282613629565b919050565b5f67ffffffffffffffff82111561368e5761368d6135fc565b5b613697826135ec565b9050602081019050919050565b828183375f83830152505050565b5f6136c46136bf84613674565b61365a565b9050828152602081018484840111156136e0576136df6135e8565b5b6136eb8482856136a4565b509392505050565b5f82601f830112613707576137066135e4565b5b81356137178482602086016136b2565b91505092915050565b5f5f60408385031215613736576137356134d1565b5b5f613743858286016134ef565b925050602083013567ffffffffffffffff811115613764576137636134d5565b5b613770858286016136f3565b9150509250929050565b5f819050919050565b61378c8161377a565b82525050565b5f6020820190506137a55f830184613783565b92915050565b5f67ffffffffffffffff8211156137c5576137c46135fc565b5b6137ce826135ec565b9050602081019050919050565b5f6137ed6137e8846137ab565b61365a565b905082815260208101848484011115613809576138086135e8565b5b6138148482856136a4565b509392505050565b5f82601f8301126138305761382f6135e4565b5b81356138408482602086016137db565b91505092915050565b613852816135a5565b811461385c575f5ffd5b50565b5f8135905061386d81613849565b92915050565b5f5f5f5f6080858703121561388b5761388a6134d1565b5b5f85013567ffffffffffffffff8111156138a8576138a76134d5565b5b6138b48782880161381c565b94505060206138c5878288016134ef565b93505060406138d68782880161385f565b92505060606138e7878288016134ef565b91505092959194509250565b5f5ffd5b5f5ffd5b5f5f83601f8401126139105761390f6135e4565b5b8235905067ffffffffffffffff81111561392d5761392c6138f3565b5b602083019150836001820283011115613949576139486138f7565b5b9250929050565b5f5f5f5f5f5f60a0878903121561396a576139696134d1565b5b5f61397789828a016134ef565b965050602061398889828a0161385f565b955050604061399989828a016134ef565b94505060606139aa89828a0161385f565b935050608087013567ffffffffffffffff8111156139cb576139ca6134d5565b5b6139d789828a016138fb565b92509250509295509295509295565b5f5f83601f8401126139fb576139fa6135e4565b5b8235905067ffffffffffffffff811115613a1857613a176138f3565b5b602083019150836020820283011115613a3457613a336138f7565b5b9250929050565b5f5f5f60408486031215613a5257613a516134d1565b5b5f613a5f868287016134ef565b935050602084013567ffffffffffffffff811115613a8057613a7f6134d5565b5b613a8c868287016139e6565b92509250509250925092565b5f81519050919050565b5f82825260208201905092915050565b5f819050602082019050919050565b613aca8161348f565b82525050565b613ad9816135a5565b82525050565b604082015f820151613af35f850182613ac1565b506020820151613b066020850182613ad0565b50505050565b5f613b178383613adf565b60408301905092915050565b5f602082019050919050565b5f613b3982613a98565b613b438185613aa2565b9350613b4e83613ab2565b805f5b83811015613b7e578151613b658882613b0c565b9750613b7083613b23565b925050600181019050613b51565b5085935050505092915050565b5f6020820190508181035f830152613ba38184613b2f565b905092915050565b5f5f5f5f60608587031215613bc357613bc26134d1565b5b5f613bd0878288016134ef565b9450506020613be18782880161385f565b935050604085013567ffffffffffffffff811115613c0257613c016134d5565b5b613c0e878288016138fb565b925092505092959194509250565b5f81519050919050565b5f82825260208201905092915050565b8281835e5f83830152505050565b5f613c4e82613c1c565b613c588185613c26565b9350613c68818560208601613c36565b613c71816135ec565b840191505092915050565b5f6020820190508181035f830152613c948184613c44565b905092915050565b7f4552524f525f41444d494e2e00000000000000000000000000000000000000005f82015250565b5f613cd0600c83613c26565b9150613cdb82613c9c565b602082019050919050565b5f6020820190508181035f830152613cfd81613cc4565b9050919050565b7f5a45524f5f414444524553532e000000000000000000000000000000000000005f82015250565b5f613d38600d83613c26565b9150613d4382613d04565b602082019050919050565b5f6020820190508181035f830152613d6581613d2c565b9050919050565b5f819050919050565b5f67ffffffffffffffff82169050919050565b5f819050919050565b5f613dab613da6613da184613d6c565b613d88565b613d75565b9050919050565b613dbb81613d91565b82525050565b5f602082019050613dd45f830184613db2565b92915050565b5f604082019050613ded5f8301856134a0565b613dfa60208301846134a0565b9392505050565b5f81519050613e0f816134d9565b92915050565b5f60208284031215613e2a57613e296134d1565b5b5f613e3784828501613e01565b91505092915050565b7f4e487b71000000000000000000000000000000000000000000000000000000005f52603260045260245ffd5b5f81519050919050565b5f82825260208201905092915050565b5f819050602082019050919050565b5f613ea18383613ac1565b60208301905092915050565b5f602082019050919050565b5f613ec382613e6d565b613ecd8185613e77565b9350613ed883613e87565b805f5b83811015613f08578151613eef8882613e96565b9750613efa83613ead565b925050600181019050613edb565b5085935050505092915050565b5f604082019050613f285f8301856135ae565b8181036020830152613f3a8184613eb9565b90509392505050565b5f67ffffffffffffffff821115613f5d57613f5c6135fc565b5b602082029050602081019050919050565b5f81519050613f7c81613849565b92915050565b5f613f94613f8f84613f43565b61365a565b90508083825260208201905060208402830185811115613fb757613fb66138f7565b5b835b81811015613fe05780613fcc8882613f6e565b845260208401935050602081019050613fb9565b5050509392505050565b5f82601f830112613ffe57613ffd6135e4565b5b815161400e848260208601613f82565b91505092915050565b5f6020828403121561402c5761402b6134d1565b5b5f82015167ffffffffffffffff811115614049576140486134d5565b5b61405584828501613fea565b91505092915050565b7f4e487b71000000000000000000000000000000000000000000000000000000005f52601160045260245ffd5b5f614095826135a5565b91506140a0836135a5565b92508282039050818111156140b8576140b761405e565b5b92915050565b7f4552524f525f414d4f554e542e000000000000000000000000000000000000005f82015250565b5f6140f2600d83613c26565b91506140fd826140be565b602082019050919050565b5f6020820190508181035f83015261411f816140e6565b9050919050565b5f6080820190508181035f83015261413e8187613c44565b905061414d60208301866134a0565b61415a60408301856134a0565b61416760608301846135ae565b95945050505050565b7f4552524f525f414d4f554e5400000000000000000000000000000000000000005f82015250565b5f6141a4600c83613c26565b91506141af82614170565b602082019050919050565b5f6020820190508181035f8301526141d181614198565b9050919050565b5f6141e38385613c26565b93506141f08385846136a4565b6141f9836135ec565b840190509392505050565b5f60c0820190506142175f83018a6134a0565b61422460208301896134a0565b61423160408301886135ae565b61423e60608301876134a0565b61424b60808301866135ae565b81810360a083015261425e8184866141d8565b905098975050505050505050565b5f60208284031215614281576142806134d1565b5b5f61428e84828501613f6e565b91505092915050565b5f819050919050565b5f6142ba6142b56142b084614297565b613d88565b6135a5565b9050919050565b6142ca816142a0565b82525050565b5f60c0820190506142e35f83018a6134a0565b6142f060208301896134a0565b6142fd60408301886135ae565b61430a60608301876134a0565b61431760808301866142c1565b81810360a083015261432a8184866141d8565b905098975050505050505050565b7f4552524f525f50415941424c455f414d4f554e540000000000000000000000005f82015250565b5f61436c601483613c26565b915061437782614338565b602082019050919050565b5f6020820190508181035f83015261439981614360565b9050919050565b6143a98161377a565b81146143b3575f5ffd5b50565b5f815190506143c4816143a0565b92915050565b5f602082840312156143df576143de6134d1565b5b5f6143ec848285016143b6565b91505092915050565b5f6060820190506144085f8301866134a0565b61441560208301856134a0565b61442260408301846135ae565b949350505050565b5f81519050919050565b5f81905092915050565b5f6144488261442a565b6144528185614434565b9350614462818560208601613c36565b80840191505092915050565b5f614479828461443e565b915081905092915050565b5f8115159050919050565b61449881614484565b81146144a2575f5ffd5b50565b5f815190506144b38161448f565b92915050565b5f602082840312156144ce576144cd6134d1565b5b5f6144db848285016144a5565b91505092915050565b7f5472616e7366657248656c7065723a205452414e534645525f46524f4d5f46415f8201527f494c454400000000000000000000000000000000000000000000000000000000602082015250565b5f61453e602483613c26565b9150614549826144e4565b604082019050919050565b5f6020820190508181035f83015261456b81614532565b9050919050565b7f5472616e7366657248656c7065723a204554485f5452414e534645525f4641495f8201527f4c45440000000000000000000000000000000000000000000000000000000000602082015250565b5f6145cc602383613c26565b91506145d782614572565b604082019050919050565b5f6020820190508181035f8301526145f9816145c0565b9050919050565b7f4d49534d415443485f4c454e47544800000000000000000000000000000000005f82015250565b5f614634600f83613c26565b915061463f82614600565b602082019050919050565b5f6020820190508181035f83015261466181614628565b9050919050565b5f614672826135a5565b915061467d836135a5565b92508282019050808211156146955761469461405e565b5b92915050565b5f6146a5826135a5565b91506146b0836135a5565b92508282026146be816135a5565b915082820484148315176146d5576146d461405e565b5b5092915050565b7f4e487b71000000000000000000000000000000000000000000000000000000005f52601260045260245ffd5b5f614713826135a5565b915061471e836135a5565b92508261472e5761472d6146dc565b5b828204905092915050565b7f4e4f5f4554485f524551554952454400000000000000000000000000000000005f82015250565b5f61476d600f83613c26565b915061477882614739565b602082019050919050565b5f6020820190508181035f83015261479a81614761565b9050919050565b7f5472616e7366657248656c7065723a205452414e534645525f4641494c4544005f82015250565b5f6147d5601f83613c26565b91506147e0826147a1565b602082019050919050565b5f6020820190508181035f830152614802816147c9565b9050919050565b5f60808201905061481c5f8301876142c1565b818103602083015261482e8186613eb9565b905061483d60408301856134a0565b61484a60608301846135ae565b9594505050505056fea26469706673582212201fc044f20bea6c0a84c76e83bd870be159336e13b088ae4ff633a01f6ac095f264736f6c634300081e0033","linkReferences":{}},"methodIdentifiers":{"DEAD()":"03fd2a45","UPGRADE_INTERFACE_VERSION()":"ad3cb1cc","USDT()":"c54e44eb","WBNB()":"8dd95002","admin()":"f851a440","changeAdmin(address)":"8f283970","changeOperator(address)":"06394c9b","changePercent100(address)":"6225a383","changeRecipient(address)":"92c2bcb4","changeSender(address)":"b280a7e7","donation()":"8edeb15d","fact()":"73e3ce80","factory()":"c45a0155","getPrice(address)":"41976e09","initialize(address,address,address,address,address)":"1459457a","multiBalanceOf(address,address[])":"9f166cf1","multiRecharge(address,uint256,address,uint256,string)":"73abf0af","operator()":"570ca735","owner()":"8da5cb5b","percent100()":"de0d7327","proxiableUUID()":"52d1902d","recipient()":"66d003ac","renounceOwnership()":"715018a6","router()":"f887ea40","sender()":"67e404ce","singleRecharge(address,uint256,string)":"aa7e7eb9","singleRechargePercent100(address,uint256,string)":"b0a574f9","transferOwnership(address)":"f2fde38b","upgradeToAndCall(address,bytes)":"4f1ef286","withdraw(string,address,uint256,address)":"62a33811"},"id":39}