{"abi":[{"type":"receive","stateMutability":"payable"},{"type":"function","name":"DEAD","inputs":[],"outputs":[{"name":"","type":"address","internalType":"address"}],"stateMutability":"view"},{"type":"function","name":"UPGRADE_INTERFACE_VERSION","inputs":[],"outputs":[{"name":"","type":"string","internalType":"string"}],"stateMutability":"view"},{"type":"function","name":"USDT","inputs":[],"outputs":[{"name":"","type":"address","internalType":"address"}],"stateMutability":"view"},{"type":"function","name":"WBNB","inputs":[],"outputs":[{"name":"","type":"address","internalType":"address"}],"stateMutability":"view"},{"type":"function","name":"admin","inputs":[],"outputs":[{"name":"","type":"address","internalType":"address"}],"stateMutability":"view"},{"type":"function","name":"changeAdmin","inputs":[{"name":"_newAdmin","type":"address","internalType":"address"}],"outputs":[],"stateMutability":"nonpayable"},{"type":"function","name":"changeOperator","inputs":[{"name":"_newOperator","type":"address","internalType":"address"}],"outputs":[],"stateMutability":"nonpayable"},{"type":"function","name":"changePercent100","inputs":[{"name":"_percent100","type":"address","internalType":"address"}],"outputs":[],"stateMutability":"nonpayable"},{"type":"function","name":"changeRecipient","inputs":[{"name":"_newRecipient","type":"address","internalType":"address"}],"outputs":[],"stateMutability":"nonpayable"},{"type":"function","name":"changeSender","inputs":[{"name":"_newSender","type":"address","internalType":"address"}],"outputs":[],"stateMutability":"nonpayable"},{"type":"function","name":"donation","inputs":[],"outputs":[{"name":"","type":"address","internalType":"address"}],"stateMutability":"view"},{"type":"function","name":"fact","inputs":[],"outputs":[{"name":"","type":"address","internalType":"address"}],"stateMutability":"view"},{"type":"function","name":"factory","inputs":[],"outputs":[{"name":"","type":"address","internalType":"address"}],"stateMutability":"view"},{"type":"function","name":"getPrice","inputs":[{"name":"token","type":"address","internalType":"address"}],"outputs":[{"name":"","type":"address","internalType":"address"},{"name":"","type":"uint256","internalType":"uint256"}],"stateMutability":"view"},{"type":"function","name":"initialize","inputs":[{"name":"_admin","type":"address","internalType":"address"},{"name":"_recipient","type":"address","internalType":"address"},{"name":"_sender","type":"address","internalType":"address"},{"name":"_percent100","type":"address","internalType":"address"},{"name":"_fact","type":"address","internalType":"address"}],"outputs":[],"stateMutability":"nonpayable"},{"type":"function","name":"multiBalanceOf","inputs":[{"name":"token","type":"address","internalType":"address"},{"name":"users","type":"address[]","internalType":"address[]"}],"outputs":[{"name":"","type":"tuple[]","internalType":"struct Recharge.Info[]","components":[{"name":"user","type":"address","internalType":"address"},{"name":"amount","type":"uint256","internalType":"uint256"}]}],"stateMutability":"view"},{"type":"function","name":"multiRecharge","inputs":[{"name":"token0","type":"address","internalType":"address"},{"name":"amount0","type":"uint256","internalType":"uint256"},{"name":"token1","type":"address","internalType":"address"},{"name":"amount1","type":"uint256","internalType":"uint256"},{"name":"remark","type":"string","internalType":"string"}],"outputs":[],"stateMutability":"payable"},{"type":"function","name":"operator","inputs":[],"outputs":[{"name":"","type":"address","internalType":"address"}],"stateMutability":"view"},{"type":"function","name":"owner","inputs":[],"outputs":[{"name":"","type":"address","internalType":"address"}],"stateMutability":"view"},{"type":"function","name":"percent100","inputs":[],"outputs":[{"name":"","type":"address","internalType":"address"}],"stateMutability":"view"},{"type":"function","name":"proxiableUUID","inputs":[],"outputs":[{"name":"","type":"bytes32","internalType":"bytes32"}],"stateMutability":"view"},{"type":"function","name":"recipient","inputs":[],"outputs":[{"name":"","type":"address","internalType":"address"}],"stateMutability":"view"},{"type":"function","name":"renounceOwnership","inputs":[],"outputs":[],"stateMutability":"nonpayable"},{"type":"function","name":"router","inputs":[],"outputs":[{"name":"","type":"address","internalType":"address"}],"stateMutability":"view"},{"type":"function","name":"sender","inputs":[],"outputs":[{"name":"","type":"address","internalType":"address"}],"stateMutability":"view"},{"type":"function","name":"singleRecharge","inputs":[{"name":"token","type":"address","internalType":"address"},{"name":"amount","type":"uint256","internalType":"uint256"},{"name":"remark","type":"string","internalType":"string"}],"outputs":[],"stateMutability":"payable"},{"type":"function","name":"singleRechargePercent100","inputs":[{"name":"token","type":"address","internalType":"address"},{"name":"amount","type":"uint256","internalType":"uint256"},{"name":"remark","type":"string","internalType":"string"}],"outputs":[],"stateMutability":"payable"},{"type":"function","name":"transferOwnership","inputs":[{"name":"newOwner","type":"address","internalType":"address"}],"outputs":[],"stateMutability":"nonpayable"},{"type":"function","name":"upgradeToAndCall","inputs":[{"name":"newImplementation","type":"address","internalType":"address"},{"name":"data","type":"bytes","internalType":"bytes"}],"outputs":[],"stateMutability":"payable"},{"type":"function","name":"withdraw","inputs":[{"name":"remark","type":"string","internalType":"string"},{"name":"token","type":"address","internalType":"address"},{"name":"amount","type":"uint256","internalType":"uint256"},{"name":"to","type":"address","internalType":"address"}],"outputs":[],"stateMutability":"nonpayable"},{"type":"event","name":"AdminshipTransferred","inputs":[{"name":"previousAdmin","type":"address","indexed":true,"internalType":"address"},{"name":"newAdmin","type":"address","indexed":true,"internalType":"address"}],"anonymous":false},{"type":"event","name":"Initialized","inputs":[{"name":"version","type":"uint64","indexed":false,"internalType":"uint64"}],"anonymous":false},{"type":"event","name":"MultiRecharge","inputs":[{"name":"user","type":"address","indexed":false,"internalType":"address"},{"name":"token0","type":"address","indexed":false,"internalType":"address"},{"name":"amount0","type":"uint256","indexed":false,"internalType":"uint256"},{"name":"token1","type":"address","indexed":false,"internalType":"address"},{"name":"amount1","type":"uint256","indexed":false,"internalType":"uint256"},{"name":"remark","type":"string","indexed":false,"internalType":"string"}],"anonymous":false},{"type":"event","name":"OwnershipTransferred","inputs":[{"name":"previousOwner","type":"address","indexed":true,"internalType":"address"},{"name":"newOwner","type":"address","indexed":true,"internalType":"address"}],"anonymous":false},{"type":"event","name":"SentBNB","inputs":[{"name":"from","type":"address","indexed":false,"internalType":"address"},{"name":"to","type":"address","indexed":false,"internalType":"address"},{"name":"amount","type":"uint256","indexed":false,"internalType":"uint256"}],"anonymous":false},{"type":"event","name":"Upgraded","inputs":[{"name":"implementation","type":"address","indexed":true,"internalType":"address"}],"anonymous":false},{"type":"event","name":"Withdraw","inputs":[{"name":"remark","type":"string","indexed":false,"internalType":"string"},{"name":"token","type":"address","indexed":false,"internalType":"address"},{"name":"to","type":"address","indexed":false,"internalType":"address"},{"name":"amount","type":"uint256","indexed":false,"internalType":"uint256"}],"anonymous":false},{"type":"error","name":"AddressEmptyCode","inputs":[{"name":"target","type":"address","internalType":"address"}]},{"type":"error","name":"ERC1967InvalidImplementation","inputs":[{"name":"implementation","type":"address","internalType":"address"}]},{"type":"error","name":"ERC1967NonPayable","inputs":[]},{"type":"error","name":"FailedCall","inputs":[]},{"type":"error","name":"InvalidInitialization","inputs":[]},{"type":"error","name":"NotInitializing","inputs":[]},{"type":"error","name":"OwnableInvalidOwner","inputs":[{"name":"owner","type":"address","internalType":"address"}]},{"type":"error","name":"OwnableUnauthorizedAccount","inputs":[{"name":"account","type":"address","internalType":"address"}]},{"type":"error","name":"ReentrancyGuardReentrantCall","inputs":[]},{"type":"error","name":"UUPSUnauthorizedCallContext","inputs":[]},{"type":"error","name":"UUPSUnsupportedProxiableUUID","inputs":[{"name":"slot","type":"bytes32","internalType":"bytes32"}]}],"bytecode":{"object":"0x60a06040523073ffffffffffffffffffffffffffffffffffffffff1660809073ffffffffffffffffffffffffffffffffffffffff168152503480156041575f5ffd5b5060015f819055506080516148e561006f5f395f81816121b10152818161220601526123c001526148e55ff3fe6080604052600436106101d0575f3560e01c80638dd95002116100f6578063b0a574f911610094578063de0d732711610063578063de0d7327146105ea578063f2fde38b14610614578063f851a4401461063c578063f887ea4014610666576101d7565b8063b0a574f914610552578063b280a7e71461056e578063c45a015514610596578063c54e44eb146105c0576101d7565b806392c2bcb4116100d057806392c2bcb4146104a85780639f166cf1146104d0578063aa7e7eb91461050c578063ad3cb1cc14610528576101d7565b80638dd950021461042c5780638edeb15d146104565780638f28397014610480576101d7565b80636225a3831161016e578063715018a61161013d578063715018a6146103a657806373abf0af146103bc57806373e3ce80146103d85780638da5cb5b14610402576101d7565b80636225a3831461030257806362a338111461032a57806366d003ac1461035257806367e404ce1461037c576101d7565b806341976e09116101aa57806341976e09146102555780634f1ef2861461029257806352d1902d146102ae578063570ca735146102d8576101d7565b806303fd2a45146101db57806306394c9b146102055780631459457a1461022d576101d7565b366101d757005b5f5ffd5b3480156101e6575f5ffd5b506101ef610690565b6040516101fc919061350b565b60405180910390f35b348015610210575f5ffd5b5061022b6004803603810190610226919061355f565b610696565b005b348015610238575f5ffd5b50610253600480360381019061024e919061358a565b6107d6565b005b348015610260575f5ffd5b5061027b6004803603810190610276919061355f565b610aa2565b604051610289929190613619565b60405180910390f35b6102ac60048036038101906102a7919061377c565b611033565b005b3480156102b9575f5ffd5b506102c2611052565b6040516102cf91906137ee565b60405180910390f35b3480156102e3575f5ffd5b506102ec611083565b6040516102f9919061350b565b60405180910390f35b34801561030d575f5ffd5b506103286004803603810190610323919061355f565b6110a8565b005b348015610335575f5ffd5b50610350600480360381019061034b91906138cf565b6111e8565b005b34801561035d575f5ffd5b5061036661136c565b604051610373919061350b565b60405180910390f35b348015610387575f5ffd5b50610390611391565b60405161039d919061350b565b60405180910390f35b3480156103b1575f5ffd5b506103ba6113b6565b005b6103d660048036038101906103d191906139ac565b6113c9565b005b3480156103e3575f5ffd5b506103ec6115e4565b6040516103f9919061350b565b60405180910390f35b34801561040d575f5ffd5b50610416611609565b604051610423919061350b565b60405180910390f35b348015610437575f5ffd5b5061044061163e565b60405161044d919061350b565b60405180910390f35b348015610461575f5ffd5b5061046a611656565b604051610477919061350b565b60405180910390f35b34801561048b575f5ffd5b506104a660048036038101906104a1919061355f565b61166e565b005b3480156104b3575f5ffd5b506104ce60048036038101906104c9919061355f565b6117a2565b005b3480156104db575f5ffd5b506104f660048036038101906104f19190613a97565b6118e2565b6040516105039190613be7565b60405180910390f35b61052660048036038101906105219190613c07565b611b7e565b005b348015610533575f5ffd5b5061053c611d1d565b6040516105499190613cd8565b60405180910390f35b61056c60048036038101906105679190613c07565b611d56565b005b348015610579575f5ffd5b50610594600480360381019061058f919061355f565b611f2b565b005b3480156105a1575f5ffd5b506105aa61206b565b6040516105b7919061350b565b60405180910390f35b3480156105cb575f5ffd5b506105d4612083565b6040516105e1919061350b565b60405180910390f35b3480156105f5575f5ffd5b506105fe61209b565b60405161060b919061350b565b60405180910390f35b34801561061f575f5ffd5b5061063a6004803603810190610635919061355f565b6120c0565b005b348015610647575f5ffd5b50610650612144565b60405161065d919061350b565b60405180910390f35b348015610671575f5ffd5b5061067a612169565b604051610687919061350b565b60405180910390f35b61dead81565b60015f9054906101000a900473ffffffffffffffffffffffffffffffffffffffff1673ffffffffffffffffffffffffffffffffffffffff163373ffffffffffffffffffffffffffffffffffffffff1614610725576040517f08c379a000000000000000000000000000000000000000000000000000000000815260040161071c90613d42565b60405180910390fd5b5f73ffffffffffffffffffffffffffffffffffffffff168173ffffffffffffffffffffffffffffffffffffffff1603610793576040517f08c379a000000000000000000000000000000000000000000000000000000000815260040161078a90613daa565b60405180910390fd5b8060025f6101000a81548173ffffffffffffffffffffffffffffffffffffffff021916908373ffffffffffffffffffffffffffffffffffffffff16021790555050565b5f6107df612181565b90505f815f0160089054906101000a900460ff161590505f825f015f9054906101000a900467ffffffffffffffff1690505f5f8267ffffffffffffffff161480156108275750825b90505f60018367ffffffffffffffff1614801561085a57505f3073ffffffffffffffffffffffffffffffffffffffff163b145b905081158015610868575080155b1561089f576040517ff92ee8a900000000000000000000000000000000000000000000000000000000815260040160405180910390fd5b6001855f015f6101000a81548167ffffffffffffffff021916908367ffffffffffffffff16021790555083156108ec576001855f0160086101000a81548160ff0219169083151502179055505b6108fc6108f7612194565b61219b565b8960015f6101000a81548173ffffffffffffffffffffffffffffffffffffffff021916908373ffffffffffffffffffffffffffffffffffffffff1602179055508860035f6101000a81548173ffffffffffffffffffffffffffffffffffffffff021916908373ffffffffffffffffffffffffffffffffffffffff1602179055508760045f6101000a81548173ffffffffffffffffffffffffffffffffffffffff021916908373ffffffffffffffffffffffffffffffffffffffff1602179055508660055f6101000a81548173ffffffffffffffffffffffffffffffffffffffff021916908373ffffffffffffffffffffffffffffffffffffffff1602179055508560065f6101000a81548173ffffffffffffffffffffffffffffffffffffffff021916908373ffffffffffffffffffffffffffffffffffffffff1602179055508315610a96575f855f0160086101000a81548160ff0219169083151502179055507fc7f505b2f371ae2175ee4913f4499e1f2633a7b5936321eed1cdaeb6115181d26001604051610a8d9190613e1d565b60405180910390a15b50505050505050505050565b5f5f5f73ca143ce32fe78f1f7019d7d551a6402fc5350c7373ffffffffffffffffffffffffffffffffffffffff1663e6a439058573bb4cdb9cbd36b01bd1cbaebf2de08d9173bc095c6040518363ffffffff1660e01b8152600401610b08929190613e36565b602060405180830381865afa158015610b23573d5f5f3e3d5ffd5b505050506040513d601f19601f82011682018060405250810190610b479190613e71565b90505f73ca143ce32fe78f1f7019d7d551a6402fc5350c7373ffffffffffffffffffffffffffffffffffffffff1663e6a43905867355d398326f99059ff775485246999027b31979556040518363ffffffff1660e01b8152600401610bad929190613e36565b602060405180830381865afa158015610bc8573d5f5f3e3d5ffd5b505050506040513d601f19601f82011682018060405250810190610bec9190613e71565b90505f670de0b6b3a764000090505f5f73ffffffffffffffffffffffffffffffffffffffff168373ffffffffffffffffffffffffffffffffffffffff1614610e0f575f600267ffffffffffffffff811115610c4a57610c49613658565b5b604051908082528060200260200182016040528015610c785781602001602082028036833780820191505090505b50905087815f81518110610c8f57610c8e613e9c565b5b602002602001019073ffffffffffffffffffffffffffffffffffffffff16908173ffffffffffffffffffffffffffffffffffffffff16815250507355d398326f99059ff775485246999027b319795581600181518110610cf257610cf1613e9c565b5b602002602001019073ffffffffffffffffffffffffffffffffffffffff16908173ffffffffffffffffffffffffffffffffffffffff16815250505f7310ed43c718714eb63d5aa57b78b54704e256024e73ffffffffffffffffffffffffffffffffffffffff1663d06ca61f85846040518363ffffffff1660e01b8152600401610d7c929190613f71565b5f60405180830381865afa158015610d96573d5f5f3e3d5ffd5b505050506040513d5f823e3d601f19601f82011682018060405250810190610dbe9190614073565b90508060018251610dcf91906140e7565b81518110610de057610ddf613e9c565b5b602002602001015192507355d398326f99059ff775485246999027b3197955839750975050505050505061102e565b5f73ffffffffffffffffffffffffffffffffffffffff168473ffffffffffffffffffffffffffffffffffffffff1614611023575f600267ffffffffffffffff811115610e5e57610e5d613658565b5b604051908082528060200260200182016040528015610e8c5781602001602082028036833780820191505090505b50905087815f81518110610ea357610ea2613e9c565b5b602002602001019073ffffffffffffffffffffffffffffffffffffffff16908173ffffffffffffffffffffffffffffffffffffffff168152505073bb4cdb9cbd36b01bd1cbaebf2de08d9173bc095c81600181518110610f0657610f05613e9c565b5b602002602001019073ffffffffffffffffffffffffffffffffffffffff16908173ffffffffffffffffffffffffffffffffffffffff16815250505f7310ed43c718714eb63d5aa57b78b54704e256024e73ffffffffffffffffffffffffffffffffffffffff1663d06ca61f85846040518363ffffffff1660e01b8152600401610f90929190613f71565b5f60405180830381865afa158015610faa573d5f5f3e3d5ffd5b505050506040513d5f823e3d601f19601f82011682018060405250810190610fd29190614073565b90508060018251610fe391906140e7565b81518110610ff457610ff3613e9c565b5b6020026020010151925073bb4cdb9cbd36b01bd1cbaebf2de08d9173bc095c839750975050505050505061102e565b5f5f95509550505050505b915091565b61103b6121af565b61104482612295565b61104e82826122a0565b5050565b5f61105b6123be565b7f360894a13ba1a3210667c828492db98dca3e2076cc3735a920a3ca505d382bbc5f1b905090565b60025f9054906101000a900473ffffffffffffffffffffffffffffffffffffffff1681565b60015f9054906101000a900473ffffffffffffffffffffffffffffffffffffffff1673ffffffffffffffffffffffffffffffffffffffff163373ffffffffffffffffffffffffffffffffffffffff1614611137576040517f08c379a000000000000000000000000000000000000000000000000000000000815260040161112e90613d42565b60405180910390fd5b5f73ffffffffffffffffffffffffffffffffffffffff168173ffffffffffffffffffffffffffffffffffffffff16036111a5576040517f08c379a000000000000000000000000000000000000000000000000000000000815260040161119c90613daa565b60405180910390fd5b8060055f6101000a81548173ffffffffffffffffffffffffffffffffffffffff021916908373ffffffffffffffffffffffffffffffffffffffff16021790555050565b60015f9054906101000a900473ffffffffffffffffffffffffffffffffffffffff1673ffffffffffffffffffffffffffffffffffffffff163373ffffffffffffffffffffffffffffffffffffffff1614611277576040517f08c379a000000000000000000000000000000000000000000000000000000000815260040161126e90613d42565b60405180910390fd5b5f82116112b9576040517f08c379a00000000000000000000000000000000000000000000000000000000081526004016112b090614164565b60405180910390fd5b5f73ffffffffffffffffffffffffffffffffffffffff168373ffffffffffffffffffffffffffffffffffffffff161461131e576113198360045f9054906101000a900473ffffffffffffffffffffffffffffffffffffffff168385612445565b611329565b6113288183612578565b5b7f99310eed5bb161586b62449f89ccaa4580f85f953cd64218092edfc2b1f5fce78484838560405161135e9493929190614182565b60405180910390a150505050565b60035f9054906101000a900473ffffffffffffffffffffffffffffffffffffffff1681565b60045f9054906101000a900473ffffffffffffffffffffffffffffffffffffffff1681565b6113be612673565b6113c75f6126fa565b565b5f8511806113d657505f83115b611415576040517f08c379a000000000000000000000000000000000000000000000000000000000815260040161140c90614216565b60405180910390fd5b5f600267ffffffffffffffff81111561143157611430613658565b5b60405190808252806020026020018201604052801561145f5781602001602082028036833780820191505090505b5090505f600267ffffffffffffffff81111561147e5761147d613658565b5b6040519080825280602002602001820160405280156114ac5781602001602082028036833780820191505090505b50905087825f815181106114c3576114c2613e9c565b5b602002602001019073ffffffffffffffffffffffffffffffffffffffff16908173ffffffffffffffffffffffffffffffffffffffff168152505086815f8151811061151157611510613e9c565b5b602002602001018181525050858260018151811061153257611531613e9c565b5b602002602001019073ffffffffffffffffffffffffffffffffffffffff16908173ffffffffffffffffffffffffffffffffffffffff1681525050848160018151811061158157611580613e9c565b5b60200260200101818152505061159782826127cb565b7f92bfe9b63523d7c8baff8387323dd4c1c8ccd48705d9c91e19160ebcabb053b8338989898989896040516115d29796959493929190614260565b60405180910390a15050505050505050565b60065f9054906101000a900473ffffffffffffffffffffffffffffffffffffffff1681565b5f5f611613612d37565b9050805f015f9054906101000a900473ffffffffffffffffffffffffffffffffffffffff1691505090565b73bb4cdb9cbd36b01bd1cbaebf2de08d9173bc095c81565b73cb151a95468278f391bd7122ad9bbb5f42185b5c81565b611676612673565b5f73ffffffffffffffffffffffffffffffffffffffff168173ffffffffffffffffffffffffffffffffffffffff16036116e4576040517f08c379a00000000000000000000000000000000000000000000000000000000081526004016116db90613daa565b60405180910390fd5b8073ffffffffffffffffffffffffffffffffffffffff1660015f9054906101000a900473ffffffffffffffffffffffffffffffffffffffff1673ffffffffffffffffffffffffffffffffffffffff167f2931ebb3d190545dcf6801c37aa686b74f2e1000e753d0fac6e471a2aa5a621360405160405180910390a38060015f6101000a81548173ffffffffffffffffffffffffffffffffffffffff021916908373ffffffffffffffffffffffffffffffffffffffff16021790555050565b60015f9054906101000a900473ffffffffffffffffffffffffffffffffffffffff1673ffffffffffffffffffffffffffffffffffffffff163373ffffffffffffffffffffffffffffffffffffffff1614611831576040517f08c379a000000000000000000000000000000000000000000000000000000000815260040161182890613d42565b60405180910390fd5b5f73ffffffffffffffffffffffffffffffffffffffff168173ffffffffffffffffffffffffffffffffffffffff160361189f576040517f08c379a000000000000000000000000000000000000000000000000000000000815260040161189690613daa565b60405180910390fd5b8060035f6101000a81548173ffffffffffffffffffffffffffffffffffffffff021916908373ffffffffffffffffffffffffffffffffffffffff16021790555050565b60605f8383905090505f8167ffffffffffffffff81111561190657611905613658565b5b60405190808252806020026020018201604052801561193f57816020015b61192c61349e565b8152602001906001900390816119245790505b5090505f73ffffffffffffffffffffffffffffffffffffffff168673ffffffffffffffffffffffffffffffffffffffff1603611a43575f5f90505b82811015611a3d5760405180604001604052808787848181106119a05761199f613e9c565b5b90506020020160208101906119b5919061355f565b73ffffffffffffffffffffffffffffffffffffffff1681526020018787848181106119e3576119e2613e9c565b5b90506020020160208101906119f8919061355f565b73ffffffffffffffffffffffffffffffffffffffff1631815250828281518110611a2557611a24613e9c565b5b6020026020010181905250808060010191505061197a565b50611b72565b5f8690505f5f90505b83811015611b6f576040518060400160405280888884818110611a7257611a71613e9c565b5b9050602002016020810190611a87919061355f565b73ffffffffffffffffffffffffffffffffffffffff1681526020018373ffffffffffffffffffffffffffffffffffffffff166370a082318a8a86818110611ad157611ad0613e9c565b5b9050602002016020810190611ae6919061355f565b6040518263ffffffff1660e01b8152600401611b02919061350b565b602060405180830381865afa158015611b1d573d5f5f3e3d5ffd5b505050506040513d601f19601f82011682018060405250810190611b4191906142c8565b815250838281518110611b5757611b56613e9c565b5b60200260200101819052508080600101915050611a4c565b50505b80925050509392505050565b5f8311611bc0576040517f08c379a0000000000000000000000000000000000000000000000000000000008152600401611bb790614216565b60405180910390fd5b5f600167ffffffffffffffff811115611bdc57611bdb613658565b5b604051908082528060200260200182016040528015611c0a5781602001602082028036833780820191505090505b5090505f600167ffffffffffffffff811115611c2957611c28613658565b5b604051908082528060200260200182016040528015611c575781602001602082028036833780820191505090505b50905085825f81518110611c6e57611c6d613e9c565b5b602002602001019073ffffffffffffffffffffffffffffffffffffffff16908173ffffffffffffffffffffffffffffffffffffffff168152505084815f81518110611cbc57611cbb613e9c565b5b602002602001018181525050611cd282826127cb565b7f92bfe9b63523d7c8baff8387323dd4c1c8ccd48705d9c91e19160ebcabb053b83387875f5f8989604051611d0d979695949392919061432c565b60405180910390a1505050505050565b6040518060400160405280600581526020017f352e302e3000000000000000000000000000000000000000000000000000000081525081565b611d5e612d5e565b5f8311611da0576040517f08c379a0000000000000000000000000000000000000000000000000000000008152600401611d9790614216565b60405180910390fd5b5f73ffffffffffffffffffffffffffffffffffffffff168473ffffffffffffffffffffffffffffffffffffffff1603611eac5782341015611e16576040517f08c379a0000000000000000000000000000000000000000000000000000000008152600401611e0d906143de565b60405180910390fd5b611e4160055f9054906101000a900473ffffffffffffffffffffffffffffffffffffffff1684612578565b5f8334611e4e91906140e7565b90505f811115611e6357611e623382612578565b5b7f92bfe9b63523d7c8baff8387323dd4c1c8ccd48705d9c91e19160ebcabb053b8335f865f5f8888604051611e9e979695949392919061432c565b60405180910390a150611f1d565b611ed9843360055f9054906101000a900473ffffffffffffffffffffffffffffffffffffffff1686612445565b7f92bfe9b63523d7c8baff8387323dd4c1c8ccd48705d9c91e19160ebcabb053b83385855f5f8787604051611f14979695949392919061432c565b60405180910390a15b611f25612da2565b50505050565b60015f9054906101000a900473ffffffffffffffffffffffffffffffffffffffff1673ffffffffffffffffffffffffffffffffffffffff163373ffffffffffffffffffffffffffffffffffffffff1614611fba576040517f08c379a0000000000000000000000000000000000000000000000000000000008152600401611fb190613d42565b60405180910390fd5b5f73ffffffffffffffffffffffffffffffffffffffff168173ffffffffffffffffffffffffffffffffffffffff1603612028576040517f08c379a000000000000000000000000000000000000000000000000000000000815260040161201f90613daa565b60405180910390fd5b8060045f6101000a81548173ffffffffffffffffffffffffffffffffffffffff021916908373ffffffffffffffffffffffffffffffffffffffff16021790555050565b73ca143ce32fe78f1f7019d7d551a6402fc5350c7381565b7355d398326f99059ff775485246999027b319795581565b60055f9054906101000a900473ffffffffffffffffffffffffffffffffffffffff1681565b6120c8612673565b5f73ffffffffffffffffffffffffffffffffffffffff168173ffffffffffffffffffffffffffffffffffffffff1603612138575f6040517f1e4fbdf700000000000000000000000000000000000000000000000000000000815260040161212f919061350b565b60405180910390fd5b612141816126fa565b50565b60015f9054906101000a900473ffffffffffffffffffffffffffffffffffffffff1681565b7310ed43c718714eb63d5aa57b78b54704e256024e81565b5f5f61218b612dab565b90508091505090565b5f33905090565b6121a3612dd4565b6121ac81612e14565b50565b7f000000000000000000000000000000000000000000000000000000000000000073ffffffffffffffffffffffffffffffffffffffff163073ffffffffffffffffffffffffffffffffffffffff16148061225c57507f000000000000000000000000000000000000000000000000000000000000000073ffffffffffffffffffffffffffffffffffffffff16612243612e98565b73ffffffffffffffffffffffffffffffffffffffff1614155b15612293576040517fe07c8dba00000000000000000000000000000000000000000000000000000000815260040160405180910390fd5b565b61229d612673565b50565b8173ffffffffffffffffffffffffffffffffffffffff166352d1902d6040518163ffffffff1660e01b8152600401602060405180830381865afa92505050801561230857506040513d601f19601f820116820180604052508101906123059190614426565b60015b61234957816040517f4c9c8ce3000000000000000000000000000000000000000000000000000000008152600401612340919061350b565b60405180910390fd5b7f360894a13ba1a3210667c828492db98dca3e2076cc3735a920a3ca505d382bbc5f1b81146123af57806040517faa1d49a40000000000000000000000000000000000000000000000000000000081526004016123a691906137ee565b60405180910390fd5b6123b98383612eeb565b505050565b7f000000000000000000000000000000000000000000000000000000000000000073ffffffffffffffffffffffffffffffffffffffff163073ffffffffffffffffffffffffffffffffffffffff1614612443576040517fe07c8dba00000000000000000000000000000000000000000000000000000000815260040160405180910390fd5b565b5f5f8573ffffffffffffffffffffffffffffffffffffffff166323b872dd86868660405160240161247893929190614451565b6040516020818303038152906040529060e01b6020820180517bffffffffffffffffffffffffffffffffffffffffffffffffffffffff83818316178352505050506040516124c691906144ca565b5f604051808303815f865af19150503d805f81146124ff576040519150601f19603f3d011682016040523d82523d5f602084013e612504565b606091505b509150915081801561253157505f8151148061253057508080602001905181019061252f9190614515565b5b5b612570576040517f08c379a0000000000000000000000000000000000000000000000000000000008152600401612567906145b0565b60405180910390fd5b505050505050565b5f8273ffffffffffffffffffffffffffffffffffffffff16825f67ffffffffffffffff8111156125ab576125aa613658565b5b6040519080825280601f01601f1916602001820160405280156125dd5781602001600182028036833780820191505090505b506040516125eb91906144ca565b5f6040518083038185875af1925050503d805f8114612625576040519150601f19603f3d011682016040523d82523d5f602084013e61262a565b606091505b505090508061266e576040517f08c379a00000000000000000000000000000000000000000000000000000000081526004016126659061463e565b60405180910390fd5b505050565b61267b612194565b73ffffffffffffffffffffffffffffffffffffffff16612699611609565b73ffffffffffffffffffffffffffffffffffffffff16146126f8576126bc612194565b6040517f118cdaa70000000000000000000000000000000000000000000000000000000081526004016126ef919061350b565b60405180910390fd5b565b5f612703612d37565b90505f815f015f9054906101000a900473ffffffffffffffffffffffffffffffffffffffff16905082825f015f6101000a81548173ffffffffffffffffffffffffffffffffffffffff021916908373ffffffffffffffffffffffffffffffffffffffff1602179055508273ffffffffffffffffffffffffffffffffffffffff168173ffffffffffffffffffffffffffffffffffffffff167f8be0079c531659141344cd1fd0a4f28419497f9722a3daafe3b4186f6b6457e060405160405180910390a3505050565b6127d3612d5e565b8051825114612817576040517f08c379a000000000000000000000000000000000000000000000000000000000815260040161280e906146a6565b60405180910390fd5b5f5f90505f5f90505f5f90505b84518110156129c0575f85828151811061284157612840613e9c565b5b602002602001015190505f85838151811061285f5761285e613e9c565b5b602002602001015190505f81036128775750506129b3565b5f73ffffffffffffffffffffffffffffffffffffffff168273ffffffffffffffffffffffffffffffffffffffff16036128c35780856128b691906146c4565b94506001935050506129b3565b60065f9054906101000a900473ffffffffffffffffffffffffffffffffffffffff1673ffffffffffffffffffffffffffffffffffffffff168273ffffffffffffffffffffffffffffffffffffffff16036129835761292382333084612445565b5f6064601e8361293391906146f7565b61293d9190614765565b90505f818361294c91906140e7565b905061296d8473cb151a95468278f391bd7122ad9bbb5f42185b5c84612f5d565b61297a8461dead83612f5d565b505050506129b3565b6129b0823360035f9054906101000a900473ffffffffffffffffffffffffffffffffffffffff1684612445565b50505b8080600101915050612824565b508015612ce65781341015612a0a576040517f08c379a0000000000000000000000000000000000000000000000000000000008152600401612a01906143de565b60405180910390fd5b5f6064601e84612a1a91906146f7565b612a249190614765565b90505f8184612a3391906140e7565b90505f60065f9054906101000a900473ffffffffffffffffffffffffffffffffffffffff1673ffffffffffffffffffffffffffffffffffffffff166370a08231306040518263ffffffff1660e01b8152600401612a90919061350b565b602060405180830381865afa158015612aab573d5f5f3e3d5ffd5b505050506040513d601f19601f82011682018060405250810190612acf91906142c8565b9050612ada8361308d565b5f60065f9054906101000a900473ffffffffffffffffffffffffffffffffffffffff1673ffffffffffffffffffffffffffffffffffffffff166370a08231306040518263ffffffff1660e01b8152600401612b35919061350b565b602060405180830381865afa158015612b50573d5f5f3e3d5ffd5b505050506040513d601f19601f82011682018060405250810190612b7491906142c8565b90505f8282612b8391906140e7565b90505f811115612c29575f6064601e83612b9d91906146f7565b612ba79190614765565b90505f8183612bb691906140e7565b9050612bf860065f9054906101000a900473ffffffffffffffffffffffffffffffffffffffff1673cb151a95468278f391bd7122ad9bbb5f42185b5c84612f5d565b612c2660065f9054906101000a900473ffffffffffffffffffffffffffffffffffffffff1661dead83612f5d565b50505b5f841115612cb957612c5c60035f9054906101000a900473ffffffffffffffffffffffffffffffffffffffff1685612578565b7f9cb5c53795a307e4a006a280594513f21a9c3eabe3b99cf95ac7a33c9b55e8063360035f9054906101000a900473ffffffffffffffffffffffffffffffffffffffff1686604051612cb093929190614451565b60405180910390a15b5f8734612cc691906140e7565b90505f811115612cdb57612cda3382612578565b5b505050505050612d29565b5f3414612d28576040517f08c379a0000000000000000000000000000000000000000000000000000000008152600401612d1f906147df565b60405180910390fd5b5b5050612d33612da2565b5050565b5f7f9016d09d72d40fdae2fd8ceac6b6234c7706214fd39c1cd1e609a0528c199300905090565b60025f5403612d99576040517f3ee5aeb500000000000000000000000000000000000000000000000000000000815260040160405180910390fd5b60025f81905550565b60015f81905550565b5f7ff0c57e16840df040f15088dc2f81fe391c3923bec73e23a9662efc9c229c6a005f1b905090565b612ddc61323e565b612e12576040517fd7e6bcf800000000000000000000000000000000000000000000000000000000815260040160405180910390fd5b565b612e1c612dd4565b5f73ffffffffffffffffffffffffffffffffffffffff168173ffffffffffffffffffffffffffffffffffffffff1603612e8c575f6040517f1e4fbdf7000000000000000000000000000000000000000000000000000000008152600401612e83919061350b565b60405180910390fd5b612e95816126fa565b50565b5f612ec47f360894a13ba1a3210667c828492db98dca3e2076cc3735a920a3ca505d382bbc5f1b61325c565b5f015f9054906101000a900473ffffffffffffffffffffffffffffffffffffffff16905090565b612ef482613265565b8173ffffffffffffffffffffffffffffffffffffffff167fbc7cd75a20ee27fd9adebab32041f755214dbc6bffa90cc0225b39da2e5c2d3b60405160405180910390a25f81511115612f5057612f4a828261332e565b50612f59565b612f5861341f565b5b5050565b5f5f8473ffffffffffffffffffffffffffffffffffffffff1663a9059cbb8585604051602401612f8e929190613619565b6040516020818303038152906040529060e01b6020820180517bffffffffffffffffffffffffffffffffffffffffffffffffffffffff8381831617835250505050604051612fdc91906144ca565b5f604051808303815f865af19150503d805f8114613015576040519150601f19603f3d011682016040523d82523d5f602084013e61301a565b606091505b509150915081801561304757505f815114806130465750808060200190518101906130459190614515565b5b5b613086576040517f08c379a000000000000000000000000000000000000000000000000000000000815260040161307d90614847565b60405180910390fd5b5050505050565b5f600267ffffffffffffffff8111156130a9576130a8613658565b5b6040519080825280602002602001820160405280156130d75781602001602082028036833780820191505090505b50905073bb4cdb9cbd36b01bd1cbaebf2de08d9173bc095c815f8151811061310257613101613e9c565b5b602002602001019073ffffffffffffffffffffffffffffffffffffffff16908173ffffffffffffffffffffffffffffffffffffffff168152505060065f9054906101000a900473ffffffffffffffffffffffffffffffffffffffff168160018151811061317257613171613e9c565b5b602002602001019073ffffffffffffffffffffffffffffffffffffffff16908173ffffffffffffffffffffffffffffffffffffffff16815250507310ed43c718714eb63d5aa57b78b54704e256024e73ffffffffffffffffffffffffffffffffffffffff1663b6f9de95835f8430600a426131ed91906146c4565b6040518663ffffffff1660e01b815260040161320c9493929190614865565b5f604051808303818588803b158015613223575f5ffd5b505af1158015613235573d5f5f3e3d5ffd5b50505050505050565b5f613247612181565b5f0160089054906101000a900460ff16905090565b5f819050919050565b5f8173ffffffffffffffffffffffffffffffffffffffff163b036132c057806040517f4c9c8ce30000000000000000000000000000000000000000000000000000000081526004016132b7919061350b565b60405180910390fd5b806132ec7f360894a13ba1a3210667c828492db98dca3e2076cc3735a920a3ca505d382bbc5f1b61325c565b5f015f6101000a81548173ffffffffffffffffffffffffffffffffffffffff021916908373ffffffffffffffffffffffffffffffffffffffff16021790555050565b60605f61333b848461345b565b905080801561337157505f61334e61346f565b118061337057505f8473ffffffffffffffffffffffffffffffffffffffff163b115b5b156133865761337e613476565b915050613419565b80156133c957836040517f9996b3150000000000000000000000000000000000000000000000000000000081526004016133c0919061350b565b60405180910390fd5b5f6133d261346f565b11156133e5576133e0613493565b613417565b6040517fd6bda27500000000000000000000000000000000000000000000000000000000815260040160405180910390fd5b505b92915050565b5f341115613459576040517fb398979f00000000000000000000000000000000000000000000000000000000815260040160405180910390fd5b565b5f5f5f835160208501865af4905092915050565b5f3d905090565b606060405190503d81523d5f602083013e3d602001810160405290565b6040513d5f823e3d81fd5b60405180604001604052805f73ffffffffffffffffffffffffffffffffffffffff1681526020015f81525090565b5f73ffffffffffffffffffffffffffffffffffffffff82169050919050565b5f6134f5826134cc565b9050919050565b613505816134eb565b82525050565b5f60208201905061351e5f8301846134fc565b92915050565b5f604051905090565b5f5ffd5b5f5ffd5b61353e816134eb565b8114613548575f5ffd5b50565b5f8135905061355981613535565b92915050565b5f602082840312156135745761357361352d565b5b5f6135818482850161354b565b91505092915050565b5f5f5f5f5f60a086880312156135a3576135a261352d565b5b5f6135b08882890161354b565b95505060206135c18882890161354b565b94505060406135d28882890161354b565b93505060606135e38882890161354b565b92505060806135f48882890161354b565b9150509295509295909350565b5f819050919050565b61361381613601565b82525050565b5f60408201905061362c5f8301856134fc565b613639602083018461360a565b9392505050565b5f5ffd5b5f5ffd5b5f601f19601f8301169050919050565b7f4e487b71000000000000000000000000000000000000000000000000000000005f52604160045260245ffd5b61368e82613648565b810181811067ffffffffffffffff821117156136ad576136ac613658565b5b80604052505050565b5f6136bf613524565b90506136cb8282613685565b919050565b5f67ffffffffffffffff8211156136ea576136e9613658565b5b6136f382613648565b9050602081019050919050565b828183375f83830152505050565b5f61372061371b846136d0565b6136b6565b90508281526020810184848401111561373c5761373b613644565b5b613747848285613700565b509392505050565b5f82601f83011261376357613762613640565b5b813561377384826020860161370e565b91505092915050565b5f5f604083850312156137925761379161352d565b5b5f61379f8582860161354b565b925050602083013567ffffffffffffffff8111156137c0576137bf613531565b5b6137cc8582860161374f565b9150509250929050565b5f819050919050565b6137e8816137d6565b82525050565b5f6020820190506138015f8301846137df565b92915050565b5f67ffffffffffffffff82111561382157613820613658565b5b61382a82613648565b9050602081019050919050565b5f61384961384484613807565b6136b6565b90508281526020810184848401111561386557613864613644565b5b613870848285613700565b509392505050565b5f82601f83011261388c5761388b613640565b5b813561389c848260208601613837565b91505092915050565b6138ae81613601565b81146138b8575f5ffd5b50565b5f813590506138c9816138a5565b92915050565b5f5f5f5f608085870312156138e7576138e661352d565b5b5f85013567ffffffffffffffff81111561390457613903613531565b5b61391087828801613878565b94505060206139218782880161354b565b9350506040613932878288016138bb565b92505060606139438782880161354b565b91505092959194509250565b5f5ffd5b5f5ffd5b5f5f83601f84011261396c5761396b613640565b5b8235905067ffffffffffffffff8111156139895761398861394f565b5b6020830191508360018202830111156139a5576139a4613953565b5b9250929050565b5f5f5f5f5f5f60a087890312156139c6576139c561352d565b5b5f6139d389828a0161354b565b96505060206139e489828a016138bb565b95505060406139f589828a0161354b565b9450506060613a0689828a016138bb565b935050608087013567ffffffffffffffff811115613a2757613a26613531565b5b613a3389828a01613957565b92509250509295509295509295565b5f5f83601f840112613a5757613a56613640565b5b8235905067ffffffffffffffff811115613a7457613a7361394f565b5b602083019150836020820283011115613a9057613a8f613953565b5b9250929050565b5f5f5f60408486031215613aae57613aad61352d565b5b5f613abb8682870161354b565b935050602084013567ffffffffffffffff811115613adc57613adb613531565b5b613ae886828701613a42565b92509250509250925092565b5f81519050919050565b5f82825260208201905092915050565b5f819050602082019050919050565b613b26816134eb565b82525050565b613b3581613601565b82525050565b604082015f820151613b4f5f850182613b1d565b506020820151613b626020850182613b2c565b50505050565b5f613b738383613b3b565b60408301905092915050565b5f602082019050919050565b5f613b9582613af4565b613b9f8185613afe565b9350613baa83613b0e565b805f5b83811015613bda578151613bc18882613b68565b9750613bcc83613b7f565b925050600181019050613bad565b5085935050505092915050565b5f6020820190508181035f830152613bff8184613b8b565b905092915050565b5f5f5f5f60608587031215613c1f57613c1e61352d565b5b5f613c2c8782880161354b565b9450506020613c3d878288016138bb565b935050604085013567ffffffffffffffff811115613c5e57613c5d613531565b5b613c6a87828801613957565b925092505092959194509250565b5f81519050919050565b5f82825260208201905092915050565b8281835e5f83830152505050565b5f613caa82613c78565b613cb48185613c82565b9350613cc4818560208601613c92565b613ccd81613648565b840191505092915050565b5f6020820190508181035f830152613cf08184613ca0565b905092915050565b7f4552524f525f41444d494e2e00000000000000000000000000000000000000005f82015250565b5f613d2c600c83613c82565b9150613d3782613cf8565b602082019050919050565b5f6020820190508181035f830152613d5981613d20565b9050919050565b7f5a45524f5f414444524553532e000000000000000000000000000000000000005f82015250565b5f613d94600d83613c82565b9150613d9f82613d60565b602082019050919050565b5f6020820190508181035f830152613dc181613d88565b9050919050565b5f819050919050565b5f67ffffffffffffffff82169050919050565b5f819050919050565b5f613e07613e02613dfd84613dc8565b613de4565b613dd1565b9050919050565b613e1781613ded565b82525050565b5f602082019050613e305f830184613e0e565b92915050565b5f604082019050613e495f8301856134fc565b613e5660208301846134fc565b9392505050565b5f81519050613e6b81613535565b92915050565b5f60208284031215613e8657613e8561352d565b5b5f613e9384828501613e5d565b91505092915050565b7f4e487b71000000000000000000000000000000000000000000000000000000005f52603260045260245ffd5b5f81519050919050565b5f82825260208201905092915050565b5f819050602082019050919050565b5f613efd8383613b1d565b60208301905092915050565b5f602082019050919050565b5f613f1f82613ec9565b613f298185613ed3565b9350613f3483613ee3565b805f5b83811015613f64578151613f4b8882613ef2565b9750613f5683613f09565b925050600181019050613f37565b5085935050505092915050565b5f604082019050613f845f83018561360a565b8181036020830152613f968184613f15565b90509392505050565b5f67ffffffffffffffff821115613fb957613fb8613658565b5b602082029050602081019050919050565b5f81519050613fd8816138a5565b92915050565b5f613ff0613feb84613f9f565b6136b6565b9050808382526020820190506020840283018581111561401357614012613953565b5b835b8181101561403c57806140288882613fca565b845260208401935050602081019050614015565b5050509392505050565b5f82601f83011261405a57614059613640565b5b815161406a848260208601613fde565b91505092915050565b5f602082840312156140885761408761352d565b5b5f82015167ffffffffffffffff8111156140a5576140a4613531565b5b6140b184828501614046565b91505092915050565b7f4e487b71000000000000000000000000000000000000000000000000000000005f52601160045260245ffd5b5f6140f182613601565b91506140fc83613601565b9250828203905081811115614114576141136140ba565b5b92915050565b7f4552524f525f414d4f554e542e000000000000000000000000000000000000005f82015250565b5f61414e600d83613c82565b91506141598261411a565b602082019050919050565b5f6020820190508181035f83015261417b81614142565b9050919050565b5f6080820190508181035f83015261419a8187613ca0565b90506141a960208301866134fc565b6141b660408301856134fc565b6141c3606083018461360a565b95945050505050565b7f4552524f525f414d4f554e5400000000000000000000000000000000000000005f82015250565b5f614200600c83613c82565b915061420b826141cc565b602082019050919050565b5f6020820190508181035f83015261422d816141f4565b9050919050565b5f61423f8385613c82565b935061424c838584613700565b61425583613648565b840190509392505050565b5f60c0820190506142735f83018a6134fc565b61428060208301896134fc565b61428d604083018861360a565b61429a60608301876134fc565b6142a7608083018661360a565b81810360a08301526142ba818486614234565b905098975050505050505050565b5f602082840312156142dd576142dc61352d565b5b5f6142ea84828501613fca565b91505092915050565b5f819050919050565b5f61431661431161430c846142f3565b613de4565b613601565b9050919050565b614326816142fc565b82525050565b5f60c08201905061433f5f83018a6134fc565b61434c60208301896134fc565b614359604083018861360a565b61436660608301876134fc565b614373608083018661431d565b81810360a0830152614386818486614234565b905098975050505050505050565b7f4552524f525f50415941424c455f414d4f554e540000000000000000000000005f82015250565b5f6143c8601483613c82565b91506143d382614394565b602082019050919050565b5f6020820190508181035f8301526143f5816143bc565b9050919050565b614405816137d6565b811461440f575f5ffd5b50565b5f81519050614420816143fc565b92915050565b5f6020828403121561443b5761443a61352d565b5b5f61444884828501614412565b91505092915050565b5f6060820190506144645f8301866134fc565b61447160208301856134fc565b61447e604083018461360a565b949350505050565b5f81519050919050565b5f81905092915050565b5f6144a482614486565b6144ae8185614490565b93506144be818560208601613c92565b80840191505092915050565b5f6144d5828461449a565b915081905092915050565b5f8115159050919050565b6144f4816144e0565b81146144fe575f5ffd5b50565b5f8151905061450f816144eb565b92915050565b5f6020828403121561452a5761452961352d565b5b5f61453784828501614501565b91505092915050565b7f5472616e7366657248656c7065723a205452414e534645525f46524f4d5f46415f8201527f494c454400000000000000000000000000000000000000000000000000000000602082015250565b5f61459a602483613c82565b91506145a582614540565b604082019050919050565b5f6020820190508181035f8301526145c78161458e565b9050919050565b7f5472616e7366657248656c7065723a204554485f5452414e534645525f4641495f8201527f4c45440000000000000000000000000000000000000000000000000000000000602082015250565b5f614628602383613c82565b9150614633826145ce565b604082019050919050565b5f6020820190508181035f8301526146558161461c565b9050919050565b7f4d49534d415443485f4c454e47544800000000000000000000000000000000005f82015250565b5f614690600f83613c82565b915061469b8261465c565b602082019050919050565b5f6020820190508181035f8301526146bd81614684565b9050919050565b5f6146ce82613601565b91506146d983613601565b92508282019050808211156146f1576146f06140ba565b5b92915050565b5f61470182613601565b915061470c83613601565b925082820261471a81613601565b91508282048414831517614731576147306140ba565b5b5092915050565b7f4e487b71000000000000000000000000000000000000000000000000000000005f52601260045260245ffd5b5f61476f82613601565b915061477a83613601565b92508261478a57614789614738565b5b828204905092915050565b7f4e4f5f4554485f524551554952454400000000000000000000000000000000005f82015250565b5f6147c9600f83613c82565b91506147d482614795565b602082019050919050565b5f6020820190508181035f8301526147f6816147bd565b9050919050565b7f5472616e7366657248656c7065723a205452414e534645525f4641494c4544005f82015250565b5f614831601f83613c82565b915061483c826147fd565b602082019050919050565b5f6020820190508181035f83015261485e81614825565b9050919050565b5f6080820190506148785f83018761431d565b818103602083015261488a8186613f15565b905061489960408301856134fc565b6148a6606083018461360a565b9594505050505056fea2646970667358221220f30b111955b117da74846008452258fc22aaa48c5e1d6cadd08be2394e5c100264736f6c634300081e0033","linkReferences":{}},"methodIdentifiers":{"DEAD()":"03fd2a45","UPGRADE_INTERFACE_VERSION()":"ad3cb1cc","USDT()":"c54e44eb","WBNB()":"8dd95002","admin()":"f851a440","changeAdmin(address)":"8f283970","changeOperator(address)":"06394c9b","changePercent100(address)":"6225a383","changeRecipient(address)":"92c2bcb4","changeSender(address)":"b280a7e7","donation()":"8edeb15d","fact()":"73e3ce80","factory()":"c45a0155","getPrice(address)":"41976e09","initialize(address,address,address,address,address)":"1459457a","multiBalanceOf(address,address[])":"9f166cf1","multiRecharge(address,uint256,address,uint256,string)":"73abf0af","operator()":"570ca735","owner()":"8da5cb5b","percent100()":"de0d7327","proxiableUUID()":"52d1902d","recipient()":"66d003ac","renounceOwnership()":"715018a6","router()":"f887ea40","sender()":"67e404ce","singleRecharge(address,uint256,string)":"aa7e7eb9","singleRechargePercent100(address,uint256,string)":"b0a574f9","transferOwnership(address)":"f2fde38b","upgradeToAndCall(address,bytes)":"4f1ef286","withdraw(string,address,uint256,address)":"62a33811"},"id":45}