{"abi":[{"type":"receive","stateMutability":"payable"},{"type":"function","name":"DEAD","inputs":[],"outputs":[{"name":"","type":"address","internalType":"address"}],"stateMutability":"view"},{"type":"function","name":"UPGRADE_INTERFACE_VERSION","inputs":[],"outputs":[{"name":"","type":"string","internalType":"string"}],"stateMutability":"view"},{"type":"function","name":"USDT","inputs":[],"outputs":[{"name":"","type":"address","internalType":"address"}],"stateMutability":"view"},{"type":"function","name":"WBNB","inputs":[],"outputs":[{"name":"","type":"address","internalType":"address"}],"stateMutability":"view"},{"type":"function","name":"admin","inputs":[],"outputs":[{"name":"","type":"address","internalType":"address"}],"stateMutability":"view"},{"type":"function","name":"changeAdmin","inputs":[{"name":"_newAdmin","type":"address","internalType":"address"}],"outputs":[],"stateMutability":"nonpayable"},{"type":"function","name":"changeOperator","inputs":[{"name":"_newOperator","type":"address","internalType":"address"}],"outputs":[],"stateMutability":"nonpayable"},{"type":"function","name":"changeRecipient","inputs":[{"name":"_newRecipient","type":"address","internalType":"address"}],"outputs":[],"stateMutability":"nonpayable"},{"type":"function","name":"changeSender","inputs":[{"name":"_newSender","type":"address","internalType":"address"}],"outputs":[],"stateMutability":"nonpayable"},{"type":"function","name":"donation","inputs":[],"outputs":[{"name":"","type":"address","internalType":"address"}],"stateMutability":"view"},{"type":"function","name":"fact","inputs":[],"outputs":[{"name":"","type":"address","internalType":"address"}],"stateMutability":"view"},{"type":"function","name":"factory","inputs":[],"outputs":[{"name":"","type":"address","internalType":"address"}],"stateMutability":"view"},{"type":"function","name":"getPrice","inputs":[{"name":"token","type":"address","internalType":"address"}],"outputs":[{"name":"","type":"address","internalType":"address"},{"name":"","type":"uint256","internalType":"uint256"}],"stateMutability":"view"},{"type":"function","name":"initialize","inputs":[{"name":"_admin","type":"address","internalType":"address"},{"name":"_recipient","type":"address","internalType":"address"},{"name":"_sender","type":"address","internalType":"address"},{"name":"_fact","type":"address","internalType":"address"}],"outputs":[],"stateMutability":"nonpayable"},{"type":"function","name":"multiBalanceOf","inputs":[{"name":"token","type":"address","internalType":"address"},{"name":"users","type":"address[]","internalType":"address[]"}],"outputs":[{"name":"","type":"tuple[]","internalType":"struct Recharge.Info[]","components":[{"name":"user","type":"address","internalType":"address"},{"name":"amount","type":"uint256","internalType":"uint256"}]}],"stateMutability":"view"},{"type":"function","name":"multiRecharge","inputs":[{"name":"token0","type":"address","internalType":"address"},{"name":"amount0","type":"uint256","internalType":"uint256"},{"name":"token1","type":"address","internalType":"address"},{"name":"amount1","type":"uint256","internalType":"uint256"},{"name":"remark","type":"string","internalType":"string"}],"outputs":[],"stateMutability":"payable"},{"type":"function","name":"operator","inputs":[],"outputs":[{"name":"","type":"address","internalType":"address"}],"stateMutability":"view"},{"type":"function","name":"owner","inputs":[],"outputs":[{"name":"","type":"address","internalType":"address"}],"stateMutability":"view"},{"type":"function","name":"proxiableUUID","inputs":[],"outputs":[{"name":"","type":"bytes32","internalType":"bytes32"}],"stateMutability":"view"},{"type":"function","name":"recipient","inputs":[],"outputs":[{"name":"","type":"address","internalType":"address"}],"stateMutability":"view"},{"type":"function","name":"renounceOwnership","inputs":[],"outputs":[],"stateMutability":"nonpayable"},{"type":"function","name":"router","inputs":[],"outputs":[{"name":"","type":"address","internalType":"address"}],"stateMutability":"view"},{"type":"function","name":"sender","inputs":[],"outputs":[{"name":"","type":"address","internalType":"address"}],"stateMutability":"view"},{"type":"function","name":"singleRecharge","inputs":[{"name":"token","type":"address","internalType":"address"},{"name":"amount","type":"uint256","internalType":"uint256"},{"name":"remark","type":"string","internalType":"string"}],"outputs":[],"stateMutability":"payable"},{"type":"function","name":"transferOwnership","inputs":[{"name":"newOwner","type":"address","internalType":"address"}],"outputs":[],"stateMutability":"nonpayable"},{"type":"function","name":"upgradeToAndCall","inputs":[{"name":"newImplementation","type":"address","internalType":"address"},{"name":"data","type":"bytes","internalType":"bytes"}],"outputs":[],"stateMutability":"payable"},{"type":"function","name":"withdraw","inputs":[{"name":"remark","type":"string","internalType":"string"},{"name":"token","type":"address","internalType":"address"},{"name":"amount","type":"uint256","internalType":"uint256"},{"name":"to","type":"address","internalType":"address"}],"outputs":[],"stateMutability":"nonpayable"},{"type":"event","name":"AdminshipTransferred","inputs":[{"name":"previousAdmin","type":"address","indexed":true,"internalType":"address"},{"name":"newAdmin","type":"address","indexed":true,"internalType":"address"}],"anonymous":false},{"type":"event","name":"Initialized","inputs":[{"name":"version","type":"uint64","indexed":false,"internalType":"uint64"}],"anonymous":false},{"type":"event","name":"MultiRecharge","inputs":[{"name":"user","type":"address","indexed":false,"internalType":"address"},{"name":"token0","type":"address","indexed":false,"internalType":"address"},{"name":"amount0","type":"uint256","indexed":false,"internalType":"uint256"},{"name":"token1","type":"address","indexed":false,"internalType":"address"},{"name":"amount1","type":"uint256","indexed":false,"internalType":"uint256"},{"name":"remark","type":"string","indexed":false,"internalType":"string"}],"anonymous":false},{"type":"event","name":"OwnershipTransferred","inputs":[{"name":"previousOwner","type":"address","indexed":true,"internalType":"address"},{"name":"newOwner","type":"address","indexed":true,"internalType":"address"}],"anonymous":false},{"type":"event","name":"Upgraded","inputs":[{"name":"implementation","type":"address","indexed":true,"internalType":"address"}],"anonymous":false},{"type":"event","name":"Withdraw","inputs":[{"name":"remark","type":"string","indexed":false,"internalType":"string"},{"name":"token","type":"address","indexed":false,"internalType":"address"},{"name":"to","type":"address","indexed":false,"internalType":"address"},{"name":"amount","type":"uint256","indexed":false,"internalType":"uint256"}],"anonymous":false},{"type":"error","name":"AddressEmptyCode","inputs":[{"name":"target","type":"address","internalType":"address"}]},{"type":"error","name":"ERC1967InvalidImplementation","inputs":[{"name":"implementation","type":"address","internalType":"address"}]},{"type":"error","name":"ERC1967NonPayable","inputs":[]},{"type":"error","name":"FailedCall","inputs":[]},{"type":"error","name":"InvalidInitialization","inputs":[]},{"type":"error","name":"NotInitializing","inputs":[]},{"type":"error","name":"OwnableInvalidOwner","inputs":[{"name":"owner","type":"address","internalType":"address"}]},{"type":"error","name":"OwnableUnauthorizedAccount","inputs":[{"name":"account","type":"address","internalType":"address"}]},{"type":"error","name":"ReentrancyGuardReentrantCall","inputs":[]},{"type":"error","name":"UUPSUnauthorizedCallContext","inputs":[]},{"type":"error","name":"UUPSUnsupportedProxiableUUID","inputs":[{"name":"slot","type":"bytes32","internalType":"bytes32"}]}],"bytecode":{"object":"0x60a06040523073ffffffffffffffffffffffffffffffffffffffff1660809073ffffffffffffffffffffffffffffffffffffffff168152503480156041575f5ffd5b5060015f8190555060805161445c61006f5f395f8181611d6901528181611dbe0152611f78015261445c5ff3fe60806040526004361061019f575f3560e01c80638dd95002116100eb578063b280a7e711610089578063f2fde38b11610063578063f2fde38b1461054d578063f851a44014610575578063f887ea401461059f578063f8c8765e146105c9576101a6565b8063b280a7e7146104d1578063c45a0155146104f9578063c54e44eb14610523576101a6565b806392c2bcb4116100c557806392c2bcb4146104275780639f166cf11461044f578063aa7e7eb91461048b578063ad3cb1cc146104a7576101a6565b80638dd95002146103ab5780638edeb15d146103d55780638f283970146103ff576101a6565b806362a3381111610158578063715018a611610132578063715018a61461032557806373abf0af1461033b57806373e3ce80146103575780638da5cb5b14610381576101a6565b806362a33811146102a957806366d003ac146102d157806367e404ce146102fb576101a6565b806303fd2a45146101aa57806306394c9b146101d457806341976e09146101fc5780634f1ef2861461023957806352d1902d14610255578063570ca7351461027f576101a6565b366101a657005b5f5ffd5b3480156101b5575f5ffd5b506101be6105f1565b6040516101cb9190613095565b60405180910390f35b3480156101df575f5ffd5b506101fa60048036038101906101f591906130e9565b6105f7565b005b348015610207575f5ffd5b50610222600480360381019061021d91906130e9565b610737565b60405161023092919061312c565b60405180910390f35b610253600480360381019061024e919061328f565b610cc8565b005b348015610260575f5ffd5b50610269610ce7565b6040516102769190613301565b60405180910390f35b34801561028a575f5ffd5b50610293610d18565b6040516102a09190613095565b60405180910390f35b3480156102b4575f5ffd5b506102cf60048036038101906102ca91906133e2565b610d3d565b005b3480156102dc575f5ffd5b506102e5610ec1565b6040516102f29190613095565b60405180910390f35b348015610306575f5ffd5b5061030f610ee6565b60405161031c9190613095565b60405180910390f35b348015610330575f5ffd5b50610339610f0b565b005b610355600480360381019061035091906134bf565b610f1e565b005b348015610362575f5ffd5b5061036b611139565b6040516103789190613095565b60405180910390f35b34801561038c575f5ffd5b5061039561115e565b6040516103a29190613095565b60405180910390f35b3480156103b6575f5ffd5b506103bf611193565b6040516103cc9190613095565b60405180910390f35b3480156103e0575f5ffd5b506103e96111ab565b6040516103f69190613095565b60405180910390f35b34801561040a575f5ffd5b50610425600480360381019061042091906130e9565b6111c3565b005b348015610432575f5ffd5b5061044d600480360381019061044891906130e9565b6112f7565b005b34801561045a575f5ffd5b50610475600480360381019061047091906135aa565b611437565b60405161048291906136fa565b60405180910390f35b6104a560048036038101906104a0919061371a565b6116d3565b005b3480156104b2575f5ffd5b506104bb611872565b6040516104c891906137eb565b60405180910390f35b3480156104dc575f5ffd5b506104f760048036038101906104f291906130e9565b6118ab565b005b348015610504575f5ffd5b5061050d6119eb565b60405161051a9190613095565b60405180910390f35b34801561052e575f5ffd5b50610537611a03565b6040516105449190613095565b60405180910390f35b348015610558575f5ffd5b50610573600480360381019061056e91906130e9565b611a1b565b005b348015610580575f5ffd5b50610589611a9f565b6040516105969190613095565b60405180910390f35b3480156105aa575f5ffd5b506105b3611ac4565b6040516105c09190613095565b60405180910390f35b3480156105d4575f5ffd5b506105ef60048036038101906105ea919061380b565b611adc565b005b61dead81565b60015f9054906101000a900473ffffffffffffffffffffffffffffffffffffffff1673ffffffffffffffffffffffffffffffffffffffff163373ffffffffffffffffffffffffffffffffffffffff1614610686576040517f08c379a000000000000000000000000000000000000000000000000000000000815260040161067d906138b9565b60405180910390fd5b5f73ffffffffffffffffffffffffffffffffffffffff168173ffffffffffffffffffffffffffffffffffffffff16036106f4576040517f08c379a00000000000000000000000000000000000000000000000000000000081526004016106eb90613921565b60405180910390fd5b8060025f6101000a81548173ffffffffffffffffffffffffffffffffffffffff021916908373ffffffffffffffffffffffffffffffffffffffff16021790555050565b5f5f5f73ca143ce32fe78f1f7019d7d551a6402fc5350c7373ffffffffffffffffffffffffffffffffffffffff1663e6a439058573bb4cdb9cbd36b01bd1cbaebf2de08d9173bc095c6040518363ffffffff1660e01b815260040161079d92919061393f565b602060405180830381865afa1580156107b8573d5f5f3e3d5ffd5b505050506040513d601f19601f820116820180604052508101906107dc919061397a565b90505f73ca143ce32fe78f1f7019d7d551a6402fc5350c7373ffffffffffffffffffffffffffffffffffffffff1663e6a43905867355d398326f99059ff775485246999027b31979556040518363ffffffff1660e01b815260040161084292919061393f565b602060405180830381865afa15801561085d573d5f5f3e3d5ffd5b505050506040513d601f19601f82011682018060405250810190610881919061397a565b90505f670de0b6b3a764000090505f5f73ffffffffffffffffffffffffffffffffffffffff168373ffffffffffffffffffffffffffffffffffffffff1614610aa4575f600267ffffffffffffffff8111156108df576108de61316b565b5b60405190808252806020026020018201604052801561090d5781602001602082028036833780820191505090505b50905087815f81518110610924576109236139a5565b5b602002602001019073ffffffffffffffffffffffffffffffffffffffff16908173ffffffffffffffffffffffffffffffffffffffff16815250507355d398326f99059ff775485246999027b319795581600181518110610987576109866139a5565b5b602002602001019073ffffffffffffffffffffffffffffffffffffffff16908173ffffffffffffffffffffffffffffffffffffffff16815250505f7310ed43c718714eb63d5aa57b78b54704e256024e73ffffffffffffffffffffffffffffffffffffffff1663d06ca61f85846040518363ffffffff1660e01b8152600401610a11929190613a7a565b5f60405180830381865afa158015610a2b573d5f5f3e3d5ffd5b505050506040513d5f823e3d601f19601f82011682018060405250810190610a539190613b7c565b90508060018251610a649190613bf0565b81518110610a7557610a746139a5565b5b602002602001015192507355d398326f99059ff775485246999027b31979558397509750505050505050610cc3565b5f73ffffffffffffffffffffffffffffffffffffffff168473ffffffffffffffffffffffffffffffffffffffff1614610cb8575f600267ffffffffffffffff811115610af357610af261316b565b5b604051908082528060200260200182016040528015610b215781602001602082028036833780820191505090505b50905087815f81518110610b3857610b376139a5565b5b602002602001019073ffffffffffffffffffffffffffffffffffffffff16908173ffffffffffffffffffffffffffffffffffffffff168152505073bb4cdb9cbd36b01bd1cbaebf2de08d9173bc095c81600181518110610b9b57610b9a6139a5565b5b602002602001019073ffffffffffffffffffffffffffffffffffffffff16908173ffffffffffffffffffffffffffffffffffffffff16815250505f7310ed43c718714eb63d5aa57b78b54704e256024e73ffffffffffffffffffffffffffffffffffffffff1663d06ca61f85846040518363ffffffff1660e01b8152600401610c25929190613a7a565b5f60405180830381865afa158015610c3f573d5f5f3e3d5ffd5b505050506040513d5f823e3d601f19601f82011682018060405250810190610c679190613b7c565b90508060018251610c789190613bf0565b81518110610c8957610c886139a5565b5b6020026020010151925073bb4cdb9cbd36b01bd1cbaebf2de08d9173bc095c8397509750505050505050610cc3565b5f5f95509550505050505b915091565b610cd0611d67565b610cd982611e4d565b610ce38282611e58565b5050565b5f610cf0611f76565b7f360894a13ba1a3210667c828492db98dca3e2076cc3735a920a3ca505d382bbc5f1b905090565b60025f9054906101000a900473ffffffffffffffffffffffffffffffffffffffff1681565b60015f9054906101000a900473ffffffffffffffffffffffffffffffffffffffff1673ffffffffffffffffffffffffffffffffffffffff163373ffffffffffffffffffffffffffffffffffffffff1614610dcc576040517f08c379a0000000000000000000000000000000000000000000000000000000008152600401610dc3906138b9565b60405180910390fd5b5f8211610e0e576040517f08c379a0000000000000000000000000000000000000000000000000000000008152600401610e0590613c6d565b60405180910390fd5b5f73ffffffffffffffffffffffffffffffffffffffff168373ffffffffffffffffffffffffffffffffffffffff1614610e7357610e6e8360045f9054906101000a900473ffffffffffffffffffffffffffffffffffffffff168385611ffd565b610e7e565b610e7d8183612130565b5b7f99310eed5bb161586b62449f89ccaa4580f85f953cd64218092edfc2b1f5fce784848385604051610eb39493929190613c8b565b60405180910390a150505050565b60035f9054906101000a900473ffffffffffffffffffffffffffffffffffffffff1681565b60045f9054906101000a900473ffffffffffffffffffffffffffffffffffffffff1681565b610f1361222b565b610f1c5f6122b2565b565b5f851180610f2b57505f83115b610f6a576040517f08c379a0000000000000000000000000000000000000000000000000000000008152600401610f6190613d1f565b60405180910390fd5b5f600267ffffffffffffffff811115610f8657610f8561316b565b5b604051908082528060200260200182016040528015610fb45781602001602082028036833780820191505090505b5090505f600267ffffffffffffffff811115610fd357610fd261316b565b5b6040519080825280602002602001820160405280156110015781602001602082028036833780820191505090505b50905087825f81518110611018576110176139a5565b5b602002602001019073ffffffffffffffffffffffffffffffffffffffff16908173ffffffffffffffffffffffffffffffffffffffff168152505086815f81518110611066576110656139a5565b5b6020026020010181815250508582600181518110611087576110866139a5565b5b602002602001019073ffffffffffffffffffffffffffffffffffffffff16908173ffffffffffffffffffffffffffffffffffffffff168152505084816001815181106110d6576110d56139a5565b5b6020026020010181815250506110ec8282612383565b7f92bfe9b63523d7c8baff8387323dd4c1c8ccd48705d9c91e19160ebcabb053b8338989898989896040516111279796959493929190613d69565b60405180910390a15050505050505050565b60055f9054906101000a900473ffffffffffffffffffffffffffffffffffffffff1681565b5f5f611168612893565b9050805f015f9054906101000a900473ffffffffffffffffffffffffffffffffffffffff1691505090565b73bb4cdb9cbd36b01bd1cbaebf2de08d9173bc095c81565b73f8d9fbc9db44e378c603b45000c81066630eccd281565b6111cb61222b565b5f73ffffffffffffffffffffffffffffffffffffffff168173ffffffffffffffffffffffffffffffffffffffff1603611239576040517f08c379a000000000000000000000000000000000000000000000000000000000815260040161123090613921565b60405180910390fd5b8073ffffffffffffffffffffffffffffffffffffffff1660015f9054906101000a900473ffffffffffffffffffffffffffffffffffffffff1673ffffffffffffffffffffffffffffffffffffffff167f2931ebb3d190545dcf6801c37aa686b74f2e1000e753d0fac6e471a2aa5a621360405160405180910390a38060015f6101000a81548173ffffffffffffffffffffffffffffffffffffffff021916908373ffffffffffffffffffffffffffffffffffffffff16021790555050565b60015f9054906101000a900473ffffffffffffffffffffffffffffffffffffffff1673ffffffffffffffffffffffffffffffffffffffff163373ffffffffffffffffffffffffffffffffffffffff1614611386576040517f08c379a000000000000000000000000000000000000000000000000000000000815260040161137d906138b9565b60405180910390fd5b5f73ffffffffffffffffffffffffffffffffffffffff168173ffffffffffffffffffffffffffffffffffffffff16036113f4576040517f08c379a00000000000000000000000000000000000000000000000000000000081526004016113eb90613921565b60405180910390fd5b8060035f6101000a81548173ffffffffffffffffffffffffffffffffffffffff021916908373ffffffffffffffffffffffffffffffffffffffff16021790555050565b60605f8383905090505f8167ffffffffffffffff81111561145b5761145a61316b565b5b60405190808252806020026020018201604052801561149457816020015b611481613028565b8152602001906001900390816114795790505b5090505f73ffffffffffffffffffffffffffffffffffffffff168673ffffffffffffffffffffffffffffffffffffffff1603611598575f5f90505b828110156115925760405180604001604052808787848181106114f5576114f46139a5565b5b905060200201602081019061150a91906130e9565b73ffffffffffffffffffffffffffffffffffffffff168152602001878784818110611538576115376139a5565b5b905060200201602081019061154d91906130e9565b73ffffffffffffffffffffffffffffffffffffffff163181525082828151811061157a576115796139a5565b5b602002602001018190525080806001019150506114cf565b506116c7565b5f8690505f5f90505b838110156116c45760405180604001604052808888848181106115c7576115c66139a5565b5b90506020020160208101906115dc91906130e9565b73ffffffffffffffffffffffffffffffffffffffff1681526020018373ffffffffffffffffffffffffffffffffffffffff166370a082318a8a86818110611626576116256139a5565b5b905060200201602081019061163b91906130e9565b6040518263ffffffff1660e01b81526004016116579190613095565b602060405180830381865afa158015611672573d5f5f3e3d5ffd5b505050506040513d601f19601f820116820180604052508101906116969190613dd1565b8152508382815181106116ac576116ab6139a5565b5b602002602001018190525080806001019150506115a1565b50505b80925050509392505050565b5f8311611715576040517f08c379a000000000000000000000000000000000000000000000000000000000815260040161170c90613d1f565b60405180910390fd5b5f600167ffffffffffffffff8111156117315761173061316b565b5b60405190808252806020026020018201604052801561175f5781602001602082028036833780820191505090505b5090505f600167ffffffffffffffff81111561177e5761177d61316b565b5b6040519080825280602002602001820160405280156117ac5781602001602082028036833780820191505090505b50905085825f815181106117c3576117c26139a5565b5b602002602001019073ffffffffffffffffffffffffffffffffffffffff16908173ffffffffffffffffffffffffffffffffffffffff168152505084815f81518110611811576118106139a5565b5b6020026020010181815250506118278282612383565b7f92bfe9b63523d7c8baff8387323dd4c1c8ccd48705d9c91e19160ebcabb053b83387875f5f89896040516118629796959493929190613e3e565b60405180910390a1505050505050565b6040518060400160405280600581526020017f352e302e3000000000000000000000000000000000000000000000000000000081525081565b60015f9054906101000a900473ffffffffffffffffffffffffffffffffffffffff1673ffffffffffffffffffffffffffffffffffffffff163373ffffffffffffffffffffffffffffffffffffffff161461193a576040517f08c379a0000000000000000000000000000000000000000000000000000000008152600401611931906138b9565b60405180910390fd5b5f73ffffffffffffffffffffffffffffffffffffffff168173ffffffffffffffffffffffffffffffffffffffff16036119a8576040517f08c379a000000000000000000000000000000000000000000000000000000000815260040161199f90613921565b60405180910390fd5b8060045f6101000a81548173ffffffffffffffffffffffffffffffffffffffff021916908373ffffffffffffffffffffffffffffffffffffffff16021790555050565b73ca143ce32fe78f1f7019d7d551a6402fc5350c7381565b7355d398326f99059ff775485246999027b319795581565b611a2361222b565b5f73ffffffffffffffffffffffffffffffffffffffff168173ffffffffffffffffffffffffffffffffffffffff1603611a93575f6040517f1e4fbdf7000000000000000000000000000000000000000000000000000000008152600401611a8a9190613095565b60405180910390fd5b611a9c816122b2565b50565b60015f9054906101000a900473ffffffffffffffffffffffffffffffffffffffff1681565b7310ed43c718714eb63d5aa57b78b54704e256024e81565b5f611ae56128ba565b90505f815f0160089054906101000a900460ff161590505f825f015f9054906101000a900467ffffffffffffffff1690505f5f8267ffffffffffffffff16148015611b2d5750825b90505f60018367ffffffffffffffff16148015611b6057505f3073ffffffffffffffffffffffffffffffffffffffff163b145b905081158015611b6e575080155b15611ba5576040517ff92ee8a900000000000000000000000000000000000000000000000000000000815260040160405180910390fd5b6001855f015f6101000a81548167ffffffffffffffff021916908367ffffffffffffffff1602179055508315611bf2576001855f0160086101000a81548160ff0219169083151502179055505b611c02611bfd6128cd565b6128d4565b8860015f6101000a81548173ffffffffffffffffffffffffffffffffffffffff021916908373ffffffffffffffffffffffffffffffffffffffff1602179055508760035f6101000a81548173ffffffffffffffffffffffffffffffffffffffff021916908373ffffffffffffffffffffffffffffffffffffffff1602179055508660045f6101000a81548173ffffffffffffffffffffffffffffffffffffffff021916908373ffffffffffffffffffffffffffffffffffffffff1602179055508560055f6101000a81548173ffffffffffffffffffffffffffffffffffffffff021916908373ffffffffffffffffffffffffffffffffffffffff1602179055508315611d5c575f855f0160086101000a81548160ff0219169083151502179055507fc7f505b2f371ae2175ee4913f4499e1f2633a7b5936321eed1cdaeb6115181d26001604051611d539190613ef2565b60405180910390a15b505050505050505050565b7f000000000000000000000000000000000000000000000000000000000000000073ffffffffffffffffffffffffffffffffffffffff163073ffffffffffffffffffffffffffffffffffffffff161480611e1457507f000000000000000000000000000000000000000000000000000000000000000073ffffffffffffffffffffffffffffffffffffffff16611dfb6128e8565b73ffffffffffffffffffffffffffffffffffffffff1614155b15611e4b576040517fe07c8dba00000000000000000000000000000000000000000000000000000000815260040160405180910390fd5b565b611e5561222b565b50565b8173ffffffffffffffffffffffffffffffffffffffff166352d1902d6040518163ffffffff1660e01b8152600401602060405180830381865afa925050508015611ec057506040513d601f19601f82011682018060405250810190611ebd9190613f35565b60015b611f0157816040517f4c9c8ce3000000000000000000000000000000000000000000000000000000008152600401611ef89190613095565b60405180910390fd5b7f360894a13ba1a3210667c828492db98dca3e2076cc3735a920a3ca505d382bbc5f1b8114611f6757806040517faa1d49a4000000000000000000000000000000000000000000000000000000008152600401611f5e9190613301565b60405180910390fd5b611f71838361293b565b505050565b7f000000000000000000000000000000000000000000000000000000000000000073ffffffffffffffffffffffffffffffffffffffff163073ffffffffffffffffffffffffffffffffffffffff1614611ffb576040517fe07c8dba00000000000000000000000000000000000000000000000000000000815260040160405180910390fd5b565b5f5f8573ffffffffffffffffffffffffffffffffffffffff166323b872dd86868660405160240161203093929190613f60565b6040516020818303038152906040529060e01b6020820180517bffffffffffffffffffffffffffffffffffffffffffffffffffffffff838183161783525050505060405161207e9190613fd9565b5f604051808303815f865af19150503d805f81146120b7576040519150601f19603f3d011682016040523d82523d5f602084013e6120bc565b606091505b50915091508180156120e957505f815114806120e85750808060200190518101906120e79190614024565b5b5b612128576040517f08c379a000000000000000000000000000000000000000000000000000000000815260040161211f906140bf565b60405180910390fd5b505050505050565b5f8273ffffffffffffffffffffffffffffffffffffffff16825f67ffffffffffffffff8111156121635761216261316b565b5b6040519080825280601f01601f1916602001820160405280156121955781602001600182028036833780820191505090505b506040516121a39190613fd9565b5f6040518083038185875af1925050503d805f81146121dd576040519150601f19603f3d011682016040523d82523d5f602084013e6121e2565b606091505b5050905080612226576040517f08c379a000000000000000000000000000000000000000000000000000000000815260040161221d9061414d565b60405180910390fd5b505050565b6122336128cd565b73ffffffffffffffffffffffffffffffffffffffff1661225161115e565b73ffffffffffffffffffffffffffffffffffffffff16146122b0576122746128cd565b6040517f118cdaa70000000000000000000000000000000000000000000000000000000081526004016122a79190613095565b60405180910390fd5b565b5f6122bb612893565b90505f815f015f9054906101000a900473ffffffffffffffffffffffffffffffffffffffff16905082825f015f6101000a81548173ffffffffffffffffffffffffffffffffffffffff021916908373ffffffffffffffffffffffffffffffffffffffff1602179055508273ffffffffffffffffffffffffffffffffffffffff168173ffffffffffffffffffffffffffffffffffffffff167f8be0079c531659141344cd1fd0a4f28419497f9722a3daafe3b4186f6b6457e060405160405180910390a3505050565b61238b6129ad565b80518251146123cf576040517f08c379a00000000000000000000000000000000000000000000000000000000081526004016123c6906141b5565b60405180910390fd5b5f5f90505f5f90505f5f90505b8451811015612578575f8582815181106123f9576123f86139a5565b5b602002602001015190505f858381518110612417576124166139a5565b5b602002602001015190505f810361242f57505061256b565b5f73ffffffffffffffffffffffffffffffffffffffff168273ffffffffffffffffffffffffffffffffffffffff160361247b57808561246e91906141d3565b945060019350505061256b565b60055f9054906101000a900473ffffffffffffffffffffffffffffffffffffffff1673ffffffffffffffffffffffffffffffffffffffff168273ffffffffffffffffffffffffffffffffffffffff160361253b576124db82333084611ffd565b5f6064601e836124eb9190614206565b6124f59190614274565b90505f81836125049190613bf0565b90506125258473f8d9fbc9db44e378c603b45000c81066630eccd2846129f1565b6125328461dead836129f1565b5050505061256b565b612568823360035f9054906101000a900473ffffffffffffffffffffffffffffffffffffffff1684611ffd565b50505b80806001019150506123dc565b50801561284257813410156125c2576040517f08c379a00000000000000000000000000000000000000000000000000000000081526004016125b9906142ee565b60405180910390fd5b5f6064601e846125d29190614206565b6125dc9190614274565b90505f81846125eb9190613bf0565b90505f60055f9054906101000a900473ffffffffffffffffffffffffffffffffffffffff1673ffffffffffffffffffffffffffffffffffffffff166370a08231306040518263ffffffff1660e01b81526004016126489190613095565b602060405180830381865afa158015612663573d5f5f3e3d5ffd5b505050506040513d601f19601f820116820180604052508101906126879190613dd1565b905061269283612b21565b5f60055f9054906101000a900473ffffffffffffffffffffffffffffffffffffffff1673ffffffffffffffffffffffffffffffffffffffff166370a08231306040518263ffffffff1660e01b81526004016126ed9190613095565b602060405180830381865afa158015612708573d5f5f3e3d5ffd5b505050506040513d601f19601f8201168201806040525081019061272c9190613dd1565b90505f828261273b9190613bf0565b90505f8111156127e1575f6064601e836127559190614206565b61275f9190614274565b90505f818361276e9190613bf0565b90506127b060055f9054906101000a900473ffffffffffffffffffffffffffffffffffffffff1673f8d9fbc9db44e378c603b45000c81066630eccd2846129f1565b6127de60055f9054906101000a900473ffffffffffffffffffffffffffffffffffffffff1661dead836129f1565b50505b5f8411156128155761281460035f9054906101000a900473ffffffffffffffffffffffffffffffffffffffff1685612130565b5b5f87346128229190613bf0565b90505f811115612837576128363382612130565b5b505050505050612885565b5f3414612884576040517f08c379a000000000000000000000000000000000000000000000000000000000815260040161287b90614356565b60405180910390fd5b5b505061288f612cd2565b5050565b5f7f9016d09d72d40fdae2fd8ceac6b6234c7706214fd39c1cd1e609a0528c199300905090565b5f5f6128c4612cdb565b90508091505090565b5f33905090565b6128dc612d04565b6128e581612d44565b50565b5f6129147f360894a13ba1a3210667c828492db98dca3e2076cc3735a920a3ca505d382bbc5f1b612dc8565b5f015f9054906101000a900473ffffffffffffffffffffffffffffffffffffffff16905090565b61294482612dd1565b8173ffffffffffffffffffffffffffffffffffffffff167fbc7cd75a20ee27fd9adebab32041f755214dbc6bffa90cc0225b39da2e5c2d3b60405160405180910390a25f815111156129a05761299a8282612e9a565b506129a9565b6129a8612f8b565b5b5050565b60025f54036129e8576040517f3ee5aeb500000000000000000000000000000000000000000000000000000000815260040160405180910390fd5b60025f81905550565b5f5f8473ffffffffffffffffffffffffffffffffffffffff1663a9059cbb8585604051602401612a2292919061312c565b6040516020818303038152906040529060e01b6020820180517bffffffffffffffffffffffffffffffffffffffffffffffffffffffff8381831617835250505050604051612a709190613fd9565b5f604051808303815f865af19150503d805f8114612aa9576040519150601f19603f3d011682016040523d82523d5f602084013e612aae565b606091505b5091509150818015612adb57505f81511480612ada575080806020019051810190612ad99190614024565b5b5b612b1a576040517f08c379a0000000000000000000000000000000000000000000000000000000008152600401612b11906143be565b60405180910390fd5b5050505050565b5f600267ffffffffffffffff811115612b3d57612b3c61316b565b5b604051908082528060200260200182016040528015612b6b5781602001602082028036833780820191505090505b50905073bb4cdb9cbd36b01bd1cbaebf2de08d9173bc095c815f81518110612b9657612b956139a5565b5b602002602001019073ffffffffffffffffffffffffffffffffffffffff16908173ffffffffffffffffffffffffffffffffffffffff168152505060055f9054906101000a900473ffffffffffffffffffffffffffffffffffffffff1681600181518110612c0657612c056139a5565b5b602002602001019073ffffffffffffffffffffffffffffffffffffffff16908173ffffffffffffffffffffffffffffffffffffffff16815250507310ed43c718714eb63d5aa57b78b54704e256024e73ffffffffffffffffffffffffffffffffffffffff1663b6f9de95835f8430600a42612c8191906141d3565b6040518663ffffffff1660e01b8152600401612ca094939291906143dc565b5f604051808303818588803b158015612cb7575f5ffd5b505af1158015612cc9573d5f5f3e3d5ffd5b50505050505050565b60015f81905550565b5f7ff0c57e16840df040f15088dc2f81fe391c3923bec73e23a9662efc9c229c6a005f1b905090565b612d0c612fc7565b612d42576040517fd7e6bcf800000000000000000000000000000000000000000000000000000000815260040160405180910390fd5b565b612d4c612d04565b5f73ffffffffffffffffffffffffffffffffffffffff168173ffffffffffffffffffffffffffffffffffffffff1603612dbc575f6040517f1e4fbdf7000000000000000000000000000000000000000000000000000000008152600401612db39190613095565b60405180910390fd5b612dc5816122b2565b50565b5f819050919050565b5f8173ffffffffffffffffffffffffffffffffffffffff163b03612e2c57806040517f4c9c8ce3000000000000000000000000000000000000000000000000000000008152600401612e239190613095565b60405180910390fd5b80612e587f360894a13ba1a3210667c828492db98dca3e2076cc3735a920a3ca505d382bbc5f1b612dc8565b5f015f6101000a81548173ffffffffffffffffffffffffffffffffffffffff021916908373ffffffffffffffffffffffffffffffffffffffff16021790555050565b60605f612ea78484612fe5565b9050808015612edd57505f612eba612ff9565b1180612edc57505f8473ffffffffffffffffffffffffffffffffffffffff163b115b5b15612ef257612eea613000565b915050612f85565b8015612f3557836040517f9996b315000000000000000000000000000000000000000000000000000000008152600401612f2c9190613095565b60405180910390fd5b5f612f3e612ff9565b1115612f5157612f4c61301d565b612f83565b6040517fd6bda27500000000000000000000000000000000000000000000000000000000815260040160405180910390fd5b505b92915050565b5f341115612fc5576040517fb398979f00000000000000000000000000000000000000000000000000000000815260040160405180910390fd5b565b5f612fd06128ba565b5f0160089054906101000a900460ff16905090565b5f5f5f835160208501865af4905092915050565b5f3d905090565b606060405190503d81523d5f602083013e3d602001810160405290565b6040513d5f823e3d81fd5b60405180604001604052805f73ffffffffffffffffffffffffffffffffffffffff1681526020015f81525090565b5f73ffffffffffffffffffffffffffffffffffffffff82169050919050565b5f61307f82613056565b9050919050565b61308f81613075565b82525050565b5f6020820190506130a85f830184613086565b92915050565b5f604051905090565b5f5ffd5b5f5ffd5b6130c881613075565b81146130d2575f5ffd5b50565b5f813590506130e3816130bf565b92915050565b5f602082840312156130fe576130fd6130b7565b5b5f61310b848285016130d5565b91505092915050565b5f819050919050565b61312681613114565b82525050565b5f60408201905061313f5f830185613086565b61314c602083018461311d565b9392505050565b5f5ffd5b5f5ffd5b5f601f19601f8301169050919050565b7f4e487b71000000000000000000000000000000000000000000000000000000005f52604160045260245ffd5b6131a18261315b565b810181811067ffffffffffffffff821117156131c0576131bf61316b565b5b80604052505050565b5f6131d26130ae565b90506131de8282613198565b919050565b5f67ffffffffffffffff8211156131fd576131fc61316b565b5b6132068261315b565b9050602081019050919050565b828183375f83830152505050565b5f61323361322e846131e3565b6131c9565b90508281526020810184848401111561324f5761324e613157565b5b61325a848285613213565b509392505050565b5f82601f83011261327657613275613153565b5b8135613286848260208601613221565b91505092915050565b5f5f604083850312156132a5576132a46130b7565b5b5f6132b2858286016130d5565b925050602083013567ffffffffffffffff8111156132d3576132d26130bb565b5b6132df85828601613262565b9150509250929050565b5f819050919050565b6132fb816132e9565b82525050565b5f6020820190506133145f8301846132f2565b92915050565b5f67ffffffffffffffff8211156133345761333361316b565b5b61333d8261315b565b9050602081019050919050565b5f61335c6133578461331a565b6131c9565b90508281526020810184848401111561337857613377613157565b5b613383848285613213565b509392505050565b5f82601f83011261339f5761339e613153565b5b81356133af84826020860161334a565b91505092915050565b6133c181613114565b81146133cb575f5ffd5b50565b5f813590506133dc816133b8565b92915050565b5f5f5f5f608085870312156133fa576133f96130b7565b5b5f85013567ffffffffffffffff811115613417576134166130bb565b5b6134238782880161338b565b9450506020613434878288016130d5565b9350506040613445878288016133ce565b9250506060613456878288016130d5565b91505092959194509250565b5f5ffd5b5f5ffd5b5f5f83601f84011261347f5761347e613153565b5b8235905067ffffffffffffffff81111561349c5761349b613462565b5b6020830191508360018202830111156134b8576134b7613466565b5b9250929050565b5f5f5f5f5f5f60a087890312156134d9576134d86130b7565b5b5f6134e689828a016130d5565b96505060206134f789828a016133ce565b955050604061350889828a016130d5565b945050606061351989828a016133ce565b935050608087013567ffffffffffffffff81111561353a576135396130bb565b5b61354689828a0161346a565b92509250509295509295509295565b5f5f83601f84011261356a57613569613153565b5b8235905067ffffffffffffffff81111561358757613586613462565b5b6020830191508360208202830111156135a3576135a2613466565b5b9250929050565b5f5f5f604084860312156135c1576135c06130b7565b5b5f6135ce868287016130d5565b935050602084013567ffffffffffffffff8111156135ef576135ee6130bb565b5b6135fb86828701613555565b92509250509250925092565b5f81519050919050565b5f82825260208201905092915050565b5f819050602082019050919050565b61363981613075565b82525050565b61364881613114565b82525050565b604082015f8201516136625f850182613630565b506020820151613675602085018261363f565b50505050565b5f613686838361364e565b60408301905092915050565b5f602082019050919050565b5f6136a882613607565b6136b28185613611565b93506136bd83613621565b805f5b838110156136ed5781516136d4888261367b565b97506136df83613692565b9250506001810190506136c0565b5085935050505092915050565b5f6020820190508181035f830152613712818461369e565b905092915050565b5f5f5f5f60608587031215613732576137316130b7565b5b5f61373f878288016130d5565b9450506020613750878288016133ce565b935050604085013567ffffffffffffffff811115613771576137706130bb565b5b61377d8782880161346a565b925092505092959194509250565b5f81519050919050565b5f82825260208201905092915050565b8281835e5f83830152505050565b5f6137bd8261378b565b6137c78185613795565b93506137d78185602086016137a5565b6137e08161315b565b840191505092915050565b5f6020820190508181035f83015261380381846137b3565b905092915050565b5f5f5f5f60808587031215613823576138226130b7565b5b5f613830878288016130d5565b9450506020613841878288016130d5565b9350506040613852878288016130d5565b9250506060613863878288016130d5565b91505092959194509250565b7f4552524f525f41444d494e2e00000000000000000000000000000000000000005f82015250565b5f6138a3600c83613795565b91506138ae8261386f565b602082019050919050565b5f6020820190508181035f8301526138d081613897565b9050919050565b7f5a45524f5f414444524553532e000000000000000000000000000000000000005f82015250565b5f61390b600d83613795565b9150613916826138d7565b602082019050919050565b5f6020820190508181035f830152613938816138ff565b9050919050565b5f6040820190506139525f830185613086565b61395f6020830184613086565b9392505050565b5f81519050613974816130bf565b92915050565b5f6020828403121561398f5761398e6130b7565b5b5f61399c84828501613966565b91505092915050565b7f4e487b71000000000000000000000000000000000000000000000000000000005f52603260045260245ffd5b5f81519050919050565b5f82825260208201905092915050565b5f819050602082019050919050565b5f613a068383613630565b60208301905092915050565b5f602082019050919050565b5f613a28826139d2565b613a3281856139dc565b9350613a3d836139ec565b805f5b83811015613a6d578151613a5488826139fb565b9750613a5f83613a12565b925050600181019050613a40565b5085935050505092915050565b5f604082019050613a8d5f83018561311d565b8181036020830152613a9f8184613a1e565b90509392505050565b5f67ffffffffffffffff821115613ac257613ac161316b565b5b602082029050602081019050919050565b5f81519050613ae1816133b8565b92915050565b5f613af9613af484613aa8565b6131c9565b90508083825260208201905060208402830185811115613b1c57613b1b613466565b5b835b81811015613b455780613b318882613ad3565b845260208401935050602081019050613b1e565b5050509392505050565b5f82601f830112613b6357613b62613153565b5b8151613b73848260208601613ae7565b91505092915050565b5f60208284031215613b9157613b906130b7565b5b5f82015167ffffffffffffffff811115613bae57613bad6130bb565b5b613bba84828501613b4f565b91505092915050565b7f4e487b71000000000000000000000000000000000000000000000000000000005f52601160045260245ffd5b5f613bfa82613114565b9150613c0583613114565b9250828203905081811115613c1d57613c1c613bc3565b5b92915050565b7f4552524f525f414d4f554e542e000000000000000000000000000000000000005f82015250565b5f613c57600d83613795565b9150613c6282613c23565b602082019050919050565b5f6020820190508181035f830152613c8481613c4b565b9050919050565b5f6080820190508181035f830152613ca381876137b3565b9050613cb26020830186613086565b613cbf6040830185613086565b613ccc606083018461311d565b95945050505050565b7f4552524f525f414d4f554e5400000000000000000000000000000000000000005f82015250565b5f613d09600c83613795565b9150613d1482613cd5565b602082019050919050565b5f6020820190508181035f830152613d3681613cfd565b9050919050565b5f613d488385613795565b9350613d55838584613213565b613d5e8361315b565b840190509392505050565b5f60c082019050613d7c5f83018a613086565b613d896020830189613086565b613d96604083018861311d565b613da36060830187613086565b613db0608083018661311d565b81810360a0830152613dc3818486613d3d565b905098975050505050505050565b5f60208284031215613de657613de56130b7565b5b5f613df384828501613ad3565b91505092915050565b5f819050919050565b5f819050919050565b5f613e28613e23613e1e84613dfc565b613e05565b613114565b9050919050565b613e3881613e0e565b82525050565b5f60c082019050613e515f83018a613086565b613e5e6020830189613086565b613e6b604083018861311d565b613e786060830187613086565b613e856080830186613e2f565b81810360a0830152613e98818486613d3d565b905098975050505050505050565b5f819050919050565b5f67ffffffffffffffff82169050919050565b5f613edc613ed7613ed284613ea6565b613e05565b613eaf565b9050919050565b613eec81613ec2565b82525050565b5f602082019050613f055f830184613ee3565b92915050565b613f14816132e9565b8114613f1e575f5ffd5b50565b5f81519050613f2f81613f0b565b92915050565b5f60208284031215613f4a57613f496130b7565b5b5f613f5784828501613f21565b91505092915050565b5f606082019050613f735f830186613086565b613f806020830185613086565b613f8d604083018461311d565b949350505050565b5f81519050919050565b5f81905092915050565b5f613fb382613f95565b613fbd8185613f9f565b9350613fcd8185602086016137a5565b80840191505092915050565b5f613fe48284613fa9565b915081905092915050565b5f8115159050919050565b61400381613fef565b811461400d575f5ffd5b50565b5f8151905061401e81613ffa565b92915050565b5f60208284031215614039576140386130b7565b5b5f61404684828501614010565b91505092915050565b7f5472616e7366657248656c7065723a205452414e534645525f46524f4d5f46415f8201527f494c454400000000000000000000000000000000000000000000000000000000602082015250565b5f6140a9602483613795565b91506140b48261404f565b604082019050919050565b5f6020820190508181035f8301526140d68161409d565b9050919050565b7f5472616e7366657248656c7065723a204554485f5452414e534645525f4641495f8201527f4c45440000000000000000000000000000000000000000000000000000000000602082015250565b5f614137602383613795565b9150614142826140dd565b604082019050919050565b5f6020820190508181035f8301526141648161412b565b9050919050565b7f4d49534d415443485f4c454e47544800000000000000000000000000000000005f82015250565b5f61419f600f83613795565b91506141aa8261416b565b602082019050919050565b5f6020820190508181035f8301526141cc81614193565b9050919050565b5f6141dd82613114565b91506141e883613114565b9250828201905080821115614200576141ff613bc3565b5b92915050565b5f61421082613114565b915061421b83613114565b925082820261422981613114565b915082820484148315176142405761423f613bc3565b5b5092915050565b7f4e487b71000000000000000000000000000000000000000000000000000000005f52601260045260245ffd5b5f61427e82613114565b915061428983613114565b92508261429957614298614247565b5b828204905092915050565b7f4552524f525f50415941424c455f414d4f554e540000000000000000000000005f82015250565b5f6142d8601483613795565b91506142e3826142a4565b602082019050919050565b5f6020820190508181035f830152614305816142cc565b9050919050565b7f4e4f5f4554485f524551554952454400000000000000000000000000000000005f82015250565b5f614340600f83613795565b915061434b8261430c565b602082019050919050565b5f6020820190508181035f83015261436d81614334565b9050919050565b7f5472616e7366657248656c7065723a205452414e534645525f4641494c4544005f82015250565b5f6143a8601f83613795565b91506143b382614374565b602082019050919050565b5f6020820190508181035f8301526143d58161439c565b9050919050565b5f6080820190506143ef5f830187613e2f565b81810360208301526144018186613a1e565b90506144106040830185613086565b61441d606083018461311d565b9594505050505056fea264697066735822122037de4de8c174e13ad012a22179703e9d57eeef3d769a29a2f5f22e4d55174aae64736f6c634300081e0033","linkReferences":{}},"methodIdentifiers":{"DEAD()":"03fd2a45","UPGRADE_INTERFACE_VERSION()":"ad3cb1cc","USDT()":"c54e44eb","WBNB()":"8dd95002","admin()":"f851a440","changeAdmin(address)":"8f283970","changeOperator(address)":"06394c9b","changeRecipient(address)":"92c2bcb4","changeSender(address)":"b280a7e7","donation()":"8edeb15d","fact()":"73e3ce80","factory()":"c45a0155","getPrice(address)":"41976e09","initialize(address,address,address,address)":"f8c8765e","multiBalanceOf(address,address[])":"9f166cf1","multiRecharge(address,uint256,address,uint256,string)":"73abf0af","operator()":"570ca735","owner()":"8da5cb5b","proxiableUUID()":"52d1902d","recipient()":"66d003ac","renounceOwnership()":"715018a6","router()":"f887ea40","sender()":"67e404ce","singleRecharge(address,uint256,string)":"aa7e7eb9","transferOwnership(address)":"f2fde38b","upgradeToAndCall(address,bytes)":"4f1ef286","withdraw(string,address,uint256,address)":"62a33811"},"id":42}