{"abi":[{"type":"receive","stateMutability":"payable"},{"type":"function","name":"DEAD","inputs":[],"outputs":[{"name":"","type":"address","internalType":"address"}],"stateMutability":"view"},{"type":"function","name":"UPGRADE_INTERFACE_VERSION","inputs":[],"outputs":[{"name":"","type":"string","internalType":"string"}],"stateMutability":"view"},{"type":"function","name":"USDT","inputs":[],"outputs":[{"name":"","type":"address","internalType":"address"}],"stateMutability":"view"},{"type":"function","name":"WBNB","inputs":[],"outputs":[{"name":"","type":"address","internalType":"address"}],"stateMutability":"view"},{"type":"function","name":"admin","inputs":[],"outputs":[{"name":"","type":"address","internalType":"address"}],"stateMutability":"view"},{"type":"function","name":"changeAdmin","inputs":[{"name":"_newAdmin","type":"address","internalType":"address"}],"outputs":[],"stateMutability":"nonpayable"},{"type":"function","name":"changeOperator","inputs":[{"name":"_newOperator","type":"address","internalType":"address"}],"outputs":[],"stateMutability":"nonpayable"},{"type":"function","name":"changeRecipient","inputs":[{"name":"_newRecipient","type":"address","internalType":"address"}],"outputs":[],"stateMutability":"nonpayable"},{"type":"function","name":"changeSender","inputs":[{"name":"_newSender","type":"address","internalType":"address"}],"outputs":[],"stateMutability":"nonpayable"},{"type":"function","name":"donation","inputs":[],"outputs":[{"name":"","type":"address","internalType":"address"}],"stateMutability":"view"},{"type":"function","name":"fact","inputs":[],"outputs":[{"name":"","type":"address","internalType":"address"}],"stateMutability":"view"},{"type":"function","name":"factory","inputs":[],"outputs":[{"name":"","type":"address","internalType":"address"}],"stateMutability":"view"},{"type":"function","name":"getPrice","inputs":[{"name":"token","type":"address","internalType":"address"}],"outputs":[{"name":"","type":"address","internalType":"address"},{"name":"","type":"uint256","internalType":"uint256"}],"stateMutability":"view"},{"type":"function","name":"initialize","inputs":[{"name":"_admin","type":"address","internalType":"address"},{"name":"_recipient","type":"address","internalType":"address"},{"name":"_sender","type":"address","internalType":"address"},{"name":"_percent100","type":"address","internalType":"address"},{"name":"_fact","type":"address","internalType":"address"}],"outputs":[],"stateMutability":"nonpayable"},{"type":"function","name":"multiBalanceOf","inputs":[{"name":"token","type":"address","internalType":"address"},{"name":"users","type":"address[]","internalType":"address[]"}],"outputs":[{"name":"","type":"tuple[]","internalType":"struct Recharge.Info[]","components":[{"name":"user","type":"address","internalType":"address"},{"name":"amount","type":"uint256","internalType":"uint256"}]}],"stateMutability":"view"},{"type":"function","name":"multiRecharge","inputs":[{"name":"token0","type":"address","internalType":"address"},{"name":"amount0","type":"uint256","internalType":"uint256"},{"name":"token1","type":"address","internalType":"address"},{"name":"amount1","type":"uint256","internalType":"uint256"},{"name":"remark","type":"string","internalType":"string"}],"outputs":[],"stateMutability":"payable"},{"type":"function","name":"operator","inputs":[],"outputs":[{"name":"","type":"address","internalType":"address"}],"stateMutability":"view"},{"type":"function","name":"owner","inputs":[],"outputs":[{"name":"","type":"address","internalType":"address"}],"stateMutability":"view"},{"type":"function","name":"percent100","inputs":[],"outputs":[{"name":"","type":"address","internalType":"address"}],"stateMutability":"view"},{"type":"function","name":"proxiableUUID","inputs":[],"outputs":[{"name":"","type":"bytes32","internalType":"bytes32"}],"stateMutability":"view"},{"type":"function","name":"recipient","inputs":[],"outputs":[{"name":"","type":"address","internalType":"address"}],"stateMutability":"view"},{"type":"function","name":"renounceOwnership","inputs":[],"outputs":[],"stateMutability":"nonpayable"},{"type":"function","name":"router","inputs":[],"outputs":[{"name":"","type":"address","internalType":"address"}],"stateMutability":"view"},{"type":"function","name":"sender","inputs":[],"outputs":[{"name":"","type":"address","internalType":"address"}],"stateMutability":"view"},{"type":"function","name":"singleRecharge","inputs":[{"name":"token","type":"address","internalType":"address"},{"name":"amount","type":"uint256","internalType":"uint256"},{"name":"remark","type":"string","internalType":"string"}],"outputs":[],"stateMutability":"payable"},{"type":"function","name":"singleRechargePercent100","inputs":[{"name":"token","type":"address","internalType":"address"},{"name":"amount","type":"uint256","internalType":"uint256"},{"name":"remark","type":"string","internalType":"string"}],"outputs":[],"stateMutability":"payable"},{"type":"function","name":"transferOwnership","inputs":[{"name":"newOwner","type":"address","internalType":"address"}],"outputs":[],"stateMutability":"nonpayable"},{"type":"function","name":"upgradeToAndCall","inputs":[{"name":"newImplementation","type":"address","internalType":"address"},{"name":"data","type":"bytes","internalType":"bytes"}],"outputs":[],"stateMutability":"payable"},{"type":"function","name":"withdraw","inputs":[{"name":"remark","type":"string","internalType":"string"},{"name":"token","type":"address","internalType":"address"},{"name":"amount","type":"uint256","internalType":"uint256"},{"name":"to","type":"address","internalType":"address"}],"outputs":[],"stateMutability":"nonpayable"},{"type":"event","name":"AdminshipTransferred","inputs":[{"name":"previousAdmin","type":"address","indexed":true,"internalType":"address"},{"name":"newAdmin","type":"address","indexed":true,"internalType":"address"}],"anonymous":false},{"type":"event","name":"Initialized","inputs":[{"name":"version","type":"uint64","indexed":false,"internalType":"uint64"}],"anonymous":false},{"type":"event","name":"MultiRecharge","inputs":[{"name":"user","type":"address","indexed":false,"internalType":"address"},{"name":"token0","type":"address","indexed":false,"internalType":"address"},{"name":"amount0","type":"uint256","indexed":false,"internalType":"uint256"},{"name":"token1","type":"address","indexed":false,"internalType":"address"},{"name":"amount1","type":"uint256","indexed":false,"internalType":"uint256"},{"name":"remark","type":"string","indexed":false,"internalType":"string"}],"anonymous":false},{"type":"event","name":"OwnershipTransferred","inputs":[{"name":"previousOwner","type":"address","indexed":true,"internalType":"address"},{"name":"newOwner","type":"address","indexed":true,"internalType":"address"}],"anonymous":false},{"type":"event","name":"Upgraded","inputs":[{"name":"implementation","type":"address","indexed":true,"internalType":"address"}],"anonymous":false},{"type":"event","name":"Withdraw","inputs":[{"name":"remark","type":"string","indexed":false,"internalType":"string"},{"name":"token","type":"address","indexed":false,"internalType":"address"},{"name":"to","type":"address","indexed":false,"internalType":"address"},{"name":"amount","type":"uint256","indexed":false,"internalType":"uint256"}],"anonymous":false},{"type":"error","name":"AddressEmptyCode","inputs":[{"name":"target","type":"address","internalType":"address"}]},{"type":"error","name":"ERC1967InvalidImplementation","inputs":[{"name":"implementation","type":"address","internalType":"address"}]},{"type":"error","name":"ERC1967NonPayable","inputs":[]},{"type":"error","name":"FailedCall","inputs":[]},{"type":"error","name":"InvalidInitialization","inputs":[]},{"type":"error","name":"NotInitializing","inputs":[]},{"type":"error","name":"OwnableInvalidOwner","inputs":[{"name":"owner","type":"address","internalType":"address"}]},{"type":"error","name":"OwnableUnauthorizedAccount","inputs":[{"name":"account","type":"address","internalType":"address"}]},{"type":"error","name":"ReentrancyGuardReentrantCall","inputs":[]},{"type":"error","name":"UUPSUnauthorizedCallContext","inputs":[]},{"type":"error","name":"UUPSUnsupportedProxiableUUID","inputs":[{"name":"slot","type":"bytes32","internalType":"bytes32"}]}],"bytecode":{"object":"0x60a06040523073ffffffffffffffffffffffffffffffffffffffff1660809073ffffffffffffffffffffffffffffffffffffffff168152503480156041575f5ffd5b5060015f8190555060805161471661006f5f395f818161203e01528181612093015261224d01526147165ff3fe6080604052600436106101c5575f3560e01c80638dd95002116100f6578063b0a574f911610094578063de0d732711610063578063de0d7327146105b7578063f2fde38b146105e1578063f851a44014610609578063f887ea4014610633576101cc565b8063b0a574f91461051f578063b280a7e71461053b578063c45a015514610563578063c54e44eb1461058d576101cc565b806392c2bcb4116100d057806392c2bcb4146104755780639f166cf11461049d578063aa7e7eb9146104d9578063ad3cb1cc146104f5576101cc565b80638dd95002146103f95780638edeb15d146104235780638f2839701461044d576101cc565b806362a3381111610163578063715018a61161013d578063715018a61461037357806373abf0af1461038957806373e3ce80146103a55780638da5cb5b146103cf576101cc565b806362a33811146102f757806366d003ac1461031f57806367e404ce14610349576101cc565b806341976e091161019f57806341976e091461024a5780634f1ef2861461028757806352d1902d146102a3578063570ca735146102cd576101cc565b806303fd2a45146101d057806306394c9b146101fa5780631459457a14610222576101cc565b366101cc57005b5f5ffd5b3480156101db575f5ffd5b506101e461065d565b6040516101f1919061333c565b60405180910390f35b348015610205575f5ffd5b50610220600480360381019061021b9190613390565b610663565b005b34801561022d575f5ffd5b50610248600480360381019061024391906133bb565b6107a3565b005b348015610255575f5ffd5b50610270600480360381019061026b9190613390565b610a6f565b60405161027e92919061344a565b60405180910390f35b6102a1600480360381019061029c91906135ad565b611000565b005b3480156102ae575f5ffd5b506102b761101f565b6040516102c4919061361f565b60405180910390f35b3480156102d8575f5ffd5b506102e1611050565b6040516102ee919061333c565b60405180910390f35b348015610302575f5ffd5b5061031d60048036038101906103189190613700565b611075565b005b34801561032a575f5ffd5b506103336111f9565b604051610340919061333c565b60405180910390f35b348015610354575f5ffd5b5061035d61121e565b60405161036a919061333c565b60405180910390f35b34801561037e575f5ffd5b50610387611243565b005b6103a3600480360381019061039e91906137dd565b611256565b005b3480156103b0575f5ffd5b506103b9611471565b6040516103c6919061333c565b60405180910390f35b3480156103da575f5ffd5b506103e3611496565b6040516103f0919061333c565b60405180910390f35b348015610404575f5ffd5b5061040d6114cb565b60405161041a919061333c565b60405180910390f35b34801561042e575f5ffd5b506104376114e3565b604051610444919061333c565b60405180910390f35b348015610458575f5ffd5b50610473600480360381019061046e9190613390565b6114fb565b005b348015610480575f5ffd5b5061049b60048036038101906104969190613390565b61162f565b005b3480156104a8575f5ffd5b506104c360048036038101906104be91906138c8565b61176f565b6040516104d09190613a18565b60405180910390f35b6104f360048036038101906104ee9190613a38565b611a0b565b005b348015610500575f5ffd5b50610509611baa565b6040516105169190613b09565b60405180910390f35b61053960048036038101906105349190613a38565b611be3565b005b348015610546575f5ffd5b50610561600480360381019061055c9190613390565b611db8565b005b34801561056e575f5ffd5b50610577611ef8565b604051610584919061333c565b60405180910390f35b348015610598575f5ffd5b506105a1611f10565b6040516105ae919061333c565b60405180910390f35b3480156105c2575f5ffd5b506105cb611f28565b6040516105d8919061333c565b60405180910390f35b3480156105ec575f5ffd5b5061060760048036038101906106029190613390565b611f4d565b005b348015610614575f5ffd5b5061061d611fd1565b60405161062a919061333c565b60405180910390f35b34801561063e575f5ffd5b50610647611ff6565b604051610654919061333c565b60405180910390f35b61dead81565b60015f9054906101000a900473ffffffffffffffffffffffffffffffffffffffff1673ffffffffffffffffffffffffffffffffffffffff163373ffffffffffffffffffffffffffffffffffffffff16146106f2576040517f08c379a00000000000000000000000000000000000000000000000000000000081526004016106e990613b73565b60405180910390fd5b5f73ffffffffffffffffffffffffffffffffffffffff168173ffffffffffffffffffffffffffffffffffffffff1603610760576040517f08c379a000000000000000000000000000000000000000000000000000000000815260040161075790613bdb565b60405180910390fd5b8060025f6101000a81548173ffffffffffffffffffffffffffffffffffffffff021916908373ffffffffffffffffffffffffffffffffffffffff16021790555050565b5f6107ac61200e565b90505f815f0160089054906101000a900460ff161590505f825f015f9054906101000a900467ffffffffffffffff1690505f5f8267ffffffffffffffff161480156107f45750825b90505f60018367ffffffffffffffff1614801561082757505f3073ffffffffffffffffffffffffffffffffffffffff163b145b905081158015610835575080155b1561086c576040517ff92ee8a900000000000000000000000000000000000000000000000000000000815260040160405180910390fd5b6001855f015f6101000a81548167ffffffffffffffff021916908367ffffffffffffffff16021790555083156108b9576001855f0160086101000a81548160ff0219169083151502179055505b6108c96108c4612021565b612028565b8960015f6101000a81548173ffffffffffffffffffffffffffffffffffffffff021916908373ffffffffffffffffffffffffffffffffffffffff1602179055508860035f6101000a81548173ffffffffffffffffffffffffffffffffffffffff021916908373ffffffffffffffffffffffffffffffffffffffff1602179055508760045f6101000a81548173ffffffffffffffffffffffffffffffffffffffff021916908373ffffffffffffffffffffffffffffffffffffffff1602179055508660055f6101000a81548173ffffffffffffffffffffffffffffffffffffffff021916908373ffffffffffffffffffffffffffffffffffffffff1602179055508560065f6101000a81548173ffffffffffffffffffffffffffffffffffffffff021916908373ffffffffffffffffffffffffffffffffffffffff1602179055508315610a63575f855f0160086101000a81548160ff0219169083151502179055507fc7f505b2f371ae2175ee4913f4499e1f2633a7b5936321eed1cdaeb6115181d26001604051610a5a9190613c4e565b60405180910390a15b50505050505050505050565b5f5f5f73ca143ce32fe78f1f7019d7d551a6402fc5350c7373ffffffffffffffffffffffffffffffffffffffff1663e6a439058573bb4cdb9cbd36b01bd1cbaebf2de08d9173bc095c6040518363ffffffff1660e01b8152600401610ad5929190613c67565b602060405180830381865afa158015610af0573d5f5f3e3d5ffd5b505050506040513d601f19601f82011682018060405250810190610b149190613ca2565b90505f73ca143ce32fe78f1f7019d7d551a6402fc5350c7373ffffffffffffffffffffffffffffffffffffffff1663e6a43905867355d398326f99059ff775485246999027b31979556040518363ffffffff1660e01b8152600401610b7a929190613c67565b602060405180830381865afa158015610b95573d5f5f3e3d5ffd5b505050506040513d601f19601f82011682018060405250810190610bb99190613ca2565b90505f670de0b6b3a764000090505f5f73ffffffffffffffffffffffffffffffffffffffff168373ffffffffffffffffffffffffffffffffffffffff1614610ddc575f600267ffffffffffffffff811115610c1757610c16613489565b5b604051908082528060200260200182016040528015610c455781602001602082028036833780820191505090505b50905087815f81518110610c5c57610c5b613ccd565b5b602002602001019073ffffffffffffffffffffffffffffffffffffffff16908173ffffffffffffffffffffffffffffffffffffffff16815250507355d398326f99059ff775485246999027b319795581600181518110610cbf57610cbe613ccd565b5b602002602001019073ffffffffffffffffffffffffffffffffffffffff16908173ffffffffffffffffffffffffffffffffffffffff16815250505f7310ed43c718714eb63d5aa57b78b54704e256024e73ffffffffffffffffffffffffffffffffffffffff1663d06ca61f85846040518363ffffffff1660e01b8152600401610d49929190613da2565b5f60405180830381865afa158015610d63573d5f5f3e3d5ffd5b505050506040513d5f823e3d601f19601f82011682018060405250810190610d8b9190613ea4565b90508060018251610d9c9190613f18565b81518110610dad57610dac613ccd565b5b602002602001015192507355d398326f99059ff775485246999027b31979558397509750505050505050610ffb565b5f73ffffffffffffffffffffffffffffffffffffffff168473ffffffffffffffffffffffffffffffffffffffff1614610ff0575f600267ffffffffffffffff811115610e2b57610e2a613489565b5b604051908082528060200260200182016040528015610e595781602001602082028036833780820191505090505b50905087815f81518110610e7057610e6f613ccd565b5b602002602001019073ffffffffffffffffffffffffffffffffffffffff16908173ffffffffffffffffffffffffffffffffffffffff168152505073bb4cdb9cbd36b01bd1cbaebf2de08d9173bc095c81600181518110610ed357610ed2613ccd565b5b602002602001019073ffffffffffffffffffffffffffffffffffffffff16908173ffffffffffffffffffffffffffffffffffffffff16815250505f7310ed43c718714eb63d5aa57b78b54704e256024e73ffffffffffffffffffffffffffffffffffffffff1663d06ca61f85846040518363ffffffff1660e01b8152600401610f5d929190613da2565b5f60405180830381865afa158015610f77573d5f5f3e3d5ffd5b505050506040513d5f823e3d601f19601f82011682018060405250810190610f9f9190613ea4565b90508060018251610fb09190613f18565b81518110610fc157610fc0613ccd565b5b6020026020010151925073bb4cdb9cbd36b01bd1cbaebf2de08d9173bc095c8397509750505050505050610ffb565b5f5f95509550505050505b915091565b61100861203c565b61101182612122565b61101b828261212d565b5050565b5f61102861224b565b7f360894a13ba1a3210667c828492db98dca3e2076cc3735a920a3ca505d382bbc5f1b905090565b60025f9054906101000a900473ffffffffffffffffffffffffffffffffffffffff1681565b60015f9054906101000a900473ffffffffffffffffffffffffffffffffffffffff1673ffffffffffffffffffffffffffffffffffffffff163373ffffffffffffffffffffffffffffffffffffffff1614611104576040517f08c379a00000000000000000000000000000000000000000000000000000000081526004016110fb90613b73565b60405180910390fd5b5f8211611146576040517f08c379a000000000000000000000000000000000000000000000000000000000815260040161113d90613f95565b60405180910390fd5b5f73ffffffffffffffffffffffffffffffffffffffff168373ffffffffffffffffffffffffffffffffffffffff16146111ab576111a68360045f9054906101000a900473ffffffffffffffffffffffffffffffffffffffff1683856122d2565b6111b6565b6111b58183612405565b5b7f99310eed5bb161586b62449f89ccaa4580f85f953cd64218092edfc2b1f5fce7848483856040516111eb9493929190613fb3565b60405180910390a150505050565b60035f9054906101000a900473ffffffffffffffffffffffffffffffffffffffff1681565b60045f9054906101000a900473ffffffffffffffffffffffffffffffffffffffff1681565b61124b612500565b6112545f612587565b565b5f85118061126357505f83115b6112a2576040517f08c379a000000000000000000000000000000000000000000000000000000000815260040161129990614047565b60405180910390fd5b5f600267ffffffffffffffff8111156112be576112bd613489565b5b6040519080825280602002602001820160405280156112ec5781602001602082028036833780820191505090505b5090505f600267ffffffffffffffff81111561130b5761130a613489565b5b6040519080825280602002602001820160405280156113395781602001602082028036833780820191505090505b50905087825f815181106113505761134f613ccd565b5b602002602001019073ffffffffffffffffffffffffffffffffffffffff16908173ffffffffffffffffffffffffffffffffffffffff168152505086815f8151811061139e5761139d613ccd565b5b60200260200101818152505085826001815181106113bf576113be613ccd565b5b602002602001019073ffffffffffffffffffffffffffffffffffffffff16908173ffffffffffffffffffffffffffffffffffffffff1681525050848160018151811061140e5761140d613ccd565b5b6020026020010181815250506114248282612658565b7f92bfe9b63523d7c8baff8387323dd4c1c8ccd48705d9c91e19160ebcabb053b83389898989898960405161145f9796959493929190614091565b60405180910390a15050505050505050565b60065f9054906101000a900473ffffffffffffffffffffffffffffffffffffffff1681565b5f5f6114a0612b68565b9050805f015f9054906101000a900473ffffffffffffffffffffffffffffffffffffffff1691505090565b73bb4cdb9cbd36b01bd1cbaebf2de08d9173bc095c81565b73f8d9fbc9db44e378c603b45000c81066630eccd281565b611503612500565b5f73ffffffffffffffffffffffffffffffffffffffff168173ffffffffffffffffffffffffffffffffffffffff1603611571576040517f08c379a000000000000000000000000000000000000000000000000000000000815260040161156890613bdb565b60405180910390fd5b8073ffffffffffffffffffffffffffffffffffffffff1660015f9054906101000a900473ffffffffffffffffffffffffffffffffffffffff1673ffffffffffffffffffffffffffffffffffffffff167f2931ebb3d190545dcf6801c37aa686b74f2e1000e753d0fac6e471a2aa5a621360405160405180910390a38060015f6101000a81548173ffffffffffffffffffffffffffffffffffffffff021916908373ffffffffffffffffffffffffffffffffffffffff16021790555050565b60015f9054906101000a900473ffffffffffffffffffffffffffffffffffffffff1673ffffffffffffffffffffffffffffffffffffffff163373ffffffffffffffffffffffffffffffffffffffff16146116be576040517f08c379a00000000000000000000000000000000000000000000000000000000081526004016116b590613b73565b60405180910390fd5b5f73ffffffffffffffffffffffffffffffffffffffff168173ffffffffffffffffffffffffffffffffffffffff160361172c576040517f08c379a000000000000000000000000000000000000000000000000000000000815260040161172390613bdb565b60405180910390fd5b8060035f6101000a81548173ffffffffffffffffffffffffffffffffffffffff021916908373ffffffffffffffffffffffffffffffffffffffff16021790555050565b60605f8383905090505f8167ffffffffffffffff81111561179357611792613489565b5b6040519080825280602002602001820160405280156117cc57816020015b6117b96132cf565b8152602001906001900390816117b15790505b5090505f73ffffffffffffffffffffffffffffffffffffffff168673ffffffffffffffffffffffffffffffffffffffff16036118d0575f5f90505b828110156118ca57604051806040016040528087878481811061182d5761182c613ccd565b5b90506020020160208101906118429190613390565b73ffffffffffffffffffffffffffffffffffffffff1681526020018787848181106118705761186f613ccd565b5b90506020020160208101906118859190613390565b73ffffffffffffffffffffffffffffffffffffffff16318152508282815181106118b2576118b1613ccd565b5b60200260200101819052508080600101915050611807565b506119ff565b5f8690505f5f90505b838110156119fc5760405180604001604052808888848181106118ff576118fe613ccd565b5b90506020020160208101906119149190613390565b73ffffffffffffffffffffffffffffffffffffffff1681526020018373ffffffffffffffffffffffffffffffffffffffff166370a082318a8a8681811061195e5761195d613ccd565b5b90506020020160208101906119739190613390565b6040518263ffffffff1660e01b815260040161198f919061333c565b602060405180830381865afa1580156119aa573d5f5f3e3d5ffd5b505050506040513d601f19601f820116820180604052508101906119ce91906140f9565b8152508382815181106119e4576119e3613ccd565b5b602002602001018190525080806001019150506118d9565b50505b80925050509392505050565b5f8311611a4d576040517f08c379a0000000000000000000000000000000000000000000000000000000008152600401611a4490614047565b60405180910390fd5b5f600167ffffffffffffffff811115611a6957611a68613489565b5b604051908082528060200260200182016040528015611a975781602001602082028036833780820191505090505b5090505f600167ffffffffffffffff811115611ab657611ab5613489565b5b604051908082528060200260200182016040528015611ae45781602001602082028036833780820191505090505b50905085825f81518110611afb57611afa613ccd565b5b602002602001019073ffffffffffffffffffffffffffffffffffffffff16908173ffffffffffffffffffffffffffffffffffffffff168152505084815f81518110611b4957611b48613ccd565b5b602002602001018181525050611b5f8282612658565b7f92bfe9b63523d7c8baff8387323dd4c1c8ccd48705d9c91e19160ebcabb053b83387875f5f8989604051611b9a979695949392919061415d565b60405180910390a1505050505050565b6040518060400160405280600581526020017f352e302e3000000000000000000000000000000000000000000000000000000081525081565b611beb612b8f565b5f8311611c2d576040517f08c379a0000000000000000000000000000000000000000000000000000000008152600401611c2490614047565b60405180910390fd5b5f73ffffffffffffffffffffffffffffffffffffffff168473ffffffffffffffffffffffffffffffffffffffff1603611d395782341015611ca3576040517f08c379a0000000000000000000000000000000000000000000000000000000008152600401611c9a9061420f565b60405180910390fd5b611cce60055f9054906101000a900473ffffffffffffffffffffffffffffffffffffffff1684612405565b5f8334611cdb9190613f18565b90505f811115611cf057611cef3382612405565b5b7f92bfe9b63523d7c8baff8387323dd4c1c8ccd48705d9c91e19160ebcabb053b8335f865f5f8888604051611d2b979695949392919061415d565b60405180910390a150611daa565b611d66843360055f9054906101000a900473ffffffffffffffffffffffffffffffffffffffff16866122d2565b7f92bfe9b63523d7c8baff8387323dd4c1c8ccd48705d9c91e19160ebcabb053b83385855f5f8787604051611da1979695949392919061415d565b60405180910390a15b611db2612bd3565b50505050565b60015f9054906101000a900473ffffffffffffffffffffffffffffffffffffffff1673ffffffffffffffffffffffffffffffffffffffff163373ffffffffffffffffffffffffffffffffffffffff1614611e47576040517f08c379a0000000000000000000000000000000000000000000000000000000008152600401611e3e90613b73565b60405180910390fd5b5f73ffffffffffffffffffffffffffffffffffffffff168173ffffffffffffffffffffffffffffffffffffffff1603611eb5576040517f08c379a0000000000000000000000000000000000000000000000000000000008152600401611eac90613bdb565b60405180910390fd5b8060045f6101000a81548173ffffffffffffffffffffffffffffffffffffffff021916908373ffffffffffffffffffffffffffffffffffffffff16021790555050565b73ca143ce32fe78f1f7019d7d551a6402fc5350c7381565b7355d398326f99059ff775485246999027b319795581565b60055f9054906101000a900473ffffffffffffffffffffffffffffffffffffffff1681565b611f55612500565b5f73ffffffffffffffffffffffffffffffffffffffff168173ffffffffffffffffffffffffffffffffffffffff1603611fc5575f6040517f1e4fbdf7000000000000000000000000000000000000000000000000000000008152600401611fbc919061333c565b60405180910390fd5b611fce81612587565b50565b60015f9054906101000a900473ffffffffffffffffffffffffffffffffffffffff1681565b7310ed43c718714eb63d5aa57b78b54704e256024e81565b5f5f612018612bdc565b90508091505090565b5f33905090565b612030612c05565b61203981612c45565b50565b7f000000000000000000000000000000000000000000000000000000000000000073ffffffffffffffffffffffffffffffffffffffff163073ffffffffffffffffffffffffffffffffffffffff1614806120e957507f000000000000000000000000000000000000000000000000000000000000000073ffffffffffffffffffffffffffffffffffffffff166120d0612cc9565b73ffffffffffffffffffffffffffffffffffffffff1614155b15612120576040517fe07c8dba00000000000000000000000000000000000000000000000000000000815260040160405180910390fd5b565b61212a612500565b50565b8173ffffffffffffffffffffffffffffffffffffffff166352d1902d6040518163ffffffff1660e01b8152600401602060405180830381865afa92505050801561219557506040513d601f19601f820116820180604052508101906121929190614257565b60015b6121d657816040517f4c9c8ce30000000000000000000000000000000000000000000000000000000081526004016121cd919061333c565b60405180910390fd5b7f360894a13ba1a3210667c828492db98dca3e2076cc3735a920a3ca505d382bbc5f1b811461223c57806040517faa1d49a4000000000000000000000000000000000000000000000000000000008152600401612233919061361f565b60405180910390fd5b6122468383612d1c565b505050565b7f000000000000000000000000000000000000000000000000000000000000000073ffffffffffffffffffffffffffffffffffffffff163073ffffffffffffffffffffffffffffffffffffffff16146122d0576040517fe07c8dba00000000000000000000000000000000000000000000000000000000815260040160405180910390fd5b565b5f5f8573ffffffffffffffffffffffffffffffffffffffff166323b872dd86868660405160240161230593929190614282565b6040516020818303038152906040529060e01b6020820180517bffffffffffffffffffffffffffffffffffffffffffffffffffffffff838183161783525050505060405161235391906142fb565b5f604051808303815f865af19150503d805f811461238c576040519150601f19603f3d011682016040523d82523d5f602084013e612391565b606091505b50915091508180156123be57505f815114806123bd5750808060200190518101906123bc9190614346565b5b5b6123fd576040517f08c379a00000000000000000000000000000000000000000000000000000000081526004016123f4906143e1565b60405180910390fd5b505050505050565b5f8273ffffffffffffffffffffffffffffffffffffffff16825f67ffffffffffffffff81111561243857612437613489565b5b6040519080825280601f01601f19166020018201604052801561246a5781602001600182028036833780820191505090505b5060405161247891906142fb565b5f6040518083038185875af1925050503d805f81146124b2576040519150601f19603f3d011682016040523d82523d5f602084013e6124b7565b606091505b50509050806124fb576040517f08c379a00000000000000000000000000000000000000000000000000000000081526004016124f29061446f565b60405180910390fd5b505050565b612508612021565b73ffffffffffffffffffffffffffffffffffffffff16612526611496565b73ffffffffffffffffffffffffffffffffffffffff161461258557612549612021565b6040517f118cdaa700000000000000000000000000000000000000000000000000000000815260040161257c919061333c565b60405180910390fd5b565b5f612590612b68565b90505f815f015f9054906101000a900473ffffffffffffffffffffffffffffffffffffffff16905082825f015f6101000a81548173ffffffffffffffffffffffffffffffffffffffff021916908373ffffffffffffffffffffffffffffffffffffffff1602179055508273ffffffffffffffffffffffffffffffffffffffff168173ffffffffffffffffffffffffffffffffffffffff167f8be0079c531659141344cd1fd0a4f28419497f9722a3daafe3b4186f6b6457e060405160405180910390a3505050565b612660612b8f565b80518251146126a4576040517f08c379a000000000000000000000000000000000000000000000000000000000815260040161269b906144d7565b60405180910390fd5b5f5f90505f5f90505f5f90505b845181101561284d575f8582815181106126ce576126cd613ccd565b5b602002602001015190505f8583815181106126ec576126eb613ccd565b5b602002602001015190505f8103612704575050612840565b5f73ffffffffffffffffffffffffffffffffffffffff168273ffffffffffffffffffffffffffffffffffffffff160361275057808561274391906144f5565b9450600193505050612840565b60065f9054906101000a900473ffffffffffffffffffffffffffffffffffffffff1673ffffffffffffffffffffffffffffffffffffffff168273ffffffffffffffffffffffffffffffffffffffff1603612810576127b0823330846122d2565b5f6064601e836127c09190614528565b6127ca9190614596565b90505f81836127d99190613f18565b90506127fa8473f8d9fbc9db44e378c603b45000c81066630eccd284612d8e565b6128078461dead83612d8e565b50505050612840565b61283d823360035f9054906101000a900473ffffffffffffffffffffffffffffffffffffffff16846122d2565b50505b80806001019150506126b1565b508015612b175781341015612897576040517f08c379a000000000000000000000000000000000000000000000000000000000815260040161288e9061420f565b60405180910390fd5b5f6064601e846128a79190614528565b6128b19190614596565b90505f81846128c09190613f18565b90505f60065f9054906101000a900473ffffffffffffffffffffffffffffffffffffffff1673ffffffffffffffffffffffffffffffffffffffff166370a08231306040518263ffffffff1660e01b815260040161291d919061333c565b602060405180830381865afa158015612938573d5f5f3e3d5ffd5b505050506040513d601f19601f8201168201806040525081019061295c91906140f9565b905061296783612ebe565b5f60065f9054906101000a900473ffffffffffffffffffffffffffffffffffffffff1673ffffffffffffffffffffffffffffffffffffffff166370a08231306040518263ffffffff1660e01b81526004016129c2919061333c565b602060405180830381865afa1580156129dd573d5f5f3e3d5ffd5b505050506040513d601f19601f82011682018060405250810190612a0191906140f9565b90505f8282612a109190613f18565b90505f811115612ab6575f6064601e83612a2a9190614528565b612a349190614596565b90505f8183612a439190613f18565b9050612a8560065f9054906101000a900473ffffffffffffffffffffffffffffffffffffffff1673f8d9fbc9db44e378c603b45000c81066630eccd284612d8e565b612ab360065f9054906101000a900473ffffffffffffffffffffffffffffffffffffffff1661dead83612d8e565b50505b5f841115612aea57612ae960035f9054906101000a900473ffffffffffffffffffffffffffffffffffffffff1685612405565b5b5f8734612af79190613f18565b90505f811115612b0c57612b0b3382612405565b5b505050505050612b5a565b5f3414612b59576040517f08c379a0000000000000000000000000000000000000000000000000000000008152600401612b5090614610565b60405180910390fd5b5b5050612b64612bd3565b5050565b5f7f9016d09d72d40fdae2fd8ceac6b6234c7706214fd39c1cd1e609a0528c199300905090565b60025f5403612bca576040517f3ee5aeb500000000000000000000000000000000000000000000000000000000815260040160405180910390fd5b60025f81905550565b60015f81905550565b5f7ff0c57e16840df040f15088dc2f81fe391c3923bec73e23a9662efc9c229c6a005f1b905090565b612c0d61306f565b612c43576040517fd7e6bcf800000000000000000000000000000000000000000000000000000000815260040160405180910390fd5b565b612c4d612c05565b5f73ffffffffffffffffffffffffffffffffffffffff168173ffffffffffffffffffffffffffffffffffffffff1603612cbd575f6040517f1e4fbdf7000000000000000000000000000000000000000000000000000000008152600401612cb4919061333c565b60405180910390fd5b612cc681612587565b50565b5f612cf57f360894a13ba1a3210667c828492db98dca3e2076cc3735a920a3ca505d382bbc5f1b61308d565b5f015f9054906101000a900473ffffffffffffffffffffffffffffffffffffffff16905090565b612d2582613096565b8173ffffffffffffffffffffffffffffffffffffffff167fbc7cd75a20ee27fd9adebab32041f755214dbc6bffa90cc0225b39da2e5c2d3b60405160405180910390a25f81511115612d8157612d7b828261315f565b50612d8a565b612d89613250565b5b5050565b5f5f8473ffffffffffffffffffffffffffffffffffffffff1663a9059cbb8585604051602401612dbf92919061344a565b6040516020818303038152906040529060e01b6020820180517bffffffffffffffffffffffffffffffffffffffffffffffffffffffff8381831617835250505050604051612e0d91906142fb565b5f604051808303815f865af19150503d805f8114612e46576040519150601f19603f3d011682016040523d82523d5f602084013e612e4b565b606091505b5091509150818015612e7857505f81511480612e77575080806020019051810190612e769190614346565b5b5b612eb7576040517f08c379a0000000000000000000000000000000000000000000000000000000008152600401612eae90614678565b60405180910390fd5b5050505050565b5f600267ffffffffffffffff811115612eda57612ed9613489565b5b604051908082528060200260200182016040528015612f085781602001602082028036833780820191505090505b50905073bb4cdb9cbd36b01bd1cbaebf2de08d9173bc095c815f81518110612f3357612f32613ccd565b5b602002602001019073ffffffffffffffffffffffffffffffffffffffff16908173ffffffffffffffffffffffffffffffffffffffff168152505060065f9054906101000a900473ffffffffffffffffffffffffffffffffffffffff1681600181518110612fa357612fa2613ccd565b5b602002602001019073ffffffffffffffffffffffffffffffffffffffff16908173ffffffffffffffffffffffffffffffffffffffff16815250507310ed43c718714eb63d5aa57b78b54704e256024e73ffffffffffffffffffffffffffffffffffffffff1663b6f9de95835f8430600a4261301e91906144f5565b6040518663ffffffff1660e01b815260040161303d9493929190614696565b5f604051808303818588803b158015613054575f5ffd5b505af1158015613066573d5f5f3e3d5ffd5b50505050505050565b5f61307861200e565b5f0160089054906101000a900460ff16905090565b5f819050919050565b5f8173ffffffffffffffffffffffffffffffffffffffff163b036130f157806040517f4c9c8ce30000000000000000000000000000000000000000000000000000000081526004016130e8919061333c565b60405180910390fd5b8061311d7f360894a13ba1a3210667c828492db98dca3e2076cc3735a920a3ca505d382bbc5f1b61308d565b5f015f6101000a81548173ffffffffffffffffffffffffffffffffffffffff021916908373ffffffffffffffffffffffffffffffffffffffff16021790555050565b60605f61316c848461328c565b90508080156131a257505f61317f6132a0565b11806131a157505f8473ffffffffffffffffffffffffffffffffffffffff163b115b5b156131b7576131af6132a7565b91505061324a565b80156131fa57836040517f9996b3150000000000000000000000000000000000000000000000000000000081526004016131f1919061333c565b60405180910390fd5b5f6132036132a0565b1115613216576132116132c4565b613248565b6040517fd6bda27500000000000000000000000000000000000000000000000000000000815260040160405180910390fd5b505b92915050565b5f34111561328a576040517fb398979f00000000000000000000000000000000000000000000000000000000815260040160405180910390fd5b565b5f5f5f835160208501865af4905092915050565b5f3d905090565b606060405190503d81523d5f602083013e3d602001810160405290565b6040513d5f823e3d81fd5b60405180604001604052805f73ffffffffffffffffffffffffffffffffffffffff1681526020015f81525090565b5f73ffffffffffffffffffffffffffffffffffffffff82169050919050565b5f613326826132fd565b9050919050565b6133368161331c565b82525050565b5f60208201905061334f5f83018461332d565b92915050565b5f604051905090565b5f5ffd5b5f5ffd5b61336f8161331c565b8114613379575f5ffd5b50565b5f8135905061338a81613366565b92915050565b5f602082840312156133a5576133a461335e565b5b5f6133b28482850161337c565b91505092915050565b5f5f5f5f5f60a086880312156133d4576133d361335e565b5b5f6133e18882890161337c565b95505060206133f28882890161337c565b94505060406134038882890161337c565b93505060606134148882890161337c565b92505060806134258882890161337c565b9150509295509295909350565b5f819050919050565b61344481613432565b82525050565b5f60408201905061345d5f83018561332d565b61346a602083018461343b565b9392505050565b5f5ffd5b5f5ffd5b5f601f19601f8301169050919050565b7f4e487b71000000000000000000000000000000000000000000000000000000005f52604160045260245ffd5b6134bf82613479565b810181811067ffffffffffffffff821117156134de576134dd613489565b5b80604052505050565b5f6134f0613355565b90506134fc82826134b6565b919050565b5f67ffffffffffffffff82111561351b5761351a613489565b5b61352482613479565b9050602081019050919050565b828183375f83830152505050565b5f61355161354c84613501565b6134e7565b90508281526020810184848401111561356d5761356c613475565b5b613578848285613531565b509392505050565b5f82601f83011261359457613593613471565b5b81356135a484826020860161353f565b91505092915050565b5f5f604083850312156135c3576135c261335e565b5b5f6135d08582860161337c565b925050602083013567ffffffffffffffff8111156135f1576135f0613362565b5b6135fd85828601613580565b9150509250929050565b5f819050919050565b61361981613607565b82525050565b5f6020820190506136325f830184613610565b92915050565b5f67ffffffffffffffff82111561365257613651613489565b5b61365b82613479565b9050602081019050919050565b5f61367a61367584613638565b6134e7565b90508281526020810184848401111561369657613695613475565b5b6136a1848285613531565b509392505050565b5f82601f8301126136bd576136bc613471565b5b81356136cd848260208601613668565b91505092915050565b6136df81613432565b81146136e9575f5ffd5b50565b5f813590506136fa816136d6565b92915050565b5f5f5f5f608085870312156137185761371761335e565b5b5f85013567ffffffffffffffff81111561373557613734613362565b5b613741878288016136a9565b94505060206137528782880161337c565b9350506040613763878288016136ec565b92505060606137748782880161337c565b91505092959194509250565b5f5ffd5b5f5ffd5b5f5f83601f84011261379d5761379c613471565b5b8235905067ffffffffffffffff8111156137ba576137b9613780565b5b6020830191508360018202830111156137d6576137d5613784565b5b9250929050565b5f5f5f5f5f5f60a087890312156137f7576137f661335e565b5b5f61380489828a0161337c565b965050602061381589828a016136ec565b955050604061382689828a0161337c565b945050606061383789828a016136ec565b935050608087013567ffffffffffffffff81111561385857613857613362565b5b61386489828a01613788565b92509250509295509295509295565b5f5f83601f84011261388857613887613471565b5b8235905067ffffffffffffffff8111156138a5576138a4613780565b5b6020830191508360208202830111156138c1576138c0613784565b5b9250929050565b5f5f5f604084860312156138df576138de61335e565b5b5f6138ec8682870161337c565b935050602084013567ffffffffffffffff81111561390d5761390c613362565b5b61391986828701613873565b92509250509250925092565b5f81519050919050565b5f82825260208201905092915050565b5f819050602082019050919050565b6139578161331c565b82525050565b61396681613432565b82525050565b604082015f8201516139805f85018261394e565b506020820151613993602085018261395d565b50505050565b5f6139a4838361396c565b60408301905092915050565b5f602082019050919050565b5f6139c682613925565b6139d0818561392f565b93506139db8361393f565b805f5b83811015613a0b5781516139f28882613999565b97506139fd836139b0565b9250506001810190506139de565b5085935050505092915050565b5f6020820190508181035f830152613a3081846139bc565b905092915050565b5f5f5f5f60608587031215613a5057613a4f61335e565b5b5f613a5d8782880161337c565b9450506020613a6e878288016136ec565b935050604085013567ffffffffffffffff811115613a8f57613a8e613362565b5b613a9b87828801613788565b925092505092959194509250565b5f81519050919050565b5f82825260208201905092915050565b8281835e5f83830152505050565b5f613adb82613aa9565b613ae58185613ab3565b9350613af5818560208601613ac3565b613afe81613479565b840191505092915050565b5f6020820190508181035f830152613b218184613ad1565b905092915050565b7f4552524f525f41444d494e2e00000000000000000000000000000000000000005f82015250565b5f613b5d600c83613ab3565b9150613b6882613b29565b602082019050919050565b5f6020820190508181035f830152613b8a81613b51565b9050919050565b7f5a45524f5f414444524553532e000000000000000000000000000000000000005f82015250565b5f613bc5600d83613ab3565b9150613bd082613b91565b602082019050919050565b5f6020820190508181035f830152613bf281613bb9565b9050919050565b5f819050919050565b5f67ffffffffffffffff82169050919050565b5f819050919050565b5f613c38613c33613c2e84613bf9565b613c15565b613c02565b9050919050565b613c4881613c1e565b82525050565b5f602082019050613c615f830184613c3f565b92915050565b5f604082019050613c7a5f83018561332d565b613c87602083018461332d565b9392505050565b5f81519050613c9c81613366565b92915050565b5f60208284031215613cb757613cb661335e565b5b5f613cc484828501613c8e565b91505092915050565b7f4e487b71000000000000000000000000000000000000000000000000000000005f52603260045260245ffd5b5f81519050919050565b5f82825260208201905092915050565b5f819050602082019050919050565b5f613d2e838361394e565b60208301905092915050565b5f602082019050919050565b5f613d5082613cfa565b613d5a8185613d04565b9350613d6583613d14565b805f5b83811015613d95578151613d7c8882613d23565b9750613d8783613d3a565b925050600181019050613d68565b5085935050505092915050565b5f604082019050613db55f83018561343b565b8181036020830152613dc78184613d46565b90509392505050565b5f67ffffffffffffffff821115613dea57613de9613489565b5b602082029050602081019050919050565b5f81519050613e09816136d6565b92915050565b5f613e21613e1c84613dd0565b6134e7565b90508083825260208201905060208402830185811115613e4457613e43613784565b5b835b81811015613e6d5780613e598882613dfb565b845260208401935050602081019050613e46565b5050509392505050565b5f82601f830112613e8b57613e8a613471565b5b8151613e9b848260208601613e0f565b91505092915050565b5f60208284031215613eb957613eb861335e565b5b5f82015167ffffffffffffffff811115613ed657613ed5613362565b5b613ee284828501613e77565b91505092915050565b7f4e487b71000000000000000000000000000000000000000000000000000000005f52601160045260245ffd5b5f613f2282613432565b9150613f2d83613432565b9250828203905081811115613f4557613f44613eeb565b5b92915050565b7f4552524f525f414d4f554e542e000000000000000000000000000000000000005f82015250565b5f613f7f600d83613ab3565b9150613f8a82613f4b565b602082019050919050565b5f6020820190508181035f830152613fac81613f73565b9050919050565b5f6080820190508181035f830152613fcb8187613ad1565b9050613fda602083018661332d565b613fe7604083018561332d565b613ff4606083018461343b565b95945050505050565b7f4552524f525f414d4f554e5400000000000000000000000000000000000000005f82015250565b5f614031600c83613ab3565b915061403c82613ffd565b602082019050919050565b5f6020820190508181035f83015261405e81614025565b9050919050565b5f6140708385613ab3565b935061407d838584613531565b61408683613479565b840190509392505050565b5f60c0820190506140a45f83018a61332d565b6140b1602083018961332d565b6140be604083018861343b565b6140cb606083018761332d565b6140d8608083018661343b565b81810360a08301526140eb818486614065565b905098975050505050505050565b5f6020828403121561410e5761410d61335e565b5b5f61411b84828501613dfb565b91505092915050565b5f819050919050565b5f61414761414261413d84614124565b613c15565b613432565b9050919050565b6141578161412d565b82525050565b5f60c0820190506141705f83018a61332d565b61417d602083018961332d565b61418a604083018861343b565b614197606083018761332d565b6141a4608083018661414e565b81810360a08301526141b7818486614065565b905098975050505050505050565b7f4552524f525f50415941424c455f414d4f554e540000000000000000000000005f82015250565b5f6141f9601483613ab3565b9150614204826141c5565b602082019050919050565b5f6020820190508181035f830152614226816141ed565b9050919050565b61423681613607565b8114614240575f5ffd5b50565b5f815190506142518161422d565b92915050565b5f6020828403121561426c5761426b61335e565b5b5f61427984828501614243565b91505092915050565b5f6060820190506142955f83018661332d565b6142a2602083018561332d565b6142af604083018461343b565b949350505050565b5f81519050919050565b5f81905092915050565b5f6142d5826142b7565b6142df81856142c1565b93506142ef818560208601613ac3565b80840191505092915050565b5f61430682846142cb565b915081905092915050565b5f8115159050919050565b61432581614311565b811461432f575f5ffd5b50565b5f815190506143408161431c565b92915050565b5f6020828403121561435b5761435a61335e565b5b5f61436884828501614332565b91505092915050565b7f5472616e7366657248656c7065723a205452414e534645525f46524f4d5f46415f8201527f494c454400000000000000000000000000000000000000000000000000000000602082015250565b5f6143cb602483613ab3565b91506143d682614371565b604082019050919050565b5f6020820190508181035f8301526143f8816143bf565b9050919050565b7f5472616e7366657248656c7065723a204554485f5452414e534645525f4641495f8201527f4c45440000000000000000000000000000000000000000000000000000000000602082015250565b5f614459602383613ab3565b9150614464826143ff565b604082019050919050565b5f6020820190508181035f8301526144868161444d565b9050919050565b7f4d49534d415443485f4c454e47544800000000000000000000000000000000005f82015250565b5f6144c1600f83613ab3565b91506144cc8261448d565b602082019050919050565b5f6020820190508181035f8301526144ee816144b5565b9050919050565b5f6144ff82613432565b915061450a83613432565b925082820190508082111561452257614521613eeb565b5b92915050565b5f61453282613432565b915061453d83613432565b925082820261454b81613432565b9150828204841483151761456257614561613eeb565b5b5092915050565b7f4e487b71000000000000000000000000000000000000000000000000000000005f52601260045260245ffd5b5f6145a082613432565b91506145ab83613432565b9250826145bb576145ba614569565b5b828204905092915050565b7f4e4f5f4554485f524551554952454400000000000000000000000000000000005f82015250565b5f6145fa600f83613ab3565b9150614605826145c6565b602082019050919050565b5f6020820190508181035f830152614627816145ee565b9050919050565b7f5472616e7366657248656c7065723a205452414e534645525f4641494c4544005f82015250565b5f614662601f83613ab3565b915061466d8261462e565b602082019050919050565b5f6020820190508181035f83015261468f81614656565b9050919050565b5f6080820190506146a95f83018761414e565b81810360208301526146bb8186613d46565b90506146ca604083018561332d565b6146d7606083018461343b565b9594505050505056fea264697066735822122045a032a25ebec7aa7dd88dda4cb64ba7acfc8118e8d2b4c752b31f2fa5d8eb6364736f6c634300081e0033","linkReferences":{}},"methodIdentifiers":{"DEAD()":"03fd2a45","UPGRADE_INTERFACE_VERSION()":"ad3cb1cc","USDT()":"c54e44eb","WBNB()":"8dd95002","admin()":"f851a440","changeAdmin(address)":"8f283970","changeOperator(address)":"06394c9b","changeRecipient(address)":"92c2bcb4","changeSender(address)":"b280a7e7","donation()":"8edeb15d","fact()":"73e3ce80","factory()":"c45a0155","getPrice(address)":"41976e09","initialize(address,address,address,address,address)":"1459457a","multiBalanceOf(address,address[])":"9f166cf1","multiRecharge(address,uint256,address,uint256,string)":"73abf0af","operator()":"570ca735","owner()":"8da5cb5b","percent100()":"de0d7327","proxiableUUID()":"52d1902d","recipient()":"66d003ac","renounceOwnership()":"715018a6","router()":"f887ea40","sender()":"67e404ce","singleRecharge(address,uint256,string)":"aa7e7eb9","singleRechargePercent100(address,uint256,string)":"b0a574f9","transferOwnership(address)":"f2fde38b","upgradeToAndCall(address,bytes)":"4f1ef286","withdraw(string,address,uint256,address)":"62a33811"},"id":45}