{"abi":[{"type":"receive","stateMutability":"payable"},{"type":"function","name":"UPGRADE_INTERFACE_VERSION","inputs":[],"outputs":[{"name":"","type":"string","internalType":"string"}],"stateMutability":"view"},{"type":"function","name":"USDT","inputs":[],"outputs":[{"name":"","type":"address","internalType":"address"}],"stateMutability":"view"},{"type":"function","name":"getSubscribeInfo","inputs":[],"outputs":[{"name":"totalUsers","type":"uint256","internalType":"uint256"},{"name":"totalAmount","type":"uint256","internalType":"uint256"}],"stateMutability":"view"},{"type":"function","name":"getUserInfo","inputs":[{"name":"user","type":"address","internalType":"address"}],"outputs":[{"name":"amount","type":"uint256","internalType":"uint256"},{"name":"time","type":"uint256","internalType":"uint256"},{"name":"level","type":"uint8","internalType":"enum SubscribeV2.Level"},{"name":"subscribed","type":"bool","internalType":"bool"}],"stateMutability":"view"},{"type":"function","name":"getUserLevel","inputs":[{"name":"user","type":"address","internalType":"address"}],"outputs":[{"name":"","type":"uint8","internalType":"enum SubscribeV2.Level"}],"stateMutability":"view"},{"type":"function","name":"getUsers","inputs":[{"name":"level","type":"uint8","internalType":"enum SubscribeV2.Level"}],"outputs":[{"name":"","type":"address[]","internalType":"address[]"}],"stateMutability":"view"},{"type":"function","name":"getUsersLength","inputs":[{"name":"level","type":"uint8","internalType":"enum SubscribeV2.Level"}],"outputs":[{"name":"","type":"uint256","internalType":"uint256"}],"stateMutability":"view"},{"type":"function","name":"getUsersPage","inputs":[{"name":"level","type":"uint8","internalType":"enum SubscribeV2.Level"},{"name":"start","type":"uint256","internalType":"uint256"},{"name":"count","type":"uint256","internalType":"uint256"}],"outputs":[{"name":"users","type":"address[]","internalType":"address[]"}],"stateMutability":"view"},{"type":"function","name":"initialize","inputs":[{"name":"_recipient","type":"address","internalType":"address"}],"outputs":[],"stateMutability":"nonpayable"},{"type":"function","name":"levelPrice","inputs":[{"name":"","type":"uint8","internalType":"enum SubscribeV2.Level"}],"outputs":[{"name":"","type":"uint256","internalType":"uint256"}],"stateMutability":"view"},{"type":"function","name":"owner","inputs":[],"outputs":[{"name":"","type":"address","internalType":"address"}],"stateMutability":"view"},{"type":"function","name":"proxiableUUID","inputs":[],"outputs":[{"name":"","type":"bytes32","internalType":"bytes32"}],"stateMutability":"view"},{"type":"function","name":"recipient","inputs":[],"outputs":[{"name":"","type":"address","internalType":"address"}],"stateMutability":"view"},{"type":"function","name":"renounceOwnership","inputs":[],"outputs":[],"stateMutability":"nonpayable"},{"type":"function","name":"setLevelPrice","inputs":[{"name":"level","type":"uint8","internalType":"enum SubscribeV2.Level"},{"name":"price","type":"uint256","internalType":"uint256"}],"outputs":[],"stateMutability":"nonpayable"},{"type":"function","name":"setRecipient","inputs":[{"name":"_recipient","type":"address","internalType":"address"}],"outputs":[],"stateMutability":"nonpayable"},{"type":"function","name":"subscribe","inputs":[{"name":"level","type":"uint8","internalType":"enum SubscribeV2.Level"}],"outputs":[],"stateMutability":"nonpayable"},{"type":"function","name":"totalSubscribe","inputs":[],"outputs":[{"name":"","type":"uint256","internalType":"uint256"}],"stateMutability":"view"},{"type":"function","name":"transferOwnership","inputs":[{"name":"newOwner","type":"address","internalType":"address"}],"outputs":[],"stateMutability":"nonpayable"},{"type":"function","name":"upgradeToAndCall","inputs":[{"name":"newImplementation","type":"address","internalType":"address"},{"name":"data","type":"bytes","internalType":"bytes"}],"outputs":[],"stateMutability":"payable"},{"type":"function","name":"userInfo","inputs":[{"name":"","type":"address","internalType":"address"}],"outputs":[{"name":"subscribeAmount","type":"uint256","internalType":"uint256"},{"name":"subscribeTime","type":"uint256","internalType":"uint256"},{"name":"level","type":"uint8","internalType":"enum SubscribeV2.Level"},{"name":"subscribed","type":"bool","internalType":"bool"}],"stateMutability":"view"},{"type":"event","name":"Initialized","inputs":[{"name":"version","type":"uint64","indexed":false,"internalType":"uint64"}],"anonymous":false},{"type":"event","name":"LevelPriceUpdated","inputs":[{"name":"level","type":"uint8","indexed":false,"internalType":"enum SubscribeV2.Level"},{"name":"newPrice","type":"uint256","indexed":false,"internalType":"uint256"}],"anonymous":false},{"type":"event","name":"OwnershipTransferred","inputs":[{"name":"previousOwner","type":"address","indexed":true,"internalType":"address"},{"name":"newOwner","type":"address","indexed":true,"internalType":"address"}],"anonymous":false},{"type":"event","name":"RecipientUpdated","inputs":[{"name":"newRecipient","type":"address","indexed":false,"internalType":"address"}],"anonymous":false},{"type":"event","name":"Subscribed","inputs":[{"name":"user","type":"address","indexed":true,"internalType":"address"},{"name":"level","type":"uint8","indexed":false,"internalType":"enum SubscribeV2.Level"},{"name":"amount","type":"uint256","indexed":false,"internalType":"uint256"},{"name":"time","type":"uint256","indexed":false,"internalType":"uint256"}],"anonymous":false},{"type":"event","name":"Upgraded","inputs":[{"name":"implementation","type":"address","indexed":true,"internalType":"address"}],"anonymous":false},{"type":"error","name":"AddressEmptyCode","inputs":[{"name":"target","type":"address","internalType":"address"}]},{"type":"error","name":"ERC1967InvalidImplementation","inputs":[{"name":"implementation","type":"address","internalType":"address"}]},{"type":"error","name":"ERC1967NonPayable","inputs":[]},{"type":"error","name":"FailedCall","inputs":[]},{"type":"error","name":"InvalidInitialization","inputs":[]},{"type":"error","name":"NotInitializing","inputs":[]},{"type":"error","name":"OwnableInvalidOwner","inputs":[{"name":"owner","type":"address","internalType":"address"}]},{"type":"error","name":"OwnableUnauthorizedAccount","inputs":[{"name":"account","type":"address","internalType":"address"}]},{"type":"error","name":"ReentrancyGuardReentrantCall","inputs":[]},{"type":"error","name":"UUPSUnauthorizedCallContext","inputs":[]},{"type":"error","name":"UUPSUnsupportedProxiableUUID","inputs":[{"name":"slot","type":"bytes32","internalType":"bytes32"}]}],"bytecode":{"object":"0x60a06040523073ffffffffffffffffffffffffffffffffffffffff1660809073ffffffffffffffffffffffffffffffffffffffff168152503480156041575f5ffd5b5060015f81905550608051612af461006f5f395f8181611764015281816117b901526119730152612af45ff3fe60806040526004361061012d575f3560e01c806366d003ac116100aa5780638eb657c41161006e5780638eb657c4146103fb578063ad3cb1cc14610423578063c4d66de81461044d578063c54e44eb14610475578063ecabdf791461049f578063f2fde38b146104db57610134565b806366d003ac1461032b578063715018a6146103555780637543321f1461036b5780637aeaad60146103955780638da5cb5b146103d157610134565b806347095c14116100f157806347095c141461024257806349c7e6391461027e5780634f1ef286146102a657806352d1902d146102c25780636386c1c7146102ec57610134565b806314b4ee3b146101385780631959a00214610163578063209630a8146101a257806321923bde146101de5780633bbed4a01461021a57610134565b3661013457005b5f5ffd5b348015610143575f5ffd5b5061014c610503565b60405161015a929190611f5a565b60405180910390f35b34801561016e575f5ffd5b5061018960048036038101906101849190611fec565b610615565b60405161019994939291906120a4565b60405180910390f35b3480156101ad575f5ffd5b506101c860048036038101906101c39190612134565b61065a565b6040516101d5919061223b565b60405180910390f35b3480156101e9575f5ffd5b5061020460048036038101906101ff9190611fec565b610821565b604051610211919061225b565b60405180910390f35b348015610225575f5ffd5b50610240600480360381019061023b9190611fec565b610876565b005b34801561024d575f5ffd5b5061026860048036038101906102639190612274565b610966565b604051610275919061229f565b60405180910390f35b348015610289575f5ffd5b506102a4600480360381019061029f9190612274565b610a0d565b005b6102c060048036038101906102bb91906123f4565b610da5565b005b3480156102cd575f5ffd5b506102d6610dc4565b6040516102e39190612466565b60405180910390f35b3480156102f7575f5ffd5b50610312600480360381019061030d9190611fec565b610df5565b60405161032294939291906120a4565b60405180910390f35b348015610336575f5ffd5b5061033f610ecf565b60405161034c919061248e565b60405180910390f35b348015610360575f5ffd5b50610369610ef4565b005b348015610376575f5ffd5b5061037f610f07565b60405161038c919061229f565b60405180910390f35b3480156103a0575f5ffd5b506103bb60048036038101906103b69190612274565b610f0d565b6040516103c8919061223b565b60405180910390f35b3480156103dc575f5ffd5b506103e5611033565b6040516103f2919061248e565b60405180910390f35b348015610406575f5ffd5b50610421600480360381019061041c91906124a7565b611068565b005b34801561042e575f5ffd5b5061043761118f565b6040516104449190612545565b60405180910390f35b348015610458575f5ffd5b50610473600480360381019061046e9190611fec565b6111c8565b005b348015610480575f5ffd5b506104896114aa565b604051610496919061248e565b60405180910390f35b3480156104aa575f5ffd5b506104c560048036038101906104c09190612274565b6114c2565b6040516104d2919061229f565b60405180910390f35b3480156104e6575f5ffd5b5061050160048036038101906104fc9190611fec565b6114d7565b005b5f5f60045f60048081111561051b5761051a612017565b5b600481111561052d5761052c612017565b5b81526020019081526020015f208054905060045f6003600481111561055557610554612017565b5b600481111561056757610566612017565b5b81526020019081526020015f208054905060045f6002600481111561058f5761058e612017565b5b60048111156105a1576105a0612017565b5b81526020019081526020015f208054905060045f600160048111156105c9576105c8612017565b5b60048111156105db576105da612017565b5b81526020019081526020015f20805490506105f69190612592565b6106009190612592565b61060a9190612592565b915060055490509091565b6003602052805f5260405f205f91509050805f015490806001015490806002015f9054906101000a900460ff16908060020160019054906101000a900460ff16905084565b60605f60045f86600481111561067357610672612017565b5b600481111561068557610684612017565b5b81526020019081526020015f209050808054905084106106f0575f67ffffffffffffffff8111156106b9576106b86122d0565b5b6040519080825280602002602001820160405280156106e75781602001602082028036833780820191505090505b5091505061081a565b5f83856106fd9190612592565b9050818054905081111561071357818054905090505b848161071f91906125c5565b67ffffffffffffffff811115610738576107376122d0565b5b6040519080825280602002602001820160405280156107665781602001602082028036833780820191505090505b5092505f8590505b8181101561081657828181548110610789576107886125f8565b5b905f5260205f20015f9054906101000a900473ffffffffffffffffffffffffffffffffffffffff168487836107be91906125c5565b815181106107cf576107ce6125f8565b5b602002602001019073ffffffffffffffffffffffffffffffffffffffff16908173ffffffffffffffffffffffffffffffffffffffff1681525050808060010191505061076e565b5050505b9392505050565b5f60035f8373ffffffffffffffffffffffffffffffffffffffff1673ffffffffffffffffffffffffffffffffffffffff1681526020019081526020015f206002015f9054906101000a900460ff169050919050565b61087e61155b565b5f73ffffffffffffffffffffffffffffffffffffffff168173ffffffffffffffffffffffffffffffffffffffff16036108ec576040517f08c379a00000000000000000000000000000000000000000000000000000000081526004016108e39061266f565b60405180910390fd5b8060015f6101000a81548173ffffffffffffffffffffffffffffffffffffffff021916908373ffffffffffffffffffffffffffffffffffffffff1602179055507f566f16f5ede69bb6f837d5da3a6cf41c863ba95621d677ff3c931aa687da64668160405161095b919061248e565b60405180910390a150565b5f5f600481111561097a57610979612017565b5b82600481111561098d5761098c612017565b5b036109cd576040517f08c379a00000000000000000000000000000000000000000000000000000000081526004016109c4906126d7565b60405180910390fd5b60045f8360048111156109e3576109e2612017565b5b60048111156109f5576109f4612017565b5b81526020019081526020015f20805490509050919050565b610a156115e2565b5f6004811115610a2857610a27612017565b5b816004811115610a3b57610a3a612017565b5b03610a7b576040517f08c379a0000000000000000000000000000000000000000000000000000000008152600401610a72906126d7565b60405180910390fd5b60035f3373ffffffffffffffffffffffffffffffffffffffff1673ffffffffffffffffffffffffffffffffffffffff1681526020019081526020015f2060020160019054906101000a900460ff1615610b09576040517f08c379a0000000000000000000000000000000000000000000000000000000008152600401610b009061273f565b60405180910390fd5b5f60025f836004811115610b2057610b1f612017565b5b6004811115610b3257610b31612017565b5b81526020019081526020015f205490505f8111610b84576040517f08c379a0000000000000000000000000000000000000000000000000000000008152600401610b7b906127a7565b60405180910390fd5b610bc57355d398326f99059ff775485246999027b31979553360015f9054906101000a900473ffffffffffffffffffffffffffffffffffffffff1684611626565b6040518060800160405280828152602001428152602001836004811115610bef57610bee612017565b5b81526020016001151581525060035f3373ffffffffffffffffffffffffffffffffffffffff1673ffffffffffffffffffffffffffffffffffffffff1681526020019081526020015f205f820151815f0155602082015181600101556040820151816002015f6101000a81548160ff02191690836004811115610c7457610c73612017565b5b021790555060608201518160020160016101000a81548160ff0219169083151502179055509050508060055f828254610cad9190612592565b9250508190555060045f836004811115610cca57610cc9612017565b5b6004811115610cdc57610cdb612017565b5b81526020019081526020015f2033908060018154018082558091505060019003905f5260205f20015f9091909190916101000a81548173ffffffffffffffffffffffffffffffffffffffff021916908373ffffffffffffffffffffffffffffffffffffffff1602179055503373ffffffffffffffffffffffffffffffffffffffff167f0461beb329d7acfbed27b25e75051d4b137810d66ecd6d048744f7b636385ad0838342604051610d91939291906127c5565b60405180910390a250610da2611759565b50565b610dad611762565b610db682611848565b610dc08282611853565b5050565b5f610dcd611971565b7f360894a13ba1a3210667c828492db98dca3e2076cc3735a920a3ca505d382bbc5f1b905090565b5f5f5f5f5f60035f8773ffffffffffffffffffffffffffffffffffffffff1673ffffffffffffffffffffffffffffffffffffffff1681526020019081526020015f206040518060800160405290815f820154815260200160018201548152602001600282015f9054906101000a900460ff166004811115610e7957610e78612017565b5b6004811115610e8b57610e8a612017565b5b81526020016002820160019054906101000a900460ff1615151515815250509050805f01518160200151826040015183606001519450945094509450509193509193565b60015f9054906101000a900473ffffffffffffffffffffffffffffffffffffffff1681565b610efc61155b565b610f055f6119f8565b565b60055481565b60605f6004811115610f2257610f21612017565b5b826004811115610f3557610f34612017565b5b03610f75576040517f08c379a0000000000000000000000000000000000000000000000000000000008152600401610f6c906126d7565b60405180910390fd5b60045f836004811115610f8b57610f8a612017565b5b6004811115610f9d57610f9c612017565b5b81526020019081526020015f2080548060200260200160405190810160405280929190818152602001828054801561102757602002820191905f5260205f20905b815f9054906101000a900473ffffffffffffffffffffffffffffffffffffffff1673ffffffffffffffffffffffffffffffffffffffff1681526020019060010190808311610fde575b50505050509050919050565b5f5f61103d611ac9565b9050805f015f9054906101000a900473ffffffffffffffffffffffffffffffffffffffff1691505090565b61107061155b565b5f600481111561108357611082612017565b5b82600481111561109657611095612017565b5b036110d6576040517f08c379a00000000000000000000000000000000000000000000000000000000081526004016110cd906126d7565b60405180910390fd5b5f8111611118576040517f08c379a000000000000000000000000000000000000000000000000000000000815260040161110f90612844565b60405180910390fd5b8060025f84600481111561112f5761112e612017565b5b600481111561114157611140612017565b5b81526020019081526020015f20819055507f44365c22f73c74a7eecedb89664d51d71b5ad9cf17a61b7e61f397126ed61d5f8282604051611183929190612862565b60405180910390a15050565b6040518060400160405280600581526020017f352e302e3000000000000000000000000000000000000000000000000000000081525081565b5f6111d1611af0565b90505f815f0160089054906101000a900460ff161590505f825f015f9054906101000a900467ffffffffffffffff1690505f5f8267ffffffffffffffff161480156112195750825b90505f60018367ffffffffffffffff1614801561124c57505f3073ffffffffffffffffffffffffffffffffffffffff163b145b90508115801561125a575080155b15611291576040517ff92ee8a900000000000000000000000000000000000000000000000000000000815260040160405180910390fd5b6001855f015f6101000a81548167ffffffffffffffff021916908367ffffffffffffffff16021790555083156112de576001855f0160086101000a81548160ff0219169083151502179055505b6112ee6112e9611b03565b611b0a565b6112f6611b8e565b8560015f6101000a81548173ffffffffffffffffffffffffffffffffffffffff021916908373ffffffffffffffffffffffffffffffffffffffff16021790555068056bc75e2d6310000060025f6001600481111561135757611356612017565b5b600481111561136957611368612017565b5b81526020019081526020015f208190555069010f0cf064dd5920000060025f6002600481111561139c5761139b612017565b5b60048111156113ae576113ad612017565b5b81526020019081526020015f208190555069043c33c193756480000060025f600360048111156113e1576113e0612017565b5b60048111156113f3576113f2612017565b5b81526020019081526020015f2081905550690a968163f0a57b40000060025f60048081111561142557611424612017565b5b600481111561143757611436612017565b5b81526020019081526020015f208190555083156114a2575f855f0160086101000a81548160ff0219169083151502179055507fc7f505b2f371ae2175ee4913f4499e1f2633a7b5936321eed1cdaeb6115181d2600160405161149991906128de565b60405180910390a15b505050505050565b7355d398326f99059ff775485246999027b319795581565b6002602052805f5260405f205f915090505481565b6114df61155b565b5f73ffffffffffffffffffffffffffffffffffffffff168173ffffffffffffffffffffffffffffffffffffffff160361154f575f6040517f1e4fbdf7000000000000000000000000000000000000000000000000000000008152600401611546919061248e565b60405180910390fd5b611558816119f8565b50565b611563611b03565b73ffffffffffffffffffffffffffffffffffffffff16611581611033565b73ffffffffffffffffffffffffffffffffffffffff16146115e0576115a4611b03565b6040517f118cdaa70000000000000000000000000000000000000000000000000000000081526004016115d7919061248e565b60405180910390fd5b565b60025f540361161d576040517f3ee5aeb500000000000000000000000000000000000000000000000000000000815260040160405180910390fd5b60025f81905550565b5f5f8573ffffffffffffffffffffffffffffffffffffffff166323b872dd868686604051602401611659939291906128f7565b6040516020818303038152906040529060e01b6020820180517bffffffffffffffffffffffffffffffffffffffffffffffffffffffff83818316178352505050506040516116a79190612970565b5f604051808303815f865af19150503d805f81146116e0576040519150601f19603f3d011682016040523d82523d5f602084013e6116e5565b606091505b509150915081801561171257505f8151148061171157508080602001905181019061171091906129b0565b5b5b611751576040517f08c379a000000000000000000000000000000000000000000000000000000000815260040161174890612a4b565b60405180910390fd5b505050505050565b60015f81905550565b7f000000000000000000000000000000000000000000000000000000000000000073ffffffffffffffffffffffffffffffffffffffff163073ffffffffffffffffffffffffffffffffffffffff16148061180f57507f000000000000000000000000000000000000000000000000000000000000000073ffffffffffffffffffffffffffffffffffffffff166117f6611b98565b73ffffffffffffffffffffffffffffffffffffffff1614155b15611846576040517fe07c8dba00000000000000000000000000000000000000000000000000000000815260040160405180910390fd5b565b61185061155b565b50565b8173ffffffffffffffffffffffffffffffffffffffff166352d1902d6040518163ffffffff1660e01b8152600401602060405180830381865afa9250505080156118bb57506040513d601f19601f820116820180604052508101906118b89190612a93565b60015b6118fc57816040517f4c9c8ce30000000000000000000000000000000000000000000000000000000081526004016118f3919061248e565b60405180910390fd5b7f360894a13ba1a3210667c828492db98dca3e2076cc3735a920a3ca505d382bbc5f1b811461196257806040517faa1d49a40000000000000000000000000000000000000000000000000000000081526004016119599190612466565b60405180910390fd5b61196c8383611beb565b505050565b7f000000000000000000000000000000000000000000000000000000000000000073ffffffffffffffffffffffffffffffffffffffff163073ffffffffffffffffffffffffffffffffffffffff16146119f6576040517fe07c8dba00000000000000000000000000000000000000000000000000000000815260040160405180910390fd5b565b5f611a01611ac9565b90505f815f015f9054906101000a900473ffffffffffffffffffffffffffffffffffffffff16905082825f015f6101000a81548173ffffffffffffffffffffffffffffffffffffffff021916908373ffffffffffffffffffffffffffffffffffffffff1602179055508273ffffffffffffffffffffffffffffffffffffffff168173ffffffffffffffffffffffffffffffffffffffff167f8be0079c531659141344cd1fd0a4f28419497f9722a3daafe3b4186f6b6457e060405160405180910390a3505050565b5f7f9016d09d72d40fdae2fd8ceac6b6234c7706214fd39c1cd1e609a0528c199300905090565b5f5f611afa611c5d565b90508091505090565b5f33905090565b611b12611c86565b5f73ffffffffffffffffffffffffffffffffffffffff168173ffffffffffffffffffffffffffffffffffffffff1603611b82575f6040517f1e4fbdf7000000000000000000000000000000000000000000000000000000008152600401611b79919061248e565b60405180910390fd5b611b8b816119f8565b50565b611b96611c86565b565b5f611bc47f360894a13ba1a3210667c828492db98dca3e2076cc3735a920a3ca505d382bbc5f1b611cc6565b5f015f9054906101000a900473ffffffffffffffffffffffffffffffffffffffff16905090565b611bf482611ccf565b8173ffffffffffffffffffffffffffffffffffffffff167fbc7cd75a20ee27fd9adebab32041f755214dbc6bffa90cc0225b39da2e5c2d3b60405160405180910390a25f81511115611c5057611c4a8282611d98565b50611c59565b611c58611e18565b5b5050565b5f7ff0c57e16840df040f15088dc2f81fe391c3923bec73e23a9662efc9c229c6a005f1b905090565b611c8e611e54565b611cc4576040517fd7e6bcf800000000000000000000000000000000000000000000000000000000815260040160405180910390fd5b565b5f819050919050565b5f8173ffffffffffffffffffffffffffffffffffffffff163b03611d2a57806040517f4c9c8ce3000000000000000000000000000000000000000000000000000000008152600401611d21919061248e565b60405180910390fd5b80611d567f360894a13ba1a3210667c828492db98dca3e2076cc3735a920a3ca505d382bbc5f1b611cc6565b5f015f6101000a81548173ffffffffffffffffffffffffffffffffffffffff021916908373ffffffffffffffffffffffffffffffffffffffff16021790555050565b60605f5f8473ffffffffffffffffffffffffffffffffffffffff1684604051611dc19190612970565b5f60405180830381855af49150503d805f8114611df9576040519150601f19603f3d011682016040523d82523d5f602084013e611dfe565b606091505b5091509150611e0e858383611e72565b9250505092915050565b5f341115611e52576040517fb398979f00000000000000000000000000000000000000000000000000000000815260040160405180910390fd5b565b5f611e5d611af0565b5f0160089054906101000a900460ff16905090565b606082611e8757611e8282611eff565b611ef7565b5f8251148015611ead57505f8473ffffffffffffffffffffffffffffffffffffffff163b145b15611eef57836040517f9996b315000000000000000000000000000000000000000000000000000000008152600401611ee6919061248e565b60405180910390fd5b819050611ef8565b5b9392505050565b5f81511115611f1057805160208201fd5b6040517fd6bda27500000000000000000000000000000000000000000000000000000000815260040160405180910390fd5b5f819050919050565b611f5481611f42565b82525050565b5f604082019050611f6d5f830185611f4b565b611f7a6020830184611f4b565b9392505050565b5f604051905090565b5f5ffd5b5f5ffd5b5f73ffffffffffffffffffffffffffffffffffffffff82169050919050565b5f611fbb82611f92565b9050919050565b611fcb81611fb1565b8114611fd5575f5ffd5b50565b5f81359050611fe681611fc2565b92915050565b5f6020828403121561200157612000611f8a565b5b5f61200e84828501611fd8565b91505092915050565b7f4e487b71000000000000000000000000000000000000000000000000000000005f52602160045260245ffd5b6005811061205557612054612017565b5b50565b5f81905061206582612044565b919050565b5f61207482612058565b9050919050565b6120848161206a565b82525050565b5f8115159050919050565b61209e8161208a565b82525050565b5f6080820190506120b75f830187611f4b565b6120c46020830186611f4b565b6120d1604083018561207b565b6120de6060830184612095565b95945050505050565b600581106120f3575f5ffd5b50565b5f81359050612104816120e7565b92915050565b61211381611f42565b811461211d575f5ffd5b50565b5f8135905061212e8161210a565b92915050565b5f5f5f6060848603121561214b5761214a611f8a565b5b5f612158868287016120f6565b935050602061216986828701612120565b925050604061217a86828701612120565b9150509250925092565b5f81519050919050565b5f82825260208201905092915050565b5f819050602082019050919050565b6121b681611fb1565b82525050565b5f6121c783836121ad565b60208301905092915050565b5f602082019050919050565b5f6121e982612184565b6121f3818561218e565b93506121fe8361219e565b805f5b8381101561222e57815161221588826121bc565b9750612220836121d3565b925050600181019050612201565b5085935050505092915050565b5f6020820190508181035f83015261225381846121df565b905092915050565b5f60208201905061226e5f83018461207b565b92915050565b5f6020828403121561228957612288611f8a565b5b5f612296848285016120f6565b91505092915050565b5f6020820190506122b25f830184611f4b565b92915050565b5f5ffd5b5f5ffd5b5f601f19601f8301169050919050565b7f4e487b71000000000000000000000000000000000000000000000000000000005f52604160045260245ffd5b612306826122c0565b810181811067ffffffffffffffff82111715612325576123246122d0565b5b80604052505050565b5f612337611f81565b905061234382826122fd565b919050565b5f67ffffffffffffffff821115612362576123616122d0565b5b61236b826122c0565b9050602081019050919050565b828183375f83830152505050565b5f61239861239384612348565b61232e565b9050828152602081018484840111156123b4576123b36122bc565b5b6123bf848285612378565b509392505050565b5f82601f8301126123db576123da6122b8565b5b81356123eb848260208601612386565b91505092915050565b5f5f6040838503121561240a57612409611f8a565b5b5f61241785828601611fd8565b925050602083013567ffffffffffffffff81111561243857612437611f8e565b5b612444858286016123c7565b9150509250929050565b5f819050919050565b6124608161244e565b82525050565b5f6020820190506124795f830184612457565b92915050565b61248881611fb1565b82525050565b5f6020820190506124a15f83018461247f565b92915050565b5f5f604083850312156124bd576124bc611f8a565b5b5f6124ca858286016120f6565b92505060206124db85828601612120565b9150509250929050565b5f81519050919050565b5f82825260208201905092915050565b8281835e5f83830152505050565b5f612517826124e5565b61252181856124ef565b93506125318185602086016124ff565b61253a816122c0565b840191505092915050565b5f6020820190508181035f83015261255d818461250d565b905092915050565b7f4e487b71000000000000000000000000000000000000000000000000000000005f52601160045260245ffd5b5f61259c82611f42565b91506125a783611f42565b92508282019050808211156125bf576125be612565565b5b92915050565b5f6125cf82611f42565b91506125da83611f42565b92508282039050818111156125f2576125f1612565565b5b92915050565b7f4e487b71000000000000000000000000000000000000000000000000000000005f52603260045260245ffd5b7f496e76616c696420726563697069656e740000000000000000000000000000005f82015250565b5f6126596011836124ef565b915061266482612625565b602082019050919050565b5f6020820190508181035f8301526126868161264d565b9050919050565b7f496e76616c6964206c6576656c000000000000000000000000000000000000005f82015250565b5f6126c1600d836124ef565b91506126cc8261268d565b602082019050919050565b5f6020820190508181035f8301526126ee816126b5565b9050919050565b7f416c7265616479207375627363726962656400000000000000000000000000005f82015250565b5f6127296012836124ef565b9150612734826126f5565b602082019050919050565b5f6020820190508181035f8301526127568161271d565b9050919050565b7f4c6576656c207072696365206e6f7420736574000000000000000000000000005f82015250565b5f6127916013836124ef565b915061279c8261275d565b602082019050919050565b5f6020820190508181035f8301526127be81612785565b9050919050565b5f6060820190506127d85f83018661207b565b6127e56020830185611f4b565b6127f26040830184611f4b565b949350505050565b7f496e76616c6964207072696365000000000000000000000000000000000000005f82015250565b5f61282e600d836124ef565b9150612839826127fa565b602082019050919050565b5f6020820190508181035f83015261285b81612822565b9050919050565b5f6040820190506128755f83018561207b565b6128826020830184611f4b565b9392505050565b5f819050919050565b5f67ffffffffffffffff82169050919050565b5f819050919050565b5f6128c86128c36128be84612889565b6128a5565b612892565b9050919050565b6128d8816128ae565b82525050565b5f6020820190506128f15f8301846128cf565b92915050565b5f60608201905061290a5f83018661247f565b612917602083018561247f565b6129246040830184611f4b565b949350505050565b5f81519050919050565b5f81905092915050565b5f61294a8261292c565b6129548185612936565b93506129648185602086016124ff565b80840191505092915050565b5f61297b8284612940565b915081905092915050565b61298f8161208a565b8114612999575f5ffd5b50565b5f815190506129aa81612986565b92915050565b5f602082840312156129c5576129c4611f8a565b5b5f6129d28482850161299c565b91505092915050565b7f5472616e7366657248656c7065723a205452414e534645525f46524f4d5f46415f8201527f494c454400000000000000000000000000000000000000000000000000000000602082015250565b5f612a356024836124ef565b9150612a40826129db565b604082019050919050565b5f6020820190508181035f830152612a6281612a29565b9050919050565b612a728161244e565b8114612a7c575f5ffd5b50565b5f81519050612a8d81612a69565b92915050565b5f60208284031215612aa857612aa7611f8a565b5b5f612ab584828501612a7f565b9150509291505056fea264697066735822122088ee7e29aef720bf0de6183b3ab571df588a259489ed461b92b818ba9b63f2db64736f6c634300081e0033","linkReferences":{}},"methodIdentifiers":{"UPGRADE_INTERFACE_VERSION()":"ad3cb1cc","USDT()":"c54e44eb","getSubscribeInfo()":"14b4ee3b","getUserInfo(address)":"6386c1c7","getUserLevel(address)":"21923bde","getUsers(uint8)":"7aeaad60","getUsersLength(uint8)":"47095c14","getUsersPage(uint8,uint256,uint256)":"209630a8","initialize(address)":"c4d66de8","levelPrice(uint8)":"ecabdf79","owner()":"8da5cb5b","proxiableUUID()":"52d1902d","recipient()":"66d003ac","renounceOwnership()":"715018a6","setLevelPrice(uint8,uint256)":"8eb657c4","setRecipient(address)":"3bbed4a0","subscribe(uint8)":"49c7e639","totalSubscribe()":"7543321f","transferOwnership(address)":"f2fde38b","upgradeToAndCall(address,bytes)":"4f1ef286","userInfo(address)":"1959a002"},"id":44}