{"abi":[{"type":"receive","stateMutability":"payable"},{"type":"function","name":"ADX","inputs":[],"outputs":[{"name":"","type":"address","internalType":"address"}],"stateMutability":"view"},{"type":"function","name":"FACTORY","inputs":[],"outputs":[{"name":"","type":"address","internalType":"address"}],"stateMutability":"view"},{"type":"function","name":"ROUTER","inputs":[],"outputs":[{"name":"","type":"address","internalType":"address"}],"stateMutability":"view"},{"type":"function","name":"UPGRADE_INTERFACE_VERSION","inputs":[],"outputs":[{"name":"","type":"string","internalType":"string"}],"stateMutability":"view"},{"type":"function","name":"admin","inputs":[],"outputs":[{"name":"","type":"address","internalType":"address"}],"stateMutability":"view"},{"type":"function","name":"changeAdmin","inputs":[{"name":"_newAdmin","type":"address","internalType":"address"}],"outputs":[],"stateMutability":"nonpayable"},{"type":"function","name":"changeRecipient","inputs":[{"name":"_newRecipient","type":"address","internalType":"address"}],"outputs":[],"stateMutability":"nonpayable"},{"type":"function","name":"changeSender","inputs":[{"name":"_newSender","type":"address","internalType":"address"}],"outputs":[],"stateMutability":"nonpayable"},{"type":"function","name":"getPrice","inputs":[{"name":"token","type":"address","internalType":"address"}],"outputs":[{"name":"","type":"address","internalType":"address"},{"name":"","type":"uint256","internalType":"uint256"}],"stateMutability":"view"},{"type":"function","name":"initialize","inputs":[{"name":"_admin","type":"address","internalType":"address"},{"name":"_recipient","type":"address","internalType":"address"},{"name":"_sender","type":"address","internalType":"address"},{"name":"_percent50","type":"address","internalType":"address"},{"name":"_percent40","type":"address","internalType":"address"},{"name":"_percent10","type":"address","internalType":"address"},{"name":"_x101","type":"address","internalType":"address"}],"outputs":[],"stateMutability":"nonpayable"},{"type":"function","name":"multiBalanceOf","inputs":[{"name":"token","type":"address","internalType":"address"},{"name":"users","type":"address[]","internalType":"address[]"}],"outputs":[{"name":"","type":"tuple[]","internalType":"struct Recharge.Info[]","components":[{"name":"user","type":"address","internalType":"address"},{"name":"amount","type":"uint256","internalType":"uint256"}]}],"stateMutability":"view"},{"type":"function","name":"multiRecharge","inputs":[{"name":"token0","type":"address","internalType":"address"},{"name":"amount0","type":"uint256","internalType":"uint256"},{"name":"token1","type":"address","internalType":"address"},{"name":"amount1","type":"uint256","internalType":"uint256"},{"name":"remark","type":"string","internalType":"string"}],"outputs":[],"stateMutability":"payable"},{"type":"function","name":"owner","inputs":[],"outputs":[{"name":"","type":"address","internalType":"address"}],"stateMutability":"view"},{"type":"function","name":"percent10","inputs":[],"outputs":[{"name":"","type":"address","internalType":"address"}],"stateMutability":"view"},{"type":"function","name":"percent100","inputs":[],"outputs":[{"name":"","type":"address","internalType":"address"}],"stateMutability":"view"},{"type":"function","name":"percent40","inputs":[],"outputs":[{"name":"","type":"address","internalType":"address"}],"stateMutability":"view"},{"type":"function","name":"percent50","inputs":[],"outputs":[{"name":"","type":"address","internalType":"address"}],"stateMutability":"view"},{"type":"function","name":"proxiableUUID","inputs":[],"outputs":[{"name":"","type":"bytes32","internalType":"bytes32"}],"stateMutability":"view"},{"type":"function","name":"recipient","inputs":[],"outputs":[{"name":"","type":"address","internalType":"address"}],"stateMutability":"view"},{"type":"function","name":"renounceOwnership","inputs":[],"outputs":[],"stateMutability":"nonpayable"},{"type":"function","name":"sender","inputs":[],"outputs":[{"name":"","type":"address","internalType":"address"}],"stateMutability":"view"},{"type":"function","name":"setPercents","inputs":[{"name":"_p50","type":"address","internalType":"address"},{"name":"_p40","type":"address","internalType":"address"},{"name":"_p10","type":"address","internalType":"address"}],"outputs":[],"stateMutability":"nonpayable"},{"type":"function","name":"setX101","inputs":[{"name":"_x101","type":"address","internalType":"address"}],"outputs":[],"stateMutability":"nonpayable"},{"type":"function","name":"singleRecharge","inputs":[{"name":"token","type":"address","internalType":"address"},{"name":"amount","type":"uint256","internalType":"uint256"},{"name":"remark","type":"string","internalType":"string"}],"outputs":[],"stateMutability":"payable"},{"type":"function","name":"singleRechargePercent100","inputs":[{"name":"token","type":"address","internalType":"address"},{"name":"amount","type":"uint256","internalType":"uint256"},{"name":"remark","type":"string","internalType":"string"}],"outputs":[],"stateMutability":"payable"},{"type":"function","name":"transferOwnership","inputs":[{"name":"newOwner","type":"address","internalType":"address"}],"outputs":[],"stateMutability":"nonpayable"},{"type":"function","name":"upgradeToAndCall","inputs":[{"name":"newImplementation","type":"address","internalType":"address"},{"name":"data","type":"bytes","internalType":"bytes"}],"outputs":[],"stateMutability":"payable"},{"type":"function","name":"withdraw","inputs":[{"name":"remark","type":"string","internalType":"string"},{"name":"token","type":"address","internalType":"address"},{"name":"amount","type":"uint256","internalType":"uint256"},{"name":"to","type":"address","internalType":"address"}],"outputs":[],"stateMutability":"nonpayable"},{"type":"function","name":"x101","inputs":[],"outputs":[{"name":"","type":"address","internalType":"address"}],"stateMutability":"view"},{"type":"event","name":"ADXDistributed","inputs":[{"name":"user","type":"address","indexed":true,"internalType":"address"},{"name":"originalADX","type":"uint256","indexed":false,"internalType":"uint256"},{"name":"x101Sent","type":"uint256","indexed":false,"internalType":"uint256"},{"name":"adxSent40","type":"uint256","indexed":false,"internalType":"uint256"},{"name":"adxSent10","type":"uint256","indexed":false,"internalType":"uint256"}],"anonymous":false},{"type":"event","name":"AdminshipTransferred","inputs":[{"name":"previousAdmin","type":"address","indexed":true,"internalType":"address"},{"name":"newAdmin","type":"address","indexed":true,"internalType":"address"}],"anonymous":false},{"type":"event","name":"Initialized","inputs":[{"name":"version","type":"uint64","indexed":false,"internalType":"uint64"}],"anonymous":false},{"type":"event","name":"MultiRecharge","inputs":[{"name":"user","type":"address","indexed":false,"internalType":"address"},{"name":"token0","type":"address","indexed":false,"internalType":"address"},{"name":"amount0","type":"uint256","indexed":false,"internalType":"uint256"},{"name":"token1","type":"address","indexed":false,"internalType":"address"},{"name":"amount1","type":"uint256","indexed":false,"internalType":"uint256"},{"name":"remark","type":"string","indexed":false,"internalType":"string"}],"anonymous":false},{"type":"event","name":"OwnershipTransferred","inputs":[{"name":"previousOwner","type":"address","indexed":true,"internalType":"address"},{"name":"newOwner","type":"address","indexed":true,"internalType":"address"}],"anonymous":false},{"type":"event","name":"Upgraded","inputs":[{"name":"implementation","type":"address","indexed":true,"internalType":"address"}],"anonymous":false},{"type":"event","name":"Withdraw","inputs":[{"name":"remark","type":"string","indexed":false,"internalType":"string"},{"name":"token","type":"address","indexed":false,"internalType":"address"},{"name":"to","type":"address","indexed":false,"internalType":"address"},{"name":"amount","type":"uint256","indexed":false,"internalType":"uint256"}],"anonymous":false},{"type":"error","name":"AddressEmptyCode","inputs":[{"name":"target","type":"address","internalType":"address"}]},{"type":"error","name":"ERC1967InvalidImplementation","inputs":[{"name":"implementation","type":"address","internalType":"address"}]},{"type":"error","name":"ERC1967NonPayable","inputs":[]},{"type":"error","name":"FailedCall","inputs":[]},{"type":"error","name":"InvalidInitialization","inputs":[]},{"type":"error","name":"NotInitializing","inputs":[]},{"type":"error","name":"OwnableInvalidOwner","inputs":[{"name":"owner","type":"address","internalType":"address"}]},{"type":"error","name":"OwnableUnauthorizedAccount","inputs":[{"name":"account","type":"address","internalType":"address"}]},{"type":"error","name":"ReentrancyGuardReentrantCall","inputs":[]},{"type":"error","name":"UUPSUnauthorizedCallContext","inputs":[]},{"type":"error","name":"UUPSUnsupportedProxiableUUID","inputs":[{"name":"slot","type":"bytes32","internalType":"bytes32"}]}],"bytecode":{"object":"0x60a06040523073ffffffffffffffffffffffffffffffffffffffff1660809073ffffffffffffffffffffffffffffffffffffffff1681525034801561004357600080fd5b506001600081905550608051614bde610075600039600081816120be0152818161211301526122ce0152614bde6000f3fe6080604052600436106101c65760003560e01c806382a63add116100f7578063b0a574f911610095578063de0d732711610064578063de0d7327146105cc578063ecdeb038146105f7578063f2fde38b14610622578063f851a4401461064b576101cd565b8063b0a574f914610533578063b280a7e71461054f578063c44fa24a14610578578063dcea0a64146105a1576101cd565b806392c2bcb4116100d157806392c2bcb4146104865780639f166cf1146104af578063aa7e7eb9146104ec578063ad3cb1cc14610508576101cd565b806382a63add146104075780638da5cb5b146104325780638f2839701461045d576101cd565b806352d1902d1161016457806367e404ce1161013e57806367e404ce14610380578063715018a6146103ab5780637298b64c146103c257806373abf0af146103eb576101cd565b806352d1902d1461030157806362a338111461032c57806366d003ac14610355576101cd565b806332fe7b26116101a057806332fe7b2614610253578063358764761461027e57806341976e09146102a75780634f1ef286146102e5576101cd565b80631cb737ac146101d25780632dd31000146101fd5780632de5ee8d14610228576101cd565b366101cd57005b600080fd5b3480156101de57600080fd5b506101e7610676565b6040516101f4919061352a565b60405180910390f35b34801561020957600080fd5b5061021261069c565b60405161021f919061352a565b60405180910390f35b34801561023457600080fd5b5061023d6106b4565b60405161024a919061352a565b60405180910390f35b34801561025f57600080fd5b506102686106da565b604051610275919061352a565b60405180910390f35b34801561028a57600080fd5b506102a560048036038101906102a09190613585565b6106f2565b005b3480156102b357600080fd5b506102ce60048036038101906102c99190613627565b610a55565b6040516102dc92919061366d565b60405180910390f35b6102ff60048036038101906102fa91906137dc565b610d39565b005b34801561030d57600080fd5b50610316610d58565b6040516103239190613851565b60405180910390f35b34801561033857600080fd5b50610353600480360381019061034e9190613939565b610d8b565b005b34801561036157600080fd5b5061036a610f13565b604051610377919061352a565b60405180910390f35b34801561038c57600080fd5b50610395610f39565b6040516103a2919061352a565b60405180910390f35b3480156103b757600080fd5b506103c0610f5f565b005b3480156103ce57600080fd5b506103e960048036038101906103e49190613627565b610f73565b005b61040560048036038101906104009190613a1c565b6110b6565b005b34801561041357600080fd5b5061041c6112e7565b604051610429919061352a565b60405180910390f35b34801561043e57600080fd5b5061044761130d565b604051610454919061352a565b60405180910390f35b34801561046957600080fd5b50610484600480360381019061047f9190613627565b611345565b005b34801561049257600080fd5b506104ad60048036038101906104a89190613627565b61147c565b005b3480156104bb57600080fd5b506104d660048036038101906104d19190613b0c565b6115bf565b6040516104e39190613c68565b60405180910390f35b61050660048036038101906105019190613c8a565b61185d565b005b34801561051457600080fd5b5061051d611a12565b60405161052a9190613d7d565b60405180910390f35b61054d60048036038101906105489190613c8a565b611a4b565b005b34801561055b57600080fd5b5061057660048036038101906105719190613627565b611c0d565b005b34801561058457600080fd5b5061059f600480360381019061059a9190613d9f565b611d50565b005b3480156105ad57600080fd5b506105b6611f8a565b6040516105c3919061352a565b60405180910390f35b3480156105d857600080fd5b506105e1611fa2565b6040516105ee919061352a565b60405180910390f35b34801561060357600080fd5b5061060c611fba565b604051610619919061352a565b60405180910390f35b34801561062e57600080fd5b5061064960048036038101906106449190613627565b611fe0565b005b34801561065757600080fd5b50610660612066565b60405161066d919061352a565b60405180910390f35b600660009054906101000a900473ffffffffffffffffffffffffffffffffffffffff1681565b73f7d6784b7c04bbd687599ff83227f7e4b12c024381565b600760009054906101000a900473ffffffffffffffffffffffffffffffffffffffff1681565b731f7cda03d18834c8328ca259abe57bf33c46647c81565b60006106fc61208c565b905060008160000160089054906101000a900460ff1615905060008260000160009054906101000a900467ffffffffffffffff1690506000808267ffffffffffffffff1614801561074a5750825b9050600060018367ffffffffffffffff1614801561077f575060003073ffffffffffffffffffffffffffffffffffffffff163b145b90508115801561078d575080155b156107c4576040517ff92ee8a900000000000000000000000000000000000000000000000000000000815260040160405180910390fd5b60018560000160006101000a81548167ffffffffffffffff021916908367ffffffffffffffff16021790555083156108145760018560000160086101000a81548160ff0219169083151502179055505b61082461081f6120a0565b6120a8565b8b600160006101000a81548173ffffffffffffffffffffffffffffffffffffffff021916908373ffffffffffffffffffffffffffffffffffffffff1602179055508a600260006101000a81548173ffffffffffffffffffffffffffffffffffffffff021916908373ffffffffffffffffffffffffffffffffffffffff16021790555089600360006101000a81548173ffffffffffffffffffffffffffffffffffffffff021916908373ffffffffffffffffffffffffffffffffffffffff16021790555088600460006101000a81548173ffffffffffffffffffffffffffffffffffffffff021916908373ffffffffffffffffffffffffffffffffffffffff16021790555087600560006101000a81548173ffffffffffffffffffffffffffffffffffffffff021916908373ffffffffffffffffffffffffffffffffffffffff16021790555086600660006101000a81548173ffffffffffffffffffffffffffffffffffffffff021916908373ffffffffffffffffffffffffffffffffffffffff16021790555085600760006101000a81548173ffffffffffffffffffffffffffffffffffffffff021916908373ffffffffffffffffffffffffffffffffffffffff1602179055508315610a475760008560000160086101000a81548160ff0219169083151502179055507fc7f505b2f371ae2175ee4913f4499e1f2633a7b5936321eed1cdaeb6115181d26001604051610a3e9190613e4b565b60405180910390a15b505050505050505050505050565b600080600073f7d6784b7c04bbd687599ff83227f7e4b12c024373ffffffffffffffffffffffffffffffffffffffff1663e6a43905857368a4d37635cdb55af61b8e58446949fb21f384e56040518363ffffffff1660e01b8152600401610abd929190613e66565b602060405180830381865afa158015610ada573d6000803e3d6000fd5b505050506040513d601f19601f82011682018060405250810190610afe9190613ea4565b90506000670de0b6b3a7640000905060008073ffffffffffffffffffffffffffffffffffffffff168373ffffffffffffffffffffffffffffffffffffffff1614610d29576000600267ffffffffffffffff811115610b5f57610b5e6136b1565b5b604051908082528060200260200182016040528015610b8d5781602001602082028036833780820191505090505b5090508681600081518110610ba557610ba4613ed1565b5b602002602001019073ffffffffffffffffffffffffffffffffffffffff16908173ffffffffffffffffffffffffffffffffffffffff16815250507368a4d37635cdb55af61b8e58446949fb21f384e581600181518110610c0857610c07613ed1565b5b602002602001019073ffffffffffffffffffffffffffffffffffffffff16908173ffffffffffffffffffffffffffffffffffffffff16815250506000731f7cda03d18834c8328ca259abe57bf33c46647c73ffffffffffffffffffffffffffffffffffffffff1663d06ca61f85846040518363ffffffff1660e01b8152600401610c93929190613faf565b600060405180830381865afa158015610cb0573d6000803e3d6000fd5b505050506040513d6000823e3d601f19601f82011682018060405250810190610cd991906140b7565b90508060018251610cea919061412f565b81518110610cfb57610cfa613ed1565b5b602002602001015192507368a4d37635cdb55af61b8e58446949fb21f384e583965096505050505050610d34565b600080945094505050505b915091565b610d416120bc565b610d4a826121a2565b610d5482826121ad565b5050565b6000610d626122cc565b7f360894a13ba1a3210667c828492db98dca3e2076cc3735a920a3ca505d382bbc60001b905090565b600160009054906101000a900473ffffffffffffffffffffffffffffffffffffffff1673ffffffffffffffffffffffffffffffffffffffff163373ffffffffffffffffffffffffffffffffffffffff1614610e1b576040517f08c379a0000000000000000000000000000000000000000000000000000000008152600401610e12906141af565b60405180910390fd5b60008211610e5e576040517f08c379a0000000000000000000000000000000000000000000000000000000008152600401610e559061421b565b60405180910390fd5b600073ffffffffffffffffffffffffffffffffffffffff168373ffffffffffffffffffffffffffffffffffffffff1614610ec557610ec083600360009054906101000a900473ffffffffffffffffffffffffffffffffffffffff168385612353565b610ed0565b610ecf818361248c565b5b7f99310eed5bb161586b62449f89ccaa4580f85f953cd64218092edfc2b1f5fce784848385604051610f05949392919061423b565b60405180910390a150505050565b600260009054906101000a900473ffffffffffffffffffffffffffffffffffffffff1681565b600360009054906101000a900473ffffffffffffffffffffffffffffffffffffffff1681565b610f6761258c565b610f716000612613565b565b600160009054906101000a900473ffffffffffffffffffffffffffffffffffffffff1673ffffffffffffffffffffffffffffffffffffffff163373ffffffffffffffffffffffffffffffffffffffff1614611003576040517f08c379a0000000000000000000000000000000000000000000000000000000008152600401610ffa906141af565b60405180910390fd5b600073ffffffffffffffffffffffffffffffffffffffff168173ffffffffffffffffffffffffffffffffffffffff1603611072576040517f08c379a0000000000000000000000000000000000000000000000000000000008152600401611069906142d3565b60405180910390fd5b80600760006101000a81548173ffffffffffffffffffffffffffffffffffffffff021916908373ffffffffffffffffffffffffffffffffffffffff16021790555050565b6110be6126ea565b60008511806110cd5750600083115b61110c576040517f08c379a00000000000000000000000000000000000000000000000000000000081526004016111039061433f565b60405180910390fd5b6000600267ffffffffffffffff811115611129576111286136b1565b5b6040519080825280602002602001820160405280156111575781602001602082028036833780820191505090505b5090506000600267ffffffffffffffff811115611177576111766136b1565b5b6040519080825280602002602001820160405280156111a55781602001602082028036833780820191505090505b50905087826000815181106111bd576111bc613ed1565b5b602002602001019073ffffffffffffffffffffffffffffffffffffffff16908173ffffffffffffffffffffffffffffffffffffffff1681525050868160008151811061120c5761120b613ed1565b5b602002602001018181525050858260018151811061122d5761122c613ed1565b5b602002602001019073ffffffffffffffffffffffffffffffffffffffff16908173ffffffffffffffffffffffffffffffffffffffff1681525050848160018151811061127c5761127b613ed1565b5b6020026020010181815250506112928282612730565b7f92bfe9b63523d7c8baff8387323dd4c1c8ccd48705d9c91e19160ebcabb053b8338989898989896040516112cd979695949392919061438c565b60405180910390a150506112df612c02565b505050505050565b600560009054906101000a900473ffffffffffffffffffffffffffffffffffffffff1681565b600080611318612c0c565b90508060000160009054906101000a900473ffffffffffffffffffffffffffffffffffffffff1691505090565b61134d61258c565b600073ffffffffffffffffffffffffffffffffffffffff168173ffffffffffffffffffffffffffffffffffffffff16036113bc576040517f08c379a00000000000000000000000000000000000000000000000000000000081526004016113b390614442565b60405180910390fd5b8073ffffffffffffffffffffffffffffffffffffffff16600160009054906101000a900473ffffffffffffffffffffffffffffffffffffffff1673ffffffffffffffffffffffffffffffffffffffff167f2931ebb3d190545dcf6801c37aa686b74f2e1000e753d0fac6e471a2aa5a621360405160405180910390a380600160006101000a81548173ffffffffffffffffffffffffffffffffffffffff021916908373ffffffffffffffffffffffffffffffffffffffff16021790555050565b600160009054906101000a900473ffffffffffffffffffffffffffffffffffffffff1673ffffffffffffffffffffffffffffffffffffffff163373ffffffffffffffffffffffffffffffffffffffff161461150c576040517f08c379a0000000000000000000000000000000000000000000000000000000008152600401611503906141af565b60405180910390fd5b600073ffffffffffffffffffffffffffffffffffffffff168173ffffffffffffffffffffffffffffffffffffffff160361157b576040517f08c379a000000000000000000000000000000000000000000000000000000000815260040161157290614442565b60405180910390fd5b80600260006101000a81548173ffffffffffffffffffffffffffffffffffffffff021916908373ffffffffffffffffffffffffffffffffffffffff16021790555050565b6060600083839050905060008167ffffffffffffffff8111156115e5576115e46136b1565b5b60405190808252806020026020018201604052801561161e57816020015b61160b6134b9565b8152602001906001900390816116035790505b509050600073ffffffffffffffffffffffffffffffffffffffff168673ffffffffffffffffffffffffffffffffffffffff16036117215760005b8281101561171b57604051806040016040528087878481811061167e5761167d613ed1565b5b90506020020160208101906116939190613627565b73ffffffffffffffffffffffffffffffffffffffff1681526020018787848181106116c1576116c0613ed1565b5b90506020020160208101906116d69190613627565b73ffffffffffffffffffffffffffffffffffffffff163181525082828151811061170357611702613ed1565b5b60200260200101819052508080600101915050611658565b50611851565b600086905060005b8381101561184e57604051806040016040528088888481811061174f5761174e613ed1565b5b90506020020160208101906117649190613627565b73ffffffffffffffffffffffffffffffffffffffff1681526020018373ffffffffffffffffffffffffffffffffffffffff166370a082318a8a868181106117ae576117ad613ed1565b5b90506020020160208101906117c39190613627565b6040518263ffffffff1660e01b81526004016117df919061352a565b602060405180830381865afa1580156117fc573d6000803e3d6000fd5b505050506040513d601f19601f820116820180604052508101906118209190614462565b81525083828151811061183657611835613ed1565b5b60200260200101819052508080600101915050611729565b50505b80925050509392505050565b6118656126ea565b600083116118a8576040517f08c379a000000000000000000000000000000000000000000000000000000000815260040161189f9061433f565b60405180910390fd5b6000600167ffffffffffffffff8111156118c5576118c46136b1565b5b6040519080825280602002602001820160405280156118f35781602001602082028036833780820191505090505b5090506000600167ffffffffffffffff811115611913576119126136b1565b5b6040519080825280602002602001820160405280156119415781602001602082028036833780820191505090505b509050858260008151811061195957611958613ed1565b5b602002602001019073ffffffffffffffffffffffffffffffffffffffff16908173ffffffffffffffffffffffffffffffffffffffff168152505084816000815181106119a8576119a7613ed1565b5b6020026020010181815250506119be8282612730565b7f92bfe9b63523d7c8baff8387323dd4c1c8ccd48705d9c91e19160ebcabb053b833878760008089896040516119fa97969594939291906144ca565b60405180910390a15050611a0c612c02565b50505050565b6040518060400160405280600581526020017f352e302e3000000000000000000000000000000000000000000000000000000081525081565b611a536126ea565b60008311611a96576040517f08c379a0000000000000000000000000000000000000000000000000000000008152600401611a8d9061433f565b60405180910390fd5b600073ffffffffffffffffffffffffffffffffffffffff168473ffffffffffffffffffffffffffffffffffffffff1603611b9a5782341015611b0d576040517f08c379a0000000000000000000000000000000000000000000000000000000008152600401611b0490614580565b60405180910390fd5b611b2b736ce2aebdc5bd15ea1fba0e234d1147433400d4d48461248c565b60008334611b39919061412f565b90506000811115611b4f57611b4e338261248c565b5b7f92bfe9b63523d7c8baff8387323dd4c1c8ccd48705d9c91e19160ebcabb053b8336000866000808888604051611b8c97969594939291906144ca565b60405180910390a150611bff565b611bba8433736ce2aebdc5bd15ea1fba0e234d1147433400d4d486612353565b7f92bfe9b63523d7c8baff8387323dd4c1c8ccd48705d9c91e19160ebcabb053b83385856000808787604051611bf697969594939291906144ca565b60405180910390a15b611c07612c02565b50505050565b600160009054906101000a900473ffffffffffffffffffffffffffffffffffffffff1673ffffffffffffffffffffffffffffffffffffffff163373ffffffffffffffffffffffffffffffffffffffff1614611c9d576040517f08c379a0000000000000000000000000000000000000000000000000000000008152600401611c94906141af565b60405180910390fd5b600073ffffffffffffffffffffffffffffffffffffffff168173ffffffffffffffffffffffffffffffffffffffff1603611d0c576040517f08c379a0000000000000000000000000000000000000000000000000000000008152600401611d0390614442565b60405180910390fd5b80600360006101000a81548173ffffffffffffffffffffffffffffffffffffffff021916908373ffffffffffffffffffffffffffffffffffffffff16021790555050565b600160009054906101000a900473ffffffffffffffffffffffffffffffffffffffff1673ffffffffffffffffffffffffffffffffffffffff163373ffffffffffffffffffffffffffffffffffffffff1614611de0576040517f08c379a0000000000000000000000000000000000000000000000000000000008152600401611dd7906141af565b60405180910390fd5b600073ffffffffffffffffffffffffffffffffffffffff168373ffffffffffffffffffffffffffffffffffffffff1614158015611e4a5750600073ffffffffffffffffffffffffffffffffffffffff168273ffffffffffffffffffffffffffffffffffffffff1614155b8015611e835750600073ffffffffffffffffffffffffffffffffffffffff168173ffffffffffffffffffffffffffffffffffffffff1614155b611ec2576040517f08c379a0000000000000000000000000000000000000000000000000000000008152600401611eb9906142d3565b60405180910390fd5b82600460006101000a81548173ffffffffffffffffffffffffffffffffffffffff021916908373ffffffffffffffffffffffffffffffffffffffff16021790555081600560006101000a81548173ffffffffffffffffffffffffffffffffffffffff021916908373ffffffffffffffffffffffffffffffffffffffff16021790555080600660006101000a81548173ffffffffffffffffffffffffffffffffffffffff021916908373ffffffffffffffffffffffffffffffffffffffff160217905550505050565b7368a4d37635cdb55af61b8e58446949fb21f384e581565b736ce2aebdc5bd15ea1fba0e234d1147433400d4d481565b600460009054906101000a900473ffffffffffffffffffffffffffffffffffffffff1681565b611fe861258c565b600073ffffffffffffffffffffffffffffffffffffffff168173ffffffffffffffffffffffffffffffffffffffff160361205a5760006040517f1e4fbdf7000000000000000000000000000000000000000000000000000000008152600401612051919061352a565b60405180910390fd5b61206381612613565b50565b600160009054906101000a900473ffffffffffffffffffffffffffffffffffffffff1681565b600080612097612c34565b90508091505090565b600033905090565b6120b0612c5f565b6120b981612c9f565b50565b7f000000000000000000000000000000000000000000000000000000000000000073ffffffffffffffffffffffffffffffffffffffff163073ffffffffffffffffffffffffffffffffffffffff16148061216957507f000000000000000000000000000000000000000000000000000000000000000073ffffffffffffffffffffffffffffffffffffffff16612150612d25565b73ffffffffffffffffffffffffffffffffffffffff1614155b156121a0576040517fe07c8dba00000000000000000000000000000000000000000000000000000000815260040160405180910390fd5b565b6121aa61258c565b50565b8173ffffffffffffffffffffffffffffffffffffffff166352d1902d6040518163ffffffff1660e01b8152600401602060405180830381865afa92505050801561221557506040513d601f19601f8201168201806040525081019061221291906145cc565b60015b61225657816040517f4c9c8ce300000000000000000000000000000000000000000000000000000000815260040161224d919061352a565b60405180910390fd5b7f360894a13ba1a3210667c828492db98dca3e2076cc3735a920a3ca505d382bbc60001b81146122bd57806040517faa1d49a40000000000000000000000000000000000000000000000000000000081526004016122b49190613851565b60405180910390fd5b6122c78383612d7c565b505050565b7f000000000000000000000000000000000000000000000000000000000000000073ffffffffffffffffffffffffffffffffffffffff163073ffffffffffffffffffffffffffffffffffffffff1614612351576040517fe07c8dba00000000000000000000000000000000000000000000000000000000815260040160405180910390fd5b565b6000808573ffffffffffffffffffffffffffffffffffffffff166323b872dd868686604051602401612387939291906145f9565b6040516020818303038152906040529060e01b6020820180517bffffffffffffffffffffffffffffffffffffffffffffffffffffffff83818316178352505050506040516123d59190614677565b6000604051808303816000865af19150503d8060008114612412576040519150601f19603f3d011682016040523d82523d6000602084013e612417565b606091505b5091509150818015612445575060008151148061244457508080602001905181019061244391906146c6565b5b5b612484576040517f08c379a000000000000000000000000000000000000000000000000000000000815260040161247b90614765565b60405180910390fd5b505050505050565b60008273ffffffffffffffffffffffffffffffffffffffff1682600067ffffffffffffffff8111156124c1576124c06136b1565b5b6040519080825280601f01601f1916602001820160405280156124f35781602001600182028036833780820191505090505b506040516125019190614677565b60006040518083038185875af1925050503d806000811461253e576040519150601f19603f3d011682016040523d82523d6000602084013e612543565b606091505b5050905080612587576040517f08c379a000000000000000000000000000000000000000000000000000000000815260040161257e906147f7565b60405180910390fd5b505050565b6125946120a0565b73ffffffffffffffffffffffffffffffffffffffff166125b261130d565b73ffffffffffffffffffffffffffffffffffffffff1614612611576125d56120a0565b6040517f118cdaa7000000000000000000000000000000000000000000000000000000008152600401612608919061352a565b60405180910390fd5b565b600061261d612c0c565b905060008160000160009054906101000a900473ffffffffffffffffffffffffffffffffffffffff169050828260000160006101000a81548173ffffffffffffffffffffffffffffffffffffffff021916908373ffffffffffffffffffffffffffffffffffffffff1602179055508273ffffffffffffffffffffffffffffffffffffffff168173ffffffffffffffffffffffffffffffffffffffff167f8be0079c531659141344cd1fd0a4f28419497f9722a3daafe3b4186f6b6457e060405160405180910390a3505050565b600260005403612726576040517f3ee5aeb500000000000000000000000000000000000000000000000000000000815260040160405180910390fd5b6002600081905550565b8051825114612774576040517f08c379a000000000000000000000000000000000000000000000000000000000815260040161276b90614863565b60405180910390fd5b60008060005b8451811015612b0e57600085828151811061279857612797613ed1565b5b6020026020010151905060008583815181106127b7576127b6613ed1565b5b60200260200101519050600081036127d0575050612b01565b600073ffffffffffffffffffffffffffffffffffffffff168273ffffffffffffffffffffffffffffffffffffffff160361281d5780856128109190614883565b9450600193505050612b01565b7368a4d37635cdb55af61b8e58446949fb21f384e573ffffffffffffffffffffffffffffffffffffffff168273ffffffffffffffffffffffffffffffffffffffff1603612acf5761287082333084612353565b600060028261287f91906148e6565b90506000818361288f919061412f565b905061289a82612def565b6000600760009054906101000a900473ffffffffffffffffffffffffffffffffffffffff1673ffffffffffffffffffffffffffffffffffffffff166370a08231306040518263ffffffff1660e01b81526004016128f7919061352a565b602060405180830381865afa158015612914573d6000803e3d6000fd5b505050506040513d601f19601f820116820180604052508101906129389190614462565b90506000811161297d576040517f08c379a000000000000000000000000000000000000000000000000000000000815260040161297490614963565b60405180910390fd5b60008111156129d6576129d5600760009054906101000a900473ffffffffffffffffffffffffffffffffffffffff16600460009054906101000a900473ffffffffffffffffffffffffffffffffffffffff1683612fdc565b5b600060326028846129e79190614983565b6129f191906148e6565b905060008184612a01919061412f565b90506000821115612a3a57612a3987600560009054906101000a900473ffffffffffffffffffffffffffffffffffffffff1684612fdc565b5b6000811115612a7157612a7087600660009054906101000a900473ffffffffffffffffffffffffffffffffffffffff1683612fdc565b5b3373ffffffffffffffffffffffffffffffffffffffff167fa6d2837601bb6d25376ec506775821523480eae7583c7f46c81bda876861653887858585604051612abd94939291906149c5565b60405180910390a25050505050612afe565b612afd8233600260009054906101000a900473ffffffffffffffffffffffffffffffffffffffff1684612353565b5b50505b808060010191505061277a565b508015612bb85781341015612b58576040517f08c379a0000000000000000000000000000000000000000000000000000000008152600401612b4f90614580565b60405180910390fd5b6000821115612b8e57612b8d600260009054906101000a900473ffffffffffffffffffffffffffffffffffffffff168361248c565b5b60008234612b9c919061412f565b90506000811115612bb257612bb1338261248c565b5b50612bfc565b60003414612bfb576040517f08c379a0000000000000000000000000000000000000000000000000000000008152600401612bf290614a56565b60405180910390fd5b5b50505050565b6001600081905550565b60007f9016d09d72d40fdae2fd8ceac6b6234c7706214fd39c1cd1e609a0528c199300905090565b60007ff0c57e16840df040f15088dc2f81fe391c3923bec73e23a9662efc9c229c6a0060001b905090565b612c67613112565b612c9d576040517fd7e6bcf800000000000000000000000000000000000000000000000000000000815260040160405180910390fd5b565b612ca7612c5f565b600073ffffffffffffffffffffffffffffffffffffffff168173ffffffffffffffffffffffffffffffffffffffff1603612d195760006040517f1e4fbdf7000000000000000000000000000000000000000000000000000000008152600401612d10919061352a565b60405180910390fd5b612d2281612613565b50565b6000612d537f360894a13ba1a3210667c828492db98dca3e2076cc3735a920a3ca505d382bbc60001b613132565b60000160009054906101000a900473ffffffffffffffffffffffffffffffffffffffff16905090565b612d858261313c565b8173ffffffffffffffffffffffffffffffffffffffff167fbc7cd75a20ee27fd9adebab32041f755214dbc6bffa90cc0225b39da2e5c2d3b60405160405180910390a2600081511115612de257612ddc8282613209565b50612deb565b612dea6132fe565b5b5050565b6000600267ffffffffffffffff811115612e0c57612e0b6136b1565b5b604051908082528060200260200182016040528015612e3a5781602001602082028036833780820191505090505b5090507368a4d37635cdb55af61b8e58446949fb21f384e581600081518110612e6657612e65613ed1565b5b602002602001019073ffffffffffffffffffffffffffffffffffffffff16908173ffffffffffffffffffffffffffffffffffffffff1681525050600760009054906101000a900473ffffffffffffffffffffffffffffffffffffffff1681600181518110612ed757612ed6613ed1565b5b602002602001019073ffffffffffffffffffffffffffffffffffffffff16908173ffffffffffffffffffffffffffffffffffffffff1681525050612f447368a4d37635cdb55af61b8e58446949fb21f384e5731f7cda03d18834c8328ca259abe57bf33c46647c8461333b565b731f7cda03d18834c8328ca259abe57bf33c46647c73ffffffffffffffffffffffffffffffffffffffff16635c11d7958360008430600a42612f869190614883565b6040518663ffffffff1660e01b8152600401612fa6959493929190614a76565b600060405180830381600087803b158015612fc057600080fd5b505af1158015612fd4573d6000803e3d6000fd5b505050505050565b6000808473ffffffffffffffffffffffffffffffffffffffff1663a9059cbb858560405160240161300e92919061366d565b6040516020818303038152906040529060e01b6020820180517bffffffffffffffffffffffffffffffffffffffffffffffffffffffff838183161783525050505060405161305c9190614677565b6000604051808303816000865af19150503d8060008114613099576040519150601f19603f3d011682016040523d82523d6000602084013e61309e565b606091505b50915091508180156130cc57506000815114806130cb5750808060200190518101906130ca91906146c6565b5b5b61310b576040517f08c379a000000000000000000000000000000000000000000000000000000000815260040161310290614b1c565b60405180910390fd5b5050505050565b600061311c61208c565b60000160089054906101000a900460ff16905090565b6000819050919050565b60008173ffffffffffffffffffffffffffffffffffffffff163b0361319857806040517f4c9c8ce300000000000000000000000000000000000000000000000000000000815260040161318f919061352a565b60405180910390fd5b806131c57f360894a13ba1a3210667c828492db98dca3e2076cc3735a920a3ca505d382bbc60001b613132565b60000160006101000a81548173ffffffffffffffffffffffffffffffffffffffff021916908373ffffffffffffffffffffffffffffffffffffffff16021790555050565b606060006132178484613471565b905080801561324f5750600061322b613487565b118061324e575060008473ffffffffffffffffffffffffffffffffffffffff163b115b5b156132645761325c61348f565b9150506132f8565b80156132a757836040517f9996b31500000000000000000000000000000000000000000000000000000000815260040161329e919061352a565b60405180910390fd5b60006132b1613487565b11156132c4576132bf6134ad565b6132f6565b6040517fd6bda27500000000000000000000000000000000000000000000000000000000815260040160405180910390fd5b505b92915050565b6000341115613339576040517fb398979f00000000000000000000000000000000000000000000000000000000815260040160405180910390fd5b565b6000808473ffffffffffffffffffffffffffffffffffffffff1663095ea7b3858560405160240161336d92919061366d565b6040516020818303038152906040529060e01b6020820180517bffffffffffffffffffffffffffffffffffffffffffffffffffffffff83818316178352505050506040516133bb9190614677565b6000604051808303816000865af19150503d80600081146133f8576040519150601f19603f3d011682016040523d82523d6000602084013e6133fd565b606091505b509150915081801561342b575060008151148061342a57508080602001905181019061342991906146c6565b5b5b61346a576040517f08c379a000000000000000000000000000000000000000000000000000000000815260040161346190614b88565b60405180910390fd5b5050505050565b6000806000835160208501865af4905092915050565b60003d905090565b606060405190503d81523d6000602083013e3d602001810160405290565b6040513d6000823e3d81fd5b6040518060400160405280600073ffffffffffffffffffffffffffffffffffffffff168152602001600081525090565b600073ffffffffffffffffffffffffffffffffffffffff82169050919050565b6000613514826134e9565b9050919050565b61352481613509565b82525050565b600060208201905061353f600083018461351b565b92915050565b6000604051905090565b600080fd5b600080fd5b61356281613509565b811461356d57600080fd5b50565b60008135905061357f81613559565b92915050565b600080600080600080600060e0888a0312156135a4576135a361354f565b5b60006135b28a828b01613570565b97505060206135c38a828b01613570565b96505060406135d48a828b01613570565b95505060606135e58a828b01613570565b94505060806135f68a828b01613570565b93505060a06136078a828b01613570565b92505060c06136188a828b01613570565b91505092959891949750929550565b60006020828403121561363d5761363c61354f565b5b600061364b84828501613570565b91505092915050565b6000819050919050565b61366781613654565b82525050565b6000604082019050613682600083018561351b565b61368f602083018461365e565b9392505050565b600080fd5b600080fd5b6000601f19601f8301169050919050565b7f4e487b7100000000000000000000000000000000000000000000000000000000600052604160045260246000fd5b6136e9826136a0565b810181811067ffffffffffffffff82111715613708576137076136b1565b5b80604052505050565b600061371b613545565b905061372782826136e0565b919050565b600067ffffffffffffffff821115613747576137466136b1565b5b613750826136a0565b9050602081019050919050565b82818337600083830152505050565b600061377f61377a8461372c565b613711565b90508281526020810184848401111561379b5761379a61369b565b5b6137a684828561375d565b509392505050565b600082601f8301126137c3576137c2613696565b5b81356137d384826020860161376c565b91505092915050565b600080604083850312156137f3576137f261354f565b5b600061380185828601613570565b925050602083013567ffffffffffffffff81111561382257613821613554565b5b61382e858286016137ae565b9150509250929050565b6000819050919050565b61384b81613838565b82525050565b60006020820190506138666000830184613842565b92915050565b600067ffffffffffffffff821115613887576138866136b1565b5b613890826136a0565b9050602081019050919050565b60006138b06138ab8461386c565b613711565b9050828152602081018484840111156138cc576138cb61369b565b5b6138d784828561375d565b509392505050565b600082601f8301126138f4576138f3613696565b5b813561390484826020860161389d565b91505092915050565b61391681613654565b811461392157600080fd5b50565b6000813590506139338161390d565b92915050565b600080600080608085870312156139535761395261354f565b5b600085013567ffffffffffffffff81111561397157613970613554565b5b61397d878288016138df565b945050602061398e87828801613570565b935050604061399f87828801613924565b92505060606139b087828801613570565b91505092959194509250565b600080fd5b600080fd5b60008083601f8401126139dc576139db613696565b5b8235905067ffffffffffffffff8111156139f9576139f86139bc565b5b602083019150836001820283011115613a1557613a146139c1565b5b9250929050565b60008060008060008060a08789031215613a3957613a3861354f565b5b6000613a4789828a01613570565b9650506020613a5889828a01613924565b9550506040613a6989828a01613570565b9450506060613a7a89828a01613924565b935050608087013567ffffffffffffffff811115613a9b57613a9a613554565b5b613aa789828a016139c6565b92509250509295509295509295565b60008083601f840112613acc57613acb613696565b5b8235905067ffffffffffffffff811115613ae957613ae86139bc565b5b602083019150836020820283011115613b0557613b046139c1565b5b9250929050565b600080600060408486031215613b2557613b2461354f565b5b6000613b3386828701613570565b935050602084013567ffffffffffffffff811115613b5457613b53613554565b5b613b6086828701613ab6565b92509250509250925092565b600081519050919050565b600082825260208201905092915050565b6000819050602082019050919050565b613ba181613509565b82525050565b613bb081613654565b82525050565b604082016000820151613bcc6000850182613b98565b506020820151613bdf6020850182613ba7565b50505050565b6000613bf18383613bb6565b60408301905092915050565b6000602082019050919050565b6000613c1582613b6c565b613c1f8185613b77565b9350613c2a83613b88565b8060005b83811015613c5b578151613c428882613be5565b9750613c4d83613bfd565b925050600181019050613c2e565b5085935050505092915050565b60006020820190508181036000830152613c828184613c0a565b905092915050565b60008060008060608587031215613ca457613ca361354f565b5b6000613cb287828801613570565b9450506020613cc387828801613924565b935050604085013567ffffffffffffffff811115613ce457613ce3613554565b5b613cf0878288016139c6565b925092505092959194509250565b600081519050919050565b600082825260208201905092915050565b60005b83811015613d38578082015181840152602081019050613d1d565b60008484015250505050565b6000613d4f82613cfe565b613d598185613d09565b9350613d69818560208601613d1a565b613d72816136a0565b840191505092915050565b60006020820190508181036000830152613d978184613d44565b905092915050565b600080600060608486031215613db857613db761354f565b5b6000613dc686828701613570565b9350506020613dd786828701613570565b9250506040613de886828701613570565b9150509250925092565b6000819050919050565b600067ffffffffffffffff82169050919050565b6000819050919050565b6000613e35613e30613e2b84613df2565b613e10565b613dfc565b9050919050565b613e4581613e1a565b82525050565b6000602082019050613e606000830184613e3c565b92915050565b6000604082019050613e7b600083018561351b565b613e88602083018461351b565b9392505050565b600081519050613e9e81613559565b92915050565b600060208284031215613eba57613eb961354f565b5b6000613ec884828501613e8f565b91505092915050565b7f4e487b7100000000000000000000000000000000000000000000000000000000600052603260045260246000fd5b600081519050919050565b600082825260208201905092915050565b6000819050602082019050919050565b6000613f388383613b98565b60208301905092915050565b6000602082019050919050565b6000613f5c82613f00565b613f668185613f0b565b9350613f7183613f1c565b8060005b83811015613fa2578151613f898882613f2c565b9750613f9483613f44565b925050600181019050613f75565b5085935050505092915050565b6000604082019050613fc4600083018561365e565b8181036020830152613fd68184613f51565b90509392505050565b600067ffffffffffffffff821115613ffa57613ff96136b1565b5b602082029050602081019050919050565b60008151905061401a8161390d565b92915050565b600061403361402e84613fdf565b613711565b90508083825260208201905060208402830185811115614056576140556139c1565b5b835b8181101561407f578061406b888261400b565b845260208401935050602081019050614058565b5050509392505050565b600082601f83011261409e5761409d613696565b5b81516140ae848260208601614020565b91505092915050565b6000602082840312156140cd576140cc61354f565b5b600082015167ffffffffffffffff8111156140eb576140ea613554565b5b6140f784828501614089565b91505092915050565b7f4e487b7100000000000000000000000000000000000000000000000000000000600052601160045260246000fd5b600061413a82613654565b915061414583613654565b925082820390508181111561415d5761415c614100565b5b92915050565b7f4552524f525f41444d494e2e0000000000000000000000000000000000000000600082015250565b6000614199600c83613d09565b91506141a482614163565b602082019050919050565b600060208201905081810360008301526141c88161418c565b9050919050565b7f4552524f525f414d4f554e542e00000000000000000000000000000000000000600082015250565b6000614205600d83613d09565b9150614210826141cf565b602082019050919050565b60006020820190508181036000830152614234816141f8565b9050919050565b600060808201905081810360008301526142558187613d44565b9050614264602083018661351b565b614271604083018561351b565b61427e606083018461365e565b95945050505050565b7f5a45524f5f414444524553530000000000000000000000000000000000000000600082015250565b60006142bd600c83613d09565b91506142c882614287565b602082019050919050565b600060208201905081810360008301526142ec816142b0565b9050919050565b7f4552524f525f414d4f554e540000000000000000000000000000000000000000600082015250565b6000614329600c83613d09565b9150614334826142f3565b602082019050919050565b600060208201905081810360008301526143588161431c565b9050919050565b600061436b8385613d09565b935061437883858461375d565b614381836136a0565b840190509392505050565b600060c0820190506143a1600083018a61351b565b6143ae602083018961351b565b6143bb604083018861365e565b6143c8606083018761351b565b6143d5608083018661365e565b81810360a08301526143e881848661435f565b905098975050505050505050565b7f5a45524f5f414444524553532e00000000000000000000000000000000000000600082015250565b600061442c600d83613d09565b9150614437826143f6565b602082019050919050565b6000602082019050818103600083015261445b8161441f565b9050919050565b6000602082840312156144785761447761354f565b5b60006144868482850161400b565b91505092915050565b6000819050919050565b60006144b46144af6144aa8461448f565b613e10565b613654565b9050919050565b6144c481614499565b82525050565b600060c0820190506144df600083018a61351b565b6144ec602083018961351b565b6144f9604083018861365e565b614506606083018761351b565b61451360808301866144bb565b81810360a083015261452681848661435f565b905098975050505050505050565b7f4552524f525f50415941424c455f414d4f554e54000000000000000000000000600082015250565b600061456a601483613d09565b915061457582614534565b602082019050919050565b600060208201905081810360008301526145998161455d565b9050919050565b6145a981613838565b81146145b457600080fd5b50565b6000815190506145c6816145a0565b92915050565b6000602082840312156145e2576145e161354f565b5b60006145f0848285016145b7565b91505092915050565b600060608201905061460e600083018661351b565b61461b602083018561351b565b614628604083018461365e565b949350505050565b600081519050919050565b600081905092915050565b600061465182614630565b61465b818561463b565b935061466b818560208601613d1a565b80840191505092915050565b60006146838284614646565b915081905092915050565b60008115159050919050565b6146a38161468e565b81146146ae57600080fd5b50565b6000815190506146c08161469a565b92915050565b6000602082840312156146dc576146db61354f565b5b60006146ea848285016146b1565b91505092915050565b7f5472616e7366657248656c7065723a205452414e534645525f46524f4d5f464160008201527f494c454400000000000000000000000000000000000000000000000000000000602082015250565b600061474f602483613d09565b915061475a826146f3565b604082019050919050565b6000602082019050818103600083015261477e81614742565b9050919050565b7f5472616e7366657248656c7065723a204554485f5452414e534645525f46414960008201527f4c45440000000000000000000000000000000000000000000000000000000000602082015250565b60006147e1602383613d09565b91506147ec82614785565b604082019050919050565b60006020820190508181036000830152614810816147d4565b9050919050565b7f4d49534d415443485f4c454e4754480000000000000000000000000000000000600082015250565b600061484d600f83613d09565b915061485882614817565b602082019050919050565b6000602082019050818103600083015261487c81614840565b9050919050565b600061488e82613654565b915061489983613654565b92508282019050808211156148b1576148b0614100565b5b92915050565b7f4e487b7100000000000000000000000000000000000000000000000000000000600052601260045260246000fd5b60006148f182613654565b91506148fc83613654565b92508261490c5761490b6148b7565b5b828204905092915050565b7f535741505f4e4f5f4f5554505554000000000000000000000000000000000000600082015250565b600061494d600e83613d09565b915061495882614917565b602082019050919050565b6000602082019050818103600083015261497c81614940565b9050919050565b600061498e82613654565b915061499983613654565b92508282026149a781613654565b915082820484148315176149be576149bd614100565b5b5092915050565b60006080820190506149da600083018761365e565b6149e7602083018661365e565b6149f4604083018561365e565b614a01606083018461365e565b95945050505050565b7f4e4f5f4554485f52455155495245440000000000000000000000000000000000600082015250565b6000614a40600f83613d09565b9150614a4b82614a0a565b602082019050919050565b60006020820190508181036000830152614a6f81614a33565b9050919050565b600060a082019050614a8b600083018861365e565b614a9860208301876144bb565b8181036040830152614aaa8186613f51565b9050614ab9606083018561351b565b614ac6608083018461365e565b9695505050505050565b7f5472616e7366657248656c7065723a205452414e534645525f4641494c454400600082015250565b6000614b06601f83613d09565b9150614b1182614ad0565b602082019050919050565b60006020820190508181036000830152614b3581614af9565b9050919050565b7f5472616e7366657248656c7065723a20415050524f56455f4641494c45440000600082015250565b6000614b72601e83613d09565b9150614b7d82614b3c565b602082019050919050565b60006020820190508181036000830152614ba181614b65565b905091905056fea2646970667358221220d38e2281c54e355ab8a29741be189daa7543e3118cbcb549384303afbf79bfa464736f6c63430008160033","linkReferences":{}},"methodIdentifiers":{"ADX()":"dcea0a64","FACTORY()":"2dd31000","ROUTER()":"32fe7b26","UPGRADE_INTERFACE_VERSION()":"ad3cb1cc","admin()":"f851a440","changeAdmin(address)":"8f283970","changeRecipient(address)":"92c2bcb4","changeSender(address)":"b280a7e7","getPrice(address)":"41976e09","initialize(address,address,address,address,address,address,address)":"35876476","multiBalanceOf(address,address[])":"9f166cf1","multiRecharge(address,uint256,address,uint256,string)":"73abf0af","owner()":"8da5cb5b","percent10()":"1cb737ac","percent100()":"de0d7327","percent40()":"82a63add","percent50()":"ecdeb038","proxiableUUID()":"52d1902d","recipient()":"66d003ac","renounceOwnership()":"715018a6","sender()":"67e404ce","setPercents(address,address,address)":"c44fa24a","setX101(address)":"7298b64c","singleRecharge(address,uint256,string)":"aa7e7eb9","singleRechargePercent100(address,uint256,string)":"b0a574f9","transferOwnership(address)":"f2fde38b","upgradeToAndCall(address,bytes)":"4f1ef286","withdraw(string,address,uint256,address)":"62a33811","x101()":"2de5ee8d"},"id":46}