{
	"src/Subscribe.sol": {
		"Subscribe": {
			"abi": [
				{
					"inputs": [
						{
							"internalType": "address",
							"name": "target",
							"type": "address"
						}
					],
					"name": "AddressEmptyCode",
					"type": "error"
				},
				{
					"inputs": [
						{
							"internalType": "address",
							"name": "implementation",
							"type": "address"
						}
					],
					"name": "ERC1967InvalidImplementation",
					"type": "error"
				},
				{
					"inputs": [],
					"name": "ERC1967NonPayable",
					"type": "error"
				},
				{
					"inputs": [],
					"name": "FailedCall",
					"type": "error"
				},
				{
					"inputs": [],
					"name": "InvalidInitialization",
					"type": "error"
				},
				{
					"inputs": [],
					"name": "NotInitializing",
					"type": "error"
				},
				{
					"inputs": [
						{
							"internalType": "address",
							"name": "owner",
							"type": "address"
						}
					],
					"name": "OwnableInvalidOwner",
					"type": "error"
				},
				{
					"inputs": [
						{
							"internalType": "address",
							"name": "account",
							"type": "address"
						}
					],
					"name": "OwnableUnauthorizedAccount",
					"type": "error"
				},
				{
					"inputs": [],
					"name": "ReentrancyGuardReentrantCall",
					"type": "error"
				},
				{
					"inputs": [],
					"name": "UUPSUnauthorizedCallContext",
					"type": "error"
				},
				{
					"inputs": [
						{
							"internalType": "bytes32",
							"name": "slot",
							"type": "bytes32"
						}
					],
					"name": "UUPSUnsupportedProxiableUUID",
					"type": "error"
				},
				{
					"anonymous": false,
					"inputs": [
						{
							"indexed": false,
							"internalType": "uint64",
							"name": "version",
							"type": "uint64"
						}
					],
					"name": "Initialized",
					"type": "event"
				},
				{
					"anonymous": false,
					"inputs": [
						{
							"indexed": true,
							"internalType": "address",
							"name": "previousOwner",
							"type": "address"
						},
						{
							"indexed": true,
							"internalType": "address",
							"name": "newOwner",
							"type": "address"
						}
					],
					"name": "OwnershipTransferred",
					"type": "event"
				},
				{
					"anonymous": false,
					"inputs": [
						{
							"indexed": true,
							"internalType": "address",
							"name": "user",
							"type": "address"
						},
						{
							"indexed": false,
							"internalType": "uint256",
							"name": "amount",
							"type": "uint256"
						},
						{
							"indexed": false,
							"internalType": "uint256",
							"name": "time",
							"type": "uint256"
						}
					],
					"name": "Subscribed",
					"type": "event"
				},
				{
					"anonymous": false,
					"inputs": [
						{
							"indexed": true,
							"internalType": "address",
							"name": "implementation",
							"type": "address"
						}
					],
					"name": "Upgraded",
					"type": "event"
				},
				{
					"inputs": [],
					"name": "ADVANCED",
					"outputs": [
						{
							"internalType": "uint256",
							"name": "",
							"type": "uint256"
						}
					],
					"stateMutability": "view",
					"type": "function"
				},
				{
					"inputs": [],
					"name": "BASIC",
					"outputs": [
						{
							"internalType": "uint256",
							"name": "",
							"type": "uint256"
						}
					],
					"stateMutability": "view",
					"type": "function"
				},
				{
					"inputs": [],
					"name": "ELITE",
					"outputs": [
						{
							"internalType": "uint256",
							"name": "",
							"type": "uint256"
						}
					],
					"stateMutability": "view",
					"type": "function"
				},
				{
					"inputs": [],
					"name": "UPGRADE_INTERFACE_VERSION",
					"outputs": [
						{
							"internalType": "string",
							"name": "",
							"type": "string"
						}
					],
					"stateMutability": "view",
					"type": "function"
				},
				{
					"inputs": [],
					"name": "USDT",
					"outputs": [
						{
							"internalType": "address",
							"name": "",
							"type": "address"
						}
					],
					"stateMutability": "view",
					"type": "function"
				},
				{
					"inputs": [
						{
							"internalType": "uint256",
							"name": "",
							"type": "uint256"
						}
					],
					"name": "advancedUsers",
					"outputs": [
						{
							"internalType": "address",
							"name": "",
							"type": "address"
						}
					],
					"stateMutability": "view",
					"type": "function"
				},
				{
					"inputs": [
						{
							"internalType": "uint256",
							"name": "",
							"type": "uint256"
						}
					],
					"name": "basicUsers",
					"outputs": [
						{
							"internalType": "address",
							"name": "",
							"type": "address"
						}
					],
					"stateMutability": "view",
					"type": "function"
				},
				{
					"inputs": [
						{
							"internalType": "uint256",
							"name": "",
							"type": "uint256"
						}
					],
					"name": "eliteUsers",
					"outputs": [
						{
							"internalType": "address",
							"name": "",
							"type": "address"
						}
					],
					"stateMutability": "view",
					"type": "function"
				},
				{
					"inputs": [],
					"name": "getAdvancedUsers",
					"outputs": [
						{
							"internalType": "address[]",
							"name": "",
							"type": "address[]"
						}
					],
					"stateMutability": "view",
					"type": "function"
				},
				{
					"inputs": [],
					"name": "getAllUsersLength",
					"outputs": [
						{
							"internalType": "uint256",
							"name": "basic",
							"type": "uint256"
						},
						{
							"internalType": "uint256",
							"name": "advanced",
							"type": "uint256"
						},
						{
							"internalType": "uint256",
							"name": "elite",
							"type": "uint256"
						}
					],
					"stateMutability": "view",
					"type": "function"
				},
				{
					"inputs": [],
					"name": "getBasicUsers",
					"outputs": [
						{
							"internalType": "address[]",
							"name": "",
							"type": "address[]"
						}
					],
					"stateMutability": "view",
					"type": "function"
				},
				{
					"inputs": [],
					"name": "getEliteUsers",
					"outputs": [
						{
							"internalType": "address[]",
							"name": "",
							"type": "address[]"
						}
					],
					"stateMutability": "view",
					"type": "function"
				},
				{
					"inputs": [],
					"name": "getSubscribeInfo",
					"outputs": [
						{
							"internalType": "uint256",
							"name": "length",
							"type": "uint256"
						},
						{
							"internalType": "uint256",
							"name": "totalAmount",
							"type": "uint256"
						}
					],
					"stateMutability": "view",
					"type": "function"
				},
				{
					"inputs": [
						{
							"internalType": "uint8",
							"name": "level",
							"type": "uint8"
						},
						{
							"internalType": "uint256",
							"name": "start",
							"type": "uint256"
						},
						{
							"internalType": "uint256",
							"name": "count",
							"type": "uint256"
						}
					],
					"name": "getUsersPage",
					"outputs": [
						{
							"internalType": "address[]",
							"name": "users",
							"type": "address[]"
						}
					],
					"stateMutability": "view",
					"type": "function"
				},
				{
					"inputs": [
						{
							"internalType": "address",
							"name": "_recipient",
							"type": "address"
						}
					],
					"name": "initialize",
					"outputs": [],
					"stateMutability": "nonpayable",
					"type": "function"
				},
				{
					"inputs": [],
					"name": "owner",
					"outputs": [
						{
							"internalType": "address",
							"name": "",
							"type": "address"
						}
					],
					"stateMutability": "view",
					"type": "function"
				},
				{
					"inputs": [],
					"name": "proxiableUUID",
					"outputs": [
						{
							"internalType": "bytes32",
							"name": "",
							"type": "bytes32"
						}
					],
					"stateMutability": "view",
					"type": "function"
				},
				{
					"inputs": [],
					"name": "recipient",
					"outputs": [
						{
							"internalType": "address",
							"name": "",
							"type": "address"
						}
					],
					"stateMutability": "view",
					"type": "function"
				},
				{
					"inputs": [],
					"name": "renounceOwnership",
					"outputs": [],
					"stateMutability": "nonpayable",
					"type": "function"
				},
				{
					"inputs": [
						{
							"internalType": "uint256",
							"name": "_basic",
							"type": "uint256"
						},
						{
							"internalType": "uint256",
							"name": "_advanced",
							"type": "uint256"
						},
						{
							"internalType": "uint256",
							"name": "_elite",
							"type": "uint256"
						}
					],
					"name": "setLevelsLimit",
					"outputs": [],
					"stateMutability": "nonpayable",
					"type": "function"
				},
				{
					"inputs": [
						{
							"internalType": "address",
							"name": "_recipient",
							"type": "address"
						}
					],
					"name": "setRecipient",
					"outputs": [],
					"stateMutability": "nonpayable",
					"type": "function"
				},
				{
					"inputs": [
						{
							"internalType": "uint256",
							"name": "amount",
							"type": "uint256"
						}
					],
					"name": "subscribe",
					"outputs": [],
					"stateMutability": "nonpayable",
					"type": "function"
				},
				{
					"inputs": [
						{
							"internalType": "address",
							"name": "newOwner",
							"type": "address"
						}
					],
					"name": "transferOwnership",
					"outputs": [],
					"stateMutability": "nonpayable",
					"type": "function"
				},
				{
					"inputs": [
						{
							"internalType": "address",
							"name": "newImplementation",
							"type": "address"
						},
						{
							"internalType": "bytes",
							"name": "data",
							"type": "bytes"
						}
					],
					"name": "upgradeToAndCall",
					"outputs": [],
					"stateMutability": "payable",
					"type": "function"
				},
				{
					"inputs": [
						{
							"internalType": "address",
							"name": "",
							"type": "address"
						}
					],
					"name": "userInfo",
					"outputs": [
						{
							"internalType": "uint256",
							"name": "subscribeAmount",
							"type": "uint256"
						},
						{
							"internalType": "uint256",
							"name": "subscribeTime",
							"type": "uint256"
						},
						{
							"internalType": "bool",
							"name": "subscribed",
							"type": "bool"
						}
					],
					"stateMutability": "view",
					"type": "function"
				},
				{
					"stateMutability": "payable",
					"type": "receive"
				}
			],
			"devdoc": {
				"errors": {
					"AddressEmptyCode(address)": [
						{
							"details": "There's no code at `target` (it is not a contract)."
						}
					],
					"ERC1967InvalidImplementation(address)": [
						{
							"details": "The `implementation` of the proxy is invalid."
						}
					],
					"ERC1967NonPayable()": [
						{
							"details": "An upgrade function sees `msg.value > 0` that may be lost."
						}
					],
					"FailedCall()": [
						{
							"details": "A call to an address target failed. The target may have reverted."
						}
					],
					"InvalidInitialization()": [
						{
							"details": "The contract is already initialized."
						}
					],
					"NotInitializing()": [
						{
							"details": "The contract is not initializing."
						}
					],
					"OwnableInvalidOwner(address)": [
						{
							"details": "The owner is not a valid owner account. (eg. `address(0)`)"
						}
					],
					"OwnableUnauthorizedAccount(address)": [
						{
							"details": "The caller account is not authorized to perform an operation."
						}
					],
					"ReentrancyGuardReentrantCall()": [
						{
							"details": "Unauthorized reentrant call."
						}
					],
					"UUPSUnauthorizedCallContext()": [
						{
							"details": "The call is from an unauthorized context."
						}
					],
					"UUPSUnsupportedProxiableUUID(bytes32)": [
						{
							"details": "The storage `slot` is unsupported as a UUID."
						}
					]
				},
				"events": {
					"Initialized(uint64)": {
						"details": "Triggered when the contract has been initialized or reinitialized."
					},
					"Upgraded(address)": {
						"details": "Emitted when the implementation is upgraded."
					}
				},
				"kind": "dev",
				"methods": {
					"getUsersPage(uint8,uint256,uint256)": {
						"params": {
							"count": "获取数量",
							"level": "0 = BASIC, 1 = ADVANCED, 2 = ELITE",
							"start": "起始索引"
						}
					},
					"owner()": {
						"details": "Returns the address of the current owner."
					},
					"proxiableUUID()": {
						"details": "Implementation of the ERC-1822 {proxiableUUID} function. This returns the storage slot used by the implementation. It is used to validate the implementation's compatibility when performing an upgrade. IMPORTANT: A proxy pointing at a proxiable contract should not be considered proxiable itself, because this risks bricking a proxy that upgrades to it, by delegating to itself until out of gas. Thus it is critical that this function revert if invoked through a proxy. This is guaranteed by the `notDelegated` modifier."
					},
					"renounceOwnership()": {
						"details": "Leaves the contract without owner. It will not be possible to call `onlyOwner` functions. Can only be called by the current owner. NOTE: Renouncing ownership will leave the contract without an owner, thereby disabling any functionality that is only available to the owner."
					},
					"transferOwnership(address)": {
						"details": "Transfers ownership of the contract to a new account (`newOwner`). Can only be called by the current owner."
					},
					"upgradeToAndCall(address,bytes)": {
						"custom:oz-upgrades-unsafe-allow-reachable": "delegatecall",
						"details": "Upgrade the implementation of the proxy to `newImplementation`, and subsequently execute the function call encoded in `data`. Calls {_authorizeUpgrade}. Emits an {Upgraded} event."
					}
				},
				"version": 1
			},
			"evm": {
				"assembly": "    /* \"src/Subscribe.sol\":552:4689  contract Subscribe is Initializable, OwnableUpgradeable, UUPSUpgradeable, ReentrancyGuard {... */\n  mstore(0x40, 0xa0)\n    /* \"@openzeppelin/contracts-upgradeable/proxy/utils/UUPSUpgradeable.sol\":1171:1175  this */\n  address\n    /* \"@openzeppelin/contracts-upgradeable/proxy/utils/UUPSUpgradeable.sol\":1128:1176  address private immutable __self = address(this) */\n  0xffffffffffffffffffffffffffffffffffffffff\n  and\n  0x80\n  swap1\n  0xffffffffffffffffffffffffffffffffffffffff\n  and\n  dup2\n  mstore\n  pop\n    /* \"src/Subscribe.sol\":932:936  1e18 */\n  0x0de0b6b3a7640000\n    /* \"src/Subscribe.sol\":908:936  uint256 public  BASIC = 1e18 */\n  0x02\n  sstore\n    /* \"src/Subscribe.sol\":969:973  2e18 */\n  0x1bc16d674ec80000\n    /* \"src/Subscribe.sol\":942:973  uint256 public  ADVANCED = 2e18 */\n  0x03\n  sstore\n    /* \"src/Subscribe.sol\":1003:1007  3e18 */\n  0x29a2241af62c0000\n    /* \"src/Subscribe.sol\":979:1007  uint256 public  ELITE = 3e18 */\n  0x04\n  sstore\n    /* \"src/Subscribe.sol\":552:4689  contract Subscribe is Initializable, OwnableUpgradeable, UUPSUpgradeable, ReentrancyGuard {... */\n  callvalue\n  dup1\n  iszero\n  tag_1\n  jumpi\n  0x00\n  dup1\n  revert\ntag_1:\n  pop\n    /* \"src/ReentrancyGuard.sol\":1857:1858  1 */\n  0x01\n    /* \"src/ReentrancyGuard.sol\":2061:2068  _status */\n  0x00\n    /* \"src/ReentrancyGuard.sol\":2061:2082  _status = NOT_ENTERED */\n  dup2\n  swap1\n  sstore\n  pop\n    /* \"src/Subscribe.sol\":552:4689  contract Subscribe is Initializable, OwnableUpgradeable, UUPSUpgradeable, ReentrancyGuard {... */\n  mload(0x80)\n  codecopy(0x00, dataOffset(sub_0), dataSize(sub_0))\n  0x00\n  assignImmutable(\"0x4ce4dab4689da140a0c12de1a6af6b8f679594aeb723205f513e052d27f5b26f\")\n  return(0x00, dataSize(sub_0))\nstop\n\nsub_0: assembly {\n        /* \"src/Subscribe.sol\":552:4689  contract Subscribe is Initializable, OwnableUpgradeable, UUPSUpgradeable, ReentrancyGuard {... */\n      mstore(0x40, 0x80)\n      jumpi(tag_1, lt(calldatasize, 0x04))\n      shr(0xe0, calldataload(0x00))\n      dup1\n      0x664637fc\n      gt\n      tag_28\n      jumpi\n      dup1\n      0xa652c53f\n      gt\n      tag_29\n      jumpi\n      dup1\n      0xb00b968b\n      gt\n      tag_30\n      jumpi\n      dup1\n      0xb00b968b\n      eq\n      tag_24\n      jumpi\n      dup1\n      0xc4d66de8\n      eq\n      tag_25\n      jumpi\n      dup1\n      0xc54e44eb\n      eq\n      tag_26\n      jumpi\n      dup1\n      0xf2fde38b\n      eq\n      tag_27\n      jumpi\n      jump(tag_2)\n    tag_30:\n      dup1\n      0xa652c53f\n      eq\n      tag_21\n      jumpi\n      dup1\n      0xa9625dfe\n      eq\n      tag_22\n      jumpi\n      dup1\n      0xad3cb1cc\n      eq\n      tag_23\n      jumpi\n      jump(tag_2)\n    tag_29:\n      dup1\n      0x664637fc\n      eq\n      tag_15\n      jumpi\n      dup1\n      0x66d003ac\n      eq\n      tag_16\n      jumpi\n      dup1\n      0x715018a6\n      eq\n      tag_17\n      jumpi\n      dup1\n      0x8da5cb5b\n      eq\n      tag_18\n      jumpi\n      dup1\n      0x91d02b0f\n      eq\n      tag_19\n      jumpi\n      dup1\n      0x9aa3acf2\n      eq\n      tag_20\n      jumpi\n      jump(tag_2)\n    tag_28:\n      dup1\n      0x209630a8\n      gt\n      tag_31\n      jumpi\n      dup1\n      0x209630a8\n      eq\n      tag_9\n      jumpi\n      dup1\n      0x384d57b5\n      eq\n      tag_10\n      jumpi\n      dup1\n      0x3bbed4a0\n      eq\n      tag_11\n      jumpi\n      dup1\n      0x4f1ef286\n      eq\n      tag_12\n      jumpi\n      dup1\n      0x52d1902d\n      eq\n      tag_13\n      jumpi\n      dup1\n      0x57cc2537\n      eq\n      tag_14\n      jumpi\n      jump(tag_2)\n    tag_31:\n      dup1\n      0x065a187c\n      eq\n      tag_3\n      jumpi\n      dup1\n      0x07b7e83e\n      eq\n      tag_4\n      jumpi\n      dup1\n      0x0f574ba7\n      eq\n      tag_5\n      jumpi\n      dup1\n      0x10bce099\n      eq\n      tag_6\n      jumpi\n      dup1\n      0x14b4ee3b\n      eq\n      tag_7\n      jumpi\n      dup1\n      0x1959a002\n      eq\n      tag_8\n      jumpi\n      jump(tag_2)\n    tag_1:\n      jumpi(tag_2, calldatasize)\n      stop\n    tag_2:\n      0x00\n      dup1\n      revert\n        /* \"src/Subscribe.sol\":1193:1220  address[] public basicUsers */\n    tag_3:\n      callvalue\n      dup1\n      iszero\n      tag_34\n      jumpi\n      0x00\n      dup1\n      revert\n    tag_34:\n      pop\n      tag_35\n      0x04\n      dup1\n      calldatasize\n      sub\n      dup2\n      add\n      swap1\n      tag_36\n      swap2\n      swap1\n      tag_37\n      jump\t// in\n    tag_36:\n      tag_38\n      jump\t// in\n    tag_35:\n      mload(0x40)\n      tag_39\n      swap2\n      swap1\n      tag_40\n      jump\t// in\n    tag_39:\n      mload(0x40)\n      dup1\n      swap2\n      sub\n      swap1\n      return\n        /* \"src/Subscribe.sol\":3103:3203  function getBasicUsers() external view returns (address[] memory) {... */\n    tag_4:\n      callvalue\n      dup1\n      iszero\n      tag_41\n      jumpi\n      0x00\n      dup1\n      revert\n    tag_41:\n      pop\n      tag_42\n      tag_43\n      jump\t// in\n    tag_42:\n      mload(0x40)\n      tag_44\n      swap2\n      swap1\n      tag_45\n      jump\t// in\n    tag_44:\n      mload(0x40)\n      dup1\n      swap2\n      sub\n      swap1\n      return\n        /* \"src/Subscribe.sol\":2301:3093  function subscribe(uint256 amount) external nonReentrant {... */\n    tag_5:\n      callvalue\n      dup1\n      iszero\n      tag_46\n      jumpi\n      0x00\n      dup1\n      revert\n    tag_46:\n      pop\n      tag_47\n      0x04\n      dup1\n      calldatasize\n      sub\n      dup2\n      add\n      swap1\n      tag_48\n      swap2\n      swap1\n      tag_37\n      jump\t// in\n    tag_48:\n      tag_49\n      jump\t// in\n    tag_47:\n      stop\n        /* \"src/Subscribe.sol\":3209:3315  function getAdvancedUsers() external view returns (address[] memory) {... */\n    tag_6:\n      callvalue\n      dup1\n      iszero\n      tag_50\n      jumpi\n      0x00\n      dup1\n      revert\n    tag_50:\n      pop\n      tag_51\n      tag_52\n      jump\t// in\n    tag_51:\n      mload(0x40)\n      tag_53\n      swap2\n      swap1\n      tag_45\n      jump\t// in\n    tag_53:\n      mload(0x40)\n      dup1\n      swap2\n      sub\n      swap1\n      return\n        /* \"src/Subscribe.sol\":4477:4687  function getSubscribeInfo() external view returns(uint256 length, uint256 totalAmount){... */\n    tag_7:\n      callvalue\n      dup1\n      iszero\n      tag_54\n      jumpi\n      0x00\n      dup1\n      revert\n    tag_54:\n      pop\n      tag_55\n      tag_56\n      jump\t// in\n    tag_55:\n      mload(0x40)\n      tag_57\n      swap3\n      swap2\n      swap1\n      tag_58\n      jump\t// in\n    tag_57:\n      mload(0x40)\n      dup1\n      swap2\n      sub\n      swap1\n      return\n        /* \"src/Subscribe.sol\":1146:1186  mapping(address => User) public userInfo */\n    tag_8:\n      callvalue\n      dup1\n      iszero\n      tag_59\n      jumpi\n      0x00\n      dup1\n      revert\n    tag_59:\n      pop\n      tag_60\n      0x04\n      dup1\n      calldatasize\n      sub\n      dup2\n      add\n      swap1\n      tag_61\n      swap2\n      swap1\n      tag_62\n      jump\t// in\n    tag_61:\n      tag_63\n      jump\t// in\n    tag_60:\n      mload(0x40)\n      tag_64\n      swap4\n      swap3\n      swap2\n      swap1\n      tag_65\n      jump\t// in\n    tag_64:\n      mload(0x40)\n      dup1\n      swap2\n      sub\n      swap1\n      return\n        /* \"src/Subscribe.sol\":3832:4471  function getUsersPage(uint8 level, uint256 start, uint256 count) external view returns (address[] memory users) {... */\n    tag_9:\n      callvalue\n      dup1\n      iszero\n      tag_66\n      jumpi\n      0x00\n      dup1\n      revert\n    tag_66:\n      pop\n      tag_67\n      0x04\n      dup1\n      calldatasize\n      sub\n      dup2\n      add\n      swap1\n      tag_68\n      swap2\n      swap1\n      tag_69\n      jump\t// in\n    tag_68:\n      tag_70\n      jump\t// in\n    tag_67:\n      mload(0x40)\n      tag_71\n      swap2\n      swap1\n      tag_45\n      jump\t// in\n    tag_71:\n      mload(0x40)\n      dup1\n      swap2\n      sub\n      swap1\n      return\n        /* \"src/Subscribe.sol\":908:936  uint256 public  BASIC = 1e18 */\n    tag_10:\n      callvalue\n      dup1\n      iszero\n      tag_72\n      jumpi\n      0x00\n      dup1\n      revert\n    tag_72:\n      pop\n      tag_73\n      tag_74\n      jump\t// in\n    tag_73:\n      mload(0x40)\n      tag_75\n      swap2\n      swap1\n      tag_76\n      jump\t// in\n    tag_75:\n      mload(0x40)\n      dup1\n      swap2\n      sub\n      swap1\n      return\n        /* \"src/Subscribe.sol\":1927:2026  function setRecipient(address _recipient) external onlyOwner{... */\n    tag_11:\n      callvalue\n      dup1\n      iszero\n      tag_77\n      jumpi\n      0x00\n      dup1\n      revert\n    tag_77:\n      pop\n      tag_78\n      0x04\n      dup1\n      calldatasize\n      sub\n      dup2\n      add\n      swap1\n      tag_79\n      swap2\n      swap1\n      tag_62\n      jump\t// in\n    tag_79:\n      tag_80\n      jump\t// in\n    tag_78:\n      stop\n        /* \"@openzeppelin/contracts-upgradeable/proxy/utils/UUPSUpgradeable.sol\":4161:4375  function upgradeToAndCall(address newImplementation, bytes memory data) public payable virtual onlyProxy {... */\n    tag_12:\n      tag_81\n      0x04\n      dup1\n      calldatasize\n      sub\n      dup2\n      add\n      swap1\n      tag_82\n      swap2\n      swap1\n      tag_83\n      jump\t// in\n    tag_82:\n      tag_84\n      jump\t// in\n    tag_81:\n      stop\n        /* \"@openzeppelin/contracts-upgradeable/proxy/utils/UUPSUpgradeable.sol\":3708:3842  function proxiableUUID() external view virtual notDelegated returns (bytes32) {... */\n    tag_13:\n      callvalue\n      dup1\n      iszero\n      tag_85\n      jumpi\n      0x00\n      dup1\n      revert\n    tag_85:\n      pop\n      tag_86\n      tag_87\n      jump\t// in\n    tag_86:\n      mload(0x40)\n      tag_88\n      swap2\n      swap1\n      tag_89\n      jump\t// in\n    tag_88:\n      mload(0x40)\n      dup1\n      swap2\n      sub\n      swap1\n      return\n        /* \"src/Subscribe.sol\":3321:3421  function getEliteUsers() external view returns (address[] memory) {... */\n    tag_14:\n      callvalue\n      dup1\n      iszero\n      tag_90\n      jumpi\n      0x00\n      dup1\n      revert\n    tag_90:\n      pop\n      tag_91\n      tag_92\n      jump\t// in\n    tag_91:\n      mload(0x40)\n      tag_93\n      swap2\n      swap1\n      tag_45\n      jump\t// in\n    tag_93:\n      mload(0x40)\n      dup1\n      swap2\n      sub\n      swap1\n      return\n        /* \"src/Subscribe.sol\":979:1007  uint256 public  ELITE = 3e18 */\n    tag_15:\n      callvalue\n      dup1\n      iszero\n      tag_94\n      jumpi\n      0x00\n      dup1\n      revert\n    tag_94:\n      pop\n      tag_95\n      tag_96\n      jump\t// in\n    tag_95:\n      mload(0x40)\n      tag_97\n      swap2\n      swap1\n      tag_76\n      jump\t// in\n    tag_97:\n      mload(0x40)\n      dup1\n      swap2\n      sub\n      swap1\n      return\n        /* \"src/Subscribe.sol\":728:752  address public recipient */\n    tag_16:\n      callvalue\n      dup1\n      iszero\n      tag_98\n      jumpi\n      0x00\n      dup1\n      revert\n    tag_98:\n      pop\n      tag_99\n      tag_100\n      jump\t// in\n    tag_99:\n      mload(0x40)\n      tag_101\n      swap2\n      swap1\n      tag_40\n      jump\t// in\n    tag_101:\n      mload(0x40)\n      dup1\n      swap2\n      sub\n      swap1\n      return\n        /* \"@openzeppelin/contracts-upgradeable/access/OwnableUpgradeable.sol\":3155:3256  function renounceOwnership() public virtual onlyOwner {... */\n    tag_17:\n      callvalue\n      dup1\n      iszero\n      tag_102\n      jumpi\n      0x00\n      dup1\n      revert\n    tag_102:\n      pop\n      tag_103\n      tag_104\n      jump\t// in\n    tag_103:\n      stop\n        /* \"@openzeppelin/contracts-upgradeable/access/OwnableUpgradeable.sol\":2441:2585  function owner() public view virtual returns (address) {... */\n    tag_18:\n      callvalue\n      dup1\n      iszero\n      tag_105\n      jumpi\n      0x00\n      dup1\n      revert\n    tag_105:\n      pop\n      tag_106\n      tag_107\n      jump\t// in\n    tag_106:\n      mload(0x40)\n      tag_108\n      swap2\n      swap1\n      tag_40\n      jump\t// in\n    tag_108:\n      mload(0x40)\n      dup1\n      swap2\n      sub\n      swap1\n      return\n        /* \"src/Subscribe.sol\":1238:1268  address[] public advancedUsers */\n    tag_19:\n      callvalue\n      dup1\n      iszero\n      tag_109\n      jumpi\n      0x00\n      dup1\n      revert\n    tag_109:\n      pop\n      tag_110\n      0x04\n      dup1\n      calldatasize\n      sub\n      dup2\n      add\n      swap1\n      tag_111\n      swap2\n      swap1\n      tag_37\n      jump\t// in\n    tag_111:\n      tag_112\n      jump\t// in\n    tag_110:\n      mload(0x40)\n      tag_113\n      swap2\n      swap1\n      tag_40\n      jump\t// in\n    tag_113:\n      mload(0x40)\n      dup1\n      swap2\n      sub\n      swap1\n      return\n        /* \"src/Subscribe.sol\":942:973  uint256 public  ADVANCED = 2e18 */\n    tag_20:\n      callvalue\n      dup1\n      iszero\n      tag_114\n      jumpi\n      0x00\n      dup1\n      revert\n    tag_114:\n      pop\n      tag_115\n      tag_116\n      jump\t// in\n    tag_115:\n      mload(0x40)\n      tag_117\n      swap2\n      swap1\n      tag_76\n      jump\t// in\n    tag_117:\n      mload(0x40)\n      dup1\n      swap2\n      sub\n      swap1\n      return\n        /* \"src/Subscribe.sol\":1286:1313  address[] public eliteUsers */\n    tag_21:\n      callvalue\n      dup1\n      iszero\n      tag_118\n      jumpi\n      0x00\n      dup1\n      revert\n    tag_118:\n      pop\n      tag_119\n      0x04\n      dup1\n      calldatasize\n      sub\n      dup2\n      add\n      swap1\n      tag_120\n      swap2\n      swap1\n      tag_37\n      jump\t// in\n    tag_120:\n      tag_121\n      jump\t// in\n    tag_119:\n      mload(0x40)\n      tag_122\n      swap2\n      swap1\n      tag_40\n      jump\t// in\n    tag_122:\n      mload(0x40)\n      dup1\n      swap2\n      sub\n      swap1\n      return\n        /* \"src/Subscribe.sol\":2032:2295  function setLevelsLimit(uint256 _basic, uint256 _advanced, uint256 _elite) external onlyOwner {... */\n    tag_22:\n      callvalue\n      dup1\n      iszero\n      tag_123\n      jumpi\n      0x00\n      dup1\n      revert\n    tag_123:\n      pop\n      tag_124\n      0x04\n      dup1\n      calldatasize\n      sub\n      dup2\n      add\n      swap1\n      tag_125\n      swap2\n      swap1\n      tag_126\n      jump\t// in\n    tag_125:\n      tag_127\n      jump\t// in\n    tag_124:\n      stop\n        /* \"@openzeppelin/contracts-upgradeable/proxy/utils/UUPSUpgradeable.sol\":1819:1877  string public constant UPGRADE_INTERFACE_VERSION = \"5.0.0\" */\n    tag_23:\n      callvalue\n      dup1\n      iszero\n      tag_128\n      jumpi\n      0x00\n      dup1\n      revert\n    tag_128:\n      pop\n      tag_129\n      tag_130\n      jump\t// in\n    tag_129:\n      mload(0x40)\n      tag_131\n      swap2\n      swap1\n      tag_132\n      jump\t// in\n    tag_131:\n      mload(0x40)\n      dup1\n      swap2\n      sub\n      swap1\n      return\n        /* \"src/Subscribe.sol\":3427:3645  function getAllUsersLength() external view returns (uint256 basic, uint256 advanced, uint256 elite) {... */\n    tag_24:\n      callvalue\n      dup1\n      iszero\n      tag_133\n      jumpi\n      0x00\n      dup1\n      revert\n    tag_133:\n      pop\n      tag_134\n      tag_135\n      jump\t// in\n    tag_134:\n      mload(0x40)\n      tag_136\n      swap4\n      swap3\n      swap2\n      swap1\n      tag_137\n      jump\t// in\n    tag_136:\n      mload(0x40)\n      dup1\n      swap2\n      sub\n      swap1\n      return\n        /* \"src/Subscribe.sol\":1504:1771  function initialize(address _recipient) public initializer {... */\n    tag_25:\n      callvalue\n      dup1\n      iszero\n      tag_138\n      jumpi\n      0x00\n      dup1\n      revert\n    tag_138:\n      pop\n      tag_139\n      0x04\n      dup1\n      calldatasize\n      sub\n      dup2\n      add\n      swap1\n      tag_140\n      swap2\n      swap1\n      tag_62\n      jump\t// in\n    tag_140:\n      tag_141\n      jump\t// in\n    tag_139:\n      stop\n        /* \"src/Subscribe.sol\":648:721  address public constant USDT = 0x55d398326f99059fF775485246999027B3197955 */\n    tag_26:\n      callvalue\n      dup1\n      iszero\n      tag_142\n      jumpi\n      0x00\n      dup1\n      revert\n    tag_142:\n      pop\n      tag_143\n      tag_144\n      jump\t// in\n    tag_143:\n      mload(0x40)\n      tag_145\n      swap2\n      swap1\n      tag_40\n      jump\t// in\n    tag_145:\n      mload(0x40)\n      dup1\n      swap2\n      sub\n      swap1\n      return\n        /* \"@openzeppelin/contracts-upgradeable/access/OwnableUpgradeable.sol\":3405:3620  function transferOwnership(address newOwner) public virtual onlyOwner {... */\n    tag_27:\n      callvalue\n      dup1\n      iszero\n      tag_146\n      jumpi\n      0x00\n      dup1\n      revert\n    tag_146:\n      pop\n      tag_147\n      0x04\n      dup1\n      calldatasize\n      sub\n      dup2\n      add\n      swap1\n      tag_148\n      swap2\n      swap1\n      tag_62\n      jump\t// in\n    tag_148:\n      tag_149\n      jump\t// in\n    tag_147:\n      stop\n        /* \"src/Subscribe.sol\":1193:1220  address[] public basicUsers */\n    tag_38:\n      0x06\n      dup2\n      dup2\n      sload\n      dup2\n      lt\n      tag_150\n      jumpi\n      0x00\n      dup1\n      revert\n    tag_150:\n      swap1\n      0x00\n      mstore\n      keccak256(0x00, 0x20)\n      add\n      0x00\n      swap2\n      pop\n      sload\n      swap1\n      0x0100\n      exp\n      swap1\n      div\n      0xffffffffffffffffffffffffffffffffffffffff\n      and\n      dup2\n      jump\t// out\n        /* \"src/Subscribe.sol\":3103:3203  function getBasicUsers() external view returns (address[] memory) {... */\n    tag_43:\n        /* \"src/Subscribe.sol\":3151:3167  address[] memory */\n      0x60\n        /* \"src/Subscribe.sol\":3186:3196  basicUsers */\n      0x06\n        /* \"src/Subscribe.sol\":3179:3196  return basicUsers */\n      dup1\n      sload\n      dup1\n      0x20\n      mul\n      0x20\n      add\n      mload(0x40)\n      swap1\n      dup2\n      add\n      0x40\n      mstore\n      dup1\n      swap3\n      swap2\n      swap1\n      dup2\n      dup2\n      mstore\n      0x20\n      add\n      dup3\n      dup1\n      sload\n      dup1\n      iszero\n      tag_153\n      jumpi\n      0x20\n      mul\n      dup3\n      add\n      swap2\n      swap1\n      0x00\n      mstore\n      keccak256(0x00, 0x20)\n      swap1\n    tag_154:\n      dup2\n      0x00\n      swap1\n      sload\n      swap1\n      0x0100\n      exp\n      swap1\n      div\n      0xffffffffffffffffffffffffffffffffffffffff\n      and\n      0xffffffffffffffffffffffffffffffffffffffff\n      and\n      dup2\n      mstore\n      0x20\n      add\n      swap1\n      0x01\n      add\n      swap1\n      dup1\n      dup4\n      gt\n      tag_154\n      jumpi\n    tag_153:\n      pop\n      pop\n      pop\n      pop\n      pop\n      swap1\n      pop\n        /* \"src/Subscribe.sol\":3103:3203  function getBasicUsers() external view returns (address[] memory) {... */\n      swap1\n      jump\t// out\n        /* \"src/Subscribe.sol\":2301:3093  function subscribe(uint256 amount) external nonReentrant {... */\n    tag_49:\n        /* \"src/ReentrancyGuard.sol\":2500:2521  _nonReentrantBefore() */\n      tag_156\n        /* \"src/ReentrancyGuard.sol\":2500:2519  _nonReentrantBefore */\n      tag_157\n        /* \"src/ReentrancyGuard.sol\":2500:2521  _nonReentrantBefore() */\n      jump\t// in\n    tag_156:\n        /* \"src/Subscribe.sol\":2399:2404  BASIC */\n      sload(0x02)\n        /* \"src/Subscribe.sol\":2389:2395  amount */\n      dup2\n        /* \"src/Subscribe.sol\":2389:2404  amount == BASIC */\n      eq\n        /* \"src/Subscribe.sol\":2389:2426  amount == BASIC || amount == ADVANCED */\n      dup1\n      tag_159\n      jumpi\n      pop\n        /* \"src/Subscribe.sol\":2418:2426  ADVANCED */\n      sload(0x03)\n        /* \"src/Subscribe.sol\":2408:2414  amount */\n      dup2\n        /* \"src/Subscribe.sol\":2408:2426  amount == ADVANCED */\n      eq\n        /* \"src/Subscribe.sol\":2389:2426  amount == BASIC || amount == ADVANCED */\n    tag_159:\n        /* \"src/Subscribe.sol\":2389:2445  amount == BASIC || amount == ADVANCED || amount == ELITE */\n      dup1\n      tag_160\n      jumpi\n      pop\n        /* \"src/Subscribe.sol\":2440:2445  ELITE */\n      sload(0x04)\n        /* \"src/Subscribe.sol\":2430:2436  amount */\n      dup2\n        /* \"src/Subscribe.sol\":2430:2445  amount == ELITE */\n      eq\n        /* \"src/Subscribe.sol\":2389:2445  amount == BASIC || amount == ADVANCED || amount == ELITE */\n    tag_160:\n        /* \"src/Subscribe.sol\":2368:2498  require(... */\n      tag_161\n      jumpi\n      mload(0x40)\n      0x08c379a000000000000000000000000000000000000000000000000000000000\n      dup2\n      mstore\n      0x04\n      add\n      tag_162\n      swap1\n      tag_163\n      jump\t// in\n    tag_162:\n      mload(0x40)\n      dup1\n      swap2\n      sub\n      swap1\n      revert\n    tag_161:\n        /* \"src/Subscribe.sol\":2517:2525  userInfo */\n      0x05\n        /* \"src/Subscribe.sol\":2517:2537  userInfo[msg.sender] */\n      0x00\n        /* \"src/Subscribe.sol\":2526:2536  msg.sender */\n      caller\n        /* \"src/Subscribe.sol\":2517:2537  userInfo[msg.sender] */\n      0xffffffffffffffffffffffffffffffffffffffff\n      and\n      0xffffffffffffffffffffffffffffffffffffffff\n      and\n      dup2\n      mstore\n      0x20\n      add\n      swap1\n      dup2\n      mstore\n      0x20\n      add\n      0x00\n      keccak256\n        /* \"src/Subscribe.sol\":2517:2548  userInfo[msg.sender].subscribed */\n      0x02\n      add\n      0x00\n      swap1\n      sload\n      swap1\n      0x0100\n      exp\n      swap1\n      div\n      0xff\n      and\n        /* \"src/Subscribe.sol\":2516:2548  !userInfo[msg.sender].subscribed */\n      iszero\n        /* \"src/Subscribe.sol\":2508:2571  require(!userInfo[msg.sender].subscribed, \"Already subscribed\") */\n      tag_164\n      jumpi\n      mload(0x40)\n      0x08c379a000000000000000000000000000000000000000000000000000000000\n      dup2\n      mstore\n      0x04\n      add\n      tag_165\n      swap1\n      tag_166\n      jump\t// in\n    tag_165:\n      mload(0x40)\n      dup1\n      swap2\n      sub\n      swap1\n      revert\n    tag_164:\n        /* \"src/Subscribe.sol\":2582:2650  TransferHelper.safeTransferFrom(USDT, msg.sender, recipient, amount) */\n      tag_167\n        /* \"src/Subscribe.sol\":679:721  0x55d398326f99059fF775485246999027B3197955 */\n      0x55d398326f99059ff775485246999027b3197955\n        /* \"src/Subscribe.sol\":2620:2630  msg.sender */\n      caller\n        /* \"src/Subscribe.sol\":2632:2641  recipient */\n      0x01\n      0x00\n      swap1\n      sload\n      swap1\n      0x0100\n      exp\n      swap1\n      div\n      0xffffffffffffffffffffffffffffffffffffffff\n      and\n        /* \"src/Subscribe.sol\":2643:2649  amount */\n      dup5\n        /* \"src/Subscribe.sol\":2582:2613  TransferHelper.safeTransferFrom */\n      tag_168\n        /* \"src/Subscribe.sol\":2582:2650  TransferHelper.safeTransferFrom(USDT, msg.sender, recipient, amount) */\n      jump\t// in\n    tag_167:\n        /* \"src/Subscribe.sol\":2684:2811  User({... */\n      mload(0x40)\n      dup1\n      0x60\n      add\n      0x40\n      mstore\n      dup1\n        /* \"src/Subscribe.sol\":2720:2726  amount */\n      dup3\n        /* \"src/Subscribe.sol\":2684:2811  User({... */\n      dup2\n      mstore\n      0x20\n      add\n        /* \"src/Subscribe.sol\":2755:2770  block.timestamp */\n      timestamp\n        /* \"src/Subscribe.sol\":2684:2811  User({... */\n      dup2\n      mstore\n      0x20\n      add\n        /* \"src/Subscribe.sol\":2796:2800  true */\n      0x01\n        /* \"src/Subscribe.sol\":2684:2811  User({... */\n      iszero\n      iszero\n      dup2\n      mstore\n      pop\n        /* \"src/Subscribe.sol\":2661:2669  userInfo */\n      0x05\n        /* \"src/Subscribe.sol\":2661:2681  userInfo[msg.sender] */\n      0x00\n        /* \"src/Subscribe.sol\":2670:2680  msg.sender */\n      caller\n        /* \"src/Subscribe.sol\":2661:2681  userInfo[msg.sender] */\n      0xffffffffffffffffffffffffffffffffffffffff\n      and\n      0xffffffffffffffffffffffffffffffffffffffff\n      and\n      dup2\n      mstore\n      0x20\n      add\n      swap1\n      dup2\n      mstore\n      0x20\n      add\n      0x00\n      keccak256\n        /* \"src/Subscribe.sol\":2661:2811  userInfo[msg.sender] = User({... */\n      0x00\n      dup3\n      add\n      mload\n      dup2\n      0x00\n      add\n      sstore\n      0x20\n      dup3\n      add\n      mload\n      dup2\n      0x01\n      add\n      sstore\n      0x40\n      dup3\n      add\n      mload\n      dup2\n      0x02\n      add\n      exp(0x0100, 0x00)\n      dup2\n      sload\n      dup2\n      0xff\n      mul\n      not\n      and\n      swap1\n      dup4\n      iszero\n      iszero\n      mul\n      or\n      swap1\n      sstore\n      pop\n      swap1\n      pop\n      pop\n        /* \"src/Subscribe.sol\":2839:2845  amount */\n      dup1\n        /* \"src/Subscribe.sol\":2821:2835  totalSubscribe */\n      0x09\n      0x00\n        /* \"src/Subscribe.sol\":2821:2845  totalSubscribe += amount */\n      dup3\n      dup3\n      sload\n      tag_169\n      swap2\n      swap1\n      tag_170\n      jump\t// in\n    tag_169:\n      swap3\n      pop\n      pop\n      dup2\n      swap1\n      sstore\n      pop\n        /* \"src/Subscribe.sol\":2869:2874  BASIC */\n      sload(0x02)\n        /* \"src/Subscribe.sol\":2859:2865  amount */\n      dup2\n        /* \"src/Subscribe.sol\":2859:2874  amount == BASIC */\n      sub\n        /* \"src/Subscribe.sol\":2855:3014  if (amount == BASIC) basicUsers.push(msg.sender);... */\n      tag_171\n      jumpi\n        /* \"src/Subscribe.sol\":2876:2886  basicUsers */\n      0x06\n        /* \"src/Subscribe.sol\":2892:2902  msg.sender */\n      caller\n        /* \"src/Subscribe.sol\":2876:2903  basicUsers.push(msg.sender) */\n      swap1\n      dup1\n      0x01\n      dup2\n      sload\n      add\n      dup1\n      dup3\n      sstore\n      dup1\n      swap2\n      pop\n      pop\n      0x01\n      swap1\n      sub\n      swap1\n      0x00\n      mstore\n      keccak256(0x00, 0x20)\n      add\n      0x00\n      swap1\n      swap2\n      swap1\n      swap2\n      swap1\n      swap2\n      0x0100\n      exp\n      dup2\n      sload\n      dup2\n      0xffffffffffffffffffffffffffffffffffffffff\n      mul\n      not\n      and\n      swap1\n      dup4\n      0xffffffffffffffffffffffffffffffffffffffff\n      and\n      mul\n      or\n      swap1\n      sstore\n      pop\n        /* \"src/Subscribe.sol\":2855:3014  if (amount == BASIC) basicUsers.push(msg.sender);... */\n      jump(tag_173)\n    tag_171:\n        /* \"src/Subscribe.sol\":2932:2940  ADVANCED */\n      sload(0x03)\n        /* \"src/Subscribe.sol\":2922:2928  amount */\n      dup2\n        /* \"src/Subscribe.sol\":2922:2940  amount == ADVANCED */\n      sub\n        /* \"src/Subscribe.sol\":2918:3014  if (amount == ADVANCED) advancedUsers.push(msg.sender);... */\n      tag_174\n      jumpi\n        /* \"src/Subscribe.sol\":2942:2955  advancedUsers */\n      0x07\n        /* \"src/Subscribe.sol\":2961:2971  msg.sender */\n      caller\n        /* \"src/Subscribe.sol\":2942:2972  advancedUsers.push(msg.sender) */\n      swap1\n      dup1\n      0x01\n      dup2\n      sload\n      add\n      dup1\n      dup3\n      sstore\n      dup1\n      swap2\n      pop\n      pop\n      0x01\n      swap1\n      sub\n      swap1\n      0x00\n      mstore\n      keccak256(0x00, 0x20)\n      add\n      0x00\n      swap1\n      swap2\n      swap1\n      swap2\n      swap1\n      swap2\n      0x0100\n      exp\n      dup2\n      sload\n      dup2\n      0xffffffffffffffffffffffffffffffffffffffff\n      mul\n      not\n      and\n      swap1\n      dup4\n      0xffffffffffffffffffffffffffffffffffffffff\n      and\n      mul\n      or\n      swap1\n      sstore\n      pop\n        /* \"src/Subscribe.sol\":2918:3014  if (amount == ADVANCED) advancedUsers.push(msg.sender);... */\n      jump(tag_176)\n    tag_174:\n        /* \"src/Subscribe.sol\":2987:2997  eliteUsers */\n      0x08\n        /* \"src/Subscribe.sol\":3003:3013  msg.sender */\n      caller\n        /* \"src/Subscribe.sol\":2987:3014  eliteUsers.push(msg.sender) */\n      swap1\n      dup1\n      0x01\n      dup2\n      sload\n      add\n      dup1\n      dup3\n      sstore\n      dup1\n      swap2\n      pop\n      pop\n      0x01\n      swap1\n      sub\n      swap1\n      0x00\n      mstore\n      keccak256(0x00, 0x20)\n      add\n      0x00\n      swap1\n      swap2\n      swap1\n      swap2\n      swap1\n      swap2\n      0x0100\n      exp\n      dup2\n      sload\n      dup2\n      0xffffffffffffffffffffffffffffffffffffffff\n      mul\n      not\n      and\n      swap1\n      dup4\n      0xffffffffffffffffffffffffffffffffffffffff\n      and\n      mul\n      or\n      swap1\n      sstore\n      pop\n        /* \"src/Subscribe.sol\":2918:3014  if (amount == ADVANCED) advancedUsers.push(msg.sender);... */\n    tag_176:\n        /* \"src/Subscribe.sol\":2855:3014  if (amount == BASIC) basicUsers.push(msg.sender);... */\n    tag_173:\n        /* \"src/Subscribe.sol\":3050:3060  msg.sender */\n      caller\n        /* \"src/Subscribe.sol\":3039:3086  Subscribed(msg.sender, amount, block.timestamp) */\n      0xffffffffffffffffffffffffffffffffffffffff\n      and\n      0xf94991dcbea6e8ac439cbc93bd9c62a4d39f04e0ad656df9a703f13552c2787f\n        /* \"src/Subscribe.sol\":3062:3068  amount */\n      dup3\n        /* \"src/Subscribe.sol\":3070:3085  block.timestamp */\n      timestamp\n        /* \"src/Subscribe.sol\":3039:3086  Subscribed(msg.sender, amount, block.timestamp) */\n      mload(0x40)\n      tag_178\n      swap3\n      swap2\n      swap1\n      tag_58\n      jump\t// in\n    tag_178:\n      mload(0x40)\n      dup1\n      swap2\n      sub\n      swap1\n      log2\n        /* \"src/ReentrancyGuard.sol\":2542:2562  _nonReentrantAfter() */\n      tag_179\n        /* \"src/ReentrancyGuard.sol\":2542:2560  _nonReentrantAfter */\n      tag_180\n        /* \"src/ReentrancyGuard.sol\":2542:2562  _nonReentrantAfter() */\n      jump\t// in\n    tag_179:\n        /* \"src/Subscribe.sol\":2301:3093  function subscribe(uint256 amount) external nonReentrant {... */\n      pop\n      jump\t// out\n        /* \"src/Subscribe.sol\":3209:3315  function getAdvancedUsers() external view returns (address[] memory) {... */\n    tag_52:\n        /* \"src/Subscribe.sol\":3260:3276  address[] memory */\n      0x60\n        /* \"src/Subscribe.sol\":3295:3308  advancedUsers */\n      0x07\n        /* \"src/Subscribe.sol\":3288:3308  return advancedUsers */\n      dup1\n      sload\n      dup1\n      0x20\n      mul\n      0x20\n      add\n      mload(0x40)\n      swap1\n      dup2\n      add\n      0x40\n      mstore\n      dup1\n      swap3\n      swap2\n      swap1\n      dup2\n      dup2\n      mstore\n      0x20\n      add\n      dup3\n      dup1\n      sload\n      dup1\n      iszero\n      tag_182\n      jumpi\n      0x20\n      mul\n      dup3\n      add\n      swap2\n      swap1\n      0x00\n      mstore\n      keccak256(0x00, 0x20)\n      swap1\n    tag_183:\n      dup2\n      0x00\n      swap1\n      sload\n      swap1\n      0x0100\n      exp\n      swap1\n      div\n      0xffffffffffffffffffffffffffffffffffffffff\n      and\n      0xffffffffffffffffffffffffffffffffffffffff\n      and\n      dup2\n      mstore\n      0x20\n      add\n      swap1\n      0x01\n      add\n      swap1\n      dup1\n      dup4\n      gt\n      tag_183\n      jumpi\n    tag_182:\n      pop\n      pop\n      pop\n      pop\n      pop\n      swap1\n      pop\n        /* \"src/Subscribe.sol\":3209:3315  function getAdvancedUsers() external view returns (address[] memory) {... */\n      swap1\n      jump\t// out\n        /* \"src/Subscribe.sol\":4477:4687  function getSubscribeInfo() external view returns(uint256 length, uint256 totalAmount){... */\n    tag_56:\n        /* \"src/Subscribe.sol\":4527:4541  uint256 length */\n      0x00\n        /* \"src/Subscribe.sol\":4543:4562  uint256 totalAmount */\n      dup1\n        /* \"src/Subscribe.sol\":4625:4635  eliteUsers */\n      0x08\n        /* \"src/Subscribe.sol\":4625:4642  eliteUsers.length */\n      dup1\n      sload\n      swap1\n      pop\n        /* \"src/Subscribe.sol\":4602:4615  advancedUsers */\n      0x07\n        /* \"src/Subscribe.sol\":4602:4622  advancedUsers.length */\n      dup1\n      sload\n      swap1\n      pop\n        /* \"src/Subscribe.sol\":4582:4592  basicUsers */\n      0x06\n        /* \"src/Subscribe.sol\":4582:4599  basicUsers.length */\n      dup1\n      sload\n      swap1\n      pop\n        /* \"src/Subscribe.sol\":4582:4622  basicUsers.length + advancedUsers.length */\n      tag_185\n      swap2\n      swap1\n      tag_170\n      jump\t// in\n    tag_185:\n        /* \"src/Subscribe.sol\":4582:4642  basicUsers.length + advancedUsers.length + eliteUsers.length */\n      tag_186\n      swap2\n      swap1\n      tag_170\n      jump\t// in\n    tag_186:\n        /* \"src/Subscribe.sol\":4573:4642  length = basicUsers.length + advancedUsers.length + eliteUsers.length */\n      swap2\n      pop\n        /* \"src/Subscribe.sol\":4666:4680  totalSubscribe */\n      sload(0x09)\n        /* \"src/Subscribe.sol\":4652:4680  totalAmount = totalSubscribe */\n      swap1\n      pop\n        /* \"src/Subscribe.sol\":4477:4687  function getSubscribeInfo() external view returns(uint256 length, uint256 totalAmount){... */\n      swap1\n      swap2\n      jump\t// out\n        /* \"src/Subscribe.sol\":1146:1186  mapping(address => User) public userInfo */\n    tag_63:\n      mstore(0x20, 0x05)\n      dup1\n      0x00\n      mstore\n      keccak256(0x00, 0x40)\n      0x00\n      swap2\n      pop\n      swap1\n      pop\n      dup1\n      0x00\n      add\n      sload\n      swap1\n      dup1\n      0x01\n      add\n      sload\n      swap1\n      dup1\n      0x02\n      add\n      0x00\n      swap1\n      sload\n      swap1\n      0x0100\n      exp\n      swap1\n      div\n      0xff\n      and\n      swap1\n      pop\n      dup4\n      jump\t// out\n        /* \"src/Subscribe.sol\":3832:4471  function getUsersPage(uint8 level, uint256 start, uint256 count) external view returns (address[] memory users) {... */\n    tag_70:\n        /* \"src/Subscribe.sol\":3920:3942  address[] memory users */\n      0x60\n        /* \"src/Subscribe.sol\":3954:3975  address[] storage arr */\n      0x00\n        /* \"src/Subscribe.sol\":3998:3999  0 */\n      dup1\n        /* \"src/Subscribe.sol\":3989:3994  level */\n      dup6\n        /* \"src/Subscribe.sol\":3989:3999  level == 0 */\n      0xff\n      and\n      sub\n        /* \"src/Subscribe.sol\":3985:4152  if (level == 0) arr = basicUsers;... */\n      tag_188\n      jumpi\n        /* \"src/Subscribe.sol\":4007:4017  basicUsers */\n      0x06\n        /* \"src/Subscribe.sol\":4001:4017  arr = basicUsers */\n      swap1\n      pop\n        /* \"src/Subscribe.sol\":3985:4152  if (level == 0) arr = basicUsers;... */\n      jump(tag_189)\n    tag_188:\n        /* \"src/Subscribe.sol\":4045:4046  1 */\n      0x01\n        /* \"src/Subscribe.sol\":4036:4041  level */\n      dup6\n        /* \"src/Subscribe.sol\":4036:4046  level == 1 */\n      0xff\n      and\n      sub\n        /* \"src/Subscribe.sol\":4032:4152  if (level == 1) arr = advancedUsers;... */\n      tag_190\n      jumpi\n        /* \"src/Subscribe.sol\":4054:4067  advancedUsers */\n      0x07\n        /* \"src/Subscribe.sol\":4048:4067  arr = advancedUsers */\n      swap1\n      pop\n        /* \"src/Subscribe.sol\":4032:4152  if (level == 1) arr = advancedUsers;... */\n      jump(tag_191)\n    tag_190:\n        /* \"src/Subscribe.sol\":4095:4096  2 */\n      0x02\n        /* \"src/Subscribe.sol\":4086:4091  level */\n      dup6\n        /* \"src/Subscribe.sol\":4086:4096  level == 2 */\n      0xff\n      and\n      sub\n        /* \"src/Subscribe.sol\":4082:4152  if (level == 2) arr = eliteUsers;... */\n      tag_192\n      jumpi\n        /* \"src/Subscribe.sol\":4104:4114  eliteUsers */\n      0x08\n        /* \"src/Subscribe.sol\":4098:4114  arr = eliteUsers */\n      swap1\n      pop\n        /* \"src/Subscribe.sol\":4082:4152  if (level == 2) arr = eliteUsers;... */\n      jump(tag_193)\n    tag_192:\n        /* \"src/Subscribe.sol\":4129:4152  revert(\"Invalid level\") */\n      mload(0x40)\n      0x08c379a000000000000000000000000000000000000000000000000000000000\n      dup2\n      mstore\n      0x04\n      add\n      tag_194\n      swap1\n      tag_195\n      jump\t// in\n    tag_194:\n      mload(0x40)\n      dup1\n      swap2\n      sub\n      swap1\n      revert\n        /* \"src/Subscribe.sol\":4082:4152  if (level == 2) arr = eliteUsers;... */\n    tag_193:\n        /* \"src/Subscribe.sol\":4032:4152  if (level == 1) arr = advancedUsers;... */\n    tag_191:\n        /* \"src/Subscribe.sol\":3985:4152  if (level == 0) arr = basicUsers;... */\n    tag_189:\n        /* \"src/Subscribe.sol\":4200:4203  arr */\n      dup1\n        /* \"src/Subscribe.sol\":4200:4210  arr.length */\n      dup1\n      sload\n      swap1\n      pop\n        /* \"src/Subscribe.sol\":4191:4196  start */\n      dup5\n        /* \"src/Subscribe.sol\":4191:4210  start >= arr.length */\n      lt\n        /* \"src/Subscribe.sol\":4187:4235  if (start >= arr.length) return new address[](0) */\n      tag_196\n      jumpi\n        /* \"src/Subscribe.sol\":4233:4234  0 */\n      0x00\n        /* \"src/Subscribe.sol\":4219:4235  new address[](0) */\n      0xffffffffffffffff\n      dup2\n      gt\n      iszero\n      tag_197\n      jumpi\n      tag_198\n      tag_199\n      jump\t// in\n    tag_198:\n    tag_197:\n      mload(0x40)\n      swap1\n      dup1\n      dup3\n      mstore\n      dup1\n      0x20\n      mul\n      0x20\n      add\n      dup3\n      add\n      0x40\n      mstore\n      dup1\n      iszero\n      tag_200\n      jumpi\n      dup2\n      0x20\n      add\n      0x20\n      dup3\n      mul\n      dup1\n      calldatasize\n      dup4\n      calldatacopy\n      dup1\n      dup3\n      add\n      swap2\n      pop\n      pop\n      swap1\n      pop\n    tag_200:\n      pop\n        /* \"src/Subscribe.sol\":4212:4235  return new address[](0) */\n      swap2\n      pop\n      pop\n      jump(tag_187)\n        /* \"src/Subscribe.sol\":4187:4235  if (start >= arr.length) return new address[](0) */\n    tag_196:\n        /* \"src/Subscribe.sol\":4247:4258  uint256 end */\n      0x00\n        /* \"src/Subscribe.sol\":4269:4274  count */\n      dup4\n        /* \"src/Subscribe.sol\":4261:4266  start */\n      dup6\n        /* \"src/Subscribe.sol\":4261:4274  start + count */\n      tag_201\n      swap2\n      swap1\n      tag_170\n      jump\t// in\n    tag_201:\n        /* \"src/Subscribe.sol\":4247:4274  uint256 end = start + count */\n      swap1\n      pop\n        /* \"src/Subscribe.sol\":4294:4297  arr */\n      dup2\n        /* \"src/Subscribe.sol\":4294:4304  arr.length */\n      dup1\n      sload\n      swap1\n      pop\n        /* \"src/Subscribe.sol\":4288:4291  end */\n      dup2\n        /* \"src/Subscribe.sol\":4288:4304  end > arr.length */\n      gt\n        /* \"src/Subscribe.sol\":4284:4322  if (end > arr.length) end = arr.length */\n      iszero\n      tag_202\n      jumpi\n        /* \"src/Subscribe.sol\":4312:4315  arr */\n      dup2\n        /* \"src/Subscribe.sol\":4312:4322  arr.length */\n      dup1\n      sload\n      swap1\n      pop\n        /* \"src/Subscribe.sol\":4306:4322  end = arr.length */\n      swap1\n      pop\n        /* \"src/Subscribe.sol\":4284:4322  if (end > arr.length) end = arr.length */\n    tag_202:\n        /* \"src/Subscribe.sol\":4361:4366  start */\n      dup5\n        /* \"src/Subscribe.sol\":4355:4358  end */\n      dup2\n        /* \"src/Subscribe.sol\":4355:4366  end - start */\n      tag_203\n      swap2\n      swap1\n      tag_204\n      jump\t// in\n    tag_203:\n        /* \"src/Subscribe.sol\":4341:4367  new address[](end - start) */\n      0xffffffffffffffff\n      dup2\n      gt\n      iszero\n      tag_205\n      jumpi\n      tag_206\n      tag_199\n      jump\t// in\n    tag_206:\n    tag_205:\n      mload(0x40)\n      swap1\n      dup1\n      dup3\n      mstore\n      dup1\n      0x20\n      mul\n      0x20\n      add\n      dup3\n      add\n      0x40\n      mstore\n      dup1\n      iszero\n      tag_207\n      jumpi\n      dup2\n      0x20\n      add\n      0x20\n      dup3\n      mul\n      dup1\n      calldatasize\n      dup4\n      calldatacopy\n      dup1\n      dup3\n      add\n      swap2\n      pop\n      pop\n      swap1\n      pop\n    tag_207:\n      pop\n        /* \"src/Subscribe.sol\":4333:4367  users = new address[](end - start) */\n      swap3\n      pop\n        /* \"src/Subscribe.sol\":4382:4391  uint256 i */\n      0x00\n        /* \"src/Subscribe.sol\":4394:4399  start */\n      dup6\n        /* \"src/Subscribe.sol\":4382:4399  uint256 i = start */\n      swap1\n      pop\n        /* \"src/Subscribe.sol\":4377:4465  for (uint256 i = start; i < end; i++) {... */\n    tag_208:\n        /* \"src/Subscribe.sol\":4405:4408  end */\n      dup2\n        /* \"src/Subscribe.sol\":4401:4402  i */\n      dup2\n        /* \"src/Subscribe.sol\":4401:4408  i < end */\n      lt\n        /* \"src/Subscribe.sol\":4377:4465  for (uint256 i = start; i < end; i++) {... */\n      iszero\n      tag_209\n      jumpi\n        /* \"src/Subscribe.sol\":4448:4451  arr */\n      dup3\n        /* \"src/Subscribe.sol\":4452:4453  i */\n      dup2\n        /* \"src/Subscribe.sol\":4448:4454  arr[i] */\n      dup2\n      sload\n      dup2\n      lt\n      tag_211\n      jumpi\n      tag_212\n      tag_213\n      jump\t// in\n    tag_212:\n    tag_211:\n      swap1\n      0x00\n      mstore\n      keccak256(0x00, 0x20)\n      add\n      0x00\n      swap1\n      sload\n      swap1\n      0x0100\n      exp\n      swap1\n      div\n      0xffffffffffffffffffffffffffffffffffffffff\n      and\n        /* \"src/Subscribe.sol\":4429:4434  users */\n      dup5\n        /* \"src/Subscribe.sol\":4439:4444  start */\n      dup8\n        /* \"src/Subscribe.sol\":4435:4436  i */\n      dup4\n        /* \"src/Subscribe.sol\":4435:4444  i - start */\n      tag_215\n      swap2\n      swap1\n      tag_204\n      jump\t// in\n    tag_215:\n        /* \"src/Subscribe.sol\":4429:4445  users[i - start] */\n      dup2\n      mload\n      dup2\n      lt\n      tag_216\n      jumpi\n      tag_217\n      tag_213\n      jump\t// in\n    tag_217:\n    tag_216:\n      0x20\n      mul\n      0x20\n      add\n      add\n        /* \"src/Subscribe.sol\":4429:4454  users[i - start] = arr[i] */\n      swap1\n      0xffffffffffffffffffffffffffffffffffffffff\n      and\n      swap1\n      dup2\n      0xffffffffffffffffffffffffffffffffffffffff\n      and\n      dup2\n      mstore\n      pop\n      pop\n        /* \"src/Subscribe.sol\":4410:4413  i++ */\n      dup1\n      dup1\n      0x01\n      add\n      swap2\n      pop\n      pop\n        /* \"src/Subscribe.sol\":4377:4465  for (uint256 i = start; i < end; i++) {... */\n      jump(tag_208)\n    tag_209:\n      pop\n        /* \"src/Subscribe.sol\":3944:4471  {... */\n      pop\n      pop\n        /* \"src/Subscribe.sol\":3832:4471  function getUsersPage(uint8 level, uint256 start, uint256 count) external view returns (address[] memory users) {... */\n    tag_187:\n      swap4\n      swap3\n      pop\n      pop\n      pop\n      jump\t// out\n        /* \"src/Subscribe.sol\":908:936  uint256 public  BASIC = 1e18 */\n    tag_74:\n      sload(0x02)\n      dup2\n      jump\t// out\n        /* \"src/Subscribe.sol\":1927:2026  function setRecipient(address _recipient) external onlyOwner{... */\n    tag_80:\n        /* \"@openzeppelin/contracts-upgradeable/access/OwnableUpgradeable.sol\":2334:2347  _checkOwner() */\n      tag_219\n        /* \"@openzeppelin/contracts-upgradeable/access/OwnableUpgradeable.sol\":2334:2345  _checkOwner */\n      tag_220\n        /* \"@openzeppelin/contracts-upgradeable/access/OwnableUpgradeable.sol\":2334:2347  _checkOwner() */\n      jump\t// in\n    tag_219:\n        /* \"src/Subscribe.sol\":2009:2019  _recipient */\n      dup1\n        /* \"src/Subscribe.sol\":1997:2006  recipient */\n      0x01\n      0x00\n        /* \"src/Subscribe.sol\":1997:2019  recipient = _recipient */\n      0x0100\n      exp\n      dup2\n      sload\n      dup2\n      0xffffffffffffffffffffffffffffffffffffffff\n      mul\n      not\n      and\n      swap1\n      dup4\n      0xffffffffffffffffffffffffffffffffffffffff\n      and\n      mul\n      or\n      swap1\n      sstore\n      pop\n        /* \"src/Subscribe.sol\":1927:2026  function setRecipient(address _recipient) external onlyOwner{... */\n      pop\n      jump\t// out\n        /* \"@openzeppelin/contracts-upgradeable/proxy/utils/UUPSUpgradeable.sol\":4161:4375  function upgradeToAndCall(address newImplementation, bytes memory data) public payable virtual onlyProxy {... */\n    tag_84:\n        /* \"@openzeppelin/contracts-upgradeable/proxy/utils/UUPSUpgradeable.sol\":2655:2668  _checkProxy() */\n      tag_223\n        /* \"@openzeppelin/contracts-upgradeable/proxy/utils/UUPSUpgradeable.sol\":2655:2666  _checkProxy */\n      tag_224\n        /* \"@openzeppelin/contracts-upgradeable/proxy/utils/UUPSUpgradeable.sol\":2655:2668  _checkProxy() */\n      jump\t// in\n    tag_223:\n        /* \"@openzeppelin/contracts-upgradeable/proxy/utils/UUPSUpgradeable.sol\":4276:4312  _authorizeUpgrade(newImplementation) */\n      tag_226\n        /* \"@openzeppelin/contracts-upgradeable/proxy/utils/UUPSUpgradeable.sol\":4294:4311  newImplementation */\n      dup3\n        /* \"@openzeppelin/contracts-upgradeable/proxy/utils/UUPSUpgradeable.sol\":4276:4293  _authorizeUpgrade */\n      tag_227\n        /* \"@openzeppelin/contracts-upgradeable/proxy/utils/UUPSUpgradeable.sol\":4276:4312  _authorizeUpgrade(newImplementation) */\n      jump\t// in\n    tag_226:\n        /* \"@openzeppelin/contracts-upgradeable/proxy/utils/UUPSUpgradeable.sol\":4322:4368  _upgradeToAndCallUUPS(newImplementation, data) */\n      tag_228\n        /* \"@openzeppelin/contracts-upgradeable/proxy/utils/UUPSUpgradeable.sol\":4344:4361  newImplementation */\n      dup3\n        /* \"@openzeppelin/contracts-upgradeable/proxy/utils/UUPSUpgradeable.sol\":4363:4367  data */\n      dup3\n        /* \"@openzeppelin/contracts-upgradeable/proxy/utils/UUPSUpgradeable.sol\":4322:4343  _upgradeToAndCallUUPS */\n      tag_229\n        /* \"@openzeppelin/contracts-upgradeable/proxy/utils/UUPSUpgradeable.sol\":4322:4368  _upgradeToAndCallUUPS(newImplementation, data) */\n      jump\t// in\n    tag_228:\n        /* \"@openzeppelin/contracts-upgradeable/proxy/utils/UUPSUpgradeable.sol\":4161:4375  function upgradeToAndCall(address newImplementation, bytes memory data) public payable virtual onlyProxy {... */\n      pop\n      pop\n      jump\t// out\n        /* \"@openzeppelin/contracts-upgradeable/proxy/utils/UUPSUpgradeable.sol\":3708:3842  function proxiableUUID() external view virtual notDelegated returns (bytes32) {... */\n    tag_87:\n        /* \"@openzeppelin/contracts-upgradeable/proxy/utils/UUPSUpgradeable.sol\":3777:3784  bytes32 */\n      0x00\n        /* \"@openzeppelin/contracts-upgradeable/proxy/utils/UUPSUpgradeable.sol\":2926:2946  _checkNotDelegated() */\n      tag_231\n        /* \"@openzeppelin/contracts-upgradeable/proxy/utils/UUPSUpgradeable.sol\":2926:2944  _checkNotDelegated */\n      tag_232\n        /* \"@openzeppelin/contracts-upgradeable/proxy/utils/UUPSUpgradeable.sol\":2926:2946  _checkNotDelegated() */\n      jump\t// in\n    tag_231:\n        /* \"@openzeppelin/contracts/proxy/ERC1967/ERC1967Utils.sol\":811:877  0x360894a13ba1a3210667c828492db98dca3e2076cc3735a920a3ca505d382bbc */\n      0x360894a13ba1a3210667c828492db98dca3e2076cc3735a920a3ca505d382bbc\n        /* \"@openzeppelin/contracts-upgradeable/proxy/utils/UUPSUpgradeable.sol\":3803:3835  ERC1967Utils.IMPLEMENTATION_SLOT */\n      0x00\n      shl\n        /* \"@openzeppelin/contracts-upgradeable/proxy/utils/UUPSUpgradeable.sol\":3796:3835  return ERC1967Utils.IMPLEMENTATION_SLOT */\n      swap1\n      pop\n        /* \"@openzeppelin/contracts-upgradeable/proxy/utils/UUPSUpgradeable.sol\":3708:3842  function proxiableUUID() external view virtual notDelegated returns (bytes32) {... */\n      swap1\n      jump\t// out\n        /* \"src/Subscribe.sol\":3321:3421  function getEliteUsers() external view returns (address[] memory) {... */\n    tag_92:\n        /* \"src/Subscribe.sol\":3369:3385  address[] memory */\n      0x60\n        /* \"src/Subscribe.sol\":3404:3414  eliteUsers */\n      0x08\n        /* \"src/Subscribe.sol\":3397:3414  return eliteUsers */\n      dup1\n      sload\n      dup1\n      0x20\n      mul\n      0x20\n      add\n      mload(0x40)\n      swap1\n      dup2\n      add\n      0x40\n      mstore\n      dup1\n      swap3\n      swap2\n      swap1\n      dup2\n      dup2\n      mstore\n      0x20\n      add\n      dup3\n      dup1\n      sload\n      dup1\n      iszero\n      tag_235\n      jumpi\n      0x20\n      mul\n      dup3\n      add\n      swap2\n      swap1\n      0x00\n      mstore\n      keccak256(0x00, 0x20)\n      swap1\n    tag_236:\n      dup2\n      0x00\n      swap1\n      sload\n      swap1\n      0x0100\n      exp\n      swap1\n      div\n      0xffffffffffffffffffffffffffffffffffffffff\n      and\n      0xffffffffffffffffffffffffffffffffffffffff\n      and\n      dup2\n      mstore\n      0x20\n      add\n      swap1\n      0x01\n      add\n      swap1\n      dup1\n      dup4\n      gt\n      tag_236\n      jumpi\n    tag_235:\n      pop\n      pop\n      pop\n      pop\n      pop\n      swap1\n      pop\n        /* \"src/Subscribe.sol\":3321:3421  function getEliteUsers() external view returns (address[] memory) {... */\n      swap1\n      jump\t// out\n        /* \"src/Subscribe.sol\":979:1007  uint256 public  ELITE = 3e18 */\n    tag_96:\n      sload(0x04)\n      dup2\n      jump\t// out\n        /* \"src/Subscribe.sol\":728:752  address public recipient */\n    tag_100:\n      0x01\n      0x00\n      swap1\n      sload\n      swap1\n      0x0100\n      exp\n      swap1\n      div\n      0xffffffffffffffffffffffffffffffffffffffff\n      and\n      dup2\n      jump\t// out\n        /* \"@openzeppelin/contracts-upgradeable/access/OwnableUpgradeable.sol\":3155:3256  function renounceOwnership() public virtual onlyOwner {... */\n    tag_104:\n        /* \"@openzeppelin/contracts-upgradeable/access/OwnableUpgradeable.sol\":2334:2347  _checkOwner() */\n      tag_238\n        /* \"@openzeppelin/contracts-upgradeable/access/OwnableUpgradeable.sol\":2334:2345  _checkOwner */\n      tag_220\n        /* \"@openzeppelin/contracts-upgradeable/access/OwnableUpgradeable.sol\":2334:2347  _checkOwner() */\n      jump\t// in\n    tag_238:\n        /* \"@openzeppelin/contracts-upgradeable/access/OwnableUpgradeable.sol\":3219:3249  _transferOwnership(address(0)) */\n      tag_240\n        /* \"@openzeppelin/contracts-upgradeable/access/OwnableUpgradeable.sol\":3246:3247  0 */\n      0x00\n        /* \"@openzeppelin/contracts-upgradeable/access/OwnableUpgradeable.sol\":3219:3237  _transferOwnership */\n      tag_241\n        /* \"@openzeppelin/contracts-upgradeable/access/OwnableUpgradeable.sol\":3219:3249  _transferOwnership(address(0)) */\n      jump\t// in\n    tag_240:\n        /* \"@openzeppelin/contracts-upgradeable/access/OwnableUpgradeable.sol\":3155:3256  function renounceOwnership() public virtual onlyOwner {... */\n      jump\t// out\n        /* \"@openzeppelin/contracts-upgradeable/access/OwnableUpgradeable.sol\":2441:2585  function owner() public view virtual returns (address) {... */\n    tag_107:\n        /* \"@openzeppelin/contracts-upgradeable/access/OwnableUpgradeable.sol\":2487:2494  address */\n      0x00\n        /* \"@openzeppelin/contracts-upgradeable/access/OwnableUpgradeable.sol\":2506:2530  OwnableStorage storage $ */\n      dup1\n        /* \"@openzeppelin/contracts-upgradeable/access/OwnableUpgradeable.sol\":2533:2553  _getOwnableStorage() */\n      tag_243\n        /* \"@openzeppelin/contracts-upgradeable/access/OwnableUpgradeable.sol\":2533:2551  _getOwnableStorage */\n      tag_244\n        /* \"@openzeppelin/contracts-upgradeable/access/OwnableUpgradeable.sol\":2533:2553  _getOwnableStorage() */\n      jump\t// in\n    tag_243:\n        /* \"@openzeppelin/contracts-upgradeable/access/OwnableUpgradeable.sol\":2506:2553  OwnableStorage storage $ = _getOwnableStorage() */\n      swap1\n      pop\n        /* \"@openzeppelin/contracts-upgradeable/access/OwnableUpgradeable.sol\":2570:2571  $ */\n      dup1\n        /* \"@openzeppelin/contracts-upgradeable/access/OwnableUpgradeable.sol\":2570:2578  $._owner */\n      0x00\n      add\n      0x00\n      swap1\n      sload\n      swap1\n      0x0100\n      exp\n      swap1\n      div\n      0xffffffffffffffffffffffffffffffffffffffff\n      and\n        /* \"@openzeppelin/contracts-upgradeable/access/OwnableUpgradeable.sol\":2563:2578  return $._owner */\n      swap2\n      pop\n      pop\n        /* \"@openzeppelin/contracts-upgradeable/access/OwnableUpgradeable.sol\":2441:2585  function owner() public view virtual returns (address) {... */\n      swap1\n      jump\t// out\n        /* \"src/Subscribe.sol\":1238:1268  address[] public advancedUsers */\n    tag_112:\n      0x07\n      dup2\n      dup2\n      sload\n      dup2\n      lt\n      tag_245\n      jumpi\n      0x00\n      dup1\n      revert\n    tag_245:\n      swap1\n      0x00\n      mstore\n      keccak256(0x00, 0x20)\n      add\n      0x00\n      swap2\n      pop\n      sload\n      swap1\n      0x0100\n      exp\n      swap1\n      div\n      0xffffffffffffffffffffffffffffffffffffffff\n      and\n      dup2\n      jump\t// out\n        /* \"src/Subscribe.sol\":942:973  uint256 public  ADVANCED = 2e18 */\n    tag_116:\n      sload(0x03)\n      dup2\n      jump\t// out\n        /* \"src/Subscribe.sol\":1286:1313  address[] public eliteUsers */\n    tag_121:\n      0x08\n      dup2\n      dup2\n      sload\n      dup2\n      lt\n      tag_247\n      jumpi\n      0x00\n      dup1\n      revert\n    tag_247:\n      swap1\n      0x00\n      mstore\n      keccak256(0x00, 0x20)\n      add\n      0x00\n      swap2\n      pop\n      sload\n      swap1\n      0x0100\n      exp\n      swap1\n      div\n      0xffffffffffffffffffffffffffffffffffffffff\n      and\n      dup2\n      jump\t// out\n        /* \"src/Subscribe.sol\":2032:2295  function setLevelsLimit(uint256 _basic, uint256 _advanced, uint256 _elite) external onlyOwner {... */\n    tag_127:\n        /* \"@openzeppelin/contracts-upgradeable/access/OwnableUpgradeable.sol\":2334:2347  _checkOwner() */\n      tag_250\n        /* \"@openzeppelin/contracts-upgradeable/access/OwnableUpgradeable.sol\":2334:2345  _checkOwner */\n      tag_220\n        /* \"@openzeppelin/contracts-upgradeable/access/OwnableUpgradeable.sol\":2334:2347  _checkOwner() */\n      jump\t// in\n    tag_250:\n        /* \"src/Subscribe.sol\":2153:2154  0 */\n      0x00\n        /* \"src/Subscribe.sol\":2144:2150  _basic */\n      dup4\n        /* \"src/Subscribe.sol\":2144:2154  _basic > 0 */\n      gt\n        /* \"src/Subscribe.sol\":2144:2171  _basic > 0 && _advanced > 0 */\n      dup1\n      iszero\n      tag_252\n      jumpi\n      pop\n        /* \"src/Subscribe.sol\":2170:2171  0 */\n      0x00\n        /* \"src/Subscribe.sol\":2158:2167  _advanced */\n      dup3\n        /* \"src/Subscribe.sol\":2158:2171  _advanced > 0 */\n      gt\n        /* \"src/Subscribe.sol\":2144:2171  _basic > 0 && _advanced > 0 */\n    tag_252:\n        /* \"src/Subscribe.sol\":2144:2185  _basic > 0 && _advanced > 0 && _elite > 0 */\n      dup1\n      iszero\n      tag_253\n      jumpi\n      pop\n        /* \"src/Subscribe.sol\":2184:2185  0 */\n      0x00\n        /* \"src/Subscribe.sol\":2175:2181  _elite */\n      dup2\n        /* \"src/Subscribe.sol\":2175:2185  _elite > 0 */\n      gt\n        /* \"src/Subscribe.sol\":2144:2185  _basic > 0 && _advanced > 0 && _elite > 0 */\n    tag_253:\n        /* \"src/Subscribe.sol\":2136:2210  require(_basic > 0 && _advanced > 0 && _elite > 0, \"Invalid level values\") */\n      tag_254\n      jumpi\n      mload(0x40)\n      0x08c379a000000000000000000000000000000000000000000000000000000000\n      dup2\n      mstore\n      0x04\n      add\n      tag_255\n      swap1\n      tag_256\n      jump\t// in\n    tag_255:\n      mload(0x40)\n      dup1\n      swap2\n      sub\n      swap1\n      revert\n    tag_254:\n        /* \"src/Subscribe.sol\":2228:2234  _basic */\n      dup3\n        /* \"src/Subscribe.sol\":2220:2225  BASIC */\n      0x02\n        /* \"src/Subscribe.sol\":2220:2234  BASIC = _basic */\n      dup2\n      swap1\n      sstore\n      pop\n        /* \"src/Subscribe.sol\":2255:2264  _advanced */\n      dup2\n        /* \"src/Subscribe.sol\":2244:2252  ADVANCED */\n      0x03\n        /* \"src/Subscribe.sol\":2244:2264  ADVANCED = _advanced */\n      dup2\n      swap1\n      sstore\n      pop\n        /* \"src/Subscribe.sol\":2282:2288  _elite */\n      dup1\n        /* \"src/Subscribe.sol\":2274:2279  ELITE */\n      0x04\n        /* \"src/Subscribe.sol\":2274:2288  ELITE = _elite */\n      dup2\n      swap1\n      sstore\n      pop\n        /* \"src/Subscribe.sol\":2032:2295  function setLevelsLimit(uint256 _basic, uint256 _advanced, uint256 _elite) external onlyOwner {... */\n      pop\n      pop\n      pop\n      jump\t// out\n        /* \"@openzeppelin/contracts-upgradeable/proxy/utils/UUPSUpgradeable.sol\":1819:1877  string public constant UPGRADE_INTERFACE_VERSION = \"5.0.0\" */\n    tag_130:\n      mload(0x40)\n      dup1\n      0x40\n      add\n      0x40\n      mstore\n      dup1\n      0x05\n      dup2\n      mstore\n      0x20\n      add\n      0x352e302e30000000000000000000000000000000000000000000000000000000\n      dup2\n      mstore\n      pop\n      dup2\n      jump\t// out\n        /* \"src/Subscribe.sol\":3427:3645  function getAllUsersLength() external view returns (uint256 basic, uint256 advanced, uint256 elite) {... */\n    tag_135:\n        /* \"src/Subscribe.sol\":3479:3492  uint256 basic */\n      0x00\n        /* \"src/Subscribe.sol\":3494:3510  uint256 advanced */\n      dup1\n        /* \"src/Subscribe.sol\":3512:3525  uint256 elite */\n      0x00\n        /* \"src/Subscribe.sol\":3545:3555  basicUsers */\n      0x06\n        /* \"src/Subscribe.sol\":3545:3562  basicUsers.length */\n      dup1\n      sload\n      swap1\n      pop\n        /* \"src/Subscribe.sol\":3537:3562  basic = basicUsers.length */\n      swap3\n      pop\n        /* \"src/Subscribe.sol\":3583:3596  advancedUsers */\n      0x07\n        /* \"src/Subscribe.sol\":3583:3603  advancedUsers.length */\n      dup1\n      sload\n      swap1\n      pop\n        /* \"src/Subscribe.sol\":3572:3603  advanced = advancedUsers.length */\n      swap2\n      pop\n        /* \"src/Subscribe.sol\":3621:3631  eliteUsers */\n      0x08\n        /* \"src/Subscribe.sol\":3621:3638  eliteUsers.length */\n      dup1\n      sload\n      swap1\n      pop\n        /* \"src/Subscribe.sol\":3613:3638  elite = eliteUsers.length */\n      swap1\n      pop\n        /* \"src/Subscribe.sol\":3427:3645  function getAllUsersLength() external view returns (uint256 basic, uint256 advanced, uint256 elite) {... */\n      swap1\n      swap2\n      swap3\n      jump\t// out\n        /* \"src/Subscribe.sol\":1504:1771  function initialize(address _recipient) public initializer {... */\n    tag_141:\n        /* \"@openzeppelin/contracts-upgradeable/proxy/utils/Initializable.sol\":4158:4188  InitializableStorage storage $ */\n      0x00\n        /* \"@openzeppelin/contracts-upgradeable/proxy/utils/Initializable.sol\":4191:4217  _getInitializableStorage() */\n      tag_259\n        /* \"@openzeppelin/contracts-upgradeable/proxy/utils/Initializable.sol\":4191:4215  _getInitializableStorage */\n      tag_260\n        /* \"@openzeppelin/contracts-upgradeable/proxy/utils/Initializable.sol\":4191:4217  _getInitializableStorage() */\n      jump\t// in\n    tag_259:\n        /* \"@openzeppelin/contracts-upgradeable/proxy/utils/Initializable.sol\":4158:4217  InitializableStorage storage $ = _getInitializableStorage() */\n      swap1\n      pop\n        /* \"@openzeppelin/contracts-upgradeable/proxy/utils/Initializable.sol\":4279:4298  bool isTopLevelCall */\n      0x00\n        /* \"@openzeppelin/contracts-upgradeable/proxy/utils/Initializable.sol\":4302:4303  $ */\n      dup2\n        /* \"@openzeppelin/contracts-upgradeable/proxy/utils/Initializable.sol\":4302:4317  $._initializing */\n      0x00\n      add\n      0x08\n      swap1\n      sload\n      swap1\n      0x0100\n      exp\n      swap1\n      div\n      0xff\n      and\n        /* \"@openzeppelin/contracts-upgradeable/proxy/utils/Initializable.sol\":4301:4317  !$._initializing */\n      iszero\n        /* \"@openzeppelin/contracts-upgradeable/proxy/utils/Initializable.sol\":4279:4317  bool isTopLevelCall = !$._initializing */\n      swap1\n      pop\n        /* \"@openzeppelin/contracts-upgradeable/proxy/utils/Initializable.sol\":4327:4345  uint64 initialized */\n      0x00\n        /* \"@openzeppelin/contracts-upgradeable/proxy/utils/Initializable.sol\":4348:4349  $ */\n      dup3\n        /* \"@openzeppelin/contracts-upgradeable/proxy/utils/Initializable.sol\":4348:4362  $._initialized */\n      0x00\n      add\n      0x00\n      swap1\n      sload\n      swap1\n      0x0100\n      exp\n      swap1\n      div\n      0xffffffffffffffff\n      and\n        /* \"@openzeppelin/contracts-upgradeable/proxy/utils/Initializable.sol\":4327:4362  uint64 initialized = $._initialized */\n      swap1\n      pop\n        /* \"@openzeppelin/contracts-upgradeable/proxy/utils/Initializable.sol\":4704:4721  bool initialSetup */\n      0x00\n        /* \"@openzeppelin/contracts-upgradeable/proxy/utils/Initializable.sol\":4739:4740  0 */\n      dup1\n        /* \"@openzeppelin/contracts-upgradeable/proxy/utils/Initializable.sol\":4724:4735  initialized */\n      dup3\n        /* \"@openzeppelin/contracts-upgradeable/proxy/utils/Initializable.sol\":4724:4740  initialized == 0 */\n      0xffffffffffffffff\n      and\n      eq\n        /* \"@openzeppelin/contracts-upgradeable/proxy/utils/Initializable.sol\":4724:4758  initialized == 0 && isTopLevelCall */\n      dup1\n      iszero\n      tag_261\n      jumpi\n      pop\n        /* \"@openzeppelin/contracts-upgradeable/proxy/utils/Initializable.sol\":4744:4758  isTopLevelCall */\n      dup3\n        /* \"@openzeppelin/contracts-upgradeable/proxy/utils/Initializable.sol\":4724:4758  initialized == 0 && isTopLevelCall */\n    tag_261:\n        /* \"@openzeppelin/contracts-upgradeable/proxy/utils/Initializable.sol\":4704:4758  bool initialSetup = initialized == 0 && isTopLevelCall */\n      swap1\n      pop\n        /* \"@openzeppelin/contracts-upgradeable/proxy/utils/Initializable.sol\":4768:4785  bool construction */\n      0x00\n        /* \"@openzeppelin/contracts-upgradeable/proxy/utils/Initializable.sol\":4803:4804  1 */\n      0x01\n        /* \"@openzeppelin/contracts-upgradeable/proxy/utils/Initializable.sol\":4788:4799  initialized */\n      dup4\n        /* \"@openzeppelin/contracts-upgradeable/proxy/utils/Initializable.sol\":4788:4804  initialized == 1 */\n      0xffffffffffffffff\n      and\n      eq\n        /* \"@openzeppelin/contracts-upgradeable/proxy/utils/Initializable.sol\":4788:4838  initialized == 1 && address(this).code.length == 0 */\n      dup1\n      iszero\n      tag_262\n      jumpi\n      pop\n        /* \"@openzeppelin/contracts-upgradeable/proxy/utils/Initializable.sol\":4837:4838  0 */\n      0x00\n        /* \"@openzeppelin/contracts-upgradeable/proxy/utils/Initializable.sol\":4816:4820  this */\n      address\n        /* \"@openzeppelin/contracts-upgradeable/proxy/utils/Initializable.sol\":4808:4833  address(this).code.length */\n      0xffffffffffffffffffffffffffffffffffffffff\n      and\n      extcodesize\n        /* \"@openzeppelin/contracts-upgradeable/proxy/utils/Initializable.sol\":4808:4838  address(this).code.length == 0 */\n      eq\n        /* \"@openzeppelin/contracts-upgradeable/proxy/utils/Initializable.sol\":4788:4838  initialized == 1 && address(this).code.length == 0 */\n    tag_262:\n        /* \"@openzeppelin/contracts-upgradeable/proxy/utils/Initializable.sol\":4768:4838  bool construction = initialized == 1 && address(this).code.length == 0 */\n      swap1\n      pop\n        /* \"@openzeppelin/contracts-upgradeable/proxy/utils/Initializable.sol\":4854:4866  initialSetup */\n      dup2\n        /* \"@openzeppelin/contracts-upgradeable/proxy/utils/Initializable.sol\":4853:4866  !initialSetup */\n      iszero\n        /* \"@openzeppelin/contracts-upgradeable/proxy/utils/Initializable.sol\":4853:4883  !initialSetup && !construction */\n      dup1\n      iszero\n      tag_263\n      jumpi\n      pop\n        /* \"@openzeppelin/contracts-upgradeable/proxy/utils/Initializable.sol\":4871:4883  construction */\n      dup1\n        /* \"@openzeppelin/contracts-upgradeable/proxy/utils/Initializable.sol\":4870:4883  !construction */\n      iszero\n        /* \"@openzeppelin/contracts-upgradeable/proxy/utils/Initializable.sol\":4853:4883  !initialSetup && !construction */\n    tag_263:\n        /* \"@openzeppelin/contracts-upgradeable/proxy/utils/Initializable.sol\":4849:4940  if (!initialSetup && !construction) {... */\n      iszero\n      tag_264\n      jumpi\n        /* \"@openzeppelin/contracts-upgradeable/proxy/utils/Initializable.sol\":4906:4929  InvalidInitialization() */\n      mload(0x40)\n      0xf92ee8a900000000000000000000000000000000000000000000000000000000\n      dup2\n      mstore\n      0x04\n      add\n      mload(0x40)\n      dup1\n      swap2\n      sub\n      swap1\n      revert\n        /* \"@openzeppelin/contracts-upgradeable/proxy/utils/Initializable.sol\":4849:4940  if (!initialSetup && !construction) {... */\n    tag_264:\n        /* \"@openzeppelin/contracts-upgradeable/proxy/utils/Initializable.sol\":4966:4967  1 */\n      0x01\n        /* \"@openzeppelin/contracts-upgradeable/proxy/utils/Initializable.sol\":4949:4950  $ */\n      dup6\n        /* \"@openzeppelin/contracts-upgradeable/proxy/utils/Initializable.sol\":4949:4963  $._initialized */\n      0x00\n      add\n      0x00\n        /* \"@openzeppelin/contracts-upgradeable/proxy/utils/Initializable.sol\":4949:4967  $._initialized = 1 */\n      0x0100\n      exp\n      dup2\n      sload\n      dup2\n      0xffffffffffffffff\n      mul\n      not\n      and\n      swap1\n      dup4\n      0xffffffffffffffff\n      and\n      mul\n      or\n      swap1\n      sstore\n      pop\n        /* \"@openzeppelin/contracts-upgradeable/proxy/utils/Initializable.sol\":4981:4995  isTopLevelCall */\n      dup4\n        /* \"@openzeppelin/contracts-upgradeable/proxy/utils/Initializable.sol\":4977:5044  if (isTopLevelCall) {... */\n      iszero\n      tag_265\n      jumpi\n        /* \"@openzeppelin/contracts-upgradeable/proxy/utils/Initializable.sol\":5029:5033  true */\n      0x01\n        /* \"@openzeppelin/contracts-upgradeable/proxy/utils/Initializable.sol\":5011:5012  $ */\n      dup6\n        /* \"@openzeppelin/contracts-upgradeable/proxy/utils/Initializable.sol\":5011:5026  $._initializing */\n      0x00\n      add\n      0x08\n        /* \"@openzeppelin/contracts-upgradeable/proxy/utils/Initializable.sol\":5011:5033  $._initializing = true */\n      0x0100\n      exp\n      dup2\n      sload\n      dup2\n      0xff\n      mul\n      not\n      and\n      swap1\n      dup4\n      iszero\n      iszero\n      mul\n      or\n      swap1\n      sstore\n      pop\n        /* \"@openzeppelin/contracts-upgradeable/proxy/utils/Initializable.sol\":4977:5044  if (isTopLevelCall) {... */\n    tag_265:\n        /* \"src/Subscribe.sol\":1573:1611  __Ownable_init_unchained(_msgSender()) */\n      tag_267\n        /* \"src/Subscribe.sol\":1598:1610  _msgSender() */\n      tag_268\n        /* \"src/Subscribe.sol\":1598:1608  _msgSender */\n      tag_269\n        /* \"src/Subscribe.sol\":1598:1610  _msgSender() */\n      jump\t// in\n    tag_268:\n        /* \"src/Subscribe.sol\":1573:1597  __Ownable_init_unchained */\n      tag_270\n        /* \"src/Subscribe.sol\":1573:1611  __Ownable_init_unchained(_msgSender()) */\n      jump\t// in\n    tag_267:\n        /* \"src/Subscribe.sol\":1621:1655  __UUPSUpgradeable_init_unchained() */\n      tag_271\n        /* \"src/Subscribe.sol\":1621:1653  __UUPSUpgradeable_init_unchained */\n      tag_272\n        /* \"src/Subscribe.sol\":1621:1655  __UUPSUpgradeable_init_unchained() */\n      jump\t// in\n    tag_271:\n        /* \"src/Subscribe.sol\":1677:1687  _recipient */\n      dup6\n        /* \"src/Subscribe.sol\":1665:1674  recipient */\n      0x01\n      0x00\n        /* \"src/Subscribe.sol\":1665:1687  recipient = _recipient */\n      0x0100\n      exp\n      dup2\n      sload\n      dup2\n      0xffffffffffffffffffffffffffffffffffffffff\n      mul\n      not\n      and\n      swap1\n      dup4\n      0xffffffffffffffffffffffffffffffffffffffff\n      and\n      mul\n      or\n      swap1\n      sstore\n      pop\n        /* \"src/Subscribe.sol\":1705:1711  900e18 */\n      0x30ca024f987b900000\n        /* \"src/Subscribe.sol\":1697:1702  BASIC */\n      0x02\n        /* \"src/Subscribe.sol\":1697:1711  BASIC = 900e18 */\n      dup2\n      swap1\n      sstore\n      pop\n        /* \"src/Subscribe.sol\":1732:1739  2900e18 */\n      0x9d3595ab2438d00000\n        /* \"src/Subscribe.sol\":1721:1729  ADVANCED */\n      0x03\n        /* \"src/Subscribe.sol\":1721:1739  ADVANCED = 2900e18 */\n      dup2\n      swap1\n      sstore\n      pop\n        /* \"src/Subscribe.sol\":1757:1764  5900e18 */\n      0x013fd6f2b475d4b00000\n        /* \"src/Subscribe.sol\":1749:1754  ELITE */\n      0x04\n        /* \"src/Subscribe.sol\":1749:1764  ELITE = 5900e18 */\n      dup2\n      swap1\n      sstore\n      pop\n        /* \"@openzeppelin/contracts-upgradeable/proxy/utils/Initializable.sol\":5068:5082  isTopLevelCall */\n      dup4\n        /* \"@openzeppelin/contracts-upgradeable/proxy/utils/Initializable.sol\":5064:5165  if (isTopLevelCall) {... */\n      iszero\n      tag_273\n      jumpi\n        /* \"@openzeppelin/contracts-upgradeable/proxy/utils/Initializable.sol\":5116:5121  false */\n      0x00\n        /* \"@openzeppelin/contracts-upgradeable/proxy/utils/Initializable.sol\":5098:5099  $ */\n      dup6\n        /* \"@openzeppelin/contracts-upgradeable/proxy/utils/Initializable.sol\":5098:5113  $._initializing */\n      0x00\n      add\n      0x08\n        /* \"@openzeppelin/contracts-upgradeable/proxy/utils/Initializable.sol\":5098:5121  $._initializing = false */\n      0x0100\n      exp\n      dup2\n      sload\n      dup2\n      0xff\n      mul\n      not\n      and\n      swap1\n      dup4\n      iszero\n      iszero\n      mul\n      or\n      swap1\n      sstore\n      pop\n        /* \"@openzeppelin/contracts-upgradeable/proxy/utils/Initializable.sol\":5140:5154  Initialized(1) */\n      0xc7f505b2f371ae2175ee4913f4499e1f2633a7b5936321eed1cdaeb6115181d2\n        /* \"@openzeppelin/contracts-upgradeable/proxy/utils/Initializable.sol\":5152:5153  1 */\n      0x01\n        /* \"@openzeppelin/contracts-upgradeable/proxy/utils/Initializable.sol\":5140:5154  Initialized(1) */\n      mload(0x40)\n      tag_274\n      swap2\n      swap1\n      tag_275\n      jump\t// in\n    tag_274:\n      mload(0x40)\n      dup1\n      swap2\n      sub\n      swap1\n      log1\n        /* \"@openzeppelin/contracts-upgradeable/proxy/utils/Initializable.sol\":5064:5165  if (isTopLevelCall) {... */\n    tag_273:\n        /* \"@openzeppelin/contracts-upgradeable/proxy/utils/Initializable.sol\":4092:5171  {... */\n      pop\n      pop\n      pop\n      pop\n      pop\n        /* \"src/Subscribe.sol\":1504:1771  function initialize(address _recipient) public initializer {... */\n      pop\n      jump\t// out\n        /* \"src/Subscribe.sol\":648:721  address public constant USDT = 0x55d398326f99059fF775485246999027B3197955 */\n    tag_144:\n        /* \"src/Subscribe.sol\":679:721  0x55d398326f99059fF775485246999027B3197955 */\n      0x55d398326f99059ff775485246999027b3197955\n        /* \"src/Subscribe.sol\":648:721  address public constant USDT = 0x55d398326f99059fF775485246999027B3197955 */\n      dup2\n      jump\t// out\n        /* \"@openzeppelin/contracts-upgradeable/access/OwnableUpgradeable.sol\":3405:3620  function transferOwnership(address newOwner) public virtual onlyOwner {... */\n    tag_149:\n        /* \"@openzeppelin/contracts-upgradeable/access/OwnableUpgradeable.sol\":2334:2347  _checkOwner() */\n      tag_277\n        /* \"@openzeppelin/contracts-upgradeable/access/OwnableUpgradeable.sol\":2334:2345  _checkOwner */\n      tag_220\n        /* \"@openzeppelin/contracts-upgradeable/access/OwnableUpgradeable.sol\":2334:2347  _checkOwner() */\n      jump\t// in\n    tag_277:\n        /* \"@openzeppelin/contracts-upgradeable/access/OwnableUpgradeable.sol\":3509:3510  0 */\n      0x00\n        /* \"@openzeppelin/contracts-upgradeable/access/OwnableUpgradeable.sol\":3489:3511  newOwner == address(0) */\n      0xffffffffffffffffffffffffffffffffffffffff\n      and\n        /* \"@openzeppelin/contracts-upgradeable/access/OwnableUpgradeable.sol\":3489:3497  newOwner */\n      dup2\n        /* \"@openzeppelin/contracts-upgradeable/access/OwnableUpgradeable.sol\":3489:3511  newOwner == address(0) */\n      0xffffffffffffffffffffffffffffffffffffffff\n      and\n      sub\n        /* \"@openzeppelin/contracts-upgradeable/access/OwnableUpgradeable.sol\":3485:3576  if (newOwner == address(0)) {... */\n      tag_279\n      jumpi\n        /* \"@openzeppelin/contracts-upgradeable/access/OwnableUpgradeable.sol\":3562:3563  0 */\n      0x00\n        /* \"@openzeppelin/contracts-upgradeable/access/OwnableUpgradeable.sol\":3534:3565  OwnableInvalidOwner(address(0)) */\n      mload(0x40)\n      0x1e4fbdf700000000000000000000000000000000000000000000000000000000\n      dup2\n      mstore\n      0x04\n      add\n      tag_280\n      swap2\n      swap1\n      tag_40\n      jump\t// in\n    tag_280:\n      mload(0x40)\n      dup1\n      swap2\n      sub\n      swap1\n      revert\n        /* \"@openzeppelin/contracts-upgradeable/access/OwnableUpgradeable.sol\":3485:3576  if (newOwner == address(0)) {... */\n    tag_279:\n        /* \"@openzeppelin/contracts-upgradeable/access/OwnableUpgradeable.sol\":3585:3613  _transferOwnership(newOwner) */\n      tag_281\n        /* \"@openzeppelin/contracts-upgradeable/access/OwnableUpgradeable.sol\":3604:3612  newOwner */\n      dup2\n        /* \"@openzeppelin/contracts-upgradeable/access/OwnableUpgradeable.sol\":3585:3603  _transferOwnership */\n      tag_241\n        /* \"@openzeppelin/contracts-upgradeable/access/OwnableUpgradeable.sol\":3585:3613  _transferOwnership(newOwner) */\n      jump\t// in\n    tag_281:\n        /* \"@openzeppelin/contracts-upgradeable/access/OwnableUpgradeable.sol\":3405:3620  function transferOwnership(address newOwner) public virtual onlyOwner {... */\n      pop\n      jump\t// out\n        /* \"src/ReentrancyGuard.sol\":2575:2882  function _nonReentrantBefore() private {... */\n    tag_157:\n        /* \"src/ReentrancyGuard.sol\":1899:1900  2 */\n      0x02\n        /* \"src/ReentrancyGuard.sol\":2702:2709  _status */\n      sload(0x00)\n        /* \"src/ReentrancyGuard.sol\":2702:2720  _status == ENTERED */\n      sub\n        /* \"src/ReentrancyGuard.sol\":2698:2784  if (_status == ENTERED) {... */\n      tag_283\n      jumpi\n        /* \"src/ReentrancyGuard.sol\":2743:2773  ReentrancyGuardReentrantCall() */\n      mload(0x40)\n      0x3ee5aeb500000000000000000000000000000000000000000000000000000000\n      dup2\n      mstore\n      0x04\n      add\n      mload(0x40)\n      dup1\n      swap2\n      sub\n      swap1\n      revert\n        /* \"src/ReentrancyGuard.sol\":2698:2784  if (_status == ENTERED) {... */\n    tag_283:\n        /* \"src/ReentrancyGuard.sol\":1899:1900  2 */\n      0x02\n        /* \"src/ReentrancyGuard.sol\":2858:2865  _status */\n      0x00\n        /* \"src/ReentrancyGuard.sol\":2858:2875  _status = ENTERED */\n      dup2\n      swap1\n      sstore\n      pop\n        /* \"src/ReentrancyGuard.sol\":2575:2882  function _nonReentrantBefore() private {... */\n      jump\t// out\n        /* \"src/TransferHelper.sol\":947:1345  function safeTransferFrom(address token, address from, address to, uint value) internal {... */\n    tag_168:\n        /* \"src/TransferHelper.sol\":1124:1136  bool success */\n      0x00\n        /* \"src/TransferHelper.sol\":1138:1155  bytes memory data */\n      dup1\n        /* \"src/TransferHelper.sol\":1159:1164  token */\n      dup6\n        /* \"src/TransferHelper.sol\":1159:1169  token.call */\n      0xffffffffffffffffffffffffffffffffffffffff\n      and\n        /* \"src/TransferHelper.sol\":1193:1203  0x23b872dd */\n      0x23b872dd\n        /* \"src/TransferHelper.sol\":1205:1209  from */\n      dup7\n        /* \"src/TransferHelper.sol\":1211:1213  to */\n      dup7\n        /* \"src/TransferHelper.sol\":1215:1220  value */\n      dup7\n        /* \"src/TransferHelper.sol\":1170:1221  abi.encodeWithSelector(0x23b872dd, from, to, value) */\n      add(0x24, mload(0x40))\n      tag_285\n      swap4\n      swap3\n      swap2\n      swap1\n      tag_286\n      jump\t// in\n    tag_285:\n      mload(0x40)\n      0x20\n      dup2\n      dup4\n      sub\n      sub\n      dup2\n      mstore\n      swap1\n      0x40\n      mstore\n      swap1\n      0xe0\n      shl\n      0x20\n      dup3\n      add\n      dup1\n      mload\n      0xffffffffffffffffffffffffffffffffffffffffffffffffffffffff\n      dup4\n      dup2\n      dup4\n      and\n      or\n      dup4\n      mstore\n      pop\n      pop\n      pop\n      pop\n        /* \"src/TransferHelper.sol\":1159:1222  token.call(abi.encodeWithSelector(0x23b872dd, from, to, value)) */\n      mload(0x40)\n      tag_287\n      swap2\n      swap1\n      tag_288\n      jump\t// in\n    tag_287:\n      0x00\n      mload(0x40)\n      dup1\n      dup4\n      sub\n      dup2\n      0x00\n      dup7\n      gas\n      call\n      swap2\n      pop\n      pop\n      returndatasize\n      dup1\n      0x00\n      dup2\n      eq\n      tag_291\n      jumpi\n      mload(0x40)\n      swap2\n      pop\n      and(add(returndatasize, 0x3f), not(0x1f))\n      dup3\n      add\n      0x40\n      mstore\n      returndatasize\n      dup3\n      mstore\n      returndatasize\n      0x00\n      0x20\n      dup5\n      add\n      returndatacopy\n      jump(tag_290)\n    tag_291:\n      0x60\n      swap2\n      pop\n    tag_290:\n      pop\n        /* \"src/TransferHelper.sol\":1123:1222  (bool success, bytes memory data) = token.call(abi.encodeWithSelector(0x23b872dd, from, to, value)) */\n      swap2\n      pop\n      swap2\n      pop\n        /* \"src/TransferHelper.sol\":1240:1247  success */\n      dup2\n        /* \"src/TransferHelper.sol\":1240:1297  success && (data.length == 0 || abi.decode(data, (bool))) */\n      dup1\n      iszero\n      tag_292\n      jumpi\n      pop\n        /* \"src/TransferHelper.sol\":1267:1268  0 */\n      0x00\n        /* \"src/TransferHelper.sol\":1252:1256  data */\n      dup2\n        /* \"src/TransferHelper.sol\":1252:1263  data.length */\n      mload\n        /* \"src/TransferHelper.sol\":1252:1268  data.length == 0 */\n      eq\n        /* \"src/TransferHelper.sol\":1252:1296  data.length == 0 || abi.decode(data, (bool)) */\n      dup1\n      tag_293\n      jumpi\n      pop\n        /* \"src/TransferHelper.sol\":1283:1287  data */\n      dup1\n        /* \"src/TransferHelper.sol\":1272:1296  abi.decode(data, (bool)) */\n      dup1\n      0x20\n      add\n      swap1\n      mload\n      dup2\n      add\n      swap1\n      tag_294\n      swap2\n      swap1\n      tag_295\n      jump\t// in\n    tag_294:\n        /* \"src/TransferHelper.sol\":1252:1296  data.length == 0 || abi.decode(data, (bool)) */\n    tag_293:\n        /* \"src/TransferHelper.sol\":1240:1297  success && (data.length == 0 || abi.decode(data, (bool))) */\n    tag_292:\n        /* \"src/TransferHelper.sol\":1232:1338  require(success && (data.length == 0 || abi.decode(data, (bool))), 'TransferHelper: TRANSFER_FROM_FAILED') */\n      tag_296\n      jumpi\n      mload(0x40)\n      0x08c379a000000000000000000000000000000000000000000000000000000000\n      dup2\n      mstore\n      0x04\n      add\n      tag_297\n      swap1\n      tag_298\n      jump\t// in\n    tag_297:\n      mload(0x40)\n      dup1\n      swap2\n      sub\n      swap1\n      revert\n    tag_296:\n        /* \"src/TransferHelper.sol\":1035:1345  {... */\n      pop\n      pop\n        /* \"src/TransferHelper.sol\":947:1345  function safeTransferFrom(address token, address from, address to, uint value) internal {... */\n      pop\n      pop\n      pop\n      pop\n      jump\t// out\n        /* \"src/ReentrancyGuard.sol\":2888:3096  function _nonReentrantAfter() private {... */\n    tag_180:\n        /* \"src/ReentrancyGuard.sol\":1857:1858  1 */\n      0x01\n        /* \"src/ReentrancyGuard.sol\":3068:3075  _status */\n      0x00\n        /* \"src/ReentrancyGuard.sol\":3068:3089  _status = NOT_ENTERED */\n      dup2\n      swap1\n      sstore\n      pop\n        /* \"src/ReentrancyGuard.sol\":2888:3096  function _nonReentrantAfter() private {... */\n      jump\t// out\n        /* \"@openzeppelin/contracts-upgradeable/access/OwnableUpgradeable.sol\":2658:2820  function _checkOwner() internal view virtual {... */\n    tag_220:\n        /* \"@openzeppelin/contracts-upgradeable/access/OwnableUpgradeable.sol\":2728:2740  _msgSender() */\n      tag_301\n        /* \"@openzeppelin/contracts-upgradeable/access/OwnableUpgradeable.sol\":2728:2738  _msgSender */\n      tag_269\n        /* \"@openzeppelin/contracts-upgradeable/access/OwnableUpgradeable.sol\":2728:2740  _msgSender() */\n      jump\t// in\n    tag_301:\n        /* \"@openzeppelin/contracts-upgradeable/access/OwnableUpgradeable.sol\":2717:2740  owner() != _msgSender() */\n      0xffffffffffffffffffffffffffffffffffffffff\n      and\n        /* \"@openzeppelin/contracts-upgradeable/access/OwnableUpgradeable.sol\":2717:2724  owner() */\n      tag_302\n        /* \"@openzeppelin/contracts-upgradeable/access/OwnableUpgradeable.sol\":2717:2722  owner */\n      tag_107\n        /* \"@openzeppelin/contracts-upgradeable/access/OwnableUpgradeable.sol\":2717:2724  owner() */\n      jump\t// in\n    tag_302:\n        /* \"@openzeppelin/contracts-upgradeable/access/OwnableUpgradeable.sol\":2717:2740  owner() != _msgSender() */\n      0xffffffffffffffffffffffffffffffffffffffff\n      and\n      eq\n        /* \"@openzeppelin/contracts-upgradeable/access/OwnableUpgradeable.sol\":2713:2814  if (owner() != _msgSender()) {... */\n      tag_303\n      jumpi\n        /* \"@openzeppelin/contracts-upgradeable/access/OwnableUpgradeable.sol\":2790:2802  _msgSender() */\n      tag_304\n        /* \"@openzeppelin/contracts-upgradeable/access/OwnableUpgradeable.sol\":2790:2800  _msgSender */\n      tag_269\n        /* \"@openzeppelin/contracts-upgradeable/access/OwnableUpgradeable.sol\":2790:2802  _msgSender() */\n      jump\t// in\n    tag_304:\n        /* \"@openzeppelin/contracts-upgradeable/access/OwnableUpgradeable.sol\":2763:2803  OwnableUnauthorizedAccount(_msgSender()) */\n      mload(0x40)\n      0x118cdaa700000000000000000000000000000000000000000000000000000000\n      dup2\n      mstore\n      0x04\n      add\n      tag_305\n      swap2\n      swap1\n      tag_40\n      jump\t// in\n    tag_305:\n      mload(0x40)\n      dup1\n      swap2\n      sub\n      swap1\n      revert\n        /* \"@openzeppelin/contracts-upgradeable/access/OwnableUpgradeable.sol\":2713:2814  if (owner() != _msgSender()) {... */\n    tag_303:\n        /* \"@openzeppelin/contracts-upgradeable/access/OwnableUpgradeable.sol\":2658:2820  function _checkOwner() internal view virtual {... */\n      jump\t// out\n        /* \"@openzeppelin/contracts-upgradeable/proxy/utils/UUPSUpgradeable.sol\":4578:4890  function _checkProxy() internal view virtual {... */\n    tag_224:\n        /* \"@openzeppelin/contracts-upgradeable/proxy/utils/UUPSUpgradeable.sol\":4667:4673  __self */\n      immutable(\"0x4ce4dab4689da140a0c12de1a6af6b8f679594aeb723205f513e052d27f5b26f\")\n        /* \"@openzeppelin/contracts-upgradeable/proxy/utils/UUPSUpgradeable.sol\":4650:4673  address(this) == __self */\n      0xffffffffffffffffffffffffffffffffffffffff\n      and\n        /* \"@openzeppelin/contracts-upgradeable/proxy/utils/UUPSUpgradeable.sol\":4658:4662  this */\n      address\n        /* \"@openzeppelin/contracts-upgradeable/proxy/utils/UUPSUpgradeable.sol\":4650:4673  address(this) == __self */\n      0xffffffffffffffffffffffffffffffffffffffff\n      and\n      eq\n        /* \"@openzeppelin/contracts-upgradeable/proxy/utils/UUPSUpgradeable.sol\":4650:4770  address(this) == __self || // Must be called through delegatecall... */\n      dup1\n      tag_307\n      jumpi\n      pop\n        /* \"@openzeppelin/contracts-upgradeable/proxy/utils/UUPSUpgradeable.sol\":4764:4770  __self */\n      immutable(\"0x4ce4dab4689da140a0c12de1a6af6b8f679594aeb723205f513e052d27f5b26f\")\n        /* \"@openzeppelin/contracts-upgradeable/proxy/utils/UUPSUpgradeable.sol\":4728:4770  ERC1967Utils.getImplementation() != __self */\n      0xffffffffffffffffffffffffffffffffffffffff\n      and\n        /* \"@openzeppelin/contracts-upgradeable/proxy/utils/UUPSUpgradeable.sol\":4728:4760  ERC1967Utils.getImplementation() */\n      tag_308\n        /* \"@openzeppelin/contracts-upgradeable/proxy/utils/UUPSUpgradeable.sol\":4728:4758  ERC1967Utils.getImplementation */\n      tag_309\n        /* \"@openzeppelin/contracts-upgradeable/proxy/utils/UUPSUpgradeable.sol\":4728:4760  ERC1967Utils.getImplementation() */\n      jump\t// in\n    tag_308:\n        /* \"@openzeppelin/contracts-upgradeable/proxy/utils/UUPSUpgradeable.sol\":4728:4770  ERC1967Utils.getImplementation() != __self */\n      0xffffffffffffffffffffffffffffffffffffffff\n      and\n      eq\n      iszero\n        /* \"@openzeppelin/contracts-upgradeable/proxy/utils/UUPSUpgradeable.sol\":4650:4770  address(this) == __self || // Must be called through delegatecall... */\n    tag_307:\n        /* \"@openzeppelin/contracts-upgradeable/proxy/utils/UUPSUpgradeable.sol\":4633:4884  if (... */\n      iszero\n      tag_310\n      jumpi\n        /* \"@openzeppelin/contracts-upgradeable/proxy/utils/UUPSUpgradeable.sol\":4844:4873  UUPSUnauthorizedCallContext() */\n      mload(0x40)\n      0xe07c8dba00000000000000000000000000000000000000000000000000000000\n      dup2\n      mstore\n      0x04\n      add\n      mload(0x40)\n      dup1\n      swap2\n      sub\n      swap1\n      revert\n        /* \"@openzeppelin/contracts-upgradeable/proxy/utils/UUPSUpgradeable.sol\":4633:4884  if (... */\n    tag_310:\n        /* \"@openzeppelin/contracts-upgradeable/proxy/utils/UUPSUpgradeable.sol\":4578:4890  function _checkProxy() internal view virtual {... */\n      jump\t// out\n        /* \"src/Subscribe.sol\":1830:1921  function _authorizeUpgrade(address newImplementation) internal view override onlyOwner() {} */\n    tag_227:\n        /* \"@openzeppelin/contracts-upgradeable/access/OwnableUpgradeable.sol\":2334:2347  _checkOwner() */\n      tag_312\n        /* \"@openzeppelin/contracts-upgradeable/access/OwnableUpgradeable.sol\":2334:2345  _checkOwner */\n      tag_220\n        /* \"@openzeppelin/contracts-upgradeable/access/OwnableUpgradeable.sol\":2334:2347  _checkOwner() */\n      jump\t// in\n    tag_312:\n        /* \"src/Subscribe.sol\":1830:1921  function _authorizeUpgrade(address newImplementation) internal view override onlyOwner() {} */\n      pop\n      jump\t// out\n        /* \"@openzeppelin/contracts-upgradeable/proxy/utils/UUPSUpgradeable.sol\":6032:6570  function _upgradeToAndCallUUPS(address newImplementation, bytes memory data) private {... */\n    tag_229:\n        /* \"@openzeppelin/contracts-upgradeable/proxy/utils/UUPSUpgradeable.sol\":6149:6166  newImplementation */\n      dup2\n        /* \"@openzeppelin/contracts-upgradeable/proxy/utils/UUPSUpgradeable.sol\":6131:6181  IERC1822Proxiable(newImplementation).proxiableUUID */\n      0xffffffffffffffffffffffffffffffffffffffff\n      and\n      0x52d1902d\n        /* \"@openzeppelin/contracts-upgradeable/proxy/utils/UUPSUpgradeable.sol\":6131:6183  IERC1822Proxiable(newImplementation).proxiableUUID() */\n      mload(0x40)\n      dup2\n      0xffffffff\n      and\n      0xe0\n      shl\n      dup2\n      mstore\n      0x04\n      add\n      0x20\n      mload(0x40)\n      dup1\n      dup4\n      sub\n      dup2\n      dup7\n      gas\n      staticcall\n      swap3\n      pop\n      pop\n      pop\n      dup1\n      iszero\n      tag_315\n      jumpi\n      pop\n      mload(0x40)\n      returndatasize\n      not(0x1f)\n      0x1f\n      dup3\n      add\n      and\n      dup3\n      add\n      dup1\n      0x40\n      mstore\n      pop\n      dup2\n      add\n      swap1\n      tag_316\n      swap2\n      swap1\n      tag_317\n      jump\t// in\n    tag_316:\n      0x01\n    tag_315:\n        /* \"@openzeppelin/contracts-upgradeable/proxy/utils/UUPSUpgradeable.sol\":6127:6564  try IERC1822Proxiable(newImplementation).proxiableUUID() returns (bytes32 slot) {... */\n      tag_318\n      jumpi\n        /* \"@openzeppelin/contracts-upgradeable/proxy/utils/UUPSUpgradeable.sol\":6535:6552  newImplementation */\n      dup2\n        /* \"@openzeppelin/contracts-upgradeable/proxy/utils/UUPSUpgradeable.sol\":6493:6553  ERC1967Utils.ERC1967InvalidImplementation(newImplementation) */\n      mload(0x40)\n      0x4c9c8ce300000000000000000000000000000000000000000000000000000000\n      dup2\n      mstore\n      0x04\n      add\n      tag_322\n      swap2\n      swap1\n      tag_40\n      jump\t// in\n    tag_322:\n      mload(0x40)\n      dup1\n      swap2\n      sub\n      swap1\n      revert\n        /* \"@openzeppelin/contracts-upgradeable/proxy/utils/UUPSUpgradeable.sol\":6127:6564  try IERC1822Proxiable(newImplementation).proxiableUUID() returns (bytes32 slot) {... */\n    tag_318:\n        /* \"@openzeppelin/contracts/proxy/ERC1967/ERC1967Utils.sol\":811:877  0x360894a13ba1a3210667c828492db98dca3e2076cc3735a920a3ca505d382bbc */\n      0x360894a13ba1a3210667c828492db98dca3e2076cc3735a920a3ca505d382bbc\n        /* \"@openzeppelin/contracts-upgradeable/proxy/utils/UUPSUpgradeable.sol\":6233:6265  ERC1967Utils.IMPLEMENTATION_SLOT */\n      0x00\n      shl\n        /* \"@openzeppelin/contracts-upgradeable/proxy/utils/UUPSUpgradeable.sol\":6225:6229  slot */\n      dup2\n        /* \"@openzeppelin/contracts-upgradeable/proxy/utils/UUPSUpgradeable.sol\":6225:6265  slot != ERC1967Utils.IMPLEMENTATION_SLOT */\n      eq\n        /* \"@openzeppelin/contracts-upgradeable/proxy/utils/UUPSUpgradeable.sol\":6221:6341  if (slot != ERC1967Utils.IMPLEMENTATION_SLOT) {... */\n      tag_324\n      jumpi\n        /* \"@openzeppelin/contracts-upgradeable/proxy/utils/UUPSUpgradeable.sol\":6321:6325  slot */\n      dup1\n        /* \"@openzeppelin/contracts-upgradeable/proxy/utils/UUPSUpgradeable.sol\":6292:6326  UUPSUnsupportedProxiableUUID(slot) */\n      mload(0x40)\n      0xaa1d49a400000000000000000000000000000000000000000000000000000000\n      dup2\n      mstore\n      0x04\n      add\n      tag_325\n      swap2\n      swap1\n      tag_89\n      jump\t// in\n    tag_325:\n      mload(0x40)\n      dup1\n      swap2\n      sub\n      swap1\n      revert\n        /* \"@openzeppelin/contracts-upgradeable/proxy/utils/UUPSUpgradeable.sol\":6221:6341  if (slot != ERC1967Utils.IMPLEMENTATION_SLOT) {... */\n    tag_324:\n        /* \"@openzeppelin/contracts-upgradeable/proxy/utils/UUPSUpgradeable.sol\":6354:6408  ERC1967Utils.upgradeToAndCall(newImplementation, data) */\n      tag_326\n        /* \"@openzeppelin/contracts-upgradeable/proxy/utils/UUPSUpgradeable.sol\":6384:6401  newImplementation */\n      dup4\n        /* \"@openzeppelin/contracts-upgradeable/proxy/utils/UUPSUpgradeable.sol\":6403:6407  data */\n      dup4\n        /* \"@openzeppelin/contracts-upgradeable/proxy/utils/UUPSUpgradeable.sol\":6354:6383  ERC1967Utils.upgradeToAndCall */\n      tag_327\n        /* \"@openzeppelin/contracts-upgradeable/proxy/utils/UUPSUpgradeable.sol\":6354:6408  ERC1967Utils.upgradeToAndCall(newImplementation, data) */\n      jump\t// in\n    tag_326:\n        /* \"@openzeppelin/contracts-upgradeable/proxy/utils/UUPSUpgradeable.sol\":6184:6419  returns (bytes32 slot) {... */\n      pop\n        /* \"@openzeppelin/contracts-upgradeable/proxy/utils/UUPSUpgradeable.sol\":6032:6570  function _upgradeToAndCallUUPS(address newImplementation, bytes memory data) private {... */\n      pop\n      pop\n      jump\t// out\n        /* \"@openzeppelin/contracts-upgradeable/proxy/utils/UUPSUpgradeable.sol\":5007:5220  function _checkNotDelegated() internal view virtual {... */\n    tag_232:\n        /* \"@openzeppelin/contracts-upgradeable/proxy/utils/UUPSUpgradeable.sol\":5090:5096  __self */\n      immutable(\"0x4ce4dab4689da140a0c12de1a6af6b8f679594aeb723205f513e052d27f5b26f\")\n        /* \"@openzeppelin/contracts-upgradeable/proxy/utils/UUPSUpgradeable.sol\":5073:5096  address(this) != __self */\n      0xffffffffffffffffffffffffffffffffffffffff\n      and\n        /* \"@openzeppelin/contracts-upgradeable/proxy/utils/UUPSUpgradeable.sol\":5081:5085  this */\n      address\n        /* \"@openzeppelin/contracts-upgradeable/proxy/utils/UUPSUpgradeable.sol\":5073:5096  address(this) != __self */\n      0xffffffffffffffffffffffffffffffffffffffff\n      and\n      eq\n        /* \"@openzeppelin/contracts-upgradeable/proxy/utils/UUPSUpgradeable.sol\":5069:5214  if (address(this) != __self) {... */\n      tag_329\n      jumpi\n        /* \"@openzeppelin/contracts-upgradeable/proxy/utils/UUPSUpgradeable.sol\":5174:5203  UUPSUnauthorizedCallContext() */\n      mload(0x40)\n      0xe07c8dba00000000000000000000000000000000000000000000000000000000\n      dup2\n      mstore\n      0x04\n      add\n      mload(0x40)\n      dup1\n      swap2\n      sub\n      swap1\n      revert\n        /* \"@openzeppelin/contracts-upgradeable/proxy/utils/UUPSUpgradeable.sol\":5069:5214  if (address(this) != __self) {... */\n    tag_329:\n        /* \"@openzeppelin/contracts-upgradeable/proxy/utils/UUPSUpgradeable.sol\":5007:5220  function _checkNotDelegated() internal view virtual {... */\n      jump\t// out\n        /* \"@openzeppelin/contracts-upgradeable/access/OwnableUpgradeable.sol\":3774:4022  function _transferOwnership(address newOwner) internal virtual {... */\n    tag_241:\n        /* \"@openzeppelin/contracts-upgradeable/access/OwnableUpgradeable.sol\":3847:3871  OwnableStorage storage $ */\n      0x00\n        /* \"@openzeppelin/contracts-upgradeable/access/OwnableUpgradeable.sol\":3874:3894  _getOwnableStorage() */\n      tag_331\n        /* \"@openzeppelin/contracts-upgradeable/access/OwnableUpgradeable.sol\":3874:3892  _getOwnableStorage */\n      tag_244\n        /* \"@openzeppelin/contracts-upgradeable/access/OwnableUpgradeable.sol\":3874:3894  _getOwnableStorage() */\n      jump\t// in\n    tag_331:\n        /* \"@openzeppelin/contracts-upgradeable/access/OwnableUpgradeable.sol\":3847:3894  OwnableStorage storage $ = _getOwnableStorage() */\n      swap1\n      pop\n        /* \"@openzeppelin/contracts-upgradeable/access/OwnableUpgradeable.sol\":3904:3920  address oldOwner */\n      0x00\n        /* \"@openzeppelin/contracts-upgradeable/access/OwnableUpgradeable.sol\":3923:3924  $ */\n      dup2\n        /* \"@openzeppelin/contracts-upgradeable/access/OwnableUpgradeable.sol\":3923:3931  $._owner */\n      0x00\n      add\n      0x00\n      swap1\n      sload\n      swap1\n      0x0100\n      exp\n      swap1\n      div\n      0xffffffffffffffffffffffffffffffffffffffff\n      and\n        /* \"@openzeppelin/contracts-upgradeable/access/OwnableUpgradeable.sol\":3904:3931  address oldOwner = $._owner */\n      swap1\n      pop\n        /* \"@openzeppelin/contracts-upgradeable/access/OwnableUpgradeable.sol\":3952:3960  newOwner */\n      dup3\n        /* \"@openzeppelin/contracts-upgradeable/access/OwnableUpgradeable.sol\":3941:3942  $ */\n      dup3\n        /* \"@openzeppelin/contracts-upgradeable/access/OwnableUpgradeable.sol\":3941:3949  $._owner */\n      0x00\n      add\n      0x00\n        /* \"@openzeppelin/contracts-upgradeable/access/OwnableUpgradeable.sol\":3941:3960  $._owner = newOwner */\n      0x0100\n      exp\n      dup2\n      sload\n      dup2\n      0xffffffffffffffffffffffffffffffffffffffff\n      mul\n      not\n      and\n      swap1\n      dup4\n      0xffffffffffffffffffffffffffffffffffffffff\n      and\n      mul\n      or\n      swap1\n      sstore\n      pop\n        /* \"@openzeppelin/contracts-upgradeable/access/OwnableUpgradeable.sol\":4006:4014  newOwner */\n      dup3\n        /* \"@openzeppelin/contracts-upgradeable/access/OwnableUpgradeable.sol\":3975:4015  OwnershipTransferred(oldOwner, newOwner) */\n      0xffffffffffffffffffffffffffffffffffffffff\n      and\n        /* \"@openzeppelin/contracts-upgradeable/access/OwnableUpgradeable.sol\":3996:4004  oldOwner */\n      dup2\n        /* \"@openzeppelin/contracts-upgradeable/access/OwnableUpgradeable.sol\":3975:4015  OwnershipTransferred(oldOwner, newOwner) */\n      0xffffffffffffffffffffffffffffffffffffffff\n      and\n      0x8be0079c531659141344cd1fd0a4f28419497f9722a3daafe3b4186f6b6457e0\n      mload(0x40)\n      mload(0x40)\n      dup1\n      swap2\n      sub\n      swap1\n      log3\n        /* \"@openzeppelin/contracts-upgradeable/access/OwnableUpgradeable.sol\":3837:4022  {... */\n      pop\n      pop\n        /* \"@openzeppelin/contracts-upgradeable/access/OwnableUpgradeable.sol\":3774:4022  function _transferOwnership(address newOwner) internal virtual {... */\n      pop\n      jump\t// out\n        /* \"@openzeppelin/contracts-upgradeable/access/OwnableUpgradeable.sol\":1192:1351  function _getOwnableStorage() private pure returns (OwnableStorage storage $) {... */\n    tag_244:\n        /* \"@openzeppelin/contracts-upgradeable/access/OwnableUpgradeable.sol\":1244:1268  OwnableStorage storage $ */\n      0x00\n        /* \"@openzeppelin/contracts-upgradeable/access/OwnableUpgradeable.sol\":1313:1335  OwnableStorageLocation */\n      0x9016d09d72d40fdae2fd8ceac6b6234c7706214fd39c1cd1e609a0528c199300\n        /* \"@openzeppelin/contracts-upgradeable/access/OwnableUpgradeable.sol\":1303:1335  $.slot := OwnableStorageLocation */\n      swap1\n      pop\n        /* \"@openzeppelin/contracts-upgradeable/access/OwnableUpgradeable.sol\":1192:1351  function _getOwnableStorage() private pure returns (OwnableStorage storage $) {... */\n      swap1\n      jump\t// out\n        /* \"@openzeppelin/contracts-upgradeable/proxy/utils/Initializable.sol\":9071:9276  function _getInitializableStorage() private pure returns (InitializableStorage storage $) {... */\n    tag_260:\n        /* \"@openzeppelin/contracts-upgradeable/proxy/utils/Initializable.sol\":9129:9159  InitializableStorage storage $ */\n      0x00\n        /* \"@openzeppelin/contracts-upgradeable/proxy/utils/Initializable.sol\":9171:9183  bytes32 slot */\n      dup1\n        /* \"@openzeppelin/contracts-upgradeable/proxy/utils/Initializable.sol\":9186:9213  _initializableStorageSlot() */\n      tag_334\n        /* \"@openzeppelin/contracts-upgradeable/proxy/utils/Initializable.sol\":9186:9211  _initializableStorageSlot */\n      tag_335\n        /* \"@openzeppelin/contracts-upgradeable/proxy/utils/Initializable.sol\":9186:9213  _initializableStorageSlot() */\n      jump\t// in\n    tag_334:\n        /* \"@openzeppelin/contracts-upgradeable/proxy/utils/Initializable.sol\":9171:9213  bytes32 slot = _initializableStorageSlot() */\n      swap1\n      pop\n        /* \"@openzeppelin/contracts-upgradeable/proxy/utils/Initializable.sol\":9256:9260  slot */\n      dup1\n        /* \"@openzeppelin/contracts-upgradeable/proxy/utils/Initializable.sol\":9246:9260  $.slot := slot */\n      swap2\n      pop\n        /* \"@openzeppelin/contracts-upgradeable/proxy/utils/Initializable.sol\":9232:9270  {... */\n      pop\n        /* \"@openzeppelin/contracts-upgradeable/proxy/utils/Initializable.sol\":9071:9276  function _getInitializableStorage() private pure returns (InitializableStorage storage $) {... */\n      swap1\n      jump\t// out\n        /* \"@openzeppelin/contracts-upgradeable/utils/ContextUpgradeable.sol\":887:983  function _msgSender() internal view virtual returns (address) {... */\n    tag_269:\n        /* \"@openzeppelin/contracts-upgradeable/utils/ContextUpgradeable.sol\":940:947  address */\n      0x00\n        /* \"@openzeppelin/contracts-upgradeable/utils/ContextUpgradeable.sol\":966:976  msg.sender */\n      caller\n        /* \"@openzeppelin/contracts-upgradeable/utils/ContextUpgradeable.sol\":959:976  return msg.sender */\n      swap1\n      pop\n        /* \"@openzeppelin/contracts-upgradeable/utils/ContextUpgradeable.sol\":887:983  function _msgSender() internal view virtual returns (address) {... */\n      swap1\n      jump\t// out\n        /* \"@openzeppelin/contracts-upgradeable/access/OwnableUpgradeable.sol\":1980:2215  function __Ownable_init_unchained(address initialOwner) internal onlyInitializing {... */\n    tag_270:\n        /* \"@openzeppelin/contracts-upgradeable/proxy/utils/Initializable.sol\":6929:6949  _checkInitializing() */\n      tag_338\n        /* \"@openzeppelin/contracts-upgradeable/proxy/utils/Initializable.sol\":6929:6947  _checkInitializing */\n      tag_339\n        /* \"@openzeppelin/contracts-upgradeable/proxy/utils/Initializable.sol\":6929:6949  _checkInitializing() */\n      jump\t// in\n    tag_338:\n        /* \"@openzeppelin/contracts-upgradeable/access/OwnableUpgradeable.sol\":2100:2101  0 */\n      0x00\n        /* \"@openzeppelin/contracts-upgradeable/access/OwnableUpgradeable.sol\":2076:2102  initialOwner == address(0) */\n      0xffffffffffffffffffffffffffffffffffffffff\n      and\n        /* \"@openzeppelin/contracts-upgradeable/access/OwnableUpgradeable.sol\":2076:2088  initialOwner */\n      dup2\n        /* \"@openzeppelin/contracts-upgradeable/access/OwnableUpgradeable.sol\":2076:2102  initialOwner == address(0) */\n      0xffffffffffffffffffffffffffffffffffffffff\n      and\n      sub\n        /* \"@openzeppelin/contracts-upgradeable/access/OwnableUpgradeable.sol\":2072:2167  if (initialOwner == address(0)) {... */\n      tag_341\n      jumpi\n        /* \"@openzeppelin/contracts-upgradeable/access/OwnableUpgradeable.sol\":2153:2154  0 */\n      0x00\n        /* \"@openzeppelin/contracts-upgradeable/access/OwnableUpgradeable.sol\":2125:2156  OwnableInvalidOwner(address(0)) */\n      mload(0x40)\n      0x1e4fbdf700000000000000000000000000000000000000000000000000000000\n      dup2\n      mstore\n      0x04\n      add\n      tag_342\n      swap2\n      swap1\n      tag_40\n      jump\t// in\n    tag_342:\n      mload(0x40)\n      dup1\n      swap2\n      sub\n      swap1\n      revert\n        /* \"@openzeppelin/contracts-upgradeable/access/OwnableUpgradeable.sol\":2072:2167  if (initialOwner == address(0)) {... */\n    tag_341:\n        /* \"@openzeppelin/contracts-upgradeable/access/OwnableUpgradeable.sol\":2176:2208  _transferOwnership(initialOwner) */\n      tag_343\n        /* \"@openzeppelin/contracts-upgradeable/access/OwnableUpgradeable.sol\":2195:2207  initialOwner */\n      dup2\n        /* \"@openzeppelin/contracts-upgradeable/access/OwnableUpgradeable.sol\":2176:2194  _transferOwnership */\n      tag_241\n        /* \"@openzeppelin/contracts-upgradeable/access/OwnableUpgradeable.sol\":2176:2208  _transferOwnership(initialOwner) */\n      jump\t// in\n    tag_343:\n        /* \"@openzeppelin/contracts-upgradeable/access/OwnableUpgradeable.sol\":1980:2215  function __Ownable_init_unchained(address initialOwner) internal onlyInitializing {... */\n      pop\n      jump\t// out\n        /* \"@openzeppelin/contracts-upgradeable/proxy/utils/UUPSUpgradeable.sol\":3043:3120  function __UUPSUpgradeable_init_unchained() internal onlyInitializing {... */\n    tag_272:\n        /* \"@openzeppelin/contracts-upgradeable/proxy/utils/Initializable.sol\":6929:6949  _checkInitializing() */\n      tag_345\n        /* \"@openzeppelin/contracts-upgradeable/proxy/utils/Initializable.sol\":6929:6947  _checkInitializing */\n      tag_339\n        /* \"@openzeppelin/contracts-upgradeable/proxy/utils/Initializable.sol\":6929:6949  _checkInitializing() */\n      jump\t// in\n    tag_345:\n        /* \"@openzeppelin/contracts-upgradeable/proxy/utils/UUPSUpgradeable.sol\":3043:3120  function __UUPSUpgradeable_init_unchained() internal onlyInitializing {... */\n      jump\t// out\n        /* \"@openzeppelin/contracts/proxy/ERC1967/ERC1967Utils.sol\":1441:1579  function getImplementation() internal view returns (address) {... */\n    tag_309:\n        /* \"@openzeppelin/contracts/proxy/ERC1967/ERC1967Utils.sol\":1493:1500  address */\n      0x00\n        /* \"@openzeppelin/contracts/proxy/ERC1967/ERC1967Utils.sol\":1519:1566  StorageSlot.getAddressSlot(IMPLEMENTATION_SLOT) */\n      tag_348\n        /* \"@openzeppelin/contracts/proxy/ERC1967/ERC1967Utils.sol\":811:877  0x360894a13ba1a3210667c828492db98dca3e2076cc3735a920a3ca505d382bbc */\n      0x360894a13ba1a3210667c828492db98dca3e2076cc3735a920a3ca505d382bbc\n        /* \"@openzeppelin/contracts/proxy/ERC1967/ERC1967Utils.sol\":1546:1565  IMPLEMENTATION_SLOT */\n      0x00\n      shl\n        /* \"@openzeppelin/contracts/proxy/ERC1967/ERC1967Utils.sol\":1519:1545  StorageSlot.getAddressSlot */\n      tag_349\n        /* \"@openzeppelin/contracts/proxy/ERC1967/ERC1967Utils.sol\":1519:1566  StorageSlot.getAddressSlot(IMPLEMENTATION_SLOT) */\n      jump\t// in\n    tag_348:\n        /* \"@openzeppelin/contracts/proxy/ERC1967/ERC1967Utils.sol\":1519:1572  StorageSlot.getAddressSlot(IMPLEMENTATION_SLOT).value */\n      0x00\n      add\n      0x00\n      swap1\n      sload\n      swap1\n      0x0100\n      exp\n      swap1\n      div\n      0xffffffffffffffffffffffffffffffffffffffff\n      and\n        /* \"@openzeppelin/contracts/proxy/ERC1967/ERC1967Utils.sol\":1512:1572  return StorageSlot.getAddressSlot(IMPLEMENTATION_SLOT).value */\n      swap1\n      pop\n        /* \"@openzeppelin/contracts/proxy/ERC1967/ERC1967Utils.sol\":1441:1579  function getImplementation() internal view returns (address) {... */\n      swap1\n      jump\t// out\n        /* \"@openzeppelin/contracts/proxy/ERC1967/ERC1967Utils.sol\":2264:2608  function upgradeToAndCall(address newImplementation, bytes memory data) internal {... */\n    tag_327:\n        /* \"@openzeppelin/contracts/proxy/ERC1967/ERC1967Utils.sol\":2355:2392  _setImplementation(newImplementation) */\n      tag_351\n        /* \"@openzeppelin/contracts/proxy/ERC1967/ERC1967Utils.sol\":2374:2391  newImplementation */\n      dup3\n        /* \"@openzeppelin/contracts/proxy/ERC1967/ERC1967Utils.sol\":2355:2373  _setImplementation */\n      tag_352\n        /* \"@openzeppelin/contracts/proxy/ERC1967/ERC1967Utils.sol\":2355:2392  _setImplementation(newImplementation) */\n      jump\t// in\n    tag_351:\n        /* \"@openzeppelin/contracts/proxy/ERC1967/ERC1967Utils.sol\":2425:2442  newImplementation */\n      dup2\n        /* \"@openzeppelin/contracts/proxy/ERC1967/ERC1967Utils.sol\":2407:2443  IERC1967.Upgraded(newImplementation) */\n      0xffffffffffffffffffffffffffffffffffffffff\n      and\n      0xbc7cd75a20ee27fd9adebab32041f755214dbc6bffa90cc0225b39da2e5c2d3b\n      mload(0x40)\n      mload(0x40)\n      dup1\n      swap2\n      sub\n      swap1\n      log2\n        /* \"@openzeppelin/contracts/proxy/ERC1967/ERC1967Utils.sol\":2472:2473  0 */\n      0x00\n        /* \"@openzeppelin/contracts/proxy/ERC1967/ERC1967Utils.sol\":2458:2462  data */\n      dup2\n        /* \"@openzeppelin/contracts/proxy/ERC1967/ERC1967Utils.sol\":2458:2469  data.length */\n      mload\n        /* \"@openzeppelin/contracts/proxy/ERC1967/ERC1967Utils.sol\":2458:2473  data.length > 0 */\n      gt\n        /* \"@openzeppelin/contracts/proxy/ERC1967/ERC1967Utils.sol\":2454:2602  if (data.length > 0) {... */\n      iszero\n      tag_353\n      jumpi\n        /* \"@openzeppelin/contracts/proxy/ERC1967/ERC1967Utils.sol\":2489:2542  Address.functionDelegateCall(newImplementation, data) */\n      tag_354\n        /* \"@openzeppelin/contracts/proxy/ERC1967/ERC1967Utils.sol\":2518:2535  newImplementation */\n      dup3\n        /* \"@openzeppelin/contracts/proxy/ERC1967/ERC1967Utils.sol\":2537:2541  data */\n      dup3\n        /* \"@openzeppelin/contracts/proxy/ERC1967/ERC1967Utils.sol\":2489:2517  Address.functionDelegateCall */\n      tag_355\n        /* \"@openzeppelin/contracts/proxy/ERC1967/ERC1967Utils.sol\":2489:2542  Address.functionDelegateCall(newImplementation, data) */\n      jump\t// in\n    tag_354:\n      pop\n        /* \"@openzeppelin/contracts/proxy/ERC1967/ERC1967Utils.sol\":2454:2602  if (data.length > 0) {... */\n      jump(tag_356)\n    tag_353:\n        /* \"@openzeppelin/contracts/proxy/ERC1967/ERC1967Utils.sol\":2573:2591  _checkNonPayable() */\n      tag_357\n        /* \"@openzeppelin/contracts/proxy/ERC1967/ERC1967Utils.sol\":2573:2589  _checkNonPayable */\n      tag_358\n        /* \"@openzeppelin/contracts/proxy/ERC1967/ERC1967Utils.sol\":2573:2591  _checkNonPayable() */\n      jump\t// in\n    tag_357:\n        /* \"@openzeppelin/contracts/proxy/ERC1967/ERC1967Utils.sol\":2454:2602  if (data.length > 0) {... */\n    tag_356:\n        /* \"@openzeppelin/contracts/proxy/ERC1967/ERC1967Utils.sol\":2264:2608  function upgradeToAndCall(address newImplementation, bytes memory data) internal {... */\n      pop\n      pop\n      jump\t// out\n        /* \"@openzeppelin/contracts-upgradeable/proxy/utils/Initializable.sol\":8819:8941  function _initializableStorageSlot() internal pure virtual returns (bytes32) {... */\n    tag_335:\n        /* \"@openzeppelin/contracts-upgradeable/proxy/utils/Initializable.sol\":8887:8894  bytes32 */\n      0x00\n        /* \"@openzeppelin/contracts-upgradeable/proxy/utils/Initializable.sol\":3147:3213  0xf0c57e16840df040f15088dc2f81fe391c3923bec73e23a9662efc9c229c6a00 */\n      0xf0c57e16840df040f15088dc2f81fe391c3923bec73e23a9662efc9c229c6a00\n        /* \"@openzeppelin/contracts-upgradeable/proxy/utils/Initializable.sol\":8913:8934  INITIALIZABLE_STORAGE */\n      0x00\n      shl\n        /* \"@openzeppelin/contracts-upgradeable/proxy/utils/Initializable.sol\":8906:8934  return INITIALIZABLE_STORAGE */\n      swap1\n      pop\n        /* \"@openzeppelin/contracts-upgradeable/proxy/utils/Initializable.sol\":8819:8941  function _initializableStorageSlot() internal pure virtual returns (bytes32) {... */\n      swap1\n      jump\t// out\n        /* \"@openzeppelin/contracts-upgradeable/proxy/utils/Initializable.sol\":7082:7223  function _checkInitializing() internal view virtual {... */\n    tag_339:\n        /* \"@openzeppelin/contracts-upgradeable/proxy/utils/Initializable.sol\":7149:7166  _isInitializing() */\n      tag_361\n        /* \"@openzeppelin/contracts-upgradeable/proxy/utils/Initializable.sol\":7149:7164  _isInitializing */\n      tag_362\n        /* \"@openzeppelin/contracts-upgradeable/proxy/utils/Initializable.sol\":7149:7166  _isInitializing() */\n      jump\t// in\n    tag_361:\n        /* \"@openzeppelin/contracts-upgradeable/proxy/utils/Initializable.sol\":7144:7217  if (!_isInitializing()) {... */\n      tag_363\n      jumpi\n        /* \"@openzeppelin/contracts-upgradeable/proxy/utils/Initializable.sol\":7189:7206  NotInitializing() */\n      mload(0x40)\n      0xd7e6bcf800000000000000000000000000000000000000000000000000000000\n      dup2\n      mstore\n      0x04\n      add\n      mload(0x40)\n      dup1\n      swap2\n      sub\n      swap1\n      revert\n        /* \"@openzeppelin/contracts-upgradeable/proxy/utils/Initializable.sol\":7144:7217  if (!_isInitializing()) {... */\n    tag_363:\n        /* \"@openzeppelin/contracts-upgradeable/proxy/utils/Initializable.sol\":7082:7223  function _checkInitializing() internal view virtual {... */\n      jump\t// out\n        /* \"@openzeppelin/contracts/utils/StorageSlot.sol\":1899:2062  function getAddressSlot(bytes32 slot) internal pure returns (AddressSlot storage r) {... */\n    tag_349:\n        /* \"@openzeppelin/contracts/utils/StorageSlot.sol\":1960:1981  AddressSlot storage r */\n      0x00\n        /* \"@openzeppelin/contracts/utils/StorageSlot.sol\":2042:2046  slot */\n      dup2\n        /* \"@openzeppelin/contracts/utils/StorageSlot.sol\":2032:2046  r.slot := slot */\n      swap1\n      pop\n        /* \"@openzeppelin/contracts/utils/StorageSlot.sol\":1899:2062  function getAddressSlot(bytes32 slot) internal pure returns (AddressSlot storage r) {... */\n      swap2\n      swap1\n      pop\n      jump\t// out\n        /* \"@openzeppelin/contracts/proxy/ERC1967/ERC1967Utils.sol\":1671:1952  function _setImplementation(address newImplementation) private {... */\n    tag_352:\n        /* \"@openzeppelin/contracts/proxy/ERC1967/ERC1967Utils.sol\":1781:1782  0 */\n      0x00\n        /* \"@openzeppelin/contracts/proxy/ERC1967/ERC1967Utils.sol\":1748:1765  newImplementation */\n      dup2\n        /* \"@openzeppelin/contracts/proxy/ERC1967/ERC1967Utils.sol\":1748:1777  newImplementation.code.length */\n      0xffffffffffffffffffffffffffffffffffffffff\n      and\n      extcodesize\n        /* \"@openzeppelin/contracts/proxy/ERC1967/ERC1967Utils.sol\":1748:1782  newImplementation.code.length == 0 */\n      sub\n        /* \"@openzeppelin/contracts/proxy/ERC1967/ERC1967Utils.sol\":1744:1863  if (newImplementation.code.length == 0) {... */\n      tag_366\n      jumpi\n        /* \"@openzeppelin/contracts/proxy/ERC1967/ERC1967Utils.sol\":1834:1851  newImplementation */\n      dup1\n        /* \"@openzeppelin/contracts/proxy/ERC1967/ERC1967Utils.sol\":1805:1852  ERC1967InvalidImplementation(newImplementation) */\n      mload(0x40)\n      0x4c9c8ce300000000000000000000000000000000000000000000000000000000\n      dup2\n      mstore\n      0x04\n      add\n      tag_367\n      swap2\n      swap1\n      tag_40\n      jump\t// in\n    tag_367:\n      mload(0x40)\n      dup1\n      swap2\n      sub\n      swap1\n      revert\n        /* \"@openzeppelin/contracts/proxy/ERC1967/ERC1967Utils.sol\":1744:1863  if (newImplementation.code.length == 0) {... */\n    tag_366:\n        /* \"@openzeppelin/contracts/proxy/ERC1967/ERC1967Utils.sol\":1928:1945  newImplementation */\n      dup1\n        /* \"@openzeppelin/contracts/proxy/ERC1967/ERC1967Utils.sol\":1872:1919  StorageSlot.getAddressSlot(IMPLEMENTATION_SLOT) */\n      tag_368\n        /* \"@openzeppelin/contracts/proxy/ERC1967/ERC1967Utils.sol\":811:877  0x360894a13ba1a3210667c828492db98dca3e2076cc3735a920a3ca505d382bbc */\n      0x360894a13ba1a3210667c828492db98dca3e2076cc3735a920a3ca505d382bbc\n        /* \"@openzeppelin/contracts/proxy/ERC1967/ERC1967Utils.sol\":1899:1918  IMPLEMENTATION_SLOT */\n      0x00\n      shl\n        /* \"@openzeppelin/contracts/proxy/ERC1967/ERC1967Utils.sol\":1872:1898  StorageSlot.getAddressSlot */\n      tag_349\n        /* \"@openzeppelin/contracts/proxy/ERC1967/ERC1967Utils.sol\":1872:1919  StorageSlot.getAddressSlot(IMPLEMENTATION_SLOT) */\n      jump\t// in\n    tag_368:\n        /* \"@openzeppelin/contracts/proxy/ERC1967/ERC1967Utils.sol\":1872:1925  StorageSlot.getAddressSlot(IMPLEMENTATION_SLOT).value */\n      0x00\n      add\n      0x00\n        /* \"@openzeppelin/contracts/proxy/ERC1967/ERC1967Utils.sol\":1872:1945  StorageSlot.getAddressSlot(IMPLEMENTATION_SLOT).value = newImplementation */\n      0x0100\n      exp\n      dup2\n      sload\n      dup2\n      0xffffffffffffffffffffffffffffffffffffffff\n      mul\n      not\n      and\n      swap1\n      dup4\n      0xffffffffffffffffffffffffffffffffffffffff\n      and\n      mul\n      or\n      swap1\n      sstore\n      pop\n        /* \"@openzeppelin/contracts/proxy/ERC1967/ERC1967Utils.sol\":1671:1952  function _setImplementation(address newImplementation) private {... */\n      pop\n      jump\t// out\n        /* \"@openzeppelin/contracts/utils/Address.sol\":3916:4169  function functionDelegateCall(address target, bytes memory data) internal returns (bytes memory) {... */\n    tag_355:\n        /* \"@openzeppelin/contracts/utils/Address.sol\":3999:4011  bytes memory */\n      0x60\n        /* \"@openzeppelin/contracts/utils/Address.sol\":4024:4036  bool success */\n      0x00\n        /* \"@openzeppelin/contracts/utils/Address.sol\":4038:4061  bytes memory returndata */\n      dup1\n        /* \"@openzeppelin/contracts/utils/Address.sol\":4065:4071  target */\n      dup5\n        /* \"@openzeppelin/contracts/utils/Address.sol\":4065:4084  target.delegatecall */\n      0xffffffffffffffffffffffffffffffffffffffff\n      and\n        /* \"@openzeppelin/contracts/utils/Address.sol\":4085:4089  data */\n      dup5\n        /* \"@openzeppelin/contracts/utils/Address.sol\":4065:4090  target.delegatecall(data) */\n      mload(0x40)\n      tag_370\n      swap2\n      swap1\n      tag_288\n      jump\t// in\n    tag_370:\n      0x00\n      mload(0x40)\n      dup1\n      dup4\n      sub\n      dup2\n      dup6\n      gas\n      delegatecall\n      swap2\n      pop\n      pop\n      returndatasize\n      dup1\n      0x00\n      dup2\n      eq\n      tag_373\n      jumpi\n      mload(0x40)\n      swap2\n      pop\n      and(add(returndatasize, 0x3f), not(0x1f))\n      dup3\n      add\n      0x40\n      mstore\n      returndatasize\n      dup3\n      mstore\n      returndatasize\n      0x00\n      0x20\n      dup5\n      add\n      returndatacopy\n      jump(tag_372)\n    tag_373:\n      0x60\n      swap2\n      pop\n    tag_372:\n      pop\n        /* \"@openzeppelin/contracts/utils/Address.sol\":4023:4090  (bool success, bytes memory returndata) = target.delegatecall(data) */\n      swap2\n      pop\n      swap2\n      pop\n        /* \"@openzeppelin/contracts/utils/Address.sol\":4107:4162  verifyCallResultFromTarget(target, success, returndata) */\n      tag_374\n        /* \"@openzeppelin/contracts/utils/Address.sol\":4134:4140  target */\n      dup6\n        /* \"@openzeppelin/contracts/utils/Address.sol\":4142:4149  success */\n      dup4\n        /* \"@openzeppelin/contracts/utils/Address.sol\":4151:4161  returndata */\n      dup4\n        /* \"@openzeppelin/contracts/utils/Address.sol\":4107:4133  verifyCallResultFromTarget */\n      tag_375\n        /* \"@openzeppelin/contracts/utils/Address.sol\":4107:4162  verifyCallResultFromTarget(target, success, returndata) */\n      jump\t// in\n    tag_374:\n        /* \"@openzeppelin/contracts/utils/Address.sol\":4100:4162  return verifyCallResultFromTarget(target, success, returndata) */\n      swap3\n      pop\n      pop\n      pop\n        /* \"@openzeppelin/contracts/utils/Address.sol\":3916:4169  function functionDelegateCall(address target, bytes memory data) internal returns (bytes memory) {... */\n      swap3\n      swap2\n      pop\n      pop\n      jump\t// out\n        /* \"@openzeppelin/contracts/proxy/ERC1967/ERC1967Utils.sol\":6113:6235  function _checkNonPayable() private {... */\n    tag_358:\n        /* \"@openzeppelin/contracts/proxy/ERC1967/ERC1967Utils.sol\":6175:6176  0 */\n      0x00\n        /* \"@openzeppelin/contracts/proxy/ERC1967/ERC1967Utils.sol\":6163:6172  msg.value */\n      callvalue\n        /* \"@openzeppelin/contracts/proxy/ERC1967/ERC1967Utils.sol\":6163:6176  msg.value > 0 */\n      gt\n        /* \"@openzeppelin/contracts/proxy/ERC1967/ERC1967Utils.sol\":6159:6229  if (msg.value > 0) {... */\n      iszero\n      tag_377\n      jumpi\n        /* \"@openzeppelin/contracts/proxy/ERC1967/ERC1967Utils.sol\":6199:6218  ERC1967NonPayable() */\n      mload(0x40)\n      0xb398979f00000000000000000000000000000000000000000000000000000000\n      dup2\n      mstore\n      0x04\n      add\n      mload(0x40)\n      dup1\n      swap2\n      sub\n      swap1\n      revert\n        /* \"@openzeppelin/contracts/proxy/ERC1967/ERC1967Utils.sol\":6159:6229  if (msg.value > 0) {... */\n    tag_377:\n        /* \"@openzeppelin/contracts/proxy/ERC1967/ERC1967Utils.sol\":6113:6235  function _checkNonPayable() private {... */\n      jump\t// out\n        /* \"@openzeppelin/contracts-upgradeable/proxy/utils/Initializable.sol\":8485:8605  function _isInitializing() internal view returns (bool) {... */\n    tag_362:\n        /* \"@openzeppelin/contracts-upgradeable/proxy/utils/Initializable.sol\":8535:8539  bool */\n      0x00\n        /* \"@openzeppelin/contracts-upgradeable/proxy/utils/Initializable.sol\":8558:8584  _getInitializableStorage() */\n      tag_379\n        /* \"@openzeppelin/contracts-upgradeable/proxy/utils/Initializable.sol\":8558:8582  _getInitializableStorage */\n      tag_260\n        /* \"@openzeppelin/contracts-upgradeable/proxy/utils/Initializable.sol\":8558:8584  _getInitializableStorage() */\n      jump\t// in\n    tag_379:\n        /* \"@openzeppelin/contracts-upgradeable/proxy/utils/Initializable.sol\":8558:8598  _getInitializableStorage()._initializing */\n      0x00\n      add\n      0x08\n      swap1\n      sload\n      swap1\n      0x0100\n      exp\n      swap1\n      div\n      0xff\n      and\n        /* \"@openzeppelin/contracts-upgradeable/proxy/utils/Initializable.sol\":8551:8598  return _getInitializableStorage()._initializing */\n      swap1\n      pop\n        /* \"@openzeppelin/contracts-upgradeable/proxy/utils/Initializable.sol\":8485:8605  function _isInitializing() internal view returns (bool) {... */\n      swap1\n      jump\t// out\n        /* \"@openzeppelin/contracts/utils/Address.sol\":4437:5019  function verifyCallResultFromTarget(... */\n    tag_375:\n        /* \"@openzeppelin/contracts/utils/Address.sol\":4581:4593  bytes memory */\n      0x60\n        /* \"@openzeppelin/contracts/utils/Address.sol\":4610:4617  success */\n      dup3\n        /* \"@openzeppelin/contracts/utils/Address.sol\":4605:5013  if (!success) {... */\n      tag_381\n      jumpi\n        /* \"@openzeppelin/contracts/utils/Address.sol\":4633:4652  _revert(returndata) */\n      tag_382\n        /* \"@openzeppelin/contracts/utils/Address.sol\":4641:4651  returndata */\n      dup3\n        /* \"@openzeppelin/contracts/utils/Address.sol\":4633:4640  _revert */\n      tag_383\n        /* \"@openzeppelin/contracts/utils/Address.sol\":4633:4652  _revert(returndata) */\n      jump\t// in\n    tag_382:\n        /* \"@openzeppelin/contracts/utils/Address.sol\":4605:5013  if (!success) {... */\n      jump(tag_384)\n    tag_381:\n        /* \"@openzeppelin/contracts/utils/Address.sol\":4878:4879  0 */\n      0x00\n        /* \"@openzeppelin/contracts/utils/Address.sol\":4857:4867  returndata */\n      dup3\n        /* \"@openzeppelin/contracts/utils/Address.sol\":4857:4874  returndata.length */\n      mload\n        /* \"@openzeppelin/contracts/utils/Address.sol\":4857:4879  returndata.length == 0 */\n      eq\n        /* \"@openzeppelin/contracts/utils/Address.sol\":4857:4906  returndata.length == 0 && target.code.length == 0 */\n      dup1\n      iszero\n      tag_385\n      jumpi\n      pop\n        /* \"@openzeppelin/contracts/utils/Address.sol\":4905:4906  0 */\n      0x00\n        /* \"@openzeppelin/contracts/utils/Address.sol\":4883:4889  target */\n      dup5\n        /* \"@openzeppelin/contracts/utils/Address.sol\":4883:4901  target.code.length */\n      0xffffffffffffffffffffffffffffffffffffffff\n      and\n      extcodesize\n        /* \"@openzeppelin/contracts/utils/Address.sol\":4883:4906  target.code.length == 0 */\n      eq\n        /* \"@openzeppelin/contracts/utils/Address.sol\":4857:4906  returndata.length == 0 && target.code.length == 0 */\n    tag_385:\n        /* \"@openzeppelin/contracts/utils/Address.sol\":4853:4972  if (returndata.length == 0 && target.code.length == 0) {... */\n      iszero\n      tag_386\n      jumpi\n        /* \"@openzeppelin/contracts/utils/Address.sol\":4950:4956  target */\n      dup4\n        /* \"@openzeppelin/contracts/utils/Address.sol\":4933:4957  AddressEmptyCode(target) */\n      mload(0x40)\n      0x9996b31500000000000000000000000000000000000000000000000000000000\n      dup2\n      mstore\n      0x04\n      add\n      tag_387\n      swap2\n      swap1\n      tag_40\n      jump\t// in\n    tag_387:\n      mload(0x40)\n      dup1\n      swap2\n      sub\n      swap1\n      revert\n        /* \"@openzeppelin/contracts/utils/Address.sol\":4853:4972  if (returndata.length == 0 && target.code.length == 0) {... */\n    tag_386:\n        /* \"@openzeppelin/contracts/utils/Address.sol\":4992:5002  returndata */\n      dup2\n        /* \"@openzeppelin/contracts/utils/Address.sol\":4985:5002  return returndata */\n      swap1\n      pop\n      jump(tag_380)\n        /* \"@openzeppelin/contracts/utils/Address.sol\":4605:5013  if (!success) {... */\n    tag_384:\n        /* \"@openzeppelin/contracts/utils/Address.sol\":4437:5019  function verifyCallResultFromTarget(... */\n    tag_380:\n      swap4\n      swap3\n      pop\n      pop\n      pop\n      jump\t// out\n        /* \"@openzeppelin/contracts/utils/Address.sol\":5559:5993  function _revert(bytes memory returndata) private pure {... */\n    tag_383:\n        /* \"@openzeppelin/contracts/utils/Address.sol\":5710:5711  0 */\n      0x00\n        /* \"@openzeppelin/contracts/utils/Address.sol\":5690:5700  returndata */\n      dup2\n        /* \"@openzeppelin/contracts/utils/Address.sol\":5690:5707  returndata.length */\n      mload\n        /* \"@openzeppelin/contracts/utils/Address.sol\":5690:5711  returndata.length > 0 */\n      gt\n        /* \"@openzeppelin/contracts/utils/Address.sol\":5686:5987  if (returndata.length > 0) {... */\n      iszero\n      tag_389\n      jumpi\n        /* \"@openzeppelin/contracts/utils/Address.sol\":5894:5904  returndata */\n      dup1\n        /* \"@openzeppelin/contracts/utils/Address.sol\":5888:5905  mload(returndata) */\n      mload\n        /* \"@openzeppelin/contracts/utils/Address.sol\":5881:5885  0x20 */\n      0x20\n        /* \"@openzeppelin/contracts/utils/Address.sol\":5869:5879  returndata */\n      dup3\n        /* \"@openzeppelin/contracts/utils/Address.sol\":5865:5886  add(returndata, 0x20) */\n      add\n        /* \"@openzeppelin/contracts/utils/Address.sol\":5858:5906  revert(add(returndata, 0x20), mload(returndata)) */\n      revert\n        /* \"@openzeppelin/contracts/utils/Address.sol\":5686:5987  if (returndata.length > 0) {... */\n    tag_389:\n        /* \"@openzeppelin/contracts/utils/Address.sol\":5957:5976  Errors.FailedCall() */\n      mload(0x40)\n      0xd6bda27500000000000000000000000000000000000000000000000000000000\n      dup2\n      mstore\n      0x04\n      add\n      mload(0x40)\n      dup1\n      swap2\n      sub\n      swap1\n      revert\n        /* \"#utility.yul\":7:82   */\n    tag_391:\n        /* \"#utility.yul\":40:46   */\n      0x00\n        /* \"#utility.yul\":73:75   */\n      0x40\n        /* \"#utility.yul\":67:76   */\n      mload\n        /* \"#utility.yul\":57:76   */\n      swap1\n      pop\n        /* \"#utility.yul\":7:82   */\n      swap1\n      jump\t// out\n        /* \"#utility.yul\":88:205   */\n    tag_392:\n        /* \"#utility.yul\":197:198   */\n      0x00\n        /* \"#utility.yul\":194:195   */\n      dup1\n        /* \"#utility.yul\":187:199   */\n      revert\n        /* \"#utility.yul\":211:328   */\n    tag_393:\n        /* \"#utility.yul\":320:321   */\n      0x00\n        /* \"#utility.yul\":317:318   */\n      dup1\n        /* \"#utility.yul\":310:322   */\n      revert\n        /* \"#utility.yul\":334:411   */\n    tag_394:\n        /* \"#utility.yul\":371:378   */\n      0x00\n        /* \"#utility.yul\":400:405   */\n      dup2\n        /* \"#utility.yul\":389:405   */\n      swap1\n      pop\n        /* \"#utility.yul\":334:411   */\n      swap2\n      swap1\n      pop\n      jump\t// out\n        /* \"#utility.yul\":417:539   */\n    tag_395:\n        /* \"#utility.yul\":490:514   */\n      tag_459\n        /* \"#utility.yul\":508:513   */\n      dup2\n        /* \"#utility.yul\":490:514   */\n      tag_394\n      jump\t// in\n    tag_459:\n        /* \"#utility.yul\":483:488   */\n      dup2\n        /* \"#utility.yul\":480:515   */\n      eq\n        /* \"#utility.yul\":470:533   */\n      tag_460\n      jumpi\n        /* \"#utility.yul\":529:530   */\n      0x00\n        /* \"#utility.yul\":526:527   */\n      dup1\n        /* \"#utility.yul\":519:531   */\n      revert\n        /* \"#utility.yul\":470:533   */\n    tag_460:\n        /* \"#utility.yul\":417:539   */\n      pop\n      jump\t// out\n        /* \"#utility.yul\":545:684   */\n    tag_396:\n        /* \"#utility.yul\":591:596   */\n      0x00\n        /* \"#utility.yul\":629:635   */\n      dup2\n        /* \"#utility.yul\":616:636   */\n      calldataload\n        /* \"#utility.yul\":607:636   */\n      swap1\n      pop\n        /* \"#utility.yul\":645:678   */\n      tag_462\n        /* \"#utility.yul\":672:677   */\n      dup2\n        /* \"#utility.yul\":645:678   */\n      tag_395\n      jump\t// in\n    tag_462:\n        /* \"#utility.yul\":545:684   */\n      swap3\n      swap2\n      pop\n      pop\n      jump\t// out\n        /* \"#utility.yul\":690:1019   */\n    tag_37:\n        /* \"#utility.yul\":749:755   */\n      0x00\n        /* \"#utility.yul\":798:800   */\n      0x20\n        /* \"#utility.yul\":786:795   */\n      dup3\n        /* \"#utility.yul\":777:784   */\n      dup5\n        /* \"#utility.yul\":773:796   */\n      sub\n        /* \"#utility.yul\":769:801   */\n      slt\n        /* \"#utility.yul\":766:885   */\n      iszero\n      tag_464\n      jumpi\n        /* \"#utility.yul\":804:883   */\n      tag_465\n      tag_392\n      jump\t// in\n    tag_465:\n        /* \"#utility.yul\":766:885   */\n    tag_464:\n        /* \"#utility.yul\":924:925   */\n      0x00\n        /* \"#utility.yul\":949:1002   */\n      tag_466\n        /* \"#utility.yul\":994:1001   */\n      dup5\n        /* \"#utility.yul\":985:991   */\n      dup3\n        /* \"#utility.yul\":974:983   */\n      dup6\n        /* \"#utility.yul\":970:992   */\n      add\n        /* \"#utility.yul\":949:1002   */\n      tag_396\n      jump\t// in\n    tag_466:\n        /* \"#utility.yul\":939:1002   */\n      swap2\n      pop\n        /* \"#utility.yul\":895:1012   */\n      pop\n        /* \"#utility.yul\":690:1019   */\n      swap3\n      swap2\n      pop\n      pop\n      jump\t// out\n        /* \"#utility.yul\":1025:1151   */\n    tag_397:\n        /* \"#utility.yul\":1062:1069   */\n      0x00\n        /* \"#utility.yul\":1102:1144   */\n      0xffffffffffffffffffffffffffffffffffffffff\n        /* \"#utility.yul\":1095:1100   */\n      dup3\n        /* \"#utility.yul\":1091:1145   */\n      and\n        /* \"#utility.yul\":1080:1145   */\n      swap1\n      pop\n        /* \"#utility.yul\":1025:1151   */\n      swap2\n      swap1\n      pop\n      jump\t// out\n        /* \"#utility.yul\":1157:1253   */\n    tag_398:\n        /* \"#utility.yul\":1194:1201   */\n      0x00\n        /* \"#utility.yul\":1223:1247   */\n      tag_469\n        /* \"#utility.yul\":1241:1246   */\n      dup3\n        /* \"#utility.yul\":1223:1247   */\n      tag_397\n      jump\t// in\n    tag_469:\n        /* \"#utility.yul\":1212:1247   */\n      swap1\n      pop\n        /* \"#utility.yul\":1157:1253   */\n      swap2\n      swap1\n      pop\n      jump\t// out\n        /* \"#utility.yul\":1259:1377   */\n    tag_399:\n        /* \"#utility.yul\":1346:1370   */\n      tag_471\n        /* \"#utility.yul\":1364:1369   */\n      dup2\n        /* \"#utility.yul\":1346:1370   */\n      tag_398\n      jump\t// in\n    tag_471:\n        /* \"#utility.yul\":1341:1344   */\n      dup3\n        /* \"#utility.yul\":1334:1371   */\n      mstore\n        /* \"#utility.yul\":1259:1377   */\n      pop\n      pop\n      jump\t// out\n        /* \"#utility.yul\":1383:1605   */\n    tag_40:\n        /* \"#utility.yul\":1476:1480   */\n      0x00\n        /* \"#utility.yul\":1514:1516   */\n      0x20\n        /* \"#utility.yul\":1503:1512   */\n      dup3\n        /* \"#utility.yul\":1499:1517   */\n      add\n        /* \"#utility.yul\":1491:1517   */\n      swap1\n      pop\n        /* \"#utility.yul\":1527:1598   */\n      tag_473\n        /* \"#utility.yul\":1595:1596   */\n      0x00\n        /* \"#utility.yul\":1584:1593   */\n      dup4\n        /* \"#utility.yul\":1580:1597   */\n      add\n        /* \"#utility.yul\":1571:1577   */\n      dup5\n        /* \"#utility.yul\":1527:1598   */\n      tag_399\n      jump\t// in\n    tag_473:\n        /* \"#utility.yul\":1383:1605   */\n      swap3\n      swap2\n      pop\n      pop\n      jump\t// out\n        /* \"#utility.yul\":1611:1725   */\n    tag_400:\n        /* \"#utility.yul\":1678:1684   */\n      0x00\n        /* \"#utility.yul\":1712:1717   */\n      dup2\n        /* \"#utility.yul\":1706:1718   */\n      mload\n        /* \"#utility.yul\":1696:1718   */\n      swap1\n      pop\n        /* \"#utility.yul\":1611:1725   */\n      swap2\n      swap1\n      pop\n      jump\t// out\n        /* \"#utility.yul\":1731:1915   */\n    tag_401:\n        /* \"#utility.yul\":1830:1841   */\n      0x00\n        /* \"#utility.yul\":1864:1870   */\n      dup3\n        /* \"#utility.yul\":1859:1862   */\n      dup3\n        /* \"#utility.yul\":1852:1871   */\n      mstore\n        /* \"#utility.yul\":1904:1908   */\n      0x20\n        /* \"#utility.yul\":1899:1902   */\n      dup3\n        /* \"#utility.yul\":1895:1909   */\n      add\n        /* \"#utility.yul\":1880:1909   */\n      swap1\n      pop\n        /* \"#utility.yul\":1731:1915   */\n      swap3\n      swap2\n      pop\n      pop\n      jump\t// out\n        /* \"#utility.yul\":1921:2053   */\n    tag_402:\n        /* \"#utility.yul\":1988:1992   */\n      0x00\n        /* \"#utility.yul\":2011:2014   */\n      dup2\n        /* \"#utility.yul\":2003:2014   */\n      swap1\n      pop\n        /* \"#utility.yul\":2041:2045   */\n      0x20\n        /* \"#utility.yul\":2036:2039   */\n      dup3\n        /* \"#utility.yul\":2032:2046   */\n      add\n        /* \"#utility.yul\":2024:2046   */\n      swap1\n      pop\n        /* \"#utility.yul\":1921:2053   */\n      swap2\n      swap1\n      pop\n      jump\t// out\n        /* \"#utility.yul\":2059:2167   */\n    tag_403:\n        /* \"#utility.yul\":2136:2160   */\n      tag_478\n        /* \"#utility.yul\":2154:2159   */\n      dup2\n        /* \"#utility.yul\":2136:2160   */\n      tag_398\n      jump\t// in\n    tag_478:\n        /* \"#utility.yul\":2131:2134   */\n      dup3\n        /* \"#utility.yul\":2124:2161   */\n      mstore\n        /* \"#utility.yul\":2059:2167   */\n      pop\n      pop\n      jump\t// out\n        /* \"#utility.yul\":2173:2352   */\n    tag_404:\n        /* \"#utility.yul\":2242:2252   */\n      0x00\n        /* \"#utility.yul\":2263:2309   */\n      tag_480\n        /* \"#utility.yul\":2305:2308   */\n      dup4\n        /* \"#utility.yul\":2297:2303   */\n      dup4\n        /* \"#utility.yul\":2263:2309   */\n      tag_403\n      jump\t// in\n    tag_480:\n        /* \"#utility.yul\":2341:2345   */\n      0x20\n        /* \"#utility.yul\":2336:2339   */\n      dup4\n        /* \"#utility.yul\":2332:2346   */\n      add\n        /* \"#utility.yul\":2318:2346   */\n      swap1\n      pop\n        /* \"#utility.yul\":2173:2352   */\n      swap3\n      swap2\n      pop\n      pop\n      jump\t// out\n        /* \"#utility.yul\":2358:2471   */\n    tag_405:\n        /* \"#utility.yul\":2428:2432   */\n      0x00\n        /* \"#utility.yul\":2460:2464   */\n      0x20\n        /* \"#utility.yul\":2455:2458   */\n      dup3\n        /* \"#utility.yul\":2451:2465   */\n      add\n        /* \"#utility.yul\":2443:2465   */\n      swap1\n      pop\n        /* \"#utility.yul\":2358:2471   */\n      swap2\n      swap1\n      pop\n      jump\t// out\n        /* \"#utility.yul\":2507:3239   */\n    tag_406:\n        /* \"#utility.yul\":2626:2629   */\n      0x00\n        /* \"#utility.yul\":2655:2709   */\n      tag_483\n        /* \"#utility.yul\":2703:2708   */\n      dup3\n        /* \"#utility.yul\":2655:2709   */\n      tag_400\n      jump\t// in\n    tag_483:\n        /* \"#utility.yul\":2725:2811   */\n      tag_484\n        /* \"#utility.yul\":2804:2810   */\n      dup2\n        /* \"#utility.yul\":2799:2802   */\n      dup6\n        /* \"#utility.yul\":2725:2811   */\n      tag_401\n      jump\t// in\n    tag_484:\n        /* \"#utility.yul\":2718:2811   */\n      swap4\n      pop\n        /* \"#utility.yul\":2835:2891   */\n      tag_485\n        /* \"#utility.yul\":2885:2890   */\n      dup4\n        /* \"#utility.yul\":2835:2891   */\n      tag_402\n      jump\t// in\n    tag_485:\n        /* \"#utility.yul\":2914:2921   */\n      dup1\n        /* \"#utility.yul\":2945:2946   */\n      0x00\n        /* \"#utility.yul\":2930:3214   */\n    tag_486:\n        /* \"#utility.yul\":2955:2961   */\n      dup4\n        /* \"#utility.yul\":2952:2953   */\n      dup2\n        /* \"#utility.yul\":2949:2962   */\n      lt\n        /* \"#utility.yul\":2930:3214   */\n      iszero\n      tag_488\n      jumpi\n        /* \"#utility.yul\":3031:3037   */\n      dup2\n        /* \"#utility.yul\":3025:3038   */\n      mload\n        /* \"#utility.yul\":3058:3121   */\n      tag_489\n        /* \"#utility.yul\":3117:3120   */\n      dup9\n        /* \"#utility.yul\":3102:3115   */\n      dup3\n        /* \"#utility.yul\":3058:3121   */\n      tag_404\n      jump\t// in\n    tag_489:\n        /* \"#utility.yul\":3051:3121   */\n      swap8\n      pop\n        /* \"#utility.yul\":3144:3204   */\n      tag_490\n        /* \"#utility.yul\":3197:3203   */\n      dup4\n        /* \"#utility.yul\":3144:3204   */\n      tag_405\n      jump\t// in\n    tag_490:\n        /* \"#utility.yul\":3134:3204   */\n      swap3\n      pop\n        /* \"#utility.yul\":2990:3214   */\n      pop\n        /* \"#utility.yul\":2977:2978   */\n      0x01\n        /* \"#utility.yul\":2974:2975   */\n      dup2\n        /* \"#utility.yul\":2970:2979   */\n      add\n        /* \"#utility.yul\":2965:2979   */\n      swap1\n      pop\n        /* \"#utility.yul\":2930:3214   */\n      jump(tag_486)\n    tag_488:\n        /* \"#utility.yul\":2934:2948   */\n      pop\n        /* \"#utility.yul\":3230:3233   */\n      dup6\n        /* \"#utility.yul\":3223:3233   */\n      swap4\n      pop\n        /* \"#utility.yul\":2631:3239   */\n      pop\n      pop\n      pop\n        /* \"#utility.yul\":2507:3239   */\n      swap3\n      swap2\n      pop\n      pop\n      jump\t// out\n        /* \"#utility.yul\":3245:3618   */\n    tag_45:\n        /* \"#utility.yul\":3388:3392   */\n      0x00\n        /* \"#utility.yul\":3426:3428   */\n      0x20\n        /* \"#utility.yul\":3415:3424   */\n      dup3\n        /* \"#utility.yul\":3411:3429   */\n      add\n        /* \"#utility.yul\":3403:3429   */\n      swap1\n      pop\n        /* \"#utility.yul\":3475:3484   */\n      dup2\n        /* \"#utility.yul\":3469:3473   */\n      dup2\n        /* \"#utility.yul\":3465:3485   */\n      sub\n        /* \"#utility.yul\":3461:3462   */\n      0x00\n        /* \"#utility.yul\":3450:3459   */\n      dup4\n        /* \"#utility.yul\":3446:3463   */\n      add\n        /* \"#utility.yul\":3439:3486   */\n      mstore\n        /* \"#utility.yul\":3503:3611   */\n      tag_492\n        /* \"#utility.yul\":3606:3610   */\n      dup2\n        /* \"#utility.yul\":3597:3603   */\n      dup5\n        /* \"#utility.yul\":3503:3611   */\n      tag_406\n      jump\t// in\n    tag_492:\n        /* \"#utility.yul\":3495:3611   */\n      swap1\n      pop\n        /* \"#utility.yul\":3245:3618   */\n      swap3\n      swap2\n      pop\n      pop\n      jump\t// out\n        /* \"#utility.yul\":3624:3742   */\n    tag_407:\n        /* \"#utility.yul\":3711:3735   */\n      tag_494\n        /* \"#utility.yul\":3729:3734   */\n      dup2\n        /* \"#utility.yul\":3711:3735   */\n      tag_394\n      jump\t// in\n    tag_494:\n        /* \"#utility.yul\":3706:3709   */\n      dup3\n        /* \"#utility.yul\":3699:3736   */\n      mstore\n        /* \"#utility.yul\":3624:3742   */\n      pop\n      pop\n      jump\t// out\n        /* \"#utility.yul\":3748:4080   */\n    tag_58:\n        /* \"#utility.yul\":3869:3873   */\n      0x00\n        /* \"#utility.yul\":3907:3909   */\n      0x40\n        /* \"#utility.yul\":3896:3905   */\n      dup3\n        /* \"#utility.yul\":3892:3910   */\n      add\n        /* \"#utility.yul\":3884:3910   */\n      swap1\n      pop\n        /* \"#utility.yul\":3920:3991   */\n      tag_496\n        /* \"#utility.yul\":3988:3989   */\n      0x00\n        /* \"#utility.yul\":3977:3986   */\n      dup4\n        /* \"#utility.yul\":3973:3990   */\n      add\n        /* \"#utility.yul\":3964:3970   */\n      dup6\n        /* \"#utility.yul\":3920:3991   */\n      tag_407\n      jump\t// in\n    tag_496:\n        /* \"#utility.yul\":4001:4073   */\n      tag_497\n        /* \"#utility.yul\":4069:4071   */\n      0x20\n        /* \"#utility.yul\":4058:4067   */\n      dup4\n        /* \"#utility.yul\":4054:4072   */\n      add\n        /* \"#utility.yul\":4045:4051   */\n      dup5\n        /* \"#utility.yul\":4001:4073   */\n      tag_407\n      jump\t// in\n    tag_497:\n        /* \"#utility.yul\":3748:4080   */\n      swap4\n      swap3\n      pop\n      pop\n      pop\n      jump\t// out\n        /* \"#utility.yul\":4086:4208   */\n    tag_408:\n        /* \"#utility.yul\":4159:4183   */\n      tag_499\n        /* \"#utility.yul\":4177:4182   */\n      dup2\n        /* \"#utility.yul\":4159:4183   */\n      tag_398\n      jump\t// in\n    tag_499:\n        /* \"#utility.yul\":4152:4157   */\n      dup2\n        /* \"#utility.yul\":4149:4184   */\n      eq\n        /* \"#utility.yul\":4139:4202   */\n      tag_500\n      jumpi\n        /* \"#utility.yul\":4198:4199   */\n      0x00\n        /* \"#utility.yul\":4195:4196   */\n      dup1\n        /* \"#utility.yul\":4188:4200   */\n      revert\n        /* \"#utility.yul\":4139:4202   */\n    tag_500:\n        /* \"#utility.yul\":4086:4208   */\n      pop\n      jump\t// out\n        /* \"#utility.yul\":4214:4353   */\n    tag_409:\n        /* \"#utility.yul\":4260:4265   */\n      0x00\n        /* \"#utility.yul\":4298:4304   */\n      dup2\n        /* \"#utility.yul\":4285:4305   */\n      calldataload\n        /* \"#utility.yul\":4276:4305   */\n      swap1\n      pop\n        /* \"#utility.yul\":4314:4347   */\n      tag_502\n        /* \"#utility.yul\":4341:4346   */\n      dup2\n        /* \"#utility.yul\":4314:4347   */\n      tag_408\n      jump\t// in\n    tag_502:\n        /* \"#utility.yul\":4214:4353   */\n      swap3\n      swap2\n      pop\n      pop\n      jump\t// out\n        /* \"#utility.yul\":4359:4688   */\n    tag_62:\n        /* \"#utility.yul\":4418:4424   */\n      0x00\n        /* \"#utility.yul\":4467:4469   */\n      0x20\n        /* \"#utility.yul\":4455:4464   */\n      dup3\n        /* \"#utility.yul\":4446:4453   */\n      dup5\n        /* \"#utility.yul\":4442:4465   */\n      sub\n        /* \"#utility.yul\":4438:4470   */\n      slt\n        /* \"#utility.yul\":4435:4554   */\n      iszero\n      tag_504\n      jumpi\n        /* \"#utility.yul\":4473:4552   */\n      tag_505\n      tag_392\n      jump\t// in\n    tag_505:\n        /* \"#utility.yul\":4435:4554   */\n    tag_504:\n        /* \"#utility.yul\":4593:4594   */\n      0x00\n        /* \"#utility.yul\":4618:4671   */\n      tag_506\n        /* \"#utility.yul\":4663:4670   */\n      dup5\n        /* \"#utility.yul\":4654:4660   */\n      dup3\n        /* \"#utility.yul\":4643:4652   */\n      dup6\n        /* \"#utility.yul\":4639:4661   */\n      add\n        /* \"#utility.yul\":4618:4671   */\n      tag_409\n      jump\t// in\n    tag_506:\n        /* \"#utility.yul\":4608:4671   */\n      swap2\n      pop\n        /* \"#utility.yul\":4564:4681   */\n      pop\n        /* \"#utility.yul\":4359:4688   */\n      swap3\n      swap2\n      pop\n      pop\n      jump\t// out\n        /* \"#utility.yul\":4694:4784   */\n    tag_410:\n        /* \"#utility.yul\":4728:4735   */\n      0x00\n        /* \"#utility.yul\":4771:4776   */\n      dup2\n        /* \"#utility.yul\":4764:4777   */\n      iszero\n        /* \"#utility.yul\":4757:4778   */\n      iszero\n        /* \"#utility.yul\":4746:4778   */\n      swap1\n      pop\n        /* \"#utility.yul\":4694:4784   */\n      swap2\n      swap1\n      pop\n      jump\t// out\n        /* \"#utility.yul\":4790:4899   */\n    tag_411:\n        /* \"#utility.yul\":4871:4892   */\n      tag_509\n        /* \"#utility.yul\":4886:4891   */\n      dup2\n        /* \"#utility.yul\":4871:4892   */\n      tag_410\n      jump\t// in\n    tag_509:\n        /* \"#utility.yul\":4866:4869   */\n      dup3\n        /* \"#utility.yul\":4859:4893   */\n      mstore\n        /* \"#utility.yul\":4790:4899   */\n      pop\n      pop\n      jump\t// out\n        /* \"#utility.yul\":4905:5335   */\n    tag_65:\n        /* \"#utility.yul\":5048:5052   */\n      0x00\n        /* \"#utility.yul\":5086:5088   */\n      0x60\n        /* \"#utility.yul\":5075:5084   */\n      dup3\n        /* \"#utility.yul\":5071:5089   */\n      add\n        /* \"#utility.yul\":5063:5089   */\n      swap1\n      pop\n        /* \"#utility.yul\":5099:5170   */\n      tag_511\n        /* \"#utility.yul\":5167:5168   */\n      0x00\n        /* \"#utility.yul\":5156:5165   */\n      dup4\n        /* \"#utility.yul\":5152:5169   */\n      add\n        /* \"#utility.yul\":5143:5149   */\n      dup7\n        /* \"#utility.yul\":5099:5170   */\n      tag_407\n      jump\t// in\n    tag_511:\n        /* \"#utility.yul\":5180:5252   */\n      tag_512\n        /* \"#utility.yul\":5248:5250   */\n      0x20\n        /* \"#utility.yul\":5237:5246   */\n      dup4\n        /* \"#utility.yul\":5233:5251   */\n      add\n        /* \"#utility.yul\":5224:5230   */\n      dup6\n        /* \"#utility.yul\":5180:5252   */\n      tag_407\n      jump\t// in\n    tag_512:\n        /* \"#utility.yul\":5262:5328   */\n      tag_513\n        /* \"#utility.yul\":5324:5326   */\n      0x40\n        /* \"#utility.yul\":5313:5322   */\n      dup4\n        /* \"#utility.yul\":5309:5327   */\n      add\n        /* \"#utility.yul\":5300:5306   */\n      dup5\n        /* \"#utility.yul\":5262:5328   */\n      tag_411\n      jump\t// in\n    tag_513:\n        /* \"#utility.yul\":4905:5335   */\n      swap5\n      swap4\n      pop\n      pop\n      pop\n      pop\n      jump\t// out\n        /* \"#utility.yul\":5341:5427   */\n    tag_412:\n        /* \"#utility.yul\":5376:5383   */\n      0x00\n        /* \"#utility.yul\":5416:5420   */\n      0xff\n        /* \"#utility.yul\":5409:5414   */\n      dup3\n        /* \"#utility.yul\":5405:5421   */\n      and\n        /* \"#utility.yul\":5394:5421   */\n      swap1\n      pop\n        /* \"#utility.yul\":5341:5427   */\n      swap2\n      swap1\n      pop\n      jump\t// out\n        /* \"#utility.yul\":5433:5551   */\n    tag_413:\n        /* \"#utility.yul\":5504:5526   */\n      tag_516\n        /* \"#utility.yul\":5520:5525   */\n      dup2\n        /* \"#utility.yul\":5504:5526   */\n      tag_412\n      jump\t// in\n    tag_516:\n        /* \"#utility.yul\":5497:5502   */\n      dup2\n        /* \"#utility.yul\":5494:5527   */\n      eq\n        /* \"#utility.yul\":5484:5545   */\n      tag_517\n      jumpi\n        /* \"#utility.yul\":5541:5542   */\n      0x00\n        /* \"#utility.yul\":5538:5539   */\n      dup1\n        /* \"#utility.yul\":5531:5543   */\n      revert\n        /* \"#utility.yul\":5484:5545   */\n    tag_517:\n        /* \"#utility.yul\":5433:5551   */\n      pop\n      jump\t// out\n        /* \"#utility.yul\":5557:5692   */\n    tag_414:\n        /* \"#utility.yul\":5601:5606   */\n      0x00\n        /* \"#utility.yul\":5639:5645   */\n      dup2\n        /* \"#utility.yul\":5626:5646   */\n      calldataload\n        /* \"#utility.yul\":5617:5646   */\n      swap1\n      pop\n        /* \"#utility.yul\":5655:5686   */\n      tag_519\n        /* \"#utility.yul\":5680:5685   */\n      dup2\n        /* \"#utility.yul\":5655:5686   */\n      tag_413\n      jump\t// in\n    tag_519:\n        /* \"#utility.yul\":5557:5692   */\n      swap3\n      swap2\n      pop\n      pop\n      jump\t// out\n        /* \"#utility.yul\":5698:6313   */\n    tag_69:\n        /* \"#utility.yul\":5773:5779   */\n      0x00\n        /* \"#utility.yul\":5781:5787   */\n      dup1\n        /* \"#utility.yul\":5789:5795   */\n      0x00\n        /* \"#utility.yul\":5838:5840   */\n      0x60\n        /* \"#utility.yul\":5826:5835   */\n      dup5\n        /* \"#utility.yul\":5817:5824   */\n      dup7\n        /* \"#utility.yul\":5813:5836   */\n      sub\n        /* \"#utility.yul\":5809:5841   */\n      slt\n        /* \"#utility.yul\":5806:5925   */\n      iszero\n      tag_521\n      jumpi\n        /* \"#utility.yul\":5844:5923   */\n      tag_522\n      tag_392\n      jump\t// in\n    tag_522:\n        /* \"#utility.yul\":5806:5925   */\n    tag_521:\n        /* \"#utility.yul\":5964:5965   */\n      0x00\n        /* \"#utility.yul\":5989:6040   */\n      tag_523\n        /* \"#utility.yul\":6032:6039   */\n      dup7\n        /* \"#utility.yul\":6023:6029   */\n      dup3\n        /* \"#utility.yul\":6012:6021   */\n      dup8\n        /* \"#utility.yul\":6008:6030   */\n      add\n        /* \"#utility.yul\":5989:6040   */\n      tag_414\n      jump\t// in\n    tag_523:\n        /* \"#utility.yul\":5979:6040   */\n      swap4\n      pop\n        /* \"#utility.yul\":5935:6050   */\n      pop\n        /* \"#utility.yul\":6089:6091   */\n      0x20\n        /* \"#utility.yul\":6115:6168   */\n      tag_524\n        /* \"#utility.yul\":6160:6167   */\n      dup7\n        /* \"#utility.yul\":6151:6157   */\n      dup3\n        /* \"#utility.yul\":6140:6149   */\n      dup8\n        /* \"#utility.yul\":6136:6158   */\n      add\n        /* \"#utility.yul\":6115:6168   */\n      tag_396\n      jump\t// in\n    tag_524:\n        /* \"#utility.yul\":6105:6168   */\n      swap3\n      pop\n        /* \"#utility.yul\":6060:6178   */\n      pop\n        /* \"#utility.yul\":6217:6219   */\n      0x40\n        /* \"#utility.yul\":6243:6296   */\n      tag_525\n        /* \"#utility.yul\":6288:6295   */\n      dup7\n        /* \"#utility.yul\":6279:6285   */\n      dup3\n        /* \"#utility.yul\":6268:6277   */\n      dup8\n        /* \"#utility.yul\":6264:6286   */\n      add\n        /* \"#utility.yul\":6243:6296   */\n      tag_396\n      jump\t// in\n    tag_525:\n        /* \"#utility.yul\":6233:6296   */\n      swap2\n      pop\n        /* \"#utility.yul\":6188:6306   */\n      pop\n        /* \"#utility.yul\":5698:6313   */\n      swap3\n      pop\n      swap3\n      pop\n      swap3\n      jump\t// out\n        /* \"#utility.yul\":6319:6541   */\n    tag_76:\n        /* \"#utility.yul\":6412:6416   */\n      0x00\n        /* \"#utility.yul\":6450:6452   */\n      0x20\n        /* \"#utility.yul\":6439:6448   */\n      dup3\n        /* \"#utility.yul\":6435:6453   */\n      add\n        /* \"#utility.yul\":6427:6453   */\n      swap1\n      pop\n        /* \"#utility.yul\":6463:6534   */\n      tag_527\n        /* \"#utility.yul\":6531:6532   */\n      0x00\n        /* \"#utility.yul\":6520:6529   */\n      dup4\n        /* \"#utility.yul\":6516:6533   */\n      add\n        /* \"#utility.yul\":6507:6513   */\n      dup5\n        /* \"#utility.yul\":6463:6534   */\n      tag_407\n      jump\t// in\n    tag_527:\n        /* \"#utility.yul\":6319:6541   */\n      swap3\n      swap2\n      pop\n      pop\n      jump\t// out\n        /* \"#utility.yul\":6547:6664   */\n    tag_415:\n        /* \"#utility.yul\":6656:6657   */\n      0x00\n        /* \"#utility.yul\":6653:6654   */\n      dup1\n        /* \"#utility.yul\":6646:6658   */\n      revert\n        /* \"#utility.yul\":6670:6787   */\n    tag_416:\n        /* \"#utility.yul\":6779:6780   */\n      0x00\n        /* \"#utility.yul\":6776:6777   */\n      dup1\n        /* \"#utility.yul\":6769:6781   */\n      revert\n        /* \"#utility.yul\":6793:6895   */\n    tag_417:\n        /* \"#utility.yul\":6834:6840   */\n      0x00\n        /* \"#utility.yul\":6885:6887   */\n      0x1f\n        /* \"#utility.yul\":6881:6888   */\n      not\n        /* \"#utility.yul\":6876:6878   */\n      0x1f\n        /* \"#utility.yul\":6869:6874   */\n      dup4\n        /* \"#utility.yul\":6865:6879   */\n      add\n        /* \"#utility.yul\":6861:6889   */\n      and\n        /* \"#utility.yul\":6851:6889   */\n      swap1\n      pop\n        /* \"#utility.yul\":6793:6895   */\n      swap2\n      swap1\n      pop\n      jump\t// out\n        /* \"#utility.yul\":6901:7081   */\n    tag_199:\n        /* \"#utility.yul\":6949:7026   */\n      0x4e487b7100000000000000000000000000000000000000000000000000000000\n        /* \"#utility.yul\":6946:6947   */\n      0x00\n        /* \"#utility.yul\":6939:7027   */\n      mstore\n        /* \"#utility.yul\":7046:7050   */\n      0x41\n        /* \"#utility.yul\":7043:7044   */\n      0x04\n        /* \"#utility.yul\":7036:7051   */\n      mstore\n        /* \"#utility.yul\":7070:7074   */\n      0x24\n        /* \"#utility.yul\":7067:7068   */\n      0x00\n        /* \"#utility.yul\":7060:7075   */\n      revert\n        /* \"#utility.yul\":7087:7368   */\n    tag_418:\n        /* \"#utility.yul\":7170:7197   */\n      tag_533\n        /* \"#utility.yul\":7192:7196   */\n      dup3\n        /* \"#utility.yul\":7170:7197   */\n      tag_417\n      jump\t// in\n    tag_533:\n        /* \"#utility.yul\":7162:7168   */\n      dup2\n        /* \"#utility.yul\":7158:7198   */\n      add\n        /* \"#utility.yul\":7300:7306   */\n      dup2\n        /* \"#utility.yul\":7288:7298   */\n      dup2\n        /* \"#utility.yul\":7285:7307   */\n      lt\n        /* \"#utility.yul\":7264:7282   */\n      0xffffffffffffffff\n        /* \"#utility.yul\":7252:7262   */\n      dup3\n        /* \"#utility.yul\":7249:7283   */\n      gt\n        /* \"#utility.yul\":7246:7308   */\n      or\n        /* \"#utility.yul\":7243:7331   */\n      iszero\n      tag_534\n      jumpi\n        /* \"#utility.yul\":7311:7329   */\n      tag_535\n      tag_199\n      jump\t// in\n    tag_535:\n        /* \"#utility.yul\":7243:7331   */\n    tag_534:\n        /* \"#utility.yul\":7351:7361   */\n      dup1\n        /* \"#utility.yul\":7347:7349   */\n      0x40\n        /* \"#utility.yul\":7340:7362   */\n      mstore\n        /* \"#utility.yul\":7130:7368   */\n      pop\n        /* \"#utility.yul\":7087:7368   */\n      pop\n      pop\n      jump\t// out\n        /* \"#utility.yul\":7374:7503   */\n    tag_419:\n        /* \"#utility.yul\":7408:7414   */\n      0x00\n        /* \"#utility.yul\":7435:7455   */\n      tag_537\n      tag_391\n      jump\t// in\n    tag_537:\n        /* \"#utility.yul\":7425:7455   */\n      swap1\n      pop\n        /* \"#utility.yul\":7464:7497   */\n      tag_538\n        /* \"#utility.yul\":7492:7496   */\n      dup3\n        /* \"#utility.yul\":7484:7490   */\n      dup3\n        /* \"#utility.yul\":7464:7497   */\n      tag_418\n      jump\t// in\n    tag_538:\n        /* \"#utility.yul\":7374:7503   */\n      swap2\n      swap1\n      pop\n      jump\t// out\n        /* \"#utility.yul\":7509:7816   */\n    tag_420:\n        /* \"#utility.yul\":7570:7574   */\n      0x00\n        /* \"#utility.yul\":7660:7678   */\n      0xffffffffffffffff\n        /* \"#utility.yul\":7652:7658   */\n      dup3\n        /* \"#utility.yul\":7649:7679   */\n      gt\n        /* \"#utility.yul\":7646:7702   */\n      iszero\n      tag_540\n      jumpi\n        /* \"#utility.yul\":7682:7700   */\n      tag_541\n      tag_199\n      jump\t// in\n    tag_541:\n        /* \"#utility.yul\":7646:7702   */\n    tag_540:\n        /* \"#utility.yul\":7720:7749   */\n      tag_542\n        /* \"#utility.yul\":7742:7748   */\n      dup3\n        /* \"#utility.yul\":7720:7749   */\n      tag_417\n      jump\t// in\n    tag_542:\n        /* \"#utility.yul\":7712:7749   */\n      swap1\n      pop\n        /* \"#utility.yul\":7804:7808   */\n      0x20\n        /* \"#utility.yul\":7798:7802   */\n      dup2\n        /* \"#utility.yul\":7794:7809   */\n      add\n        /* \"#utility.yul\":7786:7809   */\n      swap1\n      pop\n        /* \"#utility.yul\":7509:7816   */\n      swap2\n      swap1\n      pop\n      jump\t// out\n        /* \"#utility.yul\":7822:7968   */\n    tag_421:\n        /* \"#utility.yul\":7919:7925   */\n      dup3\n        /* \"#utility.yul\":7914:7917   */\n      dup2\n        /* \"#utility.yul\":7909:7912   */\n      dup4\n        /* \"#utility.yul\":7896:7926   */\n      calldatacopy\n        /* \"#utility.yul\":7960:7961   */\n      0x00\n        /* \"#utility.yul\":7951:7957   */\n      dup4\n        /* \"#utility.yul\":7946:7949   */\n      dup4\n        /* \"#utility.yul\":7942:7958   */\n      add\n        /* \"#utility.yul\":7935:7962   */\n      mstore\n        /* \"#utility.yul\":7822:7968   */\n      pop\n      pop\n      pop\n      jump\t// out\n        /* \"#utility.yul\":7974:8397   */\n    tag_422:\n        /* \"#utility.yul\":8051:8056   */\n      0x00\n        /* \"#utility.yul\":8076:8141   */\n      tag_545\n        /* \"#utility.yul\":8092:8140   */\n      tag_546\n        /* \"#utility.yul\":8133:8139   */\n      dup5\n        /* \"#utility.yul\":8092:8140   */\n      tag_420\n      jump\t// in\n    tag_546:\n        /* \"#utility.yul\":8076:8141   */\n      tag_419\n      jump\t// in\n    tag_545:\n        /* \"#utility.yul\":8067:8141   */\n      swap1\n      pop\n        /* \"#utility.yul\":8164:8170   */\n      dup3\n        /* \"#utility.yul\":8157:8162   */\n      dup2\n        /* \"#utility.yul\":8150:8171   */\n      mstore\n        /* \"#utility.yul\":8202:8206   */\n      0x20\n        /* \"#utility.yul\":8195:8200   */\n      dup2\n        /* \"#utility.yul\":8191:8207   */\n      add\n        /* \"#utility.yul\":8240:8243   */\n      dup5\n        /* \"#utility.yul\":8231:8237   */\n      dup5\n        /* \"#utility.yul\":8226:8229   */\n      dup5\n        /* \"#utility.yul\":8222:8238   */\n      add\n        /* \"#utility.yul\":8219:8244   */\n      gt\n        /* \"#utility.yul\":8216:8328   */\n      iszero\n      tag_547\n      jumpi\n        /* \"#utility.yul\":8247:8326   */\n      tag_548\n      tag_416\n      jump\t// in\n    tag_548:\n        /* \"#utility.yul\":8216:8328   */\n    tag_547:\n        /* \"#utility.yul\":8337:8391   */\n      tag_549\n        /* \"#utility.yul\":8384:8390   */\n      dup5\n        /* \"#utility.yul\":8379:8382   */\n      dup3\n        /* \"#utility.yul\":8374:8377   */\n      dup6\n        /* \"#utility.yul\":8337:8391   */\n      tag_421\n      jump\t// in\n    tag_549:\n        /* \"#utility.yul\":8057:8397   */\n      pop\n        /* \"#utility.yul\":7974:8397   */\n      swap4\n      swap3\n      pop\n      pop\n      pop\n      jump\t// out\n        /* \"#utility.yul\":8416:8754   */\n    tag_423:\n        /* \"#utility.yul\":8471:8476   */\n      0x00\n        /* \"#utility.yul\":8520:8523   */\n      dup3\n        /* \"#utility.yul\":8513:8517   */\n      0x1f\n        /* \"#utility.yul\":8505:8511   */\n      dup4\n        /* \"#utility.yul\":8501:8518   */\n      add\n        /* \"#utility.yul\":8497:8524   */\n      slt\n        /* \"#utility.yul\":8487:8609   */\n      tag_551\n      jumpi\n        /* \"#utility.yul\":8528:8607   */\n      tag_552\n      tag_415\n      jump\t// in\n    tag_552:\n        /* \"#utility.yul\":8487:8609   */\n    tag_551:\n        /* \"#utility.yul\":8645:8651   */\n      dup2\n        /* \"#utility.yul\":8632:8652   */\n      calldataload\n        /* \"#utility.yul\":8670:8748   */\n      tag_553\n        /* \"#utility.yul\":8744:8747   */\n      dup5\n        /* \"#utility.yul\":8736:8742   */\n      dup3\n        /* \"#utility.yul\":8729:8733   */\n      0x20\n        /* \"#utility.yul\":8721:8727   */\n      dup7\n        /* \"#utility.yul\":8717:8734   */\n      add\n        /* \"#utility.yul\":8670:8748   */\n      tag_422\n      jump\t// in\n    tag_553:\n        /* \"#utility.yul\":8661:8748   */\n      swap2\n      pop\n        /* \"#utility.yul\":8477:8754   */\n      pop\n        /* \"#utility.yul\":8416:8754   */\n      swap3\n      swap2\n      pop\n      pop\n      jump\t// out\n        /* \"#utility.yul\":8760:9412   */\n    tag_83:\n        /* \"#utility.yul\":8837:8843   */\n      0x00\n        /* \"#utility.yul\":8845:8851   */\n      dup1\n        /* \"#utility.yul\":8894:8896   */\n      0x40\n        /* \"#utility.yul\":8882:8891   */\n      dup4\n        /* \"#utility.yul\":8873:8880   */\n      dup6\n        /* \"#utility.yul\":8869:8892   */\n      sub\n        /* \"#utility.yul\":8865:8897   */\n      slt\n        /* \"#utility.yul\":8862:8981   */\n      iszero\n      tag_555\n      jumpi\n        /* \"#utility.yul\":8900:8979   */\n      tag_556\n      tag_392\n      jump\t// in\n    tag_556:\n        /* \"#utility.yul\":8862:8981   */\n    tag_555:\n        /* \"#utility.yul\":9020:9021   */\n      0x00\n        /* \"#utility.yul\":9045:9098   */\n      tag_557\n        /* \"#utility.yul\":9090:9097   */\n      dup6\n        /* \"#utility.yul\":9081:9087   */\n      dup3\n        /* \"#utility.yul\":9070:9079   */\n      dup7\n        /* \"#utility.yul\":9066:9088   */\n      add\n        /* \"#utility.yul\":9045:9098   */\n      tag_409\n      jump\t// in\n    tag_557:\n        /* \"#utility.yul\":9035:9098   */\n      swap3\n      pop\n        /* \"#utility.yul\":8991:9108   */\n      pop\n        /* \"#utility.yul\":9175:9177   */\n      0x20\n        /* \"#utility.yul\":9164:9173   */\n      dup4\n        /* \"#utility.yul\":9160:9178   */\n      add\n        /* \"#utility.yul\":9147:9179   */\n      calldataload\n        /* \"#utility.yul\":9206:9224   */\n      0xffffffffffffffff\n        /* \"#utility.yul\":9198:9204   */\n      dup2\n        /* \"#utility.yul\":9195:9225   */\n      gt\n        /* \"#utility.yul\":9192:9309   */\n      iszero\n      tag_558\n      jumpi\n        /* \"#utility.yul\":9228:9307   */\n      tag_559\n      tag_393\n      jump\t// in\n    tag_559:\n        /* \"#utility.yul\":9192:9309   */\n    tag_558:\n        /* \"#utility.yul\":9333:9395   */\n      tag_560\n        /* \"#utility.yul\":9387:9394   */\n      dup6\n        /* \"#utility.yul\":9378:9384   */\n      dup3\n        /* \"#utility.yul\":9367:9376   */\n      dup7\n        /* \"#utility.yul\":9363:9385   */\n      add\n        /* \"#utility.yul\":9333:9395   */\n      tag_423\n      jump\t// in\n    tag_560:\n        /* \"#utility.yul\":9323:9395   */\n      swap2\n      pop\n        /* \"#utility.yul\":9118:9405   */\n      pop\n        /* \"#utility.yul\":8760:9412   */\n      swap3\n      pop\n      swap3\n      swap1\n      pop\n      jump\t// out\n        /* \"#utility.yul\":9418:9495   */\n    tag_424:\n        /* \"#utility.yul\":9455:9462   */\n      0x00\n        /* \"#utility.yul\":9484:9489   */\n      dup2\n        /* \"#utility.yul\":9473:9489   */\n      swap1\n      pop\n        /* \"#utility.yul\":9418:9495   */\n      swap2\n      swap1\n      pop\n      jump\t// out\n        /* \"#utility.yul\":9501:9619   */\n    tag_425:\n        /* \"#utility.yul\":9588:9612   */\n      tag_563\n        /* \"#utility.yul\":9606:9611   */\n      dup2\n        /* \"#utility.yul\":9588:9612   */\n      tag_424\n      jump\t// in\n    tag_563:\n        /* \"#utility.yul\":9583:9586   */\n      dup3\n        /* \"#utility.yul\":9576:9613   */\n      mstore\n        /* \"#utility.yul\":9501:9619   */\n      pop\n      pop\n      jump\t// out\n        /* \"#utility.yul\":9625:9847   */\n    tag_89:\n        /* \"#utility.yul\":9718:9722   */\n      0x00\n        /* \"#utility.yul\":9756:9758   */\n      0x20\n        /* \"#utility.yul\":9745:9754   */\n      dup3\n        /* \"#utility.yul\":9741:9759   */\n      add\n        /* \"#utility.yul\":9733:9759   */\n      swap1\n      pop\n        /* \"#utility.yul\":9769:9840   */\n      tag_565\n        /* \"#utility.yul\":9837:9838   */\n      0x00\n        /* \"#utility.yul\":9826:9835   */\n      dup4\n        /* \"#utility.yul\":9822:9839   */\n      add\n        /* \"#utility.yul\":9813:9819   */\n      dup5\n        /* \"#utility.yul\":9769:9840   */\n      tag_425\n      jump\t// in\n    tag_565:\n        /* \"#utility.yul\":9625:9847   */\n      swap3\n      swap2\n      pop\n      pop\n      jump\t// out\n        /* \"#utility.yul\":9853:10472   */\n    tag_126:\n        /* \"#utility.yul\":9930:9936   */\n      0x00\n        /* \"#utility.yul\":9938:9944   */\n      dup1\n        /* \"#utility.yul\":9946:9952   */\n      0x00\n        /* \"#utility.yul\":9995:9997   */\n      0x60\n        /* \"#utility.yul\":9983:9992   */\n      dup5\n        /* \"#utility.yul\":9974:9981   */\n      dup7\n        /* \"#utility.yul\":9970:9993   */\n      sub\n        /* \"#utility.yul\":9966:9998   */\n      slt\n        /* \"#utility.yul\":9963:10082   */\n      iszero\n      tag_567\n      jumpi\n        /* \"#utility.yul\":10001:10080   */\n      tag_568\n      tag_392\n      jump\t// in\n    tag_568:\n        /* \"#utility.yul\":9963:10082   */\n    tag_567:\n        /* \"#utility.yul\":10121:10122   */\n      0x00\n        /* \"#utility.yul\":10146:10199   */\n      tag_569\n        /* \"#utility.yul\":10191:10198   */\n      dup7\n        /* \"#utility.yul\":10182:10188   */\n      dup3\n        /* \"#utility.yul\":10171:10180   */\n      dup8\n        /* \"#utility.yul\":10167:10189   */\n      add\n        /* \"#utility.yul\":10146:10199   */\n      tag_396\n      jump\t// in\n    tag_569:\n        /* \"#utility.yul\":10136:10199   */\n      swap4\n      pop\n        /* \"#utility.yul\":10092:10209   */\n      pop\n        /* \"#utility.yul\":10248:10250   */\n      0x20\n        /* \"#utility.yul\":10274:10327   */\n      tag_570\n        /* \"#utility.yul\":10319:10326   */\n      dup7\n        /* \"#utility.yul\":10310:10316   */\n      dup3\n        /* \"#utility.yul\":10299:10308   */\n      dup8\n        /* \"#utility.yul\":10295:10317   */\n      add\n        /* \"#utility.yul\":10274:10327   */\n      tag_396\n      jump\t// in\n    tag_570:\n        /* \"#utility.yul\":10264:10327   */\n      swap3\n      pop\n        /* \"#utility.yul\":10219:10337   */\n      pop\n        /* \"#utility.yul\":10376:10378   */\n      0x40\n        /* \"#utility.yul\":10402:10455   */\n      tag_571\n        /* \"#utility.yul\":10447:10454   */\n      dup7\n        /* \"#utility.yul\":10438:10444   */\n      dup3\n        /* \"#utility.yul\":10427:10436   */\n      dup8\n        /* \"#utility.yul\":10423:10445   */\n      add\n        /* \"#utility.yul\":10402:10455   */\n      tag_396\n      jump\t// in\n    tag_571:\n        /* \"#utility.yul\":10392:10455   */\n      swap2\n      pop\n        /* \"#utility.yul\":10347:10465   */\n      pop\n        /* \"#utility.yul\":9853:10472   */\n      swap3\n      pop\n      swap3\n      pop\n      swap3\n      jump\t// out\n        /* \"#utility.yul\":10478:10577   */\n    tag_426:\n        /* \"#utility.yul\":10530:10536   */\n      0x00\n        /* \"#utility.yul\":10564:10569   */\n      dup2\n        /* \"#utility.yul\":10558:10570   */\n      mload\n        /* \"#utility.yul\":10548:10570   */\n      swap1\n      pop\n        /* \"#utility.yul\":10478:10577   */\n      swap2\n      swap1\n      pop\n      jump\t// out\n        /* \"#utility.yul\":10583:10752   */\n    tag_427:\n        /* \"#utility.yul\":10667:10678   */\n      0x00\n        /* \"#utility.yul\":10701:10707   */\n      dup3\n        /* \"#utility.yul\":10696:10699   */\n      dup3\n        /* \"#utility.yul\":10689:10708   */\n      mstore\n        /* \"#utility.yul\":10741:10745   */\n      0x20\n        /* \"#utility.yul\":10736:10739   */\n      dup3\n        /* \"#utility.yul\":10732:10746   */\n      add\n        /* \"#utility.yul\":10717:10746   */\n      swap1\n      pop\n        /* \"#utility.yul\":10583:10752   */\n      swap3\n      swap2\n      pop\n      pop\n      jump\t// out\n        /* \"#utility.yul\":10758:11004   */\n    tag_428:\n        /* \"#utility.yul\":10839:10840   */\n      0x00\n        /* \"#utility.yul\":10849:10962   */\n    tag_575:\n        /* \"#utility.yul\":10863:10869   */\n      dup4\n        /* \"#utility.yul\":10860:10861   */\n      dup2\n        /* \"#utility.yul\":10857:10870   */\n      lt\n        /* \"#utility.yul\":10849:10962   */\n      iszero\n      tag_577\n      jumpi\n        /* \"#utility.yul\":10948:10949   */\n      dup1\n        /* \"#utility.yul\":10943:10946   */\n      dup3\n        /* \"#utility.yul\":10939:10950   */\n      add\n        /* \"#utility.yul\":10933:10951   */\n      mload\n        /* \"#utility.yul\":10929:10930   */\n      dup2\n        /* \"#utility.yul\":10924:10927   */\n      dup5\n        /* \"#utility.yul\":10920:10931   */\n      add\n        /* \"#utility.yul\":10913:10952   */\n      mstore\n        /* \"#utility.yul\":10885:10887   */\n      0x20\n        /* \"#utility.yul\":10882:10883   */\n      dup2\n        /* \"#utility.yul\":10878:10888   */\n      add\n        /* \"#utility.yul\":10873:10888   */\n      swap1\n      pop\n        /* \"#utility.yul\":10849:10962   */\n      jump(tag_575)\n    tag_577:\n        /* \"#utility.yul\":10996:10997   */\n      0x00\n        /* \"#utility.yul\":10987:10993   */\n      dup5\n        /* \"#utility.yul\":10982:10985   */\n      dup5\n        /* \"#utility.yul\":10978:10994   */\n      add\n        /* \"#utility.yul\":10971:10998   */\n      mstore\n        /* \"#utility.yul\":10820:11004   */\n      pop\n        /* \"#utility.yul\":10758:11004   */\n      pop\n      pop\n      pop\n      jump\t// out\n        /* \"#utility.yul\":11010:11387   */\n    tag_429:\n        /* \"#utility.yul\":11098:11101   */\n      0x00\n        /* \"#utility.yul\":11126:11165   */\n      tag_579\n        /* \"#utility.yul\":11159:11164   */\n      dup3\n        /* \"#utility.yul\":11126:11165   */\n      tag_426\n      jump\t// in\n    tag_579:\n        /* \"#utility.yul\":11181:11252   */\n      tag_580\n        /* \"#utility.yul\":11245:11251   */\n      dup2\n        /* \"#utility.yul\":11240:11243   */\n      dup6\n        /* \"#utility.yul\":11181:11252   */\n      tag_427\n      jump\t// in\n    tag_580:\n        /* \"#utility.yul\":11174:11252   */\n      swap4\n      pop\n        /* \"#utility.yul\":11261:11326   */\n      tag_581\n        /* \"#utility.yul\":11319:11325   */\n      dup2\n        /* \"#utility.yul\":11314:11317   */\n      dup6\n        /* \"#utility.yul\":11307:11311   */\n      0x20\n        /* \"#utility.yul\":11300:11305   */\n      dup7\n        /* \"#utility.yul\":11296:11312   */\n      add\n        /* \"#utility.yul\":11261:11326   */\n      tag_428\n      jump\t// in\n    tag_581:\n        /* \"#utility.yul\":11351:11380   */\n      tag_582\n        /* \"#utility.yul\":11373:11379   */\n      dup2\n        /* \"#utility.yul\":11351:11380   */\n      tag_417\n      jump\t// in\n    tag_582:\n        /* \"#utility.yul\":11346:11349   */\n      dup5\n        /* \"#utility.yul\":11342:11381   */\n      add\n        /* \"#utility.yul\":11335:11381   */\n      swap2\n      pop\n        /* \"#utility.yul\":11102:11387   */\n      pop\n        /* \"#utility.yul\":11010:11387   */\n      swap3\n      swap2\n      pop\n      pop\n      jump\t// out\n        /* \"#utility.yul\":11393:11706   */\n    tag_132:\n        /* \"#utility.yul\":11506:11510   */\n      0x00\n        /* \"#utility.yul\":11544:11546   */\n      0x20\n        /* \"#utility.yul\":11533:11542   */\n      dup3\n        /* \"#utility.yul\":11529:11547   */\n      add\n        /* \"#utility.yul\":11521:11547   */\n      swap1\n      pop\n        /* \"#utility.yul\":11593:11602   */\n      dup2\n        /* \"#utility.yul\":11587:11591   */\n      dup2\n        /* \"#utility.yul\":11583:11603   */\n      sub\n        /* \"#utility.yul\":11579:11580   */\n      0x00\n        /* \"#utility.yul\":11568:11577   */\n      dup4\n        /* \"#utility.yul\":11564:11581   */\n      add\n        /* \"#utility.yul\":11557:11604   */\n      mstore\n        /* \"#utility.yul\":11621:11699   */\n      tag_584\n        /* \"#utility.yul\":11694:11698   */\n      dup2\n        /* \"#utility.yul\":11685:11691   */\n      dup5\n        /* \"#utility.yul\":11621:11699   */\n      tag_429\n      jump\t// in\n    tag_584:\n        /* \"#utility.yul\":11613:11699   */\n      swap1\n      pop\n        /* \"#utility.yul\":11393:11706   */\n      swap3\n      swap2\n      pop\n      pop\n      jump\t// out\n        /* \"#utility.yul\":11712:12154   */\n    tag_137:\n        /* \"#utility.yul\":11861:11865   */\n      0x00\n        /* \"#utility.yul\":11899:11901   */\n      0x60\n        /* \"#utility.yul\":11888:11897   */\n      dup3\n        /* \"#utility.yul\":11884:11902   */\n      add\n        /* \"#utility.yul\":11876:11902   */\n      swap1\n      pop\n        /* \"#utility.yul\":11912:11983   */\n      tag_586\n        /* \"#utility.yul\":11980:11981   */\n      0x00\n        /* \"#utility.yul\":11969:11978   */\n      dup4\n        /* \"#utility.yul\":11965:11982   */\n      add\n        /* \"#utility.yul\":11956:11962   */\n      dup7\n        /* \"#utility.yul\":11912:11983   */\n      tag_407\n      jump\t// in\n    tag_586:\n        /* \"#utility.yul\":11993:12065   */\n      tag_587\n        /* \"#utility.yul\":12061:12063   */\n      0x20\n        /* \"#utility.yul\":12050:12059   */\n      dup4\n        /* \"#utility.yul\":12046:12064   */\n      add\n        /* \"#utility.yul\":12037:12043   */\n      dup6\n        /* \"#utility.yul\":11993:12065   */\n      tag_407\n      jump\t// in\n    tag_587:\n        /* \"#utility.yul\":12075:12147   */\n      tag_588\n        /* \"#utility.yul\":12143:12145   */\n      0x40\n        /* \"#utility.yul\":12132:12141   */\n      dup4\n        /* \"#utility.yul\":12128:12146   */\n      add\n        /* \"#utility.yul\":12119:12125   */\n      dup5\n        /* \"#utility.yul\":12075:12147   */\n      tag_407\n      jump\t// in\n    tag_588:\n        /* \"#utility.yul\":11712:12154   */\n      swap5\n      swap4\n      pop\n      pop\n      pop\n      pop\n      jump\t// out\n        /* \"#utility.yul\":12160:12337   */\n    tag_430:\n        /* \"#utility.yul\":12300:12329   */\n      0x496e76616c696420737562736372697074696f6e20616d6f756e740000000000\n        /* \"#utility.yul\":12296:12297   */\n      0x00\n        /* \"#utility.yul\":12288:12294   */\n      dup3\n        /* \"#utility.yul\":12284:12298   */\n      add\n        /* \"#utility.yul\":12277:12330   */\n      mstore\n        /* \"#utility.yul\":12160:12337   */\n      pop\n      jump\t// out\n        /* \"#utility.yul\":12343:12709   */\n    tag_431:\n        /* \"#utility.yul\":12485:12488   */\n      0x00\n        /* \"#utility.yul\":12506:12573   */\n      tag_591\n        /* \"#utility.yul\":12570:12572   */\n      0x1b\n        /* \"#utility.yul\":12565:12568   */\n      dup4\n        /* \"#utility.yul\":12506:12573   */\n      tag_427\n      jump\t// in\n    tag_591:\n        /* \"#utility.yul\":12499:12573   */\n      swap2\n      pop\n        /* \"#utility.yul\":12582:12675   */\n      tag_592\n        /* \"#utility.yul\":12671:12674   */\n      dup3\n        /* \"#utility.yul\":12582:12675   */\n      tag_430\n      jump\t// in\n    tag_592:\n        /* \"#utility.yul\":12700:12702   */\n      0x20\n        /* \"#utility.yul\":12695:12698   */\n      dup3\n        /* \"#utility.yul\":12691:12703   */\n      add\n        /* \"#utility.yul\":12684:12703   */\n      swap1\n      pop\n        /* \"#utility.yul\":12343:12709   */\n      swap2\n      swap1\n      pop\n      jump\t// out\n        /* \"#utility.yul\":12715:13134   */\n    tag_163:\n        /* \"#utility.yul\":12881:12885   */\n      0x00\n        /* \"#utility.yul\":12919:12921   */\n      0x20\n        /* \"#utility.yul\":12908:12917   */\n      dup3\n        /* \"#utility.yul\":12904:12922   */\n      add\n        /* \"#utility.yul\":12896:12922   */\n      swap1\n      pop\n        /* \"#utility.yul\":12968:12977   */\n      dup2\n        /* \"#utility.yul\":12962:12966   */\n      dup2\n        /* \"#utility.yul\":12958:12978   */\n      sub\n        /* \"#utility.yul\":12954:12955   */\n      0x00\n        /* \"#utility.yul\":12943:12952   */\n      dup4\n        /* \"#utility.yul\":12939:12956   */\n      add\n        /* \"#utility.yul\":12932:12979   */\n      mstore\n        /* \"#utility.yul\":12996:13127   */\n      tag_594\n        /* \"#utility.yul\":13122:13126   */\n      dup2\n        /* \"#utility.yul\":12996:13127   */\n      tag_431\n      jump\t// in\n    tag_594:\n        /* \"#utility.yul\":12988:13127   */\n      swap1\n      pop\n        /* \"#utility.yul\":12715:13134   */\n      swap2\n      swap1\n      pop\n      jump\t// out\n        /* \"#utility.yul\":13140:13308   */\n    tag_432:\n        /* \"#utility.yul\":13280:13300   */\n      0x416c726561647920737562736372696265640000000000000000000000000000\n        /* \"#utility.yul\":13276:13277   */\n      0x00\n        /* \"#utility.yul\":13268:13274   */\n      dup3\n        /* \"#utility.yul\":13264:13278   */\n      add\n        /* \"#utility.yul\":13257:13301   */\n      mstore\n        /* \"#utility.yul\":13140:13308   */\n      pop\n      jump\t// out\n        /* \"#utility.yul\":13314:13680   */\n    tag_433:\n        /* \"#utility.yul\":13456:13459   */\n      0x00\n        /* \"#utility.yul\":13477:13544   */\n      tag_597\n        /* \"#utility.yul\":13541:13543   */\n      0x12\n        /* \"#utility.yul\":13536:13539   */\n      dup4\n        /* \"#utility.yul\":13477:13544   */\n      tag_427\n      jump\t// in\n    tag_597:\n        /* \"#utility.yul\":13470:13544   */\n      swap2\n      pop\n        /* \"#utility.yul\":13553:13646   */\n      tag_598\n        /* \"#utility.yul\":13642:13645   */\n      dup3\n        /* \"#utility.yul\":13553:13646   */\n      tag_432\n      jump\t// in\n    tag_598:\n        /* \"#utility.yul\":13671:13673   */\n      0x20\n        /* \"#utility.yul\":13666:13669   */\n      dup3\n        /* \"#utility.yul\":13662:13674   */\n      add\n        /* \"#utility.yul\":13655:13674   */\n      swap1\n      pop\n        /* \"#utility.yul\":13314:13680   */\n      swap2\n      swap1\n      pop\n      jump\t// out\n        /* \"#utility.yul\":13686:14105   */\n    tag_166:\n        /* \"#utility.yul\":13852:13856   */\n      0x00\n        /* \"#utility.yul\":13890:13892   */\n      0x20\n        /* \"#utility.yul\":13879:13888   */\n      dup3\n        /* \"#utility.yul\":13875:13893   */\n      add\n        /* \"#utility.yul\":13867:13893   */\n      swap1\n      pop\n        /* \"#utility.yul\":13939:13948   */\n      dup2\n        /* \"#utility.yul\":13933:13937   */\n      dup2\n        /* \"#utility.yul\":13929:13949   */\n      sub\n        /* \"#utility.yul\":13925:13926   */\n      0x00\n        /* \"#utility.yul\":13914:13923   */\n      dup4\n        /* \"#utility.yul\":13910:13927   */\n      add\n        /* \"#utility.yul\":13903:13950   */\n      mstore\n        /* \"#utility.yul\":13967:14098   */\n      tag_600\n        /* \"#utility.yul\":14093:14097   */\n      dup2\n        /* \"#utility.yul\":13967:14098   */\n      tag_433\n      jump\t// in\n    tag_600:\n        /* \"#utility.yul\":13959:14098   */\n      swap1\n      pop\n        /* \"#utility.yul\":13686:14105   */\n      swap2\n      swap1\n      pop\n      jump\t// out\n        /* \"#utility.yul\":14111:14291   */\n    tag_434:\n        /* \"#utility.yul\":14159:14236   */\n      0x4e487b7100000000000000000000000000000000000000000000000000000000\n        /* \"#utility.yul\":14156:14157   */\n      0x00\n        /* \"#utility.yul\":14149:14237   */\n      mstore\n        /* \"#utility.yul\":14256:14260   */\n      0x11\n        /* \"#utility.yul\":14253:14254   */\n      0x04\n        /* \"#utility.yul\":14246:14261   */\n      mstore\n        /* \"#utility.yul\":14280:14284   */\n      0x24\n        /* \"#utility.yul\":14277:14278   */\n      0x00\n        /* \"#utility.yul\":14270:14285   */\n      revert\n        /* \"#utility.yul\":14297:14488   */\n    tag_170:\n        /* \"#utility.yul\":14337:14340   */\n      0x00\n        /* \"#utility.yul\":14356:14376   */\n      tag_603\n        /* \"#utility.yul\":14374:14375   */\n      dup3\n        /* \"#utility.yul\":14356:14376   */\n      tag_394\n      jump\t// in\n    tag_603:\n        /* \"#utility.yul\":14351:14376   */\n      swap2\n      pop\n        /* \"#utility.yul\":14390:14410   */\n      tag_604\n        /* \"#utility.yul\":14408:14409   */\n      dup4\n        /* \"#utility.yul\":14390:14410   */\n      tag_394\n      jump\t// in\n    tag_604:\n        /* \"#utility.yul\":14385:14410   */\n      swap3\n      pop\n        /* \"#utility.yul\":14433:14434   */\n      dup3\n        /* \"#utility.yul\":14430:14431   */\n      dup3\n        /* \"#utility.yul\":14426:14435   */\n      add\n        /* \"#utility.yul\":14419:14435   */\n      swap1\n      pop\n        /* \"#utility.yul\":14454:14457   */\n      dup1\n        /* \"#utility.yul\":14451:14452   */\n      dup3\n        /* \"#utility.yul\":14448:14458   */\n      gt\n        /* \"#utility.yul\":14445:14481   */\n      iszero\n      tag_605\n      jumpi\n        /* \"#utility.yul\":14461:14479   */\n      tag_606\n      tag_434\n      jump\t// in\n    tag_606:\n        /* \"#utility.yul\":14445:14481   */\n    tag_605:\n        /* \"#utility.yul\":14297:14488   */\n      swap3\n      swap2\n      pop\n      pop\n      jump\t// out\n        /* \"#utility.yul\":14494:14657   */\n    tag_435:\n        /* \"#utility.yul\":14634:14649   */\n      0x496e76616c6964206c6576656c00000000000000000000000000000000000000\n        /* \"#utility.yul\":14630:14631   */\n      0x00\n        /* \"#utility.yul\":14622:14628   */\n      dup3\n        /* \"#utility.yul\":14618:14632   */\n      add\n        /* \"#utility.yul\":14611:14650   */\n      mstore\n        /* \"#utility.yul\":14494:14657   */\n      pop\n      jump\t// out\n        /* \"#utility.yul\":14663:15029   */\n    tag_436:\n        /* \"#utility.yul\":14805:14808   */\n      0x00\n        /* \"#utility.yul\":14826:14893   */\n      tag_609\n        /* \"#utility.yul\":14890:14892   */\n      0x0d\n        /* \"#utility.yul\":14885:14888   */\n      dup4\n        /* \"#utility.yul\":14826:14893   */\n      tag_427\n      jump\t// in\n    tag_609:\n        /* \"#utility.yul\":14819:14893   */\n      swap2\n      pop\n        /* \"#utility.yul\":14902:14995   */\n      tag_610\n        /* \"#utility.yul\":14991:14994   */\n      dup3\n        /* \"#utility.yul\":14902:14995   */\n      tag_435\n      jump\t// in\n    tag_610:\n        /* \"#utility.yul\":15020:15022   */\n      0x20\n        /* \"#utility.yul\":15015:15018   */\n      dup3\n        /* \"#utility.yul\":15011:15023   */\n      add\n        /* \"#utility.yul\":15004:15023   */\n      swap1\n      pop\n        /* \"#utility.yul\":14663:15029   */\n      swap2\n      swap1\n      pop\n      jump\t// out\n        /* \"#utility.yul\":15035:15454   */\n    tag_195:\n        /* \"#utility.yul\":15201:15205   */\n      0x00\n        /* \"#utility.yul\":15239:15241   */\n      0x20\n        /* \"#utility.yul\":15228:15237   */\n      dup3\n        /* \"#utility.yul\":15224:15242   */\n      add\n        /* \"#utility.yul\":15216:15242   */\n      swap1\n      pop\n        /* \"#utility.yul\":15288:15297   */\n      dup2\n        /* \"#utility.yul\":15282:15286   */\n      dup2\n        /* \"#utility.yul\":15278:15298   */\n      sub\n        /* \"#utility.yul\":15274:15275   */\n      0x00\n        /* \"#utility.yul\":15263:15272   */\n      dup4\n        /* \"#utility.yul\":15259:15276   */\n      add\n        /* \"#utility.yul\":15252:15299   */\n      mstore\n        /* \"#utility.yul\":15316:15447   */\n      tag_612\n        /* \"#utility.yul\":15442:15446   */\n      dup2\n        /* \"#utility.yul\":15316:15447   */\n      tag_436\n      jump\t// in\n    tag_612:\n        /* \"#utility.yul\":15308:15447   */\n      swap1\n      pop\n        /* \"#utility.yul\":15035:15454   */\n      swap2\n      swap1\n      pop\n      jump\t// out\n        /* \"#utility.yul\":15460:15654   */\n    tag_204:\n        /* \"#utility.yul\":15500:15504   */\n      0x00\n        /* \"#utility.yul\":15520:15540   */\n      tag_614\n        /* \"#utility.yul\":15538:15539   */\n      dup3\n        /* \"#utility.yul\":15520:15540   */\n      tag_394\n      jump\t// in\n    tag_614:\n        /* \"#utility.yul\":15515:15540   */\n      swap2\n      pop\n        /* \"#utility.yul\":15554:15574   */\n      tag_615\n        /* \"#utility.yul\":15572:15573   */\n      dup4\n        /* \"#utility.yul\":15554:15574   */\n      tag_394\n      jump\t// in\n    tag_615:\n        /* \"#utility.yul\":15549:15574   */\n      swap3\n      pop\n        /* \"#utility.yul\":15598:15599   */\n      dup3\n        /* \"#utility.yul\":15595:15596   */\n      dup3\n        /* \"#utility.yul\":15591:15600   */\n      sub\n        /* \"#utility.yul\":15583:15600   */\n      swap1\n      pop\n        /* \"#utility.yul\":15622:15623   */\n      dup2\n        /* \"#utility.yul\":15616:15620   */\n      dup2\n        /* \"#utility.yul\":15613:15624   */\n      gt\n        /* \"#utility.yul\":15610:15647   */\n      iszero\n      tag_616\n      jumpi\n        /* \"#utility.yul\":15627:15645   */\n      tag_617\n      tag_434\n      jump\t// in\n    tag_617:\n        /* \"#utility.yul\":15610:15647   */\n    tag_616:\n        /* \"#utility.yul\":15460:15654   */\n      swap3\n      swap2\n      pop\n      pop\n      jump\t// out\n        /* \"#utility.yul\":15660:15840   */\n    tag_213:\n        /* \"#utility.yul\":15708:15785   */\n      0x4e487b7100000000000000000000000000000000000000000000000000000000\n        /* \"#utility.yul\":15705:15706   */\n      0x00\n        /* \"#utility.yul\":15698:15786   */\n      mstore\n        /* \"#utility.yul\":15805:15809   */\n      0x32\n        /* \"#utility.yul\":15802:15803   */\n      0x04\n        /* \"#utility.yul\":15795:15810   */\n      mstore\n        /* \"#utility.yul\":15829:15833   */\n      0x24\n        /* \"#utility.yul\":15826:15827   */\n      0x00\n        /* \"#utility.yul\":15819:15834   */\n      revert\n        /* \"#utility.yul\":15846:16016   */\n    tag_437:\n        /* \"#utility.yul\":15986:16008   */\n      0x496e76616c6964206c6576656c2076616c756573000000000000000000000000\n        /* \"#utility.yul\":15982:15983   */\n      0x00\n        /* \"#utility.yul\":15974:15980   */\n      dup3\n        /* \"#utility.yul\":15970:15984   */\n      add\n        /* \"#utility.yul\":15963:16009   */\n      mstore\n        /* \"#utility.yul\":15846:16016   */\n      pop\n      jump\t// out\n        /* \"#utility.yul\":16022:16388   */\n    tag_438:\n        /* \"#utility.yul\":16164:16167   */\n      0x00\n        /* \"#utility.yul\":16185:16252   */\n      tag_621\n        /* \"#utility.yul\":16249:16251   */\n      0x14\n        /* \"#utility.yul\":16244:16247   */\n      dup4\n        /* \"#utility.yul\":16185:16252   */\n      tag_427\n      jump\t// in\n    tag_621:\n        /* \"#utility.yul\":16178:16252   */\n      swap2\n      pop\n        /* \"#utility.yul\":16261:16354   */\n      tag_622\n        /* \"#utility.yul\":16350:16353   */\n      dup3\n        /* \"#utility.yul\":16261:16354   */\n      tag_437\n      jump\t// in\n    tag_622:\n        /* \"#utility.yul\":16379:16381   */\n      0x20\n        /* \"#utility.yul\":16374:16377   */\n      dup3\n        /* \"#utility.yul\":16370:16382   */\n      add\n        /* \"#utility.yul\":16363:16382   */\n      swap1\n      pop\n        /* \"#utility.yul\":16022:16388   */\n      swap2\n      swap1\n      pop\n      jump\t// out\n        /* \"#utility.yul\":16394:16813   */\n    tag_256:\n        /* \"#utility.yul\":16560:16564   */\n      0x00\n        /* \"#utility.yul\":16598:16600   */\n      0x20\n        /* \"#utility.yul\":16587:16596   */\n      dup3\n        /* \"#utility.yul\":16583:16601   */\n      add\n        /* \"#utility.yul\":16575:16601   */\n      swap1\n      pop\n        /* \"#utility.yul\":16647:16656   */\n      dup2\n        /* \"#utility.yul\":16641:16645   */\n      dup2\n        /* \"#utility.yul\":16637:16657   */\n      sub\n        /* \"#utility.yul\":16633:16634   */\n      0x00\n        /* \"#utility.yul\":16622:16631   */\n      dup4\n        /* \"#utility.yul\":16618:16635   */\n      add\n        /* \"#utility.yul\":16611:16658   */\n      mstore\n        /* \"#utility.yul\":16675:16806   */\n      tag_624\n        /* \"#utility.yul\":16801:16805   */\n      dup2\n        /* \"#utility.yul\":16675:16806   */\n      tag_438\n      jump\t// in\n    tag_624:\n        /* \"#utility.yul\":16667:16806   */\n      swap1\n      pop\n        /* \"#utility.yul\":16394:16813   */\n      swap2\n      swap1\n      pop\n      jump\t// out\n        /* \"#utility.yul\":16819:16904   */\n    tag_439:\n        /* \"#utility.yul\":16864:16871   */\n      0x00\n        /* \"#utility.yul\":16893:16898   */\n      dup2\n        /* \"#utility.yul\":16882:16898   */\n      swap1\n      pop\n        /* \"#utility.yul\":16819:16904   */\n      swap2\n      swap1\n      pop\n      jump\t// out\n        /* \"#utility.yul\":16910:17011   */\n    tag_440:\n        /* \"#utility.yul\":16946:16953   */\n      0x00\n        /* \"#utility.yul\":16986:17004   */\n      0xffffffffffffffff\n        /* \"#utility.yul\":16979:16984   */\n      dup3\n        /* \"#utility.yul\":16975:17005   */\n      and\n        /* \"#utility.yul\":16964:17005   */\n      swap1\n      pop\n        /* \"#utility.yul\":16910:17011   */\n      swap2\n      swap1\n      pop\n      jump\t// out\n        /* \"#utility.yul\":17017:17077   */\n    tag_441:\n        /* \"#utility.yul\":17045:17048   */\n      0x00\n        /* \"#utility.yul\":17066:17071   */\n      dup2\n        /* \"#utility.yul\":17059:17071   */\n      swap1\n      pop\n        /* \"#utility.yul\":17017:17077   */\n      swap2\n      swap1\n      pop\n      jump\t// out\n        /* \"#utility.yul\":17083:17239   */\n    tag_442:\n        /* \"#utility.yul\":17140:17149   */\n      0x00\n        /* \"#utility.yul\":17173:17233   */\n      tag_629\n        /* \"#utility.yul\":17190:17232   */\n      tag_630\n        /* \"#utility.yul\":17199:17231   */\n      tag_631\n        /* \"#utility.yul\":17225:17230   */\n      dup5\n        /* \"#utility.yul\":17199:17231   */\n      tag_439\n      jump\t// in\n    tag_631:\n        /* \"#utility.yul\":17190:17232   */\n      tag_441\n      jump\t// in\n    tag_630:\n        /* \"#utility.yul\":17173:17233   */\n      tag_440\n      jump\t// in\n    tag_629:\n        /* \"#utility.yul\":17160:17233   */\n      swap1\n      pop\n        /* \"#utility.yul\":17083:17239   */\n      swap2\n      swap1\n      pop\n      jump\t// out\n        /* \"#utility.yul\":17245:17390   */\n    tag_443:\n        /* \"#utility.yul\":17339:17383   */\n      tag_633\n        /* \"#utility.yul\":17377:17382   */\n      dup2\n        /* \"#utility.yul\":17339:17383   */\n      tag_442\n      jump\t// in\n    tag_633:\n        /* \"#utility.yul\":17334:17337   */\n      dup3\n        /* \"#utility.yul\":17327:17384   */\n      mstore\n        /* \"#utility.yul\":17245:17390   */\n      pop\n      pop\n      jump\t// out\n        /* \"#utility.yul\":17396:17632   */\n    tag_275:\n        /* \"#utility.yul\":17496:17500   */\n      0x00\n        /* \"#utility.yul\":17534:17536   */\n      0x20\n        /* \"#utility.yul\":17523:17532   */\n      dup3\n        /* \"#utility.yul\":17519:17537   */\n      add\n        /* \"#utility.yul\":17511:17537   */\n      swap1\n      pop\n        /* \"#utility.yul\":17547:17625   */\n      tag_635\n        /* \"#utility.yul\":17622:17623   */\n      0x00\n        /* \"#utility.yul\":17611:17620   */\n      dup4\n        /* \"#utility.yul\":17607:17624   */\n      add\n        /* \"#utility.yul\":17598:17604   */\n      dup5\n        /* \"#utility.yul\":17547:17625   */\n      tag_443\n      jump\t// in\n    tag_635:\n        /* \"#utility.yul\":17396:17632   */\n      swap3\n      swap2\n      pop\n      pop\n      jump\t// out\n        /* \"#utility.yul\":17638:18080   */\n    tag_286:\n        /* \"#utility.yul\":17787:17791   */\n      0x00\n        /* \"#utility.yul\":17825:17827   */\n      0x60\n        /* \"#utility.yul\":17814:17823   */\n      dup3\n        /* \"#utility.yul\":17810:17828   */\n      add\n        /* \"#utility.yul\":17802:17828   */\n      swap1\n      pop\n        /* \"#utility.yul\":17838:17909   */\n      tag_637\n        /* \"#utility.yul\":17906:17907   */\n      0x00\n        /* \"#utility.yul\":17895:17904   */\n      dup4\n        /* \"#utility.yul\":17891:17908   */\n      add\n        /* \"#utility.yul\":17882:17888   */\n      dup7\n        /* \"#utility.yul\":17838:17909   */\n      tag_399\n      jump\t// in\n    tag_637:\n        /* \"#utility.yul\":17919:17991   */\n      tag_638\n        /* \"#utility.yul\":17987:17989   */\n      0x20\n        /* \"#utility.yul\":17976:17985   */\n      dup4\n        /* \"#utility.yul\":17972:17990   */\n      add\n        /* \"#utility.yul\":17963:17969   */\n      dup6\n        /* \"#utility.yul\":17919:17991   */\n      tag_399\n      jump\t// in\n    tag_638:\n        /* \"#utility.yul\":18001:18073   */\n      tag_639\n        /* \"#utility.yul\":18069:18071   */\n      0x40\n        /* \"#utility.yul\":18058:18067   */\n      dup4\n        /* \"#utility.yul\":18054:18072   */\n      add\n        /* \"#utility.yul\":18045:18051   */\n      dup5\n        /* \"#utility.yul\":18001:18073   */\n      tag_407\n      jump\t// in\n    tag_639:\n        /* \"#utility.yul\":17638:18080   */\n      swap5\n      swap4\n      pop\n      pop\n      pop\n      pop\n      jump\t// out\n        /* \"#utility.yul\":18086:18184   */\n    tag_444:\n        /* \"#utility.yul\":18137:18143   */\n      0x00\n        /* \"#utility.yul\":18171:18176   */\n      dup2\n        /* \"#utility.yul\":18165:18177   */\n      mload\n        /* \"#utility.yul\":18155:18177   */\n      swap1\n      pop\n        /* \"#utility.yul\":18086:18184   */\n      swap2\n      swap1\n      pop\n      jump\t// out\n        /* \"#utility.yul\":18190:18337   */\n    tag_445:\n        /* \"#utility.yul\":18291:18302   */\n      0x00\n        /* \"#utility.yul\":18328:18331   */\n      dup2\n        /* \"#utility.yul\":18313:18331   */\n      swap1\n      pop\n        /* \"#utility.yul\":18190:18337   */\n      swap3\n      swap2\n      pop\n      pop\n      jump\t// out\n        /* \"#utility.yul\":18343:18729   */\n    tag_446:\n        /* \"#utility.yul\":18447:18450   */\n      0x00\n        /* \"#utility.yul\":18475:18513   */\n      tag_643\n        /* \"#utility.yul\":18507:18512   */\n      dup3\n        /* \"#utility.yul\":18475:18513   */\n      tag_444\n      jump\t// in\n    tag_643:\n        /* \"#utility.yul\":18529:18617   */\n      tag_644\n        /* \"#utility.yul\":18610:18616   */\n      dup2\n        /* \"#utility.yul\":18605:18608   */\n      dup6\n        /* \"#utility.yul\":18529:18617   */\n      tag_445\n      jump\t// in\n    tag_644:\n        /* \"#utility.yul\":18522:18617   */\n      swap4\n      pop\n        /* \"#utility.yul\":18626:18691   */\n      tag_645\n        /* \"#utility.yul\":18684:18690   */\n      dup2\n        /* \"#utility.yul\":18679:18682   */\n      dup6\n        /* \"#utility.yul\":18672:18676   */\n      0x20\n        /* \"#utility.yul\":18665:18670   */\n      dup7\n        /* \"#utility.yul\":18661:18677   */\n      add\n        /* \"#utility.yul\":18626:18691   */\n      tag_428\n      jump\t// in\n    tag_645:\n        /* \"#utility.yul\":18716:18722   */\n      dup1\n        /* \"#utility.yul\":18711:18714   */\n      dup5\n        /* \"#utility.yul\":18707:18723   */\n      add\n        /* \"#utility.yul\":18700:18723   */\n      swap2\n      pop\n        /* \"#utility.yul\":18451:18729   */\n      pop\n        /* \"#utility.yul\":18343:18729   */\n      swap3\n      swap2\n      pop\n      pop\n      jump\t// out\n        /* \"#utility.yul\":18735:19006   */\n    tag_288:\n        /* \"#utility.yul\":18865:18868   */\n      0x00\n        /* \"#utility.yul\":18887:18980   */\n      tag_647\n        /* \"#utility.yul\":18976:18979   */\n      dup3\n        /* \"#utility.yul\":18967:18973   */\n      dup5\n        /* \"#utility.yul\":18887:18980   */\n      tag_446\n      jump\t// in\n    tag_647:\n        /* \"#utility.yul\":18880:18980   */\n      swap2\n      pop\n        /* \"#utility.yul\":18997:19000   */\n      dup2\n        /* \"#utility.yul\":18990:19000   */\n      swap1\n      pop\n        /* \"#utility.yul\":18735:19006   */\n      swap3\n      swap2\n      pop\n      pop\n      jump\t// out\n        /* \"#utility.yul\":19012:19128   */\n    tag_447:\n        /* \"#utility.yul\":19082:19103   */\n      tag_649\n        /* \"#utility.yul\":19097:19102   */\n      dup2\n        /* \"#utility.yul\":19082:19103   */\n      tag_410\n      jump\t// in\n    tag_649:\n        /* \"#utility.yul\":19075:19080   */\n      dup2\n        /* \"#utility.yul\":19072:19104   */\n      eq\n        /* \"#utility.yul\":19062:19122   */\n      tag_650\n      jumpi\n        /* \"#utility.yul\":19118:19119   */\n      0x00\n        /* \"#utility.yul\":19115:19116   */\n      dup1\n        /* \"#utility.yul\":19108:19120   */\n      revert\n        /* \"#utility.yul\":19062:19122   */\n    tag_650:\n        /* \"#utility.yul\":19012:19128   */\n      pop\n      jump\t// out\n        /* \"#utility.yul\":19134:19271   */\n    tag_448:\n        /* \"#utility.yul\":19188:19193   */\n      0x00\n        /* \"#utility.yul\":19219:19225   */\n      dup2\n        /* \"#utility.yul\":19213:19226   */\n      mload\n        /* \"#utility.yul\":19204:19226   */\n      swap1\n      pop\n        /* \"#utility.yul\":19235:19265   */\n      tag_652\n        /* \"#utility.yul\":19259:19264   */\n      dup2\n        /* \"#utility.yul\":19235:19265   */\n      tag_447\n      jump\t// in\n    tag_652:\n        /* \"#utility.yul\":19134:19271   */\n      swap3\n      swap2\n      pop\n      pop\n      jump\t// out\n        /* \"#utility.yul\":19277:19622   */\n    tag_295:\n        /* \"#utility.yul\":19344:19350   */\n      0x00\n        /* \"#utility.yul\":19393:19395   */\n      0x20\n        /* \"#utility.yul\":19381:19390   */\n      dup3\n        /* \"#utility.yul\":19372:19379   */\n      dup5\n        /* \"#utility.yul\":19368:19391   */\n      sub\n        /* \"#utility.yul\":19364:19396   */\n      slt\n        /* \"#utility.yul\":19361:19480   */\n      iszero\n      tag_654\n      jumpi\n        /* \"#utility.yul\":19399:19478   */\n      tag_655\n      tag_392\n      jump\t// in\n    tag_655:\n        /* \"#utility.yul\":19361:19480   */\n    tag_654:\n        /* \"#utility.yul\":19519:19520   */\n      0x00\n        /* \"#utility.yul\":19544:19605   */\n      tag_656\n        /* \"#utility.yul\":19597:19604   */\n      dup5\n        /* \"#utility.yul\":19588:19594   */\n      dup3\n        /* \"#utility.yul\":19577:19586   */\n      dup6\n        /* \"#utility.yul\":19573:19595   */\n      add\n        /* \"#utility.yul\":19544:19605   */\n      tag_448\n      jump\t// in\n    tag_656:\n        /* \"#utility.yul\":19534:19605   */\n      swap2\n      pop\n        /* \"#utility.yul\":19490:19615   */\n      pop\n        /* \"#utility.yul\":19277:19622   */\n      swap3\n      swap2\n      pop\n      pop\n      jump\t// out\n        /* \"#utility.yul\":19628:19851   */\n    tag_449:\n        /* \"#utility.yul\":19768:19802   */\n      0x5472616e7366657248656c7065723a205452414e534645525f46524f4d5f4641\n        /* \"#utility.yul\":19764:19765   */\n      0x00\n        /* \"#utility.yul\":19756:19762   */\n      dup3\n        /* \"#utility.yul\":19752:19766   */\n      add\n        /* \"#utility.yul\":19745:19803   */\n      mstore\n        /* \"#utility.yul\":19837:19843   */\n      0x494c454400000000000000000000000000000000000000000000000000000000\n        /* \"#utility.yul\":19832:19834   */\n      0x20\n        /* \"#utility.yul\":19824:19830   */\n      dup3\n        /* \"#utility.yul\":19820:19835   */\n      add\n        /* \"#utility.yul\":19813:19844   */\n      mstore\n        /* \"#utility.yul\":19628:19851   */\n      pop\n      jump\t// out\n        /* \"#utility.yul\":19857:20223   */\n    tag_450:\n        /* \"#utility.yul\":19999:20002   */\n      0x00\n        /* \"#utility.yul\":20020:20087   */\n      tag_659\n        /* \"#utility.yul\":20084:20086   */\n      0x24\n        /* \"#utility.yul\":20079:20082   */\n      dup4\n        /* \"#utility.yul\":20020:20087   */\n      tag_427\n      jump\t// in\n    tag_659:\n        /* \"#utility.yul\":20013:20087   */\n      swap2\n      pop\n        /* \"#utility.yul\":20096:20189   */\n      tag_660\n        /* \"#utility.yul\":20185:20188   */\n      dup3\n        /* \"#utility.yul\":20096:20189   */\n      tag_449\n      jump\t// in\n    tag_660:\n        /* \"#utility.yul\":20214:20216   */\n      0x40\n        /* \"#utility.yul\":20209:20212   */\n      dup3\n        /* \"#utility.yul\":20205:20217   */\n      add\n        /* \"#utility.yul\":20198:20217   */\n      swap1\n      pop\n        /* \"#utility.yul\":19857:20223   */\n      swap2\n      swap1\n      pop\n      jump\t// out\n        /* \"#utility.yul\":20229:20648   */\n    tag_298:\n        /* \"#utility.yul\":20395:20399   */\n      0x00\n        /* \"#utility.yul\":20433:20435   */\n      0x20\n        /* \"#utility.yul\":20422:20431   */\n      dup3\n        /* \"#utility.yul\":20418:20436   */\n      add\n        /* \"#utility.yul\":20410:20436   */\n      swap1\n      pop\n        /* \"#utility.yul\":20482:20491   */\n      dup2\n        /* \"#utility.yul\":20476:20480   */\n      dup2\n        /* \"#utility.yul\":20472:20492   */\n      sub\n        /* \"#utility.yul\":20468:20469   */\n      0x00\n        /* \"#utility.yul\":20457:20466   */\n      dup4\n        /* \"#utility.yul\":20453:20470   */\n      add\n        /* \"#utility.yul\":20446:20493   */\n      mstore\n        /* \"#utility.yul\":20510:20641   */\n      tag_662\n        /* \"#utility.yul\":20636:20640   */\n      dup2\n        /* \"#utility.yul\":20510:20641   */\n      tag_450\n      jump\t// in\n    tag_662:\n        /* \"#utility.yul\":20502:20641   */\n      swap1\n      pop\n        /* \"#utility.yul\":20229:20648   */\n      swap2\n      swap1\n      pop\n      jump\t// out\n        /* \"#utility.yul\":20654:20776   */\n    tag_451:\n        /* \"#utility.yul\":20727:20751   */\n      tag_664\n        /* \"#utility.yul\":20745:20750   */\n      dup2\n        /* \"#utility.yul\":20727:20751   */\n      tag_424\n      jump\t// in\n    tag_664:\n        /* \"#utility.yul\":20720:20725   */\n      dup2\n        /* \"#utility.yul\":20717:20752   */\n      eq\n        /* \"#utility.yul\":20707:20770   */\n      tag_665\n      jumpi\n        /* \"#utility.yul\":20766:20767   */\n      0x00\n        /* \"#utility.yul\":20763:20764   */\n      dup1\n        /* \"#utility.yul\":20756:20768   */\n      revert\n        /* \"#utility.yul\":20707:20770   */\n    tag_665:\n        /* \"#utility.yul\":20654:20776   */\n      pop\n      jump\t// out\n        /* \"#utility.yul\":20782:20925   */\n    tag_452:\n        /* \"#utility.yul\":20839:20844   */\n      0x00\n        /* \"#utility.yul\":20870:20876   */\n      dup2\n        /* \"#utility.yul\":20864:20877   */\n      mload\n        /* \"#utility.yul\":20855:20877   */\n      swap1\n      pop\n        /* \"#utility.yul\":20886:20919   */\n      tag_667\n        /* \"#utility.yul\":20913:20918   */\n      dup2\n        /* \"#utility.yul\":20886:20919   */\n      tag_451\n      jump\t// in\n    tag_667:\n        /* \"#utility.yul\":20782:20925   */\n      swap3\n      swap2\n      pop\n      pop\n      jump\t// out\n        /* \"#utility.yul\":20931:21282   */\n    tag_317:\n        /* \"#utility.yul\":21001:21007   */\n      0x00\n        /* \"#utility.yul\":21050:21052   */\n      0x20\n        /* \"#utility.yul\":21038:21047   */\n      dup3\n        /* \"#utility.yul\":21029:21036   */\n      dup5\n        /* \"#utility.yul\":21025:21048   */\n      sub\n        /* \"#utility.yul\":21021:21053   */\n      slt\n        /* \"#utility.yul\":21018:21137   */\n      iszero\n      tag_669\n      jumpi\n        /* \"#utility.yul\":21056:21135   */\n      tag_670\n      tag_392\n      jump\t// in\n    tag_670:\n        /* \"#utility.yul\":21018:21137   */\n    tag_669:\n        /* \"#utility.yul\":21176:21177   */\n      0x00\n        /* \"#utility.yul\":21201:21265   */\n      tag_671\n        /* \"#utility.yul\":21257:21264   */\n      dup5\n        /* \"#utility.yul\":21248:21254   */\n      dup3\n        /* \"#utility.yul\":21237:21246   */\n      dup6\n        /* \"#utility.yul\":21233:21255   */\n      add\n        /* \"#utility.yul\":21201:21265   */\n      tag_452\n      jump\t// in\n    tag_671:\n        /* \"#utility.yul\":21191:21265   */\n      swap2\n      pop\n        /* \"#utility.yul\":21147:21275   */\n      pop\n        /* \"#utility.yul\":20931:21282   */\n      swap3\n      swap2\n      pop\n      pop\n      jump\t// out\n\n    auxdata: 0xa264697066735822122095a935dfa6cfdcffc9c4c9e891ff7f007bbbe765b6c9b0817a227631ac30fdb064736f6c63430008180033\n}\n",
				"bytecode": {
					"linkReferences": {},
					"object": "60a06040523073ffffffffffffffffffffffffffffffffffffffff1660809073ffffffffffffffffffffffffffffffffffffffff16815250670de0b6b3a7640000600255671bc16d674ec800006003556729a2241af62c0000600455348015610066575f80fd5b5060015f8190555060805161272b6100945f395f8181611485015281816114da0152611694015261272b5ff3fe608060405260043610610169575f3560e01c8063664637fc116100d0578063a652c53f11610089578063b00b968b11610063578063b00b968b1461051b578063c4d66de814610547578063c54e44eb1461056f578063f2fde38b1461059957610170565b8063a652c53f1461048d578063a9625dfe146104c9578063ad3cb1cc146104f157610170565b8063664637fc1461039357806366d003ac146103bd578063715018a6146103e75780638da5cb5b146103fd57806391d02b0f146104275780639aa3acf21461046357610170565b8063209630a811610122578063209630a814610295578063384d57b5146102d15780633bbed4a0146102fb5780634f1ef2861461032357806352d1902d1461033f57806357cc25371461036957610170565b8063065a187c1461017457806307b7e83e146101b05780630f574ba7146101da57806310bce0991461020257806314b4ee3b1461022c5780631959a0021461025757610170565b3661017057005b5f80fd5b34801561017f575f80fd5b5061019a60048036038101906101959190611ca7565b6105c1565b6040516101a79190611d11565b60405180910390f35b3480156101bb575f80fd5b506101c46105fc565b6040516101d19190611de1565b60405180910390f35b3480156101e5575f80fd5b5061020060048036038101906101fb9190611ca7565b610687565b005b34801561020d575f80fd5b506102166109f9565b6040516102239190611de1565b60405180910390f35b348015610237575f80fd5b50610240610a84565b60405161024e929190611e10565b60405180910390f35b348015610262575f80fd5b5061027d60048036038101906102789190611e61565b610ab7565b60405161028c93929190611ea6565b60405180910390f35b3480156102a0575f80fd5b506102bb60048036038101906102b69190611f11565b610ae9565b6040516102c89190611de1565b60405180910390f35b3480156102dc575f80fd5b506102e5610cf1565b6040516102f29190611f61565b60405180910390f35b348015610306575f80fd5b50610321600480360381019061031c9190611e61565b610cf7565b005b61033d600480360381019061033891906120b6565b610d42565b005b34801561034a575f80fd5b50610353610d61565b6040516103609190612128565b60405180910390f35b348015610374575f80fd5b5061037d610d92565b60405161038a9190611de1565b60405180910390f35b34801561039e575f80fd5b506103a7610e1d565b6040516103b49190611f61565b60405180910390f35b3480156103c8575f80fd5b506103d1610e23565b6040516103de9190611d11565b60405180910390f35b3480156103f2575f80fd5b506103fb610e48565b005b348015610408575f80fd5b50610411610e5b565b60405161041e9190611d11565b60405180910390f35b348015610432575f80fd5b5061044d60048036038101906104489190611ca7565b610e90565b60405161045a9190611d11565b60405180910390f35b34801561046e575f80fd5b50610477610ecb565b6040516104849190611f61565b60405180910390f35b348015610498575f80fd5b506104b360048036038101906104ae9190611ca7565b610ed1565b6040516104c09190611d11565b60405180910390f35b3480156104d4575f80fd5b506104ef60048036038101906104ea9190612141565b610f0c565b005b3480156104fc575f80fd5b50610505610f86565b604051610512919061220b565b60405180910390f35b348015610526575f80fd5b5061052f610fbf565b60405161053e9392919061222b565b60405180910390f35b348015610552575f80fd5b5061056d60048036038101906105689190611e61565b610fdf565b005b34801561057a575f80fd5b506105836111e0565b6040516105909190611d11565b60405180910390f35b3480156105a4575f80fd5b506105bf60048036038101906105ba9190611e61565b6111f8565b005b600681815481106105d0575f80fd5b905f5260205f20015f915054906101000a900473ffffffffffffffffffffffffffffffffffffffff1681565b6060600680548060200260200160405190810160405280929190818152602001828054801561067d57602002820191905f5260205f20905b815f9054906101000a900473ffffffffffffffffffffffffffffffffffffffff1673ffffffffffffffffffffffffffffffffffffffff1681526020019060010190808311610634575b5050505050905090565b61068f61127c565b6002548114806106a0575060035481145b806106ac575060045481145b6106eb576040517f08c379a00000000000000000000000000000000000000000000000000000000081526004016106e2906122aa565b60405180910390fd5b60055f3373ffffffffffffffffffffffffffffffffffffffff1673ffffffffffffffffffffffffffffffffffffffff1681526020019081526020015f206002015f9054906101000a900460ff1615610778576040517f08c379a000000000000000000000000000000000000000000000000000000000815260040161076f90612312565b60405180910390fd5b6107b97355d398326f99059ff775485246999027b31979553360015f9054906101000a900473ffffffffffffffffffffffffffffffffffffffff16846112c0565b60405180606001604052808281526020014281526020016001151581525060055f3373ffffffffffffffffffffffffffffffffffffffff1673ffffffffffffffffffffffffffffffffffffffff1681526020019081526020015f205f820151815f0155602082015181600101556040820151816002015f6101000a81548160ff0219169083151502179055509050508060095f828254610859919061235d565b9250508190555060025481036108ce57600633908060018154018082558091505060019003905f5260205f20015f9091909190916101000a81548173ffffffffffffffffffffffffffffffffffffffff021916908373ffffffffffffffffffffffffffffffffffffffff16021790555061099e565b600354810361093c57600733908060018154018082558091505060019003905f5260205f20015f9091909190916101000a81548173ffffffffffffffffffffffffffffffffffffffff021916908373ffffffffffffffffffffffffffffffffffffffff16021790555061099d565b600833908060018154018082558091505060019003905f5260205f20015f9091909190916101000a81548173ffffffffffffffffffffffffffffffffffffffff021916908373ffffffffffffffffffffffffffffffffffffffff1602179055505b5b3373ffffffffffffffffffffffffffffffffffffffff167ff94991dcbea6e8ac439cbc93bd9c62a4d39f04e0ad656df9a703f13552c2787f82426040516109e6929190611e10565b60405180910390a26109f66113f3565b50565b60606007805480602002602001604051908101604052809291908181526020018280548015610a7a57602002820191905f5260205f20905b815f9054906101000a900473ffffffffffffffffffffffffffffffffffffffff1673ffffffffffffffffffffffffffffffffffffffff1681526020019060010190808311610a31575b5050505050905090565b5f80600880549050600780549050600680549050610aa2919061235d565b610aac919061235d565b915060095490509091565b6005602052805f5260405f205f91509050805f015490806001015490806002015f9054906101000a900460ff16905083565b60605f808560ff1603610aff5760069050610b64565b60018560ff1603610b135760079050610b63565b60028560ff1603610b275760089050610b62565b6040517f08c379a0000000000000000000000000000000000000000000000000000000008152600401610b59906123da565b60405180910390fd5b5b5b80805490508410610bc0575f67ffffffffffffffff811115610b8957610b88611f92565b5b604051908082528060200260200182016040528015610bb75781602001602082028036833780820191505090505b50915050610cea565b5f8385610bcd919061235d565b90508180549050811115610be357818054905090505b8481610bef91906123f8565b67ffffffffffffffff811115610c0857610c07611f92565b5b604051908082528060200260200182016040528015610c365781602001602082028036833780820191505090505b5092505f8590505b81811015610ce657828181548110610c5957610c5861242b565b5b905f5260205f20015f9054906101000a900473ffffffffffffffffffffffffffffffffffffffff16848783610c8e91906123f8565b81518110610c9f57610c9e61242b565b5b602002602001019073ffffffffffffffffffffffffffffffffffffffff16908173ffffffffffffffffffffffffffffffffffffffff16815250508080600101915050610c3e565b5050505b9392505050565b60025481565b610cff6113fc565b8060015f6101000a81548173ffffffffffffffffffffffffffffffffffffffff021916908373ffffffffffffffffffffffffffffffffffffffff16021790555050565b610d4a611483565b610d5382611569565b610d5d8282611574565b5050565b5f610d6a611692565b7f360894a13ba1a3210667c828492db98dca3e2076cc3735a920a3ca505d382bbc5f1b905090565b60606008805480602002602001604051908101604052809291908181526020018280548015610e1357602002820191905f5260205f20905b815f9054906101000a900473ffffffffffffffffffffffffffffffffffffffff1673ffffffffffffffffffffffffffffffffffffffff1681526020019060010190808311610dca575b5050505050905090565b60045481565b60015f9054906101000a900473ffffffffffffffffffffffffffffffffffffffff1681565b610e506113fc565b610e595f611719565b565b5f80610e656117ea565b9050805f015f9054906101000a900473ffffffffffffffffffffffffffffffffffffffff1691505090565b60078181548110610e9f575f80fd5b905f5260205f20015f915054906101000a900473ffffffffffffffffffffffffffffffffffffffff1681565b60035481565b60088181548110610ee0575f80fd5b905f5260205f20015f915054906101000a900473ffffffffffffffffffffffffffffffffffffffff1681565b610f146113fc565b5f83118015610f2257505f82115b8015610f2d57505f81115b610f6c576040517f08c379a0000000000000000000000000000000000000000000000000000000008152600401610f63906124a2565b60405180910390fd5b826002819055508160038190555080600481905550505050565b6040518060400160405280600581526020017f352e302e3000000000000000000000000000000000000000000000000000000081525081565b5f805f600680549050925060078054905091506008805490509050909192565b5f610fe8611811565b90505f815f0160089054906101000a900460ff161590505f825f015f9054906101000a900467ffffffffffffffff1690505f808267ffffffffffffffff161480156110305750825b90505f60018367ffffffffffffffff1614801561106357505f3073ffffffffffffffffffffffffffffffffffffffff163b145b905081158015611071575080155b156110a8576040517ff92ee8a900000000000000000000000000000000000000000000000000000000815260040160405180910390fd5b6001855f015f6101000a81548167ffffffffffffffff021916908367ffffffffffffffff16021790555083156110f5576001855f0160086101000a81548160ff0219169083151502179055505b611105611100611824565b61182b565b61110d6118af565b8560015f6101000a81548173ffffffffffffffffffffffffffffffffffffffff021916908373ffffffffffffffffffffffffffffffffffffffff1602179055506830ca024f987b900000600281905550689d3595ab2438d0000060038190555069013fd6f2b475d4b0000060048190555083156111d8575f855f0160086101000a81548160ff0219169083151502179055507fc7f505b2f371ae2175ee4913f4499e1f2633a7b5936321eed1cdaeb6115181d260016040516111cf9190612515565b60405180910390a15b505050505050565b7355d398326f99059ff775485246999027b319795581565b6112006113fc565b5f73ffffffffffffffffffffffffffffffffffffffff168173ffffffffffffffffffffffffffffffffffffffff1603611270575f6040517f1e4fbdf70000000000000000000000000000000000000000000000000000000081526004016112679190611d11565b60405180910390fd5b61127981611719565b50565b60025f54036112b7576040517f3ee5aeb500000000000000000000000000000000000000000000000000000000815260040160405180910390fd5b60025f81905550565b5f808573ffffffffffffffffffffffffffffffffffffffff166323b872dd8686866040516024016112f39392919061252e565b6040516020818303038152906040529060e01b6020820180517bffffffffffffffffffffffffffffffffffffffffffffffffffffffff838183161783525050505060405161134191906125a7565b5f604051808303815f865af19150503d805f811461137a576040519150601f19603f3d011682016040523d82523d5f602084013e61137f565b606091505b50915091508180156113ac57505f815114806113ab5750808060200190518101906113aa91906125e7565b5b5b6113eb576040517f08c379a00000000000000000000000000000000000000000000000000000000081526004016113e290612682565b60405180910390fd5b505050505050565b60015f81905550565b611404611824565b73ffffffffffffffffffffffffffffffffffffffff16611422610e5b565b73ffffffffffffffffffffffffffffffffffffffff161461148157611445611824565b6040517f118cdaa70000000000000000000000000000000000000000000000000000000081526004016114789190611d11565b60405180910390fd5b565b7f000000000000000000000000000000000000000000000000000000000000000073ffffffffffffffffffffffffffffffffffffffff163073ffffffffffffffffffffffffffffffffffffffff16148061153057507f000000000000000000000000000000000000000000000000000000000000000073ffffffffffffffffffffffffffffffffffffffff166115176118b9565b73ffffffffffffffffffffffffffffffffffffffff1614155b15611567576040517fe07c8dba00000000000000000000000000000000000000000000000000000000815260040160405180910390fd5b565b6115716113fc565b50565b8173ffffffffffffffffffffffffffffffffffffffff166352d1902d6040518163ffffffff1660e01b8152600401602060405180830381865afa9250505080156115dc57506040513d601f19601f820116820180604052508101906115d991906126ca565b60015b61161d57816040517f4c9c8ce30000000000000000000000000000000000000000000000000000000081526004016116149190611d11565b60405180910390fd5b7f360894a13ba1a3210667c828492db98dca3e2076cc3735a920a3ca505d382bbc5f1b811461168357806040517faa1d49a400000000000000000000000000000000000000000000000000000000815260040161167a9190612128565b60405180910390fd5b61168d838361190c565b505050565b7f000000000000000000000000000000000000000000000000000000000000000073ffffffffffffffffffffffffffffffffffffffff163073ffffffffffffffffffffffffffffffffffffffff1614611717576040517fe07c8dba00000000000000000000000000000000000000000000000000000000815260040160405180910390fd5b565b5f6117226117ea565b90505f815f015f9054906101000a900473ffffffffffffffffffffffffffffffffffffffff16905082825f015f6101000a81548173ffffffffffffffffffffffffffffffffffffffff021916908373ffffffffffffffffffffffffffffffffffffffff1602179055508273ffffffffffffffffffffffffffffffffffffffff168173ffffffffffffffffffffffffffffffffffffffff167f8be0079c531659141344cd1fd0a4f28419497f9722a3daafe3b4186f6b6457e060405160405180910390a3505050565b5f7f9016d09d72d40fdae2fd8ceac6b6234c7706214fd39c1cd1e609a0528c199300905090565b5f8061181b61197e565b90508091505090565b5f33905090565b6118336119a7565b5f73ffffffffffffffffffffffffffffffffffffffff168173ffffffffffffffffffffffffffffffffffffffff16036118a3575f6040517f1e4fbdf700000000000000000000000000000000000000000000000000000000815260040161189a9190611d11565b60405180910390fd5b6118ac81611719565b50565b6118b76119a7565b565b5f6118e57f360894a13ba1a3210667c828492db98dca3e2076cc3735a920a3ca505d382bbc5f1b6119e7565b5f015f9054906101000a900473ffffffffffffffffffffffffffffffffffffffff16905090565b611915826119f0565b8173ffffffffffffffffffffffffffffffffffffffff167fbc7cd75a20ee27fd9adebab32041f755214dbc6bffa90cc0225b39da2e5c2d3b60405160405180910390a25f815111156119715761196b8282611ab9565b5061197a565b611979611b39565b5b5050565b5f7ff0c57e16840df040f15088dc2f81fe391c3923bec73e23a9662efc9c229c6a005f1b905090565b6119af611b75565b6119e5576040517fd7e6bcf800000000000000000000000000000000000000000000000000000000815260040160405180910390fd5b565b5f819050919050565b5f8173ffffffffffffffffffffffffffffffffffffffff163b03611a4b57806040517f4c9c8ce3000000000000000000000000000000000000000000000000000000008152600401611a429190611d11565b60405180910390fd5b80611a777f360894a13ba1a3210667c828492db98dca3e2076cc3735a920a3ca505d382bbc5f1b6119e7565b5f015f6101000a81548173ffffffffffffffffffffffffffffffffffffffff021916908373ffffffffffffffffffffffffffffffffffffffff16021790555050565b60605f808473ffffffffffffffffffffffffffffffffffffffff1684604051611ae291906125a7565b5f60405180830381855af49150503d805f8114611b1a576040519150601f19603f3d011682016040523d82523d5f602084013e611b1f565b606091505b5091509150611b2f858383611b93565b9250505092915050565b5f341115611b73576040517fb398979f00000000000000000000000000000000000000000000000000000000815260040160405180910390fd5b565b5f611b7e611811565b5f0160089054906101000a900460ff16905090565b606082611ba857611ba382611c20565b611c18565b5f8251148015611bce57505f8473ffffffffffffffffffffffffffffffffffffffff163b145b15611c1057836040517f9996b315000000000000000000000000000000000000000000000000000000008152600401611c079190611d11565b60405180910390fd5b819050611c19565b5b9392505050565b5f81511115611c3157805160208201fd5b6040517fd6bda27500000000000000000000000000000000000000000000000000000000815260040160405180910390fd5b5f604051905090565b5f80fd5b5f80fd5b5f819050919050565b611c8681611c74565b8114611c90575f80fd5b50565b5f81359050611ca181611c7d565b92915050565b5f60208284031215611cbc57611cbb611c6c565b5b5f611cc984828501611c93565b91505092915050565b5f73ffffffffffffffffffffffffffffffffffffffff82169050919050565b5f611cfb82611cd2565b9050919050565b611d0b81611cf1565b82525050565b5f602082019050611d245f830184611d02565b92915050565b5f81519050919050565b5f82825260208201905092915050565b5f819050602082019050919050565b611d5c81611cf1565b82525050565b5f611d6d8383611d53565b60208301905092915050565b5f602082019050919050565b5f611d8f82611d2a565b611d998185611d34565b9350611da483611d44565b805f5b83811015611dd4578151611dbb8882611d62565b9750611dc683611d79565b925050600181019050611da7565b5085935050505092915050565b5f6020820190508181035f830152611df98184611d85565b905092915050565b611e0a81611c74565b82525050565b5f604082019050611e235f830185611e01565b611e306020830184611e01565b9392505050565b611e4081611cf1565b8114611e4a575f80fd5b50565b5f81359050611e5b81611e37565b92915050565b5f60208284031215611e7657611e75611c6c565b5b5f611e8384828501611e4d565b91505092915050565b5f8115159050919050565b611ea081611e8c565b82525050565b5f606082019050611eb95f830186611e01565b611ec66020830185611e01565b611ed36040830184611e97565b949350505050565b5f60ff82169050919050565b611ef081611edb565b8114611efa575f80fd5b50565b5f81359050611f0b81611ee7565b92915050565b5f805f60608486031215611f2857611f27611c6c565b5b5f611f3586828701611efd565b9350506020611f4686828701611c93565b9250506040611f5786828701611c93565b9150509250925092565b5f602082019050611f745f830184611e01565b92915050565b5f80fd5b5f80fd5b5f601f19601f8301169050919050565b7f4e487b71000000000000000000000000000000000000000000000000000000005f52604160045260245ffd5b611fc882611f82565b810181811067ffffffffffffffff82111715611fe757611fe6611f92565b5b80604052505050565b5f611ff9611c63565b90506120058282611fbf565b919050565b5f67ffffffffffffffff82111561202457612023611f92565b5b61202d82611f82565b9050602081019050919050565b828183375f83830152505050565b5f61205a6120558461200a565b611ff0565b90508281526020810184848401111561207657612075611f7e565b5b61208184828561203a565b509392505050565b5f82601f83011261209d5761209c611f7a565b5b81356120ad848260208601612048565b91505092915050565b5f80604083850312156120cc576120cb611c6c565b5b5f6120d985828601611e4d565b925050602083013567ffffffffffffffff8111156120fa576120f9611c70565b5b61210685828601612089565b9150509250929050565b5f819050919050565b61212281612110565b82525050565b5f60208201905061213b5f830184612119565b92915050565b5f805f6060848603121561215857612157611c6c565b5b5f61216586828701611c93565b935050602061217686828701611c93565b925050604061218786828701611c93565b9150509250925092565b5f81519050919050565b5f82825260208201905092915050565b5f5b838110156121c85780820151818401526020810190506121ad565b5f8484015250505050565b5f6121dd82612191565b6121e7818561219b565b93506121f78185602086016121ab565b61220081611f82565b840191505092915050565b5f6020820190508181035f83015261222381846121d3565b905092915050565b5f60608201905061223e5f830186611e01565b61224b6020830185611e01565b6122586040830184611e01565b949350505050565b7f496e76616c696420737562736372697074696f6e20616d6f756e7400000000005f82015250565b5f612294601b8361219b565b915061229f82612260565b602082019050919050565b5f6020820190508181035f8301526122c181612288565b9050919050565b7f416c7265616479207375627363726962656400000000000000000000000000005f82015250565b5f6122fc60128361219b565b9150612307826122c8565b602082019050919050565b5f6020820190508181035f830152612329816122f0565b9050919050565b7f4e487b71000000000000000000000000000000000000000000000000000000005f52601160045260245ffd5b5f61236782611c74565b915061237283611c74565b925082820190508082111561238a57612389612330565b5b92915050565b7f496e76616c6964206c6576656c000000000000000000000000000000000000005f82015250565b5f6123c4600d8361219b565b91506123cf82612390565b602082019050919050565b5f6020820190508181035f8301526123f1816123b8565b9050919050565b5f61240282611c74565b915061240d83611c74565b925082820390508181111561242557612424612330565b5b92915050565b7f4e487b71000000000000000000000000000000000000000000000000000000005f52603260045260245ffd5b7f496e76616c6964206c6576656c2076616c7565730000000000000000000000005f82015250565b5f61248c60148361219b565b915061249782612458565b602082019050919050565b5f6020820190508181035f8301526124b981612480565b9050919050565b5f819050919050565b5f67ffffffffffffffff82169050919050565b5f819050919050565b5f6124ff6124fa6124f5846124c0565b6124dc565b6124c9565b9050919050565b61250f816124e5565b82525050565b5f6020820190506125285f830184612506565b92915050565b5f6060820190506125415f830186611d02565b61254e6020830185611d02565b61255b6040830184611e01565b949350505050565b5f81519050919050565b5f81905092915050565b5f61258182612563565b61258b818561256d565b935061259b8185602086016121ab565b80840191505092915050565b5f6125b28284612577565b915081905092915050565b6125c681611e8c565b81146125d0575f80fd5b50565b5f815190506125e1816125bd565b92915050565b5f602082840312156125fc576125fb611c6c565b5b5f612609848285016125d3565b91505092915050565b7f5472616e7366657248656c7065723a205452414e534645525f46524f4d5f46415f8201527f494c454400000000000000000000000000000000000000000000000000000000602082015250565b5f61266c60248361219b565b915061267782612612565b604082019050919050565b5f6020820190508181035f83015261269981612660565b9050919050565b6126a981612110565b81146126b3575f80fd5b50565b5f815190506126c4816126a0565b92915050565b5f602082840312156126df576126de611c6c565b5b5f6126ec848285016126b6565b9150509291505056fea264697066735822122095a935dfa6cfdcffc9c4c9e891ff7f007bbbe765b6c9b0817a227631ac30fdb064736f6c63430008180033",
					"opcodes": "PUSH1 0xA0 PUSH1 0x40 MSTORE ADDRESS PUSH20 0xFFFFFFFFFFFFFFFFFFFFFFFFFFFFFFFFFFFFFFFF AND PUSH1 0x80 SWAP1 PUSH20 0xFFFFFFFFFFFFFFFFFFFFFFFFFFFFFFFFFFFFFFFF AND DUP2 MSTORE POP PUSH8 0xDE0B6B3A7640000 PUSH1 0x2 SSTORE PUSH8 0x1BC16D674EC80000 PUSH1 0x3 SSTORE PUSH8 0x29A2241AF62C0000 PUSH1 0x4 SSTORE CALLVALUE DUP1 ISZERO PUSH2 0x66 JUMPI PUSH0 DUP1 REVERT JUMPDEST POP PUSH1 0x1 PUSH0 DUP2 SWAP1 SSTORE POP PUSH1 0x80 MLOAD PUSH2 0x272B PUSH2 0x94 PUSH0 CODECOPY PUSH0 DUP2 DUP2 PUSH2 0x1485 ADD MSTORE DUP2 DUP2 PUSH2 0x14DA ADD MSTORE PUSH2 0x1694 ADD MSTORE PUSH2 0x272B PUSH0 RETURN INVALID PUSH1 0x80 PUSH1 0x40 MSTORE PUSH1 0x4 CALLDATASIZE LT PUSH2 0x169 JUMPI PUSH0 CALLDATALOAD PUSH1 0xE0 SHR DUP1 PUSH4 0x664637FC GT PUSH2 0xD0 JUMPI DUP1 PUSH4 0xA652C53F GT PUSH2 0x89 JUMPI DUP1 PUSH4 0xB00B968B GT PUSH2 0x63 JUMPI DUP1 PUSH4 0xB00B968B EQ PUSH2 0x51B JUMPI DUP1 PUSH4 0xC4D66DE8 EQ PUSH2 0x547 JUMPI DUP1 PUSH4 0xC54E44EB EQ PUSH2 0x56F JUMPI DUP1 PUSH4 0xF2FDE38B EQ PUSH2 0x599 JUMPI PUSH2 0x170 JUMP JUMPDEST DUP1 PUSH4 0xA652C53F EQ PUSH2 0x48D JUMPI DUP1 PUSH4 0xA9625DFE EQ PUSH2 0x4C9 JUMPI DUP1 PUSH4 0xAD3CB1CC EQ PUSH2 0x4F1 JUMPI PUSH2 0x170 JUMP JUMPDEST DUP1 PUSH4 0x664637FC EQ PUSH2 0x393 JUMPI DUP1 PUSH4 0x66D003AC EQ PUSH2 0x3BD JUMPI DUP1 PUSH4 0x715018A6 EQ PUSH2 0x3E7 JUMPI DUP1 PUSH4 0x8DA5CB5B EQ PUSH2 0x3FD JUMPI DUP1 PUSH4 0x91D02B0F EQ PUSH2 0x427 JUMPI DUP1 PUSH4 0x9AA3ACF2 EQ PUSH2 0x463 JUMPI PUSH2 0x170 JUMP JUMPDEST DUP1 PUSH4 0x209630A8 GT PUSH2 0x122 JUMPI DUP1 PUSH4 0x209630A8 EQ PUSH2 0x295 JUMPI DUP1 PUSH4 0x384D57B5 EQ PUSH2 0x2D1 JUMPI DUP1 PUSH4 0x3BBED4A0 EQ PUSH2 0x2FB JUMPI DUP1 PUSH4 0x4F1EF286 EQ PUSH2 0x323 JUMPI DUP1 PUSH4 0x52D1902D EQ PUSH2 0x33F JUMPI DUP1 PUSH4 0x57CC2537 EQ PUSH2 0x369 JUMPI PUSH2 0x170 JUMP JUMPDEST DUP1 PUSH4 0x65A187C EQ PUSH2 0x174 JUMPI DUP1 PUSH4 0x7B7E83E EQ PUSH2 0x1B0 JUMPI DUP1 PUSH4 0xF574BA7 EQ PUSH2 0x1DA JUMPI DUP1 PUSH4 0x10BCE099 EQ PUSH2 0x202 JUMPI DUP1 PUSH4 0x14B4EE3B EQ PUSH2 0x22C JUMPI DUP1 PUSH4 0x1959A002 EQ PUSH2 0x257 JUMPI PUSH2 0x170 JUMP JUMPDEST CALLDATASIZE PUSH2 0x170 JUMPI STOP JUMPDEST PUSH0 DUP1 REVERT JUMPDEST CALLVALUE DUP1 ISZERO PUSH2 0x17F JUMPI PUSH0 DUP1 REVERT JUMPDEST POP PUSH2 0x19A PUSH1 0x4 DUP1 CALLDATASIZE SUB DUP2 ADD SWAP1 PUSH2 0x195 SWAP2 SWAP1 PUSH2 0x1CA7 JUMP JUMPDEST PUSH2 0x5C1 JUMP JUMPDEST PUSH1 0x40 MLOAD PUSH2 0x1A7 SWAP2 SWAP1 PUSH2 0x1D11 JUMP JUMPDEST PUSH1 0x40 MLOAD DUP1 SWAP2 SUB SWAP1 RETURN JUMPDEST CALLVALUE DUP1 ISZERO PUSH2 0x1BB JUMPI PUSH0 DUP1 REVERT JUMPDEST POP PUSH2 0x1C4 PUSH2 0x5FC JUMP JUMPDEST PUSH1 0x40 MLOAD PUSH2 0x1D1 SWAP2 SWAP1 PUSH2 0x1DE1 JUMP JUMPDEST PUSH1 0x40 MLOAD DUP1 SWAP2 SUB SWAP1 RETURN JUMPDEST CALLVALUE DUP1 ISZERO PUSH2 0x1E5 JUMPI PUSH0 DUP1 REVERT JUMPDEST POP PUSH2 0x200 PUSH1 0x4 DUP1 CALLDATASIZE SUB DUP2 ADD SWAP1 PUSH2 0x1FB SWAP2 SWAP1 PUSH2 0x1CA7 JUMP JUMPDEST PUSH2 0x687 JUMP JUMPDEST STOP JUMPDEST CALLVALUE DUP1 ISZERO PUSH2 0x20D JUMPI PUSH0 DUP1 REVERT JUMPDEST POP PUSH2 0x216 PUSH2 0x9F9 JUMP JUMPDEST PUSH1 0x40 MLOAD PUSH2 0x223 SWAP2 SWAP1 PUSH2 0x1DE1 JUMP JUMPDEST PUSH1 0x40 MLOAD DUP1 SWAP2 SUB SWAP1 RETURN JUMPDEST CALLVALUE DUP1 ISZERO PUSH2 0x237 JUMPI PUSH0 DUP1 REVERT JUMPDEST POP PUSH2 0x240 PUSH2 0xA84 JUMP JUMPDEST PUSH1 0x40 MLOAD PUSH2 0x24E SWAP3 SWAP2 SWAP1 PUSH2 0x1E10 JUMP JUMPDEST PUSH1 0x40 MLOAD DUP1 SWAP2 SUB SWAP1 RETURN JUMPDEST CALLVALUE DUP1 ISZERO PUSH2 0x262 JUMPI PUSH0 DUP1 REVERT JUMPDEST POP PUSH2 0x27D PUSH1 0x4 DUP1 CALLDATASIZE SUB DUP2 ADD SWAP1 PUSH2 0x278 SWAP2 SWAP1 PUSH2 0x1E61 JUMP JUMPDEST PUSH2 0xAB7 JUMP JUMPDEST PUSH1 0x40 MLOAD PUSH2 0x28C SWAP4 SWAP3 SWAP2 SWAP1 PUSH2 0x1EA6 JUMP JUMPDEST PUSH1 0x40 MLOAD DUP1 SWAP2 SUB SWAP1 RETURN JUMPDEST CALLVALUE DUP1 ISZERO PUSH2 0x2A0 JUMPI PUSH0 DUP1 REVERT JUMPDEST POP PUSH2 0x2BB PUSH1 0x4 DUP1 CALLDATASIZE SUB DUP2 ADD SWAP1 PUSH2 0x2B6 SWAP2 SWAP1 PUSH2 0x1F11 JUMP JUMPDEST PUSH2 0xAE9 JUMP JUMPDEST PUSH1 0x40 MLOAD PUSH2 0x2C8 SWAP2 SWAP1 PUSH2 0x1DE1 JUMP JUMPDEST PUSH1 0x40 MLOAD DUP1 SWAP2 SUB SWAP1 RETURN JUMPDEST CALLVALUE DUP1 ISZERO PUSH2 0x2DC JUMPI PUSH0 DUP1 REVERT JUMPDEST POP PUSH2 0x2E5 PUSH2 0xCF1 JUMP JUMPDEST PUSH1 0x40 MLOAD PUSH2 0x2F2 SWAP2 SWAP1 PUSH2 0x1F61 JUMP JUMPDEST PUSH1 0x40 MLOAD DUP1 SWAP2 SUB SWAP1 RETURN JUMPDEST CALLVALUE DUP1 ISZERO PUSH2 0x306 JUMPI PUSH0 DUP1 REVERT JUMPDEST POP PUSH2 0x321 PUSH1 0x4 DUP1 CALLDATASIZE SUB DUP2 ADD SWAP1 PUSH2 0x31C SWAP2 SWAP1 PUSH2 0x1E61 JUMP JUMPDEST PUSH2 0xCF7 JUMP JUMPDEST STOP JUMPDEST PUSH2 0x33D PUSH1 0x4 DUP1 CALLDATASIZE SUB DUP2 ADD SWAP1 PUSH2 0x338 SWAP2 SWAP1 PUSH2 0x20B6 JUMP JUMPDEST PUSH2 0xD42 JUMP JUMPDEST STOP JUMPDEST CALLVALUE DUP1 ISZERO PUSH2 0x34A JUMPI PUSH0 DUP1 REVERT JUMPDEST POP PUSH2 0x353 PUSH2 0xD61 JUMP JUMPDEST PUSH1 0x40 MLOAD PUSH2 0x360 SWAP2 SWAP1 PUSH2 0x2128 JUMP JUMPDEST PUSH1 0x40 MLOAD DUP1 SWAP2 SUB SWAP1 RETURN JUMPDEST CALLVALUE DUP1 ISZERO PUSH2 0x374 JUMPI PUSH0 DUP1 REVERT JUMPDEST POP PUSH2 0x37D PUSH2 0xD92 JUMP JUMPDEST PUSH1 0x40 MLOAD PUSH2 0x38A SWAP2 SWAP1 PUSH2 0x1DE1 JUMP JUMPDEST PUSH1 0x40 MLOAD DUP1 SWAP2 SUB SWAP1 RETURN JUMPDEST CALLVALUE DUP1 ISZERO PUSH2 0x39E JUMPI PUSH0 DUP1 REVERT JUMPDEST POP PUSH2 0x3A7 PUSH2 0xE1D JUMP JUMPDEST PUSH1 0x40 MLOAD PUSH2 0x3B4 SWAP2 SWAP1 PUSH2 0x1F61 JUMP JUMPDEST PUSH1 0x40 MLOAD DUP1 SWAP2 SUB SWAP1 RETURN JUMPDEST CALLVALUE DUP1 ISZERO PUSH2 0x3C8 JUMPI PUSH0 DUP1 REVERT JUMPDEST POP PUSH2 0x3D1 PUSH2 0xE23 JUMP JUMPDEST PUSH1 0x40 MLOAD PUSH2 0x3DE SWAP2 SWAP1 PUSH2 0x1D11 JUMP JUMPDEST PUSH1 0x40 MLOAD DUP1 SWAP2 SUB SWAP1 RETURN JUMPDEST CALLVALUE DUP1 ISZERO PUSH2 0x3F2 JUMPI PUSH0 DUP1 REVERT JUMPDEST POP PUSH2 0x3FB PUSH2 0xE48 JUMP JUMPDEST STOP JUMPDEST CALLVALUE DUP1 ISZERO PUSH2 0x408 JUMPI PUSH0 DUP1 REVERT JUMPDEST POP PUSH2 0x411 PUSH2 0xE5B JUMP JUMPDEST PUSH1 0x40 MLOAD PUSH2 0x41E SWAP2 SWAP1 PUSH2 0x1D11 JUMP JUMPDEST PUSH1 0x40 MLOAD DUP1 SWAP2 SUB SWAP1 RETURN JUMPDEST CALLVALUE DUP1 ISZERO PUSH2 0x432 JUMPI PUSH0 DUP1 REVERT JUMPDEST POP PUSH2 0x44D PUSH1 0x4 DUP1 CALLDATASIZE SUB DUP2 ADD SWAP1 PUSH2 0x448 SWAP2 SWAP1 PUSH2 0x1CA7 JUMP JUMPDEST PUSH2 0xE90 JUMP JUMPDEST PUSH1 0x40 MLOAD PUSH2 0x45A SWAP2 SWAP1 PUSH2 0x1D11 JUMP JUMPDEST PUSH1 0x40 MLOAD DUP1 SWAP2 SUB SWAP1 RETURN JUMPDEST CALLVALUE DUP1 ISZERO PUSH2 0x46E JUMPI PUSH0 DUP1 REVERT JUMPDEST POP PUSH2 0x477 PUSH2 0xECB JUMP JUMPDEST PUSH1 0x40 MLOAD PUSH2 0x484 SWAP2 SWAP1 PUSH2 0x1F61 JUMP JUMPDEST PUSH1 0x40 MLOAD DUP1 SWAP2 SUB SWAP1 RETURN JUMPDEST CALLVALUE DUP1 ISZERO PUSH2 0x498 JUMPI PUSH0 DUP1 REVERT JUMPDEST POP PUSH2 0x4B3 PUSH1 0x4 DUP1 CALLDATASIZE SUB DUP2 ADD SWAP1 PUSH2 0x4AE SWAP2 SWAP1 PUSH2 0x1CA7 JUMP JUMPDEST PUSH2 0xED1 JUMP JUMPDEST PUSH1 0x40 MLOAD PUSH2 0x4C0 SWAP2 SWAP1 PUSH2 0x1D11 JUMP JUMPDEST PUSH1 0x40 MLOAD DUP1 SWAP2 SUB SWAP1 RETURN JUMPDEST CALLVALUE DUP1 ISZERO PUSH2 0x4D4 JUMPI PUSH0 DUP1 REVERT JUMPDEST POP PUSH2 0x4EF PUSH1 0x4 DUP1 CALLDATASIZE SUB DUP2 ADD SWAP1 PUSH2 0x4EA SWAP2 SWAP1 PUSH2 0x2141 JUMP JUMPDEST PUSH2 0xF0C JUMP JUMPDEST STOP JUMPDEST CALLVALUE DUP1 ISZERO PUSH2 0x4FC JUMPI PUSH0 DUP1 REVERT JUMPDEST POP PUSH2 0x505 PUSH2 0xF86 JUMP JUMPDEST PUSH1 0x40 MLOAD PUSH2 0x512 SWAP2 SWAP1 PUSH2 0x220B JUMP JUMPDEST PUSH1 0x40 MLOAD DUP1 SWAP2 SUB SWAP1 RETURN JUMPDEST CALLVALUE DUP1 ISZERO PUSH2 0x526 JUMPI PUSH0 DUP1 REVERT JUMPDEST POP PUSH2 0x52F PUSH2 0xFBF JUMP JUMPDEST PUSH1 0x40 MLOAD PUSH2 0x53E SWAP4 SWAP3 SWAP2 SWAP1 PUSH2 0x222B JUMP JUMPDEST PUSH1 0x40 MLOAD DUP1 SWAP2 SUB SWAP1 RETURN JUMPDEST CALLVALUE DUP1 ISZERO PUSH2 0x552 JUMPI PUSH0 DUP1 REVERT JUMPDEST POP PUSH2 0x56D PUSH1 0x4 DUP1 CALLDATASIZE SUB DUP2 ADD SWAP1 PUSH2 0x568 SWAP2 SWAP1 PUSH2 0x1E61 JUMP JUMPDEST PUSH2 0xFDF JUMP JUMPDEST STOP JUMPDEST CALLVALUE DUP1 ISZERO PUSH2 0x57A JUMPI PUSH0 DUP1 REVERT JUMPDEST POP PUSH2 0x583 PUSH2 0x11E0 JUMP JUMPDEST PUSH1 0x40 MLOAD PUSH2 0x590 SWAP2 SWAP1 PUSH2 0x1D11 JUMP JUMPDEST PUSH1 0x40 MLOAD DUP1 SWAP2 SUB SWAP1 RETURN JUMPDEST CALLVALUE DUP1 ISZERO PUSH2 0x5A4 JUMPI PUSH0 DUP1 REVERT JUMPDEST POP PUSH2 0x5BF PUSH1 0x4 DUP1 CALLDATASIZE SUB DUP2 ADD SWAP1 PUSH2 0x5BA SWAP2 SWAP1 PUSH2 0x1E61 JUMP JUMPDEST PUSH2 0x11F8 JUMP JUMPDEST STOP JUMPDEST PUSH1 0x6 DUP2 DUP2 SLOAD DUP2 LT PUSH2 0x5D0 JUMPI PUSH0 DUP1 REVERT JUMPDEST SWAP1 PUSH0 MSTORE PUSH1 0x20 PUSH0 KECCAK256 ADD PUSH0 SWAP2 POP SLOAD SWAP1 PUSH2 0x100 EXP SWAP1 DIV PUSH20 0xFFFFFFFFFFFFFFFFFFFFFFFFFFFFFFFFFFFFFFFF AND DUP2 JUMP JUMPDEST PUSH1 0x60 PUSH1 0x6 DUP1 SLOAD DUP1 PUSH1 0x20 MUL PUSH1 0x20 ADD PUSH1 0x40 MLOAD SWAP1 DUP2 ADD PUSH1 0x40 MSTORE DUP1 SWAP3 SWAP2 SWAP1 DUP2 DUP2 MSTORE PUSH1 0x20 ADD DUP3 DUP1 SLOAD DUP1 ISZERO PUSH2 0x67D JUMPI PUSH1 0x20 MUL DUP3 ADD SWAP2 SWAP1 PUSH0 MSTORE PUSH1 0x20 PUSH0 KECCAK256 SWAP1 JUMPDEST DUP2 PUSH0 SWAP1 SLOAD SWAP1 PUSH2 0x100 EXP SWAP1 DIV PUSH20 0xFFFFFFFFFFFFFFFFFFFFFFFFFFFFFFFFFFFFFFFF AND PUSH20 0xFFFFFFFFFFFFFFFFFFFFFFFFFFFFFFFFFFFFFFFF AND DUP2 MSTORE PUSH1 0x20 ADD SWAP1 PUSH1 0x1 ADD SWAP1 DUP1 DUP4 GT PUSH2 0x634 JUMPI JUMPDEST POP POP POP POP POP SWAP1 POP SWAP1 JUMP JUMPDEST PUSH2 0x68F PUSH2 0x127C JUMP JUMPDEST PUSH1 0x2 SLOAD DUP2 EQ DUP1 PUSH2 0x6A0 JUMPI POP PUSH1 0x3 SLOAD DUP2 EQ JUMPDEST DUP1 PUSH2 0x6AC JUMPI POP PUSH1 0x4 SLOAD DUP2 EQ JUMPDEST PUSH2 0x6EB JUMPI PUSH1 0x40 MLOAD PUSH32 0x8C379A000000000000000000000000000000000000000000000000000000000 DUP2 MSTORE PUSH1 0x4 ADD PUSH2 0x6E2 SWAP1 PUSH2 0x22AA JUMP JUMPDEST PUSH1 0x40 MLOAD DUP1 SWAP2 SUB SWAP1 REVERT JUMPDEST PUSH1 0x5 PUSH0 CALLER PUSH20 0xFFFFFFFFFFFFFFFFFFFFFFFFFFFFFFFFFFFFFFFF AND PUSH20 0xFFFFFFFFFFFFFFFFFFFFFFFFFFFFFFFFFFFFFFFF AND DUP2 MSTORE PUSH1 0x20 ADD SWAP1 DUP2 MSTORE PUSH1 0x20 ADD PUSH0 KECCAK256 PUSH1 0x2 ADD PUSH0 SWAP1 SLOAD SWAP1 PUSH2 0x100 EXP SWAP1 DIV PUSH1 0xFF AND ISZERO PUSH2 0x778 JUMPI PUSH1 0x40 MLOAD PUSH32 0x8C379A000000000000000000000000000000000000000000000000000000000 DUP2 MSTORE PUSH1 0x4 ADD PUSH2 0x76F SWAP1 PUSH2 0x2312 JUMP JUMPDEST PUSH1 0x40 MLOAD DUP1 SWAP2 SUB SWAP1 REVERT JUMPDEST PUSH2 0x7B9 PUSH20 0x55D398326F99059FF775485246999027B3197955 CALLER PUSH1 0x1 PUSH0 SWAP1 SLOAD SWAP1 PUSH2 0x100 EXP SWAP1 DIV PUSH20 0xFFFFFFFFFFFFFFFFFFFFFFFFFFFFFFFFFFFFFFFF AND DUP5 PUSH2 0x12C0 JUMP JUMPDEST PUSH1 0x40 MLOAD DUP1 PUSH1 0x60 ADD PUSH1 0x40 MSTORE DUP1 DUP3 DUP2 MSTORE PUSH1 0x20 ADD TIMESTAMP DUP2 MSTORE PUSH1 0x20 ADD PUSH1 0x1 ISZERO ISZERO DUP2 MSTORE POP PUSH1 0x5 PUSH0 CALLER PUSH20 0xFFFFFFFFFFFFFFFFFFFFFFFFFFFFFFFFFFFFFFFF AND PUSH20 0xFFFFFFFFFFFFFFFFFFFFFFFFFFFFFFFFFFFFFFFF AND DUP2 MSTORE PUSH1 0x20 ADD SWAP1 DUP2 MSTORE PUSH1 0x20 ADD PUSH0 KECCAK256 PUSH0 DUP3 ADD MLOAD DUP2 PUSH0 ADD SSTORE PUSH1 0x20 DUP3 ADD MLOAD DUP2 PUSH1 0x1 ADD SSTORE PUSH1 0x40 DUP3 ADD MLOAD DUP2 PUSH1 0x2 ADD PUSH0 PUSH2 0x100 EXP DUP2 SLOAD DUP2 PUSH1 0xFF MUL NOT AND SWAP1 DUP4 ISZERO ISZERO MUL OR SWAP1 SSTORE POP SWAP1 POP POP DUP1 PUSH1 0x9 PUSH0 DUP3 DUP3 SLOAD PUSH2 0x859 SWAP2 SWAP1 PUSH2 0x235D JUMP JUMPDEST SWAP3 POP POP DUP2 SWAP1 SSTORE POP PUSH1 0x2 SLOAD DUP2 SUB PUSH2 0x8CE JUMPI PUSH1 0x6 CALLER SWAP1 DUP1 PUSH1 0x1 DUP2 SLOAD ADD DUP1 DUP3 SSTORE DUP1 SWAP2 POP POP PUSH1 0x1 SWAP1 SUB SWAP1 PUSH0 MSTORE PUSH1 0x20 PUSH0 KECCAK256 ADD PUSH0 SWAP1 SWAP2 SWAP1 SWAP2 SWAP1 SWAP2 PUSH2 0x100 EXP DUP2 SLOAD DUP2 PUSH20 0xFFFFFFFFFFFFFFFFFFFFFFFFFFFFFFFFFFFFFFFF MUL NOT AND SWAP1 DUP4 PUSH20 0xFFFFFFFFFFFFFFFFFFFFFFFFFFFFFFFFFFFFFFFF AND MUL OR SWAP1 SSTORE POP PUSH2 0x99E JUMP JUMPDEST PUSH1 0x3 SLOAD DUP2 SUB PUSH2 0x93C JUMPI PUSH1 0x7 CALLER SWAP1 DUP1 PUSH1 0x1 DUP2 SLOAD ADD DUP1 DUP3 SSTORE DUP1 SWAP2 POP POP PUSH1 0x1 SWAP1 SUB SWAP1 PUSH0 MSTORE PUSH1 0x20 PUSH0 KECCAK256 ADD PUSH0 SWAP1 SWAP2 SWAP1 SWAP2 SWAP1 SWAP2 PUSH2 0x100 EXP DUP2 SLOAD DUP2 PUSH20 0xFFFFFFFFFFFFFFFFFFFFFFFFFFFFFFFFFFFFFFFF MUL NOT AND SWAP1 DUP4 PUSH20 0xFFFFFFFFFFFFFFFFFFFFFFFFFFFFFFFFFFFFFFFF AND MUL OR SWAP1 SSTORE POP PUSH2 0x99D JUMP JUMPDEST PUSH1 0x8 CALLER SWAP1 DUP1 PUSH1 0x1 DUP2 SLOAD ADD DUP1 DUP3 SSTORE DUP1 SWAP2 POP POP PUSH1 0x1 SWAP1 SUB SWAP1 PUSH0 MSTORE PUSH1 0x20 PUSH0 KECCAK256 ADD PUSH0 SWAP1 SWAP2 SWAP1 SWAP2 SWAP1 SWAP2 PUSH2 0x100 EXP DUP2 SLOAD DUP2 PUSH20 0xFFFFFFFFFFFFFFFFFFFFFFFFFFFFFFFFFFFFFFFF MUL NOT AND SWAP1 DUP4 PUSH20 0xFFFFFFFFFFFFFFFFFFFFFFFFFFFFFFFFFFFFFFFF AND MUL OR SWAP1 SSTORE POP JUMPDEST JUMPDEST CALLER PUSH20 0xFFFFFFFFFFFFFFFFFFFFFFFFFFFFFFFFFFFFFFFF AND PUSH32 0xF94991DCBEA6E8AC439CBC93BD9C62A4D39F04E0AD656DF9A703F13552C2787F DUP3 TIMESTAMP PUSH1 0x40 MLOAD PUSH2 0x9E6 SWAP3 SWAP2 SWAP1 PUSH2 0x1E10 JUMP JUMPDEST PUSH1 0x40 MLOAD DUP1 SWAP2 SUB SWAP1 LOG2 PUSH2 0x9F6 PUSH2 0x13F3 JUMP JUMPDEST POP JUMP JUMPDEST PUSH1 0x60 PUSH1 0x7 DUP1 SLOAD DUP1 PUSH1 0x20 MUL PUSH1 0x20 ADD PUSH1 0x40 MLOAD SWAP1 DUP2 ADD PUSH1 0x40 MSTORE DUP1 SWAP3 SWAP2 SWAP1 DUP2 DUP2 MSTORE PUSH1 0x20 ADD DUP3 DUP1 SLOAD DUP1 ISZERO PUSH2 0xA7A JUMPI PUSH1 0x20 MUL DUP3 ADD SWAP2 SWAP1 PUSH0 MSTORE PUSH1 0x20 PUSH0 KECCAK256 SWAP1 JUMPDEST DUP2 PUSH0 SWAP1 SLOAD SWAP1 PUSH2 0x100 EXP SWAP1 DIV PUSH20 0xFFFFFFFFFFFFFFFFFFFFFFFFFFFFFFFFFFFFFFFF AND PUSH20 0xFFFFFFFFFFFFFFFFFFFFFFFFFFFFFFFFFFFFFFFF AND DUP2 MSTORE PUSH1 0x20 ADD SWAP1 PUSH1 0x1 ADD SWAP1 DUP1 DUP4 GT PUSH2 0xA31 JUMPI JUMPDEST POP POP POP POP POP SWAP1 POP SWAP1 JUMP JUMPDEST PUSH0 DUP1 PUSH1 0x8 DUP1 SLOAD SWAP1 POP PUSH1 0x7 DUP1 SLOAD SWAP1 POP PUSH1 0x6 DUP1 SLOAD SWAP1 POP PUSH2 0xAA2 SWAP2 SWAP1 PUSH2 0x235D JUMP JUMPDEST PUSH2 0xAAC SWAP2 SWAP1 PUSH2 0x235D JUMP JUMPDEST SWAP2 POP PUSH1 0x9 SLOAD SWAP1 POP SWAP1 SWAP2 JUMP JUMPDEST PUSH1 0x5 PUSH1 0x20 MSTORE DUP1 PUSH0 MSTORE PUSH1 0x40 PUSH0 KECCAK256 PUSH0 SWAP2 POP SWAP1 POP DUP1 PUSH0 ADD SLOAD SWAP1 DUP1 PUSH1 0x1 ADD SLOAD SWAP1 DUP1 PUSH1 0x2 ADD PUSH0 SWAP1 SLOAD SWAP1 PUSH2 0x100 EXP SWAP1 DIV PUSH1 0xFF AND SWAP1 POP DUP4 JUMP JUMPDEST PUSH1 0x60 PUSH0 DUP1 DUP6 PUSH1 0xFF AND SUB PUSH2 0xAFF JUMPI PUSH1 0x6 SWAP1 POP PUSH2 0xB64 JUMP JUMPDEST PUSH1 0x1 DUP6 PUSH1 0xFF AND SUB PUSH2 0xB13 JUMPI PUSH1 0x7 SWAP1 POP PUSH2 0xB63 JUMP JUMPDEST PUSH1 0x2 DUP6 PUSH1 0xFF AND SUB PUSH2 0xB27 JUMPI PUSH1 0x8 SWAP1 POP PUSH2 0xB62 JUMP JUMPDEST PUSH1 0x40 MLOAD PUSH32 0x8C379A000000000000000000000000000000000000000000000000000000000 DUP2 MSTORE PUSH1 0x4 ADD PUSH2 0xB59 SWAP1 PUSH2 0x23DA JUMP JUMPDEST PUSH1 0x40 MLOAD DUP1 SWAP2 SUB SWAP1 REVERT JUMPDEST JUMPDEST JUMPDEST DUP1 DUP1 SLOAD SWAP1 POP DUP5 LT PUSH2 0xBC0 JUMPI PUSH0 PUSH8 0xFFFFFFFFFFFFFFFF DUP2 GT ISZERO PUSH2 0xB89 JUMPI PUSH2 0xB88 PUSH2 0x1F92 JUMP JUMPDEST JUMPDEST PUSH1 0x40 MLOAD SWAP1 DUP1 DUP3 MSTORE DUP1 PUSH1 0x20 MUL PUSH1 0x20 ADD DUP3 ADD PUSH1 0x40 MSTORE DUP1 ISZERO PUSH2 0xBB7 JUMPI DUP2 PUSH1 0x20 ADD PUSH1 0x20 DUP3 MUL DUP1 CALLDATASIZE DUP4 CALLDATACOPY DUP1 DUP3 ADD SWAP2 POP POP SWAP1 POP JUMPDEST POP SWAP2 POP POP PUSH2 0xCEA JUMP JUMPDEST PUSH0 DUP4 DUP6 PUSH2 0xBCD SWAP2 SWAP1 PUSH2 0x235D JUMP JUMPDEST SWAP1 POP DUP2 DUP1 SLOAD SWAP1 POP DUP2 GT ISZERO PUSH2 0xBE3 JUMPI DUP2 DUP1 SLOAD SWAP1 POP SWAP1 POP JUMPDEST DUP5 DUP2 PUSH2 0xBEF SWAP2 SWAP1 PUSH2 0x23F8 JUMP JUMPDEST PUSH8 0xFFFFFFFFFFFFFFFF DUP2 GT ISZERO PUSH2 0xC08 JUMPI PUSH2 0xC07 PUSH2 0x1F92 JUMP JUMPDEST JUMPDEST PUSH1 0x40 MLOAD SWAP1 DUP1 DUP3 MSTORE DUP1 PUSH1 0x20 MUL PUSH1 0x20 ADD DUP3 ADD PUSH1 0x40 MSTORE DUP1 ISZERO PUSH2 0xC36 JUMPI DUP2 PUSH1 0x20 ADD PUSH1 0x20 DUP3 MUL DUP1 CALLDATASIZE DUP4 CALLDATACOPY DUP1 DUP3 ADD SWAP2 POP POP SWAP1 POP JUMPDEST POP SWAP3 POP PUSH0 DUP6 SWAP1 POP JUMPDEST DUP2 DUP2 LT ISZERO PUSH2 0xCE6 JUMPI DUP3 DUP2 DUP2 SLOAD DUP2 LT PUSH2 0xC59 JUMPI PUSH2 0xC58 PUSH2 0x242B JUMP JUMPDEST JUMPDEST SWAP1 PUSH0 MSTORE PUSH1 0x20 PUSH0 KECCAK256 ADD PUSH0 SWAP1 SLOAD SWAP1 PUSH2 0x100 EXP SWAP1 DIV PUSH20 0xFFFFFFFFFFFFFFFFFFFFFFFFFFFFFFFFFFFFFFFF AND DUP5 DUP8 DUP4 PUSH2 0xC8E SWAP2 SWAP1 PUSH2 0x23F8 JUMP JUMPDEST DUP2 MLOAD DUP2 LT PUSH2 0xC9F JUMPI PUSH2 0xC9E PUSH2 0x242B JUMP JUMPDEST JUMPDEST PUSH1 0x20 MUL PUSH1 0x20 ADD ADD SWAP1 PUSH20 0xFFFFFFFFFFFFFFFFFFFFFFFFFFFFFFFFFFFFFFFF AND SWAP1 DUP2 PUSH20 0xFFFFFFFFFFFFFFFFFFFFFFFFFFFFFFFFFFFFFFFF AND DUP2 MSTORE POP POP DUP1 DUP1 PUSH1 0x1 ADD SWAP2 POP POP PUSH2 0xC3E JUMP JUMPDEST POP POP POP JUMPDEST SWAP4 SWAP3 POP POP POP JUMP JUMPDEST PUSH1 0x2 SLOAD DUP2 JUMP JUMPDEST PUSH2 0xCFF PUSH2 0x13FC JUMP JUMPDEST DUP1 PUSH1 0x1 PUSH0 PUSH2 0x100 EXP DUP2 SLOAD DUP2 PUSH20 0xFFFFFFFFFFFFFFFFFFFFFFFFFFFFFFFFFFFFFFFF MUL NOT AND SWAP1 DUP4 PUSH20 0xFFFFFFFFFFFFFFFFFFFFFFFFFFFFFFFFFFFFFFFF AND MUL OR SWAP1 SSTORE POP POP JUMP JUMPDEST PUSH2 0xD4A PUSH2 0x1483 JUMP JUMPDEST PUSH2 0xD53 DUP3 PUSH2 0x1569 JUMP JUMPDEST PUSH2 0xD5D DUP3 DUP3 PUSH2 0x1574 JUMP JUMPDEST POP POP JUMP JUMPDEST PUSH0 PUSH2 0xD6A PUSH2 0x1692 JUMP JUMPDEST PUSH32 0x360894A13BA1A3210667C828492DB98DCA3E2076CC3735A920A3CA505D382BBC PUSH0 SHL SWAP1 POP SWAP1 JUMP JUMPDEST PUSH1 0x60 PUSH1 0x8 DUP1 SLOAD DUP1 PUSH1 0x20 MUL PUSH1 0x20 ADD PUSH1 0x40 MLOAD SWAP1 DUP2 ADD PUSH1 0x40 MSTORE DUP1 SWAP3 SWAP2 SWAP1 DUP2 DUP2 MSTORE PUSH1 0x20 ADD DUP3 DUP1 SLOAD DUP1 ISZERO PUSH2 0xE13 JUMPI PUSH1 0x20 MUL DUP3 ADD SWAP2 SWAP1 PUSH0 MSTORE PUSH1 0x20 PUSH0 KECCAK256 SWAP1 JUMPDEST DUP2 PUSH0 SWAP1 SLOAD SWAP1 PUSH2 0x100 EXP SWAP1 DIV PUSH20 0xFFFFFFFFFFFFFFFFFFFFFFFFFFFFFFFFFFFFFFFF AND PUSH20 0xFFFFFFFFFFFFFFFFFFFFFFFFFFFFFFFFFFFFFFFF AND DUP2 MSTORE PUSH1 0x20 ADD SWAP1 PUSH1 0x1 ADD SWAP1 DUP1 DUP4 GT PUSH2 0xDCA JUMPI JUMPDEST POP POP POP POP POP SWAP1 POP SWAP1 JUMP JUMPDEST PUSH1 0x4 SLOAD DUP2 JUMP JUMPDEST PUSH1 0x1 PUSH0 SWAP1 SLOAD SWAP1 PUSH2 0x100 EXP SWAP1 DIV PUSH20 0xFFFFFFFFFFFFFFFFFFFFFFFFFFFFFFFFFFFFFFFF AND DUP2 JUMP JUMPDEST PUSH2 0xE50 PUSH2 0x13FC JUMP JUMPDEST PUSH2 0xE59 PUSH0 PUSH2 0x1719 JUMP JUMPDEST JUMP JUMPDEST PUSH0 DUP1 PUSH2 0xE65 PUSH2 0x17EA JUMP JUMPDEST SWAP1 POP DUP1 PUSH0 ADD PUSH0 SWAP1 SLOAD SWAP1 PUSH2 0x100 EXP SWAP1 DIV PUSH20 0xFFFFFFFFFFFFFFFFFFFFFFFFFFFFFFFFFFFFFFFF AND SWAP2 POP POP SWAP1 JUMP JUMPDEST PUSH1 0x7 DUP2 DUP2 SLOAD DUP2 LT PUSH2 0xE9F JUMPI PUSH0 DUP1 REVERT JUMPDEST SWAP1 PUSH0 MSTORE PUSH1 0x20 PUSH0 KECCAK256 ADD PUSH0 SWAP2 POP SLOAD SWAP1 PUSH2 0x100 EXP SWAP1 DIV PUSH20 0xFFFFFFFFFFFFFFFFFFFFFFFFFFFFFFFFFFFFFFFF AND DUP2 JUMP JUMPDEST PUSH1 0x3 SLOAD DUP2 JUMP JUMPDEST PUSH1 0x8 DUP2 DUP2 SLOAD DUP2 LT PUSH2 0xEE0 JUMPI PUSH0 DUP1 REVERT JUMPDEST SWAP1 PUSH0 MSTORE PUSH1 0x20 PUSH0 KECCAK256 ADD PUSH0 SWAP2 POP SLOAD SWAP1 PUSH2 0x100 EXP SWAP1 DIV PUSH20 0xFFFFFFFFFFFFFFFFFFFFFFFFFFFFFFFFFFFFFFFF AND DUP2 JUMP JUMPDEST PUSH2 0xF14 PUSH2 0x13FC JUMP JUMPDEST PUSH0 DUP4 GT DUP1 ISZERO PUSH2 0xF22 JUMPI POP PUSH0 DUP3 GT JUMPDEST DUP1 ISZERO PUSH2 0xF2D JUMPI POP PUSH0 DUP2 GT JUMPDEST PUSH2 0xF6C JUMPI PUSH1 0x40 MLOAD PUSH32 0x8C379A000000000000000000000000000000000000000000000000000000000 DUP2 MSTORE PUSH1 0x4 ADD PUSH2 0xF63 SWAP1 PUSH2 0x24A2 JUMP JUMPDEST PUSH1 0x40 MLOAD DUP1 SWAP2 SUB SWAP1 REVERT JUMPDEST DUP3 PUSH1 0x2 DUP2 SWAP1 SSTORE POP DUP2 PUSH1 0x3 DUP2 SWAP1 SSTORE POP DUP1 PUSH1 0x4 DUP2 SWAP1 SSTORE POP POP POP POP JUMP JUMPDEST PUSH1 0x40 MLOAD DUP1 PUSH1 0x40 ADD PUSH1 0x40 MSTORE DUP1 PUSH1 0x5 DUP2 MSTORE PUSH1 0x20 ADD PUSH32 0x352E302E30000000000000000000000000000000000000000000000000000000 DUP2 MSTORE POP DUP2 JUMP JUMPDEST PUSH0 DUP1 PUSH0 PUSH1 0x6 DUP1 SLOAD SWAP1 POP SWAP3 POP PUSH1 0x7 DUP1 SLOAD SWAP1 POP SWAP2 POP PUSH1 0x8 DUP1 SLOAD SWAP1 POP SWAP1 POP SWAP1 SWAP2 SWAP3 JUMP JUMPDEST PUSH0 PUSH2 0xFE8 PUSH2 0x1811 JUMP JUMPDEST SWAP1 POP PUSH0 DUP2 PUSH0 ADD PUSH1 0x8 SWAP1 SLOAD SWAP1 PUSH2 0x100 EXP SWAP1 DIV PUSH1 0xFF AND ISZERO SWAP1 POP PUSH0 DUP3 PUSH0 ADD PUSH0 SWAP1 SLOAD SWAP1 PUSH2 0x100 EXP SWAP1 DIV PUSH8 0xFFFFFFFFFFFFFFFF AND SWAP1 POP PUSH0 DUP1 DUP3 PUSH8 0xFFFFFFFFFFFFFFFF AND EQ DUP1 ISZERO PUSH2 0x1030 JUMPI POP DUP3 JUMPDEST SWAP1 POP PUSH0 PUSH1 0x1 DUP4 PUSH8 0xFFFFFFFFFFFFFFFF AND EQ DUP1 ISZERO PUSH2 0x1063 JUMPI POP PUSH0 ADDRESS PUSH20 0xFFFFFFFFFFFFFFFFFFFFFFFFFFFFFFFFFFFFFFFF AND EXTCODESIZE EQ JUMPDEST SWAP1 POP DUP2 ISZERO DUP1 ISZERO PUSH2 0x1071 JUMPI POP DUP1 ISZERO JUMPDEST ISZERO PUSH2 0x10A8 JUMPI PUSH1 0x40 MLOAD PUSH32 0xF92EE8A900000000000000000000000000000000000000000000000000000000 DUP2 MSTORE PUSH1 0x4 ADD PUSH1 0x40 MLOAD DUP1 SWAP2 SUB SWAP1 REVERT JUMPDEST PUSH1 0x1 DUP6 PUSH0 ADD PUSH0 PUSH2 0x100 EXP DUP2 SLOAD DUP2 PUSH8 0xFFFFFFFFFFFFFFFF MUL NOT AND SWAP1 DUP4 PUSH8 0xFFFFFFFFFFFFFFFF AND MUL OR SWAP1 SSTORE POP DUP4 ISZERO PUSH2 0x10F5 JUMPI PUSH1 0x1 DUP6 PUSH0 ADD PUSH1 0x8 PUSH2 0x100 EXP DUP2 SLOAD DUP2 PUSH1 0xFF MUL NOT AND SWAP1 DUP4 ISZERO ISZERO MUL OR SWAP1 SSTORE POP JUMPDEST PUSH2 0x1105 PUSH2 0x1100 PUSH2 0x1824 JUMP JUMPDEST PUSH2 0x182B JUMP JUMPDEST PUSH2 0x110D PUSH2 0x18AF JUMP JUMPDEST DUP6 PUSH1 0x1 PUSH0 PUSH2 0x100 EXP DUP2 SLOAD DUP2 PUSH20 0xFFFFFFFFFFFFFFFFFFFFFFFFFFFFFFFFFFFFFFFF MUL NOT AND SWAP1 DUP4 PUSH20 0xFFFFFFFFFFFFFFFFFFFFFFFFFFFFFFFFFFFFFFFF AND MUL OR SWAP1 SSTORE POP PUSH9 0x30CA024F987B900000 PUSH1 0x2 DUP2 SWAP1 SSTORE POP PUSH9 0x9D3595AB2438D00000 PUSH1 0x3 DUP2 SWAP1 SSTORE POP PUSH10 0x13FD6F2B475D4B00000 PUSH1 0x4 DUP2 SWAP1 SSTORE POP DUP4 ISZERO PUSH2 0x11D8 JUMPI PUSH0 DUP6 PUSH0 ADD PUSH1 0x8 PUSH2 0x100 EXP DUP2 SLOAD DUP2 PUSH1 0xFF MUL NOT AND SWAP1 DUP4 ISZERO ISZERO MUL OR SWAP1 SSTORE POP PUSH32 0xC7F505B2F371AE2175EE4913F4499E1F2633A7B5936321EED1CDAEB6115181D2 PUSH1 0x1 PUSH1 0x40 MLOAD PUSH2 0x11CF SWAP2 SWAP1 PUSH2 0x2515 JUMP JUMPDEST PUSH1 0x40 MLOAD DUP1 SWAP2 SUB SWAP1 LOG1 JUMPDEST POP POP POP POP POP POP JUMP JUMPDEST PUSH20 0x55D398326F99059FF775485246999027B3197955 DUP2 JUMP JUMPDEST PUSH2 0x1200 PUSH2 0x13FC JUMP JUMPDEST PUSH0 PUSH20 0xFFFFFFFFFFFFFFFFFFFFFFFFFFFFFFFFFFFFFFFF AND DUP2 PUSH20 0xFFFFFFFFFFFFFFFFFFFFFFFFFFFFFFFFFFFFFFFF AND SUB PUSH2 0x1270 JUMPI PUSH0 PUSH1 0x40 MLOAD PUSH32 0x1E4FBDF700000000000000000000000000000000000000000000000000000000 DUP2 MSTORE PUSH1 0x4 ADD PUSH2 0x1267 SWAP2 SWAP1 PUSH2 0x1D11 JUMP JUMPDEST PUSH1 0x40 MLOAD DUP1 SWAP2 SUB SWAP1 REVERT JUMPDEST PUSH2 0x1279 DUP2 PUSH2 0x1719 JUMP JUMPDEST POP JUMP JUMPDEST PUSH1 0x2 PUSH0 SLOAD SUB PUSH2 0x12B7 JUMPI PUSH1 0x40 MLOAD PUSH32 0x3EE5AEB500000000000000000000000000000000000000000000000000000000 DUP2 MSTORE PUSH1 0x4 ADD PUSH1 0x40 MLOAD DUP1 SWAP2 SUB SWAP1 REVERT JUMPDEST PUSH1 0x2 PUSH0 DUP2 SWAP1 SSTORE POP JUMP JUMPDEST PUSH0 DUP1 DUP6 PUSH20 0xFFFFFFFFFFFFFFFFFFFFFFFFFFFFFFFFFFFFFFFF AND PUSH4 0x23B872DD DUP7 DUP7 DUP7 PUSH1 0x40 MLOAD PUSH1 0x24 ADD PUSH2 0x12F3 SWAP4 SWAP3 SWAP2 SWAP1 PUSH2 0x252E JUMP JUMPDEST PUSH1 0x40 MLOAD PUSH1 0x20 DUP2 DUP4 SUB SUB DUP2 MSTORE SWAP1 PUSH1 0x40 MSTORE SWAP1 PUSH1 0xE0 SHL PUSH1 0x20 DUP3 ADD DUP1 MLOAD PUSH28 0xFFFFFFFFFFFFFFFFFFFFFFFFFFFFFFFFFFFFFFFFFFFFFFFFFFFFFFFF DUP4 DUP2 DUP4 AND OR DUP4 MSTORE POP POP POP POP PUSH1 0x40 MLOAD PUSH2 0x1341 SWAP2 SWAP1 PUSH2 0x25A7 JUMP JUMPDEST PUSH0 PUSH1 0x40 MLOAD DUP1 DUP4 SUB DUP2 PUSH0 DUP7 GAS CALL SWAP2 POP POP RETURNDATASIZE DUP1 PUSH0 DUP2 EQ PUSH2 0x137A JUMPI PUSH1 0x40 MLOAD SWAP2 POP PUSH1 0x1F NOT PUSH1 0x3F RETURNDATASIZE ADD AND DUP3 ADD PUSH1 0x40 MSTORE RETURNDATASIZE DUP3 MSTORE RETURNDATASIZE PUSH0 PUSH1 0x20 DUP5 ADD RETURNDATACOPY PUSH2 0x137F JUMP JUMPDEST PUSH1 0x60 SWAP2 POP JUMPDEST POP SWAP2 POP SWAP2 POP DUP2 DUP1 ISZERO PUSH2 0x13AC JUMPI POP PUSH0 DUP2 MLOAD EQ DUP1 PUSH2 0x13AB JUMPI POP DUP1 DUP1 PUSH1 0x20 ADD SWAP1 MLOAD DUP2 ADD SWAP1 PUSH2 0x13AA SWAP2 SWAP1 PUSH2 0x25E7 JUMP JUMPDEST JUMPDEST JUMPDEST PUSH2 0x13EB JUMPI PUSH1 0x40 MLOAD PUSH32 0x8C379A000000000000000000000000000000000000000000000000000000000 DUP2 MSTORE PUSH1 0x4 ADD PUSH2 0x13E2 SWAP1 PUSH2 0x2682 JUMP JUMPDEST PUSH1 0x40 MLOAD DUP1 SWAP2 SUB SWAP1 REVERT JUMPDEST POP POP POP POP POP POP JUMP JUMPDEST PUSH1 0x1 PUSH0 DUP2 SWAP1 SSTORE POP JUMP JUMPDEST PUSH2 0x1404 PUSH2 0x1824 JUMP JUMPDEST PUSH20 0xFFFFFFFFFFFFFFFFFFFFFFFFFFFFFFFFFFFFFFFF AND PUSH2 0x1422 PUSH2 0xE5B JUMP JUMPDEST PUSH20 0xFFFFFFFFFFFFFFFFFFFFFFFFFFFFFFFFFFFFFFFF AND EQ PUSH2 0x1481 JUMPI PUSH2 0x1445 PUSH2 0x1824 JUMP JUMPDEST PUSH1 0x40 MLOAD PUSH32 0x118CDAA700000000000000000000000000000000000000000000000000000000 DUP2 MSTORE PUSH1 0x4 ADD PUSH2 0x1478 SWAP2 SWAP1 PUSH2 0x1D11 JUMP JUMPDEST PUSH1 0x40 MLOAD DUP1 SWAP2 SUB SWAP1 REVERT JUMPDEST JUMP JUMPDEST PUSH32 0x0 PUSH20 0xFFFFFFFFFFFFFFFFFFFFFFFFFFFFFFFFFFFFFFFF AND ADDRESS PUSH20 0xFFFFFFFFFFFFFFFFFFFFFFFFFFFFFFFFFFFFFFFF AND EQ DUP1 PUSH2 0x1530 JUMPI POP PUSH32 0x0 PUSH20 0xFFFFFFFFFFFFFFFFFFFFFFFFFFFFFFFFFFFFFFFF AND PUSH2 0x1517 PUSH2 0x18B9 JUMP JUMPDEST PUSH20 0xFFFFFFFFFFFFFFFFFFFFFFFFFFFFFFFFFFFFFFFF AND EQ ISZERO JUMPDEST ISZERO PUSH2 0x1567 JUMPI PUSH1 0x40 MLOAD PUSH32 0xE07C8DBA00000000000000000000000000000000000000000000000000000000 DUP2 MSTORE PUSH1 0x4 ADD PUSH1 0x40 MLOAD DUP1 SWAP2 SUB SWAP1 REVERT JUMPDEST JUMP JUMPDEST PUSH2 0x1571 PUSH2 0x13FC JUMP JUMPDEST POP JUMP JUMPDEST DUP2 PUSH20 0xFFFFFFFFFFFFFFFFFFFFFFFFFFFFFFFFFFFFFFFF AND PUSH4 0x52D1902D PUSH1 0x40 MLOAD DUP2 PUSH4 0xFFFFFFFF AND PUSH1 0xE0 SHL DUP2 MSTORE PUSH1 0x4 ADD PUSH1 0x20 PUSH1 0x40 MLOAD DUP1 DUP4 SUB DUP2 DUP7 GAS STATICCALL SWAP3 POP POP POP DUP1 ISZERO PUSH2 0x15DC JUMPI POP PUSH1 0x40 MLOAD RETURNDATASIZE PUSH1 0x1F NOT PUSH1 0x1F DUP3 ADD AND DUP3 ADD DUP1 PUSH1 0x40 MSTORE POP DUP2 ADD SWAP1 PUSH2 0x15D9 SWAP2 SWAP1 PUSH2 0x26CA JUMP JUMPDEST PUSH1 0x1 JUMPDEST PUSH2 0x161D JUMPI DUP2 PUSH1 0x40 MLOAD PUSH32 0x4C9C8CE300000000000000000000000000000000000000000000000000000000 DUP2 MSTORE PUSH1 0x4 ADD PUSH2 0x1614 SWAP2 SWAP1 PUSH2 0x1D11 JUMP JUMPDEST PUSH1 0x40 MLOAD DUP1 SWAP2 SUB SWAP1 REVERT JUMPDEST PUSH32 0x360894A13BA1A3210667C828492DB98DCA3E2076CC3735A920A3CA505D382BBC PUSH0 SHL DUP2 EQ PUSH2 0x1683 JUMPI DUP1 PUSH1 0x40 MLOAD PUSH32 0xAA1D49A400000000000000000000000000000000000000000000000000000000 DUP2 MSTORE PUSH1 0x4 ADD PUSH2 0x167A SWAP2 SWAP1 PUSH2 0x2128 JUMP JUMPDEST PUSH1 0x40 MLOAD DUP1 SWAP2 SUB SWAP1 REVERT JUMPDEST PUSH2 0x168D DUP4 DUP4 PUSH2 0x190C JUMP JUMPDEST POP POP POP JUMP JUMPDEST PUSH32 0x0 PUSH20 0xFFFFFFFFFFFFFFFFFFFFFFFFFFFFFFFFFFFFFFFF AND ADDRESS PUSH20 0xFFFFFFFFFFFFFFFFFFFFFFFFFFFFFFFFFFFFFFFF AND EQ PUSH2 0x1717 JUMPI PUSH1 0x40 MLOAD PUSH32 0xE07C8DBA00000000000000000000000000000000000000000000000000000000 DUP2 MSTORE PUSH1 0x4 ADD PUSH1 0x40 MLOAD DUP1 SWAP2 SUB SWAP1 REVERT JUMPDEST JUMP JUMPDEST PUSH0 PUSH2 0x1722 PUSH2 0x17EA JUMP JUMPDEST SWAP1 POP PUSH0 DUP2 PUSH0 ADD PUSH0 SWAP1 SLOAD SWAP1 PUSH2 0x100 EXP SWAP1 DIV PUSH20 0xFFFFFFFFFFFFFFFFFFFFFFFFFFFFFFFFFFFFFFFF AND SWAP1 POP DUP3 DUP3 PUSH0 ADD PUSH0 PUSH2 0x100 EXP DUP2 SLOAD DUP2 PUSH20 0xFFFFFFFFFFFFFFFFFFFFFFFFFFFFFFFFFFFFFFFF MUL NOT AND SWAP1 DUP4 PUSH20 0xFFFFFFFFFFFFFFFFFFFFFFFFFFFFFFFFFFFFFFFF AND MUL OR SWAP1 SSTORE POP DUP3 PUSH20 0xFFFFFFFFFFFFFFFFFFFFFFFFFFFFFFFFFFFFFFFF AND DUP2 PUSH20 0xFFFFFFFFFFFFFFFFFFFFFFFFFFFFFFFFFFFFFFFF AND PUSH32 0x8BE0079C531659141344CD1FD0A4F28419497F9722A3DAAFE3B4186F6B6457E0 PUSH1 0x40 MLOAD PUSH1 0x40 MLOAD DUP1 SWAP2 SUB SWAP1 LOG3 POP POP POP JUMP JUMPDEST PUSH0 PUSH32 0x9016D09D72D40FDAE2FD8CEAC6B6234C7706214FD39C1CD1E609A0528C199300 SWAP1 POP SWAP1 JUMP JUMPDEST PUSH0 DUP1 PUSH2 0x181B PUSH2 0x197E JUMP JUMPDEST SWAP1 POP DUP1 SWAP2 POP POP SWAP1 JUMP JUMPDEST PUSH0 CALLER SWAP1 POP SWAP1 JUMP JUMPDEST PUSH2 0x1833 PUSH2 0x19A7 JUMP JUMPDEST PUSH0 PUSH20 0xFFFFFFFFFFFFFFFFFFFFFFFFFFFFFFFFFFFFFFFF AND DUP2 PUSH20 0xFFFFFFFFFFFFFFFFFFFFFFFFFFFFFFFFFFFFFFFF AND SUB PUSH2 0x18A3 JUMPI PUSH0 PUSH1 0x40 MLOAD PUSH32 0x1E4FBDF700000000000000000000000000000000000000000000000000000000 DUP2 MSTORE PUSH1 0x4 ADD PUSH2 0x189A SWAP2 SWAP1 PUSH2 0x1D11 JUMP JUMPDEST PUSH1 0x40 MLOAD DUP1 SWAP2 SUB SWAP1 REVERT JUMPDEST PUSH2 0x18AC DUP2 PUSH2 0x1719 JUMP JUMPDEST POP JUMP JUMPDEST PUSH2 0x18B7 PUSH2 0x19A7 JUMP JUMPDEST JUMP JUMPDEST PUSH0 PUSH2 0x18E5 PUSH32 0x360894A13BA1A3210667C828492DB98DCA3E2076CC3735A920A3CA505D382BBC PUSH0 SHL PUSH2 0x19E7 JUMP JUMPDEST PUSH0 ADD PUSH0 SWAP1 SLOAD SWAP1 PUSH2 0x100 EXP SWAP1 DIV PUSH20 0xFFFFFFFFFFFFFFFFFFFFFFFFFFFFFFFFFFFFFFFF AND SWAP1 POP SWAP1 JUMP JUMPDEST PUSH2 0x1915 DUP3 PUSH2 0x19F0 JUMP JUMPDEST DUP2 PUSH20 0xFFFFFFFFFFFFFFFFFFFFFFFFFFFFFFFFFFFFFFFF AND PUSH32 0xBC7CD75A20EE27FD9ADEBAB32041F755214DBC6BFFA90CC0225B39DA2E5C2D3B PUSH1 0x40 MLOAD PUSH1 0x40 MLOAD DUP1 SWAP2 SUB SWAP1 LOG2 PUSH0 DUP2 MLOAD GT ISZERO PUSH2 0x1971 JUMPI PUSH2 0x196B DUP3 DUP3 PUSH2 0x1AB9 JUMP JUMPDEST POP PUSH2 0x197A JUMP JUMPDEST PUSH2 0x1979 PUSH2 0x1B39 JUMP JUMPDEST JUMPDEST POP POP JUMP JUMPDEST PUSH0 PUSH32 0xF0C57E16840DF040F15088DC2F81FE391C3923BEC73E23A9662EFC9C229C6A00 PUSH0 SHL SWAP1 POP SWAP1 JUMP JUMPDEST PUSH2 0x19AF PUSH2 0x1B75 JUMP JUMPDEST PUSH2 0x19E5 JUMPI PUSH1 0x40 MLOAD PUSH32 0xD7E6BCF800000000000000000000000000000000000000000000000000000000 DUP2 MSTORE PUSH1 0x4 ADD PUSH1 0x40 MLOAD DUP1 SWAP2 SUB SWAP1 REVERT JUMPDEST JUMP JUMPDEST PUSH0 DUP2 SWAP1 POP SWAP2 SWAP1 POP JUMP JUMPDEST PUSH0 DUP2 PUSH20 0xFFFFFFFFFFFFFFFFFFFFFFFFFFFFFFFFFFFFFFFF AND EXTCODESIZE SUB PUSH2 0x1A4B JUMPI DUP1 PUSH1 0x40 MLOAD PUSH32 0x4C9C8CE300000000000000000000000000000000000000000000000000000000 DUP2 MSTORE PUSH1 0x4 ADD PUSH2 0x1A42 SWAP2 SWAP1 PUSH2 0x1D11 JUMP JUMPDEST PUSH1 0x40 MLOAD DUP1 SWAP2 SUB SWAP1 REVERT JUMPDEST DUP1 PUSH2 0x1A77 PUSH32 0x360894A13BA1A3210667C828492DB98DCA3E2076CC3735A920A3CA505D382BBC PUSH0 SHL PUSH2 0x19E7 JUMP JUMPDEST PUSH0 ADD PUSH0 PUSH2 0x100 EXP DUP2 SLOAD DUP2 PUSH20 0xFFFFFFFFFFFFFFFFFFFFFFFFFFFFFFFFFFFFFFFF MUL NOT AND SWAP1 DUP4 PUSH20 0xFFFFFFFFFFFFFFFFFFFFFFFFFFFFFFFFFFFFFFFF AND MUL OR SWAP1 SSTORE POP POP JUMP JUMPDEST PUSH1 0x60 PUSH0 DUP1 DUP5 PUSH20 0xFFFFFFFFFFFFFFFFFFFFFFFFFFFFFFFFFFFFFFFF AND DUP5 PUSH1 0x40 MLOAD PUSH2 0x1AE2 SWAP2 SWAP1 PUSH2 0x25A7 JUMP JUMPDEST PUSH0 PUSH1 0x40 MLOAD DUP1 DUP4 SUB DUP2 DUP6 GAS DELEGATECALL SWAP2 POP POP RETURNDATASIZE DUP1 PUSH0 DUP2 EQ PUSH2 0x1B1A JUMPI PUSH1 0x40 MLOAD SWAP2 POP PUSH1 0x1F NOT PUSH1 0x3F RETURNDATASIZE ADD AND DUP3 ADD PUSH1 0x40 MSTORE RETURNDATASIZE DUP3 MSTORE RETURNDATASIZE PUSH0 PUSH1 0x20 DUP5 ADD RETURNDATACOPY PUSH2 0x1B1F JUMP JUMPDEST PUSH1 0x60 SWAP2 POP JUMPDEST POP SWAP2 POP SWAP2 POP PUSH2 0x1B2F DUP6 DUP4 DUP4 PUSH2 0x1B93 JUMP JUMPDEST SWAP3 POP POP POP SWAP3 SWAP2 POP POP JUMP JUMPDEST PUSH0 CALLVALUE GT ISZERO PUSH2 0x1B73 JUMPI PUSH1 0x40 MLOAD PUSH32 0xB398979F00000000000000000000000000000000000000000000000000000000 DUP2 MSTORE PUSH1 0x4 ADD PUSH1 0x40 MLOAD DUP1 SWAP2 SUB SWAP1 REVERT JUMPDEST JUMP JUMPDEST PUSH0 PUSH2 0x1B7E PUSH2 0x1811 JUMP JUMPDEST PUSH0 ADD PUSH1 0x8 SWAP1 SLOAD SWAP1 PUSH2 0x100 EXP SWAP1 DIV PUSH1 0xFF AND SWAP1 POP SWAP1 JUMP JUMPDEST PUSH1 0x60 DUP3 PUSH2 0x1BA8 JUMPI PUSH2 0x1BA3 DUP3 PUSH2 0x1C20 JUMP JUMPDEST PUSH2 0x1C18 JUMP JUMPDEST PUSH0 DUP3 MLOAD EQ DUP1 ISZERO PUSH2 0x1BCE JUMPI POP PUSH0 DUP5 PUSH20 0xFFFFFFFFFFFFFFFFFFFFFFFFFFFFFFFFFFFFFFFF AND EXTCODESIZE EQ JUMPDEST ISZERO PUSH2 0x1C10 JUMPI DUP4 PUSH1 0x40 MLOAD PUSH32 0x9996B31500000000000000000000000000000000000000000000000000000000 DUP2 MSTORE PUSH1 0x4 ADD PUSH2 0x1C07 SWAP2 SWAP1 PUSH2 0x1D11 JUMP JUMPDEST PUSH1 0x40 MLOAD DUP1 SWAP2 SUB SWAP1 REVERT JUMPDEST DUP2 SWAP1 POP PUSH2 0x1C19 JUMP JUMPDEST JUMPDEST SWAP4 SWAP3 POP POP POP JUMP JUMPDEST PUSH0 DUP2 MLOAD GT ISZERO PUSH2 0x1C31 JUMPI DUP1 MLOAD PUSH1 0x20 DUP3 ADD REVERT JUMPDEST PUSH1 0x40 MLOAD PUSH32 0xD6BDA27500000000000000000000000000000000000000000000000000000000 DUP2 MSTORE PUSH1 0x4 ADD PUSH1 0x40 MLOAD DUP1 SWAP2 SUB SWAP1 REVERT JUMPDEST PUSH0 PUSH1 0x40 MLOAD SWAP1 POP SWAP1 JUMP JUMPDEST PUSH0 DUP1 REVERT JUMPDEST PUSH0 DUP1 REVERT JUMPDEST PUSH0 DUP2 SWAP1 POP SWAP2 SWAP1 POP JUMP JUMPDEST PUSH2 0x1C86 DUP2 PUSH2 0x1C74 JUMP JUMPDEST DUP2 EQ PUSH2 0x1C90 JUMPI PUSH0 DUP1 REVERT JUMPDEST POP JUMP JUMPDEST PUSH0 DUP2 CALLDATALOAD SWAP1 POP PUSH2 0x1CA1 DUP2 PUSH2 0x1C7D JUMP JUMPDEST SWAP3 SWAP2 POP POP JUMP JUMPDEST PUSH0 PUSH1 0x20 DUP3 DUP5 SUB SLT ISZERO PUSH2 0x1CBC JUMPI PUSH2 0x1CBB PUSH2 0x1C6C JUMP JUMPDEST JUMPDEST PUSH0 PUSH2 0x1CC9 DUP5 DUP3 DUP6 ADD PUSH2 0x1C93 JUMP JUMPDEST SWAP2 POP POP SWAP3 SWAP2 POP POP JUMP JUMPDEST PUSH0 PUSH20 0xFFFFFFFFFFFFFFFFFFFFFFFFFFFFFFFFFFFFFFFF DUP3 AND SWAP1 POP SWAP2 SWAP1 POP JUMP JUMPDEST PUSH0 PUSH2 0x1CFB DUP3 PUSH2 0x1CD2 JUMP JUMPDEST SWAP1 POP SWAP2 SWAP1 POP JUMP JUMPDEST PUSH2 0x1D0B DUP2 PUSH2 0x1CF1 JUMP JUMPDEST DUP3 MSTORE POP POP JUMP JUMPDEST PUSH0 PUSH1 0x20 DUP3 ADD SWAP1 POP PUSH2 0x1D24 PUSH0 DUP4 ADD DUP5 PUSH2 0x1D02 JUMP JUMPDEST SWAP3 SWAP2 POP POP JUMP JUMPDEST PUSH0 DUP2 MLOAD SWAP1 POP SWAP2 SWAP1 POP JUMP JUMPDEST PUSH0 DUP3 DUP3 MSTORE PUSH1 0x20 DUP3 ADD SWAP1 POP SWAP3 SWAP2 POP POP JUMP JUMPDEST PUSH0 DUP2 SWAP1 POP PUSH1 0x20 DUP3 ADD SWAP1 POP SWAP2 SWAP1 POP JUMP JUMPDEST PUSH2 0x1D5C DUP2 PUSH2 0x1CF1 JUMP JUMPDEST DUP3 MSTORE POP POP JUMP JUMPDEST PUSH0 PUSH2 0x1D6D DUP4 DUP4 PUSH2 0x1D53 JUMP JUMPDEST PUSH1 0x20 DUP4 ADD SWAP1 POP SWAP3 SWAP2 POP POP JUMP JUMPDEST PUSH0 PUSH1 0x20 DUP3 ADD SWAP1 POP SWAP2 SWAP1 POP JUMP JUMPDEST PUSH0 PUSH2 0x1D8F DUP3 PUSH2 0x1D2A JUMP JUMPDEST PUSH2 0x1D99 DUP2 DUP6 PUSH2 0x1D34 JUMP JUMPDEST SWAP4 POP PUSH2 0x1DA4 DUP4 PUSH2 0x1D44 JUMP JUMPDEST DUP1 PUSH0 JUMPDEST DUP4 DUP2 LT ISZERO PUSH2 0x1DD4 JUMPI DUP2 MLOAD PUSH2 0x1DBB DUP9 DUP3 PUSH2 0x1D62 JUMP JUMPDEST SWAP8 POP PUSH2 0x1DC6 DUP4 PUSH2 0x1D79 JUMP JUMPDEST SWAP3 POP POP PUSH1 0x1 DUP2 ADD SWAP1 POP PUSH2 0x1DA7 JUMP JUMPDEST POP DUP6 SWAP4 POP POP POP POP SWAP3 SWAP2 POP POP JUMP JUMPDEST PUSH0 PUSH1 0x20 DUP3 ADD SWAP1 POP DUP2 DUP2 SUB PUSH0 DUP4 ADD MSTORE PUSH2 0x1DF9 DUP2 DUP5 PUSH2 0x1D85 JUMP JUMPDEST SWAP1 POP SWAP3 SWAP2 POP POP JUMP JUMPDEST PUSH2 0x1E0A DUP2 PUSH2 0x1C74 JUMP JUMPDEST DUP3 MSTORE POP POP JUMP JUMPDEST PUSH0 PUSH1 0x40 DUP3 ADD SWAP1 POP PUSH2 0x1E23 PUSH0 DUP4 ADD DUP6 PUSH2 0x1E01 JUMP JUMPDEST PUSH2 0x1E30 PUSH1 0x20 DUP4 ADD DUP5 PUSH2 0x1E01 JUMP JUMPDEST SWAP4 SWAP3 POP POP POP JUMP JUMPDEST PUSH2 0x1E40 DUP2 PUSH2 0x1CF1 JUMP JUMPDEST DUP2 EQ PUSH2 0x1E4A JUMPI PUSH0 DUP1 REVERT JUMPDEST POP JUMP JUMPDEST PUSH0 DUP2 CALLDATALOAD SWAP1 POP PUSH2 0x1E5B DUP2 PUSH2 0x1E37 JUMP JUMPDEST SWAP3 SWAP2 POP POP JUMP JUMPDEST PUSH0 PUSH1 0x20 DUP3 DUP5 SUB SLT ISZERO PUSH2 0x1E76 JUMPI PUSH2 0x1E75 PUSH2 0x1C6C JUMP JUMPDEST JUMPDEST PUSH0 PUSH2 0x1E83 DUP5 DUP3 DUP6 ADD PUSH2 0x1E4D JUMP JUMPDEST SWAP2 POP POP SWAP3 SWAP2 POP POP JUMP JUMPDEST PUSH0 DUP2 ISZERO ISZERO SWAP1 POP SWAP2 SWAP1 POP JUMP JUMPDEST PUSH2 0x1EA0 DUP2 PUSH2 0x1E8C JUMP JUMPDEST DUP3 MSTORE POP POP JUMP JUMPDEST PUSH0 PUSH1 0x60 DUP3 ADD SWAP1 POP PUSH2 0x1EB9 PUSH0 DUP4 ADD DUP7 PUSH2 0x1E01 JUMP JUMPDEST PUSH2 0x1EC6 PUSH1 0x20 DUP4 ADD DUP6 PUSH2 0x1E01 JUMP JUMPDEST PUSH2 0x1ED3 PUSH1 0x40 DUP4 ADD DUP5 PUSH2 0x1E97 JUMP JUMPDEST SWAP5 SWAP4 POP POP POP POP JUMP JUMPDEST PUSH0 PUSH1 0xFF DUP3 AND SWAP1 POP SWAP2 SWAP1 POP JUMP JUMPDEST PUSH2 0x1EF0 DUP2 PUSH2 0x1EDB JUMP JUMPDEST DUP2 EQ PUSH2 0x1EFA JUMPI PUSH0 DUP1 REVERT JUMPDEST POP JUMP JUMPDEST PUSH0 DUP2 CALLDATALOAD SWAP1 POP PUSH2 0x1F0B DUP2 PUSH2 0x1EE7 JUMP JUMPDEST SWAP3 SWAP2 POP POP JUMP JUMPDEST PUSH0 DUP1 PUSH0 PUSH1 0x60 DUP5 DUP7 SUB SLT ISZERO PUSH2 0x1F28 JUMPI PUSH2 0x1F27 PUSH2 0x1C6C JUMP JUMPDEST JUMPDEST PUSH0 PUSH2 0x1F35 DUP7 DUP3 DUP8 ADD PUSH2 0x1EFD JUMP JUMPDEST SWAP4 POP POP PUSH1 0x20 PUSH2 0x1F46 DUP7 DUP3 DUP8 ADD PUSH2 0x1C93 JUMP JUMPDEST SWAP3 POP POP PUSH1 0x40 PUSH2 0x1F57 DUP7 DUP3 DUP8 ADD PUSH2 0x1C93 JUMP JUMPDEST SWAP2 POP POP SWAP3 POP SWAP3 POP SWAP3 JUMP JUMPDEST PUSH0 PUSH1 0x20 DUP3 ADD SWAP1 POP PUSH2 0x1F74 PUSH0 DUP4 ADD DUP5 PUSH2 0x1E01 JUMP JUMPDEST SWAP3 SWAP2 POP POP JUMP JUMPDEST PUSH0 DUP1 REVERT JUMPDEST PUSH0 DUP1 REVERT JUMPDEST PUSH0 PUSH1 0x1F NOT PUSH1 0x1F DUP4 ADD AND SWAP1 POP SWAP2 SWAP1 POP JUMP JUMPDEST PUSH32 0x4E487B7100000000000000000000000000000000000000000000000000000000 PUSH0 MSTORE PUSH1 0x41 PUSH1 0x4 MSTORE PUSH1 0x24 PUSH0 REVERT JUMPDEST PUSH2 0x1FC8 DUP3 PUSH2 0x1F82 JUMP JUMPDEST DUP2 ADD DUP2 DUP2 LT PUSH8 0xFFFFFFFFFFFFFFFF DUP3 GT OR ISZERO PUSH2 0x1FE7 JUMPI PUSH2 0x1FE6 PUSH2 0x1F92 JUMP JUMPDEST JUMPDEST DUP1 PUSH1 0x40 MSTORE POP POP POP JUMP JUMPDEST PUSH0 PUSH2 0x1FF9 PUSH2 0x1C63 JUMP JUMPDEST SWAP1 POP PUSH2 0x2005 DUP3 DUP3 PUSH2 0x1FBF JUMP JUMPDEST SWAP2 SWAP1 POP JUMP JUMPDEST PUSH0 PUSH8 0xFFFFFFFFFFFFFFFF DUP3 GT ISZERO PUSH2 0x2024 JUMPI PUSH2 0x2023 PUSH2 0x1F92 JUMP JUMPDEST JUMPDEST PUSH2 0x202D DUP3 PUSH2 0x1F82 JUMP JUMPDEST SWAP1 POP PUSH1 0x20 DUP2 ADD SWAP1 POP SWAP2 SWAP1 POP JUMP JUMPDEST DUP3 DUP2 DUP4 CALLDATACOPY PUSH0 DUP4 DUP4 ADD MSTORE POP POP POP JUMP JUMPDEST PUSH0 PUSH2 0x205A PUSH2 0x2055 DUP5 PUSH2 0x200A JUMP JUMPDEST PUSH2 0x1FF0 JUMP JUMPDEST SWAP1 POP DUP3 DUP2 MSTORE PUSH1 0x20 DUP2 ADD DUP5 DUP5 DUP5 ADD GT ISZERO PUSH2 0x2076 JUMPI PUSH2 0x2075 PUSH2 0x1F7E JUMP JUMPDEST JUMPDEST PUSH2 0x2081 DUP5 DUP3 DUP6 PUSH2 0x203A JUMP JUMPDEST POP SWAP4 SWAP3 POP POP POP JUMP JUMPDEST PUSH0 DUP3 PUSH1 0x1F DUP4 ADD SLT PUSH2 0x209D JUMPI PUSH2 0x209C PUSH2 0x1F7A JUMP JUMPDEST JUMPDEST DUP2 CALLDATALOAD PUSH2 0x20AD DUP5 DUP3 PUSH1 0x20 DUP7 ADD PUSH2 0x2048 JUMP JUMPDEST SWAP2 POP POP SWAP3 SWAP2 POP POP JUMP JUMPDEST PUSH0 DUP1 PUSH1 0x40 DUP4 DUP6 SUB SLT ISZERO PUSH2 0x20CC JUMPI PUSH2 0x20CB PUSH2 0x1C6C JUMP JUMPDEST JUMPDEST PUSH0 PUSH2 0x20D9 DUP6 DUP3 DUP7 ADD PUSH2 0x1E4D JUMP JUMPDEST SWAP3 POP POP PUSH1 0x20 DUP4 ADD CALLDATALOAD PUSH8 0xFFFFFFFFFFFFFFFF DUP2 GT ISZERO PUSH2 0x20FA JUMPI PUSH2 0x20F9 PUSH2 0x1C70 JUMP JUMPDEST JUMPDEST PUSH2 0x2106 DUP6 DUP3 DUP7 ADD PUSH2 0x2089 JUMP JUMPDEST SWAP2 POP POP SWAP3 POP SWAP3 SWAP1 POP JUMP JUMPDEST PUSH0 DUP2 SWAP1 POP SWAP2 SWAP1 POP JUMP JUMPDEST PUSH2 0x2122 DUP2 PUSH2 0x2110 JUMP JUMPDEST DUP3 MSTORE POP POP JUMP JUMPDEST PUSH0 PUSH1 0x20 DUP3 ADD SWAP1 POP PUSH2 0x213B PUSH0 DUP4 ADD DUP5 PUSH2 0x2119 JUMP JUMPDEST SWAP3 SWAP2 POP POP JUMP JUMPDEST PUSH0 DUP1 PUSH0 PUSH1 0x60 DUP5 DUP7 SUB SLT ISZERO PUSH2 0x2158 JUMPI PUSH2 0x2157 PUSH2 0x1C6C JUMP JUMPDEST JUMPDEST PUSH0 PUSH2 0x2165 DUP7 DUP3 DUP8 ADD PUSH2 0x1C93 JUMP JUMPDEST SWAP4 POP POP PUSH1 0x20 PUSH2 0x2176 DUP7 DUP3 DUP8 ADD PUSH2 0x1C93 JUMP JUMPDEST SWAP3 POP POP PUSH1 0x40 PUSH2 0x2187 DUP7 DUP3 DUP8 ADD PUSH2 0x1C93 JUMP JUMPDEST SWAP2 POP POP SWAP3 POP SWAP3 POP SWAP3 JUMP JUMPDEST PUSH0 DUP2 MLOAD SWAP1 POP SWAP2 SWAP1 POP JUMP JUMPDEST PUSH0 DUP3 DUP3 MSTORE PUSH1 0x20 DUP3 ADD SWAP1 POP SWAP3 SWAP2 POP POP JUMP JUMPDEST PUSH0 JUMPDEST DUP4 DUP2 LT ISZERO PUSH2 0x21C8 JUMPI DUP1 DUP3 ADD MLOAD DUP2 DUP5 ADD MSTORE PUSH1 0x20 DUP2 ADD SWAP1 POP PUSH2 0x21AD JUMP JUMPDEST PUSH0 DUP5 DUP5 ADD MSTORE POP POP POP POP JUMP JUMPDEST PUSH0 PUSH2 0x21DD DUP3 PUSH2 0x2191 JUMP JUMPDEST PUSH2 0x21E7 DUP2 DUP6 PUSH2 0x219B JUMP JUMPDEST SWAP4 POP PUSH2 0x21F7 DUP2 DUP6 PUSH1 0x20 DUP7 ADD PUSH2 0x21AB JUMP JUMPDEST PUSH2 0x2200 DUP2 PUSH2 0x1F82 JUMP JUMPDEST DUP5 ADD SWAP2 POP POP SWAP3 SWAP2 POP POP JUMP JUMPDEST PUSH0 PUSH1 0x20 DUP3 ADD SWAP1 POP DUP2 DUP2 SUB PUSH0 DUP4 ADD MSTORE PUSH2 0x2223 DUP2 DUP5 PUSH2 0x21D3 JUMP JUMPDEST SWAP1 POP SWAP3 SWAP2 POP POP JUMP JUMPDEST PUSH0 PUSH1 0x60 DUP3 ADD SWAP1 POP PUSH2 0x223E PUSH0 DUP4 ADD DUP7 PUSH2 0x1E01 JUMP JUMPDEST PUSH2 0x224B PUSH1 0x20 DUP4 ADD DUP6 PUSH2 0x1E01 JUMP JUMPDEST PUSH2 0x2258 PUSH1 0x40 DUP4 ADD DUP5 PUSH2 0x1E01 JUMP JUMPDEST SWAP5 SWAP4 POP POP POP POP JUMP JUMPDEST PUSH32 0x496E76616C696420737562736372697074696F6E20616D6F756E740000000000 PUSH0 DUP3 ADD MSTORE POP JUMP JUMPDEST PUSH0 PUSH2 0x2294 PUSH1 0x1B DUP4 PUSH2 0x219B JUMP JUMPDEST SWAP2 POP PUSH2 0x229F DUP3 PUSH2 0x2260 JUMP JUMPDEST PUSH1 0x20 DUP3 ADD SWAP1 POP SWAP2 SWAP1 POP JUMP JUMPDEST PUSH0 PUSH1 0x20 DUP3 ADD SWAP1 POP DUP2 DUP2 SUB PUSH0 DUP4 ADD MSTORE PUSH2 0x22C1 DUP2 PUSH2 0x2288 JUMP JUMPDEST SWAP1 POP SWAP2 SWAP1 POP JUMP JUMPDEST PUSH32 0x416C726561647920737562736372696265640000000000000000000000000000 PUSH0 DUP3 ADD MSTORE POP JUMP JUMPDEST PUSH0 PUSH2 0x22FC PUSH1 0x12 DUP4 PUSH2 0x219B JUMP JUMPDEST SWAP2 POP PUSH2 0x2307 DUP3 PUSH2 0x22C8 JUMP JUMPDEST PUSH1 0x20 DUP3 ADD SWAP1 POP SWAP2 SWAP1 POP JUMP JUMPDEST PUSH0 PUSH1 0x20 DUP3 ADD SWAP1 POP DUP2 DUP2 SUB PUSH0 DUP4 ADD MSTORE PUSH2 0x2329 DUP2 PUSH2 0x22F0 JUMP JUMPDEST SWAP1 POP SWAP2 SWAP1 POP JUMP JUMPDEST PUSH32 0x4E487B7100000000000000000000000000000000000000000000000000000000 PUSH0 MSTORE PUSH1 0x11 PUSH1 0x4 MSTORE PUSH1 0x24 PUSH0 REVERT JUMPDEST PUSH0 PUSH2 0x2367 DUP3 PUSH2 0x1C74 JUMP JUMPDEST SWAP2 POP PUSH2 0x2372 DUP4 PUSH2 0x1C74 JUMP JUMPDEST SWAP3 POP DUP3 DUP3 ADD SWAP1 POP DUP1 DUP3 GT ISZERO PUSH2 0x238A JUMPI PUSH2 0x2389 PUSH2 0x2330 JUMP JUMPDEST JUMPDEST SWAP3 SWAP2 POP POP JUMP JUMPDEST PUSH32 0x496E76616C6964206C6576656C00000000000000000000000000000000000000 PUSH0 DUP3 ADD MSTORE POP JUMP JUMPDEST PUSH0 PUSH2 0x23C4 PUSH1 0xD DUP4 PUSH2 0x219B JUMP JUMPDEST SWAP2 POP PUSH2 0x23CF DUP3 PUSH2 0x2390 JUMP JUMPDEST PUSH1 0x20 DUP3 ADD SWAP1 POP SWAP2 SWAP1 POP JUMP JUMPDEST PUSH0 PUSH1 0x20 DUP3 ADD SWAP1 POP DUP2 DUP2 SUB PUSH0 DUP4 ADD MSTORE PUSH2 0x23F1 DUP2 PUSH2 0x23B8 JUMP JUMPDEST SWAP1 POP SWAP2 SWAP1 POP JUMP JUMPDEST PUSH0 PUSH2 0x2402 DUP3 PUSH2 0x1C74 JUMP JUMPDEST SWAP2 POP PUSH2 0x240D DUP4 PUSH2 0x1C74 JUMP JUMPDEST SWAP3 POP DUP3 DUP3 SUB SWAP1 POP DUP2 DUP2 GT ISZERO PUSH2 0x2425 JUMPI PUSH2 0x2424 PUSH2 0x2330 JUMP JUMPDEST JUMPDEST SWAP3 SWAP2 POP POP JUMP JUMPDEST PUSH32 0x4E487B7100000000000000000000000000000000000000000000000000000000 PUSH0 MSTORE PUSH1 0x32 PUSH1 0x4 MSTORE PUSH1 0x24 PUSH0 REVERT JUMPDEST PUSH32 0x496E76616C6964206C6576656C2076616C756573000000000000000000000000 PUSH0 DUP3 ADD MSTORE POP JUMP JUMPDEST PUSH0 PUSH2 0x248C PUSH1 0x14 DUP4 PUSH2 0x219B JUMP JUMPDEST SWAP2 POP PUSH2 0x2497 DUP3 PUSH2 0x2458 JUMP JUMPDEST PUSH1 0x20 DUP3 ADD SWAP1 POP SWAP2 SWAP1 POP JUMP JUMPDEST PUSH0 PUSH1 0x20 DUP3 ADD SWAP1 POP DUP2 DUP2 SUB PUSH0 DUP4 ADD MSTORE PUSH2 0x24B9 DUP2 PUSH2 0x2480 JUMP JUMPDEST SWAP1 POP SWAP2 SWAP1 POP JUMP JUMPDEST PUSH0 DUP2 SWAP1 POP SWAP2 SWAP1 POP JUMP JUMPDEST PUSH0 PUSH8 0xFFFFFFFFFFFFFFFF DUP3 AND SWAP1 POP SWAP2 SWAP1 POP JUMP JUMPDEST PUSH0 DUP2 SWAP1 POP SWAP2 SWAP1 POP JUMP JUMPDEST PUSH0 PUSH2 0x24FF PUSH2 0x24FA PUSH2 0x24F5 DUP5 PUSH2 0x24C0 JUMP JUMPDEST PUSH2 0x24DC JUMP JUMPDEST PUSH2 0x24C9 JUMP JUMPDEST SWAP1 POP SWAP2 SWAP1 POP JUMP JUMPDEST PUSH2 0x250F DUP2 PUSH2 0x24E5 JUMP JUMPDEST DUP3 MSTORE POP POP JUMP JUMPDEST PUSH0 PUSH1 0x20 DUP3 ADD SWAP1 POP PUSH2 0x2528 PUSH0 DUP4 ADD DUP5 PUSH2 0x2506 JUMP JUMPDEST SWAP3 SWAP2 POP POP JUMP JUMPDEST PUSH0 PUSH1 0x60 DUP3 ADD SWAP1 POP PUSH2 0x2541 PUSH0 DUP4 ADD DUP7 PUSH2 0x1D02 JUMP JUMPDEST PUSH2 0x254E PUSH1 0x20 DUP4 ADD DUP6 PUSH2 0x1D02 JUMP JUMPDEST PUSH2 0x255B PUSH1 0x40 DUP4 ADD DUP5 PUSH2 0x1E01 JUMP JUMPDEST SWAP5 SWAP4 POP POP POP POP JUMP JUMPDEST PUSH0 DUP2 MLOAD SWAP1 POP SWAP2 SWAP1 POP JUMP JUMPDEST PUSH0 DUP2 SWAP1 POP SWAP3 SWAP2 POP POP JUMP JUMPDEST PUSH0 PUSH2 0x2581 DUP3 PUSH2 0x2563 JUMP JUMPDEST PUSH2 0x258B DUP2 DUP6 PUSH2 0x256D JUMP JUMPDEST SWAP4 POP PUSH2 0x259B DUP2 DUP6 PUSH1 0x20 DUP7 ADD PUSH2 0x21AB JUMP JUMPDEST DUP1 DUP5 ADD SWAP2 POP POP SWAP3 SWAP2 POP POP JUMP JUMPDEST PUSH0 PUSH2 0x25B2 DUP3 DUP5 PUSH2 0x2577 JUMP JUMPDEST SWAP2 POP DUP2 SWAP1 POP SWAP3 SWAP2 POP POP JUMP JUMPDEST PUSH2 0x25C6 DUP2 PUSH2 0x1E8C JUMP JUMPDEST DUP2 EQ PUSH2 0x25D0 JUMPI PUSH0 DUP1 REVERT JUMPDEST POP JUMP JUMPDEST PUSH0 DUP2 MLOAD SWAP1 POP PUSH2 0x25E1 DUP2 PUSH2 0x25BD JUMP JUMPDEST SWAP3 SWAP2 POP POP JUMP JUMPDEST PUSH0 PUSH1 0x20 DUP3 DUP5 SUB SLT ISZERO PUSH2 0x25FC JUMPI PUSH2 0x25FB PUSH2 0x1C6C JUMP JUMPDEST JUMPDEST PUSH0 PUSH2 0x2609 DUP5 DUP3 DUP6 ADD PUSH2 0x25D3 JUMP JUMPDEST SWAP2 POP POP SWAP3 SWAP2 POP POP JUMP JUMPDEST PUSH32 0x5472616E7366657248656C7065723A205452414E534645525F46524F4D5F4641 PUSH0 DUP3 ADD MSTORE PUSH32 0x494C454400000000000000000000000000000000000000000000000000000000 PUSH1 0x20 DUP3 ADD MSTORE POP JUMP JUMPDEST PUSH0 PUSH2 0x266C PUSH1 0x24 DUP4 PUSH2 0x219B JUMP JUMPDEST SWAP2 POP PUSH2 0x2677 DUP3 PUSH2 0x2612 JUMP JUMPDEST PUSH1 0x40 DUP3 ADD SWAP1 POP SWAP2 SWAP1 POP JUMP JUMPDEST PUSH0 PUSH1 0x20 DUP3 ADD SWAP1 POP DUP2 DUP2 SUB PUSH0 DUP4 ADD MSTORE PUSH2 0x2699 DUP2 PUSH2 0x2660 JUMP JUMPDEST SWAP1 POP SWAP2 SWAP1 POP JUMP JUMPDEST PUSH2 0x26A9 DUP2 PUSH2 0x2110 JUMP JUMPDEST DUP2 EQ PUSH2 0x26B3 JUMPI PUSH0 DUP1 REVERT JUMPDEST POP JUMP JUMPDEST PUSH0 DUP2 MLOAD SWAP1 POP PUSH2 0x26C4 DUP2 PUSH2 0x26A0 JUMP JUMPDEST SWAP3 SWAP2 POP POP JUMP JUMPDEST PUSH0 PUSH1 0x20 DUP3 DUP5 SUB SLT ISZERO PUSH2 0x26DF JUMPI PUSH2 0x26DE PUSH2 0x1C6C JUMP JUMPDEST JUMPDEST PUSH0 PUSH2 0x26EC DUP5 DUP3 DUP6 ADD PUSH2 0x26B6 JUMP JUMPDEST SWAP2 POP POP SWAP3 SWAP2 POP POP JUMP INVALID LOG2 PUSH5 0x6970667358 0x22 SLT KECCAK256 SWAP6 0xA9 CALLDATALOAD 0xDF 0xA6 0xCF 0xDC SELFDESTRUCT 0xC9 0xC4 0xC9 0xE8 SWAP2 SELFDESTRUCT PUSH32 0x7BBBE765B6C9B0817A227631AC30FDB064736F6C6343000818003300000000 "
				},
				"gasEstimates": {
					"creation": {
						"codeDepositCost": "2005400",
						"executionCost": "infinite",
						"totalCost": "infinite"
					},
					"external": {
						"ADVANCED()": "2558",
						"BASIC()": "2470",
						"ELITE()": "2448",
						"UPGRADE_INTERFACE_VERSION()": "infinite",
						"USDT()": "461",
						"advancedUsers(uint256)": "5055",
						"basicUsers(uint256)": "4968",
						"eliteUsers(uint256)": "4989",
						"getAdvancedUsers()": "infinite",
						"getAllUsersLength()": "infinite",
						"getBasicUsers()": "infinite",
						"getEliteUsers()": "infinite",
						"getSubscribeInfo()": "infinite",
						"getUsersPage(uint8,uint256,uint256)": "infinite",
						"initialize(address)": "infinite",
						"owner()": "2656",
						"proxiableUUID()": "infinite",
						"recipient()": "2553",
						"renounceOwnership()": "infinite",
						"setLevelsLimit(uint256,uint256,uint256)": "infinite",
						"setRecipient(address)": "infinite",
						"subscribe(uint256)": "infinite",
						"transferOwnership(address)": "infinite",
						"upgradeToAndCall(address,bytes)": "infinite",
						"userInfo(address)": "infinite"
					},
					"internal": {
						"_authorizeUpgrade(address)": "infinite"
					}
				},
				"methodIdentifiers": {
					"ADVANCED()": "9aa3acf2",
					"BASIC()": "384d57b5",
					"ELITE()": "664637fc",
					"UPGRADE_INTERFACE_VERSION()": "ad3cb1cc",
					"USDT()": "c54e44eb",
					"advancedUsers(uint256)": "91d02b0f",
					"basicUsers(uint256)": "065a187c",
					"eliteUsers(uint256)": "a652c53f",
					"getAdvancedUsers()": "10bce099",
					"getAllUsersLength()": "b00b968b",
					"getBasicUsers()": "07b7e83e",
					"getEliteUsers()": "57cc2537",
					"getSubscribeInfo()": "14b4ee3b",
					"getUsersPage(uint8,uint256,uint256)": "209630a8",
					"initialize(address)": "c4d66de8",
					"owner()": "8da5cb5b",
					"proxiableUUID()": "52d1902d",
					"recipient()": "66d003ac",
					"renounceOwnership()": "715018a6",
					"setLevelsLimit(uint256,uint256,uint256)": "a9625dfe",
					"setRecipient(address)": "3bbed4a0",
					"subscribe(uint256)": "0f574ba7",
					"transferOwnership(address)": "f2fde38b",
					"upgradeToAndCall(address,bytes)": "4f1ef286",
					"userInfo(address)": "1959a002"
				}
			},
			"storageLayout": {
				"storage": [
					{
						"astId": 1520,
						"contract": "src/Subscribe.sol:Subscribe",
						"label": "_status",
						"offset": 0,
						"slot": "0",
						"type": "t_uint256"
					},
					{
						"astId": 1605,
						"contract": "src/Subscribe.sol:Subscribe",
						"label": "recipient",
						"offset": 0,
						"slot": "1",
						"type": "t_address"
					},
					{
						"astId": 1608,
						"contract": "src/Subscribe.sol:Subscribe",
						"label": "BASIC",
						"offset": 0,
						"slot": "2",
						"type": "t_uint256"
					},
					{
						"astId": 1611,
						"contract": "src/Subscribe.sol:Subscribe",
						"label": "ADVANCED",
						"offset": 0,
						"slot": "3",
						"type": "t_uint256"
					},
					{
						"astId": 1614,
						"contract": "src/Subscribe.sol:Subscribe",
						"label": "ELITE",
						"offset": 0,
						"slot": "4",
						"type": "t_uint256"
					},
					{
						"astId": 1626,
						"contract": "src/Subscribe.sol:Subscribe",
						"label": "userInfo",
						"offset": 0,
						"slot": "5",
						"type": "t_mapping(t_address,t_struct(User)1621_storage)"
					},
					{
						"astId": 1629,
						"contract": "src/Subscribe.sol:Subscribe",
						"label": "basicUsers",
						"offset": 0,
						"slot": "6",
						"type": "t_array(t_address)dyn_storage"
					},
					{
						"astId": 1632,
						"contract": "src/Subscribe.sol:Subscribe",
						"label": "advancedUsers",
						"offset": 0,
						"slot": "7",
						"type": "t_array(t_address)dyn_storage"
					},
					{
						"astId": 1635,
						"contract": "src/Subscribe.sol:Subscribe",
						"label": "eliteUsers",
						"offset": 0,
						"slot": "8",
						"type": "t_array(t_address)dyn_storage"
					},
					{
						"astId": 1637,
						"contract": "src/Subscribe.sol:Subscribe",
						"label": "totalSubscribe",
						"offset": 0,
						"slot": "9",
						"type": "t_uint256"
					},
					{
						"astId": 1641,
						"contract": "src/Subscribe.sol:Subscribe",
						"label": "__gap",
						"offset": 0,
						"slot": "10",
						"type": "t_array(t_uint256)50_storage"
					}
				],
				"types": {
					"t_address": {
						"encoding": "inplace",
						"label": "address",
						"numberOfBytes": "20"
					},
					"t_array(t_address)dyn_storage": {
						"base": "t_address",
						"encoding": "dynamic_array",
						"label": "address[]",
						"numberOfBytes": "32"
					},
					"t_array(t_uint256)50_storage": {
						"base": "t_uint256",
						"encoding": "inplace",
						"label": "uint256[50]",
						"numberOfBytes": "1600"
					},
					"t_bool": {
						"encoding": "inplace",
						"label": "bool",
						"numberOfBytes": "1"
					},
					"t_mapping(t_address,t_struct(User)1621_storage)": {
						"encoding": "mapping",
						"key": "t_address",
						"label": "mapping(address => struct Subscribe.User)",
						"numberOfBytes": "32",
						"value": "t_struct(User)1621_storage"
					},
					"t_struct(User)1621_storage": {
						"encoding": "inplace",
						"label": "struct Subscribe.User",
						"members": [
							{
								"astId": 1616,
								"contract": "src/Subscribe.sol:Subscribe",
								"label": "subscribeAmount",
								"offset": 0,
								"slot": "0",
								"type": "t_uint256"
							},
							{
								"astId": 1618,
								"contract": "src/Subscribe.sol:Subscribe",
								"label": "subscribeTime",
								"offset": 0,
								"slot": "1",
								"type": "t_uint256"
							},
							{
								"astId": 1620,
								"contract": "src/Subscribe.sol:Subscribe",
								"label": "subscribed",
								"offset": 0,
								"slot": "2",
								"type": "t_bool"
							}
						],
						"numberOfBytes": "96"
					},
					"t_uint256": {
						"encoding": "inplace",
						"label": "uint256",
						"numberOfBytes": "32"
					}
				}
			},
			"userdoc": {
				"kind": "user",
				"methods": {
					"getUsersPage(uint8,uint256,uint256)": {
						"notice": "分页获取用户地址"
					}
				},
				"version": 1
			}
		}
	}
}