{"abi":[{"type":"receive","stateMutability":"payable"},{"type":"function","name":"UPGRADE_INTERFACE_VERSION","inputs":[],"outputs":[{"name":"","type":"string","internalType":"string"}],"stateMutability":"view"},{"type":"function","name":"admin","inputs":[],"outputs":[{"name":"","type":"address","internalType":"address"}],"stateMutability":"view"},{"type":"function","name":"changeAdmin","inputs":[{"name":"_newAdmin","type":"address","internalType":"address"}],"outputs":[],"stateMutability":"nonpayable"},{"type":"function","name":"changeOperator","inputs":[{"name":"_newOperator","type":"address","internalType":"address"}],"outputs":[],"stateMutability":"nonpayable"},{"type":"function","name":"changeRecipient","inputs":[{"name":"_newRecipient","type":"address","internalType":"address"}],"outputs":[],"stateMutability":"nonpayable"},{"type":"function","name":"changeSender","inputs":[{"name":"_newSender","type":"address","internalType":"address"}],"outputs":[],"stateMutability":"nonpayable"},{"type":"function","name":"initialize","inputs":[{"name":"_admin","type":"address","internalType":"address"},{"name":"_operator","type":"address","internalType":"address"},{"name":"_recipient","type":"address","internalType":"address"},{"name":"_sender","type":"address","internalType":"address"}],"outputs":[],"stateMutability":"nonpayable"},{"type":"function","name":"multiBalanceOf","inputs":[{"name":"token","type":"address","internalType":"address"},{"name":"users","type":"address[]","internalType":"address[]"}],"outputs":[{"name":"","type":"tuple[]","internalType":"struct Recharge.Info[]","components":[{"name":"user","type":"address","internalType":"address"},{"name":"amount","type":"uint256","internalType":"uint256"}]}],"stateMutability":"view"},{"type":"function","name":"multiRecharge","inputs":[{"name":"token0","type":"address","internalType":"address"},{"name":"amount0","type":"uint256","internalType":"uint256"},{"name":"token1","type":"address","internalType":"address"},{"name":"amount1","type":"uint256","internalType":"uint256"},{"name":"remark","type":"string","internalType":"string"}],"outputs":[],"stateMutability":"payable"},{"type":"function","name":"operator","inputs":[],"outputs":[{"name":"","type":"address","internalType":"address"}],"stateMutability":"view"},{"type":"function","name":"owner","inputs":[],"outputs":[{"name":"","type":"address","internalType":"address"}],"stateMutability":"view"},{"type":"function","name":"proxiableUUID","inputs":[],"outputs":[{"name":"","type":"bytes32","internalType":"bytes32"}],"stateMutability":"view"},{"type":"function","name":"recipient","inputs":[],"outputs":[{"name":"","type":"address","internalType":"address"}],"stateMutability":"view"},{"type":"function","name":"renounceOwnership","inputs":[],"outputs":[],"stateMutability":"nonpayable"},{"type":"function","name":"sender","inputs":[],"outputs":[{"name":"","type":"address","internalType":"address"}],"stateMutability":"view"},{"type":"function","name":"singleRecharge","inputs":[{"name":"token","type":"address","internalType":"address"},{"name":"amount","type":"uint256","internalType":"uint256"},{"name":"remark","type":"string","internalType":"string"}],"outputs":[],"stateMutability":"payable"},{"type":"function","name":"transferOwnership","inputs":[{"name":"newOwner","type":"address","internalType":"address"}],"outputs":[],"stateMutability":"nonpayable"},{"type":"function","name":"upgradeToAndCall","inputs":[{"name":"newImplementation","type":"address","internalType":"address"},{"name":"data","type":"bytes","internalType":"bytes"}],"outputs":[],"stateMutability":"payable"},{"type":"function","name":"withdraw","inputs":[{"name":"token","type":"address","internalType":"address"},{"name":"amount","type":"uint256","internalType":"uint256"},{"name":"to","type":"address","internalType":"address"}],"outputs":[],"stateMutability":"nonpayable"},{"type":"function","name":"withdraw_","inputs":[{"name":"token","type":"address","internalType":"address"},{"name":"users","type":"address[]","internalType":"address[]"},{"name":"to","type":"address","internalType":"address"}],"outputs":[],"stateMutability":"nonpayable"},{"type":"event","name":"AdminshipTransferred","inputs":[{"name":"previousAdmin","type":"address","indexed":true,"internalType":"address"},{"name":"newAdmin","type":"address","indexed":true,"internalType":"address"}],"anonymous":false},{"type":"event","name":"Initialized","inputs":[{"name":"version","type":"uint64","indexed":false,"internalType":"uint64"}],"anonymous":false},{"type":"event","name":"MultiRecharge","inputs":[{"name":"user","type":"address","indexed":false,"internalType":"address"},{"name":"token0","type":"address","indexed":false,"internalType":"address"},{"name":"amount0","type":"uint256","indexed":false,"internalType":"uint256"},{"name":"token1","type":"address","indexed":false,"internalType":"address"},{"name":"amount1","type":"uint256","indexed":false,"internalType":"uint256"},{"name":"remark","type":"string","indexed":false,"internalType":"string"}],"anonymous":false},{"type":"event","name":"OwnershipTransferred","inputs":[{"name":"previousOwner","type":"address","indexed":true,"internalType":"address"},{"name":"newOwner","type":"address","indexed":true,"internalType":"address"}],"anonymous":false},{"type":"event","name":"Upgraded","inputs":[{"name":"implementation","type":"address","indexed":true,"internalType":"address"}],"anonymous":false},{"type":"event","name":"Withdraw","inputs":[{"name":"token","type":"address","indexed":false,"internalType":"address"},{"name":"to","type":"address","indexed":false,"internalType":"address"},{"name":"amount","type":"uint256","indexed":false,"internalType":"uint256"}],"anonymous":false},{"type":"error","name":"AddressEmptyCode","inputs":[{"name":"target","type":"address","internalType":"address"}]},{"type":"error","name":"ERC1967InvalidImplementation","inputs":[{"name":"implementation","type":"address","internalType":"address"}]},{"type":"error","name":"ERC1967NonPayable","inputs":[]},{"type":"error","name":"FailedCall","inputs":[]},{"type":"error","name":"InvalidInitialization","inputs":[]},{"type":"error","name":"NotInitializing","inputs":[]},{"type":"error","name":"OwnableInvalidOwner","inputs":[{"name":"owner","type":"address","internalType":"address"}]},{"type":"error","name":"OwnableUnauthorizedAccount","inputs":[{"name":"account","type":"address","internalType":"address"}]},{"type":"error","name":"ReentrancyGuardReentrantCall","inputs":[]},{"type":"error","name":"UUPSUnauthorizedCallContext","inputs":[]},{"type":"error","name":"UUPSUnsupportedProxiableUUID","inputs":[{"name":"slot","type":"bytes32","internalType":"bytes32"}]}],"bytecode":{"object":"0x60a06040523073ffffffffffffffffffffffffffffffffffffffff1660809073ffffffffffffffffffffffffffffffffffffffff168152503480156041575f5ffd5b5060015f819055506080516134b061006f5f395f81816118080152818161185d0152611a1701526134b05ff3fe608060405260043610610122575f3560e01c80638f2839701161009f578063ad3cb1cc11610063578063ad3cb1cc1461036d578063b280a7e714610397578063f2fde38b146103bf578063f851a440146103e7578063f8c8765e1461041157610129565b80638f2839701461029d57806392c2bcb4146102c5578063983b744a146102ed5780639f166cf114610315578063aa7e7eb91461035157610129565b806367e404ce116100e657806367e404ce146101ef57806369328dec14610219578063715018a61461024157806373abf0af146102575780638da5cb5b1461027357610129565b806306394c9b1461012d5780634f1ef2861461015557806352d1902d14610171578063570ca7351461019b57806366d003ac146101c557610129565b3661012957005b5f5ffd5b348015610138575f5ffd5b50610153600480360381019061014e919061254f565b610439565b005b61016f600480360381019061016a91906126b6565b610579565b005b34801561017c575f5ffd5b50610185610598565b6040516101929190612728565b60405180910390f35b3480156101a6575f5ffd5b506101af6105c9565b6040516101bc9190612750565b60405180910390f35b3480156101d0575f5ffd5b506101d96105ee565b6040516101e69190612750565b60405180910390f35b3480156101fa575f5ffd5b50610203610613565b6040516102109190612750565b60405180910390f35b348015610224575f5ffd5b5061023f600480360381019061023a919061279c565b610638565b005b34801561024c575f5ffd5b506102556107b9565b005b610271600480360381019061026c9190612849565b6107cc565b005b34801561027e575f5ffd5b506102876109e7565b6040516102949190612750565b60405180910390f35b3480156102a8575f5ffd5b506102c360048036038101906102be919061254f565b610a1c565b005b3480156102d0575f5ffd5b506102eb60048036038101906102e6919061254f565b610b50565b005b3480156102f8575f5ffd5b50610313600480360381019061030e9190612934565b610c90565b005b348015610320575f5ffd5b5061033b600480360381019061033691906129a5565b610f16565b6040516103489190612af5565b60405180910390f35b61036b60048036038101906103669190612b15565b6111b2565b005b348015610378575f5ffd5b50610381611351565b60405161038e9190612be6565b60405180910390f35b3480156103a2575f5ffd5b506103bd60048036038101906103b8919061254f565b61138a565b005b3480156103ca575f5ffd5b506103e560048036038101906103e0919061254f565b6114ca565b005b3480156103f2575f5ffd5b506103fb61154e565b6040516104089190612750565b60405180910390f35b34801561041c575f5ffd5b5061043760048036038101906104329190612c06565b611573565b005b60015f9054906101000a900473ffffffffffffffffffffffffffffffffffffffff1673ffffffffffffffffffffffffffffffffffffffff163373ffffffffffffffffffffffffffffffffffffffff16146104c8576040517f08c379a00000000000000000000000000000000000000000000000000000000081526004016104bf90612cb4565b60405180910390fd5b5f73ffffffffffffffffffffffffffffffffffffffff168173ffffffffffffffffffffffffffffffffffffffff1603610536576040517f08c379a000000000000000000000000000000000000000000000000000000000815260040161052d90612d1c565b60405180910390fd5b8060025f6101000a81548173ffffffffffffffffffffffffffffffffffffffff021916908373ffffffffffffffffffffffffffffffffffffffff16021790555050565b610581611806565b61058a826118ec565b61059482826118f7565b5050565b5f6105a1611a15565b7f360894a13ba1a3210667c828492db98dca3e2076cc3735a920a3ca505d382bbc5f1b905090565b60025f9054906101000a900473ffffffffffffffffffffffffffffffffffffffff1681565b60035f9054906101000a900473ffffffffffffffffffffffffffffffffffffffff1681565b60045f9054906101000a900473ffffffffffffffffffffffffffffffffffffffff1681565b60015f9054906101000a900473ffffffffffffffffffffffffffffffffffffffff1673ffffffffffffffffffffffffffffffffffffffff163373ffffffffffffffffffffffffffffffffffffffff16146106c7576040517f08c379a00000000000000000000000000000000000000000000000000000000081526004016106be90612cb4565b60405180910390fd5b5f8211610709576040517f08c379a000000000000000000000000000000000000000000000000000000000815260040161070090612d84565b60405180910390fd5b5f73ffffffffffffffffffffffffffffffffffffffff168373ffffffffffffffffffffffffffffffffffffffff161461076e576107698360045f9054906101000a900473ffffffffffffffffffffffffffffffffffffffff168385611a9c565b610779565b6107788183611bcf565b5b7f9b1bfa7fa9ee420a16e124f794c35ac9f90472acc99140eb2f6447c714cad8eb8382846040516107ac93929190612db1565b60405180910390a1505050565b6107c1611cca565b6107ca5f611d51565b565b5f8511806107d957505f83115b610818576040517f08c379a000000000000000000000000000000000000000000000000000000000815260040161080f90612e30565b60405180910390fd5b5f600267ffffffffffffffff81111561083457610833612592565b5b6040519080825280602002602001820160405280156108625781602001602082028036833780820191505090505b5090505f600267ffffffffffffffff81111561088157610880612592565b5b6040519080825280602002602001820160405280156108af5781602001602082028036833780820191505090505b50905087825f815181106108c6576108c5612e4e565b5b602002602001019073ffffffffffffffffffffffffffffffffffffffff16908173ffffffffffffffffffffffffffffffffffffffff168152505086815f8151811061091457610913612e4e565b5b602002602001018181525050858260018151811061093557610934612e4e565b5b602002602001019073ffffffffffffffffffffffffffffffffffffffff16908173ffffffffffffffffffffffffffffffffffffffff1681525050848160018151811061098457610983612e4e565b5b60200260200101818152505061099a8282611e22565b7f92bfe9b63523d7c8baff8387323dd4c1c8ccd48705d9c91e19160ebcabb053b8338989898989896040516109d59796959493929190612ea7565b60405180910390a15050505050505050565b5f5f6109f161203d565b9050805f015f9054906101000a900473ffffffffffffffffffffffffffffffffffffffff1691505090565b610a24611cca565b5f73ffffffffffffffffffffffffffffffffffffffff168173ffffffffffffffffffffffffffffffffffffffff1603610a92576040517f08c379a0000000000000000000000000000000000000000000000000000000008152600401610a8990612d1c565b60405180910390fd5b8073ffffffffffffffffffffffffffffffffffffffff1660015f9054906101000a900473ffffffffffffffffffffffffffffffffffffffff1673ffffffffffffffffffffffffffffffffffffffff167f2931ebb3d190545dcf6801c37aa686b74f2e1000e753d0fac6e471a2aa5a621360405160405180910390a38060015f6101000a81548173ffffffffffffffffffffffffffffffffffffffff021916908373ffffffffffffffffffffffffffffffffffffffff16021790555050565b60015f9054906101000a900473ffffffffffffffffffffffffffffffffffffffff1673ffffffffffffffffffffffffffffffffffffffff163373ffffffffffffffffffffffffffffffffffffffff1614610bdf576040517f08c379a0000000000000000000000000000000000000000000000000000000008152600401610bd690612cb4565b60405180910390fd5b5f73ffffffffffffffffffffffffffffffffffffffff168173ffffffffffffffffffffffffffffffffffffffff1603610c4d576040517f08c379a0000000000000000000000000000000000000000000000000000000008152600401610c4490612d1c565b60405180910390fd5b8060035f6101000a81548173ffffffffffffffffffffffffffffffffffffffff021916908373ffffffffffffffffffffffffffffffffffffffff16021790555050565b60025f9054906101000a900473ffffffffffffffffffffffffffffffffffffffff1673ffffffffffffffffffffffffffffffffffffffff163373ffffffffffffffffffffffffffffffffffffffff1614610d1f576040517f08c379a0000000000000000000000000000000000000000000000000000000008152600401610d1690612cb4565b60405180910390fd5b5f5f90505b83839050811015610f0f575f8573ffffffffffffffffffffffffffffffffffffffff166370a08231868685818110610d5f57610d5e612e4e565b5b9050602002016020810190610d74919061254f565b6040518263ffffffff1660e01b8152600401610d909190612750565b602060405180830381865afa158015610dab573d5f5f3e3d5ffd5b505050506040513d601f19601f82011682018060405250810190610dcf9190612f23565b90505f8673ffffffffffffffffffffffffffffffffffffffff1663dd62ed3e878786818110610e0157610e00612e4e565b5b9050602002016020810190610e16919061254f565b306040518363ffffffff1660e01b8152600401610e34929190612f4e565b602060405180830381865afa158015610e4f573d5f5f3e3d5ffd5b505050506040513d601f19601f82011682018060405250810190610e739190612f23565b90505f821115610f0057818110610eb857610eb787878786818110610e9b57610e9a612e4e565b5b9050602002016020810190610eb0919061254f565b8685611a9c565b5b8181108015610ec657505f81115b15610eff57610efe87878786818110610ee257610ee1612e4e565b5b9050602002016020810190610ef7919061254f565b8684611a9c565b5b5b50508080600101915050610d24565b5050505050565b60605f8383905090505f8167ffffffffffffffff811115610f3a57610f39612592565b5b604051908082528060200260200182016040528015610f7357816020015b610f606124b6565b815260200190600190039081610f585790505b5090505f73ffffffffffffffffffffffffffffffffffffffff168673ffffffffffffffffffffffffffffffffffffffff1603611077575f5f90505b82811015611071576040518060400160405280878784818110610fd457610fd3612e4e565b5b9050602002016020810190610fe9919061254f565b73ffffffffffffffffffffffffffffffffffffffff16815260200187878481811061101757611016612e4e565b5b905060200201602081019061102c919061254f565b73ffffffffffffffffffffffffffffffffffffffff163181525082828151811061105957611058612e4e565b5b60200260200101819052508080600101915050610fae565b506111a6565b5f8690505f5f90505b838110156111a35760405180604001604052808888848181106110a6576110a5612e4e565b5b90506020020160208101906110bb919061254f565b73ffffffffffffffffffffffffffffffffffffffff1681526020018373ffffffffffffffffffffffffffffffffffffffff166370a082318a8a8681811061110557611104612e4e565b5b905060200201602081019061111a919061254f565b6040518263ffffffff1660e01b81526004016111369190612750565b602060405180830381865afa158015611151573d5f5f3e3d5ffd5b505050506040513d601f19601f820116820180604052508101906111759190612f23565b81525083828151811061118b5761118a612e4e565b5b60200260200101819052508080600101915050611080565b50505b80925050509392505050565b5f83116111f4576040517f08c379a00000000000000000000000000000000000000000000000000000000081526004016111eb90612e30565b60405180910390fd5b5f600167ffffffffffffffff8111156112105761120f612592565b5b60405190808252806020026020018201604052801561123e5781602001602082028036833780820191505090505b5090505f600167ffffffffffffffff81111561125d5761125c612592565b5b60405190808252806020026020018201604052801561128b5781602001602082028036833780820191505090505b50905085825f815181106112a2576112a1612e4e565b5b602002602001019073ffffffffffffffffffffffffffffffffffffffff16908173ffffffffffffffffffffffffffffffffffffffff168152505084815f815181106112f0576112ef612e4e565b5b6020026020010181815250506113068282611e22565b7f92bfe9b63523d7c8baff8387323dd4c1c8ccd48705d9c91e19160ebcabb053b83387875f5f89896040516113419796959493929190612fb7565b60405180910390a1505050505050565b6040518060400160405280600581526020017f352e302e3000000000000000000000000000000000000000000000000000000081525081565b60015f9054906101000a900473ffffffffffffffffffffffffffffffffffffffff1673ffffffffffffffffffffffffffffffffffffffff163373ffffffffffffffffffffffffffffffffffffffff1614611419576040517f08c379a000000000000000000000000000000000000000000000000000000000815260040161141090612cb4565b60405180910390fd5b5f73ffffffffffffffffffffffffffffffffffffffff168173ffffffffffffffffffffffffffffffffffffffff1603611487576040517f08c379a000000000000000000000000000000000000000000000000000000000815260040161147e90612d1c565b60405180910390fd5b8060045f6101000a81548173ffffffffffffffffffffffffffffffffffffffff021916908373ffffffffffffffffffffffffffffffffffffffff16021790555050565b6114d2611cca565b5f73ffffffffffffffffffffffffffffffffffffffff168173ffffffffffffffffffffffffffffffffffffffff1603611542575f6040517f1e4fbdf70000000000000000000000000000000000000000000000000000000081526004016115399190612750565b60405180910390fd5b61154b81611d51565b50565b60015f9054906101000a900473ffffffffffffffffffffffffffffffffffffffff1681565b5f61157c612064565b90505f815f0160089054906101000a900460ff161590505f825f015f9054906101000a900467ffffffffffffffff1690505f5f8267ffffffffffffffff161480156115c45750825b90505f60018367ffffffffffffffff161480156115f757505f3073ffffffffffffffffffffffffffffffffffffffff163b145b905081158015611605575080155b1561163c576040517ff92ee8a900000000000000000000000000000000000000000000000000000000815260040160405180910390fd5b6001855f015f6101000a81548167ffffffffffffffff021916908367ffffffffffffffff1602179055508315611689576001855f0160086101000a81548160ff0219169083151502179055505b611699611694612077565b61207e565b6116a1612102565b8860015f6101000a81548173ffffffffffffffffffffffffffffffffffffffff021916908373ffffffffffffffffffffffffffffffffffffffff1602179055508760025f6101000a81548173ffffffffffffffffffffffffffffffffffffffff021916908373ffffffffffffffffffffffffffffffffffffffff1602179055508660035f6101000a81548173ffffffffffffffffffffffffffffffffffffffff021916908373ffffffffffffffffffffffffffffffffffffffff1602179055508560045f6101000a81548173ffffffffffffffffffffffffffffffffffffffff021916908373ffffffffffffffffffffffffffffffffffffffff16021790555083156117fb575f855f0160086101000a81548160ff0219169083151502179055507fc7f505b2f371ae2175ee4913f4499e1f2633a7b5936321eed1cdaeb6115181d260016040516117f2919061306b565b60405180910390a15b505050505050505050565b7f000000000000000000000000000000000000000000000000000000000000000073ffffffffffffffffffffffffffffffffffffffff163073ffffffffffffffffffffffffffffffffffffffff1614806118b357507f000000000000000000000000000000000000000000000000000000000000000073ffffffffffffffffffffffffffffffffffffffff1661189a61210c565b73ffffffffffffffffffffffffffffffffffffffff1614155b156118ea576040517fe07c8dba00000000000000000000000000000000000000000000000000000000815260040160405180910390fd5b565b6118f4611cca565b50565b8173ffffffffffffffffffffffffffffffffffffffff166352d1902d6040518163ffffffff1660e01b8152600401602060405180830381865afa92505050801561195f57506040513d601f19601f8201168201806040525081019061195c91906130ae565b60015b6119a057816040517f4c9c8ce30000000000000000000000000000000000000000000000000000000081526004016119979190612750565b60405180910390fd5b7f360894a13ba1a3210667c828492db98dca3e2076cc3735a920a3ca505d382bbc5f1b8114611a0657806040517faa1d49a40000000000000000000000000000000000000000000000000000000081526004016119fd9190612728565b60405180910390fd5b611a10838361215f565b505050565b7f000000000000000000000000000000000000000000000000000000000000000073ffffffffffffffffffffffffffffffffffffffff163073ffffffffffffffffffffffffffffffffffffffff1614611a9a576040517fe07c8dba00000000000000000000000000000000000000000000000000000000815260040160405180910390fd5b565b5f5f8573ffffffffffffffffffffffffffffffffffffffff166323b872dd868686604051602401611acf93929190612db1565b6040516020818303038152906040529060e01b6020820180517bffffffffffffffffffffffffffffffffffffffffffffffffffffffff8381831617835250505050604051611b1d919061311d565b5f604051808303815f865af19150503d805f8114611b56576040519150601f19603f3d011682016040523d82523d5f602084013e611b5b565b606091505b5091509150818015611b8857505f81511480611b87575080806020019051810190611b869190613168565b5b5b611bc7576040517f08c379a0000000000000000000000000000000000000000000000000000000008152600401611bbe90613203565b60405180910390fd5b505050505050565b5f8273ffffffffffffffffffffffffffffffffffffffff16825f67ffffffffffffffff811115611c0257611c01612592565b5b6040519080825280601f01601f191660200182016040528015611c345781602001600182028036833780820191505090505b50604051611c42919061311d565b5f6040518083038185875af1925050503d805f8114611c7c576040519150601f19603f3d011682016040523d82523d5f602084013e611c81565b606091505b5050905080611cc5576040517f08c379a0000000000000000000000000000000000000000000000000000000008152600401611cbc90613291565b60405180910390fd5b505050565b611cd2612077565b73ffffffffffffffffffffffffffffffffffffffff16611cf06109e7565b73ffffffffffffffffffffffffffffffffffffffff1614611d4f57611d13612077565b6040517f118cdaa7000000000000000000000000000000000000000000000000000000008152600401611d469190612750565b60405180910390fd5b565b5f611d5a61203d565b90505f815f015f9054906101000a900473ffffffffffffffffffffffffffffffffffffffff16905082825f015f6101000a81548173ffffffffffffffffffffffffffffffffffffffff021916908373ffffffffffffffffffffffffffffffffffffffff1602179055508273ffffffffffffffffffffffffffffffffffffffff168173ffffffffffffffffffffffffffffffffffffffff167f8be0079c531659141344cd1fd0a4f28419497f9722a3daafe3b4186f6b6457e060405160405180910390a3505050565b8051825114611e66576040517f08c379a0000000000000000000000000000000000000000000000000000000008152600401611e5d906132f9565b60405180910390fd5b5f5f90505f5f90505f5f90505b8451811015611f4e575f858281518110611e9057611e8f612e4e565b5b602002602001015190505f858381518110611eae57611ead612e4e565b5b602002602001015190505f8103611ec6575050611f41565b5f73ffffffffffffffffffffffffffffffffffffffff168273ffffffffffffffffffffffffffffffffffffffff1603611f10578085611f059190613344565b945060019350611f3e565b611f3d823360035f9054906101000a900473ffffffffffffffffffffffffffffffffffffffff1684611a9c565b5b50505b8080600101915050611e73565b508015611ff45781341015611f98576040517f08c379a0000000000000000000000000000000000000000000000000000000008152600401611f8f906133c1565b60405180910390fd5b5f821115611fcc57611fcb60035f9054906101000a900473ffffffffffffffffffffffffffffffffffffffff1683611bcf565b5b5f8234611fd991906133df565b90505f811115611fee57611fed3382611bcf565b5b50612037565b5f3414612036576040517f08c379a000000000000000000000000000000000000000000000000000000000815260040161202d9061345c565b60405180910390fd5b5b50505050565b5f7f9016d09d72d40fdae2fd8ceac6b6234c7706214fd39c1cd1e609a0528c199300905090565b5f5f61206e6121d1565b90508091505090565b5f33905090565b6120866121fa565b5f73ffffffffffffffffffffffffffffffffffffffff168173ffffffffffffffffffffffffffffffffffffffff16036120f6575f6040517f1e4fbdf70000000000000000000000000000000000000000000000000000000081526004016120ed9190612750565b60405180910390fd5b6120ff81611d51565b50565b61210a6121fa565b565b5f6121387f360894a13ba1a3210667c828492db98dca3e2076cc3735a920a3ca505d382bbc5f1b61223a565b5f015f9054906101000a900473ffffffffffffffffffffffffffffffffffffffff16905090565b61216882612243565b8173ffffffffffffffffffffffffffffffffffffffff167fbc7cd75a20ee27fd9adebab32041f755214dbc6bffa90cc0225b39da2e5c2d3b60405160405180910390a25f815111156121c4576121be828261230c565b506121cd565b6121cc61238c565b5b5050565b5f7ff0c57e16840df040f15088dc2f81fe391c3923bec73e23a9662efc9c229c6a005f1b905090565b6122026123c8565b612238576040517fd7e6bcf800000000000000000000000000000000000000000000000000000000815260040160405180910390fd5b565b5f819050919050565b5f8173ffffffffffffffffffffffffffffffffffffffff163b0361229e57806040517f4c9c8ce30000000000000000000000000000000000000000000000000000000081526004016122959190612750565b60405180910390fd5b806122ca7f360894a13ba1a3210667c828492db98dca3e2076cc3735a920a3ca505d382bbc5f1b61223a565b5f015f6101000a81548173ffffffffffffffffffffffffffffffffffffffff021916908373ffffffffffffffffffffffffffffffffffffffff16021790555050565b60605f5f8473ffffffffffffffffffffffffffffffffffffffff1684604051612335919061311d565b5f60405180830381855af49150503d805f811461236d576040519150601f19603f3d011682016040523d82523d5f602084013e612372565b606091505b50915091506123828583836123e6565b9250505092915050565b5f3411156123c6576040517fb398979f00000000000000000000000000000000000000000000000000000000815260040160405180910390fd5b565b5f6123d1612064565b5f0160089054906101000a900460ff16905090565b6060826123fb576123f682612473565b61246b565b5f825114801561242157505f8473ffffffffffffffffffffffffffffffffffffffff163b145b1561246357836040517f9996b31500000000000000000000000000000000000000000000000000000000815260040161245a9190612750565b60405180910390fd5b81905061246c565b5b9392505050565b5f8151111561248457805160208201fd5b6040517fd6bda27500000000000000000000000000000000000000000000000000000000815260040160405180910390fd5b60405180604001604052805f73ffffffffffffffffffffffffffffffffffffffff1681526020015f81525090565b5f604051905090565b5f5ffd5b5f5ffd5b5f73ffffffffffffffffffffffffffffffffffffffff82169050919050565b5f61251e826124f5565b9050919050565b61252e81612514565b8114612538575f5ffd5b50565b5f8135905061254981612525565b92915050565b5f60208284031215612564576125636124ed565b5b5f6125718482850161253b565b91505092915050565b5f5ffd5b5f5ffd5b5f601f19601f8301169050919050565b7f4e487b71000000000000000000000000000000000000000000000000000000005f52604160045260245ffd5b6125c882612582565b810181811067ffffffffffffffff821117156125e7576125e6612592565b5b80604052505050565b5f6125f96124e4565b905061260582826125bf565b919050565b5f67ffffffffffffffff82111561262457612623612592565b5b61262d82612582565b9050602081019050919050565b828183375f83830152505050565b5f61265a6126558461260a565b6125f0565b9050828152602081018484840111156126765761267561257e565b5b61268184828561263a565b509392505050565b5f82601f83011261269d5761269c61257a565b5b81356126ad848260208601612648565b91505092915050565b5f5f604083850312156126cc576126cb6124ed565b5b5f6126d98582860161253b565b925050602083013567ffffffffffffffff8111156126fa576126f96124f1565b5b61270685828601612689565b9150509250929050565b5f819050919050565b61272281612710565b82525050565b5f60208201905061273b5f830184612719565b92915050565b61274a81612514565b82525050565b5f6020820190506127635f830184612741565b92915050565b5f819050919050565b61277b81612769565b8114612785575f5ffd5b50565b5f8135905061279681612772565b92915050565b5f5f5f606084860312156127b3576127b26124ed565b5b5f6127c08682870161253b565b93505060206127d186828701612788565b92505060406127e28682870161253b565b9150509250925092565b5f5ffd5b5f5ffd5b5f5f83601f8401126128095761280861257a565b5b8235905067ffffffffffffffff811115612826576128256127ec565b5b602083019150836001820283011115612842576128416127f0565b5b9250929050565b5f5f5f5f5f5f60a08789031215612863576128626124ed565b5b5f61287089828a0161253b565b965050602061288189828a01612788565b955050604061289289828a0161253b565b94505060606128a389828a01612788565b935050608087013567ffffffffffffffff8111156128c4576128c36124f1565b5b6128d089828a016127f4565b92509250509295509295509295565b5f5f83601f8401126128f4576128f361257a565b5b8235905067ffffffffffffffff811115612911576129106127ec565b5b60208301915083602082028301111561292d5761292c6127f0565b5b9250929050565b5f5f5f5f6060858703121561294c5761294b6124ed565b5b5f6129598782880161253b565b945050602085013567ffffffffffffffff81111561297a576129796124f1565b5b612986878288016128df565b935093505060406129998782880161253b565b91505092959194509250565b5f5f5f604084860312156129bc576129bb6124ed565b5b5f6129c98682870161253b565b935050602084013567ffffffffffffffff8111156129ea576129e96124f1565b5b6129f6868287016128df565b92509250509250925092565b5f81519050919050565b5f82825260208201905092915050565b5f819050602082019050919050565b612a3481612514565b82525050565b612a4381612769565b82525050565b604082015f820151612a5d5f850182612a2b565b506020820151612a706020850182612a3a565b50505050565b5f612a818383612a49565b60408301905092915050565b5f602082019050919050565b5f612aa382612a02565b612aad8185612a0c565b9350612ab883612a1c565b805f5b83811015612ae8578151612acf8882612a76565b9750612ada83612a8d565b925050600181019050612abb565b5085935050505092915050565b5f6020820190508181035f830152612b0d8184612a99565b905092915050565b5f5f5f5f60608587031215612b2d57612b2c6124ed565b5b5f612b3a8782880161253b565b9450506020612b4b87828801612788565b935050604085013567ffffffffffffffff811115612b6c57612b6b6124f1565b5b612b78878288016127f4565b925092505092959194509250565b5f81519050919050565b5f82825260208201905092915050565b8281835e5f83830152505050565b5f612bb882612b86565b612bc28185612b90565b9350612bd2818560208601612ba0565b612bdb81612582565b840191505092915050565b5f6020820190508181035f830152612bfe8184612bae565b905092915050565b5f5f5f5f60808587031215612c1e57612c1d6124ed565b5b5f612c2b8782880161253b565b9450506020612c3c8782880161253b565b9350506040612c4d8782880161253b565b9250506060612c5e8782880161253b565b91505092959194509250565b7f4552524f525f41444d494e2e00000000000000000000000000000000000000005f82015250565b5f612c9e600c83612b90565b9150612ca982612c6a565b602082019050919050565b5f6020820190508181035f830152612ccb81612c92565b9050919050565b7f5a45524f5f414444524553532e000000000000000000000000000000000000005f82015250565b5f612d06600d83612b90565b9150612d1182612cd2565b602082019050919050565b5f6020820190508181035f830152612d3381612cfa565b9050919050565b7f4552524f525f414d4f554e542e000000000000000000000000000000000000005f82015250565b5f612d6e600d83612b90565b9150612d7982612d3a565b602082019050919050565b5f6020820190508181035f830152612d9b81612d62565b9050919050565b612dab81612769565b82525050565b5f606082019050612dc45f830186612741565b612dd16020830185612741565b612dde6040830184612da2565b949350505050565b7f4552524f525f414d4f554e5400000000000000000000000000000000000000005f82015250565b5f612e1a600c83612b90565b9150612e2582612de6565b602082019050919050565b5f6020820190508181035f830152612e4781612e0e565b9050919050565b7f4e487b71000000000000000000000000000000000000000000000000000000005f52603260045260245ffd5b5f612e868385612b90565b9350612e9383858461263a565b612e9c83612582565b840190509392505050565b5f60c082019050612eba5f83018a612741565b612ec76020830189612741565b612ed46040830188612da2565b612ee16060830187612741565b612eee6080830186612da2565b81810360a0830152612f01818486612e7b565b905098975050505050505050565b5f81519050612f1d81612772565b92915050565b5f60208284031215612f3857612f376124ed565b5b5f612f4584828501612f0f565b91505092915050565b5f604082019050612f615f830185612741565b612f6e6020830184612741565b9392505050565b5f819050919050565b5f819050919050565b5f612fa1612f9c612f9784612f75565b612f7e565b612769565b9050919050565b612fb181612f87565b82525050565b5f60c082019050612fca5f83018a612741565b612fd76020830189612741565b612fe46040830188612da2565b612ff16060830187612741565b612ffe6080830186612fa8565b81810360a0830152613011818486612e7b565b905098975050505050505050565b5f819050919050565b5f67ffffffffffffffff82169050919050565b5f61305561305061304b8461301f565b612f7e565b613028565b9050919050565b6130658161303b565b82525050565b5f60208201905061307e5f83018461305c565b92915050565b61308d81612710565b8114613097575f5ffd5b50565b5f815190506130a881613084565b92915050565b5f602082840312156130c3576130c26124ed565b5b5f6130d08482850161309a565b91505092915050565b5f81519050919050565b5f81905092915050565b5f6130f7826130d9565b61310181856130e3565b9350613111818560208601612ba0565b80840191505092915050565b5f61312882846130ed565b915081905092915050565b5f8115159050919050565b61314781613133565b8114613151575f5ffd5b50565b5f815190506131628161313e565b92915050565b5f6020828403121561317d5761317c6124ed565b5b5f61318a84828501613154565b91505092915050565b7f5472616e7366657248656c7065723a205452414e534645525f46524f4d5f46415f8201527f494c454400000000000000000000000000000000000000000000000000000000602082015250565b5f6131ed602483612b90565b91506131f882613193565b604082019050919050565b5f6020820190508181035f83015261321a816131e1565b9050919050565b7f5472616e7366657248656c7065723a204554485f5452414e534645525f4641495f8201527f4c45440000000000000000000000000000000000000000000000000000000000602082015250565b5f61327b602383612b90565b915061328682613221565b604082019050919050565b5f6020820190508181035f8301526132a88161326f565b9050919050565b7f4d49534d415443485f4c454e47544800000000000000000000000000000000005f82015250565b5f6132e3600f83612b90565b91506132ee826132af565b602082019050919050565b5f6020820190508181035f830152613310816132d7565b9050919050565b7f4e487b71000000000000000000000000000000000000000000000000000000005f52601160045260245ffd5b5f61334e82612769565b915061335983612769565b925082820190508082111561337157613370613317565b5b92915050565b7f4552524f525f50415941424c455f414d4f554e540000000000000000000000005f82015250565b5f6133ab601483612b90565b91506133b682613377565b602082019050919050565b5f6020820190508181035f8301526133d88161339f565b9050919050565b5f6133e982612769565b91506133f483612769565b925082820390508181111561340c5761340b613317565b5b92915050565b7f4e4f5f4554485f524551554952454400000000000000000000000000000000005f82015250565b5f613446600f83612b90565b915061345182613412565b602082019050919050565b5f6020820190508181035f8301526134738161343a565b905091905056fea2646970667358221220447bdbd96cd6bb4b39a47f75fa14aed29e3b1f91842fb58eae523eed8699ef6a64736f6c634300081e0033","linkReferences":{}},"methodIdentifiers":{"UPGRADE_INTERFACE_VERSION()":"ad3cb1cc","admin()":"f851a440","changeAdmin(address)":"8f283970","changeOperator(address)":"06394c9b","changeRecipient(address)":"92c2bcb4","changeSender(address)":"b280a7e7","initialize(address,address,address,address)":"f8c8765e","multiBalanceOf(address,address[])":"9f166cf1","multiRecharge(address,uint256,address,uint256,string)":"73abf0af","operator()":"570ca735","owner()":"8da5cb5b","proxiableUUID()":"52d1902d","recipient()":"66d003ac","renounceOwnership()":"715018a6","sender()":"67e404ce","singleRecharge(address,uint256,string)":"aa7e7eb9","transferOwnership(address)":"f2fde38b","upgradeToAndCall(address,bytes)":"4f1ef286","withdraw(address,uint256,address)":"69328dec","withdraw_(address,address[],address)":"983b744a"},"id":36}