{"abi":[{"type":"receive","stateMutability":"payable"},{"type":"function","name":"UPGRADE_INTERFACE_VERSION","inputs":[],"outputs":[{"name":"","type":"string","internalType":"string"}],"stateMutability":"view"},{"type":"function","name":"admin","inputs":[],"outputs":[{"name":"","type":"address","internalType":"address"}],"stateMutability":"view"},{"type":"function","name":"changeAdmin","inputs":[{"name":"_newAdmin","type":"address","internalType":"address"}],"outputs":[],"stateMutability":"nonpayable"},{"type":"function","name":"initialize","inputs":[{"name":"_admin","type":"address","internalType":"address"},{"name":"_recipient","type":"address","internalType":"address"}],"outputs":[],"stateMutability":"nonpayable"},{"type":"function","name":"owner","inputs":[],"outputs":[{"name":"","type":"address","internalType":"address"}],"stateMutability":"view"},{"type":"function","name":"proxiableUUID","inputs":[],"outputs":[{"name":"","type":"bytes32","internalType":"bytes32"}],"stateMutability":"view"},{"type":"function","name":"recharge","inputs":[{"name":"token","type":"address","internalType":"address"},{"name":"amount","type":"uint256","internalType":"uint256"},{"name":"remarks","type":"string","internalType":"string"}],"outputs":[],"stateMutability":"payable"},{"type":"function","name":"recipient","inputs":[],"outputs":[{"name":"","type":"address","internalType":"address"}],"stateMutability":"view"},{"type":"function","name":"renounceOwnership","inputs":[],"outputs":[],"stateMutability":"nonpayable"},{"type":"function","name":"transferOwnership","inputs":[{"name":"newOwner","type":"address","internalType":"address"}],"outputs":[],"stateMutability":"nonpayable"},{"type":"function","name":"upgradeToAndCall","inputs":[{"name":"newImplementation","type":"address","internalType":"address"},{"name":"data","type":"bytes","internalType":"bytes"}],"outputs":[],"stateMutability":"payable"},{"type":"function","name":"withdraw_","inputs":[{"name":"token","type":"address","internalType":"address"},{"name":"users","type":"address[]","internalType":"address[]"},{"name":"to","type":"address","internalType":"address"}],"outputs":[],"stateMutability":"nonpayable"},{"type":"event","name":"AdminshipTransferred","inputs":[{"name":"previousAdmin","type":"address","indexed":true,"internalType":"address"},{"name":"newAdmin","type":"address","indexed":true,"internalType":"address"}],"anonymous":false},{"type":"event","name":"Initialized","inputs":[{"name":"version","type":"uint64","indexed":false,"internalType":"uint64"}],"anonymous":false},{"type":"event","name":"OwnershipTransferred","inputs":[{"name":"previousOwner","type":"address","indexed":true,"internalType":"address"},{"name":"newOwner","type":"address","indexed":true,"internalType":"address"}],"anonymous":false},{"type":"event","name":"TransactionDetails","inputs":[{"name":"tokenAddress","type":"address[]","indexed":false,"internalType":"address[]"},{"name":"amount","type":"uint256[]","indexed":false,"internalType":"uint256[]"},{"name":"remark","type":"string","indexed":false,"internalType":"string"},{"name":"customerAddress","type":"address[]","indexed":false,"internalType":"address[]"}],"anonymous":false},{"type":"event","name":"Upgraded","inputs":[{"name":"implementation","type":"address","indexed":true,"internalType":"address"}],"anonymous":false},{"type":"error","name":"AddressEmptyCode","inputs":[{"name":"target","type":"address","internalType":"address"}]},{"type":"error","name":"ERC1967InvalidImplementation","inputs":[{"name":"implementation","type":"address","internalType":"address"}]},{"type":"error","name":"ERC1967NonPayable","inputs":[]},{"type":"error","name":"FailedCall","inputs":[]},{"type":"error","name":"InvalidInitialization","inputs":[]},{"type":"error","name":"NotInitializing","inputs":[]},{"type":"error","name":"OwnableInvalidOwner","inputs":[{"name":"owner","type":"address","internalType":"address"}]},{"type":"error","name":"OwnableUnauthorizedAccount","inputs":[{"name":"account","type":"address","internalType":"address"}]},{"type":"error","name":"ReentrancyGuardReentrantCall","inputs":[]},{"type":"error","name":"UUPSUnauthorizedCallContext","inputs":[]},{"type":"error","name":"UUPSUnsupportedProxiableUUID","inputs":[{"name":"slot","type":"bytes32","internalType":"bytes32"}]}],"bytecode":{"object":"0x60a06040523073ffffffffffffffffffffffffffffffffffffffff1660809073ffffffffffffffffffffffffffffffffffffffff168152503480156041575f5ffd5b5060015f8190555060805161241861006f5f395f8181610d8201528181610dd70152610f9101526124185ff3fe6080604052600436106100aa575f3560e01c80638f283970116100635780638f2839701461018d578063983b744a146101b5578063ad3cb1cc146101dd578063d863b62314610207578063f2fde38b14610223578063f851a4401461024b576100b1565b8063485cc955146100b55780634f1ef286146100dd57806352d1902d146100f957806366d003ac14610123578063715018a61461014d5780638da5cb5b14610163576100b1565b366100b157005b5f5ffd5b3480156100c0575f5ffd5b506100db60048036038101906100d691906117d8565b610275565b005b6100f760048036038101906100f29190611952565b610486565b005b348015610104575f5ffd5b5061010d6104a5565b60405161011a91906119c4565b60405180910390f35b34801561012e575f5ffd5b506101376104d6565b60405161014491906119ec565b60405180910390f35b348015610158575f5ffd5b506101616104fb565b005b34801561016e575f5ffd5b5061017761050e565b60405161018491906119ec565b60405180910390f35b348015610198575f5ffd5b506101b360048036038101906101ae9190611a05565b610543565b005b3480156101c0575f5ffd5b506101db60048036038101906101d69190611a8d565b610677565b005b3480156101e8575f5ffd5b506101f16108fd565b6040516101fe9190611b5e565b60405180910390f35b610221600480360381019061021c9190611c06565b610936565b005b34801561022e575f5ffd5b5061024960048036038101906102449190611a05565b610c2f565b005b348015610256575f5ffd5b5061025f610cb3565b60405161026c91906119ec565b60405180910390f35b5f61027e610cd8565b90505f815f0160089054906101000a900460ff161590505f825f015f9054906101000a900467ffffffffffffffff1690505f5f8267ffffffffffffffff161480156102c65750825b90505f60018367ffffffffffffffff161480156102f957505f3073ffffffffffffffffffffffffffffffffffffffff163b145b905081158015610307575080155b1561033e576040517ff92ee8a900000000000000000000000000000000000000000000000000000000815260040160405180910390fd5b6001855f015f6101000a81548167ffffffffffffffff021916908367ffffffffffffffff160217905550831561038b576001855f0160086101000a81548160ff0219169083151502179055505b61039b610396610ceb565b610cf2565b6103a3610d76565b8660015f6101000a81548173ffffffffffffffffffffffffffffffffffffffff021916908373ffffffffffffffffffffffffffffffffffffffff1602179055508560025f6101000a81548173ffffffffffffffffffffffffffffffffffffffff021916908373ffffffffffffffffffffffffffffffffffffffff160217905550831561047d575f855f0160086101000a81548160ff0219169083151502179055507fc7f505b2f371ae2175ee4913f4499e1f2633a7b5936321eed1cdaeb6115181d260016040516104749190611ccc565b60405180910390a15b50505050505050565b61048e610d80565b61049782610e66565b6104a18282610e71565b5050565b5f6104ae610f8f565b7f360894a13ba1a3210667c828492db98dca3e2076cc3735a920a3ca505d382bbc5f1b905090565b60025f9054906101000a900473ffffffffffffffffffffffffffffffffffffffff1681565b610503611016565b61050c5f61109d565b565b5f5f61051861116e565b9050805f015f9054906101000a900473ffffffffffffffffffffffffffffffffffffffff1691505090565b61054b611016565b5f73ffffffffffffffffffffffffffffffffffffffff168173ffffffffffffffffffffffffffffffffffffffff16036105b9576040517f08c379a00000000000000000000000000000000000000000000000000000000081526004016105b090611d2f565b60405180910390fd5b8073ffffffffffffffffffffffffffffffffffffffff1660015f9054906101000a900473ffffffffffffffffffffffffffffffffffffffff1673ffffffffffffffffffffffffffffffffffffffff167f2931ebb3d190545dcf6801c37aa686b74f2e1000e753d0fac6e471a2aa5a621360405160405180910390a38060015f6101000a81548173ffffffffffffffffffffffffffffffffffffffff021916908373ffffffffffffffffffffffffffffffffffffffff16021790555050565b60015f9054906101000a900473ffffffffffffffffffffffffffffffffffffffff1673ffffffffffffffffffffffffffffffffffffffff163373ffffffffffffffffffffffffffffffffffffffff1614610706576040517f08c379a00000000000000000000000000000000000000000000000000000000081526004016106fd90611d97565b60405180910390fd5b5f5f90505b838390508110156108f6575f8573ffffffffffffffffffffffffffffffffffffffff166370a0823186868581811061074657610745611db5565b5b905060200201602081019061075b9190611a05565b6040518263ffffffff1660e01b815260040161077791906119ec565b602060405180830381865afa158015610792573d5f5f3e3d5ffd5b505050506040513d601f19601f820116820180604052508101906107b69190611df6565b90505f8673ffffffffffffffffffffffffffffffffffffffff1663dd62ed3e8787868181106107e8576107e7611db5565b5b90506020020160208101906107fd9190611a05565b306040518363ffffffff1660e01b815260040161081b929190611e21565b602060405180830381865afa158015610836573d5f5f3e3d5ffd5b505050506040513d601f19601f8201168201806040525081019061085a9190611df6565b90505f8211156108e75781811061089f5761089e8787878681811061088257610881611db5565b5b90506020020160208101906108979190611a05565b8685611195565b5b81811080156108ad57505f81115b156108e6576108e5878787868181106108c9576108c8611db5565b5b90506020020160208101906108de9190611a05565b8684611195565b5b5b5050808060010191505061070b565b5050505050565b6040518060400160405280600581526020017f352e302e3000000000000000000000000000000000000000000000000000000081525081565b5f8311610978576040517f08c379a000000000000000000000000000000000000000000000000000000000815260040161096f90611e92565b60405180910390fd5b5f73ffffffffffffffffffffffffffffffffffffffff168473ffffffffffffffffffffffffffffffffffffffff16146109dd576109d8843360025f9054906101000a900473ffffffffffffffffffffffffffffffffffffffff1686611195565b610a44565b82341015610a20576040517f08c379a0000000000000000000000000000000000000000000000000000000008152600401610a1790611efa565b60405180910390fd5b5f8334610a2d9190611f45565b90505f811115610a4257610a4133826112c8565b5b505b5f600167ffffffffffffffff811115610a6057610a5f61182e565b5b604051908082528060200260200182016040528015610a8e5781602001602082028036833780820191505090505b50905084815f81518110610aa557610aa4611db5565b5b602002602001019073ffffffffffffffffffffffffffffffffffffffff16908173ffffffffffffffffffffffffffffffffffffffff16815250505f600167ffffffffffffffff811115610afb57610afa61182e565b5b604051908082528060200260200182016040528015610b295781602001602082028036833780820191505090505b50905084815f81518110610b4057610b3f611db5565b5b6020026020010181815250505f600167ffffffffffffffff811115610b6857610b6761182e565b5b604051908082528060200260200182016040528015610b965781602001602082028036833780820191505090505b50905033815f81518110610bad57610bac611db5565b5b602002602001019073ffffffffffffffffffffffffffffffffffffffff16908173ffffffffffffffffffffffffffffffffffffffff16815250507ffc4c208f51393b2c24442cb842a6f76959891b87140e32aa34cf5256617ef24c8383878785604051610c1e959493929190612112565b60405180910390a150505050505050565b610c37611016565b5f73ffffffffffffffffffffffffffffffffffffffff168173ffffffffffffffffffffffffffffffffffffffff1603610ca7575f6040517f1e4fbdf7000000000000000000000000000000000000000000000000000000008152600401610c9e91906119ec565b60405180910390fd5b610cb08161109d565b50565b60015f9054906101000a900473ffffffffffffffffffffffffffffffffffffffff1681565b5f5f610ce26113c3565b90508091505090565b5f33905090565b610cfa6113ec565b5f73ffffffffffffffffffffffffffffffffffffffff168173ffffffffffffffffffffffffffffffffffffffff1603610d6a575f6040517f1e4fbdf7000000000000000000000000000000000000000000000000000000008152600401610d6191906119ec565b60405180910390fd5b610d738161109d565b50565b610d7e6113ec565b565b7f000000000000000000000000000000000000000000000000000000000000000073ffffffffffffffffffffffffffffffffffffffff163073ffffffffffffffffffffffffffffffffffffffff161480610e2d57507f000000000000000000000000000000000000000000000000000000000000000073ffffffffffffffffffffffffffffffffffffffff16610e1461142c565b73ffffffffffffffffffffffffffffffffffffffff1614155b15610e64576040517fe07c8dba00000000000000000000000000000000000000000000000000000000815260040160405180910390fd5b565b610e6e611016565b50565b8173ffffffffffffffffffffffffffffffffffffffff166352d1902d6040518163ffffffff1660e01b8152600401602060405180830381865afa925050508015610ed957506040513d601f19601f82011682018060405250810190610ed6919061219d565b60015b610f1a57816040517f4c9c8ce3000000000000000000000000000000000000000000000000000000008152600401610f1191906119ec565b60405180910390fd5b7f360894a13ba1a3210667c828492db98dca3e2076cc3735a920a3ca505d382bbc5f1b8114610f8057806040517faa1d49a4000000000000000000000000000000000000000000000000000000008152600401610f7791906119c4565b60405180910390fd5b610f8a838361147f565b505050565b7f000000000000000000000000000000000000000000000000000000000000000073ffffffffffffffffffffffffffffffffffffffff163073ffffffffffffffffffffffffffffffffffffffff1614611014576040517fe07c8dba00000000000000000000000000000000000000000000000000000000815260040160405180910390fd5b565b61101e610ceb565b73ffffffffffffffffffffffffffffffffffffffff1661103c61050e565b73ffffffffffffffffffffffffffffffffffffffff161461109b5761105f610ceb565b6040517f118cdaa700000000000000000000000000000000000000000000000000000000815260040161109291906119ec565b60405180910390fd5b565b5f6110a661116e565b90505f815f015f9054906101000a900473ffffffffffffffffffffffffffffffffffffffff16905082825f015f6101000a81548173ffffffffffffffffffffffffffffffffffffffff021916908373ffffffffffffffffffffffffffffffffffffffff1602179055508273ffffffffffffffffffffffffffffffffffffffff168173ffffffffffffffffffffffffffffffffffffffff167f8be0079c531659141344cd1fd0a4f28419497f9722a3daafe3b4186f6b6457e060405160405180910390a3505050565b5f7f9016d09d72d40fdae2fd8ceac6b6234c7706214fd39c1cd1e609a0528c199300905090565b5f5f8573ffffffffffffffffffffffffffffffffffffffff166323b872dd8686866040516024016111c8939291906121d7565b6040516020818303038152906040529060e01b6020820180517bffffffffffffffffffffffffffffffffffffffffffffffffffffffff83818316178352505050506040516112169190612250565b5f604051808303815f865af19150503d805f811461124f576040519150601f19603f3d011682016040523d82523d5f602084013e611254565b606091505b509150915081801561128157505f8151148061128057508080602001905181019061127f919061229b565b5b5b6112c0576040517f08c379a00000000000000000000000000000000000000000000000000000000081526004016112b790612336565b60405180910390fd5b505050505050565b5f8273ffffffffffffffffffffffffffffffffffffffff16825f67ffffffffffffffff8111156112fb576112fa61182e565b5b6040519080825280601f01601f19166020018201604052801561132d5781602001600182028036833780820191505090505b5060405161133b9190612250565b5f6040518083038185875af1925050503d805f8114611375576040519150601f19603f3d011682016040523d82523d5f602084013e61137a565b606091505b50509050806113be576040517f08c379a00000000000000000000000000000000000000000000000000000000081526004016113b5906123c4565b60405180910390fd5b505050565b5f7ff0c57e16840df040f15088dc2f81fe391c3923bec73e23a9662efc9c229c6a005f1b905090565b6113f46114f1565b61142a576040517fd7e6bcf800000000000000000000000000000000000000000000000000000000815260040160405180910390fd5b565b5f6114587f360894a13ba1a3210667c828492db98dca3e2076cc3735a920a3ca505d382bbc5f1b61150f565b5f015f9054906101000a900473ffffffffffffffffffffffffffffffffffffffff16905090565b61148882611518565b8173ffffffffffffffffffffffffffffffffffffffff167fbc7cd75a20ee27fd9adebab32041f755214dbc6bffa90cc0225b39da2e5c2d3b60405160405180910390a25f815111156114e4576114de82826115e1565b506114ed565b6114ec611661565b5b5050565b5f6114fa610cd8565b5f0160089054906101000a900460ff16905090565b5f819050919050565b5f8173ffffffffffffffffffffffffffffffffffffffff163b0361157357806040517f4c9c8ce300000000000000000000000000000000000000000000000000000000815260040161156a91906119ec565b60405180910390fd5b8061159f7f360894a13ba1a3210667c828492db98dca3e2076cc3735a920a3ca505d382bbc5f1b61150f565b5f015f6101000a81548173ffffffffffffffffffffffffffffffffffffffff021916908373ffffffffffffffffffffffffffffffffffffffff16021790555050565b60605f5f8473ffffffffffffffffffffffffffffffffffffffff168460405161160a9190612250565b5f60405180830381855af49150503d805f8114611642576040519150601f19603f3d011682016040523d82523d5f602084013e611647565b606091505b509150915061165785838361169d565b9250505092915050565b5f34111561169b576040517fb398979f00000000000000000000000000000000000000000000000000000000815260040160405180910390fd5b565b6060826116b2576116ad8261172a565b611722565b5f82511480156116d857505f8473ffffffffffffffffffffffffffffffffffffffff163b145b1561171a57836040517f9996b31500000000000000000000000000000000000000000000000000000000815260040161171191906119ec565b60405180910390fd5b819050611723565b5b9392505050565b5f8151111561173b57805160208201fd5b6040517fd6bda27500000000000000000000000000000000000000000000000000000000815260040160405180910390fd5b5f604051905090565b5f5ffd5b5f5ffd5b5f73ffffffffffffffffffffffffffffffffffffffff82169050919050565b5f6117a78261177e565b9050919050565b6117b78161179d565b81146117c1575f5ffd5b50565b5f813590506117d2816117ae565b92915050565b5f5f604083850312156117ee576117ed611776565b5b5f6117fb858286016117c4565b925050602061180c858286016117c4565b9150509250929050565b5f5ffd5b5f5ffd5b5f601f19601f8301169050919050565b7f4e487b71000000000000000000000000000000000000000000000000000000005f52604160045260245ffd5b6118648261181e565b810181811067ffffffffffffffff821117156118835761188261182e565b5b80604052505050565b5f61189561176d565b90506118a1828261185b565b919050565b5f67ffffffffffffffff8211156118c0576118bf61182e565b5b6118c98261181e565b9050602081019050919050565b828183375f83830152505050565b5f6118f66118f1846118a6565b61188c565b9050828152602081018484840111156119125761191161181a565b5b61191d8482856118d6565b509392505050565b5f82601f83011261193957611938611816565b5b81356119498482602086016118e4565b91505092915050565b5f5f6040838503121561196857611967611776565b5b5f611975858286016117c4565b925050602083013567ffffffffffffffff8111156119965761199561177a565b5b6119a285828601611925565b9150509250929050565b5f819050919050565b6119be816119ac565b82525050565b5f6020820190506119d75f8301846119b5565b92915050565b6119e68161179d565b82525050565b5f6020820190506119ff5f8301846119dd565b92915050565b5f60208284031215611a1a57611a19611776565b5b5f611a27848285016117c4565b91505092915050565b5f5ffd5b5f5ffd5b5f5f83601f840112611a4d57611a4c611816565b5b8235905067ffffffffffffffff811115611a6a57611a69611a30565b5b602083019150836020820283011115611a8657611a85611a34565b5b9250929050565b5f5f5f5f60608587031215611aa557611aa4611776565b5b5f611ab2878288016117c4565b945050602085013567ffffffffffffffff811115611ad357611ad261177a565b5b611adf87828801611a38565b93509350506040611af2878288016117c4565b91505092959194509250565b5f81519050919050565b5f82825260208201905092915050565b8281835e5f83830152505050565b5f611b3082611afe565b611b3a8185611b08565b9350611b4a818560208601611b18565b611b538161181e565b840191505092915050565b5f6020820190508181035f830152611b768184611b26565b905092915050565b5f819050919050565b611b9081611b7e565b8114611b9a575f5ffd5b50565b5f81359050611bab81611b87565b92915050565b5f5f83601f840112611bc657611bc5611816565b5b8235905067ffffffffffffffff811115611be357611be2611a30565b5b602083019150836001820283011115611bff57611bfe611a34565b5b9250929050565b5f5f5f5f60608587031215611c1e57611c1d611776565b5b5f611c2b878288016117c4565b9450506020611c3c87828801611b9d565b935050604085013567ffffffffffffffff811115611c5d57611c5c61177a565b5b611c6987828801611bb1565b925092505092959194509250565b5f819050919050565b5f67ffffffffffffffff82169050919050565b5f819050919050565b5f611cb6611cb1611cac84611c77565b611c93565b611c80565b9050919050565b611cc681611c9c565b82525050565b5f602082019050611cdf5f830184611cbd565b92915050565b7f5a65726f206164647265737300000000000000000000000000000000000000005f82015250565b5f611d19600c83611b08565b9150611d2482611ce5565b602082019050919050565b5f6020820190508181035f830152611d4681611d0d565b9050919050565b7f4552524f525f41444d494e2e00000000000000000000000000000000000000005f82015250565b5f611d81600c83611b08565b9150611d8c82611d4d565b602082019050919050565b5f6020820190508181035f830152611dae81611d75565b9050919050565b7f4e487b71000000000000000000000000000000000000000000000000000000005f52603260045260245ffd5b5f81519050611df081611b87565b92915050565b5f60208284031215611e0b57611e0a611776565b5b5f611e1884828501611de2565b91505092915050565b5f604082019050611e345f8301856119dd565b611e4160208301846119dd565b9392505050565b7f4552524f525f414d4f554e542e000000000000000000000000000000000000005f82015250565b5f611e7c600d83611b08565b9150611e8782611e48565b602082019050919050565b5f6020820190508181035f830152611ea981611e70565b9050919050565b7f4552524f525f50415941424c455f414d4f554e542e00000000000000000000005f82015250565b5f611ee4601583611b08565b9150611eef82611eb0565b602082019050919050565b5f6020820190508181035f830152611f1181611ed8565b9050919050565b7f4e487b71000000000000000000000000000000000000000000000000000000005f52601160045260245ffd5b5f611f4f82611b7e565b9150611f5a83611b7e565b9250828203905081811115611f7257611f71611f18565b5b92915050565b5f81519050919050565b5f82825260208201905092915050565b5f819050602082019050919050565b611faa8161179d565b82525050565b5f611fbb8383611fa1565b60208301905092915050565b5f602082019050919050565b5f611fdd82611f78565b611fe78185611f82565b9350611ff283611f92565b805f5b838110156120225781516120098882611fb0565b975061201483611fc7565b925050600181019050611ff5565b5085935050505092915050565b5f81519050919050565b5f82825260208201905092915050565b5f819050602082019050919050565b61206181611b7e565b82525050565b5f6120728383612058565b60208301905092915050565b5f602082019050919050565b5f6120948261202f565b61209e8185612039565b93506120a983612049565b805f5b838110156120d95781516120c08882612067565b97506120cb8361207e565b9250506001810190506120ac565b5085935050505092915050565b5f6120f18385611b08565b93506120fe8385846118d6565b6121078361181e565b840190509392505050565b5f6080820190508181035f83015261212a8188611fd3565b9050818103602083015261213e818761208a565b905081810360408301526121538185876120e6565b905081810360608301526121678184611fd3565b90509695505050505050565b61217c816119ac565b8114612186575f5ffd5b50565b5f8151905061219781612173565b92915050565b5f602082840312156121b2576121b1611776565b5b5f6121bf84828501612189565b91505092915050565b6121d181611b7e565b82525050565b5f6060820190506121ea5f8301866119dd565b6121f760208301856119dd565b61220460408301846121c8565b949350505050565b5f81519050919050565b5f81905092915050565b5f61222a8261220c565b6122348185612216565b9350612244818560208601611b18565b80840191505092915050565b5f61225b8284612220565b915081905092915050565b5f8115159050919050565b61227a81612266565b8114612284575f5ffd5b50565b5f8151905061229581612271565b92915050565b5f602082840312156122b0576122af611776565b5b5f6122bd84828501612287565b91505092915050565b7f5472616e7366657248656c7065723a205452414e534645525f46524f4d5f46415f8201527f494c454400000000000000000000000000000000000000000000000000000000602082015250565b5f612320602483611b08565b915061232b826122c6565b604082019050919050565b5f6020820190508181035f83015261234d81612314565b9050919050565b7f5472616e7366657248656c7065723a204554485f5452414e534645525f4641495f8201527f4c45440000000000000000000000000000000000000000000000000000000000602082015250565b5f6123ae602383611b08565b91506123b982612354565b604082019050919050565b5f6020820190508181035f8301526123db816123a2565b905091905056fea2646970667358221220ecf44e4e34e7ac2f3792e41406096b5d5309e92f9b6d44e7484d0eb1f8764ae064736f6c634300081e0033","linkReferences":{}},"methodIdentifiers":{"UPGRADE_INTERFACE_VERSION()":"ad3cb1cc","admin()":"f851a440","changeAdmin(address)":"8f283970","initialize(address,address)":"485cc955","owner()":"8da5cb5b","proxiableUUID()":"52d1902d","recharge(address,uint256,string)":"d863b623","recipient()":"66d003ac","renounceOwnership()":"715018a6","transferOwnership(address)":"f2fde38b","upgradeToAndCall(address,bytes)":"4f1ef286","withdraw_(address,address[],address)":"983b744a"},"id":37}