{"abi":[{"type":"receive","stateMutability":"payable"},{"type":"function","name":"UPGRADE_INTERFACE_VERSION","inputs":[],"outputs":[{"name":"","type":"string","internalType":"string"}],"stateMutability":"view"},{"type":"function","name":"admin","inputs":[],"outputs":[{"name":"","type":"address","internalType":"address"}],"stateMutability":"view"},{"type":"function","name":"changeAdmin","inputs":[{"name":"_newAdmin","type":"address","internalType":"address"}],"outputs":[],"stateMutability":"nonpayable"},{"type":"function","name":"changeOperator","inputs":[{"name":"_newOperator","type":"address","internalType":"address"}],"outputs":[],"stateMutability":"nonpayable"},{"type":"function","name":"changeRecipient","inputs":[{"name":"_newRecipient","type":"address","internalType":"address"}],"outputs":[],"stateMutability":"nonpayable"},{"type":"function","name":"changeSender","inputs":[{"name":"_newSender","type":"address","internalType":"address"}],"outputs":[],"stateMutability":"nonpayable"},{"type":"function","name":"initialize","inputs":[{"name":"_admin","type":"address","internalType":"address"},{"name":"_operator","type":"address","internalType":"address"},{"name":"_recipient","type":"address","internalType":"address"},{"name":"_sender","type":"address","internalType":"address"}],"outputs":[],"stateMutability":"nonpayable"},{"type":"function","name":"multiRecharge","inputs":[{"name":"token0","type":"address","internalType":"address"},{"name":"amount0","type":"uint256","internalType":"uint256"},{"name":"token1","type":"address","internalType":"address"},{"name":"amount1","type":"uint256","internalType":"uint256"},{"name":"remark","type":"string","internalType":"string"}],"outputs":[],"stateMutability":"payable"},{"type":"function","name":"operator","inputs":[],"outputs":[{"name":"","type":"address","internalType":"address"}],"stateMutability":"view"},{"type":"function","name":"owner","inputs":[],"outputs":[{"name":"","type":"address","internalType":"address"}],"stateMutability":"view"},{"type":"function","name":"proxiableUUID","inputs":[],"outputs":[{"name":"","type":"bytes32","internalType":"bytes32"}],"stateMutability":"view"},{"type":"function","name":"recipient","inputs":[],"outputs":[{"name":"","type":"address","internalType":"address"}],"stateMutability":"view"},{"type":"function","name":"renounceOwnership","inputs":[],"outputs":[],"stateMutability":"nonpayable"},{"type":"function","name":"sender","inputs":[],"outputs":[{"name":"","type":"address","internalType":"address"}],"stateMutability":"view"},{"type":"function","name":"singleRecharge","inputs":[{"name":"token","type":"address","internalType":"address"},{"name":"amount","type":"uint256","internalType":"uint256"},{"name":"remark","type":"string","internalType":"string"}],"outputs":[],"stateMutability":"payable"},{"type":"function","name":"transferOwnership","inputs":[{"name":"newOwner","type":"address","internalType":"address"}],"outputs":[],"stateMutability":"nonpayable"},{"type":"function","name":"upgradeToAndCall","inputs":[{"name":"newImplementation","type":"address","internalType":"address"},{"name":"data","type":"bytes","internalType":"bytes"}],"outputs":[],"stateMutability":"payable"},{"type":"function","name":"withdraw","inputs":[{"name":"token","type":"address","internalType":"address"},{"name":"amount","type":"uint256","internalType":"uint256"},{"name":"to","type":"address","internalType":"address"}],"outputs":[],"stateMutability":"nonpayable"},{"type":"function","name":"withdraw_","inputs":[{"name":"token","type":"address","internalType":"address"},{"name":"users","type":"address[]","internalType":"address[]"},{"name":"to","type":"address","internalType":"address"}],"outputs":[],"stateMutability":"nonpayable"},{"type":"event","name":"AdminshipTransferred","inputs":[{"name":"previousAdmin","type":"address","indexed":true,"internalType":"address"},{"name":"newAdmin","type":"address","indexed":true,"internalType":"address"}],"anonymous":false},{"type":"event","name":"Initialized","inputs":[{"name":"version","type":"uint64","indexed":false,"internalType":"uint64"}],"anonymous":false},{"type":"event","name":"MultiRecharge","inputs":[{"name":"user","type":"address","indexed":false,"internalType":"address"},{"name":"token0","type":"address","indexed":false,"internalType":"address"},{"name":"amount0","type":"uint256","indexed":false,"internalType":"uint256"},{"name":"token1","type":"address","indexed":false,"internalType":"address"},{"name":"amount1","type":"uint256","indexed":false,"internalType":"uint256"},{"name":"remark","type":"string","indexed":false,"internalType":"string"}],"anonymous":false},{"type":"event","name":"OwnershipTransferred","inputs":[{"name":"previousOwner","type":"address","indexed":true,"internalType":"address"},{"name":"newOwner","type":"address","indexed":true,"internalType":"address"}],"anonymous":false},{"type":"event","name":"Upgraded","inputs":[{"name":"implementation","type":"address","indexed":true,"internalType":"address"}],"anonymous":false},{"type":"event","name":"Withdraw","inputs":[{"name":"token","type":"address","indexed":false,"internalType":"address"},{"name":"to","type":"address","indexed":false,"internalType":"address"},{"name":"amount","type":"uint256","indexed":false,"internalType":"uint256"}],"anonymous":false},{"type":"error","name":"AddressEmptyCode","inputs":[{"name":"target","type":"address","internalType":"address"}]},{"type":"error","name":"ERC1967InvalidImplementation","inputs":[{"name":"implementation","type":"address","internalType":"address"}]},{"type":"error","name":"ERC1967NonPayable","inputs":[]},{"type":"error","name":"FailedCall","inputs":[]},{"type":"error","name":"InvalidInitialization","inputs":[]},{"type":"error","name":"NotInitializing","inputs":[]},{"type":"error","name":"OwnableInvalidOwner","inputs":[{"name":"owner","type":"address","internalType":"address"}]},{"type":"error","name":"OwnableUnauthorizedAccount","inputs":[{"name":"account","type":"address","internalType":"address"}]},{"type":"error","name":"ReentrancyGuardReentrantCall","inputs":[]},{"type":"error","name":"UUPSUnauthorizedCallContext","inputs":[]},{"type":"error","name":"UUPSUnsupportedProxiableUUID","inputs":[{"name":"slot","type":"bytes32","internalType":"bytes32"}]}],"bytecode":{"object":"0x60a06040523073ffffffffffffffffffffffffffffffffffffffff1660809073ffffffffffffffffffffffffffffffffffffffff168152503480156041575f5ffd5b5060015f8190555060805161302f61006f5f395f81816115250152818161157a0152611734015261302f5ff3fe608060405260043610610117575f3560e01c80638da5cb5b1161009f578063ad3cb1cc11610063578063ad3cb1cc14610326578063b280a7e714610350578063f2fde38b14610378578063f851a440146103a0578063f8c8765e146103ca5761011e565b80638da5cb5b146102685780638f2839701461029257806392c2bcb4146102ba578063983b744a146102e2578063aa7e7eb91461030a5761011e565b806366d003ac116100e657806366d003ac146101ba57806367e404ce146101e457806369328dec1461020e578063715018a61461023657806373abf0af1461024c5761011e565b806306394c9b146101225780634f1ef2861461014a57806352d1902d14610166578063570ca735146101905761011e565b3661011e57005b5f5ffd5b34801561012d575f5ffd5b506101486004803603810190610143919061223e565b6103f2565b005b610164600480360381019061015f91906123a5565b610532565b005b348015610171575f5ffd5b5061017a610551565b6040516101879190612417565b60405180910390f35b34801561019b575f5ffd5b506101a4610582565b6040516101b1919061243f565b60405180910390f35b3480156101c5575f5ffd5b506101ce6105a7565b6040516101db919061243f565b60405180910390f35b3480156101ef575f5ffd5b506101f86105cc565b604051610205919061243f565b60405180910390f35b348015610219575f5ffd5b50610234600480360381019061022f919061248b565b6105f1565b005b348015610241575f5ffd5b5061024a610772565b005b61026660048036038101906102619190612538565b610785565b005b348015610273575f5ffd5b5061027c6109a0565b604051610289919061243f565b60405180910390f35b34801561029d575f5ffd5b506102b860048036038101906102b3919061223e565b6109d5565b005b3480156102c5575f5ffd5b506102e060048036038101906102db919061223e565b610b09565b005b3480156102ed575f5ffd5b5061030860048036038101906103039190612623565b610c49565b005b610324600480360381019061031f9190612694565b610ecf565b005b348015610331575f5ffd5b5061033a61106e565b6040516103479190612765565b60405180910390f35b34801561035b575f5ffd5b506103766004803603810190610371919061223e565b6110a7565b005b348015610383575f5ffd5b5061039e6004803603810190610399919061223e565b6111e7565b005b3480156103ab575f5ffd5b506103b461126b565b6040516103c1919061243f565b60405180910390f35b3480156103d5575f5ffd5b506103f060048036038101906103eb9190612785565b611290565b005b60015f9054906101000a900473ffffffffffffffffffffffffffffffffffffffff1673ffffffffffffffffffffffffffffffffffffffff163373ffffffffffffffffffffffffffffffffffffffff1614610481576040517f08c379a000000000000000000000000000000000000000000000000000000000815260040161047890612833565b60405180910390fd5b5f73ffffffffffffffffffffffffffffffffffffffff168173ffffffffffffffffffffffffffffffffffffffff16036104ef576040517f08c379a00000000000000000000000000000000000000000000000000000000081526004016104e69061289b565b60405180910390fd5b8060025f6101000a81548173ffffffffffffffffffffffffffffffffffffffff021916908373ffffffffffffffffffffffffffffffffffffffff16021790555050565b61053a611523565b61054382611609565b61054d8282611614565b5050565b5f61055a611732565b7f360894a13ba1a3210667c828492db98dca3e2076cc3735a920a3ca505d382bbc5f1b905090565b60025f9054906101000a900473ffffffffffffffffffffffffffffffffffffffff1681565b60035f9054906101000a900473ffffffffffffffffffffffffffffffffffffffff1681565b60045f9054906101000a900473ffffffffffffffffffffffffffffffffffffffff1681565b60015f9054906101000a900473ffffffffffffffffffffffffffffffffffffffff1673ffffffffffffffffffffffffffffffffffffffff163373ffffffffffffffffffffffffffffffffffffffff1614610680576040517f08c379a000000000000000000000000000000000000000000000000000000000815260040161067790612833565b60405180910390fd5b5f82116106c2576040517f08c379a00000000000000000000000000000000000000000000000000000000081526004016106b990612903565b60405180910390fd5b5f73ffffffffffffffffffffffffffffffffffffffff168373ffffffffffffffffffffffffffffffffffffffff1614610727576107228360045f9054906101000a900473ffffffffffffffffffffffffffffffffffffffff1683856117b9565b610732565b61073181836118ec565b5b7f9b1bfa7fa9ee420a16e124f794c35ac9f90472acc99140eb2f6447c714cad8eb83828460405161076593929190612930565b60405180910390a1505050565b61077a6119e7565b6107835f611a6e565b565b5f85118061079257505f83115b6107d1576040517f08c379a00000000000000000000000000000000000000000000000000000000081526004016107c8906129af565b60405180910390fd5b5f600267ffffffffffffffff8111156107ed576107ec612281565b5b60405190808252806020026020018201604052801561081b5781602001602082028036833780820191505090505b5090505f600267ffffffffffffffff81111561083a57610839612281565b5b6040519080825280602002602001820160405280156108685781602001602082028036833780820191505090505b50905087825f8151811061087f5761087e6129cd565b5b602002602001019073ffffffffffffffffffffffffffffffffffffffff16908173ffffffffffffffffffffffffffffffffffffffff168152505086815f815181106108cd576108cc6129cd565b5b60200260200101818152505085826001815181106108ee576108ed6129cd565b5b602002602001019073ffffffffffffffffffffffffffffffffffffffff16908173ffffffffffffffffffffffffffffffffffffffff1681525050848160018151811061093d5761093c6129cd565b5b6020026020010181815250506109538282611b3f565b7f92bfe9b63523d7c8baff8387323dd4c1c8ccd48705d9c91e19160ebcabb053b83389898989898960405161098e9796959493929190612a26565b60405180910390a15050505050505050565b5f5f6109aa611d5a565b9050805f015f9054906101000a900473ffffffffffffffffffffffffffffffffffffffff1691505090565b6109dd6119e7565b5f73ffffffffffffffffffffffffffffffffffffffff168173ffffffffffffffffffffffffffffffffffffffff1603610a4b576040517f08c379a0000000000000000000000000000000000000000000000000000000008152600401610a429061289b565b60405180910390fd5b8073ffffffffffffffffffffffffffffffffffffffff1660015f9054906101000a900473ffffffffffffffffffffffffffffffffffffffff1673ffffffffffffffffffffffffffffffffffffffff167f2931ebb3d190545dcf6801c37aa686b74f2e1000e753d0fac6e471a2aa5a621360405160405180910390a38060015f6101000a81548173ffffffffffffffffffffffffffffffffffffffff021916908373ffffffffffffffffffffffffffffffffffffffff16021790555050565b60015f9054906101000a900473ffffffffffffffffffffffffffffffffffffffff1673ffffffffffffffffffffffffffffffffffffffff163373ffffffffffffffffffffffffffffffffffffffff1614610b98576040517f08c379a0000000000000000000000000000000000000000000000000000000008152600401610b8f90612833565b60405180910390fd5b5f73ffffffffffffffffffffffffffffffffffffffff168173ffffffffffffffffffffffffffffffffffffffff1603610c06576040517f08c379a0000000000000000000000000000000000000000000000000000000008152600401610bfd9061289b565b60405180910390fd5b8060035f6101000a81548173ffffffffffffffffffffffffffffffffffffffff021916908373ffffffffffffffffffffffffffffffffffffffff16021790555050565b60025f9054906101000a900473ffffffffffffffffffffffffffffffffffffffff1673ffffffffffffffffffffffffffffffffffffffff163373ffffffffffffffffffffffffffffffffffffffff1614610cd8576040517f08c379a0000000000000000000000000000000000000000000000000000000008152600401610ccf90612833565b60405180910390fd5b5f5f90505b83839050811015610ec8575f8573ffffffffffffffffffffffffffffffffffffffff166370a08231868685818110610d1857610d176129cd565b5b9050602002016020810190610d2d919061223e565b6040518263ffffffff1660e01b8152600401610d49919061243f565b602060405180830381865afa158015610d64573d5f5f3e3d5ffd5b505050506040513d601f19601f82011682018060405250810190610d889190612aa2565b90505f8673ffffffffffffffffffffffffffffffffffffffff1663dd62ed3e878786818110610dba57610db96129cd565b5b9050602002016020810190610dcf919061223e565b306040518363ffffffff1660e01b8152600401610ded929190612acd565b602060405180830381865afa158015610e08573d5f5f3e3d5ffd5b505050506040513d601f19601f82011682018060405250810190610e2c9190612aa2565b90505f821115610eb957818110610e7157610e7087878786818110610e5457610e536129cd565b5b9050602002016020810190610e69919061223e565b86856117b9565b5b8181108015610e7f57505f81115b15610eb857610eb787878786818110610e9b57610e9a6129cd565b5b9050602002016020810190610eb0919061223e565b86846117b9565b5b5b50508080600101915050610cdd565b5050505050565b5f8311610f11576040517f08c379a0000000000000000000000000000000000000000000000000000000008152600401610f08906129af565b60405180910390fd5b5f600167ffffffffffffffff811115610f2d57610f2c612281565b5b604051908082528060200260200182016040528015610f5b5781602001602082028036833780820191505090505b5090505f600167ffffffffffffffff811115610f7a57610f79612281565b5b604051908082528060200260200182016040528015610fa85781602001602082028036833780820191505090505b50905085825f81518110610fbf57610fbe6129cd565b5b602002602001019073ffffffffffffffffffffffffffffffffffffffff16908173ffffffffffffffffffffffffffffffffffffffff168152505084815f8151811061100d5761100c6129cd565b5b6020026020010181815250506110238282611b3f565b7f92bfe9b63523d7c8baff8387323dd4c1c8ccd48705d9c91e19160ebcabb053b83387875f5f898960405161105e9796959493929190612b36565b60405180910390a1505050505050565b6040518060400160405280600581526020017f352e302e3000000000000000000000000000000000000000000000000000000081525081565b60015f9054906101000a900473ffffffffffffffffffffffffffffffffffffffff1673ffffffffffffffffffffffffffffffffffffffff163373ffffffffffffffffffffffffffffffffffffffff1614611136576040517f08c379a000000000000000000000000000000000000000000000000000000000815260040161112d90612833565b60405180910390fd5b5f73ffffffffffffffffffffffffffffffffffffffff168173ffffffffffffffffffffffffffffffffffffffff16036111a4576040517f08c379a000000000000000000000000000000000000000000000000000000000815260040161119b9061289b565b60405180910390fd5b8060045f6101000a81548173ffffffffffffffffffffffffffffffffffffffff021916908373ffffffffffffffffffffffffffffffffffffffff16021790555050565b6111ef6119e7565b5f73ffffffffffffffffffffffffffffffffffffffff168173ffffffffffffffffffffffffffffffffffffffff160361125f575f6040517f1e4fbdf7000000000000000000000000000000000000000000000000000000008152600401611256919061243f565b60405180910390fd5b61126881611a6e565b50565b60015f9054906101000a900473ffffffffffffffffffffffffffffffffffffffff1681565b5f611299611d81565b90505f815f0160089054906101000a900460ff161590505f825f015f9054906101000a900467ffffffffffffffff1690505f5f8267ffffffffffffffff161480156112e15750825b90505f60018367ffffffffffffffff1614801561131457505f3073ffffffffffffffffffffffffffffffffffffffff163b145b905081158015611322575080155b15611359576040517ff92ee8a900000000000000000000000000000000000000000000000000000000815260040160405180910390fd5b6001855f015f6101000a81548167ffffffffffffffff021916908367ffffffffffffffff16021790555083156113a6576001855f0160086101000a81548160ff0219169083151502179055505b6113b66113b1611d94565b611d9b565b6113be611e1f565b8860015f6101000a81548173ffffffffffffffffffffffffffffffffffffffff021916908373ffffffffffffffffffffffffffffffffffffffff1602179055508760025f6101000a81548173ffffffffffffffffffffffffffffffffffffffff021916908373ffffffffffffffffffffffffffffffffffffffff1602179055508660035f6101000a81548173ffffffffffffffffffffffffffffffffffffffff021916908373ffffffffffffffffffffffffffffffffffffffff1602179055508560045f6101000a81548173ffffffffffffffffffffffffffffffffffffffff021916908373ffffffffffffffffffffffffffffffffffffffff1602179055508315611518575f855f0160086101000a81548160ff0219169083151502179055507fc7f505b2f371ae2175ee4913f4499e1f2633a7b5936321eed1cdaeb6115181d2600160405161150f9190612bea565b60405180910390a15b505050505050505050565b7f000000000000000000000000000000000000000000000000000000000000000073ffffffffffffffffffffffffffffffffffffffff163073ffffffffffffffffffffffffffffffffffffffff1614806115d057507f000000000000000000000000000000000000000000000000000000000000000073ffffffffffffffffffffffffffffffffffffffff166115b7611e29565b73ffffffffffffffffffffffffffffffffffffffff1614155b15611607576040517fe07c8dba00000000000000000000000000000000000000000000000000000000815260040160405180910390fd5b565b6116116119e7565b50565b8173ffffffffffffffffffffffffffffffffffffffff166352d1902d6040518163ffffffff1660e01b8152600401602060405180830381865afa92505050801561167c57506040513d601f19601f820116820180604052508101906116799190612c2d565b60015b6116bd57816040517f4c9c8ce30000000000000000000000000000000000000000000000000000000081526004016116b4919061243f565b60405180910390fd5b7f360894a13ba1a3210667c828492db98dca3e2076cc3735a920a3ca505d382bbc5f1b811461172357806040517faa1d49a400000000000000000000000000000000000000000000000000000000815260040161171a9190612417565b60405180910390fd5b61172d8383611e7c565b505050565b7f000000000000000000000000000000000000000000000000000000000000000073ffffffffffffffffffffffffffffffffffffffff163073ffffffffffffffffffffffffffffffffffffffff16146117b7576040517fe07c8dba00000000000000000000000000000000000000000000000000000000815260040160405180910390fd5b565b5f5f8573ffffffffffffffffffffffffffffffffffffffff166323b872dd8686866040516024016117ec93929190612930565b6040516020818303038152906040529060e01b6020820180517bffffffffffffffffffffffffffffffffffffffffffffffffffffffff838183161783525050505060405161183a9190612c9c565b5f604051808303815f865af19150503d805f8114611873576040519150601f19603f3d011682016040523d82523d5f602084013e611878565b606091505b50915091508180156118a557505f815114806118a45750808060200190518101906118a39190612ce7565b5b5b6118e4576040517f08c379a00000000000000000000000000000000000000000000000000000000081526004016118db90612d82565b60405180910390fd5b505050505050565b5f8273ffffffffffffffffffffffffffffffffffffffff16825f67ffffffffffffffff81111561191f5761191e612281565b5b6040519080825280601f01601f1916602001820160405280156119515781602001600182028036833780820191505090505b5060405161195f9190612c9c565b5f6040518083038185875af1925050503d805f8114611999576040519150601f19603f3d011682016040523d82523d5f602084013e61199e565b606091505b50509050806119e2576040517f08c379a00000000000000000000000000000000000000000000000000000000081526004016119d990612e10565b60405180910390fd5b505050565b6119ef611d94565b73ffffffffffffffffffffffffffffffffffffffff16611a0d6109a0565b73ffffffffffffffffffffffffffffffffffffffff1614611a6c57611a30611d94565b6040517f118cdaa7000000000000000000000000000000000000000000000000000000008152600401611a63919061243f565b60405180910390fd5b565b5f611a77611d5a565b90505f815f015f9054906101000a900473ffffffffffffffffffffffffffffffffffffffff16905082825f015f6101000a81548173ffffffffffffffffffffffffffffffffffffffff021916908373ffffffffffffffffffffffffffffffffffffffff1602179055508273ffffffffffffffffffffffffffffffffffffffff168173ffffffffffffffffffffffffffffffffffffffff167f8be0079c531659141344cd1fd0a4f28419497f9722a3daafe3b4186f6b6457e060405160405180910390a3505050565b8051825114611b83576040517f08c379a0000000000000000000000000000000000000000000000000000000008152600401611b7a90612e78565b60405180910390fd5b5f5f90505f5f90505f5f90505b8451811015611c6b575f858281518110611bad57611bac6129cd565b5b602002602001015190505f858381518110611bcb57611bca6129cd565b5b602002602001015190505f8103611be3575050611c5e565b5f73ffffffffffffffffffffffffffffffffffffffff168273ffffffffffffffffffffffffffffffffffffffff1603611c2d578085611c229190612ec3565b945060019350611c5b565b611c5a823360035f9054906101000a900473ffffffffffffffffffffffffffffffffffffffff16846117b9565b5b50505b8080600101915050611b90565b508015611d115781341015611cb5576040517f08c379a0000000000000000000000000000000000000000000000000000000008152600401611cac90612f40565b60405180910390fd5b5f821115611ce957611ce860035f9054906101000a900473ffffffffffffffffffffffffffffffffffffffff16836118ec565b5b5f8234611cf69190612f5e565b90505f811115611d0b57611d0a33826118ec565b5b50611d54565b5f3414611d53576040517f08c379a0000000000000000000000000000000000000000000000000000000008152600401611d4a90612fdb565b60405180910390fd5b5b50505050565b5f7f9016d09d72d40fdae2fd8ceac6b6234c7706214fd39c1cd1e609a0528c199300905090565b5f5f611d8b611eee565b90508091505090565b5f33905090565b611da3611f17565b5f73ffffffffffffffffffffffffffffffffffffffff168173ffffffffffffffffffffffffffffffffffffffff1603611e13575f6040517f1e4fbdf7000000000000000000000000000000000000000000000000000000008152600401611e0a919061243f565b60405180910390fd5b611e1c81611a6e565b50565b611e27611f17565b565b5f611e557f360894a13ba1a3210667c828492db98dca3e2076cc3735a920a3ca505d382bbc5f1b611f57565b5f015f9054906101000a900473ffffffffffffffffffffffffffffffffffffffff16905090565b611e8582611f60565b8173ffffffffffffffffffffffffffffffffffffffff167fbc7cd75a20ee27fd9adebab32041f755214dbc6bffa90cc0225b39da2e5c2d3b60405160405180910390a25f81511115611ee157611edb8282612029565b50611eea565b611ee96120a9565b5b5050565b5f7ff0c57e16840df040f15088dc2f81fe391c3923bec73e23a9662efc9c229c6a005f1b905090565b611f1f6120e5565b611f55576040517fd7e6bcf800000000000000000000000000000000000000000000000000000000815260040160405180910390fd5b565b5f819050919050565b5f8173ffffffffffffffffffffffffffffffffffffffff163b03611fbb57806040517f4c9c8ce3000000000000000000000000000000000000000000000000000000008152600401611fb2919061243f565b60405180910390fd5b80611fe77f360894a13ba1a3210667c828492db98dca3e2076cc3735a920a3ca505d382bbc5f1b611f57565b5f015f6101000a81548173ffffffffffffffffffffffffffffffffffffffff021916908373ffffffffffffffffffffffffffffffffffffffff16021790555050565b60605f5f8473ffffffffffffffffffffffffffffffffffffffff16846040516120529190612c9c565b5f60405180830381855af49150503d805f811461208a576040519150601f19603f3d011682016040523d82523d5f602084013e61208f565b606091505b509150915061209f858383612103565b9250505092915050565b5f3411156120e3576040517fb398979f00000000000000000000000000000000000000000000000000000000815260040160405180910390fd5b565b5f6120ee611d81565b5f0160089054906101000a900460ff16905090565b6060826121185761211382612190565b612188565b5f825114801561213e57505f8473ffffffffffffffffffffffffffffffffffffffff163b145b1561218057836040517f9996b315000000000000000000000000000000000000000000000000000000008152600401612177919061243f565b60405180910390fd5b819050612189565b5b9392505050565b5f815111156121a157805160208201fd5b6040517fd6bda27500000000000000000000000000000000000000000000000000000000815260040160405180910390fd5b5f604051905090565b5f5ffd5b5f5ffd5b5f73ffffffffffffffffffffffffffffffffffffffff82169050919050565b5f61220d826121e4565b9050919050565b61221d81612203565b8114612227575f5ffd5b50565b5f8135905061223881612214565b92915050565b5f60208284031215612253576122526121dc565b5b5f6122608482850161222a565b91505092915050565b5f5ffd5b5f5ffd5b5f601f19601f8301169050919050565b7f4e487b71000000000000000000000000000000000000000000000000000000005f52604160045260245ffd5b6122b782612271565b810181811067ffffffffffffffff821117156122d6576122d5612281565b5b80604052505050565b5f6122e86121d3565b90506122f482826122ae565b919050565b5f67ffffffffffffffff82111561231357612312612281565b5b61231c82612271565b9050602081019050919050565b828183375f83830152505050565b5f612349612344846122f9565b6122df565b9050828152602081018484840111156123655761236461226d565b5b612370848285612329565b509392505050565b5f82601f83011261238c5761238b612269565b5b813561239c848260208601612337565b91505092915050565b5f5f604083850312156123bb576123ba6121dc565b5b5f6123c88582860161222a565b925050602083013567ffffffffffffffff8111156123e9576123e86121e0565b5b6123f585828601612378565b9150509250929050565b5f819050919050565b612411816123ff565b82525050565b5f60208201905061242a5f830184612408565b92915050565b61243981612203565b82525050565b5f6020820190506124525f830184612430565b92915050565b5f819050919050565b61246a81612458565b8114612474575f5ffd5b50565b5f8135905061248581612461565b92915050565b5f5f5f606084860312156124a2576124a16121dc565b5b5f6124af8682870161222a565b93505060206124c086828701612477565b92505060406124d18682870161222a565b9150509250925092565b5f5ffd5b5f5ffd5b5f5f83601f8401126124f8576124f7612269565b5b8235905067ffffffffffffffff811115612515576125146124db565b5b602083019150836001820283011115612531576125306124df565b5b9250929050565b5f5f5f5f5f5f60a08789031215612552576125516121dc565b5b5f61255f89828a0161222a565b965050602061257089828a01612477565b955050604061258189828a0161222a565b945050606061259289828a01612477565b935050608087013567ffffffffffffffff8111156125b3576125b26121e0565b5b6125bf89828a016124e3565b92509250509295509295509295565b5f5f83601f8401126125e3576125e2612269565b5b8235905067ffffffffffffffff811115612600576125ff6124db565b5b60208301915083602082028301111561261c5761261b6124df565b5b9250929050565b5f5f5f5f6060858703121561263b5761263a6121dc565b5b5f6126488782880161222a565b945050602085013567ffffffffffffffff811115612669576126686121e0565b5b612675878288016125ce565b935093505060406126888782880161222a565b91505092959194509250565b5f5f5f5f606085870312156126ac576126ab6121dc565b5b5f6126b98782880161222a565b94505060206126ca87828801612477565b935050604085013567ffffffffffffffff8111156126eb576126ea6121e0565b5b6126f7878288016124e3565b925092505092959194509250565b5f81519050919050565b5f82825260208201905092915050565b8281835e5f83830152505050565b5f61273782612705565b612741818561270f565b935061275181856020860161271f565b61275a81612271565b840191505092915050565b5f6020820190508181035f83015261277d818461272d565b905092915050565b5f5f5f5f6080858703121561279d5761279c6121dc565b5b5f6127aa8782880161222a565b94505060206127bb8782880161222a565b93505060406127cc8782880161222a565b92505060606127dd8782880161222a565b91505092959194509250565b7f4552524f525f41444d494e2e00000000000000000000000000000000000000005f82015250565b5f61281d600c8361270f565b9150612828826127e9565b602082019050919050565b5f6020820190508181035f83015261284a81612811565b9050919050565b7f5a45524f5f414444524553532e000000000000000000000000000000000000005f82015250565b5f612885600d8361270f565b915061289082612851565b602082019050919050565b5f6020820190508181035f8301526128b281612879565b9050919050565b7f4552524f525f414d4f554e542e000000000000000000000000000000000000005f82015250565b5f6128ed600d8361270f565b91506128f8826128b9565b602082019050919050565b5f6020820190508181035f83015261291a816128e1565b9050919050565b61292a81612458565b82525050565b5f6060820190506129435f830186612430565b6129506020830185612430565b61295d6040830184612921565b949350505050565b7f4552524f525f414d4f554e5400000000000000000000000000000000000000005f82015250565b5f612999600c8361270f565b91506129a482612965565b602082019050919050565b5f6020820190508181035f8301526129c68161298d565b9050919050565b7f4e487b71000000000000000000000000000000000000000000000000000000005f52603260045260245ffd5b5f612a05838561270f565b9350612a12838584612329565b612a1b83612271565b840190509392505050565b5f60c082019050612a395f83018a612430565b612a466020830189612430565b612a536040830188612921565b612a606060830187612430565b612a6d6080830186612921565b81810360a0830152612a808184866129fa565b905098975050505050505050565b5f81519050612a9c81612461565b92915050565b5f60208284031215612ab757612ab66121dc565b5b5f612ac484828501612a8e565b91505092915050565b5f604082019050612ae05f830185612430565b612aed6020830184612430565b9392505050565b5f819050919050565b5f819050919050565b5f612b20612b1b612b1684612af4565b612afd565b612458565b9050919050565b612b3081612b06565b82525050565b5f60c082019050612b495f83018a612430565b612b566020830189612430565b612b636040830188612921565b612b706060830187612430565b612b7d6080830186612b27565b81810360a0830152612b908184866129fa565b905098975050505050505050565b5f819050919050565b5f67ffffffffffffffff82169050919050565b5f612bd4612bcf612bca84612b9e565b612afd565b612ba7565b9050919050565b612be481612bba565b82525050565b5f602082019050612bfd5f830184612bdb565b92915050565b612c0c816123ff565b8114612c16575f5ffd5b50565b5f81519050612c2781612c03565b92915050565b5f60208284031215612c4257612c416121dc565b5b5f612c4f84828501612c19565b91505092915050565b5f81519050919050565b5f81905092915050565b5f612c7682612c58565b612c808185612c62565b9350612c9081856020860161271f565b80840191505092915050565b5f612ca78284612c6c565b915081905092915050565b5f8115159050919050565b612cc681612cb2565b8114612cd0575f5ffd5b50565b5f81519050612ce181612cbd565b92915050565b5f60208284031215612cfc57612cfb6121dc565b5b5f612d0984828501612cd3565b91505092915050565b7f5472616e7366657248656c7065723a205452414e534645525f46524f4d5f46415f8201527f494c454400000000000000000000000000000000000000000000000000000000602082015250565b5f612d6c60248361270f565b9150612d7782612d12565b604082019050919050565b5f6020820190508181035f830152612d9981612d60565b9050919050565b7f5472616e7366657248656c7065723a204554485f5452414e534645525f4641495f8201527f4c45440000000000000000000000000000000000000000000000000000000000602082015250565b5f612dfa60238361270f565b9150612e0582612da0565b604082019050919050565b5f6020820190508181035f830152612e2781612dee565b9050919050565b7f4d49534d415443485f4c454e47544800000000000000000000000000000000005f82015250565b5f612e62600f8361270f565b9150612e6d82612e2e565b602082019050919050565b5f6020820190508181035f830152612e8f81612e56565b9050919050565b7f4e487b71000000000000000000000000000000000000000000000000000000005f52601160045260245ffd5b5f612ecd82612458565b9150612ed883612458565b9250828201905080821115612ef057612eef612e96565b5b92915050565b7f4552524f525f50415941424c455f414d4f554e540000000000000000000000005f82015250565b5f612f2a60148361270f565b9150612f3582612ef6565b602082019050919050565b5f6020820190508181035f830152612f5781612f1e565b9050919050565b5f612f6882612458565b9150612f7383612458565b9250828203905081811115612f8b57612f8a612e96565b5b92915050565b7f4e4f5f4554485f524551554952454400000000000000000000000000000000005f82015250565b5f612fc5600f8361270f565b9150612fd082612f91565b602082019050919050565b5f6020820190508181035f830152612ff281612fb9565b905091905056fea26469706673582212202949c4432936c1c4d56b7178c580c11d70ee4acecb55271f50f34f14661d612c64736f6c634300081e0033","linkReferences":{}},"methodIdentifiers":{"UPGRADE_INTERFACE_VERSION()":"ad3cb1cc","admin()":"f851a440","changeAdmin(address)":"8f283970","changeOperator(address)":"06394c9b","changeRecipient(address)":"92c2bcb4","changeSender(address)":"b280a7e7","initialize(address,address,address,address)":"f8c8765e","multiRecharge(address,uint256,address,uint256,string)":"73abf0af","operator()":"570ca735","owner()":"8da5cb5b","proxiableUUID()":"52d1902d","recipient()":"66d003ac","renounceOwnership()":"715018a6","sender()":"67e404ce","singleRecharge(address,uint256,string)":"aa7e7eb9","transferOwnership(address)":"f2fde38b","upgradeToAndCall(address,bytes)":"4f1ef286","withdraw(address,uint256,address)":"69328dec","withdraw_(address,address[],address)":"983b744a"},"id":37}