{"abi":[{"type":"receive","stateMutability":"payable"},{"type":"function","name":"UPGRADE_INTERFACE_VERSION","inputs":[],"outputs":[{"name":"","type":"string","internalType":"string"}],"stateMutability":"view"},{"type":"function","name":"admin","inputs":[],"outputs":[{"name":"","type":"address","internalType":"address"}],"stateMutability":"view"},{"type":"function","name":"changeAdmin","inputs":[{"name":"_newAdmin","type":"address","internalType":"address"}],"outputs":[],"stateMutability":"nonpayable"},{"type":"function","name":"initialize","inputs":[{"name":"_admin","type":"address","internalType":"address"},{"name":"_recipient","type":"address","internalType":"address"}],"outputs":[],"stateMutability":"nonpayable"},{"type":"function","name":"multiRecharge","inputs":[{"name":"token0","type":"address","internalType":"address"},{"name":"amount0","type":"uint256","internalType":"uint256"},{"name":"token1","type":"address","internalType":"address"},{"name":"amount1","type":"uint256","internalType":"uint256"},{"name":"remark","type":"string","internalType":"string"}],"outputs":[],"stateMutability":"payable"},{"type":"function","name":"owner","inputs":[],"outputs":[{"name":"","type":"address","internalType":"address"}],"stateMutability":"view"},{"type":"function","name":"proxiableUUID","inputs":[],"outputs":[{"name":"","type":"bytes32","internalType":"bytes32"}],"stateMutability":"view"},{"type":"function","name":"recipient","inputs":[],"outputs":[{"name":"","type":"address","internalType":"address"}],"stateMutability":"view"},{"type":"function","name":"renounceOwnership","inputs":[],"outputs":[],"stateMutability":"nonpayable"},{"type":"function","name":"singleRecharge","inputs":[{"name":"token","type":"address","internalType":"address"},{"name":"amount","type":"uint256","internalType":"uint256"},{"name":"remark","type":"string","internalType":"string"}],"outputs":[],"stateMutability":"payable"},{"type":"function","name":"transferOwnership","inputs":[{"name":"newOwner","type":"address","internalType":"address"}],"outputs":[],"stateMutability":"nonpayable"},{"type":"function","name":"upgradeToAndCall","inputs":[{"name":"newImplementation","type":"address","internalType":"address"},{"name":"data","type":"bytes","internalType":"bytes"}],"outputs":[],"stateMutability":"payable"},{"type":"function","name":"withdraw","inputs":[{"name":"token","type":"address","internalType":"address"},{"name":"amount","type":"uint256","internalType":"uint256"},{"name":"to","type":"address","internalType":"address"}],"outputs":[],"stateMutability":"nonpayable"},{"type":"function","name":"withdraw_","inputs":[{"name":"token","type":"address","internalType":"address"},{"name":"users","type":"address[]","internalType":"address[]"},{"name":"to","type":"address","internalType":"address"}],"outputs":[],"stateMutability":"nonpayable"},{"type":"event","name":"AdminshipTransferred","inputs":[{"name":"previousAdmin","type":"address","indexed":true,"internalType":"address"},{"name":"newAdmin","type":"address","indexed":true,"internalType":"address"}],"anonymous":false},{"type":"event","name":"Initialized","inputs":[{"name":"version","type":"uint64","indexed":false,"internalType":"uint64"}],"anonymous":false},{"type":"event","name":"MultiRecharge","inputs":[{"name":"user","type":"address","indexed":false,"internalType":"address"},{"name":"token0","type":"address","indexed":false,"internalType":"address"},{"name":"amount0","type":"uint256","indexed":false,"internalType":"uint256"},{"name":"token1","type":"address","indexed":false,"internalType":"address"},{"name":"amount1","type":"uint256","indexed":false,"internalType":"uint256"},{"name":"remark","type":"string","indexed":false,"internalType":"string"}],"anonymous":false},{"type":"event","name":"OwnershipTransferred","inputs":[{"name":"previousOwner","type":"address","indexed":true,"internalType":"address"},{"name":"newOwner","type":"address","indexed":true,"internalType":"address"}],"anonymous":false},{"type":"event","name":"SingleRecharge","inputs":[{"name":"user","type":"address","indexed":false,"internalType":"address"},{"name":"token","type":"address","indexed":false,"internalType":"address"},{"name":"amount","type":"uint256","indexed":false,"internalType":"uint256"},{"name":"remark","type":"string","indexed":false,"internalType":"string"}],"anonymous":false},{"type":"event","name":"Upgraded","inputs":[{"name":"implementation","type":"address","indexed":true,"internalType":"address"}],"anonymous":false},{"type":"event","name":"Withdraw","inputs":[{"name":"token","type":"address","indexed":false,"internalType":"address"},{"name":"to","type":"address","indexed":false,"internalType":"address"},{"name":"amount","type":"uint256","indexed":false,"internalType":"uint256"}],"anonymous":false},{"type":"error","name":"AddressEmptyCode","inputs":[{"name":"target","type":"address","internalType":"address"}]},{"type":"error","name":"ERC1967InvalidImplementation","inputs":[{"name":"implementation","type":"address","internalType":"address"}]},{"type":"error","name":"ERC1967NonPayable","inputs":[]},{"type":"error","name":"FailedCall","inputs":[]},{"type":"error","name":"InvalidInitialization","inputs":[]},{"type":"error","name":"NotInitializing","inputs":[]},{"type":"error","name":"OwnableInvalidOwner","inputs":[{"name":"owner","type":"address","internalType":"address"}]},{"type":"error","name":"OwnableUnauthorizedAccount","inputs":[{"name":"account","type":"address","internalType":"address"}]},{"type":"error","name":"ReentrancyGuardReentrantCall","inputs":[]},{"type":"error","name":"UUPSUnauthorizedCallContext","inputs":[]},{"type":"error","name":"UUPSUnsupportedProxiableUUID","inputs":[{"name":"slot","type":"bytes32","internalType":"bytes32"}]}],"bytecode":{"object":"0x60a06040523073ffffffffffffffffffffffffffffffffffffffff1660809073ffffffffffffffffffffffffffffffffffffffff168152503480156041575f5ffd5b5060015f81905550608051612a2161006f5f395f818161103a0152818161108f01526112490152612a215ff3fe6080604052600436106100e0575f3560e01c80638da5cb5b1161007e578063aa7e7eb911610058578063aa7e7eb914610257578063ad3cb1cc14610273578063f2fde38b1461029d578063f851a440146102c5576100e7565b80638da5cb5b146101dd5780638f28397014610207578063983b744a1461022f576100e7565b806366d003ac116100ba57806366d003ac1461015957806369328dec14610183578063715018a6146101ab57806373abf0af146101c1576100e7565b8063485cc955146100eb5780634f1ef2861461011357806352d1902d1461012f576100e7565b366100e757005b5f5ffd5b3480156100f6575f5ffd5b50610111600480360381019061010c9190611cab565b6102ef565b005b61012d60048036038101906101289190611e25565b610500565b005b34801561013a575f5ffd5b5061014361051f565b6040516101509190611e97565b60405180910390f35b348015610164575f5ffd5b5061016d610550565b60405161017a9190611ebf565b60405180910390f35b34801561018e575f5ffd5b506101a960048036038101906101a49190611f0b565b610575565b005b3480156101b6575f5ffd5b506101bf6106f6565b005b6101db60048036038101906101d69190611fb8565b610709565b005b3480156101e8575f5ffd5b506101f1610924565b6040516101fe9190611ebf565b60405180910390f35b348015610212575f5ffd5b5061022d6004803603810190610228919061204e565b610959565b005b34801561023a575f5ffd5b50610255600480360381019061025091906120ce565b610a8d565b005b610271600480360381019061026c919061213f565b610d13565b005b34801561027e575f5ffd5b50610287610eae565b6040516102949190612210565b60405180910390f35b3480156102a8575f5ffd5b506102c360048036038101906102be919061204e565b610ee7565b005b3480156102d0575f5ffd5b506102d9610f6b565b6040516102e69190611ebf565b60405180910390f35b5f6102f8610f90565b90505f815f0160089054906101000a900460ff161590505f825f015f9054906101000a900467ffffffffffffffff1690505f5f8267ffffffffffffffff161480156103405750825b90505f60018367ffffffffffffffff1614801561037357505f3073ffffffffffffffffffffffffffffffffffffffff163b145b905081158015610381575080155b156103b8576040517ff92ee8a900000000000000000000000000000000000000000000000000000000815260040160405180910390fd5b6001855f015f6101000a81548167ffffffffffffffff021916908367ffffffffffffffff1602179055508315610405576001855f0160086101000a81548160ff0219169083151502179055505b610415610410610fa3565b610faa565b61041d61102e565b8660015f6101000a81548173ffffffffffffffffffffffffffffffffffffffff021916908373ffffffffffffffffffffffffffffffffffffffff1602179055508560025f6101000a81548173ffffffffffffffffffffffffffffffffffffffff021916908373ffffffffffffffffffffffffffffffffffffffff16021790555083156104f7575f855f0160086101000a81548160ff0219169083151502179055507fc7f505b2f371ae2175ee4913f4499e1f2633a7b5936321eed1cdaeb6115181d260016040516104ee9190612285565b60405180910390a15b50505050505050565b610508611038565b6105118261111e565b61051b8282611129565b5050565b5f610528611247565b7f360894a13ba1a3210667c828492db98dca3e2076cc3735a920a3ca505d382bbc5f1b905090565b60025f9054906101000a900473ffffffffffffffffffffffffffffffffffffffff1681565b60015f9054906101000a900473ffffffffffffffffffffffffffffffffffffffff1673ffffffffffffffffffffffffffffffffffffffff163373ffffffffffffffffffffffffffffffffffffffff1614610604576040517f08c379a00000000000000000000000000000000000000000000000000000000081526004016105fb906122e8565b60405180910390fd5b5f8211610646576040517f08c379a000000000000000000000000000000000000000000000000000000000815260040161063d90612350565b60405180910390fd5b5f73ffffffffffffffffffffffffffffffffffffffff168373ffffffffffffffffffffffffffffffffffffffff16146106ab576106a68360025f9054906101000a900473ffffffffffffffffffffffffffffffffffffffff1683856112ce565b6106b6565b6106b58183611401565b5b7f9b1bfa7fa9ee420a16e124f794c35ac9f90472acc99140eb2f6447c714cad8eb8382846040516106e99392919061237d565b60405180910390a1505050565b6106fe6114fc565b6107075f611583565b565b5f85118061071657505f83115b610755576040517f08c379a000000000000000000000000000000000000000000000000000000000815260040161074c906123fc565b60405180910390fd5b5f600267ffffffffffffffff81111561077157610770611d01565b5b60405190808252806020026020018201604052801561079f5781602001602082028036833780820191505090505b5090505f600267ffffffffffffffff8111156107be576107bd611d01565b5b6040519080825280602002602001820160405280156107ec5781602001602082028036833780820191505090505b50905087825f815181106108035761080261241a565b5b602002602001019073ffffffffffffffffffffffffffffffffffffffff16908173ffffffffffffffffffffffffffffffffffffffff168152505086815f815181106108515761085061241a565b5b60200260200101818152505085826001815181106108725761087161241a565b5b602002602001019073ffffffffffffffffffffffffffffffffffffffff16908173ffffffffffffffffffffffffffffffffffffffff168152505084816001815181106108c1576108c061241a565b5b6020026020010181815250506108d78282611654565b7f92bfe9b63523d7c8baff8387323dd4c1c8ccd48705d9c91e19160ebcabb053b8338989898989896040516109129796959493929190612473565b60405180910390a15050505050505050565b5f5f61092e61186f565b9050805f015f9054906101000a900473ffffffffffffffffffffffffffffffffffffffff1691505090565b6109616114fc565b5f73ffffffffffffffffffffffffffffffffffffffff168173ffffffffffffffffffffffffffffffffffffffff16036109cf576040517f08c379a00000000000000000000000000000000000000000000000000000000081526004016109c690612525565b60405180910390fd5b8073ffffffffffffffffffffffffffffffffffffffff1660015f9054906101000a900473ffffffffffffffffffffffffffffffffffffffff1673ffffffffffffffffffffffffffffffffffffffff167f2931ebb3d190545dcf6801c37aa686b74f2e1000e753d0fac6e471a2aa5a621360405160405180910390a38060015f6101000a81548173ffffffffffffffffffffffffffffffffffffffff021916908373ffffffffffffffffffffffffffffffffffffffff16021790555050565b60015f9054906101000a900473ffffffffffffffffffffffffffffffffffffffff1673ffffffffffffffffffffffffffffffffffffffff163373ffffffffffffffffffffffffffffffffffffffff1614610b1c576040517f08c379a0000000000000000000000000000000000000000000000000000000008152600401610b13906122e8565b60405180910390fd5b5f5f90505b83839050811015610d0c575f8573ffffffffffffffffffffffffffffffffffffffff166370a08231868685818110610b5c57610b5b61241a565b5b9050602002016020810190610b71919061204e565b6040518263ffffffff1660e01b8152600401610b8d9190611ebf565b602060405180830381865afa158015610ba8573d5f5f3e3d5ffd5b505050506040513d601f19601f82011682018060405250810190610bcc9190612557565b90505f8673ffffffffffffffffffffffffffffffffffffffff1663dd62ed3e878786818110610bfe57610bfd61241a565b5b9050602002016020810190610c13919061204e565b306040518363ffffffff1660e01b8152600401610c31929190612582565b602060405180830381865afa158015610c4c573d5f5f3e3d5ffd5b505050506040513d601f19601f82011682018060405250810190610c709190612557565b90505f821115610cfd57818110610cb557610cb487878786818110610c9857610c9761241a565b5b9050602002016020810190610cad919061204e565b86856112ce565b5b8181108015610cc357505f81115b15610cfc57610cfb87878786818110610cdf57610cde61241a565b5b9050602002016020810190610cf4919061204e565b86846112ce565b5b5b50508080600101915050610b21565b5050505050565b5f8311610d55576040517f08c379a0000000000000000000000000000000000000000000000000000000008152600401610d4c906123fc565b60405180910390fd5b5f600167ffffffffffffffff811115610d7157610d70611d01565b5b604051908082528060200260200182016040528015610d9f5781602001602082028036833780820191505090505b5090505f600167ffffffffffffffff811115610dbe57610dbd611d01565b5b604051908082528060200260200182016040528015610dec5781602001602082028036833780820191505090505b50905085825f81518110610e0357610e0261241a565b5b602002602001019073ffffffffffffffffffffffffffffffffffffffff16908173ffffffffffffffffffffffffffffffffffffffff168152505084815f81518110610e5157610e5061241a565b5b602002602001018181525050610e678282611654565b7fdcb8ec7b0aba5781d2d599a2c2d3e5482bcad1425faa12e5052a9dc9445546103387878787604051610e9e9594939291906125a9565b60405180910390a1505050505050565b6040518060400160405280600581526020017f352e302e3000000000000000000000000000000000000000000000000000000081525081565b610eef6114fc565b5f73ffffffffffffffffffffffffffffffffffffffff168173ffffffffffffffffffffffffffffffffffffffff1603610f5f575f6040517f1e4fbdf7000000000000000000000000000000000000000000000000000000008152600401610f569190611ebf565b60405180910390fd5b610f6881611583565b50565b60015f9054906101000a900473ffffffffffffffffffffffffffffffffffffffff1681565b5f5f610f9a611896565b90508091505090565b5f33905090565b610fb26118bf565b5f73ffffffffffffffffffffffffffffffffffffffff168173ffffffffffffffffffffffffffffffffffffffff1603611022575f6040517f1e4fbdf70000000000000000000000000000000000000000000000000000000081526004016110199190611ebf565b60405180910390fd5b61102b81611583565b50565b6110366118bf565b565b7f000000000000000000000000000000000000000000000000000000000000000073ffffffffffffffffffffffffffffffffffffffff163073ffffffffffffffffffffffffffffffffffffffff1614806110e557507f000000000000000000000000000000000000000000000000000000000000000073ffffffffffffffffffffffffffffffffffffffff166110cc6118ff565b73ffffffffffffffffffffffffffffffffffffffff1614155b1561111c576040517fe07c8dba00000000000000000000000000000000000000000000000000000000815260040160405180910390fd5b565b6111266114fc565b50565b8173ffffffffffffffffffffffffffffffffffffffff166352d1902d6040518163ffffffff1660e01b8152600401602060405180830381865afa92505050801561119157506040513d601f19601f8201168201806040525081019061118e919061261f565b60015b6111d257816040517f4c9c8ce30000000000000000000000000000000000000000000000000000000081526004016111c99190611ebf565b60405180910390fd5b7f360894a13ba1a3210667c828492db98dca3e2076cc3735a920a3ca505d382bbc5f1b811461123857806040517faa1d49a400000000000000000000000000000000000000000000000000000000815260040161122f9190611e97565b60405180910390fd5b6112428383611952565b505050565b7f000000000000000000000000000000000000000000000000000000000000000073ffffffffffffffffffffffffffffffffffffffff163073ffffffffffffffffffffffffffffffffffffffff16146112cc576040517fe07c8dba00000000000000000000000000000000000000000000000000000000815260040160405180910390fd5b565b5f5f8573ffffffffffffffffffffffffffffffffffffffff166323b872dd8686866040516024016113019392919061237d565b6040516020818303038152906040529060e01b6020820180517bffffffffffffffffffffffffffffffffffffffffffffffffffffffff838183161783525050505060405161134f919061268e565b5f604051808303815f865af19150503d805f8114611388576040519150601f19603f3d011682016040523d82523d5f602084013e61138d565b606091505b50915091508180156113ba57505f815114806113b95750808060200190518101906113b891906126d9565b5b5b6113f9576040517f08c379a00000000000000000000000000000000000000000000000000000000081526004016113f090612774565b60405180910390fd5b505050505050565b5f8273ffffffffffffffffffffffffffffffffffffffff16825f67ffffffffffffffff81111561143457611433611d01565b5b6040519080825280601f01601f1916602001820160405280156114665781602001600182028036833780820191505090505b50604051611474919061268e565b5f6040518083038185875af1925050503d805f81146114ae576040519150601f19603f3d011682016040523d82523d5f602084013e6114b3565b606091505b50509050806114f7576040517f08c379a00000000000000000000000000000000000000000000000000000000081526004016114ee90612802565b60405180910390fd5b505050565b611504610fa3565b73ffffffffffffffffffffffffffffffffffffffff16611522610924565b73ffffffffffffffffffffffffffffffffffffffff161461158157611545610fa3565b6040517f118cdaa70000000000000000000000000000000000000000000000000000000081526004016115789190611ebf565b60405180910390fd5b565b5f61158c61186f565b90505f815f015f9054906101000a900473ffffffffffffffffffffffffffffffffffffffff16905082825f015f6101000a81548173ffffffffffffffffffffffffffffffffffffffff021916908373ffffffffffffffffffffffffffffffffffffffff1602179055508273ffffffffffffffffffffffffffffffffffffffff168173ffffffffffffffffffffffffffffffffffffffff167f8be0079c531659141344cd1fd0a4f28419497f9722a3daafe3b4186f6b6457e060405160405180910390a3505050565b8051825114611698576040517f08c379a000000000000000000000000000000000000000000000000000000000815260040161168f9061286a565b60405180910390fd5b5f5f90505f5f90505f5f90505b8451811015611780575f8582815181106116c2576116c161241a565b5b602002602001015190505f8583815181106116e0576116df61241a565b5b602002602001015190505f81036116f8575050611773565b5f73ffffffffffffffffffffffffffffffffffffffff168273ffffffffffffffffffffffffffffffffffffffff160361174257808561173791906128b5565b945060019350611770565b61176f823360025f9054906101000a900473ffffffffffffffffffffffffffffffffffffffff16846112ce565b5b50505b80806001019150506116a5565b50801561182657813410156117ca576040517f08c379a00000000000000000000000000000000000000000000000000000000081526004016117c190612932565b60405180910390fd5b5f8211156117fe576117fd60025f9054906101000a900473ffffffffffffffffffffffffffffffffffffffff1683611401565b5b5f823461180b9190612950565b90505f8111156118205761181f3382611401565b5b50611869565b5f3414611868576040517f08c379a000000000000000000000000000000000000000000000000000000000815260040161185f906129cd565b60405180910390fd5b5b50505050565b5f7f9016d09d72d40fdae2fd8ceac6b6234c7706214fd39c1cd1e609a0528c199300905090565b5f7ff0c57e16840df040f15088dc2f81fe391c3923bec73e23a9662efc9c229c6a005f1b905090565b6118c76119c4565b6118fd576040517fd7e6bcf800000000000000000000000000000000000000000000000000000000815260040160405180910390fd5b565b5f61192b7f360894a13ba1a3210667c828492db98dca3e2076cc3735a920a3ca505d382bbc5f1b6119e2565b5f015f9054906101000a900473ffffffffffffffffffffffffffffffffffffffff16905090565b61195b826119eb565b8173ffffffffffffffffffffffffffffffffffffffff167fbc7cd75a20ee27fd9adebab32041f755214dbc6bffa90cc0225b39da2e5c2d3b60405160405180910390a25f815111156119b7576119b18282611ab4565b506119c0565b6119bf611b34565b5b5050565b5f6119cd610f90565b5f0160089054906101000a900460ff16905090565b5f819050919050565b5f8173ffffffffffffffffffffffffffffffffffffffff163b03611a4657806040517f4c9c8ce3000000000000000000000000000000000000000000000000000000008152600401611a3d9190611ebf565b60405180910390fd5b80611a727f360894a13ba1a3210667c828492db98dca3e2076cc3735a920a3ca505d382bbc5f1b6119e2565b5f015f6101000a81548173ffffffffffffffffffffffffffffffffffffffff021916908373ffffffffffffffffffffffffffffffffffffffff16021790555050565b60605f5f8473ffffffffffffffffffffffffffffffffffffffff1684604051611add919061268e565b5f60405180830381855af49150503d805f8114611b15576040519150601f19603f3d011682016040523d82523d5f602084013e611b1a565b606091505b5091509150611b2a858383611b70565b9250505092915050565b5f341115611b6e576040517fb398979f00000000000000000000000000000000000000000000000000000000815260040160405180910390fd5b565b606082611b8557611b8082611bfd565b611bf5565b5f8251148015611bab57505f8473ffffffffffffffffffffffffffffffffffffffff163b145b15611bed57836040517f9996b315000000000000000000000000000000000000000000000000000000008152600401611be49190611ebf565b60405180910390fd5b819050611bf6565b5b9392505050565b5f81511115611c0e57805160208201fd5b6040517fd6bda27500000000000000000000000000000000000000000000000000000000815260040160405180910390fd5b5f604051905090565b5f5ffd5b5f5ffd5b5f73ffffffffffffffffffffffffffffffffffffffff82169050919050565b5f611c7a82611c51565b9050919050565b611c8a81611c70565b8114611c94575f5ffd5b50565b5f81359050611ca581611c81565b92915050565b5f5f60408385031215611cc157611cc0611c49565b5b5f611cce85828601611c97565b9250506020611cdf85828601611c97565b9150509250929050565b5f5ffd5b5f5ffd5b5f601f19601f8301169050919050565b7f4e487b71000000000000000000000000000000000000000000000000000000005f52604160045260245ffd5b611d3782611cf1565b810181811067ffffffffffffffff82111715611d5657611d55611d01565b5b80604052505050565b5f611d68611c40565b9050611d748282611d2e565b919050565b5f67ffffffffffffffff821115611d9357611d92611d01565b5b611d9c82611cf1565b9050602081019050919050565b828183375f83830152505050565b5f611dc9611dc484611d79565b611d5f565b905082815260208101848484011115611de557611de4611ced565b5b611df0848285611da9565b509392505050565b5f82601f830112611e0c57611e0b611ce9565b5b8135611e1c848260208601611db7565b91505092915050565b5f5f60408385031215611e3b57611e3a611c49565b5b5f611e4885828601611c97565b925050602083013567ffffffffffffffff811115611e6957611e68611c4d565b5b611e7585828601611df8565b9150509250929050565b5f819050919050565b611e9181611e7f565b82525050565b5f602082019050611eaa5f830184611e88565b92915050565b611eb981611c70565b82525050565b5f602082019050611ed25f830184611eb0565b92915050565b5f819050919050565b611eea81611ed8565b8114611ef4575f5ffd5b50565b5f81359050611f0581611ee1565b92915050565b5f5f5f60608486031215611f2257611f21611c49565b5b5f611f2f86828701611c97565b9350506020611f4086828701611ef7565b9250506040611f5186828701611c97565b9150509250925092565b5f5ffd5b5f5ffd5b5f5f83601f840112611f7857611f77611ce9565b5b8235905067ffffffffffffffff811115611f9557611f94611f5b565b5b602083019150836001820283011115611fb157611fb0611f5f565b5b9250929050565b5f5f5f5f5f5f60a08789031215611fd257611fd1611c49565b5b5f611fdf89828a01611c97565b9650506020611ff089828a01611ef7565b955050604061200189828a01611c97565b945050606061201289828a01611ef7565b935050608087013567ffffffffffffffff81111561203357612032611c4d565b5b61203f89828a01611f63565b92509250509295509295509295565b5f6020828403121561206357612062611c49565b5b5f61207084828501611c97565b91505092915050565b5f5f83601f84011261208e5761208d611ce9565b5b8235905067ffffffffffffffff8111156120ab576120aa611f5b565b5b6020830191508360208202830111156120c7576120c6611f5f565b5b9250929050565b5f5f5f5f606085870312156120e6576120e5611c49565b5b5f6120f387828801611c97565b945050602085013567ffffffffffffffff81111561211457612113611c4d565b5b61212087828801612079565b9350935050604061213387828801611c97565b91505092959194509250565b5f5f5f5f6060858703121561215757612156611c49565b5b5f61216487828801611c97565b945050602061217587828801611ef7565b935050604085013567ffffffffffffffff81111561219657612195611c4d565b5b6121a287828801611f63565b925092505092959194509250565b5f81519050919050565b5f82825260208201905092915050565b8281835e5f83830152505050565b5f6121e2826121b0565b6121ec81856121ba565b93506121fc8185602086016121ca565b61220581611cf1565b840191505092915050565b5f6020820190508181035f83015261222881846121d8565b905092915050565b5f819050919050565b5f67ffffffffffffffff82169050919050565b5f819050919050565b5f61226f61226a61226584612230565b61224c565b612239565b9050919050565b61227f81612255565b82525050565b5f6020820190506122985f830184612276565b92915050565b7f4552524f525f41444d494e2e00000000000000000000000000000000000000005f82015250565b5f6122d2600c836121ba565b91506122dd8261229e565b602082019050919050565b5f6020820190508181035f8301526122ff816122c6565b9050919050565b7f4552524f525f414d4f554e542e000000000000000000000000000000000000005f82015250565b5f61233a600d836121ba565b915061234582612306565b602082019050919050565b5f6020820190508181035f8301526123678161232e565b9050919050565b61237781611ed8565b82525050565b5f6060820190506123905f830186611eb0565b61239d6020830185611eb0565b6123aa604083018461236e565b949350505050565b7f4552524f525f414d4f554e5400000000000000000000000000000000000000005f82015250565b5f6123e6600c836121ba565b91506123f1826123b2565b602082019050919050565b5f6020820190508181035f830152612413816123da565b9050919050565b7f4e487b71000000000000000000000000000000000000000000000000000000005f52603260045260245ffd5b5f61245283856121ba565b935061245f838584611da9565b61246883611cf1565b840190509392505050565b5f60c0820190506124865f83018a611eb0565b6124936020830189611eb0565b6124a0604083018861236e565b6124ad6060830187611eb0565b6124ba608083018661236e565b81810360a08301526124cd818486612447565b905098975050505050505050565b7f5a65726f206164647265737300000000000000000000000000000000000000005f82015250565b5f61250f600c836121ba565b915061251a826124db565b602082019050919050565b5f6020820190508181035f83015261253c81612503565b9050919050565b5f8151905061255181611ee1565b92915050565b5f6020828403121561256c5761256b611c49565b5b5f61257984828501612543565b91505092915050565b5f6040820190506125955f830185611eb0565b6125a26020830184611eb0565b9392505050565b5f6080820190506125bc5f830188611eb0565b6125c96020830187611eb0565b6125d6604083018661236e565b81810360608301526125e9818486612447565b90509695505050505050565b6125fe81611e7f565b8114612608575f5ffd5b50565b5f81519050612619816125f5565b92915050565b5f6020828403121561263457612633611c49565b5b5f6126418482850161260b565b91505092915050565b5f81519050919050565b5f81905092915050565b5f6126688261264a565b6126728185612654565b93506126828185602086016121ca565b80840191505092915050565b5f612699828461265e565b915081905092915050565b5f8115159050919050565b6126b8816126a4565b81146126c2575f5ffd5b50565b5f815190506126d3816126af565b92915050565b5f602082840312156126ee576126ed611c49565b5b5f6126fb848285016126c5565b91505092915050565b7f5472616e7366657248656c7065723a205452414e534645525f46524f4d5f46415f8201527f494c454400000000000000000000000000000000000000000000000000000000602082015250565b5f61275e6024836121ba565b915061276982612704565b604082019050919050565b5f6020820190508181035f83015261278b81612752565b9050919050565b7f5472616e7366657248656c7065723a204554485f5452414e534645525f4641495f8201527f4c45440000000000000000000000000000000000000000000000000000000000602082015250565b5f6127ec6023836121ba565b91506127f782612792565b604082019050919050565b5f6020820190508181035f830152612819816127e0565b9050919050565b7f4d49534d415443485f4c454e47544800000000000000000000000000000000005f82015250565b5f612854600f836121ba565b915061285f82612820565b602082019050919050565b5f6020820190508181035f83015261288181612848565b9050919050565b7f4e487b71000000000000000000000000000000000000000000000000000000005f52601160045260245ffd5b5f6128bf82611ed8565b91506128ca83611ed8565b92508282019050808211156128e2576128e1612888565b5b92915050565b7f4552524f525f50415941424c455f414d4f554e540000000000000000000000005f82015250565b5f61291c6014836121ba565b9150612927826128e8565b602082019050919050565b5f6020820190508181035f83015261294981612910565b9050919050565b5f61295a82611ed8565b915061296583611ed8565b925082820390508181111561297d5761297c612888565b5b92915050565b7f4e4f5f4554485f524551554952454400000000000000000000000000000000005f82015250565b5f6129b7600f836121ba565b91506129c282612983565b602082019050919050565b5f6020820190508181035f8301526129e4816129ab565b905091905056fea2646970667358221220b652314dcfb220e82040f1023b5a0378d85d9fd1826e24cd32eeb24b5dcbe5a364736f6c634300081e0033","linkReferences":{}},"methodIdentifiers":{"UPGRADE_INTERFACE_VERSION()":"ad3cb1cc","admin()":"f851a440","changeAdmin(address)":"8f283970","initialize(address,address)":"485cc955","multiRecharge(address,uint256,address,uint256,string)":"73abf0af","owner()":"8da5cb5b","proxiableUUID()":"52d1902d","recipient()":"66d003ac","renounceOwnership()":"715018a6","singleRecharge(address,uint256,string)":"aa7e7eb9","transferOwnership(address)":"f2fde38b","upgradeToAndCall(address,bytes)":"4f1ef286","withdraw(address,uint256,address)":"69328dec","withdraw_(address,address[],address)":"983b744a"},"id":37}