{"abi":[{"type":"receive","stateMutability":"payable"},{"type":"function","name":"UPGRADE_INTERFACE_VERSION","inputs":[],"outputs":[{"name":"","type":"string","internalType":"string"}],"stateMutability":"view"},{"type":"function","name":"admin","inputs":[],"outputs":[{"name":"","type":"address","internalType":"address"}],"stateMutability":"view"},{"type":"function","name":"changeAdmin","inputs":[{"name":"_newAdmin","type":"address","internalType":"address"}],"outputs":[],"stateMutability":"nonpayable"},{"type":"function","name":"initialize","inputs":[{"name":"_admin","type":"address","internalType":"address"},{"name":"_recipient","type":"address","internalType":"address"}],"outputs":[],"stateMutability":"nonpayable"},{"type":"function","name":"owner","inputs":[],"outputs":[{"name":"","type":"address","internalType":"address"}],"stateMutability":"view"},{"type":"function","name":"proxiableUUID","inputs":[],"outputs":[{"name":"","type":"bytes32","internalType":"bytes32"}],"stateMutability":"view"},{"type":"function","name":"recharge","inputs":[{"name":"token","type":"address","internalType":"address"},{"name":"amount","type":"uint256","internalType":"uint256"},{"name":"remarks","type":"string","internalType":"string"}],"outputs":[],"stateMutability":"payable"},{"type":"function","name":"recipient","inputs":[],"outputs":[{"name":"","type":"address","internalType":"address"}],"stateMutability":"view"},{"type":"function","name":"renounceOwnership","inputs":[],"outputs":[],"stateMutability":"nonpayable"},{"type":"function","name":"transferOwnership","inputs":[{"name":"newOwner","type":"address","internalType":"address"}],"outputs":[],"stateMutability":"nonpayable"},{"type":"function","name":"upgradeToAndCall","inputs":[{"name":"newImplementation","type":"address","internalType":"address"},{"name":"data","type":"bytes","internalType":"bytes"}],"outputs":[],"stateMutability":"payable"},{"type":"function","name":"withdraw_","inputs":[{"name":"token","type":"address","internalType":"address"},{"name":"users","type":"address[]","internalType":"address[]"},{"name":"to","type":"address","internalType":"address"}],"outputs":[],"stateMutability":"nonpayable"},{"type":"event","name":"AdminshipTransferred","inputs":[{"name":"previousAdmin","type":"address","indexed":true,"internalType":"address"},{"name":"newAdmin","type":"address","indexed":true,"internalType":"address"}],"anonymous":false},{"type":"event","name":"Initialized","inputs":[{"name":"version","type":"uint64","indexed":false,"internalType":"uint64"}],"anonymous":false},{"type":"event","name":"OwnershipTransferred","inputs":[{"name":"previousOwner","type":"address","indexed":true,"internalType":"address"},{"name":"newOwner","type":"address","indexed":true,"internalType":"address"}],"anonymous":false},{"type":"event","name":"Upgraded","inputs":[{"name":"implementation","type":"address","indexed":true,"internalType":"address"}],"anonymous":false},{"type":"event","name":"saveOrder","inputs":[{"name":"_users","type":"address","indexed":false,"internalType":"address"},{"name":"_tokenAddress","type":"address","indexed":false,"internalType":"address"},{"name":"_amount","type":"uint256","indexed":false,"internalType":"uint256"},{"name":"_remark","type":"string","indexed":false,"internalType":"string"}],"anonymous":false},{"type":"error","name":"AddressEmptyCode","inputs":[{"name":"target","type":"address","internalType":"address"}]},{"type":"error","name":"ERC1967InvalidImplementation","inputs":[{"name":"implementation","type":"address","internalType":"address"}]},{"type":"error","name":"ERC1967NonPayable","inputs":[]},{"type":"error","name":"FailedCall","inputs":[]},{"type":"error","name":"InvalidInitialization","inputs":[]},{"type":"error","name":"NotInitializing","inputs":[]},{"type":"error","name":"OwnableInvalidOwner","inputs":[{"name":"owner","type":"address","internalType":"address"}]},{"type":"error","name":"OwnableUnauthorizedAccount","inputs":[{"name":"account","type":"address","internalType":"address"}]},{"type":"error","name":"ReentrancyGuardReentrantCall","inputs":[]},{"type":"error","name":"UUPSUnauthorizedCallContext","inputs":[]},{"type":"error","name":"UUPSUnsupportedProxiableUUID","inputs":[{"name":"slot","type":"bytes32","internalType":"bytes32"}]}],"bytecode":{"object":"0x60a06040523073ffffffffffffffffffffffffffffffffffffffff1660809073ffffffffffffffffffffffffffffffffffffffff168152503480156041575f5ffd5b5060015f819055506080516120ef61006f5f395f8181610bdc01528181610c310152610deb01526120ef5ff3fe6080604052600436106100aa575f3560e01c80638f283970116100635780638f2839701461018d578063983b744a146101b5578063ad3cb1cc146101dd578063d863b62314610207578063f2fde38b14610223578063f851a4401461024b576100b1565b8063485cc955146100b55780634f1ef286146100dd57806352d1902d146100f957806366d003ac14610123578063715018a61461014d5780638da5cb5b14610163576100b1565b366100b157005b5f5ffd5b3480156100c0575f5ffd5b506100db60048036038101906100d69190611632565b610275565b005b6100f760048036038101906100f291906117ac565b610486565b005b348015610104575f5ffd5b5061010d6104a5565b60405161011a919061181e565b60405180910390f35b34801561012e575f5ffd5b506101376104d6565b6040516101449190611846565b60405180910390f35b348015610158575f5ffd5b506101616104fb565b005b34801561016e575f5ffd5b5061017761050e565b6040516101849190611846565b60405180910390f35b348015610198575f5ffd5b506101b360048036038101906101ae919061185f565b610543565b005b3480156101c0575f5ffd5b506101db60048036038101906101d691906118e7565b610677565b005b3480156101e8575f5ffd5b506101f16108fd565b6040516101fe91906119b8565b60405180910390f35b610221600480360381019061021c9190611a60565b610936565b005b34801561022e575f5ffd5b506102496004803603810190610244919061185f565b610a89565b005b348015610256575f5ffd5b5061025f610b0d565b60405161026c9190611846565b60405180910390f35b5f61027e610b32565b90505f815f0160089054906101000a900460ff161590505f825f015f9054906101000a900467ffffffffffffffff1690505f5f8267ffffffffffffffff161480156102c65750825b90505f60018367ffffffffffffffff161480156102f957505f3073ffffffffffffffffffffffffffffffffffffffff163b145b905081158015610307575080155b1561033e576040517ff92ee8a900000000000000000000000000000000000000000000000000000000815260040160405180910390fd5b6001855f015f6101000a81548167ffffffffffffffff021916908367ffffffffffffffff160217905550831561038b576001855f0160086101000a81548160ff0219169083151502179055505b61039b610396610b45565b610b4c565b6103a3610bd0565b8660015f6101000a81548173ffffffffffffffffffffffffffffffffffffffff021916908373ffffffffffffffffffffffffffffffffffffffff1602179055508560025f6101000a81548173ffffffffffffffffffffffffffffffffffffffff021916908373ffffffffffffffffffffffffffffffffffffffff160217905550831561047d575f855f0160086101000a81548160ff0219169083151502179055507fc7f505b2f371ae2175ee4913f4499e1f2633a7b5936321eed1cdaeb6115181d260016040516104749190611b26565b60405180910390a15b50505050505050565b61048e610bda565b61049782610cc0565b6104a18282610ccb565b5050565b5f6104ae610de9565b7f360894a13ba1a3210667c828492db98dca3e2076cc3735a920a3ca505d382bbc5f1b905090565b60025f9054906101000a900473ffffffffffffffffffffffffffffffffffffffff1681565b610503610e70565b61050c5f610ef7565b565b5f5f610518610fc8565b9050805f015f9054906101000a900473ffffffffffffffffffffffffffffffffffffffff1691505090565b61054b610e70565b5f73ffffffffffffffffffffffffffffffffffffffff168173ffffffffffffffffffffffffffffffffffffffff16036105b9576040517f08c379a00000000000000000000000000000000000000000000000000000000081526004016105b090611b89565b60405180910390fd5b8073ffffffffffffffffffffffffffffffffffffffff1660015f9054906101000a900473ffffffffffffffffffffffffffffffffffffffff1673ffffffffffffffffffffffffffffffffffffffff167f2931ebb3d190545dcf6801c37aa686b74f2e1000e753d0fac6e471a2aa5a621360405160405180910390a38060015f6101000a81548173ffffffffffffffffffffffffffffffffffffffff021916908373ffffffffffffffffffffffffffffffffffffffff16021790555050565b60015f9054906101000a900473ffffffffffffffffffffffffffffffffffffffff1673ffffffffffffffffffffffffffffffffffffffff163373ffffffffffffffffffffffffffffffffffffffff1614610706576040517f08c379a00000000000000000000000000000000000000000000000000000000081526004016106fd90611bf1565b60405180910390fd5b5f5f90505b838390508110156108f6575f8573ffffffffffffffffffffffffffffffffffffffff166370a0823186868581811061074657610745611c0f565b5b905060200201602081019061075b919061185f565b6040518263ffffffff1660e01b81526004016107779190611846565b602060405180830381865afa158015610792573d5f5f3e3d5ffd5b505050506040513d601f19601f820116820180604052508101906107b69190611c50565b90505f8673ffffffffffffffffffffffffffffffffffffffff1663dd62ed3e8787868181106107e8576107e7611c0f565b5b90506020020160208101906107fd919061185f565b306040518363ffffffff1660e01b815260040161081b929190611c7b565b602060405180830381865afa158015610836573d5f5f3e3d5ffd5b505050506040513d601f19601f8201168201806040525081019061085a9190611c50565b90505f8211156108e75781811061089f5761089e8787878681811061088257610881611c0f565b5b9050602002016020810190610897919061185f565b8685610fef565b5b81811080156108ad57505f81115b156108e6576108e5878787868181106108c9576108c8611c0f565b5b90506020020160208101906108de919061185f565b8684610fef565b5b5b5050808060010191505061070b565b5050505050565b6040518060400160405280600581526020017f352e302e3000000000000000000000000000000000000000000000000000000081525081565b5f8311610978576040517f08c379a000000000000000000000000000000000000000000000000000000000815260040161096f90611cec565b60405180910390fd5b5f73ffffffffffffffffffffffffffffffffffffffff168473ffffffffffffffffffffffffffffffffffffffff16146109dd576109d8843360025f9054906101000a900473ffffffffffffffffffffffffffffffffffffffff1686610fef565b610a44565b82341015610a20576040517f08c379a0000000000000000000000000000000000000000000000000000000008152600401610a1790611d54565b60405180910390fd5b5f8334610a2d9190611d9f565b90505f811115610a4257610a413382611122565b5b505b7f48e57f9ad43d2dc8d5a986194fd61f3b269afbf2c510b2e9364cd42a38218e193385858585604051610a7b959493929190611e0d565b60405180910390a150505050565b610a91610e70565b5f73ffffffffffffffffffffffffffffffffffffffff168173ffffffffffffffffffffffffffffffffffffffff1603610b01575f6040517f1e4fbdf7000000000000000000000000000000000000000000000000000000008152600401610af89190611846565b60405180910390fd5b610b0a81610ef7565b50565b60015f9054906101000a900473ffffffffffffffffffffffffffffffffffffffff1681565b5f5f610b3c61121d565b90508091505090565b5f33905090565b610b54611246565b5f73ffffffffffffffffffffffffffffffffffffffff168173ffffffffffffffffffffffffffffffffffffffff1603610bc4575f6040517f1e4fbdf7000000000000000000000000000000000000000000000000000000008152600401610bbb9190611846565b60405180910390fd5b610bcd81610ef7565b50565b610bd8611246565b565b7f000000000000000000000000000000000000000000000000000000000000000073ffffffffffffffffffffffffffffffffffffffff163073ffffffffffffffffffffffffffffffffffffffff161480610c8757507f000000000000000000000000000000000000000000000000000000000000000073ffffffffffffffffffffffffffffffffffffffff16610c6e611286565b73ffffffffffffffffffffffffffffffffffffffff1614155b15610cbe576040517fe07c8dba00000000000000000000000000000000000000000000000000000000815260040160405180910390fd5b565b610cc8610e70565b50565b8173ffffffffffffffffffffffffffffffffffffffff166352d1902d6040518163ffffffff1660e01b8152600401602060405180830381865afa925050508015610d3357506040513d601f19601f82011682018060405250810190610d309190611e83565b60015b610d7457816040517f4c9c8ce3000000000000000000000000000000000000000000000000000000008152600401610d6b9190611846565b60405180910390fd5b7f360894a13ba1a3210667c828492db98dca3e2076cc3735a920a3ca505d382bbc5f1b8114610dda57806040517faa1d49a4000000000000000000000000000000000000000000000000000000008152600401610dd1919061181e565b60405180910390fd5b610de483836112d9565b505050565b7f000000000000000000000000000000000000000000000000000000000000000073ffffffffffffffffffffffffffffffffffffffff163073ffffffffffffffffffffffffffffffffffffffff1614610e6e576040517fe07c8dba00000000000000000000000000000000000000000000000000000000815260040160405180910390fd5b565b610e78610b45565b73ffffffffffffffffffffffffffffffffffffffff16610e9661050e565b73ffffffffffffffffffffffffffffffffffffffff1614610ef557610eb9610b45565b6040517f118cdaa7000000000000000000000000000000000000000000000000000000008152600401610eec9190611846565b60405180910390fd5b565b5f610f00610fc8565b90505f815f015f9054906101000a900473ffffffffffffffffffffffffffffffffffffffff16905082825f015f6101000a81548173ffffffffffffffffffffffffffffffffffffffff021916908373ffffffffffffffffffffffffffffffffffffffff1602179055508273ffffffffffffffffffffffffffffffffffffffff168173ffffffffffffffffffffffffffffffffffffffff167f8be0079c531659141344cd1fd0a4f28419497f9722a3daafe3b4186f6b6457e060405160405180910390a3505050565b5f7f9016d09d72d40fdae2fd8ceac6b6234c7706214fd39c1cd1e609a0528c199300905090565b5f5f8573ffffffffffffffffffffffffffffffffffffffff166323b872dd86868660405160240161102293929190611eae565b6040516020818303038152906040529060e01b6020820180517bffffffffffffffffffffffffffffffffffffffffffffffffffffffff83818316178352505050506040516110709190611f27565b5f604051808303815f865af19150503d805f81146110a9576040519150601f19603f3d011682016040523d82523d5f602084013e6110ae565b606091505b50915091508180156110db57505f815114806110da5750808060200190518101906110d99190611f72565b5b5b61111a576040517f08c379a00000000000000000000000000000000000000000000000000000000081526004016111119061200d565b60405180910390fd5b505050505050565b5f8273ffffffffffffffffffffffffffffffffffffffff16825f67ffffffffffffffff81111561115557611154611688565b5b6040519080825280601f01601f1916602001820160405280156111875781602001600182028036833780820191505090505b506040516111959190611f27565b5f6040518083038185875af1925050503d805f81146111cf576040519150601f19603f3d011682016040523d82523d5f602084013e6111d4565b606091505b5050905080611218576040517f08c379a000000000000000000000000000000000000000000000000000000000815260040161120f9061209b565b60405180910390fd5b505050565b5f7ff0c57e16840df040f15088dc2f81fe391c3923bec73e23a9662efc9c229c6a005f1b905090565b61124e61134b565b611284576040517fd7e6bcf800000000000000000000000000000000000000000000000000000000815260040160405180910390fd5b565b5f6112b27f360894a13ba1a3210667c828492db98dca3e2076cc3735a920a3ca505d382bbc5f1b611369565b5f015f9054906101000a900473ffffffffffffffffffffffffffffffffffffffff16905090565b6112e282611372565b8173ffffffffffffffffffffffffffffffffffffffff167fbc7cd75a20ee27fd9adebab32041f755214dbc6bffa90cc0225b39da2e5c2d3b60405160405180910390a25f8151111561133e57611338828261143b565b50611347565b6113466114bb565b5b5050565b5f611354610b32565b5f0160089054906101000a900460ff16905090565b5f819050919050565b5f8173ffffffffffffffffffffffffffffffffffffffff163b036113cd57806040517f4c9c8ce30000000000000000000000000000000000000000000000000000000081526004016113c49190611846565b60405180910390fd5b806113f97f360894a13ba1a3210667c828492db98dca3e2076cc3735a920a3ca505d382bbc5f1b611369565b5f015f6101000a81548173ffffffffffffffffffffffffffffffffffffffff021916908373ffffffffffffffffffffffffffffffffffffffff16021790555050565b60605f5f8473ffffffffffffffffffffffffffffffffffffffff16846040516114649190611f27565b5f60405180830381855af49150503d805f811461149c576040519150601f19603f3d011682016040523d82523d5f602084013e6114a1565b606091505b50915091506114b18583836114f7565b9250505092915050565b5f3411156114f5576040517fb398979f00000000000000000000000000000000000000000000000000000000815260040160405180910390fd5b565b60608261150c5761150782611584565b61157c565b5f825114801561153257505f8473ffffffffffffffffffffffffffffffffffffffff163b145b1561157457836040517f9996b31500000000000000000000000000000000000000000000000000000000815260040161156b9190611846565b60405180910390fd5b81905061157d565b5b9392505050565b5f8151111561159557805160208201fd5b6040517fd6bda27500000000000000000000000000000000000000000000000000000000815260040160405180910390fd5b5f604051905090565b5f5ffd5b5f5ffd5b5f73ffffffffffffffffffffffffffffffffffffffff82169050919050565b5f611601826115d8565b9050919050565b611611816115f7565b811461161b575f5ffd5b50565b5f8135905061162c81611608565b92915050565b5f5f60408385031215611648576116476115d0565b5b5f6116558582860161161e565b92505060206116668582860161161e565b9150509250929050565b5f5ffd5b5f5ffd5b5f601f19601f8301169050919050565b7f4e487b71000000000000000000000000000000000000000000000000000000005f52604160045260245ffd5b6116be82611678565b810181811067ffffffffffffffff821117156116dd576116dc611688565b5b80604052505050565b5f6116ef6115c7565b90506116fb82826116b5565b919050565b5f67ffffffffffffffff82111561171a57611719611688565b5b61172382611678565b9050602081019050919050565b828183375f83830152505050565b5f61175061174b84611700565b6116e6565b90508281526020810184848401111561176c5761176b611674565b5b611777848285611730565b509392505050565b5f82601f83011261179357611792611670565b5b81356117a384826020860161173e565b91505092915050565b5f5f604083850312156117c2576117c16115d0565b5b5f6117cf8582860161161e565b925050602083013567ffffffffffffffff8111156117f0576117ef6115d4565b5b6117fc8582860161177f565b9150509250929050565b5f819050919050565b61181881611806565b82525050565b5f6020820190506118315f83018461180f565b92915050565b611840816115f7565b82525050565b5f6020820190506118595f830184611837565b92915050565b5f60208284031215611874576118736115d0565b5b5f6118818482850161161e565b91505092915050565b5f5ffd5b5f5ffd5b5f5f83601f8401126118a7576118a6611670565b5b8235905067ffffffffffffffff8111156118c4576118c361188a565b5b6020830191508360208202830111156118e0576118df61188e565b5b9250929050565b5f5f5f5f606085870312156118ff576118fe6115d0565b5b5f61190c8782880161161e565b945050602085013567ffffffffffffffff81111561192d5761192c6115d4565b5b61193987828801611892565b9350935050604061194c8782880161161e565b91505092959194509250565b5f81519050919050565b5f82825260208201905092915050565b8281835e5f83830152505050565b5f61198a82611958565b6119948185611962565b93506119a4818560208601611972565b6119ad81611678565b840191505092915050565b5f6020820190508181035f8301526119d08184611980565b905092915050565b5f819050919050565b6119ea816119d8565b81146119f4575f5ffd5b50565b5f81359050611a05816119e1565b92915050565b5f5f83601f840112611a2057611a1f611670565b5b8235905067ffffffffffffffff811115611a3d57611a3c61188a565b5b602083019150836001820283011115611a5957611a5861188e565b5b9250929050565b5f5f5f5f60608587031215611a7857611a776115d0565b5b5f611a858782880161161e565b9450506020611a96878288016119f7565b935050604085013567ffffffffffffffff811115611ab757611ab66115d4565b5b611ac387828801611a0b565b925092505092959194509250565b5f819050919050565b5f67ffffffffffffffff82169050919050565b5f819050919050565b5f611b10611b0b611b0684611ad1565b611aed565b611ada565b9050919050565b611b2081611af6565b82525050565b5f602082019050611b395f830184611b17565b92915050565b7f5a65726f206164647265737300000000000000000000000000000000000000005f82015250565b5f611b73600c83611962565b9150611b7e82611b3f565b602082019050919050565b5f6020820190508181035f830152611ba081611b67565b9050919050565b7f4552524f525f41444d494e2e00000000000000000000000000000000000000005f82015250565b5f611bdb600c83611962565b9150611be682611ba7565b602082019050919050565b5f6020820190508181035f830152611c0881611bcf565b9050919050565b7f4e487b71000000000000000000000000000000000000000000000000000000005f52603260045260245ffd5b5f81519050611c4a816119e1565b92915050565b5f60208284031215611c6557611c646115d0565b5b5f611c7284828501611c3c565b91505092915050565b5f604082019050611c8e5f830185611837565b611c9b6020830184611837565b9392505050565b7f4552524f525f414d4f554e542e000000000000000000000000000000000000005f82015250565b5f611cd6600d83611962565b9150611ce182611ca2565b602082019050919050565b5f6020820190508181035f830152611d0381611cca565b9050919050565b7f4552524f525f50415941424c455f414d4f554e542e00000000000000000000005f82015250565b5f611d3e601583611962565b9150611d4982611d0a565b602082019050919050565b5f6020820190508181035f830152611d6b81611d32565b9050919050565b7f4e487b71000000000000000000000000000000000000000000000000000000005f52601160045260245ffd5b5f611da9826119d8565b9150611db4836119d8565b9250828203905081811115611dcc57611dcb611d72565b5b92915050565b611ddb816119d8565b82525050565b5f611dec8385611962565b9350611df9838584611730565b611e0283611678565b840190509392505050565b5f608082019050611e205f830188611837565b611e2d6020830187611837565b611e3a6040830186611dd2565b8181036060830152611e4d818486611de1565b90509695505050505050565b611e6281611806565b8114611e6c575f5ffd5b50565b5f81519050611e7d81611e59565b92915050565b5f60208284031215611e9857611e976115d0565b5b5f611ea584828501611e6f565b91505092915050565b5f606082019050611ec15f830186611837565b611ece6020830185611837565b611edb6040830184611dd2565b949350505050565b5f81519050919050565b5f81905092915050565b5f611f0182611ee3565b611f0b8185611eed565b9350611f1b818560208601611972565b80840191505092915050565b5f611f328284611ef7565b915081905092915050565b5f8115159050919050565b611f5181611f3d565b8114611f5b575f5ffd5b50565b5f81519050611f6c81611f48565b92915050565b5f60208284031215611f8757611f866115d0565b5b5f611f9484828501611f5e565b91505092915050565b7f5472616e7366657248656c7065723a205452414e534645525f46524f4d5f46415f8201527f494c454400000000000000000000000000000000000000000000000000000000602082015250565b5f611ff7602483611962565b915061200282611f9d565b604082019050919050565b5f6020820190508181035f83015261202481611feb565b9050919050565b7f5472616e7366657248656c7065723a204554485f5452414e534645525f4641495f8201527f4c45440000000000000000000000000000000000000000000000000000000000602082015250565b5f612085602383611962565b91506120908261202b565b604082019050919050565b5f6020820190508181035f8301526120b281612079565b905091905056fea2646970667358221220bcebe441173432d297581ccbec6e3bc0b428e701726a78e987e000b3975d6d2764736f6c634300081e0033","linkReferences":{}},"methodIdentifiers":{"UPGRADE_INTERFACE_VERSION()":"ad3cb1cc","admin()":"f851a440","changeAdmin(address)":"8f283970","initialize(address,address)":"485cc955","owner()":"8da5cb5b","proxiableUUID()":"52d1902d","recharge(address,uint256,string)":"d863b623","recipient()":"66d003ac","renounceOwnership()":"715018a6","transferOwnership(address)":"f2fde38b","upgradeToAndCall(address,bytes)":"4f1ef286","withdraw_(address,address[],address)":"983b744a"},"id":30}