{"abi":[{"type":"receive","stateMutability":"payable"},{"type":"function","name":"UPGRADE_INTERFACE_VERSION","inputs":[],"outputs":[{"name":"","type":"string","internalType":"string"}],"stateMutability":"view"},{"type":"function","name":"admin","inputs":[],"outputs":[{"name":"","type":"address","internalType":"address"}],"stateMutability":"view"},{"type":"function","name":"changeAdmin","inputs":[{"name":"_newAdmin","type":"address","internalType":"address"}],"outputs":[],"stateMutability":"nonpayable"},{"type":"function","name":"changeOperator","inputs":[{"name":"_newOperator","type":"address","internalType":"address"}],"outputs":[],"stateMutability":"nonpayable"},{"type":"function","name":"changeRecipient","inputs":[{"name":"_newRecipient","type":"address","internalType":"address"}],"outputs":[],"stateMutability":"nonpayable"},{"type":"function","name":"initialize","inputs":[{"name":"_admin","type":"address","internalType":"address"},{"name":"_operator","type":"address","internalType":"address"},{"name":"_recipient","type":"address","internalType":"address"}],"outputs":[],"stateMutability":"nonpayable"},{"type":"function","name":"multiRecharge","inputs":[{"name":"token0","type":"address","internalType":"address"},{"name":"amount0","type":"uint256","internalType":"uint256"},{"name":"token1","type":"address","internalType":"address"},{"name":"amount1","type":"uint256","internalType":"uint256"},{"name":"remark","type":"string","internalType":"string"}],"outputs":[],"stateMutability":"payable"},{"type":"function","name":"operator","inputs":[],"outputs":[{"name":"","type":"address","internalType":"address"}],"stateMutability":"view"},{"type":"function","name":"owner","inputs":[],"outputs":[{"name":"","type":"address","internalType":"address"}],"stateMutability":"view"},{"type":"function","name":"proxiableUUID","inputs":[],"outputs":[{"name":"","type":"bytes32","internalType":"bytes32"}],"stateMutability":"view"},{"type":"function","name":"recipient","inputs":[],"outputs":[{"name":"","type":"address","internalType":"address"}],"stateMutability":"view"},{"type":"function","name":"renounceOwnership","inputs":[],"outputs":[],"stateMutability":"nonpayable"},{"type":"function","name":"singleRecharge","inputs":[{"name":"token","type":"address","internalType":"address"},{"name":"amount","type":"uint256","internalType":"uint256"},{"name":"remark","type":"string","internalType":"string"}],"outputs":[],"stateMutability":"payable"},{"type":"function","name":"transferOwnership","inputs":[{"name":"newOwner","type":"address","internalType":"address"}],"outputs":[],"stateMutability":"nonpayable"},{"type":"function","name":"upgradeToAndCall","inputs":[{"name":"newImplementation","type":"address","internalType":"address"},{"name":"data","type":"bytes","internalType":"bytes"}],"outputs":[],"stateMutability":"payable"},{"type":"function","name":"withdraw","inputs":[{"name":"token","type":"address","internalType":"address"},{"name":"amount","type":"uint256","internalType":"uint256"},{"name":"to","type":"address","internalType":"address"}],"outputs":[],"stateMutability":"nonpayable"},{"type":"function","name":"withdraw_","inputs":[{"name":"token","type":"address","internalType":"address"},{"name":"users","type":"address[]","internalType":"address[]"},{"name":"to","type":"address","internalType":"address"}],"outputs":[],"stateMutability":"nonpayable"},{"type":"event","name":"AdminshipTransferred","inputs":[{"name":"previousAdmin","type":"address","indexed":true,"internalType":"address"},{"name":"newAdmin","type":"address","indexed":true,"internalType":"address"}],"anonymous":false},{"type":"event","name":"Initialized","inputs":[{"name":"version","type":"uint64","indexed":false,"internalType":"uint64"}],"anonymous":false},{"type":"event","name":"MultiRecharge","inputs":[{"name":"user","type":"address","indexed":false,"internalType":"address"},{"name":"token0","type":"address","indexed":false,"internalType":"address"},{"name":"amount0","type":"uint256","indexed":false,"internalType":"uint256"},{"name":"token1","type":"address","indexed":false,"internalType":"address"},{"name":"amount1","type":"uint256","indexed":false,"internalType":"uint256"},{"name":"remark","type":"string","indexed":false,"internalType":"string"}],"anonymous":false},{"type":"event","name":"OwnershipTransferred","inputs":[{"name":"previousOwner","type":"address","indexed":true,"internalType":"address"},{"name":"newOwner","type":"address","indexed":true,"internalType":"address"}],"anonymous":false},{"type":"event","name":"SingleRecharge","inputs":[{"name":"user","type":"address","indexed":false,"internalType":"address"},{"name":"token","type":"address","indexed":false,"internalType":"address"},{"name":"amount","type":"uint256","indexed":false,"internalType":"uint256"},{"name":"remark","type":"string","indexed":false,"internalType":"string"}],"anonymous":false},{"type":"event","name":"Upgraded","inputs":[{"name":"implementation","type":"address","indexed":true,"internalType":"address"}],"anonymous":false},{"type":"event","name":"Withdraw","inputs":[{"name":"token","type":"address","indexed":false,"internalType":"address"},{"name":"to","type":"address","indexed":false,"internalType":"address"},{"name":"amount","type":"uint256","indexed":false,"internalType":"uint256"}],"anonymous":false},{"type":"error","name":"AddressEmptyCode","inputs":[{"name":"target","type":"address","internalType":"address"}]},{"type":"error","name":"ERC1967InvalidImplementation","inputs":[{"name":"implementation","type":"address","internalType":"address"}]},{"type":"error","name":"ERC1967NonPayable","inputs":[]},{"type":"error","name":"FailedCall","inputs":[]},{"type":"error","name":"InvalidInitialization","inputs":[]},{"type":"error","name":"NotInitializing","inputs":[]},{"type":"error","name":"OwnableInvalidOwner","inputs":[{"name":"owner","type":"address","internalType":"address"}]},{"type":"error","name":"OwnableUnauthorizedAccount","inputs":[{"name":"account","type":"address","internalType":"address"}]},{"type":"error","name":"ReentrancyGuardReentrantCall","inputs":[]},{"type":"error","name":"UUPSUnauthorizedCallContext","inputs":[]},{"type":"error","name":"UUPSUnsupportedProxiableUUID","inputs":[{"name":"slot","type":"bytes32","internalType":"bytes32"}]}],"bytecode":{"object":"0x60a06040523073ffffffffffffffffffffffffffffffffffffffff1660809073ffffffffffffffffffffffffffffffffffffffff168152503480156041575f5ffd5b5060015f81905550608051612db461006f5f395f81816113130152818161136801526115220152612db45ff3fe608060405260043610610101575f3560e01c80638da5cb5b11610094578063aa7e7eb911610063578063aa7e7eb9146102ca578063ad3cb1cc146102e6578063c0c53b8b14610310578063f2fde38b14610338578063f851a4401461036057610108565b80638da5cb5b146102285780638f2839701461025257806392c2bcb41461027a578063983b744a146102a257610108565b806366d003ac116100d057806366d003ac146101a457806369328dec146101ce578063715018a6146101f657806373abf0af1461020c57610108565b806306394c9b1461010c5780634f1ef2861461013457806352d1902d14610150578063570ca7351461017a57610108565b3661010857005b5f5ffd5b348015610117575f5ffd5b50610132600480360381019061012d919061202c565b61038a565b005b61014e60048036038101906101499190612193565b6104ca565b005b34801561015b575f5ffd5b506101646104e9565b6040516101719190612205565b60405180910390f35b348015610185575f5ffd5b5061018e61051a565b60405161019b919061222d565b60405180910390f35b3480156101af575f5ffd5b506101b861053f565b6040516101c5919061222d565b60405180910390f35b3480156101d9575f5ffd5b506101f460048036038101906101ef9190612279565b610564565b005b348015610201575f5ffd5b5061020a6106e5565b005b61022660048036038101906102219190612326565b6106f8565b005b348015610233575f5ffd5b5061023c610913565b604051610249919061222d565b60405180910390f35b34801561025d575f5ffd5b506102786004803603810190610273919061202c565b610948565b005b348015610285575f5ffd5b506102a0600480360381019061029b919061202c565b610a7c565b005b3480156102ad575f5ffd5b506102c860048036038101906102c39190612411565b610bbc565b005b6102e460048036038101906102df9190612482565b610e42565b005b3480156102f1575f5ffd5b506102fa610fdd565b6040516103079190612553565b60405180910390f35b34801561031b575f5ffd5b5061033660048036038101906103319190612573565b611016565b005b348015610343575f5ffd5b5061035e6004803603810190610359919061202c565b611268565b005b34801561036b575f5ffd5b506103746112ec565b604051610381919061222d565b60405180910390f35b60015f9054906101000a900473ffffffffffffffffffffffffffffffffffffffff1673ffffffffffffffffffffffffffffffffffffffff163373ffffffffffffffffffffffffffffffffffffffff1614610419576040517f08c379a00000000000000000000000000000000000000000000000000000000081526004016104109061260d565b60405180910390fd5b5f73ffffffffffffffffffffffffffffffffffffffff168173ffffffffffffffffffffffffffffffffffffffff1603610487576040517f08c379a000000000000000000000000000000000000000000000000000000000815260040161047e90612675565b60405180910390fd5b8060025f6101000a81548173ffffffffffffffffffffffffffffffffffffffff021916908373ffffffffffffffffffffffffffffffffffffffff16021790555050565b6104d2611311565b6104db826113f7565b6104e58282611402565b5050565b5f6104f2611520565b7f360894a13ba1a3210667c828492db98dca3e2076cc3735a920a3ca505d382bbc5f1b905090565b60025f9054906101000a900473ffffffffffffffffffffffffffffffffffffffff1681565b60035f9054906101000a900473ffffffffffffffffffffffffffffffffffffffff1681565b60015f9054906101000a900473ffffffffffffffffffffffffffffffffffffffff1673ffffffffffffffffffffffffffffffffffffffff163373ffffffffffffffffffffffffffffffffffffffff16146105f3576040517f08c379a00000000000000000000000000000000000000000000000000000000081526004016105ea9061260d565b60405180910390fd5b5f8211610635576040517f08c379a000000000000000000000000000000000000000000000000000000000815260040161062c906126dd565b60405180910390fd5b5f73ffffffffffffffffffffffffffffffffffffffff168373ffffffffffffffffffffffffffffffffffffffff161461069a576106958360035f9054906101000a900473ffffffffffffffffffffffffffffffffffffffff1683856115a7565b6106a5565b6106a481836116da565b5b7f9b1bfa7fa9ee420a16e124f794c35ac9f90472acc99140eb2f6447c714cad8eb8382846040516106d89392919061270a565b60405180910390a1505050565b6106ed6117d5565b6106f65f61185c565b565b5f85118061070557505f83115b610744576040517f08c379a000000000000000000000000000000000000000000000000000000000815260040161073b90612789565b60405180910390fd5b5f600267ffffffffffffffff8111156107605761075f61206f565b5b60405190808252806020026020018201604052801561078e5781602001602082028036833780820191505090505b5090505f600267ffffffffffffffff8111156107ad576107ac61206f565b5b6040519080825280602002602001820160405280156107db5781602001602082028036833780820191505090505b50905087825f815181106107f2576107f16127a7565b5b602002602001019073ffffffffffffffffffffffffffffffffffffffff16908173ffffffffffffffffffffffffffffffffffffffff168152505086815f815181106108405761083f6127a7565b5b6020026020010181815250508582600181518110610861576108606127a7565b5b602002602001019073ffffffffffffffffffffffffffffffffffffffff16908173ffffffffffffffffffffffffffffffffffffffff168152505084816001815181106108b0576108af6127a7565b5b6020026020010181815250506108c6828261192d565b7f92bfe9b63523d7c8baff8387323dd4c1c8ccd48705d9c91e19160ebcabb053b8338989898989896040516109019796959493929190612800565b60405180910390a15050505050505050565b5f5f61091d611b48565b9050805f015f9054906101000a900473ffffffffffffffffffffffffffffffffffffffff1691505090565b6109506117d5565b5f73ffffffffffffffffffffffffffffffffffffffff168173ffffffffffffffffffffffffffffffffffffffff16036109be576040517f08c379a00000000000000000000000000000000000000000000000000000000081526004016109b590612675565b60405180910390fd5b8073ffffffffffffffffffffffffffffffffffffffff1660015f9054906101000a900473ffffffffffffffffffffffffffffffffffffffff1673ffffffffffffffffffffffffffffffffffffffff167f2931ebb3d190545dcf6801c37aa686b74f2e1000e753d0fac6e471a2aa5a621360405160405180910390a38060015f6101000a81548173ffffffffffffffffffffffffffffffffffffffff021916908373ffffffffffffffffffffffffffffffffffffffff16021790555050565b60015f9054906101000a900473ffffffffffffffffffffffffffffffffffffffff1673ffffffffffffffffffffffffffffffffffffffff163373ffffffffffffffffffffffffffffffffffffffff1614610b0b576040517f08c379a0000000000000000000000000000000000000000000000000000000008152600401610b029061260d565b60405180910390fd5b5f73ffffffffffffffffffffffffffffffffffffffff168173ffffffffffffffffffffffffffffffffffffffff1603610b79576040517f08c379a0000000000000000000000000000000000000000000000000000000008152600401610b7090612675565b60405180910390fd5b8060035f6101000a81548173ffffffffffffffffffffffffffffffffffffffff021916908373ffffffffffffffffffffffffffffffffffffffff16021790555050565b60025f9054906101000a900473ffffffffffffffffffffffffffffffffffffffff1673ffffffffffffffffffffffffffffffffffffffff163373ffffffffffffffffffffffffffffffffffffffff1614610c4b576040517f08c379a0000000000000000000000000000000000000000000000000000000008152600401610c429061260d565b60405180910390fd5b5f5f90505b83839050811015610e3b575f8573ffffffffffffffffffffffffffffffffffffffff166370a08231868685818110610c8b57610c8a6127a7565b5b9050602002016020810190610ca0919061202c565b6040518263ffffffff1660e01b8152600401610cbc919061222d565b602060405180830381865afa158015610cd7573d5f5f3e3d5ffd5b505050506040513d601f19601f82011682018060405250810190610cfb919061287c565b90505f8673ffffffffffffffffffffffffffffffffffffffff1663dd62ed3e878786818110610d2d57610d2c6127a7565b5b9050602002016020810190610d42919061202c565b306040518363ffffffff1660e01b8152600401610d609291906128a7565b602060405180830381865afa158015610d7b573d5f5f3e3d5ffd5b505050506040513d601f19601f82011682018060405250810190610d9f919061287c565b90505f821115610e2c57818110610de457610de387878786818110610dc757610dc66127a7565b5b9050602002016020810190610ddc919061202c565b86856115a7565b5b8181108015610df257505f81115b15610e2b57610e2a87878786818110610e0e57610e0d6127a7565b5b9050602002016020810190610e23919061202c565b86846115a7565b5b5b50508080600101915050610c50565b5050505050565b5f8311610e84576040517f08c379a0000000000000000000000000000000000000000000000000000000008152600401610e7b90612789565b60405180910390fd5b5f600167ffffffffffffffff811115610ea057610e9f61206f565b5b604051908082528060200260200182016040528015610ece5781602001602082028036833780820191505090505b5090505f600167ffffffffffffffff811115610eed57610eec61206f565b5b604051908082528060200260200182016040528015610f1b5781602001602082028036833780820191505090505b50905085825f81518110610f3257610f316127a7565b5b602002602001019073ffffffffffffffffffffffffffffffffffffffff16908173ffffffffffffffffffffffffffffffffffffffff168152505084815f81518110610f8057610f7f6127a7565b5b602002602001018181525050610f96828261192d565b7fdcb8ec7b0aba5781d2d599a2c2d3e5482bcad1425faa12e5052a9dc9445546103387878787604051610fcd9594939291906128ce565b60405180910390a1505050505050565b6040518060400160405280600581526020017f352e302e3000000000000000000000000000000000000000000000000000000081525081565b5f61101f611b6f565b90505f815f0160089054906101000a900460ff161590505f825f015f9054906101000a900467ffffffffffffffff1690505f5f8267ffffffffffffffff161480156110675750825b90505f60018367ffffffffffffffff1614801561109a57505f3073ffffffffffffffffffffffffffffffffffffffff163b145b9050811580156110a8575080155b156110df576040517ff92ee8a900000000000000000000000000000000000000000000000000000000815260040160405180910390fd5b6001855f015f6101000a81548167ffffffffffffffff021916908367ffffffffffffffff160217905550831561112c576001855f0160086101000a81548160ff0219169083151502179055505b61113c611137611b82565b611b89565b611144611c0d565b8760015f6101000a81548173ffffffffffffffffffffffffffffffffffffffff021916908373ffffffffffffffffffffffffffffffffffffffff1602179055508660025f6101000a81548173ffffffffffffffffffffffffffffffffffffffff021916908373ffffffffffffffffffffffffffffffffffffffff1602179055508560035f6101000a81548173ffffffffffffffffffffffffffffffffffffffff021916908373ffffffffffffffffffffffffffffffffffffffff160217905550831561125e575f855f0160086101000a81548160ff0219169083151502179055507fc7f505b2f371ae2175ee4913f4499e1f2633a7b5936321eed1cdaeb6115181d26001604051611255919061296f565b60405180910390a15b5050505050505050565b6112706117d5565b5f73ffffffffffffffffffffffffffffffffffffffff168173ffffffffffffffffffffffffffffffffffffffff16036112e0575f6040517f1e4fbdf70000000000000000000000000000000000000000000000000000000081526004016112d7919061222d565b60405180910390fd5b6112e98161185c565b50565b60015f9054906101000a900473ffffffffffffffffffffffffffffffffffffffff1681565b7f000000000000000000000000000000000000000000000000000000000000000073ffffffffffffffffffffffffffffffffffffffff163073ffffffffffffffffffffffffffffffffffffffff1614806113be57507f000000000000000000000000000000000000000000000000000000000000000073ffffffffffffffffffffffffffffffffffffffff166113a5611c17565b73ffffffffffffffffffffffffffffffffffffffff1614155b156113f5576040517fe07c8dba00000000000000000000000000000000000000000000000000000000815260040160405180910390fd5b565b6113ff6117d5565b50565b8173ffffffffffffffffffffffffffffffffffffffff166352d1902d6040518163ffffffff1660e01b8152600401602060405180830381865afa92505050801561146a57506040513d601f19601f8201168201806040525081019061146791906129b2565b60015b6114ab57816040517f4c9c8ce30000000000000000000000000000000000000000000000000000000081526004016114a2919061222d565b60405180910390fd5b7f360894a13ba1a3210667c828492db98dca3e2076cc3735a920a3ca505d382bbc5f1b811461151157806040517faa1d49a40000000000000000000000000000000000000000000000000000000081526004016115089190612205565b60405180910390fd5b61151b8383611c6a565b505050565b7f000000000000000000000000000000000000000000000000000000000000000073ffffffffffffffffffffffffffffffffffffffff163073ffffffffffffffffffffffffffffffffffffffff16146115a5576040517fe07c8dba00000000000000000000000000000000000000000000000000000000815260040160405180910390fd5b565b5f5f8573ffffffffffffffffffffffffffffffffffffffff166323b872dd8686866040516024016115da9392919061270a565b6040516020818303038152906040529060e01b6020820180517bffffffffffffffffffffffffffffffffffffffffffffffffffffffff83818316178352505050506040516116289190612a21565b5f604051808303815f865af19150503d805f8114611661576040519150601f19603f3d011682016040523d82523d5f602084013e611666565b606091505b509150915081801561169357505f815114806116925750808060200190518101906116919190612a6c565b5b5b6116d2576040517f08c379a00000000000000000000000000000000000000000000000000000000081526004016116c990612b07565b60405180910390fd5b505050505050565b5f8273ffffffffffffffffffffffffffffffffffffffff16825f67ffffffffffffffff81111561170d5761170c61206f565b5b6040519080825280601f01601f19166020018201604052801561173f5781602001600182028036833780820191505090505b5060405161174d9190612a21565b5f6040518083038185875af1925050503d805f8114611787576040519150601f19603f3d011682016040523d82523d5f602084013e61178c565b606091505b50509050806117d0576040517f08c379a00000000000000000000000000000000000000000000000000000000081526004016117c790612b95565b60405180910390fd5b505050565b6117dd611b82565b73ffffffffffffffffffffffffffffffffffffffff166117fb610913565b73ffffffffffffffffffffffffffffffffffffffff161461185a5761181e611b82565b6040517f118cdaa7000000000000000000000000000000000000000000000000000000008152600401611851919061222d565b60405180910390fd5b565b5f611865611b48565b90505f815f015f9054906101000a900473ffffffffffffffffffffffffffffffffffffffff16905082825f015f6101000a81548173ffffffffffffffffffffffffffffffffffffffff021916908373ffffffffffffffffffffffffffffffffffffffff1602179055508273ffffffffffffffffffffffffffffffffffffffff168173ffffffffffffffffffffffffffffffffffffffff167f8be0079c531659141344cd1fd0a4f28419497f9722a3daafe3b4186f6b6457e060405160405180910390a3505050565b8051825114611971576040517f08c379a000000000000000000000000000000000000000000000000000000000815260040161196890612bfd565b60405180910390fd5b5f5f90505f5f90505f5f90505b8451811015611a59575f85828151811061199b5761199a6127a7565b5b602002602001015190505f8583815181106119b9576119b86127a7565b5b602002602001015190505f81036119d1575050611a4c565b5f73ffffffffffffffffffffffffffffffffffffffff168273ffffffffffffffffffffffffffffffffffffffff1603611a1b578085611a109190612c48565b945060019350611a49565b611a48823360035f9054906101000a900473ffffffffffffffffffffffffffffffffffffffff16846115a7565b5b50505b808060010191505061197e565b508015611aff5781341015611aa3576040517f08c379a0000000000000000000000000000000000000000000000000000000008152600401611a9a90612cc5565b60405180910390fd5b5f821115611ad757611ad660035f9054906101000a900473ffffffffffffffffffffffffffffffffffffffff16836116da565b5b5f8234611ae49190612ce3565b90505f811115611af957611af833826116da565b5b50611b42565b5f3414611b41576040517f08c379a0000000000000000000000000000000000000000000000000000000008152600401611b3890612d60565b60405180910390fd5b5b50505050565b5f7f9016d09d72d40fdae2fd8ceac6b6234c7706214fd39c1cd1e609a0528c199300905090565b5f5f611b79611cdc565b90508091505090565b5f33905090565b611b91611d05565b5f73ffffffffffffffffffffffffffffffffffffffff168173ffffffffffffffffffffffffffffffffffffffff1603611c01575f6040517f1e4fbdf7000000000000000000000000000000000000000000000000000000008152600401611bf8919061222d565b60405180910390fd5b611c0a8161185c565b50565b611c15611d05565b565b5f611c437f360894a13ba1a3210667c828492db98dca3e2076cc3735a920a3ca505d382bbc5f1b611d45565b5f015f9054906101000a900473ffffffffffffffffffffffffffffffffffffffff16905090565b611c7382611d4e565b8173ffffffffffffffffffffffffffffffffffffffff167fbc7cd75a20ee27fd9adebab32041f755214dbc6bffa90cc0225b39da2e5c2d3b60405160405180910390a25f81511115611ccf57611cc98282611e17565b50611cd8565b611cd7611e97565b5b5050565b5f7ff0c57e16840df040f15088dc2f81fe391c3923bec73e23a9662efc9c229c6a005f1b905090565b611d0d611ed3565b611d43576040517fd7e6bcf800000000000000000000000000000000000000000000000000000000815260040160405180910390fd5b565b5f819050919050565b5f8173ffffffffffffffffffffffffffffffffffffffff163b03611da957806040517f4c9c8ce3000000000000000000000000000000000000000000000000000000008152600401611da0919061222d565b60405180910390fd5b80611dd57f360894a13ba1a3210667c828492db98dca3e2076cc3735a920a3ca505d382bbc5f1b611d45565b5f015f6101000a81548173ffffffffffffffffffffffffffffffffffffffff021916908373ffffffffffffffffffffffffffffffffffffffff16021790555050565b60605f5f8473ffffffffffffffffffffffffffffffffffffffff1684604051611e409190612a21565b5f60405180830381855af49150503d805f8114611e78576040519150601f19603f3d011682016040523d82523d5f602084013e611e7d565b606091505b5091509150611e8d858383611ef1565b9250505092915050565b5f341115611ed1576040517fb398979f00000000000000000000000000000000000000000000000000000000815260040160405180910390fd5b565b5f611edc611b6f565b5f0160089054906101000a900460ff16905090565b606082611f0657611f0182611f7e565b611f76565b5f8251148015611f2c57505f8473ffffffffffffffffffffffffffffffffffffffff163b145b15611f6e57836040517f9996b315000000000000000000000000000000000000000000000000000000008152600401611f65919061222d565b60405180910390fd5b819050611f77565b5b9392505050565b5f81511115611f8f57805160208201fd5b6040517fd6bda27500000000000000000000000000000000000000000000000000000000815260040160405180910390fd5b5f604051905090565b5f5ffd5b5f5ffd5b5f73ffffffffffffffffffffffffffffffffffffffff82169050919050565b5f611ffb82611fd2565b9050919050565b61200b81611ff1565b8114612015575f5ffd5b50565b5f8135905061202681612002565b92915050565b5f6020828403121561204157612040611fca565b5b5f61204e84828501612018565b91505092915050565b5f5ffd5b5f5ffd5b5f601f19601f8301169050919050565b7f4e487b71000000000000000000000000000000000000000000000000000000005f52604160045260245ffd5b6120a58261205f565b810181811067ffffffffffffffff821117156120c4576120c361206f565b5b80604052505050565b5f6120d6611fc1565b90506120e2828261209c565b919050565b5f67ffffffffffffffff8211156121015761210061206f565b5b61210a8261205f565b9050602081019050919050565b828183375f83830152505050565b5f612137612132846120e7565b6120cd565b9050828152602081018484840111156121535761215261205b565b5b61215e848285612117565b509392505050565b5f82601f83011261217a57612179612057565b5b813561218a848260208601612125565b91505092915050565b5f5f604083850312156121a9576121a8611fca565b5b5f6121b685828601612018565b925050602083013567ffffffffffffffff8111156121d7576121d6611fce565b5b6121e385828601612166565b9150509250929050565b5f819050919050565b6121ff816121ed565b82525050565b5f6020820190506122185f8301846121f6565b92915050565b61222781611ff1565b82525050565b5f6020820190506122405f83018461221e565b92915050565b5f819050919050565b61225881612246565b8114612262575f5ffd5b50565b5f813590506122738161224f565b92915050565b5f5f5f606084860312156122905761228f611fca565b5b5f61229d86828701612018565b93505060206122ae86828701612265565b92505060406122bf86828701612018565b9150509250925092565b5f5ffd5b5f5ffd5b5f5f83601f8401126122e6576122e5612057565b5b8235905067ffffffffffffffff811115612303576123026122c9565b5b60208301915083600182028301111561231f5761231e6122cd565b5b9250929050565b5f5f5f5f5f5f60a087890312156123405761233f611fca565b5b5f61234d89828a01612018565b965050602061235e89828a01612265565b955050604061236f89828a01612018565b945050606061238089828a01612265565b935050608087013567ffffffffffffffff8111156123a1576123a0611fce565b5b6123ad89828a016122d1565b92509250509295509295509295565b5f5f83601f8401126123d1576123d0612057565b5b8235905067ffffffffffffffff8111156123ee576123ed6122c9565b5b60208301915083602082028301111561240a576124096122cd565b5b9250929050565b5f5f5f5f6060858703121561242957612428611fca565b5b5f61243687828801612018565b945050602085013567ffffffffffffffff81111561245757612456611fce565b5b612463878288016123bc565b9350935050604061247687828801612018565b91505092959194509250565b5f5f5f5f6060858703121561249a57612499611fca565b5b5f6124a787828801612018565b94505060206124b887828801612265565b935050604085013567ffffffffffffffff8111156124d9576124d8611fce565b5b6124e5878288016122d1565b925092505092959194509250565b5f81519050919050565b5f82825260208201905092915050565b8281835e5f83830152505050565b5f612525826124f3565b61252f81856124fd565b935061253f81856020860161250d565b6125488161205f565b840191505092915050565b5f6020820190508181035f83015261256b818461251b565b905092915050565b5f5f5f6060848603121561258a57612589611fca565b5b5f61259786828701612018565b93505060206125a886828701612018565b92505060406125b986828701612018565b9150509250925092565b7f4552524f525f41444d494e2e00000000000000000000000000000000000000005f82015250565b5f6125f7600c836124fd565b9150612602826125c3565b602082019050919050565b5f6020820190508181035f830152612624816125eb565b9050919050565b7f5a45524f5f414444524553532e000000000000000000000000000000000000005f82015250565b5f61265f600d836124fd565b915061266a8261262b565b602082019050919050565b5f6020820190508181035f83015261268c81612653565b9050919050565b7f4552524f525f414d4f554e542e000000000000000000000000000000000000005f82015250565b5f6126c7600d836124fd565b91506126d282612693565b602082019050919050565b5f6020820190508181035f8301526126f4816126bb565b9050919050565b61270481612246565b82525050565b5f60608201905061271d5f83018661221e565b61272a602083018561221e565b61273760408301846126fb565b949350505050565b7f4552524f525f414d4f554e5400000000000000000000000000000000000000005f82015250565b5f612773600c836124fd565b915061277e8261273f565b602082019050919050565b5f6020820190508181035f8301526127a081612767565b9050919050565b7f4e487b71000000000000000000000000000000000000000000000000000000005f52603260045260245ffd5b5f6127df83856124fd565b93506127ec838584612117565b6127f58361205f565b840190509392505050565b5f60c0820190506128135f83018a61221e565b612820602083018961221e565b61282d60408301886126fb565b61283a606083018761221e565b61284760808301866126fb565b81810360a083015261285a8184866127d4565b905098975050505050505050565b5f815190506128768161224f565b92915050565b5f6020828403121561289157612890611fca565b5b5f61289e84828501612868565b91505092915050565b5f6040820190506128ba5f83018561221e565b6128c7602083018461221e565b9392505050565b5f6080820190506128e15f83018861221e565b6128ee602083018761221e565b6128fb60408301866126fb565b818103606083015261290e8184866127d4565b90509695505050505050565b5f819050919050565b5f67ffffffffffffffff82169050919050565b5f819050919050565b5f61295961295461294f8461291a565b612936565b612923565b9050919050565b6129698161293f565b82525050565b5f6020820190506129825f830184612960565b92915050565b612991816121ed565b811461299b575f5ffd5b50565b5f815190506129ac81612988565b92915050565b5f602082840312156129c7576129c6611fca565b5b5f6129d48482850161299e565b91505092915050565b5f81519050919050565b5f81905092915050565b5f6129fb826129dd565b612a0581856129e7565b9350612a1581856020860161250d565b80840191505092915050565b5f612a2c82846129f1565b915081905092915050565b5f8115159050919050565b612a4b81612a37565b8114612a55575f5ffd5b50565b5f81519050612a6681612a42565b92915050565b5f60208284031215612a8157612a80611fca565b5b5f612a8e84828501612a58565b91505092915050565b7f5472616e7366657248656c7065723a205452414e534645525f46524f4d5f46415f8201527f494c454400000000000000000000000000000000000000000000000000000000602082015250565b5f612af16024836124fd565b9150612afc82612a97565b604082019050919050565b5f6020820190508181035f830152612b1e81612ae5565b9050919050565b7f5472616e7366657248656c7065723a204554485f5452414e534645525f4641495f8201527f4c45440000000000000000000000000000000000000000000000000000000000602082015250565b5f612b7f6023836124fd565b9150612b8a82612b25565b604082019050919050565b5f6020820190508181035f830152612bac81612b73565b9050919050565b7f4d49534d415443485f4c454e47544800000000000000000000000000000000005f82015250565b5f612be7600f836124fd565b9150612bf282612bb3565b602082019050919050565b5f6020820190508181035f830152612c1481612bdb565b9050919050565b7f4e487b71000000000000000000000000000000000000000000000000000000005f52601160045260245ffd5b5f612c5282612246565b9150612c5d83612246565b9250828201905080821115612c7557612c74612c1b565b5b92915050565b7f4552524f525f50415941424c455f414d4f554e540000000000000000000000005f82015250565b5f612caf6014836124fd565b9150612cba82612c7b565b602082019050919050565b5f6020820190508181035f830152612cdc81612ca3565b9050919050565b5f612ced82612246565b9150612cf883612246565b9250828203905081811115612d1057612d0f612c1b565b5b92915050565b7f4e4f5f4554485f524551554952454400000000000000000000000000000000005f82015250565b5f612d4a600f836124fd565b9150612d5582612d16565b602082019050919050565b5f6020820190508181035f830152612d7781612d3e565b905091905056fea26469706673582212204a5ca6d9dcb666b3df4fef7e73d68ae068d251dff4b360dc9c404f1a4e87caf564736f6c634300081e0033","linkReferences":{}},"methodIdentifiers":{"UPGRADE_INTERFACE_VERSION()":"ad3cb1cc","admin()":"f851a440","changeAdmin(address)":"8f283970","changeOperator(address)":"06394c9b","changeRecipient(address)":"92c2bcb4","initialize(address,address,address)":"c0c53b8b","multiRecharge(address,uint256,address,uint256,string)":"73abf0af","operator()":"570ca735","owner()":"8da5cb5b","proxiableUUID()":"52d1902d","recipient()":"66d003ac","renounceOwnership()":"715018a6","singleRecharge(address,uint256,string)":"aa7e7eb9","transferOwnership(address)":"f2fde38b","upgradeToAndCall(address,bytes)":"4f1ef286","withdraw(address,uint256,address)":"69328dec","withdraw_(address,address[],address)":"983b744a"},"id":37}