{"abi":[{"type":"receive","stateMutability":"payable"},{"type":"function","name":"UPGRADE_INTERFACE_VERSION","inputs":[],"outputs":[{"name":"","type":"string","internalType":"string"}],"stateMutability":"view"},{"type":"function","name":"admin","inputs":[],"outputs":[{"name":"","type":"address","internalType":"address"}],"stateMutability":"view"},{"type":"function","name":"changeAdmin","inputs":[{"name":"_newAdmin","type":"address","internalType":"address"}],"outputs":[],"stateMutability":"nonpayable"},{"type":"function","name":"changeOperator","inputs":[{"name":"_newOperator","type":"address","internalType":"address"}],"outputs":[],"stateMutability":"nonpayable"},{"type":"function","name":"changeRecipient","inputs":[{"name":"_newRecipient","type":"address","internalType":"address"}],"outputs":[],"stateMutability":"nonpayable"},{"type":"function","name":"initialize","inputs":[{"name":"_admin","type":"address","internalType":"address"},{"name":"_operator","type":"address","internalType":"address"},{"name":"_recipient","type":"address","internalType":"address"}],"outputs":[],"stateMutability":"nonpayable"},{"type":"function","name":"multiRecharge","inputs":[{"name":"token0","type":"address","internalType":"address"},{"name":"amount0","type":"uint256","internalType":"uint256"},{"name":"token1","type":"address","internalType":"address"},{"name":"amount1","type":"uint256","internalType":"uint256"},{"name":"remark","type":"string","internalType":"string"}],"outputs":[],"stateMutability":"payable"},{"type":"function","name":"operator","inputs":[],"outputs":[{"name":"","type":"address","internalType":"address"}],"stateMutability":"view"},{"type":"function","name":"owner","inputs":[],"outputs":[{"name":"","type":"address","internalType":"address"}],"stateMutability":"view"},{"type":"function","name":"proxiableUUID","inputs":[],"outputs":[{"name":"","type":"bytes32","internalType":"bytes32"}],"stateMutability":"view"},{"type":"function","name":"recipient","inputs":[],"outputs":[{"name":"","type":"address","internalType":"address"}],"stateMutability":"view"},{"type":"function","name":"renounceOwnership","inputs":[],"outputs":[],"stateMutability":"nonpayable"},{"type":"function","name":"singleRecharge","inputs":[{"name":"token","type":"address","internalType":"address"},{"name":"amount","type":"uint256","internalType":"uint256"},{"name":"remark","type":"string","internalType":"string"}],"outputs":[],"stateMutability":"payable"},{"type":"function","name":"transferOwnership","inputs":[{"name":"newOwner","type":"address","internalType":"address"}],"outputs":[],"stateMutability":"nonpayable"},{"type":"function","name":"upgradeToAndCall","inputs":[{"name":"newImplementation","type":"address","internalType":"address"},{"name":"data","type":"bytes","internalType":"bytes"}],"outputs":[],"stateMutability":"payable"},{"type":"function","name":"withdraw","inputs":[{"name":"token","type":"address","internalType":"address"},{"name":"amount","type":"uint256","internalType":"uint256"},{"name":"to","type":"address","internalType":"address"}],"outputs":[],"stateMutability":"nonpayable"},{"type":"function","name":"withdraw_","inputs":[{"name":"token","type":"address","internalType":"address"},{"name":"users","type":"address[]","internalType":"address[]"},{"name":"to","type":"address","internalType":"address"}],"outputs":[],"stateMutability":"nonpayable"},{"type":"event","name":"AdminshipTransferred","inputs":[{"name":"previousAdmin","type":"address","indexed":true,"internalType":"address"},{"name":"newAdmin","type":"address","indexed":true,"internalType":"address"}],"anonymous":false},{"type":"event","name":"Initialized","inputs":[{"name":"version","type":"uint64","indexed":false,"internalType":"uint64"}],"anonymous":false},{"type":"event","name":"MultiRecharge","inputs":[{"name":"user","type":"address","indexed":false,"internalType":"address"},{"name":"token0","type":"address","indexed":false,"internalType":"address"},{"name":"amount0","type":"uint256","indexed":false,"internalType":"uint256"},{"name":"token1","type":"address","indexed":false,"internalType":"address"},{"name":"amount1","type":"uint256","indexed":false,"internalType":"uint256"},{"name":"remark","type":"string","indexed":false,"internalType":"string"}],"anonymous":false},{"type":"event","name":"OwnershipTransferred","inputs":[{"name":"previousOwner","type":"address","indexed":true,"internalType":"address"},{"name":"newOwner","type":"address","indexed":true,"internalType":"address"}],"anonymous":false},{"type":"event","name":"Upgraded","inputs":[{"name":"implementation","type":"address","indexed":true,"internalType":"address"}],"anonymous":false},{"type":"event","name":"Withdraw","inputs":[{"name":"token","type":"address","indexed":false,"internalType":"address"},{"name":"to","type":"address","indexed":false,"internalType":"address"},{"name":"amount","type":"uint256","indexed":false,"internalType":"uint256"}],"anonymous":false},{"type":"error","name":"AddressEmptyCode","inputs":[{"name":"target","type":"address","internalType":"address"}]},{"type":"error","name":"ERC1967InvalidImplementation","inputs":[{"name":"implementation","type":"address","internalType":"address"}]},{"type":"error","name":"ERC1967NonPayable","inputs":[]},{"type":"error","name":"FailedCall","inputs":[]},{"type":"error","name":"InvalidInitialization","inputs":[]},{"type":"error","name":"NotInitializing","inputs":[]},{"type":"error","name":"OwnableInvalidOwner","inputs":[{"name":"owner","type":"address","internalType":"address"}]},{"type":"error","name":"OwnableUnauthorizedAccount","inputs":[{"name":"account","type":"address","internalType":"address"}]},{"type":"error","name":"ReentrancyGuardReentrantCall","inputs":[]},{"type":"error","name":"UUPSUnauthorizedCallContext","inputs":[]},{"type":"error","name":"UUPSUnsupportedProxiableUUID","inputs":[{"name":"slot","type":"bytes32","internalType":"bytes32"}]}],"bytecode":{"object":"0x60a06040523073ffffffffffffffffffffffffffffffffffffffff1660809073ffffffffffffffffffffffffffffffffffffffff168152503480156041575f5ffd5b5060015f81905550608051612e0d61006f5f395f81816113170152818161136c01526115260152612e0d5ff3fe608060405260043610610101575f3560e01c80638da5cb5b11610094578063aa7e7eb911610063578063aa7e7eb9146102ca578063ad3cb1cc146102e6578063c0c53b8b14610310578063f2fde38b14610338578063f851a4401461036057610108565b80638da5cb5b146102285780638f2839701461025257806392c2bcb41461027a578063983b744a146102a257610108565b806366d003ac116100d057806366d003ac146101a457806369328dec146101ce578063715018a6146101f657806373abf0af1461020c57610108565b806306394c9b1461010c5780634f1ef2861461013457806352d1902d14610150578063570ca7351461017a57610108565b3661010857005b5f5ffd5b348015610117575f5ffd5b50610132600480360381019061012d9190612030565b61038a565b005b61014e60048036038101906101499190612197565b6104ca565b005b34801561015b575f5ffd5b506101646104e9565b6040516101719190612209565b60405180910390f35b348015610185575f5ffd5b5061018e61051a565b60405161019b9190612231565b60405180910390f35b3480156101af575f5ffd5b506101b861053f565b6040516101c59190612231565b60405180910390f35b3480156101d9575f5ffd5b506101f460048036038101906101ef919061227d565b610564565b005b348015610201575f5ffd5b5061020a6106e5565b005b6102266004803603810190610221919061232a565b6106f8565b005b348015610233575f5ffd5b5061023c610913565b6040516102499190612231565b60405180910390f35b34801561025d575f5ffd5b5061027860048036038101906102739190612030565b610948565b005b348015610285575f5ffd5b506102a0600480360381019061029b9190612030565b610a7c565b005b3480156102ad575f5ffd5b506102c860048036038101906102c39190612415565b610bbc565b005b6102e460048036038101906102df9190612486565b610e42565b005b3480156102f1575f5ffd5b506102fa610fe1565b6040516103079190612557565b60405180910390f35b34801561031b575f5ffd5b5061033660048036038101906103319190612577565b61101a565b005b348015610343575f5ffd5b5061035e60048036038101906103599190612030565b61126c565b005b34801561036b575f5ffd5b506103746112f0565b6040516103819190612231565b60405180910390f35b60015f9054906101000a900473ffffffffffffffffffffffffffffffffffffffff1673ffffffffffffffffffffffffffffffffffffffff163373ffffffffffffffffffffffffffffffffffffffff1614610419576040517f08c379a000000000000000000000000000000000000000000000000000000000815260040161041090612611565b60405180910390fd5b5f73ffffffffffffffffffffffffffffffffffffffff168173ffffffffffffffffffffffffffffffffffffffff1603610487576040517f08c379a000000000000000000000000000000000000000000000000000000000815260040161047e90612679565b60405180910390fd5b8060025f6101000a81548173ffffffffffffffffffffffffffffffffffffffff021916908373ffffffffffffffffffffffffffffffffffffffff16021790555050565b6104d2611315565b6104db826113fb565b6104e58282611406565b5050565b5f6104f2611524565b7f360894a13ba1a3210667c828492db98dca3e2076cc3735a920a3ca505d382bbc5f1b905090565b60025f9054906101000a900473ffffffffffffffffffffffffffffffffffffffff1681565b60035f9054906101000a900473ffffffffffffffffffffffffffffffffffffffff1681565b60015f9054906101000a900473ffffffffffffffffffffffffffffffffffffffff1673ffffffffffffffffffffffffffffffffffffffff163373ffffffffffffffffffffffffffffffffffffffff16146105f3576040517f08c379a00000000000000000000000000000000000000000000000000000000081526004016105ea90612611565b60405180910390fd5b5f8211610635576040517f08c379a000000000000000000000000000000000000000000000000000000000815260040161062c906126e1565b60405180910390fd5b5f73ffffffffffffffffffffffffffffffffffffffff168373ffffffffffffffffffffffffffffffffffffffff161461069a576106958360035f9054906101000a900473ffffffffffffffffffffffffffffffffffffffff1683856115ab565b6106a5565b6106a481836116de565b5b7f9b1bfa7fa9ee420a16e124f794c35ac9f90472acc99140eb2f6447c714cad8eb8382846040516106d89392919061270e565b60405180910390a1505050565b6106ed6117d9565b6106f65f611860565b565b5f85118061070557505f83115b610744576040517f08c379a000000000000000000000000000000000000000000000000000000000815260040161073b9061278d565b60405180910390fd5b5f600267ffffffffffffffff8111156107605761075f612073565b5b60405190808252806020026020018201604052801561078e5781602001602082028036833780820191505090505b5090505f600267ffffffffffffffff8111156107ad576107ac612073565b5b6040519080825280602002602001820160405280156107db5781602001602082028036833780820191505090505b50905087825f815181106107f2576107f16127ab565b5b602002602001019073ffffffffffffffffffffffffffffffffffffffff16908173ffffffffffffffffffffffffffffffffffffffff168152505086815f815181106108405761083f6127ab565b5b6020026020010181815250508582600181518110610861576108606127ab565b5b602002602001019073ffffffffffffffffffffffffffffffffffffffff16908173ffffffffffffffffffffffffffffffffffffffff168152505084816001815181106108b0576108af6127ab565b5b6020026020010181815250506108c68282611931565b7f92bfe9b63523d7c8baff8387323dd4c1c8ccd48705d9c91e19160ebcabb053b8338989898989896040516109019796959493929190612804565b60405180910390a15050505050505050565b5f5f61091d611b4c565b9050805f015f9054906101000a900473ffffffffffffffffffffffffffffffffffffffff1691505090565b6109506117d9565b5f73ffffffffffffffffffffffffffffffffffffffff168173ffffffffffffffffffffffffffffffffffffffff16036109be576040517f08c379a00000000000000000000000000000000000000000000000000000000081526004016109b590612679565b60405180910390fd5b8073ffffffffffffffffffffffffffffffffffffffff1660015f9054906101000a900473ffffffffffffffffffffffffffffffffffffffff1673ffffffffffffffffffffffffffffffffffffffff167f2931ebb3d190545dcf6801c37aa686b74f2e1000e753d0fac6e471a2aa5a621360405160405180910390a38060015f6101000a81548173ffffffffffffffffffffffffffffffffffffffff021916908373ffffffffffffffffffffffffffffffffffffffff16021790555050565b60015f9054906101000a900473ffffffffffffffffffffffffffffffffffffffff1673ffffffffffffffffffffffffffffffffffffffff163373ffffffffffffffffffffffffffffffffffffffff1614610b0b576040517f08c379a0000000000000000000000000000000000000000000000000000000008152600401610b0290612611565b60405180910390fd5b5f73ffffffffffffffffffffffffffffffffffffffff168173ffffffffffffffffffffffffffffffffffffffff1603610b79576040517f08c379a0000000000000000000000000000000000000000000000000000000008152600401610b7090612679565b60405180910390fd5b8060035f6101000a81548173ffffffffffffffffffffffffffffffffffffffff021916908373ffffffffffffffffffffffffffffffffffffffff16021790555050565b60025f9054906101000a900473ffffffffffffffffffffffffffffffffffffffff1673ffffffffffffffffffffffffffffffffffffffff163373ffffffffffffffffffffffffffffffffffffffff1614610c4b576040517f08c379a0000000000000000000000000000000000000000000000000000000008152600401610c4290612611565b60405180910390fd5b5f5f90505b83839050811015610e3b575f8573ffffffffffffffffffffffffffffffffffffffff166370a08231868685818110610c8b57610c8a6127ab565b5b9050602002016020810190610ca09190612030565b6040518263ffffffff1660e01b8152600401610cbc9190612231565b602060405180830381865afa158015610cd7573d5f5f3e3d5ffd5b505050506040513d601f19601f82011682018060405250810190610cfb9190612880565b90505f8673ffffffffffffffffffffffffffffffffffffffff1663dd62ed3e878786818110610d2d57610d2c6127ab565b5b9050602002016020810190610d429190612030565b306040518363ffffffff1660e01b8152600401610d609291906128ab565b602060405180830381865afa158015610d7b573d5f5f3e3d5ffd5b505050506040513d601f19601f82011682018060405250810190610d9f9190612880565b90505f821115610e2c57818110610de457610de387878786818110610dc757610dc66127ab565b5b9050602002016020810190610ddc9190612030565b86856115ab565b5b8181108015610df257505f81115b15610e2b57610e2a87878786818110610e0e57610e0d6127ab565b5b9050602002016020810190610e239190612030565b86846115ab565b5b5b50508080600101915050610c50565b5050505050565b5f8311610e84576040517f08c379a0000000000000000000000000000000000000000000000000000000008152600401610e7b9061278d565b60405180910390fd5b5f600167ffffffffffffffff811115610ea057610e9f612073565b5b604051908082528060200260200182016040528015610ece5781602001602082028036833780820191505090505b5090505f600167ffffffffffffffff811115610eed57610eec612073565b5b604051908082528060200260200182016040528015610f1b5781602001602082028036833780820191505090505b50905085825f81518110610f3257610f316127ab565b5b602002602001019073ffffffffffffffffffffffffffffffffffffffff16908173ffffffffffffffffffffffffffffffffffffffff168152505084815f81518110610f8057610f7f6127ab565b5b602002602001018181525050610f968282611931565b7f92bfe9b63523d7c8baff8387323dd4c1c8ccd48705d9c91e19160ebcabb053b83387875f5f8989604051610fd19796959493929190612914565b60405180910390a1505050505050565b6040518060400160405280600581526020017f352e302e3000000000000000000000000000000000000000000000000000000081525081565b5f611023611b73565b90505f815f0160089054906101000a900460ff161590505f825f015f9054906101000a900467ffffffffffffffff1690505f5f8267ffffffffffffffff1614801561106b5750825b90505f60018367ffffffffffffffff1614801561109e57505f3073ffffffffffffffffffffffffffffffffffffffff163b145b9050811580156110ac575080155b156110e3576040517ff92ee8a900000000000000000000000000000000000000000000000000000000815260040160405180910390fd5b6001855f015f6101000a81548167ffffffffffffffff021916908367ffffffffffffffff1602179055508315611130576001855f0160086101000a81548160ff0219169083151502179055505b61114061113b611b86565b611b8d565b611148611c11565b8760015f6101000a81548173ffffffffffffffffffffffffffffffffffffffff021916908373ffffffffffffffffffffffffffffffffffffffff1602179055508660025f6101000a81548173ffffffffffffffffffffffffffffffffffffffff021916908373ffffffffffffffffffffffffffffffffffffffff1602179055508560035f6101000a81548173ffffffffffffffffffffffffffffffffffffffff021916908373ffffffffffffffffffffffffffffffffffffffff1602179055508315611262575f855f0160086101000a81548160ff0219169083151502179055507fc7f505b2f371ae2175ee4913f4499e1f2633a7b5936321eed1cdaeb6115181d2600160405161125991906129c8565b60405180910390a15b5050505050505050565b6112746117d9565b5f73ffffffffffffffffffffffffffffffffffffffff168173ffffffffffffffffffffffffffffffffffffffff16036112e4575f6040517f1e4fbdf70000000000000000000000000000000000000000000000000000000081526004016112db9190612231565b60405180910390fd5b6112ed81611860565b50565b60015f9054906101000a900473ffffffffffffffffffffffffffffffffffffffff1681565b7f000000000000000000000000000000000000000000000000000000000000000073ffffffffffffffffffffffffffffffffffffffff163073ffffffffffffffffffffffffffffffffffffffff1614806113c257507f000000000000000000000000000000000000000000000000000000000000000073ffffffffffffffffffffffffffffffffffffffff166113a9611c1b565b73ffffffffffffffffffffffffffffffffffffffff1614155b156113f9576040517fe07c8dba00000000000000000000000000000000000000000000000000000000815260040160405180910390fd5b565b6114036117d9565b50565b8173ffffffffffffffffffffffffffffffffffffffff166352d1902d6040518163ffffffff1660e01b8152600401602060405180830381865afa92505050801561146e57506040513d601f19601f8201168201806040525081019061146b9190612a0b565b60015b6114af57816040517f4c9c8ce30000000000000000000000000000000000000000000000000000000081526004016114a69190612231565b60405180910390fd5b7f360894a13ba1a3210667c828492db98dca3e2076cc3735a920a3ca505d382bbc5f1b811461151557806040517faa1d49a400000000000000000000000000000000000000000000000000000000815260040161150c9190612209565b60405180910390fd5b61151f8383611c6e565b505050565b7f000000000000000000000000000000000000000000000000000000000000000073ffffffffffffffffffffffffffffffffffffffff163073ffffffffffffffffffffffffffffffffffffffff16146115a9576040517fe07c8dba00000000000000000000000000000000000000000000000000000000815260040160405180910390fd5b565b5f5f8573ffffffffffffffffffffffffffffffffffffffff166323b872dd8686866040516024016115de9392919061270e565b6040516020818303038152906040529060e01b6020820180517bffffffffffffffffffffffffffffffffffffffffffffffffffffffff838183161783525050505060405161162c9190612a7a565b5f604051808303815f865af19150503d805f8114611665576040519150601f19603f3d011682016040523d82523d5f602084013e61166a565b606091505b509150915081801561169757505f815114806116965750808060200190518101906116959190612ac5565b5b5b6116d6576040517f08c379a00000000000000000000000000000000000000000000000000000000081526004016116cd90612b60565b60405180910390fd5b505050505050565b5f8273ffffffffffffffffffffffffffffffffffffffff16825f67ffffffffffffffff81111561171157611710612073565b5b6040519080825280601f01601f1916602001820160405280156117435781602001600182028036833780820191505090505b506040516117519190612a7a565b5f6040518083038185875af1925050503d805f811461178b576040519150601f19603f3d011682016040523d82523d5f602084013e611790565b606091505b50509050806117d4576040517f08c379a00000000000000000000000000000000000000000000000000000000081526004016117cb90612bee565b60405180910390fd5b505050565b6117e1611b86565b73ffffffffffffffffffffffffffffffffffffffff166117ff610913565b73ffffffffffffffffffffffffffffffffffffffff161461185e57611822611b86565b6040517f118cdaa70000000000000000000000000000000000000000000000000000000081526004016118559190612231565b60405180910390fd5b565b5f611869611b4c565b90505f815f015f9054906101000a900473ffffffffffffffffffffffffffffffffffffffff16905082825f015f6101000a81548173ffffffffffffffffffffffffffffffffffffffff021916908373ffffffffffffffffffffffffffffffffffffffff1602179055508273ffffffffffffffffffffffffffffffffffffffff168173ffffffffffffffffffffffffffffffffffffffff167f8be0079c531659141344cd1fd0a4f28419497f9722a3daafe3b4186f6b6457e060405160405180910390a3505050565b8051825114611975576040517f08c379a000000000000000000000000000000000000000000000000000000000815260040161196c90612c56565b60405180910390fd5b5f5f90505f5f90505f5f90505b8451811015611a5d575f85828151811061199f5761199e6127ab565b5b602002602001015190505f8583815181106119bd576119bc6127ab565b5b602002602001015190505f81036119d5575050611a50565b5f73ffffffffffffffffffffffffffffffffffffffff168273ffffffffffffffffffffffffffffffffffffffff1603611a1f578085611a149190612ca1565b945060019350611a4d565b611a4c823360035f9054906101000a900473ffffffffffffffffffffffffffffffffffffffff16846115ab565b5b50505b8080600101915050611982565b508015611b035781341015611aa7576040517f08c379a0000000000000000000000000000000000000000000000000000000008152600401611a9e90612d1e565b60405180910390fd5b5f821115611adb57611ada60035f9054906101000a900473ffffffffffffffffffffffffffffffffffffffff16836116de565b5b5f8234611ae89190612d3c565b90505f811115611afd57611afc33826116de565b5b50611b46565b5f3414611b45576040517f08c379a0000000000000000000000000000000000000000000000000000000008152600401611b3c90612db9565b60405180910390fd5b5b50505050565b5f7f9016d09d72d40fdae2fd8ceac6b6234c7706214fd39c1cd1e609a0528c199300905090565b5f5f611b7d611ce0565b90508091505090565b5f33905090565b611b95611d09565b5f73ffffffffffffffffffffffffffffffffffffffff168173ffffffffffffffffffffffffffffffffffffffff1603611c05575f6040517f1e4fbdf7000000000000000000000000000000000000000000000000000000008152600401611bfc9190612231565b60405180910390fd5b611c0e81611860565b50565b611c19611d09565b565b5f611c477f360894a13ba1a3210667c828492db98dca3e2076cc3735a920a3ca505d382bbc5f1b611d49565b5f015f9054906101000a900473ffffffffffffffffffffffffffffffffffffffff16905090565b611c7782611d52565b8173ffffffffffffffffffffffffffffffffffffffff167fbc7cd75a20ee27fd9adebab32041f755214dbc6bffa90cc0225b39da2e5c2d3b60405160405180910390a25f81511115611cd357611ccd8282611e1b565b50611cdc565b611cdb611e9b565b5b5050565b5f7ff0c57e16840df040f15088dc2f81fe391c3923bec73e23a9662efc9c229c6a005f1b905090565b611d11611ed7565b611d47576040517fd7e6bcf800000000000000000000000000000000000000000000000000000000815260040160405180910390fd5b565b5f819050919050565b5f8173ffffffffffffffffffffffffffffffffffffffff163b03611dad57806040517f4c9c8ce3000000000000000000000000000000000000000000000000000000008152600401611da49190612231565b60405180910390fd5b80611dd97f360894a13ba1a3210667c828492db98dca3e2076cc3735a920a3ca505d382bbc5f1b611d49565b5f015f6101000a81548173ffffffffffffffffffffffffffffffffffffffff021916908373ffffffffffffffffffffffffffffffffffffffff16021790555050565b60605f5f8473ffffffffffffffffffffffffffffffffffffffff1684604051611e449190612a7a565b5f60405180830381855af49150503d805f8114611e7c576040519150601f19603f3d011682016040523d82523d5f602084013e611e81565b606091505b5091509150611e91858383611ef5565b9250505092915050565b5f341115611ed5576040517fb398979f00000000000000000000000000000000000000000000000000000000815260040160405180910390fd5b565b5f611ee0611b73565b5f0160089054906101000a900460ff16905090565b606082611f0a57611f0582611f82565b611f7a565b5f8251148015611f3057505f8473ffffffffffffffffffffffffffffffffffffffff163b145b15611f7257836040517f9996b315000000000000000000000000000000000000000000000000000000008152600401611f699190612231565b60405180910390fd5b819050611f7b565b5b9392505050565b5f81511115611f9357805160208201fd5b6040517fd6bda27500000000000000000000000000000000000000000000000000000000815260040160405180910390fd5b5f604051905090565b5f5ffd5b5f5ffd5b5f73ffffffffffffffffffffffffffffffffffffffff82169050919050565b5f611fff82611fd6565b9050919050565b61200f81611ff5565b8114612019575f5ffd5b50565b5f8135905061202a81612006565b92915050565b5f6020828403121561204557612044611fce565b5b5f6120528482850161201c565b91505092915050565b5f5ffd5b5f5ffd5b5f601f19601f8301169050919050565b7f4e487b71000000000000000000000000000000000000000000000000000000005f52604160045260245ffd5b6120a982612063565b810181811067ffffffffffffffff821117156120c8576120c7612073565b5b80604052505050565b5f6120da611fc5565b90506120e682826120a0565b919050565b5f67ffffffffffffffff82111561210557612104612073565b5b61210e82612063565b9050602081019050919050565b828183375f83830152505050565b5f61213b612136846120eb565b6120d1565b9050828152602081018484840111156121575761215661205f565b5b61216284828561211b565b509392505050565b5f82601f83011261217e5761217d61205b565b5b813561218e848260208601612129565b91505092915050565b5f5f604083850312156121ad576121ac611fce565b5b5f6121ba8582860161201c565b925050602083013567ffffffffffffffff8111156121db576121da611fd2565b5b6121e78582860161216a565b9150509250929050565b5f819050919050565b612203816121f1565b82525050565b5f60208201905061221c5f8301846121fa565b92915050565b61222b81611ff5565b82525050565b5f6020820190506122445f830184612222565b92915050565b5f819050919050565b61225c8161224a565b8114612266575f5ffd5b50565b5f8135905061227781612253565b92915050565b5f5f5f6060848603121561229457612293611fce565b5b5f6122a18682870161201c565b93505060206122b286828701612269565b92505060406122c38682870161201c565b9150509250925092565b5f5ffd5b5f5ffd5b5f5f83601f8401126122ea576122e961205b565b5b8235905067ffffffffffffffff811115612307576123066122cd565b5b602083019150836001820283011115612323576123226122d1565b5b9250929050565b5f5f5f5f5f5f60a0878903121561234457612343611fce565b5b5f61235189828a0161201c565b965050602061236289828a01612269565b955050604061237389828a0161201c565b945050606061238489828a01612269565b935050608087013567ffffffffffffffff8111156123a5576123a4611fd2565b5b6123b189828a016122d5565b92509250509295509295509295565b5f5f83601f8401126123d5576123d461205b565b5b8235905067ffffffffffffffff8111156123f2576123f16122cd565b5b60208301915083602082028301111561240e5761240d6122d1565b5b9250929050565b5f5f5f5f6060858703121561242d5761242c611fce565b5b5f61243a8782880161201c565b945050602085013567ffffffffffffffff81111561245b5761245a611fd2565b5b612467878288016123c0565b9350935050604061247a8782880161201c565b91505092959194509250565b5f5f5f5f6060858703121561249e5761249d611fce565b5b5f6124ab8782880161201c565b94505060206124bc87828801612269565b935050604085013567ffffffffffffffff8111156124dd576124dc611fd2565b5b6124e9878288016122d5565b925092505092959194509250565b5f81519050919050565b5f82825260208201905092915050565b8281835e5f83830152505050565b5f612529826124f7565b6125338185612501565b9350612543818560208601612511565b61254c81612063565b840191505092915050565b5f6020820190508181035f83015261256f818461251f565b905092915050565b5f5f5f6060848603121561258e5761258d611fce565b5b5f61259b8682870161201c565b93505060206125ac8682870161201c565b92505060406125bd8682870161201c565b9150509250925092565b7f4552524f525f41444d494e2e00000000000000000000000000000000000000005f82015250565b5f6125fb600c83612501565b9150612606826125c7565b602082019050919050565b5f6020820190508181035f830152612628816125ef565b9050919050565b7f5a45524f5f414444524553532e000000000000000000000000000000000000005f82015250565b5f612663600d83612501565b915061266e8261262f565b602082019050919050565b5f6020820190508181035f83015261269081612657565b9050919050565b7f4552524f525f414d4f554e542e000000000000000000000000000000000000005f82015250565b5f6126cb600d83612501565b91506126d682612697565b602082019050919050565b5f6020820190508181035f8301526126f8816126bf565b9050919050565b6127088161224a565b82525050565b5f6060820190506127215f830186612222565b61272e6020830185612222565b61273b60408301846126ff565b949350505050565b7f4552524f525f414d4f554e5400000000000000000000000000000000000000005f82015250565b5f612777600c83612501565b915061278282612743565b602082019050919050565b5f6020820190508181035f8301526127a48161276b565b9050919050565b7f4e487b71000000000000000000000000000000000000000000000000000000005f52603260045260245ffd5b5f6127e38385612501565b93506127f083858461211b565b6127f983612063565b840190509392505050565b5f60c0820190506128175f83018a612222565b6128246020830189612222565b61283160408301886126ff565b61283e6060830187612222565b61284b60808301866126ff565b81810360a083015261285e8184866127d8565b905098975050505050505050565b5f8151905061287a81612253565b92915050565b5f6020828403121561289557612894611fce565b5b5f6128a28482850161286c565b91505092915050565b5f6040820190506128be5f830185612222565b6128cb6020830184612222565b9392505050565b5f819050919050565b5f819050919050565b5f6128fe6128f96128f4846128d2565b6128db565b61224a565b9050919050565b61290e816128e4565b82525050565b5f60c0820190506129275f83018a612222565b6129346020830189612222565b61294160408301886126ff565b61294e6060830187612222565b61295b6080830186612905565b81810360a083015261296e8184866127d8565b905098975050505050505050565b5f819050919050565b5f67ffffffffffffffff82169050919050565b5f6129b26129ad6129a88461297c565b6128db565b612985565b9050919050565b6129c281612998565b82525050565b5f6020820190506129db5f8301846129b9565b92915050565b6129ea816121f1565b81146129f4575f5ffd5b50565b5f81519050612a05816129e1565b92915050565b5f60208284031215612a2057612a1f611fce565b5b5f612a2d848285016129f7565b91505092915050565b5f81519050919050565b5f81905092915050565b5f612a5482612a36565b612a5e8185612a40565b9350612a6e818560208601612511565b80840191505092915050565b5f612a858284612a4a565b915081905092915050565b5f8115159050919050565b612aa481612a90565b8114612aae575f5ffd5b50565b5f81519050612abf81612a9b565b92915050565b5f60208284031215612ada57612ad9611fce565b5b5f612ae784828501612ab1565b91505092915050565b7f5472616e7366657248656c7065723a205452414e534645525f46524f4d5f46415f8201527f494c454400000000000000000000000000000000000000000000000000000000602082015250565b5f612b4a602483612501565b9150612b5582612af0565b604082019050919050565b5f6020820190508181035f830152612b7781612b3e565b9050919050565b7f5472616e7366657248656c7065723a204554485f5452414e534645525f4641495f8201527f4c45440000000000000000000000000000000000000000000000000000000000602082015250565b5f612bd8602383612501565b9150612be382612b7e565b604082019050919050565b5f6020820190508181035f830152612c0581612bcc565b9050919050565b7f4d49534d415443485f4c454e47544800000000000000000000000000000000005f82015250565b5f612c40600f83612501565b9150612c4b82612c0c565b602082019050919050565b5f6020820190508181035f830152612c6d81612c34565b9050919050565b7f4e487b71000000000000000000000000000000000000000000000000000000005f52601160045260245ffd5b5f612cab8261224a565b9150612cb68361224a565b9250828201905080821115612cce57612ccd612c74565b5b92915050565b7f4552524f525f50415941424c455f414d4f554e540000000000000000000000005f82015250565b5f612d08601483612501565b9150612d1382612cd4565b602082019050919050565b5f6020820190508181035f830152612d3581612cfc565b9050919050565b5f612d468261224a565b9150612d518361224a565b9250828203905081811115612d6957612d68612c74565b5b92915050565b7f4e4f5f4554485f524551554952454400000000000000000000000000000000005f82015250565b5f612da3600f83612501565b9150612dae82612d6f565b602082019050919050565b5f6020820190508181035f830152612dd081612d97565b905091905056fea26469706673582212206eb02f99c58acbc84481cfc6675be0da450cb57d91fa463e1d4f98c54dfb795064736f6c634300081e0033","linkReferences":{}},"methodIdentifiers":{"UPGRADE_INTERFACE_VERSION()":"ad3cb1cc","admin()":"f851a440","changeAdmin(address)":"8f283970","changeOperator(address)":"06394c9b","changeRecipient(address)":"92c2bcb4","initialize(address,address,address)":"c0c53b8b","multiRecharge(address,uint256,address,uint256,string)":"73abf0af","operator()":"570ca735","owner()":"8da5cb5b","proxiableUUID()":"52d1902d","recipient()":"66d003ac","renounceOwnership()":"715018a6","singleRecharge(address,uint256,string)":"aa7e7eb9","transferOwnership(address)":"f2fde38b","upgradeToAndCall(address,bytes)":"4f1ef286","withdraw(address,uint256,address)":"69328dec","withdraw_(address,address[],address)":"983b744a"},"id":37}