{"abi":[{"type":"receive","stateMutability":"payable"},{"type":"function","name":"UPGRADE_INTERFACE_VERSION","inputs":[],"outputs":[{"name":"","type":"string","internalType":"string"}],"stateMutability":"view"},{"type":"function","name":"USDT","inputs":[],"outputs":[{"name":"","type":"address","internalType":"address"}],"stateMutability":"view"},{"type":"function","name":"WBNB","inputs":[],"outputs":[{"name":"","type":"address","internalType":"address"}],"stateMutability":"view"},{"type":"function","name":"admin","inputs":[],"outputs":[{"name":"","type":"address","internalType":"address"}],"stateMutability":"view"},{"type":"function","name":"changeAdmin","inputs":[{"name":"_newAdmin","type":"address","internalType":"address"}],"outputs":[],"stateMutability":"nonpayable"},{"type":"function","name":"changeOperator","inputs":[{"name":"_newOperator","type":"address","internalType":"address"}],"outputs":[],"stateMutability":"nonpayable"},{"type":"function","name":"changeRecipient","inputs":[{"name":"_newRecipient","type":"address","internalType":"address"}],"outputs":[],"stateMutability":"nonpayable"},{"type":"function","name":"changeSender","inputs":[{"name":"_newSender","type":"address","internalType":"address"}],"outputs":[],"stateMutability":"nonpayable"},{"type":"function","name":"factory","inputs":[],"outputs":[{"name":"","type":"address","internalType":"address"}],"stateMutability":"view"},{"type":"function","name":"getPrice","inputs":[{"name":"token","type":"address","internalType":"address"}],"outputs":[{"name":"","type":"address","internalType":"address"},{"name":"","type":"uint256","internalType":"uint256"}],"stateMutability":"view"},{"type":"function","name":"initialize","inputs":[{"name":"_admin","type":"address","internalType":"address"},{"name":"_operator","type":"address","internalType":"address"},{"name":"_recipient","type":"address","internalType":"address"},{"name":"_sender","type":"address","internalType":"address"}],"outputs":[],"stateMutability":"nonpayable"},{"type":"function","name":"multiBalanceOf","inputs":[{"name":"token","type":"address","internalType":"address"},{"name":"users","type":"address[]","internalType":"address[]"}],"outputs":[{"name":"","type":"tuple[]","internalType":"struct Recharge.Info[]","components":[{"name":"user","type":"address","internalType":"address"},{"name":"amount","type":"uint256","internalType":"uint256"}]}],"stateMutability":"view"},{"type":"function","name":"multiRecharge","inputs":[{"name":"token0","type":"address","internalType":"address"},{"name":"amount0","type":"uint256","internalType":"uint256"},{"name":"token1","type":"address","internalType":"address"},{"name":"amount1","type":"uint256","internalType":"uint256"},{"name":"remark","type":"string","internalType":"string"}],"outputs":[],"stateMutability":"payable"},{"type":"function","name":"operator","inputs":[],"outputs":[{"name":"","type":"address","internalType":"address"}],"stateMutability":"view"},{"type":"function","name":"owner","inputs":[],"outputs":[{"name":"","type":"address","internalType":"address"}],"stateMutability":"view"},{"type":"function","name":"proxiableUUID","inputs":[],"outputs":[{"name":"","type":"bytes32","internalType":"bytes32"}],"stateMutability":"view"},{"type":"function","name":"recipient","inputs":[],"outputs":[{"name":"","type":"address","internalType":"address"}],"stateMutability":"view"},{"type":"function","name":"renounceOwnership","inputs":[],"outputs":[],"stateMutability":"nonpayable"},{"type":"function","name":"router","inputs":[],"outputs":[{"name":"","type":"address","internalType":"address"}],"stateMutability":"view"},{"type":"function","name":"sender","inputs":[],"outputs":[{"name":"","type":"address","internalType":"address"}],"stateMutability":"view"},{"type":"function","name":"singleRecharge","inputs":[{"name":"token","type":"address","internalType":"address"},{"name":"amount","type":"uint256","internalType":"uint256"},{"name":"remark","type":"string","internalType":"string"}],"outputs":[],"stateMutability":"payable"},{"type":"function","name":"transferOwnership","inputs":[{"name":"newOwner","type":"address","internalType":"address"}],"outputs":[],"stateMutability":"nonpayable"},{"type":"function","name":"upgradeToAndCall","inputs":[{"name":"newImplementation","type":"address","internalType":"address"},{"name":"data","type":"bytes","internalType":"bytes"}],"outputs":[],"stateMutability":"payable"},{"type":"function","name":"withdraw","inputs":[{"name":"token","type":"address","internalType":"address"},{"name":"amount","type":"uint256","internalType":"uint256"},{"name":"to","type":"address","internalType":"address"}],"outputs":[],"stateMutability":"nonpayable"},{"type":"function","name":"withdraw_","inputs":[{"name":"token","type":"address","internalType":"address"},{"name":"users","type":"address[]","internalType":"address[]"},{"name":"to","type":"address","internalType":"address"}],"outputs":[],"stateMutability":"nonpayable"},{"type":"event","name":"AdminshipTransferred","inputs":[{"name":"previousAdmin","type":"address","indexed":true,"internalType":"address"},{"name":"newAdmin","type":"address","indexed":true,"internalType":"address"}],"anonymous":false},{"type":"event","name":"Initialized","inputs":[{"name":"version","type":"uint64","indexed":false,"internalType":"uint64"}],"anonymous":false},{"type":"event","name":"MultiRecharge","inputs":[{"name":"user","type":"address","indexed":false,"internalType":"address"},{"name":"token0","type":"address","indexed":false,"internalType":"address"},{"name":"amount0","type":"uint256","indexed":false,"internalType":"uint256"},{"name":"token1","type":"address","indexed":false,"internalType":"address"},{"name":"amount1","type":"uint256","indexed":false,"internalType":"uint256"},{"name":"remark","type":"string","indexed":false,"internalType":"string"}],"anonymous":false},{"type":"event","name":"OwnershipTransferred","inputs":[{"name":"previousOwner","type":"address","indexed":true,"internalType":"address"},{"name":"newOwner","type":"address","indexed":true,"internalType":"address"}],"anonymous":false},{"type":"event","name":"Upgraded","inputs":[{"name":"implementation","type":"address","indexed":true,"internalType":"address"}],"anonymous":false},{"type":"event","name":"Withdraw","inputs":[{"name":"token","type":"address","indexed":false,"internalType":"address"},{"name":"to","type":"address","indexed":false,"internalType":"address"},{"name":"amount","type":"uint256","indexed":false,"internalType":"uint256"}],"anonymous":false},{"type":"error","name":"AddressEmptyCode","inputs":[{"name":"target","type":"address","internalType":"address"}]},{"type":"error","name":"ERC1967InvalidImplementation","inputs":[{"name":"implementation","type":"address","internalType":"address"}]},{"type":"error","name":"ERC1967NonPayable","inputs":[]},{"type":"error","name":"FailedCall","inputs":[]},{"type":"error","name":"InvalidInitialization","inputs":[]},{"type":"error","name":"NotInitializing","inputs":[]},{"type":"error","name":"OwnableInvalidOwner","inputs":[{"name":"owner","type":"address","internalType":"address"}]},{"type":"error","name":"OwnableUnauthorizedAccount","inputs":[{"name":"account","type":"address","internalType":"address"}]},{"type":"error","name":"ReentrancyGuardReentrantCall","inputs":[]},{"type":"error","name":"UUPSUnauthorizedCallContext","inputs":[]},{"type":"error","name":"UUPSUnsupportedProxiableUUID","inputs":[{"name":"slot","type":"bytes32","internalType":"bytes32"}]}],"bytecode":{"object":"0x60a06040523073ffffffffffffffffffffffffffffffffffffffff1660809073ffffffffffffffffffffffffffffffffffffffff168152503480156041575f5ffd5b5060015f81905550608051613e1061006f5f395f8181611f2501528181611f7a01526121340152613e105ff3fe608060405260043610610169575f3560e01c80638f283970116100d0578063b280a7e711610089578063f2fde38b11610063578063f2fde38b146104c1578063f851a440146104e9578063f887ea4014610513578063f8c8765e1461053d57610170565b8063b280a7e714610445578063c45a01551461046d578063c54e44eb1461049757610170565b80638f2839701461034b57806392c2bcb414610373578063983b744a1461039b5780639f166cf1146103c3578063aa7e7eb9146103ff578063ad3cb1cc1461041b57610170565b806367e404ce1161012257806367e404ce1461027357806369328dec1461029d578063715018a6146102c557806373abf0af146102db5780638da5cb5b146102f75780638dd950021461032157610170565b806306394c9b1461017457806341976e091461019c5780634f1ef286146101d957806352d1902d146101f5578063570ca7351461021f57806366d003ac1461024957610170565b3661017057005b5f5ffd5b34801561017f575f5ffd5b5061019a60048036038101906101959190612c6c565b610565565b005b3480156101a7575f5ffd5b506101c260048036038101906101bd9190612c6c565b6106a5565b6040516101d0929190612cbe565b60405180910390f35b6101f360048036038101906101ee9190612e21565b610c36565b005b348015610200575f5ffd5b50610209610c55565b6040516102169190612e93565b60405180910390f35b34801561022a575f5ffd5b50610233610c86565b6040516102409190612eac565b60405180910390f35b348015610254575f5ffd5b5061025d610cab565b60405161026a9190612eac565b60405180910390f35b34801561027e575f5ffd5b50610287610cd0565b6040516102949190612eac565b60405180910390f35b3480156102a8575f5ffd5b506102c360048036038101906102be9190612eef565b610cf5565b005b3480156102d0575f5ffd5b506102d9610e76565b005b6102f560048036038101906102f09190612f9c565b610e89565b005b348015610302575f5ffd5b5061030b6110a4565b6040516103189190612eac565b60405180910390f35b34801561032c575f5ffd5b506103356110d9565b6040516103429190612eac565b60405180910390f35b348015610356575f5ffd5b50610371600480360381019061036c9190612c6c565b6110f1565b005b34801561037e575f5ffd5b5061039960048036038101906103949190612c6c565b611225565b005b3480156103a6575f5ffd5b506103c160048036038101906103bc9190613087565b611365565b005b3480156103ce575f5ffd5b506103e960048036038101906103e491906130f8565b6115eb565b6040516103f69190613248565b60405180910390f35b61041960048036038101906104149190613268565b611887565b005b348015610426575f5ffd5b5061042f611a26565b60405161043c9190613339565b60405180910390f35b348015610450575f5ffd5b5061046b60048036038101906104669190612c6c565b611a5f565b005b348015610478575f5ffd5b50610481611b9f565b60405161048e9190612eac565b60405180910390f35b3480156104a2575f5ffd5b506104ab611bb7565b6040516104b89190612eac565b60405180910390f35b3480156104cc575f5ffd5b506104e760048036038101906104e29190612c6c565b611bcf565b005b3480156104f4575f5ffd5b506104fd611c53565b60405161050a9190612eac565b60405180910390f35b34801561051e575f5ffd5b50610527611c78565b6040516105349190612eac565b60405180910390f35b348015610548575f5ffd5b50610563600480360381019061055e9190613359565b611c90565b005b60015f9054906101000a900473ffffffffffffffffffffffffffffffffffffffff1673ffffffffffffffffffffffffffffffffffffffff163373ffffffffffffffffffffffffffffffffffffffff16146105f4576040517f08c379a00000000000000000000000000000000000000000000000000000000081526004016105eb90613407565b60405180910390fd5b5f73ffffffffffffffffffffffffffffffffffffffff168173ffffffffffffffffffffffffffffffffffffffff1603610662576040517f08c379a00000000000000000000000000000000000000000000000000000000081526004016106599061346f565b60405180910390fd5b8060025f6101000a81548173ffffffffffffffffffffffffffffffffffffffff021916908373ffffffffffffffffffffffffffffffffffffffff16021790555050565b5f5f5f73ca143ce32fe78f1f7019d7d551a6402fc5350c7373ffffffffffffffffffffffffffffffffffffffff1663e6a439058573bb4cdb9cbd36b01bd1cbaebf2de08d9173bc095c6040518363ffffffff1660e01b815260040161070b92919061348d565b602060405180830381865afa158015610726573d5f5f3e3d5ffd5b505050506040513d601f19601f8201168201806040525081019061074a91906134c8565b90505f73ca143ce32fe78f1f7019d7d551a6402fc5350c7373ffffffffffffffffffffffffffffffffffffffff1663e6a43905867355d398326f99059ff775485246999027b31979556040518363ffffffff1660e01b81526004016107b092919061348d565b602060405180830381865afa1580156107cb573d5f5f3e3d5ffd5b505050506040513d601f19601f820116820180604052508101906107ef91906134c8565b90505f670de0b6b3a764000090505f5f73ffffffffffffffffffffffffffffffffffffffff168373ffffffffffffffffffffffffffffffffffffffff1614610a12575f600267ffffffffffffffff81111561084d5761084c612cfd565b5b60405190808252806020026020018201604052801561087b5781602001602082028036833780820191505090505b50905087815f81518110610892576108916134f3565b5b602002602001019073ffffffffffffffffffffffffffffffffffffffff16908173ffffffffffffffffffffffffffffffffffffffff16815250507355d398326f99059ff775485246999027b3197955816001815181106108f5576108f46134f3565b5b602002602001019073ffffffffffffffffffffffffffffffffffffffff16908173ffffffffffffffffffffffffffffffffffffffff16815250505f7310ed43c718714eb63d5aa57b78b54704e256024e73ffffffffffffffffffffffffffffffffffffffff1663d06ca61f85846040518363ffffffff1660e01b815260040161097f9291906135c8565b5f60405180830381865afa158015610999573d5f5f3e3d5ffd5b505050506040513d5f823e3d601f19601f820116820180604052508101906109c191906136ca565b905080600182516109d2919061373e565b815181106109e3576109e26134f3565b5b602002602001015192507355d398326f99059ff775485246999027b31979558397509750505050505050610c31565b5f73ffffffffffffffffffffffffffffffffffffffff168473ffffffffffffffffffffffffffffffffffffffff1614610c26575f600267ffffffffffffffff811115610a6157610a60612cfd565b5b604051908082528060200260200182016040528015610a8f5781602001602082028036833780820191505090505b50905087815f81518110610aa657610aa56134f3565b5b602002602001019073ffffffffffffffffffffffffffffffffffffffff16908173ffffffffffffffffffffffffffffffffffffffff168152505073bb4cdb9cbd36b01bd1cbaebf2de08d9173bc095c81600181518110610b0957610b086134f3565b5b602002602001019073ffffffffffffffffffffffffffffffffffffffff16908173ffffffffffffffffffffffffffffffffffffffff16815250505f7310ed43c718714eb63d5aa57b78b54704e256024e73ffffffffffffffffffffffffffffffffffffffff1663d06ca61f85846040518363ffffffff1660e01b8152600401610b939291906135c8565b5f60405180830381865afa158015610bad573d5f5f3e3d5ffd5b505050506040513d5f823e3d601f19601f82011682018060405250810190610bd591906136ca565b90508060018251610be6919061373e565b81518110610bf757610bf66134f3565b5b6020026020010151925073bb4cdb9cbd36b01bd1cbaebf2de08d9173bc095c8397509750505050505050610c31565b5f5f95509550505050505b915091565b610c3e611f23565b610c4782612009565b610c518282612014565b5050565b5f610c5e612132565b7f360894a13ba1a3210667c828492db98dca3e2076cc3735a920a3ca505d382bbc5f1b905090565b60025f9054906101000a900473ffffffffffffffffffffffffffffffffffffffff1681565b60035f9054906101000a900473ffffffffffffffffffffffffffffffffffffffff1681565b60045f9054906101000a900473ffffffffffffffffffffffffffffffffffffffff1681565b60015f9054906101000a900473ffffffffffffffffffffffffffffffffffffffff1673ffffffffffffffffffffffffffffffffffffffff163373ffffffffffffffffffffffffffffffffffffffff1614610d84576040517f08c379a0000000000000000000000000000000000000000000000000000000008152600401610d7b90613407565b60405180910390fd5b5f8211610dc6576040517f08c379a0000000000000000000000000000000000000000000000000000000008152600401610dbd906137bb565b60405180910390fd5b5f73ffffffffffffffffffffffffffffffffffffffff168373ffffffffffffffffffffffffffffffffffffffff1614610e2b57610e268360045f9054906101000a900473ffffffffffffffffffffffffffffffffffffffff1683856121b9565b610e36565b610e3581836122ec565b5b7f9b1bfa7fa9ee420a16e124f794c35ac9f90472acc99140eb2f6447c714cad8eb838284604051610e69939291906137d9565b60405180910390a1505050565b610e7e6123e7565b610e875f61246e565b565b5f851180610e9657505f83115b610ed5576040517f08c379a0000000000000000000000000000000000000000000000000000000008152600401610ecc90613858565b60405180910390fd5b5f600267ffffffffffffffff811115610ef157610ef0612cfd565b5b604051908082528060200260200182016040528015610f1f5781602001602082028036833780820191505090505b5090505f600267ffffffffffffffff811115610f3e57610f3d612cfd565b5b604051908082528060200260200182016040528015610f6c5781602001602082028036833780820191505090505b50905087825f81518110610f8357610f826134f3565b5b602002602001019073ffffffffffffffffffffffffffffffffffffffff16908173ffffffffffffffffffffffffffffffffffffffff168152505086815f81518110610fd157610fd06134f3565b5b6020026020010181815250508582600181518110610ff257610ff16134f3565b5b602002602001019073ffffffffffffffffffffffffffffffffffffffff16908173ffffffffffffffffffffffffffffffffffffffff16815250508481600181518110611041576110406134f3565b5b602002602001018181525050611057828261253f565b7f92bfe9b63523d7c8baff8387323dd4c1c8ccd48705d9c91e19160ebcabb053b83389898989898960405161109297969594939291906138a2565b60405180910390a15050505050505050565b5f5f6110ae61275a565b9050805f015f9054906101000a900473ffffffffffffffffffffffffffffffffffffffff1691505090565b73bb4cdb9cbd36b01bd1cbaebf2de08d9173bc095c81565b6110f96123e7565b5f73ffffffffffffffffffffffffffffffffffffffff168173ffffffffffffffffffffffffffffffffffffffff1603611167576040517f08c379a000000000000000000000000000000000000000000000000000000000815260040161115e9061346f565b60405180910390fd5b8073ffffffffffffffffffffffffffffffffffffffff1660015f9054906101000a900473ffffffffffffffffffffffffffffffffffffffff1673ffffffffffffffffffffffffffffffffffffffff167f2931ebb3d190545dcf6801c37aa686b74f2e1000e753d0fac6e471a2aa5a621360405160405180910390a38060015f6101000a81548173ffffffffffffffffffffffffffffffffffffffff021916908373ffffffffffffffffffffffffffffffffffffffff16021790555050565b60015f9054906101000a900473ffffffffffffffffffffffffffffffffffffffff1673ffffffffffffffffffffffffffffffffffffffff163373ffffffffffffffffffffffffffffffffffffffff16146112b4576040517f08c379a00000000000000000000000000000000000000000000000000000000081526004016112ab90613407565b60405180910390fd5b5f73ffffffffffffffffffffffffffffffffffffffff168173ffffffffffffffffffffffffffffffffffffffff1603611322576040517f08c379a00000000000000000000000000000000000000000000000000000000081526004016113199061346f565b60405180910390fd5b8060035f6101000a81548173ffffffffffffffffffffffffffffffffffffffff021916908373ffffffffffffffffffffffffffffffffffffffff16021790555050565b60025f9054906101000a900473ffffffffffffffffffffffffffffffffffffffff1673ffffffffffffffffffffffffffffffffffffffff163373ffffffffffffffffffffffffffffffffffffffff16146113f4576040517f08c379a00000000000000000000000000000000000000000000000000000000081526004016113eb90613407565b60405180910390fd5b5f5f90505b838390508110156115e4575f8573ffffffffffffffffffffffffffffffffffffffff166370a08231868685818110611434576114336134f3565b5b90506020020160208101906114499190612c6c565b6040518263ffffffff1660e01b81526004016114659190612eac565b602060405180830381865afa158015611480573d5f5f3e3d5ffd5b505050506040513d601f19601f820116820180604052508101906114a4919061390a565b90505f8673ffffffffffffffffffffffffffffffffffffffff1663dd62ed3e8787868181106114d6576114d56134f3565b5b90506020020160208101906114eb9190612c6c565b306040518363ffffffff1660e01b815260040161150992919061348d565b602060405180830381865afa158015611524573d5f5f3e3d5ffd5b505050506040513d601f19601f82011682018060405250810190611548919061390a565b90505f8211156115d55781811061158d5761158c878787868181106115705761156f6134f3565b5b90506020020160208101906115859190612c6c565b86856121b9565b5b818110801561159b57505f81115b156115d4576115d3878787868181106115b7576115b66134f3565b5b90506020020160208101906115cc9190612c6c565b86846121b9565b5b5b505080806001019150506113f9565b5050505050565b60605f8383905090505f8167ffffffffffffffff81111561160f5761160e612cfd565b5b60405190808252806020026020018201604052801561164857816020015b611635612bd3565b81526020019060019003908161162d5790505b5090505f73ffffffffffffffffffffffffffffffffffffffff168673ffffffffffffffffffffffffffffffffffffffff160361174c575f5f90505b828110156117465760405180604001604052808787848181106116a9576116a86134f3565b5b90506020020160208101906116be9190612c6c565b73ffffffffffffffffffffffffffffffffffffffff1681526020018787848181106116ec576116eb6134f3565b5b90506020020160208101906117019190612c6c565b73ffffffffffffffffffffffffffffffffffffffff163181525082828151811061172e5761172d6134f3565b5b60200260200101819052508080600101915050611683565b5061187b565b5f8690505f5f90505b8381101561187857604051806040016040528088888481811061177b5761177a6134f3565b5b90506020020160208101906117909190612c6c565b73ffffffffffffffffffffffffffffffffffffffff1681526020018373ffffffffffffffffffffffffffffffffffffffff166370a082318a8a868181106117da576117d96134f3565b5b90506020020160208101906117ef9190612c6c565b6040518263ffffffff1660e01b815260040161180b9190612eac565b602060405180830381865afa158015611826573d5f5f3e3d5ffd5b505050506040513d601f19601f8201168201806040525081019061184a919061390a565b8152508382815181106118605761185f6134f3565b5b60200260200101819052508080600101915050611755565b50505b80925050509392505050565b5f83116118c9576040517f08c379a00000000000000000000000000000000000000000000000000000000081526004016118c090613858565b60405180910390fd5b5f600167ffffffffffffffff8111156118e5576118e4612cfd565b5b6040519080825280602002602001820160405280156119135781602001602082028036833780820191505090505b5090505f600167ffffffffffffffff81111561193257611931612cfd565b5b6040519080825280602002602001820160405280156119605781602001602082028036833780820191505090505b50905085825f81518110611977576119766134f3565b5b602002602001019073ffffffffffffffffffffffffffffffffffffffff16908173ffffffffffffffffffffffffffffffffffffffff168152505084815f815181106119c5576119c46134f3565b5b6020026020010181815250506119db828261253f565b7f92bfe9b63523d7c8baff8387323dd4c1c8ccd48705d9c91e19160ebcabb053b83387875f5f8989604051611a169796959493929190613977565b60405180910390a1505050505050565b6040518060400160405280600581526020017f352e302e3000000000000000000000000000000000000000000000000000000081525081565b60015f9054906101000a900473ffffffffffffffffffffffffffffffffffffffff1673ffffffffffffffffffffffffffffffffffffffff163373ffffffffffffffffffffffffffffffffffffffff1614611aee576040517f08c379a0000000000000000000000000000000000000000000000000000000008152600401611ae590613407565b60405180910390fd5b5f73ffffffffffffffffffffffffffffffffffffffff168173ffffffffffffffffffffffffffffffffffffffff1603611b5c576040517f08c379a0000000000000000000000000000000000000000000000000000000008152600401611b539061346f565b60405180910390fd5b8060045f6101000a81548173ffffffffffffffffffffffffffffffffffffffff021916908373ffffffffffffffffffffffffffffffffffffffff16021790555050565b73ca143ce32fe78f1f7019d7d551a6402fc5350c7381565b7355d398326f99059ff775485246999027b319795581565b611bd76123e7565b5f73ffffffffffffffffffffffffffffffffffffffff168173ffffffffffffffffffffffffffffffffffffffff1603611c47575f6040517f1e4fbdf7000000000000000000000000000000000000000000000000000000008152600401611c3e9190612eac565b60405180910390fd5b611c508161246e565b50565b60015f9054906101000a900473ffffffffffffffffffffffffffffffffffffffff1681565b7310ed43c718714eb63d5aa57b78b54704e256024e81565b5f611c99612781565b90505f815f0160089054906101000a900460ff161590505f825f015f9054906101000a900467ffffffffffffffff1690505f5f8267ffffffffffffffff16148015611ce15750825b90505f60018367ffffffffffffffff16148015611d1457505f3073ffffffffffffffffffffffffffffffffffffffff163b145b905081158015611d22575080155b15611d59576040517ff92ee8a900000000000000000000000000000000000000000000000000000000815260040160405180910390fd5b6001855f015f6101000a81548167ffffffffffffffff021916908367ffffffffffffffff1602179055508315611da6576001855f0160086101000a81548160ff0219169083151502179055505b611db6611db1612794565b61279b565b611dbe61281f565b8860015f6101000a81548173ffffffffffffffffffffffffffffffffffffffff021916908373ffffffffffffffffffffffffffffffffffffffff1602179055508760025f6101000a81548173ffffffffffffffffffffffffffffffffffffffff021916908373ffffffffffffffffffffffffffffffffffffffff1602179055508660035f6101000a81548173ffffffffffffffffffffffffffffffffffffffff021916908373ffffffffffffffffffffffffffffffffffffffff1602179055508560045f6101000a81548173ffffffffffffffffffffffffffffffffffffffff021916908373ffffffffffffffffffffffffffffffffffffffff1602179055508315611f18575f855f0160086101000a81548160ff0219169083151502179055507fc7f505b2f371ae2175ee4913f4499e1f2633a7b5936321eed1cdaeb6115181d26001604051611f0f9190613a2b565b60405180910390a15b505050505050505050565b7f000000000000000000000000000000000000000000000000000000000000000073ffffffffffffffffffffffffffffffffffffffff163073ffffffffffffffffffffffffffffffffffffffff161480611fd057507f000000000000000000000000000000000000000000000000000000000000000073ffffffffffffffffffffffffffffffffffffffff16611fb7612829565b73ffffffffffffffffffffffffffffffffffffffff1614155b15612007576040517fe07c8dba00000000000000000000000000000000000000000000000000000000815260040160405180910390fd5b565b6120116123e7565b50565b8173ffffffffffffffffffffffffffffffffffffffff166352d1902d6040518163ffffffff1660e01b8152600401602060405180830381865afa92505050801561207c57506040513d601f19601f820116820180604052508101906120799190613a6e565b60015b6120bd57816040517f4c9c8ce30000000000000000000000000000000000000000000000000000000081526004016120b49190612eac565b60405180910390fd5b7f360894a13ba1a3210667c828492db98dca3e2076cc3735a920a3ca505d382bbc5f1b811461212357806040517faa1d49a400000000000000000000000000000000000000000000000000000000815260040161211a9190612e93565b60405180910390fd5b61212d838361287c565b505050565b7f000000000000000000000000000000000000000000000000000000000000000073ffffffffffffffffffffffffffffffffffffffff163073ffffffffffffffffffffffffffffffffffffffff16146121b7576040517fe07c8dba00000000000000000000000000000000000000000000000000000000815260040160405180910390fd5b565b5f5f8573ffffffffffffffffffffffffffffffffffffffff166323b872dd8686866040516024016121ec939291906137d9565b6040516020818303038152906040529060e01b6020820180517bffffffffffffffffffffffffffffffffffffffffffffffffffffffff838183161783525050505060405161223a9190613add565b5f604051808303815f865af19150503d805f8114612273576040519150601f19603f3d011682016040523d82523d5f602084013e612278565b606091505b50915091508180156122a557505f815114806122a45750808060200190518101906122a39190613b28565b5b5b6122e4576040517f08c379a00000000000000000000000000000000000000000000000000000000081526004016122db90613bc3565b60405180910390fd5b505050505050565b5f8273ffffffffffffffffffffffffffffffffffffffff16825f67ffffffffffffffff81111561231f5761231e612cfd565b5b6040519080825280601f01601f1916602001820160405280156123515781602001600182028036833780820191505090505b5060405161235f9190613add565b5f6040518083038185875af1925050503d805f8114612399576040519150601f19603f3d011682016040523d82523d5f602084013e61239e565b606091505b50509050806123e2576040517f08c379a00000000000000000000000000000000000000000000000000000000081526004016123d990613c51565b60405180910390fd5b505050565b6123ef612794565b73ffffffffffffffffffffffffffffffffffffffff1661240d6110a4565b73ffffffffffffffffffffffffffffffffffffffff161461246c57612430612794565b6040517f118cdaa70000000000000000000000000000000000000000000000000000000081526004016124639190612eac565b60405180910390fd5b565b5f61247761275a565b90505f815f015f9054906101000a900473ffffffffffffffffffffffffffffffffffffffff16905082825f015f6101000a81548173ffffffffffffffffffffffffffffffffffffffff021916908373ffffffffffffffffffffffffffffffffffffffff1602179055508273ffffffffffffffffffffffffffffffffffffffff168173ffffffffffffffffffffffffffffffffffffffff167f8be0079c531659141344cd1fd0a4f28419497f9722a3daafe3b4186f6b6457e060405160405180910390a3505050565b8051825114612583576040517f08c379a000000000000000000000000000000000000000000000000000000000815260040161257a90613cb9565b60405180910390fd5b5f5f90505f5f90505f5f90505b845181101561266b575f8582815181106125ad576125ac6134f3565b5b602002602001015190505f8583815181106125cb576125ca6134f3565b5b602002602001015190505f81036125e357505061265e565b5f73ffffffffffffffffffffffffffffffffffffffff168273ffffffffffffffffffffffffffffffffffffffff160361262d5780856126229190613cd7565b94506001935061265b565b61265a823360035f9054906101000a900473ffffffffffffffffffffffffffffffffffffffff16846121b9565b5b50505b8080600101915050612590565b50801561271157813410156126b5576040517f08c379a00000000000000000000000000000000000000000000000000000000081526004016126ac90613d54565b60405180910390fd5b5f8211156126e9576126e860035f9054906101000a900473ffffffffffffffffffffffffffffffffffffffff16836122ec565b5b5f82346126f6919061373e565b90505f81111561270b5761270a33826122ec565b5b50612754565b5f3414612753576040517f08c379a000000000000000000000000000000000000000000000000000000000815260040161274a90613dbc565b60405180910390fd5b5b50505050565b5f7f9016d09d72d40fdae2fd8ceac6b6234c7706214fd39c1cd1e609a0528c199300905090565b5f5f61278b6128ee565b90508091505090565b5f33905090565b6127a3612917565b5f73ffffffffffffffffffffffffffffffffffffffff168173ffffffffffffffffffffffffffffffffffffffff1603612813575f6040517f1e4fbdf700000000000000000000000000000000000000000000000000000000815260040161280a9190612eac565b60405180910390fd5b61281c8161246e565b50565b612827612917565b565b5f6128557f360894a13ba1a3210667c828492db98dca3e2076cc3735a920a3ca505d382bbc5f1b612957565b5f015f9054906101000a900473ffffffffffffffffffffffffffffffffffffffff16905090565b61288582612960565b8173ffffffffffffffffffffffffffffffffffffffff167fbc7cd75a20ee27fd9adebab32041f755214dbc6bffa90cc0225b39da2e5c2d3b60405160405180910390a25f815111156128e1576128db8282612a29565b506128ea565b6128e9612aa9565b5b5050565b5f7ff0c57e16840df040f15088dc2f81fe391c3923bec73e23a9662efc9c229c6a005f1b905090565b61291f612ae5565b612955576040517fd7e6bcf800000000000000000000000000000000000000000000000000000000815260040160405180910390fd5b565b5f819050919050565b5f8173ffffffffffffffffffffffffffffffffffffffff163b036129bb57806040517f4c9c8ce30000000000000000000000000000000000000000000000000000000081526004016129b29190612eac565b60405180910390fd5b806129e77f360894a13ba1a3210667c828492db98dca3e2076cc3735a920a3ca505d382bbc5f1b612957565b5f015f6101000a81548173ffffffffffffffffffffffffffffffffffffffff021916908373ffffffffffffffffffffffffffffffffffffffff16021790555050565b60605f5f8473ffffffffffffffffffffffffffffffffffffffff1684604051612a529190613add565b5f60405180830381855af49150503d805f8114612a8a576040519150601f19603f3d011682016040523d82523d5f602084013e612a8f565b606091505b5091509150612a9f858383612b03565b9250505092915050565b5f341115612ae3576040517fb398979f00000000000000000000000000000000000000000000000000000000815260040160405180910390fd5b565b5f612aee612781565b5f0160089054906101000a900460ff16905090565b606082612b1857612b1382612b90565b612b88565b5f8251148015612b3e57505f8473ffffffffffffffffffffffffffffffffffffffff163b145b15612b8057836040517f9996b315000000000000000000000000000000000000000000000000000000008152600401612b779190612eac565b60405180910390fd5b819050612b89565b5b9392505050565b5f81511115612ba157805160208201fd5b6040517fd6bda27500000000000000000000000000000000000000000000000000000000815260040160405180910390fd5b60405180604001604052805f73ffffffffffffffffffffffffffffffffffffffff1681526020015f81525090565b5f604051905090565b5f5ffd5b5f5ffd5b5f73ffffffffffffffffffffffffffffffffffffffff82169050919050565b5f612c3b82612c12565b9050919050565b612c4b81612c31565b8114612c55575f5ffd5b50565b5f81359050612c6681612c42565b92915050565b5f60208284031215612c8157612c80612c0a565b5b5f612c8e84828501612c58565b91505092915050565b612ca081612c31565b82525050565b5f819050919050565b612cb881612ca6565b82525050565b5f604082019050612cd15f830185612c97565b612cde6020830184612caf565b9392505050565b5f5ffd5b5f5ffd5b5f601f19601f8301169050919050565b7f4e487b71000000000000000000000000000000000000000000000000000000005f52604160045260245ffd5b612d3382612ced565b810181811067ffffffffffffffff82111715612d5257612d51612cfd565b5b80604052505050565b5f612d64612c01565b9050612d708282612d2a565b919050565b5f67ffffffffffffffff821115612d8f57612d8e612cfd565b5b612d9882612ced565b9050602081019050919050565b828183375f83830152505050565b5f612dc5612dc084612d75565b612d5b565b905082815260208101848484011115612de157612de0612ce9565b5b612dec848285612da5565b509392505050565b5f82601f830112612e0857612e07612ce5565b5b8135612e18848260208601612db3565b91505092915050565b5f5f60408385031215612e3757612e36612c0a565b5b5f612e4485828601612c58565b925050602083013567ffffffffffffffff811115612e6557612e64612c0e565b5b612e7185828601612df4565b9150509250929050565b5f819050919050565b612e8d81612e7b565b82525050565b5f602082019050612ea65f830184612e84565b92915050565b5f602082019050612ebf5f830184612c97565b92915050565b612ece81612ca6565b8114612ed8575f5ffd5b50565b5f81359050612ee981612ec5565b92915050565b5f5f5f60608486031215612f0657612f05612c0a565b5b5f612f1386828701612c58565b9350506020612f2486828701612edb565b9250506040612f3586828701612c58565b9150509250925092565b5f5ffd5b5f5ffd5b5f5f83601f840112612f5c57612f5b612ce5565b5b8235905067ffffffffffffffff811115612f7957612f78612f3f565b5b602083019150836001820283011115612f9557612f94612f43565b5b9250929050565b5f5f5f5f5f5f60a08789031215612fb657612fb5612c0a565b5b5f612fc389828a01612c58565b9650506020612fd489828a01612edb565b9550506040612fe589828a01612c58565b9450506060612ff689828a01612edb565b935050608087013567ffffffffffffffff81111561301757613016612c0e565b5b61302389828a01612f47565b92509250509295509295509295565b5f5f83601f84011261304757613046612ce5565b5b8235905067ffffffffffffffff81111561306457613063612f3f565b5b6020830191508360208202830111156130805761307f612f43565b5b9250929050565b5f5f5f5f6060858703121561309f5761309e612c0a565b5b5f6130ac87828801612c58565b945050602085013567ffffffffffffffff8111156130cd576130cc612c0e565b5b6130d987828801613032565b935093505060406130ec87828801612c58565b91505092959194509250565b5f5f5f6040848603121561310f5761310e612c0a565b5b5f61311c86828701612c58565b935050602084013567ffffffffffffffff81111561313d5761313c612c0e565b5b61314986828701613032565b92509250509250925092565b5f81519050919050565b5f82825260208201905092915050565b5f819050602082019050919050565b61318781612c31565b82525050565b61319681612ca6565b82525050565b604082015f8201516131b05f85018261317e565b5060208201516131c3602085018261318d565b50505050565b5f6131d4838361319c565b60408301905092915050565b5f602082019050919050565b5f6131f682613155565b613200818561315f565b935061320b8361316f565b805f5b8381101561323b57815161322288826131c9565b975061322d836131e0565b92505060018101905061320e565b5085935050505092915050565b5f6020820190508181035f83015261326081846131ec565b905092915050565b5f5f5f5f606085870312156132805761327f612c0a565b5b5f61328d87828801612c58565b945050602061329e87828801612edb565b935050604085013567ffffffffffffffff8111156132bf576132be612c0e565b5b6132cb87828801612f47565b925092505092959194509250565b5f81519050919050565b5f82825260208201905092915050565b8281835e5f83830152505050565b5f61330b826132d9565b61331581856132e3565b93506133258185602086016132f3565b61332e81612ced565b840191505092915050565b5f6020820190508181035f8301526133518184613301565b905092915050565b5f5f5f5f6080858703121561337157613370612c0a565b5b5f61337e87828801612c58565b945050602061338f87828801612c58565b93505060406133a087828801612c58565b92505060606133b187828801612c58565b91505092959194509250565b7f4552524f525f41444d494e2e00000000000000000000000000000000000000005f82015250565b5f6133f1600c836132e3565b91506133fc826133bd565b602082019050919050565b5f6020820190508181035f83015261341e816133e5565b9050919050565b7f5a45524f5f414444524553532e000000000000000000000000000000000000005f82015250565b5f613459600d836132e3565b915061346482613425565b602082019050919050565b5f6020820190508181035f8301526134868161344d565b9050919050565b5f6040820190506134a05f830185612c97565b6134ad6020830184612c97565b9392505050565b5f815190506134c281612c42565b92915050565b5f602082840312156134dd576134dc612c0a565b5b5f6134ea848285016134b4565b91505092915050565b7f4e487b71000000000000000000000000000000000000000000000000000000005f52603260045260245ffd5b5f81519050919050565b5f82825260208201905092915050565b5f819050602082019050919050565b5f613554838361317e565b60208301905092915050565b5f602082019050919050565b5f61357682613520565b613580818561352a565b935061358b8361353a565b805f5b838110156135bb5781516135a28882613549565b97506135ad83613560565b92505060018101905061358e565b5085935050505092915050565b5f6040820190506135db5f830185612caf565b81810360208301526135ed818461356c565b90509392505050565b5f67ffffffffffffffff8211156136105761360f612cfd565b5b602082029050602081019050919050565b5f8151905061362f81612ec5565b92915050565b5f613647613642846135f6565b612d5b565b9050808382526020820190506020840283018581111561366a57613669612f43565b5b835b81811015613693578061367f8882613621565b84526020840193505060208101905061366c565b5050509392505050565b5f82601f8301126136b1576136b0612ce5565b5b81516136c1848260208601613635565b91505092915050565b5f602082840312156136df576136de612c0a565b5b5f82015167ffffffffffffffff8111156136fc576136fb612c0e565b5b6137088482850161369d565b91505092915050565b7f4e487b71000000000000000000000000000000000000000000000000000000005f52601160045260245ffd5b5f61374882612ca6565b915061375383612ca6565b925082820390508181111561376b5761376a613711565b5b92915050565b7f4552524f525f414d4f554e542e000000000000000000000000000000000000005f82015250565b5f6137a5600d836132e3565b91506137b082613771565b602082019050919050565b5f6020820190508181035f8301526137d281613799565b9050919050565b5f6060820190506137ec5f830186612c97565b6137f96020830185612c97565b6138066040830184612caf565b949350505050565b7f4552524f525f414d4f554e5400000000000000000000000000000000000000005f82015250565b5f613842600c836132e3565b915061384d8261380e565b602082019050919050565b5f6020820190508181035f83015261386f81613836565b9050919050565b5f61388183856132e3565b935061388e838584612da5565b61389783612ced565b840190509392505050565b5f60c0820190506138b55f83018a612c97565b6138c26020830189612c97565b6138cf6040830188612caf565b6138dc6060830187612c97565b6138e96080830186612caf565b81810360a08301526138fc818486613876565b905098975050505050505050565b5f6020828403121561391f5761391e612c0a565b5b5f61392c84828501613621565b91505092915050565b5f819050919050565b5f819050919050565b5f61396161395c61395784613935565b61393e565b612ca6565b9050919050565b61397181613947565b82525050565b5f60c08201905061398a5f83018a612c97565b6139976020830189612c97565b6139a46040830188612caf565b6139b16060830187612c97565b6139be6080830186613968565b81810360a08301526139d1818486613876565b905098975050505050505050565b5f819050919050565b5f67ffffffffffffffff82169050919050565b5f613a15613a10613a0b846139df565b61393e565b6139e8565b9050919050565b613a25816139fb565b82525050565b5f602082019050613a3e5f830184613a1c565b92915050565b613a4d81612e7b565b8114613a57575f5ffd5b50565b5f81519050613a6881613a44565b92915050565b5f60208284031215613a8357613a82612c0a565b5b5f613a9084828501613a5a565b91505092915050565b5f81519050919050565b5f81905092915050565b5f613ab782613a99565b613ac18185613aa3565b9350613ad18185602086016132f3565b80840191505092915050565b5f613ae88284613aad565b915081905092915050565b5f8115159050919050565b613b0781613af3565b8114613b11575f5ffd5b50565b5f81519050613b2281613afe565b92915050565b5f60208284031215613b3d57613b3c612c0a565b5b5f613b4a84828501613b14565b91505092915050565b7f5472616e7366657248656c7065723a205452414e534645525f46524f4d5f46415f8201527f494c454400000000000000000000000000000000000000000000000000000000602082015250565b5f613bad6024836132e3565b9150613bb882613b53565b604082019050919050565b5f6020820190508181035f830152613bda81613ba1565b9050919050565b7f5472616e7366657248656c7065723a204554485f5452414e534645525f4641495f8201527f4c45440000000000000000000000000000000000000000000000000000000000602082015250565b5f613c3b6023836132e3565b9150613c4682613be1565b604082019050919050565b5f6020820190508181035f830152613c6881613c2f565b9050919050565b7f4d49534d415443485f4c454e47544800000000000000000000000000000000005f82015250565b5f613ca3600f836132e3565b9150613cae82613c6f565b602082019050919050565b5f6020820190508181035f830152613cd081613c97565b9050919050565b5f613ce182612ca6565b9150613cec83612ca6565b9250828201905080821115613d0457613d03613711565b5b92915050565b7f4552524f525f50415941424c455f414d4f554e540000000000000000000000005f82015250565b5f613d3e6014836132e3565b9150613d4982613d0a565b602082019050919050565b5f6020820190508181035f830152613d6b81613d32565b9050919050565b7f4e4f5f4554485f524551554952454400000000000000000000000000000000005f82015250565b5f613da6600f836132e3565b9150613db182613d72565b602082019050919050565b5f6020820190508181035f830152613dd381613d9a565b905091905056fea264697066735822122069d6840baca6e85d70760657df69e492dc88622d48b6c225d1c1b3d064ae1d8a64736f6c634300081e0033","linkReferences":{}},"methodIdentifiers":{"UPGRADE_INTERFACE_VERSION()":"ad3cb1cc","USDT()":"c54e44eb","WBNB()":"8dd95002","admin()":"f851a440","changeAdmin(address)":"8f283970","changeOperator(address)":"06394c9b","changeRecipient(address)":"92c2bcb4","changeSender(address)":"b280a7e7","factory()":"c45a0155","getPrice(address)":"41976e09","initialize(address,address,address,address)":"f8c8765e","multiBalanceOf(address,address[])":"9f166cf1","multiRecharge(address,uint256,address,uint256,string)":"73abf0af","operator()":"570ca735","owner()":"8da5cb5b","proxiableUUID()":"52d1902d","recipient()":"66d003ac","renounceOwnership()":"715018a6","router()":"f887ea40","sender()":"67e404ce","singleRecharge(address,uint256,string)":"aa7e7eb9","transferOwnership(address)":"f2fde38b","upgradeToAndCall(address,bytes)":"4f1ef286","withdraw(address,uint256,address)":"69328dec","withdraw_(address,address[],address)":"983b744a"},"id":37}