{"abi":[{"type":"receive","stateMutability":"payable"},{"type":"function","name":"UPGRADE_INTERFACE_VERSION","inputs":[],"outputs":[{"name":"","type":"string","internalType":"string"}],"stateMutability":"view"},{"type":"function","name":"USDT","inputs":[],"outputs":[{"name":"","type":"address","internalType":"address"}],"stateMutability":"view"},{"type":"function","name":"WBNB","inputs":[],"outputs":[{"name":"","type":"address","internalType":"address"}],"stateMutability":"view"},{"type":"function","name":"admin","inputs":[],"outputs":[{"name":"","type":"address","internalType":"address"}],"stateMutability":"view"},{"type":"function","name":"changeAdmin","inputs":[{"name":"_newAdmin","type":"address","internalType":"address"}],"outputs":[],"stateMutability":"nonpayable"},{"type":"function","name":"changeOperator","inputs":[{"name":"_newOperator","type":"address","internalType":"address"}],"outputs":[],"stateMutability":"nonpayable"},{"type":"function","name":"changeRecipient","inputs":[{"name":"_newRecipient","type":"address","internalType":"address"}],"outputs":[],"stateMutability":"nonpayable"},{"type":"function","name":"changeSender","inputs":[{"name":"_newSender","type":"address","internalType":"address"}],"outputs":[],"stateMutability":"nonpayable"},{"type":"function","name":"factory","inputs":[],"outputs":[{"name":"","type":"address","internalType":"address"}],"stateMutability":"view"},{"type":"function","name":"getPrice","inputs":[{"name":"token","type":"address","internalType":"address"}],"outputs":[{"name":"","type":"address","internalType":"address"},{"name":"","type":"uint256","internalType":"uint256"}],"stateMutability":"view"},{"type":"function","name":"initialize","inputs":[{"name":"_admin","type":"address","internalType":"address"},{"name":"_operator","type":"address","internalType":"address"},{"name":"_recipient","type":"address","internalType":"address"},{"name":"_sender","type":"address","internalType":"address"}],"outputs":[],"stateMutability":"nonpayable"},{"type":"function","name":"multiBalanceOf","inputs":[{"name":"token","type":"address","internalType":"address"},{"name":"users","type":"address[]","internalType":"address[]"}],"outputs":[{"name":"","type":"tuple[]","internalType":"struct Recharge.Info[]","components":[{"name":"user","type":"address","internalType":"address"},{"name":"amount","type":"uint256","internalType":"uint256"}]}],"stateMutability":"view"},{"type":"function","name":"multiRecharge","inputs":[{"name":"token0","type":"address","internalType":"address"},{"name":"amount0","type":"uint256","internalType":"uint256"},{"name":"token1","type":"address","internalType":"address"},{"name":"amount1","type":"uint256","internalType":"uint256"},{"name":"remark","type":"string","internalType":"string"}],"outputs":[],"stateMutability":"payable"},{"type":"function","name":"operator","inputs":[],"outputs":[{"name":"","type":"address","internalType":"address"}],"stateMutability":"view"},{"type":"function","name":"owner","inputs":[],"outputs":[{"name":"","type":"address","internalType":"address"}],"stateMutability":"view"},{"type":"function","name":"proxiableUUID","inputs":[],"outputs":[{"name":"","type":"bytes32","internalType":"bytes32"}],"stateMutability":"view"},{"type":"function","name":"recipient","inputs":[],"outputs":[{"name":"","type":"address","internalType":"address"}],"stateMutability":"view"},{"type":"function","name":"renounceOwnership","inputs":[],"outputs":[],"stateMutability":"nonpayable"},{"type":"function","name":"router","inputs":[],"outputs":[{"name":"","type":"address","internalType":"address"}],"stateMutability":"view"},{"type":"function","name":"sender","inputs":[],"outputs":[{"name":"","type":"address","internalType":"address"}],"stateMutability":"view"},{"type":"function","name":"singleRecharge","inputs":[{"name":"token","type":"address","internalType":"address"},{"name":"amount","type":"uint256","internalType":"uint256"},{"name":"remark","type":"string","internalType":"string"}],"outputs":[],"stateMutability":"payable"},{"type":"function","name":"transferOwnership","inputs":[{"name":"newOwner","type":"address","internalType":"address"}],"outputs":[],"stateMutability":"nonpayable"},{"type":"function","name":"upgradeToAndCall","inputs":[{"name":"newImplementation","type":"address","internalType":"address"},{"name":"data","type":"bytes","internalType":"bytes"}],"outputs":[],"stateMutability":"payable"},{"type":"function","name":"withdraw","inputs":[{"name":"remark","type":"string","internalType":"string"},{"name":"token","type":"address","internalType":"address"},{"name":"amount","type":"uint256","internalType":"uint256"},{"name":"to","type":"address","internalType":"address"}],"outputs":[],"stateMutability":"nonpayable"},{"type":"function","name":"withdraw_","inputs":[{"name":"token","type":"address","internalType":"address"},{"name":"users","type":"address[]","internalType":"address[]"},{"name":"to","type":"address","internalType":"address"}],"outputs":[],"stateMutability":"nonpayable"},{"type":"event","name":"AdminshipTransferred","inputs":[{"name":"previousAdmin","type":"address","indexed":true,"internalType":"address"},{"name":"newAdmin","type":"address","indexed":true,"internalType":"address"}],"anonymous":false},{"type":"event","name":"Initialized","inputs":[{"name":"version","type":"uint64","indexed":false,"internalType":"uint64"}],"anonymous":false},{"type":"event","name":"MultiRecharge","inputs":[{"name":"user","type":"address","indexed":false,"internalType":"address"},{"name":"token0","type":"address","indexed":false,"internalType":"address"},{"name":"amount0","type":"uint256","indexed":false,"internalType":"uint256"},{"name":"token1","type":"address","indexed":false,"internalType":"address"},{"name":"amount1","type":"uint256","indexed":false,"internalType":"uint256"},{"name":"remark","type":"string","indexed":false,"internalType":"string"}],"anonymous":false},{"type":"event","name":"OwnershipTransferred","inputs":[{"name":"previousOwner","type":"address","indexed":true,"internalType":"address"},{"name":"newOwner","type":"address","indexed":true,"internalType":"address"}],"anonymous":false},{"type":"event","name":"Upgraded","inputs":[{"name":"implementation","type":"address","indexed":true,"internalType":"address"}],"anonymous":false},{"type":"event","name":"Withdraw","inputs":[{"name":"remark","type":"string","indexed":false,"internalType":"string"},{"name":"token","type":"address","indexed":false,"internalType":"address"},{"name":"to","type":"address","indexed":false,"internalType":"address"},{"name":"amount","type":"uint256","indexed":false,"internalType":"uint256"}],"anonymous":false},{"type":"error","name":"AddressEmptyCode","inputs":[{"name":"target","type":"address","internalType":"address"}]},{"type":"error","name":"ERC1967InvalidImplementation","inputs":[{"name":"implementation","type":"address","internalType":"address"}]},{"type":"error","name":"ERC1967NonPayable","inputs":[]},{"type":"error","name":"FailedCall","inputs":[]},{"type":"error","name":"InvalidInitialization","inputs":[]},{"type":"error","name":"NotInitializing","inputs":[]},{"type":"error","name":"OwnableInvalidOwner","inputs":[{"name":"owner","type":"address","internalType":"address"}]},{"type":"error","name":"OwnableUnauthorizedAccount","inputs":[{"name":"account","type":"address","internalType":"address"}]},{"type":"error","name":"ReentrancyGuardReentrantCall","inputs":[]},{"type":"error","name":"UUPSUnauthorizedCallContext","inputs":[]},{"type":"error","name":"UUPSUnsupportedProxiableUUID","inputs":[{"name":"slot","type":"bytes32","internalType":"bytes32"}]}],"bytecode":{"object":"0x60a06040523073ffffffffffffffffffffffffffffffffffffffff1660809073ffffffffffffffffffffffffffffffffffffffff168152503480156041575f5ffd5b5060015f81905550608051613f2b61006f5f395f8181611f2801528181611f7d01526121370152613f2b5ff3fe608060405260043610610169575f3560e01c80638f283970116100d0578063b280a7e711610089578063f2fde38b11610063578063f2fde38b146104c1578063f851a440146104e9578063f887ea4014610513578063f8c8765e1461053d57610170565b8063b280a7e714610445578063c45a01551461046d578063c54e44eb1461049757610170565b80638f2839701461034b57806392c2bcb414610373578063983b744a1461039b5780639f166cf1146103c3578063aa7e7eb9146103ff578063ad3cb1cc1461041b57610170565b806366d003ac1161012257806366d003ac1461027157806367e404ce1461029b578063715018a6146102c557806373abf0af146102db5780638da5cb5b146102f75780638dd950021461032157610170565b806306394c9b1461017457806341976e091461019c5780634f1ef286146101d957806352d1902d146101f5578063570ca7351461021f57806362a338111461024957610170565b3661017057005b5f5ffd5b34801561017f575f5ffd5b5061019a60048036038101906101959190612c6f565b610565565b005b3480156101a7575f5ffd5b506101c260048036038101906101bd9190612c6f565b6106a5565b6040516101d0929190612cc1565b60405180910390f35b6101f360048036038101906101ee9190612e24565b610c36565b005b348015610200575f5ffd5b50610209610c55565b6040516102169190612e96565b60405180910390f35b34801561022a575f5ffd5b50610233610c86565b6040516102409190612eaf565b60405180910390f35b348015610254575f5ffd5b5061026f600480360381019061026a9190612f90565b610cab565b005b34801561027c575f5ffd5b50610285610e2f565b6040516102929190612eaf565b60405180910390f35b3480156102a6575f5ffd5b506102af610e54565b6040516102bc9190612eaf565b60405180910390f35b3480156102d0575f5ffd5b506102d9610e79565b005b6102f560048036038101906102f0919061306d565b610e8c565b005b348015610302575f5ffd5b5061030b6110a7565b6040516103189190612eaf565b60405180910390f35b34801561032c575f5ffd5b506103356110dc565b6040516103429190612eaf565b60405180910390f35b348015610356575f5ffd5b50610371600480360381019061036c9190612c6f565b6110f4565b005b34801561037e575f5ffd5b5061039960048036038101906103949190612c6f565b611228565b005b3480156103a6575f5ffd5b506103c160048036038101906103bc9190613158565b611368565b005b3480156103ce575f5ffd5b506103e960048036038101906103e491906131c9565b6115ee565b6040516103f69190613319565b60405180910390f35b61041960048036038101906104149190613339565b61188a565b005b348015610426575f5ffd5b5061042f611a29565b60405161043c919061340a565b60405180910390f35b348015610450575f5ffd5b5061046b60048036038101906104669190612c6f565b611a62565b005b348015610478575f5ffd5b50610481611ba2565b60405161048e9190612eaf565b60405180910390f35b3480156104a2575f5ffd5b506104ab611bba565b6040516104b89190612eaf565b60405180910390f35b3480156104cc575f5ffd5b506104e760048036038101906104e29190612c6f565b611bd2565b005b3480156104f4575f5ffd5b506104fd611c56565b60405161050a9190612eaf565b60405180910390f35b34801561051e575f5ffd5b50610527611c7b565b6040516105349190612eaf565b60405180910390f35b348015610548575f5ffd5b50610563600480360381019061055e919061342a565b611c93565b005b60015f9054906101000a900473ffffffffffffffffffffffffffffffffffffffff1673ffffffffffffffffffffffffffffffffffffffff163373ffffffffffffffffffffffffffffffffffffffff16146105f4576040517f08c379a00000000000000000000000000000000000000000000000000000000081526004016105eb906134d8565b60405180910390fd5b5f73ffffffffffffffffffffffffffffffffffffffff168173ffffffffffffffffffffffffffffffffffffffff1603610662576040517f08c379a000000000000000000000000000000000000000000000000000000000815260040161065990613540565b60405180910390fd5b8060025f6101000a81548173ffffffffffffffffffffffffffffffffffffffff021916908373ffffffffffffffffffffffffffffffffffffffff16021790555050565b5f5f5f73ca143ce32fe78f1f7019d7d551a6402fc5350c7373ffffffffffffffffffffffffffffffffffffffff1663e6a439058573bb4cdb9cbd36b01bd1cbaebf2de08d9173bc095c6040518363ffffffff1660e01b815260040161070b92919061355e565b602060405180830381865afa158015610726573d5f5f3e3d5ffd5b505050506040513d601f19601f8201168201806040525081019061074a9190613599565b90505f73ca143ce32fe78f1f7019d7d551a6402fc5350c7373ffffffffffffffffffffffffffffffffffffffff1663e6a43905867355d398326f99059ff775485246999027b31979556040518363ffffffff1660e01b81526004016107b092919061355e565b602060405180830381865afa1580156107cb573d5f5f3e3d5ffd5b505050506040513d601f19601f820116820180604052508101906107ef9190613599565b90505f670de0b6b3a764000090505f5f73ffffffffffffffffffffffffffffffffffffffff168373ffffffffffffffffffffffffffffffffffffffff1614610a12575f600267ffffffffffffffff81111561084d5761084c612d00565b5b60405190808252806020026020018201604052801561087b5781602001602082028036833780820191505090505b50905087815f81518110610892576108916135c4565b5b602002602001019073ffffffffffffffffffffffffffffffffffffffff16908173ffffffffffffffffffffffffffffffffffffffff16815250507355d398326f99059ff775485246999027b3197955816001815181106108f5576108f46135c4565b5b602002602001019073ffffffffffffffffffffffffffffffffffffffff16908173ffffffffffffffffffffffffffffffffffffffff16815250505f7310ed43c718714eb63d5aa57b78b54704e256024e73ffffffffffffffffffffffffffffffffffffffff1663d06ca61f85846040518363ffffffff1660e01b815260040161097f929190613699565b5f60405180830381865afa158015610999573d5f5f3e3d5ffd5b505050506040513d5f823e3d601f19601f820116820180604052508101906109c1919061379b565b905080600182516109d2919061380f565b815181106109e3576109e26135c4565b5b602002602001015192507355d398326f99059ff775485246999027b31979558397509750505050505050610c31565b5f73ffffffffffffffffffffffffffffffffffffffff168473ffffffffffffffffffffffffffffffffffffffff1614610c26575f600267ffffffffffffffff811115610a6157610a60612d00565b5b604051908082528060200260200182016040528015610a8f5781602001602082028036833780820191505090505b50905087815f81518110610aa657610aa56135c4565b5b602002602001019073ffffffffffffffffffffffffffffffffffffffff16908173ffffffffffffffffffffffffffffffffffffffff168152505073bb4cdb9cbd36b01bd1cbaebf2de08d9173bc095c81600181518110610b0957610b086135c4565b5b602002602001019073ffffffffffffffffffffffffffffffffffffffff16908173ffffffffffffffffffffffffffffffffffffffff16815250505f7310ed43c718714eb63d5aa57b78b54704e256024e73ffffffffffffffffffffffffffffffffffffffff1663d06ca61f85846040518363ffffffff1660e01b8152600401610b93929190613699565b5f60405180830381865afa158015610bad573d5f5f3e3d5ffd5b505050506040513d5f823e3d601f19601f82011682018060405250810190610bd5919061379b565b90508060018251610be6919061380f565b81518110610bf757610bf66135c4565b5b6020026020010151925073bb4cdb9cbd36b01bd1cbaebf2de08d9173bc095c8397509750505050505050610c31565b5f5f95509550505050505b915091565b610c3e611f26565b610c478261200c565b610c518282612017565b5050565b5f610c5e612135565b7f360894a13ba1a3210667c828492db98dca3e2076cc3735a920a3ca505d382bbc5f1b905090565b60025f9054906101000a900473ffffffffffffffffffffffffffffffffffffffff1681565b60015f9054906101000a900473ffffffffffffffffffffffffffffffffffffffff1673ffffffffffffffffffffffffffffffffffffffff163373ffffffffffffffffffffffffffffffffffffffff1614610d3a576040517f08c379a0000000000000000000000000000000000000000000000000000000008152600401610d31906134d8565b60405180910390fd5b5f8211610d7c576040517f08c379a0000000000000000000000000000000000000000000000000000000008152600401610d739061388c565b60405180910390fd5b5f73ffffffffffffffffffffffffffffffffffffffff168373ffffffffffffffffffffffffffffffffffffffff1614610de157610ddc8360045f9054906101000a900473ffffffffffffffffffffffffffffffffffffffff1683856121bc565b610dec565b610deb81836122ef565b5b7f99310eed5bb161586b62449f89ccaa4580f85f953cd64218092edfc2b1f5fce784848385604051610e2194939291906138aa565b60405180910390a150505050565b60035f9054906101000a900473ffffffffffffffffffffffffffffffffffffffff1681565b60045f9054906101000a900473ffffffffffffffffffffffffffffffffffffffff1681565b610e816123ea565b610e8a5f612471565b565b5f851180610e9957505f83115b610ed8576040517f08c379a0000000000000000000000000000000000000000000000000000000008152600401610ecf9061393e565b60405180910390fd5b5f600267ffffffffffffffff811115610ef457610ef3612d00565b5b604051908082528060200260200182016040528015610f225781602001602082028036833780820191505090505b5090505f600267ffffffffffffffff811115610f4157610f40612d00565b5b604051908082528060200260200182016040528015610f6f5781602001602082028036833780820191505090505b50905087825f81518110610f8657610f856135c4565b5b602002602001019073ffffffffffffffffffffffffffffffffffffffff16908173ffffffffffffffffffffffffffffffffffffffff168152505086815f81518110610fd457610fd36135c4565b5b6020026020010181815250508582600181518110610ff557610ff46135c4565b5b602002602001019073ffffffffffffffffffffffffffffffffffffffff16908173ffffffffffffffffffffffffffffffffffffffff16815250508481600181518110611044576110436135c4565b5b60200260200101818152505061105a8282612542565b7f92bfe9b63523d7c8baff8387323dd4c1c8ccd48705d9c91e19160ebcabb053b8338989898989896040516110959796959493929190613988565b60405180910390a15050505050505050565b5f5f6110b161275d565b9050805f015f9054906101000a900473ffffffffffffffffffffffffffffffffffffffff1691505090565b73bb4cdb9cbd36b01bd1cbaebf2de08d9173bc095c81565b6110fc6123ea565b5f73ffffffffffffffffffffffffffffffffffffffff168173ffffffffffffffffffffffffffffffffffffffff160361116a576040517f08c379a000000000000000000000000000000000000000000000000000000000815260040161116190613540565b60405180910390fd5b8073ffffffffffffffffffffffffffffffffffffffff1660015f9054906101000a900473ffffffffffffffffffffffffffffffffffffffff1673ffffffffffffffffffffffffffffffffffffffff167f2931ebb3d190545dcf6801c37aa686b74f2e1000e753d0fac6e471a2aa5a621360405160405180910390a38060015f6101000a81548173ffffffffffffffffffffffffffffffffffffffff021916908373ffffffffffffffffffffffffffffffffffffffff16021790555050565b60015f9054906101000a900473ffffffffffffffffffffffffffffffffffffffff1673ffffffffffffffffffffffffffffffffffffffff163373ffffffffffffffffffffffffffffffffffffffff16146112b7576040517f08c379a00000000000000000000000000000000000000000000000000000000081526004016112ae906134d8565b60405180910390fd5b5f73ffffffffffffffffffffffffffffffffffffffff168173ffffffffffffffffffffffffffffffffffffffff1603611325576040517f08c379a000000000000000000000000000000000000000000000000000000000815260040161131c90613540565b60405180910390fd5b8060035f6101000a81548173ffffffffffffffffffffffffffffffffffffffff021916908373ffffffffffffffffffffffffffffffffffffffff16021790555050565b60025f9054906101000a900473ffffffffffffffffffffffffffffffffffffffff1673ffffffffffffffffffffffffffffffffffffffff163373ffffffffffffffffffffffffffffffffffffffff16146113f7576040517f08c379a00000000000000000000000000000000000000000000000000000000081526004016113ee906134d8565b60405180910390fd5b5f5f90505b838390508110156115e7575f8573ffffffffffffffffffffffffffffffffffffffff166370a08231868685818110611437576114366135c4565b5b905060200201602081019061144c9190612c6f565b6040518263ffffffff1660e01b81526004016114689190612eaf565b602060405180830381865afa158015611483573d5f5f3e3d5ffd5b505050506040513d601f19601f820116820180604052508101906114a791906139f0565b90505f8673ffffffffffffffffffffffffffffffffffffffff1663dd62ed3e8787868181106114d9576114d86135c4565b5b90506020020160208101906114ee9190612c6f565b306040518363ffffffff1660e01b815260040161150c92919061355e565b602060405180830381865afa158015611527573d5f5f3e3d5ffd5b505050506040513d601f19601f8201168201806040525081019061154b91906139f0565b90505f8211156115d8578181106115905761158f87878786818110611573576115726135c4565b5b90506020020160208101906115889190612c6f565b86856121bc565b5b818110801561159e57505f81115b156115d7576115d6878787868181106115ba576115b96135c4565b5b90506020020160208101906115cf9190612c6f565b86846121bc565b5b5b505080806001019150506113fc565b5050505050565b60605f8383905090505f8167ffffffffffffffff81111561161257611611612d00565b5b60405190808252806020026020018201604052801561164b57816020015b611638612bd6565b8152602001906001900390816116305790505b5090505f73ffffffffffffffffffffffffffffffffffffffff168673ffffffffffffffffffffffffffffffffffffffff160361174f575f5f90505b828110156117495760405180604001604052808787848181106116ac576116ab6135c4565b5b90506020020160208101906116c19190612c6f565b73ffffffffffffffffffffffffffffffffffffffff1681526020018787848181106116ef576116ee6135c4565b5b90506020020160208101906117049190612c6f565b73ffffffffffffffffffffffffffffffffffffffff1631815250828281518110611731576117306135c4565b5b60200260200101819052508080600101915050611686565b5061187e565b5f8690505f5f90505b8381101561187b57604051806040016040528088888481811061177e5761177d6135c4565b5b90506020020160208101906117939190612c6f565b73ffffffffffffffffffffffffffffffffffffffff1681526020018373ffffffffffffffffffffffffffffffffffffffff166370a082318a8a868181106117dd576117dc6135c4565b5b90506020020160208101906117f29190612c6f565b6040518263ffffffff1660e01b815260040161180e9190612eaf565b602060405180830381865afa158015611829573d5f5f3e3d5ffd5b505050506040513d601f19601f8201168201806040525081019061184d91906139f0565b815250838281518110611863576118626135c4565b5b60200260200101819052508080600101915050611758565b50505b80925050509392505050565b5f83116118cc576040517f08c379a00000000000000000000000000000000000000000000000000000000081526004016118c39061393e565b60405180910390fd5b5f600167ffffffffffffffff8111156118e8576118e7612d00565b5b6040519080825280602002602001820160405280156119165781602001602082028036833780820191505090505b5090505f600167ffffffffffffffff81111561193557611934612d00565b5b6040519080825280602002602001820160405280156119635781602001602082028036833780820191505090505b50905085825f8151811061197a576119796135c4565b5b602002602001019073ffffffffffffffffffffffffffffffffffffffff16908173ffffffffffffffffffffffffffffffffffffffff168152505084815f815181106119c8576119c76135c4565b5b6020026020010181815250506119de8282612542565b7f92bfe9b63523d7c8baff8387323dd4c1c8ccd48705d9c91e19160ebcabb053b83387875f5f8989604051611a199796959493929190613a5d565b60405180910390a1505050505050565b6040518060400160405280600581526020017f352e302e3000000000000000000000000000000000000000000000000000000081525081565b60015f9054906101000a900473ffffffffffffffffffffffffffffffffffffffff1673ffffffffffffffffffffffffffffffffffffffff163373ffffffffffffffffffffffffffffffffffffffff1614611af1576040517f08c379a0000000000000000000000000000000000000000000000000000000008152600401611ae8906134d8565b60405180910390fd5b5f73ffffffffffffffffffffffffffffffffffffffff168173ffffffffffffffffffffffffffffffffffffffff1603611b5f576040517f08c379a0000000000000000000000000000000000000000000000000000000008152600401611b5690613540565b60405180910390fd5b8060045f6101000a81548173ffffffffffffffffffffffffffffffffffffffff021916908373ffffffffffffffffffffffffffffffffffffffff16021790555050565b73ca143ce32fe78f1f7019d7d551a6402fc5350c7381565b7355d398326f99059ff775485246999027b319795581565b611bda6123ea565b5f73ffffffffffffffffffffffffffffffffffffffff168173ffffffffffffffffffffffffffffffffffffffff1603611c4a575f6040517f1e4fbdf7000000000000000000000000000000000000000000000000000000008152600401611c419190612eaf565b60405180910390fd5b611c5381612471565b50565b60015f9054906101000a900473ffffffffffffffffffffffffffffffffffffffff1681565b7310ed43c718714eb63d5aa57b78b54704e256024e81565b5f611c9c612784565b90505f815f0160089054906101000a900460ff161590505f825f015f9054906101000a900467ffffffffffffffff1690505f5f8267ffffffffffffffff16148015611ce45750825b90505f60018367ffffffffffffffff16148015611d1757505f3073ffffffffffffffffffffffffffffffffffffffff163b145b905081158015611d25575080155b15611d5c576040517ff92ee8a900000000000000000000000000000000000000000000000000000000815260040160405180910390fd5b6001855f015f6101000a81548167ffffffffffffffff021916908367ffffffffffffffff1602179055508315611da9576001855f0160086101000a81548160ff0219169083151502179055505b611db9611db4612797565b61279e565b611dc1612822565b8860015f6101000a81548173ffffffffffffffffffffffffffffffffffffffff021916908373ffffffffffffffffffffffffffffffffffffffff1602179055508760025f6101000a81548173ffffffffffffffffffffffffffffffffffffffff021916908373ffffffffffffffffffffffffffffffffffffffff1602179055508660035f6101000a81548173ffffffffffffffffffffffffffffffffffffffff021916908373ffffffffffffffffffffffffffffffffffffffff1602179055508560045f6101000a81548173ffffffffffffffffffffffffffffffffffffffff021916908373ffffffffffffffffffffffffffffffffffffffff1602179055508315611f1b575f855f0160086101000a81548160ff0219169083151502179055507fc7f505b2f371ae2175ee4913f4499e1f2633a7b5936321eed1cdaeb6115181d26001604051611f129190613b11565b60405180910390a15b505050505050505050565b7f000000000000000000000000000000000000000000000000000000000000000073ffffffffffffffffffffffffffffffffffffffff163073ffffffffffffffffffffffffffffffffffffffff161480611fd357507f000000000000000000000000000000000000000000000000000000000000000073ffffffffffffffffffffffffffffffffffffffff16611fba61282c565b73ffffffffffffffffffffffffffffffffffffffff1614155b1561200a576040517fe07c8dba00000000000000000000000000000000000000000000000000000000815260040160405180910390fd5b565b6120146123ea565b50565b8173ffffffffffffffffffffffffffffffffffffffff166352d1902d6040518163ffffffff1660e01b8152600401602060405180830381865afa92505050801561207f57506040513d601f19601f8201168201806040525081019061207c9190613b54565b60015b6120c057816040517f4c9c8ce30000000000000000000000000000000000000000000000000000000081526004016120b79190612eaf565b60405180910390fd5b7f360894a13ba1a3210667c828492db98dca3e2076cc3735a920a3ca505d382bbc5f1b811461212657806040517faa1d49a400000000000000000000000000000000000000000000000000000000815260040161211d9190612e96565b60405180910390fd5b612130838361287f565b505050565b7f000000000000000000000000000000000000000000000000000000000000000073ffffffffffffffffffffffffffffffffffffffff163073ffffffffffffffffffffffffffffffffffffffff16146121ba576040517fe07c8dba00000000000000000000000000000000000000000000000000000000815260040160405180910390fd5b565b5f5f8573ffffffffffffffffffffffffffffffffffffffff166323b872dd8686866040516024016121ef93929190613b7f565b6040516020818303038152906040529060e01b6020820180517bffffffffffffffffffffffffffffffffffffffffffffffffffffffff838183161783525050505060405161223d9190613bf8565b5f604051808303815f865af19150503d805f8114612276576040519150601f19603f3d011682016040523d82523d5f602084013e61227b565b606091505b50915091508180156122a857505f815114806122a75750808060200190518101906122a69190613c43565b5b5b6122e7576040517f08c379a00000000000000000000000000000000000000000000000000000000081526004016122de90613cde565b60405180910390fd5b505050505050565b5f8273ffffffffffffffffffffffffffffffffffffffff16825f67ffffffffffffffff81111561232257612321612d00565b5b6040519080825280601f01601f1916602001820160405280156123545781602001600182028036833780820191505090505b506040516123629190613bf8565b5f6040518083038185875af1925050503d805f811461239c576040519150601f19603f3d011682016040523d82523d5f602084013e6123a1565b606091505b50509050806123e5576040517f08c379a00000000000000000000000000000000000000000000000000000000081526004016123dc90613d6c565b60405180910390fd5b505050565b6123f2612797565b73ffffffffffffffffffffffffffffffffffffffff166124106110a7565b73ffffffffffffffffffffffffffffffffffffffff161461246f57612433612797565b6040517f118cdaa70000000000000000000000000000000000000000000000000000000081526004016124669190612eaf565b60405180910390fd5b565b5f61247a61275d565b90505f815f015f9054906101000a900473ffffffffffffffffffffffffffffffffffffffff16905082825f015f6101000a81548173ffffffffffffffffffffffffffffffffffffffff021916908373ffffffffffffffffffffffffffffffffffffffff1602179055508273ffffffffffffffffffffffffffffffffffffffff168173ffffffffffffffffffffffffffffffffffffffff167f8be0079c531659141344cd1fd0a4f28419497f9722a3daafe3b4186f6b6457e060405160405180910390a3505050565b8051825114612586576040517f08c379a000000000000000000000000000000000000000000000000000000000815260040161257d90613dd4565b60405180910390fd5b5f5f90505f5f90505f5f90505b845181101561266e575f8582815181106125b0576125af6135c4565b5b602002602001015190505f8583815181106125ce576125cd6135c4565b5b602002602001015190505f81036125e6575050612661565b5f73ffffffffffffffffffffffffffffffffffffffff168273ffffffffffffffffffffffffffffffffffffffff16036126305780856126259190613df2565b94506001935061265e565b61265d823360035f9054906101000a900473ffffffffffffffffffffffffffffffffffffffff16846121bc565b5b50505b8080600101915050612593565b50801561271457813410156126b8576040517f08c379a00000000000000000000000000000000000000000000000000000000081526004016126af90613e6f565b60405180910390fd5b5f8211156126ec576126eb60035f9054906101000a900473ffffffffffffffffffffffffffffffffffffffff16836122ef565b5b5f82346126f9919061380f565b90505f81111561270e5761270d33826122ef565b5b50612757565b5f3414612756576040517f08c379a000000000000000000000000000000000000000000000000000000000815260040161274d90613ed7565b60405180910390fd5b5b50505050565b5f7f9016d09d72d40fdae2fd8ceac6b6234c7706214fd39c1cd1e609a0528c199300905090565b5f5f61278e6128f1565b90508091505090565b5f33905090565b6127a661291a565b5f73ffffffffffffffffffffffffffffffffffffffff168173ffffffffffffffffffffffffffffffffffffffff1603612816575f6040517f1e4fbdf700000000000000000000000000000000000000000000000000000000815260040161280d9190612eaf565b60405180910390fd5b61281f81612471565b50565b61282a61291a565b565b5f6128587f360894a13ba1a3210667c828492db98dca3e2076cc3735a920a3ca505d382bbc5f1b61295a565b5f015f9054906101000a900473ffffffffffffffffffffffffffffffffffffffff16905090565b61288882612963565b8173ffffffffffffffffffffffffffffffffffffffff167fbc7cd75a20ee27fd9adebab32041f755214dbc6bffa90cc0225b39da2e5c2d3b60405160405180910390a25f815111156128e4576128de8282612a2c565b506128ed565b6128ec612aac565b5b5050565b5f7ff0c57e16840df040f15088dc2f81fe391c3923bec73e23a9662efc9c229c6a005f1b905090565b612922612ae8565b612958576040517fd7e6bcf800000000000000000000000000000000000000000000000000000000815260040160405180910390fd5b565b5f819050919050565b5f8173ffffffffffffffffffffffffffffffffffffffff163b036129be57806040517f4c9c8ce30000000000000000000000000000000000000000000000000000000081526004016129b59190612eaf565b60405180910390fd5b806129ea7f360894a13ba1a3210667c828492db98dca3e2076cc3735a920a3ca505d382bbc5f1b61295a565b5f015f6101000a81548173ffffffffffffffffffffffffffffffffffffffff021916908373ffffffffffffffffffffffffffffffffffffffff16021790555050565b60605f5f8473ffffffffffffffffffffffffffffffffffffffff1684604051612a559190613bf8565b5f60405180830381855af49150503d805f8114612a8d576040519150601f19603f3d011682016040523d82523d5f602084013e612a92565b606091505b5091509150612aa2858383612b06565b9250505092915050565b5f341115612ae6576040517fb398979f00000000000000000000000000000000000000000000000000000000815260040160405180910390fd5b565b5f612af1612784565b5f0160089054906101000a900460ff16905090565b606082612b1b57612b1682612b93565b612b8b565b5f8251148015612b4157505f8473ffffffffffffffffffffffffffffffffffffffff163b145b15612b8357836040517f9996b315000000000000000000000000000000000000000000000000000000008152600401612b7a9190612eaf565b60405180910390fd5b819050612b8c565b5b9392505050565b5f81511115612ba457805160208201fd5b6040517fd6bda27500000000000000000000000000000000000000000000000000000000815260040160405180910390fd5b60405180604001604052805f73ffffffffffffffffffffffffffffffffffffffff1681526020015f81525090565b5f604051905090565b5f5ffd5b5f5ffd5b5f73ffffffffffffffffffffffffffffffffffffffff82169050919050565b5f612c3e82612c15565b9050919050565b612c4e81612c34565b8114612c58575f5ffd5b50565b5f81359050612c6981612c45565b92915050565b5f60208284031215612c8457612c83612c0d565b5b5f612c9184828501612c5b565b91505092915050565b612ca381612c34565b82525050565b5f819050919050565b612cbb81612ca9565b82525050565b5f604082019050612cd45f830185612c9a565b612ce16020830184612cb2565b9392505050565b5f5ffd5b5f5ffd5b5f601f19601f8301169050919050565b7f4e487b71000000000000000000000000000000000000000000000000000000005f52604160045260245ffd5b612d3682612cf0565b810181811067ffffffffffffffff82111715612d5557612d54612d00565b5b80604052505050565b5f612d67612c04565b9050612d738282612d2d565b919050565b5f67ffffffffffffffff821115612d9257612d91612d00565b5b612d9b82612cf0565b9050602081019050919050565b828183375f83830152505050565b5f612dc8612dc384612d78565b612d5e565b905082815260208101848484011115612de457612de3612cec565b5b612def848285612da8565b509392505050565b5f82601f830112612e0b57612e0a612ce8565b5b8135612e1b848260208601612db6565b91505092915050565b5f5f60408385031215612e3a57612e39612c0d565b5b5f612e4785828601612c5b565b925050602083013567ffffffffffffffff811115612e6857612e67612c11565b5b612e7485828601612df7565b9150509250929050565b5f819050919050565b612e9081612e7e565b82525050565b5f602082019050612ea95f830184612e87565b92915050565b5f602082019050612ec25f830184612c9a565b92915050565b5f67ffffffffffffffff821115612ee257612ee1612d00565b5b612eeb82612cf0565b9050602081019050919050565b5f612f0a612f0584612ec8565b612d5e565b905082815260208101848484011115612f2657612f25612cec565b5b612f31848285612da8565b509392505050565b5f82601f830112612f4d57612f4c612ce8565b5b8135612f5d848260208601612ef8565b91505092915050565b612f6f81612ca9565b8114612f79575f5ffd5b50565b5f81359050612f8a81612f66565b92915050565b5f5f5f5f60808587031215612fa857612fa7612c0d565b5b5f85013567ffffffffffffffff811115612fc557612fc4612c11565b5b612fd187828801612f39565b9450506020612fe287828801612c5b565b9350506040612ff387828801612f7c565b925050606061300487828801612c5b565b91505092959194509250565b5f5ffd5b5f5ffd5b5f5f83601f84011261302d5761302c612ce8565b5b8235905067ffffffffffffffff81111561304a57613049613010565b5b60208301915083600182028301111561306657613065613014565b5b9250929050565b5f5f5f5f5f5f60a0878903121561308757613086612c0d565b5b5f61309489828a01612c5b565b96505060206130a589828a01612f7c565b95505060406130b689828a01612c5b565b94505060606130c789828a01612f7c565b935050608087013567ffffffffffffffff8111156130e8576130e7612c11565b5b6130f489828a01613018565b92509250509295509295509295565b5f5f83601f84011261311857613117612ce8565b5b8235905067ffffffffffffffff81111561313557613134613010565b5b60208301915083602082028301111561315157613150613014565b5b9250929050565b5f5f5f5f606085870312156131705761316f612c0d565b5b5f61317d87828801612c5b565b945050602085013567ffffffffffffffff81111561319e5761319d612c11565b5b6131aa87828801613103565b935093505060406131bd87828801612c5b565b91505092959194509250565b5f5f5f604084860312156131e0576131df612c0d565b5b5f6131ed86828701612c5b565b935050602084013567ffffffffffffffff81111561320e5761320d612c11565b5b61321a86828701613103565b92509250509250925092565b5f81519050919050565b5f82825260208201905092915050565b5f819050602082019050919050565b61325881612c34565b82525050565b61326781612ca9565b82525050565b604082015f8201516132815f85018261324f565b506020820151613294602085018261325e565b50505050565b5f6132a5838361326d565b60408301905092915050565b5f602082019050919050565b5f6132c782613226565b6132d18185613230565b93506132dc83613240565b805f5b8381101561330c5781516132f3888261329a565b97506132fe836132b1565b9250506001810190506132df565b5085935050505092915050565b5f6020820190508181035f83015261333181846132bd565b905092915050565b5f5f5f5f6060858703121561335157613350612c0d565b5b5f61335e87828801612c5b565b945050602061336f87828801612f7c565b935050604085013567ffffffffffffffff8111156133905761338f612c11565b5b61339c87828801613018565b925092505092959194509250565b5f81519050919050565b5f82825260208201905092915050565b8281835e5f83830152505050565b5f6133dc826133aa565b6133e681856133b4565b93506133f68185602086016133c4565b6133ff81612cf0565b840191505092915050565b5f6020820190508181035f83015261342281846133d2565b905092915050565b5f5f5f5f6080858703121561344257613441612c0d565b5b5f61344f87828801612c5b565b945050602061346087828801612c5b565b935050604061347187828801612c5b565b925050606061348287828801612c5b565b91505092959194509250565b7f4552524f525f41444d494e2e00000000000000000000000000000000000000005f82015250565b5f6134c2600c836133b4565b91506134cd8261348e565b602082019050919050565b5f6020820190508181035f8301526134ef816134b6565b9050919050565b7f5a45524f5f414444524553532e000000000000000000000000000000000000005f82015250565b5f61352a600d836133b4565b9150613535826134f6565b602082019050919050565b5f6020820190508181035f8301526135578161351e565b9050919050565b5f6040820190506135715f830185612c9a565b61357e6020830184612c9a565b9392505050565b5f8151905061359381612c45565b92915050565b5f602082840312156135ae576135ad612c0d565b5b5f6135bb84828501613585565b91505092915050565b7f4e487b71000000000000000000000000000000000000000000000000000000005f52603260045260245ffd5b5f81519050919050565b5f82825260208201905092915050565b5f819050602082019050919050565b5f613625838361324f565b60208301905092915050565b5f602082019050919050565b5f613647826135f1565b61365181856135fb565b935061365c8361360b565b805f5b8381101561368c578151613673888261361a565b975061367e83613631565b92505060018101905061365f565b5085935050505092915050565b5f6040820190506136ac5f830185612cb2565b81810360208301526136be818461363d565b90509392505050565b5f67ffffffffffffffff8211156136e1576136e0612d00565b5b602082029050602081019050919050565b5f8151905061370081612f66565b92915050565b5f613718613713846136c7565b612d5e565b9050808382526020820190506020840283018581111561373b5761373a613014565b5b835b81811015613764578061375088826136f2565b84526020840193505060208101905061373d565b5050509392505050565b5f82601f83011261378257613781612ce8565b5b8151613792848260208601613706565b91505092915050565b5f602082840312156137b0576137af612c0d565b5b5f82015167ffffffffffffffff8111156137cd576137cc612c11565b5b6137d98482850161376e565b91505092915050565b7f4e487b71000000000000000000000000000000000000000000000000000000005f52601160045260245ffd5b5f61381982612ca9565b915061382483612ca9565b925082820390508181111561383c5761383b6137e2565b5b92915050565b7f4552524f525f414d4f554e542e000000000000000000000000000000000000005f82015250565b5f613876600d836133b4565b915061388182613842565b602082019050919050565b5f6020820190508181035f8301526138a38161386a565b9050919050565b5f6080820190508181035f8301526138c281876133d2565b90506138d16020830186612c9a565b6138de6040830185612c9a565b6138eb6060830184612cb2565b95945050505050565b7f4552524f525f414d4f554e5400000000000000000000000000000000000000005f82015250565b5f613928600c836133b4565b9150613933826138f4565b602082019050919050565b5f6020820190508181035f8301526139558161391c565b9050919050565b5f61396783856133b4565b9350613974838584612da8565b61397d83612cf0565b840190509392505050565b5f60c08201905061399b5f83018a612c9a565b6139a86020830189612c9a565b6139b56040830188612cb2565b6139c26060830187612c9a565b6139cf6080830186612cb2565b81810360a08301526139e281848661395c565b905098975050505050505050565b5f60208284031215613a0557613a04612c0d565b5b5f613a12848285016136f2565b91505092915050565b5f819050919050565b5f819050919050565b5f613a47613a42613a3d84613a1b565b613a24565b612ca9565b9050919050565b613a5781613a2d565b82525050565b5f60c082019050613a705f83018a612c9a565b613a7d6020830189612c9a565b613a8a6040830188612cb2565b613a976060830187612c9a565b613aa46080830186613a4e565b81810360a0830152613ab781848661395c565b905098975050505050505050565b5f819050919050565b5f67ffffffffffffffff82169050919050565b5f613afb613af6613af184613ac5565b613a24565b613ace565b9050919050565b613b0b81613ae1565b82525050565b5f602082019050613b245f830184613b02565b92915050565b613b3381612e7e565b8114613b3d575f5ffd5b50565b5f81519050613b4e81613b2a565b92915050565b5f60208284031215613b6957613b68612c0d565b5b5f613b7684828501613b40565b91505092915050565b5f606082019050613b925f830186612c9a565b613b9f6020830185612c9a565b613bac6040830184612cb2565b949350505050565b5f81519050919050565b5f81905092915050565b5f613bd282613bb4565b613bdc8185613bbe565b9350613bec8185602086016133c4565b80840191505092915050565b5f613c038284613bc8565b915081905092915050565b5f8115159050919050565b613c2281613c0e565b8114613c2c575f5ffd5b50565b5f81519050613c3d81613c19565b92915050565b5f60208284031215613c5857613c57612c0d565b5b5f613c6584828501613c2f565b91505092915050565b7f5472616e7366657248656c7065723a205452414e534645525f46524f4d5f46415f8201527f494c454400000000000000000000000000000000000000000000000000000000602082015250565b5f613cc86024836133b4565b9150613cd382613c6e565b604082019050919050565b5f6020820190508181035f830152613cf581613cbc565b9050919050565b7f5472616e7366657248656c7065723a204554485f5452414e534645525f4641495f8201527f4c45440000000000000000000000000000000000000000000000000000000000602082015250565b5f613d566023836133b4565b9150613d6182613cfc565b604082019050919050565b5f6020820190508181035f830152613d8381613d4a565b9050919050565b7f4d49534d415443485f4c454e47544800000000000000000000000000000000005f82015250565b5f613dbe600f836133b4565b9150613dc982613d8a565b602082019050919050565b5f6020820190508181035f830152613deb81613db2565b9050919050565b5f613dfc82612ca9565b9150613e0783612ca9565b9250828201905080821115613e1f57613e1e6137e2565b5b92915050565b7f4552524f525f50415941424c455f414d4f554e540000000000000000000000005f82015250565b5f613e596014836133b4565b9150613e6482613e25565b602082019050919050565b5f6020820190508181035f830152613e8681613e4d565b9050919050565b7f4e4f5f4554485f524551554952454400000000000000000000000000000000005f82015250565b5f613ec1600f836133b4565b9150613ecc82613e8d565b602082019050919050565b5f6020820190508181035f830152613eee81613eb5565b905091905056fea264697066735822122059e426c6c6c48b7a696fdaad54b63b4fb72b6a32051a241f6f754a08cec65c8364736f6c634300081e0033","linkReferences":{}},"methodIdentifiers":{"UPGRADE_INTERFACE_VERSION()":"ad3cb1cc","USDT()":"c54e44eb","WBNB()":"8dd95002","admin()":"f851a440","changeAdmin(address)":"8f283970","changeOperator(address)":"06394c9b","changeRecipient(address)":"92c2bcb4","changeSender(address)":"b280a7e7","factory()":"c45a0155","getPrice(address)":"41976e09","initialize(address,address,address,address)":"f8c8765e","multiBalanceOf(address,address[])":"9f166cf1","multiRecharge(address,uint256,address,uint256,string)":"73abf0af","operator()":"570ca735","owner()":"8da5cb5b","proxiableUUID()":"52d1902d","recipient()":"66d003ac","renounceOwnership()":"715018a6","router()":"f887ea40","sender()":"67e404ce","singleRecharge(address,uint256,string)":"aa7e7eb9","transferOwnership(address)":"f2fde38b","upgradeToAndCall(address,bytes)":"4f1ef286","withdraw(string,address,uint256,address)":"62a33811","withdraw_(address,address[],address)":"983b744a"},"id":37}