{"abi":[{"type":"receive","stateMutability":"payable"},{"type":"function","name":"DEAD","inputs":[],"outputs":[{"name":"","type":"address","internalType":"address"}],"stateMutability":"view"},{"type":"function","name":"UPGRADE_INTERFACE_VERSION","inputs":[],"outputs":[{"name":"","type":"string","internalType":"string"}],"stateMutability":"view"},{"type":"function","name":"USDT","inputs":[],"outputs":[{"name":"","type":"address","internalType":"address"}],"stateMutability":"view"},{"type":"function","name":"acquireSpecifiedUsdt","inputs":[{"name":"to","type":"address","internalType":"address"},{"name":"amountUSDT","type":"uint256","internalType":"uint256"}],"outputs":[],"stateMutability":"nonpayable"},{"type":"function","name":"addLiquidity","inputs":[{"name":"amountUSDT","type":"uint256","internalType":"uint256"}],"outputs":[],"stateMutability":"nonpayable"},{"type":"function","name":"initialize","inputs":[{"name":"_token","type":"address","internalType":"address"},{"name":"_subToken","type":"address","internalType":"address"}],"outputs":[],"stateMutability":"nonpayable"},{"type":"function","name":"owner","inputs":[],"outputs":[{"name":"","type":"address","internalType":"address"}],"stateMutability":"view"},{"type":"function","name":"pancakeRouter","inputs":[],"outputs":[{"name":"","type":"address","internalType":"contract IUniswapV2Router02"}],"stateMutability":"view"},{"type":"function","name":"proxiableUUID","inputs":[],"outputs":[{"name":"","type":"bytes32","internalType":"bytes32"}],"stateMutability":"view"},{"type":"function","name":"renounceOwnership","inputs":[],"outputs":[],"stateMutability":"nonpayable"},{"type":"function","name":"setStaking","inputs":[{"name":"_staking","type":"address","internalType":"address"}],"outputs":[],"stateMutability":"nonpayable"},{"type":"function","name":"staking","inputs":[],"outputs":[{"name":"","type":"address","internalType":"address"}],"stateMutability":"view"},{"type":"function","name":"subToken","inputs":[],"outputs":[{"name":"","type":"address","internalType":"address"}],"stateMutability":"view"},{"type":"function","name":"swapForSubTokenToBurn","inputs":[{"name":"amountUSDT","type":"uint256","internalType":"uint256"}],"outputs":[],"stateMutability":"nonpayable"},{"type":"function","name":"swapForSubTokenToUser","inputs":[{"name":"to","type":"address","internalType":"address"},{"name":"amountUSDT","type":"uint256","internalType":"uint256"}],"outputs":[],"stateMutability":"nonpayable"},{"type":"function","name":"token","inputs":[],"outputs":[{"name":"","type":"address","internalType":"address"}],"stateMutability":"view"},{"type":"function","name":"transferOwnership","inputs":[{"name":"newOwner","type":"address","internalType":"address"}],"outputs":[],"stateMutability":"nonpayable"},{"type":"function","name":"upgradeToAndCall","inputs":[{"name":"newImplementation","type":"address","internalType":"address"},{"name":"data","type":"bytes","internalType":"bytes"}],"outputs":[],"stateMutability":"payable"},{"type":"event","name":"Initialized","inputs":[{"name":"version","type":"uint64","indexed":false,"internalType":"uint64"}],"anonymous":false},{"type":"event","name":"OwnershipTransferred","inputs":[{"name":"previousOwner","type":"address","indexed":true,"internalType":"address"},{"name":"newOwner","type":"address","indexed":true,"internalType":"address"}],"anonymous":false},{"type":"event","name":"Upgraded","inputs":[{"name":"implementation","type":"address","indexed":true,"internalType":"address"}],"anonymous":false},{"type":"error","name":"AddressEmptyCode","inputs":[{"name":"target","type":"address","internalType":"address"}]},{"type":"error","name":"ERC1967InvalidImplementation","inputs":[{"name":"implementation","type":"address","internalType":"address"}]},{"type":"error","name":"ERC1967NonPayable","inputs":[]},{"type":"error","name":"FailedCall","inputs":[]},{"type":"error","name":"InsufficientLP","inputs":[]},{"type":"error","name":"InsufficientLiquidity","inputs":[]},{"type":"error","name":"InvalidInitialization","inputs":[]},{"type":"error","name":"NoLiquidity","inputs":[]},{"type":"error","name":"NotInitializing","inputs":[]},{"type":"error","name":"OwnableInvalidOwner","inputs":[{"name":"owner","type":"address","internalType":"address"}]},{"type":"error","name":"OwnableUnauthorizedAccount","inputs":[{"name":"account","type":"address","internalType":"address"}]},{"type":"error","name":"PairNotExist","inputs":[]},{"type":"error","name":"ReentrancyGuardReentrantCall","inputs":[]},{"type":"error","name":"UUPSUnauthorizedCallContext","inputs":[]},{"type":"error","name":"UUPSUnsupportedProxiableUUID","inputs":[{"name":"slot","type":"bytes32","internalType":"bytes32"}]}],"bytecode":{"object":"0x60a06040523073ffffffffffffffffffffffffffffffffffffffff1660809073ffffffffffffffffffffffffffffffffffffffff168152503480156041575f5ffd5b5060015f819055506080516137b461006f5f395f818161212101528181612176015261233001526137b45ff3fe60806040526004361061010c575f3560e01c806379e32cd911610094578063c21ebd0711610063578063c21ebd0714610344578063c54e44eb1461036e578063e9ffa9f414610398578063f2fde38b146103c2578063fc0c546a146103ea5761014c565b806379e32cd9146102a05780638da5cb5b146102c85780638ff39099146102f2578063ad3cb1cc1461031a5761014c565b80634cf088d9116100db5780634cf088d9146101f25780634f1ef2861461021c57806351c6590a1461023857806352d1902d14610260578063715018a61461028a5761014c565b806303ec9fb01461015057806303fd2a45146101785780632d019c42146101a2578063485cc955146101ca5761014c565b3661014c576040517f08c379a0000000000000000000000000000000000000000000000000000000008152600401610143906129a0565b60405180910390fd5b5f5ffd5b34801561015b575f5ffd5b5061017660048036038101906101719190612a02565b610414565b005b348015610183575f5ffd5b5061018c6105ba565b6040516101999190612a6c565b60405180910390f35b3480156101ad575f5ffd5b506101c860048036038101906101c39190612aaf565b6105c0565b005b3480156101d5575f5ffd5b506101f060048036038101906101eb9190612aed565b610a25565b005b3480156101fd575f5ffd5b50610206610c2e565b6040516102139190612a6c565b60405180910390f35b61023660048036038101906102319190612c67565b610c53565b005b348015610243575f5ffd5b5061025e60048036038101906102599190612a02565b610c72565b005b34801561026b575f5ffd5b506102746110e3565b6040516102819190612cd9565b60405180910390f35b348015610295575f5ffd5b5061029e611114565b005b3480156102ab575f5ffd5b506102c660048036038101906102c19190612aaf565b611127565b005b3480156102d3575f5ffd5b506102dc6112cc565b6040516102e99190612a6c565b60405180910390f35b3480156102fd575f5ffd5b5061031860048036038101906103139190612cf2565b611301565b005b348015610325575f5ffd5b5061032e61134c565b60405161033b9190612d6d565b60405180910390f35b34801561034f575f5ffd5b50610358611385565b6040516103659190612de8565b60405180910390f35b348015610379575f5ffd5b5061038261139d565b60405161038f9190612a6c565b60405180910390f35b3480156103a3575f5ffd5b506103ac6113b5565b6040516103b99190612a6c565b60405180910390f35b3480156103cd575f5ffd5b506103e860048036038101906103e39190612cf2565b6113da565b005b3480156103f5575f5ffd5b506103fe61145e565b60405161040b9190612a6c565b60405180910390f35b3373ffffffffffffffffffffffffffffffffffffffff1660035f9054906101000a900473ffffffffffffffffffffffffffffffffffffffff1673ffffffffffffffffffffffffffffffffffffffff16146104a3576040517f08c379a000000000000000000000000000000000000000000000000000000000815260040161049a90612e4b565b60405180910390fd5b5f8103156105b7576104eb7355d398326f99059ff775485246999027b319795560025f9054906101000a900473ffffffffffffffffffffffffffffffffffffffff1683611483565b5f60025f9054906101000a900473ffffffffffffffffffffffffffffffffffffffff1673ffffffffffffffffffffffffffffffffffffffff166370a08231306040518263ffffffff1660e01b81526004016105469190612a6c565b602060405180830381865afa158015610561573d5f5f3e3d5ffd5b505050506040513d601f19601f820116820180604052508101906105859190612e7d565b90506105b560025f9054906101000a900473ffffffffffffffffffffffffffffffffffffffff1661dead83611691565b505b50565b61dead81565b3373ffffffffffffffffffffffffffffffffffffffff1660035f9054906101000a900473ffffffffffffffffffffffffffffffffffffffff1673ffffffffffffffffffffffffffffffffffffffff161461064f576040517f08c379a000000000000000000000000000000000000000000000000000000000815260040161064690612e4b565b60405180910390fd5b5f7310ed43c718714eb63d5aa57b78b54704e256024e73ffffffffffffffffffffffffffffffffffffffff1663c45a01556040518163ffffffff1660e01b8152600401602060405180830381865afa1580156106ad573d5f5f3e3d5ffd5b505050506040513d601f19601f820116820180604052508101906106d19190612ebc565b73ffffffffffffffffffffffffffffffffffffffff1663e6a439057355d398326f99059ff775485246999027b319795560015f9054906101000a900473ffffffffffffffffffffffffffffffffffffffff166040518363ffffffff1660e01b8152600401610740929190612ee7565b602060405180830381865afa15801561075b573d5f5f3e3d5ffd5b505050506040513d601f19601f8201168201806040525081019061077f9190612ebc565b90505f8173ffffffffffffffffffffffffffffffffffffffff166370a08231306040518263ffffffff1660e01b81526004016107bb9190612a6c565b602060405180830381865afa1580156107d6573d5f5f3e3d5ffd5b505050506040513d601f19601f820116820180604052508101906107fa9190612e7d565b90505f8103610835576040517fc301e07e00000000000000000000000000000000000000000000000000000000815260040160405180910390fd5b5f8190505f610843826117c1565b670de0b6b3a7640000866108579190612f3b565b6108619190612fa9565b90508281111561089d576040517f955a8bf500000000000000000000000000000000000000000000000000000000815260040160405180910390fd5b5f5f7310ed43c718714eb63d5aa57b78b54704e256024e73ffffffffffffffffffffffffffffffffffffffff1663baa2abde7355d398326f99059ff775485246999027b319795560015f9054906101000a900473ffffffffffffffffffffffffffffffffffffffff16865f5f30601e426109179190612fd9565b6040518863ffffffff1660e01b81526004016109399796959493929190613054565b60408051808303815f875af1158015610954573d5f5f3e3d5ffd5b505050506040513d601f19601f8201168201806040525081019061097891906130c1565b915091505f61098682611c23565b90505f81846109959190612fd9565b9050888110156109d1576040517fbb55fd2700000000000000000000000000000000000000000000000000000000815260040160405180910390fd5b5f674563918244f40000826109e691906130ff565b9050610a077355d398326f99059ff775485246999027b31979558c83611691565b610a18674563918244f40000611fda565b5050505050505050505050565b5f610a2e6120f1565b90505f815f0160089054906101000a900460ff161590505f825f015f9054906101000a900467ffffffffffffffff1690505f5f8267ffffffffffffffff16148015610a765750825b90505f60018367ffffffffffffffff16148015610aa957505f3073ffffffffffffffffffffffffffffffffffffffff163b145b905081158015610ab7575080155b15610aee576040517ff92ee8a900000000000000000000000000000000000000000000000000000000815260040160405180910390fd5b6001855f015f6101000a81548167ffffffffffffffff021916908367ffffffffffffffff1602179055508315610b3b576001855f0160086101000a81548160ff0219169083151502179055505b610b4b610b46612104565b61210b565b8660015f6101000a81548173ffffffffffffffffffffffffffffffffffffffff021916908373ffffffffffffffffffffffffffffffffffffffff1602179055508560025f6101000a81548173ffffffffffffffffffffffffffffffffffffffff021916908373ffffffffffffffffffffffffffffffffffffffff1602179055508315610c25575f855f0160086101000a81548160ff0219169083151502179055507fc7f505b2f371ae2175ee4913f4499e1f2633a7b5936321eed1cdaeb6115181d26001604051610c1c919061317e565b60405180910390a15b50505050505050565b60035f9054906101000a900473ffffffffffffffffffffffffffffffffffffffff1681565b610c5b61211f565b610c6482612205565b610c6e8282612210565b5050565b3373ffffffffffffffffffffffffffffffffffffffff1660035f9054906101000a900473ffffffffffffffffffffffffffffffffffffffff1673ffffffffffffffffffffffffffffffffffffffff1614610d01576040517f08c379a0000000000000000000000000000000000000000000000000000000008152600401610cf890612e4b565b60405180910390fd5b5f600282610d0f9190612fa9565b90505f60015f9054906101000a900473ffffffffffffffffffffffffffffffffffffffff1673ffffffffffffffffffffffffffffffffffffffff166370a08231306040518263ffffffff1660e01b8152600401610d6c9190612a6c565b602060405180830381865afa158015610d87573d5f5f3e3d5ffd5b505050506040513d601f19601f82011682018060405250810190610dab9190612e7d565b9050610ded7355d398326f99059ff775485246999027b319795560015f9054906101000a900473ffffffffffffffffffffffffffffffffffffffff1684611483565b5f60015f9054906101000a900473ffffffffffffffffffffffffffffffffffffffff1673ffffffffffffffffffffffffffffffffffffffff166370a08231306040518263ffffffff1660e01b8152600401610e489190612a6c565b602060405180830381865afa158015610e63573d5f5f3e3d5ffd5b505050506040513d601f19601f82011682018060405250810190610e879190612e7d565b90505f8385610e9691906130ff565b90505f8383610ea591906130ff565b90507355d398326f99059ff775485246999027b319795573ffffffffffffffffffffffffffffffffffffffff1663095ea7b37310ed43c718714eb63d5aa57b78b54704e256024e846040518363ffffffff1660e01b8152600401610f0a929190613197565b6020604051808303815f875af1158015610f26573d5f5f3e3d5ffd5b505050506040513d601f19601f82011682018060405250810190610f4a91906131f3565b5060015f9054906101000a900473ffffffffffffffffffffffffffffffffffffffff1673ffffffffffffffffffffffffffffffffffffffff1663095ea7b37310ed43c718714eb63d5aa57b78b54704e256024e836040518363ffffffff1660e01b8152600401610fbb929190613197565b6020604051808303815f875af1158015610fd7573d5f5f3e3d5ffd5b505050506040513d601f19601f82011682018060405250810190610ffb91906131f3565b507310ed43c718714eb63d5aa57b78b54704e256024e73ffffffffffffffffffffffffffffffffffffffff1663e8e337007355d398326f99059ff775485246999027b319795560015f9054906101000a900473ffffffffffffffffffffffffffffffffffffffff1685855f5f30601e426110759190612fd9565b6040518963ffffffff1660e01b815260040161109898979695949392919061321e565b6060604051808303815f875af11580156110b4573d5f5f3e3d5ffd5b505050506040513d601f19601f820116820180604052508101906110d8919061329a565b505050505050505050565b5f6110ec61232e565b7f360894a13ba1a3210667c828492db98dca3e2076cc3735a920a3ca505d382bbc5f1b905090565b61111c6123b5565b6111255f61243c565b565b3373ffffffffffffffffffffffffffffffffffffffff1660035f9054906101000a900473ffffffffffffffffffffffffffffffffffffffff1673ffffffffffffffffffffffffffffffffffffffff16146111b6576040517f08c379a00000000000000000000000000000000000000000000000000000000081526004016111ad90612e4b565b60405180910390fd5b5f8103156112c8576111fe7355d398326f99059ff775485246999027b319795560025f9054906101000a900473ffffffffffffffffffffffffffffffffffffffff1683611483565b5f60025f9054906101000a900473ffffffffffffffffffffffffffffffffffffffff1673ffffffffffffffffffffffffffffffffffffffff166370a08231306040518263ffffffff1660e01b81526004016112599190612a6c565b602060405180830381865afa158015611274573d5f5f3e3d5ffd5b505050506040513d601f19601f820116820180604052508101906112989190612e7d565b90506112c660025f9054906101000a900473ffffffffffffffffffffffffffffffffffffffff168483611691565b505b5050565b5f5f6112d661250d565b9050805f015f9054906101000a900473ffffffffffffffffffffffffffffffffffffffff1691505090565b6113096123b5565b8060035f6101000a81548173ffffffffffffffffffffffffffffffffffffffff021916908373ffffffffffffffffffffffffffffffffffffffff16021790555050565b6040518060400160405280600581526020017f352e302e3000000000000000000000000000000000000000000000000000000081525081565b7310ed43c718714eb63d5aa57b78b54704e256024e81565b7355d398326f99059ff775485246999027b319795581565b60025f9054906101000a900473ffffffffffffffffffffffffffffffffffffffff1681565b6113e26123b5565b5f73ffffffffffffffffffffffffffffffffffffffff168173ffffffffffffffffffffffffffffffffffffffff1603611452575f6040517f1e4fbdf70000000000000000000000000000000000000000000000000000000081526004016114499190612a6c565b60405180910390fd5b61145b8161243c565b50565b60015f9054906101000a900473ffffffffffffffffffffffffffffffffffffffff1681565b5f600267ffffffffffffffff81111561149f5761149e612b43565b5b6040519080825280602002602001820160405280156114cd5781602001602082028036833780820191505090505b50905083815f815181106114e4576114e36132ea565b5b602002602001019073ffffffffffffffffffffffffffffffffffffffff16908173ffffffffffffffffffffffffffffffffffffffff16815250508281600181518110611533576115326132ea565b5b602002602001019073ffffffffffffffffffffffffffffffffffffffff16908173ffffffffffffffffffffffffffffffffffffffff16815250508373ffffffffffffffffffffffffffffffffffffffff1663095ea7b37310ed43c718714eb63d5aa57b78b54704e256024e846040518363ffffffff1660e01b81526004016115bc929190613197565b6020604051808303815f875af11580156115d8573d5f5f3e3d5ffd5b505050506040513d601f19601f820116820180604052508101906115fc91906131f3565b507310ed43c718714eb63d5aa57b78b54704e256024e73ffffffffffffffffffffffffffffffffffffffff16635c11d795835f8430601e4261163e9190612fd9565b6040518663ffffffff1660e01b815260040161165e9594939291906133ce565b5f604051808303815f87803b158015611675575f5ffd5b505af1158015611687573d5f5f3e3d5ffd5b5050505050505050565b5f5f8473ffffffffffffffffffffffffffffffffffffffff1663a9059cbb85856040516024016116c2929190613197565b6040516020818303038152906040529060e01b6020820180517bffffffffffffffffffffffffffffffffffffffffffffffffffffffff8381831617835250505050604051611710919061346a565b5f604051808303815f865af19150503d805f8114611749576040519150601f19603f3d011682016040523d82523d5f602084013e61174e565b606091505b509150915081801561177b57505f8151148061177a57508080602001905181019061177991906131f3565b5b5b6117ba576040517f08c379a00000000000000000000000000000000000000000000000000000000081526004016117b1906134ca565b60405180910390fd5b5050505050565b5f5f7310ed43c718714eb63d5aa57b78b54704e256024e73ffffffffffffffffffffffffffffffffffffffff1663c45a01556040518163ffffffff1660e01b8152600401602060405180830381865afa158015611820573d5f5f3e3d5ffd5b505050506040513d601f19601f820116820180604052508101906118449190612ebc565b73ffffffffffffffffffffffffffffffffffffffff1663e6a439057355d398326f99059ff775485246999027b319795560015f9054906101000a900473ffffffffffffffffffffffffffffffffffffffff166040518363ffffffff1660e01b81526004016118b3929190612ee7565b602060405180830381865afa1580156118ce573d5f5f3e3d5ffd5b505050506040513d601f19601f820116820180604052508101906118f29190612ebc565b90505f73ffffffffffffffffffffffffffffffffffffffff168173ffffffffffffffffffffffffffffffffffffffff1603611959576040517fc03b13b600000000000000000000000000000000000000000000000000000000815260040160405180910390fd5b5f5f8273ffffffffffffffffffffffffffffffffffffffff16630902f1ac6040518163ffffffff1660e01b8152600401606060405180830381865afa1580156119a4573d5f5f3e3d5ffd5b505050506040513d601f19601f820116820180604052508101906119c89190613564565b50915091505f85670de0b6b3a7640000846119e391906135b4565b6dffffffffffffffffffffffffffff166119fd9190612fa9565b90505f86670de0b6b3a764000084611a1591906135b4565b6dffffffffffffffffffffffffffff16611a2f9190612fa9565b90505f600267ffffffffffffffff811115611a4d57611a4c612b43565b5b604051908082528060200260200182016040528015611a7b5781602001602082028036833780820191505090505b50905060015f9054906101000a900473ffffffffffffffffffffffffffffffffffffffff16815f81518110611ab357611ab26132ea565b5b602002602001019073ffffffffffffffffffffffffffffffffffffffff16908173ffffffffffffffffffffffffffffffffffffffff16815250507355d398326f99059ff775485246999027b319795581600181518110611b1657611b156132ea565b5b602002602001019073ffffffffffffffffffffffffffffffffffffffff16908173ffffffffffffffffffffffffffffffffffffffff16815250505f7310ed43c718714eb63d5aa57b78b54704e256024e73ffffffffffffffffffffffffffffffffffffffff1663d06ca61f84846040518363ffffffff1660e01b8152600401611ba09291906135f0565b5f60405180830381865afa158015611bba573d5f5f3e3d5ffd5b505050506040513d5f823e3d601f19601f82011682018060405250810190611be291906136e2565b90505f81600181518110611bf957611bf86132ea565b5b602002602001015190505f8186611c109190612fd9565b9050809950505050505050505050919050565b5f5f600267ffffffffffffffff811115611c4057611c3f612b43565b5b604051908082528060200260200182016040528015611c6e5781602001602082028036833780820191505090505b50905060015f9054906101000a900473ffffffffffffffffffffffffffffffffffffffff16815f81518110611ca657611ca56132ea565b5b602002602001019073ffffffffffffffffffffffffffffffffffffffff16908173ffffffffffffffffffffffffffffffffffffffff16815250507355d398326f99059ff775485246999027b319795581600181518110611d0957611d086132ea565b5b602002602001019073ffffffffffffffffffffffffffffffffffffffff16908173ffffffffffffffffffffffffffffffffffffffff168152505060015f9054906101000a900473ffffffffffffffffffffffffffffffffffffffff1673ffffffffffffffffffffffffffffffffffffffff1663095ea7b37310ed43c718714eb63d5aa57b78b54704e256024e856040518363ffffffff1660e01b8152600401611db3929190613197565b6020604051808303815f875af1158015611dcf573d5f5f3e3d5ffd5b505050506040513d601f19601f82011682018060405250810190611df391906131f3565b505f7310ed43c718714eb63d5aa57b78b54704e256024e73ffffffffffffffffffffffffffffffffffffffff1663d06ca61f85846040518363ffffffff1660e01b8152600401611e449291906135f0565b5f60405180830381865afa158015611e5e573d5f5f3e3d5ffd5b505050506040513d5f823e3d601f19601f82011682018060405250810190611e8691906136e2565b90507310ed43c718714eb63d5aa57b78b54704e256024e73ffffffffffffffffffffffffffffffffffffffff16635c11d795855f8530601e42611ec99190612fd9565b6040518663ffffffff1660e01b8152600401611ee99594939291906133ce565b5f604051808303815f87803b158015611f00575f5ffd5b505af1158015611f12573d5f5f3e3d5ffd5b505050505f7355d398326f99059ff775485246999027b319795573ffffffffffffffffffffffffffffffffffffffff166370a08231306040518263ffffffff1660e01b8152600401611f649190612a6c565b602060405180830381865afa158015611f7f573d5f5f3e3d5ffd5b505050506040513d601f19601f82011682018060405250810190611fa39190612e7d565b90505f825f81518110611fb957611fb86132ea565b5b602002602001015182611fcc91906130ff565b905080945050505050919050565b5f8103156120ee576120227355d398326f99059ff775485246999027b319795560025f9054906101000a900473ffffffffffffffffffffffffffffffffffffffff1683611483565b5f60025f9054906101000a900473ffffffffffffffffffffffffffffffffffffffff1673ffffffffffffffffffffffffffffffffffffffff166370a08231306040518263ffffffff1660e01b815260040161207d9190612a6c565b602060405180830381865afa158015612098573d5f5f3e3d5ffd5b505050506040513d601f19601f820116820180604052508101906120bc9190612e7d565b90506120ec60025f9054906101000a900473ffffffffffffffffffffffffffffffffffffffff1661dead83611691565b505b50565b5f5f6120fb612534565b90508091505090565b5f33905090565b61211361255d565b61211c8161259d565b50565b7f000000000000000000000000000000000000000000000000000000000000000073ffffffffffffffffffffffffffffffffffffffff163073ffffffffffffffffffffffffffffffffffffffff1614806121cc57507f000000000000000000000000000000000000000000000000000000000000000073ffffffffffffffffffffffffffffffffffffffff166121b3612621565b73ffffffffffffffffffffffffffffffffffffffff1614155b15612203576040517fe07c8dba00000000000000000000000000000000000000000000000000000000815260040160405180910390fd5b565b61220d6123b5565b50565b8173ffffffffffffffffffffffffffffffffffffffff166352d1902d6040518163ffffffff1660e01b8152600401602060405180830381865afa92505050801561227857506040513d601f19601f820116820180604052508101906122759190613753565b60015b6122b957816040517f4c9c8ce30000000000000000000000000000000000000000000000000000000081526004016122b09190612a6c565b60405180910390fd5b7f360894a13ba1a3210667c828492db98dca3e2076cc3735a920a3ca505d382bbc5f1b811461231f57806040517faa1d49a40000000000000000000000000000000000000000000000000000000081526004016123169190612cd9565b60405180910390fd5b6123298383612674565b505050565b7f000000000000000000000000000000000000000000000000000000000000000073ffffffffffffffffffffffffffffffffffffffff163073ffffffffffffffffffffffffffffffffffffffff16146123b3576040517fe07c8dba00000000000000000000000000000000000000000000000000000000815260040160405180910390fd5b565b6123bd612104565b73ffffffffffffffffffffffffffffffffffffffff166123db6112cc565b73ffffffffffffffffffffffffffffffffffffffff161461243a576123fe612104565b6040517f118cdaa70000000000000000000000000000000000000000000000000000000081526004016124319190612a6c565b60405180910390fd5b565b5f61244561250d565b90505f815f015f9054906101000a900473ffffffffffffffffffffffffffffffffffffffff16905082825f015f6101000a81548173ffffffffffffffffffffffffffffffffffffffff021916908373ffffffffffffffffffffffffffffffffffffffff1602179055508273ffffffffffffffffffffffffffffffffffffffff168173ffffffffffffffffffffffffffffffffffffffff167f8be0079c531659141344cd1fd0a4f28419497f9722a3daafe3b4186f6b6457e060405160405180910390a3505050565b5f7f9016d09d72d40fdae2fd8ceac6b6234c7706214fd39c1cd1e609a0528c199300905090565b5f7ff0c57e16840df040f15088dc2f81fe391c3923bec73e23a9662efc9c229c6a005f1b905090565b6125656126e6565b61259b576040517fd7e6bcf800000000000000000000000000000000000000000000000000000000815260040160405180910390fd5b565b6125a561255d565b5f73ffffffffffffffffffffffffffffffffffffffff168173ffffffffffffffffffffffffffffffffffffffff1603612615575f6040517f1e4fbdf700000000000000000000000000000000000000000000000000000000815260040161260c9190612a6c565b60405180910390fd5b61261e8161243c565b50565b5f61264d7f360894a13ba1a3210667c828492db98dca3e2076cc3735a920a3ca505d382bbc5f1b612704565b5f015f9054906101000a900473ffffffffffffffffffffffffffffffffffffffff16905090565b61267d8261270d565b8173ffffffffffffffffffffffffffffffffffffffff167fbc7cd75a20ee27fd9adebab32041f755214dbc6bffa90cc0225b39da2e5c2d3b60405160405180910390a25f815111156126d9576126d382826127d6565b506126e2565b6126e16128c7565b5b5050565b5f6126ef6120f1565b5f0160089054906101000a900460ff16905090565b5f819050919050565b5f8173ffffffffffffffffffffffffffffffffffffffff163b0361276857806040517f4c9c8ce300000000000000000000000000000000000000000000000000000000815260040161275f9190612a6c565b60405180910390fd5b806127947f360894a13ba1a3210667c828492db98dca3e2076cc3735a920a3ca505d382bbc5f1b612704565b5f015f6101000a81548173ffffffffffffffffffffffffffffffffffffffff021916908373ffffffffffffffffffffffffffffffffffffffff16021790555050565b60605f6127e38484612903565b905080801561281957505f6127f6612917565b118061281857505f8473ffffffffffffffffffffffffffffffffffffffff163b115b5b1561282e5761282661291e565b9150506128c1565b801561287157836040517f9996b3150000000000000000000000000000000000000000000000000000000081526004016128689190612a6c565b60405180910390fd5b5f61287a612917565b111561288d5761288861293b565b6128bf565b6040517fd6bda27500000000000000000000000000000000000000000000000000000000815260040160405180910390fd5b505b92915050565b5f341115612901576040517fb398979f00000000000000000000000000000000000000000000000000000000815260040160405180910390fd5b565b5f5f5f835160208501865af4905092915050565b5f3d905090565b606060405190503d81523d5f602083013e3d602001810160405290565b6040513d5f823e3d81fd5b5f82825260208201905092915050565b7f4e4f5f4449524543545f53454e440000000000000000000000000000000000005f82015250565b5f61298a600e83612946565b915061299582612956565b602082019050919050565b5f6020820190508181035f8301526129b78161297e565b9050919050565b5f604051905090565b5f5ffd5b5f5ffd5b5f819050919050565b6129e1816129cf565b81146129eb575f5ffd5b50565b5f813590506129fc816129d8565b92915050565b5f60208284031215612a1757612a166129c7565b5b5f612a24848285016129ee565b91505092915050565b5f73ffffffffffffffffffffffffffffffffffffffff82169050919050565b5f612a5682612a2d565b9050919050565b612a6681612a4c565b82525050565b5f602082019050612a7f5f830184612a5d565b92915050565b612a8e81612a4c565b8114612a98575f5ffd5b50565b5f81359050612aa981612a85565b92915050565b5f5f60408385031215612ac557612ac46129c7565b5b5f612ad285828601612a9b565b9250506020612ae3858286016129ee565b9150509250929050565b5f5f60408385031215612b0357612b026129c7565b5b5f612b1085828601612a9b565b9250506020612b2185828601612a9b565b9150509250929050565b5f5ffd5b5f5ffd5b5f601f19601f8301169050919050565b7f4e487b71000000000000000000000000000000000000000000000000000000005f52604160045260245ffd5b612b7982612b33565b810181811067ffffffffffffffff82111715612b9857612b97612b43565b5b80604052505050565b5f612baa6129be565b9050612bb68282612b70565b919050565b5f67ffffffffffffffff821115612bd557612bd4612b43565b5b612bde82612b33565b9050602081019050919050565b828183375f83830152505050565b5f612c0b612c0684612bbb565b612ba1565b905082815260208101848484011115612c2757612c26612b2f565b5b612c32848285612beb565b509392505050565b5f82601f830112612c4e57612c4d612b2b565b5b8135612c5e848260208601612bf9565b91505092915050565b5f5f60408385031215612c7d57612c7c6129c7565b5b5f612c8a85828601612a9b565b925050602083013567ffffffffffffffff811115612cab57612caa6129cb565b5b612cb785828601612c3a565b9150509250929050565b5f819050919050565b612cd381612cc1565b82525050565b5f602082019050612cec5f830184612cca565b92915050565b5f60208284031215612d0757612d066129c7565b5b5f612d1484828501612a9b565b91505092915050565b5f81519050919050565b8281835e5f83830152505050565b5f612d3f82612d1d565b612d498185612946565b9350612d59818560208601612d27565b612d6281612b33565b840191505092915050565b5f6020820190508181035f830152612d858184612d35565b905092915050565b5f819050919050565b5f612db0612dab612da684612a2d565b612d8d565b612a2d565b9050919050565b5f612dc182612d96565b9050919050565b5f612dd282612db7565b9050919050565b612de281612dc8565b82525050565b5f602082019050612dfb5f830184612dd9565b92915050565b7f4e6f74207065726d69742e0000000000000000000000000000000000000000005f82015250565b5f612e35600b83612946565b9150612e4082612e01565b602082019050919050565b5f6020820190508181035f830152612e6281612e29565b9050919050565b5f81519050612e77816129d8565b92915050565b5f60208284031215612e9257612e916129c7565b5b5f612e9f84828501612e69565b91505092915050565b5f81519050612eb681612a85565b92915050565b5f60208284031215612ed157612ed06129c7565b5b5f612ede84828501612ea8565b91505092915050565b5f604082019050612efa5f830185612a5d565b612f076020830184612a5d565b9392505050565b7f4e487b71000000000000000000000000000000000000000000000000000000005f52601160045260245ffd5b5f612f45826129cf565b9150612f50836129cf565b9250828202612f5e816129cf565b91508282048414831517612f7557612f74612f0e565b5b5092915050565b7f4e487b71000000000000000000000000000000000000000000000000000000005f52601260045260245ffd5b5f612fb3826129cf565b9150612fbe836129cf565b925082612fce57612fcd612f7c565b5b828204905092915050565b5f612fe3826129cf565b9150612fee836129cf565b925082820190508082111561300657613005612f0e565b5b92915050565b613015816129cf565b82525050565b5f819050919050565b5f61303e6130396130348461301b565b612d8d565b6129cf565b9050919050565b61304e81613024565b82525050565b5f60e0820190506130675f83018a612a5d565b6130746020830189612a5d565b613081604083018861300c565b61308e6060830187613045565b61309b6080830186613045565b6130a860a0830185612a5d565b6130b560c083018461300c565b98975050505050505050565b5f5f604083850312156130d7576130d66129c7565b5b5f6130e485828601612e69565b92505060206130f585828601612e69565b9150509250929050565b5f613109826129cf565b9150613114836129cf565b925082820390508181111561312c5761312b612f0e565b5b92915050565b5f819050919050565b5f67ffffffffffffffff82169050919050565b5f61316861316361315e84613132565b612d8d565b61313b565b9050919050565b6131788161314e565b82525050565b5f6020820190506131915f83018461316f565b92915050565b5f6040820190506131aa5f830185612a5d565b6131b7602083018461300c565b9392505050565b5f8115159050919050565b6131d2816131be565b81146131dc575f5ffd5b50565b5f815190506131ed816131c9565b92915050565b5f60208284031215613208576132076129c7565b5b5f613215848285016131df565b91505092915050565b5f610100820190506132325f83018b612a5d565b61323f602083018a612a5d565b61324c604083018961300c565b613259606083018861300c565b6132666080830187613045565b61327360a0830186613045565b61328060c0830185612a5d565b61328d60e083018461300c565b9998505050505050505050565b5f5f5f606084860312156132b1576132b06129c7565b5b5f6132be86828701612e69565b93505060206132cf86828701612e69565b92505060406132e086828701612e69565b9150509250925092565b7f4e487b71000000000000000000000000000000000000000000000000000000005f52603260045260245ffd5b5f81519050919050565b5f82825260208201905092915050565b5f819050602082019050919050565b61334981612a4c565b82525050565b5f61335a8383613340565b60208301905092915050565b5f602082019050919050565b5f61337c82613317565b6133868185613321565b935061339183613331565b805f5b838110156133c15781516133a8888261334f565b97506133b383613366565b925050600181019050613394565b5085935050505092915050565b5f60a0820190506133e15f83018861300c565b6133ee6020830187613045565b81810360408301526134008186613372565b905061340f6060830185612a5d565b61341c608083018461300c565b9695505050505050565b5f81519050919050565b5f81905092915050565b5f61344482613426565b61344e8185613430565b935061345e818560208601612d27565b80840191505092915050565b5f613475828461343a565b915081905092915050565b7f5472616e7366657248656c7065723a205452414e534645525f4641494c4544005f82015250565b5f6134b4601f83612946565b91506134bf82613480565b602082019050919050565b5f6020820190508181035f8301526134e1816134a8565b9050919050565b5f6dffffffffffffffffffffffffffff82169050919050565b61350a816134e8565b8114613514575f5ffd5b50565b5f8151905061352581613501565b92915050565b5f63ffffffff82169050919050565b6135438161352b565b811461354d575f5ffd5b50565b5f8151905061355e8161353a565b92915050565b5f5f5f6060848603121561357b5761357a6129c7565b5b5f61358886828701613517565b935050602061359986828701613517565b92505060406135aa86828701613550565b9150509250925092565b5f6135be826134e8565b91506135c9836134e8565b92508282026135d7816134e8565b91508082146135e9576135e8612f0e565b5b5092915050565b5f6040820190506136035f83018561300c565b81810360208301526136158184613372565b90509392505050565b5f67ffffffffffffffff82111561363857613637612b43565b5b602082029050602081019050919050565b5f5ffd5b5f61365f61365a8461361e565b612ba1565b9050808382526020820190506020840283018581111561368257613681613649565b5b835b818110156136ab57806136978882612e69565b845260208401935050602081019050613684565b5050509392505050565b5f82601f8301126136c9576136c8612b2b565b5b81516136d984826020860161364d565b91505092915050565b5f602082840312156136f7576136f66129c7565b5b5f82015167ffffffffffffffff811115613714576137136129cb565b5b613720848285016136b5565b91505092915050565b61373281612cc1565b811461373c575f5ffd5b50565b5f8151905061374d81613729565b92915050565b5f60208284031215613768576137676129c7565b5b5f6137758482850161373f565b9150509291505056fea2646970667358221220a7c5cfa500129384c1ceea9f40be37d9e07176b74ea6f87420c6c62f33ee94ae64736f6c634300081e0033","linkReferences":{}},"methodIdentifiers":{"DEAD()":"03fd2a45","UPGRADE_INTERFACE_VERSION()":"ad3cb1cc","USDT()":"c54e44eb","acquireSpecifiedUsdt(address,uint256)":"2d019c42","addLiquidity(uint256)":"51c6590a","initialize(address,address)":"485cc955","owner()":"8da5cb5b","pancakeRouter()":"c21ebd07","proxiableUUID()":"52d1902d","renounceOwnership()":"715018a6","setStaking(address)":"8ff39099","staking()":"4cf088d9","subToken()":"e9ffa9f4","swapForSubTokenToBurn(uint256)":"03ec9fb0","swapForSubTokenToUser(address,uint256)":"79e32cd9","token()":"fc0c546a","transferOwnership(address)":"f2fde38b","upgradeToAndCall(address,bytes)":"4f1ef286"},"id":44}