{"abi":[{"type":"receive","stateMutability":"payable"},{"type":"function","name":"DEAD","inputs":[],"outputs":[{"name":"","type":"address","internalType":"address"}],"stateMutability":"view"},{"type":"function","name":"UPGRADE_INTERFACE_VERSION","inputs":[],"outputs":[{"name":"","type":"string","internalType":"string"}],"stateMutability":"view"},{"type":"function","name":"USDT","inputs":[],"outputs":[{"name":"","type":"address","internalType":"address"}],"stateMutability":"view"},{"type":"function","name":"acquireSpecifiedUsdt","inputs":[{"name":"to","type":"address","internalType":"address"},{"name":"needUSDT","type":"uint256","internalType":"uint256"}],"outputs":[],"stateMutability":"nonpayable"},{"type":"function","name":"addLiquidity","inputs":[{"name":"amountUSDT","type":"uint256","internalType":"uint256"}],"outputs":[],"stateMutability":"nonpayable"},{"type":"function","name":"getNeedLP","inputs":[{"name":"amountUSDT","type":"uint256","internalType":"uint256"}],"outputs":[{"name":"","type":"uint256","internalType":"uint256"}],"stateMutability":"view"},{"type":"function","name":"initialize","inputs":[{"name":"_token","type":"address","internalType":"address"},{"name":"_subToken","type":"address","internalType":"address"}],"outputs":[],"stateMutability":"nonpayable"},{"type":"function","name":"owner","inputs":[],"outputs":[{"name":"","type":"address","internalType":"address"}],"stateMutability":"view"},{"type":"function","name":"pancakeRouter","inputs":[],"outputs":[{"name":"","type":"address","internalType":"contract IUniswapV2Router02"}],"stateMutability":"view"},{"type":"function","name":"proxiableUUID","inputs":[],"outputs":[{"name":"","type":"bytes32","internalType":"bytes32"}],"stateMutability":"view"},{"type":"function","name":"quoteLPValue","inputs":[{"name":"pair","type":"address","internalType":"address"}],"outputs":[{"name":"tokenAmount","type":"uint256","internalType":"uint256"},{"name":"usdtAmount","type":"uint256","internalType":"uint256"}],"stateMutability":"view"},{"type":"function","name":"renounceOwnership","inputs":[],"outputs":[],"stateMutability":"nonpayable"},{"type":"function","name":"setStaking","inputs":[{"name":"_staking","type":"address","internalType":"address"}],"outputs":[],"stateMutability":"nonpayable"},{"type":"function","name":"staking","inputs":[],"outputs":[{"name":"","type":"address","internalType":"address"}],"stateMutability":"view"},{"type":"function","name":"subToken","inputs":[],"outputs":[{"name":"","type":"address","internalType":"address"}],"stateMutability":"view"},{"type":"function","name":"swapForSubTokenToBurn","inputs":[{"name":"amountUSDT","type":"uint256","internalType":"uint256"}],"outputs":[],"stateMutability":"nonpayable"},{"type":"function","name":"swapForSubTokenToUser","inputs":[{"name":"to","type":"address","internalType":"address"},{"name":"amountUSDT","type":"uint256","internalType":"uint256"}],"outputs":[],"stateMutability":"nonpayable"},{"type":"function","name":"token","inputs":[],"outputs":[{"name":"","type":"address","internalType":"address"}],"stateMutability":"view"},{"type":"function","name":"transferOwnership","inputs":[{"name":"newOwner","type":"address","internalType":"address"}],"outputs":[],"stateMutability":"nonpayable"},{"type":"function","name":"upgradeToAndCall","inputs":[{"name":"newImplementation","type":"address","internalType":"address"},{"name":"data","type":"bytes","internalType":"bytes"}],"outputs":[],"stateMutability":"payable"},{"type":"event","name":"Initialized","inputs":[{"name":"version","type":"uint64","indexed":false,"internalType":"uint64"}],"anonymous":false},{"type":"event","name":"OwnershipTransferred","inputs":[{"name":"previousOwner","type":"address","indexed":true,"internalType":"address"},{"name":"newOwner","type":"address","indexed":true,"internalType":"address"}],"anonymous":false},{"type":"event","name":"Upgraded","inputs":[{"name":"implementation","type":"address","indexed":true,"internalType":"address"}],"anonymous":false},{"type":"error","name":"AddressEmptyCode","inputs":[{"name":"target","type":"address","internalType":"address"}]},{"type":"error","name":"AmountTooLow","inputs":[]},{"type":"error","name":"ERC1967InvalidImplementation","inputs":[{"name":"implementation","type":"address","internalType":"address"}]},{"type":"error","name":"ERC1967NonPayable","inputs":[]},{"type":"error","name":"FailedCall","inputs":[]},{"type":"error","name":"InsufficientLiquidity","inputs":[]},{"type":"error","name":"InvalidAmount","inputs":[]},{"type":"error","name":"InvalidInitialization","inputs":[]},{"type":"error","name":"NoLiquidity","inputs":[]},{"type":"error","name":"NotInitializing","inputs":[]},{"type":"error","name":"OwnableInvalidOwner","inputs":[{"name":"owner","type":"address","internalType":"address"}]},{"type":"error","name":"OwnableUnauthorizedAccount","inputs":[{"name":"account","type":"address","internalType":"address"}]},{"type":"error","name":"ReentrancyGuardReentrantCall","inputs":[]},{"type":"error","name":"UUPSUnauthorizedCallContext","inputs":[]},{"type":"error","name":"UUPSUnsupportedProxiableUUID","inputs":[{"name":"slot","type":"bytes32","internalType":"bytes32"}]}],"bytecode":{"object":"0x60a06040523073ffffffffffffffffffffffffffffffffffffffff1660809073ffffffffffffffffffffffffffffffffffffffff168152503480156041575f5ffd5b5060015f8190555060805161430461006f5f395f8181612acd01528181612b220152612cdc01526143045ff3fe608060405260043610610122575f3560e01c806379e32cd91161009f578063c54e44eb11610063578063c54e44eb146103c1578063e9ffa9f4146103eb578063f2fde38b14610415578063fb5468271461043d578063fc0c546a1461047957610162565b806379e32cd9146102f35780638da5cb5b1461031b5780638ff3909914610345578063ad3cb1cc1461036d578063c21ebd071461039757610162565b80634cf088d9116100e65780634cf088d9146102455780634f1ef2861461026f57806351c6590a1461028b57806352d1902d146102b3578063715018a6146102dd57610162565b806303ec9fb01461016657806303fd2a451461018e57806308a60d9b146101b85780632d019c42146101f5578063485cc9551461021d57610162565b36610162576040517f08c379a00000000000000000000000000000000000000000000000000000000081526004016101599061334c565b60405180910390fd5b5f5ffd5b348015610171575f5ffd5b5061018c600480360381019061018791906133ae565b6104a3565b005b348015610199575f5ffd5b506101a2610649565b6040516101af9190613418565b60405180910390f35b3480156101c3575f5ffd5b506101de60048036038101906101d9919061345b565b61064f565b6040516101ec929190613495565b60405180910390f35b348015610200575f5ffd5b5061021b600480360381019061021691906134bc565b610c1b565b005b348015610228575f5ffd5b50610243600480360381019061023e91906134fa565b6113e4565b005b348015610250575f5ffd5b506102596115ed565b6040516102669190613418565b60405180910390f35b61028960048036038101906102849190613674565b611612565b005b348015610296575f5ffd5b506102b160048036038101906102ac91906133ae565b611631565b005b3480156102be575f5ffd5b506102c7611aa2565b6040516102d491906136e6565b60405180910390f35b3480156102e8575f5ffd5b506102f1611ad3565b005b3480156102fe575f5ffd5b50610319600480360381019061031491906134bc565b611ae6565b005b348015610326575f5ffd5b5061032f611c8b565b60405161033c9190613418565b60405180910390f35b348015610350575f5ffd5b5061036b6004803603810190610366919061345b565b611cc0565b005b348015610378575f5ffd5b50610381611d0b565b60405161038e919061374f565b60405180910390f35b3480156103a2575f5ffd5b506103ab611d44565b6040516103b891906137ca565b60405180910390f35b3480156103cc575f5ffd5b506103d5611d5c565b6040516103e29190613418565b60405180910390f35b3480156103f6575f5ffd5b506103ff611d74565b60405161040c9190613418565b60405180910390f35b348015610420575f5ffd5b5061043b6004803603810190610436919061345b565b611d99565b005b348015610448575f5ffd5b50610463600480360381019061045e91906133ae565b611e1d565b60405161047091906137e3565b60405180910390f35b348015610484575f5ffd5b5061048d6121aa565b60405161049a9190613418565b60405180910390f35b3373ffffffffffffffffffffffffffffffffffffffff1660035f9054906101000a900473ffffffffffffffffffffffffffffffffffffffff1673ffffffffffffffffffffffffffffffffffffffff1614610532576040517f08c379a000000000000000000000000000000000000000000000000000000000815260040161052990613846565b60405180910390fd5b5f8103156106465761057a7355d398326f99059ff775485246999027b319795560025f9054906101000a900473ffffffffffffffffffffffffffffffffffffffff16836121cf565b5f60025f9054906101000a900473ffffffffffffffffffffffffffffffffffffffff1673ffffffffffffffffffffffffffffffffffffffff166370a08231306040518263ffffffff1660e01b81526004016105d59190613418565b602060405180830381865afa1580156105f0573d5f5f3e3d5ffd5b505050506040513d601f19601f820116820180604052508101906106149190613878565b905061064460025f9054906101000a900473ffffffffffffffffffffffffffffffffffffffff1661dead836123dd565b505b50565b61dead81565b5f5f5f5f8473ffffffffffffffffffffffffffffffffffffffff16630902f1ac6040518163ffffffff1660e01b8152600401606060405180830381865afa15801561069c573d5f5f3e3d5ffd5b505050506040513d601f19601f820116820180604052508101906106c0919061391f565b50915091505f8573ffffffffffffffffffffffffffffffffffffffff166318160ddd6040518163ffffffff1660e01b8152600401602060405180830381865afa15801561070f573d5f5f3e3d5ffd5b505050506040513d601f19601f820116820180604052508101906107339190613878565b90505f8673ffffffffffffffffffffffffffffffffffffffff16630dfe16816040518163ffffffff1660e01b8152600401602060405180830381865afa15801561077f573d5f5f3e3d5ffd5b505050506040513d601f19601f820116820180604052508101906107a39190613983565b90505f8773ffffffffffffffffffffffffffffffffffffffff1663d21220a76040518163ffffffff1660e01b8152600401602060405180830381865afa1580156107ef573d5f5f3e3d5ffd5b505050506040513d601f19601f820116820180604052508101906108139190613983565b905060015f9054906101000a900473ffffffffffffffffffffffffffffffffffffffff1673ffffffffffffffffffffffffffffffffffffffff168273ffffffffffffffffffffffffffffffffffffffff1614806108bc575060015f9054906101000a900473ffffffffffffffffffffffffffffffffffffffff1673ffffffffffffffffffffffffffffffffffffffff168173ffffffffffffffffffffffffffffffffffffffff16145b6108fb576040517f08c379a00000000000000000000000000000000000000000000000000000000081526004016108f2906139f8565b60405180910390fd5b7355d398326f99059ff775485246999027b319795573ffffffffffffffffffffffffffffffffffffffff168273ffffffffffffffffffffffffffffffffffffffff16148061098857507355d398326f99059ff775485246999027b319795573ffffffffffffffffffffffffffffffffffffffff168173ffffffffffffffffffffffffffffffffffffffff16145b6109c7576040517f08c379a00000000000000000000000000000000000000000000000000000000081526004016109be90613a60565b60405180910390fd5b60015f9054906101000a900473ffffffffffffffffffffffffffffffffffffffff1673ffffffffffffffffffffffffffffffffffffffff168273ffffffffffffffffffffffffffffffffffffffff16148015610a6257507355d398326f99059ff775485246999027b319795573ffffffffffffffffffffffffffffffffffffffff168173ffffffffffffffffffffffffffffffffffffffff16145b15610ace5782670de0b6b3a7640000866dffffffffffffffffffffffffffff16610a8c9190613aab565b610a969190613b19565b965082670de0b6b3a7640000856dffffffffffffffffffffffffffff16610abd9190613aab565b610ac79190613b19565b9550610c11565b7355d398326f99059ff775485246999027b319795573ffffffffffffffffffffffffffffffffffffffff168273ffffffffffffffffffffffffffffffffffffffff16148015610b69575060015f9054906101000a900473ffffffffffffffffffffffffffffffffffffffff1673ffffffffffffffffffffffffffffffffffffffff168173ffffffffffffffffffffffffffffffffffffffff16145b15610bd55782670de0b6b3a7640000856dffffffffffffffffffffffffffff16610b939190613aab565b610b9d9190613b19565b965082670de0b6b3a7640000866dffffffffffffffffffffffffffff16610bc49190613aab565b610bce9190613b19565b9550610c10565b6040517f08c379a0000000000000000000000000000000000000000000000000000000008152600401610c0790613b93565b60405180910390fd5b5b5050505050915091565b3373ffffffffffffffffffffffffffffffffffffffff1660035f9054906101000a900473ffffffffffffffffffffffffffffffffffffffff1673ffffffffffffffffffffffffffffffffffffffff1614610caa576040517f08c379a0000000000000000000000000000000000000000000000000000000008152600401610ca190613846565b60405180910390fd5b674563918244f400008111610ceb576040517f2c5211c600000000000000000000000000000000000000000000000000000000815260040160405180910390fd5b5f7310ed43c718714eb63d5aa57b78b54704e256024e73ffffffffffffffffffffffffffffffffffffffff1663c45a01556040518163ffffffff1660e01b8152600401602060405180830381865afa158015610d49573d5f5f3e3d5ffd5b505050506040513d601f19601f82011682018060405250810190610d6d9190613983565b73ffffffffffffffffffffffffffffffffffffffff1663e6a439057355d398326f99059ff775485246999027b319795560015f9054906101000a900473ffffffffffffffffffffffffffffffffffffffff166040518363ffffffff1660e01b8152600401610ddc929190613bb1565b602060405180830381865afa158015610df7573d5f5f3e3d5ffd5b505050506040513d601f19601f82011682018060405250810190610e1b9190613983565b90505f8173ffffffffffffffffffffffffffffffffffffffff166370a08231306040518263ffffffff1660e01b8152600401610e579190613418565b602060405180830381865afa158015610e72573d5f5f3e3d5ffd5b505050506040513d601f19601f82011682018060405250810190610e969190613878565b90505f8103610ed1576040517fc301e07e00000000000000000000000000000000000000000000000000000000815260040160405180910390fd5b5f5f610edc8461064f565b915091505f600267ffffffffffffffff811115610efc57610efb613550565b5b604051908082528060200260200182016040528015610f2a5781602001602082028036833780820191505090505b50905060015f9054906101000a900473ffffffffffffffffffffffffffffffffffffffff16815f81518110610f6257610f61613bd8565b5b602002602001019073ffffffffffffffffffffffffffffffffffffffff16908173ffffffffffffffffffffffffffffffffffffffff16815250507355d398326f99059ff775485246999027b319795581600181518110610fc557610fc4613bd8565b5b602002602001019073ffffffffffffffffffffffffffffffffffffffff16908173ffffffffffffffffffffffffffffffffffffffff16815250505f7310ed43c718714eb63d5aa57b78b54704e256024e73ffffffffffffffffffffffffffffffffffffffff16631f00ca7460028961103d9190613b19565b846040518363ffffffff1660e01b815260040161105b929190613cbc565b5f60405180830381865afa158015611075573d5f5f3e3d5ffd5b505050506040513d5f823e3d601f19601f8201168201806040525081019061109d9190613dae565b90505f84670de0b6b3a7640000835f815181106110bd576110bc613bd8565b5b60200260200101516110cf9190613aab565b6110d99190613b19565b90505f84670de0b6b3a764000060028b6110f39190613b19565b6110fd9190613aab565b6111079190613b19565b90505f8183116111175781611119565b825b905087811115611155576040517fbb55fd2700000000000000000000000000000000000000000000000000000000815260040160405180910390fd5b61115f898261250d565b5f60015f9054906101000a900473ffffffffffffffffffffffffffffffffffffffff1673ffffffffffffffffffffffffffffffffffffffff166370a08231306040518263ffffffff1660e01b81526004016111ba9190613418565b602060405180830381865afa1580156111d5573d5f5f3e3d5ffd5b505050506040513d601f19601f820116820180604052508101906111f99190613878565b905061123b60015f9054906101000a900473ffffffffffffffffffffffffffffffffffffffff167310ed43c718714eb63d5aa57b78b54704e256024e836125ff565b7310ed43c718714eb63d5aa57b78b54704e256024e73ffffffffffffffffffffffffffffffffffffffff16635c11d795825f8930601e4261127c9190613df5565b6040518663ffffffff1660e01b815260040161129c959493929190613e61565b5f604051808303815f87803b1580156112b3575f5ffd5b505af11580156112c5573d5f5f3e3d5ffd5b505050505f7355d398326f99059ff775485246999027b319795573ffffffffffffffffffffffffffffffffffffffff166370a08231306040518263ffffffff1660e01b81526004016113179190613418565b602060405180830381865afa158015611332573d5f5f3e3d5ffd5b505050506040513d601f19601f820116820180604052508101906113569190613878565b90508b811015611392576040517f1fbaba3500000000000000000000000000000000000000000000000000000000815260040160405180910390fd5b6113c47355d398326f99059ff775485246999027b31979558e674563918244f400008f6113bf9190613eb9565b6123dd565b6113d5674563918244f4000061272f565b50505050505050505050505050565b5f6113ed612a9d565b90505f815f0160089054906101000a900460ff161590505f825f015f9054906101000a900467ffffffffffffffff1690505f5f8267ffffffffffffffff161480156114355750825b90505f60018367ffffffffffffffff1614801561146857505f3073ffffffffffffffffffffffffffffffffffffffff163b145b905081158015611476575080155b156114ad576040517ff92ee8a900000000000000000000000000000000000000000000000000000000815260040160405180910390fd5b6001855f015f6101000a81548167ffffffffffffffff021916908367ffffffffffffffff16021790555083156114fa576001855f0160086101000a81548160ff0219169083151502179055505b61150a611505612ab0565b612ab7565b8660015f6101000a81548173ffffffffffffffffffffffffffffffffffffffff021916908373ffffffffffffffffffffffffffffffffffffffff1602179055508560025f6101000a81548173ffffffffffffffffffffffffffffffffffffffff021916908373ffffffffffffffffffffffffffffffffffffffff16021790555083156115e4575f855f0160086101000a81548160ff0219169083151502179055507fc7f505b2f371ae2175ee4913f4499e1f2633a7b5936321eed1cdaeb6115181d260016040516115db9190613f38565b60405180910390a15b50505050505050565b60035f9054906101000a900473ffffffffffffffffffffffffffffffffffffffff1681565b61161a612acb565b61162382612bb1565b61162d8282612bbc565b5050565b3373ffffffffffffffffffffffffffffffffffffffff1660035f9054906101000a900473ffffffffffffffffffffffffffffffffffffffff1673ffffffffffffffffffffffffffffffffffffffff16146116c0576040517f08c379a00000000000000000000000000000000000000000000000000000000081526004016116b790613846565b60405180910390fd5b5f6002826116ce9190613b19565b90505f60015f9054906101000a900473ffffffffffffffffffffffffffffffffffffffff1673ffffffffffffffffffffffffffffffffffffffff166370a08231306040518263ffffffff1660e01b815260040161172b9190613418565b602060405180830381865afa158015611746573d5f5f3e3d5ffd5b505050506040513d601f19601f8201168201806040525081019061176a9190613878565b90506117ac7355d398326f99059ff775485246999027b319795560015f9054906101000a900473ffffffffffffffffffffffffffffffffffffffff16846121cf565b5f60015f9054906101000a900473ffffffffffffffffffffffffffffffffffffffff1673ffffffffffffffffffffffffffffffffffffffff166370a08231306040518263ffffffff1660e01b81526004016118079190613418565b602060405180830381865afa158015611822573d5f5f3e3d5ffd5b505050506040513d601f19601f820116820180604052508101906118469190613878565b90505f83856118559190613eb9565b90505f83836118649190613eb9565b90507355d398326f99059ff775485246999027b319795573ffffffffffffffffffffffffffffffffffffffff1663095ea7b37310ed43c718714eb63d5aa57b78b54704e256024e846040518363ffffffff1660e01b81526004016118c9929190613f51565b6020604051808303815f875af11580156118e5573d5f5f3e3d5ffd5b505050506040513d601f19601f820116820180604052508101906119099190613fad565b5060015f9054906101000a900473ffffffffffffffffffffffffffffffffffffffff1673ffffffffffffffffffffffffffffffffffffffff1663095ea7b37310ed43c718714eb63d5aa57b78b54704e256024e836040518363ffffffff1660e01b815260040161197a929190613f51565b6020604051808303815f875af1158015611996573d5f5f3e3d5ffd5b505050506040513d601f19601f820116820180604052508101906119ba9190613fad565b507310ed43c718714eb63d5aa57b78b54704e256024e73ffffffffffffffffffffffffffffffffffffffff1663e8e337007355d398326f99059ff775485246999027b319795560015f9054906101000a900473ffffffffffffffffffffffffffffffffffffffff1685855f5f30601e42611a349190613df5565b6040518963ffffffff1660e01b8152600401611a57989796959493929190613fd8565b6060604051808303815f875af1158015611a73573d5f5f3e3d5ffd5b505050506040513d601f19601f82011682018060405250810190611a979190614054565b505050505050505050565b5f611aab612cda565b7f360894a13ba1a3210667c828492db98dca3e2076cc3735a920a3ca505d382bbc5f1b905090565b611adb612d61565b611ae45f612de8565b565b3373ffffffffffffffffffffffffffffffffffffffff1660035f9054906101000a900473ffffffffffffffffffffffffffffffffffffffff1673ffffffffffffffffffffffffffffffffffffffff1614611b75576040517f08c379a0000000000000000000000000000000000000000000000000000000008152600401611b6c90613846565b60405180910390fd5b5f810315611c8757611bbd7355d398326f99059ff775485246999027b319795560025f9054906101000a900473ffffffffffffffffffffffffffffffffffffffff16836121cf565b5f60025f9054906101000a900473ffffffffffffffffffffffffffffffffffffffff1673ffffffffffffffffffffffffffffffffffffffff166370a08231306040518263ffffffff1660e01b8152600401611c189190613418565b602060405180830381865afa158015611c33573d5f5f3e3d5ffd5b505050506040513d601f19601f82011682018060405250810190611c579190613878565b9050611c8560025f9054906101000a900473ffffffffffffffffffffffffffffffffffffffff1684836123dd565b505b5050565b5f5f611c95612eb9565b9050805f015f9054906101000a900473ffffffffffffffffffffffffffffffffffffffff1691505090565b611cc8612d61565b8060035f6101000a81548173ffffffffffffffffffffffffffffffffffffffff021916908373ffffffffffffffffffffffffffffffffffffffff16021790555050565b6040518060400160405280600581526020017f352e302e3000000000000000000000000000000000000000000000000000000081525081565b7310ed43c718714eb63d5aa57b78b54704e256024e81565b7355d398326f99059ff775485246999027b319795581565b60025f9054906101000a900473ffffffffffffffffffffffffffffffffffffffff1681565b611da1612d61565b5f73ffffffffffffffffffffffffffffffffffffffff168173ffffffffffffffffffffffffffffffffffffffff1603611e11575f6040517f1e4fbdf7000000000000000000000000000000000000000000000000000000008152600401611e089190613418565b60405180910390fd5b611e1a81612de8565b50565b5f5f7310ed43c718714eb63d5aa57b78b54704e256024e73ffffffffffffffffffffffffffffffffffffffff1663c45a01556040518163ffffffff1660e01b8152600401602060405180830381865afa158015611e7c573d5f5f3e3d5ffd5b505050506040513d601f19601f82011682018060405250810190611ea09190613983565b73ffffffffffffffffffffffffffffffffffffffff1663e6a439057355d398326f99059ff775485246999027b319795560015f9054906101000a900473ffffffffffffffffffffffffffffffffffffffff166040518363ffffffff1660e01b8152600401611f0f929190613bb1565b602060405180830381865afa158015611f2a573d5f5f3e3d5ffd5b505050506040513d601f19601f82011682018060405250810190611f4e9190613983565b90505f5f611f5b8361064f565b915091505f600267ffffffffffffffff811115611f7b57611f7a613550565b5b604051908082528060200260200182016040528015611fa95781602001602082028036833780820191505090505b50905060015f9054906101000a900473ffffffffffffffffffffffffffffffffffffffff16815f81518110611fe157611fe0613bd8565b5b602002602001019073ffffffffffffffffffffffffffffffffffffffff16908173ffffffffffffffffffffffffffffffffffffffff16815250507355d398326f99059ff775485246999027b31979558160018151811061204457612043613bd8565b5b602002602001019073ffffffffffffffffffffffffffffffffffffffff16908173ffffffffffffffffffffffffffffffffffffffff16815250505f7310ed43c718714eb63d5aa57b78b54704e256024e73ffffffffffffffffffffffffffffffffffffffff16631f00ca746002896120bc9190613b19565b846040518363ffffffff1660e01b81526004016120da929190613cbc565b5f60405180830381865afa1580156120f4573d5f5f3e3d5ffd5b505050506040513d5f823e3d601f19601f8201168201806040525081019061211c9190613dae565b90505f84670de0b6b3a7640000835f8151811061213c5761213b613bd8565b5b602002602001015161214e9190613aab565b6121589190613b19565b90505f84670de0b6b3a764000060028b6121729190613b19565b61217c9190613aab565b6121869190613b19565b90505f8183116121965781612198565b825b90508098505050505050505050919050565b60015f9054906101000a900473ffffffffffffffffffffffffffffffffffffffff1681565b5f600267ffffffffffffffff8111156121eb576121ea613550565b5b6040519080825280602002602001820160405280156122195781602001602082028036833780820191505090505b50905083815f815181106122305761222f613bd8565b5b602002602001019073ffffffffffffffffffffffffffffffffffffffff16908173ffffffffffffffffffffffffffffffffffffffff1681525050828160018151811061227f5761227e613bd8565b5b602002602001019073ffffffffffffffffffffffffffffffffffffffff16908173ffffffffffffffffffffffffffffffffffffffff16815250508373ffffffffffffffffffffffffffffffffffffffff1663095ea7b37310ed43c718714eb63d5aa57b78b54704e256024e846040518363ffffffff1660e01b8152600401612308929190613f51565b6020604051808303815f875af1158015612324573d5f5f3e3d5ffd5b505050506040513d601f19601f820116820180604052508101906123489190613fad565b507310ed43c718714eb63d5aa57b78b54704e256024e73ffffffffffffffffffffffffffffffffffffffff16635c11d795835f8430601e4261238a9190613df5565b6040518663ffffffff1660e01b81526004016123aa959493929190613e61565b5f604051808303815f87803b1580156123c1575f5ffd5b505af11580156123d3573d5f5f3e3d5ffd5b5050505050505050565b5f5f8473ffffffffffffffffffffffffffffffffffffffff1663a9059cbb858560405160240161240e929190613f51565b6040516020818303038152906040529060e01b6020820180517bffffffffffffffffffffffffffffffffffffffffffffffffffffffff838183161783525050505060405161245c91906140e8565b5f604051808303815f865af19150503d805f8114612495576040519150601f19603f3d011682016040523d82523d5f602084013e61249a565b606091505b50915091508180156124c757505f815114806124c65750808060200190518101906124c59190613fad565b5b5b612506576040517f08c379a00000000000000000000000000000000000000000000000000000000081526004016124fd90614148565b60405180910390fd5b5050505050565b61252c827310ed43c718714eb63d5aa57b78b54704e256024e836125ff565b7310ed43c718714eb63d5aa57b78b54704e256024e73ffffffffffffffffffffffffffffffffffffffff1663baa2abde60015f9054906101000a900473ffffffffffffffffffffffffffffffffffffffff167355d398326f99059ff775485246999027b3197955845f5f30426040518863ffffffff1660e01b81526004016125ba9796959493929190614166565b60408051808303815f875af11580156125d5573d5f5f3e3d5ffd5b505050506040513d601f19601f820116820180604052508101906125f991906141d3565b50505050565b5f5f8473ffffffffffffffffffffffffffffffffffffffff1663095ea7b38585604051602401612630929190613f51565b6040516020818303038152906040529060e01b6020820180517bffffffffffffffffffffffffffffffffffffffffffffffffffffffff838183161783525050505060405161267e91906140e8565b5f604051808303815f865af19150503d805f81146126b7576040519150601f19603f3d011682016040523d82523d5f602084013e6126bc565b606091505b50915091508180156126e957505f815114806126e85750808060200190518101906126e79190613fad565b5b5b612728576040517f08c379a000000000000000000000000000000000000000000000000000000000815260040161271f9061425b565b60405180910390fd5b5050505050565b5f810315612a9a575f600267ffffffffffffffff81111561275357612752613550565b5b6040519080825280602002602001820160405280156127815781602001602082028036833780820191505090505b5090507355d398326f99059ff775485246999027b3197955815f815181106127ac576127ab613bd8565b5b602002602001019073ffffffffffffffffffffffffffffffffffffffff16908173ffffffffffffffffffffffffffffffffffffffff168152505060025f9054906101000a900473ffffffffffffffffffffffffffffffffffffffff168160018151811061281c5761281b613bd8565b5b602002602001019073ffffffffffffffffffffffffffffffffffffffff16908173ffffffffffffffffffffffffffffffffffffffff16815250505f60025f9054906101000a900473ffffffffffffffffffffffffffffffffffffffff1673ffffffffffffffffffffffffffffffffffffffff166370a08231306040518263ffffffff1660e01b81526004016128b19190613418565b602060405180830381865afa1580156128cc573d5f5f3e3d5ffd5b505050506040513d601f19601f820116820180604052508101906128f09190613878565b90506129257355d398326f99059ff775485246999027b31979557310ed43c718714eb63d5aa57b78b54704e256024e856125ff565b7310ed43c718714eb63d5aa57b78b54704e256024e73ffffffffffffffffffffffffffffffffffffffff16635c11d795845f8530603c426129669190613df5565b6040518663ffffffff1660e01b8152600401612986959493929190613e61565b5f604051808303815f87803b15801561299d575f5ffd5b505af11580156129af573d5f5f3e3d5ffd5b505050505f60025f9054906101000a900473ffffffffffffffffffffffffffffffffffffffff1673ffffffffffffffffffffffffffffffffffffffff166370a08231306040518263ffffffff1660e01b8152600401612a0e9190613418565b602060405180830381865afa158015612a29573d5f5f3e3d5ffd5b505050506040513d601f19601f82011682018060405250810190612a4d9190613878565b90505f8282612a5c9190613eb9565b90505f811115612a9557612a9460025f9054906101000a900473ffffffffffffffffffffffffffffffffffffffff1661dead836123dd565b5b505050505b50565b5f5f612aa7612ee0565b90508091505090565b5f33905090565b612abf612f09565b612ac881612f49565b50565b7f000000000000000000000000000000000000000000000000000000000000000073ffffffffffffffffffffffffffffffffffffffff163073ffffffffffffffffffffffffffffffffffffffff161480612b7857507f000000000000000000000000000000000000000000000000000000000000000073ffffffffffffffffffffffffffffffffffffffff16612b5f612fcd565b73ffffffffffffffffffffffffffffffffffffffff1614155b15612baf576040517fe07c8dba00000000000000000000000000000000000000000000000000000000815260040160405180910390fd5b565b612bb9612d61565b50565b8173ffffffffffffffffffffffffffffffffffffffff166352d1902d6040518163ffffffff1660e01b8152600401602060405180830381865afa925050508015612c2457506040513d601f19601f82011682018060405250810190612c2191906142a3565b60015b612c6557816040517f4c9c8ce3000000000000000000000000000000000000000000000000000000008152600401612c5c9190613418565b60405180910390fd5b7f360894a13ba1a3210667c828492db98dca3e2076cc3735a920a3ca505d382bbc5f1b8114612ccb57806040517faa1d49a4000000000000000000000000000000000000000000000000000000008152600401612cc291906136e6565b60405180910390fd5b612cd58383613020565b505050565b7f000000000000000000000000000000000000000000000000000000000000000073ffffffffffffffffffffffffffffffffffffffff163073ffffffffffffffffffffffffffffffffffffffff1614612d5f576040517fe07c8dba00000000000000000000000000000000000000000000000000000000815260040160405180910390fd5b565b612d69612ab0565b73ffffffffffffffffffffffffffffffffffffffff16612d87611c8b565b73ffffffffffffffffffffffffffffffffffffffff1614612de657612daa612ab0565b6040517f118cdaa7000000000000000000000000000000000000000000000000000000008152600401612ddd9190613418565b60405180910390fd5b565b5f612df1612eb9565b90505f815f015f9054906101000a900473ffffffffffffffffffffffffffffffffffffffff16905082825f015f6101000a81548173ffffffffffffffffffffffffffffffffffffffff021916908373ffffffffffffffffffffffffffffffffffffffff1602179055508273ffffffffffffffffffffffffffffffffffffffff168173ffffffffffffffffffffffffffffffffffffffff167f8be0079c531659141344cd1fd0a4f28419497f9722a3daafe3b4186f6b6457e060405160405180910390a3505050565b5f7f9016d09d72d40fdae2fd8ceac6b6234c7706214fd39c1cd1e609a0528c199300905090565b5f7ff0c57e16840df040f15088dc2f81fe391c3923bec73e23a9662efc9c229c6a005f1b905090565b612f11613092565b612f47576040517fd7e6bcf800000000000000000000000000000000000000000000000000000000815260040160405180910390fd5b565b612f51612f09565b5f73ffffffffffffffffffffffffffffffffffffffff168173ffffffffffffffffffffffffffffffffffffffff1603612fc1575f6040517f1e4fbdf7000000000000000000000000000000000000000000000000000000008152600401612fb89190613418565b60405180910390fd5b612fca81612de8565b50565b5f612ff97f360894a13ba1a3210667c828492db98dca3e2076cc3735a920a3ca505d382bbc5f1b6130b0565b5f015f9054906101000a900473ffffffffffffffffffffffffffffffffffffffff16905090565b613029826130b9565b8173ffffffffffffffffffffffffffffffffffffffff167fbc7cd75a20ee27fd9adebab32041f755214dbc6bffa90cc0225b39da2e5c2d3b60405160405180910390a25f815111156130855761307f8282613182565b5061308e565b61308d613273565b5b5050565b5f61309b612a9d565b5f0160089054906101000a900460ff16905090565b5f819050919050565b5f8173ffffffffffffffffffffffffffffffffffffffff163b0361311457806040517f4c9c8ce300000000000000000000000000000000000000000000000000000000815260040161310b9190613418565b60405180910390fd5b806131407f360894a13ba1a3210667c828492db98dca3e2076cc3735a920a3ca505d382bbc5f1b6130b0565b5f015f6101000a81548173ffffffffffffffffffffffffffffffffffffffff021916908373ffffffffffffffffffffffffffffffffffffffff16021790555050565b60605f61318f84846132af565b90508080156131c557505f6131a26132c3565b11806131c457505f8473ffffffffffffffffffffffffffffffffffffffff163b115b5b156131da576131d26132ca565b91505061326d565b801561321d57836040517f9996b3150000000000000000000000000000000000000000000000000000000081526004016132149190613418565b60405180910390fd5b5f6132266132c3565b1115613239576132346132e7565b61326b565b6040517fd6bda27500000000000000000000000000000000000000000000000000000000815260040160405180910390fd5b505b92915050565b5f3411156132ad576040517fb398979f00000000000000000000000000000000000000000000000000000000815260040160405180910390fd5b565b5f5f5f835160208501865af4905092915050565b5f3d905090565b606060405190503d81523d5f602083013e3d602001810160405290565b6040513d5f823e3d81fd5b5f82825260208201905092915050565b7f4e4f5f4449524543545f53454e440000000000000000000000000000000000005f82015250565b5f613336600e836132f2565b915061334182613302565b602082019050919050565b5f6020820190508181035f8301526133638161332a565b9050919050565b5f604051905090565b5f5ffd5b5f5ffd5b5f819050919050565b61338d8161337b565b8114613397575f5ffd5b50565b5f813590506133a881613384565b92915050565b5f602082840312156133c3576133c2613373565b5b5f6133d08482850161339a565b91505092915050565b5f73ffffffffffffffffffffffffffffffffffffffff82169050919050565b5f613402826133d9565b9050919050565b613412816133f8565b82525050565b5f60208201905061342b5f830184613409565b92915050565b61343a816133f8565b8114613444575f5ffd5b50565b5f8135905061345581613431565b92915050565b5f602082840312156134705761346f613373565b5b5f61347d84828501613447565b91505092915050565b61348f8161337b565b82525050565b5f6040820190506134a85f830185613486565b6134b56020830184613486565b9392505050565b5f5f604083850312156134d2576134d1613373565b5b5f6134df85828601613447565b92505060206134f08582860161339a565b9150509250929050565b5f5f604083850312156135105761350f613373565b5b5f61351d85828601613447565b925050602061352e85828601613447565b9150509250929050565b5f5ffd5b5f5ffd5b5f601f19601f8301169050919050565b7f4e487b71000000000000000000000000000000000000000000000000000000005f52604160045260245ffd5b61358682613540565b810181811067ffffffffffffffff821117156135a5576135a4613550565b5b80604052505050565b5f6135b761336a565b90506135c3828261357d565b919050565b5f67ffffffffffffffff8211156135e2576135e1613550565b5b6135eb82613540565b9050602081019050919050565b828183375f83830152505050565b5f613618613613846135c8565b6135ae565b9050828152602081018484840111156136345761363361353c565b5b61363f8482856135f8565b509392505050565b5f82601f83011261365b5761365a613538565b5b813561366b848260208601613606565b91505092915050565b5f5f6040838503121561368a57613689613373565b5b5f61369785828601613447565b925050602083013567ffffffffffffffff8111156136b8576136b7613377565b5b6136c485828601613647565b9150509250929050565b5f819050919050565b6136e0816136ce565b82525050565b5f6020820190506136f95f8301846136d7565b92915050565b5f81519050919050565b8281835e5f83830152505050565b5f613721826136ff565b61372b81856132f2565b935061373b818560208601613709565b61374481613540565b840191505092915050565b5f6020820190508181035f8301526137678184613717565b905092915050565b5f819050919050565b5f61379261378d613788846133d9565b61376f565b6133d9565b9050919050565b5f6137a382613778565b9050919050565b5f6137b482613799565b9050919050565b6137c4816137aa565b82525050565b5f6020820190506137dd5f8301846137bb565b92915050565b5f6020820190506137f65f830184613486565b92915050565b7f4e6f74207065726d69742e0000000000000000000000000000000000000000005f82015250565b5f613830600b836132f2565b915061383b826137fc565b602082019050919050565b5f6020820190508181035f83015261385d81613824565b9050919050565b5f8151905061387281613384565b92915050565b5f6020828403121561388d5761388c613373565b5b5f61389a84828501613864565b91505092915050565b5f6dffffffffffffffffffffffffffff82169050919050565b6138c5816138a3565b81146138cf575f5ffd5b50565b5f815190506138e0816138bc565b92915050565b5f63ffffffff82169050919050565b6138fe816138e6565b8114613908575f5ffd5b50565b5f81519050613919816138f5565b92915050565b5f5f5f6060848603121561393657613935613373565b5b5f613943868287016138d2565b9350506020613954868287016138d2565b92505060406139658682870161390b565b9150509250925092565b5f8151905061397d81613431565b92915050565b5f6020828403121561399857613997613373565b5b5f6139a58482850161396f565b91505092915050565b7f746f6b656e206e6f7420696e20706169720000000000000000000000000000005f82015250565b5f6139e26011836132f2565b91506139ed826139ae565b602082019050919050565b5f6020820190508181035f830152613a0f816139d6565b9050919050565b7f55534454206e6f7420696e2070616972000000000000000000000000000000005f82015250565b5f613a4a6010836132f2565b9150613a5582613a16565b602082019050919050565b5f6020820190508181035f830152613a7781613a3e565b9050919050565b7f4e487b71000000000000000000000000000000000000000000000000000000005f52601160045260245ffd5b5f613ab58261337b565b9150613ac08361337b565b9250828202613ace8161337b565b91508282048414831517613ae557613ae4613a7e565b5b5092915050565b7f4e487b71000000000000000000000000000000000000000000000000000000005f52601260045260245ffd5b5f613b238261337b565b9150613b2e8361337b565b925082613b3e57613b3d613aec565b5b828204905092915050565b7f696e76616c6964207061697200000000000000000000000000000000000000005f82015250565b5f613b7d600c836132f2565b9150613b8882613b49565b602082019050919050565b5f6020820190508181035f830152613baa81613b71565b9050919050565b5f604082019050613bc45f830185613409565b613bd16020830184613409565b9392505050565b7f4e487b71000000000000000000000000000000000000000000000000000000005f52603260045260245ffd5b5f81519050919050565b5f82825260208201905092915050565b5f819050602082019050919050565b613c37816133f8565b82525050565b5f613c488383613c2e565b60208301905092915050565b5f602082019050919050565b5f613c6a82613c05565b613c748185613c0f565b9350613c7f83613c1f565b805f5b83811015613caf578151613c968882613c3d565b9750613ca183613c54565b925050600181019050613c82565b5085935050505092915050565b5f604082019050613ccf5f830185613486565b8181036020830152613ce18184613c60565b90509392505050565b5f67ffffffffffffffff821115613d0457613d03613550565b5b602082029050602081019050919050565b5f5ffd5b5f613d2b613d2684613cea565b6135ae565b90508083825260208201905060208402830185811115613d4e57613d4d613d15565b5b835b81811015613d775780613d638882613864565b845260208401935050602081019050613d50565b5050509392505050565b5f82601f830112613d9557613d94613538565b5b8151613da5848260208601613d19565b91505092915050565b5f60208284031215613dc357613dc2613373565b5b5f82015167ffffffffffffffff811115613de057613ddf613377565b5b613dec84828501613d81565b91505092915050565b5f613dff8261337b565b9150613e0a8361337b565b9250828201905080821115613e2257613e21613a7e565b5b92915050565b5f819050919050565b5f613e4b613e46613e4184613e28565b61376f565b61337b565b9050919050565b613e5b81613e31565b82525050565b5f60a082019050613e745f830188613486565b613e816020830187613e52565b8181036040830152613e938186613c60565b9050613ea26060830185613409565b613eaf6080830184613486565b9695505050505050565b5f613ec38261337b565b9150613ece8361337b565b9250828203905081811115613ee657613ee5613a7e565b5b92915050565b5f819050919050565b5f67ffffffffffffffff82169050919050565b5f613f22613f1d613f1884613eec565b61376f565b613ef5565b9050919050565b613f3281613f08565b82525050565b5f602082019050613f4b5f830184613f29565b92915050565b5f604082019050613f645f830185613409565b613f716020830184613486565b9392505050565b5f8115159050919050565b613f8c81613f78565b8114613f96575f5ffd5b50565b5f81519050613fa781613f83565b92915050565b5f60208284031215613fc257613fc1613373565b5b5f613fcf84828501613f99565b91505092915050565b5f61010082019050613fec5f83018b613409565b613ff9602083018a613409565b6140066040830189613486565b6140136060830188613486565b6140206080830187613e52565b61402d60a0830186613e52565b61403a60c0830185613409565b61404760e0830184613486565b9998505050505050505050565b5f5f5f6060848603121561406b5761406a613373565b5b5f61407886828701613864565b935050602061408986828701613864565b925050604061409a86828701613864565b9150509250925092565b5f81519050919050565b5f81905092915050565b5f6140c2826140a4565b6140cc81856140ae565b93506140dc818560208601613709565b80840191505092915050565b5f6140f382846140b8565b915081905092915050565b7f5472616e7366657248656c7065723a205452414e534645525f4641494c4544005f82015250565b5f614132601f836132f2565b915061413d826140fe565b602082019050919050565b5f6020820190508181035f83015261415f81614126565b9050919050565b5f60e0820190506141795f83018a613409565b6141866020830189613409565b6141936040830188613486565b6141a06060830187613e52565b6141ad6080830186613e52565b6141ba60a0830185613409565b6141c760c0830184613486565b98975050505050505050565b5f5f604083850312156141e9576141e8613373565b5b5f6141f685828601613864565b925050602061420785828601613864565b9150509250929050565b7f5472616e7366657248656c7065723a20415050524f56455f4641494c454400005f82015250565b5f614245601e836132f2565b915061425082614211565b602082019050919050565b5f6020820190508181035f83015261427281614239565b9050919050565b614282816136ce565b811461428c575f5ffd5b50565b5f8151905061429d81614279565b92915050565b5f602082840312156142b8576142b7613373565b5b5f6142c58482850161428f565b9150509291505056fea2646970667358221220a36171661dc39a92ae637b5a03ef8bbdf5421e22e15c1c68105569eb8089723364736f6c634300081e0033","linkReferences":{}},"methodIdentifiers":{"DEAD()":"03fd2a45","UPGRADE_INTERFACE_VERSION()":"ad3cb1cc","USDT()":"c54e44eb","acquireSpecifiedUsdt(address,uint256)":"2d019c42","addLiquidity(uint256)":"51c6590a","getNeedLP(uint256)":"fb546827","initialize(address,address)":"485cc955","owner()":"8da5cb5b","pancakeRouter()":"c21ebd07","proxiableUUID()":"52d1902d","quoteLPValue(address)":"08a60d9b","renounceOwnership()":"715018a6","setStaking(address)":"8ff39099","staking()":"4cf088d9","subToken()":"e9ffa9f4","swapForSubTokenToBurn(uint256)":"03ec9fb0","swapForSubTokenToUser(address,uint256)":"79e32cd9","token()":"fc0c546a","transferOwnership(address)":"f2fde38b","upgradeToAndCall(address,bytes)":"4f1ef286"},"id":48}