{"abi":[{"type":"receive","stateMutability":"payable"},{"type":"function","name":"DEAD","inputs":[],"outputs":[{"name":"","type":"address","internalType":"address"}],"stateMutability":"view"},{"type":"function","name":"UPGRADE_INTERFACE_VERSION","inputs":[],"outputs":[{"name":"","type":"string","internalType":"string"}],"stateMutability":"view"},{"type":"function","name":"USDT","inputs":[],"outputs":[{"name":"","type":"address","internalType":"address"}],"stateMutability":"view"},{"type":"function","name":"acquireSpecifiedUsdt","inputs":[{"name":"to","type":"address","internalType":"address"},{"name":"amountUSDT","type":"uint256","internalType":"uint256"}],"outputs":[],"stateMutability":"nonpayable"},{"type":"function","name":"addLiquidity","inputs":[{"name":"amountUSDT","type":"uint256","internalType":"uint256"}],"outputs":[],"stateMutability":"nonpayable"},{"type":"function","name":"initialize","inputs":[{"name":"_token","type":"address","internalType":"address"},{"name":"_subToken","type":"address","internalType":"address"}],"outputs":[],"stateMutability":"nonpayable"},{"type":"function","name":"owner","inputs":[],"outputs":[{"name":"","type":"address","internalType":"address"}],"stateMutability":"view"},{"type":"function","name":"pancakeRouter","inputs":[],"outputs":[{"name":"","type":"address","internalType":"contract IUniswapV2Router02"}],"stateMutability":"view"},{"type":"function","name":"proxiableUUID","inputs":[],"outputs":[{"name":"","type":"bytes32","internalType":"bytes32"}],"stateMutability":"view"},{"type":"function","name":"renounceOwnership","inputs":[],"outputs":[],"stateMutability":"nonpayable"},{"type":"function","name":"staking","inputs":[],"outputs":[{"name":"","type":"address","internalType":"address"}],"stateMutability":"view"},{"type":"function","name":"subToken","inputs":[],"outputs":[{"name":"","type":"address","internalType":"address"}],"stateMutability":"view"},{"type":"function","name":"swapForSubTokenToBurn","inputs":[{"name":"amountUSDT","type":"uint256","internalType":"uint256"}],"outputs":[],"stateMutability":"nonpayable"},{"type":"function","name":"swapForSubTokenToUser","inputs":[{"name":"to","type":"address","internalType":"address"},{"name":"amountUSDT","type":"uint256","internalType":"uint256"}],"outputs":[],"stateMutability":"nonpayable"},{"type":"function","name":"token","inputs":[],"outputs":[{"name":"","type":"address","internalType":"address"}],"stateMutability":"view"},{"type":"function","name":"transferOwnership","inputs":[{"name":"newOwner","type":"address","internalType":"address"}],"outputs":[],"stateMutability":"nonpayable"},{"type":"function","name":"upgradeToAndCall","inputs":[{"name":"newImplementation","type":"address","internalType":"address"},{"name":"data","type":"bytes","internalType":"bytes"}],"outputs":[],"stateMutability":"payable"},{"type":"event","name":"Initialized","inputs":[{"name":"version","type":"uint64","indexed":false,"internalType":"uint64"}],"anonymous":false},{"type":"event","name":"OwnershipTransferred","inputs":[{"name":"previousOwner","type":"address","indexed":true,"internalType":"address"},{"name":"newOwner","type":"address","indexed":true,"internalType":"address"}],"anonymous":false},{"type":"event","name":"Upgraded","inputs":[{"name":"implementation","type":"address","indexed":true,"internalType":"address"}],"anonymous":false},{"type":"error","name":"AddressEmptyCode","inputs":[{"name":"target","type":"address","internalType":"address"}]},{"type":"error","name":"ERC1967InvalidImplementation","inputs":[{"name":"implementation","type":"address","internalType":"address"}]},{"type":"error","name":"ERC1967NonPayable","inputs":[]},{"type":"error","name":"FailedCall","inputs":[]},{"type":"error","name":"InsufficientLP","inputs":[]},{"type":"error","name":"InsufficientLiquidity","inputs":[]},{"type":"error","name":"InvalidInitialization","inputs":[]},{"type":"error","name":"NoLiquidity","inputs":[]},{"type":"error","name":"NotInitializing","inputs":[]},{"type":"error","name":"OwnableInvalidOwner","inputs":[{"name":"owner","type":"address","internalType":"address"}]},{"type":"error","name":"OwnableUnauthorizedAccount","inputs":[{"name":"account","type":"address","internalType":"address"}]},{"type":"error","name":"PairNotExist","inputs":[]},{"type":"error","name":"ReentrancyGuardReentrantCall","inputs":[]},{"type":"error","name":"UUPSUnauthorizedCallContext","inputs":[]},{"type":"error","name":"UUPSUnsupportedProxiableUUID","inputs":[{"name":"slot","type":"bytes32","internalType":"bytes32"}]}],"bytecode":{"object":"0x60a06040523073ffffffffffffffffffffffffffffffffffffffff1660809073ffffffffffffffffffffffffffffffffffffffff168152507310ed43c718714eb63d5aa57b78b54704e256024e60015f6101000a81548173ffffffffffffffffffffffffffffffffffffffff021916908373ffffffffffffffffffffffffffffffffffffffff160217905550348015610096575f5ffd5b5060015f819055506080516137df6100c45f395f818161214c015281816121a1015261235b01526137df5ff3fe608060405260043610610101575f3560e01c8063715018a611610094578063c21ebd0711610063578063c21ebd0714610311578063c54e44eb1461033b578063e9ffa9f414610365578063f2fde38b1461038f578063fc0c546a146103b757610141565b8063715018a61461027f57806379e32cd9146102955780638da5cb5b146102bd578063ad3cb1cc146102e757610141565b80634cf088d9116100d05780634cf088d9146101e75780634f1ef2861461021157806351c6590a1461022d57806352d1902d1461025557610141565b806303ec9fb01461014557806303fd2a451461016d5780632d019c4214610197578063485cc955146101bf57610141565b36610141576040517f08c379a0000000000000000000000000000000000000000000000000000000008152600401610138906129cb565b60405180910390fd5b5f5ffd5b348015610150575f5ffd5b5061016b60048036038101906101669190612a2d565b6103e1565b005b348015610178575f5ffd5b50610181610587565b60405161018e9190612a97565b60405180910390f35b3480156101a2575f5ffd5b506101bd60048036038101906101b89190612ada565b61058d565b005b3480156101ca575f5ffd5b506101e560048036038101906101e09190612b18565b610a0c565b005b3480156101f2575f5ffd5b506101fb610c15565b6040516102089190612a97565b60405180910390f35b61022b60048036038101906102269190612c92565b610c3a565b005b348015610238575f5ffd5b50610253600480360381019061024e9190612a2d565b610c59565b005b348015610260575f5ffd5b506102696110f1565b6040516102769190612d04565b60405180910390f35b34801561028a575f5ffd5b50610293611122565b005b3480156102a0575f5ffd5b506102bb60048036038101906102b69190612ada565b611135565b005b3480156102c8575f5ffd5b506102d16112da565b6040516102de9190612a97565b60405180910390f35b3480156102f2575f5ffd5b506102fb61130f565b6040516103089190612d6d565b60405180910390f35b34801561031c575f5ffd5b50610325611348565b6040516103329190612de8565b60405180910390f35b348015610346575f5ffd5b5061034f61136d565b60405161035c9190612a97565b60405180910390f35b348015610370575f5ffd5b50610379611385565b6040516103869190612a97565b60405180910390f35b34801561039a575f5ffd5b506103b560048036038101906103b09190612e01565b6113aa565b005b3480156103c2575f5ffd5b506103cb61142e565b6040516103d89190612a97565b60405180910390f35b3373ffffffffffffffffffffffffffffffffffffffff1660045f9054906101000a900473ffffffffffffffffffffffffffffffffffffffff1673ffffffffffffffffffffffffffffffffffffffff1614610470576040517f08c379a000000000000000000000000000000000000000000000000000000000815260040161046790612e76565b60405180910390fd5b5f810315610584576104b87355d398326f99059ff775485246999027b319795560035f9054906101000a900473ffffffffffffffffffffffffffffffffffffffff1683611453565b5f60035f9054906101000a900473ffffffffffffffffffffffffffffffffffffffff1673ffffffffffffffffffffffffffffffffffffffff166370a08231306040518263ffffffff1660e01b81526004016105139190612a97565b602060405180830381865afa15801561052e573d5f5f3e3d5ffd5b505050506040513d601f19601f820116820180604052508101906105529190612ea8565b905061058260035f9054906101000a900473ffffffffffffffffffffffffffffffffffffffff1661dead8361167b565b505b50565b61dead81565b3373ffffffffffffffffffffffffffffffffffffffff1660045f9054906101000a900473ffffffffffffffffffffffffffffffffffffffff1673ffffffffffffffffffffffffffffffffffffffff161461061c576040517f08c379a000000000000000000000000000000000000000000000000000000000815260040161061390612e76565b60405180910390fd5b5f60015f9054906101000a900473ffffffffffffffffffffffffffffffffffffffff1673ffffffffffffffffffffffffffffffffffffffff1663c45a01556040518163ffffffff1660e01b8152600401602060405180830381865afa158015610687573d5f5f3e3d5ffd5b505050506040513d601f19601f820116820180604052508101906106ab9190612ee7565b73ffffffffffffffffffffffffffffffffffffffff1663e6a439057355d398326f99059ff775485246999027b319795560025f9054906101000a900473ffffffffffffffffffffffffffffffffffffffff166040518363ffffffff1660e01b815260040161071a929190612f12565b602060405180830381865afa158015610735573d5f5f3e3d5ffd5b505050506040513d601f19601f820116820180604052508101906107599190612ee7565b90505f8173ffffffffffffffffffffffffffffffffffffffff166370a08231306040518263ffffffff1660e01b81526004016107959190612a97565b602060405180830381865afa1580156107b0573d5f5f3e3d5ffd5b505050506040513d601f19601f820116820180604052508101906107d49190612ea8565b90505f810361080f576040517fc301e07e00000000000000000000000000000000000000000000000000000000815260040160405180910390fd5b5f8190505f61081d826117ab565b670de0b6b3a7640000866108319190612f66565b61083b9190612fd4565b905082811115610877576040517f955a8bf500000000000000000000000000000000000000000000000000000000815260040160405180910390fd5b5f5f60015f9054906101000a900473ffffffffffffffffffffffffffffffffffffffff1673ffffffffffffffffffffffffffffffffffffffff1663baa2abde7355d398326f99059ff775485246999027b319795560025f9054906101000a900473ffffffffffffffffffffffffffffffffffffffff16865f5f30601e426108fe9190613004565b6040518863ffffffff1660e01b8152600401610920979695949392919061307f565b60408051808303815f875af115801561093b573d5f5f3e3d5ffd5b505050506040513d601f19601f8201168201806040525081019061095f91906130ec565b915091505f61096d82611c27565b90505f818461097c9190613004565b9050888110156109b8576040517fbb55fd2700000000000000000000000000000000000000000000000000000000815260040160405180910390fd5b5f674563918244f40000826109cd919061312a565b90506109ee7355d398326f99059ff775485246999027b31979558c8361167b565b6109ff674563918244f40000612005565b5050505050505050505050565b5f610a1561211c565b90505f815f0160089054906101000a900460ff161590505f825f015f9054906101000a900467ffffffffffffffff1690505f5f8267ffffffffffffffff16148015610a5d5750825b90505f60018367ffffffffffffffff16148015610a9057505f3073ffffffffffffffffffffffffffffffffffffffff163b145b905081158015610a9e575080155b15610ad5576040517ff92ee8a900000000000000000000000000000000000000000000000000000000815260040160405180910390fd5b6001855f015f6101000a81548167ffffffffffffffff021916908367ffffffffffffffff1602179055508315610b22576001855f0160086101000a81548160ff0219169083151502179055505b610b32610b2d61212f565b612136565b8660025f6101000a81548173ffffffffffffffffffffffffffffffffffffffff021916908373ffffffffffffffffffffffffffffffffffffffff1602179055508560035f6101000a81548173ffffffffffffffffffffffffffffffffffffffff021916908373ffffffffffffffffffffffffffffffffffffffff1602179055508315610c0c575f855f0160086101000a81548160ff0219169083151502179055507fc7f505b2f371ae2175ee4913f4499e1f2633a7b5936321eed1cdaeb6115181d26001604051610c0391906131a9565b60405180910390a15b50505050505050565b60045f9054906101000a900473ffffffffffffffffffffffffffffffffffffffff1681565b610c4261214a565b610c4b82612230565b610c55828261223b565b5050565b3373ffffffffffffffffffffffffffffffffffffffff1660045f9054906101000a900473ffffffffffffffffffffffffffffffffffffffff1673ffffffffffffffffffffffffffffffffffffffff1614610ce8576040517f08c379a0000000000000000000000000000000000000000000000000000000008152600401610cdf90612e76565b60405180910390fd5b5f600282610cf69190612fd4565b90505f60025f9054906101000a900473ffffffffffffffffffffffffffffffffffffffff1673ffffffffffffffffffffffffffffffffffffffff166370a08231306040518263ffffffff1660e01b8152600401610d539190612a97565b602060405180830381865afa158015610d6e573d5f5f3e3d5ffd5b505050506040513d601f19601f82011682018060405250810190610d929190612ea8565b9050610dd47355d398326f99059ff775485246999027b319795560025f9054906101000a900473ffffffffffffffffffffffffffffffffffffffff1684611453565b5f60025f9054906101000a900473ffffffffffffffffffffffffffffffffffffffff1673ffffffffffffffffffffffffffffffffffffffff166370a08231306040518263ffffffff1660e01b8152600401610e2f9190612a97565b602060405180830381865afa158015610e4a573d5f5f3e3d5ffd5b505050506040513d601f19601f82011682018060405250810190610e6e9190612ea8565b90505f8385610e7d919061312a565b90505f8383610e8c919061312a565b90507355d398326f99059ff775485246999027b319795573ffffffffffffffffffffffffffffffffffffffff1663095ea7b360015f9054906101000a900473ffffffffffffffffffffffffffffffffffffffff16846040518363ffffffff1660e01b8152600401610efe9291906131c2565b6020604051808303815f875af1158015610f1a573d5f5f3e3d5ffd5b505050506040513d601f19601f82011682018060405250810190610f3e919061321e565b5060025f9054906101000a900473ffffffffffffffffffffffffffffffffffffffff1673ffffffffffffffffffffffffffffffffffffffff1663095ea7b360015f9054906101000a900473ffffffffffffffffffffffffffffffffffffffff16836040518363ffffffff1660e01b8152600401610fbc9291906131c2565b6020604051808303815f875af1158015610fd8573d5f5f3e3d5ffd5b505050506040513d601f19601f82011682018060405250810190610ffc919061321e565b5060015f9054906101000a900473ffffffffffffffffffffffffffffffffffffffff1673ffffffffffffffffffffffffffffffffffffffff1663e8e337007355d398326f99059ff775485246999027b319795560025f9054906101000a900473ffffffffffffffffffffffffffffffffffffffff1685855f5f30601e426110839190613004565b6040518963ffffffff1660e01b81526004016110a6989796959493929190613249565b6060604051808303815f875af11580156110c2573d5f5f3e3d5ffd5b505050506040513d601f19601f820116820180604052508101906110e691906132c5565b505050505050505050565b5f6110fa612359565b7f360894a13ba1a3210667c828492db98dca3e2076cc3735a920a3ca505d382bbc5f1b905090565b61112a6123e0565b6111335f612467565b565b3373ffffffffffffffffffffffffffffffffffffffff1660045f9054906101000a900473ffffffffffffffffffffffffffffffffffffffff1673ffffffffffffffffffffffffffffffffffffffff16146111c4576040517f08c379a00000000000000000000000000000000000000000000000000000000081526004016111bb90612e76565b60405180910390fd5b5f8103156112d65761120c7355d398326f99059ff775485246999027b319795560035f9054906101000a900473ffffffffffffffffffffffffffffffffffffffff1683611453565b5f60035f9054906101000a900473ffffffffffffffffffffffffffffffffffffffff1673ffffffffffffffffffffffffffffffffffffffff166370a08231306040518263ffffffff1660e01b81526004016112679190612a97565b602060405180830381865afa158015611282573d5f5f3e3d5ffd5b505050506040513d601f19601f820116820180604052508101906112a69190612ea8565b90506112d460035f9054906101000a900473ffffffffffffffffffffffffffffffffffffffff16848361167b565b505b5050565b5f5f6112e4612538565b9050805f015f9054906101000a900473ffffffffffffffffffffffffffffffffffffffff1691505090565b6040518060400160405280600581526020017f352e302e3000000000000000000000000000000000000000000000000000000081525081565b60015f9054906101000a900473ffffffffffffffffffffffffffffffffffffffff1681565b7355d398326f99059ff775485246999027b319795581565b60035f9054906101000a900473ffffffffffffffffffffffffffffffffffffffff1681565b6113b26123e0565b5f73ffffffffffffffffffffffffffffffffffffffff168173ffffffffffffffffffffffffffffffffffffffff1603611422575f6040517f1e4fbdf70000000000000000000000000000000000000000000000000000000081526004016114199190612a97565b60405180910390fd5b61142b81612467565b50565b60025f9054906101000a900473ffffffffffffffffffffffffffffffffffffffff1681565b5f600267ffffffffffffffff81111561146f5761146e612b6e565b5b60405190808252806020026020018201604052801561149d5781602001602082028036833780820191505090505b50905083815f815181106114b4576114b3613315565b5b602002602001019073ffffffffffffffffffffffffffffffffffffffff16908173ffffffffffffffffffffffffffffffffffffffff1681525050828160018151811061150357611502613315565b5b602002602001019073ffffffffffffffffffffffffffffffffffffffff16908173ffffffffffffffffffffffffffffffffffffffff16815250508373ffffffffffffffffffffffffffffffffffffffff1663095ea7b360015f9054906101000a900473ffffffffffffffffffffffffffffffffffffffff16846040518363ffffffff1660e01b81526004016115999291906131c2565b6020604051808303815f875af11580156115b5573d5f5f3e3d5ffd5b505050506040513d601f19601f820116820180604052508101906115d9919061321e565b5060015f9054906101000a900473ffffffffffffffffffffffffffffffffffffffff1673ffffffffffffffffffffffffffffffffffffffff16635c11d795835f8430601e426116289190613004565b6040518663ffffffff1660e01b81526004016116489594939291906133f9565b5f604051808303815f87803b15801561165f575f5ffd5b505af1158015611671573d5f5f3e3d5ffd5b5050505050505050565b5f5f8473ffffffffffffffffffffffffffffffffffffffff1663a9059cbb85856040516024016116ac9291906131c2565b6040516020818303038152906040529060e01b6020820180517bffffffffffffffffffffffffffffffffffffffffffffffffffffffff83818316178352505050506040516116fa9190613495565b5f604051808303815f865af19150503d805f8114611733576040519150601f19603f3d011682016040523d82523d5f602084013e611738565b606091505b509150915081801561176557505f81511480611764575080806020019051810190611763919061321e565b5b5b6117a4576040517f08c379a000000000000000000000000000000000000000000000000000000000815260040161179b906134f5565b60405180910390fd5b5050505050565b5f5f60015f9054906101000a900473ffffffffffffffffffffffffffffffffffffffff1673ffffffffffffffffffffffffffffffffffffffff1663c45a01556040518163ffffffff1660e01b8152600401602060405180830381865afa158015611817573d5f5f3e3d5ffd5b505050506040513d601f19601f8201168201806040525081019061183b9190612ee7565b73ffffffffffffffffffffffffffffffffffffffff1663e6a439057355d398326f99059ff775485246999027b319795560025f9054906101000a900473ffffffffffffffffffffffffffffffffffffffff166040518363ffffffff1660e01b81526004016118aa929190612f12565b602060405180830381865afa1580156118c5573d5f5f3e3d5ffd5b505050506040513d601f19601f820116820180604052508101906118e99190612ee7565b90505f73ffffffffffffffffffffffffffffffffffffffff168173ffffffffffffffffffffffffffffffffffffffff1603611950576040517fc03b13b600000000000000000000000000000000000000000000000000000000815260040160405180910390fd5b5f5f8273ffffffffffffffffffffffffffffffffffffffff16630902f1ac6040518163ffffffff1660e01b8152600401606060405180830381865afa15801561199b573d5f5f3e3d5ffd5b505050506040513d601f19601f820116820180604052508101906119bf919061358f565b50915091505f85670de0b6b3a7640000846119da91906135df565b6dffffffffffffffffffffffffffff166119f49190612fd4565b90505f86670de0b6b3a764000084611a0c91906135df565b6dffffffffffffffffffffffffffff16611a269190612fd4565b90505f600267ffffffffffffffff811115611a4457611a43612b6e565b5b604051908082528060200260200182016040528015611a725781602001602082028036833780820191505090505b50905060025f9054906101000a900473ffffffffffffffffffffffffffffffffffffffff16815f81518110611aaa57611aa9613315565b5b602002602001019073ffffffffffffffffffffffffffffffffffffffff16908173ffffffffffffffffffffffffffffffffffffffff16815250507355d398326f99059ff775485246999027b319795581600181518110611b0d57611b0c613315565b5b602002602001019073ffffffffffffffffffffffffffffffffffffffff16908173ffffffffffffffffffffffffffffffffffffffff16815250505f60015f9054906101000a900473ffffffffffffffffffffffffffffffffffffffff1673ffffffffffffffffffffffffffffffffffffffff1663d06ca61f84846040518363ffffffff1660e01b8152600401611ba492919061361b565b5f60405180830381865afa158015611bbe573d5f5f3e3d5ffd5b505050506040513d5f823e3d601f19601f82011682018060405250810190611be6919061370d565b90505f81600181518110611bfd57611bfc613315565b5b602002602001015190505f8186611c149190613004565b9050809950505050505050505050919050565b5f5f600267ffffffffffffffff811115611c4457611c43612b6e565b5b604051908082528060200260200182016040528015611c725781602001602082028036833780820191505090505b50905060025f9054906101000a900473ffffffffffffffffffffffffffffffffffffffff16815f81518110611caa57611ca9613315565b5b602002602001019073ffffffffffffffffffffffffffffffffffffffff16908173ffffffffffffffffffffffffffffffffffffffff16815250507355d398326f99059ff775485246999027b319795581600181518110611d0d57611d0c613315565b5b602002602001019073ffffffffffffffffffffffffffffffffffffffff16908173ffffffffffffffffffffffffffffffffffffffff168152505060025f9054906101000a900473ffffffffffffffffffffffffffffffffffffffff1673ffffffffffffffffffffffffffffffffffffffff1663095ea7b360015f9054906101000a900473ffffffffffffffffffffffffffffffffffffffff16856040518363ffffffff1660e01b8152600401611dc49291906131c2565b6020604051808303815f875af1158015611de0573d5f5f3e3d5ffd5b505050506040513d601f19601f82011682018060405250810190611e04919061321e565b505f60015f9054906101000a900473ffffffffffffffffffffffffffffffffffffffff1673ffffffffffffffffffffffffffffffffffffffff1663d06ca61f85846040518363ffffffff1660e01b8152600401611e6292919061361b565b5f60405180830381865afa158015611e7c573d5f5f3e3d5ffd5b505050506040513d5f823e3d601f19601f82011682018060405250810190611ea4919061370d565b905060015f9054906101000a900473ffffffffffffffffffffffffffffffffffffffff1673ffffffffffffffffffffffffffffffffffffffff16635c11d795855f8530601e42611ef49190613004565b6040518663ffffffff1660e01b8152600401611f149594939291906133f9565b5f604051808303815f87803b158015611f2b575f5ffd5b505af1158015611f3d573d5f5f3e3d5ffd5b505050505f7355d398326f99059ff775485246999027b319795573ffffffffffffffffffffffffffffffffffffffff166370a08231306040518263ffffffff1660e01b8152600401611f8f9190612a97565b602060405180830381865afa158015611faa573d5f5f3e3d5ffd5b505050506040513d601f19601f82011682018060405250810190611fce9190612ea8565b90505f825f81518110611fe457611fe3613315565b5b602002602001015182611ff7919061312a565b905080945050505050919050565b5f8103156121195761204d7355d398326f99059ff775485246999027b319795560035f9054906101000a900473ffffffffffffffffffffffffffffffffffffffff1683611453565b5f60035f9054906101000a900473ffffffffffffffffffffffffffffffffffffffff1673ffffffffffffffffffffffffffffffffffffffff166370a08231306040518263ffffffff1660e01b81526004016120a89190612a97565b602060405180830381865afa1580156120c3573d5f5f3e3d5ffd5b505050506040513d601f19601f820116820180604052508101906120e79190612ea8565b905061211760035f9054906101000a900473ffffffffffffffffffffffffffffffffffffffff1661dead8361167b565b505b50565b5f5f61212661255f565b90508091505090565b5f33905090565b61213e612588565b612147816125c8565b50565b7f000000000000000000000000000000000000000000000000000000000000000073ffffffffffffffffffffffffffffffffffffffff163073ffffffffffffffffffffffffffffffffffffffff1614806121f757507f000000000000000000000000000000000000000000000000000000000000000073ffffffffffffffffffffffffffffffffffffffff166121de61264c565b73ffffffffffffffffffffffffffffffffffffffff1614155b1561222e576040517fe07c8dba00000000000000000000000000000000000000000000000000000000815260040160405180910390fd5b565b6122386123e0565b50565b8173ffffffffffffffffffffffffffffffffffffffff166352d1902d6040518163ffffffff1660e01b8152600401602060405180830381865afa9250505080156122a357506040513d601f19601f820116820180604052508101906122a0919061377e565b60015b6122e457816040517f4c9c8ce30000000000000000000000000000000000000000000000000000000081526004016122db9190612a97565b60405180910390fd5b7f360894a13ba1a3210667c828492db98dca3e2076cc3735a920a3ca505d382bbc5f1b811461234a57806040517faa1d49a40000000000000000000000000000000000000000000000000000000081526004016123419190612d04565b60405180910390fd5b612354838361269f565b505050565b7f000000000000000000000000000000000000000000000000000000000000000073ffffffffffffffffffffffffffffffffffffffff163073ffffffffffffffffffffffffffffffffffffffff16146123de576040517fe07c8dba00000000000000000000000000000000000000000000000000000000815260040160405180910390fd5b565b6123e861212f565b73ffffffffffffffffffffffffffffffffffffffff166124066112da565b73ffffffffffffffffffffffffffffffffffffffff16146124655761242961212f565b6040517f118cdaa700000000000000000000000000000000000000000000000000000000815260040161245c9190612a97565b60405180910390fd5b565b5f612470612538565b90505f815f015f9054906101000a900473ffffffffffffffffffffffffffffffffffffffff16905082825f015f6101000a81548173ffffffffffffffffffffffffffffffffffffffff021916908373ffffffffffffffffffffffffffffffffffffffff1602179055508273ffffffffffffffffffffffffffffffffffffffff168173ffffffffffffffffffffffffffffffffffffffff167f8be0079c531659141344cd1fd0a4f28419497f9722a3daafe3b4186f6b6457e060405160405180910390a3505050565b5f7f9016d09d72d40fdae2fd8ceac6b6234c7706214fd39c1cd1e609a0528c199300905090565b5f7ff0c57e16840df040f15088dc2f81fe391c3923bec73e23a9662efc9c229c6a005f1b905090565b612590612711565b6125c6576040517fd7e6bcf800000000000000000000000000000000000000000000000000000000815260040160405180910390fd5b565b6125d0612588565b5f73ffffffffffffffffffffffffffffffffffffffff168173ffffffffffffffffffffffffffffffffffffffff1603612640575f6040517f1e4fbdf70000000000000000000000000000000000000000000000000000000081526004016126379190612a97565b60405180910390fd5b61264981612467565b50565b5f6126787f360894a13ba1a3210667c828492db98dca3e2076cc3735a920a3ca505d382bbc5f1b61272f565b5f015f9054906101000a900473ffffffffffffffffffffffffffffffffffffffff16905090565b6126a882612738565b8173ffffffffffffffffffffffffffffffffffffffff167fbc7cd75a20ee27fd9adebab32041f755214dbc6bffa90cc0225b39da2e5c2d3b60405160405180910390a25f81511115612704576126fe8282612801565b5061270d565b61270c6128f2565b5b5050565b5f61271a61211c565b5f0160089054906101000a900460ff16905090565b5f819050919050565b5f8173ffffffffffffffffffffffffffffffffffffffff163b0361279357806040517f4c9c8ce300000000000000000000000000000000000000000000000000000000815260040161278a9190612a97565b60405180910390fd5b806127bf7f360894a13ba1a3210667c828492db98dca3e2076cc3735a920a3ca505d382bbc5f1b61272f565b5f015f6101000a81548173ffffffffffffffffffffffffffffffffffffffff021916908373ffffffffffffffffffffffffffffffffffffffff16021790555050565b60605f61280e848461292e565b905080801561284457505f612821612942565b118061284357505f8473ffffffffffffffffffffffffffffffffffffffff163b115b5b1561285957612851612949565b9150506128ec565b801561289c57836040517f9996b3150000000000000000000000000000000000000000000000000000000081526004016128939190612a97565b60405180910390fd5b5f6128a5612942565b11156128b8576128b3612966565b6128ea565b6040517fd6bda27500000000000000000000000000000000000000000000000000000000815260040160405180910390fd5b505b92915050565b5f34111561292c576040517fb398979f00000000000000000000000000000000000000000000000000000000815260040160405180910390fd5b565b5f5f5f835160208501865af4905092915050565b5f3d905090565b606060405190503d81523d5f602083013e3d602001810160405290565b6040513d5f823e3d81fd5b5f82825260208201905092915050565b7f4e4f5f4449524543545f53454e440000000000000000000000000000000000005f82015250565b5f6129b5600e83612971565b91506129c082612981565b602082019050919050565b5f6020820190508181035f8301526129e2816129a9565b9050919050565b5f604051905090565b5f5ffd5b5f5ffd5b5f819050919050565b612a0c816129fa565b8114612a16575f5ffd5b50565b5f81359050612a2781612a03565b92915050565b5f60208284031215612a4257612a416129f2565b5b5f612a4f84828501612a19565b91505092915050565b5f73ffffffffffffffffffffffffffffffffffffffff82169050919050565b5f612a8182612a58565b9050919050565b612a9181612a77565b82525050565b5f602082019050612aaa5f830184612a88565b92915050565b612ab981612a77565b8114612ac3575f5ffd5b50565b5f81359050612ad481612ab0565b92915050565b5f5f60408385031215612af057612aef6129f2565b5b5f612afd85828601612ac6565b9250506020612b0e85828601612a19565b9150509250929050565b5f5f60408385031215612b2e57612b2d6129f2565b5b5f612b3b85828601612ac6565b9250506020612b4c85828601612ac6565b9150509250929050565b5f5ffd5b5f5ffd5b5f601f19601f8301169050919050565b7f4e487b71000000000000000000000000000000000000000000000000000000005f52604160045260245ffd5b612ba482612b5e565b810181811067ffffffffffffffff82111715612bc357612bc2612b6e565b5b80604052505050565b5f612bd56129e9565b9050612be18282612b9b565b919050565b5f67ffffffffffffffff821115612c0057612bff612b6e565b5b612c0982612b5e565b9050602081019050919050565b828183375f83830152505050565b5f612c36612c3184612be6565b612bcc565b905082815260208101848484011115612c5257612c51612b5a565b5b612c5d848285612c16565b509392505050565b5f82601f830112612c7957612c78612b56565b5b8135612c89848260208601612c24565b91505092915050565b5f5f60408385031215612ca857612ca76129f2565b5b5f612cb585828601612ac6565b925050602083013567ffffffffffffffff811115612cd657612cd56129f6565b5b612ce285828601612c65565b9150509250929050565b5f819050919050565b612cfe81612cec565b82525050565b5f602082019050612d175f830184612cf5565b92915050565b5f81519050919050565b8281835e5f83830152505050565b5f612d3f82612d1d565b612d498185612971565b9350612d59818560208601612d27565b612d6281612b5e565b840191505092915050565b5f6020820190508181035f830152612d858184612d35565b905092915050565b5f819050919050565b5f612db0612dab612da684612a58565b612d8d565b612a58565b9050919050565b5f612dc182612d96565b9050919050565b5f612dd282612db7565b9050919050565b612de281612dc8565b82525050565b5f602082019050612dfb5f830184612dd9565b92915050565b5f60208284031215612e1657612e156129f2565b5b5f612e2384828501612ac6565b91505092915050565b7f4e6f74207065726d69742e0000000000000000000000000000000000000000005f82015250565b5f612e60600b83612971565b9150612e6b82612e2c565b602082019050919050565b5f6020820190508181035f830152612e8d81612e54565b9050919050565b5f81519050612ea281612a03565b92915050565b5f60208284031215612ebd57612ebc6129f2565b5b5f612eca84828501612e94565b91505092915050565b5f81519050612ee181612ab0565b92915050565b5f60208284031215612efc57612efb6129f2565b5b5f612f0984828501612ed3565b91505092915050565b5f604082019050612f255f830185612a88565b612f326020830184612a88565b9392505050565b7f4e487b71000000000000000000000000000000000000000000000000000000005f52601160045260245ffd5b5f612f70826129fa565b9150612f7b836129fa565b9250828202612f89816129fa565b91508282048414831517612fa057612f9f612f39565b5b5092915050565b7f4e487b71000000000000000000000000000000000000000000000000000000005f52601260045260245ffd5b5f612fde826129fa565b9150612fe9836129fa565b925082612ff957612ff8612fa7565b5b828204905092915050565b5f61300e826129fa565b9150613019836129fa565b925082820190508082111561303157613030612f39565b5b92915050565b613040816129fa565b82525050565b5f819050919050565b5f61306961306461305f84613046565b612d8d565b6129fa565b9050919050565b6130798161304f565b82525050565b5f60e0820190506130925f83018a612a88565b61309f6020830189612a88565b6130ac6040830188613037565b6130b96060830187613070565b6130c66080830186613070565b6130d360a0830185612a88565b6130e060c0830184613037565b98975050505050505050565b5f5f60408385031215613102576131016129f2565b5b5f61310f85828601612e94565b925050602061312085828601612e94565b9150509250929050565b5f613134826129fa565b915061313f836129fa565b925082820390508181111561315757613156612f39565b5b92915050565b5f819050919050565b5f67ffffffffffffffff82169050919050565b5f61319361318e6131898461315d565b612d8d565b613166565b9050919050565b6131a381613179565b82525050565b5f6020820190506131bc5f83018461319a565b92915050565b5f6040820190506131d55f830185612a88565b6131e26020830184613037565b9392505050565b5f8115159050919050565b6131fd816131e9565b8114613207575f5ffd5b50565b5f81519050613218816131f4565b92915050565b5f60208284031215613233576132326129f2565b5b5f6132408482850161320a565b91505092915050565b5f6101008201905061325d5f83018b612a88565b61326a602083018a612a88565b6132776040830189613037565b6132846060830188613037565b6132916080830187613070565b61329e60a0830186613070565b6132ab60c0830185612a88565b6132b860e0830184613037565b9998505050505050505050565b5f5f5f606084860312156132dc576132db6129f2565b5b5f6132e986828701612e94565b93505060206132fa86828701612e94565b925050604061330b86828701612e94565b9150509250925092565b7f4e487b71000000000000000000000000000000000000000000000000000000005f52603260045260245ffd5b5f81519050919050565b5f82825260208201905092915050565b5f819050602082019050919050565b61337481612a77565b82525050565b5f613385838361336b565b60208301905092915050565b5f602082019050919050565b5f6133a782613342565b6133b1818561334c565b93506133bc8361335c565b805f5b838110156133ec5781516133d3888261337a565b97506133de83613391565b9250506001810190506133bf565b5085935050505092915050565b5f60a08201905061340c5f830188613037565b6134196020830187613070565b818103604083015261342b818661339d565b905061343a6060830185612a88565b6134476080830184613037565b9695505050505050565b5f81519050919050565b5f81905092915050565b5f61346f82613451565b613479818561345b565b9350613489818560208601612d27565b80840191505092915050565b5f6134a08284613465565b915081905092915050565b7f5472616e7366657248656c7065723a205452414e534645525f4641494c4544005f82015250565b5f6134df601f83612971565b91506134ea826134ab565b602082019050919050565b5f6020820190508181035f83015261350c816134d3565b9050919050565b5f6dffffffffffffffffffffffffffff82169050919050565b61353581613513565b811461353f575f5ffd5b50565b5f815190506135508161352c565b92915050565b5f63ffffffff82169050919050565b61356e81613556565b8114613578575f5ffd5b50565b5f8151905061358981613565565b92915050565b5f5f5f606084860312156135a6576135a56129f2565b5b5f6135b386828701613542565b93505060206135c486828701613542565b92505060406135d58682870161357b565b9150509250925092565b5f6135e982613513565b91506135f483613513565b925082820261360281613513565b915080821461361457613613612f39565b5b5092915050565b5f60408201905061362e5f830185613037565b8181036020830152613640818461339d565b90509392505050565b5f67ffffffffffffffff82111561366357613662612b6e565b5b602082029050602081019050919050565b5f5ffd5b5f61368a61368584613649565b612bcc565b905080838252602082019050602084028301858111156136ad576136ac613674565b5b835b818110156136d657806136c28882612e94565b8452602084019350506020810190506136af565b5050509392505050565b5f82601f8301126136f4576136f3612b56565b5b8151613704848260208601613678565b91505092915050565b5f60208284031215613722576137216129f2565b5b5f82015167ffffffffffffffff81111561373f5761373e6129f6565b5b61374b848285016136e0565b91505092915050565b61375d81612cec565b8114613767575f5ffd5b50565b5f8151905061377881613754565b92915050565b5f60208284031215613793576137926129f2565b5b5f6137a08482850161376a565b9150509291505056fea264697066735822122041b8cee82e8ca4da8ae11ba50528aa090cc57f4993c7f1c2198f10895c4bb60664736f6c634300081e0033","linkReferences":{}},"methodIdentifiers":{"DEAD()":"03fd2a45","UPGRADE_INTERFACE_VERSION()":"ad3cb1cc","USDT()":"c54e44eb","acquireSpecifiedUsdt(address,uint256)":"2d019c42","addLiquidity(uint256)":"51c6590a","initialize(address,address)":"485cc955","owner()":"8da5cb5b","pancakeRouter()":"c21ebd07","proxiableUUID()":"52d1902d","renounceOwnership()":"715018a6","staking()":"4cf088d9","subToken()":"e9ffa9f4","swapForSubTokenToBurn(uint256)":"03ec9fb0","swapForSubTokenToUser(address,uint256)":"79e32cd9","token()":"fc0c546a","transferOwnership(address)":"f2fde38b","upgradeToAndCall(address,bytes)":"4f1ef286"},"id":41}