{"abi":[{"type":"receive","stateMutability":"payable"},{"type":"function","name":"UPGRADE_INTERFACE_VERSION","inputs":[],"outputs":[{"name":"","type":"string","internalType":"string"}],"stateMutability":"view"},{"type":"function","name":"admin","inputs":[],"outputs":[{"name":"","type":"address","internalType":"address"}],"stateMutability":"view"},{"type":"function","name":"changeAdmin","inputs":[{"name":"_newAdmin","type":"address","internalType":"address"}],"outputs":[],"stateMutability":"nonpayable"},{"type":"function","name":"changeRecipient","inputs":[{"name":"_newRecipient","type":"address","internalType":"address"}],"outputs":[],"stateMutability":"nonpayable"},{"type":"function","name":"changeSender","inputs":[{"name":"_newSender","type":"address","internalType":"address"}],"outputs":[],"stateMutability":"nonpayable"},{"type":"function","name":"initialize","inputs":[{"name":"_admin","type":"address","internalType":"address"},{"name":"_recipient","type":"address","internalType":"address"},{"name":"_sender","type":"address","internalType":"address"},{"name":"_percent50","type":"address","internalType":"address"},{"name":"_percent40","type":"address","internalType":"address"},{"name":"_percent10","type":"address","internalType":"address"}],"outputs":[],"stateMutability":"nonpayable"},{"type":"function","name":"multiRecharge","inputs":[{"name":"mode","type":"uint8","internalType":"enum Recharge.Mode"},{"name":"token0","type":"address","internalType":"address"},{"name":"amount0","type":"uint256","internalType":"uint256"},{"name":"token1","type":"address","internalType":"address"},{"name":"amount1","type":"uint256","internalType":"uint256"},{"name":"remark","type":"string","internalType":"string"}],"outputs":[],"stateMutability":"payable"},{"type":"function","name":"owner","inputs":[],"outputs":[{"name":"","type":"address","internalType":"address"}],"stateMutability":"view"},{"type":"function","name":"percent10","inputs":[],"outputs":[{"name":"","type":"address","internalType":"address"}],"stateMutability":"view"},{"type":"function","name":"percent40","inputs":[],"outputs":[{"name":"","type":"address","internalType":"address"}],"stateMutability":"view"},{"type":"function","name":"percent50","inputs":[],"outputs":[{"name":"","type":"address","internalType":"address"}],"stateMutability":"view"},{"type":"function","name":"proxiableUUID","inputs":[],"outputs":[{"name":"","type":"bytes32","internalType":"bytes32"}],"stateMutability":"view"},{"type":"function","name":"recipient","inputs":[],"outputs":[{"name":"","type":"address","internalType":"address"}],"stateMutability":"view"},{"type":"function","name":"renounceOwnership","inputs":[],"outputs":[],"stateMutability":"nonpayable"},{"type":"function","name":"sender","inputs":[],"outputs":[{"name":"","type":"address","internalType":"address"}],"stateMutability":"view"},{"type":"function","name":"singleRecharge","inputs":[{"name":"mode","type":"uint8","internalType":"enum Recharge.Mode"},{"name":"token","type":"address","internalType":"address"},{"name":"amount","type":"uint256","internalType":"uint256"},{"name":"remark","type":"string","internalType":"string"}],"outputs":[],"stateMutability":"payable"},{"type":"function","name":"transferOwnership","inputs":[{"name":"newOwner","type":"address","internalType":"address"}],"outputs":[],"stateMutability":"nonpayable"},{"type":"function","name":"upgradeToAndCall","inputs":[{"name":"newImplementation","type":"address","internalType":"address"},{"name":"data","type":"bytes","internalType":"bytes"}],"outputs":[],"stateMutability":"payable"},{"type":"function","name":"withdraw","inputs":[{"name":"remark","type":"string","internalType":"string"},{"name":"token","type":"address","internalType":"address"},{"name":"amount","type":"uint256","internalType":"uint256"},{"name":"to","type":"address","internalType":"address"}],"outputs":[],"stateMutability":"nonpayable"},{"type":"event","name":"AdminshipTransferred","inputs":[{"name":"previousAdmin","type":"address","indexed":true,"internalType":"address"},{"name":"newAdmin","type":"address","indexed":true,"internalType":"address"}],"anonymous":false},{"type":"event","name":"Initialized","inputs":[{"name":"version","type":"uint64","indexed":false,"internalType":"uint64"}],"anonymous":false},{"type":"event","name":"MultiRecharge","inputs":[{"name":"user","type":"address","indexed":false,"internalType":"address"},{"name":"token0","type":"address","indexed":false,"internalType":"address"},{"name":"amount0","type":"uint256","indexed":false,"internalType":"uint256"},{"name":"token1","type":"address","indexed":false,"internalType":"address"},{"name":"amount1","type":"uint256","indexed":false,"internalType":"uint256"},{"name":"remark","type":"string","indexed":false,"internalType":"string"}],"anonymous":false},{"type":"event","name":"OwnershipTransferred","inputs":[{"name":"previousOwner","type":"address","indexed":true,"internalType":"address"},{"name":"newOwner","type":"address","indexed":true,"internalType":"address"}],"anonymous":false},{"type":"event","name":"Upgraded","inputs":[{"name":"implementation","type":"address","indexed":true,"internalType":"address"}],"anonymous":false},{"type":"event","name":"Withdraw","inputs":[{"name":"remark","type":"string","indexed":false,"internalType":"string"},{"name":"token","type":"address","indexed":false,"internalType":"address"},{"name":"to","type":"address","indexed":false,"internalType":"address"},{"name":"amount","type":"uint256","indexed":false,"internalType":"uint256"}],"anonymous":false},{"type":"error","name":"AddressEmptyCode","inputs":[{"name":"target","type":"address","internalType":"address"}]},{"type":"error","name":"ERC1967InvalidImplementation","inputs":[{"name":"implementation","type":"address","internalType":"address"}]},{"type":"error","name":"ERC1967NonPayable","inputs":[]},{"type":"error","name":"FailedCall","inputs":[]},{"type":"error","name":"InvalidInitialization","inputs":[]},{"type":"error","name":"NotInitializing","inputs":[]},{"type":"error","name":"OwnableInvalidOwner","inputs":[{"name":"owner","type":"address","internalType":"address"}]},{"type":"error","name":"OwnableUnauthorizedAccount","inputs":[{"name":"account","type":"address","internalType":"address"}]},{"type":"error","name":"ReentrancyGuardReentrantCall","inputs":[]},{"type":"error","name":"UUPSUnauthorizedCallContext","inputs":[]},{"type":"error","name":"UUPSUnsupportedProxiableUUID","inputs":[{"name":"slot","type":"bytes32","internalType":"bytes32"}]}],"bytecode":{"object":"0x60a06040523073ffffffffffffffffffffffffffffffffffffffff1660809073ffffffffffffffffffffffffffffffffffffffff1681525034801561004357600080fd5b50600160008190555060805161352b610075600039600081816112d40152818161132901526114e4015261352b6000f3fe6080604052600436106101185760003560e01c80638f283970116100a0578063cc2a9a5b11610064578063cc2a9a5b14610344578063ecdeb0381461036d578063f2fde38b14610398578063f51c5819146103c1578063f851a440146103dd5761011f565b80638f2839701461028257806392c2bcb4146102ab578063ad3cb1cc146102d4578063b280a7e7146102ff578063c58f7e63146103285761011f565b806366d003ac116100e757806366d003ac146101bf57806367e404ce146101ea578063715018a61461021557806382a63add1461022c5780638da5cb5b146102575761011f565b80631cb737ac146101245780634f1ef2861461014f57806352d1902d1461016b57806362a33811146101965761011f565b3661011f57005b600080fd5b34801561013057600080fd5b50610139610408565b604051610146919061246e565b60405180910390f35b6101696004803603810190610164919061260f565b61042e565b005b34801561017757600080fd5b5061018061044d565b60405161018d9190612684565b60405180910390f35b3480156101a257600080fd5b506101bd60048036038101906101b89190612776565b610480565b005b3480156101cb57600080fd5b506101d4610641565b6040516101e1919061246e565b60405180910390f35b3480156101f657600080fd5b506101ff610667565b60405161020c919061246e565b60405180910390f35b34801561022157600080fd5b5061022a61068d565b005b34801561023857600080fd5b506102416106a1565b60405161024e919061246e565b60405180910390f35b34801561026357600080fd5b5061026c6106c7565b604051610279919061246e565b60405180910390f35b34801561028e57600080fd5b506102a960048036038101906102a491906127f9565b6106ff565b005b3480156102b757600080fd5b506102d260048036038101906102cd91906127f9565b610836565b005b3480156102e057600080fd5b506102e9610979565b6040516102f691906128a5565b60405180910390f35b34801561030b57600080fd5b50610326600480360381019061032191906127f9565b6109b2565b005b610342600480360381019061033d919061294c565b610af5565b005b34801561035057600080fd5b5061036b600480360381019061036691906129fb565b610d28565b005b34801561037957600080fd5b50610382611049565b60405161038f919061246e565b60405180910390f35b3480156103a457600080fd5b506103bf60048036038101906103ba91906127f9565b61106f565b005b6103db60048036038101906103d69190612a88565b6110f5565b005b3480156103e957600080fd5b506103f26112ac565b6040516103ff919061246e565b60405180910390f35b600660009054906101000a900473ffffffffffffffffffffffffffffffffffffffff1681565b6104366112d2565b61043f826113b8565b61044982826113c3565b5050565b60006104576114e2565b7f360894a13ba1a3210667c828492db98dca3e2076cc3735a920a3ca505d382bbc60001b905090565b600160009054906101000a900473ffffffffffffffffffffffffffffffffffffffff1673ffffffffffffffffffffffffffffffffffffffff163373ffffffffffffffffffffffffffffffffffffffff1614610510576040517f08c379a000000000000000000000000000000000000000000000000000000000815260040161050790612b5c565b60405180910390fd5b60008211801561054d5750600073ffffffffffffffffffffffffffffffffffffffff168173ffffffffffffffffffffffffffffffffffffffff1614155b61058c576040517f08c379a000000000000000000000000000000000000000000000000000000000815260040161058390612bc8565b60405180910390fd5b600073ffffffffffffffffffffffffffffffffffffffff168373ffffffffffffffffffffffffffffffffffffffff16146105f3576105ee83600360009054906101000a900473ffffffffffffffffffffffffffffffffffffffff168385611569565b6105fe565b6105fd81836116a2565b5b7f99310eed5bb161586b62449f89ccaa4580f85f953cd64218092edfc2b1f5fce7848483856040516106339493929190612bf7565b60405180910390a150505050565b600260009054906101000a900473ffffffffffffffffffffffffffffffffffffffff1681565b600360009054906101000a900473ffffffffffffffffffffffffffffffffffffffff1681565b6106956117a2565b61069f6000611829565b565b600560009054906101000a900473ffffffffffffffffffffffffffffffffffffffff1681565b6000806106d2611900565b90508060000160009054906101000a900473ffffffffffffffffffffffffffffffffffffffff1691505090565b6107076117a2565b600073ffffffffffffffffffffffffffffffffffffffff168173ffffffffffffffffffffffffffffffffffffffff1603610776576040517f08c379a000000000000000000000000000000000000000000000000000000000815260040161076d90612c8f565b60405180910390fd5b8073ffffffffffffffffffffffffffffffffffffffff16600160009054906101000a900473ffffffffffffffffffffffffffffffffffffffff1673ffffffffffffffffffffffffffffffffffffffff167f2931ebb3d190545dcf6801c37aa686b74f2e1000e753d0fac6e471a2aa5a621360405160405180910390a380600160006101000a81548173ffffffffffffffffffffffffffffffffffffffff021916908373ffffffffffffffffffffffffffffffffffffffff16021790555050565b600160009054906101000a900473ffffffffffffffffffffffffffffffffffffffff1673ffffffffffffffffffffffffffffffffffffffff163373ffffffffffffffffffffffffffffffffffffffff16146108c6576040517f08c379a00000000000000000000000000000000000000000000000000000000081526004016108bd90612b5c565b60405180910390fd5b600073ffffffffffffffffffffffffffffffffffffffff168173ffffffffffffffffffffffffffffffffffffffff1603610935576040517f08c379a000000000000000000000000000000000000000000000000000000000815260040161092c90612c8f565b60405180910390fd5b80600260006101000a81548173ffffffffffffffffffffffffffffffffffffffff021916908373ffffffffffffffffffffffffffffffffffffffff16021790555050565b6040518060400160405280600581526020017f352e302e3000000000000000000000000000000000000000000000000000000081525081565b600160009054906101000a900473ffffffffffffffffffffffffffffffffffffffff1673ffffffffffffffffffffffffffffffffffffffff163373ffffffffffffffffffffffffffffffffffffffff1614610a42576040517f08c379a0000000000000000000000000000000000000000000000000000000008152600401610a3990612b5c565b60405180910390fd5b600073ffffffffffffffffffffffffffffffffffffffff168173ffffffffffffffffffffffffffffffffffffffff1603610ab1576040517f08c379a0000000000000000000000000000000000000000000000000000000008152600401610aa890612c8f565b60405180910390fd5b80600360006101000a81548173ffffffffffffffffffffffffffffffffffffffff021916908373ffffffffffffffffffffffffffffffffffffffff16021790555050565b610afd611928565b6000851180610b0c5750600083115b610b4b576040517f08c379a0000000000000000000000000000000000000000000000000000000008152600401610b4290612cfb565b60405180910390fd5b6000600267ffffffffffffffff811115610b6857610b676124e4565b5b604051908082528060200260200182016040528015610b965781602001602082028036833780820191505090505b5090506000600267ffffffffffffffff811115610bb657610bb56124e4565b5b604051908082528060200260200182016040528015610be45781602001602082028036833780820191505090505b5090508782600081518110610bfc57610bfb612d1b565b5b602002602001019073ffffffffffffffffffffffffffffffffffffffff16908173ffffffffffffffffffffffffffffffffffffffff16815250508681600081518110610c4b57610c4a612d1b565b5b6020026020010181815250508582600181518110610c6c57610c6b612d1b565b5b602002602001019073ffffffffffffffffffffffffffffffffffffffff16908173ffffffffffffffffffffffffffffffffffffffff16815250508481600181518110610cbb57610cba612d1b565b5b602002602001018181525050610cd289838361196e565b7f92bfe9b63523d7c8baff8387323dd4c1c8ccd48705d9c91e19160ebcabb053b833898989898989604051610d0d9796959493929190612d77565b60405180910390a15050610d1f611fc7565b50505050505050565b6000610d32611fd1565b905060008160000160089054906101000a900460ff1615905060008260000160009054906101000a900467ffffffffffffffff1690506000808267ffffffffffffffff16148015610d805750825b9050600060018367ffffffffffffffff16148015610db5575060003073ffffffffffffffffffffffffffffffffffffffff163b145b905081158015610dc3575080155b15610dfa576040517ff92ee8a900000000000000000000000000000000000000000000000000000000815260040160405180910390fd5b60018560000160006101000a81548167ffffffffffffffff021916908367ffffffffffffffff1602179055508315610e4a5760018560000160086101000a81548160ff0219169083151502179055505b610e5a610e55611fe5565b611fed565b8a600160006101000a81548173ffffffffffffffffffffffffffffffffffffffff021916908373ffffffffffffffffffffffffffffffffffffffff16021790555089600260006101000a81548173ffffffffffffffffffffffffffffffffffffffff021916908373ffffffffffffffffffffffffffffffffffffffff16021790555088600360006101000a81548173ffffffffffffffffffffffffffffffffffffffff021916908373ffffffffffffffffffffffffffffffffffffffff16021790555087600460006101000a81548173ffffffffffffffffffffffffffffffffffffffff021916908373ffffffffffffffffffffffffffffffffffffffff16021790555086600560006101000a81548173ffffffffffffffffffffffffffffffffffffffff021916908373ffffffffffffffffffffffffffffffffffffffff16021790555085600660006101000a81548173ffffffffffffffffffffffffffffffffffffffff021916908373ffffffffffffffffffffffffffffffffffffffff160217905550831561103c5760008560000160086101000a81548160ff0219169083151502179055507fc7f505b2f371ae2175ee4913f4499e1f2633a7b5936321eed1cdaeb6115181d260016040516110339190612e3a565b60405180910390a15b5050505050505050505050565b600460009054906101000a900473ffffffffffffffffffffffffffffffffffffffff1681565b6110776117a2565b600073ffffffffffffffffffffffffffffffffffffffff168173ffffffffffffffffffffffffffffffffffffffff16036110e95760006040517f1e4fbdf70000000000000000000000000000000000000000000000000000000081526004016110e0919061246e565b60405180910390fd5b6110f281611829565b50565b6110fd611928565b60008311611140576040517f08c379a000000000000000000000000000000000000000000000000000000000815260040161113790612cfb565b60405180910390fd5b6000600167ffffffffffffffff81111561115d5761115c6124e4565b5b60405190808252806020026020018201604052801561118b5781602001602082028036833780820191505090505b5090506000600167ffffffffffffffff8111156111ab576111aa6124e4565b5b6040519080825280602002602001820160405280156111d95781602001602082028036833780820191505090505b50905085826000815181106111f1576111f0612d1b565b5b602002602001019073ffffffffffffffffffffffffffffffffffffffff16908173ffffffffffffffffffffffffffffffffffffffff168152505084816000815181106112405761123f612d1b565b5b60200260200101818152505061125787838361196e565b7f92bfe9b63523d7c8baff8387323dd4c1c8ccd48705d9c91e19160ebcabb053b833878760008089896040516112939796959493929190612e90565b60405180910390a150506112a5611fc7565b5050505050565b600160009054906101000a900473ffffffffffffffffffffffffffffffffffffffff1681565b7f000000000000000000000000000000000000000000000000000000000000000073ffffffffffffffffffffffffffffffffffffffff163073ffffffffffffffffffffffffffffffffffffffff16148061137f57507f000000000000000000000000000000000000000000000000000000000000000073ffffffffffffffffffffffffffffffffffffffff16611366612001565b73ffffffffffffffffffffffffffffffffffffffff1614155b156113b6576040517fe07c8dba00000000000000000000000000000000000000000000000000000000815260040160405180910390fd5b565b6113c06117a2565b50565b8173ffffffffffffffffffffffffffffffffffffffff166352d1902d6040518163ffffffff1660e01b8152600401602060405180830381865afa92505050801561142b57506040513d601f19601f820116820180604052508101906114289190612f26565b60015b61146c57816040517f4c9c8ce3000000000000000000000000000000000000000000000000000000008152600401611463919061246e565b60405180910390fd5b7f360894a13ba1a3210667c828492db98dca3e2076cc3735a920a3ca505d382bbc60001b81146114d357806040517faa1d49a40000000000000000000000000000000000000000000000000000000081526004016114ca9190612684565b60405180910390fd5b6114dd8383612058565b505050565b7f000000000000000000000000000000000000000000000000000000000000000073ffffffffffffffffffffffffffffffffffffffff163073ffffffffffffffffffffffffffffffffffffffff1614611567576040517fe07c8dba00000000000000000000000000000000000000000000000000000000815260040160405180910390fd5b565b6000808573ffffffffffffffffffffffffffffffffffffffff166323b872dd86868660405160240161159d93929190612f53565b6040516020818303038152906040529060e01b6020820180517bffffffffffffffffffffffffffffffffffffffffffffffffffffffff83818316178352505050506040516115eb9190612fd1565b6000604051808303816000865af19150503d8060008114611628576040519150601f19603f3d011682016040523d82523d6000602084013e61162d565b606091505b509150915081801561165b575060008151148061165a5750808060200190518101906116599190613020565b5b5b61169a576040517f08c379a0000000000000000000000000000000000000000000000000000000008152600401611691906130bf565b60405180910390fd5b505050505050565b60008273ffffffffffffffffffffffffffffffffffffffff1682600067ffffffffffffffff8111156116d7576116d66124e4565b5b6040519080825280601f01601f1916602001820160405280156117095781602001600182028036833780820191505090505b506040516117179190612fd1565b60006040518083038185875af1925050503d8060008114611754576040519150601f19603f3d011682016040523d82523d6000602084013e611759565b606091505b505090508061179d576040517f08c379a000000000000000000000000000000000000000000000000000000000815260040161179490613151565b60405180910390fd5b505050565b6117aa611fe5565b73ffffffffffffffffffffffffffffffffffffffff166117c86106c7565b73ffffffffffffffffffffffffffffffffffffffff1614611827576117eb611fe5565b6040517f118cdaa700000000000000000000000000000000000000000000000000000000815260040161181e919061246e565b60405180910390fd5b565b6000611833611900565b905060008160000160009054906101000a900473ffffffffffffffffffffffffffffffffffffffff169050828260000160006101000a81548173ffffffffffffffffffffffffffffffffffffffff021916908373ffffffffffffffffffffffffffffffffffffffff1602179055508273ffffffffffffffffffffffffffffffffffffffff168173ffffffffffffffffffffffffffffffffffffffff167f8be0079c531659141344cd1fd0a4f28419497f9722a3daafe3b4186f6b6457e060405160405180910390a3505050565b60007f9016d09d72d40fdae2fd8ceac6b6234c7706214fd39c1cd1e609a0528c199300905090565b600260005403611964576040517f3ee5aeb500000000000000000000000000000000000000000000000000000000815260040160405180910390fd5b6002600081905550565b80518251146119b2576040517f08c379a00000000000000000000000000000000000000000000000000000000081526004016119a9906131bd565b60405180910390fd5b600060028111156119c6576119c56131dd565b5b8360028111156119d9576119d86131dd565b5b03611a19576040517f08c379a0000000000000000000000000000000000000000000000000000000008152600401611a1090613258565b60405180910390fd5b600280811115611a2c57611a2b6131dd565b5b836002811115611a3f57611a3e6131dd565b5b03611b8d57600073ffffffffffffffffffffffffffffffffffffffff16600460009054906101000a900473ffffffffffffffffffffffffffffffffffffffff1673ffffffffffffffffffffffffffffffffffffffff1614158015611af25750600073ffffffffffffffffffffffffffffffffffffffff16600560009054906101000a900473ffffffffffffffffffffffffffffffffffffffff1673ffffffffffffffffffffffffffffffffffffffff1614155b8015611b4d5750600073ffffffffffffffffffffffffffffffffffffffff16600660009054906101000a900473ffffffffffffffffffffffffffffffffffffffff1673ffffffffffffffffffffffffffffffffffffffff1614155b611b8c576040517f08c379a0000000000000000000000000000000000000000000000000000000008152600401611b83906132c4565b60405180910390fd5b5b60008060005b8451811015611da6576000858281518110611bb157611bb0612d1b565b5b602002602001015190506000858381518110611bd057611bcf612d1b565b5b6020026020010151905060008103611be9575050611d99565b600073ffffffffffffffffffffffffffffffffffffffff168273ffffffffffffffffffffffffffffffffffffffff1603611c36578085611c299190613313565b9450600193505050611d99565b60016002811115611c4a57611c496131dd565b5b886002811115611c5d57611c5c6131dd565b5b03611c9557611c908233600260009054906101000a900473ffffffffffffffffffffffffffffffffffffffff1684611569565b611d96565b60006064603283611ca69190613347565b611cb091906133b8565b905060006064602884611cc39190613347565b611ccd91906133b8565b90506000818385611cde91906133e9565b611ce891906133e9565b90506000831115611d2257611d218533600460009054906101000a900473ffffffffffffffffffffffffffffffffffffffff1686611569565b5b6000821115611d5a57611d598533600560009054906101000a900473ffffffffffffffffffffffffffffffffffffffff1685611569565b5b6000811115611d9257611d918533600660009054906101000a900473ffffffffffffffffffffffffffffffffffffffff1684611569565b5b5050505b50505b8080600101915050611b93565b508015611f7c5781341015611df0576040517f08c379a0000000000000000000000000000000000000000000000000000000008152600401611de790613469565b60405180910390fd5b60016002811115611e0457611e036131dd565b5b856002811115611e1757611e166131dd565b5b03611e57576000821115611e5257611e51600260009054906101000a900473ffffffffffffffffffffffffffffffffffffffff16836116a2565b5b611f52565b60006064603284611e689190613347565b611e7291906133b8565b905060006064602885611e859190613347565b611e8f91906133b8565b90506000818386611ea091906133e9565b611eaa91906133e9565b90506000831115611ee257611ee1600460009054906101000a900473ffffffffffffffffffffffffffffffffffffffff16846116a2565b5b6000821115611f1857611f17600560009054906101000a900473ffffffffffffffffffffffffffffffffffffffff16836116a2565b5b6000811115611f4e57611f4d600660009054906101000a900473ffffffffffffffffffffffffffffffffffffffff16826116a2565b5b5050505b60008234611f6091906133e9565b90506000811115611f7657611f7533826116a2565b5b50611fc0565b60003414611fbf576040517f08c379a0000000000000000000000000000000000000000000000000000000008152600401611fb6906134d5565b60405180910390fd5b5b5050505050565b6001600081905550565b600080611fdc6120cb565b90508091505090565b600033905090565b611ff56120f6565b611ffe81612136565b50565b600061202f7f360894a13ba1a3210667c828492db98dca3e2076cc3735a920a3ca505d382bbc60001b6121bc565b60000160009054906101000a900473ffffffffffffffffffffffffffffffffffffffff16905090565b612061826121c6565b8173ffffffffffffffffffffffffffffffffffffffff167fbc7cd75a20ee27fd9adebab32041f755214dbc6bffa90cc0225b39da2e5c2d3b60405160405180910390a26000815111156120be576120b88282612293565b506120c7565b6120c6612388565b5b5050565b60007ff0c57e16840df040f15088dc2f81fe391c3923bec73e23a9662efc9c229c6a0060001b905090565b6120fe6123c5565b612134576040517fd7e6bcf800000000000000000000000000000000000000000000000000000000815260040160405180910390fd5b565b61213e6120f6565b600073ffffffffffffffffffffffffffffffffffffffff168173ffffffffffffffffffffffffffffffffffffffff16036121b05760006040517f1e4fbdf70000000000000000000000000000000000000000000000000000000081526004016121a7919061246e565b60405180910390fd5b6121b981611829565b50565b6000819050919050565b60008173ffffffffffffffffffffffffffffffffffffffff163b0361222257806040517f4c9c8ce3000000000000000000000000000000000000000000000000000000008152600401612219919061246e565b60405180910390fd5b8061224f7f360894a13ba1a3210667c828492db98dca3e2076cc3735a920a3ca505d382bbc60001b6121bc565b60000160006101000a81548173ffffffffffffffffffffffffffffffffffffffff021916908373ffffffffffffffffffffffffffffffffffffffff16021790555050565b606060006122a184846123e5565b90508080156122d9575060006122b56123fb565b11806122d8575060008473ffffffffffffffffffffffffffffffffffffffff163b115b5b156122ee576122e6612403565b915050612382565b801561233157836040517f9996b315000000000000000000000000000000000000000000000000000000008152600401612328919061246e565b60405180910390fd5b600061233b6123fb565b111561234e57612349612421565b612380565b6040517fd6bda27500000000000000000000000000000000000000000000000000000000815260040160405180910390fd5b505b92915050565b60003411156123c3576040517fb398979f00000000000000000000000000000000000000000000000000000000815260040160405180910390fd5b565b60006123cf611fd1565b60000160089054906101000a900460ff16905090565b6000806000835160208501865af4905092915050565b60003d905090565b606060405190503d81523d6000602083013e3d602001810160405290565b6040513d6000823e3d81fd5b600073ffffffffffffffffffffffffffffffffffffffff82169050919050565b60006124588261242d565b9050919050565b6124688161244d565b82525050565b6000602082019050612483600083018461245f565b92915050565b6000604051905090565b600080fd5b600080fd5b6124a68161244d565b81146124b157600080fd5b50565b6000813590506124c38161249d565b92915050565b600080fd5b600080fd5b6000601f19601f8301169050919050565b7f4e487b7100000000000000000000000000000000000000000000000000000000600052604160045260246000fd5b61251c826124d3565b810181811067ffffffffffffffff8211171561253b5761253a6124e4565b5b80604052505050565b600061254e612489565b905061255a8282612513565b919050565b600067ffffffffffffffff82111561257a576125796124e4565b5b612583826124d3565b9050602081019050919050565b82818337600083830152505050565b60006125b26125ad8461255f565b612544565b9050828152602081018484840111156125ce576125cd6124ce565b5b6125d9848285612590565b509392505050565b600082601f8301126125f6576125f56124c9565b5b813561260684826020860161259f565b91505092915050565b6000806040838503121561262657612625612493565b5b6000612634858286016124b4565b925050602083013567ffffffffffffffff81111561265557612654612498565b5b612661858286016125e1565b9150509250929050565b6000819050919050565b61267e8161266b565b82525050565b60006020820190506126996000830184612675565b92915050565b600067ffffffffffffffff8211156126ba576126b96124e4565b5b6126c3826124d3565b9050602081019050919050565b60006126e36126de8461269f565b612544565b9050828152602081018484840111156126ff576126fe6124ce565b5b61270a848285612590565b509392505050565b600082601f830112612727576127266124c9565b5b81356127378482602086016126d0565b91505092915050565b6000819050919050565b61275381612740565b811461275e57600080fd5b50565b6000813590506127708161274a565b92915050565b600080600080608085870312156127905761278f612493565b5b600085013567ffffffffffffffff8111156127ae576127ad612498565b5b6127ba87828801612712565b94505060206127cb878288016124b4565b93505060406127dc87828801612761565b92505060606127ed878288016124b4565b91505092959194509250565b60006020828403121561280f5761280e612493565b5b600061281d848285016124b4565b91505092915050565b600081519050919050565b600082825260208201905092915050565b60005b83811015612860578082015181840152602081019050612845565b60008484015250505050565b600061287782612826565b6128818185612831565b9350612891818560208601612842565b61289a816124d3565b840191505092915050565b600060208201905081810360008301526128bf818461286c565b905092915050565b600381106128d457600080fd5b50565b6000813590506128e6816128c7565b92915050565b600080fd5b600080fd5b60008083601f84011261290c5761290b6124c9565b5b8235905067ffffffffffffffff811115612929576129286128ec565b5b602083019150836001820283011115612945576129446128f1565b5b9250929050565b600080600080600080600060c0888a03121561296b5761296a612493565b5b60006129798a828b016128d7565b975050602061298a8a828b016124b4565b965050604061299b8a828b01612761565b95505060606129ac8a828b016124b4565b94505060806129bd8a828b01612761565b93505060a088013567ffffffffffffffff8111156129de576129dd612498565b5b6129ea8a828b016128f6565b925092505092959891949750929550565b60008060008060008060c08789031215612a1857612a17612493565b5b6000612a2689828a016124b4565b9650506020612a3789828a016124b4565b9550506040612a4889828a016124b4565b9450506060612a5989828a016124b4565b9350506080612a6a89828a016124b4565b92505060a0612a7b89828a016124b4565b9150509295509295509295565b600080600080600060808688031215612aa457612aa3612493565b5b6000612ab2888289016128d7565b9550506020612ac3888289016124b4565b9450506040612ad488828901612761565b935050606086013567ffffffffffffffff811115612af557612af4612498565b5b612b01888289016128f6565b92509250509295509295909350565b7f4552524f525f41444d494e2e0000000000000000000000000000000000000000600082015250565b6000612b46600c83612831565b9150612b5182612b10565b602082019050919050565b60006020820190508181036000830152612b7581612b39565b9050919050565b7f4552524f525f414d4f554e545f414e445f544f2e000000000000000000000000600082015250565b6000612bb2601483612831565b9150612bbd82612b7c565b602082019050919050565b60006020820190508181036000830152612be181612ba5565b9050919050565b612bf181612740565b82525050565b60006080820190508181036000830152612c11818761286c565b9050612c20602083018661245f565b612c2d604083018561245f565b612c3a6060830184612be8565b95945050505050565b7f5a45524f5f414444524553532e00000000000000000000000000000000000000600082015250565b6000612c79600d83612831565b9150612c8482612c43565b602082019050919050565b60006020820190508181036000830152612ca881612c6c565b9050919050565b7f4552524f525f414d4f554e540000000000000000000000000000000000000000600082015250565b6000612ce5600c83612831565b9150612cf082612caf565b602082019050919050565b60006020820190508181036000830152612d1481612cd8565b9050919050565b7f4e487b7100000000000000000000000000000000000000000000000000000000600052603260045260246000fd5b6000612d568385612831565b9350612d63838584612590565b612d6c836124d3565b840190509392505050565b600060c082019050612d8c600083018a61245f565b612d99602083018961245f565b612da66040830188612be8565b612db3606083018761245f565b612dc06080830186612be8565b81810360a0830152612dd3818486612d4a565b905098975050505050505050565b6000819050919050565b600067ffffffffffffffff82169050919050565b6000819050919050565b6000612e24612e1f612e1a84612de1565b612dff565b612deb565b9050919050565b612e3481612e09565b82525050565b6000602082019050612e4f6000830184612e2b565b92915050565b6000819050919050565b6000612e7a612e75612e7084612e55565b612dff565b612740565b9050919050565b612e8a81612e5f565b82525050565b600060c082019050612ea5600083018a61245f565b612eb2602083018961245f565b612ebf6040830188612be8565b612ecc606083018761245f565b612ed96080830186612e81565b81810360a0830152612eec818486612d4a565b905098975050505050505050565b612f038161266b565b8114612f0e57600080fd5b50565b600081519050612f2081612efa565b92915050565b600060208284031215612f3c57612f3b612493565b5b6000612f4a84828501612f11565b91505092915050565b6000606082019050612f68600083018661245f565b612f75602083018561245f565b612f826040830184612be8565b949350505050565b600081519050919050565b600081905092915050565b6000612fab82612f8a565b612fb58185612f95565b9350612fc5818560208601612842565b80840191505092915050565b6000612fdd8284612fa0565b915081905092915050565b60008115159050919050565b612ffd81612fe8565b811461300857600080fd5b50565b60008151905061301a81612ff4565b92915050565b60006020828403121561303657613035612493565b5b60006130448482850161300b565b91505092915050565b7f5472616e7366657248656c7065723a205452414e534645525f46524f4d5f464160008201527f494c454400000000000000000000000000000000000000000000000000000000602082015250565b60006130a9602483612831565b91506130b48261304d565b604082019050919050565b600060208201905081810360008301526130d88161309c565b9050919050565b7f5472616e7366657248656c7065723a204554485f5452414e534645525f46414960008201527f4c45440000000000000000000000000000000000000000000000000000000000602082015250565b600061313b602383612831565b9150613146826130df565b604082019050919050565b6000602082019050818103600083015261316a8161312e565b9050919050565b7f4d49534d415443485f4c454e4754480000000000000000000000000000000000600082015250565b60006131a7600f83612831565b91506131b282613171565b602082019050919050565b600060208201905081810360008301526131d68161319a565b9050919050565b7f4e487b7100000000000000000000000000000000000000000000000000000000600052602160045260246000fd5b7f494e56414c49445f4d4f44450000000000000000000000000000000000000000600082015250565b6000613242600c83612831565b915061324d8261320c565b602082019050919050565b6000602082019050818103600083015261327181613235565b9050919050565b7f50455243454e545f414444525f4e4f545f534554000000000000000000000000600082015250565b60006132ae601483612831565b91506132b982613278565b602082019050919050565b600060208201905081810360008301526132dd816132a1565b9050919050565b7f4e487b7100000000000000000000000000000000000000000000000000000000600052601160045260246000fd5b600061331e82612740565b915061332983612740565b9250828201905080821115613341576133406132e4565b5b92915050565b600061335282612740565b915061335d83612740565b925082820261336b81612740565b91508282048414831517613382576133816132e4565b5b5092915050565b7f4e487b7100000000000000000000000000000000000000000000000000000000600052601260045260246000fd5b60006133c382612740565b91506133ce83612740565b9250826133de576133dd613389565b5b828204905092915050565b60006133f482612740565b91506133ff83612740565b9250828203905081811115613417576134166132e4565b5b92915050565b7f4552524f525f50415941424c455f414d4f554e54000000000000000000000000600082015250565b6000613453601483612831565b915061345e8261341d565b602082019050919050565b6000602082019050818103600083015261348281613446565b9050919050565b7f4e4f5f4554485f52455155495245440000000000000000000000000000000000600082015250565b60006134bf600f83612831565b91506134ca82613489565b602082019050919050565b600060208201905081810360008301526134ee816134b2565b905091905056fea26469706673582212203e13722431b1f643b2727c724df7f5fffb3dc77a69f26f016997d0f27e04334864736f6c63430008160033","linkReferences":{}},"methodIdentifiers":{"UPGRADE_INTERFACE_VERSION()":"ad3cb1cc","admin()":"f851a440","changeAdmin(address)":"8f283970","changeRecipient(address)":"92c2bcb4","changeSender(address)":"b280a7e7","initialize(address,address,address,address,address,address)":"cc2a9a5b","multiRecharge(uint8,address,uint256,address,uint256,string)":"c58f7e63","owner()":"8da5cb5b","percent10()":"1cb737ac","percent40()":"82a63add","percent50()":"ecdeb038","proxiableUUID()":"52d1902d","recipient()":"66d003ac","renounceOwnership()":"715018a6","sender()":"67e404ce","singleRecharge(uint8,address,uint256,string)":"f51c5819","transferOwnership(address)":"f2fde38b","upgradeToAndCall(address,bytes)":"4f1ef286","withdraw(string,address,uint256,address)":"62a33811"},"id":34}