{"abi":[{"type":"function","name":"UPGRADE_INTERFACE_VERSION","inputs":[],"outputs":[{"name":"","type":"string","internalType":"string"}],"stateMutability":"view"},{"type":"function","name":"cessToken","inputs":[],"outputs":[{"name":"","type":"address","internalType":"address"}],"stateMutability":"view"},{"type":"function","name":"cfunToken","inputs":[],"outputs":[{"name":"","type":"address","internalType":"address"}],"stateMutability":"view"},{"type":"function","name":"exchange","inputs":[{"name":"cessAmount","type":"uint256","internalType":"uint256"}],"outputs":[],"stateMutability":"nonpayable"},{"type":"function","name":"exchangeRate","inputs":[],"outputs":[{"name":"","type":"uint256","internalType":"uint256"}],"stateMutability":"view"},{"type":"function","name":"getBalance","inputs":[{"name":"token","type":"address","internalType":"address"},{"name":"user","type":"address","internalType":"address"}],"outputs":[{"name":"amount","type":"uint256","internalType":"uint256"}],"stateMutability":"view"},{"type":"function","name":"getExchangeResult","inputs":[{"name":"cessAmount","type":"uint256","internalType":"uint256"}],"outputs":[{"name":"cfunAmount","type":"uint256","internalType":"uint256"}],"stateMutability":"view"},{"type":"function","name":"initialize","inputs":[{"name":"_cessToken","type":"address","internalType":"address"},{"name":"_exchangeRate","type":"uint256","internalType":"uint256"}],"outputs":[],"stateMutability":"nonpayable"},{"type":"function","name":"owner","inputs":[],"outputs":[{"name":"","type":"address","internalType":"address"}],"stateMutability":"view"},{"type":"function","name":"proxiableUUID","inputs":[],"outputs":[{"name":"","type":"bytes32","internalType":"bytes32"}],"stateMutability":"view"},{"type":"function","name":"renounceOwnership","inputs":[],"outputs":[],"stateMutability":"nonpayable"},{"type":"function","name":"setCfunToken","inputs":[{"name":"_cfunToken","type":"address","internalType":"address"}],"outputs":[],"stateMutability":"nonpayable"},{"type":"function","name":"setExchangeRate","inputs":[{"name":"numerator","type":"uint256","internalType":"uint256"},{"name":"denominator","type":"uint256","internalType":"uint256"}],"outputs":[],"stateMutability":"nonpayable"},{"type":"function","name":"transferOwnership","inputs":[{"name":"newOwner","type":"address","internalType":"address"}],"outputs":[],"stateMutability":"nonpayable"},{"type":"function","name":"upgradeToAndCall","inputs":[{"name":"newImplementation","type":"address","internalType":"address"},{"name":"data","type":"bytes","internalType":"bytes"}],"outputs":[],"stateMutability":"payable"},{"type":"event","name":"ExchangeRateUpdated","inputs":[{"name":"numerator","type":"uint256","indexed":false,"internalType":"uint256"},{"name":"denominator","type":"uint256","indexed":false,"internalType":"uint256"},{"name":"rate","type":"uint256","indexed":false,"internalType":"uint256"}],"anonymous":false},{"type":"event","name":"Exchanged","inputs":[{"name":"user","type":"address","indexed":true,"internalType":"address"},{"name":"cessAmount","type":"uint256","indexed":false,"internalType":"uint256"},{"name":"cfunAmount","type":"uint256","indexed":false,"internalType":"uint256"}],"anonymous":false},{"type":"event","name":"Initialized","inputs":[{"name":"version","type":"uint64","indexed":false,"internalType":"uint64"}],"anonymous":false},{"type":"event","name":"OwnershipTransferred","inputs":[{"name":"previousOwner","type":"address","indexed":true,"internalType":"address"},{"name":"newOwner","type":"address","indexed":true,"internalType":"address"}],"anonymous":false},{"type":"event","name":"Upgraded","inputs":[{"name":"implementation","type":"address","indexed":true,"internalType":"address"}],"anonymous":false},{"type":"error","name":"AddressEmptyCode","inputs":[{"name":"target","type":"address","internalType":"address"}]},{"type":"error","name":"ERC1967InvalidImplementation","inputs":[{"name":"implementation","type":"address","internalType":"address"}]},{"type":"error","name":"ERC1967NonPayable","inputs":[]},{"type":"error","name":"FailedCall","inputs":[]},{"type":"error","name":"InvalidInitialization","inputs":[]},{"type":"error","name":"NotInitializing","inputs":[]},{"type":"error","name":"OwnableInvalidOwner","inputs":[{"name":"owner","type":"address","internalType":"address"}]},{"type":"error","name":"OwnableUnauthorizedAccount","inputs":[{"name":"account","type":"address","internalType":"address"}]},{"type":"error","name":"ReentrancyGuardReentrantCall","inputs":[]},{"type":"error","name":"UUPSUnauthorizedCallContext","inputs":[]},{"type":"error","name":"UUPSUnsupportedProxiableUUID","inputs":[{"name":"slot","type":"bytes32","internalType":"bytes32"}]}],"bytecode":{"object":"0x60a06040523073ffffffffffffffffffffffffffffffffffffffff1660809073ffffffffffffffffffffffffffffffffffffffff168152503480156041575f5ffd5b5060015f81905550608051611f8461006f5f395f8181610afa01528181610b4f0152610d090152611f845ff3fe6080604052600436106100e7575f3560e01c806364d4508a11610089578063cd6dc68711610058578063cd6dc687146102a5578063d4fac45d146102cd578063f2fde38b14610309578063f55ecf0614610331576100e7565b806364d4508a14610211578063715018a61461023b5780638da5cb5b14610251578063ad3cb1cc1461027b576100e7565b806351d7e36d116100c557806351d7e36d1461015957806352d1902d1461018357806353556559146101ad578063608c5cc2146101d5576100e7565b80633ba0b9a9146100eb5780634a875c36146101155780634f1ef2861461013d575b5f5ffd5b3480156100f6575f5ffd5b506100ff610359565b60405161010c91906115b4565b60405180910390f35b348015610120575f5ffd5b5061013b60048036038101906101369190611638565b61035f565b005b6101576004803603810190610152919061179f565b6103aa565b005b348015610164575f5ffd5b5061016d6103c9565b60405161017a9190611808565b60405180910390f35b34801561018e575f5ffd5b506101976103ee565b6040516101a49190611839565b60405180910390f35b3480156101b8575f5ffd5b506101d360048036038101906101ce919061187c565b61041f565b005b3480156101e0575f5ffd5b506101fb60048036038101906101f6919061187c565b61060a565b60405161020891906115b4565b60405180910390f35b34801561021c575f5ffd5b50610225610633565b6040516102329190611808565b60405180910390f35b348015610246575f5ffd5b5061024f610658565b005b34801561025c575f5ffd5b5061026561066b565b6040516102729190611808565b60405180910390f35b348015610286575f5ffd5b5061028f6106a0565b60405161029c9190611907565b60405180910390f35b3480156102b0575f5ffd5b506102cb60048036038101906102c69190611927565b6106d9565b005b3480156102d8575f5ffd5b506102f360048036038101906102ee9190611965565b6108b1565b60405161030091906115b4565b60405180910390f35b348015610314575f5ffd5b5061032f600480360381019061032a9190611638565b610932565b005b34801561033c575f5ffd5b50610357600480360381019061035291906119a3565b6109b6565b005b60035481565b610367610a71565b8060025f6101000a81548173ffffffffffffffffffffffffffffffffffffffff021916908373ffffffffffffffffffffffffffffffffffffffff16021790555050565b6103b2610af8565b6103bb82610bde565b6103c58282610be9565b5050565b60015f9054906101000a900473ffffffffffffffffffffffffffffffffffffffff1681565b5f6103f7610d07565b7f360894a13ba1a3210667c828492db98dca3e2076cc3735a920a3ca505d382bbc5f1b905090565b610427610d8e565b5f8111610469576040517f08c379a000000000000000000000000000000000000000000000000000000000815260040161046090611a2b565b60405180910390fd5b5f6104738261060a565b90506104a260015f9054906101000a900473ffffffffffffffffffffffffffffffffffffffff16333085610dd2565b5f60025f9054906101000a900473ffffffffffffffffffffffffffffffffffffffff1673ffffffffffffffffffffffffffffffffffffffff166370a08231306040518263ffffffff1660e01b81526004016104fd9190611808565b602060405180830381865afa158015610518573d5f5f3e3d5ffd5b505050506040513d601f19601f8201168201806040525081019061053c9190611a5d565b905081811015610581576040517f08c379a000000000000000000000000000000000000000000000000000000000815260040161057890611ad2565b60405180910390fd5b6105ad60025f9054906101000a900473ffffffffffffffffffffffffffffffffffffffff163384610f05565b3373ffffffffffffffffffffffffffffffffffffffff167f98e5a745dfe4f0a8952c2d09eeb25746ce9768004ab459c980d7ad1b5152cbd884846040516105f5929190611af0565b60405180910390a25050610607611035565b50565b5f670de0b6b3a7640000600354836106229190611b44565b61062c9190611bb2565b9050919050565b60025f9054906101000a900473ffffffffffffffffffffffffffffffffffffffff1681565b610660610a71565b6106695f61103e565b565b5f5f61067561110f565b9050805f015f9054906101000a900473ffffffffffffffffffffffffffffffffffffffff1691505090565b6040518060400160405280600581526020017f352e302e3000000000000000000000000000000000000000000000000000000081525081565b5f6106e2611136565b90505f815f0160089054906101000a900460ff161590505f825f015f9054906101000a900467ffffffffffffffff1690505f5f8267ffffffffffffffff1614801561072a5750825b90505f60018367ffffffffffffffff1614801561075d57505f3073ffffffffffffffffffffffffffffffffffffffff163b145b90508115801561076b575080155b156107a2576040517ff92ee8a900000000000000000000000000000000000000000000000000000000815260040160405180910390fd5b6001855f015f6101000a81548167ffffffffffffffff021916908367ffffffffffffffff16021790555083156107ef576001855f0160086101000a81548160ff0219169083151502179055505b6107ff6107fa611149565b611150565b610807611164565b8660015f6101000a81548173ffffffffffffffffffffffffffffffffffffffff021916908373ffffffffffffffffffffffffffffffffffffffff1602179055508560038190555083156108a8575f855f0160086101000a81548160ff0219169083151502179055507fc7f505b2f371ae2175ee4913f4499e1f2633a7b5936321eed1cdaeb6115181d2600160405161089f9190611c37565b60405180910390a15b50505050505050565b5f8273ffffffffffffffffffffffffffffffffffffffff166370a08231836040518263ffffffff1660e01b81526004016108eb9190611808565b602060405180830381865afa158015610906573d5f5f3e3d5ffd5b505050506040513d601f19601f8201168201806040525081019061092a9190611a5d565b905092915050565b61093a610a71565b5f73ffffffffffffffffffffffffffffffffffffffff168173ffffffffffffffffffffffffffffffffffffffff16036109aa575f6040517f1e4fbdf70000000000000000000000000000000000000000000000000000000081526004016109a19190611808565b60405180910390fd5b6109b38161103e565b50565b6109be610a71565b5f821180156109cc57505f81115b610a0b576040517f08c379a0000000000000000000000000000000000000000000000000000000008152600401610a0290611c9a565b60405180910390fd5b80670de0b6b3a764000083610a209190611b44565b610a2a9190611bb2565b6003819055507f4a84129ac58651279fc65719b27818bccdff5de9a6efebaab1616a6d2f90bf248282600354604051610a6593929190611cb8565b60405180910390a15050565b610a79611149565b73ffffffffffffffffffffffffffffffffffffffff16610a9761066b565b73ffffffffffffffffffffffffffffffffffffffff1614610af657610aba611149565b6040517f118cdaa7000000000000000000000000000000000000000000000000000000008152600401610aed9190611808565b60405180910390fd5b565b7f000000000000000000000000000000000000000000000000000000000000000073ffffffffffffffffffffffffffffffffffffffff163073ffffffffffffffffffffffffffffffffffffffff161480610ba557507f000000000000000000000000000000000000000000000000000000000000000073ffffffffffffffffffffffffffffffffffffffff16610b8c61116e565b73ffffffffffffffffffffffffffffffffffffffff1614155b15610bdc576040517fe07c8dba00000000000000000000000000000000000000000000000000000000815260040160405180910390fd5b565b610be6610a71565b50565b8173ffffffffffffffffffffffffffffffffffffffff166352d1902d6040518163ffffffff1660e01b8152600401602060405180830381865afa925050508015610c5157506040513d601f19601f82011682018060405250810190610c4e9190611d17565b60015b610c9257816040517f4c9c8ce3000000000000000000000000000000000000000000000000000000008152600401610c899190611808565b60405180910390fd5b7f360894a13ba1a3210667c828492db98dca3e2076cc3735a920a3ca505d382bbc5f1b8114610cf857806040517faa1d49a4000000000000000000000000000000000000000000000000000000008152600401610cef9190611839565b60405180910390fd5b610d0283836111c1565b505050565b7f000000000000000000000000000000000000000000000000000000000000000073ffffffffffffffffffffffffffffffffffffffff163073ffffffffffffffffffffffffffffffffffffffff1614610d8c576040517fe07c8dba00000000000000000000000000000000000000000000000000000000815260040160405180910390fd5b565b60025f5403610dc9576040517f3ee5aeb500000000000000000000000000000000000000000000000000000000815260040160405180910390fd5b60025f81905550565b5f5f8573ffffffffffffffffffffffffffffffffffffffff166323b872dd868686604051602401610e0593929190611d42565b6040516020818303038152906040529060e01b6020820180517bffffffffffffffffffffffffffffffffffffffffffffffffffffffff8381831617835250505050604051610e539190611dbb565b5f604051808303815f865af19150503d805f8114610e8c576040519150601f19603f3d011682016040523d82523d5f602084013e610e91565b606091505b5091509150818015610ebe57505f81511480610ebd575080806020019051810190610ebc9190611e06565b5b5b610efd576040517f08c379a0000000000000000000000000000000000000000000000000000000008152600401610ef490611ea1565b60405180910390fd5b505050505050565b5f5f8473ffffffffffffffffffffffffffffffffffffffff1663a9059cbb8585604051602401610f36929190611ebf565b6040516020818303038152906040529060e01b6020820180517bffffffffffffffffffffffffffffffffffffffffffffffffffffffff8381831617835250505050604051610f849190611dbb565b5f604051808303815f865af19150503d805f8114610fbd576040519150601f19603f3d011682016040523d82523d5f602084013e610fc2565b606091505b5091509150818015610fef57505f81511480610fee575080806020019051810190610fed9190611e06565b5b5b61102e576040517f08c379a000000000000000000000000000000000000000000000000000000000815260040161102590611f30565b60405180910390fd5b5050505050565b60015f81905550565b5f61104761110f565b90505f815f015f9054906101000a900473ffffffffffffffffffffffffffffffffffffffff16905082825f015f6101000a81548173ffffffffffffffffffffffffffffffffffffffff021916908373ffffffffffffffffffffffffffffffffffffffff1602179055508273ffffffffffffffffffffffffffffffffffffffff168173ffffffffffffffffffffffffffffffffffffffff167f8be0079c531659141344cd1fd0a4f28419497f9722a3daafe3b4186f6b6457e060405160405180910390a3505050565b5f7f9016d09d72d40fdae2fd8ceac6b6234c7706214fd39c1cd1e609a0528c199300905090565b5f5f611140611233565b90508091505090565b5f33905090565b61115861125c565b6111618161129c565b50565b61116c61125c565b565b5f61119a7f360894a13ba1a3210667c828492db98dca3e2076cc3735a920a3ca505d382bbc5f1b611320565b5f015f9054906101000a900473ffffffffffffffffffffffffffffffffffffffff16905090565b6111ca82611329565b8173ffffffffffffffffffffffffffffffffffffffff167fbc7cd75a20ee27fd9adebab32041f755214dbc6bffa90cc0225b39da2e5c2d3b60405160405180910390a25f815111156112265761122082826113f2565b5061122f565b61122e611472565b5b5050565b5f7ff0c57e16840df040f15088dc2f81fe391c3923bec73e23a9662efc9c229c6a005f1b905090565b6112646114ae565b61129a576040517fd7e6bcf800000000000000000000000000000000000000000000000000000000815260040160405180910390fd5b565b6112a461125c565b5f73ffffffffffffffffffffffffffffffffffffffff168173ffffffffffffffffffffffffffffffffffffffff1603611314575f6040517f1e4fbdf700000000000000000000000000000000000000000000000000000000815260040161130b9190611808565b60405180910390fd5b61131d8161103e565b50565b5f819050919050565b5f8173ffffffffffffffffffffffffffffffffffffffff163b0361138457806040517f4c9c8ce300000000000000000000000000000000000000000000000000000000815260040161137b9190611808565b60405180910390fd5b806113b07f360894a13ba1a3210667c828492db98dca3e2076cc3735a920a3ca505d382bbc5f1b611320565b5f015f6101000a81548173ffffffffffffffffffffffffffffffffffffffff021916908373ffffffffffffffffffffffffffffffffffffffff16021790555050565b60605f5f8473ffffffffffffffffffffffffffffffffffffffff168460405161141b9190611dbb565b5f60405180830381855af49150503d805f8114611453576040519150601f19603f3d011682016040523d82523d5f602084013e611458565b606091505b50915091506114688583836114cc565b9250505092915050565b5f3411156114ac576040517fb398979f00000000000000000000000000000000000000000000000000000000815260040160405180910390fd5b565b5f6114b7611136565b5f0160089054906101000a900460ff16905090565b6060826114e1576114dc82611559565b611551565b5f825114801561150757505f8473ffffffffffffffffffffffffffffffffffffffff163b145b1561154957836040517f9996b3150000000000000000000000000000000000000000000000000000000081526004016115409190611808565b60405180910390fd5b819050611552565b5b9392505050565b5f8151111561156a57805160208201fd5b6040517fd6bda27500000000000000000000000000000000000000000000000000000000815260040160405180910390fd5b5f819050919050565b6115ae8161159c565b82525050565b5f6020820190506115c75f8301846115a5565b92915050565b5f604051905090565b5f5ffd5b5f5ffd5b5f73ffffffffffffffffffffffffffffffffffffffff82169050919050565b5f611607826115de565b9050919050565b611617816115fd565b8114611621575f5ffd5b50565b5f813590506116328161160e565b92915050565b5f6020828403121561164d5761164c6115d6565b5b5f61165a84828501611624565b91505092915050565b5f5ffd5b5f5ffd5b5f601f19601f8301169050919050565b7f4e487b71000000000000000000000000000000000000000000000000000000005f52604160045260245ffd5b6116b18261166b565b810181811067ffffffffffffffff821117156116d0576116cf61167b565b5b80604052505050565b5f6116e26115cd565b90506116ee82826116a8565b919050565b5f67ffffffffffffffff82111561170d5761170c61167b565b5b6117168261166b565b9050602081019050919050565b828183375f83830152505050565b5f61174361173e846116f3565b6116d9565b90508281526020810184848401111561175f5761175e611667565b5b61176a848285611723565b509392505050565b5f82601f83011261178657611785611663565b5b8135611796848260208601611731565b91505092915050565b5f5f604083850312156117b5576117b46115d6565b5b5f6117c285828601611624565b925050602083013567ffffffffffffffff8111156117e3576117e26115da565b5b6117ef85828601611772565b9150509250929050565b611802816115fd565b82525050565b5f60208201905061181b5f8301846117f9565b92915050565b5f819050919050565b61183381611821565b82525050565b5f60208201905061184c5f83018461182a565b92915050565b61185b8161159c565b8114611865575f5ffd5b50565b5f8135905061187681611852565b92915050565b5f60208284031215611891576118906115d6565b5b5f61189e84828501611868565b91505092915050565b5f81519050919050565b5f82825260208201905092915050565b8281835e5f83830152505050565b5f6118d9826118a7565b6118e381856118b1565b93506118f38185602086016118c1565b6118fc8161166b565b840191505092915050565b5f6020820190508181035f83015261191f81846118cf565b905092915050565b5f5f6040838503121561193d5761193c6115d6565b5b5f61194a85828601611624565b925050602061195b85828601611868565b9150509250929050565b5f5f6040838503121561197b5761197a6115d6565b5b5f61198885828601611624565b925050602061199985828601611624565b9150509250929050565b5f5f604083850312156119b9576119b86115d6565b5b5f6119c685828601611868565b92505060206119d785828601611868565b9150509250929050565b7f616d6f756e743d300000000000000000000000000000000000000000000000005f82015250565b5f611a156008836118b1565b9150611a20826119e1565b602082019050919050565b5f6020820190508181035f830152611a4281611a09565b9050919050565b5f81519050611a5781611852565b92915050565b5f60208284031215611a7257611a716115d6565b5b5f611a7f84828501611a49565b91505092915050565b7f696e73756666696369656e74204346554e206c697175696469747900000000005f82015250565b5f611abc601b836118b1565b9150611ac782611a88565b602082019050919050565b5f6020820190508181035f830152611ae981611ab0565b9050919050565b5f604082019050611b035f8301856115a5565b611b1060208301846115a5565b9392505050565b7f4e487b71000000000000000000000000000000000000000000000000000000005f52601160045260245ffd5b5f611b4e8261159c565b9150611b598361159c565b9250828202611b678161159c565b91508282048414831517611b7e57611b7d611b17565b5b5092915050565b7f4e487b71000000000000000000000000000000000000000000000000000000005f52601260045260245ffd5b5f611bbc8261159c565b9150611bc78361159c565b925082611bd757611bd6611b85565b5b828204905092915050565b5f819050919050565b5f67ffffffffffffffff82169050919050565b5f819050919050565b5f611c21611c1c611c1784611be2565b611bfe565b611beb565b9050919050565b611c3181611c07565b82525050565b5f602082019050611c4a5f830184611c28565b92915050565b7f696e76616c696420726174696f000000000000000000000000000000000000005f82015250565b5f611c84600d836118b1565b9150611c8f82611c50565b602082019050919050565b5f6020820190508181035f830152611cb181611c78565b9050919050565b5f606082019050611ccb5f8301866115a5565b611cd860208301856115a5565b611ce560408301846115a5565b949350505050565b611cf681611821565b8114611d00575f5ffd5b50565b5f81519050611d1181611ced565b92915050565b5f60208284031215611d2c57611d2b6115d6565b5b5f611d3984828501611d03565b91505092915050565b5f606082019050611d555f8301866117f9565b611d6260208301856117f9565b611d6f60408301846115a5565b949350505050565b5f81519050919050565b5f81905092915050565b5f611d9582611d77565b611d9f8185611d81565b9350611daf8185602086016118c1565b80840191505092915050565b5f611dc68284611d8b565b915081905092915050565b5f8115159050919050565b611de581611dd1565b8114611def575f5ffd5b50565b5f81519050611e0081611ddc565b92915050565b5f60208284031215611e1b57611e1a6115d6565b5b5f611e2884828501611df2565b91505092915050565b7f5472616e7366657248656c7065723a205452414e534645525f46524f4d5f46415f8201527f494c454400000000000000000000000000000000000000000000000000000000602082015250565b5f611e8b6024836118b1565b9150611e9682611e31565b604082019050919050565b5f6020820190508181035f830152611eb881611e7f565b9050919050565b5f604082019050611ed25f8301856117f9565b611edf60208301846115a5565b9392505050565b7f5472616e7366657248656c7065723a205452414e534645525f4641494c4544005f82015250565b5f611f1a601f836118b1565b9150611f2582611ee6565b602082019050919050565b5f6020820190508181035f830152611f4781611f0e565b905091905056fea26469706673582212209dbfedecb71ff68f14a730babb5b17654126d69639b49a7bcf86a2b3b319e39864736f6c634300081e0033","linkReferences":{}},"methodIdentifiers":{"UPGRADE_INTERFACE_VERSION()":"ad3cb1cc","cessToken()":"51d7e36d","cfunToken()":"64d4508a","exchange(uint256)":"53556559","exchangeRate()":"3ba0b9a9","getBalance(address,address)":"d4fac45d","getExchangeResult(uint256)":"608c5cc2","initialize(address,uint256)":"cd6dc687","owner()":"8da5cb5b","proxiableUUID()":"52d1902d","renounceOwnership()":"715018a6","setCfunToken(address)":"4a875c36","setExchangeRate(uint256,uint256)":"f55ecf06","transferOwnership(address)":"f2fde38b","upgradeToAndCall(address,bytes)":"4f1ef286"},"id":41}