{"abi":[{"type":"receive","stateMutability":"payable"},{"type":"function","name":"UPGRADE_INTERFACE_VERSION","inputs":[],"outputs":[{"name":"","type":"string","internalType":"string"}],"stateMutability":"view"},{"type":"function","name":"initialize","inputs":[],"outputs":[],"stateMutability":"nonpayable"},{"type":"function","name":"owner","inputs":[],"outputs":[{"name":"","type":"address","internalType":"address"}],"stateMutability":"view"},{"type":"function","name":"proxiableUUID","inputs":[],"outputs":[{"name":"","type":"bytes32","internalType":"bytes32"}],"stateMutability":"view"},{"type":"function","name":"renounceOwnership","inputs":[],"outputs":[],"stateMutability":"nonpayable"},{"type":"function","name":"setStaking","inputs":[{"name":"_staking","type":"address","internalType":"address"}],"outputs":[],"stateMutability":"nonpayable"},{"type":"function","name":"staking","inputs":[],"outputs":[{"name":"","type":"address","internalType":"address"}],"stateMutability":"view"},{"type":"function","name":"transferOwnership","inputs":[{"name":"newOwner","type":"address","internalType":"address"}],"outputs":[],"stateMutability":"nonpayable"},{"type":"function","name":"updateFarm","inputs":[{"name":"amount","type":"uint256","internalType":"uint256"}],"outputs":[],"stateMutability":"nonpayable"},{"type":"function","name":"upgradeToAndCall","inputs":[{"name":"newImplementation","type":"address","internalType":"address"},{"name":"data","type":"bytes","internalType":"bytes"}],"outputs":[],"stateMutability":"payable"},{"type":"event","name":"Initialized","inputs":[{"name":"version","type":"uint64","indexed":false,"internalType":"uint64"}],"anonymous":false},{"type":"event","name":"OwnershipTransferred","inputs":[{"name":"previousOwner","type":"address","indexed":true,"internalType":"address"},{"name":"newOwner","type":"address","indexed":true,"internalType":"address"}],"anonymous":false},{"type":"event","name":"Upgraded","inputs":[{"name":"implementation","type":"address","indexed":true,"internalType":"address"}],"anonymous":false},{"type":"error","name":"AddressEmptyCode","inputs":[{"name":"target","type":"address","internalType":"address"}]},{"type":"error","name":"ERC1967InvalidImplementation","inputs":[{"name":"implementation","type":"address","internalType":"address"}]},{"type":"error","name":"ERC1967NonPayable","inputs":[]},{"type":"error","name":"FailedCall","inputs":[]},{"type":"error","name":"InvalidInitialization","inputs":[]},{"type":"error","name":"NotInitializing","inputs":[]},{"type":"error","name":"OwnableInvalidOwner","inputs":[{"name":"owner","type":"address","internalType":"address"}]},{"type":"error","name":"OwnableUnauthorizedAccount","inputs":[{"name":"account","type":"address","internalType":"address"}]},{"type":"error","name":"ReentrancyGuardReentrantCall","inputs":[]},{"type":"error","name":"UUPSUnauthorizedCallContext","inputs":[]},{"type":"error","name":"UUPSUnsupportedProxiableUUID","inputs":[{"name":"slot","type":"bytes32","internalType":"bytes32"}]}],"bytecode":{"object":"0x60a06040523073ffffffffffffffffffffffffffffffffffffffff1660809073ffffffffffffffffffffffffffffffffffffffff168152503480156041575f5ffd5b5060015f8190555060805161139f61006f5f395f818161062001528181610675015261082f015261139f5ff3fe608060405260043610610094575f3560e01c80638da5cb5b116100585780638da5cb5b146101745780638ff390991461019e578063ad3cb1cc146101c6578063cc430ced146101f0578063f2fde38b14610218576100d4565b80634cf088d9146100d85780634f1ef2861461010257806352d1902d1461011e578063715018a6146101485780638129fc1c1461015e576100d4565b366100d4576040517f08c379a00000000000000000000000000000000000000000000000000000000081526004016100cb90610ecd565b60405180910390fd5b5f5ffd5b3480156100e3575f5ffd5b506100ec610240565b6040516100f99190610f2a565b60405180910390f35b61011c600480360381019061011791906110ba565b610265565b005b348015610129575f5ffd5b50610132610284565b60405161013f919061112c565b60405180910390f35b348015610153575f5ffd5b5061015c6102b5565b005b348015610169575f5ffd5b506101726102c8565b005b34801561017f575f5ffd5b5061018861044f565b6040516101959190610f2a565b60405180910390f35b3480156101a9575f5ffd5b506101c460048036038101906101bf9190611145565b610484565b005b3480156101d1575f5ffd5b506101da6104cf565b6040516101e791906111c0565b60405180910390f35b3480156101fb575f5ffd5b5061021660048036038101906102119190611213565b610508565b005b348015610223575f5ffd5b5061023e60048036038101906102399190611145565b61059a565b005b60015f9054906101000a900473ffffffffffffffffffffffffffffffffffffffff1681565b61026d61061e565b61027682610704565b610280828261070f565b5050565b5f61028d61082d565b7f360894a13ba1a3210667c828492db98dca3e2076cc3735a920a3ca505d382bbc5f1b905090565b6102bd6108b4565b6102c65f61093b565b565b5f6102d1610a0c565b90505f815f0160089054906101000a900460ff161590505f825f015f9054906101000a900467ffffffffffffffff1690505f5f8267ffffffffffffffff161480156103195750825b90505f60018367ffffffffffffffff1614801561034c57505f3073ffffffffffffffffffffffffffffffffffffffff163b145b90508115801561035a575080155b15610391576040517ff92ee8a900000000000000000000000000000000000000000000000000000000815260040160405180910390fd5b6001855f015f6101000a81548167ffffffffffffffff021916908367ffffffffffffffff16021790555083156103de576001855f0160086101000a81548160ff0219169083151502179055505b6103ee6103e9610a1f565b610a26565b8315610448575f855f0160086101000a81548160ff0219169083151502179055507fc7f505b2f371ae2175ee4913f4499e1f2633a7b5936321eed1cdaeb6115181d2600160405161043f9190611293565b60405180910390a15b5050505050565b5f5f610459610a3a565b9050805f015f9054906101000a900473ffffffffffffffffffffffffffffffffffffffff1691505090565b61048c6108b4565b8060015f6101000a81548173ffffffffffffffffffffffffffffffffffffffff021916908373ffffffffffffffffffffffffffffffffffffffff16021790555050565b6040518060400160405280600581526020017f352e302e3000000000000000000000000000000000000000000000000000000081525081565b60015f9054906101000a900473ffffffffffffffffffffffffffffffffffffffff1673ffffffffffffffffffffffffffffffffffffffff163373ffffffffffffffffffffffffffffffffffffffff1614610597576040517f08c379a000000000000000000000000000000000000000000000000000000000815260040161058e906112f6565b60405180910390fd5b50565b6105a26108b4565b5f73ffffffffffffffffffffffffffffffffffffffff168173ffffffffffffffffffffffffffffffffffffffff1603610612575f6040517f1e4fbdf70000000000000000000000000000000000000000000000000000000081526004016106099190610f2a565b60405180910390fd5b61061b8161093b565b50565b7f000000000000000000000000000000000000000000000000000000000000000073ffffffffffffffffffffffffffffffffffffffff163073ffffffffffffffffffffffffffffffffffffffff1614806106cb57507f000000000000000000000000000000000000000000000000000000000000000073ffffffffffffffffffffffffffffffffffffffff166106b2610a61565b73ffffffffffffffffffffffffffffffffffffffff1614155b15610702576040517fe07c8dba00000000000000000000000000000000000000000000000000000000815260040160405180910390fd5b565b61070c6108b4565b50565b8173ffffffffffffffffffffffffffffffffffffffff166352d1902d6040518163ffffffff1660e01b8152600401602060405180830381865afa92505050801561077757506040513d601f19601f82011682018060405250810190610774919061133e565b60015b6107b857816040517f4c9c8ce30000000000000000000000000000000000000000000000000000000081526004016107af9190610f2a565b60405180910390fd5b7f360894a13ba1a3210667c828492db98dca3e2076cc3735a920a3ca505d382bbc5f1b811461081e57806040517faa1d49a4000000000000000000000000000000000000000000000000000000008152600401610815919061112c565b60405180910390fd5b6108288383610ab4565b505050565b7f000000000000000000000000000000000000000000000000000000000000000073ffffffffffffffffffffffffffffffffffffffff163073ffffffffffffffffffffffffffffffffffffffff16146108b2576040517fe07c8dba00000000000000000000000000000000000000000000000000000000815260040160405180910390fd5b565b6108bc610a1f565b73ffffffffffffffffffffffffffffffffffffffff166108da61044f565b73ffffffffffffffffffffffffffffffffffffffff1614610939576108fd610a1f565b6040517f118cdaa70000000000000000000000000000000000000000000000000000000081526004016109309190610f2a565b60405180910390fd5b565b5f610944610a3a565b90505f815f015f9054906101000a900473ffffffffffffffffffffffffffffffffffffffff16905082825f015f6101000a81548173ffffffffffffffffffffffffffffffffffffffff021916908373ffffffffffffffffffffffffffffffffffffffff1602179055508273ffffffffffffffffffffffffffffffffffffffff168173ffffffffffffffffffffffffffffffffffffffff167f8be0079c531659141344cd1fd0a4f28419497f9722a3daafe3b4186f6b6457e060405160405180910390a3505050565b5f5f610a16610b26565b90508091505090565b5f33905090565b610a2e610b4f565b610a3781610b8f565b50565b5f7f9016d09d72d40fdae2fd8ceac6b6234c7706214fd39c1cd1e609a0528c199300905090565b5f610a8d7f360894a13ba1a3210667c828492db98dca3e2076cc3735a920a3ca505d382bbc5f1b610c13565b5f015f9054906101000a900473ffffffffffffffffffffffffffffffffffffffff16905090565b610abd82610c1c565b8173ffffffffffffffffffffffffffffffffffffffff167fbc7cd75a20ee27fd9adebab32041f755214dbc6bffa90cc0225b39da2e5c2d3b60405160405180910390a25f81511115610b1957610b138282610ce5565b50610b22565b610b21610dd6565b5b5050565b5f7ff0c57e16840df040f15088dc2f81fe391c3923bec73e23a9662efc9c229c6a005f1b905090565b610b57610e12565b610b8d576040517fd7e6bcf800000000000000000000000000000000000000000000000000000000815260040160405180910390fd5b565b610b97610b4f565b5f73ffffffffffffffffffffffffffffffffffffffff168173ffffffffffffffffffffffffffffffffffffffff1603610c07575f6040517f1e4fbdf7000000000000000000000000000000000000000000000000000000008152600401610bfe9190610f2a565b60405180910390fd5b610c108161093b565b50565b5f819050919050565b5f8173ffffffffffffffffffffffffffffffffffffffff163b03610c7757806040517f4c9c8ce3000000000000000000000000000000000000000000000000000000008152600401610c6e9190610f2a565b60405180910390fd5b80610ca37f360894a13ba1a3210667c828492db98dca3e2076cc3735a920a3ca505d382bbc5f1b610c13565b5f015f6101000a81548173ffffffffffffffffffffffffffffffffffffffff021916908373ffffffffffffffffffffffffffffffffffffffff16021790555050565b60605f610cf28484610e30565b9050808015610d2857505f610d05610e44565b1180610d2757505f8473ffffffffffffffffffffffffffffffffffffffff163b115b5b15610d3d57610d35610e4b565b915050610dd0565b8015610d8057836040517f9996b315000000000000000000000000000000000000000000000000000000008152600401610d779190610f2a565b60405180910390fd5b5f610d89610e44565b1115610d9c57610d97610e68565b610dce565b6040517fd6bda27500000000000000000000000000000000000000000000000000000000815260040160405180910390fd5b505b92915050565b5f341115610e10576040517fb398979f00000000000000000000000000000000000000000000000000000000815260040160405180910390fd5b565b5f610e1b610a0c565b5f0160089054906101000a900460ff16905090565b5f5f5f835160208501865af4905092915050565b5f3d905090565b606060405190503d81523d5f602083013e3d602001810160405290565b6040513d5f823e3d81fd5b5f82825260208201905092915050565b7f4e4f5f4449524543545f53454e440000000000000000000000000000000000005f82015250565b5f610eb7600e83610e73565b9150610ec282610e83565b602082019050919050565b5f6020820190508181035f830152610ee481610eab565b9050919050565b5f73ffffffffffffffffffffffffffffffffffffffff82169050919050565b5f610f1482610eeb565b9050919050565b610f2481610f0a565b82525050565b5f602082019050610f3d5f830184610f1b565b92915050565b5f604051905090565b5f5ffd5b5f5ffd5b610f5d81610f0a565b8114610f67575f5ffd5b50565b5f81359050610f7881610f54565b92915050565b5f5ffd5b5f5ffd5b5f601f19601f8301169050919050565b7f4e487b71000000000000000000000000000000000000000000000000000000005f52604160045260245ffd5b610fcc82610f86565b810181811067ffffffffffffffff82111715610feb57610fea610f96565b5b80604052505050565b5f610ffd610f43565b90506110098282610fc3565b919050565b5f67ffffffffffffffff82111561102857611027610f96565b5b61103182610f86565b9050602081019050919050565b828183375f83830152505050565b5f61105e6110598461100e565b610ff4565b90508281526020810184848401111561107a57611079610f82565b5b61108584828561103e565b509392505050565b5f82601f8301126110a1576110a0610f7e565b5b81356110b184826020860161104c565b91505092915050565b5f5f604083850312156110d0576110cf610f4c565b5b5f6110dd85828601610f6a565b925050602083013567ffffffffffffffff8111156110fe576110fd610f50565b5b61110a8582860161108d565b9150509250929050565b5f819050919050565b61112681611114565b82525050565b5f60208201905061113f5f83018461111d565b92915050565b5f6020828403121561115a57611159610f4c565b5b5f61116784828501610f6a565b91505092915050565b5f81519050919050565b8281835e5f83830152505050565b5f61119282611170565b61119c8185610e73565b93506111ac81856020860161117a565b6111b581610f86565b840191505092915050565b5f6020820190508181035f8301526111d88184611188565b905092915050565b5f819050919050565b6111f2816111e0565b81146111fc575f5ffd5b50565b5f8135905061120d816111e9565b92915050565b5f6020828403121561122857611227610f4c565b5b5f611235848285016111ff565b91505092915050565b5f819050919050565b5f67ffffffffffffffff82169050919050565b5f819050919050565b5f61127d6112786112738461123e565b61125a565b611247565b9050919050565b61128d81611263565b82525050565b5f6020820190506112a65f830184611284565b92915050565b7f4e6f74207065726d69742e0000000000000000000000000000000000000000005f82015250565b5f6112e0600b83610e73565b91506112eb826112ac565b602082019050919050565b5f6020820190508181035f83015261130d816112d4565b9050919050565b61131d81611114565b8114611327575f5ffd5b50565b5f8151905061133881611314565b92915050565b5f6020828403121561135357611352610f4c565b5b5f6113608482850161132a565b9150509291505056fea2646970667358221220314918da05cf65bb03b106ef82d163763b1927f0dbfdb2e9fcb6193c33cd637164736f6c634300081e0033","linkReferences":{}},"methodIdentifiers":{"UPGRADE_INTERFACE_VERSION()":"ad3cb1cc","initialize()":"8129fc1c","owner()":"8da5cb5b","proxiableUUID()":"52d1902d","renounceOwnership()":"715018a6","setStaking(address)":"8ff39099","staking()":"4cf088d9","transferOwnership(address)":"f2fde38b","updateFarm(uint256)":"cc430ced","upgradeToAndCall(address,bytes)":"4f1ef286"},"id":45}