{"abi":[{"type":"receive","stateMutability":"payable"},{"type":"function","name":"UPGRADE_INTERFACE_VERSION","inputs":[],"outputs":[{"name":"","type":"string","internalType":"string"}],"stateMutability":"view"},{"type":"function","name":"USDT","inputs":[],"outputs":[{"name":"","type":"address","internalType":"address"}],"stateMutability":"view"},{"type":"function","name":"claimToken","inputs":[{"name":"amountToken","type":"uint256","internalType":"uint256"}],"outputs":[],"stateMutability":"nonpayable"},{"type":"function","name":"claimUSDT","inputs":[],"outputs":[],"stateMutability":"nonpayable"},{"type":"function","name":"forexRate","inputs":[],"outputs":[{"name":"","type":"uint256","internalType":"uint256"}],"stateMutability":"view"},{"type":"function","name":"getAvailableAmountUSDT","inputs":[{"name":"user","type":"address","internalType":"address"}],"outputs":[{"name":"","type":"uint256","internalType":"uint256"}],"stateMutability":"view"},{"type":"function","name":"getReleaseAmountToken","inputs":[{"name":"user","type":"address","internalType":"address"}],"outputs":[{"name":"released","type":"uint256","internalType":"uint256"},{"name":"claimable","type":"uint256","internalType":"uint256"}],"stateMutability":"view"},{"type":"function","name":"getUserInfo","inputs":[{"name":"user","type":"address","internalType":"address"}],"outputs":[{"name":"nftQuantity","type":"uint256","internalType":"uint256"},{"name":"tokenIds","type":"uint256[]","internalType":"uint256[]"},{"name":"releaseQuota","type":"uint256","internalType":"uint256"},{"name":"stakingTime","type":"uint256","internalType":"uint256"},{"name":"pendingToken","type":"uint256","internalType":"uint256"},{"name":"pendingUSDT","type":"uint256","internalType":"uint256"},{"name":"extractedToken","type":"uint256","internalType":"uint256"},{"name":"farmDebt","type":"uint256","internalType":"uint256"},{"name":"claimableToken","type":"uint256","internalType":"uint256"},{"name":"availableUSDT","type":"uint256","internalType":"uint256"}],"stateMutability":"view"},{"type":"function","name":"initialize","inputs":[{"name":"_nfts","type":"address","internalType":"address"},{"name":"_token","type":"address","internalType":"address"}],"outputs":[],"stateMutability":"nonpayable"},{"type":"function","name":"nfts","inputs":[],"outputs":[{"name":"","type":"address","internalType":"address"}],"stateMutability":"view"},{"type":"function","name":"onERC721Received","inputs":[{"name":"","type":"address","internalType":"address"},{"name":"","type":"address","internalType":"address"},{"name":"","type":"uint256","internalType":"uint256"},{"name":"","type":"bytes","internalType":"bytes"}],"outputs":[{"name":"","type":"bytes4","internalType":"bytes4"}],"stateMutability":"nonpayable"},{"type":"function","name":"owner","inputs":[],"outputs":[{"name":"","type":"address","internalType":"address"}],"stateMutability":"view"},{"type":"function","name":"perNftAward","inputs":[],"outputs":[{"name":"","type":"uint256","internalType":"uint256"}],"stateMutability":"view"},{"type":"function","name":"proxiableUUID","inputs":[],"outputs":[{"name":"","type":"bytes32","internalType":"bytes32"}],"stateMutability":"view"},{"type":"function","name":"renounceOwnership","inputs":[],"outputs":[],"stateMutability":"nonpayable"},{"type":"function","name":"setStaking","inputs":[{"name":"_staking","type":"address","internalType":"address"}],"outputs":[],"stateMutability":"nonpayable"},{"type":"function","name":"stake","inputs":[{"name":"tokenIds","type":"uint256[]","internalType":"uint256[]"}],"outputs":[],"stateMutability":"nonpayable"},{"type":"function","name":"staking","inputs":[],"outputs":[{"name":"","type":"address","internalType":"address"}],"stateMutability":"view"},{"type":"function","name":"token","inputs":[],"outputs":[{"name":"","type":"address","internalType":"address"}],"stateMutability":"view"},{"type":"function","name":"totalDuration","inputs":[],"outputs":[{"name":"","type":"uint256","internalType":"uint256"}],"stateMutability":"view"},{"type":"function","name":"totalNftQuantity","inputs":[],"outputs":[{"name":"","type":"uint256","internalType":"uint256"}],"stateMutability":"view"},{"type":"function","name":"transferOwnership","inputs":[{"name":"newOwner","type":"address","internalType":"address"}],"outputs":[],"stateMutability":"nonpayable"},{"type":"function","name":"updateFarm","inputs":[{"name":"amountUSDT","type":"uint256","internalType":"uint256"}],"outputs":[],"stateMutability":"nonpayable"},{"type":"function","name":"upgradeToAndCall","inputs":[{"name":"newImplementation","type":"address","internalType":"address"},{"name":"data","type":"bytes","internalType":"bytes"}],"outputs":[],"stateMutability":"payable"},{"type":"function","name":"userInfo","inputs":[{"name":"","type":"address","internalType":"address"}],"outputs":[{"name":"nftQuantity","type":"uint256","internalType":"uint256"},{"name":"releaseQuota","type":"uint256","internalType":"uint256"},{"name":"stakingTime","type":"uint256","internalType":"uint256"},{"name":"pendingToken","type":"uint256","internalType":"uint256"},{"name":"pendingUSDT","type":"uint256","internalType":"uint256"},{"name":"extractedToken","type":"uint256","internalType":"uint256"},{"name":"farmDebt","type":"uint256","internalType":"uint256"}],"stateMutability":"view"},{"type":"event","name":"Initialized","inputs":[{"name":"version","type":"uint64","indexed":false,"internalType":"uint64"}],"anonymous":false},{"type":"event","name":"OwnershipTransferred","inputs":[{"name":"previousOwner","type":"address","indexed":true,"internalType":"address"},{"name":"newOwner","type":"address","indexed":true,"internalType":"address"}],"anonymous":false},{"type":"event","name":"Upgraded","inputs":[{"name":"implementation","type":"address","indexed":true,"internalType":"address"}],"anonymous":false},{"type":"error","name":"AddressEmptyCode","inputs":[{"name":"target","type":"address","internalType":"address"}]},{"type":"error","name":"ERC1967InvalidImplementation","inputs":[{"name":"implementation","type":"address","internalType":"address"}]},{"type":"error","name":"ERC1967NonPayable","inputs":[]},{"type":"error","name":"FailedCall","inputs":[]},{"type":"error","name":"InvalidInitialization","inputs":[]},{"type":"error","name":"NotInitializing","inputs":[]},{"type":"error","name":"OwnableInvalidOwner","inputs":[{"name":"owner","type":"address","internalType":"address"}]},{"type":"error","name":"OwnableUnauthorizedAccount","inputs":[{"name":"account","type":"address","internalType":"address"}]},{"type":"error","name":"UUPSUnauthorizedCallContext","inputs":[]},{"type":"error","name":"UUPSUnsupportedProxiableUUID","inputs":[{"name":"slot","type":"bytes32","internalType":"bytes32"}]}],"bytecode":{"object":"0x60a06040523073ffffffffffffffffffffffffffffffffffffffff1660809073ffffffffffffffffffffffffffffffffffffffff168152503480156041575f5ffd5b506080516128cf6100685f395f8181611272015281816112c7015261148101526128cf5ff3fe608060405260043610610169575f3560e01c80637564ac38116100d0578063a9e7c2e511610089578063cc430ced11610063578063cc430ced1461054b578063de68555a14610573578063f2fde38b1461059d578063fc0c546a146105c5576101a9565b8063a9e7c2e5146104cf578063ad3cb1cc146104f7578063c54e44eb14610521576101a9565b80637564ac38146103d75780638aa12239146103ed5780638af6c259146104175780638da5cb5b146104415780638ff390991461046b5780639857a65c14610493576101a9565b8063485cc95511610122578063485cc955146102e45780634cf088d91461030c5780634f1ef2861461033657806352d1902d146103525780636386c1c71461037c578063715018a6146103c1576101a9565b80630fbf0a93146101ad578063150b7a02146101d55780631714f2e0146102115780631959a0021461023b57806321bb5a3c1461027d57806330ffa373146102ba576101a9565b366101a9576040517f08c379a00000000000000000000000000000000000000000000000000000000081526004016101a090611c21565b60405180910390fd5b5f5ffd5b3480156101b8575f5ffd5b506101d360048036038101906101ce9190611dd3565b6105ef565b005b3480156101e0575f5ffd5b506101fb60048036038101906101f69190611f24565b6107f0565b6040516102089190611fde565b60405180910390f35b34801561021c575f5ffd5b50610225610803565b6040516102329190612006565b60405180910390f35b348015610246575f5ffd5b50610261600480360381019061025c919061201f565b610827565b6040516102749796959493929190612059565b60405180910390f35b348015610288575f5ffd5b506102a3600480360381019061029e919061201f565b610865565b6040516102b19291906120c6565b60405180910390f35b3480156102c5575f5ffd5b506102ce610977565b6040516102db91906120ed565b60405180910390f35b3480156102ef575f5ffd5b5061030a60048036038101906103059190612106565b61097d565b005b348015610317575f5ffd5b50610320610b9f565b60405161032d9190612006565b60405180910390f35b610350600480360381019061034b9190612144565b610bc4565b005b34801561035d575f5ffd5b50610366610be3565b60405161037391906121b6565b60405180910390f35b348015610387575f5ffd5b506103a2600480360381019061039d919061201f565b610c14565b6040516103b89a99989796959493929190612286565b60405180910390f35b3480156103cc575f5ffd5b506103d5610d0a565b005b3480156103e2575f5ffd5b506103eb610d1d565b005b3480156103f8575f5ffd5b50610401610df0565b60405161040e91906120ed565b60405180910390f35b348015610422575f5ffd5b5061042b610df6565b60405161043891906120ed565b60405180910390f35b34801561044c575f5ffd5b50610455610dfc565b6040516104629190612006565b60405180910390f35b348015610476575f5ffd5b50610491600480360381019061048c919061201f565b610e31565b005b34801561049e575f5ffd5b506104b960048036038101906104b4919061201f565b610e7c565b6040516104c691906120ed565b60405180910390f35b3480156104da575f5ffd5b506104f560048036038101906104f09190612327565b610f0f565b005b348015610502575f5ffd5b5061050b611029565b60405161051891906123a2565b60405180910390f35b34801561052c575f5ffd5b50610535611062565b6040516105429190612006565b60405180910390f35b348015610556575f5ffd5b50610571600480360381019061056c9190612327565b61107a565b005b34801561057e575f5ffd5b50610587611193565b60405161059491906120ed565b60405180910390f35b3480156105a8575f5ffd5b506105c360048036038101906105be919061201f565b611199565b005b3480156105d0575f5ffd5b506105d961121d565b6040516105e69190612006565b60405180910390f35b5f60035f3373ffffffffffffffffffffffffffffffffffffffff1673ffffffffffffffffffffffffffffffffffffffff1681526020019081526020015f2090505f8160020154111561065c575f61064533610865565b9150505f81111561065a578082600401819055505b505b5f5f90505b825181101561075d575f5f9054906101000a900473ffffffffffffffffffffffffffffffffffffffff1673ffffffffffffffffffffffffffffffffffffffff166342842e0e33308685815181106106bb576106ba6123c2565b5b60200260200101516040518463ffffffff1660e01b81526004016106e1939291906123ef565b5f604051808303815f87803b1580156106f8575f5ffd5b505af115801561070a573d5f5f3e3d5ffd5b5050505081600101838281518110610725576107246123c2565b5b6020026020010151908060018154018082558091505060019003905f5260205f20015f90919091909150558080600101915050610661565b5061076733610e7c565b81600501819055508151815f015f8282546107829190612451565b9250508190555060065482516107989190612484565b816002015f8282546107aa9190612451565b92505081905550428160030181905550600554815f01546107cb9190612484565b8160070181905550815160045f8282546107e59190612451565b925050819055505050565b5f63150b7a0260e01b9050949350505050565b5f5f9054906101000a900473ffffffffffffffffffffffffffffffffffffffff1681565b6003602052805f5260405f205f91509050805f0154908060020154908060030154908060040154908060050154908060060154908060070154905087565b5f5f5f60035f8573ffffffffffffffffffffffffffffffffffffffff1673ffffffffffffffffffffffffffffffffffffffff1681526020019081526020015f2090505f81600201541480156108bd57505f8160040154145b156108ce575f5f9250925050610972565b5f5f90505f82600301541180156108e857505f8260020154115b15610937575f8260030154426108fe91906124c5565b905060075481106109155782600201549150610935565b6007548184600201546109289190612484565b6109329190612525565b91505b505b8082600401546109479190612451565b93508160060154841161095c575f925061096f565b81600601548461096c91906124c5565b92505b50505b915091565b60065481565b5f610986611242565b90505f815f0160089054906101000a900460ff161590505f825f015f9054906101000a900467ffffffffffffffff1690505f5f8267ffffffffffffffff161480156109ce5750825b90505f60018367ffffffffffffffff16148015610a0157505f3073ffffffffffffffffffffffffffffffffffffffff163b145b905081158015610a0f575080155b15610a46576040517ff92ee8a900000000000000000000000000000000000000000000000000000000815260040160405180910390fd5b6001855f015f6101000a81548167ffffffffffffffff021916908367ffffffffffffffff1602179055508315610a93576001855f0160086101000a81548160ff0219169083151502179055505b610aa3610a9e611255565b61125c565b865f5f6101000a81548173ffffffffffffffffffffffffffffffffffffffff021916908373ffffffffffffffffffffffffffffffffffffffff1602179055508560025f6101000a81548173ffffffffffffffffffffffffffffffffffffffff021916908373ffffffffffffffffffffffffffffffffffffffff160217905550681b1ae4d6e2ef50000060068190555062278d006007819055508315610b96575f855f0160086101000a81548160ff0219169083151502179055507fc7f505b2f371ae2175ee4913f4499e1f2633a7b5936321eed1cdaeb6115181d26001604051610b8d91906125aa565b60405180910390a15b50505050505050565b60015f9054906101000a900473ffffffffffffffffffffffffffffffffffffffff1681565b610bcc611270565b610bd582611356565b610bdf8282611361565b5050565b5f610bec61147f565b7f360894a13ba1a3210667c828492db98dca3e2076cc3735a920a3ca505d382bbc5f1b905090565b5f60605f5f5f5f5f5f5f5f5f60035f8d73ffffffffffffffffffffffffffffffffffffffff1673ffffffffffffffffffffffffffffffffffffffff1681526020019081526020015f209050805f01549a5080600101805480602002602001604051908101604052809291908181526020018280548015610cb157602002820191905f5260205f20905b815481526020019060010190808311610c9d575b50505050509950806002015498508060030154975080600401549650806005015495508060060154945080600701549350610ceb8c610865565b905080935050610cfa8c610e7c565b9150509193959799509193959799565b610d12611506565b610d1b5f61158d565b565b5f60035f3373ffffffffffffffffffffffffffffffffffffffff1673ffffffffffffffffffffffffffffffffffffffff1681526020019081526020015f2090505f610d6733610e7c565b90505f8111610dab576040517f08c379a0000000000000000000000000000000000000000000000000000000008152600401610da29061260d565b60405180910390fd5b610dca7355d398326f99059ff775485246999027b3197955338361165e565b5f8260050181905550600554825f0154610de49190612484565b82600701819055505050565b60045481565b60075481565b5f5f610e0661178e565b9050805f015f9054906101000a900473ffffffffffffffffffffffffffffffffffffffff1691505090565b610e39611506565b8060015f6101000a81548173ffffffffffffffffffffffffffffffffffffffff021916908373ffffffffffffffffffffffffffffffffffffffff16021790555050565b5f5f60035f8473ffffffffffffffffffffffffffffffffffffffff1673ffffffffffffffffffffffffffffffffffffffff1681526020019081526020015f2090505f600554825f0154610ecf9190612484565b8260050154610ede9190612451565b905080826007015410610ef5575f92505050610f0a565b816007015481610f0591906124c5565b925050505b919050565b5f60035f3373ffffffffffffffffffffffffffffffffffffffff1673ffffffffffffffffffffffffffffffffffffffff1681526020019081526020015f2090505f610f5933610865565b9150505f83118015610f6b5750808311155b610faa576040517f08c379a0000000000000000000000000000000000000000000000000000000008152600401610fa190612675565b60405180910390fd5b81600401548311610fd45782826004015f828254610fc891906124c5565b92505081905550610fde565b5f82600401819055505b61100a60025f9054906101000a900473ffffffffffffffffffffffffffffffffffffffff16338561165e565b82826006015f82825461101d9190612451565b92505081905550505050565b6040518060400160405280600581526020017f352e302e3000000000000000000000000000000000000000000000000000000081525081565b7355d398326f99059ff775485246999027b319795581565b60015f9054906101000a900473ffffffffffffffffffffffffffffffffffffffff1673ffffffffffffffffffffffffffffffffffffffff163373ffffffffffffffffffffffffffffffffffffffff161480611121575060025f9054906101000a900473ffffffffffffffffffffffffffffffffffffffff1673ffffffffffffffffffffffffffffffffffffffff163373ffffffffffffffffffffffffffffffffffffffff16145b611160576040517f08c379a0000000000000000000000000000000000000000000000000000000008152600401611157906126dd565b60405180910390fd5b5f600454031561119057600454816111789190612525565b60055f8282546111889190612451565b925050819055505b50565b60055481565b6111a1611506565b5f73ffffffffffffffffffffffffffffffffffffffff168173ffffffffffffffffffffffffffffffffffffffff1603611211575f6040517f1e4fbdf70000000000000000000000000000000000000000000000000000000081526004016112089190612006565b60405180910390fd5b61121a8161158d565b50565b60025f9054906101000a900473ffffffffffffffffffffffffffffffffffffffff1681565b5f5f61124c6117b5565b90508091505090565b5f33905090565b6112646117de565b61126d8161181e565b50565b7f000000000000000000000000000000000000000000000000000000000000000073ffffffffffffffffffffffffffffffffffffffff163073ffffffffffffffffffffffffffffffffffffffff16148061131d57507f000000000000000000000000000000000000000000000000000000000000000073ffffffffffffffffffffffffffffffffffffffff166113046118a2565b73ffffffffffffffffffffffffffffffffffffffff1614155b15611354576040517fe07c8dba00000000000000000000000000000000000000000000000000000000815260040160405180910390fd5b565b61135e611506565b50565b8173ffffffffffffffffffffffffffffffffffffffff166352d1902d6040518163ffffffff1660e01b8152600401602060405180830381865afa9250505080156113c957506040513d601f19601f820116820180604052508101906113c69190612725565b60015b61140a57816040517f4c9c8ce30000000000000000000000000000000000000000000000000000000081526004016114019190612006565b60405180910390fd5b7f360894a13ba1a3210667c828492db98dca3e2076cc3735a920a3ca505d382bbc5f1b811461147057806040517faa1d49a400000000000000000000000000000000000000000000000000000000815260040161146791906121b6565b60405180910390fd5b61147a83836118f5565b505050565b7f000000000000000000000000000000000000000000000000000000000000000073ffffffffffffffffffffffffffffffffffffffff163073ffffffffffffffffffffffffffffffffffffffff1614611504576040517fe07c8dba00000000000000000000000000000000000000000000000000000000815260040160405180910390fd5b565b61150e611255565b73ffffffffffffffffffffffffffffffffffffffff1661152c610dfc565b73ffffffffffffffffffffffffffffffffffffffff161461158b5761154f611255565b6040517f118cdaa70000000000000000000000000000000000000000000000000000000081526004016115829190612006565b60405180910390fd5b565b5f61159661178e565b90505f815f015f9054906101000a900473ffffffffffffffffffffffffffffffffffffffff16905082825f015f6101000a81548173ffffffffffffffffffffffffffffffffffffffff021916908373ffffffffffffffffffffffffffffffffffffffff1602179055508273ffffffffffffffffffffffffffffffffffffffff168173ffffffffffffffffffffffffffffffffffffffff167f8be0079c531659141344cd1fd0a4f28419497f9722a3daafe3b4186f6b6457e060405160405180910390a3505050565b5f5f8473ffffffffffffffffffffffffffffffffffffffff1663a9059cbb858560405160240161168f929190612750565b6040516020818303038152906040529060e01b6020820180517bffffffffffffffffffffffffffffffffffffffffffffffffffffffff83818316178352505050506040516116dd91906127bb565b5f604051808303815f865af19150503d805f8114611716576040519150601f19603f3d011682016040523d82523d5f602084013e61171b565b606091505b509150915081801561174857505f815114806117475750808060200190518101906117469190612806565b5b5b611787576040517f08c379a000000000000000000000000000000000000000000000000000000000815260040161177e9061287b565b60405180910390fd5b5050505050565b5f7f9016d09d72d40fdae2fd8ceac6b6234c7706214fd39c1cd1e609a0528c199300905090565b5f7ff0c57e16840df040f15088dc2f81fe391c3923bec73e23a9662efc9c229c6a005f1b905090565b6117e6611967565b61181c576040517fd7e6bcf800000000000000000000000000000000000000000000000000000000815260040160405180910390fd5b565b6118266117de565b5f73ffffffffffffffffffffffffffffffffffffffff168173ffffffffffffffffffffffffffffffffffffffff1603611896575f6040517f1e4fbdf700000000000000000000000000000000000000000000000000000000815260040161188d9190612006565b60405180910390fd5b61189f8161158d565b50565b5f6118ce7f360894a13ba1a3210667c828492db98dca3e2076cc3735a920a3ca505d382bbc5f1b611985565b5f015f9054906101000a900473ffffffffffffffffffffffffffffffffffffffff16905090565b6118fe8261198e565b8173ffffffffffffffffffffffffffffffffffffffff167fbc7cd75a20ee27fd9adebab32041f755214dbc6bffa90cc0225b39da2e5c2d3b60405160405180910390a25f8151111561195a576119548282611a57565b50611963565b611962611b48565b5b5050565b5f611970611242565b5f0160089054906101000a900460ff16905090565b5f819050919050565b5f8173ffffffffffffffffffffffffffffffffffffffff163b036119e957806040517f4c9c8ce30000000000000000000000000000000000000000000000000000000081526004016119e09190612006565b60405180910390fd5b80611a157f360894a13ba1a3210667c828492db98dca3e2076cc3735a920a3ca505d382bbc5f1b611985565b5f015f6101000a81548173ffffffffffffffffffffffffffffffffffffffff021916908373ffffffffffffffffffffffffffffffffffffffff16021790555050565b60605f611a648484611b84565b9050808015611a9a57505f611a77611b98565b1180611a9957505f8473ffffffffffffffffffffffffffffffffffffffff163b115b5b15611aaf57611aa7611b9f565b915050611b42565b8015611af257836040517f9996b315000000000000000000000000000000000000000000000000000000008152600401611ae99190612006565b60405180910390fd5b5f611afb611b98565b1115611b0e57611b09611bbc565b611b40565b6040517fd6bda27500000000000000000000000000000000000000000000000000000000815260040160405180910390fd5b505b92915050565b5f341115611b82576040517fb398979f00000000000000000000000000000000000000000000000000000000815260040160405180910390fd5b565b5f5f5f835160208501865af4905092915050565b5f3d905090565b606060405190503d81523d5f602083013e3d602001810160405290565b6040513d5f823e3d81fd5b5f82825260208201905092915050565b7f4e4f5f4449524543545f53454e440000000000000000000000000000000000005f82015250565b5f611c0b600e83611bc7565b9150611c1682611bd7565b602082019050919050565b5f6020820190508181035f830152611c3881611bff565b9050919050565b5f604051905090565b5f5ffd5b5f5ffd5b5f5ffd5b5f601f19601f8301169050919050565b7f4e487b71000000000000000000000000000000000000000000000000000000005f52604160045260245ffd5b611c9a82611c54565b810181811067ffffffffffffffff82111715611cb957611cb8611c64565b5b80604052505050565b5f611ccb611c3f565b9050611cd78282611c91565b919050565b5f67ffffffffffffffff821115611cf657611cf5611c64565b5b602082029050602081019050919050565b5f5ffd5b5f819050919050565b611d1d81611d0b565b8114611d27575f5ffd5b50565b5f81359050611d3881611d14565b92915050565b5f611d50611d4b84611cdc565b611cc2565b90508083825260208201905060208402830185811115611d7357611d72611d07565b5b835b81811015611d9c5780611d888882611d2a565b845260208401935050602081019050611d75565b5050509392505050565b5f82601f830112611dba57611db9611c50565b5b8135611dca848260208601611d3e565b91505092915050565b5f60208284031215611de857611de7611c48565b5b5f82013567ffffffffffffffff811115611e0557611e04611c4c565b5b611e1184828501611da6565b91505092915050565b5f73ffffffffffffffffffffffffffffffffffffffff82169050919050565b5f611e4382611e1a565b9050919050565b611e5381611e39565b8114611e5d575f5ffd5b50565b5f81359050611e6e81611e4a565b92915050565b5f5ffd5b5f67ffffffffffffffff821115611e9257611e91611c64565b5b611e9b82611c54565b9050602081019050919050565b828183375f83830152505050565b5f611ec8611ec384611e78565b611cc2565b905082815260208101848484011115611ee457611ee3611e74565b5b611eef848285611ea8565b509392505050565b5f82601f830112611f0b57611f0a611c50565b5b8135611f1b848260208601611eb6565b91505092915050565b5f5f5f5f60808587031215611f3c57611f3b611c48565b5b5f611f4987828801611e60565b9450506020611f5a87828801611e60565b9350506040611f6b87828801611d2a565b925050606085013567ffffffffffffffff811115611f8c57611f8b611c4c565b5b611f9887828801611ef7565b91505092959194509250565b5f7fffffffff0000000000000000000000000000000000000000000000000000000082169050919050565b611fd881611fa4565b82525050565b5f602082019050611ff15f830184611fcf565b92915050565b61200081611e39565b82525050565b5f6020820190506120195f830184611ff7565b92915050565b5f6020828403121561203457612033611c48565b5b5f61204184828501611e60565b91505092915050565b61205381611d0b565b82525050565b5f60e08201905061206c5f83018a61204a565b612079602083018961204a565b612086604083018861204a565b612093606083018761204a565b6120a0608083018661204a565b6120ad60a083018561204a565b6120ba60c083018461204a565b98975050505050505050565b5f6040820190506120d95f83018561204a565b6120e6602083018461204a565b9392505050565b5f6020820190506121005f83018461204a565b92915050565b5f5f6040838503121561211c5761211b611c48565b5b5f61212985828601611e60565b925050602061213a85828601611e60565b9150509250929050565b5f5f6040838503121561215a57612159611c48565b5b5f61216785828601611e60565b925050602083013567ffffffffffffffff81111561218857612187611c4c565b5b61219485828601611ef7565b9150509250929050565b5f819050919050565b6121b08161219e565b82525050565b5f6020820190506121c95f8301846121a7565b92915050565b5f81519050919050565b5f82825260208201905092915050565b5f819050602082019050919050565b61220181611d0b565b82525050565b5f61221283836121f8565b60208301905092915050565b5f602082019050919050565b5f612234826121cf565b61223e81856121d9565b9350612249836121e9565b805f5b838110156122795781516122608882612207565b975061226b8361221e565b92505060018101905061224c565b5085935050505092915050565b5f6101408201905061229a5f83018d61204a565b81810360208301526122ac818c61222a565b90506122bb604083018b61204a565b6122c8606083018a61204a565b6122d5608083018961204a565b6122e260a083018861204a565b6122ef60c083018761204a565b6122fc60e083018661204a565b61230a61010083018561204a565b61231861012083018461204a565b9b9a5050505050505050505050565b5f6020828403121561233c5761233b611c48565b5b5f61234984828501611d2a565b91505092915050565b5f81519050919050565b8281835e5f83830152505050565b5f61237482612352565b61237e8185611bc7565b935061238e81856020860161235c565b61239781611c54565b840191505092915050565b5f6020820190508181035f8301526123ba818461236a565b905092915050565b7f4e487b71000000000000000000000000000000000000000000000000000000005f52603260045260245ffd5b5f6060820190506124025f830186611ff7565b61240f6020830185611ff7565b61241c604083018461204a565b949350505050565b7f4e487b71000000000000000000000000000000000000000000000000000000005f52601160045260245ffd5b5f61245b82611d0b565b915061246683611d0b565b925082820190508082111561247e5761247d612424565b5b92915050565b5f61248e82611d0b565b915061249983611d0b565b92508282026124a781611d0b565b915082820484148315176124be576124bd612424565b5b5092915050565b5f6124cf82611d0b565b91506124da83611d0b565b92508282039050818111156124f2576124f1612424565b5b92915050565b7f4e487b71000000000000000000000000000000000000000000000000000000005f52601260045260245ffd5b5f61252f82611d0b565b915061253a83611d0b565b92508261254a576125496124f8565b5b828204905092915050565b5f819050919050565b5f67ffffffffffffffff82169050919050565b5f819050919050565b5f61259461258f61258a84612555565b612571565b61255e565b9050919050565b6125a48161257a565b82525050565b5f6020820190506125bd5f83018461259b565b92915050565b7f4e6f205553445420617661696c61626c650000000000000000000000000000005f82015250565b5f6125f7601183611bc7565b9150612602826125c3565b602082019050919050565b5f6020820190508181035f830152612624816125eb565b9050919050565b7f496e76616c696420616d6f756e740000000000000000000000000000000000005f82015250565b5f61265f600e83611bc7565b915061266a8261262b565b602082019050919050565b5f6020820190508181035f83015261268c81612653565b9050919050565b7f4e6f74207065726d69742e0000000000000000000000000000000000000000005f82015250565b5f6126c7600b83611bc7565b91506126d282612693565b602082019050919050565b5f6020820190508181035f8301526126f4816126bb565b9050919050565b6127048161219e565b811461270e575f5ffd5b50565b5f8151905061271f816126fb565b92915050565b5f6020828403121561273a57612739611c48565b5b5f61274784828501612711565b91505092915050565b5f6040820190506127635f830185611ff7565b612770602083018461204a565b9392505050565b5f81519050919050565b5f81905092915050565b5f61279582612777565b61279f8185612781565b93506127af81856020860161235c565b80840191505092915050565b5f6127c6828461278b565b915081905092915050565b5f8115159050919050565b6127e5816127d1565b81146127ef575f5ffd5b50565b5f81519050612800816127dc565b92915050565b5f6020828403121561281b5761281a611c48565b5b5f612828848285016127f2565b91505092915050565b7f5472616e7366657248656c7065723a205452414e534645525f4641494c4544005f82015250565b5f612865601f83611bc7565b915061287082612831565b602082019050919050565b5f6020820190508181035f83015261289281612859565b905091905056fea264697066735822122085394b4a6acbfb43ec60baae098fe361bd6260affc90d656856f93f930ed8c4f64736f6c634300081e0033","linkReferences":{}},"methodIdentifiers":{"UPGRADE_INTERFACE_VERSION()":"ad3cb1cc","USDT()":"c54e44eb","claimToken(uint256)":"a9e7c2e5","claimUSDT()":"7564ac38","forexRate()":"30ffa373","getAvailableAmountUSDT(address)":"9857a65c","getReleaseAmountToken(address)":"21bb5a3c","getUserInfo(address)":"6386c1c7","initialize(address,address)":"485cc955","nfts()":"1714f2e0","onERC721Received(address,address,uint256,bytes)":"150b7a02","owner()":"8da5cb5b","perNftAward()":"de68555a","proxiableUUID()":"52d1902d","renounceOwnership()":"715018a6","setStaking(address)":"8ff39099","stake(uint256[])":"0fbf0a93","staking()":"4cf088d9","token()":"fc0c546a","totalDuration()":"8af6c259","totalNftQuantity()":"8aa12239","transferOwnership(address)":"f2fde38b","updateFarm(uint256)":"cc430ced","upgradeToAndCall(address,bytes)":"4f1ef286","userInfo(address)":"1959a002"},"id":56}