{"abi":[{"type":"constructor","inputs":[{"name":"_initialRecipient","type":"address","internalType":"address"},{"name":"_sellFee","type":"address","internalType":"address"}],"stateMutability":"nonpayable"},{"type":"function","name":"ADX","inputs":[],"outputs":[{"name":"","type":"address","internalType":"address"}],"stateMutability":"view"},{"type":"function","name":"SELL_TAX_RATE","inputs":[],"outputs":[{"name":"","type":"uint256","internalType":"uint256"}],"stateMutability":"view"},{"type":"function","name":"allowance","inputs":[{"name":"owner","type":"address","internalType":"address"},{"name":"spender","type":"address","internalType":"address"}],"outputs":[{"name":"","type":"uint256","internalType":"uint256"}],"stateMutability":"view"},{"type":"function","name":"allowlist","inputs":[{"name":"","type":"address","internalType":"address"}],"outputs":[{"name":"","type":"bool","internalType":"bool"}],"stateMutability":"view"},{"type":"function","name":"approve","inputs":[{"name":"spender","type":"address","internalType":"address"},{"name":"value","type":"uint256","internalType":"uint256"}],"outputs":[{"name":"","type":"bool","internalType":"bool"}],"stateMutability":"nonpayable"},{"type":"function","name":"balanceOf","inputs":[{"name":"account","type":"address","internalType":"address"}],"outputs":[{"name":"","type":"uint256","internalType":"uint256"}],"stateMutability":"view"},{"type":"function","name":"decimals","inputs":[],"outputs":[{"name":"","type":"uint8","internalType":"uint8"}],"stateMutability":"view"},{"type":"function","name":"name","inputs":[],"outputs":[{"name":"","type":"string","internalType":"string"}],"stateMutability":"view"},{"type":"function","name":"owner","inputs":[],"outputs":[{"name":"","type":"address","internalType":"address"}],"stateMutability":"view"},{"type":"function","name":"pancakePair","inputs":[],"outputs":[{"name":"","type":"address","internalType":"address"}],"stateMutability":"view"},{"type":"function","name":"pancakeRouter","inputs":[],"outputs":[{"name":"","type":"address","internalType":"contract IPancakeRouter02"}],"stateMutability":"view"},{"type":"function","name":"renounceOwnership","inputs":[],"outputs":[],"stateMutability":"nonpayable"},{"type":"function","name":"sellFee","inputs":[],"outputs":[{"name":"","type":"address","internalType":"address"}],"stateMutability":"view"},{"type":"function","name":"setAllowlist","inputs":[{"name":"addrs","type":"address[]","internalType":"address[]"},{"name":"isAllow","type":"bool","internalType":"bool"}],"outputs":[],"stateMutability":"nonpayable"},{"type":"function","name":"setSellFee","inputs":[{"name":"_sellFee","type":"address","internalType":"address"}],"outputs":[],"stateMutability":"nonpayable"},{"type":"function","name":"symbol","inputs":[],"outputs":[{"name":"","type":"string","internalType":"string"}],"stateMutability":"view"},{"type":"function","name":"totalSupply","inputs":[],"outputs":[{"name":"","type":"uint256","internalType":"uint256"}],"stateMutability":"view"},{"type":"function","name":"transfer","inputs":[{"name":"to","type":"address","internalType":"address"},{"name":"value","type":"uint256","internalType":"uint256"}],"outputs":[{"name":"","type":"bool","internalType":"bool"}],"stateMutability":"nonpayable"},{"type":"function","name":"transferFrom","inputs":[{"name":"from","type":"address","internalType":"address"},{"name":"to","type":"address","internalType":"address"},{"name":"value","type":"uint256","internalType":"uint256"}],"outputs":[{"name":"","type":"bool","internalType":"bool"}],"stateMutability":"nonpayable"},{"type":"function","name":"transferOwnership","inputs":[{"name":"newOwner","type":"address","internalType":"address"}],"outputs":[],"stateMutability":"nonpayable"},{"type":"event","name":"Approval","inputs":[{"name":"owner","type":"address","indexed":true,"internalType":"address"},{"name":"spender","type":"address","indexed":true,"internalType":"address"},{"name":"value","type":"uint256","indexed":false,"internalType":"uint256"}],"anonymous":false},{"type":"event","name":"OwnershipTransferred","inputs":[{"name":"previousOwner","type":"address","indexed":true,"internalType":"address"},{"name":"newOwner","type":"address","indexed":true,"internalType":"address"}],"anonymous":false},{"type":"event","name":"Transfer","inputs":[{"name":"from","type":"address","indexed":true,"internalType":"address"},{"name":"to","type":"address","indexed":true,"internalType":"address"},{"name":"value","type":"uint256","indexed":false,"internalType":"uint256"}],"anonymous":false},{"type":"error","name":"ERC20InsufficientAllowance","inputs":[{"name":"spender","type":"address","internalType":"address"},{"name":"allowance","type":"uint256","internalType":"uint256"},{"name":"needed","type":"uint256","internalType":"uint256"}]},{"type":"error","name":"ERC20InsufficientBalance","inputs":[{"name":"sender","type":"address","internalType":"address"},{"name":"balance","type":"uint256","internalType":"uint256"},{"name":"needed","type":"uint256","internalType":"uint256"}]},{"type":"error","name":"ERC20InvalidApprover","inputs":[{"name":"approver","type":"address","internalType":"address"}]},{"type":"error","name":"ERC20InvalidReceiver","inputs":[{"name":"receiver","type":"address","internalType":"address"}]},{"type":"error","name":"ERC20InvalidSender","inputs":[{"name":"sender","type":"address","internalType":"address"}]},{"type":"error","name":"ERC20InvalidSpender","inputs":[{"name":"spender","type":"address","internalType":"address"}]},{"type":"error","name":"OwnableInvalidOwner","inputs":[{"name":"owner","type":"address","internalType":"address"}]},{"type":"error","name":"OwnableUnauthorizedAccount","inputs":[{"name":"account","type":"address","internalType":"address"}]}],"bytecode":{"object":"0x6080604052731f7cda03d18834c8328ca259abe57bf33c46647c600660006101000a81548173ffffffffffffffffffffffffffffffffffffffff021916908373ffffffffffffffffffffffffffffffffffffffff1602179055503480156200006657600080fd5b5060405162003db438038062003db483398181016040528101906200008c919062001325565b336040518060400160405280600481526020017f58313031000000000000000000000000000000000000000000000000000000008152506040518060400160405280600481526020017f583130310000000000000000000000000000000000000000000000000000000081525081600390816200010a9190620015e6565b5080600490816200011c9190620015e6565b505050600073ffffffffffffffffffffffffffffffffffffffff168173ffffffffffffffffffffffffffffffffffffffff1603620001945760006040517f1e4fbdf70000000000000000000000000000000000000000000000000000000081526004016200018b9190620016de565b60405180910390fd5b620001a5816200050460201b60201c565b5080600960006101000a81548173ffffffffffffffffffffffffffffffffffffffff021916908373ffffffffffffffffffffffffffffffffffffffff160217905550600660009054906101000a900473ffffffffffffffffffffffffffffffffffffffff1673ffffffffffffffffffffffffffffffffffffffff1663c45a01556040518163ffffffff1660e01b8152600401602060405180830381865afa15801562000255573d6000803e3d6000fd5b505050506040513d601f19601f820116820180604052508101906200027b9190620016fb565b73ffffffffffffffffffffffffffffffffffffffff1663c9c653963073af3a1f455d37cc960b359686a016193f727555106040518363ffffffff1660e01b8152600401620002cb9291906200172d565b6020604051808303816000875af1158015620002eb573d6000803e3d6000fd5b505050506040513d601f19601f82011682018060405250810190620003119190620016fb565b600760006101000a81548173ffffffffffffffffffffffffffffffffffffffff021916908373ffffffffffffffffffffffffffffffffffffffff1602179055506200036d8269d5e035af96a853400000620005ca60201b60201c565b6000600267ffffffffffffffff8111156200038d576200038c62001377565b5b604051908082528060200260200182016040528015620003bc5781602001602082028036833780820191505090505b5090508281600081518110620003d757620003d66200175a565b5b602002602001019073ffffffffffffffffffffffffffffffffffffffff16908173ffffffffffffffffffffffffffffffffffffffff168152505081816001815181106200042957620004286200175a565b5b602002602001019073ffffffffffffffffffffffffffffffffffffffff16908173ffffffffffffffffffffffffffffffffffffffff1681525050620004768160016200065760201b60201c565b73af3a1f455d37cc960b359686a016193f7275551073ffffffffffffffffffffffffffffffffffffffff163073ffffffffffffffffffffffffffffffffffffffff1611620004fb576040517f08c379a0000000000000000000000000000000000000000000000000000000008152600401620004f290620017ea565b60405180910390fd5b50505062001bfd565b6000600560009054906101000a900473ffffffffffffffffffffffffffffffffffffffff16905081600560006101000a81548173ffffffffffffffffffffffffffffffffffffffff021916908373ffffffffffffffffffffffffffffffffffffffff1602179055508173ffffffffffffffffffffffffffffffffffffffff168173ffffffffffffffffffffffffffffffffffffffff167f8be0079c531659141344cd1fd0a4f28419497f9722a3daafe3b4186f6b6457e060405160405180910390a35050565b600073ffffffffffffffffffffffffffffffffffffffff168273ffffffffffffffffffffffffffffffffffffffff16036200063f5760006040517fec442f05000000000000000000000000000000000000000000000000000000008152600401620006369190620016de565b60405180910390fd5b6200065360008383620006fb60201b60201c565b5050565b6200066762000b1460201b60201c565b60005b8251811015620006f65781600860008584815181106200068f576200068e6200175a565b5b602002602001015173ffffffffffffffffffffffffffffffffffffffff1673ffffffffffffffffffffffffffffffffffffffff16815260200190815260200160002060006101000a81548160ff02191690831515021790555080806001019150506200066a565b505050565b600073ffffffffffffffffffffffffffffffffffffffff168373ffffffffffffffffffffffffffffffffffffffff161480620007635750600073ffffffffffffffffffffffffffffffffffffffff168273ffffffffffffffffffffffffffffffffffffffff16145b1562000782576200077c83838362000bb660201b60201c565b62000b0f565b600860008473ffffffffffffffffffffffffffffffffffffffff1673ffffffffffffffffffffffffffffffffffffffff16815260200190815260200160002060009054906101000a900460ff1680620008245750600860008373ffffffffffffffffffffffffffffffffffffffff1673ffffffffffffffffffffffffffffffffffffffff16815260200190815260200160002060009054906101000a900460ff165b1562000843576200083d83838362000bb660201b60201c565b62000b0f565b60006200085562000de660201b60201c565b509050808015620008b35750600760009054906101000a900473ffffffffffffffffffffffffffffffffffffffff1673ffffffffffffffffffffffffffffffffffffffff168373ffffffffffffffffffffffffffffffffffffffff16145b15620008d357620008cc84848462000bb660201b60201c565b5062000b0f565b506000620008e66200103260201b60201c565b50509050808015620009455750600760009054906101000a900473ffffffffffffffffffffffffffffffffffffffff1673ffffffffffffffffffffffffffffffffffffffff168473ffffffffffffffffffffffffffffffffffffffff16145b1562000965576200095e84848462000bb660201b60201c565b5062000b0f565b50600760009054906101000a900473ffffffffffffffffffffffffffffffffffffffff1673ffffffffffffffffffffffffffffffffffffffff168373ffffffffffffffffffffffffffffffffffffffff1603620009f9576040517f08c379a0000000000000000000000000000000000000000000000000000000008152600401620009f0906200185c565b60405180910390fd5b600760009054906101000a900473ffffffffffffffffffffffffffffffffffffffff1673ffffffffffffffffffffffffffffffffffffffff168273ffffffffffffffffffffffffffffffffffffffff160362000ad2576000606460148362000a629190620018ad565b62000a6e919062001927565b90506000818362000a8091906200195f565b905062000ab785600960009054906101000a900473ffffffffffffffffffffffffffffffffffffffff168462000bb660201b60201c565b62000aca85858362000bb660201b60201c565b505062000b0f565b6040517f08c379a000000000000000000000000000000000000000000000000000000000815260040162000b0690620019ea565b60405180910390fd5b505050565b62000b246200128960201b60201c565b73ffffffffffffffffffffffffffffffffffffffff1662000b4a6200129160201b60201c565b73ffffffffffffffffffffffffffffffffffffffff161462000bb45762000b766200128960201b60201c565b6040517f118cdaa700000000000000000000000000000000000000000000000000000000815260040162000bab9190620016de565b60405180910390fd5b565b600073ffffffffffffffffffffffffffffffffffffffff168373ffffffffffffffffffffffffffffffffffffffff160362000c0c57806002600082825462000bff919062001a0c565b9250508190555062000ce2565b60008060008573ffffffffffffffffffffffffffffffffffffffff1673ffffffffffffffffffffffffffffffffffffffff1681526020019081526020016000205490508181101562000c9b578381836040517fe450d38c00000000000000000000000000000000000000000000000000000000815260040162000c929392919062001a58565b60405180910390fd5b8181036000808673ffffffffffffffffffffffffffffffffffffffff1673ffffffffffffffffffffffffffffffffffffffff16815260200190815260200160002081905550505b600073ffffffffffffffffffffffffffffffffffffffff168273ffffffffffffffffffffffffffffffffffffffff160362000d2d578060026000828254039250508190555062000d7a565b806000808473ffffffffffffffffffffffffffffffffffffffff1673ffffffffffffffffffffffffffffffffffffffff168152602001908152602001600020600082825401925050819055505b8173ffffffffffffffffffffffffffffffffffffffff168373ffffffffffffffffffffffffffffffffffffffff167fddf252ad1be2c89b69c2b068fc378daa952ba7f163c4a11628f55a4df523b3ef8360405162000dd9919062001a95565b60405180910390a3505050565b6000806000600760009054906101000a900473ffffffffffffffffffffffffffffffffffffffff1673ffffffffffffffffffffffffffffffffffffffff16630dfe16816040518163ffffffff1660e01b8152600401602060405180830381865afa15801562000e59573d6000803e3d6000fd5b505050506040513d601f19601f8201168201806040525081019062000e7f9190620016fb565b90506000600760009054906101000a900473ffffffffffffffffffffffffffffffffffffffff1673ffffffffffffffffffffffffffffffffffffffff16630902f1ac6040518163ffffffff1660e01b8152600401606060405180830381865afa15801562000ef1573d6000803e3d6000fd5b505050506040513d601f19601f8201168201806040525081019062000f17919062001b3e565b50506dffffffffffffffffffffffffffff16905060008273ffffffffffffffffffffffffffffffffffffffff166370a08231600760009054906101000a900473ffffffffffffffffffffffffffffffffffffffff166040518263ffffffff1660e01b815260040162000f8a9190620016de565b602060405180830381865afa15801562000fa8573d6000803e3d6000fd5b505050506040513d601f19601f8201168201806040525081019062000fce919062001bcb565b90503073ffffffffffffffffffffffffffffffffffffffff168373ffffffffffffffffffffffffffffffffffffffff16146200102b57818111156200102a5781816200101b91906200195f565b935066038d7ea4c68000841194505b5b5050509091565b600080600080600760009054906101000a900473ffffffffffffffffffffffffffffffffffffffff1673ffffffffffffffffffffffffffffffffffffffff16630dfe16816040518163ffffffff1660e01b8152600401602060405180830381865afa158015620010a6573d6000803e3d6000fd5b505050506040513d601f19601f82011682018060405250810190620010cc9190620016fb565b90506000600760009054906101000a900473ffffffffffffffffffffffffffffffffffffffff1673ffffffffffffffffffffffffffffffffffffffff16630902f1ac6040518163ffffffff1660e01b8152600401606060405180830381865afa1580156200113e573d6000803e3d6000fd5b505050506040513d601f19601f8201168201806040525081019062001164919062001b3e565b50506dffffffffffffffffffffffffffff16905060008273ffffffffffffffffffffffffffffffffffffffff166370a08231600760009054906101000a900473ffffffffffffffffffffffffffffffffffffffff166040518263ffffffff1660e01b8152600401620011d79190620016de565b602060405180830381865afa158015620011f5573d6000803e3d6000fd5b505050506040513d601f19601f820116820180604052508101906200121b919062001bcb565b90503073ffffffffffffffffffffffffffffffffffffffff168373ffffffffffffffffffffffffffffffffffffffff16146200128157808211156200127a5780826200126891906200195f565b93506402540be4008411955062001280565b80821494505b5b505050909192565b600033905090565b6000600560009054906101000a900473ffffffffffffffffffffffffffffffffffffffff16905090565b600080fd5b600073ffffffffffffffffffffffffffffffffffffffff82169050919050565b6000620012ed82620012c0565b9050919050565b620012ff81620012e0565b81146200130b57600080fd5b50565b6000815190506200131f81620012f4565b92915050565b600080604083850312156200133f576200133e620012bb565b5b60006200134f858286016200130e565b925050602062001362858286016200130e565b9150509250929050565b600081519050919050565b7f4e487b7100000000000000000000000000000000000000000000000000000000600052604160045260246000fd5b7f4e487b7100000000000000000000000000000000000000000000000000000000600052602260045260246000fd5b60006002820490506001821680620013ee57607f821691505b602082108103620014045762001403620013a6565b5b50919050565b60008190508160005260206000209050919050565b60006020601f8301049050919050565b600082821b905092915050565b6000600883026200146e7fffffffffffffffffffffffffffffffffffffffffffffffffffffffffffffffff826200142f565b6200147a86836200142f565b95508019841693508086168417925050509392505050565b6000819050919050565b6000819050919050565b6000620014c7620014c1620014bb8462001492565b6200149c565b62001492565b9050919050565b6000819050919050565b620014e383620014a6565b620014fb620014f282620014ce565b8484546200143c565b825550505050565b600090565b6200151262001503565b6200151f818484620014d8565b505050565b5b8181101562001547576200153b60008262001508565b60018101905062001525565b5050565b601f821115620015965762001560816200140a565b6200156b846200141f565b810160208510156200157b578190505b620015936200158a856200141f565b83018262001524565b50505b505050565b600082821c905092915050565b6000620015bb600019846008026200159b565b1980831691505092915050565b6000620015d68383620015a8565b9150826002028217905092915050565b620015f1826200136c565b67ffffffffffffffff8111156200160d576200160c62001377565b5b620016198254620013d5565b620016268282856200154b565b600060209050601f8311600181146200165e576000841562001649578287015190505b620016558582620015c8565b865550620016c5565b601f1984166200166e866200140a565b60005b82811015620016985784890151825560018201915060208501945060208101905062001671565b86831015620016b85784890151620016b4601f891682620015a8565b8355505b6001600288020188555050505b505050505050565b620016d881620012e0565b82525050565b6000602082019050620016f56000830184620016cd565b92915050565b600060208284031215620017145762001713620012bb565b5b600062001724848285016200130e565b91505092915050565b6000604082019050620017446000830185620016cd565b620017536020830184620016cd565b9392505050565b7f4e487b7100000000000000000000000000000000000000000000000000000000600052603260045260246000fd5b600082825260208201905092915050565b7f4445504c4f595f4552524f522e00000000000000000000000000000000000000600082015250565b6000620017d2600d8362001789565b9150620017df826200179a565b602082019050919050565b600060208201905081810360008301526200180581620017c3565b9050919050565b7f4275792064697361626c65640000000000000000000000000000000000000000600082015250565b600062001844600c8362001789565b915062001851826200180c565b602082019050919050565b60006020820190508181036000830152620018778162001835565b9050919050565b7f4e487b7100000000000000000000000000000000000000000000000000000000600052601160045260246000fd5b6000620018ba8262001492565b9150620018c78362001492565b9250828202620018d78162001492565b91508282048414831517620018f157620018f06200187e565b5b5092915050565b7f4e487b7100000000000000000000000000000000000000000000000000000000600052601260045260246000fd5b6000620019348262001492565b9150620019418362001492565b925082620019545762001953620018f8565b5b828204905092915050565b60006200196c8262001492565b9150620019798362001492565b92508282039050818111156200199457620019936200187e565b5b92915050565b7f5472616e73666572732064697361626c65640000000000000000000000000000600082015250565b6000620019d260128362001789565b9150620019df826200199a565b602082019050919050565b6000602082019050818103600083015262001a0581620019c3565b9050919050565b600062001a198262001492565b915062001a268362001492565b925082820190508082111562001a415762001a406200187e565b5b92915050565b62001a528162001492565b82525050565b600060608201905062001a6f6000830186620016cd565b62001a7e602083018562001a47565b62001a8d604083018462001a47565b949350505050565b600060208201905062001aac600083018462001a47565b92915050565b60006dffffffffffffffffffffffffffff82169050919050565b62001ad78162001ab2565b811462001ae357600080fd5b50565b60008151905062001af78162001acc565b92915050565b600063ffffffff82169050919050565b62001b188162001afd565b811462001b2457600080fd5b50565b60008151905062001b388162001b0d565b92915050565b60008060006060848603121562001b5a5762001b59620012bb565b5b600062001b6a8682870162001ae6565b935050602062001b7d8682870162001ae6565b925050604062001b908682870162001b27565b9150509250925092565b62001ba58162001492565b811462001bb157600080fd5b50565b60008151905062001bc58162001b9a565b92915050565b60006020828403121562001be45762001be3620012bb565b5b600062001bf48482850162001bb4565b91505092915050565b6121a78062001c0d6000396000f3fe608060405234801561001057600080fd5b506004361061012c5760003560e01c806395d89b41116100ad578063dcea0a6411610071578063dcea0a6414610339578063dd62ed3e14610357578063f01fe7c414610387578063f2fde38b146103a3578063fe59b1eb146103bf5761012c565b806395d89b411461027f578063a7cd52cb1461029d578063a9059cbb146102cd578063b8c9d25c146102fd578063c21ebd071461031b5761012c565b8063313ce567116100f4578063313ce567146101eb578063504deacd1461020957806370a0823114610227578063715018a6146102575780638da5cb5b146102615761012c565b806306fdde0314610131578063095ea7b31461014f57806318160ddd1461017f57806323b872dd1461019d5780632b14ca56146101cd575b600080fd5b6101396103db565b604051610146919061186c565b60405180910390f35b61016960048036038101906101649190611936565b61046d565b6040516101769190611991565b60405180910390f35b610187610490565b60405161019491906119bb565b60405180910390f35b6101b760048036038101906101b291906119d6565b61049a565b6040516101c49190611991565b60405180910390f35b6101d56104c9565b6040516101e29190611a38565b60405180910390f35b6101f36104ef565b6040516102009190611a6f565b60405180910390f35b6102116104f8565b60405161021e91906119bb565b60405180910390f35b610241600480360381019061023c9190611a8a565b6104fd565b60405161024e91906119bb565b60405180910390f35b61025f610545565b005b610269610559565b6040516102769190611a38565b60405180910390f35b610287610583565b604051610294919061186c565b60405180910390f35b6102b760048036038101906102b29190611a8a565b610615565b6040516102c49190611991565b60405180910390f35b6102e760048036038101906102e29190611936565b610635565b6040516102f49190611991565b60405180910390f35b610305610658565b6040516103129190611a38565b60405180910390f35b61032361067e565b6040516103309190611b16565b60405180910390f35b6103416106a4565b60405161034e9190611a38565b60405180910390f35b610371600480360381019061036c9190611b31565b6106bc565b60405161037e91906119bb565b60405180910390f35b6103a1600480360381019061039c9190611ce5565b610743565b005b6103bd60048036038101906103b89190611a8a565b6107da565b005b6103d960048036038101906103d49190611a8a565b610860565b005b6060600380546103ea90611d70565b80601f016020809104026020016040519081016040528092919081815260200182805461041690611d70565b80156104635780601f1061043857610100808354040283529160200191610463565b820191906000526020600020905b81548152906001019060200180831161044657829003601f168201915b5050505050905090565b6000806104786108ac565b90506104858185856108b4565b600191505092915050565b6000600254905090565b6000806104a56108ac565b90506104b28582856108c6565b6104bd85858561095b565b60019150509392505050565b600960009054906101000a900473ffffffffffffffffffffffffffffffffffffffff1681565b60006012905090565b601481565b60008060008373ffffffffffffffffffffffffffffffffffffffff1673ffffffffffffffffffffffffffffffffffffffff168152602001908152602001600020549050919050565b61054d610a4f565b6105576000610ad6565b565b6000600560009054906101000a900473ffffffffffffffffffffffffffffffffffffffff16905090565b60606004805461059290611d70565b80601f01602080910402602001604051908101604052809291908181526020018280546105be90611d70565b801561060b5780601f106105e05761010080835404028352916020019161060b565b820191906000526020600020905b8154815290600101906020018083116105ee57829003601f168201915b5050505050905090565b60086020528060005260406000206000915054906101000a900460ff1681565b6000806106406108ac565b905061064d81858561095b565b600191505092915050565b600760009054906101000a900473ffffffffffffffffffffffffffffffffffffffff1681565b600660009054906101000a900473ffffffffffffffffffffffffffffffffffffffff1681565b73af3a1f455d37cc960b359686a016193f7275551081565b6000600160008473ffffffffffffffffffffffffffffffffffffffff1673ffffffffffffffffffffffffffffffffffffffff16815260200190815260200160002060008373ffffffffffffffffffffffffffffffffffffffff1673ffffffffffffffffffffffffffffffffffffffff16815260200190815260200160002054905092915050565b61074b610a4f565b60005b82518110156107d557816008600085848151811061076f5761076e611da1565b5b602002602001015173ffffffffffffffffffffffffffffffffffffffff1673ffffffffffffffffffffffffffffffffffffffff16815260200190815260200160002060006101000a81548160ff021916908315150217905550808060010191505061074e565b505050565b6107e2610a4f565b600073ffffffffffffffffffffffffffffffffffffffff168173ffffffffffffffffffffffffffffffffffffffff16036108545760006040517f1e4fbdf700000000000000000000000000000000000000000000000000000000815260040161084b9190611a38565b60405180910390fd5b61085d81610ad6565b50565b610868610a4f565b80600960006101000a81548173ffffffffffffffffffffffffffffffffffffffff021916908373ffffffffffffffffffffffffffffffffffffffff16021790555050565b600033905090565b6108c18383836001610b9c565b505050565b60006108d284846106bc565b90507fffffffffffffffffffffffffffffffffffffffffffffffffffffffffffffffff8110156109555781811015610945578281836040517ffb8f41b200000000000000000000000000000000000000000000000000000000815260040161093c93929190611dd0565b60405180910390fd5b61095484848484036000610b9c565b5b50505050565b600073ffffffffffffffffffffffffffffffffffffffff168373ffffffffffffffffffffffffffffffffffffffff16036109cd5760006040517f96c6fd1e0000000000000000000000000000000000000000000000000000000081526004016109c49190611a38565b60405180910390fd5b600073ffffffffffffffffffffffffffffffffffffffff168273ffffffffffffffffffffffffffffffffffffffff1603610a3f5760006040517fec442f05000000000000000000000000000000000000000000000000000000008152600401610a369190611a38565b60405180910390fd5b610a4a838383610d73565b505050565b610a576108ac565b73ffffffffffffffffffffffffffffffffffffffff16610a75610559565b73ffffffffffffffffffffffffffffffffffffffff1614610ad457610a986108ac565b6040517f118cdaa7000000000000000000000000000000000000000000000000000000008152600401610acb9190611a38565b60405180910390fd5b565b6000600560009054906101000a900473ffffffffffffffffffffffffffffffffffffffff16905081600560006101000a81548173ffffffffffffffffffffffffffffffffffffffff021916908373ffffffffffffffffffffffffffffffffffffffff1602179055508173ffffffffffffffffffffffffffffffffffffffff168173ffffffffffffffffffffffffffffffffffffffff167f8be0079c531659141344cd1fd0a4f28419497f9722a3daafe3b4186f6b6457e060405160405180910390a35050565b600073ffffffffffffffffffffffffffffffffffffffff168473ffffffffffffffffffffffffffffffffffffffff1603610c0e5760006040517fe602df05000000000000000000000000000000000000000000000000000000008152600401610c059190611a38565b60405180910390fd5b600073ffffffffffffffffffffffffffffffffffffffff168373ffffffffffffffffffffffffffffffffffffffff1603610c805760006040517f94280d62000000000000000000000000000000000000000000000000000000008152600401610c779190611a38565b60405180910390fd5b81600160008673ffffffffffffffffffffffffffffffffffffffff1673ffffffffffffffffffffffffffffffffffffffff16815260200190815260200160002060008573ffffffffffffffffffffffffffffffffffffffff1673ffffffffffffffffffffffffffffffffffffffff168152602001908152602001600020819055508015610d6d578273ffffffffffffffffffffffffffffffffffffffff168473ffffffffffffffffffffffffffffffffffffffff167f8c5be1e5ebec7d5bd14f71427d1e84f3dd0314c0f7b2291e5b200ac8c7c3b92584604051610d6491906119bb565b60405180910390a35b50505050565b600073ffffffffffffffffffffffffffffffffffffffff168373ffffffffffffffffffffffffffffffffffffffff161480610dda5750600073ffffffffffffffffffffffffffffffffffffffff168273ffffffffffffffffffffffffffffffffffffffff16145b15610def57610dea838383611133565b61112e565b600860008473ffffffffffffffffffffffffffffffffffffffff1673ffffffffffffffffffffffffffffffffffffffff16815260200190815260200160002060009054906101000a900460ff1680610e905750600860008373ffffffffffffffffffffffffffffffffffffffff1673ffffffffffffffffffffffffffffffffffffffff16815260200190815260200160002060009054906101000a900460ff165b15610ea557610ea0838383611133565b61112e565b6000610eaf611358565b509050808015610f0c5750600760009054906101000a900473ffffffffffffffffffffffffffffffffffffffff1673ffffffffffffffffffffffffffffffffffffffff168373ffffffffffffffffffffffffffffffffffffffff16145b15610f2257610f1c848484611133565b5061112e565b506000610f2d611595565b50509050808015610f8b5750600760009054906101000a900473ffffffffffffffffffffffffffffffffffffffff1673ffffffffffffffffffffffffffffffffffffffff168473ffffffffffffffffffffffffffffffffffffffff16145b15610fa157610f9b848484611133565b5061112e565b50600760009054906101000a900473ffffffffffffffffffffffffffffffffffffffff1673ffffffffffffffffffffffffffffffffffffffff168373ffffffffffffffffffffffffffffffffffffffff1603611032576040517f08c379a000000000000000000000000000000000000000000000000000000000815260040161102990611e53565b60405180910390fd5b600760009054906101000a900473ffffffffffffffffffffffffffffffffffffffff1673ffffffffffffffffffffffffffffffffffffffff168273ffffffffffffffffffffffffffffffffffffffff16036110f357600060646014836110989190611ea2565b6110a29190611f13565b9050600081836110b29190611f44565b90506110e185600960009054906101000a900473ffffffffffffffffffffffffffffffffffffffff1684611133565b6110ec858583611133565b505061112e565b6040517f08c379a000000000000000000000000000000000000000000000000000000000815260040161112590611fc4565b60405180910390fd5b505050565b600073ffffffffffffffffffffffffffffffffffffffff168373ffffffffffffffffffffffffffffffffffffffff16036111855780600260008282546111799190611fe4565b92505081905550611258565b60008060008573ffffffffffffffffffffffffffffffffffffffff1673ffffffffffffffffffffffffffffffffffffffff16815260200190815260200160002054905081811015611211578381836040517fe450d38c00000000000000000000000000000000000000000000000000000000815260040161120893929190611dd0565b60405180910390fd5b8181036000808673ffffffffffffffffffffffffffffffffffffffff1673ffffffffffffffffffffffffffffffffffffffff16815260200190815260200160002081905550505b600073ffffffffffffffffffffffffffffffffffffffff168273ffffffffffffffffffffffffffffffffffffffff16036112a157806002600082825403925050819055506112ee565b806000808473ffffffffffffffffffffffffffffffffffffffff1673ffffffffffffffffffffffffffffffffffffffff168152602001908152602001600020600082825401925050819055505b8173ffffffffffffffffffffffffffffffffffffffff168373ffffffffffffffffffffffffffffffffffffffff167fddf252ad1be2c89b69c2b068fc378daa952ba7f163c4a11628f55a4df523b3ef8360405161134b91906119bb565b60405180910390a3505050565b6000806000600760009054906101000a900473ffffffffffffffffffffffffffffffffffffffff1673ffffffffffffffffffffffffffffffffffffffff16630dfe16816040518163ffffffff1660e01b8152600401602060405180830381865afa1580156113ca573d6000803e3d6000fd5b505050506040513d601f19601f820116820180604052508101906113ee919061202d565b90506000600760009054906101000a900473ffffffffffffffffffffffffffffffffffffffff1673ffffffffffffffffffffffffffffffffffffffff16630902f1ac6040518163ffffffff1660e01b8152600401606060405180830381865afa15801561145f573d6000803e3d6000fd5b505050506040513d601f19601f8201168201806040525081019061148391906120dc565b50506dffffffffffffffffffffffffffff16905060008273ffffffffffffffffffffffffffffffffffffffff166370a08231600760009054906101000a900473ffffffffffffffffffffffffffffffffffffffff166040518263ffffffff1660e01b81526004016114f49190611a38565b602060405180830381865afa158015611511573d6000803e3d6000fd5b505050506040513d601f19601f820116820180604052508101906115359190612144565b90503073ffffffffffffffffffffffffffffffffffffffff168373ffffffffffffffffffffffffffffffffffffffff161461158e578181111561158d57818161157e9190611f44565b935066038d7ea4c68000841194505b5b5050509091565b600080600080600760009054906101000a900473ffffffffffffffffffffffffffffffffffffffff1673ffffffffffffffffffffffffffffffffffffffff16630dfe16816040518163ffffffff1660e01b8152600401602060405180830381865afa158015611608573d6000803e3d6000fd5b505050506040513d601f19601f8201168201806040525081019061162c919061202d565b90506000600760009054906101000a900473ffffffffffffffffffffffffffffffffffffffff1673ffffffffffffffffffffffffffffffffffffffff16630902f1ac6040518163ffffffff1660e01b8152600401606060405180830381865afa15801561169d573d6000803e3d6000fd5b505050506040513d601f19601f820116820180604052508101906116c191906120dc565b50506dffffffffffffffffffffffffffff16905060008273ffffffffffffffffffffffffffffffffffffffff166370a08231600760009054906101000a900473ffffffffffffffffffffffffffffffffffffffff166040518263ffffffff1660e01b81526004016117329190611a38565b602060405180830381865afa15801561174f573d6000803e3d6000fd5b505050506040513d601f19601f820116820180604052508101906117739190612144565b90503073ffffffffffffffffffffffffffffffffffffffff168373ffffffffffffffffffffffffffffffffffffffff16146117d457808211156117cd5780826117bc9190611f44565b93506402540be400841195506117d3565b80821494505b5b505050909192565b600081519050919050565b600082825260208201905092915050565b60005b838110156118165780820151818401526020810190506117fb565b60008484015250505050565b6000601f19601f8301169050919050565b600061183e826117dc565b61184881856117e7565b93506118588185602086016117f8565b61186181611822565b840191505092915050565b600060208201905081810360008301526118868184611833565b905092915050565b6000604051905090565b600080fd5b600080fd5b600073ffffffffffffffffffffffffffffffffffffffff82169050919050565b60006118cd826118a2565b9050919050565b6118dd816118c2565b81146118e857600080fd5b50565b6000813590506118fa816118d4565b92915050565b6000819050919050565b61191381611900565b811461191e57600080fd5b50565b6000813590506119308161190a565b92915050565b6000806040838503121561194d5761194c611898565b5b600061195b858286016118eb565b925050602061196c85828601611921565b9150509250929050565b60008115159050919050565b61198b81611976565b82525050565b60006020820190506119a66000830184611982565b92915050565b6119b581611900565b82525050565b60006020820190506119d060008301846119ac565b92915050565b6000806000606084860312156119ef576119ee611898565b5b60006119fd868287016118eb565b9350506020611a0e868287016118eb565b9250506040611a1f86828701611921565b9150509250925092565b611a32816118c2565b82525050565b6000602082019050611a4d6000830184611a29565b92915050565b600060ff82169050919050565b611a6981611a53565b82525050565b6000602082019050611a846000830184611a60565b92915050565b600060208284031215611aa057611a9f611898565b5b6000611aae848285016118eb565b91505092915050565b6000819050919050565b6000611adc611ad7611ad2846118a2565b611ab7565b6118a2565b9050919050565b6000611aee82611ac1565b9050919050565b6000611b0082611ae3565b9050919050565b611b1081611af5565b82525050565b6000602082019050611b2b6000830184611b07565b92915050565b60008060408385031215611b4857611b47611898565b5b6000611b56858286016118eb565b9250506020611b67858286016118eb565b9150509250929050565b600080fd5b7f4e487b7100000000000000000000000000000000000000000000000000000000600052604160045260246000fd5b611bae82611822565b810181811067ffffffffffffffff82111715611bcd57611bcc611b76565b5b80604052505050565b6000611be061188e565b9050611bec8282611ba5565b919050565b600067ffffffffffffffff821115611c0c57611c0b611b76565b5b602082029050602081019050919050565b600080fd5b6000611c35611c3084611bf1565b611bd6565b90508083825260208201905060208402830185811115611c5857611c57611c1d565b5b835b81811015611c815780611c6d88826118eb565b845260208401935050602081019050611c5a565b5050509392505050565b600082601f830112611ca057611c9f611b71565b5b8135611cb0848260208601611c22565b91505092915050565b611cc281611976565b8114611ccd57600080fd5b50565b600081359050611cdf81611cb9565b92915050565b60008060408385031215611cfc57611cfb611898565b5b600083013567ffffffffffffffff811115611d1a57611d1961189d565b5b611d2685828601611c8b565b9250506020611d3785828601611cd0565b9150509250929050565b7f4e487b7100000000000000000000000000000000000000000000000000000000600052602260045260246000fd5b60006002820490506001821680611d8857607f821691505b602082108103611d9b57611d9a611d41565b5b50919050565b7f4e487b7100000000000000000000000000000000000000000000000000000000600052603260045260246000fd5b6000606082019050611de56000830186611a29565b611df260208301856119ac565b611dff60408301846119ac565b949350505050565b7f4275792064697361626c65640000000000000000000000000000000000000000600082015250565b6000611e3d600c836117e7565b9150611e4882611e07565b602082019050919050565b60006020820190508181036000830152611e6c81611e30565b9050919050565b7f4e487b7100000000000000000000000000000000000000000000000000000000600052601160045260246000fd5b6000611ead82611900565b9150611eb883611900565b9250828202611ec681611900565b91508282048414831517611edd57611edc611e73565b5b5092915050565b7f4e487b7100000000000000000000000000000000000000000000000000000000600052601260045260246000fd5b6000611f1e82611900565b9150611f2983611900565b925082611f3957611f38611ee4565b5b828204905092915050565b6000611f4f82611900565b9150611f5a83611900565b9250828203905081811115611f7257611f71611e73565b5b92915050565b7f5472616e73666572732064697361626c65640000000000000000000000000000600082015250565b6000611fae6012836117e7565b9150611fb982611f78565b602082019050919050565b60006020820190508181036000830152611fdd81611fa1565b9050919050565b6000611fef82611900565b9150611ffa83611900565b925082820190508082111561201257612011611e73565b5b92915050565b600081519050612027816118d4565b92915050565b60006020828403121561204357612042611898565b5b600061205184828501612018565b91505092915050565b60006dffffffffffffffffffffffffffff82169050919050565b61207d8161205a565b811461208857600080fd5b50565b60008151905061209a81612074565b92915050565b600063ffffffff82169050919050565b6120b9816120a0565b81146120c457600080fd5b50565b6000815190506120d6816120b0565b92915050565b6000806000606084860312156120f5576120f4611898565b5b60006121038682870161208b565b93505060206121148682870161208b565b9250506040612125868287016120c7565b9150509250925092565b60008151905061213e8161190a565b92915050565b60006020828403121561215a57612159611898565b5b60006121688482850161212f565b9150509291505056fea2646970667358221220aa8cdaa7c59d1e9e204fea6bedc7d2ee855ab615c90d8c368d865733d329cc3c64736f6c63430008160033","linkReferences":{}},"methodIdentifiers":{"ADX()":"dcea0a64","SELL_TAX_RATE()":"504deacd","allowance(address,address)":"dd62ed3e","allowlist(address)":"a7cd52cb","approve(address,uint256)":"095ea7b3","balanceOf(address)":"70a08231","decimals()":"313ce567","name()":"06fdde03","owner()":"8da5cb5b","pancakePair()":"b8c9d25c","pancakeRouter()":"c21ebd07","renounceOwnership()":"715018a6","sellFee()":"2b14ca56","setAllowlist(address[],bool)":"f01fe7c4","setSellFee(address)":"fe59b1eb","symbol()":"95d89b41","totalSupply()":"18160ddd","transfer(address,uint256)":"a9059cbb","transferFrom(address,address,uint256)":"23b872dd","transferOwnership(address)":"f2fde38b"},"id":47}