{"abi":[{"type":"constructor","inputs":[{"name":"_initialRecipient","type":"address","internalType":"address"},{"name":"_marketing","type":"address","internalType":"address"},{"name":"_wallet","type":"address","internalType":"address"}],"stateMutability":"nonpayable"},{"type":"function","name":"DEAD","inputs":[],"outputs":[{"name":"","type":"address","internalType":"address"}],"stateMutability":"view"},{"type":"function","name":"PROFIT_MARKET_TAX_RATE","inputs":[],"outputs":[{"name":"","type":"uint256","internalType":"uint256"}],"stateMutability":"view"},{"type":"function","name":"PROFIT_NODE_TAX_RATE","inputs":[],"outputs":[{"name":"","type":"uint256","internalType":"uint256"}],"stateMutability":"view"},{"type":"function","name":"PROFIT_WALLET_TAX_RATE","inputs":[],"outputs":[{"name":"","type":"uint256","internalType":"uint256"}],"stateMutability":"view"},{"type":"function","name":"SWAP_DEAD_FEE_RATE","inputs":[],"outputs":[{"name":"","type":"uint256","internalType":"uint256"}],"stateMutability":"view"},{"type":"function","name":"SWAP_NODE_FEE_RATE","inputs":[],"outputs":[{"name":"","type":"uint256","internalType":"uint256"}],"stateMutability":"view"},{"type":"function","name":"USDT","inputs":[],"outputs":[{"name":"","type":"address","internalType":"address"}],"stateMutability":"view"},{"type":"function","name":"allowance","inputs":[{"name":"owner","type":"address","internalType":"address"},{"name":"spender","type":"address","internalType":"address"}],"outputs":[{"name":"","type":"uint256","internalType":"uint256"}],"stateMutability":"view"},{"type":"function","name":"allowlist","inputs":[{"name":"","type":"address","internalType":"address"}],"outputs":[{"name":"","type":"bool","internalType":"bool"}],"stateMutability":"view"},{"type":"function","name":"approve","inputs":[{"name":"spender","type":"address","internalType":"address"},{"name":"value","type":"uint256","internalType":"uint256"}],"outputs":[{"name":"","type":"bool","internalType":"bool"}],"stateMutability":"nonpayable"},{"type":"function","name":"averagePriceOf","inputs":[{"name":"user","type":"address","internalType":"address"}],"outputs":[{"name":"","type":"uint256","internalType":"uint256"}],"stateMutability":"view"},{"type":"function","name":"balanceOf","inputs":[{"name":"account","type":"address","internalType":"address"}],"outputs":[{"name":"","type":"uint256","internalType":"uint256"}],"stateMutability":"view"},{"type":"function","name":"currentPrice","inputs":[],"outputs":[{"name":"","type":"uint256","internalType":"uint256"}],"stateMutability":"view"},{"type":"function","name":"decimals","inputs":[],"outputs":[{"name":"","type":"uint8","internalType":"uint8"}],"stateMutability":"view"},{"type":"function","name":"getAmountOut","inputs":[{"name":"amountToken","type":"uint256","internalType":"uint256"}],"outputs":[{"name":"","type":"uint256","internalType":"uint256"}],"stateMutability":"view"},{"type":"function","name":"getProfitTaxToken","inputs":[{"name":"from","type":"address","internalType":"address"},{"name":"amountToken","type":"uint256","internalType":"uint256"}],"outputs":[{"name":"taxToken","type":"uint256","internalType":"uint256"}],"stateMutability":"view"},{"type":"function","name":"marketing","inputs":[],"outputs":[{"name":"","type":"address","internalType":"address"}],"stateMutability":"view"},{"type":"function","name":"name","inputs":[],"outputs":[{"name":"","type":"string","internalType":"string"}],"stateMutability":"view"},{"type":"function","name":"nodeDividends","inputs":[],"outputs":[{"name":"","type":"address","internalType":"address"}],"stateMutability":"view"},{"type":"function","name":"owner","inputs":[],"outputs":[{"name":"","type":"address","internalType":"address"}],"stateMutability":"view"},{"type":"function","name":"pancakePair","inputs":[],"outputs":[{"name":"","type":"address","internalType":"address"}],"stateMutability":"view"},{"type":"function","name":"pancakeRouter","inputs":[],"outputs":[{"name":"","type":"address","internalType":"contract IUniswapV2Router02"}],"stateMutability":"view"},{"type":"function","name":"pause","inputs":[],"outputs":[{"name":"","type":"bool","internalType":"bool"}],"stateMutability":"view"},{"type":"function","name":"renounceOwnership","inputs":[],"outputs":[],"stateMutability":"nonpayable"},{"type":"function","name":"setAllowlist","inputs":[{"name":"addrs","type":"address[]","internalType":"address[]"},{"name":"isAllow","type":"bool","internalType":"bool"}],"outputs":[],"stateMutability":"nonpayable"},{"type":"function","name":"setNodeDividends","inputs":[{"name":"_nodeDividends","type":"address","internalType":"address"}],"outputs":[],"stateMutability":"nonpayable"},{"type":"function","name":"setPause","inputs":[{"name":"isPause","type":"bool","internalType":"bool"}],"outputs":[],"stateMutability":"nonpayable"},{"type":"function","name":"symbol","inputs":[],"outputs":[{"name":"","type":"string","internalType":"string"}],"stateMutability":"view"},{"type":"function","name":"totalCostUsdt","inputs":[{"name":"","type":"address","internalType":"address"}],"outputs":[{"name":"","type":"uint256","internalType":"uint256"}],"stateMutability":"view"},{"type":"function","name":"totalSupply","inputs":[],"outputs":[{"name":"","type":"uint256","internalType":"uint256"}],"stateMutability":"view"},{"type":"function","name":"transfer","inputs":[{"name":"to","type":"address","internalType":"address"},{"name":"value","type":"uint256","internalType":"uint256"}],"outputs":[{"name":"","type":"bool","internalType":"bool"}],"stateMutability":"nonpayable"},{"type":"function","name":"transferFrom","inputs":[{"name":"from","type":"address","internalType":"address"},{"name":"to","type":"address","internalType":"address"},{"name":"value","type":"uint256","internalType":"uint256"}],"outputs":[{"name":"","type":"bool","internalType":"bool"}],"stateMutability":"nonpayable"},{"type":"function","name":"transferOwnership","inputs":[{"name":"newOwner","type":"address","internalType":"address"}],"outputs":[],"stateMutability":"nonpayable"},{"type":"function","name":"wallet","inputs":[],"outputs":[{"name":"","type":"address","internalType":"address"}],"stateMutability":"view"},{"type":"event","name":"Approval","inputs":[{"name":"owner","type":"address","indexed":true,"internalType":"address"},{"name":"spender","type":"address","indexed":true,"internalType":"address"},{"name":"value","type":"uint256","indexed":false,"internalType":"uint256"}],"anonymous":false},{"type":"event","name":"OwnershipTransferred","inputs":[{"name":"previousOwner","type":"address","indexed":true,"internalType":"address"},{"name":"newOwner","type":"address","indexed":true,"internalType":"address"}],"anonymous":false},{"type":"event","name":"SwapAndSendTax","inputs":[{"name":"recipient","type":"address","indexed":false,"internalType":"address"},{"name":"tokensSwapped","type":"uint256","indexed":false,"internalType":"uint256"}],"anonymous":false},{"type":"event","name":"Transfer","inputs":[{"name":"from","type":"address","indexed":true,"internalType":"address"},{"name":"to","type":"address","indexed":true,"internalType":"address"},{"name":"value","type":"uint256","indexed":false,"internalType":"uint256"}],"anonymous":false},{"type":"error","name":"ERC20InsufficientAllowance","inputs":[{"name":"spender","type":"address","internalType":"address"},{"name":"allowance","type":"uint256","internalType":"uint256"},{"name":"needed","type":"uint256","internalType":"uint256"}]},{"type":"error","name":"ERC20InsufficientBalance","inputs":[{"name":"sender","type":"address","internalType":"address"},{"name":"balance","type":"uint256","internalType":"uint256"},{"name":"needed","type":"uint256","internalType":"uint256"}]},{"type":"error","name":"ERC20InvalidApprover","inputs":[{"name":"approver","type":"address","internalType":"address"}]},{"type":"error","name":"ERC20InvalidReceiver","inputs":[{"name":"receiver","type":"address","internalType":"address"}]},{"type":"error","name":"ERC20InvalidSender","inputs":[{"name":"sender","type":"address","internalType":"address"}]},{"type":"error","name":"ERC20InvalidSpender","inputs":[{"name":"spender","type":"address","internalType":"address"}]},{"type":"error","name":"OwnableInvalidOwner","inputs":[{"name":"owner","type":"address","internalType":"address"}]},{"type":"error","name":"OwnableUnauthorizedAccount","inputs":[{"name":"account","type":"address","internalType":"address"}]}],"bytecode":{"object":"0x60806040527310ed43c718714eb63d5aa57b78b54704e256024e60065f6101000a81548173ffffffffffffffffffffffffffffffffffffffff021916908373ffffffffffffffffffffffffffffffffffffffff1602179055506001600a60156101000a81548160ff02191690831515021790555034801561007e575f5ffd5b5060405161578238038061578283398181016040528101906100a09190611da9565b336040518060400160405280600381526020017f444a5300000000000000000000000000000000000000000000000000000000008152506040518060400160405280600481526020017f444a534300000000000000000000000000000000000000000000000000000000815250816003908161011c9190612036565b50806004908161012c9190612036565b5050505f73ffffffffffffffffffffffffffffffffffffffff168173ffffffffffffffffffffffffffffffffffffffff160361019f575f6040517f1e4fbdf70000000000000000000000000000000000000000000000000000000081526004016101969190612114565b60405180910390fd5b6101ae816104ab60201b60201c565b506101c98369152d02c7e14af680000061056e60201b60201c565b60065f9054906101000a900473ffffffffffffffffffffffffffffffffffffffff1673ffffffffffffffffffffffffffffffffffffffff1663c45a01556040518163ffffffff1660e01b8152600401602060405180830381865afa158015610233573d5f5f3e3d5ffd5b505050506040513d601f19601f82011682018060405250810190610257919061212d565b73ffffffffffffffffffffffffffffffffffffffff1663c9c65396307355d398326f99059ff775485246999027b31979556040518363ffffffff1660e01b81526004016102a5929190612158565b6020604051808303815f875af11580156102c1573d5f5f3e3d5ffd5b505050506040513d601f19601f820116820180604052508101906102e5919061212d565b60075f6101000a81548173ffffffffffffffffffffffffffffffffffffffff021916908373ffffffffffffffffffffffffffffffffffffffff1602179055506001600b5f8573ffffffffffffffffffffffffffffffffffffffff1673ffffffffffffffffffffffffffffffffffffffff1681526020019081526020015f205f6101000a81548160ff0219169083151502179055506001600b5f8473ffffffffffffffffffffffffffffffffffffffff1673ffffffffffffffffffffffffffffffffffffffff1681526020019081526020015f205f6101000a81548160ff0219169083151502179055506001600b5f8373ffffffffffffffffffffffffffffffffffffffff1673ffffffffffffffffffffffffffffffffffffffff1681526020019081526020015f205f6101000a81548160ff0219169083151502179055508160085f6101000a81548173ffffffffffffffffffffffffffffffffffffffff021916908373ffffffffffffffffffffffffffffffffffffffff16021790555080600a5f6101000a81548173ffffffffffffffffffffffffffffffffffffffff021916908373ffffffffffffffffffffffffffffffffffffffff16021790555050505061274a565b5f60055f9054906101000a900473ffffffffffffffffffffffffffffffffffffffff1690508160055f6101000a81548173ffffffffffffffffffffffffffffffffffffffff021916908373ffffffffffffffffffffffffffffffffffffffff1602179055508173ffffffffffffffffffffffffffffffffffffffff168173ffffffffffffffffffffffffffffffffffffffff167f8be0079c531659141344cd1fd0a4f28419497f9722a3daafe3b4186f6b6457e060405160405180910390a35050565b5f73ffffffffffffffffffffffffffffffffffffffff168273ffffffffffffffffffffffffffffffffffffffff16036105de575f6040517fec442f050000000000000000000000000000000000000000000000000000000081526004016105d59190612114565b60405180910390fd5b6105ef5f83836105f360201b60201c565b5050565b600a60149054906101000a900460ff168061063957505f73ffffffffffffffffffffffffffffffffffffffff168373ffffffffffffffffffffffffffffffffffffffff16145b8061066f57505f73ffffffffffffffffffffffffffffffffffffffff168273ffffffffffffffffffffffffffffffffffffffff16145b806106c05750600b5f8473ffffffffffffffffffffffffffffffffffffffff1673ffffffffffffffffffffffffffffffffffffffff1681526020019081526020015f205f9054906101000a900460ff165b806107115750600b5f8373ffffffffffffffffffffffffffffffffffffffff1673ffffffffffffffffffffffffffffffffffffffff1681526020019081526020015f205f9054906101000a900460ff165b1561072c576107278383836109ff60201b60201c565b6109fa565b5f60075f9054906101000a900473ffffffffffffffffffffffffffffffffffffffff1673ffffffffffffffffffffffffffffffffffffffff168473ffffffffffffffffffffffffffffffffffffffff161490505f60075f9054906101000a900473ffffffffffffffffffffffffffffffffffffffff1673ffffffffffffffffffffffffffffffffffffffff168473ffffffffffffffffffffffffffffffffffffffff1614905081156107ef576107e88484610c1860201b60201c565b50506109fa565b801561080c576108058584610d0660201b60201c565b50506109fa565b5f61081c30610ff760201b60201c565b90505f811115610836576108358161103c60201b60201c565b5b5f61084687610ff760201b60201c565b90505f600c5f8973ffffffffffffffffffffffffffffffffffffffff1673ffffffffffffffffffffffffffffffffffffffff1681526020019081526020015f2054905061089a8888886109ff60201b60201c565b5f811180156108a857505f82115b156109f4575f8287836108bb91906121ac565b6108c5919061221a565b905080826108d3919061224a565b600c5f8b73ffffffffffffffffffffffffffffffffffffffff1673ffffffffffffffffffffffffffffffffffffffff1681526020019081526020015f2081905550620f4240600c5f8b73ffffffffffffffffffffffffffffffffffffffff1673ffffffffffffffffffffffffffffffffffffffff1681526020019081526020015f2054101561099f575f600c5f8b73ffffffffffffffffffffffffffffffffffffffff1673ffffffffffffffffffffffffffffffffffffffff1681526020019081526020015f20819055505b80600c5f8a73ffffffffffffffffffffffffffffffffffffffff1673ffffffffffffffffffffffffffffffffffffffff1681526020019081526020015f205f8282546109eb919061227d565b92505081905550505b50505050505b505050565b5f73ffffffffffffffffffffffffffffffffffffffff168373ffffffffffffffffffffffffffffffffffffffff1603610a4f578060025f828254610a43919061227d565b92505081905550610b1d565b5f5f5f8573ffffffffffffffffffffffffffffffffffffffff1673ffffffffffffffffffffffffffffffffffffffff1681526020019081526020015f2054905081811015610ad8578381836040517fe450d38c000000000000000000000000000000000000000000000000000000008152600401610acf939291906122bf565b60405180910390fd5b8181035f5f8673ffffffffffffffffffffffffffffffffffffffff1673ffffffffffffffffffffffffffffffffffffffff1681526020019081526020015f2081905550505b5f73ffffffffffffffffffffffffffffffffffffffff168273ffffffffffffffffffffffffffffffffffffffff1603610b64578060025f8282540392505081905550610bae565b805f5f8473ffffffffffffffffffffffffffffffffffffffff1673ffffffffffffffffffffffffffffffffffffffff1681526020019081526020015f205f82825401925050819055505b8173ffffffffffffffffffffffffffffffffffffffff168373ffffffffffffffffffffffffffffffffffffffff167fddf252ad1be2c89b69c2b068fc378daa952ba7f163c4a11628f55a4df523b3ef83604051610c0b91906122f4565b60405180910390a3505050565b600a60159054906101000a900460ff1615610c68576040517f08c379a0000000000000000000000000000000000000000000000000000000008152600401610c5f90612367565b60405180910390fd5b5f6064600283610c7891906121ac565b610c82919061221a565b90505f6064600384610c9491906121ac565b610c9e919061221a565b90505f818385610cae919061224a565b610cb8919061224a565b9050610cca858261119060201b60201c565b610cdb8530846109ff60201b60201c565b610cee8561dead856109ff60201b60201c565b610cff8586836109ff60201b60201c565b5050505050565b600a60159054906101000a900460ff1615610d56576040517f08c379a0000000000000000000000000000000000000000000000000000000008152600401610d4d90612367565b60405180910390fd5b5f610d6683610ff760201b60201c565b90505f6064600284610d7891906121ac565b610d82919061221a565b90505f6064600385610d9491906121ac565b610d9e919061221a565b90505f818386610dae919061224a565b610db8919061224a565b90505f610dcb878361121c60201b60201c565b90505f811115610df657610de68730836109ff60201b60201c565b610df5816112f960201b60201c565b5b610e078730856109ff60201b60201c565b610e1a8761dead866109ff60201b60201c565b610e578760075f9054906101000a900473ffffffffffffffffffffffffffffffffffffffff168385610e4c919061224a565b6109ff60201b60201c565b5f610e6788610ff760201b60201c565b90505f8103610eb7575f600c5f8a73ffffffffffffffffffffffffffffffffffffffff1673ffffffffffffffffffffffffffffffffffffffff1681526020019081526020015f2081905550610fed565b5f600c5f8a73ffffffffffffffffffffffffffffffffffffffff1673ffffffffffffffffffffffffffffffffffffffff1681526020019081526020015f205490505f878983610f0691906121ac565b610f10919061221a565b90508082610f1e919061224a565b600c5f8c73ffffffffffffffffffffffffffffffffffffffff1673ffffffffffffffffffffffffffffffffffffffff1681526020019081526020015f2081905550620f4240600c5f8c73ffffffffffffffffffffffffffffffffffffffff1673ffffffffffffffffffffffffffffffffffffffff1681526020019081526020015f20541015610fea575f600c5f8c73ffffffffffffffffffffffffffffffffffffffff1673ffffffffffffffffffffffffffffffffffffffff1681526020019081526020015f20819055505b50505b5050505050505050565b5f5f5f8373ffffffffffffffffffffffffffffffffffffffff1673ffffffffffffffffffffffffffffffffffffffff1681526020019081526020015f20549050919050565b5f73ffffffffffffffffffffffffffffffffffffffff1660095f9054906101000a900473ffffffffffffffffffffffffffffffffffffffff1673ffffffffffffffffffffffffffffffffffffffff161461115b576110c18160095f9054906101000a900473ffffffffffffffffffffffffffffffffffffffff166114fc60201b60201c565b60095f9054906101000a900473ffffffffffffffffffffffffffffffffffffffff1673ffffffffffffffffffffffffffffffffffffffff1663cc430ced61110d8361174460201b60201c565b6040518263ffffffff1660e01b815260040161112991906122f4565b5f604051808303815f87803b158015611140575f5ffd5b505af1158015611152573d5f5f3e3d5ffd5b5050505061118d565b61118c81600a5f9054906101000a900473ffffffffffffffffffffffffffffffffffffffff166114fc60201b60201c565b5b50565b5f61119f61190960201b60201c565b90505f670de0b6b3a764000083836111b791906121ac565b6111c1919061221a565b905080600c5f8673ffffffffffffffffffffffffffffffffffffffff1673ffffffffffffffffffffffffffffffffffffffff1681526020019081526020015f205f82825461120f919061227d565b9250508190555050505050565b5f5f820361122c575f90506112f3565b5f61123c84611acf60201b60201c565b90505f810361124e575f9150506112f3565b5f61125d61190960201b60201c565b9050818111611270575f925050506112f3565b5f6014806014611280919061227d565b61128a919061227d565b90505f82848461129a919061224a565b876112a591906121ac565b6112af919061221a565b9050606482826112bf91906121ac565b6112c9919061221a565b9450858511156112ee57606482876112e191906121ac565b6112eb919061221a565b94505b505050505b92915050565b611342606460148361130b91906121ac565b611315919061221a565b60085f9054906101000a900473ffffffffffffffffffffffffffffffffffffffff166114fc60201b60201c565b61138b606460148361135491906121ac565b61135e919061221a565b600a5f9054906101000a900473ffffffffffffffffffffffffffffffffffffffff166114fc60201b60201c565b5f606460148361139b91906121ac565b6113a5919061221a565b90505f73ffffffffffffffffffffffffffffffffffffffff1660095f9054906101000a900473ffffffffffffffffffffffffffffffffffffffff1673ffffffffffffffffffffffffffffffffffffffff16146114c65761142c8160095f9054906101000a900473ffffffffffffffffffffffffffffffffffffffff166114fc60201b60201c565b60095f9054906101000a900473ffffffffffffffffffffffffffffffffffffffff1673ffffffffffffffffffffffffffffffffffffffff1663cc430ced6114788361174460201b60201c565b6040518263ffffffff1660e01b815260040161149491906122f4565b5f604051808303815f87803b1580156114ab575f5ffd5b505af11580156114bd573d5f5f3e3d5ffd5b505050506114f8565b6114f781600a5f9054906101000a900473ffffffffffffffffffffffffffffffffffffffff166114fc60201b60201c565b5b5050565b5f820315611740576001600a60146101000a81548160ff0219169083151502179055505f600267ffffffffffffffff81111561153b5761153a611e03565b5b6040519080825280602002602001820160405280156115695781602001602082028036833780820191505090505b50905030815f815181106115805761157f612385565b5b602002602001019073ffffffffffffffffffffffffffffffffffffffff16908173ffffffffffffffffffffffffffffffffffffffff16815250507355d398326f99059ff775485246999027b3197955816001815181106115e3576115e2612385565b5b602002602001019073ffffffffffffffffffffffffffffffffffffffff16908173ffffffffffffffffffffffffffffffffffffffff168152505061164f3060065f9054906101000a900473ffffffffffffffffffffffffffffffffffffffff1685611b5760201b60201c565b60065f9054906101000a900473ffffffffffffffffffffffffffffffffffffffff1673ffffffffffffffffffffffffffffffffffffffff16635c11d795845f8486601e4261169d919061227d565b6040518663ffffffff1660e01b81526004016116bd9594939291906124a2565b5f604051808303815f87803b1580156116d4575f5ffd5b505af19250505080156116e5575060015b15611724577faedb4dc54dc30d46d331ffcc44cd836607bea96c12e1b21a95210ed899184d04828460405161171b9291906124fa565b60405180910390a15b5f600a60146101000a81548160ff021916908315150217905550505b5050565b5f5f600267ffffffffffffffff81111561176157611760611e03565b5b60405190808252806020026020018201604052801561178f5781602001602082028036833780820191505090505b50905030815f815181106117a6576117a5612385565b5b602002602001019073ffffffffffffffffffffffffffffffffffffffff16908173ffffffffffffffffffffffffffffffffffffffff16815250507355d398326f99059ff775485246999027b31979558160018151811061180957611808612385565b5b602002602001019073ffffffffffffffffffffffffffffffffffffffff16908173ffffffffffffffffffffffffffffffffffffffff16815250505f60065f9054906101000a900473ffffffffffffffffffffffffffffffffffffffff1673ffffffffffffffffffffffffffffffffffffffff1663d06ca61f85846040518363ffffffff1660e01b81526004016118a0929190612521565b5f60405180830381865afa1580156118ba573d5f5f3e3d5ffd5b505050506040513d5f823e3d601f19601f820116820180604052508101906118e2919061269c565b9050806001815181106118f8576118f7612385565b5b602002602001015192505050919050565b5f5f600267ffffffffffffffff81111561192657611925611e03565b5b6040519080825280602002602001820160405280156119545781602001602082028036833780820191505090505b50905030815f8151811061196b5761196a612385565b5b602002602001019073ffffffffffffffffffffffffffffffffffffffff16908173ffffffffffffffffffffffffffffffffffffffff16815250507355d398326f99059ff775485246999027b3197955816001815181106119ce576119cd612385565b5b602002602001019073ffffffffffffffffffffffffffffffffffffffff16908173ffffffffffffffffffffffffffffffffffffffff168152505060065f9054906101000a900473ffffffffffffffffffffffffffffffffffffffff1673ffffffffffffffffffffffffffffffffffffffff1663d06ca61f670de0b6b3a7640000836040518363ffffffff1660e01b8152600401611a6c92919061271c565b5f60405180830381865afa158015611a86573d5f5f3e3d5ffd5b505050506040513d5f823e3d601f19601f82011682018060405250810190611aae919061269c565b600181518110611ac157611ac0612385565b5b602002602001015191505090565b5f5f611ae083610ff760201b60201c565b90505f8103611af2575f915050611b52565b80670de0b6b3a7640000600c5f8673ffffffffffffffffffffffffffffffffffffffff1673ffffffffffffffffffffffffffffffffffffffff1681526020019081526020015f2054611b4491906121ac565b611b4e919061221a565b9150505b919050565b611b6a8383836001611b6f60201b60201c565b505050565b5f73ffffffffffffffffffffffffffffffffffffffff168473ffffffffffffffffffffffffffffffffffffffff1603611bdf575f6040517fe602df05000000000000000000000000000000000000000000000000000000008152600401611bd69190612114565b60405180910390fd5b5f73ffffffffffffffffffffffffffffffffffffffff168373ffffffffffffffffffffffffffffffffffffffff1603611c4f575f6040517f94280d62000000000000000000000000000000000000000000000000000000008152600401611c469190612114565b60405180910390fd5b8160015f8673ffffffffffffffffffffffffffffffffffffffff1673ffffffffffffffffffffffffffffffffffffffff1681526020019081526020015f205f8573ffffffffffffffffffffffffffffffffffffffff1673ffffffffffffffffffffffffffffffffffffffff1681526020019081526020015f20819055508015611d38578273ffffffffffffffffffffffffffffffffffffffff168473ffffffffffffffffffffffffffffffffffffffff167f8c5be1e5ebec7d5bd14f71427d1e84f3dd0314c0f7b2291e5b200ac8c7c3b92584604051611d2f91906122f4565b60405180910390a35b50505050565b5f604051905090565b5f5ffd5b5f5ffd5b5f73ffffffffffffffffffffffffffffffffffffffff82169050919050565b5f611d7882611d4f565b9050919050565b611d8881611d6e565b8114611d92575f5ffd5b50565b5f81519050611da381611d7f565b92915050565b5f5f5f60608486031215611dc057611dbf611d47565b5b5f611dcd86828701611d95565b9350506020611dde86828701611d95565b9250506040611def86828701611d95565b9150509250925092565b5f81519050919050565b7f4e487b71000000000000000000000000000000000000000000000000000000005f52604160045260245ffd5b7f4e487b71000000000000000000000000000000000000000000000000000000005f52602260045260245ffd5b5f6002820490506001821680611e7457607f821691505b602082108103611e8757611e86611e30565b5b50919050565b5f819050815f5260205f209050919050565b5f6020601f8301049050919050565b5f82821b905092915050565b5f60088302611ee97fffffffffffffffffffffffffffffffffffffffffffffffffffffffffffffffff82611eae565b611ef38683611eae565b95508019841693508086168417925050509392505050565b5f819050919050565b5f819050919050565b5f611f37611f32611f2d84611f0b565b611f14565b611f0b565b9050919050565b5f819050919050565b611f5083611f1d565b611f64611f5c82611f3e565b848454611eba565b825550505050565b5f5f905090565b611f7b611f6c565b611f86818484611f47565b505050565b5b81811015611fa957611f9e5f82611f73565b600181019050611f8c565b5050565b601f821115611fee57611fbf81611e8d565b611fc884611e9f565b81016020851015611fd7578190505b611feb611fe385611e9f565b830182611f8b565b50505b505050565b5f82821c905092915050565b5f61200e5f1984600802611ff3565b1980831691505092915050565b5f6120268383611fff565b9150826002028217905092915050565b61203f82611df9565b67ffffffffffffffff81111561205857612057611e03565b5b6120628254611e5d565b61206d828285611fad565b5f60209050601f83116001811461209e575f841561208c578287015190505b612096858261201b565b8655506120fd565b601f1984166120ac86611e8d565b5f5b828110156120d3578489015182556001820191506020850194506020810190506120ae565b868310156120f057848901516120ec601f891682611fff565b8355505b6001600288020188555050505b505050505050565b61210e81611d6e565b82525050565b5f6020820190506121275f830184612105565b92915050565b5f6020828403121561214257612141611d47565b5b5f61214f84828501611d95565b91505092915050565b5f60408201905061216b5f830185612105565b6121786020830184612105565b9392505050565b7f4e487b71000000000000000000000000000000000000000000000000000000005f52601160045260245ffd5b5f6121b682611f0b565b91506121c183611f0b565b92508282026121cf81611f0b565b915082820484148315176121e6576121e561217f565b5b5092915050565b7f4e487b71000000000000000000000000000000000000000000000000000000005f52601260045260245ffd5b5f61222482611f0b565b915061222f83611f0b565b92508261223f5761223e6121ed565b5b828204905092915050565b5f61225482611f0b565b915061225f83611f0b565b92508282039050818111156122775761227661217f565b5b92915050565b5f61228782611f0b565b915061229283611f0b565b92508282019050808211156122aa576122a961217f565b5b92915050565b6122b981611f0b565b82525050565b5f6060820190506122d25f830186612105565b6122df60208301856122b0565b6122ec60408301846122b0565b949350505050565b5f6020820190506123075f8301846122b0565b92915050565b5f82825260208201905092915050565b7f4255595f414e445f53454c4c5f495344495341424c45442e00000000000000005f82015250565b5f61235160188361230d565b915061235c8261231d565b602082019050919050565b5f6020820190508181035f83015261237e81612345565b9050919050565b7f4e487b71000000000000000000000000000000000000000000000000000000005f52603260045260245ffd5b5f819050919050565b5f6123d56123d06123cb846123b2565b611f14565b611f0b565b9050919050565b6123e5816123bb565b82525050565b5f81519050919050565b5f82825260208201905092915050565b5f819050602082019050919050565b61241d81611d6e565b82525050565b5f61242e8383612414565b60208301905092915050565b5f602082019050919050565b5f612450826123eb565b61245a81856123f5565b935061246583612405565b805f5b8381101561249557815161247c8882612423565b97506124878361243a565b925050600181019050612468565b5085935050505092915050565b5f60a0820190506124b55f8301886122b0565b6124c260208301876123dc565b81810360408301526124d48186612446565b90506124e36060830185612105565b6124f060808301846122b0565b9695505050505050565b5f60408201905061250d5f830185612105565b61251a60208301846122b0565b9392505050565b5f6040820190506125345f8301856122b0565b81810360208301526125468184612446565b90509392505050565b5f5ffd5b5f601f19601f8301169050919050565b61256c82612553565b810181811067ffffffffffffffff8211171561258b5761258a611e03565b5b80604052505050565b5f61259d611d3e565b90506125a98282612563565b919050565b5f67ffffffffffffffff8211156125c8576125c7611e03565b5b602082029050602081019050919050565b5f5ffd5b6125e681611f0b565b81146125f0575f5ffd5b50565b5f81519050612601816125dd565b92915050565b5f612619612614846125ae565b612594565b9050808382526020820190506020840283018581111561263c5761263b6125d9565b5b835b81811015612665578061265188826125f3565b84526020840193505060208101905061263e565b5050509392505050565b5f82601f8301126126835761268261254f565b5b8151612693848260208601612607565b91505092915050565b5f602082840312156126b1576126b0611d47565b5b5f82015167ffffffffffffffff8111156126ce576126cd611d4b565b5b6126da8482850161266f565b91505092915050565b5f819050919050565b5f6127066127016126fc846126e3565b611f14565b611f0b565b9050919050565b612716816126ec565b82525050565b5f60408201905061272f5f83018561270d565b81810360208301526127418184612446565b90509392505050565b61302b806127575f395ff3fe608060405234801561000f575f5ffd5b5060043610610204575f3560e01c80638f011a2811610118578063c1d960ae116100ab578063dd62ed3e1161007a578063dd62ed3e146105f8578063e9a997e514610628578063f01fe7c414610646578063f2fde38b14610662578063fcb1138d1461067e57610204565b8063c1d960ae1461056e578063c21ebd071461059e578063c54e44eb146105bc578063c7fb372f146105da57610204565b8063a7cd52cb116100e7578063a7cd52cb146104d4578063a9059cbb14610504578063b8c9d25c14610534578063bedb86fb1461055257610204565b80638f011a281461045e57806395d89b411461047a5780639d1b464a146104985780639dc41984146104b657610204565b8063313ce5671161019b57806370a082311161016a57806370a08231146103ca578063715018a6146103fa5780638456cb591461040457806386f0f61b146104225780638da5cb5b1461044057610204565b8063313ce5671461032e578063521eb2731461034c5780635c1952171461036a57806360d1d4a41461039a57610204565b80630c355b47116101d75780630c355b47146102a457806318160ddd146102c257806323b872dd146102e05780632d3e474a1461031057610204565b806303fd2a451461020857806306fdde0314610226578063088878b514610244578063095ea7b314610274575b5f5ffd5b61021061069c565b60405161021d9190612553565b60405180910390f35b61022e6106a2565b60405161023b91906125dc565b60405180910390f35b61025e60048036038101906102599190612637565b610732565b60405161026b919061267a565b60405180910390f35b61028e600480360381019061028991906126bd565b6107b4565b60405161029b9190612715565b60405180910390f35b6102ac6107d6565b6040516102b9919061267a565b60405180910390f35b6102ca6107db565b6040516102d7919061267a565b60405180910390f35b6102fa60048036038101906102f5919061272e565b6107e4565b6040516103079190612715565b60405180910390f35b610318610812565b6040516103259190612553565b60405180910390f35b610336610837565b6040516103439190612799565b60405180910390f35b61035461083f565b6040516103619190612553565b60405180910390f35b610384600480360381019061037f91906127b2565b610864565b604051610391919061267a565b60405180910390f35b6103b460048036038101906103af9190612637565b610a29565b6040516103c1919061267a565b60405180910390f35b6103e460048036038101906103df9190612637565b610a3e565b6040516103f1919061267a565b60405180910390f35b610402610a83565b005b61040c610a96565b6040516104199190612715565b60405180910390f35b61042a610aa9565b604051610437919061267a565b60405180910390f35b610448610aae565b6040516104559190612553565b60405180910390f35b61047860048036038101906104739190612637565b610ad6565b005b610482610b21565b60405161048f91906125dc565b60405180910390f35b6104a0610bb1565b6040516104ad919061267a565b60405180910390f35b6104be610d77565b6040516104cb919061267a565b60405180910390f35b6104ee60048036038101906104e99190612637565b610d7c565b6040516104fb9190612715565b60405180910390f35b61051e600480360381019061051991906126bd565b610d99565b60405161052b9190612715565b60405180910390f35b61053c610dbb565b6040516105499190612553565b60405180910390f35b61056c60048036038101906105679190612807565b610de0565b005b610588600480360381019061058391906126bd565b610e05565b604051610595919061267a565b60405180910390f35b6105a6610ed6565b6040516105b3919061288d565b60405180910390f35b6105c4610efb565b6040516105d19190612553565b60405180910390f35b6105e2610f13565b6040516105ef9190612553565b60405180910390f35b610612600480360381019061060d91906128a6565b610f38565b60405161061f919061267a565b60405180910390f35b610630610fba565b60405161063d919061267a565b60405180910390f35b610660600480360381019061065b9190612a24565b610fbf565b005b61067c60048036038101906106779190612637565b611055565b005b6106866110d9565b604051610693919061267a565b60405180910390f35b61dead81565b6060600380546106b190612aab565b80601f01602080910402602001604051908101604052809291908181526020018280546106dd90612aab565b80156107285780601f106106ff57610100808354040283529160200191610728565b820191905f5260205f20905b81548152906001019060200180831161070b57829003601f168201915b5050505050905090565b5f5f61073d83610a3e565b90505f810361074f575f9150506107af565b80670de0b6b3a7640000600c5f8673ffffffffffffffffffffffffffffffffffffffff1673ffffffffffffffffffffffffffffffffffffffff1681526020019081526020015f20546107a19190612b08565b6107ab9190612b76565b9150505b919050565b5f5f6107be6110de565b90506107cb8185856110e5565b600191505092915050565b601481565b5f600254905090565b5f5f6107ee6110de565b90506107fb8582856110f7565b61080685858561118a565b60019150509392505050565b60085f9054906101000a900473ffffffffffffffffffffffffffffffffffffffff1681565b5f6012905090565b600a5f9054906101000a900473ffffffffffffffffffffffffffffffffffffffff1681565b5f5f600267ffffffffffffffff811115610881576108806128e8565b5b6040519080825280602002602001820160405280156108af5781602001602082028036833780820191505090505b50905030815f815181106108c6576108c5612ba6565b5b602002602001019073ffffffffffffffffffffffffffffffffffffffff16908173ffffffffffffffffffffffffffffffffffffffff16815250507355d398326f99059ff775485246999027b31979558160018151811061092957610928612ba6565b5b602002602001019073ffffffffffffffffffffffffffffffffffffffff16908173ffffffffffffffffffffffffffffffffffffffff16815250505f60065f9054906101000a900473ffffffffffffffffffffffffffffffffffffffff1673ffffffffffffffffffffffffffffffffffffffff1663d06ca61f85846040518363ffffffff1660e01b81526004016109c0929190612c8a565b5f60405180830381865afa1580156109da573d5f5f3e3d5ffd5b505050506040513d5f823e3d601f19601f82011682018060405250810190610a029190612d8c565b905080600181518110610a1857610a17612ba6565b5b602002602001015192505050919050565b600c602052805f5260405f205f915090505481565b5f5f5f8373ffffffffffffffffffffffffffffffffffffffff1673ffffffffffffffffffffffffffffffffffffffff1681526020019081526020015f20549050919050565b610a8b61127a565b610a945f611301565b565b600a60159054906101000a900460ff1681565b600281565b5f60055f9054906101000a900473ffffffffffffffffffffffffffffffffffffffff16905090565b610ade61127a565b8060095f6101000a81548173ffffffffffffffffffffffffffffffffffffffff021916908373ffffffffffffffffffffffffffffffffffffffff16021790555050565b606060048054610b3090612aab565b80601f0160208091040260200160405190810160405280929190818152602001828054610b5c90612aab565b8015610ba75780601f10610b7e57610100808354040283529160200191610ba7565b820191905f5260205f20905b815481529060010190602001808311610b8a57829003601f168201915b5050505050905090565b5f5f600267ffffffffffffffff811115610bce57610bcd6128e8565b5b604051908082528060200260200182016040528015610bfc5781602001602082028036833780820191505090505b50905030815f81518110610c1357610c12612ba6565b5b602002602001019073ffffffffffffffffffffffffffffffffffffffff16908173ffffffffffffffffffffffffffffffffffffffff16815250507355d398326f99059ff775485246999027b319795581600181518110610c7657610c75612ba6565b5b602002602001019073ffffffffffffffffffffffffffffffffffffffff16908173ffffffffffffffffffffffffffffffffffffffff168152505060065f9054906101000a900473ffffffffffffffffffffffffffffffffffffffff1673ffffffffffffffffffffffffffffffffffffffff1663d06ca61f670de0b6b3a7640000836040518363ffffffff1660e01b8152600401610d14929190612e0c565b5f60405180830381865afa158015610d2e573d5f5f3e3d5ffd5b505050506040513d5f823e3d601f19601f82011682018060405250810190610d569190612d8c565b600181518110610d6957610d68612ba6565b5b602002602001015191505090565b601481565b600b602052805f5260405f205f915054906101000a900460ff1681565b5f5f610da36110de565b9050610db081858561118a565b600191505092915050565b60075f9054906101000a900473ffffffffffffffffffffffffffffffffffffffff1681565b610de861127a565b80600a60156101000a81548160ff02191690831515021790555050565b5f5f8203610e15575f9050610ed0565b5f610e1f84610732565b90505f8103610e31575f915050610ed0565b5f610e3a610bb1565b9050818111610e4d575f92505050610ed0565b5f6014806014610e5d9190612e3a565b610e679190612e3a565b90505f828484610e779190612e6d565b87610e829190612b08565b610e8c9190612b76565b905060648282610e9c9190612b08565b610ea69190612b76565b945085851115610ecb5760648287610ebe9190612b08565b610ec89190612b76565b94505b505050505b92915050565b60065f9054906101000a900473ffffffffffffffffffffffffffffffffffffffff1681565b7355d398326f99059ff775485246999027b319795581565b60095f9054906101000a900473ffffffffffffffffffffffffffffffffffffffff1681565b5f60015f8473ffffffffffffffffffffffffffffffffffffffff1673ffffffffffffffffffffffffffffffffffffffff1681526020019081526020015f205f8373ffffffffffffffffffffffffffffffffffffffff1673ffffffffffffffffffffffffffffffffffffffff1681526020019081526020015f2054905092915050565b600381565b610fc761127a565b5f5f90505b82518110156110505781600b5f858481518110610fec57610feb612ba6565b5b602002602001015173ffffffffffffffffffffffffffffffffffffffff1673ffffffffffffffffffffffffffffffffffffffff1681526020019081526020015f205f6101000a81548160ff0219169083151502179055508080600101915050610fcc565b505050565b61105d61127a565b5f73ffffffffffffffffffffffffffffffffffffffff168173ffffffffffffffffffffffffffffffffffffffff16036110cd575f6040517f1e4fbdf70000000000000000000000000000000000000000000000000000000081526004016110c49190612553565b60405180910390fd5b6110d681611301565b50565b601481565b5f33905090565b6110f283838360016113c4565b505050565b5f6111028484610f38565b90507fffffffffffffffffffffffffffffffffffffffffffffffffffffffffffffffff8110156111845781811015611175578281836040517ffb8f41b200000000000000000000000000000000000000000000000000000000815260040161116c93929190612ea0565b60405180910390fd5b61118384848484035f6113c4565b5b50505050565b5f73ffffffffffffffffffffffffffffffffffffffff168373ffffffffffffffffffffffffffffffffffffffff16036111fa575f6040517f96c6fd1e0000000000000000000000000000000000000000000000000000000081526004016111f19190612553565b60405180910390fd5b5f73ffffffffffffffffffffffffffffffffffffffff168273ffffffffffffffffffffffffffffffffffffffff160361126a575f6040517fec442f050000000000000000000000000000000000000000000000000000000081526004016112619190612553565b60405180910390fd5b611275838383611593565b505050565b6112826110de565b73ffffffffffffffffffffffffffffffffffffffff166112a0610aae565b73ffffffffffffffffffffffffffffffffffffffff16146112ff576112c36110de565b6040517f118cdaa70000000000000000000000000000000000000000000000000000000081526004016112f69190612553565b60405180910390fd5b565b5f60055f9054906101000a900473ffffffffffffffffffffffffffffffffffffffff1690508160055f6101000a81548173ffffffffffffffffffffffffffffffffffffffff021916908373ffffffffffffffffffffffffffffffffffffffff1602179055508173ffffffffffffffffffffffffffffffffffffffff168173ffffffffffffffffffffffffffffffffffffffff167f8be0079c531659141344cd1fd0a4f28419497f9722a3daafe3b4186f6b6457e060405160405180910390a35050565b5f73ffffffffffffffffffffffffffffffffffffffff168473ffffffffffffffffffffffffffffffffffffffff1603611434575f6040517fe602df0500000000000000000000000000000000000000000000000000000000815260040161142b9190612553565b60405180910390fd5b5f73ffffffffffffffffffffffffffffffffffffffff168373ffffffffffffffffffffffffffffffffffffffff16036114a4575f6040517f94280d6200000000000000000000000000000000000000000000000000000000815260040161149b9190612553565b60405180910390fd5b8160015f8673ffffffffffffffffffffffffffffffffffffffff1673ffffffffffffffffffffffffffffffffffffffff1681526020019081526020015f205f8573ffffffffffffffffffffffffffffffffffffffff1673ffffffffffffffffffffffffffffffffffffffff1681526020019081526020015f2081905550801561158d578273ffffffffffffffffffffffffffffffffffffffff168473ffffffffffffffffffffffffffffffffffffffff167f8c5be1e5ebec7d5bd14f71427d1e84f3dd0314c0f7b2291e5b200ac8c7c3b92584604051611584919061267a565b60405180910390a35b50505050565b600a60149054906101000a900460ff16806115d957505f73ffffffffffffffffffffffffffffffffffffffff168373ffffffffffffffffffffffffffffffffffffffff16145b8061160f57505f73ffffffffffffffffffffffffffffffffffffffff168273ffffffffffffffffffffffffffffffffffffffff16145b806116605750600b5f8473ffffffffffffffffffffffffffffffffffffffff1673ffffffffffffffffffffffffffffffffffffffff1681526020019081526020015f205f9054906101000a900460ff165b806116b15750600b5f8373ffffffffffffffffffffffffffffffffffffffff1673ffffffffffffffffffffffffffffffffffffffff1681526020019081526020015f205f9054906101000a900460ff165b156116c6576116c1838383611975565b611970565b5f60075f9054906101000a900473ffffffffffffffffffffffffffffffffffffffff1673ffffffffffffffffffffffffffffffffffffffff168473ffffffffffffffffffffffffffffffffffffffff161490505f60075f9054906101000a900473ffffffffffffffffffffffffffffffffffffffff1673ffffffffffffffffffffffffffffffffffffffff168473ffffffffffffffffffffffffffffffffffffffff1614905081156117835761177c8484611b8e565b5050611970565b801561179a576117938584611c64565b5050611970565b5f6117a430610a3e565b90505f8111156117b8576117b781611f25565b5b5f6117c287610a3e565b90505f600c5f8973ffffffffffffffffffffffffffffffffffffffff1673ffffffffffffffffffffffffffffffffffffffff1681526020019081526020015f20549050611810888888611975565b5f8111801561181e57505f82115b1561196a575f8287836118319190612b08565b61183b9190612b76565b905080826118499190612e6d565b600c5f8b73ffffffffffffffffffffffffffffffffffffffff1673ffffffffffffffffffffffffffffffffffffffff1681526020019081526020015f2081905550620f4240600c5f8b73ffffffffffffffffffffffffffffffffffffffff1673ffffffffffffffffffffffffffffffffffffffff1681526020019081526020015f20541015611915575f600c5f8b73ffffffffffffffffffffffffffffffffffffffff1673ffffffffffffffffffffffffffffffffffffffff1681526020019081526020015f20819055505b80600c5f8a73ffffffffffffffffffffffffffffffffffffffff1673ffffffffffffffffffffffffffffffffffffffff1681526020019081526020015f205f8282546119619190612e3a565b92505081905550505b50505050505b505050565b5f73ffffffffffffffffffffffffffffffffffffffff168373ffffffffffffffffffffffffffffffffffffffff16036119c5578060025f8282546119b99190612e3a565b92505081905550611a93565b5f5f5f8573ffffffffffffffffffffffffffffffffffffffff1673ffffffffffffffffffffffffffffffffffffffff1681526020019081526020015f2054905081811015611a4e578381836040517fe450d38c000000000000000000000000000000000000000000000000000000008152600401611a4593929190612ea0565b60405180910390fd5b8181035f5f8673ffffffffffffffffffffffffffffffffffffffff1673ffffffffffffffffffffffffffffffffffffffff1681526020019081526020015f2081905550505b5f73ffffffffffffffffffffffffffffffffffffffff168273ffffffffffffffffffffffffffffffffffffffff1603611ada578060025f8282540392505081905550611b24565b805f5f8473ffffffffffffffffffffffffffffffffffffffff1673ffffffffffffffffffffffffffffffffffffffff1681526020019081526020015f205f82825401925050819055505b8173ffffffffffffffffffffffffffffffffffffffff168373ffffffffffffffffffffffffffffffffffffffff167fddf252ad1be2c89b69c2b068fc378daa952ba7f163c4a11628f55a4df523b3ef83604051611b81919061267a565b60405180910390a3505050565b600a60159054906101000a900460ff1615611bde576040517f08c379a0000000000000000000000000000000000000000000000000000000008152600401611bd590612f1f565b60405180910390fd5b5f6064600283611bee9190612b08565b611bf89190612b76565b90505f6064600384611c0a9190612b08565b611c149190612b76565b90505f818385611c249190612e6d565b611c2e9190612e6d565b9050611c3a8582612067565b611c45853084611975565b611c528561dead85611975565b611c5d858683611975565b5050505050565b600a60159054906101000a900460ff1615611cb4576040517f08c379a0000000000000000000000000000000000000000000000000000000008152600401611cab90612f1f565b60405180910390fd5b5f611cbe83610a3e565b90505f6064600284611cd09190612b08565b611cda9190612b76565b90505f6064600385611cec9190612b08565b611cf69190612b76565b90505f818386611d069190612e6d565b611d109190612e6d565b90505f611d1d8783610e05565b90505f811115611d3c57611d32873083611975565b611d3b816120ed565b5b611d47873085611975565b611d548761dead86611975565b611d8b8760075f9054906101000a900473ffffffffffffffffffffffffffffffffffffffff168385611d869190612e6d565b611975565b5f611d9588610a3e565b90505f8103611de5575f600c5f8a73ffffffffffffffffffffffffffffffffffffffff1673ffffffffffffffffffffffffffffffffffffffff1681526020019081526020015f2081905550611f1b565b5f600c5f8a73ffffffffffffffffffffffffffffffffffffffff1673ffffffffffffffffffffffffffffffffffffffff1681526020019081526020015f205490505f878983611e349190612b08565b611e3e9190612b76565b90508082611e4c9190612e6d565b600c5f8c73ffffffffffffffffffffffffffffffffffffffff1673ffffffffffffffffffffffffffffffffffffffff1681526020019081526020015f2081905550620f4240600c5f8c73ffffffffffffffffffffffffffffffffffffffff1673ffffffffffffffffffffffffffffffffffffffff1681526020019081526020015f20541015611f18575f600c5f8c73ffffffffffffffffffffffffffffffffffffffff1673ffffffffffffffffffffffffffffffffffffffff1681526020019081526020015f20819055505b50505b5050505050505050565b5f73ffffffffffffffffffffffffffffffffffffffff1660095f9054906101000a900473ffffffffffffffffffffffffffffffffffffffff1673ffffffffffffffffffffffffffffffffffffffff161461203857611fa48160095f9054906101000a900473ffffffffffffffffffffffffffffffffffffffff166122d2565b60095f9054906101000a900473ffffffffffffffffffffffffffffffffffffffff1673ffffffffffffffffffffffffffffffffffffffff1663cc430ced611fea83610864565b6040518263ffffffff1660e01b8152600401612006919061267a565b5f604051808303815f87803b15801561201d575f5ffd5b505af115801561202f573d5f5f3e3d5ffd5b50505050612064565b61206381600a5f9054906101000a900473ffffffffffffffffffffffffffffffffffffffff166122d2565b5b50565b5f612070610bb1565b90505f670de0b6b3a764000083836120889190612b08565b6120929190612b76565b905080600c5f8673ffffffffffffffffffffffffffffffffffffffff1673ffffffffffffffffffffffffffffffffffffffff1681526020019081526020015f205f8282546120e09190612e3a565b9250508190555050505050565b61213060646014836120ff9190612b08565b6121099190612b76565b60085f9054906101000a900473ffffffffffffffffffffffffffffffffffffffff166122d2565b61217360646014836121429190612b08565b61214c9190612b76565b600a5f9054906101000a900473ffffffffffffffffffffffffffffffffffffffff166122d2565b5f60646014836121839190612b08565b61218d9190612b76565b90505f73ffffffffffffffffffffffffffffffffffffffff1660095f9054906101000a900473ffffffffffffffffffffffffffffffffffffffff1673ffffffffffffffffffffffffffffffffffffffff16146122a25761220e8160095f9054906101000a900473ffffffffffffffffffffffffffffffffffffffff166122d2565b60095f9054906101000a900473ffffffffffffffffffffffffffffffffffffffff1673ffffffffffffffffffffffffffffffffffffffff1663cc430ced61225483610864565b6040518263ffffffff1660e01b8152600401612270919061267a565b5f604051808303815f87803b158015612287575f5ffd5b505af1158015612299573d5f5f3e3d5ffd5b505050506122ce565b6122cd81600a5f9054906101000a900473ffffffffffffffffffffffffffffffffffffffff166122d2565b5b5050565b5f820315612510576001600a60146101000a81548160ff0219169083151502179055505f600267ffffffffffffffff811115612311576123106128e8565b5b60405190808252806020026020018201604052801561233f5781602001602082028036833780820191505090505b50905030815f8151811061235657612355612ba6565b5b602002602001019073ffffffffffffffffffffffffffffffffffffffff16908173ffffffffffffffffffffffffffffffffffffffff16815250507355d398326f99059ff775485246999027b3197955816001815181106123b9576123b8612ba6565b5b602002602001019073ffffffffffffffffffffffffffffffffffffffff16908173ffffffffffffffffffffffffffffffffffffffff168152505061241f3060065f9054906101000a900473ffffffffffffffffffffffffffffffffffffffff16856110e5565b60065f9054906101000a900473ffffffffffffffffffffffffffffffffffffffff1673ffffffffffffffffffffffffffffffffffffffff16635c11d795845f8486601e4261246d9190612e3a565b6040518663ffffffff1660e01b815260040161248d959493929190612f76565b5f604051808303815f87803b1580156124a4575f5ffd5b505af19250505080156124b5575060015b156124f4577faedb4dc54dc30d46d331ffcc44cd836607bea96c12e1b21a95210ed899184d0482846040516124eb929190612fce565b60405180910390a15b5f600a60146101000a81548160ff021916908315150217905550505b5050565b5f73ffffffffffffffffffffffffffffffffffffffff82169050919050565b5f61253d82612514565b9050919050565b61254d81612533565b82525050565b5f6020820190506125665f830184612544565b92915050565b5f81519050919050565b5f82825260208201905092915050565b8281835e5f83830152505050565b5f601f19601f8301169050919050565b5f6125ae8261256c565b6125b88185612576565b93506125c8818560208601612586565b6125d181612594565b840191505092915050565b5f6020820190508181035f8301526125f481846125a4565b905092915050565b5f604051905090565b5f5ffd5b5f5ffd5b61261681612533565b8114612620575f5ffd5b50565b5f813590506126318161260d565b92915050565b5f6020828403121561264c5761264b612605565b5b5f61265984828501612623565b91505092915050565b5f819050919050565b61267481612662565b82525050565b5f60208201905061268d5f83018461266b565b92915050565b61269c81612662565b81146126a6575f5ffd5b50565b5f813590506126b781612693565b92915050565b5f5f604083850312156126d3576126d2612605565b5b5f6126e085828601612623565b92505060206126f1858286016126a9565b9150509250929050565b5f8115159050919050565b61270f816126fb565b82525050565b5f6020820190506127285f830184612706565b92915050565b5f5f5f6060848603121561274557612744612605565b5b5f61275286828701612623565b935050602061276386828701612623565b9250506040612774868287016126a9565b9150509250925092565b5f60ff82169050919050565b6127938161277e565b82525050565b5f6020820190506127ac5f83018461278a565b92915050565b5f602082840312156127c7576127c6612605565b5b5f6127d4848285016126a9565b91505092915050565b6127e6816126fb565b81146127f0575f5ffd5b50565b5f81359050612801816127dd565b92915050565b5f6020828403121561281c5761281b612605565b5b5f612829848285016127f3565b91505092915050565b5f819050919050565b5f61285561285061284b84612514565b612832565b612514565b9050919050565b5f6128668261283b565b9050919050565b5f6128778261285c565b9050919050565b6128878161286d565b82525050565b5f6020820190506128a05f83018461287e565b92915050565b5f5f604083850312156128bc576128bb612605565b5b5f6128c985828601612623565b92505060206128da85828601612623565b9150509250929050565b5f5ffd5b7f4e487b71000000000000000000000000000000000000000000000000000000005f52604160045260245ffd5b61291e82612594565b810181811067ffffffffffffffff8211171561293d5761293c6128e8565b5b80604052505050565b5f61294f6125fc565b905061295b8282612915565b919050565b5f67ffffffffffffffff82111561297a576129796128e8565b5b602082029050602081019050919050565b5f5ffd5b5f6129a161299c84612960565b612946565b905080838252602082019050602084028301858111156129c4576129c361298b565b5b835b818110156129ed57806129d98882612623565b8452602084019350506020810190506129c6565b5050509392505050565b5f82601f830112612a0b57612a0a6128e4565b5b8135612a1b84826020860161298f565b91505092915050565b5f5f60408385031215612a3a57612a39612605565b5b5f83013567ffffffffffffffff811115612a5757612a56612609565b5b612a63858286016129f7565b9250506020612a74858286016127f3565b9150509250929050565b7f4e487b71000000000000000000000000000000000000000000000000000000005f52602260045260245ffd5b5f6002820490506001821680612ac257607f821691505b602082108103612ad557612ad4612a7e565b5b50919050565b7f4e487b71000000000000000000000000000000000000000000000000000000005f52601160045260245ffd5b5f612b1282612662565b9150612b1d83612662565b9250828202612b2b81612662565b91508282048414831517612b4257612b41612adb565b5b5092915050565b7f4e487b71000000000000000000000000000000000000000000000000000000005f52601260045260245ffd5b5f612b8082612662565b9150612b8b83612662565b925082612b9b57612b9a612b49565b5b828204905092915050565b7f4e487b71000000000000000000000000000000000000000000000000000000005f52603260045260245ffd5b5f81519050919050565b5f82825260208201905092915050565b5f819050602082019050919050565b612c0581612533565b82525050565b5f612c168383612bfc565b60208301905092915050565b5f602082019050919050565b5f612c3882612bd3565b612c428185612bdd565b9350612c4d83612bed565b805f5b83811015612c7d578151612c648882612c0b565b9750612c6f83612c22565b925050600181019050612c50565b5085935050505092915050565b5f604082019050612c9d5f83018561266b565b8181036020830152612caf8184612c2e565b90509392505050565b5f67ffffffffffffffff821115612cd257612cd16128e8565b5b602082029050602081019050919050565b5f81519050612cf181612693565b92915050565b5f612d09612d0484612cb8565b612946565b90508083825260208201905060208402830185811115612d2c57612d2b61298b565b5b835b81811015612d555780612d418882612ce3565b845260208401935050602081019050612d2e565b5050509392505050565b5f82601f830112612d7357612d726128e4565b5b8151612d83848260208601612cf7565b91505092915050565b5f60208284031215612da157612da0612605565b5b5f82015167ffffffffffffffff811115612dbe57612dbd612609565b5b612dca84828501612d5f565b91505092915050565b5f819050919050565b5f612df6612df1612dec84612dd3565b612832565b612662565b9050919050565b612e0681612ddc565b82525050565b5f604082019050612e1f5f830185612dfd565b8181036020830152612e318184612c2e565b90509392505050565b5f612e4482612662565b9150612e4f83612662565b9250828201905080821115612e6757612e66612adb565b5b92915050565b5f612e7782612662565b9150612e8283612662565b9250828203905081811115612e9a57612e99612adb565b5b92915050565b5f606082019050612eb35f830186612544565b612ec0602083018561266b565b612ecd604083018461266b565b949350505050565b7f4255595f414e445f53454c4c5f495344495341424c45442e00000000000000005f82015250565b5f612f09601883612576565b9150612f1482612ed5565b602082019050919050565b5f6020820190508181035f830152612f3681612efd565b9050919050565b5f819050919050565b5f612f60612f5b612f5684612f3d565b612832565b612662565b9050919050565b612f7081612f46565b82525050565b5f60a082019050612f895f83018861266b565b612f966020830187612f67565b8181036040830152612fa88186612c2e565b9050612fb76060830185612544565b612fc4608083018461266b565b9695505050505050565b5f604082019050612fe15f830185612544565b612fee602083018461266b565b939250505056fea2646970667358221220d185295bfbb0642df105cbb0aa9c2f47ff3b7162e4a8a9a31ed45d7c11855b1064736f6c634300081e0033","linkReferences":{}},"methodIdentifiers":{"DEAD()":"03fd2a45","PROFIT_MARKET_TAX_RATE()":"9dc41984","PROFIT_NODE_TAX_RATE()":"0c355b47","PROFIT_WALLET_TAX_RATE()":"fcb1138d","SWAP_DEAD_FEE_RATE()":"86f0f61b","SWAP_NODE_FEE_RATE()":"e9a997e5","USDT()":"c54e44eb","allowance(address,address)":"dd62ed3e","allowlist(address)":"a7cd52cb","approve(address,uint256)":"095ea7b3","averagePriceOf(address)":"088878b5","balanceOf(address)":"70a08231","currentPrice()":"9d1b464a","decimals()":"313ce567","getAmountOut(uint256)":"5c195217","getProfitTaxToken(address,uint256)":"c1d960ae","marketing()":"2d3e474a","name()":"06fdde03","nodeDividends()":"c7fb372f","owner()":"8da5cb5b","pancakePair()":"b8c9d25c","pancakeRouter()":"c21ebd07","pause()":"8456cb59","renounceOwnership()":"715018a6","setAllowlist(address[],bool)":"f01fe7c4","setNodeDividends(address)":"8f011a28","setPause(bool)":"bedb86fb","symbol()":"95d89b41","totalCostUsdt(address)":"60d1d4a4","totalSupply()":"18160ddd","transfer(address,uint256)":"a9059cbb","transferFrom(address,address,uint256)":"23b872dd","transferOwnership(address)":"f2fde38b","wallet()":"521eb273"},"id":45}