{"abi":[{"type":"constructor","inputs":[{"name":"_initialRecipient","type":"address","internalType":"address"}],"stateMutability":"nonpayable"},{"type":"function","name":"DEAD","inputs":[],"outputs":[{"name":"","type":"address","internalType":"address"}],"stateMutability":"view"},{"type":"function","name":"PROFIT_MARKET_TAX_RATE","inputs":[],"outputs":[{"name":"","type":"uint256","internalType":"uint256"}],"stateMutability":"view"},{"type":"function","name":"PROFIT_NODE_TAX_RATE","inputs":[],"outputs":[{"name":"","type":"uint256","internalType":"uint256"}],"stateMutability":"view"},{"type":"function","name":"PROFIT_WALLET_TAX_RATE","inputs":[],"outputs":[{"name":"","type":"uint256","internalType":"uint256"}],"stateMutability":"view"},{"type":"function","name":"SWAP_DEAD_FEE_RATE","inputs":[],"outputs":[{"name":"","type":"uint256","internalType":"uint256"}],"stateMutability":"view"},{"type":"function","name":"SWAP_NODE_FEE_RATE","inputs":[],"outputs":[{"name":"","type":"uint256","internalType":"uint256"}],"stateMutability":"view"},{"type":"function","name":"USDT","inputs":[],"outputs":[{"name":"","type":"address","internalType":"address"}],"stateMutability":"view"},{"type":"function","name":"allowance","inputs":[{"name":"owner","type":"address","internalType":"address"},{"name":"spender","type":"address","internalType":"address"}],"outputs":[{"name":"","type":"uint256","internalType":"uint256"}],"stateMutability":"view"},{"type":"function","name":"allowlist","inputs":[{"name":"","type":"address","internalType":"address"}],"outputs":[{"name":"","type":"bool","internalType":"bool"}],"stateMutability":"view"},{"type":"function","name":"approve","inputs":[{"name":"spender","type":"address","internalType":"address"},{"name":"value","type":"uint256","internalType":"uint256"}],"outputs":[{"name":"","type":"bool","internalType":"bool"}],"stateMutability":"nonpayable"},{"type":"function","name":"averagePriceOf","inputs":[{"name":"user","type":"address","internalType":"address"}],"outputs":[{"name":"","type":"uint256","internalType":"uint256"}],"stateMutability":"view"},{"type":"function","name":"balanceOf","inputs":[{"name":"account","type":"address","internalType":"address"}],"outputs":[{"name":"","type":"uint256","internalType":"uint256"}],"stateMutability":"view"},{"type":"function","name":"currentPrice","inputs":[],"outputs":[{"name":"","type":"uint256","internalType":"uint256"}],"stateMutability":"view"},{"type":"function","name":"decimals","inputs":[],"outputs":[{"name":"","type":"uint8","internalType":"uint8"}],"stateMutability":"view"},{"type":"function","name":"getAmountOut","inputs":[{"name":"amountToken","type":"uint256","internalType":"uint256"}],"outputs":[{"name":"","type":"uint256","internalType":"uint256"}],"stateMutability":"view"},{"type":"function","name":"getProfitTaxToken","inputs":[{"name":"from","type":"address","internalType":"address"},{"name":"amountToken","type":"uint256","internalType":"uint256"}],"outputs":[{"name":"taxToken","type":"uint256","internalType":"uint256"}],"stateMutability":"view"},{"type":"function","name":"marketing","inputs":[],"outputs":[{"name":"","type":"address","internalType":"address"}],"stateMutability":"view"},{"type":"function","name":"name","inputs":[],"outputs":[{"name":"","type":"string","internalType":"string"}],"stateMutability":"view"},{"type":"function","name":"nodeDividends","inputs":[],"outputs":[{"name":"","type":"address","internalType":"address"}],"stateMutability":"view"},{"type":"function","name":"owner","inputs":[],"outputs":[{"name":"","type":"address","internalType":"address"}],"stateMutability":"view"},{"type":"function","name":"pancakePair","inputs":[],"outputs":[{"name":"","type":"address","internalType":"address"}],"stateMutability":"view"},{"type":"function","name":"pancakeRouter","inputs":[],"outputs":[{"name":"","type":"address","internalType":"contract IUniswapV2Router02"}],"stateMutability":"view"},{"type":"function","name":"pause","inputs":[],"outputs":[{"name":"","type":"bool","internalType":"bool"}],"stateMutability":"view"},{"type":"function","name":"renounceOwnership","inputs":[],"outputs":[],"stateMutability":"nonpayable"},{"type":"function","name":"setPause","inputs":[{"name":"isPause","type":"bool","internalType":"bool"}],"outputs":[],"stateMutability":"nonpayable"},{"type":"function","name":"symbol","inputs":[],"outputs":[{"name":"","type":"string","internalType":"string"}],"stateMutability":"view"},{"type":"function","name":"totalCostUsdt","inputs":[{"name":"","type":"address","internalType":"address"}],"outputs":[{"name":"","type":"uint256","internalType":"uint256"}],"stateMutability":"view"},{"type":"function","name":"totalSupply","inputs":[],"outputs":[{"name":"","type":"uint256","internalType":"uint256"}],"stateMutability":"view"},{"type":"function","name":"transfer","inputs":[{"name":"to","type":"address","internalType":"address"},{"name":"value","type":"uint256","internalType":"uint256"}],"outputs":[{"name":"","type":"bool","internalType":"bool"}],"stateMutability":"nonpayable"},{"type":"function","name":"transferFrom","inputs":[{"name":"from","type":"address","internalType":"address"},{"name":"to","type":"address","internalType":"address"},{"name":"value","type":"uint256","internalType":"uint256"}],"outputs":[{"name":"","type":"bool","internalType":"bool"}],"stateMutability":"nonpayable"},{"type":"function","name":"transferOwnership","inputs":[{"name":"newOwner","type":"address","internalType":"address"}],"outputs":[],"stateMutability":"nonpayable"},{"type":"function","name":"wallet","inputs":[],"outputs":[{"name":"","type":"address","internalType":"address"}],"stateMutability":"view"},{"type":"event","name":"Approval","inputs":[{"name":"owner","type":"address","indexed":true,"internalType":"address"},{"name":"spender","type":"address","indexed":true,"internalType":"address"},{"name":"value","type":"uint256","indexed":false,"internalType":"uint256"}],"anonymous":false},{"type":"event","name":"OwnershipTransferred","inputs":[{"name":"previousOwner","type":"address","indexed":true,"internalType":"address"},{"name":"newOwner","type":"address","indexed":true,"internalType":"address"}],"anonymous":false},{"type":"event","name":"SwapAndSendTax","inputs":[{"name":"recipient","type":"address","indexed":false,"internalType":"address"},{"name":"tokensSwapped","type":"uint256","indexed":false,"internalType":"uint256"}],"anonymous":false},{"type":"event","name":"Transfer","inputs":[{"name":"from","type":"address","indexed":true,"internalType":"address"},{"name":"to","type":"address","indexed":true,"internalType":"address"},{"name":"value","type":"uint256","indexed":false,"internalType":"uint256"}],"anonymous":false},{"type":"error","name":"ERC20InsufficientAllowance","inputs":[{"name":"spender","type":"address","internalType":"address"},{"name":"allowance","type":"uint256","internalType":"uint256"},{"name":"needed","type":"uint256","internalType":"uint256"}]},{"type":"error","name":"ERC20InsufficientBalance","inputs":[{"name":"sender","type":"address","internalType":"address"},{"name":"balance","type":"uint256","internalType":"uint256"},{"name":"needed","type":"uint256","internalType":"uint256"}]},{"type":"error","name":"ERC20InvalidApprover","inputs":[{"name":"approver","type":"address","internalType":"address"}]},{"type":"error","name":"ERC20InvalidReceiver","inputs":[{"name":"receiver","type":"address","internalType":"address"}]},{"type":"error","name":"ERC20InvalidSender","inputs":[{"name":"sender","type":"address","internalType":"address"}]},{"type":"error","name":"ERC20InvalidSpender","inputs":[{"name":"spender","type":"address","internalType":"address"}]},{"type":"error","name":"OwnableInvalidOwner","inputs":[{"name":"owner","type":"address","internalType":"address"}]},{"type":"error","name":"OwnableUnauthorizedAccount","inputs":[{"name":"account","type":"address","internalType":"address"}]}],"bytecode":{"object":"0x60806040527310ed43c718714eb63d5aa57b78b54704e256024e60065f6101000a81548173ffffffffffffffffffffffffffffffffffffffff021916908373ffffffffffffffffffffffffffffffffffffffff1602179055506001600a60156101000a81548160ff02191690831515021790555034801561007e575f5ffd5b50604051614aff380380614aff83398181016040528101906100a0919061180f565b336040518060400160405280600381526020017f444a5300000000000000000000000000000000000000000000000000000000008152506040518060400160405280600481526020017f444a534300000000000000000000000000000000000000000000000000000000815250816003908161011c9190611a77565b50806004908161012c9190611a77565b5050505f73ffffffffffffffffffffffffffffffffffffffff168173ffffffffffffffffffffffffffffffffffffffff160361019f575f6040517f1e4fbdf70000000000000000000000000000000000000000000000000000000081526004016101969190611b55565b60405180910390fd5b6101ae8161037f60201b60201c565b506101c98169152d02c7e14af680000061044260201b60201c565b60065f9054906101000a900473ffffffffffffffffffffffffffffffffffffffff1673ffffffffffffffffffffffffffffffffffffffff1663c45a01556040518163ffffffff1660e01b8152600401602060405180830381865afa158015610233573d5f5f3e3d5ffd5b505050506040513d601f19601f82011682018060405250810190610257919061180f565b73ffffffffffffffffffffffffffffffffffffffff1663c9c65396307355d398326f99059ff775485246999027b31979556040518363ffffffff1660e01b81526004016102a5929190611b6e565b6020604051808303815f875af11580156102c1573d5f5f3e3d5ffd5b505050506040513d601f19601f820116820180604052508101906102e5919061180f565b60075f6101000a81548173ffffffffffffffffffffffffffffffffffffffff021916908373ffffffffffffffffffffffffffffffffffffffff1602179055506001600b5f8373ffffffffffffffffffffffffffffffffffffffff1673ffffffffffffffffffffffffffffffffffffffff1681526020019081526020015f205f6101000a81548160ff02191690831515021790555050612160565b5f60055f9054906101000a900473ffffffffffffffffffffffffffffffffffffffff1690508160055f6101000a81548173ffffffffffffffffffffffffffffffffffffffff021916908373ffffffffffffffffffffffffffffffffffffffff1602179055508173ffffffffffffffffffffffffffffffffffffffff168173ffffffffffffffffffffffffffffffffffffffff167f8be0079c531659141344cd1fd0a4f28419497f9722a3daafe3b4186f6b6457e060405160405180910390a35050565b5f73ffffffffffffffffffffffffffffffffffffffff168273ffffffffffffffffffffffffffffffffffffffff16036104b2575f6040517fec442f050000000000000000000000000000000000000000000000000000000081526004016104a99190611b55565b60405180910390fd5b6104c35f83836104c760201b60201c565b5050565b600a60149054906101000a900460ff168061050d57505f73ffffffffffffffffffffffffffffffffffffffff168373ffffffffffffffffffffffffffffffffffffffff16145b8061054357505f73ffffffffffffffffffffffffffffffffffffffff168273ffffffffffffffffffffffffffffffffffffffff16145b806105945750600b5f8473ffffffffffffffffffffffffffffffffffffffff1673ffffffffffffffffffffffffffffffffffffffff1681526020019081526020015f205f9054906101000a900460ff165b806105e55750600b5f8373ffffffffffffffffffffffffffffffffffffffff1673ffffffffffffffffffffffffffffffffffffffff1681526020019081526020015f205f9054906101000a900460ff165b15610600576105fb83838361072460201b60201c565b61071f565b5f60075f9054906101000a900473ffffffffffffffffffffffffffffffffffffffff1673ffffffffffffffffffffffffffffffffffffffff168473ffffffffffffffffffffffffffffffffffffffff161490505f60075f9054906101000a900473ffffffffffffffffffffffffffffffffffffffff1673ffffffffffffffffffffffffffffffffffffffff168473ffffffffffffffffffffffffffffffffffffffff1614905081156106c3576106bc848461093d60201b60201c565b505061071f565b80156106e0576106d98584610a2b60201b60201c565b505061071f565b5f6106f030610b7260201b60201c565b90505f81111561070a5761070981610bb760201b60201c565b5b61071b86868661072460201b60201c565b5050505b505050565b5f73ffffffffffffffffffffffffffffffffffffffff168373ffffffffffffffffffffffffffffffffffffffff1603610774578060025f8282546107689190611bc2565b92505081905550610842565b5f5f5f8573ffffffffffffffffffffffffffffffffffffffff1673ffffffffffffffffffffffffffffffffffffffff1681526020019081526020015f20549050818110156107fd578381836040517fe450d38c0000000000000000000000000000000000000000000000000000000081526004016107f493929190611c04565b60405180910390fd5b8181035f5f8673ffffffffffffffffffffffffffffffffffffffff1673ffffffffffffffffffffffffffffffffffffffff1681526020019081526020015f2081905550505b5f73ffffffffffffffffffffffffffffffffffffffff168273ffffffffffffffffffffffffffffffffffffffff1603610889578060025f82825403925050819055506108d3565b805f5f8473ffffffffffffffffffffffffffffffffffffffff1673ffffffffffffffffffffffffffffffffffffffff1681526020019081526020015f205f82825401925050819055505b8173ffffffffffffffffffffffffffffffffffffffff168373ffffffffffffffffffffffffffffffffffffffff167fddf252ad1be2c89b69c2b068fc378daa952ba7f163c4a11628f55a4df523b3ef836040516109309190611c39565b60405180910390a3505050565b600a60159054906101000a900460ff161561098d576040517f08c379a000000000000000000000000000000000000000000000000000000000815260040161098490611cac565b60405180910390fd5b5f606460028361099d9190611cca565b6109a79190611d38565b90505f60646003846109b99190611cca565b6109c39190611d38565b90505f8183856109d39190611d68565b6109dd9190611d68565b90506109ef8582610c8060201b60201c565b610a0085308461072460201b60201c565b610a138561dead8561072460201b60201c565b610a2485868361072460201b60201c565b5050505050565b600a60159054906101000a900460ff1615610a7b576040517f08c379a0000000000000000000000000000000000000000000000000000000008152600401610a7290611cac565b60405180910390fd5b5f6064600283610a8b9190611cca565b610a959190611d38565b90505f6064600384610aa79190611cca565b610ab19190611d38565b90505f818385610ac19190611d68565b610acb9190611d68565b90505f610ade8683610d0c60201b60201c565b90505f811115610b0957610af986308361072460201b60201c565b610b0881610dea60201b60201c565b5b610b1a86308561072460201b60201c565b610b2d8661dead8661072460201b60201c565b610b6a8660075f9054906101000a900473ffffffffffffffffffffffffffffffffffffffff168385610b5f9190611d68565b61072460201b60201c565b505050505050565b5f5f5f8373ffffffffffffffffffffffffffffffffffffffff1673ffffffffffffffffffffffffffffffffffffffff1681526020019081526020015f20549050919050565b610be88160095f9054906101000a900473ffffffffffffffffffffffffffffffffffffffff16610f6260201b60201c565b60095f9054906101000a900473ffffffffffffffffffffffffffffffffffffffff1673ffffffffffffffffffffffffffffffffffffffff1663cc430ced610c34836111aa60201b60201c565b6040518263ffffffff1660e01b8152600401610c509190611c39565b5f604051808303815f87803b158015610c67575f5ffd5b505af1158015610c79573d5f5f3e3d5ffd5b5050505050565b5f610c8f61136f60201b60201c565b90505f670de0b6b3a76400008383610ca79190611cca565b610cb19190611d38565b905080600c5f8673ffffffffffffffffffffffffffffffffffffffff1673ffffffffffffffffffffffffffffffffffffffff1681526020019081526020015f205f828254610cff9190611bc2565b9250508190555050505050565b5f5f8203610d1c575f9050610de4565b5f610d2c8461153560201b60201c565b90505f8103610d3e575f915050610de4565b5f610d4d61136f60201b60201c565b9050818111610d60575f92505050610de4565b5f6014806014610d709190611bc2565b610d7a9190611bc2565b90505f828484610d8a9190611d68565b87610d959190611cca565b610d9f9190611d38565b905060648282610daf9190611cca565b610db99190611d38565b945085851115610ddf576064602387610dd29190611cca565b610ddc9190611d38565b94505b505050505b92915050565b610e336064601483610dfc9190611cca565b610e069190611d38565b60085f9054906101000a900473ffffffffffffffffffffffffffffffffffffffff16610f6260201b60201c565b5f6064601483610e439190611cca565b610e4d9190611d38565b9050610e808160095f9054906101000a900473ffffffffffffffffffffffffffffffffffffffff16610f6260201b60201c565b60095f9054906101000a900473ffffffffffffffffffffffffffffffffffffffff1673ffffffffffffffffffffffffffffffffffffffff1663cc430ced610ecc836111aa60201b60201c565b6040518263ffffffff1660e01b8152600401610ee89190611c39565b5f604051808303815f87803b158015610eff575f5ffd5b505af1158015610f11573d5f5f3e3d5ffd5b50505050610f5e6064601484610f279190611cca565b610f319190611d38565b600a5f9054906101000a900473ffffffffffffffffffffffffffffffffffffffff16610f6260201b60201c565b5050565b5f8203156111a6576001600a60146101000a81548160ff0219169083151502179055505f600267ffffffffffffffff811115610fa157610fa0611844565b5b604051908082528060200260200182016040528015610fcf5781602001602082028036833780820191505090505b50905030815f81518110610fe657610fe5611d9b565b5b602002602001019073ffffffffffffffffffffffffffffffffffffffff16908173ffffffffffffffffffffffffffffffffffffffff16815250507355d398326f99059ff775485246999027b31979558160018151811061104957611048611d9b565b5b602002602001019073ffffffffffffffffffffffffffffffffffffffff16908173ffffffffffffffffffffffffffffffffffffffff16815250506110b53060065f9054906101000a900473ffffffffffffffffffffffffffffffffffffffff16856115bd60201b60201c565b60065f9054906101000a900473ffffffffffffffffffffffffffffffffffffffff1673ffffffffffffffffffffffffffffffffffffffff16635c11d795845f8486601e426111039190611bc2565b6040518663ffffffff1660e01b8152600401611123959493929190611eb8565b5f604051808303815f87803b15801561113a575f5ffd5b505af192505050801561114b575060015b1561118a577faedb4dc54dc30d46d331ffcc44cd836607bea96c12e1b21a95210ed899184d048284604051611181929190611f10565b60405180910390a15b5f600a60146101000a81548160ff021916908315150217905550505b5050565b5f5f600267ffffffffffffffff8111156111c7576111c6611844565b5b6040519080825280602002602001820160405280156111f55781602001602082028036833780820191505090505b50905030815f8151811061120c5761120b611d9b565b5b602002602001019073ffffffffffffffffffffffffffffffffffffffff16908173ffffffffffffffffffffffffffffffffffffffff16815250507355d398326f99059ff775485246999027b31979558160018151811061126f5761126e611d9b565b5b602002602001019073ffffffffffffffffffffffffffffffffffffffff16908173ffffffffffffffffffffffffffffffffffffffff16815250505f60065f9054906101000a900473ffffffffffffffffffffffffffffffffffffffff1673ffffffffffffffffffffffffffffffffffffffff1663d06ca61f85846040518363ffffffff1660e01b8152600401611306929190611f37565b5f60405180830381865afa158015611320573d5f5f3e3d5ffd5b505050506040513d5f823e3d601f19601f8201168201806040525081019061134891906120b2565b90508060018151811061135e5761135d611d9b565b5b602002602001015192505050919050565b5f5f600267ffffffffffffffff81111561138c5761138b611844565b5b6040519080825280602002602001820160405280156113ba5781602001602082028036833780820191505090505b50905030815f815181106113d1576113d0611d9b565b5b602002602001019073ffffffffffffffffffffffffffffffffffffffff16908173ffffffffffffffffffffffffffffffffffffffff16815250507355d398326f99059ff775485246999027b31979558160018151811061143457611433611d9b565b5b602002602001019073ffffffffffffffffffffffffffffffffffffffff16908173ffffffffffffffffffffffffffffffffffffffff168152505060065f9054906101000a900473ffffffffffffffffffffffffffffffffffffffff1673ffffffffffffffffffffffffffffffffffffffff1663d06ca61f670de0b6b3a7640000836040518363ffffffff1660e01b81526004016114d2929190612132565b5f60405180830381865afa1580156114ec573d5f5f3e3d5ffd5b505050506040513d5f823e3d601f19601f8201168201806040525081019061151491906120b2565b60018151811061152757611526611d9b565b5b602002602001015191505090565b5f5f61154683610b7260201b60201c565b90505f8103611558575f9150506115b8565b80670de0b6b3a7640000600c5f8673ffffffffffffffffffffffffffffffffffffffff1673ffffffffffffffffffffffffffffffffffffffff1681526020019081526020015f20546115aa9190611cca565b6115b49190611d38565b9150505b919050565b6115d083838360016115d560201b60201c565b505050565b5f73ffffffffffffffffffffffffffffffffffffffff168473ffffffffffffffffffffffffffffffffffffffff1603611645575f6040517fe602df0500000000000000000000000000000000000000000000000000000000815260040161163c9190611b55565b60405180910390fd5b5f73ffffffffffffffffffffffffffffffffffffffff168373ffffffffffffffffffffffffffffffffffffffff16036116b5575f6040517f94280d620000000000000000000000000000000000000000000000000000000081526004016116ac9190611b55565b60405180910390fd5b8160015f8673ffffffffffffffffffffffffffffffffffffffff1673ffffffffffffffffffffffffffffffffffffffff1681526020019081526020015f205f8573ffffffffffffffffffffffffffffffffffffffff1673ffffffffffffffffffffffffffffffffffffffff1681526020019081526020015f2081905550801561179e578273ffffffffffffffffffffffffffffffffffffffff168473ffffffffffffffffffffffffffffffffffffffff167f8c5be1e5ebec7d5bd14f71427d1e84f3dd0314c0f7b2291e5b200ac8c7c3b925846040516117959190611c39565b60405180910390a35b50505050565b5f604051905090565b5f5ffd5b5f5ffd5b5f73ffffffffffffffffffffffffffffffffffffffff82169050919050565b5f6117de826117b5565b9050919050565b6117ee816117d4565b81146117f8575f5ffd5b50565b5f81519050611809816117e5565b92915050565b5f60208284031215611824576118236117ad565b5b5f611831848285016117fb565b91505092915050565b5f81519050919050565b7f4e487b71000000000000000000000000000000000000000000000000000000005f52604160045260245ffd5b7f4e487b71000000000000000000000000000000000000000000000000000000005f52602260045260245ffd5b5f60028204905060018216806118b557607f821691505b6020821081036118c8576118c7611871565b5b50919050565b5f819050815f5260205f209050919050565b5f6020601f8301049050919050565b5f82821b905092915050565b5f6008830261192a7fffffffffffffffffffffffffffffffffffffffffffffffffffffffffffffffff826118ef565b61193486836118ef565b95508019841693508086168417925050509392505050565b5f819050919050565b5f819050919050565b5f61197861197361196e8461194c565b611955565b61194c565b9050919050565b5f819050919050565b6119918361195e565b6119a561199d8261197f565b8484546118fb565b825550505050565b5f5f905090565b6119bc6119ad565b6119c7818484611988565b505050565b5b818110156119ea576119df5f826119b4565b6001810190506119cd565b5050565b601f821115611a2f57611a00816118ce565b611a09846118e0565b81016020851015611a18578190505b611a2c611a24856118e0565b8301826119cc565b50505b505050565b5f82821c905092915050565b5f611a4f5f1984600802611a34565b1980831691505092915050565b5f611a678383611a40565b9150826002028217905092915050565b611a808261183a565b67ffffffffffffffff811115611a9957611a98611844565b5b611aa3825461189e565b611aae8282856119ee565b5f60209050601f831160018114611adf575f8415611acd578287015190505b611ad78582611a5c565b865550611b3e565b601f198416611aed866118ce565b5f5b82811015611b1457848901518255600182019150602085019450602081019050611aef565b86831015611b315784890151611b2d601f891682611a40565b8355505b6001600288020188555050505b505050505050565b611b4f816117d4565b82525050565b5f602082019050611b685f830184611b46565b92915050565b5f604082019050611b815f830185611b46565b611b8e6020830184611b46565b9392505050565b7f4e487b71000000000000000000000000000000000000000000000000000000005f52601160045260245ffd5b5f611bcc8261194c565b9150611bd78361194c565b9250828201905080821115611bef57611bee611b95565b5b92915050565b611bfe8161194c565b82525050565b5f606082019050611c175f830186611b46565b611c246020830185611bf5565b611c316040830184611bf5565b949350505050565b5f602082019050611c4c5f830184611bf5565b92915050565b5f82825260208201905092915050565b7f4255595f414e445f53454c4c5f495344495341424c45442e00000000000000005f82015250565b5f611c96601883611c52565b9150611ca182611c62565b602082019050919050565b5f6020820190508181035f830152611cc381611c8a565b9050919050565b5f611cd48261194c565b9150611cdf8361194c565b9250828202611ced8161194c565b91508282048414831517611d0457611d03611b95565b5b5092915050565b7f4e487b71000000000000000000000000000000000000000000000000000000005f52601260045260245ffd5b5f611d428261194c565b9150611d4d8361194c565b925082611d5d57611d5c611d0b565b5b828204905092915050565b5f611d728261194c565b9150611d7d8361194c565b9250828203905081811115611d9557611d94611b95565b5b92915050565b7f4e487b71000000000000000000000000000000000000000000000000000000005f52603260045260245ffd5b5f819050919050565b5f611deb611de6611de184611dc8565b611955565b61194c565b9050919050565b611dfb81611dd1565b82525050565b5f81519050919050565b5f82825260208201905092915050565b5f819050602082019050919050565b611e33816117d4565b82525050565b5f611e448383611e2a565b60208301905092915050565b5f602082019050919050565b5f611e6682611e01565b611e708185611e0b565b9350611e7b83611e1b565b805f5b83811015611eab578151611e928882611e39565b9750611e9d83611e50565b925050600181019050611e7e565b5085935050505092915050565b5f60a082019050611ecb5f830188611bf5565b611ed86020830187611df2565b8181036040830152611eea8186611e5c565b9050611ef96060830185611b46565b611f066080830184611bf5565b9695505050505050565b5f604082019050611f235f830185611b46565b611f306020830184611bf5565b9392505050565b5f604082019050611f4a5f830185611bf5565b8181036020830152611f5c8184611e5c565b90509392505050565b5f5ffd5b5f601f19601f8301169050919050565b611f8282611f69565b810181811067ffffffffffffffff82111715611fa157611fa0611844565b5b80604052505050565b5f611fb36117a4565b9050611fbf8282611f79565b919050565b5f67ffffffffffffffff821115611fde57611fdd611844565b5b602082029050602081019050919050565b5f5ffd5b611ffc8161194c565b8114612006575f5ffd5b50565b5f8151905061201781611ff3565b92915050565b5f61202f61202a84611fc4565b611faa565b9050808382526020820190506020840283018581111561205257612051611fef565b5b835b8181101561207b57806120678882612009565b845260208401935050602081019050612054565b5050509392505050565b5f82601f83011261209957612098611f65565b5b81516120a984826020860161201d565b91505092915050565b5f602082840312156120c7576120c66117ad565b5b5f82015167ffffffffffffffff8111156120e4576120e36117b1565b5b6120f084828501612085565b91505092915050565b5f819050919050565b5f61211c612117612112846120f9565b611955565b61194c565b9050919050565b61212c81612102565b82525050565b5f6040820190506121455f830185612123565b81810360208301526121578184611e5c565b90509392505050565b6129928061216d5f395ff3fe608060405234801561000f575f5ffd5b50600436106101ee575f3560e01c80638da5cb5b1161010d578063c1d960ae116100a0578063dd62ed3e1161006f578063dd62ed3e146105c6578063e9a997e5146105f6578063f2fde38b14610614578063fcb1138d14610630576101ee565b8063c1d960ae1461053c578063c21ebd071461056c578063c54e44eb1461058a578063c7fb372f146105a8576101ee565b8063a7cd52cb116100dc578063a7cd52cb146104a2578063a9059cbb146104d2578063b8c9d25c14610502578063bedb86fb14610520576101ee565b80638da5cb5b1461042a57806395d89b41146104485780639d1b464a146104665780639dc4198414610484576101ee565b8063313ce5671161018557806370a082311161015457806370a08231146103b4578063715018a6146103e45780638456cb59146103ee57806386f0f61b1461040c576101ee565b8063313ce56714610318578063521eb273146103365780635c1952171461035457806360d1d4a414610384576101ee565b80630c355b47116101c15780630c355b471461028e57806318160ddd146102ac57806323b872dd146102ca5780632d3e474a146102fa576101ee565b806303fd2a45146101f257806306fdde0314610210578063088878b51461022e578063095ea7b31461025e575b5f5ffd5b6101fa61064e565b6040516102079190611fd4565b60405180910390f35b610218610654565b604051610225919061205d565b60405180910390f35b610248600480360381019061024391906120b8565b6106e4565b60405161025591906120fb565b60405180910390f35b6102786004803603810190610273919061213e565b610766565b6040516102859190612196565b60405180910390f35b610296610788565b6040516102a391906120fb565b60405180910390f35b6102b461078d565b6040516102c191906120fb565b60405180910390f35b6102e460048036038101906102df91906121af565b610796565b6040516102f19190612196565b60405180910390f35b6103026107c4565b60405161030f9190611fd4565b60405180910390f35b6103206107e9565b60405161032d919061221a565b60405180910390f35b61033e6107f1565b60405161034b9190611fd4565b60405180910390f35b61036e60048036038101906103699190612233565b610816565b60405161037b91906120fb565b60405180910390f35b61039e600480360381019061039991906120b8565b6109db565b6040516103ab91906120fb565b60405180910390f35b6103ce60048036038101906103c991906120b8565b6109f0565b6040516103db91906120fb565b60405180910390f35b6103ec610a35565b005b6103f6610a48565b6040516104039190612196565b60405180910390f35b610414610a5b565b60405161042191906120fb565b60405180910390f35b610432610a60565b60405161043f9190611fd4565b60405180910390f35b610450610a88565b60405161045d919061205d565b60405180910390f35b61046e610b18565b60405161047b91906120fb565b60405180910390f35b61048c610cde565b60405161049991906120fb565b60405180910390f35b6104bc60048036038101906104b791906120b8565b610ce3565b6040516104c99190612196565b60405180910390f35b6104ec60048036038101906104e7919061213e565b610d00565b6040516104f99190612196565b60405180910390f35b61050a610d22565b6040516105179190611fd4565b60405180910390f35b61053a60048036038101906105359190612288565b610d47565b005b6105566004803603810190610551919061213e565b610d6c565b60405161056391906120fb565b60405180910390f35b610574610e3e565b604051610581919061230e565b60405180910390f35b610592610e63565b60405161059f9190611fd4565b60405180910390f35b6105b0610e7b565b6040516105bd9190611fd4565b60405180910390f35b6105e060048036038101906105db9190612327565b610ea0565b6040516105ed91906120fb565b60405180910390f35b6105fe610f22565b60405161060b91906120fb565b60405180910390f35b61062e600480360381019061062991906120b8565b610f27565b005b610638610fab565b60405161064591906120fb565b60405180910390f35b61dead81565b60606003805461066390612392565b80601f016020809104026020016040519081016040528092919081815260200182805461068f90612392565b80156106da5780601f106106b1576101008083540402835291602001916106da565b820191905f5260205f20905b8154815290600101906020018083116106bd57829003601f168201915b5050505050905090565b5f5f6106ef836109f0565b90505f8103610701575f915050610761565b80670de0b6b3a7640000600c5f8673ffffffffffffffffffffffffffffffffffffffff1673ffffffffffffffffffffffffffffffffffffffff1681526020019081526020015f205461075391906123ef565b61075d919061245d565b9150505b919050565b5f5f610770610fb0565b905061077d818585610fb7565b600191505092915050565b601481565b5f600254905090565b5f5f6107a0610fb0565b90506107ad858285610fc9565b6107b885858561105c565b60019150509392505050565b60085f9054906101000a900473ffffffffffffffffffffffffffffffffffffffff1681565b5f6012905090565b600a5f9054906101000a900473ffffffffffffffffffffffffffffffffffffffff1681565b5f5f600267ffffffffffffffff8111156108335761083261248d565b5b6040519080825280602002602001820160405280156108615781602001602082028036833780820191505090505b50905030815f81518110610878576108776124ba565b5b602002602001019073ffffffffffffffffffffffffffffffffffffffff16908173ffffffffffffffffffffffffffffffffffffffff16815250507355d398326f99059ff775485246999027b3197955816001815181106108db576108da6124ba565b5b602002602001019073ffffffffffffffffffffffffffffffffffffffff16908173ffffffffffffffffffffffffffffffffffffffff16815250505f60065f9054906101000a900473ffffffffffffffffffffffffffffffffffffffff1673ffffffffffffffffffffffffffffffffffffffff1663d06ca61f85846040518363ffffffff1660e01b815260040161097292919061259e565b5f60405180830381865afa15801561098c573d5f5f3e3d5ffd5b505050506040513d5f823e3d601f19601f820116820180604052508101906109b491906126f3565b9050806001815181106109ca576109c96124ba565b5b602002602001015192505050919050565b600c602052805f5260405f205f915090505481565b5f5f5f8373ffffffffffffffffffffffffffffffffffffffff1673ffffffffffffffffffffffffffffffffffffffff1681526020019081526020015f20549050919050565b610a3d61114c565b610a465f6111d3565b565b600a60159054906101000a900460ff1681565b600281565b5f60055f9054906101000a900473ffffffffffffffffffffffffffffffffffffffff16905090565b606060048054610a9790612392565b80601f0160208091040260200160405190810160405280929190818152602001828054610ac390612392565b8015610b0e5780601f10610ae557610100808354040283529160200191610b0e565b820191905f5260205f20905b815481529060010190602001808311610af157829003601f168201915b5050505050905090565b5f5f600267ffffffffffffffff811115610b3557610b3461248d565b5b604051908082528060200260200182016040528015610b635781602001602082028036833780820191505090505b50905030815f81518110610b7a57610b796124ba565b5b602002602001019073ffffffffffffffffffffffffffffffffffffffff16908173ffffffffffffffffffffffffffffffffffffffff16815250507355d398326f99059ff775485246999027b319795581600181518110610bdd57610bdc6124ba565b5b602002602001019073ffffffffffffffffffffffffffffffffffffffff16908173ffffffffffffffffffffffffffffffffffffffff168152505060065f9054906101000a900473ffffffffffffffffffffffffffffffffffffffff1673ffffffffffffffffffffffffffffffffffffffff1663d06ca61f670de0b6b3a7640000836040518363ffffffff1660e01b8152600401610c7b929190612773565b5f60405180830381865afa158015610c95573d5f5f3e3d5ffd5b505050506040513d5f823e3d601f19601f82011682018060405250810190610cbd91906126f3565b600181518110610cd057610ccf6124ba565b5b602002602001015191505090565b601481565b600b602052805f5260405f205f915054906101000a900460ff1681565b5f5f610d0a610fb0565b9050610d1781858561105c565b600191505092915050565b60075f9054906101000a900473ffffffffffffffffffffffffffffffffffffffff1681565b610d4f61114c565b80600a60156101000a81548160ff02191690831515021790555050565b5f5f8203610d7c575f9050610e38565b5f610d86846106e4565b90505f8103610d98575f915050610e38565b5f610da1610b18565b9050818111610db4575f92505050610e38565b5f6014806014610dc491906127a1565b610dce91906127a1565b90505f828484610dde91906127d4565b87610de991906123ef565b610df3919061245d565b905060648282610e0391906123ef565b610e0d919061245d565b945085851115610e33576064602387610e2691906123ef565b610e30919061245d565b94505b505050505b92915050565b60065f9054906101000a900473ffffffffffffffffffffffffffffffffffffffff1681565b7355d398326f99059ff775485246999027b319795581565b60095f9054906101000a900473ffffffffffffffffffffffffffffffffffffffff1681565b5f60015f8473ffffffffffffffffffffffffffffffffffffffff1673ffffffffffffffffffffffffffffffffffffffff1681526020019081526020015f205f8373ffffffffffffffffffffffffffffffffffffffff1673ffffffffffffffffffffffffffffffffffffffff1681526020019081526020015f2054905092915050565b600381565b610f2f61114c565b5f73ffffffffffffffffffffffffffffffffffffffff168173ffffffffffffffffffffffffffffffffffffffff1603610f9f575f6040517f1e4fbdf7000000000000000000000000000000000000000000000000000000008152600401610f969190611fd4565b60405180910390fd5b610fa8816111d3565b50565b601481565b5f33905090565b610fc48383836001611296565b505050565b5f610fd48484610ea0565b90507fffffffffffffffffffffffffffffffffffffffffffffffffffffffffffffffff8110156110565781811015611047578281836040517ffb8f41b200000000000000000000000000000000000000000000000000000000815260040161103e93929190612807565b60405180910390fd5b61105584848484035f611296565b5b50505050565b5f73ffffffffffffffffffffffffffffffffffffffff168373ffffffffffffffffffffffffffffffffffffffff16036110cc575f6040517f96c6fd1e0000000000000000000000000000000000000000000000000000000081526004016110c39190611fd4565b60405180910390fd5b5f73ffffffffffffffffffffffffffffffffffffffff168273ffffffffffffffffffffffffffffffffffffffff160361113c575f6040517fec442f050000000000000000000000000000000000000000000000000000000081526004016111339190611fd4565b60405180910390fd5b611147838383611465565b505050565b611154610fb0565b73ffffffffffffffffffffffffffffffffffffffff16611172610a60565b73ffffffffffffffffffffffffffffffffffffffff16146111d157611195610fb0565b6040517f118cdaa70000000000000000000000000000000000000000000000000000000081526004016111c89190611fd4565b60405180910390fd5b565b5f60055f9054906101000a900473ffffffffffffffffffffffffffffffffffffffff1690508160055f6101000a81548173ffffffffffffffffffffffffffffffffffffffff021916908373ffffffffffffffffffffffffffffffffffffffff1602179055508173ffffffffffffffffffffffffffffffffffffffff168173ffffffffffffffffffffffffffffffffffffffff167f8be0079c531659141344cd1fd0a4f28419497f9722a3daafe3b4186f6b6457e060405160405180910390a35050565b5f73ffffffffffffffffffffffffffffffffffffffff168473ffffffffffffffffffffffffffffffffffffffff1603611306575f6040517fe602df050000000000000000000000000000000000000000000000000000000081526004016112fd9190611fd4565b60405180910390fd5b5f73ffffffffffffffffffffffffffffffffffffffff168373ffffffffffffffffffffffffffffffffffffffff1603611376575f6040517f94280d6200000000000000000000000000000000000000000000000000000000815260040161136d9190611fd4565b60405180910390fd5b8160015f8673ffffffffffffffffffffffffffffffffffffffff1673ffffffffffffffffffffffffffffffffffffffff1681526020019081526020015f205f8573ffffffffffffffffffffffffffffffffffffffff1673ffffffffffffffffffffffffffffffffffffffff1681526020019081526020015f2081905550801561145f578273ffffffffffffffffffffffffffffffffffffffff168473ffffffffffffffffffffffffffffffffffffffff167f8c5be1e5ebec7d5bd14f71427d1e84f3dd0314c0f7b2291e5b200ac8c7c3b9258460405161145691906120fb565b60405180910390a35b50505050565b600a60149054906101000a900460ff16806114ab57505f73ffffffffffffffffffffffffffffffffffffffff168373ffffffffffffffffffffffffffffffffffffffff16145b806114e157505f73ffffffffffffffffffffffffffffffffffffffff168273ffffffffffffffffffffffffffffffffffffffff16145b806115325750600b5f8473ffffffffffffffffffffffffffffffffffffffff1673ffffffffffffffffffffffffffffffffffffffff1681526020019081526020015f205f9054906101000a900460ff165b806115835750600b5f8373ffffffffffffffffffffffffffffffffffffffff1673ffffffffffffffffffffffffffffffffffffffff1681526020019081526020015f205f9054906101000a900460ff165b156115985761159383838361169e565b611699565b5f60075f9054906101000a900473ffffffffffffffffffffffffffffffffffffffff1673ffffffffffffffffffffffffffffffffffffffff168473ffffffffffffffffffffffffffffffffffffffff161490505f60075f9054906101000a900473ffffffffffffffffffffffffffffffffffffffff1673ffffffffffffffffffffffffffffffffffffffff168473ffffffffffffffffffffffffffffffffffffffff1614905081156116555761164e84846118b7565b5050611699565b801561166c57611665858461198d565b5050611699565b5f611676306109f0565b90505f81111561168a5761168981611ab0565b5b61169586868661169e565b5050505b505050565b5f73ffffffffffffffffffffffffffffffffffffffff168373ffffffffffffffffffffffffffffffffffffffff16036116ee578060025f8282546116e291906127a1565b925050819055506117bc565b5f5f5f8573ffffffffffffffffffffffffffffffffffffffff1673ffffffffffffffffffffffffffffffffffffffff1681526020019081526020015f2054905081811015611777578381836040517fe450d38c00000000000000000000000000000000000000000000000000000000815260040161176e93929190612807565b60405180910390fd5b8181035f5f8673ffffffffffffffffffffffffffffffffffffffff1673ffffffffffffffffffffffffffffffffffffffff1681526020019081526020015f2081905550505b5f73ffffffffffffffffffffffffffffffffffffffff168273ffffffffffffffffffffffffffffffffffffffff1603611803578060025f828254039250508190555061184d565b805f5f8473ffffffffffffffffffffffffffffffffffffffff1673ffffffffffffffffffffffffffffffffffffffff1681526020019081526020015f205f82825401925050819055505b8173ffffffffffffffffffffffffffffffffffffffff168373ffffffffffffffffffffffffffffffffffffffff167fddf252ad1be2c89b69c2b068fc378daa952ba7f163c4a11628f55a4df523b3ef836040516118aa91906120fb565b60405180910390a3505050565b600a60159054906101000a900460ff1615611907576040517f08c379a00000000000000000000000000000000000000000000000000000000081526004016118fe90612886565b60405180910390fd5b5f606460028361191791906123ef565b611921919061245d565b90505f606460038461193391906123ef565b61193d919061245d565b90505f81838561194d91906127d4565b61195791906127d4565b90506119638582611b6d565b61196e85308461169e565b61197b8561dead8561169e565b61198685868361169e565b5050505050565b600a60159054906101000a900460ff16156119dd576040517f08c379a00000000000000000000000000000000000000000000000000000000081526004016119d490612886565b60405180910390fd5b5f60646002836119ed91906123ef565b6119f7919061245d565b90505f6064600384611a0991906123ef565b611a13919061245d565b90505f818385611a2391906127d4565b611a2d91906127d4565b90505f611a3a8683610d6c565b90505f811115611a5957611a4f86308361169e565b611a5881611bf3565b5b611a6486308561169e565b611a718661dead8661169e565b611aa88660075f9054906101000a900473ffffffffffffffffffffffffffffffffffffffff168385611aa391906127d4565b61169e565b505050505050565b611adb8160095f9054906101000a900473ffffffffffffffffffffffffffffffffffffffff16611d53565b60095f9054906101000a900473ffffffffffffffffffffffffffffffffffffffff1673ffffffffffffffffffffffffffffffffffffffff1663cc430ced611b2183610816565b6040518263ffffffff1660e01b8152600401611b3d91906120fb565b5f604051808303815f87803b158015611b54575f5ffd5b505af1158015611b66573d5f5f3e3d5ffd5b5050505050565b5f611b76610b18565b90505f670de0b6b3a76400008383611b8e91906123ef565b611b98919061245d565b905080600c5f8673ffffffffffffffffffffffffffffffffffffffff1673ffffffffffffffffffffffffffffffffffffffff1681526020019081526020015f205f828254611be691906127a1565b9250508190555050505050565b611c366064601483611c0591906123ef565b611c0f919061245d565b60085f9054906101000a900473ffffffffffffffffffffffffffffffffffffffff16611d53565b5f6064601483611c4691906123ef565b611c50919061245d565b9050611c7d8160095f9054906101000a900473ffffffffffffffffffffffffffffffffffffffff16611d53565b60095f9054906101000a900473ffffffffffffffffffffffffffffffffffffffff1673ffffffffffffffffffffffffffffffffffffffff1663cc430ced611cc383610816565b6040518263ffffffff1660e01b8152600401611cdf91906120fb565b5f604051808303815f87803b158015611cf6575f5ffd5b505af1158015611d08573d5f5f3e3d5ffd5b50505050611d4f6064601484611d1e91906123ef565b611d28919061245d565b600a5f9054906101000a900473ffffffffffffffffffffffffffffffffffffffff16611d53565b5050565b5f820315611f91576001600a60146101000a81548160ff0219169083151502179055505f600267ffffffffffffffff811115611d9257611d9161248d565b5b604051908082528060200260200182016040528015611dc05781602001602082028036833780820191505090505b50905030815f81518110611dd757611dd66124ba565b5b602002602001019073ffffffffffffffffffffffffffffffffffffffff16908173ffffffffffffffffffffffffffffffffffffffff16815250507355d398326f99059ff775485246999027b319795581600181518110611e3a57611e396124ba565b5b602002602001019073ffffffffffffffffffffffffffffffffffffffff16908173ffffffffffffffffffffffffffffffffffffffff1681525050611ea03060065f9054906101000a900473ffffffffffffffffffffffffffffffffffffffff1685610fb7565b60065f9054906101000a900473ffffffffffffffffffffffffffffffffffffffff1673ffffffffffffffffffffffffffffffffffffffff16635c11d795845f8486601e42611eee91906127a1565b6040518663ffffffff1660e01b8152600401611f0e9594939291906128dd565b5f604051808303815f87803b158015611f25575f5ffd5b505af1925050508015611f36575060015b15611f75577faedb4dc54dc30d46d331ffcc44cd836607bea96c12e1b21a95210ed899184d048284604051611f6c929190612935565b60405180910390a15b5f600a60146101000a81548160ff021916908315150217905550505b5050565b5f73ffffffffffffffffffffffffffffffffffffffff82169050919050565b5f611fbe82611f95565b9050919050565b611fce81611fb4565b82525050565b5f602082019050611fe75f830184611fc5565b92915050565b5f81519050919050565b5f82825260208201905092915050565b8281835e5f83830152505050565b5f601f19601f8301169050919050565b5f61202f82611fed565b6120398185611ff7565b9350612049818560208601612007565b61205281612015565b840191505092915050565b5f6020820190508181035f8301526120758184612025565b905092915050565b5f604051905090565b5f5ffd5b5f5ffd5b61209781611fb4565b81146120a1575f5ffd5b50565b5f813590506120b28161208e565b92915050565b5f602082840312156120cd576120cc612086565b5b5f6120da848285016120a4565b91505092915050565b5f819050919050565b6120f5816120e3565b82525050565b5f60208201905061210e5f8301846120ec565b92915050565b61211d816120e3565b8114612127575f5ffd5b50565b5f8135905061213881612114565b92915050565b5f5f6040838503121561215457612153612086565b5b5f612161858286016120a4565b92505060206121728582860161212a565b9150509250929050565b5f8115159050919050565b6121908161217c565b82525050565b5f6020820190506121a95f830184612187565b92915050565b5f5f5f606084860312156121c6576121c5612086565b5b5f6121d3868287016120a4565b93505060206121e4868287016120a4565b92505060406121f58682870161212a565b9150509250925092565b5f60ff82169050919050565b612214816121ff565b82525050565b5f60208201905061222d5f83018461220b565b92915050565b5f6020828403121561224857612247612086565b5b5f6122558482850161212a565b91505092915050565b6122678161217c565b8114612271575f5ffd5b50565b5f813590506122828161225e565b92915050565b5f6020828403121561229d5761229c612086565b5b5f6122aa84828501612274565b91505092915050565b5f819050919050565b5f6122d66122d16122cc84611f95565b6122b3565b611f95565b9050919050565b5f6122e7826122bc565b9050919050565b5f6122f8826122dd565b9050919050565b612308816122ee565b82525050565b5f6020820190506123215f8301846122ff565b92915050565b5f5f6040838503121561233d5761233c612086565b5b5f61234a858286016120a4565b925050602061235b858286016120a4565b9150509250929050565b7f4e487b71000000000000000000000000000000000000000000000000000000005f52602260045260245ffd5b5f60028204905060018216806123a957607f821691505b6020821081036123bc576123bb612365565b5b50919050565b7f4e487b71000000000000000000000000000000000000000000000000000000005f52601160045260245ffd5b5f6123f9826120e3565b9150612404836120e3565b9250828202612412816120e3565b91508282048414831517612429576124286123c2565b5b5092915050565b7f4e487b71000000000000000000000000000000000000000000000000000000005f52601260045260245ffd5b5f612467826120e3565b9150612472836120e3565b92508261248257612481612430565b5b828204905092915050565b7f4e487b71000000000000000000000000000000000000000000000000000000005f52604160045260245ffd5b7f4e487b71000000000000000000000000000000000000000000000000000000005f52603260045260245ffd5b5f81519050919050565b5f82825260208201905092915050565b5f819050602082019050919050565b61251981611fb4565b82525050565b5f61252a8383612510565b60208301905092915050565b5f602082019050919050565b5f61254c826124e7565b61255681856124f1565b935061256183612501565b805f5b83811015612591578151612578888261251f565b975061258383612536565b925050600181019050612564565b5085935050505092915050565b5f6040820190506125b15f8301856120ec565b81810360208301526125c38184612542565b90509392505050565b5f5ffd5b6125d982612015565b810181811067ffffffffffffffff821117156125f8576125f761248d565b5b80604052505050565b5f61260a61207d565b905061261682826125d0565b919050565b5f67ffffffffffffffff8211156126355761263461248d565b5b602082029050602081019050919050565b5f5ffd5b5f8151905061265881612114565b92915050565b5f61267061266b8461261b565b612601565b9050808382526020820190506020840283018581111561269357612692612646565b5b835b818110156126bc57806126a8888261264a565b845260208401935050602081019050612695565b5050509392505050565b5f82601f8301126126da576126d96125cc565b5b81516126ea84826020860161265e565b91505092915050565b5f6020828403121561270857612707612086565b5b5f82015167ffffffffffffffff8111156127255761272461208a565b5b612731848285016126c6565b91505092915050565b5f819050919050565b5f61275d6127586127538461273a565b6122b3565b6120e3565b9050919050565b61276d81612743565b82525050565b5f6040820190506127865f830185612764565b81810360208301526127988184612542565b90509392505050565b5f6127ab826120e3565b91506127b6836120e3565b92508282019050808211156127ce576127cd6123c2565b5b92915050565b5f6127de826120e3565b91506127e9836120e3565b9250828203905081811115612801576128006123c2565b5b92915050565b5f60608201905061281a5f830186611fc5565b61282760208301856120ec565b61283460408301846120ec565b949350505050565b7f4255595f414e445f53454c4c5f495344495341424c45442e00000000000000005f82015250565b5f612870601883611ff7565b915061287b8261283c565b602082019050919050565b5f6020820190508181035f83015261289d81612864565b9050919050565b5f819050919050565b5f6128c76128c26128bd846128a4565b6122b3565b6120e3565b9050919050565b6128d7816128ad565b82525050565b5f60a0820190506128f05f8301886120ec565b6128fd60208301876128ce565b818103604083015261290f8186612542565b905061291e6060830185611fc5565b61292b60808301846120ec565b9695505050505050565b5f6040820190506129485f830185611fc5565b61295560208301846120ec565b939250505056fea2646970667358221220c648ade0e89931213bfa932e76b126bc221130cd852508f79eb747ff24cced0464736f6c634300081e0033","linkReferences":{}},"methodIdentifiers":{"DEAD()":"03fd2a45","PROFIT_MARKET_TAX_RATE()":"9dc41984","PROFIT_NODE_TAX_RATE()":"0c355b47","PROFIT_WALLET_TAX_RATE()":"fcb1138d","SWAP_DEAD_FEE_RATE()":"86f0f61b","SWAP_NODE_FEE_RATE()":"e9a997e5","USDT()":"c54e44eb","allowance(address,address)":"dd62ed3e","allowlist(address)":"a7cd52cb","approve(address,uint256)":"095ea7b3","averagePriceOf(address)":"088878b5","balanceOf(address)":"70a08231","currentPrice()":"9d1b464a","decimals()":"313ce567","getAmountOut(uint256)":"5c195217","getProfitTaxToken(address,uint256)":"c1d960ae","marketing()":"2d3e474a","name()":"06fdde03","nodeDividends()":"c7fb372f","owner()":"8da5cb5b","pancakePair()":"b8c9d25c","pancakeRouter()":"c21ebd07","pause()":"8456cb59","renounceOwnership()":"715018a6","setPause(bool)":"bedb86fb","symbol()":"95d89b41","totalCostUsdt(address)":"60d1d4a4","totalSupply()":"18160ddd","transfer(address,uint256)":"a9059cbb","transferFrom(address,address,uint256)":"23b872dd","transferOwnership(address)":"f2fde38b","wallet()":"521eb273"},"id":6}