{"abi":[{"type":"constructor","inputs":[{"name":"_initialRecipient","type":"address","internalType":"address"}],"stateMutability":"nonpayable"},{"type":"function","name":"DEAD","inputs":[],"outputs":[{"name":"","type":"address","internalType":"address"}],"stateMutability":"view"},{"type":"function","name":"PROFIT_MARKET_TAX_RATE","inputs":[],"outputs":[{"name":"","type":"uint256","internalType":"uint256"}],"stateMutability":"view"},{"type":"function","name":"PROFIT_NODE_TAX_RATE","inputs":[],"outputs":[{"name":"","type":"uint256","internalType":"uint256"}],"stateMutability":"view"},{"type":"function","name":"PROFIT_WALLET_TAX_RATE","inputs":[],"outputs":[{"name":"","type":"uint256","internalType":"uint256"}],"stateMutability":"view"},{"type":"function","name":"SWAP_DEAD_FEE_RATE","inputs":[],"outputs":[{"name":"","type":"uint256","internalType":"uint256"}],"stateMutability":"view"},{"type":"function","name":"SWAP_NODE_FEE_RATE","inputs":[],"outputs":[{"name":"","type":"uint256","internalType":"uint256"}],"stateMutability":"view"},{"type":"function","name":"USDT","inputs":[],"outputs":[{"name":"","type":"address","internalType":"address"}],"stateMutability":"view"},{"type":"function","name":"allowance","inputs":[{"name":"owner","type":"address","internalType":"address"},{"name":"spender","type":"address","internalType":"address"}],"outputs":[{"name":"","type":"uint256","internalType":"uint256"}],"stateMutability":"view"},{"type":"function","name":"allowlist","inputs":[{"name":"","type":"address","internalType":"address"}],"outputs":[{"name":"","type":"bool","internalType":"bool"}],"stateMutability":"view"},{"type":"function","name":"approve","inputs":[{"name":"spender","type":"address","internalType":"address"},{"name":"value","type":"uint256","internalType":"uint256"}],"outputs":[{"name":"","type":"bool","internalType":"bool"}],"stateMutability":"nonpayable"},{"type":"function","name":"averagePriceOf","inputs":[{"name":"user","type":"address","internalType":"address"}],"outputs":[{"name":"","type":"uint256","internalType":"uint256"}],"stateMutability":"view"},{"type":"function","name":"balanceOf","inputs":[{"name":"account","type":"address","internalType":"address"}],"outputs":[{"name":"","type":"uint256","internalType":"uint256"}],"stateMutability":"view"},{"type":"function","name":"currentPrice","inputs":[],"outputs":[{"name":"","type":"uint256","internalType":"uint256"}],"stateMutability":"view"},{"type":"function","name":"decimals","inputs":[],"outputs":[{"name":"","type":"uint8","internalType":"uint8"}],"stateMutability":"view"},{"type":"function","name":"getAmountOut","inputs":[{"name":"amountToken","type":"uint256","internalType":"uint256"}],"outputs":[{"name":"","type":"uint256","internalType":"uint256"}],"stateMutability":"view"},{"type":"function","name":"getProfitTaxToken","inputs":[{"name":"from","type":"address","internalType":"address"},{"name":"amountToken","type":"uint256","internalType":"uint256"}],"outputs":[{"name":"taxToken","type":"uint256","internalType":"uint256"}],"stateMutability":"view"},{"type":"function","name":"marketing","inputs":[],"outputs":[{"name":"","type":"address","internalType":"address"}],"stateMutability":"view"},{"type":"function","name":"name","inputs":[],"outputs":[{"name":"","type":"string","internalType":"string"}],"stateMutability":"view"},{"type":"function","name":"nodeDividends","inputs":[],"outputs":[{"name":"","type":"address","internalType":"address"}],"stateMutability":"view"},{"type":"function","name":"owner","inputs":[],"outputs":[{"name":"","type":"address","internalType":"address"}],"stateMutability":"view"},{"type":"function","name":"pancakePair","inputs":[],"outputs":[{"name":"","type":"address","internalType":"address"}],"stateMutability":"view"},{"type":"function","name":"pancakeRouter","inputs":[],"outputs":[{"name":"","type":"address","internalType":"contract IUniswapV2Router02"}],"stateMutability":"view"},{"type":"function","name":"pause","inputs":[],"outputs":[{"name":"","type":"bool","internalType":"bool"}],"stateMutability":"view"},{"type":"function","name":"renounceOwnership","inputs":[],"outputs":[],"stateMutability":"nonpayable"},{"type":"function","name":"setPause","inputs":[{"name":"isPause","type":"bool","internalType":"bool"}],"outputs":[],"stateMutability":"nonpayable"},{"type":"function","name":"symbol","inputs":[],"outputs":[{"name":"","type":"string","internalType":"string"}],"stateMutability":"view"},{"type":"function","name":"totalCostUsdt","inputs":[{"name":"","type":"address","internalType":"address"}],"outputs":[{"name":"","type":"uint256","internalType":"uint256"}],"stateMutability":"view"},{"type":"function","name":"totalSupply","inputs":[],"outputs":[{"name":"","type":"uint256","internalType":"uint256"}],"stateMutability":"view"},{"type":"function","name":"transfer","inputs":[{"name":"to","type":"address","internalType":"address"},{"name":"value","type":"uint256","internalType":"uint256"}],"outputs":[{"name":"","type":"bool","internalType":"bool"}],"stateMutability":"nonpayable"},{"type":"function","name":"transferFrom","inputs":[{"name":"from","type":"address","internalType":"address"},{"name":"to","type":"address","internalType":"address"},{"name":"value","type":"uint256","internalType":"uint256"}],"outputs":[{"name":"","type":"bool","internalType":"bool"}],"stateMutability":"nonpayable"},{"type":"function","name":"transferOwnership","inputs":[{"name":"newOwner","type":"address","internalType":"address"}],"outputs":[],"stateMutability":"nonpayable"},{"type":"function","name":"wallet","inputs":[],"outputs":[{"name":"","type":"address","internalType":"address"}],"stateMutability":"view"},{"type":"event","name":"Approval","inputs":[{"name":"owner","type":"address","indexed":true,"internalType":"address"},{"name":"spender","type":"address","indexed":true,"internalType":"address"},{"name":"value","type":"uint256","indexed":false,"internalType":"uint256"}],"anonymous":false},{"type":"event","name":"OwnershipTransferred","inputs":[{"name":"previousOwner","type":"address","indexed":true,"internalType":"address"},{"name":"newOwner","type":"address","indexed":true,"internalType":"address"}],"anonymous":false},{"type":"event","name":"SwapAndSendTax","inputs":[{"name":"recipient","type":"address","indexed":false,"internalType":"address"},{"name":"tokensSwapped","type":"uint256","indexed":false,"internalType":"uint256"}],"anonymous":false},{"type":"event","name":"Transfer","inputs":[{"name":"from","type":"address","indexed":true,"internalType":"address"},{"name":"to","type":"address","indexed":true,"internalType":"address"},{"name":"value","type":"uint256","indexed":false,"internalType":"uint256"}],"anonymous":false},{"type":"error","name":"ERC20InsufficientAllowance","inputs":[{"name":"spender","type":"address","internalType":"address"},{"name":"allowance","type":"uint256","internalType":"uint256"},{"name":"needed","type":"uint256","internalType":"uint256"}]},{"type":"error","name":"ERC20InsufficientBalance","inputs":[{"name":"sender","type":"address","internalType":"address"},{"name":"balance","type":"uint256","internalType":"uint256"},{"name":"needed","type":"uint256","internalType":"uint256"}]},{"type":"error","name":"ERC20InvalidApprover","inputs":[{"name":"approver","type":"address","internalType":"address"}]},{"type":"error","name":"ERC20InvalidReceiver","inputs":[{"name":"receiver","type":"address","internalType":"address"}]},{"type":"error","name":"ERC20InvalidSender","inputs":[{"name":"sender","type":"address","internalType":"address"}]},{"type":"error","name":"ERC20InvalidSpender","inputs":[{"name":"spender","type":"address","internalType":"address"}]},{"type":"error","name":"OwnableInvalidOwner","inputs":[{"name":"owner","type":"address","internalType":"address"}]},{"type":"error","name":"OwnableUnauthorizedAccount","inputs":[{"name":"account","type":"address","internalType":"address"}]}],"bytecode":{"object":"0x60806040527310ed43c718714eb63d5aa57b78b54704e256024e60065f6101000a81548173ffffffffffffffffffffffffffffffffffffffff021916908373ffffffffffffffffffffffffffffffffffffffff1602179055506001600a60156101000a81548160ff02191690831515021790555034801561007e575f5ffd5b5060405161519d38038061519d83398181016040528101906100a09190611b67565b336040518060400160405280600381526020017f444a5300000000000000000000000000000000000000000000000000000000008152506040518060400160405280600481526020017f444a534300000000000000000000000000000000000000000000000000000000815250816003908161011c9190611dcf565b50806004908161012c9190611dcf565b5050505f73ffffffffffffffffffffffffffffffffffffffff168173ffffffffffffffffffffffffffffffffffffffff160361019f575f6040517f1e4fbdf70000000000000000000000000000000000000000000000000000000081526004016101969190611ead565b60405180910390fd5b6101ae8161037f60201b60201c565b506101c98169152d02c7e14af680000061044260201b60201c565b60065f9054906101000a900473ffffffffffffffffffffffffffffffffffffffff1673ffffffffffffffffffffffffffffffffffffffff1663c45a01556040518163ffffffff1660e01b8152600401602060405180830381865afa158015610233573d5f5f3e3d5ffd5b505050506040513d601f19601f820116820180604052508101906102579190611b67565b73ffffffffffffffffffffffffffffffffffffffff1663c9c65396307355d398326f99059ff775485246999027b31979556040518363ffffffff1660e01b81526004016102a5929190611ec6565b6020604051808303815f875af11580156102c1573d5f5f3e3d5ffd5b505050506040513d601f19601f820116820180604052508101906102e59190611b67565b60075f6101000a81548173ffffffffffffffffffffffffffffffffffffffff021916908373ffffffffffffffffffffffffffffffffffffffff1602179055506001600b5f8373ffffffffffffffffffffffffffffffffffffffff1673ffffffffffffffffffffffffffffffffffffffff1681526020019081526020015f205f6101000a81548160ff021916908315150217905550506124b8565b5f60055f9054906101000a900473ffffffffffffffffffffffffffffffffffffffff1690508160055f6101000a81548173ffffffffffffffffffffffffffffffffffffffff021916908373ffffffffffffffffffffffffffffffffffffffff1602179055508173ffffffffffffffffffffffffffffffffffffffff168173ffffffffffffffffffffffffffffffffffffffff167f8be0079c531659141344cd1fd0a4f28419497f9722a3daafe3b4186f6b6457e060405160405180910390a35050565b5f73ffffffffffffffffffffffffffffffffffffffff168273ffffffffffffffffffffffffffffffffffffffff16036104b2575f6040517fec442f050000000000000000000000000000000000000000000000000000000081526004016104a99190611ead565b60405180910390fd5b6104c35f83836104c760201b60201c565b5050565b600a60149054906101000a900460ff168061050d57505f73ffffffffffffffffffffffffffffffffffffffff168373ffffffffffffffffffffffffffffffffffffffff16145b8061054357505f73ffffffffffffffffffffffffffffffffffffffff168273ffffffffffffffffffffffffffffffffffffffff16145b806105945750600b5f8473ffffffffffffffffffffffffffffffffffffffff1673ffffffffffffffffffffffffffffffffffffffff1681526020019081526020015f205f9054906101000a900460ff165b806105e55750600b5f8373ffffffffffffffffffffffffffffffffffffffff1673ffffffffffffffffffffffffffffffffffffffff1681526020019081526020015f205f9054906101000a900460ff165b15610600576105fb8383836108d360201b60201c565b6108ce565b5f60075f9054906101000a900473ffffffffffffffffffffffffffffffffffffffff1673ffffffffffffffffffffffffffffffffffffffff168473ffffffffffffffffffffffffffffffffffffffff161490505f60075f9054906101000a900473ffffffffffffffffffffffffffffffffffffffff1673ffffffffffffffffffffffffffffffffffffffff168473ffffffffffffffffffffffffffffffffffffffff1614905081156106c3576106bc8484610aec60201b60201c565b50506108ce565b80156106e0576106d98584610bda60201b60201c565b50506108ce565b5f6106f030610ecb60201b60201c565b90505f81111561070a5761070981610f1060201b60201c565b5b5f61071a87610ecb60201b60201c565b90505f600c5f8973ffffffffffffffffffffffffffffffffffffffff1673ffffffffffffffffffffffffffffffffffffffff1681526020019081526020015f2054905061076e8888886108d360201b60201c565b5f8111801561077c57505f82115b156108c8575f82878361078f9190611f1a565b6107999190611f88565b905080826107a79190611fb8565b600c5f8b73ffffffffffffffffffffffffffffffffffffffff1673ffffffffffffffffffffffffffffffffffffffff1681526020019081526020015f2081905550620f4240600c5f8b73ffffffffffffffffffffffffffffffffffffffff1673ffffffffffffffffffffffffffffffffffffffff1681526020019081526020015f20541015610873575f600c5f8b73ffffffffffffffffffffffffffffffffffffffff1673ffffffffffffffffffffffffffffffffffffffff1681526020019081526020015f20819055505b80600c5f8a73ffffffffffffffffffffffffffffffffffffffff1673ffffffffffffffffffffffffffffffffffffffff1681526020019081526020015f205f8282546108bf9190611feb565b92505081905550505b50505050505b505050565b5f73ffffffffffffffffffffffffffffffffffffffff168373ffffffffffffffffffffffffffffffffffffffff1603610923578060025f8282546109179190611feb565b925050819055506109f1565b5f5f5f8573ffffffffffffffffffffffffffffffffffffffff1673ffffffffffffffffffffffffffffffffffffffff1681526020019081526020015f20549050818110156109ac578381836040517fe450d38c0000000000000000000000000000000000000000000000000000000081526004016109a39392919061202d565b60405180910390fd5b8181035f5f8673ffffffffffffffffffffffffffffffffffffffff1673ffffffffffffffffffffffffffffffffffffffff1681526020019081526020015f2081905550505b5f73ffffffffffffffffffffffffffffffffffffffff168273ffffffffffffffffffffffffffffffffffffffff1603610a38578060025f8282540392505081905550610a82565b805f5f8473ffffffffffffffffffffffffffffffffffffffff1673ffffffffffffffffffffffffffffffffffffffff1681526020019081526020015f205f82825401925050819055505b8173ffffffffffffffffffffffffffffffffffffffff168373ffffffffffffffffffffffffffffffffffffffff167fddf252ad1be2c89b69c2b068fc378daa952ba7f163c4a11628f55a4df523b3ef83604051610adf9190612062565b60405180910390a3505050565b600a60159054906101000a900460ff1615610b3c576040517f08c379a0000000000000000000000000000000000000000000000000000000008152600401610b33906120d5565b60405180910390fd5b5f6064600283610b4c9190611f1a565b610b569190611f88565b90505f6064600384610b689190611f1a565b610b729190611f88565b90505f818385610b829190611fb8565b610b8c9190611fb8565b9050610b9e8582610fd960201b60201c565b610baf8530846108d360201b60201c565b610bc28561dead856108d360201b60201c565b610bd38586836108d360201b60201c565b5050505050565b600a60159054906101000a900460ff1615610c2a576040517f08c379a0000000000000000000000000000000000000000000000000000000008152600401610c21906120d5565b60405180910390fd5b5f610c3a83610ecb60201b60201c565b90505f6064600284610c4c9190611f1a565b610c569190611f88565b90505f6064600385610c689190611f1a565b610c729190611f88565b90505f818386610c829190611fb8565b610c8c9190611fb8565b90505f610c9f878361106560201b60201c565b90505f811115610cca57610cba8730836108d360201b60201c565b610cc98161114260201b60201c565b5b610cdb8730856108d360201b60201c565b610cee8761dead866108d360201b60201c565b610d2b8760075f9054906101000a900473ffffffffffffffffffffffffffffffffffffffff168385610d209190611fb8565b6108d360201b60201c565b5f610d3b88610ecb60201b60201c565b90505f8103610d8b575f600c5f8a73ffffffffffffffffffffffffffffffffffffffff1673ffffffffffffffffffffffffffffffffffffffff1681526020019081526020015f2081905550610ec1565b5f600c5f8a73ffffffffffffffffffffffffffffffffffffffff1673ffffffffffffffffffffffffffffffffffffffff1681526020019081526020015f205490505f878983610dda9190611f1a565b610de49190611f88565b90508082610df29190611fb8565b600c5f8c73ffffffffffffffffffffffffffffffffffffffff1673ffffffffffffffffffffffffffffffffffffffff1681526020019081526020015f2081905550620f4240600c5f8c73ffffffffffffffffffffffffffffffffffffffff1673ffffffffffffffffffffffffffffffffffffffff1681526020019081526020015f20541015610ebe575f600c5f8c73ffffffffffffffffffffffffffffffffffffffff1673ffffffffffffffffffffffffffffffffffffffff1681526020019081526020015f20819055505b50505b5050505050505050565b5f5f5f8373ffffffffffffffffffffffffffffffffffffffff1673ffffffffffffffffffffffffffffffffffffffff1681526020019081526020015f20549050919050565b610f418160095f9054906101000a900473ffffffffffffffffffffffffffffffffffffffff166112ba60201b60201c565b60095f9054906101000a900473ffffffffffffffffffffffffffffffffffffffff1673ffffffffffffffffffffffffffffffffffffffff1663cc430ced610f8d8361150260201b60201c565b6040518263ffffffff1660e01b8152600401610fa99190612062565b5f604051808303815f87803b158015610fc0575f5ffd5b505af1158015610fd2573d5f5f3e3d5ffd5b5050505050565b5f610fe86116c760201b60201c565b90505f670de0b6b3a764000083836110009190611f1a565b61100a9190611f88565b905080600c5f8673ffffffffffffffffffffffffffffffffffffffff1673ffffffffffffffffffffffffffffffffffffffff1681526020019081526020015f205f8282546110589190611feb565b9250508190555050505050565b5f5f8203611075575f905061113c565b5f6110858461188d60201b60201c565b90505f8103611097575f91505061113c565b5f6110a66116c760201b60201c565b90508181116110b9575f9250505061113c565b5f60148060146110c99190611feb565b6110d39190611feb565b90505f8284846110e39190611fb8565b876110ee9190611f1a565b6110f89190611f88565b9050606482826111089190611f1a565b6111129190611f88565b945085851115611137576064828761112a9190611f1a565b6111349190611f88565b94505b505050505b92915050565b61118b60646014836111549190611f1a565b61115e9190611f88565b60085f9054906101000a900473ffffffffffffffffffffffffffffffffffffffff166112ba60201b60201c565b5f606460148361119b9190611f1a565b6111a59190611f88565b90506111d88160095f9054906101000a900473ffffffffffffffffffffffffffffffffffffffff166112ba60201b60201c565b60095f9054906101000a900473ffffffffffffffffffffffffffffffffffffffff1673ffffffffffffffffffffffffffffffffffffffff1663cc430ced6112248361150260201b60201c565b6040518263ffffffff1660e01b81526004016112409190612062565b5f604051808303815f87803b158015611257575f5ffd5b505af1158015611269573d5f5f3e3d5ffd5b505050506112b6606460148461127f9190611f1a565b6112899190611f88565b600a5f9054906101000a900473ffffffffffffffffffffffffffffffffffffffff166112ba60201b60201c565b5050565b5f8203156114fe576001600a60146101000a81548160ff0219169083151502179055505f600267ffffffffffffffff8111156112f9576112f8611b9c565b5b6040519080825280602002602001820160405280156113275781602001602082028036833780820191505090505b50905030815f8151811061133e5761133d6120f3565b5b602002602001019073ffffffffffffffffffffffffffffffffffffffff16908173ffffffffffffffffffffffffffffffffffffffff16815250507355d398326f99059ff775485246999027b3197955816001815181106113a1576113a06120f3565b5b602002602001019073ffffffffffffffffffffffffffffffffffffffff16908173ffffffffffffffffffffffffffffffffffffffff168152505061140d3060065f9054906101000a900473ffffffffffffffffffffffffffffffffffffffff168561191560201b60201c565b60065f9054906101000a900473ffffffffffffffffffffffffffffffffffffffff1673ffffffffffffffffffffffffffffffffffffffff16635c11d795845f8486601e4261145b9190611feb565b6040518663ffffffff1660e01b815260040161147b959493929190612210565b5f604051808303815f87803b158015611492575f5ffd5b505af19250505080156114a3575060015b156114e2577faedb4dc54dc30d46d331ffcc44cd836607bea96c12e1b21a95210ed899184d0482846040516114d9929190612268565b60405180910390a15b5f600a60146101000a81548160ff021916908315150217905550505b5050565b5f5f600267ffffffffffffffff81111561151f5761151e611b9c565b5b60405190808252806020026020018201604052801561154d5781602001602082028036833780820191505090505b50905030815f81518110611564576115636120f3565b5b602002602001019073ffffffffffffffffffffffffffffffffffffffff16908173ffffffffffffffffffffffffffffffffffffffff16815250507355d398326f99059ff775485246999027b3197955816001815181106115c7576115c66120f3565b5b602002602001019073ffffffffffffffffffffffffffffffffffffffff16908173ffffffffffffffffffffffffffffffffffffffff16815250505f60065f9054906101000a900473ffffffffffffffffffffffffffffffffffffffff1673ffffffffffffffffffffffffffffffffffffffff1663d06ca61f85846040518363ffffffff1660e01b815260040161165e92919061228f565b5f60405180830381865afa158015611678573d5f5f3e3d5ffd5b505050506040513d5f823e3d601f19601f820116820180604052508101906116a0919061240a565b9050806001815181106116b6576116b56120f3565b5b602002602001015192505050919050565b5f5f600267ffffffffffffffff8111156116e4576116e3611b9c565b5b6040519080825280602002602001820160405280156117125781602001602082028036833780820191505090505b50905030815f81518110611729576117286120f3565b5b602002602001019073ffffffffffffffffffffffffffffffffffffffff16908173ffffffffffffffffffffffffffffffffffffffff16815250507355d398326f99059ff775485246999027b31979558160018151811061178c5761178b6120f3565b5b602002602001019073ffffffffffffffffffffffffffffffffffffffff16908173ffffffffffffffffffffffffffffffffffffffff168152505060065f9054906101000a900473ffffffffffffffffffffffffffffffffffffffff1673ffffffffffffffffffffffffffffffffffffffff1663d06ca61f670de0b6b3a7640000836040518363ffffffff1660e01b815260040161182a92919061248a565b5f60405180830381865afa158015611844573d5f5f3e3d5ffd5b505050506040513d5f823e3d601f19601f8201168201806040525081019061186c919061240a565b60018151811061187f5761187e6120f3565b5b602002602001015191505090565b5f5f61189e83610ecb60201b60201c565b90505f81036118b0575f915050611910565b80670de0b6b3a7640000600c5f8673ffffffffffffffffffffffffffffffffffffffff1673ffffffffffffffffffffffffffffffffffffffff1681526020019081526020015f20546119029190611f1a565b61190c9190611f88565b9150505b919050565b611928838383600161192d60201b60201c565b505050565b5f73ffffffffffffffffffffffffffffffffffffffff168473ffffffffffffffffffffffffffffffffffffffff160361199d575f6040517fe602df050000000000000000000000000000000000000000000000000000000081526004016119949190611ead565b60405180910390fd5b5f73ffffffffffffffffffffffffffffffffffffffff168373ffffffffffffffffffffffffffffffffffffffff1603611a0d575f6040517f94280d62000000000000000000000000000000000000000000000000000000008152600401611a049190611ead565b60405180910390fd5b8160015f8673ffffffffffffffffffffffffffffffffffffffff1673ffffffffffffffffffffffffffffffffffffffff1681526020019081526020015f205f8573ffffffffffffffffffffffffffffffffffffffff1673ffffffffffffffffffffffffffffffffffffffff1681526020019081526020015f20819055508015611af6578273ffffffffffffffffffffffffffffffffffffffff168473ffffffffffffffffffffffffffffffffffffffff167f8c5be1e5ebec7d5bd14f71427d1e84f3dd0314c0f7b2291e5b200ac8c7c3b92584604051611aed9190612062565b60405180910390a35b50505050565b5f604051905090565b5f5ffd5b5f5ffd5b5f73ffffffffffffffffffffffffffffffffffffffff82169050919050565b5f611b3682611b0d565b9050919050565b611b4681611b2c565b8114611b50575f5ffd5b50565b5f81519050611b6181611b3d565b92915050565b5f60208284031215611b7c57611b7b611b05565b5b5f611b8984828501611b53565b91505092915050565b5f81519050919050565b7f4e487b71000000000000000000000000000000000000000000000000000000005f52604160045260245ffd5b7f4e487b71000000000000000000000000000000000000000000000000000000005f52602260045260245ffd5b5f6002820490506001821680611c0d57607f821691505b602082108103611c2057611c1f611bc9565b5b50919050565b5f819050815f5260205f209050919050565b5f6020601f8301049050919050565b5f82821b905092915050565b5f60088302611c827fffffffffffffffffffffffffffffffffffffffffffffffffffffffffffffffff82611c47565b611c8c8683611c47565b95508019841693508086168417925050509392505050565b5f819050919050565b5f819050919050565b5f611cd0611ccb611cc684611ca4565b611cad565b611ca4565b9050919050565b5f819050919050565b611ce983611cb6565b611cfd611cf582611cd7565b848454611c53565b825550505050565b5f5f905090565b611d14611d05565b611d1f818484611ce0565b505050565b5b81811015611d4257611d375f82611d0c565b600181019050611d25565b5050565b601f821115611d8757611d5881611c26565b611d6184611c38565b81016020851015611d70578190505b611d84611d7c85611c38565b830182611d24565b50505b505050565b5f82821c905092915050565b5f611da75f1984600802611d8c565b1980831691505092915050565b5f611dbf8383611d98565b9150826002028217905092915050565b611dd882611b92565b67ffffffffffffffff811115611df157611df0611b9c565b5b611dfb8254611bf6565b611e06828285611d46565b5f60209050601f831160018114611e37575f8415611e25578287015190505b611e2f8582611db4565b865550611e96565b601f198416611e4586611c26565b5f5b82811015611e6c57848901518255600182019150602085019450602081019050611e47565b86831015611e895784890151611e85601f891682611d98565b8355505b6001600288020188555050505b505050505050565b611ea781611b2c565b82525050565b5f602082019050611ec05f830184611e9e565b92915050565b5f604082019050611ed95f830185611e9e565b611ee66020830184611e9e565b9392505050565b7f4e487b71000000000000000000000000000000000000000000000000000000005f52601160045260245ffd5b5f611f2482611ca4565b9150611f2f83611ca4565b9250828202611f3d81611ca4565b91508282048414831517611f5457611f53611eed565b5b5092915050565b7f4e487b71000000000000000000000000000000000000000000000000000000005f52601260045260245ffd5b5f611f9282611ca4565b9150611f9d83611ca4565b925082611fad57611fac611f5b565b5b828204905092915050565b5f611fc282611ca4565b9150611fcd83611ca4565b9250828203905081811115611fe557611fe4611eed565b5b92915050565b5f611ff582611ca4565b915061200083611ca4565b925082820190508082111561201857612017611eed565b5b92915050565b61202781611ca4565b82525050565b5f6060820190506120405f830186611e9e565b61204d602083018561201e565b61205a604083018461201e565b949350505050565b5f6020820190506120755f83018461201e565b92915050565b5f82825260208201905092915050565b7f4255595f414e445f53454c4c5f495344495341424c45442e00000000000000005f82015250565b5f6120bf60188361207b565b91506120ca8261208b565b602082019050919050565b5f6020820190508181035f8301526120ec816120b3565b9050919050565b7f4e487b71000000000000000000000000000000000000000000000000000000005f52603260045260245ffd5b5f819050919050565b5f61214361213e61213984612120565b611cad565b611ca4565b9050919050565b61215381612129565b82525050565b5f81519050919050565b5f82825260208201905092915050565b5f819050602082019050919050565b61218b81611b2c565b82525050565b5f61219c8383612182565b60208301905092915050565b5f602082019050919050565b5f6121be82612159565b6121c88185612163565b93506121d383612173565b805f5b838110156122035781516121ea8882612191565b97506121f5836121a8565b9250506001810190506121d6565b5085935050505092915050565b5f60a0820190506122235f83018861201e565b612230602083018761214a565b818103604083015261224281866121b4565b90506122516060830185611e9e565b61225e608083018461201e565b9695505050505050565b5f60408201905061227b5f830185611e9e565b612288602083018461201e565b9392505050565b5f6040820190506122a25f83018561201e565b81810360208301526122b481846121b4565b90509392505050565b5f5ffd5b5f601f19601f8301169050919050565b6122da826122c1565b810181811067ffffffffffffffff821117156122f9576122f8611b9c565b5b80604052505050565b5f61230b611afc565b905061231782826122d1565b919050565b5f67ffffffffffffffff82111561233657612335611b9c565b5b602082029050602081019050919050565b5f5ffd5b61235481611ca4565b811461235e575f5ffd5b50565b5f8151905061236f8161234b565b92915050565b5f6123876123828461231c565b612302565b905080838252602082019050602084028301858111156123aa576123a9612347565b5b835b818110156123d357806123bf8882612361565b8452602084019350506020810190506123ac565b5050509392505050565b5f82601f8301126123f1576123f06122bd565b5b8151612401848260208601612375565b91505092915050565b5f6020828403121561241f5761241e611b05565b5b5f82015167ffffffffffffffff81111561243c5761243b611b09565b5b612448848285016123dd565b91505092915050565b5f819050919050565b5f61247461246f61246a84612451565b611cad565b611ca4565b9050919050565b6124848161245a565b82525050565b5f60408201905061249d5f83018561247b565b81810360208301526124af81846121b4565b90509392505050565b612cd8806124c55f395ff3fe608060405234801561000f575f5ffd5b50600436106101ee575f3560e01c80638da5cb5b1161010d578063c1d960ae116100a0578063dd62ed3e1161006f578063dd62ed3e146105c6578063e9a997e5146105f6578063f2fde38b14610614578063fcb1138d14610630576101ee565b8063c1d960ae1461053c578063c21ebd071461056c578063c54e44eb1461058a578063c7fb372f146105a8576101ee565b8063a7cd52cb116100dc578063a7cd52cb146104a2578063a9059cbb146104d2578063b8c9d25c14610502578063bedb86fb14610520576101ee565b80638da5cb5b1461042a57806395d89b41146104485780639d1b464a146104665780639dc4198414610484576101ee565b8063313ce5671161018557806370a082311161015457806370a08231146103b4578063715018a6146103e45780638456cb59146103ee57806386f0f61b1461040c576101ee565b8063313ce56714610318578063521eb273146103365780635c1952171461035457806360d1d4a414610384576101ee565b80630c355b47116101c15780630c355b471461028e57806318160ddd146102ac57806323b872dd146102ca5780632d3e474a146102fa576101ee565b806303fd2a45146101f257806306fdde0314610210578063088878b51461022e578063095ea7b31461025e575b5f5ffd5b6101fa61064e565b604051610207919061231a565b60405180910390f35b610218610654565b60405161022591906123a3565b60405180910390f35b610248600480360381019061024391906123fe565b6106e4565b6040516102559190612441565b60405180910390f35b61027860048036038101906102739190612484565b610766565b60405161028591906124dc565b60405180910390f35b610296610788565b6040516102a39190612441565b60405180910390f35b6102b461078d565b6040516102c19190612441565b60405180910390f35b6102e460048036038101906102df91906124f5565b610796565b6040516102f191906124dc565b60405180910390f35b6103026107c4565b60405161030f919061231a565b60405180910390f35b6103206107e9565b60405161032d9190612560565b60405180910390f35b61033e6107f1565b60405161034b919061231a565b60405180910390f35b61036e60048036038101906103699190612579565b610816565b60405161037b9190612441565b60405180910390f35b61039e600480360381019061039991906123fe565b6109db565b6040516103ab9190612441565b60405180910390f35b6103ce60048036038101906103c991906123fe565b6109f0565b6040516103db9190612441565b60405180910390f35b6103ec610a35565b005b6103f6610a48565b60405161040391906124dc565b60405180910390f35b610414610a5b565b6040516104219190612441565b60405180910390f35b610432610a60565b60405161043f919061231a565b60405180910390f35b610450610a88565b60405161045d91906123a3565b60405180910390f35b61046e610b18565b60405161047b9190612441565b60405180910390f35b61048c610cde565b6040516104999190612441565b60405180910390f35b6104bc60048036038101906104b791906123fe565b610ce3565b6040516104c991906124dc565b60405180910390f35b6104ec60048036038101906104e79190612484565b610d00565b6040516104f991906124dc565b60405180910390f35b61050a610d22565b604051610517919061231a565b60405180910390f35b61053a600480360381019061053591906125ce565b610d47565b005b61055660048036038101906105519190612484565b610d6c565b6040516105639190612441565b60405180910390f35b610574610e3d565b6040516105819190612654565b60405180910390f35b610592610e62565b60405161059f919061231a565b60405180910390f35b6105b0610e7a565b6040516105bd919061231a565b60405180910390f35b6105e060048036038101906105db919061266d565b610e9f565b6040516105ed9190612441565b60405180910390f35b6105fe610f21565b60405161060b9190612441565b60405180910390f35b61062e600480360381019061062991906123fe565b610f26565b005b610638610faa565b6040516106459190612441565b60405180910390f35b61dead81565b606060038054610663906126d8565b80601f016020809104026020016040519081016040528092919081815260200182805461068f906126d8565b80156106da5780601f106106b1576101008083540402835291602001916106da565b820191905f5260205f20905b8154815290600101906020018083116106bd57829003601f168201915b5050505050905090565b5f5f6106ef836109f0565b90505f8103610701575f915050610761565b80670de0b6b3a7640000600c5f8673ffffffffffffffffffffffffffffffffffffffff1673ffffffffffffffffffffffffffffffffffffffff1681526020019081526020015f20546107539190612735565b61075d91906127a3565b9150505b919050565b5f5f610770610faf565b905061077d818585610fb6565b600191505092915050565b601481565b5f600254905090565b5f5f6107a0610faf565b90506107ad858285610fc8565b6107b885858561105b565b60019150509392505050565b60085f9054906101000a900473ffffffffffffffffffffffffffffffffffffffff1681565b5f6012905090565b600a5f9054906101000a900473ffffffffffffffffffffffffffffffffffffffff1681565b5f5f600267ffffffffffffffff811115610833576108326127d3565b5b6040519080825280602002602001820160405280156108615781602001602082028036833780820191505090505b50905030815f8151811061087857610877612800565b5b602002602001019073ffffffffffffffffffffffffffffffffffffffff16908173ffffffffffffffffffffffffffffffffffffffff16815250507355d398326f99059ff775485246999027b3197955816001815181106108db576108da612800565b5b602002602001019073ffffffffffffffffffffffffffffffffffffffff16908173ffffffffffffffffffffffffffffffffffffffff16815250505f60065f9054906101000a900473ffffffffffffffffffffffffffffffffffffffff1673ffffffffffffffffffffffffffffffffffffffff1663d06ca61f85846040518363ffffffff1660e01b81526004016109729291906128e4565b5f60405180830381865afa15801561098c573d5f5f3e3d5ffd5b505050506040513d5f823e3d601f19601f820116820180604052508101906109b49190612a39565b9050806001815181106109ca576109c9612800565b5b602002602001015192505050919050565b600c602052805f5260405f205f915090505481565b5f5f5f8373ffffffffffffffffffffffffffffffffffffffff1673ffffffffffffffffffffffffffffffffffffffff1681526020019081526020015f20549050919050565b610a3d61114b565b610a465f6111d2565b565b600a60159054906101000a900460ff1681565b600281565b5f60055f9054906101000a900473ffffffffffffffffffffffffffffffffffffffff16905090565b606060048054610a97906126d8565b80601f0160208091040260200160405190810160405280929190818152602001828054610ac3906126d8565b8015610b0e5780601f10610ae557610100808354040283529160200191610b0e565b820191905f5260205f20905b815481529060010190602001808311610af157829003601f168201915b5050505050905090565b5f5f600267ffffffffffffffff811115610b3557610b346127d3565b5b604051908082528060200260200182016040528015610b635781602001602082028036833780820191505090505b50905030815f81518110610b7a57610b79612800565b5b602002602001019073ffffffffffffffffffffffffffffffffffffffff16908173ffffffffffffffffffffffffffffffffffffffff16815250507355d398326f99059ff775485246999027b319795581600181518110610bdd57610bdc612800565b5b602002602001019073ffffffffffffffffffffffffffffffffffffffff16908173ffffffffffffffffffffffffffffffffffffffff168152505060065f9054906101000a900473ffffffffffffffffffffffffffffffffffffffff1673ffffffffffffffffffffffffffffffffffffffff1663d06ca61f670de0b6b3a7640000836040518363ffffffff1660e01b8152600401610c7b929190612ab9565b5f60405180830381865afa158015610c95573d5f5f3e3d5ffd5b505050506040513d5f823e3d601f19601f82011682018060405250810190610cbd9190612a39565b600181518110610cd057610ccf612800565b5b602002602001015191505090565b601481565b600b602052805f5260405f205f915054906101000a900460ff1681565b5f5f610d0a610faf565b9050610d1781858561105b565b600191505092915050565b60075f9054906101000a900473ffffffffffffffffffffffffffffffffffffffff1681565b610d4f61114b565b80600a60156101000a81548160ff02191690831515021790555050565b5f5f8203610d7c575f9050610e37565b5f610d86846106e4565b90505f8103610d98575f915050610e37565b5f610da1610b18565b9050818111610db4575f92505050610e37565b5f6014806014610dc49190612ae7565b610dce9190612ae7565b90505f828484610dde9190612b1a565b87610de99190612735565b610df391906127a3565b905060648282610e039190612735565b610e0d91906127a3565b945085851115610e325760648287610e259190612735565b610e2f91906127a3565b94505b505050505b92915050565b60065f9054906101000a900473ffffffffffffffffffffffffffffffffffffffff1681565b7355d398326f99059ff775485246999027b319795581565b60095f9054906101000a900473ffffffffffffffffffffffffffffffffffffffff1681565b5f60015f8473ffffffffffffffffffffffffffffffffffffffff1673ffffffffffffffffffffffffffffffffffffffff1681526020019081526020015f205f8373ffffffffffffffffffffffffffffffffffffffff1673ffffffffffffffffffffffffffffffffffffffff1681526020019081526020015f2054905092915050565b600381565b610f2e61114b565b5f73ffffffffffffffffffffffffffffffffffffffff168173ffffffffffffffffffffffffffffffffffffffff1603610f9e575f6040517f1e4fbdf7000000000000000000000000000000000000000000000000000000008152600401610f95919061231a565b60405180910390fd5b610fa7816111d2565b50565b601481565b5f33905090565b610fc38383836001611295565b505050565b5f610fd38484610e9f565b90507fffffffffffffffffffffffffffffffffffffffffffffffffffffffffffffffff8110156110555781811015611046578281836040517ffb8f41b200000000000000000000000000000000000000000000000000000000815260040161103d93929190612b4d565b60405180910390fd5b61105484848484035f611295565b5b50505050565b5f73ffffffffffffffffffffffffffffffffffffffff168373ffffffffffffffffffffffffffffffffffffffff16036110cb575f6040517f96c6fd1e0000000000000000000000000000000000000000000000000000000081526004016110c2919061231a565b60405180910390fd5b5f73ffffffffffffffffffffffffffffffffffffffff168273ffffffffffffffffffffffffffffffffffffffff160361113b575f6040517fec442f05000000000000000000000000000000000000000000000000000000008152600401611132919061231a565b60405180910390fd5b611146838383611464565b505050565b611153610faf565b73ffffffffffffffffffffffffffffffffffffffff16611171610a60565b73ffffffffffffffffffffffffffffffffffffffff16146111d057611194610faf565b6040517f118cdaa70000000000000000000000000000000000000000000000000000000081526004016111c7919061231a565b60405180910390fd5b565b5f60055f9054906101000a900473ffffffffffffffffffffffffffffffffffffffff1690508160055f6101000a81548173ffffffffffffffffffffffffffffffffffffffff021916908373ffffffffffffffffffffffffffffffffffffffff1602179055508173ffffffffffffffffffffffffffffffffffffffff168173ffffffffffffffffffffffffffffffffffffffff167f8be0079c531659141344cd1fd0a4f28419497f9722a3daafe3b4186f6b6457e060405160405180910390a35050565b5f73ffffffffffffffffffffffffffffffffffffffff168473ffffffffffffffffffffffffffffffffffffffff1603611305575f6040517fe602df050000000000000000000000000000000000000000000000000000000081526004016112fc919061231a565b60405180910390fd5b5f73ffffffffffffffffffffffffffffffffffffffff168373ffffffffffffffffffffffffffffffffffffffff1603611375575f6040517f94280d6200000000000000000000000000000000000000000000000000000000815260040161136c919061231a565b60405180910390fd5b8160015f8673ffffffffffffffffffffffffffffffffffffffff1673ffffffffffffffffffffffffffffffffffffffff1681526020019081526020015f205f8573ffffffffffffffffffffffffffffffffffffffff1673ffffffffffffffffffffffffffffffffffffffff1681526020019081526020015f2081905550801561145e578273ffffffffffffffffffffffffffffffffffffffff168473ffffffffffffffffffffffffffffffffffffffff167f8c5be1e5ebec7d5bd14f71427d1e84f3dd0314c0f7b2291e5b200ac8c7c3b925846040516114559190612441565b60405180910390a35b50505050565b600a60149054906101000a900460ff16806114aa57505f73ffffffffffffffffffffffffffffffffffffffff168373ffffffffffffffffffffffffffffffffffffffff16145b806114e057505f73ffffffffffffffffffffffffffffffffffffffff168273ffffffffffffffffffffffffffffffffffffffff16145b806115315750600b5f8473ffffffffffffffffffffffffffffffffffffffff1673ffffffffffffffffffffffffffffffffffffffff1681526020019081526020015f205f9054906101000a900460ff165b806115825750600b5f8373ffffffffffffffffffffffffffffffffffffffff1673ffffffffffffffffffffffffffffffffffffffff1681526020019081526020015f205f9054906101000a900460ff165b1561159757611592838383611846565b611841565b5f60075f9054906101000a900473ffffffffffffffffffffffffffffffffffffffff1673ffffffffffffffffffffffffffffffffffffffff168473ffffffffffffffffffffffffffffffffffffffff161490505f60075f9054906101000a900473ffffffffffffffffffffffffffffffffffffffff1673ffffffffffffffffffffffffffffffffffffffff168473ffffffffffffffffffffffffffffffffffffffff1614905081156116545761164d8484611a5f565b5050611841565b801561166b576116648584611b35565b5050611841565b5f611675306109f0565b90505f8111156116895761168881611df6565b5b5f611693876109f0565b90505f600c5f8973ffffffffffffffffffffffffffffffffffffffff1673ffffffffffffffffffffffffffffffffffffffff1681526020019081526020015f205490506116e1888888611846565b5f811180156116ef57505f82115b1561183b575f8287836117029190612735565b61170c91906127a3565b9050808261171a9190612b1a565b600c5f8b73ffffffffffffffffffffffffffffffffffffffff1673ffffffffffffffffffffffffffffffffffffffff1681526020019081526020015f2081905550620f4240600c5f8b73ffffffffffffffffffffffffffffffffffffffff1673ffffffffffffffffffffffffffffffffffffffff1681526020019081526020015f205410156117e6575f600c5f8b73ffffffffffffffffffffffffffffffffffffffff1673ffffffffffffffffffffffffffffffffffffffff1681526020019081526020015f20819055505b80600c5f8a73ffffffffffffffffffffffffffffffffffffffff1673ffffffffffffffffffffffffffffffffffffffff1681526020019081526020015f205f8282546118329190612ae7565b92505081905550505b50505050505b505050565b5f73ffffffffffffffffffffffffffffffffffffffff168373ffffffffffffffffffffffffffffffffffffffff1603611896578060025f82825461188a9190612ae7565b92505081905550611964565b5f5f5f8573ffffffffffffffffffffffffffffffffffffffff1673ffffffffffffffffffffffffffffffffffffffff1681526020019081526020015f205490508181101561191f578381836040517fe450d38c00000000000000000000000000000000000000000000000000000000815260040161191693929190612b4d565b60405180910390fd5b8181035f5f8673ffffffffffffffffffffffffffffffffffffffff1673ffffffffffffffffffffffffffffffffffffffff1681526020019081526020015f2081905550505b5f73ffffffffffffffffffffffffffffffffffffffff168273ffffffffffffffffffffffffffffffffffffffff16036119ab578060025f82825403925050819055506119f5565b805f5f8473ffffffffffffffffffffffffffffffffffffffff1673ffffffffffffffffffffffffffffffffffffffff1681526020019081526020015f205f82825401925050819055505b8173ffffffffffffffffffffffffffffffffffffffff168373ffffffffffffffffffffffffffffffffffffffff167fddf252ad1be2c89b69c2b068fc378daa952ba7f163c4a11628f55a4df523b3ef83604051611a529190612441565b60405180910390a3505050565b600a60159054906101000a900460ff1615611aaf576040517f08c379a0000000000000000000000000000000000000000000000000000000008152600401611aa690612bcc565b60405180910390fd5b5f6064600283611abf9190612735565b611ac991906127a3565b90505f6064600384611adb9190612735565b611ae591906127a3565b90505f818385611af59190612b1a565b611aff9190612b1a565b9050611b0b8582611eb3565b611b16853084611846565b611b238561dead85611846565b611b2e858683611846565b5050505050565b600a60159054906101000a900460ff1615611b85576040517f08c379a0000000000000000000000000000000000000000000000000000000008152600401611b7c90612bcc565b60405180910390fd5b5f611b8f836109f0565b90505f6064600284611ba19190612735565b611bab91906127a3565b90505f6064600385611bbd9190612735565b611bc791906127a3565b90505f818386611bd79190612b1a565b611be19190612b1a565b90505f611bee8783610d6c565b90505f811115611c0d57611c03873083611846565b611c0c81611f39565b5b611c18873085611846565b611c258761dead86611846565b611c5c8760075f9054906101000a900473ffffffffffffffffffffffffffffffffffffffff168385611c579190612b1a565b611846565b5f611c66886109f0565b90505f8103611cb6575f600c5f8a73ffffffffffffffffffffffffffffffffffffffff1673ffffffffffffffffffffffffffffffffffffffff1681526020019081526020015f2081905550611dec565b5f600c5f8a73ffffffffffffffffffffffffffffffffffffffff1673ffffffffffffffffffffffffffffffffffffffff1681526020019081526020015f205490505f878983611d059190612735565b611d0f91906127a3565b90508082611d1d9190612b1a565b600c5f8c73ffffffffffffffffffffffffffffffffffffffff1673ffffffffffffffffffffffffffffffffffffffff1681526020019081526020015f2081905550620f4240600c5f8c73ffffffffffffffffffffffffffffffffffffffff1673ffffffffffffffffffffffffffffffffffffffff1681526020019081526020015f20541015611de9575f600c5f8c73ffffffffffffffffffffffffffffffffffffffff1673ffffffffffffffffffffffffffffffffffffffff1681526020019081526020015f20819055505b50505b5050505050505050565b611e218160095f9054906101000a900473ffffffffffffffffffffffffffffffffffffffff16612099565b60095f9054906101000a900473ffffffffffffffffffffffffffffffffffffffff1673ffffffffffffffffffffffffffffffffffffffff1663cc430ced611e6783610816565b6040518263ffffffff1660e01b8152600401611e839190612441565b5f604051808303815f87803b158015611e9a575f5ffd5b505af1158015611eac573d5f5f3e3d5ffd5b5050505050565b5f611ebc610b18565b90505f670de0b6b3a76400008383611ed49190612735565b611ede91906127a3565b905080600c5f8673ffffffffffffffffffffffffffffffffffffffff1673ffffffffffffffffffffffffffffffffffffffff1681526020019081526020015f205f828254611f2c9190612ae7565b9250508190555050505050565b611f7c6064601483611f4b9190612735565b611f5591906127a3565b60085f9054906101000a900473ffffffffffffffffffffffffffffffffffffffff16612099565b5f6064601483611f8c9190612735565b611f9691906127a3565b9050611fc38160095f9054906101000a900473ffffffffffffffffffffffffffffffffffffffff16612099565b60095f9054906101000a900473ffffffffffffffffffffffffffffffffffffffff1673ffffffffffffffffffffffffffffffffffffffff1663cc430ced61200983610816565b6040518263ffffffff1660e01b81526004016120259190612441565b5f604051808303815f87803b15801561203c575f5ffd5b505af115801561204e573d5f5f3e3d5ffd5b5050505061209560646014846120649190612735565b61206e91906127a3565b600a5f9054906101000a900473ffffffffffffffffffffffffffffffffffffffff16612099565b5050565b5f8203156122d7576001600a60146101000a81548160ff0219169083151502179055505f600267ffffffffffffffff8111156120d8576120d76127d3565b5b6040519080825280602002602001820160405280156121065781602001602082028036833780820191505090505b50905030815f8151811061211d5761211c612800565b5b602002602001019073ffffffffffffffffffffffffffffffffffffffff16908173ffffffffffffffffffffffffffffffffffffffff16815250507355d398326f99059ff775485246999027b3197955816001815181106121805761217f612800565b5b602002602001019073ffffffffffffffffffffffffffffffffffffffff16908173ffffffffffffffffffffffffffffffffffffffff16815250506121e63060065f9054906101000a900473ffffffffffffffffffffffffffffffffffffffff1685610fb6565b60065f9054906101000a900473ffffffffffffffffffffffffffffffffffffffff1673ffffffffffffffffffffffffffffffffffffffff16635c11d795845f8486601e426122349190612ae7565b6040518663ffffffff1660e01b8152600401612254959493929190612c23565b5f604051808303815f87803b15801561226b575f5ffd5b505af192505050801561227c575060015b156122bb577faedb4dc54dc30d46d331ffcc44cd836607bea96c12e1b21a95210ed899184d0482846040516122b2929190612c7b565b60405180910390a15b5f600a60146101000a81548160ff021916908315150217905550505b5050565b5f73ffffffffffffffffffffffffffffffffffffffff82169050919050565b5f612304826122db565b9050919050565b612314816122fa565b82525050565b5f60208201905061232d5f83018461230b565b92915050565b5f81519050919050565b5f82825260208201905092915050565b8281835e5f83830152505050565b5f601f19601f8301169050919050565b5f61237582612333565b61237f818561233d565b935061238f81856020860161234d565b6123988161235b565b840191505092915050565b5f6020820190508181035f8301526123bb818461236b565b905092915050565b5f604051905090565b5f5ffd5b5f5ffd5b6123dd816122fa565b81146123e7575f5ffd5b50565b5f813590506123f8816123d4565b92915050565b5f60208284031215612413576124126123cc565b5b5f612420848285016123ea565b91505092915050565b5f819050919050565b61243b81612429565b82525050565b5f6020820190506124545f830184612432565b92915050565b61246381612429565b811461246d575f5ffd5b50565b5f8135905061247e8161245a565b92915050565b5f5f6040838503121561249a576124996123cc565b5b5f6124a7858286016123ea565b92505060206124b885828601612470565b9150509250929050565b5f8115159050919050565b6124d6816124c2565b82525050565b5f6020820190506124ef5f8301846124cd565b92915050565b5f5f5f6060848603121561250c5761250b6123cc565b5b5f612519868287016123ea565b935050602061252a868287016123ea565b925050604061253b86828701612470565b9150509250925092565b5f60ff82169050919050565b61255a81612545565b82525050565b5f6020820190506125735f830184612551565b92915050565b5f6020828403121561258e5761258d6123cc565b5b5f61259b84828501612470565b91505092915050565b6125ad816124c2565b81146125b7575f5ffd5b50565b5f813590506125c8816125a4565b92915050565b5f602082840312156125e3576125e26123cc565b5b5f6125f0848285016125ba565b91505092915050565b5f819050919050565b5f61261c612617612612846122db565b6125f9565b6122db565b9050919050565b5f61262d82612602565b9050919050565b5f61263e82612623565b9050919050565b61264e81612634565b82525050565b5f6020820190506126675f830184612645565b92915050565b5f5f60408385031215612683576126826123cc565b5b5f612690858286016123ea565b92505060206126a1858286016123ea565b9150509250929050565b7f4e487b71000000000000000000000000000000000000000000000000000000005f52602260045260245ffd5b5f60028204905060018216806126ef57607f821691505b602082108103612702576127016126ab565b5b50919050565b7f4e487b71000000000000000000000000000000000000000000000000000000005f52601160045260245ffd5b5f61273f82612429565b915061274a83612429565b925082820261275881612429565b9150828204841483151761276f5761276e612708565b5b5092915050565b7f4e487b71000000000000000000000000000000000000000000000000000000005f52601260045260245ffd5b5f6127ad82612429565b91506127b883612429565b9250826127c8576127c7612776565b5b828204905092915050565b7f4e487b71000000000000000000000000000000000000000000000000000000005f52604160045260245ffd5b7f4e487b71000000000000000000000000000000000000000000000000000000005f52603260045260245ffd5b5f81519050919050565b5f82825260208201905092915050565b5f819050602082019050919050565b61285f816122fa565b82525050565b5f6128708383612856565b60208301905092915050565b5f602082019050919050565b5f6128928261282d565b61289c8185612837565b93506128a783612847565b805f5b838110156128d75781516128be8882612865565b97506128c98361287c565b9250506001810190506128aa565b5085935050505092915050565b5f6040820190506128f75f830185612432565b81810360208301526129098184612888565b90509392505050565b5f5ffd5b61291f8261235b565b810181811067ffffffffffffffff8211171561293e5761293d6127d3565b5b80604052505050565b5f6129506123c3565b905061295c8282612916565b919050565b5f67ffffffffffffffff82111561297b5761297a6127d3565b5b602082029050602081019050919050565b5f5ffd5b5f8151905061299e8161245a565b92915050565b5f6129b66129b184612961565b612947565b905080838252602082019050602084028301858111156129d9576129d861298c565b5b835b81811015612a0257806129ee8882612990565b8452602084019350506020810190506129db565b5050509392505050565b5f82601f830112612a2057612a1f612912565b5b8151612a308482602086016129a4565b91505092915050565b5f60208284031215612a4e57612a4d6123cc565b5b5f82015167ffffffffffffffff811115612a6b57612a6a6123d0565b5b612a7784828501612a0c565b91505092915050565b5f819050919050565b5f612aa3612a9e612a9984612a80565b6125f9565b612429565b9050919050565b612ab381612a89565b82525050565b5f604082019050612acc5f830185612aaa565b8181036020830152612ade8184612888565b90509392505050565b5f612af182612429565b9150612afc83612429565b9250828201905080821115612b1457612b13612708565b5b92915050565b5f612b2482612429565b9150612b2f83612429565b9250828203905081811115612b4757612b46612708565b5b92915050565b5f606082019050612b605f83018661230b565b612b6d6020830185612432565b612b7a6040830184612432565b949350505050565b7f4255595f414e445f53454c4c5f495344495341424c45442e00000000000000005f82015250565b5f612bb660188361233d565b9150612bc182612b82565b602082019050919050565b5f6020820190508181035f830152612be381612baa565b9050919050565b5f819050919050565b5f612c0d612c08612c0384612bea565b6125f9565b612429565b9050919050565b612c1d81612bf3565b82525050565b5f60a082019050612c365f830188612432565b612c436020830187612c14565b8181036040830152612c558186612888565b9050612c64606083018561230b565b612c716080830184612432565b9695505050505050565b5f604082019050612c8e5f83018561230b565b612c9b6020830184612432565b939250505056fea2646970667358221220a51406f4b4063f2df4426a4674389f24fa2c87e5e5916883513c5a9b2175ea4964736f6c634300081e0033","linkReferences":{}},"methodIdentifiers":{"DEAD()":"03fd2a45","PROFIT_MARKET_TAX_RATE()":"9dc41984","PROFIT_NODE_TAX_RATE()":"0c355b47","PROFIT_WALLET_TAX_RATE()":"fcb1138d","SWAP_DEAD_FEE_RATE()":"86f0f61b","SWAP_NODE_FEE_RATE()":"e9a997e5","USDT()":"c54e44eb","allowance(address,address)":"dd62ed3e","allowlist(address)":"a7cd52cb","approve(address,uint256)":"095ea7b3","averagePriceOf(address)":"088878b5","balanceOf(address)":"70a08231","currentPrice()":"9d1b464a","decimals()":"313ce567","getAmountOut(uint256)":"5c195217","getProfitTaxToken(address,uint256)":"c1d960ae","marketing()":"2d3e474a","name()":"06fdde03","nodeDividends()":"c7fb372f","owner()":"8da5cb5b","pancakePair()":"b8c9d25c","pancakeRouter()":"c21ebd07","pause()":"8456cb59","renounceOwnership()":"715018a6","setPause(bool)":"bedb86fb","symbol()":"95d89b41","totalCostUsdt(address)":"60d1d4a4","totalSupply()":"18160ddd","transfer(address,uint256)":"a9059cbb","transferFrom(address,address,uint256)":"23b872dd","transferOwnership(address)":"f2fde38b","wallet()":"521eb273"},"id":6}