{"abi":[{"type":"receive","stateMutability":"payable"},{"type":"function","name":"UPGRADE_INTERFACE_VERSION","inputs":[],"outputs":[{"name":"","type":"string","internalType":"string"}],"stateMutability":"view"},{"type":"function","name":"USDT","inputs":[],"outputs":[{"name":"","type":"address","internalType":"address"}],"stateMutability":"view"},{"type":"function","name":"WBNB","inputs":[],"outputs":[{"name":"","type":"address","internalType":"address"}],"stateMutability":"view"},{"type":"function","name":"admin","inputs":[],"outputs":[{"name":"","type":"address","internalType":"address"}],"stateMutability":"view"},{"type":"function","name":"changeAdmin","inputs":[{"name":"_newAdmin","type":"address","internalType":"address"}],"outputs":[],"stateMutability":"nonpayable"},{"type":"function","name":"changeOperator","inputs":[{"name":"_newOperator","type":"address","internalType":"address"}],"outputs":[],"stateMutability":"nonpayable"},{"type":"function","name":"changeRecipient","inputs":[{"name":"_newRecipient","type":"address","internalType":"address"}],"outputs":[],"stateMutability":"nonpayable"},{"type":"function","name":"changeSender","inputs":[{"name":"_newSender","type":"address","internalType":"address"}],"outputs":[],"stateMutability":"nonpayable"},{"type":"function","name":"factory","inputs":[],"outputs":[{"name":"","type":"address","internalType":"address"}],"stateMutability":"view"},{"type":"function","name":"initialize","inputs":[{"name":"_admin","type":"address","internalType":"address"},{"name":"_sender","type":"address","internalType":"address"},{"name":"_percent50","type":"address","internalType":"address"},{"name":"_percent30","type":"address","internalType":"address"},{"name":"_percent20","type":"address","internalType":"address"}],"outputs":[],"stateMutability":"nonpayable"},{"type":"function","name":"operator","inputs":[],"outputs":[{"name":"","type":"address","internalType":"address"}],"stateMutability":"view"},{"type":"function","name":"owner","inputs":[],"outputs":[{"name":"","type":"address","internalType":"address"}],"stateMutability":"view"},{"type":"function","name":"percent20","inputs":[],"outputs":[{"name":"","type":"address","internalType":"address"}],"stateMutability":"view"},{"type":"function","name":"percent30","inputs":[],"outputs":[{"name":"","type":"address","internalType":"address"}],"stateMutability":"view"},{"type":"function","name":"percent50","inputs":[],"outputs":[{"name":"","type":"address","internalType":"address"}],"stateMutability":"view"},{"type":"function","name":"proxiableUUID","inputs":[],"outputs":[{"name":"","type":"bytes32","internalType":"bytes32"}],"stateMutability":"view"},{"type":"function","name":"recipient","inputs":[],"outputs":[{"name":"","type":"address","internalType":"address"}],"stateMutability":"view"},{"type":"function","name":"renounceOwnership","inputs":[],"outputs":[],"stateMutability":"nonpayable"},{"type":"function","name":"router","inputs":[],"outputs":[{"name":"","type":"address","internalType":"address"}],"stateMutability":"view"},{"type":"function","name":"sender","inputs":[],"outputs":[{"name":"","type":"address","internalType":"address"}],"stateMutability":"view"},{"type":"function","name":"transferOwnership","inputs":[{"name":"newOwner","type":"address","internalType":"address"}],"outputs":[],"stateMutability":"nonpayable"},{"type":"function","name":"upgradeToAndCall","inputs":[{"name":"newImplementation","type":"address","internalType":"address"},{"name":"data","type":"bytes","internalType":"bytes"}],"outputs":[],"stateMutability":"payable"},{"type":"event","name":"AdminshipTransferred","inputs":[{"name":"previousAdmin","type":"address","indexed":true,"internalType":"address"},{"name":"newAdmin","type":"address","indexed":true,"internalType":"address"}],"anonymous":false},{"type":"event","name":"Initialized","inputs":[{"name":"version","type":"uint64","indexed":false,"internalType":"uint64"}],"anonymous":false},{"type":"event","name":"MultiRecharge","inputs":[{"name":"user","type":"address","indexed":false,"internalType":"address"},{"name":"token0","type":"address","indexed":false,"internalType":"address"},{"name":"amount0","type":"uint256","indexed":false,"internalType":"uint256"},{"name":"token1","type":"address","indexed":false,"internalType":"address"},{"name":"amount1","type":"uint256","indexed":false,"internalType":"uint256"},{"name":"remark","type":"string","indexed":false,"internalType":"string"}],"anonymous":false},{"type":"event","name":"OwnershipTransferred","inputs":[{"name":"previousOwner","type":"address","indexed":true,"internalType":"address"},{"name":"newOwner","type":"address","indexed":true,"internalType":"address"}],"anonymous":false},{"type":"event","name":"Upgraded","inputs":[{"name":"implementation","type":"address","indexed":true,"internalType":"address"}],"anonymous":false},{"type":"event","name":"Withdraw","inputs":[{"name":"remark","type":"string","indexed":false,"internalType":"string"},{"name":"token","type":"address","indexed":false,"internalType":"address"},{"name":"to","type":"address","indexed":false,"internalType":"address"},{"name":"amount","type":"uint256","indexed":false,"internalType":"uint256"}],"anonymous":false},{"type":"error","name":"AddressEmptyCode","inputs":[{"name":"target","type":"address","internalType":"address"}]},{"type":"error","name":"ERC1967InvalidImplementation","inputs":[{"name":"implementation","type":"address","internalType":"address"}]},{"type":"error","name":"ERC1967NonPayable","inputs":[]},{"type":"error","name":"FailedCall","inputs":[]},{"type":"error","name":"InvalidInitialization","inputs":[]},{"type":"error","name":"NotInitializing","inputs":[]},{"type":"error","name":"OwnableInvalidOwner","inputs":[{"name":"owner","type":"address","internalType":"address"}]},{"type":"error","name":"OwnableUnauthorizedAccount","inputs":[{"name":"account","type":"address","internalType":"address"}]},{"type":"error","name":"ReentrancyGuardReentrantCall","inputs":[]},{"type":"error","name":"UUPSUnauthorizedCallContext","inputs":[]},{"type":"error","name":"UUPSUnsupportedProxiableUUID","inputs":[{"name":"slot","type":"bytes32","internalType":"bytes32"}]}],"bytecode":{"object":"0x60a06040523073ffffffffffffffffffffffffffffffffffffffff1660809073ffffffffffffffffffffffffffffffffffffffff168152503480156041575f5ffd5b5060015f81905550608051611cc361006f5f395f8181610f5901528181610fae01526111680152611cc35ff3fe608060405260043610610138575f3560e01c80638dd95002116100aa578063c45a01551161006e578063c45a0155146103b7578063c54e44eb146103e1578063ecdeb0381461040b578063f2fde38b14610435578063f851a4401461045d578063f887ea40146104875761013f565b80638dd95002146102eb5780638f2839701461031557806392c2bcb41461033d578063ad3cb1cc14610365578063b280a7e71461038f5761013f565b806366d003ac116100fc57806366d003ac1461020357806367e404ce1461022d578063715018a61461025757806371ffe90e1461026d57806376a98701146102975780638da5cb5b146102c15761013f565b806306394c9b146101435780631459457a1461016b5780634f1ef2861461019357806352d1902d146101af578063570ca735146101d95761013f565b3661013f57005b5f5ffd5b34801561014e575f5ffd5b50610169600480360381019061016491906117e9565b6104b1565b005b348015610176575f5ffd5b50610191600480360381019061018c9190611814565b6105f1565b005b6101ad60048036038101906101a891906119c7565b6108bd565b005b3480156101ba575f5ffd5b506101c36108dc565b6040516101d09190611a39565b60405180910390f35b3480156101e4575f5ffd5b506101ed61090d565b6040516101fa9190611a61565b60405180910390f35b34801561020e575f5ffd5b50610217610932565b6040516102249190611a61565b60405180910390f35b348015610238575f5ffd5b50610241610957565b60405161024e9190611a61565b60405180910390f35b348015610262575f5ffd5b5061026b61097c565b005b348015610278575f5ffd5b5061028161098f565b60405161028e9190611a61565b60405180910390f35b3480156102a2575f5ffd5b506102ab6109b4565b6040516102b89190611a61565b60405180910390f35b3480156102cc575f5ffd5b506102d56109d9565b6040516102e29190611a61565b60405180910390f35b3480156102f6575f5ffd5b506102ff610a0e565b60405161030c9190611a61565b60405180910390f35b348015610320575f5ffd5b5061033b600480360381019061033691906117e9565b610a26565b005b348015610348575f5ffd5b50610363600480360381019061035e91906117e9565b610b5a565b005b348015610370575f5ffd5b50610379610c9a565b6040516103869190611ada565b60405180910390f35b34801561039a575f5ffd5b506103b560048036038101906103b091906117e9565b610cd3565b005b3480156103c2575f5ffd5b506103cb610e13565b6040516103d89190611a61565b60405180910390f35b3480156103ec575f5ffd5b506103f5610e2b565b6040516104029190611a61565b60405180910390f35b348015610416575f5ffd5b5061041f610e43565b60405161042c9190611a61565b60405180910390f35b348015610440575f5ffd5b5061045b600480360381019061045691906117e9565b610e68565b005b348015610468575f5ffd5b50610471610eec565b60405161047e9190611a61565b60405180910390f35b348015610492575f5ffd5b5061049b610f11565b6040516104a89190611a61565b60405180910390f35b60015f9054906101000a900473ffffffffffffffffffffffffffffffffffffffff1673ffffffffffffffffffffffffffffffffffffffff163373ffffffffffffffffffffffffffffffffffffffff1614610540576040517f08c379a000000000000000000000000000000000000000000000000000000000815260040161053790611b44565b60405180910390fd5b5f73ffffffffffffffffffffffffffffffffffffffff168173ffffffffffffffffffffffffffffffffffffffff16036105ae576040517f08c379a00000000000000000000000000000000000000000000000000000000081526004016105a590611bac565b60405180910390fd5b8060025f6101000a81548173ffffffffffffffffffffffffffffffffffffffff021916908373ffffffffffffffffffffffffffffffffffffffff16021790555050565b5f6105fa610f29565b90505f815f0160089054906101000a900460ff161590505f825f015f9054906101000a900467ffffffffffffffff1690505f5f8267ffffffffffffffff161480156106425750825b90505f60018367ffffffffffffffff1614801561067557505f3073ffffffffffffffffffffffffffffffffffffffff163b145b905081158015610683575080155b156106ba576040517ff92ee8a900000000000000000000000000000000000000000000000000000000815260040160405180910390fd5b6001855f015f6101000a81548167ffffffffffffffff021916908367ffffffffffffffff1602179055508315610707576001855f0160086101000a81548160ff0219169083151502179055505b610717610712610f3c565b610f43565b8960015f6101000a81548173ffffffffffffffffffffffffffffffffffffffff021916908373ffffffffffffffffffffffffffffffffffffffff1602179055508860045f6101000a81548173ffffffffffffffffffffffffffffffffffffffff021916908373ffffffffffffffffffffffffffffffffffffffff1602179055508760055f6101000a81548173ffffffffffffffffffffffffffffffffffffffff021916908373ffffffffffffffffffffffffffffffffffffffff1602179055508660065f6101000a81548173ffffffffffffffffffffffffffffffffffffffff021916908373ffffffffffffffffffffffffffffffffffffffff1602179055508560075f6101000a81548173ffffffffffffffffffffffffffffffffffffffff021916908373ffffffffffffffffffffffffffffffffffffffff16021790555083156108b1575f855f0160086101000a81548160ff0219169083151502179055507fc7f505b2f371ae2175ee4913f4499e1f2633a7b5936321eed1cdaeb6115181d260016040516108a89190611c1f565b60405180910390a15b50505050505050505050565b6108c5610f57565b6108ce8261103d565b6108d88282611048565b5050565b5f6108e5611166565b7f360894a13ba1a3210667c828492db98dca3e2076cc3735a920a3ca505d382bbc5f1b905090565b60025f9054906101000a900473ffffffffffffffffffffffffffffffffffffffff1681565b60035f9054906101000a900473ffffffffffffffffffffffffffffffffffffffff1681565b60045f9054906101000a900473ffffffffffffffffffffffffffffffffffffffff1681565b6109846111ed565b61098d5f611274565b565b60065f9054906101000a900473ffffffffffffffffffffffffffffffffffffffff1681565b60075f9054906101000a900473ffffffffffffffffffffffffffffffffffffffff1681565b5f5f6109e3611345565b9050805f015f9054906101000a900473ffffffffffffffffffffffffffffffffffffffff1691505090565b73bb4cdb9cbd36b01bd1cbaebf2de08d9173bc095c81565b610a2e6111ed565b5f73ffffffffffffffffffffffffffffffffffffffff168173ffffffffffffffffffffffffffffffffffffffff1603610a9c576040517f08c379a0000000000000000000000000000000000000000000000000000000008152600401610a9390611bac565b60405180910390fd5b8073ffffffffffffffffffffffffffffffffffffffff1660015f9054906101000a900473ffffffffffffffffffffffffffffffffffffffff1673ffffffffffffffffffffffffffffffffffffffff167f2931ebb3d190545dcf6801c37aa686b74f2e1000e753d0fac6e471a2aa5a621360405160405180910390a38060015f6101000a81548173ffffffffffffffffffffffffffffffffffffffff021916908373ffffffffffffffffffffffffffffffffffffffff16021790555050565b60015f9054906101000a900473ffffffffffffffffffffffffffffffffffffffff1673ffffffffffffffffffffffffffffffffffffffff163373ffffffffffffffffffffffffffffffffffffffff1614610be9576040517f08c379a0000000000000000000000000000000000000000000000000000000008152600401610be090611b44565b60405180910390fd5b5f73ffffffffffffffffffffffffffffffffffffffff168173ffffffffffffffffffffffffffffffffffffffff1603610c57576040517f08c379a0000000000000000000000000000000000000000000000000000000008152600401610c4e90611bac565b60405180910390fd5b8060035f6101000a81548173ffffffffffffffffffffffffffffffffffffffff021916908373ffffffffffffffffffffffffffffffffffffffff16021790555050565b6040518060400160405280600581526020017f352e302e3000000000000000000000000000000000000000000000000000000081525081565b60015f9054906101000a900473ffffffffffffffffffffffffffffffffffffffff1673ffffffffffffffffffffffffffffffffffffffff163373ffffffffffffffffffffffffffffffffffffffff1614610d62576040517f08c379a0000000000000000000000000000000000000000000000000000000008152600401610d5990611b44565b60405180910390fd5b5f73ffffffffffffffffffffffffffffffffffffffff168173ffffffffffffffffffffffffffffffffffffffff1603610dd0576040517f08c379a0000000000000000000000000000000000000000000000000000000008152600401610dc790611bac565b60405180910390fd5b8060045f6101000a81548173ffffffffffffffffffffffffffffffffffffffff021916908373ffffffffffffffffffffffffffffffffffffffff16021790555050565b73ca143ce32fe78f1f7019d7d551a6402fc5350c7381565b7355d398326f99059ff775485246999027b319795581565b60055f9054906101000a900473ffffffffffffffffffffffffffffffffffffffff1681565b610e706111ed565b5f73ffffffffffffffffffffffffffffffffffffffff168173ffffffffffffffffffffffffffffffffffffffff1603610ee0575f6040517f1e4fbdf7000000000000000000000000000000000000000000000000000000008152600401610ed79190611a61565b60405180910390fd5b610ee981611274565b50565b60015f9054906101000a900473ffffffffffffffffffffffffffffffffffffffff1681565b7310ed43c718714eb63d5aa57b78b54704e256024e81565b5f5f610f3361136c565b90508091505090565b5f33905090565b610f4b611395565b610f54816113d5565b50565b7f000000000000000000000000000000000000000000000000000000000000000073ffffffffffffffffffffffffffffffffffffffff163073ffffffffffffffffffffffffffffffffffffffff16148061100457507f000000000000000000000000000000000000000000000000000000000000000073ffffffffffffffffffffffffffffffffffffffff16610feb611459565b73ffffffffffffffffffffffffffffffffffffffff1614155b1561103b576040517fe07c8dba00000000000000000000000000000000000000000000000000000000815260040160405180910390fd5b565b6110456111ed565b50565b8173ffffffffffffffffffffffffffffffffffffffff166352d1902d6040518163ffffffff1660e01b8152600401602060405180830381865afa9250505080156110b057506040513d601f19601f820116820180604052508101906110ad9190611c62565b60015b6110f157816040517f4c9c8ce30000000000000000000000000000000000000000000000000000000081526004016110e89190611a61565b60405180910390fd5b7f360894a13ba1a3210667c828492db98dca3e2076cc3735a920a3ca505d382bbc5f1b811461115757806040517faa1d49a400000000000000000000000000000000000000000000000000000000815260040161114e9190611a39565b60405180910390fd5b61116183836114ac565b505050565b7f000000000000000000000000000000000000000000000000000000000000000073ffffffffffffffffffffffffffffffffffffffff163073ffffffffffffffffffffffffffffffffffffffff16146111eb576040517fe07c8dba00000000000000000000000000000000000000000000000000000000815260040160405180910390fd5b565b6111f5610f3c565b73ffffffffffffffffffffffffffffffffffffffff166112136109d9565b73ffffffffffffffffffffffffffffffffffffffff161461127257611236610f3c565b6040517f118cdaa70000000000000000000000000000000000000000000000000000000081526004016112699190611a61565b60405180910390fd5b565b5f61127d611345565b90505f815f015f9054906101000a900473ffffffffffffffffffffffffffffffffffffffff16905082825f015f6101000a81548173ffffffffffffffffffffffffffffffffffffffff021916908373ffffffffffffffffffffffffffffffffffffffff1602179055508273ffffffffffffffffffffffffffffffffffffffff168173ffffffffffffffffffffffffffffffffffffffff167f8be0079c531659141344cd1fd0a4f28419497f9722a3daafe3b4186f6b6457e060405160405180910390a3505050565b5f7f9016d09d72d40fdae2fd8ceac6b6234c7706214fd39c1cd1e609a0528c199300905090565b5f7ff0c57e16840df040f15088dc2f81fe391c3923bec73e23a9662efc9c229c6a005f1b905090565b61139d61151e565b6113d3576040517fd7e6bcf800000000000000000000000000000000000000000000000000000000815260040160405180910390fd5b565b6113dd611395565b5f73ffffffffffffffffffffffffffffffffffffffff168173ffffffffffffffffffffffffffffffffffffffff160361144d575f6040517f1e4fbdf70000000000000000000000000000000000000000000000000000000081526004016114449190611a61565b60405180910390fd5b61145681611274565b50565b5f6114857f360894a13ba1a3210667c828492db98dca3e2076cc3735a920a3ca505d382bbc5f1b61153c565b5f015f9054906101000a900473ffffffffffffffffffffffffffffffffffffffff16905090565b6114b582611545565b8173ffffffffffffffffffffffffffffffffffffffff167fbc7cd75a20ee27fd9adebab32041f755214dbc6bffa90cc0225b39da2e5c2d3b60405160405180910390a25f815111156115115761150b828261160e565b5061151a565b6115196116ff565b5b5050565b5f611527610f29565b5f0160089054906101000a900460ff16905090565b5f819050919050565b5f8173ffffffffffffffffffffffffffffffffffffffff163b036115a057806040517f4c9c8ce30000000000000000000000000000000000000000000000000000000081526004016115979190611a61565b60405180910390fd5b806115cc7f360894a13ba1a3210667c828492db98dca3e2076cc3735a920a3ca505d382bbc5f1b61153c565b5f015f6101000a81548173ffffffffffffffffffffffffffffffffffffffff021916908373ffffffffffffffffffffffffffffffffffffffff16021790555050565b60605f61161b848461173b565b905080801561165157505f61162e61174f565b118061165057505f8473ffffffffffffffffffffffffffffffffffffffff163b115b5b156116665761165e611756565b9150506116f9565b80156116a957836040517f9996b3150000000000000000000000000000000000000000000000000000000081526004016116a09190611a61565b60405180910390fd5b5f6116b261174f565b11156116c5576116c0611773565b6116f7565b6040517fd6bda27500000000000000000000000000000000000000000000000000000000815260040160405180910390fd5b505b92915050565b5f341115611739576040517fb398979f00000000000000000000000000000000000000000000000000000000815260040160405180910390fd5b565b5f5f5f835160208501865af4905092915050565b5f3d905090565b606060405190503d81523d5f602083013e3d602001810160405290565b6040513d5f823e3d81fd5b5f604051905090565b5f5ffd5b5f5ffd5b5f73ffffffffffffffffffffffffffffffffffffffff82169050919050565b5f6117b88261178f565b9050919050565b6117c8816117ae565b81146117d2575f5ffd5b50565b5f813590506117e3816117bf565b92915050565b5f602082840312156117fe576117fd611787565b5b5f61180b848285016117d5565b91505092915050565b5f5f5f5f5f60a0868803121561182d5761182c611787565b5b5f61183a888289016117d5565b955050602061184b888289016117d5565b945050604061185c888289016117d5565b935050606061186d888289016117d5565b925050608061187e888289016117d5565b9150509295509295909350565b5f5ffd5b5f5ffd5b5f601f19601f8301169050919050565b7f4e487b71000000000000000000000000000000000000000000000000000000005f52604160045260245ffd5b6118d982611893565b810181811067ffffffffffffffff821117156118f8576118f76118a3565b5b80604052505050565b5f61190a61177e565b905061191682826118d0565b919050565b5f67ffffffffffffffff821115611935576119346118a3565b5b61193e82611893565b9050602081019050919050565b828183375f83830152505050565b5f61196b6119668461191b565b611901565b9050828152602081018484840111156119875761198661188f565b5b61199284828561194b565b509392505050565b5f82601f8301126119ae576119ad61188b565b5b81356119be848260208601611959565b91505092915050565b5f5f604083850312156119dd576119dc611787565b5b5f6119ea858286016117d5565b925050602083013567ffffffffffffffff811115611a0b57611a0a61178b565b5b611a178582860161199a565b9150509250929050565b5f819050919050565b611a3381611a21565b82525050565b5f602082019050611a4c5f830184611a2a565b92915050565b611a5b816117ae565b82525050565b5f602082019050611a745f830184611a52565b92915050565b5f81519050919050565b5f82825260208201905092915050565b8281835e5f83830152505050565b5f611aac82611a7a565b611ab68185611a84565b9350611ac6818560208601611a94565b611acf81611893565b840191505092915050565b5f6020820190508181035f830152611af28184611aa2565b905092915050565b7f4552524f525f41444d494e2e00000000000000000000000000000000000000005f82015250565b5f611b2e600c83611a84565b9150611b3982611afa565b602082019050919050565b5f6020820190508181035f830152611b5b81611b22565b9050919050565b7f5a45524f5f414444524553532e000000000000000000000000000000000000005f82015250565b5f611b96600d83611a84565b9150611ba182611b62565b602082019050919050565b5f6020820190508181035f830152611bc381611b8a565b9050919050565b5f819050919050565b5f67ffffffffffffffff82169050919050565b5f819050919050565b5f611c09611c04611bff84611bca565b611be6565b611bd3565b9050919050565b611c1981611bef565b82525050565b5f602082019050611c325f830184611c10565b92915050565b611c4181611a21565b8114611c4b575f5ffd5b50565b5f81519050611c5c81611c38565b92915050565b5f60208284031215611c7757611c76611787565b5b5f611c8484828501611c4e565b9150509291505056fea2646970667358221220a6ec138590c807fe8ae5c8aa163568b324efe10199a1f32c0000f2b740e8806e64736f6c634300081e0033","linkReferences":{}},"methodIdentifiers":{"UPGRADE_INTERFACE_VERSION()":"ad3cb1cc","USDT()":"c54e44eb","WBNB()":"8dd95002","admin()":"f851a440","changeAdmin(address)":"8f283970","changeOperator(address)":"06394c9b","changeRecipient(address)":"92c2bcb4","changeSender(address)":"b280a7e7","factory()":"c45a0155","initialize(address,address,address,address,address)":"1459457a","operator()":"570ca735","owner()":"8da5cb5b","percent20()":"76a98701","percent30()":"71ffe90e","percent50()":"ecdeb038","proxiableUUID()":"52d1902d","recipient()":"66d003ac","renounceOwnership()":"715018a6","router()":"f887ea40","sender()":"67e404ce","transferOwnership(address)":"f2fde38b","upgradeToAndCall(address,bytes)":"4f1ef286"},"id":15}