{"abi":[{"type":"receive","stateMutability":"payable"},{"type":"function","name":"UPGRADE_INTERFACE_VERSION","inputs":[],"outputs":[{"name":"","type":"string","internalType":"string"}],"stateMutability":"view"},{"type":"function","name":"USDT","inputs":[],"outputs":[{"name":"","type":"address","internalType":"address"}],"stateMutability":"view"},{"type":"function","name":"WBNB","inputs":[],"outputs":[{"name":"","type":"address","internalType":"address"}],"stateMutability":"view"},{"type":"function","name":"admin","inputs":[],"outputs":[{"name":"","type":"address","internalType":"address"}],"stateMutability":"view"},{"type":"function","name":"changeAdmin","inputs":[{"name":"_newAdmin","type":"address","internalType":"address"}],"outputs":[],"stateMutability":"nonpayable"},{"type":"function","name":"changeOperator","inputs":[{"name":"_newOperator","type":"address","internalType":"address"}],"outputs":[],"stateMutability":"nonpayable"},{"type":"function","name":"changeRechargePercent","inputs":[{"name":"_percent50","type":"address","internalType":"address"},{"name":"_percent30","type":"address","internalType":"address"},{"name":"_percent20","type":"address","internalType":"address"}],"outputs":[],"stateMutability":"nonpayable"},{"type":"function","name":"changeRecipient","inputs":[{"name":"_newRecipient","type":"address","internalType":"address"}],"outputs":[],"stateMutability":"nonpayable"},{"type":"function","name":"changeSender","inputs":[{"name":"_newSender","type":"address","internalType":"address"}],"outputs":[],"stateMutability":"nonpayable"},{"type":"function","name":"factory","inputs":[],"outputs":[{"name":"","type":"address","internalType":"address"}],"stateMutability":"view"},{"type":"function","name":"getPrice","inputs":[{"name":"token","type":"address","internalType":"address"}],"outputs":[{"name":"","type":"address","internalType":"address"},{"name":"","type":"uint256","internalType":"uint256"}],"stateMutability":"view"},{"type":"function","name":"initialize","inputs":[{"name":"_admin","type":"address","internalType":"address"},{"name":"_recipient","type":"address","internalType":"address"},{"name":"_sender","type":"address","internalType":"address"},{"name":"_percent50","type":"address","internalType":"address"},{"name":"_percent30","type":"address","internalType":"address"},{"name":"_percent20","type":"address","internalType":"address"},{"name":"_skp","type":"address","internalType":"address"}],"outputs":[],"stateMutability":"nonpayable"},{"type":"function","name":"multiBalanceOf","inputs":[{"name":"token","type":"address","internalType":"address"},{"name":"users","type":"address[]","internalType":"address[]"}],"outputs":[{"name":"","type":"tuple[]","internalType":"struct Recharge.Info[]","components":[{"name":"user","type":"address","internalType":"address"},{"name":"amount","type":"uint256","internalType":"uint256"}]}],"stateMutability":"view"},{"type":"function","name":"multiRecharge","inputs":[{"name":"token0","type":"address","internalType":"address"},{"name":"amount0","type":"uint256","internalType":"uint256"},{"name":"token1","type":"address","internalType":"address"},{"name":"amount1","type":"uint256","internalType":"uint256"},{"name":"remark","type":"string","internalType":"string"}],"outputs":[],"stateMutability":"payable"},{"type":"function","name":"operator","inputs":[],"outputs":[{"name":"","type":"address","internalType":"address"}],"stateMutability":"view"},{"type":"function","name":"owner","inputs":[],"outputs":[{"name":"","type":"address","internalType":"address"}],"stateMutability":"view"},{"type":"function","name":"proxiableUUID","inputs":[],"outputs":[{"name":"","type":"bytes32","internalType":"bytes32"}],"stateMutability":"view"},{"type":"function","name":"rechargePercent20","inputs":[],"outputs":[{"name":"","type":"address","internalType":"address"}],"stateMutability":"view"},{"type":"function","name":"rechargePercent30","inputs":[],"outputs":[{"name":"","type":"address","internalType":"address"}],"stateMutability":"view"},{"type":"function","name":"rechargePercent50","inputs":[],"outputs":[{"name":"","type":"address","internalType":"address"}],"stateMutability":"view"},{"type":"function","name":"recipient","inputs":[],"outputs":[{"name":"","type":"address","internalType":"address"}],"stateMutability":"view"},{"type":"function","name":"renounceOwnership","inputs":[],"outputs":[],"stateMutability":"nonpayable"},{"type":"function","name":"router","inputs":[],"outputs":[{"name":"","type":"address","internalType":"address"}],"stateMutability":"view"},{"type":"function","name":"sender","inputs":[],"outputs":[{"name":"","type":"address","internalType":"address"}],"stateMutability":"view"},{"type":"function","name":"singleRecharge","inputs":[{"name":"token","type":"address","internalType":"address"},{"name":"amount","type":"uint256","internalType":"uint256"},{"name":"remark","type":"string","internalType":"string"}],"outputs":[],"stateMutability":"payable"},{"type":"function","name":"skp","inputs":[],"outputs":[{"name":"","type":"address","internalType":"address"}],"stateMutability":"view"},{"type":"function","name":"transferOwnership","inputs":[{"name":"newOwner","type":"address","internalType":"address"}],"outputs":[],"stateMutability":"nonpayable"},{"type":"function","name":"upgradeToAndCall","inputs":[{"name":"newImplementation","type":"address","internalType":"address"},{"name":"data","type":"bytes","internalType":"bytes"}],"outputs":[],"stateMutability":"payable"},{"type":"function","name":"withdraw","inputs":[{"name":"remark","type":"string","internalType":"string"},{"name":"token","type":"address","internalType":"address"},{"name":"amount","type":"uint256","internalType":"uint256"},{"name":"to","type":"address","internalType":"address"}],"outputs":[],"stateMutability":"nonpayable"},{"type":"event","name":"AdminshipTransferred","inputs":[{"name":"previousAdmin","type":"address","indexed":true,"internalType":"address"},{"name":"newAdmin","type":"address","indexed":true,"internalType":"address"}],"anonymous":false},{"type":"event","name":"Initialized","inputs":[{"name":"version","type":"uint64","indexed":false,"internalType":"uint64"}],"anonymous":false},{"type":"event","name":"MultiRecharge","inputs":[{"name":"user","type":"address","indexed":false,"internalType":"address"},{"name":"token0","type":"address","indexed":false,"internalType":"address"},{"name":"amount0","type":"uint256","indexed":false,"internalType":"uint256"},{"name":"token1","type":"address","indexed":false,"internalType":"address"},{"name":"amount1","type":"uint256","indexed":false,"internalType":"uint256"},{"name":"remark","type":"string","indexed":false,"internalType":"string"}],"anonymous":false},{"type":"event","name":"OwnershipTransferred","inputs":[{"name":"previousOwner","type":"address","indexed":true,"internalType":"address"},{"name":"newOwner","type":"address","indexed":true,"internalType":"address"}],"anonymous":false},{"type":"event","name":"Upgraded","inputs":[{"name":"implementation","type":"address","indexed":true,"internalType":"address"}],"anonymous":false},{"type":"event","name":"Withdraw","inputs":[{"name":"remark","type":"string","indexed":false,"internalType":"string"},{"name":"token","type":"address","indexed":false,"internalType":"address"},{"name":"to","type":"address","indexed":false,"internalType":"address"},{"name":"amount","type":"uint256","indexed":false,"internalType":"uint256"}],"anonymous":false},{"type":"error","name":"AddressEmptyCode","inputs":[{"name":"target","type":"address","internalType":"address"}]},{"type":"error","name":"ERC1967InvalidImplementation","inputs":[{"name":"implementation","type":"address","internalType":"address"}]},{"type":"error","name":"ERC1967NonPayable","inputs":[]},{"type":"error","name":"FailedCall","inputs":[]},{"type":"error","name":"InvalidInitialization","inputs":[]},{"type":"error","name":"NotInitializing","inputs":[]},{"type":"error","name":"OwnableInvalidOwner","inputs":[{"name":"owner","type":"address","internalType":"address"}]},{"type":"error","name":"OwnableUnauthorizedAccount","inputs":[{"name":"account","type":"address","internalType":"address"}]},{"type":"error","name":"ReentrancyGuardReentrantCall","inputs":[]},{"type":"error","name":"UUPSUnauthorizedCallContext","inputs":[]},{"type":"error","name":"UUPSUnsupportedProxiableUUID","inputs":[{"name":"slot","type":"bytes32","internalType":"bytes32"}]}],"bytecode":{"object":"0x60a06040523073ffffffffffffffffffffffffffffffffffffffff1660809073ffffffffffffffffffffffffffffffffffffffff168152503480156041575f5ffd5b5060015f8190555060805161491e61006f5f395f8181612077015281816120cc0152612286015261491e5ff3fe6080604052600436106101c5575f3560e01c80638dd95002116100f6578063b280a7e711610094578063c54e44eb11610063578063c54e44eb146105c3578063f2fde38b146105ed578063f851a44014610615578063f887ea401461063f576101cc565b8063b280a7e71461051d578063baad38d514610545578063bf2647f21461056f578063c45a015514610599576101cc565b80639f166cf1116100d05780639f166cf114610473578063aa7e7eb9146104af578063ad3cb1cc146104cb578063b0d51091146104f5576101cc565b80638dd95002146103f95780638f2839701461042357806392c2bcb41461044b576101cc565b8063570ca7351161016357806367e404ce1161013d57806367e404ce14610373578063715018a61461039d57806373abf0af146103b35780638da5cb5b146103cf576101cc565b8063570ca735146102f757806362a338111461032157806366d003ac14610349576101cc565b806341976e091161019f57806341976e091461024a57806345348946146102875780634f1ef286146102b157806352d1902d146102cd576101cc565b806306394c9b146101d05780632cd89ff2146101f85780633587647614610222576101cc565b366101cc57005b5f5ffd5b3480156101db575f5ffd5b506101f660048036038101906101f1919061352d565b610669565b005b348015610203575f5ffd5b5061020c6107a9565b6040516102199190613567565b60405180910390f35b34801561022d575f5ffd5b5061024860048036038101906102439190613580565b6107ce565b005b348015610255575f5ffd5b50610270600480360381019061026b919061352d565b610b1c565b60405161027e929190613635565b60405180910390f35b348015610292575f5ffd5b5061029b6110ad565b6040516102a89190613567565b60405180910390f35b6102cb60048036038101906102c69190613798565b6110d2565b005b3480156102d8575f5ffd5b506102e16110f1565b6040516102ee919061380a565b60405180910390f35b348015610302575f5ffd5b5061030b611122565b6040516103189190613567565b60405180910390f35b34801561032c575f5ffd5b50610347600480360381019061034291906138eb565b611147565b005b348015610354575f5ffd5b5061035d6112cb565b60405161036a9190613567565b60405180910390f35b34801561037e575f5ffd5b506103876112f0565b6040516103949190613567565b60405180910390f35b3480156103a8575f5ffd5b506103b1611315565b005b6103cd60048036038101906103c891906139c8565b611328565b005b3480156103da575f5ffd5b506103e3611543565b6040516103f09190613567565b60405180910390f35b348015610404575f5ffd5b5061040d611578565b60405161041a9190613567565b60405180910390f35b34801561042e575f5ffd5b506104496004803603810190610444919061352d565b611590565b005b348015610456575f5ffd5b50610471600480360381019061046c919061352d565b6116c4565b005b34801561047e575f5ffd5b5061049960048036038101906104949190613ab3565b611804565b6040516104a69190613c03565b60405180910390f35b6104c960048036038101906104c49190613c23565b611aa0565b005b3480156104d6575f5ffd5b506104df611c3f565b6040516104ec9190613cf4565b60405180910390f35b348015610500575f5ffd5b5061051b60048036038101906105169190613d14565b611c78565b005b348015610528575f5ffd5b50610543600480360381019061053e919061352d565b611dcc565b005b348015610550575f5ffd5b50610559611f0c565b6040516105669190613567565b60405180910390f35b34801561057a575f5ffd5b50610583611f31565b6040516105909190613567565b60405180910390f35b3480156105a4575f5ffd5b506105ad611f56565b6040516105ba9190613567565b60405180910390f35b3480156105ce575f5ffd5b506105d7611f6e565b6040516105e49190613567565b60405180910390f35b3480156105f8575f5ffd5b50610613600480360381019061060e919061352d565b611f86565b005b348015610620575f5ffd5b5061062961200a565b6040516106369190613567565b60405180910390f35b34801561064a575f5ffd5b5061065361202f565b6040516106609190613567565b60405180910390f35b60015f9054906101000a900473ffffffffffffffffffffffffffffffffffffffff1673ffffffffffffffffffffffffffffffffffffffff163373ffffffffffffffffffffffffffffffffffffffff16146106f8576040517f08c379a00000000000000000000000000000000000000000000000000000000081526004016106ef90613dae565b60405180910390fd5b5f73ffffffffffffffffffffffffffffffffffffffff168173ffffffffffffffffffffffffffffffffffffffff1603610766576040517f08c379a000000000000000000000000000000000000000000000000000000000815260040161075d90613e16565b60405180910390fd5b8060025f6101000a81548173ffffffffffffffffffffffffffffffffffffffff021916908373ffffffffffffffffffffffffffffffffffffffff16021790555050565b60065f9054906101000a900473ffffffffffffffffffffffffffffffffffffffff1681565b5f6107d7612047565b90505f815f0160089054906101000a900460ff161590505f825f015f9054906101000a900467ffffffffffffffff1690505f5f8267ffffffffffffffff1614801561081f5750825b90505f60018367ffffffffffffffff1614801561085257505f3073ffffffffffffffffffffffffffffffffffffffff163b145b905081158015610860575080155b15610897576040517ff92ee8a900000000000000000000000000000000000000000000000000000000815260040160405180910390fd5b6001855f015f6101000a81548167ffffffffffffffff021916908367ffffffffffffffff16021790555083156108e4576001855f0160086101000a81548160ff0219169083151502179055505b6108f46108ef61205a565b612061565b8b60015f6101000a81548173ffffffffffffffffffffffffffffffffffffffff021916908373ffffffffffffffffffffffffffffffffffffffff1602179055508a60035f6101000a81548173ffffffffffffffffffffffffffffffffffffffff021916908373ffffffffffffffffffffffffffffffffffffffff1602179055508960045f6101000a81548173ffffffffffffffffffffffffffffffffffffffff021916908373ffffffffffffffffffffffffffffffffffffffff1602179055508860055f6101000a81548173ffffffffffffffffffffffffffffffffffffffff021916908373ffffffffffffffffffffffffffffffffffffffff1602179055508760065f6101000a81548173ffffffffffffffffffffffffffffffffffffffff021916908373ffffffffffffffffffffffffffffffffffffffff1602179055508660075f6101000a81548173ffffffffffffffffffffffffffffffffffffffff021916908373ffffffffffffffffffffffffffffffffffffffff1602179055508560085f6101000a81548173ffffffffffffffffffffffffffffffffffffffff021916908373ffffffffffffffffffffffffffffffffffffffff1602179055508315610b0e575f855f0160086101000a81548160ff0219169083151502179055507fc7f505b2f371ae2175ee4913f4499e1f2633a7b5936321eed1cdaeb6115181d26001604051610b059190613e89565b60405180910390a15b505050505050505050505050565b5f5f5f73ca143ce32fe78f1f7019d7d551a6402fc5350c7373ffffffffffffffffffffffffffffffffffffffff1663e6a439058573bb4cdb9cbd36b01bd1cbaebf2de08d9173bc095c6040518363ffffffff1660e01b8152600401610b82929190613ea2565b602060405180830381865afa158015610b9d573d5f5f3e3d5ffd5b505050506040513d601f19601f82011682018060405250810190610bc19190613edd565b90505f73ca143ce32fe78f1f7019d7d551a6402fc5350c7373ffffffffffffffffffffffffffffffffffffffff1663e6a43905867355d398326f99059ff775485246999027b31979556040518363ffffffff1660e01b8152600401610c27929190613ea2565b602060405180830381865afa158015610c42573d5f5f3e3d5ffd5b505050506040513d601f19601f82011682018060405250810190610c669190613edd565b90505f670de0b6b3a764000090505f5f73ffffffffffffffffffffffffffffffffffffffff168373ffffffffffffffffffffffffffffffffffffffff1614610e89575f600267ffffffffffffffff811115610cc457610cc3613674565b5b604051908082528060200260200182016040528015610cf25781602001602082028036833780820191505090505b50905087815f81518110610d0957610d08613f08565b5b602002602001019073ffffffffffffffffffffffffffffffffffffffff16908173ffffffffffffffffffffffffffffffffffffffff16815250507355d398326f99059ff775485246999027b319795581600181518110610d6c57610d6b613f08565b5b602002602001019073ffffffffffffffffffffffffffffffffffffffff16908173ffffffffffffffffffffffffffffffffffffffff16815250505f7310ed43c718714eb63d5aa57b78b54704e256024e73ffffffffffffffffffffffffffffffffffffffff1663d06ca61f85846040518363ffffffff1660e01b8152600401610df6929190613fdd565b5f60405180830381865afa158015610e10573d5f5f3e3d5ffd5b505050506040513d5f823e3d601f19601f82011682018060405250810190610e3891906140df565b90508060018251610e499190614153565b81518110610e5a57610e59613f08565b5b602002602001015192507355d398326f99059ff775485246999027b319795583975097505050505050506110a8565b5f73ffffffffffffffffffffffffffffffffffffffff168473ffffffffffffffffffffffffffffffffffffffff161461109d575f600267ffffffffffffffff811115610ed857610ed7613674565b5b604051908082528060200260200182016040528015610f065781602001602082028036833780820191505090505b50905087815f81518110610f1d57610f1c613f08565b5b602002602001019073ffffffffffffffffffffffffffffffffffffffff16908173ffffffffffffffffffffffffffffffffffffffff168152505073bb4cdb9cbd36b01bd1cbaebf2de08d9173bc095c81600181518110610f8057610f7f613f08565b5b602002602001019073ffffffffffffffffffffffffffffffffffffffff16908173ffffffffffffffffffffffffffffffffffffffff16815250505f7310ed43c718714eb63d5aa57b78b54704e256024e73ffffffffffffffffffffffffffffffffffffffff1663d06ca61f85846040518363ffffffff1660e01b815260040161100a929190613fdd565b5f60405180830381865afa158015611024573d5f5f3e3d5ffd5b505050506040513d5f823e3d601f19601f8201168201806040525081019061104c91906140df565b9050806001825161105d9190614153565b8151811061106e5761106d613f08565b5b6020026020010151925073bb4cdb9cbd36b01bd1cbaebf2de08d9173bc095c83975097505050505050506110a8565b5f5f95509550505050505b915091565b60085f9054906101000a900473ffffffffffffffffffffffffffffffffffffffff1681565b6110da612075565b6110e38261215b565b6110ed8282612166565b5050565b5f6110fa612284565b7f360894a13ba1a3210667c828492db98dca3e2076cc3735a920a3ca505d382bbc5f1b905090565b60025f9054906101000a900473ffffffffffffffffffffffffffffffffffffffff1681565b60015f9054906101000a900473ffffffffffffffffffffffffffffffffffffffff1673ffffffffffffffffffffffffffffffffffffffff163373ffffffffffffffffffffffffffffffffffffffff16146111d6576040517f08c379a00000000000000000000000000000000000000000000000000000000081526004016111cd90613dae565b60405180910390fd5b5f8211611218576040517f08c379a000000000000000000000000000000000000000000000000000000000815260040161120f906141d0565b60405180910390fd5b5f73ffffffffffffffffffffffffffffffffffffffff168373ffffffffffffffffffffffffffffffffffffffff161461127d576112788360045f9054906101000a900473ffffffffffffffffffffffffffffffffffffffff16838561230b565b611288565b611287818361243e565b5b7f99310eed5bb161586b62449f89ccaa4580f85f953cd64218092edfc2b1f5fce7848483856040516112bd94939291906141ee565b60405180910390a150505050565b60035f9054906101000a900473ffffffffffffffffffffffffffffffffffffffff1681565b60045f9054906101000a900473ffffffffffffffffffffffffffffffffffffffff1681565b61131d612539565b6113265f6125c0565b565b5f85118061133557505f83115b611374576040517f08c379a000000000000000000000000000000000000000000000000000000000815260040161136b90614282565b60405180910390fd5b5f600267ffffffffffffffff8111156113905761138f613674565b5b6040519080825280602002602001820160405280156113be5781602001602082028036833780820191505090505b5090505f600267ffffffffffffffff8111156113dd576113dc613674565b5b60405190808252806020026020018201604052801561140b5781602001602082028036833780820191505090505b50905087825f8151811061142257611421613f08565b5b602002602001019073ffffffffffffffffffffffffffffffffffffffff16908173ffffffffffffffffffffffffffffffffffffffff168152505086815f815181106114705761146f613f08565b5b602002602001018181525050858260018151811061149157611490613f08565b5b602002602001019073ffffffffffffffffffffffffffffffffffffffff16908173ffffffffffffffffffffffffffffffffffffffff168152505084816001815181106114e0576114df613f08565b5b6020026020010181815250506114f68282612691565b7f92bfe9b63523d7c8baff8387323dd4c1c8ccd48705d9c91e19160ebcabb053b83389898989898960405161153197969594939291906142cc565b60405180910390a15050505050505050565b5f5f61154d612d39565b9050805f015f9054906101000a900473ffffffffffffffffffffffffffffffffffffffff1691505090565b73bb4cdb9cbd36b01bd1cbaebf2de08d9173bc095c81565b611598612539565b5f73ffffffffffffffffffffffffffffffffffffffff168173ffffffffffffffffffffffffffffffffffffffff1603611606576040517f08c379a00000000000000000000000000000000000000000000000000000000081526004016115fd90613e16565b60405180910390fd5b8073ffffffffffffffffffffffffffffffffffffffff1660015f9054906101000a900473ffffffffffffffffffffffffffffffffffffffff1673ffffffffffffffffffffffffffffffffffffffff167f2931ebb3d190545dcf6801c37aa686b74f2e1000e753d0fac6e471a2aa5a621360405160405180910390a38060015f6101000a81548173ffffffffffffffffffffffffffffffffffffffff021916908373ffffffffffffffffffffffffffffffffffffffff16021790555050565b60015f9054906101000a900473ffffffffffffffffffffffffffffffffffffffff1673ffffffffffffffffffffffffffffffffffffffff163373ffffffffffffffffffffffffffffffffffffffff1614611753576040517f08c379a000000000000000000000000000000000000000000000000000000000815260040161174a90613dae565b60405180910390fd5b5f73ffffffffffffffffffffffffffffffffffffffff168173ffffffffffffffffffffffffffffffffffffffff16036117c1576040517f08c379a00000000000000000000000000000000000000000000000000000000081526004016117b890613e16565b60405180910390fd5b8060035f6101000a81548173ffffffffffffffffffffffffffffffffffffffff021916908373ffffffffffffffffffffffffffffffffffffffff16021790555050565b60605f8383905090505f8167ffffffffffffffff81111561182857611827613674565b5b60405190808252806020026020018201604052801561186157816020015b61184e613494565b8152602001906001900390816118465790505b5090505f73ffffffffffffffffffffffffffffffffffffffff168673ffffffffffffffffffffffffffffffffffffffff1603611965575f5f90505b8281101561195f5760405180604001604052808787848181106118c2576118c1613f08565b5b90506020020160208101906118d7919061352d565b73ffffffffffffffffffffffffffffffffffffffff16815260200187878481811061190557611904613f08565b5b905060200201602081019061191a919061352d565b73ffffffffffffffffffffffffffffffffffffffff163181525082828151811061194757611946613f08565b5b6020026020010181905250808060010191505061189c565b50611a94565b5f8690505f5f90505b83811015611a9157604051806040016040528088888481811061199457611993613f08565b5b90506020020160208101906119a9919061352d565b73ffffffffffffffffffffffffffffffffffffffff1681526020018373ffffffffffffffffffffffffffffffffffffffff166370a082318a8a868181106119f3576119f2613f08565b5b9050602002016020810190611a08919061352d565b6040518263ffffffff1660e01b8152600401611a249190613567565b602060405180830381865afa158015611a3f573d5f5f3e3d5ffd5b505050506040513d601f19601f82011682018060405250810190611a639190614334565b815250838281518110611a7957611a78613f08565b5b6020026020010181905250808060010191505061196e565b50505b80925050509392505050565b5f8311611ae2576040517f08c379a0000000000000000000000000000000000000000000000000000000008152600401611ad990614282565b60405180910390fd5b5f600167ffffffffffffffff811115611afe57611afd613674565b5b604051908082528060200260200182016040528015611b2c5781602001602082028036833780820191505090505b5090505f600167ffffffffffffffff811115611b4b57611b4a613674565b5b604051908082528060200260200182016040528015611b795781602001602082028036833780820191505090505b50905085825f81518110611b9057611b8f613f08565b5b602002602001019073ffffffffffffffffffffffffffffffffffffffff16908173ffffffffffffffffffffffffffffffffffffffff168152505084815f81518110611bde57611bdd613f08565b5b602002602001018181525050611bf48282612691565b7f92bfe9b63523d7c8baff8387323dd4c1c8ccd48705d9c91e19160ebcabb053b83387875f5f8989604051611c2f9796959493929190614398565b60405180910390a1505050505050565b6040518060400160405280600581526020017f352e302e3000000000000000000000000000000000000000000000000000000081525081565b60015f9054906101000a900473ffffffffffffffffffffffffffffffffffffffff1673ffffffffffffffffffffffffffffffffffffffff163373ffffffffffffffffffffffffffffffffffffffff1614611d07576040517f08c379a0000000000000000000000000000000000000000000000000000000008152600401611cfe90613dae565b60405180910390fd5b8260055f6101000a81548173ffffffffffffffffffffffffffffffffffffffff021916908373ffffffffffffffffffffffffffffffffffffffff1602179055508160065f6101000a81548173ffffffffffffffffffffffffffffffffffffffff021916908373ffffffffffffffffffffffffffffffffffffffff1602179055508060075f6101000a81548173ffffffffffffffffffffffffffffffffffffffff021916908373ffffffffffffffffffffffffffffffffffffffff160217905550505050565b60015f9054906101000a900473ffffffffffffffffffffffffffffffffffffffff1673ffffffffffffffffffffffffffffffffffffffff163373ffffffffffffffffffffffffffffffffffffffff1614611e5b576040517f08c379a0000000000000000000000000000000000000000000000000000000008152600401611e5290613dae565b60405180910390fd5b5f73ffffffffffffffffffffffffffffffffffffffff168173ffffffffffffffffffffffffffffffffffffffff1603611ec9576040517f08c379a0000000000000000000000000000000000000000000000000000000008152600401611ec090613e16565b60405180910390fd5b8060045f6101000a81548173ffffffffffffffffffffffffffffffffffffffff021916908373ffffffffffffffffffffffffffffffffffffffff16021790555050565b60055f9054906101000a900473ffffffffffffffffffffffffffffffffffffffff1681565b60075f9054906101000a900473ffffffffffffffffffffffffffffffffffffffff1681565b73ca143ce32fe78f1f7019d7d551a6402fc5350c7381565b7355d398326f99059ff775485246999027b319795581565b611f8e612539565b5f73ffffffffffffffffffffffffffffffffffffffff168173ffffffffffffffffffffffffffffffffffffffff1603611ffe575f6040517f1e4fbdf7000000000000000000000000000000000000000000000000000000008152600401611ff59190613567565b60405180910390fd5b612007816125c0565b50565b60015f9054906101000a900473ffffffffffffffffffffffffffffffffffffffff1681565b7310ed43c718714eb63d5aa57b78b54704e256024e81565b5f5f612051612d60565b90508091505090565b5f33905090565b612069612d89565b61207281612dc9565b50565b7f000000000000000000000000000000000000000000000000000000000000000073ffffffffffffffffffffffffffffffffffffffff163073ffffffffffffffffffffffffffffffffffffffff16148061212257507f000000000000000000000000000000000000000000000000000000000000000073ffffffffffffffffffffffffffffffffffffffff16612109612e4d565b73ffffffffffffffffffffffffffffffffffffffff1614155b15612159576040517fe07c8dba00000000000000000000000000000000000000000000000000000000815260040160405180910390fd5b565b612163612539565b50565b8173ffffffffffffffffffffffffffffffffffffffff166352d1902d6040518163ffffffff1660e01b8152600401602060405180830381865afa9250505080156121ce57506040513d601f19601f820116820180604052508101906121cb919061442a565b60015b61220f57816040517f4c9c8ce30000000000000000000000000000000000000000000000000000000081526004016122069190613567565b60405180910390fd5b7f360894a13ba1a3210667c828492db98dca3e2076cc3735a920a3ca505d382bbc5f1b811461227557806040517faa1d49a400000000000000000000000000000000000000000000000000000000815260040161226c919061380a565b60405180910390fd5b61227f8383612ea0565b505050565b7f000000000000000000000000000000000000000000000000000000000000000073ffffffffffffffffffffffffffffffffffffffff163073ffffffffffffffffffffffffffffffffffffffff1614612309576040517fe07c8dba00000000000000000000000000000000000000000000000000000000815260040160405180910390fd5b565b5f5f8573ffffffffffffffffffffffffffffffffffffffff166323b872dd86868660405160240161233e93929190614455565b6040516020818303038152906040529060e01b6020820180517bffffffffffffffffffffffffffffffffffffffffffffffffffffffff838183161783525050505060405161238c91906144ce565b5f604051808303815f865af19150503d805f81146123c5576040519150601f19603f3d011682016040523d82523d5f602084013e6123ca565b606091505b50915091508180156123f757505f815114806123f65750808060200190518101906123f59190614519565b5b5b612436576040517f08c379a000000000000000000000000000000000000000000000000000000000815260040161242d906145b4565b60405180910390fd5b505050505050565b5f8273ffffffffffffffffffffffffffffffffffffffff16825f67ffffffffffffffff81111561247157612470613674565b5b6040519080825280601f01601f1916602001820160405280156124a35781602001600182028036833780820191505090505b506040516124b191906144ce565b5f6040518083038185875af1925050503d805f81146124eb576040519150601f19603f3d011682016040523d82523d5f602084013e6124f0565b606091505b5050905080612534576040517f08c379a000000000000000000000000000000000000000000000000000000000815260040161252b90614642565b60405180910390fd5b505050565b61254161205a565b73ffffffffffffffffffffffffffffffffffffffff1661255f611543565b73ffffffffffffffffffffffffffffffffffffffff16146125be5761258261205a565b6040517f118cdaa70000000000000000000000000000000000000000000000000000000081526004016125b59190613567565b60405180910390fd5b565b5f6125c9612d39565b90505f815f015f9054906101000a900473ffffffffffffffffffffffffffffffffffffffff16905082825f015f6101000a81548173ffffffffffffffffffffffffffffffffffffffff021916908373ffffffffffffffffffffffffffffffffffffffff1602179055508273ffffffffffffffffffffffffffffffffffffffff168173ffffffffffffffffffffffffffffffffffffffff167f8be0079c531659141344cd1fd0a4f28419497f9722a3daafe3b4186f6b6457e060405160405180910390a3505050565b612699612f12565b80518251146126dd576040517f08c379a00000000000000000000000000000000000000000000000000000000081526004016126d4906146aa565b60405180910390fd5b5f5f90505b8251811015612c69575f8382815181106126ff576126fe613f08565b5b602002602001015190505f83838151811061271d5761271c613f08565b5b602002602001015190505f8103612735575050612c5c565b7355d398326f99059ff775485246999027b319795573ffffffffffffffffffffffffffffffffffffffff168273ffffffffffffffffffffffffffffffffffffffff1603612b845761279c7355d398326f99059ff775485246999027b319795533308461230b565b5f60646032836127ac91906146c8565b6127b69190614736565b90505f60646014846127c891906146c8565b6127d29190614736565b90505f8183856127e29190614153565b6127ec9190614153565b90505f831115612837576128367355d398326f99059ff775485246999027b319795560055f9054906101000a900473ffffffffffffffffffffffffffffffffffffffff1685612f56565b5b5f8211156128805761287f7355d398326f99059ff775485246999027b319795560075f9054906101000a900473ffffffffffffffffffffffffffffffffffffffff1684612f56565b5b5f811115612b7a577355d398326f99059ff775485246999027b319795573ffffffffffffffffffffffffffffffffffffffff1663095ea7b37310ed43c718714eb63d5aa57b78b54704e256024e5f6040518363ffffffff1660e01b81526004016128eb929190614766565b6020604051808303815f875af1158015612907573d5f5f3e3d5ffd5b505050506040513d601f19601f8201168201806040525081019061292b9190614519565b507355d398326f99059ff775485246999027b319795573ffffffffffffffffffffffffffffffffffffffff1663095ea7b37310ed43c718714eb63d5aa57b78b54704e256024e836040518363ffffffff1660e01b815260040161298f929190613635565b6020604051808303815f875af11580156129ab573d5f5f3e3d5ffd5b505050506040513d601f19601f820116820180604052508101906129cf9190614519565b505f60085f9054906101000a900473ffffffffffffffffffffffffffffffffffffffff1673ffffffffffffffffffffffffffffffffffffffff166370a08231306040518263ffffffff1660e01b8152600401612a2b9190613567565b602060405180830381865afa158015612a46573d5f5f3e3d5ffd5b505050506040513d601f19601f82011682018060405250810190612a6a9190614334565b9050612a7582613086565b5f60085f9054906101000a900473ffffffffffffffffffffffffffffffffffffffff1673ffffffffffffffffffffffffffffffffffffffff166370a08231306040518263ffffffff1660e01b8152600401612ad09190613567565b602060405180830381865afa158015612aeb573d5f5f3e3d5ffd5b505050506040513d601f19601f82011682018060405250810190612b0f9190614334565b90505f8282612b1e9190614153565b90505f811115612b7657612b7560085f9054906101000a900473ffffffffffffffffffffffffffffffffffffffff1660065f9054906101000a900473ffffffffffffffffffffffffffffffffffffffff1683612f56565b5b5050505b5050505050612c5c565b5f73ffffffffffffffffffffffffffffffffffffffff168273ffffffffffffffffffffffffffffffffffffffff1603612c2c5780341015612bfa576040517f08c379a0000000000000000000000000000000000000000000000000000000008152600401612bf1906147d7565b60405180910390fd5b612c2560035f9054906101000a900473ffffffffffffffffffffffffffffffffffffffff168261243e565b5050612c5c565b612c59823360035f9054906101000a900473ffffffffffffffffffffffffffffffffffffffff168461230b565b50505b80806001019150506126e2565b505f341115612d2d575f5f90505f5f90505b8351811015612d07575f73ffffffffffffffffffffffffffffffffffffffff16848281518110612cae57612cad613f08565b5b602002602001015173ffffffffffffffffffffffffffffffffffffffff1603612cfa57828181518110612ce457612ce3613f08565b5b602002602001015182612cf791906147f5565b91505b8080600101915050612c7b565b505f8134612d159190614153565b90505f811115612d2a57612d29338261243e565b5b50505b612d3561322b565b5050565b5f7f9016d09d72d40fdae2fd8ceac6b6234c7706214fd39c1cd1e609a0528c199300905090565b5f7ff0c57e16840df040f15088dc2f81fe391c3923bec73e23a9662efc9c229c6a005f1b905090565b612d91613234565b612dc7576040517fd7e6bcf800000000000000000000000000000000000000000000000000000000815260040160405180910390fd5b565b612dd1612d89565b5f73ffffffffffffffffffffffffffffffffffffffff168173ffffffffffffffffffffffffffffffffffffffff1603612e41575f6040517f1e4fbdf7000000000000000000000000000000000000000000000000000000008152600401612e389190613567565b60405180910390fd5b612e4a816125c0565b50565b5f612e797f360894a13ba1a3210667c828492db98dca3e2076cc3735a920a3ca505d382bbc5f1b613252565b5f015f9054906101000a900473ffffffffffffffffffffffffffffffffffffffff16905090565b612ea98261325b565b8173ffffffffffffffffffffffffffffffffffffffff167fbc7cd75a20ee27fd9adebab32041f755214dbc6bffa90cc0225b39da2e5c2d3b60405160405180910390a25f81511115612f0557612eff8282613324565b50612f0e565b612f0d613415565b5b5050565b60025f5403612f4d576040517f3ee5aeb500000000000000000000000000000000000000000000000000000000815260040160405180910390fd5b60025f81905550565b5f5f8473ffffffffffffffffffffffffffffffffffffffff1663a9059cbb8585604051602401612f87929190613635565b6040516020818303038152906040529060e01b6020820180517bffffffffffffffffffffffffffffffffffffffffffffffffffffffff8381831617835250505050604051612fd591906144ce565b5f604051808303815f865af19150503d805f811461300e576040519150601f19603f3d011682016040523d82523d5f602084013e613013565b606091505b509150915081801561304057505f8151148061303f57508080602001905181019061303e9190614519565b5b5b61307f576040517f08c379a000000000000000000000000000000000000000000000000000000000815260040161307690614872565b60405180910390fd5b5050505050565b5f600267ffffffffffffffff8111156130a2576130a1613674565b5b6040519080825280602002602001820160405280156130d05781602001602082028036833780820191505090505b5090507355d398326f99059ff775485246999027b3197955815f815181106130fb576130fa613f08565b5b602002602001019073ffffffffffffffffffffffffffffffffffffffff16908173ffffffffffffffffffffffffffffffffffffffff168152505060085f9054906101000a900473ffffffffffffffffffffffffffffffffffffffff168160018151811061316b5761316a613f08565b5b602002602001019073ffffffffffffffffffffffffffffffffffffffff16908173ffffffffffffffffffffffffffffffffffffffff16815250507310ed43c718714eb63d5aa57b78b54704e256024e73ffffffffffffffffffffffffffffffffffffffff16635c11d795835f8430426040518663ffffffff1660e01b81526004016131fa959493929190614890565b5f604051808303815f87803b158015613211575f5ffd5b505af1158015613223573d5f5f3e3d5ffd5b505050505050565b60015f81905550565b5f61323d612047565b5f0160089054906101000a900460ff16905090565b5f819050919050565b5f8173ffffffffffffffffffffffffffffffffffffffff163b036132b657806040517f4c9c8ce30000000000000000000000000000000000000000000000000000000081526004016132ad9190613567565b60405180910390fd5b806132e27f360894a13ba1a3210667c828492db98dca3e2076cc3735a920a3ca505d382bbc5f1b613252565b5f015f6101000a81548173ffffffffffffffffffffffffffffffffffffffff021916908373ffffffffffffffffffffffffffffffffffffffff16021790555050565b60605f6133318484613451565b905080801561336757505f613344613465565b118061336657505f8473ffffffffffffffffffffffffffffffffffffffff163b115b5b1561337c5761337461346c565b91505061340f565b80156133bf57836040517f9996b3150000000000000000000000000000000000000000000000000000000081526004016133b69190613567565b60405180910390fd5b5f6133c8613465565b11156133db576133d6613489565b61340d565b6040517fd6bda27500000000000000000000000000000000000000000000000000000000815260040160405180910390fd5b505b92915050565b5f34111561344f576040517fb398979f00000000000000000000000000000000000000000000000000000000815260040160405180910390fd5b565b5f5f5f835160208501865af4905092915050565b5f3d905090565b606060405190503d81523d5f602083013e3d602001810160405290565b6040513d5f823e3d81fd5b60405180604001604052805f73ffffffffffffffffffffffffffffffffffffffff1681526020015f81525090565b5f604051905090565b5f5ffd5b5f5ffd5b5f73ffffffffffffffffffffffffffffffffffffffff82169050919050565b5f6134fc826134d3565b9050919050565b61350c816134f2565b8114613516575f5ffd5b50565b5f8135905061352781613503565b92915050565b5f60208284031215613542576135416134cb565b5b5f61354f84828501613519565b91505092915050565b613561816134f2565b82525050565b5f60208201905061357a5f830184613558565b92915050565b5f5f5f5f5f5f5f60e0888a03121561359b5761359a6134cb565b5b5f6135a88a828b01613519565b97505060206135b98a828b01613519565b96505060406135ca8a828b01613519565b95505060606135db8a828b01613519565b94505060806135ec8a828b01613519565b93505060a06135fd8a828b01613519565b92505060c061360e8a828b01613519565b91505092959891949750929550565b5f819050919050565b61362f8161361d565b82525050565b5f6040820190506136485f830185613558565b6136556020830184613626565b9392505050565b5f5ffd5b5f5ffd5b5f601f19601f8301169050919050565b7f4e487b71000000000000000000000000000000000000000000000000000000005f52604160045260245ffd5b6136aa82613664565b810181811067ffffffffffffffff821117156136c9576136c8613674565b5b80604052505050565b5f6136db6134c2565b90506136e782826136a1565b919050565b5f67ffffffffffffffff82111561370657613705613674565b5b61370f82613664565b9050602081019050919050565b828183375f83830152505050565b5f61373c613737846136ec565b6136d2565b90508281526020810184848401111561375857613757613660565b5b61376384828561371c565b509392505050565b5f82601f83011261377f5761377e61365c565b5b813561378f84826020860161372a565b91505092915050565b5f5f604083850312156137ae576137ad6134cb565b5b5f6137bb85828601613519565b925050602083013567ffffffffffffffff8111156137dc576137db6134cf565b5b6137e88582860161376b565b9150509250929050565b5f819050919050565b613804816137f2565b82525050565b5f60208201905061381d5f8301846137fb565b92915050565b5f67ffffffffffffffff82111561383d5761383c613674565b5b61384682613664565b9050602081019050919050565b5f61386561386084613823565b6136d2565b90508281526020810184848401111561388157613880613660565b5b61388c84828561371c565b509392505050565b5f82601f8301126138a8576138a761365c565b5b81356138b8848260208601613853565b91505092915050565b6138ca8161361d565b81146138d4575f5ffd5b50565b5f813590506138e5816138c1565b92915050565b5f5f5f5f60808587031215613903576139026134cb565b5b5f85013567ffffffffffffffff8111156139205761391f6134cf565b5b61392c87828801613894565b945050602061393d87828801613519565b935050604061394e878288016138d7565b925050606061395f87828801613519565b91505092959194509250565b5f5ffd5b5f5ffd5b5f5f83601f8401126139885761398761365c565b5b8235905067ffffffffffffffff8111156139a5576139a461396b565b5b6020830191508360018202830111156139c1576139c061396f565b5b9250929050565b5f5f5f5f5f5f60a087890312156139e2576139e16134cb565b5b5f6139ef89828a01613519565b9650506020613a0089828a016138d7565b9550506040613a1189828a01613519565b9450506060613a2289828a016138d7565b935050608087013567ffffffffffffffff811115613a4357613a426134cf565b5b613a4f89828a01613973565b92509250509295509295509295565b5f5f83601f840112613a7357613a7261365c565b5b8235905067ffffffffffffffff811115613a9057613a8f61396b565b5b602083019150836020820283011115613aac57613aab61396f565b5b9250929050565b5f5f5f60408486031215613aca57613ac96134cb565b5b5f613ad786828701613519565b935050602084013567ffffffffffffffff811115613af857613af76134cf565b5b613b0486828701613a5e565b92509250509250925092565b5f81519050919050565b5f82825260208201905092915050565b5f819050602082019050919050565b613b42816134f2565b82525050565b613b518161361d565b82525050565b604082015f820151613b6b5f850182613b39565b506020820151613b7e6020850182613b48565b50505050565b5f613b8f8383613b57565b60408301905092915050565b5f602082019050919050565b5f613bb182613b10565b613bbb8185613b1a565b9350613bc683613b2a565b805f5b83811015613bf6578151613bdd8882613b84565b9750613be883613b9b565b925050600181019050613bc9565b5085935050505092915050565b5f6020820190508181035f830152613c1b8184613ba7565b905092915050565b5f5f5f5f60608587031215613c3b57613c3a6134cb565b5b5f613c4887828801613519565b9450506020613c59878288016138d7565b935050604085013567ffffffffffffffff811115613c7a57613c796134cf565b5b613c8687828801613973565b925092505092959194509250565b5f81519050919050565b5f82825260208201905092915050565b8281835e5f83830152505050565b5f613cc682613c94565b613cd08185613c9e565b9350613ce0818560208601613cae565b613ce981613664565b840191505092915050565b5f6020820190508181035f830152613d0c8184613cbc565b905092915050565b5f5f5f60608486031215613d2b57613d2a6134cb565b5b5f613d3886828701613519565b9350506020613d4986828701613519565b9250506040613d5a86828701613519565b9150509250925092565b7f4552524f525f41444d494e2e00000000000000000000000000000000000000005f82015250565b5f613d98600c83613c9e565b9150613da382613d64565b602082019050919050565b5f6020820190508181035f830152613dc581613d8c565b9050919050565b7f5a45524f5f414444524553532e000000000000000000000000000000000000005f82015250565b5f613e00600d83613c9e565b9150613e0b82613dcc565b602082019050919050565b5f6020820190508181035f830152613e2d81613df4565b9050919050565b5f819050919050565b5f67ffffffffffffffff82169050919050565b5f819050919050565b5f613e73613e6e613e6984613e34565b613e50565b613e3d565b9050919050565b613e8381613e59565b82525050565b5f602082019050613e9c5f830184613e7a565b92915050565b5f604082019050613eb55f830185613558565b613ec26020830184613558565b9392505050565b5f81519050613ed781613503565b92915050565b5f60208284031215613ef257613ef16134cb565b5b5f613eff84828501613ec9565b91505092915050565b7f4e487b71000000000000000000000000000000000000000000000000000000005f52603260045260245ffd5b5f81519050919050565b5f82825260208201905092915050565b5f819050602082019050919050565b5f613f698383613b39565b60208301905092915050565b5f602082019050919050565b5f613f8b82613f35565b613f958185613f3f565b9350613fa083613f4f565b805f5b83811015613fd0578151613fb78882613f5e565b9750613fc283613f75565b925050600181019050613fa3565b5085935050505092915050565b5f604082019050613ff05f830185613626565b81810360208301526140028184613f81565b90509392505050565b5f67ffffffffffffffff82111561402557614024613674565b5b602082029050602081019050919050565b5f81519050614044816138c1565b92915050565b5f61405c6140578461400b565b6136d2565b9050808382526020820190506020840283018581111561407f5761407e61396f565b5b835b818110156140a857806140948882614036565b845260208401935050602081019050614081565b5050509392505050565b5f82601f8301126140c6576140c561365c565b5b81516140d684826020860161404a565b91505092915050565b5f602082840312156140f4576140f36134cb565b5b5f82015167ffffffffffffffff811115614111576141106134cf565b5b61411d848285016140b2565b91505092915050565b7f4e487b71000000000000000000000000000000000000000000000000000000005f52601160045260245ffd5b5f61415d8261361d565b91506141688361361d565b92508282039050818111156141805761417f614126565b5b92915050565b7f4552524f525f414d4f554e542e000000000000000000000000000000000000005f82015250565b5f6141ba600d83613c9e565b91506141c582614186565b602082019050919050565b5f6020820190508181035f8301526141e7816141ae565b9050919050565b5f6080820190508181035f8301526142068187613cbc565b90506142156020830186613558565b6142226040830185613558565b61422f6060830184613626565b95945050505050565b7f4552524f525f414d4f554e5400000000000000000000000000000000000000005f82015250565b5f61426c600c83613c9e565b915061427782614238565b602082019050919050565b5f6020820190508181035f83015261429981614260565b9050919050565b5f6142ab8385613c9e565b93506142b883858461371c565b6142c183613664565b840190509392505050565b5f60c0820190506142df5f83018a613558565b6142ec6020830189613558565b6142f96040830188613626565b6143066060830187613558565b6143136080830186613626565b81810360a08301526143268184866142a0565b905098975050505050505050565b5f60208284031215614349576143486134cb565b5b5f61435684828501614036565b91505092915050565b5f819050919050565b5f61438261437d6143788461435f565b613e50565b61361d565b9050919050565b61439281614368565b82525050565b5f60c0820190506143ab5f83018a613558565b6143b86020830189613558565b6143c56040830188613626565b6143d26060830187613558565b6143df6080830186614389565b81810360a08301526143f28184866142a0565b905098975050505050505050565b614409816137f2565b8114614413575f5ffd5b50565b5f8151905061442481614400565b92915050565b5f6020828403121561443f5761443e6134cb565b5b5f61444c84828501614416565b91505092915050565b5f6060820190506144685f830186613558565b6144756020830185613558565b6144826040830184613626565b949350505050565b5f81519050919050565b5f81905092915050565b5f6144a88261448a565b6144b28185614494565b93506144c2818560208601613cae565b80840191505092915050565b5f6144d9828461449e565b915081905092915050565b5f8115159050919050565b6144f8816144e4565b8114614502575f5ffd5b50565b5f81519050614513816144ef565b92915050565b5f6020828403121561452e5761452d6134cb565b5b5f61453b84828501614505565b91505092915050565b7f5472616e7366657248656c7065723a205452414e534645525f46524f4d5f46415f8201527f494c454400000000000000000000000000000000000000000000000000000000602082015250565b5f61459e602483613c9e565b91506145a982614544565b604082019050919050565b5f6020820190508181035f8301526145cb81614592565b9050919050565b7f5472616e7366657248656c7065723a204554485f5452414e534645525f4641495f8201527f4c45440000000000000000000000000000000000000000000000000000000000602082015250565b5f61462c602383613c9e565b9150614637826145d2565b604082019050919050565b5f6020820190508181035f83015261465981614620565b9050919050565b7f4d49534d415443485f4c454e47544800000000000000000000000000000000005f82015250565b5f614694600f83613c9e565b915061469f82614660565b602082019050919050565b5f6020820190508181035f8301526146c181614688565b9050919050565b5f6146d28261361d565b91506146dd8361361d565b92508282026146eb8161361d565b9150828204841483151761470257614701614126565b5b5092915050565b7f4e487b71000000000000000000000000000000000000000000000000000000005f52601260045260245ffd5b5f6147408261361d565b915061474b8361361d565b92508261475b5761475a614709565b5b828204905092915050565b5f6040820190506147795f830185613558565b6147866020830184614389565b9392505050565b7f4552524f525f50415941424c455f414d4f554e540000000000000000000000005f82015250565b5f6147c1601483613c9e565b91506147cc8261478d565b602082019050919050565b5f6020820190508181035f8301526147ee816147b5565b9050919050565b5f6147ff8261361d565b915061480a8361361d565b925082820190508082111561482257614821614126565b5b92915050565b7f5472616e7366657248656c7065723a205452414e534645525f4641494c4544005f82015250565b5f61485c601f83613c9e565b915061486782614828565b602082019050919050565b5f6020820190508181035f83015261488981614850565b9050919050565b5f60a0820190506148a35f830188613626565b6148b06020830187614389565b81810360408301526148c28186613f81565b90506148d16060830185613558565b6148de6080830184613626565b969550505050505056fea264697066735822122079a2c54fc60b39ee7d83becb775efc72d2393c6df9957e083b34a81e3b41e34264736f6c634300081e0033","linkReferences":{}},"methodIdentifiers":{"UPGRADE_INTERFACE_VERSION()":"ad3cb1cc","USDT()":"c54e44eb","WBNB()":"8dd95002","admin()":"f851a440","changeAdmin(address)":"8f283970","changeOperator(address)":"06394c9b","changeRechargePercent(address,address,address)":"b0d51091","changeRecipient(address)":"92c2bcb4","changeSender(address)":"b280a7e7","factory()":"c45a0155","getPrice(address)":"41976e09","initialize(address,address,address,address,address,address,address)":"35876476","multiBalanceOf(address,address[])":"9f166cf1","multiRecharge(address,uint256,address,uint256,string)":"73abf0af","operator()":"570ca735","owner()":"8da5cb5b","proxiableUUID()":"52d1902d","rechargePercent20()":"bf2647f2","rechargePercent30()":"2cd89ff2","rechargePercent50()":"baad38d5","recipient()":"66d003ac","renounceOwnership()":"715018a6","router()":"f887ea40","sender()":"67e404ce","singleRecharge(address,uint256,string)":"aa7e7eb9","skp()":"45348946","transferOwnership(address)":"f2fde38b","upgradeToAndCall(address,bytes)":"4f1ef286","withdraw(string,address,uint256,address)":"62a33811"},"id":39}