{"abi":[{"type":"receive","stateMutability":"payable"},{"type":"function","name":"BUY_BACK_RATE","inputs":[],"outputs":[{"name":"","type":"uint256","internalType":"uint256"}],"stateMutability":"view"},{"type":"function","name":"UPGRADE_INTERFACE_VERSION","inputs":[],"outputs":[{"name":"","type":"string","internalType":"string"}],"stateMutability":"view"},{"type":"function","name":"USDT","inputs":[],"outputs":[{"name":"","type":"address","internalType":"address"}],"stateMutability":"view"},{"type":"function","name":"WBNB","inputs":[],"outputs":[{"name":"","type":"address","internalType":"address"}],"stateMutability":"view"},{"type":"function","name":"admin","inputs":[],"outputs":[{"name":"","type":"address","internalType":"address"}],"stateMutability":"view"},{"type":"function","name":"buyBackPercent2","inputs":[],"outputs":[{"name":"","type":"address","internalType":"address"}],"stateMutability":"view"},{"type":"function","name":"buyBackPercent362","inputs":[],"outputs":[{"name":"","type":"address","internalType":"address"}],"stateMutability":"view"},{"type":"function","name":"buyBackPercent538","inputs":[],"outputs":[{"name":"","type":"address","internalType":"address"}],"stateMutability":"view"},{"type":"function","name":"carryOutBuyback","inputs":[{"name":"original","type":"address","internalType":"address"},{"name":"target","type":"address","internalType":"address"},{"name":"from","type":"address","internalType":"address"},{"name":"targetAmount","type":"uint256","internalType":"uint256"}],"outputs":[],"stateMutability":"nonpayable"},{"type":"function","name":"changeAdmin","inputs":[{"name":"_newAdmin","type":"address","internalType":"address"}],"outputs":[],"stateMutability":"nonpayable"},{"type":"function","name":"changeOperator","inputs":[{"name":"_newOperator","type":"address","internalType":"address"}],"outputs":[],"stateMutability":"nonpayable"},{"type":"function","name":"changeRechargePercent","inputs":[{"name":"_percent50","type":"address","internalType":"address"},{"name":"_percent30","type":"address","internalType":"address"},{"name":"_percent20","type":"address","internalType":"address"}],"outputs":[],"stateMutability":"nonpayable"},{"type":"function","name":"changeRecipient","inputs":[{"name":"_newRecipient","type":"address","internalType":"address"}],"outputs":[],"stateMutability":"nonpayable"},{"type":"function","name":"changeSender","inputs":[{"name":"_newSender","type":"address","internalType":"address"}],"outputs":[],"stateMutability":"nonpayable"},{"type":"function","name":"dead","inputs":[],"outputs":[{"name":"","type":"address","internalType":"address"}],"stateMutability":"view"},{"type":"function","name":"factory","inputs":[],"outputs":[{"name":"","type":"address","internalType":"address"}],"stateMutability":"view"},{"type":"function","name":"getAmountOut","inputs":[{"name":"original","type":"address","internalType":"address"},{"name":"target","type":"address","internalType":"address"},{"name":"targetAmount","type":"uint256","internalType":"uint256"}],"outputs":[{"name":"originalAmount","type":"uint256","internalType":"uint256"}],"stateMutability":"view"},{"type":"function","name":"getPrice","inputs":[{"name":"token","type":"address","internalType":"address"}],"outputs":[{"name":"","type":"address","internalType":"address"},{"name":"","type":"uint256","internalType":"uint256"}],"stateMutability":"view"},{"type":"function","name":"initialize","inputs":[{"name":"_admin","type":"address","internalType":"address"},{"name":"_recipient","type":"address","internalType":"address"},{"name":"_sender","type":"address","internalType":"address"},{"name":"_percent50","type":"address","internalType":"address"},{"name":"_percent30","type":"address","internalType":"address"},{"name":"_percent20","type":"address","internalType":"address"},{"name":"_skp","type":"address","internalType":"address"},{"name":"_buyBackPercent538","type":"address","internalType":"address"},{"name":"_buyBackPercent362","type":"address","internalType":"address"},{"name":"_buyBackPercent2","type":"address","internalType":"address"}],"outputs":[],"stateMutability":"nonpayable"},{"type":"function","name":"multiBalanceOf","inputs":[{"name":"token","type":"address","internalType":"address"},{"name":"users","type":"address[]","internalType":"address[]"}],"outputs":[{"name":"","type":"tuple[]","internalType":"struct Recharge.Info[]","components":[{"name":"user","type":"address","internalType":"address"},{"name":"amount","type":"uint256","internalType":"uint256"}]}],"stateMutability":"view"},{"type":"function","name":"multiRecharge","inputs":[{"name":"token0","type":"address","internalType":"address"},{"name":"amount0","type":"uint256","internalType":"uint256"},{"name":"token1","type":"address","internalType":"address"},{"name":"amount1","type":"uint256","internalType":"uint256"},{"name":"remark","type":"string","internalType":"string"}],"outputs":[],"stateMutability":"payable"},{"type":"function","name":"operator","inputs":[],"outputs":[{"name":"","type":"address","internalType":"address"}],"stateMutability":"view"},{"type":"function","name":"owner","inputs":[],"outputs":[{"name":"","type":"address","internalType":"address"}],"stateMutability":"view"},{"type":"function","name":"proxiableUUID","inputs":[],"outputs":[{"name":"","type":"bytes32","internalType":"bytes32"}],"stateMutability":"view"},{"type":"function","name":"rechargePercent20","inputs":[],"outputs":[{"name":"","type":"address","internalType":"address"}],"stateMutability":"view"},{"type":"function","name":"rechargePercent30","inputs":[],"outputs":[{"name":"","type":"address","internalType":"address"}],"stateMutability":"view"},{"type":"function","name":"rechargePercent50","inputs":[],"outputs":[{"name":"","type":"address","internalType":"address"}],"stateMutability":"view"},{"type":"function","name":"recipient","inputs":[],"outputs":[{"name":"","type":"address","internalType":"address"}],"stateMutability":"view"},{"type":"function","name":"renounceOwnership","inputs":[],"outputs":[],"stateMutability":"nonpayable"},{"type":"function","name":"router","inputs":[],"outputs":[{"name":"","type":"address","internalType":"address"}],"stateMutability":"view"},{"type":"function","name":"sender","inputs":[],"outputs":[{"name":"","type":"address","internalType":"address"}],"stateMutability":"view"},{"type":"function","name":"singleRecharge","inputs":[{"name":"token","type":"address","internalType":"address"},{"name":"amount","type":"uint256","internalType":"uint256"},{"name":"remark","type":"string","internalType":"string"}],"outputs":[],"stateMutability":"payable"},{"type":"function","name":"skp","inputs":[],"outputs":[{"name":"","type":"address","internalType":"address"}],"stateMutability":"view"},{"type":"function","name":"transferOwnership","inputs":[{"name":"newOwner","type":"address","internalType":"address"}],"outputs":[],"stateMutability":"nonpayable"},{"type":"function","name":"upgradeToAndCall","inputs":[{"name":"newImplementation","type":"address","internalType":"address"},{"name":"data","type":"bytes","internalType":"bytes"}],"outputs":[],"stateMutability":"payable"},{"type":"function","name":"withdraw","inputs":[{"name":"remark","type":"string","internalType":"string"},{"name":"token","type":"address","internalType":"address"},{"name":"amount","type":"uint256","internalType":"uint256"},{"name":"to","type":"address","internalType":"address"}],"outputs":[],"stateMutability":"nonpayable"},{"type":"event","name":"AdminshipTransferred","inputs":[{"name":"previousAdmin","type":"address","indexed":true,"internalType":"address"},{"name":"newAdmin","type":"address","indexed":true,"internalType":"address"}],"anonymous":false},{"type":"event","name":"Initialized","inputs":[{"name":"version","type":"uint64","indexed":false,"internalType":"uint64"}],"anonymous":false},{"type":"event","name":"MultiRecharge","inputs":[{"name":"user","type":"address","indexed":false,"internalType":"address"},{"name":"token0","type":"address","indexed":false,"internalType":"address"},{"name":"amount0","type":"uint256","indexed":false,"internalType":"uint256"},{"name":"token1","type":"address","indexed":false,"internalType":"address"},{"name":"amount1","type":"uint256","indexed":false,"internalType":"uint256"},{"name":"remark","type":"string","indexed":false,"internalType":"string"}],"anonymous":false},{"type":"event","name":"OwnershipTransferred","inputs":[{"name":"previousOwner","type":"address","indexed":true,"internalType":"address"},{"name":"newOwner","type":"address","indexed":true,"internalType":"address"}],"anonymous":false},{"type":"event","name":"Upgraded","inputs":[{"name":"implementation","type":"address","indexed":true,"internalType":"address"}],"anonymous":false},{"type":"event","name":"Withdraw","inputs":[{"name":"remark","type":"string","indexed":false,"internalType":"string"},{"name":"token","type":"address","indexed":false,"internalType":"address"},{"name":"to","type":"address","indexed":false,"internalType":"address"},{"name":"amount","type":"uint256","indexed":false,"internalType":"uint256"}],"anonymous":false},{"type":"error","name":"AddressEmptyCode","inputs":[{"name":"target","type":"address","internalType":"address"}]},{"type":"error","name":"ERC1967InvalidImplementation","inputs":[{"name":"implementation","type":"address","internalType":"address"}]},{"type":"error","name":"ERC1967NonPayable","inputs":[]},{"type":"error","name":"FailedCall","inputs":[]},{"type":"error","name":"InvalidInitialization","inputs":[]},{"type":"error","name":"NotInitializing","inputs":[]},{"type":"error","name":"OwnableInvalidOwner","inputs":[{"name":"owner","type":"address","internalType":"address"}]},{"type":"error","name":"OwnableUnauthorizedAccount","inputs":[{"name":"account","type":"address","internalType":"address"}]},{"type":"error","name":"ReentrancyGuardReentrantCall","inputs":[]},{"type":"error","name":"UUPSUnauthorizedCallContext","inputs":[]},{"type":"error","name":"UUPSUnsupportedProxiableUUID","inputs":[{"name":"slot","type":"bytes32","internalType":"bytes32"}]}],"bytecode":{"object":"0x60a06040523073ffffffffffffffffffffffffffffffffffffffff1660809073ffffffffffffffffffffffffffffffffffffffff168152503480156041575f5ffd5b5060015f81905550608051615e9a61006f5f395f8181612c9801528181612ced0152612ea70152615e9a5ff3fe608060405260043610610212575f3560e01c80638da5cb5b11610117578063baad38d51161009f578063c45a01551161006e578063c45a01551461071c578063c54e44eb14610746578063f2fde38b14610770578063f851a44014610798578063f887ea40146107c257610219565b8063baad38d514610676578063bec3ac33146106a0578063bf2647f2146106ca578063c306b378146106f457610219565b80639f166cf1116100e65780639f166cf1146105a4578063aa7e7eb9146105e0578063ad3cb1cc146105fc578063b0d5109114610626578063b280a7e71461064e57610219565b80638da5cb5b146105005780638dd950021461052a5780638f2839701461055457806392c2bcb41461057c57610219565b8063570ca7351161019a57806366d003ac1161016957806366d003ac1461045257806367e404ce1461047c578063715018a6146104a657806373abf0af146104bc5780637fd6dc7a146104d857610219565b8063570ca735146103ac5780635a461750146103d6578063617fe1731461040057806362a338111461042a57610219565b806343252bf3116101e157806343252bf3146102d657806345348946146103005780634aa066521461032a5780634f1ef2861461036657806352d1902d1461038257610219565b806306394c9b1461021d5780632cd89ff21461024557806336cf7c871461026f57806341976e091461029957610219565b3661021957005b5f5ffd5b348015610228575f5ffd5b50610243600480360381019061023e91906145f8565b6107ec565b005b348015610250575f5ffd5b5061025961092c565b6040516102669190614632565b60405180910390f35b34801561027a575f5ffd5b50610283610951565b6040516102909190614632565b60405180910390f35b3480156102a4575f5ffd5b506102bf60048036038101906102ba91906145f8565b610957565b6040516102cd929190614663565b60405180910390f35b3480156102e1575f5ffd5b506102ea610ee8565b6040516102f79190614632565b60405180910390f35b34801561030b575f5ffd5b50610314610f0d565b6040516103219190614632565b60405180910390f35b348015610335575f5ffd5b50610350600480360381019061034b91906146b4565b610f32565b60405161035d9190614704565b60405180910390f35b610380600480360381019061037b9190614859565b61120d565b005b34801561038d575f5ffd5b5061039661122c565b6040516103a391906148cb565b60405180910390f35b3480156103b7575f5ffd5b506103c061125d565b6040516103cd9190614632565b60405180910390f35b3480156103e1575f5ffd5b506103ea611282565b6040516103f79190614704565b60405180910390f35b34801561040b575f5ffd5b50610414611287565b6040516104219190614632565b60405180910390f35b348015610435575f5ffd5b50610450600480360381019061044b9190614982565b6112ac565b005b34801561045d575f5ffd5b50610466611430565b6040516104739190614632565b60405180910390f35b348015610487575f5ffd5b50610490611455565b60405161049d9190614632565b60405180910390f35b3480156104b1575f5ffd5b506104ba61147a565b005b6104d660048036038101906104d19190614a5f565b61148d565b005b3480156104e3575f5ffd5b506104fe60048036038101906104f99190614af5565b6116a8565b005b34801561050b575f5ffd5b50610514611d5c565b6040516105219190614632565b60405180910390f35b348015610535575f5ffd5b5061053e611d91565b60405161054b9190614632565b60405180910390f35b34801561055f575f5ffd5b5061057a600480360381019061057591906145f8565b611da9565b005b348015610587575f5ffd5b506105a2600480360381019061059d91906145f8565b611edd565b005b3480156105af575f5ffd5b506105ca60048036038101906105c59190614bae565b61201d565b6040516105d79190614cfe565b60405180910390f35b6105fa60048036038101906105f59190614d1e565b6122b9565b005b348015610607575f5ffd5b50610610612458565b60405161061d9190614def565b60405180910390f35b348015610631575f5ffd5b5061064c60048036038101906106479190614e0f565b612491565b005b348015610659575f5ffd5b50610674600480360381019061066f91906145f8565b6125e5565b005b348015610681575f5ffd5b5061068a612725565b6040516106979190614632565b60405180910390f35b3480156106ab575f5ffd5b506106b461274a565b6040516106c19190614632565b60405180910390f35b3480156106d5575f5ffd5b506106de61276f565b6040516106eb9190614632565b60405180910390f35b3480156106ff575f5ffd5b5061071a60048036038101906107159190614e5f565b612794565b005b348015610727575f5ffd5b50610730612ba5565b60405161073d9190614632565b60405180910390f35b348015610751575f5ffd5b5061075a612bbd565b6040516107679190614632565b60405180910390f35b34801561077b575f5ffd5b50610796600480360381019061079191906145f8565b612bd5565b005b3480156107a3575f5ffd5b506107ac612c59565b6040516107b99190614632565b60405180910390f35b3480156107cd575f5ffd5b506107d6612c7e565b6040516107e39190614632565b60405180910390f35b60015f9054906101000a900473ffffffffffffffffffffffffffffffffffffffff1673ffffffffffffffffffffffffffffffffffffffff163373ffffffffffffffffffffffffffffffffffffffff161461087b576040517f08c379a000000000000000000000000000000000000000000000000000000000815260040161087290614f82565b60405180910390fd5b5f73ffffffffffffffffffffffffffffffffffffffff168173ffffffffffffffffffffffffffffffffffffffff16036108e9576040517f08c379a00000000000000000000000000000000000000000000000000000000081526004016108e090614fea565b60405180910390fd5b8060025f6101000a81548173ffffffffffffffffffffffffffffffffffffffff021916908373ffffffffffffffffffffffffffffffffffffffff16021790555050565b60065f9054906101000a900473ffffffffffffffffffffffffffffffffffffffff1681565b61dead81565b5f5f5f73ca143ce32fe78f1f7019d7d551a6402fc5350c7373ffffffffffffffffffffffffffffffffffffffff1663e6a439058573bb4cdb9cbd36b01bd1cbaebf2de08d9173bc095c6040518363ffffffff1660e01b81526004016109bd929190615008565b602060405180830381865afa1580156109d8573d5f5f3e3d5ffd5b505050506040513d601f19601f820116820180604052508101906109fc9190615043565b90505f73ca143ce32fe78f1f7019d7d551a6402fc5350c7373ffffffffffffffffffffffffffffffffffffffff1663e6a43905867355d398326f99059ff775485246999027b31979556040518363ffffffff1660e01b8152600401610a62929190615008565b602060405180830381865afa158015610a7d573d5f5f3e3d5ffd5b505050506040513d601f19601f82011682018060405250810190610aa19190615043565b90505f670de0b6b3a764000090505f5f73ffffffffffffffffffffffffffffffffffffffff168373ffffffffffffffffffffffffffffffffffffffff1614610cc4575f600267ffffffffffffffff811115610aff57610afe614735565b5b604051908082528060200260200182016040528015610b2d5781602001602082028036833780820191505090505b50905087815f81518110610b4457610b4361506e565b5b602002602001019073ffffffffffffffffffffffffffffffffffffffff16908173ffffffffffffffffffffffffffffffffffffffff16815250507355d398326f99059ff775485246999027b319795581600181518110610ba757610ba661506e565b5b602002602001019073ffffffffffffffffffffffffffffffffffffffff16908173ffffffffffffffffffffffffffffffffffffffff16815250505f7310ed43c718714eb63d5aa57b78b54704e256024e73ffffffffffffffffffffffffffffffffffffffff1663d06ca61f85846040518363ffffffff1660e01b8152600401610c31929190615143565b5f60405180830381865afa158015610c4b573d5f5f3e3d5ffd5b505050506040513d5f823e3d601f19601f82011682018060405250810190610c739190615245565b90508060018251610c8491906152b9565b81518110610c9557610c9461506e565b5b602002602001015192507355d398326f99059ff775485246999027b31979558397509750505050505050610ee3565b5f73ffffffffffffffffffffffffffffffffffffffff168473ffffffffffffffffffffffffffffffffffffffff1614610ed8575f600267ffffffffffffffff811115610d1357610d12614735565b5b604051908082528060200260200182016040528015610d415781602001602082028036833780820191505090505b50905087815f81518110610d5857610d5761506e565b5b602002602001019073ffffffffffffffffffffffffffffffffffffffff16908173ffffffffffffffffffffffffffffffffffffffff168152505073bb4cdb9cbd36b01bd1cbaebf2de08d9173bc095c81600181518110610dbb57610dba61506e565b5b602002602001019073ffffffffffffffffffffffffffffffffffffffff16908173ffffffffffffffffffffffffffffffffffffffff16815250505f7310ed43c718714eb63d5aa57b78b54704e256024e73ffffffffffffffffffffffffffffffffffffffff1663d06ca61f85846040518363ffffffff1660e01b8152600401610e45929190615143565b5f60405180830381865afa158015610e5f573d5f5f3e3d5ffd5b505050506040513d5f823e3d601f19601f82011682018060405250810190610e879190615245565b90508060018251610e9891906152b9565b81518110610ea957610ea861506e565b5b6020026020010151925073bb4cdb9cbd36b01bd1cbaebf2de08d9173bc095c8397509750505050505050610ee3565b5f5f95509550505050505b915091565b600a5f9054906101000a900473ffffffffffffffffffffffffffffffffffffffff1681565b600b5f9054906101000a900473ffffffffffffffffffffffffffffffffffffffff1681565b5f5f73ffffffffffffffffffffffffffffffffffffffff168473ffffffffffffffffffffffffffffffffffffffff1603610fa1576040517f08c379a0000000000000000000000000000000000000000000000000000000008152600401610f9890615336565b60405180910390fd5b5f73ffffffffffffffffffffffffffffffffffffffff168373ffffffffffffffffffffffffffffffffffffffff160361100f576040517f08c379a00000000000000000000000000000000000000000000000000000000081526004016110069061539e565b60405180910390fd5b5f8211611051576040517f08c379a000000000000000000000000000000000000000000000000000000000815260040161104890615406565b60405180910390fd5b5f600267ffffffffffffffff81111561106d5761106c614735565b5b60405190808252806020026020018201604052801561109b5781602001602082028036833780820191505090505b50905084815f815181106110b2576110b161506e565b5b602002602001019073ffffffffffffffffffffffffffffffffffffffff16908173ffffffffffffffffffffffffffffffffffffffff168152505083816001815181106111015761110061506e565b5b602002602001019073ffffffffffffffffffffffffffffffffffffffff16908173ffffffffffffffffffffffffffffffffffffffff16815250505f7310ed43c718714eb63d5aa57b78b54704e256024e73ffffffffffffffffffffffffffffffffffffffff16631f00ca74606460698761117b9190615424565b6111859190615492565b846040518363ffffffff1660e01b81526004016111a3929190615143565b5f60405180830381865afa1580156111bd573d5f5f3e3d5ffd5b505050506040513d5f823e3d601f19601f820116820180604052508101906111e59190615245565b9050805f815181106111fa576111f961506e565b5b6020026020010151925050509392505050565b611215612c96565b61121e82612d7c565b6112288282612d87565b5050565b5f611235612ea5565b7f360894a13ba1a3210667c828492db98dca3e2076cc3735a920a3ca505d382bbc5f1b905090565b60025f9054906101000a900473ffffffffffffffffffffffffffffffffffffffff1681565b606981565b60095f9054906101000a900473ffffffffffffffffffffffffffffffffffffffff1681565b60015f9054906101000a900473ffffffffffffffffffffffffffffffffffffffff1673ffffffffffffffffffffffffffffffffffffffff163373ffffffffffffffffffffffffffffffffffffffff161461133b576040517f08c379a000000000000000000000000000000000000000000000000000000000815260040161133290614f82565b60405180910390fd5b5f821161137d576040517f08c379a00000000000000000000000000000000000000000000000000000000081526004016113749061550c565b60405180910390fd5b5f73ffffffffffffffffffffffffffffffffffffffff168373ffffffffffffffffffffffffffffffffffffffff16146113e2576113dd8360045f9054906101000a900473ffffffffffffffffffffffffffffffffffffffff168385612f2c565b6113ed565b6113ec818361305f565b5b7f99310eed5bb161586b62449f89ccaa4580f85f953cd64218092edfc2b1f5fce784848385604051611422949392919061552a565b60405180910390a150505050565b60035f9054906101000a900473ffffffffffffffffffffffffffffffffffffffff1681565b60045f9054906101000a900473ffffffffffffffffffffffffffffffffffffffff1681565b61148261315a565b61148b5f6131e1565b565b5f85118061149a57505f83115b6114d9576040517f08c379a00000000000000000000000000000000000000000000000000000000081526004016114d0906155be565b60405180910390fd5b5f600267ffffffffffffffff8111156114f5576114f4614735565b5b6040519080825280602002602001820160405280156115235781602001602082028036833780820191505090505b5090505f600267ffffffffffffffff81111561154257611541614735565b5b6040519080825280602002602001820160405280156115705781602001602082028036833780820191505090505b50905087825f815181106115875761158661506e565b5b602002602001019073ffffffffffffffffffffffffffffffffffffffff16908173ffffffffffffffffffffffffffffffffffffffff168152505086815f815181106115d5576115d461506e565b5b60200260200101818152505085826001815181106115f6576115f561506e565b5b602002602001019073ffffffffffffffffffffffffffffffffffffffff16908173ffffffffffffffffffffffffffffffffffffffff168152505084816001815181106116455761164461506e565b5b60200260200101818152505061165b82826132b2565b7f92bfe9b63523d7c8baff8387323dd4c1c8ccd48705d9c91e19160ebcabb053b8338989898989896040516116969796959493929190615608565b60405180910390a15050505050505050565b6116b061395a565b60015f9054906101000a900473ffffffffffffffffffffffffffffffffffffffff1673ffffffffffffffffffffffffffffffffffffffff163373ffffffffffffffffffffffffffffffffffffffff161461173f576040517f08c379a000000000000000000000000000000000000000000000000000000000815260040161173690614f82565b60405180910390fd5b5f73ffffffffffffffffffffffffffffffffffffffff168473ffffffffffffffffffffffffffffffffffffffff16141580156117a757505f73ffffffffffffffffffffffffffffffffffffffff168373ffffffffffffffffffffffffffffffffffffffff1614155b80156117df57505f73ffffffffffffffffffffffffffffffffffffffff168273ffffffffffffffffffffffffffffffffffffffff1614155b61181e576040517f08c379a0000000000000000000000000000000000000000000000000000000008152600401611815906156ba565b60405180910390fd5b5f8111611860576040517f08c379a00000000000000000000000000000000000000000000000000000000081526004016118579061550c565b60405180910390fd5b5f73ca143ce32fe78f1f7019d7d551a6402fc5350c7373ffffffffffffffffffffffffffffffffffffffff1663e6a4390586866040518363ffffffff1660e01b81526004016118b0929190615008565b602060405180830381865afa1580156118cb573d5f5f3e3d5ffd5b505050506040513d601f19601f820116820180604052508101906118ef9190615043565b90505f73ffffffffffffffffffffffffffffffffffffffff168173ffffffffffffffffffffffffffffffffffffffff160361195f576040517f08c379a000000000000000000000000000000000000000000000000000000000815260040161195690615722565b60405180910390fd5b5f61196b868685610f32565b90505f81116119af576040517f08c379a00000000000000000000000000000000000000000000000000000000081526004016119a69061578a565b60405180910390fd5b6119bb86853084612f2c565b5f8673ffffffffffffffffffffffffffffffffffffffff166370a08231306040518263ffffffff1660e01b81526004016119f59190614632565b602060405180830381865afa158015611a10573d5f5f3e3d5ffd5b505050506040513d601f19601f82011682018060405250810190611a3491906157a8565b905081811015611a79576040517f08c379a0000000000000000000000000000000000000000000000000000000008152600401611a709061581d565b60405180910390fd5b611a98877310ed43c718714eb63d5aa57b78b54704e256024e5f61399e565b611ab7877310ed43c718714eb63d5aa57b78b54704e256024e8461399e565b5f8673ffffffffffffffffffffffffffffffffffffffff166370a08231306040518263ffffffff1660e01b8152600401611af19190614632565b602060405180830381865afa158015611b0c573d5f5f3e3d5ffd5b505050506040513d601f19601f82011682018060405250810190611b3091906157a8565b90505f600267ffffffffffffffff811115611b4e57611b4d614735565b5b604051908082528060200260200182016040528015611b7c5781602001602082028036833780820191505090505b50905088815f81518110611b9357611b9261506e565b5b602002602001019073ffffffffffffffffffffffffffffffffffffffff16908173ffffffffffffffffffffffffffffffffffffffff16815250508781600181518110611be257611be161506e565b5b602002602001019073ffffffffffffffffffffffffffffffffffffffff16908173ffffffffffffffffffffffffffffffffffffffff16815250507310ed43c718714eb63d5aa57b78b54704e256024e73ffffffffffffffffffffffffffffffffffffffff16635c11d795855f8430600a42611c5d919061583b565b6040518663ffffffff1660e01b8152600401611c7d9594939291906158b0565b5f604051808303815f87803b158015611c94575f5ffd5b505af1158015611ca6573d5f5f3e3d5ffd5b505050505f8873ffffffffffffffffffffffffffffffffffffffff166370a08231306040518263ffffffff1660e01b8152600401611ce49190614632565b602060405180830381865afa158015611cff573d5f5f3e3d5ffd5b505050506040513d601f19601f82011682018060405250810190611d2391906157a8565b90505f8382611d3291906152b9565b90505f811115611d4757611d468a82613ace565b5b50505050505050611d56613e1a565b50505050565b5f5f611d66613e23565b9050805f015f9054906101000a900473ffffffffffffffffffffffffffffffffffffffff1691505090565b73bb4cdb9cbd36b01bd1cbaebf2de08d9173bc095c81565b611db161315a565b5f73ffffffffffffffffffffffffffffffffffffffff168173ffffffffffffffffffffffffffffffffffffffff1603611e1f576040517f08c379a0000000000000000000000000000000000000000000000000000000008152600401611e1690614fea565b60405180910390fd5b8073ffffffffffffffffffffffffffffffffffffffff1660015f9054906101000a900473ffffffffffffffffffffffffffffffffffffffff1673ffffffffffffffffffffffffffffffffffffffff167f2931ebb3d190545dcf6801c37aa686b74f2e1000e753d0fac6e471a2aa5a621360405160405180910390a38060015f6101000a81548173ffffffffffffffffffffffffffffffffffffffff021916908373ffffffffffffffffffffffffffffffffffffffff16021790555050565b60015f9054906101000a900473ffffffffffffffffffffffffffffffffffffffff1673ffffffffffffffffffffffffffffffffffffffff163373ffffffffffffffffffffffffffffffffffffffff1614611f6c576040517f08c379a0000000000000000000000000000000000000000000000000000000008152600401611f6390614f82565b60405180910390fd5b5f73ffffffffffffffffffffffffffffffffffffffff168173ffffffffffffffffffffffffffffffffffffffff1603611fda576040517f08c379a0000000000000000000000000000000000000000000000000000000008152600401611fd190614fea565b60405180910390fd5b8060035f6101000a81548173ffffffffffffffffffffffffffffffffffffffff021916908373ffffffffffffffffffffffffffffffffffffffff16021790555050565b60605f8383905090505f8167ffffffffffffffff81111561204157612040614735565b5b60405190808252806020026020018201604052801561207a57816020015b61206761455f565b81526020019060019003908161205f5790505b5090505f73ffffffffffffffffffffffffffffffffffffffff168673ffffffffffffffffffffffffffffffffffffffff160361217e575f5f90505b828110156121785760405180604001604052808787848181106120db576120da61506e565b5b90506020020160208101906120f091906145f8565b73ffffffffffffffffffffffffffffffffffffffff16815260200187878481811061211e5761211d61506e565b5b905060200201602081019061213391906145f8565b73ffffffffffffffffffffffffffffffffffffffff16318152508282815181106121605761215f61506e565b5b602002602001018190525080806001019150506120b5565b506122ad565b5f8690505f5f90505b838110156122aa5760405180604001604052808888848181106121ad576121ac61506e565b5b90506020020160208101906121c291906145f8565b73ffffffffffffffffffffffffffffffffffffffff1681526020018373ffffffffffffffffffffffffffffffffffffffff166370a082318a8a8681811061220c5761220b61506e565b5b905060200201602081019061222191906145f8565b6040518263ffffffff1660e01b815260040161223d9190614632565b602060405180830381865afa158015612258573d5f5f3e3d5ffd5b505050506040513d601f19601f8201168201806040525081019061227c91906157a8565b8152508382815181106122925761229161506e565b5b60200260200101819052508080600101915050612187565b50505b80925050509392505050565b5f83116122fb576040517f08c379a00000000000000000000000000000000000000000000000000000000081526004016122f2906155be565b60405180910390fd5b5f600167ffffffffffffffff81111561231757612316614735565b5b6040519080825280602002602001820160405280156123455781602001602082028036833780820191505090505b5090505f600167ffffffffffffffff81111561236457612363614735565b5b6040519080825280602002602001820160405280156123925781602001602082028036833780820191505090505b50905085825f815181106123a9576123a861506e565b5b602002602001019073ffffffffffffffffffffffffffffffffffffffff16908173ffffffffffffffffffffffffffffffffffffffff168152505084815f815181106123f7576123f661506e565b5b60200260200101818152505061240d82826132b2565b7f92bfe9b63523d7c8baff8387323dd4c1c8ccd48705d9c91e19160ebcabb053b83387875f5f89896040516124489796959493929190615908565b60405180910390a1505050505050565b6040518060400160405280600581526020017f352e302e3000000000000000000000000000000000000000000000000000000081525081565b60015f9054906101000a900473ffffffffffffffffffffffffffffffffffffffff1673ffffffffffffffffffffffffffffffffffffffff163373ffffffffffffffffffffffffffffffffffffffff1614612520576040517f08c379a000000000000000000000000000000000000000000000000000000000815260040161251790614f82565b60405180910390fd5b8260055f6101000a81548173ffffffffffffffffffffffffffffffffffffffff021916908373ffffffffffffffffffffffffffffffffffffffff1602179055508160065f6101000a81548173ffffffffffffffffffffffffffffffffffffffff021916908373ffffffffffffffffffffffffffffffffffffffff1602179055508060075f6101000a81548173ffffffffffffffffffffffffffffffffffffffff021916908373ffffffffffffffffffffffffffffffffffffffff160217905550505050565b60015f9054906101000a900473ffffffffffffffffffffffffffffffffffffffff1673ffffffffffffffffffffffffffffffffffffffff163373ffffffffffffffffffffffffffffffffffffffff1614612674576040517f08c379a000000000000000000000000000000000000000000000000000000000815260040161266b90614f82565b60405180910390fd5b5f73ffffffffffffffffffffffffffffffffffffffff168173ffffffffffffffffffffffffffffffffffffffff16036126e2576040517f08c379a00000000000000000000000000000000000000000000000000000000081526004016126d990614fea565b60405180910390fd5b8060045f6101000a81548173ffffffffffffffffffffffffffffffffffffffff021916908373ffffffffffffffffffffffffffffffffffffffff16021790555050565b60055f9054906101000a900473ffffffffffffffffffffffffffffffffffffffff1681565b60085f9054906101000a900473ffffffffffffffffffffffffffffffffffffffff1681565b60075f9054906101000a900473ffffffffffffffffffffffffffffffffffffffff1681565b5f61279d613e4a565b90505f815f0160089054906101000a900460ff161590505f825f015f9054906101000a900467ffffffffffffffff1690505f5f8267ffffffffffffffff161480156127e55750825b90505f60018367ffffffffffffffff1614801561281857505f3073ffffffffffffffffffffffffffffffffffffffff163b145b905081158015612826575080155b1561285d576040517ff92ee8a900000000000000000000000000000000000000000000000000000000815260040160405180910390fd5b6001855f015f6101000a81548167ffffffffffffffff021916908367ffffffffffffffff16021790555083156128aa576001855f0160086101000a81548160ff0219169083151502179055505b6128ba6128b5613e5d565b613e64565b8e60015f6101000a81548173ffffffffffffffffffffffffffffffffffffffff021916908373ffffffffffffffffffffffffffffffffffffffff1602179055508d60035f6101000a81548173ffffffffffffffffffffffffffffffffffffffff021916908373ffffffffffffffffffffffffffffffffffffffff1602179055508c60045f6101000a81548173ffffffffffffffffffffffffffffffffffffffff021916908373ffffffffffffffffffffffffffffffffffffffff1602179055508b60055f6101000a81548173ffffffffffffffffffffffffffffffffffffffff021916908373ffffffffffffffffffffffffffffffffffffffff1602179055508a60065f6101000a81548173ffffffffffffffffffffffffffffffffffffffff021916908373ffffffffffffffffffffffffffffffffffffffff1602179055508960075f6101000a81548173ffffffffffffffffffffffffffffffffffffffff021916908373ffffffffffffffffffffffffffffffffffffffff16021790555088600b5f6101000a81548173ffffffffffffffffffffffffffffffffffffffff021916908373ffffffffffffffffffffffffffffffffffffffff1602179055508760085f6101000a81548173ffffffffffffffffffffffffffffffffffffffff021916908373ffffffffffffffffffffffffffffffffffffffff1602179055508660095f6101000a81548173ffffffffffffffffffffffffffffffffffffffff021916908373ffffffffffffffffffffffffffffffffffffffff16021790555085600a5f6101000a81548173ffffffffffffffffffffffffffffffffffffffff021916908373ffffffffffffffffffffffffffffffffffffffff1602179055508315612b94575f855f0160086101000a81548160ff0219169083151502179055507fc7f505b2f371ae2175ee4913f4499e1f2633a7b5936321eed1cdaeb6115181d26001604051612b8b91906159bc565b60405180910390a15b505050505050505050505050505050565b73ca143ce32fe78f1f7019d7d551a6402fc5350c7381565b7355d398326f99059ff775485246999027b319795581565b612bdd61315a565b5f73ffffffffffffffffffffffffffffffffffffffff168173ffffffffffffffffffffffffffffffffffffffff1603612c4d575f6040517f1e4fbdf7000000000000000000000000000000000000000000000000000000008152600401612c449190614632565b60405180910390fd5b612c56816131e1565b50565b60015f9054906101000a900473ffffffffffffffffffffffffffffffffffffffff1681565b7310ed43c718714eb63d5aa57b78b54704e256024e81565b7f000000000000000000000000000000000000000000000000000000000000000073ffffffffffffffffffffffffffffffffffffffff163073ffffffffffffffffffffffffffffffffffffffff161480612d4357507f000000000000000000000000000000000000000000000000000000000000000073ffffffffffffffffffffffffffffffffffffffff16612d2a613e78565b73ffffffffffffffffffffffffffffffffffffffff1614155b15612d7a576040517fe07c8dba00000000000000000000000000000000000000000000000000000000815260040160405180910390fd5b565b612d8461315a565b50565b8173ffffffffffffffffffffffffffffffffffffffff166352d1902d6040518163ffffffff1660e01b8152600401602060405180830381865afa925050508015612def57506040513d601f19601f82011682018060405250810190612dec91906159ff565b60015b612e3057816040517f4c9c8ce3000000000000000000000000000000000000000000000000000000008152600401612e279190614632565b60405180910390fd5b7f360894a13ba1a3210667c828492db98dca3e2076cc3735a920a3ca505d382bbc5f1b8114612e9657806040517faa1d49a4000000000000000000000000000000000000000000000000000000008152600401612e8d91906148cb565b60405180910390fd5b612ea08383613ecb565b505050565b7f000000000000000000000000000000000000000000000000000000000000000073ffffffffffffffffffffffffffffffffffffffff163073ffffffffffffffffffffffffffffffffffffffff1614612f2a576040517fe07c8dba00000000000000000000000000000000000000000000000000000000815260040160405180910390fd5b565b5f5f8573ffffffffffffffffffffffffffffffffffffffff166323b872dd868686604051602401612f5f93929190615a2a565b6040516020818303038152906040529060e01b6020820180517bffffffffffffffffffffffffffffffffffffffffffffffffffffffff8381831617835250505050604051612fad9190615aa3565b5f604051808303815f865af19150503d805f8114612fe6576040519150601f19603f3d011682016040523d82523d5f602084013e612feb565b606091505b509150915081801561301857505f815114806130175750808060200190518101906130169190615aee565b5b5b613057576040517f08c379a000000000000000000000000000000000000000000000000000000000815260040161304e90615b89565b60405180910390fd5b505050505050565b5f8273ffffffffffffffffffffffffffffffffffffffff16825f67ffffffffffffffff81111561309257613091614735565b5b6040519080825280601f01601f1916602001820160405280156130c45781602001600182028036833780820191505090505b506040516130d29190615aa3565b5f6040518083038185875af1925050503d805f811461310c576040519150601f19603f3d011682016040523d82523d5f602084013e613111565b606091505b5050905080613155576040517f08c379a000000000000000000000000000000000000000000000000000000000815260040161314c90615c17565b60405180910390fd5b505050565b613162613e5d565b73ffffffffffffffffffffffffffffffffffffffff16613180611d5c565b73ffffffffffffffffffffffffffffffffffffffff16146131df576131a3613e5d565b6040517f118cdaa70000000000000000000000000000000000000000000000000000000081526004016131d69190614632565b60405180910390fd5b565b5f6131ea613e23565b90505f815f015f9054906101000a900473ffffffffffffffffffffffffffffffffffffffff16905082825f015f6101000a81548173ffffffffffffffffffffffffffffffffffffffff021916908373ffffffffffffffffffffffffffffffffffffffff1602179055508273ffffffffffffffffffffffffffffffffffffffff168173ffffffffffffffffffffffffffffffffffffffff167f8be0079c531659141344cd1fd0a4f28419497f9722a3daafe3b4186f6b6457e060405160405180910390a3505050565b6132ba61395a565b80518251146132fe576040517f08c379a00000000000000000000000000000000000000000000000000000000081526004016132f590615c7f565b60405180910390fd5b5f5f90505b825181101561388a575f8382815181106133205761331f61506e565b5b602002602001015190505f83838151811061333e5761333d61506e565b5b602002602001015190505f810361335657505061387d565b7355d398326f99059ff775485246999027b319795573ffffffffffffffffffffffffffffffffffffffff168273ffffffffffffffffffffffffffffffffffffffff16036137a5576133bd7355d398326f99059ff775485246999027b3197955333084612f2c565b5f60646032836133cd9190615424565b6133d79190615492565b90505f60646014846133e99190615424565b6133f39190615492565b90505f81838561340391906152b9565b61340d91906152b9565b90505f831115613458576134577355d398326f99059ff775485246999027b319795560055f9054906101000a900473ffffffffffffffffffffffffffffffffffffffff1685613f3d565b5b5f8211156134a1576134a07355d398326f99059ff775485246999027b319795560075f9054906101000a900473ffffffffffffffffffffffffffffffffffffffff1684613f3d565b5b5f81111561379b577355d398326f99059ff775485246999027b319795573ffffffffffffffffffffffffffffffffffffffff1663095ea7b37310ed43c718714eb63d5aa57b78b54704e256024e5f6040518363ffffffff1660e01b815260040161350c929190615c9d565b6020604051808303815f875af1158015613528573d5f5f3e3d5ffd5b505050506040513d601f19601f8201168201806040525081019061354c9190615aee565b507355d398326f99059ff775485246999027b319795573ffffffffffffffffffffffffffffffffffffffff1663095ea7b37310ed43c718714eb63d5aa57b78b54704e256024e836040518363ffffffff1660e01b81526004016135b0929190614663565b6020604051808303815f875af11580156135cc573d5f5f3e3d5ffd5b505050506040513d601f19601f820116820180604052508101906135f09190615aee565b505f600b5f9054906101000a900473ffffffffffffffffffffffffffffffffffffffff1673ffffffffffffffffffffffffffffffffffffffff166370a08231306040518263ffffffff1660e01b815260040161364c9190614632565b602060405180830381865afa158015613667573d5f5f3e3d5ffd5b505050506040513d601f19601f8201168201806040525081019061368b91906157a8565b90506136968261406d565b5f600b5f9054906101000a900473ffffffffffffffffffffffffffffffffffffffff1673ffffffffffffffffffffffffffffffffffffffff166370a08231306040518263ffffffff1660e01b81526004016136f19190614632565b602060405180830381865afa15801561370c573d5f5f3e3d5ffd5b505050506040513d601f19601f8201168201806040525081019061373091906157a8565b90505f828261373f91906152b9565b90505f81111561379757613796600b5f9054906101000a900473ffffffffffffffffffffffffffffffffffffffff1660065f9054906101000a900473ffffffffffffffffffffffffffffffffffffffff1683613f3d565b5b5050505b505050505061387d565b5f73ffffffffffffffffffffffffffffffffffffffff168273ffffffffffffffffffffffffffffffffffffffff160361384d578034101561381b576040517f08c379a000000000000000000000000000000000000000000000000000000000815260040161381290615d0e565b60405180910390fd5b61384660035f9054906101000a900473ffffffffffffffffffffffffffffffffffffffff168261305f565b505061387d565b61387a823360035f9054906101000a900473ffffffffffffffffffffffffffffffffffffffff1684612f2c565b50505b8080600101915050613303565b505f34111561394e575f5f90505f5f90505b8351811015613928575f73ffffffffffffffffffffffffffffffffffffffff168482815181106138cf576138ce61506e565b5b602002602001015173ffffffffffffffffffffffffffffffffffffffff160361391b578281815181106139055761390461506e565b5b602002602001015182613918919061583b565b91505b808060010191505061389c565b505f813461393691906152b9565b90505f81111561394b5761394a338261305f565b5b50505b613956613e1a565b5050565b60025f5403613995576040517f3ee5aeb500000000000000000000000000000000000000000000000000000000815260040160405180910390fd5b60025f81905550565b5f5f8473ffffffffffffffffffffffffffffffffffffffff1663095ea7b385856040516024016139cf929190614663565b6040516020818303038152906040529060e01b6020820180517bffffffffffffffffffffffffffffffffffffffffffffffffffffffff8381831617835250505050604051613a1d9190615aa3565b5f604051808303815f865af19150503d805f8114613a56576040519150601f19603f3d011682016040523d82523d5f602084013e613a5b565b606091505b5091509150818015613a8857505f81511480613a87575080806020019051810190613a869190615aee565b5b5b613ac7576040517f08c379a0000000000000000000000000000000000000000000000000000000008152600401613abe90615d76565b60405180910390fd5b5050505050565b8173ffffffffffffffffffffffffffffffffffffffff1660095f9054906101000a900473ffffffffffffffffffffffffffffffffffffffff1673ffffffffffffffffffffffffffffffffffffffff16630dfe16816040518163ffffffff1660e01b8152600401602060405180830381865afa158015613b4f573d5f5f3e3d5ffd5b505050506040513d601f19601f82011682018060405250810190613b739190615043565b73ffffffffffffffffffffffffffffffffffffffff161480613c4d57508173ffffffffffffffffffffffffffffffffffffffff1660095f9054906101000a900473ffffffffffffffffffffffffffffffffffffffff1673ffffffffffffffffffffffffffffffffffffffff1663d21220a76040518163ffffffff1660e01b8152600401602060405180830381865afa158015613c11573d5f5f3e3d5ffd5b505050506040513d601f19601f82011682018060405250810190613c359190615043565b73ffffffffffffffffffffffffffffffffffffffff16145b613c8c576040517f08c379a0000000000000000000000000000000000000000000000000000000008152600401613c8390615dde565b60405180910390fd5b5f6103e861021a83613c9e9190615424565b613ca89190615492565b90505f6103e861016a84613cbc9190615424565b613cc69190615492565b90505f6064600885613cd89190615424565b613ce29190615492565b90505f81838587613cf391906152b9565b613cfd91906152b9565b613d0791906152b9565b9050613d358660085f9054906101000a900473ffffffffffffffffffffffffffffffffffffffff1686613f3d565b613d618660095f9054906101000a900473ffffffffffffffffffffffffffffffffffffffff1685613f3d565b60095f9054906101000a900473ffffffffffffffffffffffffffffffffffffffff1673ffffffffffffffffffffffffffffffffffffffff1663fff6cae96040518163ffffffff1660e01b81526004015f604051808303815f87803b158015613dc7575f5ffd5b505af1925050508015613dd8575060015b50613e0586600a5f9054906101000a900473ffffffffffffffffffffffffffffffffffffffff1683613f3d565b613e128661dead84613f3d565b505050505050565b60015f81905550565b5f7f9016d09d72d40fdae2fd8ceac6b6234c7706214fd39c1cd1e609a0528c199300905090565b5f5f613e54614212565b90508091505090565b5f33905090565b613e6c61423b565b613e758161427b565b50565b5f613ea47f360894a13ba1a3210667c828492db98dca3e2076cc3735a920a3ca505d382bbc5f1b6142ff565b5f015f9054906101000a900473ffffffffffffffffffffffffffffffffffffffff16905090565b613ed482614308565b8173ffffffffffffffffffffffffffffffffffffffff167fbc7cd75a20ee27fd9adebab32041f755214dbc6bffa90cc0225b39da2e5c2d3b60405160405180910390a25f81511115613f3057613f2a82826143d1565b50613f39565b613f386144c2565b5b5050565b5f5f8473ffffffffffffffffffffffffffffffffffffffff1663a9059cbb8585604051602401613f6e929190614663565b6040516020818303038152906040529060e01b6020820180517bffffffffffffffffffffffffffffffffffffffffffffffffffffffff8381831617835250505050604051613fbc9190615aa3565b5f604051808303815f865af19150503d805f8114613ff5576040519150601f19603f3d011682016040523d82523d5f602084013e613ffa565b606091505b509150915081801561402757505f815114806140265750808060200190518101906140259190615aee565b5b5b614066576040517f08c379a000000000000000000000000000000000000000000000000000000000815260040161405d90615e46565b60405180910390fd5b5050505050565b5f600267ffffffffffffffff81111561408957614088614735565b5b6040519080825280602002602001820160405280156140b75781602001602082028036833780820191505090505b5090507355d398326f99059ff775485246999027b3197955815f815181106140e2576140e161506e565b5b602002602001019073ffffffffffffffffffffffffffffffffffffffff16908173ffffffffffffffffffffffffffffffffffffffff1681525050600b5f9054906101000a900473ffffffffffffffffffffffffffffffffffffffff16816001815181106141525761415161506e565b5b602002602001019073ffffffffffffffffffffffffffffffffffffffff16908173ffffffffffffffffffffffffffffffffffffffff16815250507310ed43c718714eb63d5aa57b78b54704e256024e73ffffffffffffffffffffffffffffffffffffffff16635c11d795835f8430426040518663ffffffff1660e01b81526004016141e19594939291906158b0565b5f604051808303815f87803b1580156141f8575f5ffd5b505af115801561420a573d5f5f3e3d5ffd5b505050505050565b5f7ff0c57e16840df040f15088dc2f81fe391c3923bec73e23a9662efc9c229c6a005f1b905090565b6142436144fe565b614279576040517fd7e6bcf800000000000000000000000000000000000000000000000000000000815260040160405180910390fd5b565b61428361423b565b5f73ffffffffffffffffffffffffffffffffffffffff168173ffffffffffffffffffffffffffffffffffffffff16036142f3575f6040517f1e4fbdf70000000000000000000000000000000000000000000000000000000081526004016142ea9190614632565b60405180910390fd5b6142fc816131e1565b50565b5f819050919050565b5f8173ffffffffffffffffffffffffffffffffffffffff163b0361436357806040517f4c9c8ce300000000000000000000000000000000000000000000000000000000815260040161435a9190614632565b60405180910390fd5b8061438f7f360894a13ba1a3210667c828492db98dca3e2076cc3735a920a3ca505d382bbc5f1b6142ff565b5f015f6101000a81548173ffffffffffffffffffffffffffffffffffffffff021916908373ffffffffffffffffffffffffffffffffffffffff16021790555050565b60605f6143de848461451c565b905080801561441457505f6143f1614530565b118061441357505f8473ffffffffffffffffffffffffffffffffffffffff163b115b5b1561442957614421614537565b9150506144bc565b801561446c57836040517f9996b3150000000000000000000000000000000000000000000000000000000081526004016144639190614632565b60405180910390fd5b5f614475614530565b111561448857614483614554565b6144ba565b6040517fd6bda27500000000000000000000000000000000000000000000000000000000815260040160405180910390fd5b505b92915050565b5f3411156144fc576040517fb398979f00000000000000000000000000000000000000000000000000000000815260040160405180910390fd5b565b5f614507613e4a565b5f0160089054906101000a900460ff16905090565b5f5f5f835160208501865af4905092915050565b5f3d905090565b606060405190503d81523d5f602083013e3d602001810160405290565b6040513d5f823e3d81fd5b60405180604001604052805f73ffffffffffffffffffffffffffffffffffffffff1681526020015f81525090565b5f604051905090565b5f5ffd5b5f5ffd5b5f73ffffffffffffffffffffffffffffffffffffffff82169050919050565b5f6145c78261459e565b9050919050565b6145d7816145bd565b81146145e1575f5ffd5b50565b5f813590506145f2816145ce565b92915050565b5f6020828403121561460d5761460c614596565b5b5f61461a848285016145e4565b91505092915050565b61462c816145bd565b82525050565b5f6020820190506146455f830184614623565b92915050565b5f819050919050565b61465d8161464b565b82525050565b5f6040820190506146765f830185614623565b6146836020830184614654565b9392505050565b6146938161464b565b811461469d575f5ffd5b50565b5f813590506146ae8161468a565b92915050565b5f5f5f606084860312156146cb576146ca614596565b5b5f6146d8868287016145e4565b93505060206146e9868287016145e4565b92505060406146fa868287016146a0565b9150509250925092565b5f6020820190506147175f830184614654565b92915050565b5f5ffd5b5f5ffd5b5f601f19601f8301169050919050565b7f4e487b71000000000000000000000000000000000000000000000000000000005f52604160045260245ffd5b61476b82614725565b810181811067ffffffffffffffff8211171561478a57614789614735565b5b80604052505050565b5f61479c61458d565b90506147a88282614762565b919050565b5f67ffffffffffffffff8211156147c7576147c6614735565b5b6147d082614725565b9050602081019050919050565b828183375f83830152505050565b5f6147fd6147f8846147ad565b614793565b90508281526020810184848401111561481957614818614721565b5b6148248482856147dd565b509392505050565b5f82601f8301126148405761483f61471d565b5b81356148508482602086016147eb565b91505092915050565b5f5f6040838503121561486f5761486e614596565b5b5f61487c858286016145e4565b925050602083013567ffffffffffffffff81111561489d5761489c61459a565b5b6148a98582860161482c565b9150509250929050565b5f819050919050565b6148c5816148b3565b82525050565b5f6020820190506148de5f8301846148bc565b92915050565b5f67ffffffffffffffff8211156148fe576148fd614735565b5b61490782614725565b9050602081019050919050565b5f614926614921846148e4565b614793565b90508281526020810184848401111561494257614941614721565b5b61494d8482856147dd565b509392505050565b5f82601f8301126149695761496861471d565b5b8135614979848260208601614914565b91505092915050565b5f5f5f5f6080858703121561499a57614999614596565b5b5f85013567ffffffffffffffff8111156149b7576149b661459a565b5b6149c387828801614955565b94505060206149d4878288016145e4565b93505060406149e5878288016146a0565b92505060606149f6878288016145e4565b91505092959194509250565b5f5ffd5b5f5ffd5b5f5f83601f840112614a1f57614a1e61471d565b5b8235905067ffffffffffffffff811115614a3c57614a3b614a02565b5b602083019150836001820283011115614a5857614a57614a06565b5b9250929050565b5f5f5f5f5f5f60a08789031215614a7957614a78614596565b5b5f614a8689828a016145e4565b9650506020614a9789828a016146a0565b9550506040614aa889828a016145e4565b9450506060614ab989828a016146a0565b935050608087013567ffffffffffffffff811115614ada57614ad961459a565b5b614ae689828a01614a0a565b92509250509295509295509295565b5f5f5f5f60808587031215614b0d57614b0c614596565b5b5f614b1a878288016145e4565b9450506020614b2b878288016145e4565b9350506040614b3c878288016145e4565b9250506060614b4d878288016146a0565b91505092959194509250565b5f5f83601f840112614b6e57614b6d61471d565b5b8235905067ffffffffffffffff811115614b8b57614b8a614a02565b5b602083019150836020820283011115614ba757614ba6614a06565b5b9250929050565b5f5f5f60408486031215614bc557614bc4614596565b5b5f614bd2868287016145e4565b935050602084013567ffffffffffffffff811115614bf357614bf261459a565b5b614bff86828701614b59565b92509250509250925092565b5f81519050919050565b5f82825260208201905092915050565b5f819050602082019050919050565b614c3d816145bd565b82525050565b614c4c8161464b565b82525050565b604082015f820151614c665f850182614c34565b506020820151614c796020850182614c43565b50505050565b5f614c8a8383614c52565b60408301905092915050565b5f602082019050919050565b5f614cac82614c0b565b614cb68185614c15565b9350614cc183614c25565b805f5b83811015614cf1578151614cd88882614c7f565b9750614ce383614c96565b925050600181019050614cc4565b5085935050505092915050565b5f6020820190508181035f830152614d168184614ca2565b905092915050565b5f5f5f5f60608587031215614d3657614d35614596565b5b5f614d43878288016145e4565b9450506020614d54878288016146a0565b935050604085013567ffffffffffffffff811115614d7557614d7461459a565b5b614d8187828801614a0a565b925092505092959194509250565b5f81519050919050565b5f82825260208201905092915050565b8281835e5f83830152505050565b5f614dc182614d8f565b614dcb8185614d99565b9350614ddb818560208601614da9565b614de481614725565b840191505092915050565b5f6020820190508181035f830152614e078184614db7565b905092915050565b5f5f5f60608486031215614e2657614e25614596565b5b5f614e33868287016145e4565b9350506020614e44868287016145e4565b9250506040614e55868287016145e4565b9150509250925092565b5f5f5f5f5f5f5f5f5f5f6101408b8d031215614e7e57614e7d614596565b5b5f614e8b8d828e016145e4565b9a50506020614e9c8d828e016145e4565b9950506040614ead8d828e016145e4565b9850506060614ebe8d828e016145e4565b9750506080614ecf8d828e016145e4565b96505060a0614ee08d828e016145e4565b95505060c0614ef18d828e016145e4565b94505060e0614f028d828e016145e4565b935050610100614f148d828e016145e4565b925050610120614f268d828e016145e4565b9150509295989b9194979a5092959850565b7f4552524f525f41444d494e2e00000000000000000000000000000000000000005f82015250565b5f614f6c600c83614d99565b9150614f7782614f38565b602082019050919050565b5f6020820190508181035f830152614f9981614f60565b9050919050565b7f5a45524f5f414444524553532e000000000000000000000000000000000000005f82015250565b5f614fd4600d83614d99565b9150614fdf82614fa0565b602082019050919050565b5f6020820190508181035f83015261500181614fc8565b9050919050565b5f60408201905061501b5f830185614623565b6150286020830184614623565b9392505050565b5f8151905061503d816145ce565b92915050565b5f6020828403121561505857615057614596565b5b5f6150658482850161502f565b91505092915050565b7f4e487b71000000000000000000000000000000000000000000000000000000005f52603260045260245ffd5b5f81519050919050565b5f82825260208201905092915050565b5f819050602082019050919050565b5f6150cf8383614c34565b60208301905092915050565b5f602082019050919050565b5f6150f18261509b565b6150fb81856150a5565b9350615106836150b5565b805f5b8381101561513657815161511d88826150c4565b9750615128836150db565b925050600181019050615109565b5085935050505092915050565b5f6040820190506151565f830185614654565b818103602083015261516881846150e7565b90509392505050565b5f67ffffffffffffffff82111561518b5761518a614735565b5b602082029050602081019050919050565b5f815190506151aa8161468a565b92915050565b5f6151c26151bd84615171565b614793565b905080838252602082019050602084028301858111156151e5576151e4614a06565b5b835b8181101561520e57806151fa888261519c565b8452602084019350506020810190506151e7565b5050509392505050565b5f82601f83011261522c5761522b61471d565b5b815161523c8482602086016151b0565b91505092915050565b5f6020828403121561525a57615259614596565b5b5f82015167ffffffffffffffff8111156152775761527661459a565b5b61528384828501615218565b91505092915050565b7f4e487b71000000000000000000000000000000000000000000000000000000005f52601160045260245ffd5b5f6152c38261464b565b91506152ce8361464b565b92508282039050818111156152e6576152e561528c565b5b92915050565b7f5a45524f5f4f524947494e414c000000000000000000000000000000000000005f82015250565b5f615320600d83614d99565b915061532b826152ec565b602082019050919050565b5f6020820190508181035f83015261534d81615314565b9050919050565b7f5a45524f5f5441524745540000000000000000000000000000000000000000005f82015250565b5f615388600b83614d99565b915061539382615354565b602082019050919050565b5f6020820190508181035f8301526153b58161537c565b9050919050565b7f5a45524f5f5441524745545f414d4f554e5400000000000000000000000000005f82015250565b5f6153f0601283614d99565b91506153fb826153bc565b602082019050919050565b5f6020820190508181035f83015261541d816153e4565b9050919050565b5f61542e8261464b565b91506154398361464b565b92508282026154478161464b565b9150828204841483151761545e5761545d61528c565b5b5092915050565b7f4e487b71000000000000000000000000000000000000000000000000000000005f52601260045260245ffd5b5f61549c8261464b565b91506154a78361464b565b9250826154b7576154b6615465565b5b828204905092915050565b7f4552524f525f414d4f554e542e000000000000000000000000000000000000005f82015250565b5f6154f6600d83614d99565b9150615501826154c2565b602082019050919050565b5f6020820190508181035f830152615523816154ea565b9050919050565b5f6080820190508181035f8301526155428187614db7565b90506155516020830186614623565b61555e6040830185614623565b61556b6060830184614654565b95945050505050565b7f4552524f525f414d4f554e5400000000000000000000000000000000000000005f82015250565b5f6155a8600c83614d99565b91506155b382615574565b602082019050919050565b5f6020820190508181035f8301526155d58161559c565b9050919050565b5f6155e78385614d99565b93506155f48385846147dd565b6155fd83614725565b840190509392505050565b5f60c08201905061561b5f83018a614623565b6156286020830189614623565b6156356040830188614654565b6156426060830187614623565b61564f6080830186614654565b81810360a08301526156628184866155dc565b905098975050505050505050565b7f4552524f525f414444524553532e0000000000000000000000000000000000005f82015250565b5f6156a4600e83614d99565b91506156af82615670565b602082019050919050565b5f6020820190508181035f8301526156d181615698565b9050919050565b7f504149525f4e4f545f45584953540000000000000000000000000000000000005f82015250565b5f61570c600e83614d99565b9150615717826156d8565b602082019050919050565b5f6020820190508181035f83015261573981615700565b9050919050565b7f5a45524f5f4f524947494e414c5f414d4f554e540000000000000000000000005f82015250565b5f615774601483614d99565b915061577f82615740565b602082019050919050565b5f6020820190508181035f8301526157a181615768565b9050919050565b5f602082840312156157bd576157bc614596565b5b5f6157ca8482850161519c565b91505092915050565b7f494e53554646494349454e545f524543454956454400000000000000000000005f82015250565b5f615807601583614d99565b9150615812826157d3565b602082019050919050565b5f6020820190508181035f830152615834816157fb565b9050919050565b5f6158458261464b565b91506158508361464b565b92508282019050808211156158685761586761528c565b5b92915050565b5f819050919050565b5f819050919050565b5f61589a6158956158908461586e565b615877565b61464b565b9050919050565b6158aa81615880565b82525050565b5f60a0820190506158c35f830188614654565b6158d060208301876158a1565b81810360408301526158e281866150e7565b90506158f16060830185614623565b6158fe6080830184614654565b9695505050505050565b5f60c08201905061591b5f83018a614623565b6159286020830189614623565b6159356040830188614654565b6159426060830187614623565b61594f60808301866158a1565b81810360a08301526159628184866155dc565b905098975050505050505050565b5f819050919050565b5f67ffffffffffffffff82169050919050565b5f6159a66159a161599c84615970565b615877565b615979565b9050919050565b6159b68161598c565b82525050565b5f6020820190506159cf5f8301846159ad565b92915050565b6159de816148b3565b81146159e8575f5ffd5b50565b5f815190506159f9816159d5565b92915050565b5f60208284031215615a1457615a13614596565b5b5f615a21848285016159eb565b91505092915050565b5f606082019050615a3d5f830186614623565b615a4a6020830185614623565b615a576040830184614654565b949350505050565b5f81519050919050565b5f81905092915050565b5f615a7d82615a5f565b615a878185615a69565b9350615a97818560208601614da9565b80840191505092915050565b5f615aae8284615a73565b915081905092915050565b5f8115159050919050565b615acd81615ab9565b8114615ad7575f5ffd5b50565b5f81519050615ae881615ac4565b92915050565b5f60208284031215615b0357615b02614596565b5b5f615b1084828501615ada565b91505092915050565b7f5472616e7366657248656c7065723a205452414e534645525f46524f4d5f46415f8201527f494c454400000000000000000000000000000000000000000000000000000000602082015250565b5f615b73602483614d99565b9150615b7e82615b19565b604082019050919050565b5f6020820190508181035f830152615ba081615b67565b9050919050565b7f5472616e7366657248656c7065723a204554485f5452414e534645525f4641495f8201527f4c45440000000000000000000000000000000000000000000000000000000000602082015250565b5f615c01602383614d99565b9150615c0c82615ba7565b604082019050919050565b5f6020820190508181035f830152615c2e81615bf5565b9050919050565b7f4d49534d415443485f4c454e47544800000000000000000000000000000000005f82015250565b5f615c69600f83614d99565b9150615c7482615c35565b602082019050919050565b5f6020820190508181035f830152615c9681615c5d565b9050919050565b5f604082019050615cb05f830185614623565b615cbd60208301846158a1565b9392505050565b7f4552524f525f50415941424c455f414d4f554e540000000000000000000000005f82015250565b5f615cf8601483614d99565b9150615d0382615cc4565b602082019050919050565b5f6020820190508181035f830152615d2581615cec565b9050919050565b7f5472616e7366657248656c7065723a20415050524f56455f4641494c454400005f82015250565b5f615d60601e83614d99565b9150615d6b82615d2c565b602082019050919050565b5f6020820190508181035f830152615d8d81615d54565b9050919050565b7f504149525f4e4f545f4d415443485f54415247455400000000000000000000005f82015250565b5f615dc8601583614d99565b9150615dd382615d94565b602082019050919050565b5f6020820190508181035f830152615df581615dbc565b9050919050565b7f5472616e7366657248656c7065723a205452414e534645525f4641494c4544005f82015250565b5f615e30601f83614d99565b9150615e3b82615dfc565b602082019050919050565b5f6020820190508181035f830152615e5d81615e24565b905091905056fea26469706673582212209837cd20f95d60bea607609fd958b47917b3147bbc9578bd044db147d67b9b6264736f6c634300081e0033","linkReferences":{}},"methodIdentifiers":{"BUY_BACK_RATE()":"5a461750","UPGRADE_INTERFACE_VERSION()":"ad3cb1cc","USDT()":"c54e44eb","WBNB()":"8dd95002","admin()":"f851a440","buyBackPercent2()":"43252bf3","buyBackPercent362()":"617fe173","buyBackPercent538()":"bec3ac33","carryOutBuyback(address,address,address,uint256)":"7fd6dc7a","changeAdmin(address)":"8f283970","changeOperator(address)":"06394c9b","changeRechargePercent(address,address,address)":"b0d51091","changeRecipient(address)":"92c2bcb4","changeSender(address)":"b280a7e7","dead()":"36cf7c87","factory()":"c45a0155","getAmountOut(address,address,uint256)":"4aa06652","getPrice(address)":"41976e09","initialize(address,address,address,address,address,address,address,address,address,address)":"c306b378","multiBalanceOf(address,address[])":"9f166cf1","multiRecharge(address,uint256,address,uint256,string)":"73abf0af","operator()":"570ca735","owner()":"8da5cb5b","proxiableUUID()":"52d1902d","rechargePercent20()":"bf2647f2","rechargePercent30()":"2cd89ff2","rechargePercent50()":"baad38d5","recipient()":"66d003ac","renounceOwnership()":"715018a6","router()":"f887ea40","sender()":"67e404ce","singleRecharge(address,uint256,string)":"aa7e7eb9","skp()":"45348946","transferOwnership(address)":"f2fde38b","upgradeToAndCall(address,bytes)":"4f1ef286","withdraw(string,address,uint256,address)":"62a33811"},"id":43}