{"abi":[{"type":"receive","stateMutability":"payable"},{"type":"function","name":"BUY_BACK_RATE","inputs":[],"outputs":[{"name":"","type":"uint256","internalType":"uint256"}],"stateMutability":"view"},{"type":"function","name":"UPGRADE_INTERFACE_VERSION","inputs":[],"outputs":[{"name":"","type":"string","internalType":"string"}],"stateMutability":"view"},{"type":"function","name":"USDT","inputs":[],"outputs":[{"name":"","type":"address","internalType":"address"}],"stateMutability":"view"},{"type":"function","name":"WBNB","inputs":[],"outputs":[{"name":"","type":"address","internalType":"address"}],"stateMutability":"view"},{"type":"function","name":"admin","inputs":[],"outputs":[{"name":"","type":"address","internalType":"address"}],"stateMutability":"view"},{"type":"function","name":"buyBackPercent2","inputs":[],"outputs":[{"name":"","type":"address","internalType":"address"}],"stateMutability":"view"},{"type":"function","name":"buyBackPercent362","inputs":[],"outputs":[{"name":"","type":"address","internalType":"address"}],"stateMutability":"view"},{"type":"function","name":"buyBackPercent538","inputs":[],"outputs":[{"name":"","type":"address","internalType":"address"}],"stateMutability":"view"},{"type":"function","name":"carryOutBuyback","inputs":[{"name":"original","type":"address","internalType":"address"},{"name":"target","type":"address","internalType":"address"},{"name":"from","type":"address","internalType":"address"},{"name":"targetAmount","type":"uint256","internalType":"uint256"}],"outputs":[],"stateMutability":"nonpayable"},{"type":"function","name":"changeAdmin","inputs":[{"name":"_newAdmin","type":"address","internalType":"address"}],"outputs":[],"stateMutability":"nonpayable"},{"type":"function","name":"changeOperator","inputs":[{"name":"_newOperator","type":"address","internalType":"address"}],"outputs":[],"stateMutability":"nonpayable"},{"type":"function","name":"changeRechargePercent","inputs":[{"name":"_percent50","type":"address","internalType":"address"},{"name":"_percent30","type":"address","internalType":"address"},{"name":"_percent20","type":"address","internalType":"address"}],"outputs":[],"stateMutability":"nonpayable"},{"type":"function","name":"changeRecipient","inputs":[{"name":"_newRecipient","type":"address","internalType":"address"}],"outputs":[],"stateMutability":"nonpayable"},{"type":"function","name":"changeSender","inputs":[{"name":"_newSender","type":"address","internalType":"address"}],"outputs":[],"stateMutability":"nonpayable"},{"type":"function","name":"dead","inputs":[],"outputs":[{"name":"","type":"address","internalType":"address"}],"stateMutability":"view"},{"type":"function","name":"factory","inputs":[],"outputs":[{"name":"","type":"address","internalType":"address"}],"stateMutability":"view"},{"type":"function","name":"getAmountOut","inputs":[{"name":"original","type":"address","internalType":"address"},{"name":"target","type":"address","internalType":"address"},{"name":"targetAmount","type":"uint256","internalType":"uint256"}],"outputs":[{"name":"originalAmount","type":"uint256","internalType":"uint256"}],"stateMutability":"view"},{"type":"function","name":"getPrice","inputs":[{"name":"token","type":"address","internalType":"address"}],"outputs":[{"name":"","type":"address","internalType":"address"},{"name":"","type":"uint256","internalType":"uint256"}],"stateMutability":"view"},{"type":"function","name":"initialize","inputs":[{"name":"_admin","type":"address","internalType":"address"},{"name":"_recipient","type":"address","internalType":"address"},{"name":"_sender","type":"address","internalType":"address"},{"name":"_percent50","type":"address","internalType":"address"},{"name":"_percent30","type":"address","internalType":"address"},{"name":"_percent20","type":"address","internalType":"address"},{"name":"_skp","type":"address","internalType":"address"},{"name":"_buyBackPercent538","type":"address","internalType":"address"},{"name":"_buyBackPercent362","type":"address","internalType":"address"},{"name":"_buyBackPercent2","type":"address","internalType":"address"}],"outputs":[],"stateMutability":"nonpayable"},{"type":"function","name":"multiBalanceOf","inputs":[{"name":"token","type":"address","internalType":"address"},{"name":"users","type":"address[]","internalType":"address[]"}],"outputs":[{"name":"","type":"tuple[]","internalType":"struct Recharge.Info[]","components":[{"name":"user","type":"address","internalType":"address"},{"name":"amount","type":"uint256","internalType":"uint256"}]}],"stateMutability":"view"},{"type":"function","name":"multiRecharge","inputs":[{"name":"token0","type":"address","internalType":"address"},{"name":"amount0","type":"uint256","internalType":"uint256"},{"name":"token1","type":"address","internalType":"address"},{"name":"amount1","type":"uint256","internalType":"uint256"},{"name":"remark","type":"string","internalType":"string"}],"outputs":[],"stateMutability":"payable"},{"type":"function","name":"operator","inputs":[],"outputs":[{"name":"","type":"address","internalType":"address"}],"stateMutability":"view"},{"type":"function","name":"owner","inputs":[],"outputs":[{"name":"","type":"address","internalType":"address"}],"stateMutability":"view"},{"type":"function","name":"proxiableUUID","inputs":[],"outputs":[{"name":"","type":"bytes32","internalType":"bytes32"}],"stateMutability":"view"},{"type":"function","name":"rechargePercent20","inputs":[],"outputs":[{"name":"","type":"address","internalType":"address"}],"stateMutability":"view"},{"type":"function","name":"rechargePercent30","inputs":[],"outputs":[{"name":"","type":"address","internalType":"address"}],"stateMutability":"view"},{"type":"function","name":"rechargePercent50","inputs":[],"outputs":[{"name":"","type":"address","internalType":"address"}],"stateMutability":"view"},{"type":"function","name":"recipient","inputs":[],"outputs":[{"name":"","type":"address","internalType":"address"}],"stateMutability":"view"},{"type":"function","name":"renounceOwnership","inputs":[],"outputs":[],"stateMutability":"nonpayable"},{"type":"function","name":"router","inputs":[],"outputs":[{"name":"","type":"address","internalType":"address"}],"stateMutability":"view"},{"type":"function","name":"sender","inputs":[],"outputs":[{"name":"","type":"address","internalType":"address"}],"stateMutability":"view"},{"type":"function","name":"singleRecharge","inputs":[{"name":"token","type":"address","internalType":"address"},{"name":"amount","type":"uint256","internalType":"uint256"},{"name":"remark","type":"string","internalType":"string"}],"outputs":[],"stateMutability":"payable"},{"type":"function","name":"skp","inputs":[],"outputs":[{"name":"","type":"address","internalType":"address"}],"stateMutability":"view"},{"type":"function","name":"transferOwnership","inputs":[{"name":"newOwner","type":"address","internalType":"address"}],"outputs":[],"stateMutability":"nonpayable"},{"type":"function","name":"upgradeToAndCall","inputs":[{"name":"newImplementation","type":"address","internalType":"address"},{"name":"data","type":"bytes","internalType":"bytes"}],"outputs":[],"stateMutability":"payable"},{"type":"function","name":"withdraw","inputs":[{"name":"remark","type":"string","internalType":"string"},{"name":"token","type":"address","internalType":"address"},{"name":"amount","type":"uint256","internalType":"uint256"},{"name":"to","type":"address","internalType":"address"}],"outputs":[],"stateMutability":"nonpayable"},{"type":"event","name":"AdminshipTransferred","inputs":[{"name":"previousAdmin","type":"address","indexed":true,"internalType":"address"},{"name":"newAdmin","type":"address","indexed":true,"internalType":"address"}],"anonymous":false},{"type":"event","name":"Initialized","inputs":[{"name":"version","type":"uint64","indexed":false,"internalType":"uint64"}],"anonymous":false},{"type":"event","name":"MultiRecharge","inputs":[{"name":"user","type":"address","indexed":false,"internalType":"address"},{"name":"token0","type":"address","indexed":false,"internalType":"address"},{"name":"amount0","type":"uint256","indexed":false,"internalType":"uint256"},{"name":"token1","type":"address","indexed":false,"internalType":"address"},{"name":"amount1","type":"uint256","indexed":false,"internalType":"uint256"},{"name":"remark","type":"string","indexed":false,"internalType":"string"}],"anonymous":false},{"type":"event","name":"OwnershipTransferred","inputs":[{"name":"previousOwner","type":"address","indexed":true,"internalType":"address"},{"name":"newOwner","type":"address","indexed":true,"internalType":"address"}],"anonymous":false},{"type":"event","name":"Upgraded","inputs":[{"name":"implementation","type":"address","indexed":true,"internalType":"address"}],"anonymous":false},{"type":"event","name":"Withdraw","inputs":[{"name":"remark","type":"string","indexed":false,"internalType":"string"},{"name":"token","type":"address","indexed":false,"internalType":"address"},{"name":"to","type":"address","indexed":false,"internalType":"address"},{"name":"amount","type":"uint256","indexed":false,"internalType":"uint256"}],"anonymous":false},{"type":"error","name":"AddressEmptyCode","inputs":[{"name":"target","type":"address","internalType":"address"}]},{"type":"error","name":"ERC1967InvalidImplementation","inputs":[{"name":"implementation","type":"address","internalType":"address"}]},{"type":"error","name":"ERC1967NonPayable","inputs":[]},{"type":"error","name":"FailedCall","inputs":[]},{"type":"error","name":"InvalidInitialization","inputs":[]},{"type":"error","name":"NotInitializing","inputs":[]},{"type":"error","name":"OwnableInvalidOwner","inputs":[{"name":"owner","type":"address","internalType":"address"}]},{"type":"error","name":"OwnableUnauthorizedAccount","inputs":[{"name":"account","type":"address","internalType":"address"}]},{"type":"error","name":"ReentrancyGuardReentrantCall","inputs":[]},{"type":"error","name":"UUPSUnauthorizedCallContext","inputs":[]},{"type":"error","name":"UUPSUnsupportedProxiableUUID","inputs":[{"name":"slot","type":"bytes32","internalType":"bytes32"}]}],"bytecode":{"object":"0x60a06040523073ffffffffffffffffffffffffffffffffffffffff1660809073ffffffffffffffffffffffffffffffffffffffff168152503480156041575f5ffd5b5060015f81905550608051615fde61006f5f395f8181612ddc01528181612e310152612feb0152615fde5ff3fe608060405260043610610212575f3560e01c80638da5cb5b11610117578063baad38d51161009f578063c45a01551161006e578063c45a01551461071c578063c54e44eb14610746578063f2fde38b14610770578063f851a44014610798578063f887ea40146107c257610219565b8063baad38d514610676578063bec3ac33146106a0578063bf2647f2146106ca578063c306b378146106f457610219565b80639f166cf1116100e65780639f166cf1146105a4578063aa7e7eb9146105e0578063ad3cb1cc146105fc578063b0d5109114610626578063b280a7e71461064e57610219565b80638da5cb5b146105005780638dd950021461052a5780638f2839701461055457806392c2bcb41461057c57610219565b8063570ca7351161019a57806366d003ac1161016957806366d003ac1461045257806367e404ce1461047c578063715018a6146104a657806373abf0af146104bc5780637fd6dc7a146104d857610219565b8063570ca735146103ac5780635a461750146103d6578063617fe1731461040057806362a338111461042a57610219565b806343252bf3116101e157806343252bf3146102d657806345348946146103005780634aa066521461032a5780634f1ef2861461036657806352d1902d1461038257610219565b806306394c9b1461021d5780632cd89ff21461024557806336cf7c871461026f57806341976e091461029957610219565b3661021957005b5f5ffd5b348015610228575f5ffd5b50610243600480360381019061023e919061473c565b6107ec565b005b348015610250575f5ffd5b5061025961092c565b6040516102669190614776565b60405180910390f35b34801561027a575f5ffd5b50610283610951565b6040516102909190614776565b60405180910390f35b3480156102a4575f5ffd5b506102bf60048036038101906102ba919061473c565b610957565b6040516102cd9291906147a7565b60405180910390f35b3480156102e1575f5ffd5b506102ea610ee8565b6040516102f79190614776565b60405180910390f35b34801561030b575f5ffd5b50610314610f0d565b6040516103219190614776565b60405180910390f35b348015610335575f5ffd5b50610350600480360381019061034b91906147f8565b610f32565b60405161035d9190614848565b60405180910390f35b610380600480360381019061037b919061499d565b61120d565b005b34801561038d575f5ffd5b5061039661122c565b6040516103a39190614a0f565b60405180910390f35b3480156103b7575f5ffd5b506103c061125d565b6040516103cd9190614776565b60405180910390f35b3480156103e1575f5ffd5b506103ea611282565b6040516103f79190614848565b60405180910390f35b34801561040b575f5ffd5b50610414611287565b6040516104219190614776565b60405180910390f35b348015610435575f5ffd5b50610450600480360381019061044b9190614ac6565b6112ac565b005b34801561045d575f5ffd5b50610466611430565b6040516104739190614776565b60405180910390f35b348015610487575f5ffd5b50610490611455565b60405161049d9190614776565b60405180910390f35b3480156104b1575f5ffd5b506104ba61147a565b005b6104d660048036038101906104d19190614ba3565b61148d565b005b3480156104e3575f5ffd5b506104fe60048036038101906104f99190614c39565b6116a8565b005b34801561050b575f5ffd5b50610514611ea0565b6040516105219190614776565b60405180910390f35b348015610535575f5ffd5b5061053e611ed5565b60405161054b9190614776565b60405180910390f35b34801561055f575f5ffd5b5061057a6004803603810190610575919061473c565b611eed565b005b348015610587575f5ffd5b506105a2600480360381019061059d919061473c565b612021565b005b3480156105af575f5ffd5b506105ca60048036038101906105c59190614cf2565b612161565b6040516105d79190614e42565b60405180910390f35b6105fa60048036038101906105f59190614e62565b6123fd565b005b348015610607575f5ffd5b5061061061259c565b60405161061d9190614f33565b60405180910390f35b348015610631575f5ffd5b5061064c60048036038101906106479190614f53565b6125d5565b005b348015610659575f5ffd5b50610674600480360381019061066f919061473c565b612729565b005b348015610681575f5ffd5b5061068a612869565b6040516106979190614776565b60405180910390f35b3480156106ab575f5ffd5b506106b461288e565b6040516106c19190614776565b60405180910390f35b3480156106d5575f5ffd5b506106de6128b3565b6040516106eb9190614776565b60405180910390f35b3480156106ff575f5ffd5b5061071a60048036038101906107159190614fa3565b6128d8565b005b348015610727575f5ffd5b50610730612ce9565b60405161073d9190614776565b60405180910390f35b348015610751575f5ffd5b5061075a612d01565b6040516107679190614776565b60405180910390f35b34801561077b575f5ffd5b506107966004803603810190610791919061473c565b612d19565b005b3480156107a3575f5ffd5b506107ac612d9d565b6040516107b99190614776565b60405180910390f35b3480156107cd575f5ffd5b506107d6612dc2565b6040516107e39190614776565b60405180910390f35b60015f9054906101000a900473ffffffffffffffffffffffffffffffffffffffff1673ffffffffffffffffffffffffffffffffffffffff163373ffffffffffffffffffffffffffffffffffffffff161461087b576040517f08c379a0000000000000000000000000000000000000000000000000000000008152600401610872906150c6565b60405180910390fd5b5f73ffffffffffffffffffffffffffffffffffffffff168173ffffffffffffffffffffffffffffffffffffffff16036108e9576040517f08c379a00000000000000000000000000000000000000000000000000000000081526004016108e09061512e565b60405180910390fd5b8060025f6101000a81548173ffffffffffffffffffffffffffffffffffffffff021916908373ffffffffffffffffffffffffffffffffffffffff16021790555050565b60065f9054906101000a900473ffffffffffffffffffffffffffffffffffffffff1681565b61dead81565b5f5f5f73ca143ce32fe78f1f7019d7d551a6402fc5350c7373ffffffffffffffffffffffffffffffffffffffff1663e6a439058573bb4cdb9cbd36b01bd1cbaebf2de08d9173bc095c6040518363ffffffff1660e01b81526004016109bd92919061514c565b602060405180830381865afa1580156109d8573d5f5f3e3d5ffd5b505050506040513d601f19601f820116820180604052508101906109fc9190615187565b90505f73ca143ce32fe78f1f7019d7d551a6402fc5350c7373ffffffffffffffffffffffffffffffffffffffff1663e6a43905867355d398326f99059ff775485246999027b31979556040518363ffffffff1660e01b8152600401610a6292919061514c565b602060405180830381865afa158015610a7d573d5f5f3e3d5ffd5b505050506040513d601f19601f82011682018060405250810190610aa19190615187565b90505f670de0b6b3a764000090505f5f73ffffffffffffffffffffffffffffffffffffffff168373ffffffffffffffffffffffffffffffffffffffff1614610cc4575f600267ffffffffffffffff811115610aff57610afe614879565b5b604051908082528060200260200182016040528015610b2d5781602001602082028036833780820191505090505b50905087815f81518110610b4457610b436151b2565b5b602002602001019073ffffffffffffffffffffffffffffffffffffffff16908173ffffffffffffffffffffffffffffffffffffffff16815250507355d398326f99059ff775485246999027b319795581600181518110610ba757610ba66151b2565b5b602002602001019073ffffffffffffffffffffffffffffffffffffffff16908173ffffffffffffffffffffffffffffffffffffffff16815250505f7310ed43c718714eb63d5aa57b78b54704e256024e73ffffffffffffffffffffffffffffffffffffffff1663d06ca61f85846040518363ffffffff1660e01b8152600401610c31929190615287565b5f60405180830381865afa158015610c4b573d5f5f3e3d5ffd5b505050506040513d5f823e3d601f19601f82011682018060405250810190610c739190615389565b90508060018251610c8491906153fd565b81518110610c9557610c946151b2565b5b602002602001015192507355d398326f99059ff775485246999027b31979558397509750505050505050610ee3565b5f73ffffffffffffffffffffffffffffffffffffffff168473ffffffffffffffffffffffffffffffffffffffff1614610ed8575f600267ffffffffffffffff811115610d1357610d12614879565b5b604051908082528060200260200182016040528015610d415781602001602082028036833780820191505090505b50905087815f81518110610d5857610d576151b2565b5b602002602001019073ffffffffffffffffffffffffffffffffffffffff16908173ffffffffffffffffffffffffffffffffffffffff168152505073bb4cdb9cbd36b01bd1cbaebf2de08d9173bc095c81600181518110610dbb57610dba6151b2565b5b602002602001019073ffffffffffffffffffffffffffffffffffffffff16908173ffffffffffffffffffffffffffffffffffffffff16815250505f7310ed43c718714eb63d5aa57b78b54704e256024e73ffffffffffffffffffffffffffffffffffffffff1663d06ca61f85846040518363ffffffff1660e01b8152600401610e45929190615287565b5f60405180830381865afa158015610e5f573d5f5f3e3d5ffd5b505050506040513d5f823e3d601f19601f82011682018060405250810190610e879190615389565b90508060018251610e9891906153fd565b81518110610ea957610ea86151b2565b5b6020026020010151925073bb4cdb9cbd36b01bd1cbaebf2de08d9173bc095c8397509750505050505050610ee3565b5f5f95509550505050505b915091565b600a5f9054906101000a900473ffffffffffffffffffffffffffffffffffffffff1681565b600b5f9054906101000a900473ffffffffffffffffffffffffffffffffffffffff1681565b5f5f73ffffffffffffffffffffffffffffffffffffffff168473ffffffffffffffffffffffffffffffffffffffff1603610fa1576040517f08c379a0000000000000000000000000000000000000000000000000000000008152600401610f989061547a565b60405180910390fd5b5f73ffffffffffffffffffffffffffffffffffffffff168373ffffffffffffffffffffffffffffffffffffffff160361100f576040517f08c379a0000000000000000000000000000000000000000000000000000000008152600401611006906154e2565b60405180910390fd5b5f8211611051576040517f08c379a00000000000000000000000000000000000000000000000000000000081526004016110489061554a565b60405180910390fd5b5f600267ffffffffffffffff81111561106d5761106c614879565b5b60405190808252806020026020018201604052801561109b5781602001602082028036833780820191505090505b50905084815f815181106110b2576110b16151b2565b5b602002602001019073ffffffffffffffffffffffffffffffffffffffff16908173ffffffffffffffffffffffffffffffffffffffff16815250508381600181518110611101576111006151b2565b5b602002602001019073ffffffffffffffffffffffffffffffffffffffff16908173ffffffffffffffffffffffffffffffffffffffff16815250505f7310ed43c718714eb63d5aa57b78b54704e256024e73ffffffffffffffffffffffffffffffffffffffff16631f00ca74606460698761117b9190615568565b61118591906155d6565b846040518363ffffffff1660e01b81526004016111a3929190615287565b5f60405180830381865afa1580156111bd573d5f5f3e3d5ffd5b505050506040513d5f823e3d601f19601f820116820180604052508101906111e59190615389565b9050805f815181106111fa576111f96151b2565b5b6020026020010151925050509392505050565b611215612dda565b61121e82612ec0565b6112288282612ecb565b5050565b5f611235612fe9565b7f360894a13ba1a3210667c828492db98dca3e2076cc3735a920a3ca505d382bbc5f1b905090565b60025f9054906101000a900473ffffffffffffffffffffffffffffffffffffffff1681565b606981565b60095f9054906101000a900473ffffffffffffffffffffffffffffffffffffffff1681565b60015f9054906101000a900473ffffffffffffffffffffffffffffffffffffffff1673ffffffffffffffffffffffffffffffffffffffff163373ffffffffffffffffffffffffffffffffffffffff161461133b576040517f08c379a0000000000000000000000000000000000000000000000000000000008152600401611332906150c6565b60405180910390fd5b5f821161137d576040517f08c379a000000000000000000000000000000000000000000000000000000000815260040161137490615650565b60405180910390fd5b5f73ffffffffffffffffffffffffffffffffffffffff168373ffffffffffffffffffffffffffffffffffffffff16146113e2576113dd8360045f9054906101000a900473ffffffffffffffffffffffffffffffffffffffff168385613070565b6113ed565b6113ec81836131a3565b5b7f99310eed5bb161586b62449f89ccaa4580f85f953cd64218092edfc2b1f5fce784848385604051611422949392919061566e565b60405180910390a150505050565b60035f9054906101000a900473ffffffffffffffffffffffffffffffffffffffff1681565b60045f9054906101000a900473ffffffffffffffffffffffffffffffffffffffff1681565b61148261329e565b61148b5f613325565b565b5f85118061149a57505f83115b6114d9576040517f08c379a00000000000000000000000000000000000000000000000000000000081526004016114d090615702565b60405180910390fd5b5f600267ffffffffffffffff8111156114f5576114f4614879565b5b6040519080825280602002602001820160405280156115235781602001602082028036833780820191505090505b5090505f600267ffffffffffffffff81111561154257611541614879565b5b6040519080825280602002602001820160405280156115705781602001602082028036833780820191505090505b50905087825f81518110611587576115866151b2565b5b602002602001019073ffffffffffffffffffffffffffffffffffffffff16908173ffffffffffffffffffffffffffffffffffffffff168152505086815f815181106115d5576115d46151b2565b5b60200260200101818152505085826001815181106115f6576115f56151b2565b5b602002602001019073ffffffffffffffffffffffffffffffffffffffff16908173ffffffffffffffffffffffffffffffffffffffff16815250508481600181518110611645576116446151b2565b5b60200260200101818152505061165b82826133f6565b7f92bfe9b63523d7c8baff8387323dd4c1c8ccd48705d9c91e19160ebcabb053b833898989898989604051611696979695949392919061574c565b60405180910390a15050505050505050565b6116b0613a9e565b60015f9054906101000a900473ffffffffffffffffffffffffffffffffffffffff1673ffffffffffffffffffffffffffffffffffffffff163373ffffffffffffffffffffffffffffffffffffffff161461173f576040517f08c379a0000000000000000000000000000000000000000000000000000000008152600401611736906150c6565b60405180910390fd5b5f73ffffffffffffffffffffffffffffffffffffffff168473ffffffffffffffffffffffffffffffffffffffff16141580156117a757505f73ffffffffffffffffffffffffffffffffffffffff168373ffffffffffffffffffffffffffffffffffffffff1614155b80156117df57505f73ffffffffffffffffffffffffffffffffffffffff168273ffffffffffffffffffffffffffffffffffffffff1614155b61181e576040517f08c379a0000000000000000000000000000000000000000000000000000000008152600401611815906157fe565b60405180910390fd5b5f8111611860576040517f08c379a000000000000000000000000000000000000000000000000000000000815260040161185790615650565b60405180910390fd5b5f73ca143ce32fe78f1f7019d7d551a6402fc5350c7373ffffffffffffffffffffffffffffffffffffffff1663e6a4390586866040518363ffffffff1660e01b81526004016118b092919061514c565b602060405180830381865afa1580156118cb573d5f5f3e3d5ffd5b505050506040513d601f19601f820116820180604052508101906118ef9190615187565b90505f73ffffffffffffffffffffffffffffffffffffffff168173ffffffffffffffffffffffffffffffffffffffff160361195f576040517f08c379a000000000000000000000000000000000000000000000000000000000815260040161195690615866565b60405180910390fd5b5f61196b868685610f32565b90505f81116119af576040517f08c379a00000000000000000000000000000000000000000000000000000000081526004016119a6906158ce565b60405180910390fd5b5f7355d398326f99059ff775485246999027b319795573ffffffffffffffffffffffffffffffffffffffff166370a08231866040518263ffffffff1660e01b81526004016119fd9190614776565b602060405180830381865afa158015611a18573d5f5f3e3d5ffd5b505050506040513d601f19601f82011682018060405250810190611a3c91906158ec565b905081811015611a4e57505050611e92565b5f7355d398326f99059ff775485246999027b319795573ffffffffffffffffffffffffffffffffffffffff1663dd62ed3e87306040518363ffffffff1660e01b8152600401611a9e92919061514c565b602060405180830381865afa158015611ab9573d5f5f3e3d5ffd5b505050506040513d601f19601f82011682018060405250810190611add91906158ec565b905082811015611af05750505050611e92565b611afc88873086613070565b5f8873ffffffffffffffffffffffffffffffffffffffff166370a08231306040518263ffffffff1660e01b8152600401611b369190614776565b602060405180830381865afa158015611b51573d5f5f3e3d5ffd5b505050506040513d601f19601f82011682018060405250810190611b7591906158ec565b905083811015611bba576040517f08c379a0000000000000000000000000000000000000000000000000000000008152600401611bb190615961565b60405180910390fd5b611bd9897310ed43c718714eb63d5aa57b78b54704e256024e5f613ae2565b611bf8897310ed43c718714eb63d5aa57b78b54704e256024e86613ae2565b5f8873ffffffffffffffffffffffffffffffffffffffff166370a08231306040518263ffffffff1660e01b8152600401611c329190614776565b602060405180830381865afa158015611c4d573d5f5f3e3d5ffd5b505050506040513d601f19601f82011682018060405250810190611c7191906158ec565b90505f600267ffffffffffffffff811115611c8f57611c8e614879565b5b604051908082528060200260200182016040528015611cbd5781602001602082028036833780820191505090505b5090508a815f81518110611cd457611cd36151b2565b5b602002602001019073ffffffffffffffffffffffffffffffffffffffff16908173ffffffffffffffffffffffffffffffffffffffff16815250508981600181518110611d2357611d226151b2565b5b602002602001019073ffffffffffffffffffffffffffffffffffffffff16908173ffffffffffffffffffffffffffffffffffffffff16815250507310ed43c718714eb63d5aa57b78b54704e256024e73ffffffffffffffffffffffffffffffffffffffff16635c11d795875f8430600a42611d9e919061597f565b6040518663ffffffff1660e01b8152600401611dbe9594939291906159f4565b5f604051808303815f87803b158015611dd5575f5ffd5b505af1158015611de7573d5f5f3e3d5ffd5b505050505f8a73ffffffffffffffffffffffffffffffffffffffff166370a08231306040518263ffffffff1660e01b8152600401611e259190614776565b602060405180830381865afa158015611e40573d5f5f3e3d5ffd5b505050506040513d601f19601f82011682018060405250810190611e6491906158ec565b90505f8382611e7391906153fd565b90505f811115611e8857611e878c82613c12565b5b5050505050505050505b611e9a613f5e565b50505050565b5f5f611eaa613f67565b9050805f015f9054906101000a900473ffffffffffffffffffffffffffffffffffffffff1691505090565b73bb4cdb9cbd36b01bd1cbaebf2de08d9173bc095c81565b611ef561329e565b5f73ffffffffffffffffffffffffffffffffffffffff168173ffffffffffffffffffffffffffffffffffffffff1603611f63576040517f08c379a0000000000000000000000000000000000000000000000000000000008152600401611f5a9061512e565b60405180910390fd5b8073ffffffffffffffffffffffffffffffffffffffff1660015f9054906101000a900473ffffffffffffffffffffffffffffffffffffffff1673ffffffffffffffffffffffffffffffffffffffff167f2931ebb3d190545dcf6801c37aa686b74f2e1000e753d0fac6e471a2aa5a621360405160405180910390a38060015f6101000a81548173ffffffffffffffffffffffffffffffffffffffff021916908373ffffffffffffffffffffffffffffffffffffffff16021790555050565b60015f9054906101000a900473ffffffffffffffffffffffffffffffffffffffff1673ffffffffffffffffffffffffffffffffffffffff163373ffffffffffffffffffffffffffffffffffffffff16146120b0576040517f08c379a00000000000000000000000000000000000000000000000000000000081526004016120a7906150c6565b60405180910390fd5b5f73ffffffffffffffffffffffffffffffffffffffff168173ffffffffffffffffffffffffffffffffffffffff160361211e576040517f08c379a00000000000000000000000000000000000000000000000000000000081526004016121159061512e565b60405180910390fd5b8060035f6101000a81548173ffffffffffffffffffffffffffffffffffffffff021916908373ffffffffffffffffffffffffffffffffffffffff16021790555050565b60605f8383905090505f8167ffffffffffffffff81111561218557612184614879565b5b6040519080825280602002602001820160405280156121be57816020015b6121ab6146a3565b8152602001906001900390816121a35790505b5090505f73ffffffffffffffffffffffffffffffffffffffff168673ffffffffffffffffffffffffffffffffffffffff16036122c2575f5f90505b828110156122bc57604051806040016040528087878481811061221f5761221e6151b2565b5b9050602002016020810190612234919061473c565b73ffffffffffffffffffffffffffffffffffffffff168152602001878784818110612262576122616151b2565b5b9050602002016020810190612277919061473c565b73ffffffffffffffffffffffffffffffffffffffff16318152508282815181106122a4576122a36151b2565b5b602002602001018190525080806001019150506121f9565b506123f1565b5f8690505f5f90505b838110156123ee5760405180604001604052808888848181106122f1576122f06151b2565b5b9050602002016020810190612306919061473c565b73ffffffffffffffffffffffffffffffffffffffff1681526020018373ffffffffffffffffffffffffffffffffffffffff166370a082318a8a868181106123505761234f6151b2565b5b9050602002016020810190612365919061473c565b6040518263ffffffff1660e01b81526004016123819190614776565b602060405180830381865afa15801561239c573d5f5f3e3d5ffd5b505050506040513d601f19601f820116820180604052508101906123c091906158ec565b8152508382815181106123d6576123d56151b2565b5b602002602001018190525080806001019150506122cb565b50505b80925050509392505050565b5f831161243f576040517f08c379a000000000000000000000000000000000000000000000000000000000815260040161243690615702565b60405180910390fd5b5f600167ffffffffffffffff81111561245b5761245a614879565b5b6040519080825280602002602001820160405280156124895781602001602082028036833780820191505090505b5090505f600167ffffffffffffffff8111156124a8576124a7614879565b5b6040519080825280602002602001820160405280156124d65781602001602082028036833780820191505090505b50905085825f815181106124ed576124ec6151b2565b5b602002602001019073ffffffffffffffffffffffffffffffffffffffff16908173ffffffffffffffffffffffffffffffffffffffff168152505084815f8151811061253b5761253a6151b2565b5b60200260200101818152505061255182826133f6565b7f92bfe9b63523d7c8baff8387323dd4c1c8ccd48705d9c91e19160ebcabb053b83387875f5f898960405161258c9796959493929190615a4c565b60405180910390a1505050505050565b6040518060400160405280600581526020017f352e302e3000000000000000000000000000000000000000000000000000000081525081565b60015f9054906101000a900473ffffffffffffffffffffffffffffffffffffffff1673ffffffffffffffffffffffffffffffffffffffff163373ffffffffffffffffffffffffffffffffffffffff1614612664576040517f08c379a000000000000000000000000000000000000000000000000000000000815260040161265b906150c6565b60405180910390fd5b8260055f6101000a81548173ffffffffffffffffffffffffffffffffffffffff021916908373ffffffffffffffffffffffffffffffffffffffff1602179055508160065f6101000a81548173ffffffffffffffffffffffffffffffffffffffff021916908373ffffffffffffffffffffffffffffffffffffffff1602179055508060075f6101000a81548173ffffffffffffffffffffffffffffffffffffffff021916908373ffffffffffffffffffffffffffffffffffffffff160217905550505050565b60015f9054906101000a900473ffffffffffffffffffffffffffffffffffffffff1673ffffffffffffffffffffffffffffffffffffffff163373ffffffffffffffffffffffffffffffffffffffff16146127b8576040517f08c379a00000000000000000000000000000000000000000000000000000000081526004016127af906150c6565b60405180910390fd5b5f73ffffffffffffffffffffffffffffffffffffffff168173ffffffffffffffffffffffffffffffffffffffff1603612826576040517f08c379a000000000000000000000000000000000000000000000000000000000815260040161281d9061512e565b60405180910390fd5b8060045f6101000a81548173ffffffffffffffffffffffffffffffffffffffff021916908373ffffffffffffffffffffffffffffffffffffffff16021790555050565b60055f9054906101000a900473ffffffffffffffffffffffffffffffffffffffff1681565b60085f9054906101000a900473ffffffffffffffffffffffffffffffffffffffff1681565b60075f9054906101000a900473ffffffffffffffffffffffffffffffffffffffff1681565b5f6128e1613f8e565b90505f815f0160089054906101000a900460ff161590505f825f015f9054906101000a900467ffffffffffffffff1690505f5f8267ffffffffffffffff161480156129295750825b90505f60018367ffffffffffffffff1614801561295c57505f3073ffffffffffffffffffffffffffffffffffffffff163b145b90508115801561296a575080155b156129a1576040517ff92ee8a900000000000000000000000000000000000000000000000000000000815260040160405180910390fd5b6001855f015f6101000a81548167ffffffffffffffff021916908367ffffffffffffffff16021790555083156129ee576001855f0160086101000a81548160ff0219169083151502179055505b6129fe6129f9613fa1565b613fa8565b8e60015f6101000a81548173ffffffffffffffffffffffffffffffffffffffff021916908373ffffffffffffffffffffffffffffffffffffffff1602179055508d60035f6101000a81548173ffffffffffffffffffffffffffffffffffffffff021916908373ffffffffffffffffffffffffffffffffffffffff1602179055508c60045f6101000a81548173ffffffffffffffffffffffffffffffffffffffff021916908373ffffffffffffffffffffffffffffffffffffffff1602179055508b60055f6101000a81548173ffffffffffffffffffffffffffffffffffffffff021916908373ffffffffffffffffffffffffffffffffffffffff1602179055508a60065f6101000a81548173ffffffffffffffffffffffffffffffffffffffff021916908373ffffffffffffffffffffffffffffffffffffffff1602179055508960075f6101000a81548173ffffffffffffffffffffffffffffffffffffffff021916908373ffffffffffffffffffffffffffffffffffffffff16021790555088600b5f6101000a81548173ffffffffffffffffffffffffffffffffffffffff021916908373ffffffffffffffffffffffffffffffffffffffff1602179055508760085f6101000a81548173ffffffffffffffffffffffffffffffffffffffff021916908373ffffffffffffffffffffffffffffffffffffffff1602179055508660095f6101000a81548173ffffffffffffffffffffffffffffffffffffffff021916908373ffffffffffffffffffffffffffffffffffffffff16021790555085600a5f6101000a81548173ffffffffffffffffffffffffffffffffffffffff021916908373ffffffffffffffffffffffffffffffffffffffff1602179055508315612cd8575f855f0160086101000a81548160ff0219169083151502179055507fc7f505b2f371ae2175ee4913f4499e1f2633a7b5936321eed1cdaeb6115181d26001604051612ccf9190615b00565b60405180910390a15b505050505050505050505050505050565b73ca143ce32fe78f1f7019d7d551a6402fc5350c7381565b7355d398326f99059ff775485246999027b319795581565b612d2161329e565b5f73ffffffffffffffffffffffffffffffffffffffff168173ffffffffffffffffffffffffffffffffffffffff1603612d91575f6040517f1e4fbdf7000000000000000000000000000000000000000000000000000000008152600401612d889190614776565b60405180910390fd5b612d9a81613325565b50565b60015f9054906101000a900473ffffffffffffffffffffffffffffffffffffffff1681565b7310ed43c718714eb63d5aa57b78b54704e256024e81565b7f000000000000000000000000000000000000000000000000000000000000000073ffffffffffffffffffffffffffffffffffffffff163073ffffffffffffffffffffffffffffffffffffffff161480612e8757507f000000000000000000000000000000000000000000000000000000000000000073ffffffffffffffffffffffffffffffffffffffff16612e6e613fbc565b73ffffffffffffffffffffffffffffffffffffffff1614155b15612ebe576040517fe07c8dba00000000000000000000000000000000000000000000000000000000815260040160405180910390fd5b565b612ec861329e565b50565b8173ffffffffffffffffffffffffffffffffffffffff166352d1902d6040518163ffffffff1660e01b8152600401602060405180830381865afa925050508015612f3357506040513d601f19601f82011682018060405250810190612f309190615b43565b60015b612f7457816040517f4c9c8ce3000000000000000000000000000000000000000000000000000000008152600401612f6b9190614776565b60405180910390fd5b7f360894a13ba1a3210667c828492db98dca3e2076cc3735a920a3ca505d382bbc5f1b8114612fda57806040517faa1d49a4000000000000000000000000000000000000000000000000000000008152600401612fd19190614a0f565b60405180910390fd5b612fe4838361400f565b505050565b7f000000000000000000000000000000000000000000000000000000000000000073ffffffffffffffffffffffffffffffffffffffff163073ffffffffffffffffffffffffffffffffffffffff161461306e576040517fe07c8dba00000000000000000000000000000000000000000000000000000000815260040160405180910390fd5b565b5f5f8573ffffffffffffffffffffffffffffffffffffffff166323b872dd8686866040516024016130a393929190615b6e565b6040516020818303038152906040529060e01b6020820180517bffffffffffffffffffffffffffffffffffffffffffffffffffffffff83818316178352505050506040516130f19190615be7565b5f604051808303815f865af19150503d805f811461312a576040519150601f19603f3d011682016040523d82523d5f602084013e61312f565b606091505b509150915081801561315c57505f8151148061315b57508080602001905181019061315a9190615c32565b5b5b61319b576040517f08c379a000000000000000000000000000000000000000000000000000000000815260040161319290615ccd565b60405180910390fd5b505050505050565b5f8273ffffffffffffffffffffffffffffffffffffffff16825f67ffffffffffffffff8111156131d6576131d5614879565b5b6040519080825280601f01601f1916602001820160405280156132085781602001600182028036833780820191505090505b506040516132169190615be7565b5f6040518083038185875af1925050503d805f8114613250576040519150601f19603f3d011682016040523d82523d5f602084013e613255565b606091505b5050905080613299576040517f08c379a000000000000000000000000000000000000000000000000000000000815260040161329090615d5b565b60405180910390fd5b505050565b6132a6613fa1565b73ffffffffffffffffffffffffffffffffffffffff166132c4611ea0565b73ffffffffffffffffffffffffffffffffffffffff1614613323576132e7613fa1565b6040517f118cdaa700000000000000000000000000000000000000000000000000000000815260040161331a9190614776565b60405180910390fd5b565b5f61332e613f67565b90505f815f015f9054906101000a900473ffffffffffffffffffffffffffffffffffffffff16905082825f015f6101000a81548173ffffffffffffffffffffffffffffffffffffffff021916908373ffffffffffffffffffffffffffffffffffffffff1602179055508273ffffffffffffffffffffffffffffffffffffffff168173ffffffffffffffffffffffffffffffffffffffff167f8be0079c531659141344cd1fd0a4f28419497f9722a3daafe3b4186f6b6457e060405160405180910390a3505050565b6133fe613a9e565b8051825114613442576040517f08c379a000000000000000000000000000000000000000000000000000000000815260040161343990615dc3565b60405180910390fd5b5f5f90505b82518110156139ce575f838281518110613464576134636151b2565b5b602002602001015190505f838381518110613482576134816151b2565b5b602002602001015190505f810361349a5750506139c1565b7355d398326f99059ff775485246999027b319795573ffffffffffffffffffffffffffffffffffffffff168273ffffffffffffffffffffffffffffffffffffffff16036138e9576135017355d398326f99059ff775485246999027b3197955333084613070565b5f60646032836135119190615568565b61351b91906155d6565b90505f606460148461352d9190615568565b61353791906155d6565b90505f81838561354791906153fd565b61355191906153fd565b90505f83111561359c5761359b7355d398326f99059ff775485246999027b319795560055f9054906101000a900473ffffffffffffffffffffffffffffffffffffffff1685614081565b5b5f8211156135e5576135e47355d398326f99059ff775485246999027b319795560075f9054906101000a900473ffffffffffffffffffffffffffffffffffffffff1684614081565b5b5f8111156138df577355d398326f99059ff775485246999027b319795573ffffffffffffffffffffffffffffffffffffffff1663095ea7b37310ed43c718714eb63d5aa57b78b54704e256024e5f6040518363ffffffff1660e01b8152600401613650929190615de1565b6020604051808303815f875af115801561366c573d5f5f3e3d5ffd5b505050506040513d601f19601f820116820180604052508101906136909190615c32565b507355d398326f99059ff775485246999027b319795573ffffffffffffffffffffffffffffffffffffffff1663095ea7b37310ed43c718714eb63d5aa57b78b54704e256024e836040518363ffffffff1660e01b81526004016136f49291906147a7565b6020604051808303815f875af1158015613710573d5f5f3e3d5ffd5b505050506040513d601f19601f820116820180604052508101906137349190615c32565b505f600b5f9054906101000a900473ffffffffffffffffffffffffffffffffffffffff1673ffffffffffffffffffffffffffffffffffffffff166370a08231306040518263ffffffff1660e01b81526004016137909190614776565b602060405180830381865afa1580156137ab573d5f5f3e3d5ffd5b505050506040513d601f19601f820116820180604052508101906137cf91906158ec565b90506137da826141b1565b5f600b5f9054906101000a900473ffffffffffffffffffffffffffffffffffffffff1673ffffffffffffffffffffffffffffffffffffffff166370a08231306040518263ffffffff1660e01b81526004016138359190614776565b602060405180830381865afa158015613850573d5f5f3e3d5ffd5b505050506040513d601f19601f8201168201806040525081019061387491906158ec565b90505f828261388391906153fd565b90505f8111156138db576138da600b5f9054906101000a900473ffffffffffffffffffffffffffffffffffffffff1660065f9054906101000a900473ffffffffffffffffffffffffffffffffffffffff1683614081565b5b5050505b50505050506139c1565b5f73ffffffffffffffffffffffffffffffffffffffff168273ffffffffffffffffffffffffffffffffffffffff1603613991578034101561395f576040517f08c379a000000000000000000000000000000000000000000000000000000000815260040161395690615e52565b60405180910390fd5b61398a60035f9054906101000a900473ffffffffffffffffffffffffffffffffffffffff16826131a3565b50506139c1565b6139be823360035f9054906101000a900473ffffffffffffffffffffffffffffffffffffffff1684613070565b50505b8080600101915050613447565b505f341115613a92575f5f90505f5f90505b8351811015613a6c575f73ffffffffffffffffffffffffffffffffffffffff16848281518110613a1357613a126151b2565b5b602002602001015173ffffffffffffffffffffffffffffffffffffffff1603613a5f57828181518110613a4957613a486151b2565b5b602002602001015182613a5c919061597f565b91505b80806001019150506139e0565b505f8134613a7a91906153fd565b90505f811115613a8f57613a8e33826131a3565b5b50505b613a9a613f5e565b5050565b60025f5403613ad9576040517f3ee5aeb500000000000000000000000000000000000000000000000000000000815260040160405180910390fd5b60025f81905550565b5f5f8473ffffffffffffffffffffffffffffffffffffffff1663095ea7b38585604051602401613b139291906147a7565b6040516020818303038152906040529060e01b6020820180517bffffffffffffffffffffffffffffffffffffffffffffffffffffffff8381831617835250505050604051613b619190615be7565b5f604051808303815f865af19150503d805f8114613b9a576040519150601f19603f3d011682016040523d82523d5f602084013e613b9f565b606091505b5091509150818015613bcc57505f81511480613bcb575080806020019051810190613bca9190615c32565b5b5b613c0b576040517f08c379a0000000000000000000000000000000000000000000000000000000008152600401613c0290615eba565b60405180910390fd5b5050505050565b8173ffffffffffffffffffffffffffffffffffffffff1660095f9054906101000a900473ffffffffffffffffffffffffffffffffffffffff1673ffffffffffffffffffffffffffffffffffffffff16630dfe16816040518163ffffffff1660e01b8152600401602060405180830381865afa158015613c93573d5f5f3e3d5ffd5b505050506040513d601f19601f82011682018060405250810190613cb79190615187565b73ffffffffffffffffffffffffffffffffffffffff161480613d9157508173ffffffffffffffffffffffffffffffffffffffff1660095f9054906101000a900473ffffffffffffffffffffffffffffffffffffffff1673ffffffffffffffffffffffffffffffffffffffff1663d21220a76040518163ffffffff1660e01b8152600401602060405180830381865afa158015613d55573d5f5f3e3d5ffd5b505050506040513d601f19601f82011682018060405250810190613d799190615187565b73ffffffffffffffffffffffffffffffffffffffff16145b613dd0576040517f08c379a0000000000000000000000000000000000000000000000000000000008152600401613dc790615f22565b60405180910390fd5b5f6103e861021a83613de29190615568565b613dec91906155d6565b90505f6103e861016a84613e009190615568565b613e0a91906155d6565b90505f6064600885613e1c9190615568565b613e2691906155d6565b90505f81838587613e3791906153fd565b613e4191906153fd565b613e4b91906153fd565b9050613e798660085f9054906101000a900473ffffffffffffffffffffffffffffffffffffffff1686614081565b613ea58660095f9054906101000a900473ffffffffffffffffffffffffffffffffffffffff1685614081565b60095f9054906101000a900473ffffffffffffffffffffffffffffffffffffffff1673ffffffffffffffffffffffffffffffffffffffff1663fff6cae96040518163ffffffff1660e01b81526004015f604051808303815f87803b158015613f0b575f5ffd5b505af1925050508015613f1c575060015b50613f4986600a5f9054906101000a900473ffffffffffffffffffffffffffffffffffffffff1683614081565b613f568661dead84614081565b505050505050565b60015f81905550565b5f7f9016d09d72d40fdae2fd8ceac6b6234c7706214fd39c1cd1e609a0528c199300905090565b5f5f613f98614356565b90508091505090565b5f33905090565b613fb061437f565b613fb9816143bf565b50565b5f613fe87f360894a13ba1a3210667c828492db98dca3e2076cc3735a920a3ca505d382bbc5f1b614443565b5f015f9054906101000a900473ffffffffffffffffffffffffffffffffffffffff16905090565b6140188261444c565b8173ffffffffffffffffffffffffffffffffffffffff167fbc7cd75a20ee27fd9adebab32041f755214dbc6bffa90cc0225b39da2e5c2d3b60405160405180910390a25f815111156140745761406e8282614515565b5061407d565b61407c614606565b5b5050565b5f5f8473ffffffffffffffffffffffffffffffffffffffff1663a9059cbb85856040516024016140b29291906147a7565b6040516020818303038152906040529060e01b6020820180517bffffffffffffffffffffffffffffffffffffffffffffffffffffffff83818316178352505050506040516141009190615be7565b5f604051808303815f865af19150503d805f8114614139576040519150601f19603f3d011682016040523d82523d5f602084013e61413e565b606091505b509150915081801561416b57505f8151148061416a5750808060200190518101906141699190615c32565b5b5b6141aa576040517f08c379a00000000000000000000000000000000000000000000000000000000081526004016141a190615f8a565b60405180910390fd5b5050505050565b5f600267ffffffffffffffff8111156141cd576141cc614879565b5b6040519080825280602002602001820160405280156141fb5781602001602082028036833780820191505090505b5090507355d398326f99059ff775485246999027b3197955815f81518110614226576142256151b2565b5b602002602001019073ffffffffffffffffffffffffffffffffffffffff16908173ffffffffffffffffffffffffffffffffffffffff1681525050600b5f9054906101000a900473ffffffffffffffffffffffffffffffffffffffff1681600181518110614296576142956151b2565b5b602002602001019073ffffffffffffffffffffffffffffffffffffffff16908173ffffffffffffffffffffffffffffffffffffffff16815250507310ed43c718714eb63d5aa57b78b54704e256024e73ffffffffffffffffffffffffffffffffffffffff16635c11d795835f8430426040518663ffffffff1660e01b81526004016143259594939291906159f4565b5f604051808303815f87803b15801561433c575f5ffd5b505af115801561434e573d5f5f3e3d5ffd5b505050505050565b5f7ff0c57e16840df040f15088dc2f81fe391c3923bec73e23a9662efc9c229c6a005f1b905090565b614387614642565b6143bd576040517fd7e6bcf800000000000000000000000000000000000000000000000000000000815260040160405180910390fd5b565b6143c761437f565b5f73ffffffffffffffffffffffffffffffffffffffff168173ffffffffffffffffffffffffffffffffffffffff1603614437575f6040517f1e4fbdf700000000000000000000000000000000000000000000000000000000815260040161442e9190614776565b60405180910390fd5b61444081613325565b50565b5f819050919050565b5f8173ffffffffffffffffffffffffffffffffffffffff163b036144a757806040517f4c9c8ce300000000000000000000000000000000000000000000000000000000815260040161449e9190614776565b60405180910390fd5b806144d37f360894a13ba1a3210667c828492db98dca3e2076cc3735a920a3ca505d382bbc5f1b614443565b5f015f6101000a81548173ffffffffffffffffffffffffffffffffffffffff021916908373ffffffffffffffffffffffffffffffffffffffff16021790555050565b60605f6145228484614660565b905080801561455857505f614535614674565b118061455757505f8473ffffffffffffffffffffffffffffffffffffffff163b115b5b1561456d5761456561467b565b915050614600565b80156145b057836040517f9996b3150000000000000000000000000000000000000000000000000000000081526004016145a79190614776565b60405180910390fd5b5f6145b9614674565b11156145cc576145c7614698565b6145fe565b6040517fd6bda27500000000000000000000000000000000000000000000000000000000815260040160405180910390fd5b505b92915050565b5f341115614640576040517fb398979f00000000000000000000000000000000000000000000000000000000815260040160405180910390fd5b565b5f61464b613f8e565b5f0160089054906101000a900460ff16905090565b5f5f5f835160208501865af4905092915050565b5f3d905090565b606060405190503d81523d5f602083013e3d602001810160405290565b6040513d5f823e3d81fd5b60405180604001604052805f73ffffffffffffffffffffffffffffffffffffffff1681526020015f81525090565b5f604051905090565b5f5ffd5b5f5ffd5b5f73ffffffffffffffffffffffffffffffffffffffff82169050919050565b5f61470b826146e2565b9050919050565b61471b81614701565b8114614725575f5ffd5b50565b5f8135905061473681614712565b92915050565b5f60208284031215614751576147506146da565b5b5f61475e84828501614728565b91505092915050565b61477081614701565b82525050565b5f6020820190506147895f830184614767565b92915050565b5f819050919050565b6147a18161478f565b82525050565b5f6040820190506147ba5f830185614767565b6147c76020830184614798565b9392505050565b6147d78161478f565b81146147e1575f5ffd5b50565b5f813590506147f2816147ce565b92915050565b5f5f5f6060848603121561480f5761480e6146da565b5b5f61481c86828701614728565b935050602061482d86828701614728565b925050604061483e868287016147e4565b9150509250925092565b5f60208201905061485b5f830184614798565b92915050565b5f5ffd5b5f5ffd5b5f601f19601f8301169050919050565b7f4e487b71000000000000000000000000000000000000000000000000000000005f52604160045260245ffd5b6148af82614869565b810181811067ffffffffffffffff821117156148ce576148cd614879565b5b80604052505050565b5f6148e06146d1565b90506148ec82826148a6565b919050565b5f67ffffffffffffffff82111561490b5761490a614879565b5b61491482614869565b9050602081019050919050565b828183375f83830152505050565b5f61494161493c846148f1565b6148d7565b90508281526020810184848401111561495d5761495c614865565b5b614968848285614921565b509392505050565b5f82601f83011261498457614983614861565b5b813561499484826020860161492f565b91505092915050565b5f5f604083850312156149b3576149b26146da565b5b5f6149c085828601614728565b925050602083013567ffffffffffffffff8111156149e1576149e06146de565b5b6149ed85828601614970565b9150509250929050565b5f819050919050565b614a09816149f7565b82525050565b5f602082019050614a225f830184614a00565b92915050565b5f67ffffffffffffffff821115614a4257614a41614879565b5b614a4b82614869565b9050602081019050919050565b5f614a6a614a6584614a28565b6148d7565b905082815260208101848484011115614a8657614a85614865565b5b614a91848285614921565b509392505050565b5f82601f830112614aad57614aac614861565b5b8135614abd848260208601614a58565b91505092915050565b5f5f5f5f60808587031215614ade57614add6146da565b5b5f85013567ffffffffffffffff811115614afb57614afa6146de565b5b614b0787828801614a99565b9450506020614b1887828801614728565b9350506040614b29878288016147e4565b9250506060614b3a87828801614728565b91505092959194509250565b5f5ffd5b5f5ffd5b5f5f83601f840112614b6357614b62614861565b5b8235905067ffffffffffffffff811115614b8057614b7f614b46565b5b602083019150836001820283011115614b9c57614b9b614b4a565b5b9250929050565b5f5f5f5f5f5f60a08789031215614bbd57614bbc6146da565b5b5f614bca89828a01614728565b9650506020614bdb89828a016147e4565b9550506040614bec89828a01614728565b9450506060614bfd89828a016147e4565b935050608087013567ffffffffffffffff811115614c1e57614c1d6146de565b5b614c2a89828a01614b4e565b92509250509295509295509295565b5f5f5f5f60808587031215614c5157614c506146da565b5b5f614c5e87828801614728565b9450506020614c6f87828801614728565b9350506040614c8087828801614728565b9250506060614c91878288016147e4565b91505092959194509250565b5f5f83601f840112614cb257614cb1614861565b5b8235905067ffffffffffffffff811115614ccf57614cce614b46565b5b602083019150836020820283011115614ceb57614cea614b4a565b5b9250929050565b5f5f5f60408486031215614d0957614d086146da565b5b5f614d1686828701614728565b935050602084013567ffffffffffffffff811115614d3757614d366146de565b5b614d4386828701614c9d565b92509250509250925092565b5f81519050919050565b5f82825260208201905092915050565b5f819050602082019050919050565b614d8181614701565b82525050565b614d908161478f565b82525050565b604082015f820151614daa5f850182614d78565b506020820151614dbd6020850182614d87565b50505050565b5f614dce8383614d96565b60408301905092915050565b5f602082019050919050565b5f614df082614d4f565b614dfa8185614d59565b9350614e0583614d69565b805f5b83811015614e35578151614e1c8882614dc3565b9750614e2783614dda565b925050600181019050614e08565b5085935050505092915050565b5f6020820190508181035f830152614e5a8184614de6565b905092915050565b5f5f5f5f60608587031215614e7a57614e796146da565b5b5f614e8787828801614728565b9450506020614e98878288016147e4565b935050604085013567ffffffffffffffff811115614eb957614eb86146de565b5b614ec587828801614b4e565b925092505092959194509250565b5f81519050919050565b5f82825260208201905092915050565b8281835e5f83830152505050565b5f614f0582614ed3565b614f0f8185614edd565b9350614f1f818560208601614eed565b614f2881614869565b840191505092915050565b5f6020820190508181035f830152614f4b8184614efb565b905092915050565b5f5f5f60608486031215614f6a57614f696146da565b5b5f614f7786828701614728565b9350506020614f8886828701614728565b9250506040614f9986828701614728565b9150509250925092565b5f5f5f5f5f5f5f5f5f5f6101408b8d031215614fc257614fc16146da565b5b5f614fcf8d828e01614728565b9a50506020614fe08d828e01614728565b9950506040614ff18d828e01614728565b98505060606150028d828e01614728565b97505060806150138d828e01614728565b96505060a06150248d828e01614728565b95505060c06150358d828e01614728565b94505060e06150468d828e01614728565b9350506101006150588d828e01614728565b92505061012061506a8d828e01614728565b9150509295989b9194979a5092959850565b7f4552524f525f41444d494e2e00000000000000000000000000000000000000005f82015250565b5f6150b0600c83614edd565b91506150bb8261507c565b602082019050919050565b5f6020820190508181035f8301526150dd816150a4565b9050919050565b7f5a45524f5f414444524553532e000000000000000000000000000000000000005f82015250565b5f615118600d83614edd565b9150615123826150e4565b602082019050919050565b5f6020820190508181035f8301526151458161510c565b9050919050565b5f60408201905061515f5f830185614767565b61516c6020830184614767565b9392505050565b5f8151905061518181614712565b92915050565b5f6020828403121561519c5761519b6146da565b5b5f6151a984828501615173565b91505092915050565b7f4e487b71000000000000000000000000000000000000000000000000000000005f52603260045260245ffd5b5f81519050919050565b5f82825260208201905092915050565b5f819050602082019050919050565b5f6152138383614d78565b60208301905092915050565b5f602082019050919050565b5f615235826151df565b61523f81856151e9565b935061524a836151f9565b805f5b8381101561527a5781516152618882615208565b975061526c8361521f565b92505060018101905061524d565b5085935050505092915050565b5f60408201905061529a5f830185614798565b81810360208301526152ac818461522b565b90509392505050565b5f67ffffffffffffffff8211156152cf576152ce614879565b5b602082029050602081019050919050565b5f815190506152ee816147ce565b92915050565b5f615306615301846152b5565b6148d7565b9050808382526020820190506020840283018581111561532957615328614b4a565b5b835b81811015615352578061533e88826152e0565b84526020840193505060208101905061532b565b5050509392505050565b5f82601f8301126153705761536f614861565b5b81516153808482602086016152f4565b91505092915050565b5f6020828403121561539e5761539d6146da565b5b5f82015167ffffffffffffffff8111156153bb576153ba6146de565b5b6153c78482850161535c565b91505092915050565b7f4e487b71000000000000000000000000000000000000000000000000000000005f52601160045260245ffd5b5f6154078261478f565b91506154128361478f565b925082820390508181111561542a576154296153d0565b5b92915050565b7f5a45524f5f4f524947494e414c000000000000000000000000000000000000005f82015250565b5f615464600d83614edd565b915061546f82615430565b602082019050919050565b5f6020820190508181035f83015261549181615458565b9050919050565b7f5a45524f5f5441524745540000000000000000000000000000000000000000005f82015250565b5f6154cc600b83614edd565b91506154d782615498565b602082019050919050565b5f6020820190508181035f8301526154f9816154c0565b9050919050565b7f5a45524f5f5441524745545f414d4f554e5400000000000000000000000000005f82015250565b5f615534601283614edd565b915061553f82615500565b602082019050919050565b5f6020820190508181035f83015261556181615528565b9050919050565b5f6155728261478f565b915061557d8361478f565b925082820261558b8161478f565b915082820484148315176155a2576155a16153d0565b5b5092915050565b7f4e487b71000000000000000000000000000000000000000000000000000000005f52601260045260245ffd5b5f6155e08261478f565b91506155eb8361478f565b9250826155fb576155fa6155a9565b5b828204905092915050565b7f4552524f525f414d4f554e542e000000000000000000000000000000000000005f82015250565b5f61563a600d83614edd565b915061564582615606565b602082019050919050565b5f6020820190508181035f8301526156678161562e565b9050919050565b5f6080820190508181035f8301526156868187614efb565b90506156956020830186614767565b6156a26040830185614767565b6156af6060830184614798565b95945050505050565b7f4552524f525f414d4f554e5400000000000000000000000000000000000000005f82015250565b5f6156ec600c83614edd565b91506156f7826156b8565b602082019050919050565b5f6020820190508181035f830152615719816156e0565b9050919050565b5f61572b8385614edd565b9350615738838584614921565b61574183614869565b840190509392505050565b5f60c08201905061575f5f83018a614767565b61576c6020830189614767565b6157796040830188614798565b6157866060830187614767565b6157936080830186614798565b81810360a08301526157a6818486615720565b905098975050505050505050565b7f4552524f525f414444524553532e0000000000000000000000000000000000005f82015250565b5f6157e8600e83614edd565b91506157f3826157b4565b602082019050919050565b5f6020820190508181035f830152615815816157dc565b9050919050565b7f504149525f4e4f545f45584953540000000000000000000000000000000000005f82015250565b5f615850600e83614edd565b915061585b8261581c565b602082019050919050565b5f6020820190508181035f83015261587d81615844565b9050919050565b7f5a45524f5f4f524947494e414c5f414d4f554e540000000000000000000000005f82015250565b5f6158b8601483614edd565b91506158c382615884565b602082019050919050565b5f6020820190508181035f8301526158e5816158ac565b9050919050565b5f60208284031215615901576159006146da565b5b5f61590e848285016152e0565b91505092915050565b7f494e53554646494349454e545f524543454956454400000000000000000000005f82015250565b5f61594b601583614edd565b915061595682615917565b602082019050919050565b5f6020820190508181035f8301526159788161593f565b9050919050565b5f6159898261478f565b91506159948361478f565b92508282019050808211156159ac576159ab6153d0565b5b92915050565b5f819050919050565b5f819050919050565b5f6159de6159d96159d4846159b2565b6159bb565b61478f565b9050919050565b6159ee816159c4565b82525050565b5f60a082019050615a075f830188614798565b615a1460208301876159e5565b8181036040830152615a26818661522b565b9050615a356060830185614767565b615a426080830184614798565b9695505050505050565b5f60c082019050615a5f5f83018a614767565b615a6c6020830189614767565b615a796040830188614798565b615a866060830187614767565b615a9360808301866159e5565b81810360a0830152615aa6818486615720565b905098975050505050505050565b5f819050919050565b5f67ffffffffffffffff82169050919050565b5f615aea615ae5615ae084615ab4565b6159bb565b615abd565b9050919050565b615afa81615ad0565b82525050565b5f602082019050615b135f830184615af1565b92915050565b615b22816149f7565b8114615b2c575f5ffd5b50565b5f81519050615b3d81615b19565b92915050565b5f60208284031215615b5857615b576146da565b5b5f615b6584828501615b2f565b91505092915050565b5f606082019050615b815f830186614767565b615b8e6020830185614767565b615b9b6040830184614798565b949350505050565b5f81519050919050565b5f81905092915050565b5f615bc182615ba3565b615bcb8185615bad565b9350615bdb818560208601614eed565b80840191505092915050565b5f615bf28284615bb7565b915081905092915050565b5f8115159050919050565b615c1181615bfd565b8114615c1b575f5ffd5b50565b5f81519050615c2c81615c08565b92915050565b5f60208284031215615c4757615c466146da565b5b5f615c5484828501615c1e565b91505092915050565b7f5472616e7366657248656c7065723a205452414e534645525f46524f4d5f46415f8201527f494c454400000000000000000000000000000000000000000000000000000000602082015250565b5f615cb7602483614edd565b9150615cc282615c5d565b604082019050919050565b5f6020820190508181035f830152615ce481615cab565b9050919050565b7f5472616e7366657248656c7065723a204554485f5452414e534645525f4641495f8201527f4c45440000000000000000000000000000000000000000000000000000000000602082015250565b5f615d45602383614edd565b9150615d5082615ceb565b604082019050919050565b5f6020820190508181035f830152615d7281615d39565b9050919050565b7f4d49534d415443485f4c454e47544800000000000000000000000000000000005f82015250565b5f615dad600f83614edd565b9150615db882615d79565b602082019050919050565b5f6020820190508181035f830152615dda81615da1565b9050919050565b5f604082019050615df45f830185614767565b615e0160208301846159e5565b9392505050565b7f4552524f525f50415941424c455f414d4f554e540000000000000000000000005f82015250565b5f615e3c601483614edd565b9150615e4782615e08565b602082019050919050565b5f6020820190508181035f830152615e6981615e30565b9050919050565b7f5472616e7366657248656c7065723a20415050524f56455f4641494c454400005f82015250565b5f615ea4601e83614edd565b9150615eaf82615e70565b602082019050919050565b5f6020820190508181035f830152615ed181615e98565b9050919050565b7f504149525f4e4f545f4d415443485f54415247455400000000000000000000005f82015250565b5f615f0c601583614edd565b9150615f1782615ed8565b602082019050919050565b5f6020820190508181035f830152615f3981615f00565b9050919050565b7f5472616e7366657248656c7065723a205452414e534645525f4641494c4544005f82015250565b5f615f74601f83614edd565b9150615f7f82615f40565b602082019050919050565b5f6020820190508181035f830152615fa181615f68565b905091905056fea2646970667358221220866ed1d3dafb1da51e1ed03abd46d87e80459d2bbd2bf94ea54013066555822f64736f6c634300081e0033","linkReferences":{}},"methodIdentifiers":{"BUY_BACK_RATE()":"5a461750","UPGRADE_INTERFACE_VERSION()":"ad3cb1cc","USDT()":"c54e44eb","WBNB()":"8dd95002","admin()":"f851a440","buyBackPercent2()":"43252bf3","buyBackPercent362()":"617fe173","buyBackPercent538()":"bec3ac33","carryOutBuyback(address,address,address,uint256)":"7fd6dc7a","changeAdmin(address)":"8f283970","changeOperator(address)":"06394c9b","changeRechargePercent(address,address,address)":"b0d51091","changeRecipient(address)":"92c2bcb4","changeSender(address)":"b280a7e7","dead()":"36cf7c87","factory()":"c45a0155","getAmountOut(address,address,uint256)":"4aa06652","getPrice(address)":"41976e09","initialize(address,address,address,address,address,address,address,address,address,address)":"c306b378","multiBalanceOf(address,address[])":"9f166cf1","multiRecharge(address,uint256,address,uint256,string)":"73abf0af","operator()":"570ca735","owner()":"8da5cb5b","proxiableUUID()":"52d1902d","rechargePercent20()":"bf2647f2","rechargePercent30()":"2cd89ff2","rechargePercent50()":"baad38d5","recipient()":"66d003ac","renounceOwnership()":"715018a6","router()":"f887ea40","sender()":"67e404ce","singleRecharge(address,uint256,string)":"aa7e7eb9","skp()":"45348946","transferOwnership(address)":"f2fde38b","upgradeToAndCall(address,bytes)":"4f1ef286","withdraw(string,address,uint256,address)":"62a33811"},"id":38}