{"abi":[{"type":"receive","stateMutability":"payable"},{"type":"function","name":"BUY_BACK_RATE","inputs":[],"outputs":[{"name":"","type":"uint256","internalType":"uint256"}],"stateMutability":"view"},{"type":"function","name":"UPGRADE_INTERFACE_VERSION","inputs":[],"outputs":[{"name":"","type":"string","internalType":"string"}],"stateMutability":"view"},{"type":"function","name":"USDT","inputs":[],"outputs":[{"name":"","type":"address","internalType":"address"}],"stateMutability":"view"},{"type":"function","name":"WBNB","inputs":[],"outputs":[{"name":"","type":"address","internalType":"address"}],"stateMutability":"view"},{"type":"function","name":"admin","inputs":[],"outputs":[{"name":"","type":"address","internalType":"address"}],"stateMutability":"view"},{"type":"function","name":"buyBackPercent2","inputs":[],"outputs":[{"name":"","type":"address","internalType":"address"}],"stateMutability":"view"},{"type":"function","name":"buyBackPercent362","inputs":[],"outputs":[{"name":"","type":"address","internalType":"address"}],"stateMutability":"view"},{"type":"function","name":"buyBackPercent538","inputs":[],"outputs":[{"name":"","type":"address","internalType":"address"}],"stateMutability":"view"},{"type":"function","name":"carryOutBuyback","inputs":[{"name":"original","type":"address","internalType":"address"},{"name":"target","type":"address","internalType":"address"},{"name":"from","type":"address","internalType":"address"},{"name":"targetAmount","type":"uint256","internalType":"uint256"}],"outputs":[],"stateMutability":"nonpayable"},{"type":"function","name":"changeAdmin","inputs":[{"name":"_newAdmin","type":"address","internalType":"address"}],"outputs":[],"stateMutability":"nonpayable"},{"type":"function","name":"changeOperator","inputs":[{"name":"_newOperator","type":"address","internalType":"address"}],"outputs":[],"stateMutability":"nonpayable"},{"type":"function","name":"changeRechargePercent","inputs":[{"name":"_percent50","type":"address","internalType":"address"},{"name":"_percent30","type":"address","internalType":"address"},{"name":"_percent20","type":"address","internalType":"address"}],"outputs":[],"stateMutability":"nonpayable"},{"type":"function","name":"changeRecipient","inputs":[{"name":"_newRecipient","type":"address","internalType":"address"}],"outputs":[],"stateMutability":"nonpayable"},{"type":"function","name":"changeSender","inputs":[{"name":"_newSender","type":"address","internalType":"address"}],"outputs":[],"stateMutability":"nonpayable"},{"type":"function","name":"dead","inputs":[],"outputs":[{"name":"","type":"address","internalType":"address"}],"stateMutability":"view"},{"type":"function","name":"factory","inputs":[],"outputs":[{"name":"","type":"address","internalType":"address"}],"stateMutability":"view"},{"type":"function","name":"getAmountOut","inputs":[{"name":"original","type":"address","internalType":"address"},{"name":"target","type":"address","internalType":"address"},{"name":"targetAmount","type":"uint256","internalType":"uint256"}],"outputs":[{"name":"originalAmount","type":"uint256","internalType":"uint256"}],"stateMutability":"view"},{"type":"function","name":"getPrice","inputs":[{"name":"token","type":"address","internalType":"address"}],"outputs":[{"name":"","type":"address","internalType":"address"},{"name":"","type":"uint256","internalType":"uint256"}],"stateMutability":"view"},{"type":"function","name":"initialize","inputs":[{"name":"_admin","type":"address","internalType":"address"},{"name":"_recipient","type":"address","internalType":"address"},{"name":"_sender","type":"address","internalType":"address"},{"name":"_percent50","type":"address","internalType":"address"},{"name":"_percent30","type":"address","internalType":"address"},{"name":"_percent20","type":"address","internalType":"address"},{"name":"_skp","type":"address","internalType":"address"},{"name":"_buyBackPercent538","type":"address","internalType":"address"},{"name":"_buyBackPercent362","type":"address","internalType":"address"},{"name":"_buyBackPercent2","type":"address","internalType":"address"}],"outputs":[],"stateMutability":"nonpayable"},{"type":"function","name":"multiBalanceOf","inputs":[{"name":"token","type":"address","internalType":"address"},{"name":"users","type":"address[]","internalType":"address[]"}],"outputs":[{"name":"","type":"tuple[]","internalType":"struct Recharge.Info[]","components":[{"name":"user","type":"address","internalType":"address"},{"name":"amount","type":"uint256","internalType":"uint256"}]}],"stateMutability":"view"},{"type":"function","name":"multiRecharge","inputs":[{"name":"token0","type":"address","internalType":"address"},{"name":"amount0","type":"uint256","internalType":"uint256"},{"name":"token1","type":"address","internalType":"address"},{"name":"amount1","type":"uint256","internalType":"uint256"},{"name":"remark","type":"string","internalType":"string"}],"outputs":[],"stateMutability":"payable"},{"type":"function","name":"operator","inputs":[],"outputs":[{"name":"","type":"address","internalType":"address"}],"stateMutability":"view"},{"type":"function","name":"owner","inputs":[],"outputs":[{"name":"","type":"address","internalType":"address"}],"stateMutability":"view"},{"type":"function","name":"proxiableUUID","inputs":[],"outputs":[{"name":"","type":"bytes32","internalType":"bytes32"}],"stateMutability":"view"},{"type":"function","name":"rechargePercent20","inputs":[],"outputs":[{"name":"","type":"address","internalType":"address"}],"stateMutability":"view"},{"type":"function","name":"rechargePercent30","inputs":[],"outputs":[{"name":"","type":"address","internalType":"address"}],"stateMutability":"view"},{"type":"function","name":"rechargePercent50","inputs":[],"outputs":[{"name":"","type":"address","internalType":"address"}],"stateMutability":"view"},{"type":"function","name":"recipient","inputs":[],"outputs":[{"name":"","type":"address","internalType":"address"}],"stateMutability":"view"},{"type":"function","name":"renounceOwnership","inputs":[],"outputs":[],"stateMutability":"nonpayable"},{"type":"function","name":"router","inputs":[],"outputs":[{"name":"","type":"address","internalType":"address"}],"stateMutability":"view"},{"type":"function","name":"sender","inputs":[],"outputs":[{"name":"","type":"address","internalType":"address"}],"stateMutability":"view"},{"type":"function","name":"singleRecharge","inputs":[{"name":"token","type":"address","internalType":"address"},{"name":"amount","type":"uint256","internalType":"uint256"},{"name":"remark","type":"string","internalType":"string"}],"outputs":[],"stateMutability":"payable"},{"type":"function","name":"skp","inputs":[],"outputs":[{"name":"","type":"address","internalType":"address"}],"stateMutability":"view"},{"type":"function","name":"supportPrice","inputs":[{"name":"resultToken","type":"address","internalType":"address"},{"name":"from","type":"address","internalType":"address"},{"name":"to","type":"address","internalType":"address"},{"name":"amount","type":"uint256","internalType":"uint256"}],"outputs":[],"stateMutability":"nonpayable"},{"type":"function","name":"transferOwnership","inputs":[{"name":"newOwner","type":"address","internalType":"address"}],"outputs":[],"stateMutability":"nonpayable"},{"type":"function","name":"upgradeToAndCall","inputs":[{"name":"newImplementation","type":"address","internalType":"address"},{"name":"data","type":"bytes","internalType":"bytes"}],"outputs":[],"stateMutability":"payable"},{"type":"function","name":"withdraw","inputs":[{"name":"remark","type":"string","internalType":"string"},{"name":"token","type":"address","internalType":"address"},{"name":"amount","type":"uint256","internalType":"uint256"},{"name":"to","type":"address","internalType":"address"}],"outputs":[],"stateMutability":"nonpayable"},{"type":"event","name":"AdminshipTransferred","inputs":[{"name":"previousAdmin","type":"address","indexed":true,"internalType":"address"},{"name":"newAdmin","type":"address","indexed":true,"internalType":"address"}],"anonymous":false},{"type":"event","name":"Initialized","inputs":[{"name":"version","type":"uint64","indexed":false,"internalType":"uint64"}],"anonymous":false},{"type":"event","name":"MultiRecharge","inputs":[{"name":"user","type":"address","indexed":false,"internalType":"address"},{"name":"token0","type":"address","indexed":false,"internalType":"address"},{"name":"amount0","type":"uint256","indexed":false,"internalType":"uint256"},{"name":"token1","type":"address","indexed":false,"internalType":"address"},{"name":"amount1","type":"uint256","indexed":false,"internalType":"uint256"},{"name":"remark","type":"string","indexed":false,"internalType":"string"}],"anonymous":false},{"type":"event","name":"OwnershipTransferred","inputs":[{"name":"previousOwner","type":"address","indexed":true,"internalType":"address"},{"name":"newOwner","type":"address","indexed":true,"internalType":"address"}],"anonymous":false},{"type":"event","name":"Upgraded","inputs":[{"name":"implementation","type":"address","indexed":true,"internalType":"address"}],"anonymous":false},{"type":"event","name":"Withdraw","inputs":[{"name":"remark","type":"string","indexed":false,"internalType":"string"},{"name":"token","type":"address","indexed":false,"internalType":"address"},{"name":"to","type":"address","indexed":false,"internalType":"address"},{"name":"amount","type":"uint256","indexed":false,"internalType":"uint256"}],"anonymous":false},{"type":"error","name":"AddressEmptyCode","inputs":[{"name":"target","type":"address","internalType":"address"}]},{"type":"error","name":"ERC1967InvalidImplementation","inputs":[{"name":"implementation","type":"address","internalType":"address"}]},{"type":"error","name":"ERC1967NonPayable","inputs":[]},{"type":"error","name":"FailedCall","inputs":[]},{"type":"error","name":"InvalidInitialization","inputs":[]},{"type":"error","name":"NotInitializing","inputs":[]},{"type":"error","name":"OwnableInvalidOwner","inputs":[{"name":"owner","type":"address","internalType":"address"}]},{"type":"error","name":"OwnableUnauthorizedAccount","inputs":[{"name":"account","type":"address","internalType":"address"}]},{"type":"error","name":"ReentrancyGuardReentrantCall","inputs":[]},{"type":"error","name":"UUPSUnauthorizedCallContext","inputs":[]},{"type":"error","name":"UUPSUnsupportedProxiableUUID","inputs":[{"name":"slot","type":"bytes32","internalType":"bytes32"}]}],"bytecode":{"object":"0x60a0604052306080523480156012575f5ffd5b5060015f55608051613e2861003d5f395f81816126150152818161263e01526127820152613e285ff3fe608060405260043610610215575f3560e01c80637fd6dc7a1161011e578063b280a7e7116100a8578063c45a01551161006d578063c45a01551461064d578063c54e44eb14610674578063f2fde38b14610694578063f851a440146106b3578063f887ea40146106d2575f5ffd5b8063b280a7e7146105b2578063baad38d5146105d1578063bec3ac33146105f0578063bf2647f21461060f578063c306b3781461062e575f5ffd5b806392c2bcb4116100ee57806392c2bcb4146104f85780639f166cf114610517578063aa7e7eb914610543578063ad3cb1cc14610556578063b0d5109114610593575f5ffd5b80637fd6dc7a146104575780638da5cb5b146104765780638dd95002146104b25780638f283970146104d9575f5ffd5b806352d1902d1161019f57806362a338111161016f57806362a33811146103d357806366d003ac146103f257806367e404ce14610411578063715018a61461043057806373abf0af14610444575f5ffd5b806352d1902d1461036d578063570ca735146103815780635a461750146103a0578063617fe173146103b4575f5ffd5b806341976e09116101e557806341976e09146102b157806343252bf3146102ef578063453489461461030e5780634aa066521461032d5780634f1ef2861461035a575f5ffd5b806306394c9b146102205780632cd89ff21461024157806336cf7c871461027d5780633f15764f14610292575f5ffd5b3661021c57005b5f5ffd5b34801561022b575f5ffd5b5061023f61023a36600461350c565b6106f2565b005b34801561024c575f5ffd5b50600654610260906001600160a01b031681565b6040516001600160a01b0390911681526020015b60405180910390f35b348015610288575f5ffd5b5061026061dead81565b34801561029d575f5ffd5b5061023f6102ac36600461352e565b61076d565b3480156102bc575f5ffd5b506102d06102cb36600461350c565b610a5a565b604080516001600160a01b039093168352602083019190915201610274565b3480156102fa575f5ffd5b50600a54610260906001600160a01b031681565b348015610319575f5ffd5b50600b54610260906001600160a01b031681565b348015610338575f5ffd5b5061034c61034736600461357c565b610e60565b604051908152602001610274565b61023f610368366004613656565b61105f565b348015610378575f5ffd5b5061034c61107e565b34801561038c575f5ffd5b50600254610260906001600160a01b031681565b3480156103ab575f5ffd5b5061034c606981565b3480156103bf575f5ffd5b50600954610260906001600160a01b031681565b3480156103de575f5ffd5b5061023f6103ed3660046136b5565b611099565b3480156103fd575f5ffd5b50600354610260906001600160a01b031681565b34801561041c575f5ffd5b50600454610260906001600160a01b031681565b34801561043b575f5ffd5b5061023f61117c565b61023f610452366004613773565b61118f565b348015610462575f5ffd5b5061023f61047136600461352e565b611317565b348015610481575f5ffd5b507f9016d09d72d40fdae2fd8ceac6b6234c7706214fd39c1cd1e609a0528c199300546001600160a01b0316610260565b3480156104bd575f5ffd5b5061026073bb4cdb9cbd36b01bd1cbaebf2de08d9173bc095c81565b3480156104e4575f5ffd5b5061023f6104f336600461350c565b611ad6565b348015610503575f5ffd5b5061023f61051236600461350c565b611b5f565b348015610522575f5ffd5b506105366105313660046137e9565b611bd1565b604051610274919061386a565b61023f6105513660046138c1565b611e06565b348015610561575f5ffd5b50610586604051806040016040528060058152602001640352e302e360dc1b81525081565b6040516102749190613946565b34801561059e575f5ffd5b5061023f6105ad366004613958565b611f2e565b3480156105bd575f5ffd5b5061023f6105cc36600461350c565b611f97565b3480156105dc575f5ffd5b50600554610260906001600160a01b031681565b3480156105fb575f5ffd5b50600854610260906001600160a01b031681565b34801561061a575f5ffd5b50600754610260906001600160a01b031681565b348015610639575f5ffd5b5061023f6106483660046139a0565b612009565b348015610658575f5ffd5b5061026073ca143ce32fe78f1f7019d7d551a6402fc5350c7381565b34801561067f575f5ffd5b506102605f516020613dd35f395f51905f5281565b34801561069f575f5ffd5b5061023f6106ae36600461350c565b612285565b3480156106be575f5ffd5b50600154610260906001600160a01b031681565b3480156106dd575f5ffd5b506102605f516020613d935f395f51905f5281565b6001546001600160a01b031633146107255760405162461bcd60e51b815260040161071c90613a66565b60405180910390fd5b6001600160a01b03811661074b5760405162461bcd60e51b815260040161071c90613a8c565b600280546001600160a01b0319166001600160a01b0392909216919091179055565b6001546001600160a01b031633146107975760405162461bcd60e51b815260040161071c90613a66565b6001600160a01b0383166107dc5760405162461bcd60e51b815260206004820152600c60248201526b5a45524f5f4144445245535360a01b604482015260640161071c565b7355d398326f99059ff775485246999027b3197954196001600160a01b0385160161083f5760405162461bcd60e51b815260206004820152601360248201527222a92927a92fa922a9aaa62a2faa27a5a2a71760691b604482015260640161071c565b5f811161087f5760405162461bcd60e51b815260206004820152600e60248201526d1253959053125117d05353d5539560921b604482015260640161071c565b6108985f516020613dd35f395f51905f528430846122c2565b6108bd5f516020613dd35f395f51905f525f516020613d935f395f51905f525f6123e5565b6108e25f516020613dd35f395f51905f525f516020613d935f395f51905f52836123e5565b6040805160028082526060820183525f926020830190803683370190505090505f516020613dd35f395f51905f52815f8151811061092257610922613ab3565b60200260200101906001600160a01b031690816001600160a01b031681525050848160018151811061095657610956613ab3565b6001600160a01b03909216602092830291909101909101525f516020613d935f395f51905f52635c11d795835f843061099042600a613adb565b6040518663ffffffff1660e01b81526004016109b0959493929190613b31565b5f604051808303815f87803b1580156109c7575f5ffd5b505af11580156109d9573d5f5f3e3d5ffd5b50506040516370a0823160e01b81523060048201525f92506001600160a01b03881691506370a0823190602401602060405180830381865afa158015610a21573d5f5f3e3d5ffd5b505050506040513d601f19601f82011682018060405250810190610a459190613b6c565b9050610a528685836124fb565b505050505050565b60405163e6a4390560e01b81526001600160a01b038216600482015273bb4cdb9cbd36b01bd1cbaebf2de08d9173bc095c60248201525f908190819073ca143ce32fe78f1f7019d7d551a6402fc5350c739063e6a4390590604401602060405180830381865afa158015610ad0573d5f5f3e3d5ffd5b505050506040513d601f19601f82011682018060405250810190610af49190613b83565b60405163e6a4390560e01b81526001600160a01b03861660048201525f516020613dd35f395f51905f5260248201529091505f9073ca143ce32fe78f1f7019d7d551a6402fc5350c739063e6a4390590604401602060405180830381865afa158015610b62573d5f5f3e3d5ffd5b505050506040513d601f19601f82011682018060405250810190610b869190613b83565b9050670de0b6b3a76400005f6001600160a01b03831615610ceb576040805160028082526060820183525f9260208301908036833701905050905087815f81518110610bd457610bd4613ab3565b60200260200101906001600160a01b031690816001600160a01b0316815250505f516020613dd35f395f51905f5281600181518110610c1557610c15613ab3565b6001600160a01b039092166020928302919091019091015260405163d06ca61f60e01b81525f905f516020613d935f395f51905f529063d06ca61f90610c619087908690600401613b9e565b5f60405180830381865afa158015610c7b573d5f5f3e3d5ffd5b505050506040513d5f823e601f3d908101601f19168201604052610ca29190810190613bbe565b90508060018251610cb39190613c68565b81518110610cc357610cc3613ab3565b602002602001015192505f516020613dd35f395f51905f528397509750505050505050915091565b6001600160a01b03841615610e52576040805160028082526060820183525f9260208301908036833701905050905087815f81518110610d2d57610d2d613ab3565b60200260200101906001600160a01b031690816001600160a01b03168152505073bb4cdb9cbd36b01bd1cbaebf2de08d9173bc095c81600181518110610d7557610d75613ab3565b6001600160a01b039092166020928302919091019091015260405163d06ca61f60e01b81525f905f516020613d935f395f51905f529063d06ca61f90610dc19087908690600401613b9e565b5f60405180830381865afa158015610ddb573d5f5f3e3d5ffd5b505050506040513d5f823e601f3d908101601f19168201604052610e029190810190613bbe565b90508060018251610e139190613c68565b81518110610e2357610e23613ab3565b6020026020010151925073bb4cdb9cbd36b01bd1cbaebf2de08d9173bc095c8397509750505050505050915091565b505f96879650945050505050565b5f6001600160a01b038416610ea75760405162461bcd60e51b815260206004820152600d60248201526c16915493d7d3d49251d2539053609a1b604482015260640161071c565b6001600160a01b038316610eeb5760405162461bcd60e51b815260206004820152600b60248201526a16915493d7d5105491d15560aa1b604482015260640161071c565b5f8211610f2f5760405162461bcd60e51b815260206004820152601260248201527116915493d7d5105491d15517d05353d5539560721b604482015260640161071c565b6040805160028082526060820183525f9260208301908036833701905050905084815f81518110610f6257610f62613ab3565b60200260200101906001600160a01b031690816001600160a01b0316815250508381600181518110610f9657610f96613ab3565b6001600160a01b03909216602092830291909101909101525f5f516020613d935f395f51905f52631f00ca746064610fcf606988613c7b565b610fd99190613c92565b846040518363ffffffff1660e01b8152600401610ff7929190613b9e565b5f60405180830381865afa158015611011573d5f5f3e3d5ffd5b505050506040513d5f823e601f3d908101601f191682016040526110389190810190613bbe565b9050805f8151811061104c5761104c613ab3565b6020026020010151925050509392505050565b61106761260a565b611070826126ae565b61107a82826126b6565b5050565b5f611087612777565b505f516020613db35f395f51905f5290565b6001546001600160a01b031633146110c35760405162461bcd60e51b815260040161071c90613a66565b5f82116111025760405162461bcd60e51b815260206004820152600d60248201526c22a92927a92fa0a6a7aaa72a1760991b604482015260640161071c565b6001600160a01b0383161561112f5760045461112a9084906001600160a01b031683856122c2565b611139565b61113981836127c0565b7f99310eed5bb161586b62449f89ccaa4580f85f953cd64218092edfc2b1f5fce78484838560405161116e9493929190613cb1565b60405180910390a150505050565b611184612885565b61118d5f6128e0565b565b5f85118061119c57505f83115b6111d75760405162461bcd60e51b815260206004820152600c60248201526b11549493d497d05353d5539560a21b604482015260640161071c565b6040805160028082526060820183525f9260208301908036833750506040805160028082526060820183529394505f939092509060208301908036833701905050905087825f8151811061122d5761122d613ab3565b60200260200101906001600160a01b031690816001600160a01b03168152505086815f8151811061126057611260613ab3565b602002602001018181525050858260018151811061128057611280613ab3565b60200260200101906001600160a01b031690816001600160a01b03168152505084816001815181106112b4576112b4613ab3565b6020026020010181815250506112ca8282612950565b7f92bfe9b63523d7c8baff8387323dd4c1c8ccd48705d9c91e19160ebcabb053b8338989898989896040516113059796959493929190613d0e565b60405180910390a15050505050505050565b61131f612e28565b6001546001600160a01b031633146113495760405162461bcd60e51b815260040161071c90613a66565b6001600160a01b0384166113955760405162461bcd60e51b81526020600482015260136024820152724552524f525f4f524947494e414c5f5a45524f60681b604482015260640161071c565b6001600160a01b0383166113df5760405162461bcd60e51b81526020600482015260116024820152704552524f525f5441524745545f5a45524f60781b604482015260640161071c565b6001600160a01b0382166114275760405162461bcd60e51b815260206004820152600f60248201526e4552524f525f46524f4d5f5a45524f60881b604482015260640161071c565b5f81116114765760405162461bcd60e51b815260206004820152601860248201527f4552524f525f5441524745545f414d4f554e545f5a45524f0000000000000000604482015260640161071c565b60405163e6a4390560e01b81526001600160a01b038086166004830152841660248201525f9073ca143ce32fe78f1f7019d7d551a6402fc5350c739063e6a4390590604401602060405180830381865afa1580156114d6573d5f5f3e3d5ffd5b505050506040513d601f19601f820116820180604052508101906114fa9190613b83565b90506001600160a01b0381166115435760405162461bcd60e51b815260206004820152600e60248201526d1410525497d393d517d1561254d560921b604482015260640161071c565b5f61154f868685610e60565b90505f81116115975760405162461bcd60e51b815260206004820152601460248201527316915493d7d3d49251d253905317d05353d5539560621b604482015260640161071c565b6040516370a0823160e01b81526001600160a01b0385811660048301525f91908816906370a0823190602401602060405180830381865afa1580156115de573d5f5f3e3d5ffd5b505050506040513d601f19601f820116820180604052508101906116029190613b6c565b9050818110156116545760405162461bcd60e51b815260206004820152601960248201527f494e53554646494349454e545f42414c414e43455f46524f4d00000000000000604482015260640161071c565b604051636eb1769f60e11b81526001600160a01b0386811660048301523060248301525f919089169063dd62ed3e90604401602060405180830381865afa1580156116a1573d5f5f3e3d5ffd5b505050506040513d601f19601f820116820180604052508101906116c59190613b6c565b9050828110156117175760405162461bcd60e51b815260206004820152601b60248201527f494e53554646494349454e545f414c4c4f57414e43455f46524f4d0000000000604482015260640161071c565b611723888730866122c2565b6040516370a0823160e01b81523060048201525f906001600160a01b038a16906370a0823190602401602060405180830381865afa158015611767573d5f5f3e3d5ffd5b505050506040513d601f19601f8201168201806040525081019061178b9190613b6c565b9050838110156117e75760405162461bcd60e51b815260206004820152602160248201527f494e53554646494349454e545f52454345495645445f42595f434f4e545241436044820152601560fa1b606482015260840161071c565b604051636eb1769f60e11b81523060048201525f516020613d935f395f51905f5260248201525f906001600160a01b038b169063dd62ed3e90604401602060405180830381865afa15801561183e573d5f5f3e3d5ffd5b505050506040513d601f19601f820116820180604052508101906118629190613b6c565b90508481101561189c576118848a5f516020613d935f395f51905f525f6123e5565b61189c8a5f516020613d935f395f51905f52876123e5565b6040516370a0823160e01b81523060048201525f906001600160a01b038b16906370a0823190602401602060405180830381865afa1580156118e0573d5f5f3e3d5ffd5b505050506040513d601f19601f820116820180604052508101906119049190613b6c565b6040805160028082526060820183529293505f9290916020830190803683370190505090508b815f8151811061193c5761193c613ab3565b60200260200101906001600160a01b031690816001600160a01b0316815250508a8160018151811061197057611970613ab3565b6001600160a01b03909216602092830291909101909101525f516020613d935f395f51905f52635c11d795885f84306119ab4261012c613adb565b6040518663ffffffff1660e01b81526004016119cb959493929190613b31565b5f604051808303815f87803b1580156119e2575f5ffd5b505af11580156119f4573d5f5f3e3d5ffd5b50506040516370a0823160e01b81523060048201525f92506001600160a01b038e1691506370a0823190602401602060405180830381865afa158015611a3c573d5f5f3e3d5ffd5b505050506040513d601f19601f82011682018060405250810190611a609190613b6c565b90505f611a6d8483613c68565b90505f8111611ab35760405162461bcd60e51b8152602060048201526012602482015271535741505f52454345495645445f5a45524f60701b604482015260640161071c565b611abd8d82612e50565b50505050505050505050611ad060015f55565b50505050565b611ade612885565b6001600160a01b038116611b045760405162461bcd60e51b815260040161071c90613a8c565b6001546040516001600160a01b038084169216907f2931ebb3d190545dcf6801c37aa686b74f2e1000e753d0fac6e471a2aa5a6213905f90a3600180546001600160a01b0319166001600160a01b0392909216919091179055565b6001546001600160a01b03163314611b895760405162461bcd60e51b815260040161071c90613a66565b6001600160a01b038116611baf5760405162461bcd60e51b815260040161071c90613a8c565b600380546001600160a01b0319166001600160a01b0392909216919091179055565b6060815f816001600160401b03811115611bed57611bed6135ba565b604051908082528060200260200182016040528015611c3157816020015b604080518082019091525f8082526020820152815260200190600190039081611c0b5790505b5090506001600160a01b038616611ceb575f5b82811015611ce5576040518060400160405280878784818110611c6957611c69613ab3565b9050602002016020810190611c7e919061350c565b6001600160a01b03168152602001878784818110611c9e57611c9e613ab3565b9050602002016020810190611cb3919061350c565b6001600160a01b031631815250828281518110611cd257611cd2613ab3565b6020908102919091010152600101611c44565b50611dfd565b855f5b83811015611dfa576040518060400160405280888884818110611d1357611d13613ab3565b9050602002016020810190611d28919061350c565b6001600160a01b03168152602001836001600160a01b03166370a082318a8a86818110611d5757611d57613ab3565b9050602002016020810190611d6c919061350c565b6040516001600160e01b031960e084901b1681526001600160a01b039091166004820152602401602060405180830381865afa158015611dae573d5f5f3e3d5ffd5b505050506040513d601f19601f82011682018060405250810190611dd29190613b6c565b815250838281518110611de757611de7613ab3565b6020908102919091010152600101611cee565b50505b95945050505050565b5f8311611e445760405162461bcd60e51b815260206004820152600c60248201526b11549493d497d05353d5539560a21b604482015260640161071c565b6040805160018082528183019092525f916020808301908036833750506040805160018082528183019092529293505f9291506020808301908036833701905050905085825f81518110611e9a57611e9a613ab3565b60200260200101906001600160a01b031690816001600160a01b03168152505084815f81518110611ecd57611ecd613ab3565b602002602001018181525050611ee38282612950565b7f92bfe9b63523d7c8baff8387323dd4c1c8ccd48705d9c91e19160ebcabb053b83387875f5f8989604051611f1e9796959493929190613d0e565b60405180910390a1505050505050565b6001546001600160a01b03163314611f585760405162461bcd60e51b815260040161071c90613a66565b600580546001600160a01b039485166001600160a01b031991821617909155600680549385169382169390931790925560078054919093169116179055565b6001546001600160a01b03163314611fc15760405162461bcd60e51b815260040161071c90613a66565b6001600160a01b038116611fe75760405162461bcd60e51b815260040161071c90613a8c565b600480546001600160a01b0319166001600160a01b0392909216919091179055565b5f6120126131cf565b805490915060ff600160401b82041615906001600160401b03165f811580156120385750825b90505f826001600160401b031660011480156120535750303b155b905081158015612061575080155b1561207f5760405163f92ee8a960e01b815260040160405180910390fd5b845467ffffffffffffffff1916600117855583156120a957845460ff60401b1916600160401b1785555b6120b2336131f9565b8e60015f6101000a8154816001600160a01b0302191690836001600160a01b031602179055508d60035f6101000a8154816001600160a01b0302191690836001600160a01b031602179055508c60045f6101000a8154816001600160a01b0302191690836001600160a01b031602179055508b60055f6101000a8154816001600160a01b0302191690836001600160a01b031602179055508a60065f6101000a8154816001600160a01b0302191690836001600160a01b031602179055508960075f6101000a8154816001600160a01b0302191690836001600160a01b0316021790555088600b5f6101000a8154816001600160a01b0302191690836001600160a01b031602179055508760085f6101000a8154816001600160a01b0302191690836001600160a01b031602179055508660095f6101000a8154816001600160a01b0302191690836001600160a01b0316021790555085600a5f6101000a8154816001600160a01b0302191690836001600160a01b03160217905550831561227457845460ff60401b19168555604051600181527fc7f505b2f371ae2175ee4913f4499e1f2633a7b5936321eed1cdaeb6115181d29060200160405180910390a15b505050505050505050505050505050565b61228d612885565b6001600160a01b0381166122b657604051631e4fbdf760e01b81525f600482015260240161071c565b6122bf816128e0565b50565b604080516001600160a01b0385811660248301528481166044830152606480830185905283518084039091018152608490920183526020820180516001600160e01b03166323b872dd60e01b17905291515f928392908816916123259190613d5d565b5f604051808303815f865af19150503d805f811461235e576040519150601f19603f3d011682016040523d82523d5f602084013e612363565b606091505b509150915081801561238d57508051158061238d57508080602001905181019061238d9190613d73565b610a525760405162461bcd60e51b8152602060048201526024808201527f5472616e7366657248656c7065723a205452414e534645525f46524f4d5f46416044820152631253115160e21b606482015260840161071c565b604080516001600160a01b038481166024830152604480830185905283518084039091018152606490920183526020820180516001600160e01b031663095ea7b360e01b17905291515f928392908716916124409190613d5d565b5f604051808303815f865af19150503d805f8114612479576040519150601f19603f3d011682016040523d82523d5f602084013e61247e565b606091505b50915091508180156124a85750805115806124a85750808060200190518101906124a89190613d73565b6124f45760405162461bcd60e51b815260206004820152601e60248201527f5472616e7366657248656c7065723a20415050524f56455f4641494c45440000604482015260640161071c565b5050505050565b604080516001600160a01b038481166024830152604480830185905283518084039091018152606490920183526020820180516001600160e01b031663a9059cbb60e01b17905291515f928392908716916125569190613d5d565b5f604051808303815f865af19150503d805f811461258f576040519150601f19603f3d011682016040523d82523d5f602084013e612594565b606091505b50915091508180156125be5750805115806125be5750808060200190518101906125be9190613d73565b6124f45760405162461bcd60e51b815260206004820152601f60248201527f5472616e7366657248656c7065723a205452414e534645525f4641494c454400604482015260640161071c565b306001600160a01b037f000000000000000000000000000000000000000000000000000000000000000016148061269057507f00000000000000000000000000000000000000000000000000000000000000006001600160a01b03166126845f516020613db35f395f51905f52546001600160a01b031690565b6001600160a01b031614155b1561118d5760405163703e46dd60e11b815260040160405180910390fd5b6122bf612885565b816001600160a01b03166352d1902d6040518163ffffffff1660e01b8152600401602060405180830381865afa925050508015612710575060408051601f3d908101601f1916820190925261270d91810190613b6c565b60015b61273857604051634c9c8ce360e01b81526001600160a01b038316600482015260240161071c565b5f516020613db35f395f51905f52811461276857604051632a87526960e21b81526004810182905260240161071c565b612772838361320a565b505050565b306001600160a01b037f0000000000000000000000000000000000000000000000000000000000000000161461118d5760405163703e46dd60e11b815260040160405180910390fd5b604080515f808252602082019092526001600160a01b0384169083906040516127e99190613d5d565b5f6040518083038185875af1925050503d805f8114612823576040519150601f19603f3d011682016040523d82523d5f602084013e612828565b606091505b50509050806127725760405162461bcd60e51b815260206004820152602360248201527f5472616e7366657248656c7065723a204554485f5452414e534645525f46414960448201526213115160ea1b606482015260840161071c565b336128b77f9016d09d72d40fdae2fd8ceac6b6234c7706214fd39c1cd1e609a0528c199300546001600160a01b031690565b6001600160a01b03161461118d5760405163118cdaa760e01b815233600482015260240161071c565b7f9016d09d72d40fdae2fd8ceac6b6234c7706214fd39c1cd1e609a0528c19930080546001600160a01b031981166001600160a01b03848116918217845560405192169182907f8be0079c531659141344cd1fd0a4f28419497f9722a3daafe3b4186f6b6457e0905f90a3505050565b612958612e28565b805182511461299b5760405162461bcd60e51b815260206004820152600f60248201526e09a92a69a82a88690be988a9c8ea89608b1b604482015260640161071c565b5f5b8251811015612d89575f8382815181106129b9576129b9613ab3565b602002602001015190505f8383815181106129d6576129d6613ab3565b60200260200101519050805f036129ee575050612d81565b7355d398326f99059ff775485246999027b3197954196001600160a01b03831601612cf257612a2c5f516020613dd35f395f51905f523330846122c2565b5f6064612a3a836032613c7b565b612a449190613c92565b90505f6064612a54846014613c7b565b612a5e9190613c92565b90505f81612a6c8486613c68565b612a769190613c68565b90508215612aa357600554612aa3905f516020613dd35f395f51905f52906001600160a01b0316856124fb565b8115612ace57600754612ace905f516020613dd35f395f51905f52906001600160a01b0316846124fb565b8015612ce85760405163095ea7b360e01b81525f516020613d935f395f51905f5260048201525f60248201525f516020613dd35f395f51905f529063095ea7b3906044016020604051808303815f875af1158015612b2e573d5f5f3e3d5ffd5b505050506040513d601f19601f82011682018060405250810190612b529190613d73565b5060405163095ea7b360e01b81525f516020613d935f395f51905f526004820152602481018290525f516020613dd35f395f51905f529063095ea7b3906044016020604051808303815f875af1158015612bae573d5f5f3e3d5ffd5b505050506040513d601f19601f82011682018060405250810190612bd29190613d73565b50600b546040516370a0823160e01b81523060048201525f916001600160a01b0316906370a0823190602401602060405180830381865afa158015612c19573d5f5f3e3d5ffd5b505050506040513d601f19601f82011682018060405250810190612c3d9190613b6c565b9050612c488261325f565b600b546040516370a0823160e01b81523060048201525f916001600160a01b0316906370a0823190602401602060405180830381865afa158015612c8e573d5f5f3e3d5ffd5b505050506040513d601f19601f82011682018060405250810190612cb29190613b6c565b90505f612cbf8383613c68565b90508015612ce457600b54600654612ce4916001600160a01b039081169116836124fb565b5050505b5050505050612d81565b6001600160a01b038216612d645780341015612d475760405162461bcd60e51b815260206004820152601460248201527311549493d497d410565050931157d05353d5539560621b604482015260640161071c565b600354612d5d906001600160a01b0316826127c0565b5050612d81565b600354612d7e90839033906001600160a01b0316846122c2565b50505b60010161299d565b503415612e1f575f805b8351811015612dfe575f6001600160a01b0316848281518110612db857612db8613ab3565b60200260200101516001600160a01b031603612df657828181518110612de057612de0613ab3565b602002602001015182612df39190613adb565b91505b600101612d93565b505f612e0a8234613c68565b90508015612e1c57612e1c33826127c0565b50505b61107a60015f55565b60025f5403612e4a57604051633ee5aeb560e01b815260040160405180910390fd5b60025f55565b6040516370a0823160e01b81523060048201525f906001600160a01b038416906370a0823190602401602060405180830381865afa158015612e94573d5f5f3e3d5ffd5b505050506040513d601f19601f82011682018060405250810190612eb89190613b6c565b905081811015612f0a5760405162461bcd60e51b815260206004820152601a60248201527f494e53554646494349454e545f544f4b454e5f42414c414e4345000000000000604482015260640161071c565b5f6103e8612f1a8461021a613c7b565b612f249190613c92565b90505f6103e8612f368561016a613c7b565b612f409190613c92565b90505f6064612f50866008613c7b565b612f5a9190613c92565b90505f8183612f698689613c68565b612f739190613c68565b612f7d9190613c68565b9050858183612f8c8688613adb565b612f969190613adb565b612fa09190613adb565b14612fda5760405162461bcd60e51b815260206004820152600a60248201526926a0aa242fa2a92927a960b11b604482015260640161071c565b60095460408051630dfe168160e01b815290516001600160a01b03808b16931691630dfe16819160048083019260209291908290030181865afa158015613023573d5f5f3e3d5ffd5b505050506040513d601f19601f820116820180604052508101906130479190613b83565b6001600160a01b031614806130cf57506009546040805163d21220a760e01b815290516001600160a01b03808b1693169163d21220a79160048083019260209291908290030181865afa1580156130a0573d5f5f3e3d5ffd5b505050506040513d601f19601f820116820180604052508101906130c49190613b83565b6001600160a01b0316145b6131135760405162461bcd60e51b81526020600482015260156024820152741410525497d393d517d3505510d217d5105491d155605a1b604482015260640161071c565b60085461312b9088906001600160a01b0316866124fb565b6009546131439088906001600160a01b0316856124fb565b60095f9054906101000a90046001600160a01b03166001600160a01b031663fff6cae96040518163ffffffff1660e01b81526004015f604051808303815f87803b15801561318f575f5ffd5b505af19250505080156131a0575060015b50600a546131b99088906001600160a01b0316836124fb565b6131c68761dead846124fb565b50505050505050565b5f807ff0c57e16840df040f15088dc2f81fe391c3923bec73e23a9662efc9c229c6a005b92915050565b613201613349565b6122bf8161336e565b61321382613376565b6040516001600160a01b038316907fbc7cd75a20ee27fd9adebab32041f755214dbc6bffa90cc0225b39da2e5c2d3b905f90a28051156132575761277282826133d9565b61107a613479565b6040805160028082526060820183525f926020830190803683370190505090505f516020613dd35f395f51905f52815f8151811061329f5761329f613ab3565b6001600160a01b039283166020918202929092010152600b548251911690829060019081106132d0576132d0613ab3565b6001600160a01b0390921660209283029190910190910152604051635c11d79560e01b81525f516020613d935f395f51905f5290635c11d795906133209085905f90869030904290600401613b31565b5f604051808303815f87803b158015613337575f5ffd5b505af1158015610a52573d5f5f3e3d5ffd5b613351613498565b61118d57604051631afcd79f60e31b815260040160405180910390fd5b61228d613349565b806001600160a01b03163b5f036133ab57604051634c9c8ce360e01b81526001600160a01b038216600482015260240161071c565b5f516020613db35f395f51905f5280546001600160a01b0319166001600160a01b0392909216919091179055565b60605f6133e684846134b1565b905080801561340757505f3d118061340757505f846001600160a01b03163b115b1561341c576134146134c4565b9150506131f3565b801561344657604051639996b31560e01b81526001600160a01b038516600482015260240161071c565b3d15613459576134546134dd565b613472565b60405163d6bda27560e01b815260040160405180910390fd5b5092915050565b341561118d5760405163b398979f60e01b815260040160405180910390fd5b5f6134a16131cf565b54600160401b900460ff16919050565b5f5f5f835160208501865af49392505050565b6040513d81523d5f602083013e3d602001810160405290565b6040513d5f823e3d81fd5b6001600160a01b03811681146122bf575f5ffd5b8035613507816134e8565b919050565b5f6020828403121561351c575f5ffd5b8135613527816134e8565b9392505050565b5f5f5f5f60808587031215613541575f5ffd5b843561354c816134e8565b9350602085013561355c816134e8565b9250604085013561356c816134e8565b9396929550929360600135925050565b5f5f5f6060848603121561358e575f5ffd5b8335613599816134e8565b925060208401356135a9816134e8565b929592945050506040919091013590565b634e487b7160e01b5f52604160045260245ffd5b604051601f8201601f191681016001600160401b03811182821017156135f6576135f66135ba565b604052919050565b5f5f6001600160401b03841115613617576136176135ba565b50601f8301601f191660200161362c816135ce565b915050828152838383011115613640575f5ffd5b828260208301375f602084830101529392505050565b5f5f60408385031215613667575f5ffd5b8235613672816134e8565b915060208301356001600160401b0381111561368c575f5ffd5b8301601f8101851361369c575f5ffd5b6136ab858235602084016135fe565b9150509250929050565b5f5f5f5f608085870312156136c8575f5ffd5b84356001600160401b038111156136dd575f5ffd5b8501601f810187136136ed575f5ffd5b6136fc878235602084016135fe565b945050602085013561370d816134e8565b9250604085013591506060850135613724816134e8565b939692955090935050565b5f5f83601f84011261373f575f5ffd5b5081356001600160401b03811115613755575f5ffd5b60208301915083602082850101111561376c575f5ffd5b9250929050565b5f5f5f5f5f5f60a08789031215613788575f5ffd5b8635613793816134e8565b95506020870135945060408701356137aa816134e8565b93506060870135925060808701356001600160401b038111156137cb575f5ffd5b6137d789828a0161372f565b979a9699509497509295939492505050565b5f5f5f604084860312156137fb575f5ffd5b8335613806816134e8565b925060208401356001600160401b03811115613820575f5ffd5b8401601f81018613613830575f5ffd5b80356001600160401b03811115613845575f5ffd5b8660208260051b8401011115613859575f5ffd5b939660209190910195509293505050565b602080825282518282018190525f918401906040840190835b818110156138b657835180516001600160a01b031684526020908101518185015290930192604090920191600101613883565b509095945050505050565b5f5f5f5f606085870312156138d4575f5ffd5b84356138df816134e8565b93506020850135925060408501356001600160401b03811115613900575f5ffd5b61390c8782880161372f565b95989497509550505050565b5f81518084528060208401602086015e5f602082860101526020601f19601f83011685010191505092915050565b602081525f6135276020830184613918565b5f5f5f6060848603121561396a575f5ffd5b8335613975816134e8565b92506020840135613985816134e8565b91506040840135613995816134e8565b809150509250925092565b5f5f5f5f5f5f5f5f5f5f6101408b8d0312156139ba575f5ffd5b8a356139c5816134e8565b995060208b01356139d5816134e8565b985060408b01356139e5816134e8565b975060608b01356139f5816134e8565b965060808b0135613a05816134e8565b955060a08b0135613a15816134e8565b945060c08b0135613a25816134e8565b935060e08b0135613a35816134e8565b92506101008b0135613a46816134e8565b9150613a556101208c016134fc565b90509295989b9194979a5092959850565b6020808252600c908201526b22a92927a92fa0a226a4a71760a11b604082015260600190565b6020808252600d908201526c2d22a927afa0a2222922a9a99760991b604082015260600190565b634e487b7160e01b5f52603260045260245ffd5b634e487b7160e01b5f52601160045260245ffd5b808201808211156131f3576131f3613ac7565b5f8151808452602084019350602083015f5b82811015613b275781516001600160a01b0316865260209586019590910190600101613b00565b5093949350505050565b85815284602082015260a060408201525f613b4f60a0830186613aee565b6001600160a01b0394909416606083015250608001529392505050565b5f60208284031215613b7c575f5ffd5b5051919050565b5f60208284031215613b93575f5ffd5b8151613527816134e8565b828152604060208201525f613bb66040830184613aee565b949350505050565b5f60208284031215613bce575f5ffd5b81516001600160401b03811115613be3575f5ffd5b8201601f81018413613bf3575f5ffd5b80516001600160401b03811115613c0c57613c0c6135ba565b8060051b613c1c602082016135ce565b91825260208184018101929081019087841115613c37575f5ffd5b6020850194505b83851015613c5d57845180835260209586019590935090910190613c3e565b979650505050505050565b818103818111156131f3576131f3613ac7565b80820281158282048414176131f3576131f3613ac7565b5f82613cac57634e487b7160e01b5f52601260045260245ffd5b500490565b608081525f613cc36080830187613918565b6001600160a01b0395861660208401529390941660408201526060015292915050565b81835281816020850137505f828201602090810191909152601f909101601f19169091010190565b6001600160a01b038881168252878116602083015260408201879052851660608201526080810184905260c060a082018190525f90613d509083018486613ce6565b9998505050505050505050565b5f82518060208501845e5f920191825250919050565b5f60208284031215613d83575f5ffd5b81518015158114613527575f5ffdfe00000000000000000000000010ed43c718714eb63d5aa57b78b54704e256024e360894a13ba1a3210667c828492db98dca3e2076cc3735a920a3ca505d382bbc00000000000000000000000055d398326f99059ff775485246999027b3197955a26469706673582212206f0b386f392e75f30ae3d3d063b246d94ca321c568fbc8084f36e485f7d487f664736f6c634300081e0033","linkReferences":{}},"methodIdentifiers":{"BUY_BACK_RATE()":"5a461750","UPGRADE_INTERFACE_VERSION()":"ad3cb1cc","USDT()":"c54e44eb","WBNB()":"8dd95002","admin()":"f851a440","buyBackPercent2()":"43252bf3","buyBackPercent362()":"617fe173","buyBackPercent538()":"bec3ac33","carryOutBuyback(address,address,address,uint256)":"7fd6dc7a","changeAdmin(address)":"8f283970","changeOperator(address)":"06394c9b","changeRechargePercent(address,address,address)":"b0d51091","changeRecipient(address)":"92c2bcb4","changeSender(address)":"b280a7e7","dead()":"36cf7c87","factory()":"c45a0155","getAmountOut(address,address,uint256)":"4aa06652","getPrice(address)":"41976e09","initialize(address,address,address,address,address,address,address,address,address,address)":"c306b378","multiBalanceOf(address,address[])":"9f166cf1","multiRecharge(address,uint256,address,uint256,string)":"73abf0af","operator()":"570ca735","owner()":"8da5cb5b","proxiableUUID()":"52d1902d","rechargePercent20()":"bf2647f2","rechargePercent30()":"2cd89ff2","rechargePercent50()":"baad38d5","recipient()":"66d003ac","renounceOwnership()":"715018a6","router()":"f887ea40","sender()":"67e404ce","singleRecharge(address,uint256,string)":"aa7e7eb9","skp()":"45348946","supportPrice(address,address,address,uint256)":"3f15764f","transferOwnership(address)":"f2fde38b","upgradeToAndCall(address,bytes)":"4f1ef286","withdraw(string,address,uint256,address)":"62a33811"},"id":44}