{"abi":[{"type":"receive","stateMutability":"payable"},{"type":"function","name":"BUY_BACK_RATE","inputs":[],"outputs":[{"name":"","type":"uint256","internalType":"uint256"}],"stateMutability":"view"},{"type":"function","name":"UPGRADE_INTERFACE_VERSION","inputs":[],"outputs":[{"name":"","type":"string","internalType":"string"}],"stateMutability":"view"},{"type":"function","name":"USDT","inputs":[],"outputs":[{"name":"","type":"address","internalType":"address"}],"stateMutability":"view"},{"type":"function","name":"WBNB","inputs":[],"outputs":[{"name":"","type":"address","internalType":"address"}],"stateMutability":"view"},{"type":"function","name":"admin","inputs":[],"outputs":[{"name":"","type":"address","internalType":"address"}],"stateMutability":"view"},{"type":"function","name":"buyBackPercent2","inputs":[],"outputs":[{"name":"","type":"address","internalType":"address"}],"stateMutability":"view"},{"type":"function","name":"buyBackPercent362","inputs":[],"outputs":[{"name":"","type":"address","internalType":"address"}],"stateMutability":"view"},{"type":"function","name":"buyBackPercent538","inputs":[],"outputs":[{"name":"","type":"address","internalType":"address"}],"stateMutability":"view"},{"type":"function","name":"carryOutBuyback","inputs":[{"name":"original","type":"address","internalType":"address"},{"name":"target","type":"address","internalType":"address"},{"name":"from","type":"address","internalType":"address"},{"name":"targetAmount","type":"uint256","internalType":"uint256"}],"outputs":[],"stateMutability":"nonpayable"},{"type":"function","name":"changeAdmin","inputs":[{"name":"_newAdmin","type":"address","internalType":"address"}],"outputs":[],"stateMutability":"nonpayable"},{"type":"function","name":"changeOperator","inputs":[{"name":"_newOperator","type":"address","internalType":"address"}],"outputs":[],"stateMutability":"nonpayable"},{"type":"function","name":"changeRechargePercent","inputs":[{"name":"_percent50","type":"address","internalType":"address"},{"name":"_percent30","type":"address","internalType":"address"},{"name":"_percent20","type":"address","internalType":"address"}],"outputs":[],"stateMutability":"nonpayable"},{"type":"function","name":"changeRecipient","inputs":[{"name":"_newRecipient","type":"address","internalType":"address"}],"outputs":[],"stateMutability":"nonpayable"},{"type":"function","name":"changeSender","inputs":[{"name":"_newSender","type":"address","internalType":"address"}],"outputs":[],"stateMutability":"nonpayable"},{"type":"function","name":"dead","inputs":[],"outputs":[{"name":"","type":"address","internalType":"address"}],"stateMutability":"view"},{"type":"function","name":"factory","inputs":[],"outputs":[{"name":"","type":"address","internalType":"address"}],"stateMutability":"view"},{"type":"function","name":"getAmountOut","inputs":[{"name":"original","type":"address","internalType":"address"},{"name":"target","type":"address","internalType":"address"},{"name":"targetAmount","type":"uint256","internalType":"uint256"}],"outputs":[{"name":"originalAmount","type":"uint256","internalType":"uint256"}],"stateMutability":"view"},{"type":"function","name":"getPrice","inputs":[{"name":"token","type":"address","internalType":"address"}],"outputs":[{"name":"","type":"address","internalType":"address"},{"name":"","type":"uint256","internalType":"uint256"}],"stateMutability":"view"},{"type":"function","name":"initialize","inputs":[{"name":"_admin","type":"address","internalType":"address"},{"name":"_recipient","type":"address","internalType":"address"},{"name":"_sender","type":"address","internalType":"address"},{"name":"_percent50","type":"address","internalType":"address"},{"name":"_percent30","type":"address","internalType":"address"},{"name":"_percent20","type":"address","internalType":"address"},{"name":"_skp","type":"address","internalType":"address"},{"name":"_buyBackPercent538","type":"address","internalType":"address"},{"name":"_buyBackPercent362","type":"address","internalType":"address"},{"name":"_buyBackPercent2","type":"address","internalType":"address"}],"outputs":[],"stateMutability":"nonpayable"},{"type":"function","name":"multiBalanceOf","inputs":[{"name":"token","type":"address","internalType":"address"},{"name":"users","type":"address[]","internalType":"address[]"}],"outputs":[{"name":"","type":"tuple[]","internalType":"struct Recharge.Info[]","components":[{"name":"user","type":"address","internalType":"address"},{"name":"amount","type":"uint256","internalType":"uint256"}]}],"stateMutability":"view"},{"type":"function","name":"multiRecharge","inputs":[{"name":"token0","type":"address","internalType":"address"},{"name":"amount0","type":"uint256","internalType":"uint256"},{"name":"token1","type":"address","internalType":"address"},{"name":"amount1","type":"uint256","internalType":"uint256"},{"name":"remark","type":"string","internalType":"string"}],"outputs":[],"stateMutability":"payable"},{"type":"function","name":"operator","inputs":[],"outputs":[{"name":"","type":"address","internalType":"address"}],"stateMutability":"view"},{"type":"function","name":"owner","inputs":[],"outputs":[{"name":"","type":"address","internalType":"address"}],"stateMutability":"view"},{"type":"function","name":"proxiableUUID","inputs":[],"outputs":[{"name":"","type":"bytes32","internalType":"bytes32"}],"stateMutability":"view"},{"type":"function","name":"rechargePercent20","inputs":[],"outputs":[{"name":"","type":"address","internalType":"address"}],"stateMutability":"view"},{"type":"function","name":"rechargePercent30","inputs":[],"outputs":[{"name":"","type":"address","internalType":"address"}],"stateMutability":"view"},{"type":"function","name":"rechargePercent50","inputs":[],"outputs":[{"name":"","type":"address","internalType":"address"}],"stateMutability":"view"},{"type":"function","name":"recipient","inputs":[],"outputs":[{"name":"","type":"address","internalType":"address"}],"stateMutability":"view"},{"type":"function","name":"redeemTetherToSendToken","inputs":[{"name":"resultToken","type":"address","internalType":"address"},{"name":"from","type":"address","internalType":"address"},{"name":"amountToken","type":"uint256","internalType":"uint256"}],"outputs":[],"stateMutability":"nonpayable"},{"type":"function","name":"renounceOwnership","inputs":[],"outputs":[],"stateMutability":"nonpayable"},{"type":"function","name":"router","inputs":[],"outputs":[{"name":"","type":"address","internalType":"address"}],"stateMutability":"view"},{"type":"function","name":"sender","inputs":[],"outputs":[{"name":"","type":"address","internalType":"address"}],"stateMutability":"view"},{"type":"function","name":"singleRecharge","inputs":[{"name":"token","type":"address","internalType":"address"},{"name":"amount","type":"uint256","internalType":"uint256"},{"name":"remark","type":"string","internalType":"string"}],"outputs":[],"stateMutability":"payable"},{"type":"function","name":"skp","inputs":[],"outputs":[{"name":"","type":"address","internalType":"address"}],"stateMutability":"view"},{"type":"function","name":"transferOwnership","inputs":[{"name":"newOwner","type":"address","internalType":"address"}],"outputs":[],"stateMutability":"nonpayable"},{"type":"function","name":"upgradeToAndCall","inputs":[{"name":"newImplementation","type":"address","internalType":"address"},{"name":"data","type":"bytes","internalType":"bytes"}],"outputs":[],"stateMutability":"payable"},{"type":"function","name":"withdraw","inputs":[{"name":"remark","type":"string","internalType":"string"},{"name":"token","type":"address","internalType":"address"},{"name":"amount","type":"uint256","internalType":"uint256"},{"name":"to","type":"address","internalType":"address"}],"outputs":[],"stateMutability":"nonpayable"},{"type":"event","name":"AdminshipTransferred","inputs":[{"name":"previousAdmin","type":"address","indexed":true,"internalType":"address"},{"name":"newAdmin","type":"address","indexed":true,"internalType":"address"}],"anonymous":false},{"type":"event","name":"Initialized","inputs":[{"name":"version","type":"uint64","indexed":false,"internalType":"uint64"}],"anonymous":false},{"type":"event","name":"MultiRecharge","inputs":[{"name":"user","type":"address","indexed":false,"internalType":"address"},{"name":"token0","type":"address","indexed":false,"internalType":"address"},{"name":"amount0","type":"uint256","indexed":false,"internalType":"uint256"},{"name":"token1","type":"address","indexed":false,"internalType":"address"},{"name":"amount1","type":"uint256","indexed":false,"internalType":"uint256"},{"name":"remark","type":"string","indexed":false,"internalType":"string"}],"anonymous":false},{"type":"event","name":"OwnershipTransferred","inputs":[{"name":"previousOwner","type":"address","indexed":true,"internalType":"address"},{"name":"newOwner","type":"address","indexed":true,"internalType":"address"}],"anonymous":false},{"type":"event","name":"Upgraded","inputs":[{"name":"implementation","type":"address","indexed":true,"internalType":"address"}],"anonymous":false},{"type":"event","name":"Withdraw","inputs":[{"name":"remark","type":"string","indexed":false,"internalType":"string"},{"name":"token","type":"address","indexed":false,"internalType":"address"},{"name":"to","type":"address","indexed":false,"internalType":"address"},{"name":"amount","type":"uint256","indexed":false,"internalType":"uint256"}],"anonymous":false},{"type":"error","name":"AddressEmptyCode","inputs":[{"name":"target","type":"address","internalType":"address"}]},{"type":"error","name":"ERC1967InvalidImplementation","inputs":[{"name":"implementation","type":"address","internalType":"address"}]},{"type":"error","name":"ERC1967NonPayable","inputs":[]},{"type":"error","name":"FailedCall","inputs":[]},{"type":"error","name":"InvalidInitialization","inputs":[]},{"type":"error","name":"NotInitializing","inputs":[]},{"type":"error","name":"OwnableInvalidOwner","inputs":[{"name":"owner","type":"address","internalType":"address"}]},{"type":"error","name":"OwnableUnauthorizedAccount","inputs":[{"name":"account","type":"address","internalType":"address"}]},{"type":"error","name":"ReentrancyGuardReentrantCall","inputs":[]},{"type":"error","name":"UUPSUnauthorizedCallContext","inputs":[]},{"type":"error","name":"UUPSUnsupportedProxiableUUID","inputs":[{"name":"slot","type":"bytes32","internalType":"bytes32"}]}],"bytecode":{"object":"0x60a0604052306080523480156012575f5ffd5b5060015f55608051613ebb61003d5f395f81816123610152818161238a01526124ce0152613ebb5ff3fe608060405260043610610215575f3560e01c8063877228b71161011e578063b280a7e7116100a8578063c45a01551161006d578063c45a01551461064d578063c54e44eb14610674578063f2fde38b14610694578063f851a440146106b3578063f887ea40146106d2575f5ffd5b8063b280a7e7146105b2578063baad38d5146105d1578063bec3ac33146105f0578063bf2647f21461060f578063c306b3781461062e575f5ffd5b806392c2bcb4116100ee57806392c2bcb4146104f85780639f166cf114610517578063aa7e7eb914610543578063ad3cb1cc14610556578063b0d5109114610593575f5ffd5b8063877228b7146104575780638da5cb5b146104765780638dd95002146104b25780638f283970146104d9575f5ffd5b8063570ca7351161019f57806366d003ac1161016f57806366d003ac146103d357806367e404ce146103f2578063715018a61461041157806373abf0af146104255780637fd6dc7a14610438575f5ffd5b8063570ca735146103625780635a46175014610381578063617fe1731461039557806362a33811146103b4575f5ffd5b806343252bf3116101e557806343252bf3146102d057806345348946146102ef5780634aa066521461030e5780634f1ef2861461033b57806352d1902d1461034e575f5ffd5b806306394c9b146102205780632cd89ff21461024157806336cf7c871461027d57806341976e0914610292575f5ffd5b3661021c57005b5f5ffd5b34801561022b575f5ffd5b5061023f61023a36600461359f565b6106f2565b005b34801561024c575f5ffd5b50600654610260906001600160a01b031681565b6040516001600160a01b0390911681526020015b60405180910390f35b348015610288575f5ffd5b5061026061dead81565b34801561029d575f5ffd5b506102b16102ac36600461359f565b61076d565b604080516001600160a01b039093168352602083019190915201610274565b3480156102db575f5ffd5b50600a54610260906001600160a01b031681565b3480156102fa575f5ffd5b50600b54610260906001600160a01b031681565b348015610319575f5ffd5b5061032d6103283660046135c1565b610b73565b604051908152602001610274565b61023f61034936600461369b565b610d72565b348015610359575f5ffd5b5061032d610d91565b34801561036d575f5ffd5b50600254610260906001600160a01b031681565b34801561038c575f5ffd5b5061032d606981565b3480156103a0575f5ffd5b50600954610260906001600160a01b031681565b3480156103bf575f5ffd5b5061023f6103ce3660046136fa565b610dac565b3480156103de575f5ffd5b50600354610260906001600160a01b031681565b3480156103fd575f5ffd5b50600454610260906001600160a01b031681565b34801561041c575f5ffd5b5061023f610e8f565b61023f6104333660046137b8565b610ea2565b348015610443575f5ffd5b5061023f61045236600461382e565b61102a565b348015610462575f5ffd5b5061023f6104713660046135c1565b6117e9565b348015610481575f5ffd5b507f9016d09d72d40fdae2fd8ceac6b6234c7706214fd39c1cd1e609a0528c199300546001600160a01b0316610260565b3480156104bd575f5ffd5b5061026073bb4cdb9cbd36b01bd1cbaebf2de08d9173bc095c81565b3480156104e4575f5ffd5b5061023f6104f336600461359f565b611b6a565b348015610503575f5ffd5b5061023f61051236600461359f565b611bf3565b348015610522575f5ffd5b5061053661053136600461387c565b611c65565b60405161027491906138fd565b61023f610551366004613954565b611e9a565b348015610561575f5ffd5b50610586604051806040016040528060058152602001640352e302e360dc1b81525081565b60405161027491906139d9565b34801561059e575f5ffd5b5061023f6105ad3660046139eb565b611fc2565b3480156105bd575f5ffd5b5061023f6105cc36600461359f565b61202b565b3480156105dc575f5ffd5b50600554610260906001600160a01b031681565b3480156105fb575f5ffd5b50600854610260906001600160a01b031681565b34801561061a575f5ffd5b50600754610260906001600160a01b031681565b348015610639575f5ffd5b5061023f610648366004613a33565b61209d565b348015610658575f5ffd5b5061026073ca143ce32fe78f1f7019d7d551a6402fc5350c7381565b34801561067f575f5ffd5b506102605f516020613e665f395f51905f5281565b34801561069f575f5ffd5b5061023f6106ae36600461359f565b612319565b3480156106be575f5ffd5b50600154610260906001600160a01b031681565b3480156106dd575f5ffd5b506102605f516020613e265f395f51905f5281565b6001546001600160a01b031633146107255760405162461bcd60e51b815260040161071c90613af9565b60405180910390fd5b6001600160a01b03811661074b5760405162461bcd60e51b815260040161071c90613b1f565b600280546001600160a01b0319166001600160a01b0392909216919091179055565b60405163e6a4390560e01b81526001600160a01b038216600482015273bb4cdb9cbd36b01bd1cbaebf2de08d9173bc095c60248201525f908190819073ca143ce32fe78f1f7019d7d551a6402fc5350c739063e6a4390590604401602060405180830381865afa1580156107e3573d5f5f3e3d5ffd5b505050506040513d601f19601f820116820180604052508101906108079190613b46565b60405163e6a4390560e01b81526001600160a01b03861660048201525f516020613e665f395f51905f5260248201529091505f9073ca143ce32fe78f1f7019d7d551a6402fc5350c739063e6a4390590604401602060405180830381865afa158015610875573d5f5f3e3d5ffd5b505050506040513d601f19601f820116820180604052508101906108999190613b46565b9050670de0b6b3a76400005f6001600160a01b038316156109fe576040805160028082526060820183525f9260208301908036833701905050905087815f815181106108e7576108e7613b61565b60200260200101906001600160a01b031690816001600160a01b0316815250505f516020613e665f395f51905f528160018151811061092857610928613b61565b6001600160a01b039092166020928302919091019091015260405163d06ca61f60e01b81525f905f516020613e265f395f51905f529063d06ca61f906109749087908690600401613bb8565b5f60405180830381865afa15801561098e573d5f5f3e3d5ffd5b505050506040513d5f823e601f3d908101601f191682016040526109b59190810190613bd8565b905080600182516109c69190613c96565b815181106109d6576109d6613b61565b602002602001015192505f516020613e665f395f51905f528397509750505050505050915091565b6001600160a01b03841615610b65576040805160028082526060820183525f9260208301908036833701905050905087815f81518110610a4057610a40613b61565b60200260200101906001600160a01b031690816001600160a01b03168152505073bb4cdb9cbd36b01bd1cbaebf2de08d9173bc095c81600181518110610a8857610a88613b61565b6001600160a01b039092166020928302919091019091015260405163d06ca61f60e01b81525f905f516020613e265f395f51905f529063d06ca61f90610ad49087908690600401613bb8565b5f60405180830381865afa158015610aee573d5f5f3e3d5ffd5b505050506040513d5f823e601f3d908101601f19168201604052610b159190810190613bd8565b90508060018251610b269190613c96565b81518110610b3657610b36613b61565b6020026020010151925073bb4cdb9cbd36b01bd1cbaebf2de08d9173bc095c8397509750505050505050915091565b505f96879650945050505050565b5f6001600160a01b038416610bba5760405162461bcd60e51b815260206004820152600d60248201526c16915493d7d3d49251d2539053609a1b604482015260640161071c565b6001600160a01b038316610bfe5760405162461bcd60e51b815260206004820152600b60248201526a16915493d7d5105491d15560aa1b604482015260640161071c565b5f8211610c425760405162461bcd60e51b815260206004820152601260248201527116915493d7d5105491d15517d05353d5539560721b604482015260640161071c565b6040805160028082526060820183525f9260208301908036833701905050905084815f81518110610c7557610c75613b61565b60200260200101906001600160a01b031690816001600160a01b0316815250508381600181518110610ca957610ca9613b61565b6001600160a01b03909216602092830291909101909101525f5f516020613e265f395f51905f52631f00ca746064610ce2606988613ca9565b610cec9190613cc0565b846040518363ffffffff1660e01b8152600401610d0a929190613bb8565b5f60405180830381865afa158015610d24573d5f5f3e3d5ffd5b505050506040513d5f823e601f3d908101601f19168201604052610d4b9190810190613bd8565b9050805f81518110610d5f57610d5f613b61565b6020026020010151925050509392505050565b610d7a612356565b610d83826123fa565b610d8d8282612402565b5050565b5f610d9a6124c3565b505f516020613e465f395f51905f5290565b6001546001600160a01b03163314610dd65760405162461bcd60e51b815260040161071c90613af9565b5f8211610e155760405162461bcd60e51b815260206004820152600d60248201526c22a92927a92fa0a6a7aaa72a1760991b604482015260640161071c565b6001600160a01b03831615610e4257600454610e3d9084906001600160a01b0316838561250c565b610e4c565b610e4c8183612637565b7f99310eed5bb161586b62449f89ccaa4580f85f953cd64218092edfc2b1f5fce784848385604051610e819493929190613cdf565b60405180910390a150505050565b610e976126fc565b610ea05f612757565b565b5f851180610eaf57505f83115b610eea5760405162461bcd60e51b815260206004820152600c60248201526b11549493d497d05353d5539560a21b604482015260640161071c565b6040805160028082526060820183525f9260208301908036833750506040805160028082526060820183529394505f939092509060208301908036833701905050905087825f81518110610f4057610f40613b61565b60200260200101906001600160a01b031690816001600160a01b03168152505086815f81518110610f7357610f73613b61565b6020026020010181815250508582600181518110610f9357610f93613b61565b60200260200101906001600160a01b031690816001600160a01b0316815250508481600181518110610fc757610fc7613b61565b602002602001018181525050610fdd82826127c7565b7f92bfe9b63523d7c8baff8387323dd4c1c8ccd48705d9c91e19160ebcabb053b8338989898989896040516110189796959493929190613d3c565b60405180910390a15050505050505050565b611032612c9f565b6001546001600160a01b0316331461105c5760405162461bcd60e51b815260040161071c90613af9565b6001600160a01b0384166110a85760405162461bcd60e51b81526020600482015260136024820152724552524f525f4f524947494e414c5f5a45524f60681b604482015260640161071c565b6001600160a01b0383166110f25760405162461bcd60e51b81526020600482015260116024820152704552524f525f5441524745545f5a45524f60781b604482015260640161071c565b6001600160a01b03821661113a5760405162461bcd60e51b815260206004820152600f60248201526e4552524f525f46524f4d5f5a45524f60881b604482015260640161071c565b5f81116111895760405162461bcd60e51b815260206004820152601860248201527f4552524f525f5441524745545f414d4f554e545f5a45524f0000000000000000604482015260640161071c565b60405163e6a4390560e01b81526001600160a01b038086166004830152841660248201525f9073ca143ce32fe78f1f7019d7d551a6402fc5350c739063e6a4390590604401602060405180830381865afa1580156111e9573d5f5f3e3d5ffd5b505050506040513d601f19601f8201168201806040525081019061120d9190613b46565b90506001600160a01b0381166112565760405162461bcd60e51b815260206004820152600e60248201526d1410525497d393d517d1561254d560921b604482015260640161071c565b5f611262868685610b73565b90505f81116112aa5760405162461bcd60e51b815260206004820152601460248201527316915493d7d3d49251d253905317d05353d5539560621b604482015260640161071c565b6040516370a0823160e01b81526001600160a01b0385811660048301525f91908816906370a0823190602401602060405180830381865afa1580156112f1573d5f5f3e3d5ffd5b505050506040513d601f19601f820116820180604052508101906113159190613d8b565b9050818110156113675760405162461bcd60e51b815260206004820152601960248201527f494e53554646494349454e545f42414c414e43455f46524f4d00000000000000604482015260640161071c565b604051636eb1769f60e11b81526001600160a01b0386811660048301523060248301525f919089169063dd62ed3e90604401602060405180830381865afa1580156113b4573d5f5f3e3d5ffd5b505050506040513d601f19601f820116820180604052508101906113d89190613d8b565b90508281101561142a5760405162461bcd60e51b815260206004820152601b60248201527f494e53554646494349454e545f414c4c4f57414e43455f46524f4d0000000000604482015260640161071c565b6114368887308661250c565b6040516370a0823160e01b81523060048201525f906001600160a01b038a16906370a0823190602401602060405180830381865afa15801561147a573d5f5f3e3d5ffd5b505050506040513d601f19601f8201168201806040525081019061149e9190613d8b565b9050838110156114fa5760405162461bcd60e51b815260206004820152602160248201527f494e53554646494349454e545f52454345495645445f42595f434f4e545241436044820152601560fa1b606482015260840161071c565b604051636eb1769f60e11b81523060048201525f516020613e265f395f51905f5260248201525f906001600160a01b038b169063dd62ed3e90604401602060405180830381865afa158015611551573d5f5f3e3d5ffd5b505050506040513d601f19601f820116820180604052508101906115759190613d8b565b9050848110156115af576115978a5f516020613e265f395f51905f525f612cc7565b6115af8a5f516020613e265f395f51905f5287612cc7565b6040516370a0823160e01b81523060048201525f906001600160a01b038b16906370a0823190602401602060405180830381865afa1580156115f3573d5f5f3e3d5ffd5b505050506040513d601f19601f820116820180604052508101906116179190613d8b565b6040805160028082526060820183529293505f9290916020830190803683370190505090508b815f8151811061164f5761164f613b61565b60200260200101906001600160a01b031690816001600160a01b0316815250508a8160018151811061168357611683613b61565b6001600160a01b03909216602092830291909101909101525f516020613e265f395f51905f52635c11d795885f84306116be4261012c613da2565b6040518663ffffffff1660e01b81526004016116de959493929190613db5565b5f604051808303815f87803b1580156116f5575f5ffd5b505af1158015611707573d5f5f3e3d5ffd5b50506040516370a0823160e01b81523060048201525f92506001600160a01b038e1691506370a0823190602401602060405180830381865afa15801561174f573d5f5f3e3d5ffd5b505050506040513d601f19601f820116820180604052508101906117739190613d8b565b90505f6117808483613c96565b90505f81116117c65760405162461bcd60e51b8152602060048201526012602482015271535741505f52454345495645445f5a45524f60701b604482015260640161071c565b6117d08d82612ddd565b505050505050505050506117e360015f55565b50505050565b6001546001600160a01b031633146118135760405162461bcd60e51b815260040161071c90613af9565b6001600160a01b0382166118585760405162461bcd60e51b815260206004820152600c60248201526b5a45524f5f4144445245535360a01b604482015260640161071c565b7355d398326f99059ff775485246999027b3197954196001600160a01b038416016118bb5760405162461bcd60e51b815260206004820152601360248201527222a92927a92fa922a9aaa62a2faa27a5a2a71760691b604482015260640161071c565b5f81116118fb5760405162461bcd60e51b815260206004820152600e60248201526d1253959053125117d05353d5539560921b604482015260640161071c565b6040805160028082526060820183525f926020830190803683370190505090505f516020613e665f395f51905f52815f8151811061193b5761193b613b61565b60200260200101906001600160a01b031690816001600160a01b031681525050838160018151811061196f5761196f613b61565b6001600160a01b03909216602092830291909101909101526040516307c0329d60e21b81525f905f516020613e265f395f51905f5290631f00ca74906119bb9086908690600401613bb8565b5f60405180830381865afa1580156119d5573d5f5f3e3d5ffd5b505050506040513d5f823e601f3d908101601f191682016040526119fc9190810190613bd8565b90505f815f81518110611a1157611a11613b61565b60200260200101519050611a345f516020613e665f395f51905f5286308461250c565b611a595f516020613e665f395f51905f525f516020613e265f395f51905f525f612cc7565b611a7e5f516020613e665f395f51905f525f516020613e265f395f51905f5283612cc7565b5f516020613e265f395f51905f52635c11d795825f8630611aa042600a613da2565b6040518663ffffffff1660e01b8152600401611ac0959493929190613db5565b5f604051808303815f87803b158015611ad7575f5ffd5b505af1158015611ae9573d5f5f3e3d5ffd5b50506040516370a0823160e01b81523060048201525f92506001600160a01b03891691506370a0823190602401602060405180830381865afa158015611b31573d5f5f3e3d5ffd5b505050506040513d601f19601f82011682018060405250810190611b559190613d8b565b9050611b618782612ddd565b50505050505050565b611b726126fc565b6001600160a01b038116611b985760405162461bcd60e51b815260040161071c90613b1f565b6001546040516001600160a01b038084169216907f2931ebb3d190545dcf6801c37aa686b74f2e1000e753d0fac6e471a2aa5a6213905f90a3600180546001600160a01b0319166001600160a01b0392909216919091179055565b6001546001600160a01b03163314611c1d5760405162461bcd60e51b815260040161071c90613af9565b6001600160a01b038116611c435760405162461bcd60e51b815260040161071c90613b1f565b600380546001600160a01b0319166001600160a01b0392909216919091179055565b6060815f816001600160401b03811115611c8157611c816135ff565b604051908082528060200260200182016040528015611cc557816020015b604080518082019091525f8082526020820152815260200190600190039081611c9f5790505b5090506001600160a01b038616611d7f575f5b82811015611d79576040518060400160405280878784818110611cfd57611cfd613b61565b9050602002016020810190611d12919061359f565b6001600160a01b03168152602001878784818110611d3257611d32613b61565b9050602002016020810190611d47919061359f565b6001600160a01b031631815250828281518110611d6657611d66613b61565b6020908102919091010152600101611cd8565b50611e91565b855f5b83811015611e8e576040518060400160405280888884818110611da757611da7613b61565b9050602002016020810190611dbc919061359f565b6001600160a01b03168152602001836001600160a01b03166370a082318a8a86818110611deb57611deb613b61565b9050602002016020810190611e00919061359f565b6040516001600160e01b031960e084901b1681526001600160a01b039091166004820152602401602060405180830381865afa158015611e42573d5f5f3e3d5ffd5b505050506040513d601f19601f82011682018060405250810190611e669190613d8b565b815250838281518110611e7b57611e7b613b61565b6020908102919091010152600101611d82565b50505b95945050505050565b5f8311611ed85760405162461bcd60e51b815260206004820152600c60248201526b11549493d497d05353d5539560a21b604482015260640161071c565b6040805160018082528183019092525f916020808301908036833750506040805160018082528183019092529293505f9291506020808301908036833701905050905085825f81518110611f2e57611f2e613b61565b60200260200101906001600160a01b031690816001600160a01b03168152505084815f81518110611f6157611f61613b61565b602002602001018181525050611f7782826127c7565b7f92bfe9b63523d7c8baff8387323dd4c1c8ccd48705d9c91e19160ebcabb053b83387875f5f8989604051611fb29796959493929190613d3c565b60405180910390a1505050505050565b6001546001600160a01b03163314611fec5760405162461bcd60e51b815260040161071c90613af9565b600580546001600160a01b039485166001600160a01b031991821617909155600680549385169382169390931790925560078054919093169116179055565b6001546001600160a01b031633146120555760405162461bcd60e51b815260040161071c90613af9565b6001600160a01b03811661207b5760405162461bcd60e51b815260040161071c90613b1f565b600480546001600160a01b0319166001600160a01b0392909216919091179055565b5f6120a6613153565b805490915060ff600160401b82041615906001600160401b03165f811580156120cc5750825b90505f826001600160401b031660011480156120e75750303b155b9050811580156120f5575080155b156121135760405163f92ee8a960e01b815260040160405180910390fd5b845467ffffffffffffffff19166001178555831561213d57845460ff60401b1916600160401b1785555b6121463361317d565b8e60015f6101000a8154816001600160a01b0302191690836001600160a01b031602179055508d60035f6101000a8154816001600160a01b0302191690836001600160a01b031602179055508c60045f6101000a8154816001600160a01b0302191690836001600160a01b031602179055508b60055f6101000a8154816001600160a01b0302191690836001600160a01b031602179055508a60065f6101000a8154816001600160a01b0302191690836001600160a01b031602179055508960075f6101000a8154816001600160a01b0302191690836001600160a01b0316021790555088600b5f6101000a8154816001600160a01b0302191690836001600160a01b031602179055508760085f6101000a8154816001600160a01b0302191690836001600160a01b031602179055508660095f6101000a8154816001600160a01b0302191690836001600160a01b0316021790555085600a5f6101000a8154816001600160a01b0302191690836001600160a01b03160217905550831561230857845460ff60401b19168555604051600181527fc7f505b2f371ae2175ee4913f4499e1f2633a7b5936321eed1cdaeb6115181d29060200160405180910390a15b505050505050505050505050505050565b6123216126fc565b6001600160a01b03811661234a57604051631e4fbdf760e01b81525f600482015260240161071c565b61235381612757565b50565b306001600160a01b037f00000000000000000000000000000000000000000000000000000000000000001614806123dc57507f00000000000000000000000000000000000000000000000000000000000000006001600160a01b03166123d05f516020613e465f395f51905f52546001600160a01b031690565b6001600160a01b031614155b15610ea05760405163703e46dd60e11b815260040160405180910390fd5b6123536126fc565b816001600160a01b03166352d1902d6040518163ffffffff1660e01b8152600401602060405180830381865afa92505050801561245c575060408051601f3d908101601f1916820190925261245991810190613d8b565b60015b61248457604051634c9c8ce360e01b81526001600160a01b038316600482015260240161071c565b5f516020613e465f395f51905f5281146124b457604051632a87526960e21b81526004810182905260240161071c565b6124be838361318e565b505050565b306001600160a01b037f00000000000000000000000000000000000000000000000000000000000000001614610ea05760405163703e46dd60e11b815260040160405180910390fd5b604080516001600160a01b0385811660248301528481166044830152606480830185905283518084039091018152608490920183526020820180516001600160e01b03166323b872dd60e01b17905291515f9283929088169161256f9190613df0565b5f604051808303815f865af19150503d805f81146125a8576040519150601f19603f3d011682016040523d82523d5f602084013e6125ad565b606091505b50915091508180156125d75750805115806125d75750808060200190518101906125d79190613e06565b61262f5760405162461bcd60e51b8152602060048201526024808201527f5472616e7366657248656c7065723a205452414e534645525f46524f4d5f46416044820152631253115160e21b606482015260840161071c565b505050505050565b604080515f808252602082019092526001600160a01b0384169083906040516126609190613df0565b5f6040518083038185875af1925050503d805f811461269a576040519150601f19603f3d011682016040523d82523d5f602084013e61269f565b606091505b50509050806124be5760405162461bcd60e51b815260206004820152602360248201527f5472616e7366657248656c7065723a204554485f5452414e534645525f46414960448201526213115160ea1b606482015260840161071c565b3361272e7f9016d09d72d40fdae2fd8ceac6b6234c7706214fd39c1cd1e609a0528c199300546001600160a01b031690565b6001600160a01b031614610ea05760405163118cdaa760e01b815233600482015260240161071c565b7f9016d09d72d40fdae2fd8ceac6b6234c7706214fd39c1cd1e609a0528c19930080546001600160a01b031981166001600160a01b03848116918217845560405192169182907f8be0079c531659141344cd1fd0a4f28419497f9722a3daafe3b4186f6b6457e0905f90a3505050565b6127cf612c9f565b80518251146128125760405162461bcd60e51b815260206004820152600f60248201526e09a92a69a82a88690be988a9c8ea89608b1b604482015260640161071c565b5f5b8251811015612c00575f83828151811061283057612830613b61565b602002602001015190505f83838151811061284d5761284d613b61565b60200260200101519050805f03612865575050612bf8565b7355d398326f99059ff775485246999027b3197954196001600160a01b03831601612b69576128a35f516020613e665f395f51905f5233308461250c565b5f60646128b1836032613ca9565b6128bb9190613cc0565b90505f60646128cb846014613ca9565b6128d59190613cc0565b90505f816128e38486613c96565b6128ed9190613c96565b9050821561291a5760055461291a905f516020613e665f395f51905f52906001600160a01b0316856131e3565b811561294557600754612945905f516020613e665f395f51905f52906001600160a01b0316846131e3565b8015612b5f5760405163095ea7b360e01b81525f516020613e265f395f51905f5260048201525f60248201525f516020613e665f395f51905f529063095ea7b3906044016020604051808303815f875af11580156129a5573d5f5f3e3d5ffd5b505050506040513d601f19601f820116820180604052508101906129c99190613e06565b5060405163095ea7b360e01b81525f516020613e265f395f51905f526004820152602481018290525f516020613e665f395f51905f529063095ea7b3906044016020604051808303815f875af1158015612a25573d5f5f3e3d5ffd5b505050506040513d601f19601f82011682018060405250810190612a499190613e06565b50600b546040516370a0823160e01b81523060048201525f916001600160a01b0316906370a0823190602401602060405180830381865afa158015612a90573d5f5f3e3d5ffd5b505050506040513d601f19601f82011682018060405250810190612ab49190613d8b565b9050612abf826132f2565b600b546040516370a0823160e01b81523060048201525f916001600160a01b0316906370a0823190602401602060405180830381865afa158015612b05573d5f5f3e3d5ffd5b505050506040513d601f19601f82011682018060405250810190612b299190613d8b565b90505f612b368383613c96565b90508015612b5b57600b54600654612b5b916001600160a01b039081169116836131e3565b5050505b5050505050612bf8565b6001600160a01b038216612bdb5780341015612bbe5760405162461bcd60e51b815260206004820152601460248201527311549493d497d410565050931157d05353d5539560621b604482015260640161071c565b600354612bd4906001600160a01b031682612637565b5050612bf8565b600354612bf590839033906001600160a01b03168461250c565b50505b600101612814565b503415612c96575f805b8351811015612c75575f6001600160a01b0316848281518110612c2f57612c2f613b61565b60200260200101516001600160a01b031603612c6d57828181518110612c5757612c57613b61565b602002602001015182612c6a9190613da2565b91505b600101612c0a565b505f612c818234613c96565b90508015612c9357612c933382612637565b50505b610d8d60015f55565b60025f5403612cc157604051633ee5aeb560e01b815260040160405180910390fd5b60025f55565b604080516001600160a01b038481166024830152604480830185905283518084039091018152606490920183526020820180516001600160e01b031663095ea7b360e01b17905291515f92839290871691612d229190613df0565b5f604051808303815f865af19150503d805f8114612d5b576040519150601f19603f3d011682016040523d82523d5f602084013e612d60565b606091505b5091509150818015612d8a575080511580612d8a575080806020019051810190612d8a9190613e06565b612dd65760405162461bcd60e51b815260206004820152601e60248201527f5472616e7366657248656c7065723a20415050524f56455f4641494c45440000604482015260640161071c565b5050505050565b6040516370a0823160e01b81523060048201525f906001600160a01b038416906370a0823190602401602060405180830381865afa158015612e21573d5f5f3e3d5ffd5b505050506040513d601f19601f82011682018060405250810190612e459190613d8b565b905081811015612e975760405162461bcd60e51b815260206004820152601a60248201527f494e53554646494349454e545f544f4b454e5f42414c414e4345000000000000604482015260640161071c565b5f6103e8612ea78461021a613ca9565b612eb19190613cc0565b90505f6103e8612ec38561016a613ca9565b612ecd9190613cc0565b90505f6064612edd866008613ca9565b612ee79190613cc0565b90505f8183612ef68689613c96565b612f009190613c96565b612f0a9190613c96565b9050858183612f198688613da2565b612f239190613da2565b612f2d9190613da2565b14612f675760405162461bcd60e51b815260206004820152600a60248201526926a0aa242fa2a92927a960b11b604482015260640161071c565b60095460408051630dfe168160e01b815290516001600160a01b03808b16931691630dfe16819160048083019260209291908290030181865afa158015612fb0573d5f5f3e3d5ffd5b505050506040513d601f19601f82011682018060405250810190612fd49190613b46565b6001600160a01b0316148061305c57506009546040805163d21220a760e01b815290516001600160a01b03808b1693169163d21220a79160048083019260209291908290030181865afa15801561302d573d5f5f3e3d5ffd5b505050506040513d601f19601f820116820180604052508101906130519190613b46565b6001600160a01b0316145b6130a05760405162461bcd60e51b81526020600482015260156024820152741410525497d393d517d3505510d217d5105491d155605a1b604482015260640161071c565b6008546130b89088906001600160a01b0316866131e3565b6009546130d09088906001600160a01b0316856131e3565b60095f9054906101000a90046001600160a01b03166001600160a01b031663fff6cae96040518163ffffffff1660e01b81526004015f604051808303815f87803b15801561311c575f5ffd5b505af192505050801561312d575060015b50600a546131469088906001600160a01b0316836131e3565b611b618761dead846131e3565b5f807ff0c57e16840df040f15088dc2f81fe391c3923bec73e23a9662efc9c229c6a005b92915050565b6131856133dc565b61235381613401565b61319782613409565b6040516001600160a01b038316907fbc7cd75a20ee27fd9adebab32041f755214dbc6bffa90cc0225b39da2e5c2d3b905f90a28051156131db576124be828261346c565b610d8d61350c565b604080516001600160a01b038481166024830152604480830185905283518084039091018152606490920183526020820180516001600160e01b031663a9059cbb60e01b17905291515f9283929087169161323e9190613df0565b5f604051808303815f865af19150503d805f8114613277576040519150601f19603f3d011682016040523d82523d5f602084013e61327c565b606091505b50915091508180156132a65750805115806132a65750808060200190518101906132a69190613e06565b612dd65760405162461bcd60e51b815260206004820152601f60248201527f5472616e7366657248656c7065723a205452414e534645525f4641494c454400604482015260640161071c565b6040805160028082526060820183525f926020830190803683370190505090505f516020613e665f395f51905f52815f8151811061333257613332613b61565b6001600160a01b039283166020918202929092010152600b5482519116908290600190811061336357613363613b61565b6001600160a01b0390921660209283029190910190910152604051635c11d79560e01b81525f516020613e265f395f51905f5290635c11d795906133b39085905f90869030904290600401613db5565b5f604051808303815f87803b1580156133ca575f5ffd5b505af115801561262f573d5f5f3e3d5ffd5b6133e461352b565b610ea057604051631afcd79f60e31b815260040160405180910390fd5b6123216133dc565b806001600160a01b03163b5f0361343e57604051634c9c8ce360e01b81526001600160a01b038216600482015260240161071c565b5f516020613e465f395f51905f5280546001600160a01b0319166001600160a01b0392909216919091179055565b60605f6134798484613544565b905080801561349a57505f3d118061349a57505f846001600160a01b03163b115b156134af576134a7613557565b915050613177565b80156134d957604051639996b31560e01b81526001600160a01b038516600482015260240161071c565b3d156134ec576134e7613570565b613505565b60405163d6bda27560e01b815260040160405180910390fd5b5092915050565b3415610ea05760405163b398979f60e01b815260040160405180910390fd5b5f613534613153565b54600160401b900460ff16919050565b5f5f5f835160208501865af49392505050565b6040513d81523d5f602083013e3d602001810160405290565b6040513d5f823e3d81fd5b6001600160a01b0381168114612353575f5ffd5b803561359a8161357b565b919050565b5f602082840312156135af575f5ffd5b81356135ba8161357b565b9392505050565b5f5f5f606084860312156135d3575f5ffd5b83356135de8161357b565b925060208401356135ee8161357b565b929592945050506040919091013590565b634e487b7160e01b5f52604160045260245ffd5b604051601f8201601f191681016001600160401b038111828210171561363b5761363b6135ff565b604052919050565b5f5f6001600160401b0384111561365c5761365c6135ff565b50601f8301601f191660200161367181613613565b915050828152838383011115613685575f5ffd5b828260208301375f602084830101529392505050565b5f5f604083850312156136ac575f5ffd5b82356136b78161357b565b915060208301356001600160401b038111156136d1575f5ffd5b8301601f810185136136e1575f5ffd5b6136f085823560208401613643565b9150509250929050565b5f5f5f5f6080858703121561370d575f5ffd5b84356001600160401b03811115613722575f5ffd5b8501601f81018713613732575f5ffd5b61374187823560208401613643565b94505060208501356137528161357b565b92506040850135915060608501356137698161357b565b939692955090935050565b5f5f83601f840112613784575f5ffd5b5081356001600160401b0381111561379a575f5ffd5b6020830191508360208285010111156137b1575f5ffd5b9250929050565b5f5f5f5f5f5f60a087890312156137cd575f5ffd5b86356137d88161357b565b95506020870135945060408701356137ef8161357b565b93506060870135925060808701356001600160401b03811115613810575f5ffd5b61381c89828a01613774565b979a9699509497509295939492505050565b5f5f5f5f60808587031215613841575f5ffd5b843561384c8161357b565b9350602085013561385c8161357b565b9250604085013561386c8161357b565b9396929550929360600135925050565b5f5f5f6040848603121561388e575f5ffd5b83356138998161357b565b925060208401356001600160401b038111156138b3575f5ffd5b8401601f810186136138c3575f5ffd5b80356001600160401b038111156138d8575f5ffd5b8660208260051b84010111156138ec575f5ffd5b939660209190910195509293505050565b602080825282518282018190525f918401906040840190835b8181101561394957835180516001600160a01b031684526020908101518185015290930192604090920191600101613916565b509095945050505050565b5f5f5f5f60608587031215613967575f5ffd5b84356139728161357b565b93506020850135925060408501356001600160401b03811115613993575f5ffd5b61399f87828801613774565b95989497509550505050565b5f81518084528060208401602086015e5f602082860101526020601f19601f83011685010191505092915050565b602081525f6135ba60208301846139ab565b5f5f5f606084860312156139fd575f5ffd5b8335613a088161357b565b92506020840135613a188161357b565b91506040840135613a288161357b565b809150509250925092565b5f5f5f5f5f5f5f5f5f5f6101408b8d031215613a4d575f5ffd5b8a35613a588161357b565b995060208b0135613a688161357b565b985060408b0135613a788161357b565b975060608b0135613a888161357b565b965060808b0135613a988161357b565b955060a08b0135613aa88161357b565b945060c08b0135613ab88161357b565b935060e08b0135613ac88161357b565b92506101008b0135613ad98161357b565b9150613ae86101208c0161358f565b90509295989b9194979a5092959850565b6020808252600c908201526b22a92927a92fa0a226a4a71760a11b604082015260600190565b6020808252600d908201526c2d22a927afa0a2222922a9a99760991b604082015260600190565b5f60208284031215613b56575f5ffd5b81516135ba8161357b565b634e487b7160e01b5f52603260045260245ffd5b5f8151808452602084019350602083015f5b82811015613bae5781516001600160a01b0316865260209586019590910190600101613b87565b5093949350505050565b828152604060208201525f613bd06040830184613b75565b949350505050565b5f60208284031215613be8575f5ffd5b81516001600160401b03811115613bfd575f5ffd5b8201601f81018413613c0d575f5ffd5b80516001600160401b03811115613c2657613c266135ff565b8060051b613c3660208201613613565b91825260208184018101929081019087841115613c51575f5ffd5b6020850194505b83851015613c7757845180835260209586019590935090910190613c58565b979650505050505050565b634e487b7160e01b5f52601160045260245ffd5b8181038181111561317757613177613c82565b808202811582820484141761317757613177613c82565b5f82613cda57634e487b7160e01b5f52601260045260245ffd5b500490565b608081525f613cf160808301876139ab565b6001600160a01b0395861660208401529390941660408201526060015292915050565b81835281816020850137505f828201602090810191909152601f909101601f19169091010190565b6001600160a01b038881168252878116602083015260408201879052851660608201526080810184905260c060a082018190525f90613d7e9083018486613d14565b9998505050505050505050565b5f60208284031215613d9b575f5ffd5b5051919050565b8082018082111561317757613177613c82565b85815284602082015260a060408201525f613dd360a0830186613b75565b6001600160a01b0394909416606083015250608001529392505050565b5f82518060208501845e5f920191825250919050565b5f60208284031215613e16575f5ffd5b815180151581146135ba575f5ffdfe00000000000000000000000010ed43c718714eb63d5aa57b78b54704e256024e360894a13ba1a3210667c828492db98dca3e2076cc3735a920a3ca505d382bbc00000000000000000000000055d398326f99059ff775485246999027b3197955a264697066735822122020986b22a6ff8e311836d2ec788a934ecace0d1d7796394292fb247f76c405ce64736f6c634300081e0033","linkReferences":{}},"methodIdentifiers":{"BUY_BACK_RATE()":"5a461750","UPGRADE_INTERFACE_VERSION()":"ad3cb1cc","USDT()":"c54e44eb","WBNB()":"8dd95002","admin()":"f851a440","buyBackPercent2()":"43252bf3","buyBackPercent362()":"617fe173","buyBackPercent538()":"bec3ac33","carryOutBuyback(address,address,address,uint256)":"7fd6dc7a","changeAdmin(address)":"8f283970","changeOperator(address)":"06394c9b","changeRechargePercent(address,address,address)":"b0d51091","changeRecipient(address)":"92c2bcb4","changeSender(address)":"b280a7e7","dead()":"36cf7c87","factory()":"c45a0155","getAmountOut(address,address,uint256)":"4aa06652","getPrice(address)":"41976e09","initialize(address,address,address,address,address,address,address,address,address,address)":"c306b378","multiBalanceOf(address,address[])":"9f166cf1","multiRecharge(address,uint256,address,uint256,string)":"73abf0af","operator()":"570ca735","owner()":"8da5cb5b","proxiableUUID()":"52d1902d","rechargePercent20()":"bf2647f2","rechargePercent30()":"2cd89ff2","rechargePercent50()":"baad38d5","recipient()":"66d003ac","redeemTetherToSendToken(address,address,uint256)":"877228b7","renounceOwnership()":"715018a6","router()":"f887ea40","sender()":"67e404ce","singleRecharge(address,uint256,string)":"aa7e7eb9","skp()":"45348946","transferOwnership(address)":"f2fde38b","upgradeToAndCall(address,bytes)":"4f1ef286","withdraw(string,address,uint256,address)":"62a33811"},"id":44}