{"abi":[{"type":"constructor","inputs":[{"name":"_initialRecipient","type":"address","internalType":"address"},{"name":"_buyFee","type":"address","internalType":"address"},{"name":"_sellFee","type":"address","internalType":"address"}],"stateMutability":"nonpayable"},{"type":"function","name":"OPEN_ADDR","inputs":[],"outputs":[{"name":"","type":"address","internalType":"address"}],"stateMutability":"view"},{"type":"function","name":"TAX_DENOMINATOR","inputs":[],"outputs":[{"name":"","type":"uint256","internalType":"uint256"}],"stateMutability":"view"},{"type":"function","name":"TAX_RATE","inputs":[],"outputs":[{"name":"","type":"uint256","internalType":"uint256"}],"stateMutability":"view"},{"type":"function","name":"allowance","inputs":[{"name":"owner","type":"address","internalType":"address"},{"name":"spender","type":"address","internalType":"address"}],"outputs":[{"name":"","type":"uint256","internalType":"uint256"}],"stateMutability":"view"},{"type":"function","name":"allowlist","inputs":[{"name":"","type":"address","internalType":"address"}],"outputs":[{"name":"","type":"bool","internalType":"bool"}],"stateMutability":"view"},{"type":"function","name":"approve","inputs":[{"name":"spender","type":"address","internalType":"address"},{"name":"value","type":"uint256","internalType":"uint256"}],"outputs":[{"name":"","type":"bool","internalType":"bool"}],"stateMutability":"nonpayable"},{"type":"function","name":"balanceOf","inputs":[{"name":"account","type":"address","internalType":"address"}],"outputs":[{"name":"","type":"uint256","internalType":"uint256"}],"stateMutability":"view"},{"type":"function","name":"buyFee","inputs":[],"outputs":[{"name":"","type":"address","internalType":"address"}],"stateMutability":"view"},{"type":"function","name":"decimals","inputs":[],"outputs":[{"name":"","type":"uint8","internalType":"uint8"}],"stateMutability":"view"},{"type":"function","name":"name","inputs":[],"outputs":[{"name":"","type":"string","internalType":"string"}],"stateMutability":"view"},{"type":"function","name":"owner","inputs":[],"outputs":[{"name":"","type":"address","internalType":"address"}],"stateMutability":"view"},{"type":"function","name":"pancakePair","inputs":[],"outputs":[{"name":"","type":"address","internalType":"address"}],"stateMutability":"view"},{"type":"function","name":"pancakeRouter","inputs":[],"outputs":[{"name":"","type":"address","internalType":"contract IPancakeRouter02"}],"stateMutability":"view"},{"type":"function","name":"renounceOwnership","inputs":[],"outputs":[],"stateMutability":"nonpayable"},{"type":"function","name":"sellFee","inputs":[],"outputs":[{"name":"","type":"address","internalType":"address"}],"stateMutability":"view"},{"type":"function","name":"setAllowlist","inputs":[{"name":"addr","type":"address","internalType":"address"},{"name":"isAllow","type":"bool","internalType":"bool"}],"outputs":[],"stateMutability":"nonpayable"},{"type":"function","name":"setFeeAddresses","inputs":[{"name":"_buyFee","type":"address","internalType":"address"},{"name":"_sellFee","type":"address","internalType":"address"}],"outputs":[],"stateMutability":"nonpayable"},{"type":"function","name":"symbol","inputs":[],"outputs":[{"name":"","type":"string","internalType":"string"}],"stateMutability":"view"},{"type":"function","name":"totalSupply","inputs":[],"outputs":[{"name":"","type":"uint256","internalType":"uint256"}],"stateMutability":"view"},{"type":"function","name":"tradingOpen","inputs":[],"outputs":[{"name":"","type":"bool","internalType":"bool"}],"stateMutability":"view"},{"type":"function","name":"transfer","inputs":[{"name":"to","type":"address","internalType":"address"},{"name":"value","type":"uint256","internalType":"uint256"}],"outputs":[{"name":"","type":"bool","internalType":"bool"}],"stateMutability":"nonpayable"},{"type":"function","name":"transferFrom","inputs":[{"name":"from","type":"address","internalType":"address"},{"name":"to","type":"address","internalType":"address"},{"name":"value","type":"uint256","internalType":"uint256"}],"outputs":[{"name":"","type":"bool","internalType":"bool"}],"stateMutability":"nonpayable"},{"type":"function","name":"transferOwnership","inputs":[{"name":"newOwner","type":"address","internalType":"address"}],"outputs":[],"stateMutability":"nonpayable"},{"type":"event","name":"Approval","inputs":[{"name":"owner","type":"address","indexed":true,"internalType":"address"},{"name":"spender","type":"address","indexed":true,"internalType":"address"},{"name":"value","type":"uint256","indexed":false,"internalType":"uint256"}],"anonymous":false},{"type":"event","name":"OwnershipTransferred","inputs":[{"name":"previousOwner","type":"address","indexed":true,"internalType":"address"},{"name":"newOwner","type":"address","indexed":true,"internalType":"address"}],"anonymous":false},{"type":"event","name":"SetAllowlist","inputs":[{"name":"user","type":"address","indexed":true,"internalType":"address"},{"name":"allow","type":"bool","indexed":false,"internalType":"bool"}],"anonymous":false},{"type":"event","name":"SetFeeAddresses","inputs":[{"name":"buyFee","type":"address","indexed":false,"internalType":"address"},{"name":"sellFee","type":"address","indexed":false,"internalType":"address"}],"anonymous":false},{"type":"event","name":"TradingOpened","inputs":[],"anonymous":false},{"type":"event","name":"Transfer","inputs":[{"name":"from","type":"address","indexed":true,"internalType":"address"},{"name":"to","type":"address","indexed":true,"internalType":"address"},{"name":"value","type":"uint256","indexed":false,"internalType":"uint256"}],"anonymous":false},{"type":"error","name":"ERC20InsufficientAllowance","inputs":[{"name":"spender","type":"address","internalType":"address"},{"name":"allowance","type":"uint256","internalType":"uint256"},{"name":"needed","type":"uint256","internalType":"uint256"}]},{"type":"error","name":"ERC20InsufficientBalance","inputs":[{"name":"sender","type":"address","internalType":"address"},{"name":"balance","type":"uint256","internalType":"uint256"},{"name":"needed","type":"uint256","internalType":"uint256"}]},{"type":"error","name":"ERC20InvalidApprover","inputs":[{"name":"approver","type":"address","internalType":"address"}]},{"type":"error","name":"ERC20InvalidReceiver","inputs":[{"name":"receiver","type":"address","internalType":"address"}]},{"type":"error","name":"ERC20InvalidSender","inputs":[{"name":"sender","type":"address","internalType":"address"}]},{"type":"error","name":"ERC20InvalidSpender","inputs":[{"name":"spender","type":"address","internalType":"address"}]},{"type":"error","name":"OwnableInvalidOwner","inputs":[{"name":"owner","type":"address","internalType":"address"}]},{"type":"error","name":"OwnableUnauthorizedAccount","inputs":[{"name":"account","type":"address","internalType":"address"}]}],"bytecode":{"object":"0x60806040527310ed43c718714eb63d5aa57b78b54704e256024e60065f6101000a81548173ffffffffffffffffffffffffffffffffffffffff021916908373ffffffffffffffffffffffffffffffffffffffff1602179055505f600760146101000a81548160ff02191690831515021790555034801561007d575f5ffd5b50604051612ea7380380612ea7833981810160405281019061009f9190610dc5565b336040518060400160405280600481526020017f46414354000000000000000000000000000000000000000000000000000000008152506040518060400160405280600481526020017f4641435400000000000000000000000000000000000000000000000000000000815250816003908161011b9190611052565b50806004908161012b9190611052565b5050505f73ffffffffffffffffffffffffffffffffffffffff168173ffffffffffffffffffffffffffffffffffffffff160361019e575f6040517f1e4fbdf70000000000000000000000000000000000000000000000000000000081526004016101959190611130565b60405180910390fd5b6101ad8161047d60201b60201c565b508160085f6101000a81548173ffffffffffffffffffffffffffffffffffffffff021916908373ffffffffffffffffffffffffffffffffffffffff1602179055508060095f6101000a81548173ffffffffffffffffffffffffffffffffffffffff021916908373ffffffffffffffffffffffffffffffffffffffff16021790555060065f9054906101000a900473ffffffffffffffffffffffffffffffffffffffff1673ffffffffffffffffffffffffffffffffffffffff1663c45a01556040518163ffffffff1660e01b8152600401602060405180830381865afa158015610298573d5f5f3e3d5ffd5b505050506040513d601f19601f820116820180604052508101906102bc9190611149565b73ffffffffffffffffffffffffffffffffffffffff1663c9c653963060065f9054906101000a900473ffffffffffffffffffffffffffffffffffffffff1673ffffffffffffffffffffffffffffffffffffffff1663ad5c46486040518163ffffffff1660e01b8152600401602060405180830381865afa158015610342573d5f5f3e3d5ffd5b505050506040513d601f19601f820116820180604052508101906103669190611149565b6040518363ffffffff1660e01b8152600401610383929190611174565b6020604051808303815f875af115801561039f573d5f5f3e3d5ffd5b505050506040513d601f19601f820116820180604052508101906103c39190611149565b60075f6101000a81548173ffffffffffffffffffffffffffffffffffffffff021916908373ffffffffffffffffffffffffffffffffffffffff16021790555061041d836a52b7d2dcc80cd2e400000061054060201b60201c565b61042e8360016105c560201b60201c565b61043f8260016105c560201b60201c565b6104508160016105c560201b60201c565b61047573717cc0e17a361c6fe16db3238255cda2d79f5a1a60016105c560201b60201c565b5050506113d4565b5f60055f9054906101000a900473ffffffffffffffffffffffffffffffffffffffff1690508160055f6101000a81548173ffffffffffffffffffffffffffffffffffffffff021916908373ffffffffffffffffffffffffffffffffffffffff1602179055508173ffffffffffffffffffffffffffffffffffffffff168173ffffffffffffffffffffffffffffffffffffffff167f8be0079c531659141344cd1fd0a4f28419497f9722a3daafe3b4186f6b6457e060405160405180910390a35050565b5f73ffffffffffffffffffffffffffffffffffffffff168273ffffffffffffffffffffffffffffffffffffffff16036105b0575f6040517fec442f050000000000000000000000000000000000000000000000000000000081526004016105a79190611130565b60405180910390fd5b6105c15f838361067960201b60201c565b5050565b6105d3610a8660201b60201c565b80600a5f8473ffffffffffffffffffffffffffffffffffffffff1673ffffffffffffffffffffffffffffffffffffffff1681526020019081526020015f205f6101000a81548160ff0219169083151502179055508173ffffffffffffffffffffffffffffffffffffffff167f0461ee29b36d562ad5227f9b55e9acbc21e2be7f6d7342d2a1444252945db5438260405161066d91906111b5565b60405180910390a25050565b5f73ffffffffffffffffffffffffffffffffffffffff168373ffffffffffffffffffffffffffffffffffffffff1614806106de57505f73ffffffffffffffffffffffffffffffffffffffff168273ffffffffffffffffffffffffffffffffffffffff16145b156106f9576106f4838383610b1f60201b60201c565b610a81565b5f60075f9054906101000a900473ffffffffffffffffffffffffffffffffffffffff1673ffffffffffffffffffffffffffffffffffffffff168473ffffffffffffffffffffffffffffffffffffffff161490505f60075f9054906101000a900473ffffffffffffffffffffffffffffffffffffffff1673ffffffffffffffffffffffffffffffffffffffff168473ffffffffffffffffffffffffffffffffffffffff161490505f600a5f8773ffffffffffffffffffffffffffffffffffffffff1673ffffffffffffffffffffffffffffffffffffffff1681526020019081526020015f205f9054906101000a900460ff1690505f600a5f8773ffffffffffffffffffffffffffffffffffffffff1673ffffffffffffffffffffffffffffffffffffffff1681526020019081526020015f205f9054906101000a900460ff16905081806108425750805b1561095457600760149054906101000a900460ff161580156108ed575073717cc0e17a361c6fe16db3238255cda2d79f5a1a73ffffffffffffffffffffffffffffffffffffffff168773ffffffffffffffffffffffffffffffffffffffff1614806108ec575073717cc0e17a361c6fe16db3238255cda2d79f5a1a73ffffffffffffffffffffffffffffffffffffffff168673ffffffffffffffffffffffffffffffffffffffff16145b5b1561093a576001600760146101000a81548160ff0219169083151502179055507fea4359d5c4b8f0945a64ab9c37fe830b3407d45e0e6e6f84275977a570457d6f60405160405180910390a15b61094b878787610b1f60201b60201c565b50505050610a81565b600760149054906101000a900460ff1615801561096e5750835b156109ae576040517f08c379a00000000000000000000000000000000000000000000000000000000081526004016109a590611228565b60405180910390fd5b831580156109ba575082155b156109d9576109d0878787610b1f60201b60201c565b50505050610a81565b5f6103e8601e876109ea9190611273565b6109f491906112e1565b90505f8187610a039190611311565b90505f86610a325760095f9054906101000a900473ffffffffffffffffffffffffffffffffffffffff16610a55565b60085f9054906101000a900473ffffffffffffffffffffffffffffffffffffffff165b9050610a688a8285610b1f60201b60201c565b610a798a8a84610b1f60201b60201c565b505050505050505b505050565b610a94610d3860201b60201c565b73ffffffffffffffffffffffffffffffffffffffff16610ab8610d3f60201b60201c565b73ffffffffffffffffffffffffffffffffffffffff1614610b1d57610ae1610d3860201b60201c565b6040517f118cdaa7000000000000000000000000000000000000000000000000000000008152600401610b149190611130565b60405180910390fd5b565b5f73ffffffffffffffffffffffffffffffffffffffff168373ffffffffffffffffffffffffffffffffffffffff1603610b6f578060025f828254610b639190611344565b92505081905550610c3d565b5f5f5f8573ffffffffffffffffffffffffffffffffffffffff1673ffffffffffffffffffffffffffffffffffffffff1681526020019081526020015f2054905081811015610bf8578381836040517fe450d38c000000000000000000000000000000000000000000000000000000008152600401610bef93929190611386565b60405180910390fd5b8181035f5f8673ffffffffffffffffffffffffffffffffffffffff1673ffffffffffffffffffffffffffffffffffffffff1681526020019081526020015f2081905550505b5f73ffffffffffffffffffffffffffffffffffffffff168273ffffffffffffffffffffffffffffffffffffffff1603610c84578060025f8282540392505081905550610cce565b805f5f8473ffffffffffffffffffffffffffffffffffffffff1673ffffffffffffffffffffffffffffffffffffffff1681526020019081526020015f205f82825401925050819055505b8173ffffffffffffffffffffffffffffffffffffffff168373ffffffffffffffffffffffffffffffffffffffff167fddf252ad1be2c89b69c2b068fc378daa952ba7f163c4a11628f55a4df523b3ef83604051610d2b91906113bb565b60405180910390a3505050565b5f33905090565b5f60055f9054906101000a900473ffffffffffffffffffffffffffffffffffffffff16905090565b5f5ffd5b5f73ffffffffffffffffffffffffffffffffffffffff82169050919050565b5f610d9482610d6b565b9050919050565b610da481610d8a565b8114610dae575f5ffd5b50565b5f81519050610dbf81610d9b565b92915050565b5f5f5f60608486031215610ddc57610ddb610d67565b5b5f610de986828701610db1565b9350506020610dfa86828701610db1565b9250506040610e0b86828701610db1565b9150509250925092565b5f81519050919050565b7f4e487b71000000000000000000000000000000000000000000000000000000005f52604160045260245ffd5b7f4e487b71000000000000000000000000000000000000000000000000000000005f52602260045260245ffd5b5f6002820490506001821680610e9057607f821691505b602082108103610ea357610ea2610e4c565b5b50919050565b5f819050815f5260205f209050919050565b5f6020601f8301049050919050565b5f82821b905092915050565b5f60088302610f057fffffffffffffffffffffffffffffffffffffffffffffffffffffffffffffffff82610eca565b610f0f8683610eca565b95508019841693508086168417925050509392505050565b5f819050919050565b5f819050919050565b5f610f53610f4e610f4984610f27565b610f30565b610f27565b9050919050565b5f819050919050565b610f6c83610f39565b610f80610f7882610f5a565b848454610ed6565b825550505050565b5f5f905090565b610f97610f88565b610fa2818484610f63565b505050565b5b81811015610fc557610fba5f82610f8f565b600181019050610fa8565b5050565b601f82111561100a57610fdb81610ea9565b610fe484610ebb565b81016020851015610ff3578190505b611007610fff85610ebb565b830182610fa7565b50505b505050565b5f82821c905092915050565b5f61102a5f198460080261100f565b1980831691505092915050565b5f611042838361101b565b9150826002028217905092915050565b61105b82610e15565b67ffffffffffffffff81111561107457611073610e1f565b5b61107e8254610e79565b611089828285610fc9565b5f60209050601f8311600181146110ba575f84156110a8578287015190505b6110b28582611037565b865550611119565b601f1984166110c886610ea9565b5f5b828110156110ef578489015182556001820191506020850194506020810190506110ca565b8683101561110c5784890151611108601f89168261101b565b8355505b6001600288020188555050505b505050505050565b61112a81610d8a565b82525050565b5f6020820190506111435f830184611121565b92915050565b5f6020828403121561115e5761115d610d67565b5b5f61116b84828501610db1565b91505092915050565b5f6040820190506111875f830185611121565b6111946020830184611121565b9392505050565b5f8115159050919050565b6111af8161119b565b82525050565b5f6020820190506111c85f8301846111a6565b92915050565b5f82825260208201905092915050565b7f427579206e6f74206f70656e20796574000000000000000000000000000000005f82015250565b5f6112126010836111ce565b915061121d826111de565b602082019050919050565b5f6020820190508181035f83015261123f81611206565b9050919050565b7f4e487b71000000000000000000000000000000000000000000000000000000005f52601160045260245ffd5b5f61127d82610f27565b915061128883610f27565b925082820261129681610f27565b915082820484148315176112ad576112ac611246565b5b5092915050565b7f4e487b71000000000000000000000000000000000000000000000000000000005f52601260045260245ffd5b5f6112eb82610f27565b91506112f683610f27565b925082611306576113056112b4565b5b828204905092915050565b5f61131b82610f27565b915061132683610f27565b925082820390508181111561133e5761133d611246565b5b92915050565b5f61134e82610f27565b915061135983610f27565b925082820190508082111561137157611370611246565b5b92915050565b61138081610f27565b82525050565b5f6060820190506113995f830186611121565b6113a66020830185611377565b6113b36040830184611377565b949350505050565b5f6020820190506113ce5f830184611377565b92915050565b611ac6806113e15f395ff3fe608060405234801561000f575f5ffd5b506004361061014b575f3560e01c806383f170be116100c1578063b12527f81161007a578063b12527f814610391578063b8c9d25c146103ad578063c21ebd07146103cb578063dd62ed3e146103e9578063f2fde38b14610419578063ffb54a99146104355761014b565b806383f170be146102b95780638da5cb5b146102d757806395d89b41146102f5578063a51c9ace14610313578063a7cd52cb14610331578063a9059cbb146103615761014b565b80632b14ca56116101135780632b14ca5614610207578063313ce5671461022557806347062402146102435780634bc01e1b1461026157806370a082311461027f578063715018a6146102af5761014b565b806306fdde031461014f578063095ea7b31461016d57806311c841201461019d57806318160ddd146101b957806323b872dd146101d7575b5f5ffd5b610157610453565b6040516101649190611503565b60405180910390f35b610187600480360381019061018291906115b4565b6104e3565b604051610194919061160c565b60405180910390f35b6101b760048036038101906101b29190611625565b610505565b005b6101c16105ca565b6040516101ce9190611672565b60405180910390f35b6101f160048036038101906101ec919061168b565b6105d3565b6040516101fe919061160c565b60405180910390f35b61020f610601565b60405161021c91906116ea565b60405180910390f35b61022d610626565b60405161023a919061171e565b60405180910390f35b61024b61062e565b60405161025891906116ea565b60405180910390f35b610269610653565b60405161027691906116ea565b60405180910390f35b61029960048036038101906102949190611737565b61066b565b6040516102a69190611672565b60405180910390f35b6102b76106b0565b005b6102c16106c3565b6040516102ce9190611672565b60405180910390f35b6102df6106c8565b6040516102ec91906116ea565b60405180910390f35b6102fd6106f0565b60405161030a9190611503565b60405180910390f35b61031b610780565b6040516103289190611672565b60405180910390f35b61034b60048036038101906103469190611737565b610786565b604051610358919061160c565b60405180910390f35b61037b600480360381019061037691906115b4565b6107a3565b604051610388919061160c565b60405180910390f35b6103ab60048036038101906103a6919061178c565b6107c5565b005b6103b5610873565b6040516103c291906116ea565b60405180910390f35b6103d3610898565b6040516103e09190611825565b60405180910390f35b61040360048036038101906103fe9190611625565b6108bd565b6040516104109190611672565b60405180910390f35b610433600480360381019061042e9190611737565b61093f565b005b61043d6109c3565b60405161044a919061160c565b60405180910390f35b6060600380546104629061186b565b80601f016020809104026020016040519081016040528092919081815260200182805461048e9061186b565b80156104d95780601f106104b0576101008083540402835291602001916104d9565b820191905f5260205f20905b8154815290600101906020018083116104bc57829003601f168201915b5050505050905090565b5f5f6104ed6109d6565b90506104fa8185856109dd565b600191505092915050565b61050d6109ef565b8160085f6101000a81548173ffffffffffffffffffffffffffffffffffffffff021916908373ffffffffffffffffffffffffffffffffffffffff1602179055508060095f6101000a81548173ffffffffffffffffffffffffffffffffffffffff021916908373ffffffffffffffffffffffffffffffffffffffff1602179055507ff1c7d028e3d5820bdb1a931f3d1fdf89c36b6fbc51f404d3a01b45ecc01d021682826040516105be92919061189b565b60405180910390a15050565b5f600254905090565b5f5f6105dd6109d6565b90506105ea858285610a76565b6105f5858585610b09565b60019150509392505050565b60095f9054906101000a900473ffffffffffffffffffffffffffffffffffffffff1681565b5f6012905090565b60085f9054906101000a900473ffffffffffffffffffffffffffffffffffffffff1681565b73717cc0e17a361c6fe16db3238255cda2d79f5a1a81565b5f5f5f8373ffffffffffffffffffffffffffffffffffffffff1673ffffffffffffffffffffffffffffffffffffffff1681526020019081526020015f20549050919050565b6106b86109ef565b6106c15f610bf9565b565b601e81565b5f60055f9054906101000a900473ffffffffffffffffffffffffffffffffffffffff16905090565b6060600480546106ff9061186b565b80601f016020809104026020016040519081016040528092919081815260200182805461072b9061186b565b80156107765780601f1061074d57610100808354040283529160200191610776565b820191905f5260205f20905b81548152906001019060200180831161075957829003601f168201915b5050505050905090565b6103e881565b600a602052805f5260405f205f915054906101000a900460ff1681565b5f5f6107ad6109d6565b90506107ba818585610b09565b600191505092915050565b6107cd6109ef565b80600a5f8473ffffffffffffffffffffffffffffffffffffffff1673ffffffffffffffffffffffffffffffffffffffff1681526020019081526020015f205f6101000a81548160ff0219169083151502179055508173ffffffffffffffffffffffffffffffffffffffff167f0461ee29b36d562ad5227f9b55e9acbc21e2be7f6d7342d2a1444252945db54382604051610867919061160c565b60405180910390a25050565b60075f9054906101000a900473ffffffffffffffffffffffffffffffffffffffff1681565b60065f9054906101000a900473ffffffffffffffffffffffffffffffffffffffff1681565b5f60015f8473ffffffffffffffffffffffffffffffffffffffff1673ffffffffffffffffffffffffffffffffffffffff1681526020019081526020015f205f8373ffffffffffffffffffffffffffffffffffffffff1673ffffffffffffffffffffffffffffffffffffffff1681526020019081526020015f2054905092915050565b6109476109ef565b5f73ffffffffffffffffffffffffffffffffffffffff168173ffffffffffffffffffffffffffffffffffffffff16036109b7575f6040517f1e4fbdf70000000000000000000000000000000000000000000000000000000081526004016109ae91906116ea565b60405180910390fd5b6109c081610bf9565b50565b600760149054906101000a900460ff1681565b5f33905090565b6109ea8383836001610cbc565b505050565b6109f76109d6565b73ffffffffffffffffffffffffffffffffffffffff16610a156106c8565b73ffffffffffffffffffffffffffffffffffffffff1614610a7457610a386109d6565b6040517f118cdaa7000000000000000000000000000000000000000000000000000000008152600401610a6b91906116ea565b60405180910390fd5b565b5f610a8184846108bd565b90507fffffffffffffffffffffffffffffffffffffffffffffffffffffffffffffffff811015610b035781811015610af4578281836040517ffb8f41b2000000000000000000000000000000000000000000000000000000008152600401610aeb939291906118c2565b60405180910390fd5b610b0284848484035f610cbc565b5b50505050565b5f73ffffffffffffffffffffffffffffffffffffffff168373ffffffffffffffffffffffffffffffffffffffff1603610b79575f6040517f96c6fd1e000000000000000000000000000000000000000000000000000000008152600401610b7091906116ea565b60405180910390fd5b5f73ffffffffffffffffffffffffffffffffffffffff168273ffffffffffffffffffffffffffffffffffffffff1603610be9575f6040517fec442f05000000000000000000000000000000000000000000000000000000008152600401610be091906116ea565b60405180910390fd5b610bf4838383610e8b565b505050565b5f60055f9054906101000a900473ffffffffffffffffffffffffffffffffffffffff1690508160055f6101000a81548173ffffffffffffffffffffffffffffffffffffffff021916908373ffffffffffffffffffffffffffffffffffffffff1602179055508173ffffffffffffffffffffffffffffffffffffffff168173ffffffffffffffffffffffffffffffffffffffff167f8be0079c531659141344cd1fd0a4f28419497f9722a3daafe3b4186f6b6457e060405160405180910390a35050565b5f73ffffffffffffffffffffffffffffffffffffffff168473ffffffffffffffffffffffffffffffffffffffff1603610d2c575f6040517fe602df05000000000000000000000000000000000000000000000000000000008152600401610d2391906116ea565b60405180910390fd5b5f73ffffffffffffffffffffffffffffffffffffffff168373ffffffffffffffffffffffffffffffffffffffff1603610d9c575f6040517f94280d62000000000000000000000000000000000000000000000000000000008152600401610d9391906116ea565b60405180910390fd5b8160015f8673ffffffffffffffffffffffffffffffffffffffff1673ffffffffffffffffffffffffffffffffffffffff1681526020019081526020015f205f8573ffffffffffffffffffffffffffffffffffffffff1673ffffffffffffffffffffffffffffffffffffffff1681526020019081526020015f20819055508015610e85578273ffffffffffffffffffffffffffffffffffffffff168473ffffffffffffffffffffffffffffffffffffffff167f8c5be1e5ebec7d5bd14f71427d1e84f3dd0314c0f7b2291e5b200ac8c7c3b92584604051610e7c9190611672565b60405180910390a35b50505050565b5f73ffffffffffffffffffffffffffffffffffffffff168373ffffffffffffffffffffffffffffffffffffffff161480610ef057505f73ffffffffffffffffffffffffffffffffffffffff168273ffffffffffffffffffffffffffffffffffffffff16145b15610f0557610f0083838361127a565b611275565b5f60075f9054906101000a900473ffffffffffffffffffffffffffffffffffffffff1673ffffffffffffffffffffffffffffffffffffffff168473ffffffffffffffffffffffffffffffffffffffff161490505f60075f9054906101000a900473ffffffffffffffffffffffffffffffffffffffff1673ffffffffffffffffffffffffffffffffffffffff168473ffffffffffffffffffffffffffffffffffffffff161490505f600a5f8773ffffffffffffffffffffffffffffffffffffffff1673ffffffffffffffffffffffffffffffffffffffff1681526020019081526020015f205f9054906101000a900460ff1690505f600a5f8773ffffffffffffffffffffffffffffffffffffffff1673ffffffffffffffffffffffffffffffffffffffff1681526020019081526020015f205f9054906101000a900460ff169050818061104e5750805b1561115a57600760149054906101000a900460ff161580156110f9575073717cc0e17a361c6fe16db3238255cda2d79f5a1a73ffffffffffffffffffffffffffffffffffffffff168773ffffffffffffffffffffffffffffffffffffffff1614806110f8575073717cc0e17a361c6fe16db3238255cda2d79f5a1a73ffffffffffffffffffffffffffffffffffffffff168673ffffffffffffffffffffffffffffffffffffffff16145b5b15611146576001600760146101000a81548160ff0219169083151502179055507fea4359d5c4b8f0945a64ab9c37fe830b3407d45e0e6e6f84275977a570457d6f60405160405180910390a15b61115187878761127a565b50505050611275565b600760149054906101000a900460ff161580156111745750835b156111b4576040517f08c379a00000000000000000000000000000000000000000000000000000000081526004016111ab90611941565b60405180910390fd5b831580156111c0575082155b156111d9576111d087878761127a565b50505050611275565b5f6103e8601e876111ea919061198c565b6111f491906119fa565b90505f81876112039190611a2a565b90505f866112325760095f9054906101000a900473ffffffffffffffffffffffffffffffffffffffff16611255565b60085f9054906101000a900473ffffffffffffffffffffffffffffffffffffffff165b90506112628a828561127a565b61126d8a8a8461127a565b505050505050505b505050565b5f73ffffffffffffffffffffffffffffffffffffffff168373ffffffffffffffffffffffffffffffffffffffff16036112ca578060025f8282546112be9190611a5d565b92505081905550611398565b5f5f5f8573ffffffffffffffffffffffffffffffffffffffff1673ffffffffffffffffffffffffffffffffffffffff1681526020019081526020015f2054905081811015611353578381836040517fe450d38c00000000000000000000000000000000000000000000000000000000815260040161134a939291906118c2565b60405180910390fd5b8181035f5f8673ffffffffffffffffffffffffffffffffffffffff1673ffffffffffffffffffffffffffffffffffffffff1681526020019081526020015f2081905550505b5f73ffffffffffffffffffffffffffffffffffffffff168273ffffffffffffffffffffffffffffffffffffffff16036113df578060025f8282540392505081905550611429565b805f5f8473ffffffffffffffffffffffffffffffffffffffff1673ffffffffffffffffffffffffffffffffffffffff1681526020019081526020015f205f82825401925050819055505b8173ffffffffffffffffffffffffffffffffffffffff168373ffffffffffffffffffffffffffffffffffffffff167fddf252ad1be2c89b69c2b068fc378daa952ba7f163c4a11628f55a4df523b3ef836040516114869190611672565b60405180910390a3505050565b5f81519050919050565b5f82825260208201905092915050565b8281835e5f83830152505050565b5f601f19601f8301169050919050565b5f6114d582611493565b6114df818561149d565b93506114ef8185602086016114ad565b6114f8816114bb565b840191505092915050565b5f6020820190508181035f83015261151b81846114cb565b905092915050565b5f5ffd5b5f73ffffffffffffffffffffffffffffffffffffffff82169050919050565b5f61155082611527565b9050919050565b61156081611546565b811461156a575f5ffd5b50565b5f8135905061157b81611557565b92915050565b5f819050919050565b61159381611581565b811461159d575f5ffd5b50565b5f813590506115ae8161158a565b92915050565b5f5f604083850312156115ca576115c9611523565b5b5f6115d78582860161156d565b92505060206115e8858286016115a0565b9150509250929050565b5f8115159050919050565b611606816115f2565b82525050565b5f60208201905061161f5f8301846115fd565b92915050565b5f5f6040838503121561163b5761163a611523565b5b5f6116488582860161156d565b92505060206116598582860161156d565b9150509250929050565b61166c81611581565b82525050565b5f6020820190506116855f830184611663565b92915050565b5f5f5f606084860312156116a2576116a1611523565b5b5f6116af8682870161156d565b93505060206116c08682870161156d565b92505060406116d1868287016115a0565b9150509250925092565b6116e481611546565b82525050565b5f6020820190506116fd5f8301846116db565b92915050565b5f60ff82169050919050565b61171881611703565b82525050565b5f6020820190506117315f83018461170f565b92915050565b5f6020828403121561174c5761174b611523565b5b5f6117598482850161156d565b91505092915050565b61176b816115f2565b8114611775575f5ffd5b50565b5f8135905061178681611762565b92915050565b5f5f604083850312156117a2576117a1611523565b5b5f6117af8582860161156d565b92505060206117c085828601611778565b9150509250929050565b5f819050919050565b5f6117ed6117e86117e384611527565b6117ca565b611527565b9050919050565b5f6117fe826117d3565b9050919050565b5f61180f826117f4565b9050919050565b61181f81611805565b82525050565b5f6020820190506118385f830184611816565b92915050565b7f4e487b71000000000000000000000000000000000000000000000000000000005f52602260045260245ffd5b5f600282049050600182168061188257607f821691505b6020821081036118955761189461183e565b5b50919050565b5f6040820190506118ae5f8301856116db565b6118bb60208301846116db565b9392505050565b5f6060820190506118d55f8301866116db565b6118e26020830185611663565b6118ef6040830184611663565b949350505050565b7f427579206e6f74206f70656e20796574000000000000000000000000000000005f82015250565b5f61192b60108361149d565b9150611936826118f7565b602082019050919050565b5f6020820190508181035f8301526119588161191f565b9050919050565b7f4e487b71000000000000000000000000000000000000000000000000000000005f52601160045260245ffd5b5f61199682611581565b91506119a183611581565b92508282026119af81611581565b915082820484148315176119c6576119c561195f565b5b5092915050565b7f4e487b71000000000000000000000000000000000000000000000000000000005f52601260045260245ffd5b5f611a0482611581565b9150611a0f83611581565b925082611a1f57611a1e6119cd565b5b828204905092915050565b5f611a3482611581565b9150611a3f83611581565b9250828203905081811115611a5757611a5661195f565b5b92915050565b5f611a6782611581565b9150611a7283611581565b9250828201905080821115611a8a57611a8961195f565b5b9291505056fea2646970667358221220a60822cc5d833f54fdd8217159276445a757dbd565b613b4315a973bd483251264736f6c634300081e0033","linkReferences":{}},"methodIdentifiers":{"OPEN_ADDR()":"4bc01e1b","TAX_DENOMINATOR()":"a51c9ace","TAX_RATE()":"83f170be","allowance(address,address)":"dd62ed3e","allowlist(address)":"a7cd52cb","approve(address,uint256)":"095ea7b3","balanceOf(address)":"70a08231","buyFee()":"47062402","decimals()":"313ce567","name()":"06fdde03","owner()":"8da5cb5b","pancakePair()":"b8c9d25c","pancakeRouter()":"c21ebd07","renounceOwnership()":"715018a6","sellFee()":"2b14ca56","setAllowlist(address,bool)":"b12527f8","setFeeAddresses(address,address)":"11c84120","symbol()":"95d89b41","totalSupply()":"18160ddd","tradingOpen()":"ffb54a99","transfer(address,uint256)":"a9059cbb","transferFrom(address,address,uint256)":"23b872dd","transferOwnership(address)":"f2fde38b"},"id":38}