{
	"data": {
		"bytecode": {
			"linkReferences": {},
			"object": "60a06040523073ffffffffffffffffffffffffffffffffffffffff1660809073ffffffffffffffffffffffffffffffffffffffff16815250670de0b6b3a7640000600255671bc16d674ec800006003556729a2241af62c0000600455348015610066575f80fd5b5060015f8190555060805161272b6100945f395f8181611485015281816114da0152611694015261272b5ff3fe608060405260043610610169575f3560e01c8063664637fc116100d0578063a652c53f11610089578063b00b968b11610063578063b00b968b1461051b578063c4d66de814610547578063c54e44eb1461056f578063f2fde38b1461059957610170565b8063a652c53f1461048d578063a9625dfe146104c9578063ad3cb1cc146104f157610170565b8063664637fc1461039357806366d003ac146103bd578063715018a6146103e75780638da5cb5b146103fd57806391d02b0f146104275780639aa3acf21461046357610170565b8063209630a811610122578063209630a814610295578063384d57b5146102d15780633bbed4a0146102fb5780634f1ef2861461032357806352d1902d1461033f57806357cc25371461036957610170565b8063065a187c1461017457806307b7e83e146101b05780630f574ba7146101da57806310bce0991461020257806314b4ee3b1461022c5780631959a0021461025757610170565b3661017057005b5f80fd5b34801561017f575f80fd5b5061019a60048036038101906101959190611ca7565b6105c1565b6040516101a79190611d11565b60405180910390f35b3480156101bb575f80fd5b506101c46105fc565b6040516101d19190611de1565b60405180910390f35b3480156101e5575f80fd5b5061020060048036038101906101fb9190611ca7565b610687565b005b34801561020d575f80fd5b506102166109f9565b6040516102239190611de1565b60405180910390f35b348015610237575f80fd5b50610240610a84565b60405161024e929190611e10565b60405180910390f35b348015610262575f80fd5b5061027d60048036038101906102789190611e61565b610ab7565b60405161028c93929190611ea6565b60405180910390f35b3480156102a0575f80fd5b506102bb60048036038101906102b69190611f11565b610ae9565b6040516102c89190611de1565b60405180910390f35b3480156102dc575f80fd5b506102e5610cf1565b6040516102f29190611f61565b60405180910390f35b348015610306575f80fd5b50610321600480360381019061031c9190611e61565b610cf7565b005b61033d600480360381019061033891906120b6565b610d42565b005b34801561034a575f80fd5b50610353610d61565b6040516103609190612128565b60405180910390f35b348015610374575f80fd5b5061037d610d92565b60405161038a9190611de1565b60405180910390f35b34801561039e575f80fd5b506103a7610e1d565b6040516103b49190611f61565b60405180910390f35b3480156103c8575f80fd5b506103d1610e23565b6040516103de9190611d11565b60405180910390f35b3480156103f2575f80fd5b506103fb610e48565b005b348015610408575f80fd5b50610411610e5b565b60405161041e9190611d11565b60405180910390f35b348015610432575f80fd5b5061044d60048036038101906104489190611ca7565b610e90565b60405161045a9190611d11565b60405180910390f35b34801561046e575f80fd5b50610477610ecb565b6040516104849190611f61565b60405180910390f35b348015610498575f80fd5b506104b360048036038101906104ae9190611ca7565b610ed1565b6040516104c09190611d11565b60405180910390f35b3480156104d4575f80fd5b506104ef60048036038101906104ea9190612141565b610f0c565b005b3480156104fc575f80fd5b50610505610f86565b604051610512919061220b565b60405180910390f35b348015610526575f80fd5b5061052f610fbf565b60405161053e9392919061222b565b60405180910390f35b348015610552575f80fd5b5061056d60048036038101906105689190611e61565b610fdf565b005b34801561057a575f80fd5b506105836111e0565b6040516105909190611d11565b60405180910390f35b3480156105a4575f80fd5b506105bf60048036038101906105ba9190611e61565b6111f8565b005b600681815481106105d0575f80fd5b905f5260205f20015f915054906101000a900473ffffffffffffffffffffffffffffffffffffffff1681565b6060600680548060200260200160405190810160405280929190818152602001828054801561067d57602002820191905f5260205f20905b815f9054906101000a900473ffffffffffffffffffffffffffffffffffffffff1673ffffffffffffffffffffffffffffffffffffffff1681526020019060010190808311610634575b5050505050905090565b61068f61127c565b6002548114806106a0575060035481145b806106ac575060045481145b6106eb576040517f08c379a00000000000000000000000000000000000000000000000000000000081526004016106e2906122aa565b60405180910390fd5b60055f3373ffffffffffffffffffffffffffffffffffffffff1673ffffffffffffffffffffffffffffffffffffffff1681526020019081526020015f206002015f9054906101000a900460ff1615610778576040517f08c379a000000000000000000000000000000000000000000000000000000000815260040161076f90612312565b60405180910390fd5b6107b97355d398326f99059ff775485246999027b31979553360015f9054906101000a900473ffffffffffffffffffffffffffffffffffffffff16846112c0565b60405180606001604052808281526020014281526020016001151581525060055f3373ffffffffffffffffffffffffffffffffffffffff1673ffffffffffffffffffffffffffffffffffffffff1681526020019081526020015f205f820151815f0155602082015181600101556040820151816002015f6101000a81548160ff0219169083151502179055509050508060095f828254610859919061235d565b9250508190555060025481036108ce57600633908060018154018082558091505060019003905f5260205f20015f9091909190916101000a81548173ffffffffffffffffffffffffffffffffffffffff021916908373ffffffffffffffffffffffffffffffffffffffff16021790555061099e565b600354810361093c57600733908060018154018082558091505060019003905f5260205f20015f9091909190916101000a81548173ffffffffffffffffffffffffffffffffffffffff021916908373ffffffffffffffffffffffffffffffffffffffff16021790555061099d565b600833908060018154018082558091505060019003905f5260205f20015f9091909190916101000a81548173ffffffffffffffffffffffffffffffffffffffff021916908373ffffffffffffffffffffffffffffffffffffffff1602179055505b5b3373ffffffffffffffffffffffffffffffffffffffff167ff94991dcbea6e8ac439cbc93bd9c62a4d39f04e0ad656df9a703f13552c2787f82426040516109e6929190611e10565b60405180910390a26109f66113f3565b50565b60606007805480602002602001604051908101604052809291908181526020018280548015610a7a57602002820191905f5260205f20905b815f9054906101000a900473ffffffffffffffffffffffffffffffffffffffff1673ffffffffffffffffffffffffffffffffffffffff1681526020019060010190808311610a31575b5050505050905090565b5f80600880549050600780549050600680549050610aa2919061235d565b610aac919061235d565b915060095490509091565b6005602052805f5260405f205f91509050805f015490806001015490806002015f9054906101000a900460ff16905083565b60605f808560ff1603610aff5760069050610b64565b60018560ff1603610b135760079050610b63565b60028560ff1603610b275760089050610b62565b6040517f08c379a0000000000000000000000000000000000000000000000000000000008152600401610b59906123da565b60405180910390fd5b5b5b80805490508410610bc0575f67ffffffffffffffff811115610b8957610b88611f92565b5b604051908082528060200260200182016040528015610bb75781602001602082028036833780820191505090505b50915050610cea565b5f8385610bcd919061235d565b90508180549050811115610be357818054905090505b8481610bef91906123f8565b67ffffffffffffffff811115610c0857610c07611f92565b5b604051908082528060200260200182016040528015610c365781602001602082028036833780820191505090505b5092505f8590505b81811015610ce657828181548110610c5957610c5861242b565b5b905f5260205f20015f9054906101000a900473ffffffffffffffffffffffffffffffffffffffff16848783610c8e91906123f8565b81518110610c9f57610c9e61242b565b5b602002602001019073ffffffffffffffffffffffffffffffffffffffff16908173ffffffffffffffffffffffffffffffffffffffff16815250508080600101915050610c3e565b5050505b9392505050565b60025481565b610cff6113fc565b8060015f6101000a81548173ffffffffffffffffffffffffffffffffffffffff021916908373ffffffffffffffffffffffffffffffffffffffff16021790555050565b610d4a611483565b610d5382611569565b610d5d8282611574565b5050565b5f610d6a611692565b7f360894a13ba1a3210667c828492db98dca3e2076cc3735a920a3ca505d382bbc5f1b905090565b60606008805480602002602001604051908101604052809291908181526020018280548015610e1357602002820191905f5260205f20905b815f9054906101000a900473ffffffffffffffffffffffffffffffffffffffff1673ffffffffffffffffffffffffffffffffffffffff1681526020019060010190808311610dca575b5050505050905090565b60045481565b60015f9054906101000a900473ffffffffffffffffffffffffffffffffffffffff1681565b610e506113fc565b610e595f611719565b565b5f80610e656117ea565b9050805f015f9054906101000a900473ffffffffffffffffffffffffffffffffffffffff1691505090565b60078181548110610e9f575f80fd5b905f5260205f20015f915054906101000a900473ffffffffffffffffffffffffffffffffffffffff1681565b60035481565b60088181548110610ee0575f80fd5b905f5260205f20015f915054906101000a900473ffffffffffffffffffffffffffffffffffffffff1681565b610f146113fc565b5f83118015610f2257505f82115b8015610f2d57505f81115b610f6c576040517f08c379a0000000000000000000000000000000000000000000000000000000008152600401610f63906124a2565b60405180910390fd5b826002819055508160038190555080600481905550505050565b6040518060400160405280600581526020017f352e302e3000000000000000000000000000000000000000000000000000000081525081565b5f805f600680549050925060078054905091506008805490509050909192565b5f610fe8611811565b90505f815f0160089054906101000a900460ff161590505f825f015f9054906101000a900467ffffffffffffffff1690505f808267ffffffffffffffff161480156110305750825b90505f60018367ffffffffffffffff1614801561106357505f3073ffffffffffffffffffffffffffffffffffffffff163b145b905081158015611071575080155b156110a8576040517ff92ee8a900000000000000000000000000000000000000000000000000000000815260040160405180910390fd5b6001855f015f6101000a81548167ffffffffffffffff021916908367ffffffffffffffff16021790555083156110f5576001855f0160086101000a81548160ff0219169083151502179055505b611105611100611824565b61182b565b61110d6118af565b8560015f6101000a81548173ffffffffffffffffffffffffffffffffffffffff021916908373ffffffffffffffffffffffffffffffffffffffff1602179055506830ca024f987b900000600281905550689d3595ab2438d0000060038190555069013fd6f2b475d4b0000060048190555083156111d8575f855f0160086101000a81548160ff0219169083151502179055507fc7f505b2f371ae2175ee4913f4499e1f2633a7b5936321eed1cdaeb6115181d260016040516111cf9190612515565b60405180910390a15b505050505050565b7355d398326f99059ff775485246999027b319795581565b6112006113fc565b5f73ffffffffffffffffffffffffffffffffffffffff168173ffffffffffffffffffffffffffffffffffffffff1603611270575f6040517f1e4fbdf70000000000000000000000000000000000000000000000000000000081526004016112679190611d11565b60405180910390fd5b61127981611719565b50565b60025f54036112b7576040517f3ee5aeb500000000000000000000000000000000000000000000000000000000815260040160405180910390fd5b60025f81905550565b5f808573ffffffffffffffffffffffffffffffffffffffff166323b872dd8686866040516024016112f39392919061252e565b6040516020818303038152906040529060e01b6020820180517bffffffffffffffffffffffffffffffffffffffffffffffffffffffff838183161783525050505060405161134191906125a7565b5f604051808303815f865af19150503d805f811461137a576040519150601f19603f3d011682016040523d82523d5f602084013e61137f565b606091505b50915091508180156113ac57505f815114806113ab5750808060200190518101906113aa91906125e7565b5b5b6113eb576040517f08c379a00000000000000000000000000000000000000000000000000000000081526004016113e290612682565b60405180910390fd5b505050505050565b60015f81905550565b611404611824565b73ffffffffffffffffffffffffffffffffffffffff16611422610e5b565b73ffffffffffffffffffffffffffffffffffffffff161461148157611445611824565b6040517f118cdaa70000000000000000000000000000000000000000000000000000000081526004016114789190611d11565b60405180910390fd5b565b7f000000000000000000000000000000000000000000000000000000000000000073ffffffffffffffffffffffffffffffffffffffff163073ffffffffffffffffffffffffffffffffffffffff16148061153057507f000000000000000000000000000000000000000000000000000000000000000073ffffffffffffffffffffffffffffffffffffffff166115176118b9565b73ffffffffffffffffffffffffffffffffffffffff1614155b15611567576040517fe07c8dba00000000000000000000000000000000000000000000000000000000815260040160405180910390fd5b565b6115716113fc565b50565b8173ffffffffffffffffffffffffffffffffffffffff166352d1902d6040518163ffffffff1660e01b8152600401602060405180830381865afa9250505080156115dc57506040513d601f19601f820116820180604052508101906115d991906126ca565b60015b61161d57816040517f4c9c8ce30000000000000000000000000000000000000000000000000000000081526004016116149190611d11565b60405180910390fd5b7f360894a13ba1a3210667c828492db98dca3e2076cc3735a920a3ca505d382bbc5f1b811461168357806040517faa1d49a400000000000000000000000000000000000000000000000000000000815260040161167a9190612128565b60405180910390fd5b61168d838361190c565b505050565b7f000000000000000000000000000000000000000000000000000000000000000073ffffffffffffffffffffffffffffffffffffffff163073ffffffffffffffffffffffffffffffffffffffff1614611717576040517fe07c8dba00000000000000000000000000000000000000000000000000000000815260040160405180910390fd5b565b5f6117226117ea565b90505f815f015f9054906101000a900473ffffffffffffffffffffffffffffffffffffffff16905082825f015f6101000a81548173ffffffffffffffffffffffffffffffffffffffff021916908373ffffffffffffffffffffffffffffffffffffffff1602179055508273ffffffffffffffffffffffffffffffffffffffff168173ffffffffffffffffffffffffffffffffffffffff167f8be0079c531659141344cd1fd0a4f28419497f9722a3daafe3b4186f6b6457e060405160405180910390a3505050565b5f7f9016d09d72d40fdae2fd8ceac6b6234c7706214fd39c1cd1e609a0528c199300905090565b5f8061181b61197e565b90508091505090565b5f33905090565b6118336119a7565b5f73ffffffffffffffffffffffffffffffffffffffff168173ffffffffffffffffffffffffffffffffffffffff16036118a3575f6040517f1e4fbdf700000000000000000000000000000000000000000000000000000000815260040161189a9190611d11565b60405180910390fd5b6118ac81611719565b50565b6118b76119a7565b565b5f6118e57f360894a13ba1a3210667c828492db98dca3e2076cc3735a920a3ca505d382bbc5f1b6119e7565b5f015f9054906101000a900473ffffffffffffffffffffffffffffffffffffffff16905090565b611915826119f0565b8173ffffffffffffffffffffffffffffffffffffffff167fbc7cd75a20ee27fd9adebab32041f755214dbc6bffa90cc0225b39da2e5c2d3b60405160405180910390a25f815111156119715761196b8282611ab9565b5061197a565b611979611b39565b5b5050565b5f7ff0c57e16840df040f15088dc2f81fe391c3923bec73e23a9662efc9c229c6a005f1b905090565b6119af611b75565b6119e5576040517fd7e6bcf800000000000000000000000000000000000000000000000000000000815260040160405180910390fd5b565b5f819050919050565b5f8173ffffffffffffffffffffffffffffffffffffffff163b03611a4b57806040517f4c9c8ce3000000000000000000000000000000000000000000000000000000008152600401611a429190611d11565b60405180910390fd5b80611a777f360894a13ba1a3210667c828492db98dca3e2076cc3735a920a3ca505d382bbc5f1b6119e7565b5f015f6101000a81548173ffffffffffffffffffffffffffffffffffffffff021916908373ffffffffffffffffffffffffffffffffffffffff16021790555050565b60605f808473ffffffffffffffffffffffffffffffffffffffff1684604051611ae291906125a7565b5f60405180830381855af49150503d805f8114611b1a576040519150601f19603f3d011682016040523d82523d5f602084013e611b1f565b606091505b5091509150611b2f858383611b93565b9250505092915050565b5f341115611b73576040517fb398979f00000000000000000000000000000000000000000000000000000000815260040160405180910390fd5b565b5f611b7e611811565b5f0160089054906101000a900460ff16905090565b606082611ba857611ba382611c20565b611c18565b5f8251148015611bce57505f8473ffffffffffffffffffffffffffffffffffffffff163b145b15611c1057836040517f9996b315000000000000000000000000000000000000000000000000000000008152600401611c079190611d11565b60405180910390fd5b819050611c19565b5b9392505050565b5f81511115611c3157805160208201fd5b6040517fd6bda27500000000000000000000000000000000000000000000000000000000815260040160405180910390fd5b5f604051905090565b5f80fd5b5f80fd5b5f819050919050565b611c8681611c74565b8114611c90575f80fd5b50565b5f81359050611ca181611c7d565b92915050565b5f60208284031215611cbc57611cbb611c6c565b5b5f611cc984828501611c93565b91505092915050565b5f73ffffffffffffffffffffffffffffffffffffffff82169050919050565b5f611cfb82611cd2565b9050919050565b611d0b81611cf1565b82525050565b5f602082019050611d245f830184611d02565b92915050565b5f81519050919050565b5f82825260208201905092915050565b5f819050602082019050919050565b611d5c81611cf1565b82525050565b5f611d6d8383611d53565b60208301905092915050565b5f602082019050919050565b5f611d8f82611d2a565b611d998185611d34565b9350611da483611d44565b805f5b83811015611dd4578151611dbb8882611d62565b9750611dc683611d79565b925050600181019050611da7565b5085935050505092915050565b5f6020820190508181035f830152611df98184611d85565b905092915050565b611e0a81611c74565b82525050565b5f604082019050611e235f830185611e01565b611e306020830184611e01565b9392505050565b611e4081611cf1565b8114611e4a575f80fd5b50565b5f81359050611e5b81611e37565b92915050565b5f60208284031215611e7657611e75611c6c565b5b5f611e8384828501611e4d565b91505092915050565b5f8115159050919050565b611ea081611e8c565b82525050565b5f606082019050611eb95f830186611e01565b611ec66020830185611e01565b611ed36040830184611e97565b949350505050565b5f60ff82169050919050565b611ef081611edb565b8114611efa575f80fd5b50565b5f81359050611f0b81611ee7565b92915050565b5f805f60608486031215611f2857611f27611c6c565b5b5f611f3586828701611efd565b9350506020611f4686828701611c93565b9250506040611f5786828701611c93565b9150509250925092565b5f602082019050611f745f830184611e01565b92915050565b5f80fd5b5f80fd5b5f601f19601f8301169050919050565b7f4e487b71000000000000000000000000000000000000000000000000000000005f52604160045260245ffd5b611fc882611f82565b810181811067ffffffffffffffff82111715611fe757611fe6611f92565b5b80604052505050565b5f611ff9611c63565b90506120058282611fbf565b919050565b5f67ffffffffffffffff82111561202457612023611f92565b5b61202d82611f82565b9050602081019050919050565b828183375f83830152505050565b5f61205a6120558461200a565b611ff0565b90508281526020810184848401111561207657612075611f7e565b5b61208184828561203a565b509392505050565b5f82601f83011261209d5761209c611f7a565b5b81356120ad848260208601612048565b91505092915050565b5f80604083850312156120cc576120cb611c6c565b5b5f6120d985828601611e4d565b925050602083013567ffffffffffffffff8111156120fa576120f9611c70565b5b61210685828601612089565b9150509250929050565b5f819050919050565b61212281612110565b82525050565b5f60208201905061213b5f830184612119565b92915050565b5f805f6060848603121561215857612157611c6c565b5b5f61216586828701611c93565b935050602061217686828701611c93565b925050604061218786828701611c93565b9150509250925092565b5f81519050919050565b5f82825260208201905092915050565b5f5b838110156121c85780820151818401526020810190506121ad565b5f8484015250505050565b5f6121dd82612191565b6121e7818561219b565b93506121f78185602086016121ab565b61220081611f82565b840191505092915050565b5f6020820190508181035f83015261222381846121d3565b905092915050565b5f60608201905061223e5f830186611e01565b61224b6020830185611e01565b6122586040830184611e01565b949350505050565b7f496e76616c696420737562736372697074696f6e20616d6f756e7400000000005f82015250565b5f612294601b8361219b565b915061229f82612260565b602082019050919050565b5f6020820190508181035f8301526122c181612288565b9050919050565b7f416c7265616479207375627363726962656400000000000000000000000000005f82015250565b5f6122fc60128361219b565b9150612307826122c8565b602082019050919050565b5f6020820190508181035f830152612329816122f0565b9050919050565b7f4e487b71000000000000000000000000000000000000000000000000000000005f52601160045260245ffd5b5f61236782611c74565b915061237283611c74565b925082820190508082111561238a57612389612330565b5b92915050565b7f496e76616c6964206c6576656c000000000000000000000000000000000000005f82015250565b5f6123c4600d8361219b565b91506123cf82612390565b602082019050919050565b5f6020820190508181035f8301526123f1816123b8565b9050919050565b5f61240282611c74565b915061240d83611c74565b925082820390508181111561242557612424612330565b5b92915050565b7f4e487b71000000000000000000000000000000000000000000000000000000005f52603260045260245ffd5b7f496e76616c6964206c6576656c2076616c7565730000000000000000000000005f82015250565b5f61248c60148361219b565b915061249782612458565b602082019050919050565b5f6020820190508181035f8301526124b981612480565b9050919050565b5f819050919050565b5f67ffffffffffffffff82169050919050565b5f819050919050565b5f6124ff6124fa6124f5846124c0565b6124dc565b6124c9565b9050919050565b61250f816124e5565b82525050565b5f6020820190506125285f830184612506565b92915050565b5f6060820190506125415f830186611d02565b61254e6020830185611d02565b61255b6040830184611e01565b949350505050565b5f81519050919050565b5f81905092915050565b5f61258182612563565b61258b818561256d565b935061259b8185602086016121ab565b80840191505092915050565b5f6125b28284612577565b915081905092915050565b6125c681611e8c565b81146125d0575f80fd5b50565b5f815190506125e1816125bd565b92915050565b5f602082840312156125fc576125fb611c6c565b5b5f612609848285016125d3565b91505092915050565b7f5472616e7366657248656c7065723a205452414e534645525f46524f4d5f46415f8201527f494c454400000000000000000000000000000000000000000000000000000000602082015250565b5f61266c60248361219b565b915061267782612612565b604082019050919050565b5f6020820190508181035f83015261269981612660565b9050919050565b6126a981612110565b81146126b3575f80fd5b50565b5f815190506126c4816126a0565b92915050565b5f602082840312156126df576126de611c6c565b5b5f6126ec848285016126b6565b9150509291505056fea264697066735822122095a935dfa6cfdcffc9c4c9e891ff7f007bbbe765b6c9b0817a227631ac30fdb064736f6c63430008180033",
			"opcodes": "PUSH1 0xA0 PUSH1 0x40 MSTORE ADDRESS PUSH20 0xFFFFFFFFFFFFFFFFFFFFFFFFFFFFFFFFFFFFFFFF AND PUSH1 0x80 SWAP1 PUSH20 0xFFFFFFFFFFFFFFFFFFFFFFFFFFFFFFFFFFFFFFFF AND DUP2 MSTORE POP PUSH8 0xDE0B6B3A7640000 PUSH1 0x2 SSTORE PUSH8 0x1BC16D674EC80000 PUSH1 0x3 SSTORE PUSH8 0x29A2241AF62C0000 PUSH1 0x4 SSTORE CALLVALUE DUP1 ISZERO PUSH2 0x66 JUMPI PUSH0 DUP1 REVERT JUMPDEST POP PUSH1 0x1 PUSH0 DUP2 SWAP1 SSTORE POP PUSH1 0x80 MLOAD PUSH2 0x272B PUSH2 0x94 PUSH0 CODECOPY PUSH0 DUP2 DUP2 PUSH2 0x1485 ADD MSTORE DUP2 DUP2 PUSH2 0x14DA ADD MSTORE PUSH2 0x1694 ADD MSTORE PUSH2 0x272B PUSH0 RETURN INVALID PUSH1 0x80 PUSH1 0x40 MSTORE PUSH1 0x4 CALLDATASIZE LT PUSH2 0x169 JUMPI PUSH0 CALLDATALOAD PUSH1 0xE0 SHR DUP1 PUSH4 0x664637FC GT PUSH2 0xD0 JUMPI DUP1 PUSH4 0xA652C53F GT PUSH2 0x89 JUMPI DUP1 PUSH4 0xB00B968B GT PUSH2 0x63 JUMPI DUP1 PUSH4 0xB00B968B EQ PUSH2 0x51B JUMPI DUP1 PUSH4 0xC4D66DE8 EQ PUSH2 0x547 JUMPI DUP1 PUSH4 0xC54E44EB EQ PUSH2 0x56F JUMPI DUP1 PUSH4 0xF2FDE38B EQ PUSH2 0x599 JUMPI PUSH2 0x170 JUMP JUMPDEST DUP1 PUSH4 0xA652C53F EQ PUSH2 0x48D JUMPI DUP1 PUSH4 0xA9625DFE EQ PUSH2 0x4C9 JUMPI DUP1 PUSH4 0xAD3CB1CC EQ PUSH2 0x4F1 JUMPI PUSH2 0x170 JUMP JUMPDEST DUP1 PUSH4 0x664637FC EQ PUSH2 0x393 JUMPI DUP1 PUSH4 0x66D003AC EQ PUSH2 0x3BD JUMPI DUP1 PUSH4 0x715018A6 EQ PUSH2 0x3E7 JUMPI DUP1 PUSH4 0x8DA5CB5B EQ PUSH2 0x3FD JUMPI DUP1 PUSH4 0x91D02B0F EQ PUSH2 0x427 JUMPI DUP1 PUSH4 0x9AA3ACF2 EQ PUSH2 0x463 JUMPI PUSH2 0x170 JUMP JUMPDEST DUP1 PUSH4 0x209630A8 GT PUSH2 0x122 JUMPI DUP1 PUSH4 0x209630A8 EQ PUSH2 0x295 JUMPI DUP1 PUSH4 0x384D57B5 EQ PUSH2 0x2D1 JUMPI DUP1 PUSH4 0x3BBED4A0 EQ PUSH2 0x2FB JUMPI DUP1 PUSH4 0x4F1EF286 EQ PUSH2 0x323 JUMPI DUP1 PUSH4 0x52D1902D EQ PUSH2 0x33F JUMPI DUP1 PUSH4 0x57CC2537 EQ PUSH2 0x369 JUMPI PUSH2 0x170 JUMP JUMPDEST DUP1 PUSH4 0x65A187C EQ PUSH2 0x174 JUMPI DUP1 PUSH4 0x7B7E83E EQ PUSH2 0x1B0 JUMPI DUP1 PUSH4 0xF574BA7 EQ PUSH2 0x1DA JUMPI DUP1 PUSH4 0x10BCE099 EQ PUSH2 0x202 JUMPI DUP1 PUSH4 0x14B4EE3B EQ PUSH2 0x22C JUMPI DUP1 PUSH4 0x1959A002 EQ PUSH2 0x257 JUMPI PUSH2 0x170 JUMP JUMPDEST CALLDATASIZE PUSH2 0x170 JUMPI STOP JUMPDEST PUSH0 DUP1 REVERT JUMPDEST CALLVALUE DUP1 ISZERO PUSH2 0x17F JUMPI PUSH0 DUP1 REVERT JUMPDEST POP PUSH2 0x19A PUSH1 0x4 DUP1 CALLDATASIZE SUB DUP2 ADD SWAP1 PUSH2 0x195 SWAP2 SWAP1 PUSH2 0x1CA7 JUMP JUMPDEST PUSH2 0x5C1 JUMP JUMPDEST PUSH1 0x40 MLOAD PUSH2 0x1A7 SWAP2 SWAP1 PUSH2 0x1D11 JUMP JUMPDEST PUSH1 0x40 MLOAD DUP1 SWAP2 SUB SWAP1 RETURN JUMPDEST CALLVALUE DUP1 ISZERO PUSH2 0x1BB JUMPI PUSH0 DUP1 REVERT JUMPDEST POP PUSH2 0x1C4 PUSH2 0x5FC JUMP JUMPDEST PUSH1 0x40 MLOAD PUSH2 0x1D1 SWAP2 SWAP1 PUSH2 0x1DE1 JUMP JUMPDEST PUSH1 0x40 MLOAD DUP1 SWAP2 SUB SWAP1 RETURN JUMPDEST CALLVALUE DUP1 ISZERO PUSH2 0x1E5 JUMPI PUSH0 DUP1 REVERT JUMPDEST POP PUSH2 0x200 PUSH1 0x4 DUP1 CALLDATASIZE SUB DUP2 ADD SWAP1 PUSH2 0x1FB SWAP2 SWAP1 PUSH2 0x1CA7 JUMP JUMPDEST PUSH2 0x687 JUMP JUMPDEST STOP JUMPDEST CALLVALUE DUP1 ISZERO PUSH2 0x20D JUMPI PUSH0 DUP1 REVERT JUMPDEST POP PUSH2 0x216 PUSH2 0x9F9 JUMP JUMPDEST PUSH1 0x40 MLOAD PUSH2 0x223 SWAP2 SWAP1 PUSH2 0x1DE1 JUMP JUMPDEST PUSH1 0x40 MLOAD DUP1 SWAP2 SUB SWAP1 RETURN JUMPDEST CALLVALUE DUP1 ISZERO PUSH2 0x237 JUMPI PUSH0 DUP1 REVERT JUMPDEST POP PUSH2 0x240 PUSH2 0xA84 JUMP JUMPDEST PUSH1 0x40 MLOAD PUSH2 0x24E SWAP3 SWAP2 SWAP1 PUSH2 0x1E10 JUMP JUMPDEST PUSH1 0x40 MLOAD DUP1 SWAP2 SUB SWAP1 RETURN JUMPDEST CALLVALUE DUP1 ISZERO PUSH2 0x262 JUMPI PUSH0 DUP1 REVERT JUMPDEST POP PUSH2 0x27D PUSH1 0x4 DUP1 CALLDATASIZE SUB DUP2 ADD SWAP1 PUSH2 0x278 SWAP2 SWAP1 PUSH2 0x1E61 JUMP JUMPDEST PUSH2 0xAB7 JUMP JUMPDEST PUSH1 0x40 MLOAD PUSH2 0x28C SWAP4 SWAP3 SWAP2 SWAP1 PUSH2 0x1EA6 JUMP JUMPDEST PUSH1 0x40 MLOAD DUP1 SWAP2 SUB SWAP1 RETURN JUMPDEST CALLVALUE DUP1 ISZERO PUSH2 0x2A0 JUMPI PUSH0 DUP1 REVERT JUMPDEST POP PUSH2 0x2BB PUSH1 0x4 DUP1 CALLDATASIZE SUB DUP2 ADD SWAP1 PUSH2 0x2B6 SWAP2 SWAP1 PUSH2 0x1F11 JUMP JUMPDEST PUSH2 0xAE9 JUMP JUMPDEST PUSH1 0x40 MLOAD PUSH2 0x2C8 SWAP2 SWAP1 PUSH2 0x1DE1 JUMP JUMPDEST PUSH1 0x40 MLOAD DUP1 SWAP2 SUB SWAP1 RETURN JUMPDEST CALLVALUE DUP1 ISZERO PUSH2 0x2DC JUMPI PUSH0 DUP1 REVERT JUMPDEST POP PUSH2 0x2E5 PUSH2 0xCF1 JUMP JUMPDEST PUSH1 0x40 MLOAD PUSH2 0x2F2 SWAP2 SWAP1 PUSH2 0x1F61 JUMP JUMPDEST PUSH1 0x40 MLOAD DUP1 SWAP2 SUB SWAP1 RETURN JUMPDEST CALLVALUE DUP1 ISZERO PUSH2 0x306 JUMPI PUSH0 DUP1 REVERT JUMPDEST POP PUSH2 0x321 PUSH1 0x4 DUP1 CALLDATASIZE SUB DUP2 ADD SWAP1 PUSH2 0x31C SWAP2 SWAP1 PUSH2 0x1E61 JUMP JUMPDEST PUSH2 0xCF7 JUMP JUMPDEST STOP JUMPDEST PUSH2 0x33D PUSH1 0x4 DUP1 CALLDATASIZE SUB DUP2 ADD SWAP1 PUSH2 0x338 SWAP2 SWAP1 PUSH2 0x20B6 JUMP JUMPDEST PUSH2 0xD42 JUMP JUMPDEST STOP JUMPDEST CALLVALUE DUP1 ISZERO PUSH2 0x34A JUMPI PUSH0 DUP1 REVERT JUMPDEST POP PUSH2 0x353 PUSH2 0xD61 JUMP JUMPDEST PUSH1 0x40 MLOAD PUSH2 0x360 SWAP2 SWAP1 PUSH2 0x2128 JUMP JUMPDEST PUSH1 0x40 MLOAD DUP1 SWAP2 SUB SWAP1 RETURN JUMPDEST CALLVALUE DUP1 ISZERO PUSH2 0x374 JUMPI PUSH0 DUP1 REVERT JUMPDEST POP PUSH2 0x37D PUSH2 0xD92 JUMP JUMPDEST PUSH1 0x40 MLOAD PUSH2 0x38A SWAP2 SWAP1 PUSH2 0x1DE1 JUMP JUMPDEST PUSH1 0x40 MLOAD DUP1 SWAP2 SUB SWAP1 RETURN JUMPDEST CALLVALUE DUP1 ISZERO PUSH2 0x39E JUMPI PUSH0 DUP1 REVERT JUMPDEST POP PUSH2 0x3A7 PUSH2 0xE1D JUMP JUMPDEST PUSH1 0x40 MLOAD PUSH2 0x3B4 SWAP2 SWAP1 PUSH2 0x1F61 JUMP JUMPDEST PUSH1 0x40 MLOAD DUP1 SWAP2 SUB SWAP1 RETURN JUMPDEST CALLVALUE DUP1 ISZERO PUSH2 0x3C8 JUMPI PUSH0 DUP1 REVERT JUMPDEST POP PUSH2 0x3D1 PUSH2 0xE23 JUMP JUMPDEST PUSH1 0x40 MLOAD PUSH2 0x3DE SWAP2 SWAP1 PUSH2 0x1D11 JUMP JUMPDEST PUSH1 0x40 MLOAD DUP1 SWAP2 SUB SWAP1 RETURN JUMPDEST CALLVALUE DUP1 ISZERO PUSH2 0x3F2 JUMPI PUSH0 DUP1 REVERT JUMPDEST POP PUSH2 0x3FB PUSH2 0xE48 JUMP JUMPDEST STOP JUMPDEST CALLVALUE DUP1 ISZERO PUSH2 0x408 JUMPI PUSH0 DUP1 REVERT JUMPDEST POP PUSH2 0x411 PUSH2 0xE5B JUMP JUMPDEST PUSH1 0x40 MLOAD PUSH2 0x41E SWAP2 SWAP1 PUSH2 0x1D11 JUMP JUMPDEST PUSH1 0x40 MLOAD DUP1 SWAP2 SUB SWAP1 RETURN JUMPDEST CALLVALUE DUP1 ISZERO PUSH2 0x432 JUMPI PUSH0 DUP1 REVERT JUMPDEST POP PUSH2 0x44D PUSH1 0x4 DUP1 CALLDATASIZE SUB DUP2 ADD SWAP1 PUSH2 0x448 SWAP2 SWAP1 PUSH2 0x1CA7 JUMP JUMPDEST PUSH2 0xE90 JUMP JUMPDEST PUSH1 0x40 MLOAD PUSH2 0x45A SWAP2 SWAP1 PUSH2 0x1D11 JUMP JUMPDEST PUSH1 0x40 MLOAD DUP1 SWAP2 SUB SWAP1 RETURN JUMPDEST CALLVALUE DUP1 ISZERO PUSH2 0x46E JUMPI PUSH0 DUP1 REVERT JUMPDEST POP PUSH2 0x477 PUSH2 0xECB JUMP JUMPDEST PUSH1 0x40 MLOAD PUSH2 0x484 SWAP2 SWAP1 PUSH2 0x1F61 JUMP JUMPDEST PUSH1 0x40 MLOAD DUP1 SWAP2 SUB SWAP1 RETURN JUMPDEST CALLVALUE DUP1 ISZERO PUSH2 0x498 JUMPI PUSH0 DUP1 REVERT JUMPDEST POP PUSH2 0x4B3 PUSH1 0x4 DUP1 CALLDATASIZE SUB DUP2 ADD SWAP1 PUSH2 0x4AE SWAP2 SWAP1 PUSH2 0x1CA7 JUMP JUMPDEST PUSH2 0xED1 JUMP JUMPDEST PUSH1 0x40 MLOAD PUSH2 0x4C0 SWAP2 SWAP1 PUSH2 0x1D11 JUMP JUMPDEST PUSH1 0x40 MLOAD DUP1 SWAP2 SUB SWAP1 RETURN JUMPDEST CALLVALUE DUP1 ISZERO PUSH2 0x4D4 JUMPI PUSH0 DUP1 REVERT JUMPDEST POP PUSH2 0x4EF PUSH1 0x4 DUP1 CALLDATASIZE SUB DUP2 ADD SWAP1 PUSH2 0x4EA SWAP2 SWAP1 PUSH2 0x2141 JUMP JUMPDEST PUSH2 0xF0C JUMP JUMPDEST STOP JUMPDEST CALLVALUE DUP1 ISZERO PUSH2 0x4FC JUMPI PUSH0 DUP1 REVERT JUMPDEST POP PUSH2 0x505 PUSH2 0xF86 JUMP JUMPDEST PUSH1 0x40 MLOAD PUSH2 0x512 SWAP2 SWAP1 PUSH2 0x220B JUMP JUMPDEST PUSH1 0x40 MLOAD DUP1 SWAP2 SUB SWAP1 RETURN JUMPDEST CALLVALUE DUP1 ISZERO PUSH2 0x526 JUMPI PUSH0 DUP1 REVERT JUMPDEST POP PUSH2 0x52F PUSH2 0xFBF JUMP JUMPDEST PUSH1 0x40 MLOAD PUSH2 0x53E SWAP4 SWAP3 SWAP2 SWAP1 PUSH2 0x222B JUMP JUMPDEST PUSH1 0x40 MLOAD DUP1 SWAP2 SUB SWAP1 RETURN JUMPDEST CALLVALUE DUP1 ISZERO PUSH2 0x552 JUMPI PUSH0 DUP1 REVERT JUMPDEST POP PUSH2 0x56D PUSH1 0x4 DUP1 CALLDATASIZE SUB DUP2 ADD SWAP1 PUSH2 0x568 SWAP2 SWAP1 PUSH2 0x1E61 JUMP JUMPDEST PUSH2 0xFDF JUMP JUMPDEST STOP JUMPDEST CALLVALUE DUP1 ISZERO PUSH2 0x57A JUMPI PUSH0 DUP1 REVERT JUMPDEST POP PUSH2 0x583 PUSH2 0x11E0 JUMP JUMPDEST PUSH1 0x40 MLOAD PUSH2 0x590 SWAP2 SWAP1 PUSH2 0x1D11 JUMP JUMPDEST PUSH1 0x40 MLOAD DUP1 SWAP2 SUB SWAP1 RETURN JUMPDEST CALLVALUE DUP1 ISZERO PUSH2 0x5A4 JUMPI PUSH0 DUP1 REVERT JUMPDEST POP PUSH2 0x5BF PUSH1 0x4 DUP1 CALLDATASIZE SUB DUP2 ADD SWAP1 PUSH2 0x5BA SWAP2 SWAP1 PUSH2 0x1E61 JUMP JUMPDEST PUSH2 0x11F8 JUMP JUMPDEST STOP JUMPDEST PUSH1 0x6 DUP2 DUP2 SLOAD DUP2 LT PUSH2 0x5D0 JUMPI PUSH0 DUP1 REVERT JUMPDEST SWAP1 PUSH0 MSTORE PUSH1 0x20 PUSH0 KECCAK256 ADD PUSH0 SWAP2 POP SLOAD SWAP1 PUSH2 0x100 EXP SWAP1 DIV PUSH20 0xFFFFFFFFFFFFFFFFFFFFFFFFFFFFFFFFFFFFFFFF AND DUP2 JUMP JUMPDEST PUSH1 0x60 PUSH1 0x6 DUP1 SLOAD DUP1 PUSH1 0x20 MUL PUSH1 0x20 ADD PUSH1 0x40 MLOAD SWAP1 DUP2 ADD PUSH1 0x40 MSTORE DUP1 SWAP3 SWAP2 SWAP1 DUP2 DUP2 MSTORE PUSH1 0x20 ADD DUP3 DUP1 SLOAD DUP1 ISZERO PUSH2 0x67D JUMPI PUSH1 0x20 MUL DUP3 ADD SWAP2 SWAP1 PUSH0 MSTORE PUSH1 0x20 PUSH0 KECCAK256 SWAP1 JUMPDEST DUP2 PUSH0 SWAP1 SLOAD SWAP1 PUSH2 0x100 EXP SWAP1 DIV PUSH20 0xFFFFFFFFFFFFFFFFFFFFFFFFFFFFFFFFFFFFFFFF AND PUSH20 0xFFFFFFFFFFFFFFFFFFFFFFFFFFFFFFFFFFFFFFFF AND DUP2 MSTORE PUSH1 0x20 ADD SWAP1 PUSH1 0x1 ADD SWAP1 DUP1 DUP4 GT PUSH2 0x634 JUMPI JUMPDEST POP POP POP POP POP SWAP1 POP SWAP1 JUMP JUMPDEST PUSH2 0x68F PUSH2 0x127C JUMP JUMPDEST PUSH1 0x2 SLOAD DUP2 EQ DUP1 PUSH2 0x6A0 JUMPI POP PUSH1 0x3 SLOAD DUP2 EQ JUMPDEST DUP1 PUSH2 0x6AC JUMPI POP PUSH1 0x4 SLOAD DUP2 EQ JUMPDEST PUSH2 0x6EB JUMPI PUSH1 0x40 MLOAD PUSH32 0x8C379A000000000000000000000000000000000000000000000000000000000 DUP2 MSTORE PUSH1 0x4 ADD PUSH2 0x6E2 SWAP1 PUSH2 0x22AA JUMP JUMPDEST PUSH1 0x40 MLOAD DUP1 SWAP2 SUB SWAP1 REVERT JUMPDEST PUSH1 0x5 PUSH0 CALLER PUSH20 0xFFFFFFFFFFFFFFFFFFFFFFFFFFFFFFFFFFFFFFFF AND PUSH20 0xFFFFFFFFFFFFFFFFFFFFFFFFFFFFFFFFFFFFFFFF AND DUP2 MSTORE PUSH1 0x20 ADD SWAP1 DUP2 MSTORE PUSH1 0x20 ADD PUSH0 KECCAK256 PUSH1 0x2 ADD PUSH0 SWAP1 SLOAD SWAP1 PUSH2 0x100 EXP SWAP1 DIV PUSH1 0xFF AND ISZERO PUSH2 0x778 JUMPI PUSH1 0x40 MLOAD PUSH32 0x8C379A000000000000000000000000000000000000000000000000000000000 DUP2 MSTORE PUSH1 0x4 ADD PUSH2 0x76F SWAP1 PUSH2 0x2312 JUMP JUMPDEST PUSH1 0x40 MLOAD DUP1 SWAP2 SUB SWAP1 REVERT JUMPDEST PUSH2 0x7B9 PUSH20 0x55D398326F99059FF775485246999027B3197955 CALLER PUSH1 0x1 PUSH0 SWAP1 SLOAD SWAP1 PUSH2 0x100 EXP SWAP1 DIV PUSH20 0xFFFFFFFFFFFFFFFFFFFFFFFFFFFFFFFFFFFFFFFF AND DUP5 PUSH2 0x12C0 JUMP JUMPDEST PUSH1 0x40 MLOAD DUP1 PUSH1 0x60 ADD PUSH1 0x40 MSTORE DUP1 DUP3 DUP2 MSTORE PUSH1 0x20 ADD TIMESTAMP DUP2 MSTORE PUSH1 0x20 ADD PUSH1 0x1 ISZERO ISZERO DUP2 MSTORE POP PUSH1 0x5 PUSH0 CALLER PUSH20 0xFFFFFFFFFFFFFFFFFFFFFFFFFFFFFFFFFFFFFFFF AND PUSH20 0xFFFFFFFFFFFFFFFFFFFFFFFFFFFFFFFFFFFFFFFF AND DUP2 MSTORE PUSH1 0x20 ADD SWAP1 DUP2 MSTORE PUSH1 0x20 ADD PUSH0 KECCAK256 PUSH0 DUP3 ADD MLOAD DUP2 PUSH0 ADD SSTORE PUSH1 0x20 DUP3 ADD MLOAD DUP2 PUSH1 0x1 ADD SSTORE PUSH1 0x40 DUP3 ADD MLOAD DUP2 PUSH1 0x2 ADD PUSH0 PUSH2 0x100 EXP DUP2 SLOAD DUP2 PUSH1 0xFF MUL NOT AND SWAP1 DUP4 ISZERO ISZERO MUL OR SWAP1 SSTORE POP SWAP1 POP POP DUP1 PUSH1 0x9 PUSH0 DUP3 DUP3 SLOAD PUSH2 0x859 SWAP2 SWAP1 PUSH2 0x235D JUMP JUMPDEST SWAP3 POP POP DUP2 SWAP1 SSTORE POP PUSH1 0x2 SLOAD DUP2 SUB PUSH2 0x8CE JUMPI PUSH1 0x6 CALLER SWAP1 DUP1 PUSH1 0x1 DUP2 SLOAD ADD DUP1 DUP3 SSTORE DUP1 SWAP2 POP POP PUSH1 0x1 SWAP1 SUB SWAP1 PUSH0 MSTORE PUSH1 0x20 PUSH0 KECCAK256 ADD PUSH0 SWAP1 SWAP2 SWAP1 SWAP2 SWAP1 SWAP2 PUSH2 0x100 EXP DUP2 SLOAD DUP2 PUSH20 0xFFFFFFFFFFFFFFFFFFFFFFFFFFFFFFFFFFFFFFFF MUL NOT AND SWAP1 DUP4 PUSH20 0xFFFFFFFFFFFFFFFFFFFFFFFFFFFFFFFFFFFFFFFF AND MUL OR SWAP1 SSTORE POP PUSH2 0x99E JUMP JUMPDEST PUSH1 0x3 SLOAD DUP2 SUB PUSH2 0x93C JUMPI PUSH1 0x7 CALLER SWAP1 DUP1 PUSH1 0x1 DUP2 SLOAD ADD DUP1 DUP3 SSTORE DUP1 SWAP2 POP POP PUSH1 0x1 SWAP1 SUB SWAP1 PUSH0 MSTORE PUSH1 0x20 PUSH0 KECCAK256 ADD PUSH0 SWAP1 SWAP2 SWAP1 SWAP2 SWAP1 SWAP2 PUSH2 0x100 EXP DUP2 SLOAD DUP2 PUSH20 0xFFFFFFFFFFFFFFFFFFFFFFFFFFFFFFFFFFFFFFFF MUL NOT AND SWAP1 DUP4 PUSH20 0xFFFFFFFFFFFFFFFFFFFFFFFFFFFFFFFFFFFFFFFF AND MUL OR SWAP1 SSTORE POP PUSH2 0x99D JUMP JUMPDEST PUSH1 0x8 CALLER SWAP1 DUP1 PUSH1 0x1 DUP2 SLOAD ADD DUP1 DUP3 SSTORE DUP1 SWAP2 POP POP PUSH1 0x1 SWAP1 SUB SWAP1 PUSH0 MSTORE PUSH1 0x20 PUSH0 KECCAK256 ADD PUSH0 SWAP1 SWAP2 SWAP1 SWAP2 SWAP1 SWAP2 PUSH2 0x100 EXP DUP2 SLOAD DUP2 PUSH20 0xFFFFFFFFFFFFFFFFFFFFFFFFFFFFFFFFFFFFFFFF MUL NOT AND SWAP1 DUP4 PUSH20 0xFFFFFFFFFFFFFFFFFFFFFFFFFFFFFFFFFFFFFFFF AND MUL OR SWAP1 SSTORE POP JUMPDEST JUMPDEST CALLER PUSH20 0xFFFFFFFFFFFFFFFFFFFFFFFFFFFFFFFFFFFFFFFF AND PUSH32 0xF94991DCBEA6E8AC439CBC93BD9C62A4D39F04E0AD656DF9A703F13552C2787F DUP3 TIMESTAMP PUSH1 0x40 MLOAD PUSH2 0x9E6 SWAP3 SWAP2 SWAP1 PUSH2 0x1E10 JUMP JUMPDEST PUSH1 0x40 MLOAD DUP1 SWAP2 SUB SWAP1 LOG2 PUSH2 0x9F6 PUSH2 0x13F3 JUMP JUMPDEST POP JUMP JUMPDEST PUSH1 0x60 PUSH1 0x7 DUP1 SLOAD DUP1 PUSH1 0x20 MUL PUSH1 0x20 ADD PUSH1 0x40 MLOAD SWAP1 DUP2 ADD PUSH1 0x40 MSTORE DUP1 SWAP3 SWAP2 SWAP1 DUP2 DUP2 MSTORE PUSH1 0x20 ADD DUP3 DUP1 SLOAD DUP1 ISZERO PUSH2 0xA7A JUMPI PUSH1 0x20 MUL DUP3 ADD SWAP2 SWAP1 PUSH0 MSTORE PUSH1 0x20 PUSH0 KECCAK256 SWAP1 JUMPDEST DUP2 PUSH0 SWAP1 SLOAD SWAP1 PUSH2 0x100 EXP SWAP1 DIV PUSH20 0xFFFFFFFFFFFFFFFFFFFFFFFFFFFFFFFFFFFFFFFF AND PUSH20 0xFFFFFFFFFFFFFFFFFFFFFFFFFFFFFFFFFFFFFFFF AND DUP2 MSTORE PUSH1 0x20 ADD SWAP1 PUSH1 0x1 ADD SWAP1 DUP1 DUP4 GT PUSH2 0xA31 JUMPI JUMPDEST POP POP POP POP POP SWAP1 POP SWAP1 JUMP JUMPDEST PUSH0 DUP1 PUSH1 0x8 DUP1 SLOAD SWAP1 POP PUSH1 0x7 DUP1 SLOAD SWAP1 POP PUSH1 0x6 DUP1 SLOAD SWAP1 POP PUSH2 0xAA2 SWAP2 SWAP1 PUSH2 0x235D JUMP JUMPDEST PUSH2 0xAAC SWAP2 SWAP1 PUSH2 0x235D JUMP JUMPDEST SWAP2 POP PUSH1 0x9 SLOAD SWAP1 POP SWAP1 SWAP2 JUMP JUMPDEST PUSH1 0x5 PUSH1 0x20 MSTORE DUP1 PUSH0 MSTORE PUSH1 0x40 PUSH0 KECCAK256 PUSH0 SWAP2 POP SWAP1 POP DUP1 PUSH0 ADD SLOAD SWAP1 DUP1 PUSH1 0x1 ADD SLOAD SWAP1 DUP1 PUSH1 0x2 ADD PUSH0 SWAP1 SLOAD SWAP1 PUSH2 0x100 EXP SWAP1 DIV PUSH1 0xFF AND SWAP1 POP DUP4 JUMP JUMPDEST PUSH1 0x60 PUSH0 DUP1 DUP6 PUSH1 0xFF AND SUB PUSH2 0xAFF JUMPI PUSH1 0x6 SWAP1 POP PUSH2 0xB64 JUMP JUMPDEST PUSH1 0x1 DUP6 PUSH1 0xFF AND SUB PUSH2 0xB13 JUMPI PUSH1 0x7 SWAP1 POP PUSH2 0xB63 JUMP JUMPDEST PUSH1 0x2 DUP6 PUSH1 0xFF AND SUB PUSH2 0xB27 JUMPI PUSH1 0x8 SWAP1 POP PUSH2 0xB62 JUMP JUMPDEST PUSH1 0x40 MLOAD PUSH32 0x8C379A000000000000000000000000000000000000000000000000000000000 DUP2 MSTORE PUSH1 0x4 ADD PUSH2 0xB59 SWAP1 PUSH2 0x23DA JUMP JUMPDEST PUSH1 0x40 MLOAD DUP1 SWAP2 SUB SWAP1 REVERT JUMPDEST JUMPDEST JUMPDEST DUP1 DUP1 SLOAD SWAP1 POP DUP5 LT PUSH2 0xBC0 JUMPI PUSH0 PUSH8 0xFFFFFFFFFFFFFFFF DUP2 GT ISZERO PUSH2 0xB89 JUMPI PUSH2 0xB88 PUSH2 0x1F92 JUMP JUMPDEST JUMPDEST PUSH1 0x40 MLOAD SWAP1 DUP1 DUP3 MSTORE DUP1 PUSH1 0x20 MUL PUSH1 0x20 ADD DUP3 ADD PUSH1 0x40 MSTORE DUP1 ISZERO PUSH2 0xBB7 JUMPI DUP2 PUSH1 0x20 ADD PUSH1 0x20 DUP3 MUL DUP1 CALLDATASIZE DUP4 CALLDATACOPY DUP1 DUP3 ADD SWAP2 POP POP SWAP1 POP JUMPDEST POP SWAP2 POP POP PUSH2 0xCEA JUMP JUMPDEST PUSH0 DUP4 DUP6 PUSH2 0xBCD SWAP2 SWAP1 PUSH2 0x235D JUMP JUMPDEST SWAP1 POP DUP2 DUP1 SLOAD SWAP1 POP DUP2 GT ISZERO PUSH2 0xBE3 JUMPI DUP2 DUP1 SLOAD SWAP1 POP SWAP1 POP JUMPDEST DUP5 DUP2 PUSH2 0xBEF SWAP2 SWAP1 PUSH2 0x23F8 JUMP JUMPDEST PUSH8 0xFFFFFFFFFFFFFFFF DUP2 GT ISZERO PUSH2 0xC08 JUMPI PUSH2 0xC07 PUSH2 0x1F92 JUMP JUMPDEST JUMPDEST PUSH1 0x40 MLOAD SWAP1 DUP1 DUP3 MSTORE DUP1 PUSH1 0x20 MUL PUSH1 0x20 ADD DUP3 ADD PUSH1 0x40 MSTORE DUP1 ISZERO PUSH2 0xC36 JUMPI DUP2 PUSH1 0x20 ADD PUSH1 0x20 DUP3 MUL DUP1 CALLDATASIZE DUP4 CALLDATACOPY DUP1 DUP3 ADD SWAP2 POP POP SWAP1 POP JUMPDEST POP SWAP3 POP PUSH0 DUP6 SWAP1 POP JUMPDEST DUP2 DUP2 LT ISZERO PUSH2 0xCE6 JUMPI DUP3 DUP2 DUP2 SLOAD DUP2 LT PUSH2 0xC59 JUMPI PUSH2 0xC58 PUSH2 0x242B JUMP JUMPDEST JUMPDEST SWAP1 PUSH0 MSTORE PUSH1 0x20 PUSH0 KECCAK256 ADD PUSH0 SWAP1 SLOAD SWAP1 PUSH2 0x100 EXP SWAP1 DIV PUSH20 0xFFFFFFFFFFFFFFFFFFFFFFFFFFFFFFFFFFFFFFFF AND DUP5 DUP8 DUP4 PUSH2 0xC8E SWAP2 SWAP1 PUSH2 0x23F8 JUMP JUMPDEST DUP2 MLOAD DUP2 LT PUSH2 0xC9F JUMPI PUSH2 0xC9E PUSH2 0x242B JUMP JUMPDEST JUMPDEST PUSH1 0x20 MUL PUSH1 0x20 ADD ADD SWAP1 PUSH20 0xFFFFFFFFFFFFFFFFFFFFFFFFFFFFFFFFFFFFFFFF AND SWAP1 DUP2 PUSH20 0xFFFFFFFFFFFFFFFFFFFFFFFFFFFFFFFFFFFFFFFF AND DUP2 MSTORE POP POP DUP1 DUP1 PUSH1 0x1 ADD SWAP2 POP POP PUSH2 0xC3E JUMP JUMPDEST POP POP POP JUMPDEST SWAP4 SWAP3 POP POP POP JUMP JUMPDEST PUSH1 0x2 SLOAD DUP2 JUMP JUMPDEST PUSH2 0xCFF PUSH2 0x13FC JUMP JUMPDEST DUP1 PUSH1 0x1 PUSH0 PUSH2 0x100 EXP DUP2 SLOAD DUP2 PUSH20 0xFFFFFFFFFFFFFFFFFFFFFFFFFFFFFFFFFFFFFFFF MUL NOT AND SWAP1 DUP4 PUSH20 0xFFFFFFFFFFFFFFFFFFFFFFFFFFFFFFFFFFFFFFFF AND MUL OR SWAP1 SSTORE POP POP JUMP JUMPDEST PUSH2 0xD4A PUSH2 0x1483 JUMP JUMPDEST PUSH2 0xD53 DUP3 PUSH2 0x1569 JUMP JUMPDEST PUSH2 0xD5D DUP3 DUP3 PUSH2 0x1574 JUMP JUMPDEST POP POP JUMP JUMPDEST PUSH0 PUSH2 0xD6A PUSH2 0x1692 JUMP JUMPDEST PUSH32 0x360894A13BA1A3210667C828492DB98DCA3E2076CC3735A920A3CA505D382BBC PUSH0 SHL SWAP1 POP SWAP1 JUMP JUMPDEST PUSH1 0x60 PUSH1 0x8 DUP1 SLOAD DUP1 PUSH1 0x20 MUL PUSH1 0x20 ADD PUSH1 0x40 MLOAD SWAP1 DUP2 ADD PUSH1 0x40 MSTORE DUP1 SWAP3 SWAP2 SWAP1 DUP2 DUP2 MSTORE PUSH1 0x20 ADD DUP3 DUP1 SLOAD DUP1 ISZERO PUSH2 0xE13 JUMPI PUSH1 0x20 MUL DUP3 ADD SWAP2 SWAP1 PUSH0 MSTORE PUSH1 0x20 PUSH0 KECCAK256 SWAP1 JUMPDEST DUP2 PUSH0 SWAP1 SLOAD SWAP1 PUSH2 0x100 EXP SWAP1 DIV PUSH20 0xFFFFFFFFFFFFFFFFFFFFFFFFFFFFFFFFFFFFFFFF AND PUSH20 0xFFFFFFFFFFFFFFFFFFFFFFFFFFFFFFFFFFFFFFFF AND DUP2 MSTORE PUSH1 0x20 ADD SWAP1 PUSH1 0x1 ADD SWAP1 DUP1 DUP4 GT PUSH2 0xDCA JUMPI JUMPDEST POP POP POP POP POP SWAP1 POP SWAP1 JUMP JUMPDEST PUSH1 0x4 SLOAD DUP2 JUMP JUMPDEST PUSH1 0x1 PUSH0 SWAP1 SLOAD SWAP1 PUSH2 0x100 EXP SWAP1 DIV PUSH20 0xFFFFFFFFFFFFFFFFFFFFFFFFFFFFFFFFFFFFFFFF AND DUP2 JUMP JUMPDEST PUSH2 0xE50 PUSH2 0x13FC JUMP JUMPDEST PUSH2 0xE59 PUSH0 PUSH2 0x1719 JUMP JUMPDEST JUMP JUMPDEST PUSH0 DUP1 PUSH2 0xE65 PUSH2 0x17EA JUMP JUMPDEST SWAP1 POP DUP1 PUSH0 ADD PUSH0 SWAP1 SLOAD SWAP1 PUSH2 0x100 EXP SWAP1 DIV PUSH20 0xFFFFFFFFFFFFFFFFFFFFFFFFFFFFFFFFFFFFFFFF AND SWAP2 POP POP SWAP1 JUMP JUMPDEST PUSH1 0x7 DUP2 DUP2 SLOAD DUP2 LT PUSH2 0xE9F JUMPI PUSH0 DUP1 REVERT JUMPDEST SWAP1 PUSH0 MSTORE PUSH1 0x20 PUSH0 KECCAK256 ADD PUSH0 SWAP2 POP SLOAD SWAP1 PUSH2 0x100 EXP SWAP1 DIV PUSH20 0xFFFFFFFFFFFFFFFFFFFFFFFFFFFFFFFFFFFFFFFF AND DUP2 JUMP JUMPDEST PUSH1 0x3 SLOAD DUP2 JUMP JUMPDEST PUSH1 0x8 DUP2 DUP2 SLOAD DUP2 LT PUSH2 0xEE0 JUMPI PUSH0 DUP1 REVERT JUMPDEST SWAP1 PUSH0 MSTORE PUSH1 0x20 PUSH0 KECCAK256 ADD PUSH0 SWAP2 POP SLOAD SWAP1 PUSH2 0x100 EXP SWAP1 DIV PUSH20 0xFFFFFFFFFFFFFFFFFFFFFFFFFFFFFFFFFFFFFFFF AND DUP2 JUMP JUMPDEST PUSH2 0xF14 PUSH2 0x13FC JUMP JUMPDEST PUSH0 DUP4 GT DUP1 ISZERO PUSH2 0xF22 JUMPI POP PUSH0 DUP3 GT JUMPDEST DUP1 ISZERO PUSH2 0xF2D JUMPI POP PUSH0 DUP2 GT JUMPDEST PUSH2 0xF6C JUMPI PUSH1 0x40 MLOAD PUSH32 0x8C379A000000000000000000000000000000000000000000000000000000000 DUP2 MSTORE PUSH1 0x4 ADD PUSH2 0xF63 SWAP1 PUSH2 0x24A2 JUMP JUMPDEST PUSH1 0x40 MLOAD DUP1 SWAP2 SUB SWAP1 REVERT JUMPDEST DUP3 PUSH1 0x2 DUP2 SWAP1 SSTORE POP DUP2 PUSH1 0x3 DUP2 SWAP1 SSTORE POP DUP1 PUSH1 0x4 DUP2 SWAP1 SSTORE POP POP POP POP JUMP JUMPDEST PUSH1 0x40 MLOAD DUP1 PUSH1 0x40 ADD PUSH1 0x40 MSTORE DUP1 PUSH1 0x5 DUP2 MSTORE PUSH1 0x20 ADD PUSH32 0x352E302E30000000000000000000000000000000000000000000000000000000 DUP2 MSTORE POP DUP2 JUMP JUMPDEST PUSH0 DUP1 PUSH0 PUSH1 0x6 DUP1 SLOAD SWAP1 POP SWAP3 POP PUSH1 0x7 DUP1 SLOAD SWAP1 POP SWAP2 POP PUSH1 0x8 DUP1 SLOAD SWAP1 POP SWAP1 POP SWAP1 SWAP2 SWAP3 JUMP JUMPDEST PUSH0 PUSH2 0xFE8 PUSH2 0x1811 JUMP JUMPDEST SWAP1 POP PUSH0 DUP2 PUSH0 ADD PUSH1 0x8 SWAP1 SLOAD SWAP1 PUSH2 0x100 EXP SWAP1 DIV PUSH1 0xFF AND ISZERO SWAP1 POP PUSH0 DUP3 PUSH0 ADD PUSH0 SWAP1 SLOAD SWAP1 PUSH2 0x100 EXP SWAP1 DIV PUSH8 0xFFFFFFFFFFFFFFFF AND SWAP1 POP PUSH0 DUP1 DUP3 PUSH8 0xFFFFFFFFFFFFFFFF AND EQ DUP1 ISZERO PUSH2 0x1030 JUMPI POP DUP3 JUMPDEST SWAP1 POP PUSH0 PUSH1 0x1 DUP4 PUSH8 0xFFFFFFFFFFFFFFFF AND EQ DUP1 ISZERO PUSH2 0x1063 JUMPI POP PUSH0 ADDRESS PUSH20 0xFFFFFFFFFFFFFFFFFFFFFFFFFFFFFFFFFFFFFFFF AND EXTCODESIZE EQ JUMPDEST SWAP1 POP DUP2 ISZERO DUP1 ISZERO PUSH2 0x1071 JUMPI POP DUP1 ISZERO JUMPDEST ISZERO PUSH2 0x10A8 JUMPI PUSH1 0x40 MLOAD PUSH32 0xF92EE8A900000000000000000000000000000000000000000000000000000000 DUP2 MSTORE PUSH1 0x4 ADD PUSH1 0x40 MLOAD DUP1 SWAP2 SUB SWAP1 REVERT JUMPDEST PUSH1 0x1 DUP6 PUSH0 ADD PUSH0 PUSH2 0x100 EXP DUP2 SLOAD DUP2 PUSH8 0xFFFFFFFFFFFFFFFF MUL NOT AND SWAP1 DUP4 PUSH8 0xFFFFFFFFFFFFFFFF AND MUL OR SWAP1 SSTORE POP DUP4 ISZERO PUSH2 0x10F5 JUMPI PUSH1 0x1 DUP6 PUSH0 ADD PUSH1 0x8 PUSH2 0x100 EXP DUP2 SLOAD DUP2 PUSH1 0xFF MUL NOT AND SWAP1 DUP4 ISZERO ISZERO MUL OR SWAP1 SSTORE POP JUMPDEST PUSH2 0x1105 PUSH2 0x1100 PUSH2 0x1824 JUMP JUMPDEST PUSH2 0x182B JUMP JUMPDEST PUSH2 0x110D PUSH2 0x18AF JUMP JUMPDEST DUP6 PUSH1 0x1 PUSH0 PUSH2 0x100 EXP DUP2 SLOAD DUP2 PUSH20 0xFFFFFFFFFFFFFFFFFFFFFFFFFFFFFFFFFFFFFFFF MUL NOT AND SWAP1 DUP4 PUSH20 0xFFFFFFFFFFFFFFFFFFFFFFFFFFFFFFFFFFFFFFFF AND MUL OR SWAP1 SSTORE POP PUSH9 0x30CA024F987B900000 PUSH1 0x2 DUP2 SWAP1 SSTORE POP PUSH9 0x9D3595AB2438D00000 PUSH1 0x3 DUP2 SWAP1 SSTORE POP PUSH10 0x13FD6F2B475D4B00000 PUSH1 0x4 DUP2 SWAP1 SSTORE POP DUP4 ISZERO PUSH2 0x11D8 JUMPI PUSH0 DUP6 PUSH0 ADD PUSH1 0x8 PUSH2 0x100 EXP DUP2 SLOAD DUP2 PUSH1 0xFF MUL NOT AND SWAP1 DUP4 ISZERO ISZERO MUL OR SWAP1 SSTORE POP PUSH32 0xC7F505B2F371AE2175EE4913F4499E1F2633A7B5936321EED1CDAEB6115181D2 PUSH1 0x1 PUSH1 0x40 MLOAD PUSH2 0x11CF SWAP2 SWAP1 PUSH2 0x2515 JUMP JUMPDEST PUSH1 0x40 MLOAD DUP1 SWAP2 SUB SWAP1 LOG1 JUMPDEST POP POP POP POP POP POP JUMP JUMPDEST PUSH20 0x55D398326F99059FF775485246999027B3197955 DUP2 JUMP JUMPDEST PUSH2 0x1200 PUSH2 0x13FC JUMP JUMPDEST PUSH0 PUSH20 0xFFFFFFFFFFFFFFFFFFFFFFFFFFFFFFFFFFFFFFFF AND DUP2 PUSH20 0xFFFFFFFFFFFFFFFFFFFFFFFFFFFFFFFFFFFFFFFF AND SUB PUSH2 0x1270 JUMPI PUSH0 PUSH1 0x40 MLOAD PUSH32 0x1E4FBDF700000000000000000000000000000000000000000000000000000000 DUP2 MSTORE PUSH1 0x4 ADD PUSH2 0x1267 SWAP2 SWAP1 PUSH2 0x1D11 JUMP JUMPDEST PUSH1 0x40 MLOAD DUP1 SWAP2 SUB SWAP1 REVERT JUMPDEST PUSH2 0x1279 DUP2 PUSH2 0x1719 JUMP JUMPDEST POP JUMP JUMPDEST PUSH1 0x2 PUSH0 SLOAD SUB PUSH2 0x12B7 JUMPI PUSH1 0x40 MLOAD PUSH32 0x3EE5AEB500000000000000000000000000000000000000000000000000000000 DUP2 MSTORE PUSH1 0x4 ADD PUSH1 0x40 MLOAD DUP1 SWAP2 SUB SWAP1 REVERT JUMPDEST PUSH1 0x2 PUSH0 DUP2 SWAP1 SSTORE POP JUMP JUMPDEST PUSH0 DUP1 DUP6 PUSH20 0xFFFFFFFFFFFFFFFFFFFFFFFFFFFFFFFFFFFFFFFF AND PUSH4 0x23B872DD DUP7 DUP7 DUP7 PUSH1 0x40 MLOAD PUSH1 0x24 ADD PUSH2 0x12F3 SWAP4 SWAP3 SWAP2 SWAP1 PUSH2 0x252E JUMP JUMPDEST PUSH1 0x40 MLOAD PUSH1 0x20 DUP2 DUP4 SUB SUB DUP2 MSTORE SWAP1 PUSH1 0x40 MSTORE SWAP1 PUSH1 0xE0 SHL PUSH1 0x20 DUP3 ADD DUP1 MLOAD PUSH28 0xFFFFFFFFFFFFFFFFFFFFFFFFFFFFFFFFFFFFFFFFFFFFFFFFFFFFFFFF DUP4 DUP2 DUP4 AND OR DUP4 MSTORE POP POP POP POP PUSH1 0x40 MLOAD PUSH2 0x1341 SWAP2 SWAP1 PUSH2 0x25A7 JUMP JUMPDEST PUSH0 PUSH1 0x40 MLOAD DUP1 DUP4 SUB DUP2 PUSH0 DUP7 GAS CALL SWAP2 POP POP RETURNDATASIZE DUP1 PUSH0 DUP2 EQ PUSH2 0x137A JUMPI PUSH1 0x40 MLOAD SWAP2 POP PUSH1 0x1F NOT PUSH1 0x3F RETURNDATASIZE ADD AND DUP3 ADD PUSH1 0x40 MSTORE RETURNDATASIZE DUP3 MSTORE RETURNDATASIZE PUSH0 PUSH1 0x20 DUP5 ADD RETURNDATACOPY PUSH2 0x137F JUMP JUMPDEST PUSH1 0x60 SWAP2 POP JUMPDEST POP SWAP2 POP SWAP2 POP DUP2 DUP1 ISZERO PUSH2 0x13AC JUMPI POP PUSH0 DUP2 MLOAD EQ DUP1 PUSH2 0x13AB JUMPI POP DUP1 DUP1 PUSH1 0x20 ADD SWAP1 MLOAD DUP2 ADD SWAP1 PUSH2 0x13AA SWAP2 SWAP1 PUSH2 0x25E7 JUMP JUMPDEST JUMPDEST JUMPDEST PUSH2 0x13EB JUMPI PUSH1 0x40 MLOAD PUSH32 0x8C379A000000000000000000000000000000000000000000000000000000000 DUP2 MSTORE PUSH1 0x4 ADD PUSH2 0x13E2 SWAP1 PUSH2 0x2682 JUMP JUMPDEST PUSH1 0x40 MLOAD DUP1 SWAP2 SUB SWAP1 REVERT JUMPDEST POP POP POP POP POP POP JUMP JUMPDEST PUSH1 0x1 PUSH0 DUP2 SWAP1 SSTORE POP JUMP JUMPDEST PUSH2 0x1404 PUSH2 0x1824 JUMP JUMPDEST PUSH20 0xFFFFFFFFFFFFFFFFFFFFFFFFFFFFFFFFFFFFFFFF AND PUSH2 0x1422 PUSH2 0xE5B JUMP JUMPDEST PUSH20 0xFFFFFFFFFFFFFFFFFFFFFFFFFFFFFFFFFFFFFFFF AND EQ PUSH2 0x1481 JUMPI PUSH2 0x1445 PUSH2 0x1824 JUMP JUMPDEST PUSH1 0x40 MLOAD PUSH32 0x118CDAA700000000000000000000000000000000000000000000000000000000 DUP2 MSTORE PUSH1 0x4 ADD PUSH2 0x1478 SWAP2 SWAP1 PUSH2 0x1D11 JUMP JUMPDEST PUSH1 0x40 MLOAD DUP1 SWAP2 SUB SWAP1 REVERT JUMPDEST JUMP JUMPDEST PUSH32 0x0 PUSH20 0xFFFFFFFFFFFFFFFFFFFFFFFFFFFFFFFFFFFFFFFF AND ADDRESS PUSH20 0xFFFFFFFFFFFFFFFFFFFFFFFFFFFFFFFFFFFFFFFF AND EQ DUP1 PUSH2 0x1530 JUMPI POP PUSH32 0x0 PUSH20 0xFFFFFFFFFFFFFFFFFFFFFFFFFFFFFFFFFFFFFFFF AND PUSH2 0x1517 PUSH2 0x18B9 JUMP JUMPDEST PUSH20 0xFFFFFFFFFFFFFFFFFFFFFFFFFFFFFFFFFFFFFFFF AND EQ ISZERO JUMPDEST ISZERO PUSH2 0x1567 JUMPI PUSH1 0x40 MLOAD PUSH32 0xE07C8DBA00000000000000000000000000000000000000000000000000000000 DUP2 MSTORE PUSH1 0x4 ADD PUSH1 0x40 MLOAD DUP1 SWAP2 SUB SWAP1 REVERT JUMPDEST JUMP JUMPDEST PUSH2 0x1571 PUSH2 0x13FC JUMP JUMPDEST POP JUMP JUMPDEST DUP2 PUSH20 0xFFFFFFFFFFFFFFFFFFFFFFFFFFFFFFFFFFFFFFFF AND PUSH4 0x52D1902D PUSH1 0x40 MLOAD DUP2 PUSH4 0xFFFFFFFF AND PUSH1 0xE0 SHL DUP2 MSTORE PUSH1 0x4 ADD PUSH1 0x20 PUSH1 0x40 MLOAD DUP1 DUP4 SUB DUP2 DUP7 GAS STATICCALL SWAP3 POP POP POP DUP1 ISZERO PUSH2 0x15DC JUMPI POP PUSH1 0x40 MLOAD RETURNDATASIZE PUSH1 0x1F NOT PUSH1 0x1F DUP3 ADD AND DUP3 ADD DUP1 PUSH1 0x40 MSTORE POP DUP2 ADD SWAP1 PUSH2 0x15D9 SWAP2 SWAP1 PUSH2 0x26CA JUMP JUMPDEST PUSH1 0x1 JUMPDEST PUSH2 0x161D JUMPI DUP2 PUSH1 0x40 MLOAD PUSH32 0x4C9C8CE300000000000000000000000000000000000000000000000000000000 DUP2 MSTORE PUSH1 0x4 ADD PUSH2 0x1614 SWAP2 SWAP1 PUSH2 0x1D11 JUMP JUMPDEST PUSH1 0x40 MLOAD DUP1 SWAP2 SUB SWAP1 REVERT JUMPDEST PUSH32 0x360894A13BA1A3210667C828492DB98DCA3E2076CC3735A920A3CA505D382BBC PUSH0 SHL DUP2 EQ PUSH2 0x1683 JUMPI DUP1 PUSH1 0x40 MLOAD PUSH32 0xAA1D49A400000000000000000000000000000000000000000000000000000000 DUP2 MSTORE PUSH1 0x4 ADD PUSH2 0x167A SWAP2 SWAP1 PUSH2 0x2128 JUMP JUMPDEST PUSH1 0x40 MLOAD DUP1 SWAP2 SUB SWAP1 REVERT JUMPDEST PUSH2 0x168D DUP4 DUP4 PUSH2 0x190C JUMP JUMPDEST POP POP POP JUMP JUMPDEST PUSH32 0x0 PUSH20 0xFFFFFFFFFFFFFFFFFFFFFFFFFFFFFFFFFFFFFFFF AND ADDRESS PUSH20 0xFFFFFFFFFFFFFFFFFFFFFFFFFFFFFFFFFFFFFFFF AND EQ PUSH2 0x1717 JUMPI PUSH1 0x40 MLOAD PUSH32 0xE07C8DBA00000000000000000000000000000000000000000000000000000000 DUP2 MSTORE PUSH1 0x4 ADD PUSH1 0x40 MLOAD DUP1 SWAP2 SUB SWAP1 REVERT JUMPDEST JUMP JUMPDEST PUSH0 PUSH2 0x1722 PUSH2 0x17EA JUMP JUMPDEST SWAP1 POP PUSH0 DUP2 PUSH0 ADD PUSH0 SWAP1 SLOAD SWAP1 PUSH2 0x100 EXP SWAP1 DIV PUSH20 0xFFFFFFFFFFFFFFFFFFFFFFFFFFFFFFFFFFFFFFFF AND SWAP1 POP DUP3 DUP3 PUSH0 ADD PUSH0 PUSH2 0x100 EXP DUP2 SLOAD DUP2 PUSH20 0xFFFFFFFFFFFFFFFFFFFFFFFFFFFFFFFFFFFFFFFF MUL NOT AND SWAP1 DUP4 PUSH20 0xFFFFFFFFFFFFFFFFFFFFFFFFFFFFFFFFFFFFFFFF AND MUL OR SWAP1 SSTORE POP DUP3 PUSH20 0xFFFFFFFFFFFFFFFFFFFFFFFFFFFFFFFFFFFFFFFF AND DUP2 PUSH20 0xFFFFFFFFFFFFFFFFFFFFFFFFFFFFFFFFFFFFFFFF AND PUSH32 0x8BE0079C531659141344CD1FD0A4F28419497F9722A3DAAFE3B4186F6B6457E0 PUSH1 0x40 MLOAD PUSH1 0x40 MLOAD DUP1 SWAP2 SUB SWAP1 LOG3 POP POP POP JUMP JUMPDEST PUSH0 PUSH32 0x9016D09D72D40FDAE2FD8CEAC6B6234C7706214FD39C1CD1E609A0528C199300 SWAP1 POP SWAP1 JUMP JUMPDEST PUSH0 DUP1 PUSH2 0x181B PUSH2 0x197E JUMP JUMPDEST SWAP1 POP DUP1 SWAP2 POP POP SWAP1 JUMP JUMPDEST PUSH0 CALLER SWAP1 POP SWAP1 JUMP JUMPDEST PUSH2 0x1833 PUSH2 0x19A7 JUMP JUMPDEST PUSH0 PUSH20 0xFFFFFFFFFFFFFFFFFFFFFFFFFFFFFFFFFFFFFFFF AND DUP2 PUSH20 0xFFFFFFFFFFFFFFFFFFFFFFFFFFFFFFFFFFFFFFFF AND SUB PUSH2 0x18A3 JUMPI PUSH0 PUSH1 0x40 MLOAD PUSH32 0x1E4FBDF700000000000000000000000000000000000000000000000000000000 DUP2 MSTORE PUSH1 0x4 ADD PUSH2 0x189A SWAP2 SWAP1 PUSH2 0x1D11 JUMP JUMPDEST PUSH1 0x40 MLOAD DUP1 SWAP2 SUB SWAP1 REVERT JUMPDEST PUSH2 0x18AC DUP2 PUSH2 0x1719 JUMP JUMPDEST POP JUMP JUMPDEST PUSH2 0x18B7 PUSH2 0x19A7 JUMP JUMPDEST JUMP JUMPDEST PUSH0 PUSH2 0x18E5 PUSH32 0x360894A13BA1A3210667C828492DB98DCA3E2076CC3735A920A3CA505D382BBC PUSH0 SHL PUSH2 0x19E7 JUMP JUMPDEST PUSH0 ADD PUSH0 SWAP1 SLOAD SWAP1 PUSH2 0x100 EXP SWAP1 DIV PUSH20 0xFFFFFFFFFFFFFFFFFFFFFFFFFFFFFFFFFFFFFFFF AND SWAP1 POP SWAP1 JUMP JUMPDEST PUSH2 0x1915 DUP3 PUSH2 0x19F0 JUMP JUMPDEST DUP2 PUSH20 0xFFFFFFFFFFFFFFFFFFFFFFFFFFFFFFFFFFFFFFFF AND PUSH32 0xBC7CD75A20EE27FD9ADEBAB32041F755214DBC6BFFA90CC0225B39DA2E5C2D3B PUSH1 0x40 MLOAD PUSH1 0x40 MLOAD DUP1 SWAP2 SUB SWAP1 LOG2 PUSH0 DUP2 MLOAD GT ISZERO PUSH2 0x1971 JUMPI PUSH2 0x196B DUP3 DUP3 PUSH2 0x1AB9 JUMP JUMPDEST POP PUSH2 0x197A JUMP JUMPDEST PUSH2 0x1979 PUSH2 0x1B39 JUMP JUMPDEST JUMPDEST POP POP JUMP JUMPDEST PUSH0 PUSH32 0xF0C57E16840DF040F15088DC2F81FE391C3923BEC73E23A9662EFC9C229C6A00 PUSH0 SHL SWAP1 POP SWAP1 JUMP JUMPDEST PUSH2 0x19AF PUSH2 0x1B75 JUMP JUMPDEST PUSH2 0x19E5 JUMPI PUSH1 0x40 MLOAD PUSH32 0xD7E6BCF800000000000000000000000000000000000000000000000000000000 DUP2 MSTORE PUSH1 0x4 ADD PUSH1 0x40 MLOAD DUP1 SWAP2 SUB SWAP1 REVERT JUMPDEST JUMP JUMPDEST PUSH0 DUP2 SWAP1 POP SWAP2 SWAP1 POP JUMP JUMPDEST PUSH0 DUP2 PUSH20 0xFFFFFFFFFFFFFFFFFFFFFFFFFFFFFFFFFFFFFFFF AND EXTCODESIZE SUB PUSH2 0x1A4B JUMPI DUP1 PUSH1 0x40 MLOAD PUSH32 0x4C9C8CE300000000000000000000000000000000000000000000000000000000 DUP2 MSTORE PUSH1 0x4 ADD PUSH2 0x1A42 SWAP2 SWAP1 PUSH2 0x1D11 JUMP JUMPDEST PUSH1 0x40 MLOAD DUP1 SWAP2 SUB SWAP1 REVERT JUMPDEST DUP1 PUSH2 0x1A77 PUSH32 0x360894A13BA1A3210667C828492DB98DCA3E2076CC3735A920A3CA505D382BBC PUSH0 SHL PUSH2 0x19E7 JUMP JUMPDEST PUSH0 ADD PUSH0 PUSH2 0x100 EXP DUP2 SLOAD DUP2 PUSH20 0xFFFFFFFFFFFFFFFFFFFFFFFFFFFFFFFFFFFFFFFF MUL NOT AND SWAP1 DUP4 PUSH20 0xFFFFFFFFFFFFFFFFFFFFFFFFFFFFFFFFFFFFFFFF AND MUL OR SWAP1 SSTORE POP POP JUMP JUMPDEST PUSH1 0x60 PUSH0 DUP1 DUP5 PUSH20 0xFFFFFFFFFFFFFFFFFFFFFFFFFFFFFFFFFFFFFFFF AND DUP5 PUSH1 0x40 MLOAD PUSH2 0x1AE2 SWAP2 SWAP1 PUSH2 0x25A7 JUMP JUMPDEST PUSH0 PUSH1 0x40 MLOAD DUP1 DUP4 SUB DUP2 DUP6 GAS DELEGATECALL SWAP2 POP POP RETURNDATASIZE DUP1 PUSH0 DUP2 EQ PUSH2 0x1B1A JUMPI PUSH1 0x40 MLOAD SWAP2 POP PUSH1 0x1F NOT PUSH1 0x3F RETURNDATASIZE ADD AND DUP3 ADD PUSH1 0x40 MSTORE RETURNDATASIZE DUP3 MSTORE RETURNDATASIZE PUSH0 PUSH1 0x20 DUP5 ADD RETURNDATACOPY PUSH2 0x1B1F JUMP JUMPDEST PUSH1 0x60 SWAP2 POP JUMPDEST POP SWAP2 POP SWAP2 POP PUSH2 0x1B2F DUP6 DUP4 DUP4 PUSH2 0x1B93 JUMP JUMPDEST SWAP3 POP POP POP SWAP3 SWAP2 POP POP JUMP JUMPDEST PUSH0 CALLVALUE GT ISZERO PUSH2 0x1B73 JUMPI PUSH1 0x40 MLOAD PUSH32 0xB398979F00000000000000000000000000000000000000000000000000000000 DUP2 MSTORE PUSH1 0x4 ADD PUSH1 0x40 MLOAD DUP1 SWAP2 SUB SWAP1 REVERT JUMPDEST JUMP JUMPDEST PUSH0 PUSH2 0x1B7E PUSH2 0x1811 JUMP JUMPDEST PUSH0 ADD PUSH1 0x8 SWAP1 SLOAD SWAP1 PUSH2 0x100 EXP SWAP1 DIV PUSH1 0xFF AND SWAP1 POP SWAP1 JUMP JUMPDEST PUSH1 0x60 DUP3 PUSH2 0x1BA8 JUMPI PUSH2 0x1BA3 DUP3 PUSH2 0x1C20 JUMP JUMPDEST PUSH2 0x1C18 JUMP JUMPDEST PUSH0 DUP3 MLOAD EQ DUP1 ISZERO PUSH2 0x1BCE JUMPI POP PUSH0 DUP5 PUSH20 0xFFFFFFFFFFFFFFFFFFFFFFFFFFFFFFFFFFFFFFFF AND EXTCODESIZE EQ JUMPDEST ISZERO PUSH2 0x1C10 JUMPI DUP4 PUSH1 0x40 MLOAD PUSH32 0x9996B31500000000000000000000000000000000000000000000000000000000 DUP2 MSTORE PUSH1 0x4 ADD PUSH2 0x1C07 SWAP2 SWAP1 PUSH2 0x1D11 JUMP JUMPDEST PUSH1 0x40 MLOAD DUP1 SWAP2 SUB SWAP1 REVERT JUMPDEST DUP2 SWAP1 POP PUSH2 0x1C19 JUMP JUMPDEST JUMPDEST SWAP4 SWAP3 POP POP POP JUMP JUMPDEST PUSH0 DUP2 MLOAD GT ISZERO PUSH2 0x1C31 JUMPI DUP1 MLOAD PUSH1 0x20 DUP3 ADD REVERT JUMPDEST PUSH1 0x40 MLOAD PUSH32 0xD6BDA27500000000000000000000000000000000000000000000000000000000 DUP2 MSTORE PUSH1 0x4 ADD PUSH1 0x40 MLOAD DUP1 SWAP2 SUB SWAP1 REVERT JUMPDEST PUSH0 PUSH1 0x40 MLOAD SWAP1 POP SWAP1 JUMP JUMPDEST PUSH0 DUP1 REVERT JUMPDEST PUSH0 DUP1 REVERT JUMPDEST PUSH0 DUP2 SWAP1 POP SWAP2 SWAP1 POP JUMP JUMPDEST PUSH2 0x1C86 DUP2 PUSH2 0x1C74 JUMP JUMPDEST DUP2 EQ PUSH2 0x1C90 JUMPI PUSH0 DUP1 REVERT JUMPDEST POP JUMP JUMPDEST PUSH0 DUP2 CALLDATALOAD SWAP1 POP PUSH2 0x1CA1 DUP2 PUSH2 0x1C7D JUMP JUMPDEST SWAP3 SWAP2 POP POP JUMP JUMPDEST PUSH0 PUSH1 0x20 DUP3 DUP5 SUB SLT ISZERO PUSH2 0x1CBC JUMPI PUSH2 0x1CBB PUSH2 0x1C6C JUMP JUMPDEST JUMPDEST PUSH0 PUSH2 0x1CC9 DUP5 DUP3 DUP6 ADD PUSH2 0x1C93 JUMP JUMPDEST SWAP2 POP POP SWAP3 SWAP2 POP POP JUMP JUMPDEST PUSH0 PUSH20 0xFFFFFFFFFFFFFFFFFFFFFFFFFFFFFFFFFFFFFFFF DUP3 AND SWAP1 POP SWAP2 SWAP1 POP JUMP JUMPDEST PUSH0 PUSH2 0x1CFB DUP3 PUSH2 0x1CD2 JUMP JUMPDEST SWAP1 POP SWAP2 SWAP1 POP JUMP JUMPDEST PUSH2 0x1D0B DUP2 PUSH2 0x1CF1 JUMP JUMPDEST DUP3 MSTORE POP POP JUMP JUMPDEST PUSH0 PUSH1 0x20 DUP3 ADD SWAP1 POP PUSH2 0x1D24 PUSH0 DUP4 ADD DUP5 PUSH2 0x1D02 JUMP JUMPDEST SWAP3 SWAP2 POP POP JUMP JUMPDEST PUSH0 DUP2 MLOAD SWAP1 POP SWAP2 SWAP1 POP JUMP JUMPDEST PUSH0 DUP3 DUP3 MSTORE PUSH1 0x20 DUP3 ADD SWAP1 POP SWAP3 SWAP2 POP POP JUMP JUMPDEST PUSH0 DUP2 SWAP1 POP PUSH1 0x20 DUP3 ADD SWAP1 POP SWAP2 SWAP1 POP JUMP JUMPDEST PUSH2 0x1D5C DUP2 PUSH2 0x1CF1 JUMP JUMPDEST DUP3 MSTORE POP POP JUMP JUMPDEST PUSH0 PUSH2 0x1D6D DUP4 DUP4 PUSH2 0x1D53 JUMP JUMPDEST PUSH1 0x20 DUP4 ADD SWAP1 POP SWAP3 SWAP2 POP POP JUMP JUMPDEST PUSH0 PUSH1 0x20 DUP3 ADD SWAP1 POP SWAP2 SWAP1 POP JUMP JUMPDEST PUSH0 PUSH2 0x1D8F DUP3 PUSH2 0x1D2A JUMP JUMPDEST PUSH2 0x1D99 DUP2 DUP6 PUSH2 0x1D34 JUMP JUMPDEST SWAP4 POP PUSH2 0x1DA4 DUP4 PUSH2 0x1D44 JUMP JUMPDEST DUP1 PUSH0 JUMPDEST DUP4 DUP2 LT ISZERO PUSH2 0x1DD4 JUMPI DUP2 MLOAD PUSH2 0x1DBB DUP9 DUP3 PUSH2 0x1D62 JUMP JUMPDEST SWAP8 POP PUSH2 0x1DC6 DUP4 PUSH2 0x1D79 JUMP JUMPDEST SWAP3 POP POP PUSH1 0x1 DUP2 ADD SWAP1 POP PUSH2 0x1DA7 JUMP JUMPDEST POP DUP6 SWAP4 POP POP POP POP SWAP3 SWAP2 POP POP JUMP JUMPDEST PUSH0 PUSH1 0x20 DUP3 ADD SWAP1 POP DUP2 DUP2 SUB PUSH0 DUP4 ADD MSTORE PUSH2 0x1DF9 DUP2 DUP5 PUSH2 0x1D85 JUMP JUMPDEST SWAP1 POP SWAP3 SWAP2 POP POP JUMP JUMPDEST PUSH2 0x1E0A DUP2 PUSH2 0x1C74 JUMP JUMPDEST DUP3 MSTORE POP POP JUMP JUMPDEST PUSH0 PUSH1 0x40 DUP3 ADD SWAP1 POP PUSH2 0x1E23 PUSH0 DUP4 ADD DUP6 PUSH2 0x1E01 JUMP JUMPDEST PUSH2 0x1E30 PUSH1 0x20 DUP4 ADD DUP5 PUSH2 0x1E01 JUMP JUMPDEST SWAP4 SWAP3 POP POP POP JUMP JUMPDEST PUSH2 0x1E40 DUP2 PUSH2 0x1CF1 JUMP JUMPDEST DUP2 EQ PUSH2 0x1E4A JUMPI PUSH0 DUP1 REVERT JUMPDEST POP JUMP JUMPDEST PUSH0 DUP2 CALLDATALOAD SWAP1 POP PUSH2 0x1E5B DUP2 PUSH2 0x1E37 JUMP JUMPDEST SWAP3 SWAP2 POP POP JUMP JUMPDEST PUSH0 PUSH1 0x20 DUP3 DUP5 SUB SLT ISZERO PUSH2 0x1E76 JUMPI PUSH2 0x1E75 PUSH2 0x1C6C JUMP JUMPDEST JUMPDEST PUSH0 PUSH2 0x1E83 DUP5 DUP3 DUP6 ADD PUSH2 0x1E4D JUMP JUMPDEST SWAP2 POP POP SWAP3 SWAP2 POP POP JUMP JUMPDEST PUSH0 DUP2 ISZERO ISZERO SWAP1 POP SWAP2 SWAP1 POP JUMP JUMPDEST PUSH2 0x1EA0 DUP2 PUSH2 0x1E8C JUMP JUMPDEST DUP3 MSTORE POP POP JUMP JUMPDEST PUSH0 PUSH1 0x60 DUP3 ADD SWAP1 POP PUSH2 0x1EB9 PUSH0 DUP4 ADD DUP7 PUSH2 0x1E01 JUMP JUMPDEST PUSH2 0x1EC6 PUSH1 0x20 DUP4 ADD DUP6 PUSH2 0x1E01 JUMP JUMPDEST PUSH2 0x1ED3 PUSH1 0x40 DUP4 ADD DUP5 PUSH2 0x1E97 JUMP JUMPDEST SWAP5 SWAP4 POP POP POP POP JUMP JUMPDEST PUSH0 PUSH1 0xFF DUP3 AND SWAP1 POP SWAP2 SWAP1 POP JUMP JUMPDEST PUSH2 0x1EF0 DUP2 PUSH2 0x1EDB JUMP JUMPDEST DUP2 EQ PUSH2 0x1EFA JUMPI PUSH0 DUP1 REVERT JUMPDEST POP JUMP JUMPDEST PUSH0 DUP2 CALLDATALOAD SWAP1 POP PUSH2 0x1F0B DUP2 PUSH2 0x1EE7 JUMP JUMPDEST SWAP3 SWAP2 POP POP JUMP JUMPDEST PUSH0 DUP1 PUSH0 PUSH1 0x60 DUP5 DUP7 SUB SLT ISZERO PUSH2 0x1F28 JUMPI PUSH2 0x1F27 PUSH2 0x1C6C JUMP JUMPDEST JUMPDEST PUSH0 PUSH2 0x1F35 DUP7 DUP3 DUP8 ADD PUSH2 0x1EFD JUMP JUMPDEST SWAP4 POP POP PUSH1 0x20 PUSH2 0x1F46 DUP7 DUP3 DUP8 ADD PUSH2 0x1C93 JUMP JUMPDEST SWAP3 POP POP PUSH1 0x40 PUSH2 0x1F57 DUP7 DUP3 DUP8 ADD PUSH2 0x1C93 JUMP JUMPDEST SWAP2 POP POP SWAP3 POP SWAP3 POP SWAP3 JUMP JUMPDEST PUSH0 PUSH1 0x20 DUP3 ADD SWAP1 POP PUSH2 0x1F74 PUSH0 DUP4 ADD DUP5 PUSH2 0x1E01 JUMP JUMPDEST SWAP3 SWAP2 POP POP JUMP JUMPDEST PUSH0 DUP1 REVERT JUMPDEST PUSH0 DUP1 REVERT JUMPDEST PUSH0 PUSH1 0x1F NOT PUSH1 0x1F DUP4 ADD AND SWAP1 POP SWAP2 SWAP1 POP JUMP JUMPDEST PUSH32 0x4E487B7100000000000000000000000000000000000000000000000000000000 PUSH0 MSTORE PUSH1 0x41 PUSH1 0x4 MSTORE PUSH1 0x24 PUSH0 REVERT JUMPDEST PUSH2 0x1FC8 DUP3 PUSH2 0x1F82 JUMP JUMPDEST DUP2 ADD DUP2 DUP2 LT PUSH8 0xFFFFFFFFFFFFFFFF DUP3 GT OR ISZERO PUSH2 0x1FE7 JUMPI PUSH2 0x1FE6 PUSH2 0x1F92 JUMP JUMPDEST JUMPDEST DUP1 PUSH1 0x40 MSTORE POP POP POP JUMP JUMPDEST PUSH0 PUSH2 0x1FF9 PUSH2 0x1C63 JUMP JUMPDEST SWAP1 POP PUSH2 0x2005 DUP3 DUP3 PUSH2 0x1FBF JUMP JUMPDEST SWAP2 SWAP1 POP JUMP JUMPDEST PUSH0 PUSH8 0xFFFFFFFFFFFFFFFF DUP3 GT ISZERO PUSH2 0x2024 JUMPI PUSH2 0x2023 PUSH2 0x1F92 JUMP JUMPDEST JUMPDEST PUSH2 0x202D DUP3 PUSH2 0x1F82 JUMP JUMPDEST SWAP1 POP PUSH1 0x20 DUP2 ADD SWAP1 POP SWAP2 SWAP1 POP JUMP JUMPDEST DUP3 DUP2 DUP4 CALLDATACOPY PUSH0 DUP4 DUP4 ADD MSTORE POP POP POP JUMP JUMPDEST PUSH0 PUSH2 0x205A PUSH2 0x2055 DUP5 PUSH2 0x200A JUMP JUMPDEST PUSH2 0x1FF0 JUMP JUMPDEST SWAP1 POP DUP3 DUP2 MSTORE PUSH1 0x20 DUP2 ADD DUP5 DUP5 DUP5 ADD GT ISZERO PUSH2 0x2076 JUMPI PUSH2 0x2075 PUSH2 0x1F7E JUMP JUMPDEST JUMPDEST PUSH2 0x2081 DUP5 DUP3 DUP6 PUSH2 0x203A JUMP JUMPDEST POP SWAP4 SWAP3 POP POP POP JUMP JUMPDEST PUSH0 DUP3 PUSH1 0x1F DUP4 ADD SLT PUSH2 0x209D JUMPI PUSH2 0x209C PUSH2 0x1F7A JUMP JUMPDEST JUMPDEST DUP2 CALLDATALOAD PUSH2 0x20AD DUP5 DUP3 PUSH1 0x20 DUP7 ADD PUSH2 0x2048 JUMP JUMPDEST SWAP2 POP POP SWAP3 SWAP2 POP POP JUMP JUMPDEST PUSH0 DUP1 PUSH1 0x40 DUP4 DUP6 SUB SLT ISZERO PUSH2 0x20CC JUMPI PUSH2 0x20CB PUSH2 0x1C6C JUMP JUMPDEST JUMPDEST PUSH0 PUSH2 0x20D9 DUP6 DUP3 DUP7 ADD PUSH2 0x1E4D JUMP JUMPDEST SWAP3 POP POP PUSH1 0x20 DUP4 ADD CALLDATALOAD PUSH8 0xFFFFFFFFFFFFFFFF DUP2 GT ISZERO PUSH2 0x20FA JUMPI PUSH2 0x20F9 PUSH2 0x1C70 JUMP JUMPDEST JUMPDEST PUSH2 0x2106 DUP6 DUP3 DUP7 ADD PUSH2 0x2089 JUMP JUMPDEST SWAP2 POP POP SWAP3 POP SWAP3 SWAP1 POP JUMP JUMPDEST PUSH0 DUP2 SWAP1 POP SWAP2 SWAP1 POP JUMP JUMPDEST PUSH2 0x2122 DUP2 PUSH2 0x2110 JUMP JUMPDEST DUP3 MSTORE POP POP JUMP JUMPDEST PUSH0 PUSH1 0x20 DUP3 ADD SWAP1 POP PUSH2 0x213B PUSH0 DUP4 ADD DUP5 PUSH2 0x2119 JUMP JUMPDEST SWAP3 SWAP2 POP POP JUMP JUMPDEST PUSH0 DUP1 PUSH0 PUSH1 0x60 DUP5 DUP7 SUB SLT ISZERO PUSH2 0x2158 JUMPI PUSH2 0x2157 PUSH2 0x1C6C JUMP JUMPDEST JUMPDEST PUSH0 PUSH2 0x2165 DUP7 DUP3 DUP8 ADD PUSH2 0x1C93 JUMP JUMPDEST SWAP4 POP POP PUSH1 0x20 PUSH2 0x2176 DUP7 DUP3 DUP8 ADD PUSH2 0x1C93 JUMP JUMPDEST SWAP3 POP POP PUSH1 0x40 PUSH2 0x2187 DUP7 DUP3 DUP8 ADD PUSH2 0x1C93 JUMP JUMPDEST SWAP2 POP POP SWAP3 POP SWAP3 POP SWAP3 JUMP JUMPDEST PUSH0 DUP2 MLOAD SWAP1 POP SWAP2 SWAP1 POP JUMP JUMPDEST PUSH0 DUP3 DUP3 MSTORE PUSH1 0x20 DUP3 ADD SWAP1 POP SWAP3 SWAP2 POP POP JUMP JUMPDEST PUSH0 JUMPDEST DUP4 DUP2 LT ISZERO PUSH2 0x21C8 JUMPI DUP1 DUP3 ADD MLOAD DUP2 DUP5 ADD MSTORE PUSH1 0x20 DUP2 ADD SWAP1 POP PUSH2 0x21AD JUMP JUMPDEST PUSH0 DUP5 DUP5 ADD MSTORE POP POP POP POP JUMP JUMPDEST PUSH0 PUSH2 0x21DD DUP3 PUSH2 0x2191 JUMP JUMPDEST PUSH2 0x21E7 DUP2 DUP6 PUSH2 0x219B JUMP JUMPDEST SWAP4 POP PUSH2 0x21F7 DUP2 DUP6 PUSH1 0x20 DUP7 ADD PUSH2 0x21AB JUMP JUMPDEST PUSH2 0x2200 DUP2 PUSH2 0x1F82 JUMP JUMPDEST DUP5 ADD SWAP2 POP POP SWAP3 SWAP2 POP POP JUMP JUMPDEST PUSH0 PUSH1 0x20 DUP3 ADD SWAP1 POP DUP2 DUP2 SUB PUSH0 DUP4 ADD MSTORE PUSH2 0x2223 DUP2 DUP5 PUSH2 0x21D3 JUMP JUMPDEST SWAP1 POP SWAP3 SWAP2 POP POP JUMP JUMPDEST PUSH0 PUSH1 0x60 DUP3 ADD SWAP1 POP PUSH2 0x223E PUSH0 DUP4 ADD DUP7 PUSH2 0x1E01 JUMP JUMPDEST PUSH2 0x224B PUSH1 0x20 DUP4 ADD DUP6 PUSH2 0x1E01 JUMP JUMPDEST PUSH2 0x2258 PUSH1 0x40 DUP4 ADD DUP5 PUSH2 0x1E01 JUMP JUMPDEST SWAP5 SWAP4 POP POP POP POP JUMP JUMPDEST PUSH32 0x496E76616C696420737562736372697074696F6E20616D6F756E740000000000 PUSH0 DUP3 ADD MSTORE POP JUMP JUMPDEST PUSH0 PUSH2 0x2294 PUSH1 0x1B DUP4 PUSH2 0x219B JUMP JUMPDEST SWAP2 POP PUSH2 0x229F DUP3 PUSH2 0x2260 JUMP JUMPDEST PUSH1 0x20 DUP3 ADD SWAP1 POP SWAP2 SWAP1 POP JUMP JUMPDEST PUSH0 PUSH1 0x20 DUP3 ADD SWAP1 POP DUP2 DUP2 SUB PUSH0 DUP4 ADD MSTORE PUSH2 0x22C1 DUP2 PUSH2 0x2288 JUMP JUMPDEST SWAP1 POP SWAP2 SWAP1 POP JUMP JUMPDEST PUSH32 0x416C726561647920737562736372696265640000000000000000000000000000 PUSH0 DUP3 ADD MSTORE POP JUMP JUMPDEST PUSH0 PUSH2 0x22FC PUSH1 0x12 DUP4 PUSH2 0x219B JUMP JUMPDEST SWAP2 POP PUSH2 0x2307 DUP3 PUSH2 0x22C8 JUMP JUMPDEST PUSH1 0x20 DUP3 ADD SWAP1 POP SWAP2 SWAP1 POP JUMP JUMPDEST PUSH0 PUSH1 0x20 DUP3 ADD SWAP1 POP DUP2 DUP2 SUB PUSH0 DUP4 ADD MSTORE PUSH2 0x2329 DUP2 PUSH2 0x22F0 JUMP JUMPDEST SWAP1 POP SWAP2 SWAP1 POP JUMP JUMPDEST PUSH32 0x4E487B7100000000000000000000000000000000000000000000000000000000 PUSH0 MSTORE PUSH1 0x11 PUSH1 0x4 MSTORE PUSH1 0x24 PUSH0 REVERT JUMPDEST PUSH0 PUSH2 0x2367 DUP3 PUSH2 0x1C74 JUMP JUMPDEST SWAP2 POP PUSH2 0x2372 DUP4 PUSH2 0x1C74 JUMP JUMPDEST SWAP3 POP DUP3 DUP3 ADD SWAP1 POP DUP1 DUP3 GT ISZERO PUSH2 0x238A JUMPI PUSH2 0x2389 PUSH2 0x2330 JUMP JUMPDEST JUMPDEST SWAP3 SWAP2 POP POP JUMP JUMPDEST PUSH32 0x496E76616C6964206C6576656C00000000000000000000000000000000000000 PUSH0 DUP3 ADD MSTORE POP JUMP JUMPDEST PUSH0 PUSH2 0x23C4 PUSH1 0xD DUP4 PUSH2 0x219B JUMP JUMPDEST SWAP2 POP PUSH2 0x23CF DUP3 PUSH2 0x2390 JUMP JUMPDEST PUSH1 0x20 DUP3 ADD SWAP1 POP SWAP2 SWAP1 POP JUMP JUMPDEST PUSH0 PUSH1 0x20 DUP3 ADD SWAP1 POP DUP2 DUP2 SUB PUSH0 DUP4 ADD MSTORE PUSH2 0x23F1 DUP2 PUSH2 0x23B8 JUMP JUMPDEST SWAP1 POP SWAP2 SWAP1 POP JUMP JUMPDEST PUSH0 PUSH2 0x2402 DUP3 PUSH2 0x1C74 JUMP JUMPDEST SWAP2 POP PUSH2 0x240D DUP4 PUSH2 0x1C74 JUMP JUMPDEST SWAP3 POP DUP3 DUP3 SUB SWAP1 POP DUP2 DUP2 GT ISZERO PUSH2 0x2425 JUMPI PUSH2 0x2424 PUSH2 0x2330 JUMP JUMPDEST JUMPDEST SWAP3 SWAP2 POP POP JUMP JUMPDEST PUSH32 0x4E487B7100000000000000000000000000000000000000000000000000000000 PUSH0 MSTORE PUSH1 0x32 PUSH1 0x4 MSTORE PUSH1 0x24 PUSH0 REVERT JUMPDEST PUSH32 0x496E76616C6964206C6576656C2076616C756573000000000000000000000000 PUSH0 DUP3 ADD MSTORE POP JUMP JUMPDEST PUSH0 PUSH2 0x248C PUSH1 0x14 DUP4 PUSH2 0x219B JUMP JUMPDEST SWAP2 POP PUSH2 0x2497 DUP3 PUSH2 0x2458 JUMP JUMPDEST PUSH1 0x20 DUP3 ADD SWAP1 POP SWAP2 SWAP1 POP JUMP JUMPDEST PUSH0 PUSH1 0x20 DUP3 ADD SWAP1 POP DUP2 DUP2 SUB PUSH0 DUP4 ADD MSTORE PUSH2 0x24B9 DUP2 PUSH2 0x2480 JUMP JUMPDEST SWAP1 POP SWAP2 SWAP1 POP JUMP JUMPDEST PUSH0 DUP2 SWAP1 POP SWAP2 SWAP1 POP JUMP JUMPDEST PUSH0 PUSH8 0xFFFFFFFFFFFFFFFF DUP3 AND SWAP1 POP SWAP2 SWAP1 POP JUMP JUMPDEST PUSH0 DUP2 SWAP1 POP SWAP2 SWAP1 POP JUMP JUMPDEST PUSH0 PUSH2 0x24FF PUSH2 0x24FA PUSH2 0x24F5 DUP5 PUSH2 0x24C0 JUMP JUMPDEST PUSH2 0x24DC JUMP JUMPDEST PUSH2 0x24C9 JUMP JUMPDEST SWAP1 POP SWAP2 SWAP1 POP JUMP JUMPDEST PUSH2 0x250F DUP2 PUSH2 0x24E5 JUMP JUMPDEST DUP3 MSTORE POP POP JUMP JUMPDEST PUSH0 PUSH1 0x20 DUP3 ADD SWAP1 POP PUSH2 0x2528 PUSH0 DUP4 ADD DUP5 PUSH2 0x2506 JUMP JUMPDEST SWAP3 SWAP2 POP POP JUMP JUMPDEST PUSH0 PUSH1 0x60 DUP3 ADD SWAP1 POP PUSH2 0x2541 PUSH0 DUP4 ADD DUP7 PUSH2 0x1D02 JUMP JUMPDEST PUSH2 0x254E PUSH1 0x20 DUP4 ADD DUP6 PUSH2 0x1D02 JUMP JUMPDEST PUSH2 0x255B PUSH1 0x40 DUP4 ADD DUP5 PUSH2 0x1E01 JUMP JUMPDEST SWAP5 SWAP4 POP POP POP POP JUMP JUMPDEST PUSH0 DUP2 MLOAD SWAP1 POP SWAP2 SWAP1 POP JUMP JUMPDEST PUSH0 DUP2 SWAP1 POP SWAP3 SWAP2 POP POP JUMP JUMPDEST PUSH0 PUSH2 0x2581 DUP3 PUSH2 0x2563 JUMP JUMPDEST PUSH2 0x258B DUP2 DUP6 PUSH2 0x256D JUMP JUMPDEST SWAP4 POP PUSH2 0x259B DUP2 DUP6 PUSH1 0x20 DUP7 ADD PUSH2 0x21AB JUMP JUMPDEST DUP1 DUP5 ADD SWAP2 POP POP SWAP3 SWAP2 POP POP JUMP JUMPDEST PUSH0 PUSH2 0x25B2 DUP3 DUP5 PUSH2 0x2577 JUMP JUMPDEST SWAP2 POP DUP2 SWAP1 POP SWAP3 SWAP2 POP POP JUMP JUMPDEST PUSH2 0x25C6 DUP2 PUSH2 0x1E8C JUMP JUMPDEST DUP2 EQ PUSH2 0x25D0 JUMPI PUSH0 DUP1 REVERT JUMPDEST POP JUMP JUMPDEST PUSH0 DUP2 MLOAD SWAP1 POP PUSH2 0x25E1 DUP2 PUSH2 0x25BD JUMP JUMPDEST SWAP3 SWAP2 POP POP JUMP JUMPDEST PUSH0 PUSH1 0x20 DUP3 DUP5 SUB SLT ISZERO PUSH2 0x25FC JUMPI PUSH2 0x25FB PUSH2 0x1C6C JUMP JUMPDEST JUMPDEST PUSH0 PUSH2 0x2609 DUP5 DUP3 DUP6 ADD PUSH2 0x25D3 JUMP JUMPDEST SWAP2 POP POP SWAP3 SWAP2 POP POP JUMP JUMPDEST PUSH32 0x5472616E7366657248656C7065723A205452414E534645525F46524F4D5F4641 PUSH0 DUP3 ADD MSTORE PUSH32 0x494C454400000000000000000000000000000000000000000000000000000000 PUSH1 0x20 DUP3 ADD MSTORE POP JUMP JUMPDEST PUSH0 PUSH2 0x266C PUSH1 0x24 DUP4 PUSH2 0x219B JUMP JUMPDEST SWAP2 POP PUSH2 0x2677 DUP3 PUSH2 0x2612 JUMP JUMPDEST PUSH1 0x40 DUP3 ADD SWAP1 POP SWAP2 SWAP1 POP JUMP JUMPDEST PUSH0 PUSH1 0x20 DUP3 ADD SWAP1 POP DUP2 DUP2 SUB PUSH0 DUP4 ADD MSTORE PUSH2 0x2699 DUP2 PUSH2 0x2660 JUMP JUMPDEST SWAP1 POP SWAP2 SWAP1 POP JUMP JUMPDEST PUSH2 0x26A9 DUP2 PUSH2 0x2110 JUMP JUMPDEST DUP2 EQ PUSH2 0x26B3 JUMPI PUSH0 DUP1 REVERT JUMPDEST POP JUMP JUMPDEST PUSH0 DUP2 MLOAD SWAP1 POP PUSH2 0x26C4 DUP2 PUSH2 0x26A0 JUMP JUMPDEST SWAP3 SWAP2 POP POP JUMP JUMPDEST PUSH0 PUSH1 0x20 DUP3 DUP5 SUB SLT ISZERO PUSH2 0x26DF JUMPI PUSH2 0x26DE PUSH2 0x1C6C JUMP JUMPDEST JUMPDEST PUSH0 PUSH2 0x26EC DUP5 DUP3 DUP6 ADD PUSH2 0x26B6 JUMP JUMPDEST SWAP2 POP POP SWAP3 SWAP2 POP POP JUMP INVALID LOG2 PUSH5 0x6970667358 0x22 SLT KECCAK256 SWAP6 0xA9 CALLDATALOAD 0xDF 0xA6 0xCF 0xDC SELFDESTRUCT 0xC9 0xC4 0xC9 0xE8 SWAP2 SELFDESTRUCT PUSH32 0x7BBBE765B6C9B0817A227631AC30FDB064736F6C6343000818003300000000 "
		},
		"gasEstimates": {
			"creation": {
				"codeDepositCost": "2005400",
				"executionCost": "infinite",
				"totalCost": "infinite"
			},
			"external": {
				"ADVANCED()": "2558",
				"BASIC()": "2470",
				"ELITE()": "2448",
				"UPGRADE_INTERFACE_VERSION()": "infinite",
				"USDT()": "461",
				"advancedUsers(uint256)": "5055",
				"basicUsers(uint256)": "4968",
				"eliteUsers(uint256)": "4989",
				"getAdvancedUsers()": "infinite",
				"getAllUsersLength()": "infinite",
				"getBasicUsers()": "infinite",
				"getEliteUsers()": "infinite",
				"getSubscribeInfo()": "infinite",
				"getUsersPage(uint8,uint256,uint256)": "infinite",
				"initialize(address)": "infinite",
				"owner()": "2656",
				"proxiableUUID()": "infinite",
				"recipient()": "2553",
				"renounceOwnership()": "infinite",
				"setLevelsLimit(uint256,uint256,uint256)": "infinite",
				"setRecipient(address)": "infinite",
				"subscribe(uint256)": "infinite",
				"transferOwnership(address)": "infinite",
				"upgradeToAndCall(address,bytes)": "infinite",
				"userInfo(address)": "infinite"
			},
			"internal": {
				"_authorizeUpgrade(address)": "infinite"
			}
		},
		"methodIdentifiers": {
			"ADVANCED()": "9aa3acf2",
			"BASIC()": "384d57b5",
			"ELITE()": "664637fc",
			"UPGRADE_INTERFACE_VERSION()": "ad3cb1cc",
			"USDT()": "c54e44eb",
			"advancedUsers(uint256)": "91d02b0f",
			"basicUsers(uint256)": "065a187c",
			"eliteUsers(uint256)": "a652c53f",
			"getAdvancedUsers()": "10bce099",
			"getAllUsersLength()": "b00b968b",
			"getBasicUsers()": "07b7e83e",
			"getEliteUsers()": "57cc2537",
			"getSubscribeInfo()": "14b4ee3b",
			"getUsersPage(uint8,uint256,uint256)": "209630a8",
			"initialize(address)": "c4d66de8",
			"owner()": "8da5cb5b",
			"proxiableUUID()": "52d1902d",
			"recipient()": "66d003ac",
			"renounceOwnership()": "715018a6",
			"setLevelsLimit(uint256,uint256,uint256)": "a9625dfe",
			"setRecipient(address)": "3bbed4a0",
			"subscribe(uint256)": "0f574ba7",
			"transferOwnership(address)": "f2fde38b",
			"upgradeToAndCall(address,bytes)": "4f1ef286",
			"userInfo(address)": "1959a002"
		}
	},
	"abi": [
		{
			"inputs": [
				{
					"internalType": "address",
					"name": "target",
					"type": "address"
				}
			],
			"name": "AddressEmptyCode",
			"type": "error"
		},
		{
			"inputs": [
				{
					"internalType": "address",
					"name": "implementation",
					"type": "address"
				}
			],
			"name": "ERC1967InvalidImplementation",
			"type": "error"
		},
		{
			"inputs": [],
			"name": "ERC1967NonPayable",
			"type": "error"
		},
		{
			"inputs": [],
			"name": "FailedCall",
			"type": "error"
		},
		{
			"inputs": [],
			"name": "InvalidInitialization",
			"type": "error"
		},
		{
			"inputs": [],
			"name": "NotInitializing",
			"type": "error"
		},
		{
			"inputs": [
				{
					"internalType": "address",
					"name": "owner",
					"type": "address"
				}
			],
			"name": "OwnableInvalidOwner",
			"type": "error"
		},
		{
			"inputs": [
				{
					"internalType": "address",
					"name": "account",
					"type": "address"
				}
			],
			"name": "OwnableUnauthorizedAccount",
			"type": "error"
		},
		{
			"inputs": [],
			"name": "ReentrancyGuardReentrantCall",
			"type": "error"
		},
		{
			"inputs": [],
			"name": "UUPSUnauthorizedCallContext",
			"type": "error"
		},
		{
			"inputs": [
				{
					"internalType": "bytes32",
					"name": "slot",
					"type": "bytes32"
				}
			],
			"name": "UUPSUnsupportedProxiableUUID",
			"type": "error"
		},
		{
			"anonymous": false,
			"inputs": [
				{
					"indexed": false,
					"internalType": "uint64",
					"name": "version",
					"type": "uint64"
				}
			],
			"name": "Initialized",
			"type": "event"
		},
		{
			"anonymous": false,
			"inputs": [
				{
					"indexed": true,
					"internalType": "address",
					"name": "previousOwner",
					"type": "address"
				},
				{
					"indexed": true,
					"internalType": "address",
					"name": "newOwner",
					"type": "address"
				}
			],
			"name": "OwnershipTransferred",
			"type": "event"
		},
		{
			"anonymous": false,
			"inputs": [
				{
					"indexed": true,
					"internalType": "address",
					"name": "user",
					"type": "address"
				},
				{
					"indexed": false,
					"internalType": "uint256",
					"name": "amount",
					"type": "uint256"
				},
				{
					"indexed": false,
					"internalType": "uint256",
					"name": "time",
					"type": "uint256"
				}
			],
			"name": "Subscribed",
			"type": "event"
		},
		{
			"anonymous": false,
			"inputs": [
				{
					"indexed": true,
					"internalType": "address",
					"name": "implementation",
					"type": "address"
				}
			],
			"name": "Upgraded",
			"type": "event"
		},
		{
			"inputs": [],
			"name": "ADVANCED",
			"outputs": [
				{
					"internalType": "uint256",
					"name": "",
					"type": "uint256"
				}
			],
			"stateMutability": "view",
			"type": "function"
		},
		{
			"inputs": [],
			"name": "BASIC",
			"outputs": [
				{
					"internalType": "uint256",
					"name": "",
					"type": "uint256"
				}
			],
			"stateMutability": "view",
			"type": "function"
		},
		{
			"inputs": [],
			"name": "ELITE",
			"outputs": [
				{
					"internalType": "uint256",
					"name": "",
					"type": "uint256"
				}
			],
			"stateMutability": "view",
			"type": "function"
		},
		{
			"inputs": [],
			"name": "UPGRADE_INTERFACE_VERSION",
			"outputs": [
				{
					"internalType": "string",
					"name": "",
					"type": "string"
				}
			],
			"stateMutability": "view",
			"type": "function"
		},
		{
			"inputs": [],
			"name": "USDT",
			"outputs": [
				{
					"internalType": "address",
					"name": "",
					"type": "address"
				}
			],
			"stateMutability": "view",
			"type": "function"
		},
		{
			"inputs": [
				{
					"internalType": "uint256",
					"name": "",
					"type": "uint256"
				}
			],
			"name": "advancedUsers",
			"outputs": [
				{
					"internalType": "address",
					"name": "",
					"type": "address"
				}
			],
			"stateMutability": "view",
			"type": "function"
		},
		{
			"inputs": [
				{
					"internalType": "uint256",
					"name": "",
					"type": "uint256"
				}
			],
			"name": "basicUsers",
			"outputs": [
				{
					"internalType": "address",
					"name": "",
					"type": "address"
				}
			],
			"stateMutability": "view",
			"type": "function"
		},
		{
			"inputs": [
				{
					"internalType": "uint256",
					"name": "",
					"type": "uint256"
				}
			],
			"name": "eliteUsers",
			"outputs": [
				{
					"internalType": "address",
					"name": "",
					"type": "address"
				}
			],
			"stateMutability": "view",
			"type": "function"
		},
		{
			"inputs": [],
			"name": "getAdvancedUsers",
			"outputs": [
				{
					"internalType": "address[]",
					"name": "",
					"type": "address[]"
				}
			],
			"stateMutability": "view",
			"type": "function"
		},
		{
			"inputs": [],
			"name": "getAllUsersLength",
			"outputs": [
				{
					"internalType": "uint256",
					"name": "basic",
					"type": "uint256"
				},
				{
					"internalType": "uint256",
					"name": "advanced",
					"type": "uint256"
				},
				{
					"internalType": "uint256",
					"name": "elite",
					"type": "uint256"
				}
			],
			"stateMutability": "view",
			"type": "function"
		},
		{
			"inputs": [],
			"name": "getBasicUsers",
			"outputs": [
				{
					"internalType": "address[]",
					"name": "",
					"type": "address[]"
				}
			],
			"stateMutability": "view",
			"type": "function"
		},
		{
			"inputs": [],
			"name": "getEliteUsers",
			"outputs": [
				{
					"internalType": "address[]",
					"name": "",
					"type": "address[]"
				}
			],
			"stateMutability": "view",
			"type": "function"
		},
		{
			"inputs": [],
			"name": "getSubscribeInfo",
			"outputs": [
				{
					"internalType": "uint256",
					"name": "length",
					"type": "uint256"
				},
				{
					"internalType": "uint256",
					"name": "totalAmount",
					"type": "uint256"
				}
			],
			"stateMutability": "view",
			"type": "function"
		},
		{
			"inputs": [
				{
					"internalType": "uint8",
					"name": "level",
					"type": "uint8"
				},
				{
					"internalType": "uint256",
					"name": "start",
					"type": "uint256"
				},
				{
					"internalType": "uint256",
					"name": "count",
					"type": "uint256"
				}
			],
			"name": "getUsersPage",
			"outputs": [
				{
					"internalType": "address[]",
					"name": "users",
					"type": "address[]"
				}
			],
			"stateMutability": "view",
			"type": "function"
		},
		{
			"inputs": [
				{
					"internalType": "address",
					"name": "_recipient",
					"type": "address"
				}
			],
			"name": "initialize",
			"outputs": [],
			"stateMutability": "nonpayable",
			"type": "function"
		},
		{
			"inputs": [],
			"name": "owner",
			"outputs": [
				{
					"internalType": "address",
					"name": "",
					"type": "address"
				}
			],
			"stateMutability": "view",
			"type": "function"
		},
		{
			"inputs": [],
			"name": "proxiableUUID",
			"outputs": [
				{
					"internalType": "bytes32",
					"name": "",
					"type": "bytes32"
				}
			],
			"stateMutability": "view",
			"type": "function"
		},
		{
			"inputs": [],
			"name": "recipient",
			"outputs": [
				{
					"internalType": "address",
					"name": "",
					"type": "address"
				}
			],
			"stateMutability": "view",
			"type": "function"
		},
		{
			"inputs": [],
			"name": "renounceOwnership",
			"outputs": [],
			"stateMutability": "nonpayable",
			"type": "function"
		},
		{
			"inputs": [
				{
					"internalType": "uint256",
					"name": "_basic",
					"type": "uint256"
				},
				{
					"internalType": "uint256",
					"name": "_advanced",
					"type": "uint256"
				},
				{
					"internalType": "uint256",
					"name": "_elite",
					"type": "uint256"
				}
			],
			"name": "setLevelsLimit",
			"outputs": [],
			"stateMutability": "nonpayable",
			"type": "function"
		},
		{
			"inputs": [
				{
					"internalType": "address",
					"name": "_recipient",
					"type": "address"
				}
			],
			"name": "setRecipient",
			"outputs": [],
			"stateMutability": "nonpayable",
			"type": "function"
		},
		{
			"inputs": [
				{
					"internalType": "uint256",
					"name": "amount",
					"type": "uint256"
				}
			],
			"name": "subscribe",
			"outputs": [],
			"stateMutability": "nonpayable",
			"type": "function"
		},
		{
			"inputs": [
				{
					"internalType": "address",
					"name": "newOwner",
					"type": "address"
				}
			],
			"name": "transferOwnership",
			"outputs": [],
			"stateMutability": "nonpayable",
			"type": "function"
		},
		{
			"inputs": [
				{
					"internalType": "address",
					"name": "newImplementation",
					"type": "address"
				},
				{
					"internalType": "bytes",
					"name": "data",
					"type": "bytes"
				}
			],
			"name": "upgradeToAndCall",
			"outputs": [],
			"stateMutability": "payable",
			"type": "function"
		},
		{
			"inputs": [
				{
					"internalType": "address",
					"name": "",
					"type": "address"
				}
			],
			"name": "userInfo",
			"outputs": [
				{
					"internalType": "uint256",
					"name": "subscribeAmount",
					"type": "uint256"
				},
				{
					"internalType": "uint256",
					"name": "subscribeTime",
					"type": "uint256"
				},
				{
					"internalType": "bool",
					"name": "subscribed",
					"type": "bool"
				}
			],
			"stateMutability": "view",
			"type": "function"
		},
		{
			"stateMutability": "payable",
			"type": "receive"
		}
	]
}