{"abi":[{"type":"receive","stateMutability":"payable"},{"type":"function","name":"ADVANCED","inputs":[],"outputs":[{"name":"","type":"uint256","internalType":"uint256"}],"stateMutability":"view"},{"type":"function","name":"BASIC","inputs":[],"outputs":[{"name":"","type":"uint256","internalType":"uint256"}],"stateMutability":"view"},{"type":"function","name":"ELITE","inputs":[],"outputs":[{"name":"","type":"uint256","internalType":"uint256"}],"stateMutability":"view"},{"type":"function","name":"UPGRADE_INTERFACE_VERSION","inputs":[],"outputs":[{"name":"","type":"string","internalType":"string"}],"stateMutability":"view"},{"type":"function","name":"USDT","inputs":[],"outputs":[{"name":"","type":"address","internalType":"address"}],"stateMutability":"view"},{"type":"function","name":"advancedUsers","inputs":[{"name":"","type":"uint256","internalType":"uint256"}],"outputs":[{"name":"","type":"address","internalType":"address"}],"stateMutability":"view"},{"type":"function","name":"basicUsers","inputs":[{"name":"","type":"uint256","internalType":"uint256"}],"outputs":[{"name":"","type":"address","internalType":"address"}],"stateMutability":"view"},{"type":"function","name":"eliteUsers","inputs":[{"name":"","type":"uint256","internalType":"uint256"}],"outputs":[{"name":"","type":"address","internalType":"address"}],"stateMutability":"view"},{"type":"function","name":"getAdvancedUsers","inputs":[],"outputs":[{"name":"","type":"address[]","internalType":"address[]"}],"stateMutability":"view"},{"type":"function","name":"getAllUsersLength","inputs":[],"outputs":[{"name":"basic","type":"uint256","internalType":"uint256"},{"name":"advanced","type":"uint256","internalType":"uint256"},{"name":"elite","type":"uint256","internalType":"uint256"}],"stateMutability":"view"},{"type":"function","name":"getBasicUsers","inputs":[],"outputs":[{"name":"","type":"address[]","internalType":"address[]"}],"stateMutability":"view"},{"type":"function","name":"getEliteUsers","inputs":[],"outputs":[{"name":"","type":"address[]","internalType":"address[]"}],"stateMutability":"view"},{"type":"function","name":"getSubscribeInfo","inputs":[],"outputs":[{"name":"length","type":"uint256","internalType":"uint256"},{"name":"totalAmount","type":"uint256","internalType":"uint256"}],"stateMutability":"view"},{"type":"function","name":"getUsersPage","inputs":[{"name":"level","type":"uint8","internalType":"uint8"},{"name":"start","type":"uint256","internalType":"uint256"},{"name":"count","type":"uint256","internalType":"uint256"}],"outputs":[{"name":"users","type":"address[]","internalType":"address[]"}],"stateMutability":"view"},{"type":"function","name":"initialize","inputs":[{"name":"_recipient","type":"address","internalType":"address"}],"outputs":[],"stateMutability":"nonpayable"},{"type":"function","name":"owner","inputs":[],"outputs":[{"name":"","type":"address","internalType":"address"}],"stateMutability":"view"},{"type":"function","name":"proxiableUUID","inputs":[],"outputs":[{"name":"","type":"bytes32","internalType":"bytes32"}],"stateMutability":"view"},{"type":"function","name":"recipient","inputs":[],"outputs":[{"name":"","type":"address","internalType":"address"}],"stateMutability":"view"},{"type":"function","name":"renounceOwnership","inputs":[],"outputs":[],"stateMutability":"nonpayable"},{"type":"function","name":"setLevelsLimit","inputs":[{"name":"_basic","type":"uint256","internalType":"uint256"},{"name":"_advanced","type":"uint256","internalType":"uint256"},{"name":"_elite","type":"uint256","internalType":"uint256"}],"outputs":[],"stateMutability":"nonpayable"},{"type":"function","name":"setRecipient","inputs":[{"name":"_recipient","type":"address","internalType":"address"}],"outputs":[],"stateMutability":"nonpayable"},{"type":"function","name":"subscribe","inputs":[{"name":"amount","type":"uint256","internalType":"uint256"}],"outputs":[],"stateMutability":"nonpayable"},{"type":"function","name":"transferOwnership","inputs":[{"name":"newOwner","type":"address","internalType":"address"}],"outputs":[],"stateMutability":"nonpayable"},{"type":"function","name":"upgradeToAndCall","inputs":[{"name":"newImplementation","type":"address","internalType":"address"},{"name":"data","type":"bytes","internalType":"bytes"}],"outputs":[],"stateMutability":"payable"},{"type":"function","name":"userInfo","inputs":[{"name":"","type":"address","internalType":"address"}],"outputs":[{"name":"subscribeAmount","type":"uint256","internalType":"uint256"},{"name":"subscribeTime","type":"uint256","internalType":"uint256"},{"name":"subscribed","type":"bool","internalType":"bool"}],"stateMutability":"view"},{"type":"event","name":"Initialized","inputs":[{"name":"version","type":"uint64","indexed":false,"internalType":"uint64"}],"anonymous":false},{"type":"event","name":"OwnershipTransferred","inputs":[{"name":"previousOwner","type":"address","indexed":true,"internalType":"address"},{"name":"newOwner","type":"address","indexed":true,"internalType":"address"}],"anonymous":false},{"type":"event","name":"Subscribed","inputs":[{"name":"user","type":"address","indexed":true,"internalType":"address"},{"name":"amount","type":"uint256","indexed":false,"internalType":"uint256"},{"name":"time","type":"uint256","indexed":false,"internalType":"uint256"}],"anonymous":false},{"type":"event","name":"Upgraded","inputs":[{"name":"implementation","type":"address","indexed":true,"internalType":"address"}],"anonymous":false},{"type":"error","name":"AddressEmptyCode","inputs":[{"name":"target","type":"address","internalType":"address"}]},{"type":"error","name":"ERC1967InvalidImplementation","inputs":[{"name":"implementation","type":"address","internalType":"address"}]},{"type":"error","name":"ERC1967NonPayable","inputs":[]},{"type":"error","name":"FailedCall","inputs":[]},{"type":"error","name":"InvalidInitialization","inputs":[]},{"type":"error","name":"NotInitializing","inputs":[]},{"type":"error","name":"OwnableInvalidOwner","inputs":[{"name":"owner","type":"address","internalType":"address"}]},{"type":"error","name":"OwnableUnauthorizedAccount","inputs":[{"name":"account","type":"address","internalType":"address"}]},{"type":"error","name":"ReentrancyGuardReentrantCall","inputs":[]},{"type":"error","name":"UUPSUnauthorizedCallContext","inputs":[]},{"type":"error","name":"UUPSUnsupportedProxiableUUID","inputs":[{"name":"slot","type":"bytes32","internalType":"bytes32"}]}],"bytecode":{"object":"0x60a06040523073ffffffffffffffffffffffffffffffffffffffff1660809073ffffffffffffffffffffffffffffffffffffffff16815250670de0b6b3a7640000600255671bc16d674ec800006003556729a2241af62c00006004553480156065575f5ffd5b5060015f819055506080516127116100935f395f8181611485015281816114da015261169401526127115ff3fe608060405260043610610169575f3560e01c8063664637fc116100d0578063a652c53f11610089578063b00b968b11610063578063b00b968b1461051b578063c4d66de814610547578063c54e44eb1461056f578063f2fde38b1461059957610170565b8063a652c53f1461048d578063a9625dfe146104c9578063ad3cb1cc146104f157610170565b8063664637fc1461039357806366d003ac146103bd578063715018a6146103e75780638da5cb5b146103fd57806391d02b0f146104275780639aa3acf21461046357610170565b8063209630a811610122578063209630a814610295578063384d57b5146102d15780633bbed4a0146102fb5780634f1ef2861461032357806352d1902d1461033f57806357cc25371461036957610170565b8063065a187c1461017457806307b7e83e146101b05780630f574ba7146101da57806310bce0991461020257806314b4ee3b1461022c5780631959a0021461025757610170565b3661017057005b5f5ffd5b34801561017f575f5ffd5b5061019a60048036038101906101959190611ca7565b6105c1565b6040516101a79190611d11565b60405180910390f35b3480156101bb575f5ffd5b506101c46105fc565b6040516101d19190611de1565b60405180910390f35b3480156101e5575f5ffd5b5061020060048036038101906101fb9190611ca7565b610687565b005b34801561020d575f5ffd5b506102166109f9565b6040516102239190611de1565b60405180910390f35b348015610237575f5ffd5b50610240610a84565b60405161024e929190611e10565b60405180910390f35b348015610262575f5ffd5b5061027d60048036038101906102789190611e61565b610ab7565b60405161028c93929190611ea6565b60405180910390f35b3480156102a0575f5ffd5b506102bb60048036038101906102b69190611f11565b610ae9565b6040516102c89190611de1565b60405180910390f35b3480156102dc575f5ffd5b506102e5610cf1565b6040516102f29190611f61565b60405180910390f35b348015610306575f5ffd5b50610321600480360381019061031c9190611e61565b610cf7565b005b61033d600480360381019061033891906120b6565b610d42565b005b34801561034a575f5ffd5b50610353610d61565b6040516103609190612128565b60405180910390f35b348015610374575f5ffd5b5061037d610d92565b60405161038a9190611de1565b60405180910390f35b34801561039e575f5ffd5b506103a7610e1d565b6040516103b49190611f61565b60405180910390f35b3480156103c8575f5ffd5b506103d1610e23565b6040516103de9190611d11565b60405180910390f35b3480156103f2575f5ffd5b506103fb610e48565b005b348015610408575f5ffd5b50610411610e5b565b60405161041e9190611d11565b60405180910390f35b348015610432575f5ffd5b5061044d60048036038101906104489190611ca7565b610e90565b60405161045a9190611d11565b60405180910390f35b34801561046e575f5ffd5b50610477610ecb565b6040516104849190611f61565b60405180910390f35b348015610498575f5ffd5b506104b360048036038101906104ae9190611ca7565b610ed1565b6040516104c09190611d11565b60405180910390f35b3480156104d4575f5ffd5b506104ef60048036038101906104ea9190612141565b610f0c565b005b3480156104fc575f5ffd5b50610505610f86565b60405161051291906121f1565b60405180910390f35b348015610526575f5ffd5b5061052f610fbf565b60405161053e93929190612211565b60405180910390f35b348015610552575f5ffd5b5061056d60048036038101906105689190611e61565b610fdf565b005b34801561057a575f5ffd5b506105836111e0565b6040516105909190611d11565b60405180910390f35b3480156105a4575f5ffd5b506105bf60048036038101906105ba9190611e61565b6111f8565b005b600681815481106105d0575f80fd5b905f5260205f20015f915054906101000a900473ffffffffffffffffffffffffffffffffffffffff1681565b6060600680548060200260200160405190810160405280929190818152602001828054801561067d57602002820191905f5260205f20905b815f9054906101000a900473ffffffffffffffffffffffffffffffffffffffff1673ffffffffffffffffffffffffffffffffffffffff1681526020019060010190808311610634575b5050505050905090565b61068f61127c565b6002548114806106a0575060035481145b806106ac575060045481145b6106eb576040517f08c379a00000000000000000000000000000000000000000000000000000000081526004016106e290612290565b60405180910390fd5b60055f3373ffffffffffffffffffffffffffffffffffffffff1673ffffffffffffffffffffffffffffffffffffffff1681526020019081526020015f206002015f9054906101000a900460ff1615610778576040517f08c379a000000000000000000000000000000000000000000000000000000000815260040161076f906122f8565b60405180910390fd5b6107b97355d398326f99059ff775485246999027b31979553360015f9054906101000a900473ffffffffffffffffffffffffffffffffffffffff16846112c0565b60405180606001604052808281526020014281526020016001151581525060055f3373ffffffffffffffffffffffffffffffffffffffff1673ffffffffffffffffffffffffffffffffffffffff1681526020019081526020015f205f820151815f0155602082015181600101556040820151816002015f6101000a81548160ff0219169083151502179055509050508060095f8282546108599190612343565b9250508190555060025481036108ce57600633908060018154018082558091505060019003905f5260205f20015f9091909190916101000a81548173ffffffffffffffffffffffffffffffffffffffff021916908373ffffffffffffffffffffffffffffffffffffffff16021790555061099e565b600354810361093c57600733908060018154018082558091505060019003905f5260205f20015f9091909190916101000a81548173ffffffffffffffffffffffffffffffffffffffff021916908373ffffffffffffffffffffffffffffffffffffffff16021790555061099d565b600833908060018154018082558091505060019003905f5260205f20015f9091909190916101000a81548173ffffffffffffffffffffffffffffffffffffffff021916908373ffffffffffffffffffffffffffffffffffffffff1602179055505b5b3373ffffffffffffffffffffffffffffffffffffffff167ff94991dcbea6e8ac439cbc93bd9c62a4d39f04e0ad656df9a703f13552c2787f82426040516109e6929190611e10565b60405180910390a26109f66113f3565b50565b60606007805480602002602001604051908101604052809291908181526020018280548015610a7a57602002820191905f5260205f20905b815f9054906101000a900473ffffffffffffffffffffffffffffffffffffffff1673ffffffffffffffffffffffffffffffffffffffff1681526020019060010190808311610a31575b5050505050905090565b5f5f600880549050600780549050600680549050610aa29190612343565b610aac9190612343565b915060095490509091565b6005602052805f5260405f205f91509050805f015490806001015490806002015f9054906101000a900460ff16905083565b60605f5f8560ff1603610aff5760069050610b64565b60018560ff1603610b135760079050610b63565b60028560ff1603610b275760089050610b62565b6040517f08c379a0000000000000000000000000000000000000000000000000000000008152600401610b59906123c0565b60405180910390fd5b5b5b80805490508410610bc0575f67ffffffffffffffff811115610b8957610b88611f92565b5b604051908082528060200260200182016040528015610bb75781602001602082028036833780820191505090505b50915050610cea565b5f8385610bcd9190612343565b90508180549050811115610be357818054905090505b8481610bef91906123de565b67ffffffffffffffff811115610c0857610c07611f92565b5b604051908082528060200260200182016040528015610c365781602001602082028036833780820191505090505b5092505f8590505b81811015610ce657828181548110610c5957610c58612411565b5b905f5260205f20015f9054906101000a900473ffffffffffffffffffffffffffffffffffffffff16848783610c8e91906123de565b81518110610c9f57610c9e612411565b5b602002602001019073ffffffffffffffffffffffffffffffffffffffff16908173ffffffffffffffffffffffffffffffffffffffff16815250508080600101915050610c3e565b5050505b9392505050565b60025481565b610cff6113fc565b8060015f6101000a81548173ffffffffffffffffffffffffffffffffffffffff021916908373ffffffffffffffffffffffffffffffffffffffff16021790555050565b610d4a611483565b610d5382611569565b610d5d8282611574565b5050565b5f610d6a611692565b7f360894a13ba1a3210667c828492db98dca3e2076cc3735a920a3ca505d382bbc5f1b905090565b60606008805480602002602001604051908101604052809291908181526020018280548015610e1357602002820191905f5260205f20905b815f9054906101000a900473ffffffffffffffffffffffffffffffffffffffff1673ffffffffffffffffffffffffffffffffffffffff1681526020019060010190808311610dca575b5050505050905090565b60045481565b60015f9054906101000a900473ffffffffffffffffffffffffffffffffffffffff1681565b610e506113fc565b610e595f611719565b565b5f5f610e656117ea565b9050805f015f9054906101000a900473ffffffffffffffffffffffffffffffffffffffff1691505090565b60078181548110610e9f575f80fd5b905f5260205f20015f915054906101000a900473ffffffffffffffffffffffffffffffffffffffff1681565b60035481565b60088181548110610ee0575f80fd5b905f5260205f20015f915054906101000a900473ffffffffffffffffffffffffffffffffffffffff1681565b610f146113fc565b5f83118015610f2257505f82115b8015610f2d57505f81115b610f6c576040517f08c379a0000000000000000000000000000000000000000000000000000000008152600401610f6390612488565b60405180910390fd5b826002819055508160038190555080600481905550505050565b6040518060400160405280600581526020017f352e302e3000000000000000000000000000000000000000000000000000000081525081565b5f5f5f600680549050925060078054905091506008805490509050909192565b5f610fe8611811565b90505f815f0160089054906101000a900460ff161590505f825f015f9054906101000a900467ffffffffffffffff1690505f5f8267ffffffffffffffff161480156110305750825b90505f60018367ffffffffffffffff1614801561106357505f3073ffffffffffffffffffffffffffffffffffffffff163b145b905081158015611071575080155b156110a8576040517ff92ee8a900000000000000000000000000000000000000000000000000000000815260040160405180910390fd5b6001855f015f6101000a81548167ffffffffffffffff021916908367ffffffffffffffff16021790555083156110f5576001855f0160086101000a81548160ff0219169083151502179055505b611105611100611824565b61182b565b61110d6118af565b8560015f6101000a81548173ffffffffffffffffffffffffffffffffffffffff021916908373ffffffffffffffffffffffffffffffffffffffff1602179055506830ca024f987b900000600281905550689d3595ab2438d0000060038190555069013fd6f2b475d4b0000060048190555083156111d8575f855f0160086101000a81548160ff0219169083151502179055507fc7f505b2f371ae2175ee4913f4499e1f2633a7b5936321eed1cdaeb6115181d260016040516111cf91906124fb565b60405180910390a15b505050505050565b7355d398326f99059ff775485246999027b319795581565b6112006113fc565b5f73ffffffffffffffffffffffffffffffffffffffff168173ffffffffffffffffffffffffffffffffffffffff1603611270575f6040517f1e4fbdf70000000000000000000000000000000000000000000000000000000081526004016112679190611d11565b60405180910390fd5b61127981611719565b50565b60025f54036112b7576040517f3ee5aeb500000000000000000000000000000000000000000000000000000000815260040160405180910390fd5b60025f81905550565b5f5f8573ffffffffffffffffffffffffffffffffffffffff166323b872dd8686866040516024016112f393929190612514565b6040516020818303038152906040529060e01b6020820180517bffffffffffffffffffffffffffffffffffffffffffffffffffffffff8381831617835250505050604051611341919061258d565b5f604051808303815f865af19150503d805f811461137a576040519150601f19603f3d011682016040523d82523d5f602084013e61137f565b606091505b50915091508180156113ac57505f815114806113ab5750808060200190518101906113aa91906125cd565b5b5b6113eb576040517f08c379a00000000000000000000000000000000000000000000000000000000081526004016113e290612668565b60405180910390fd5b505050505050565b60015f81905550565b611404611824565b73ffffffffffffffffffffffffffffffffffffffff16611422610e5b565b73ffffffffffffffffffffffffffffffffffffffff161461148157611445611824565b6040517f118cdaa70000000000000000000000000000000000000000000000000000000081526004016114789190611d11565b60405180910390fd5b565b7f000000000000000000000000000000000000000000000000000000000000000073ffffffffffffffffffffffffffffffffffffffff163073ffffffffffffffffffffffffffffffffffffffff16148061153057507f000000000000000000000000000000000000000000000000000000000000000073ffffffffffffffffffffffffffffffffffffffff166115176118b9565b73ffffffffffffffffffffffffffffffffffffffff1614155b15611567576040517fe07c8dba00000000000000000000000000000000000000000000000000000000815260040160405180910390fd5b565b6115716113fc565b50565b8173ffffffffffffffffffffffffffffffffffffffff166352d1902d6040518163ffffffff1660e01b8152600401602060405180830381865afa9250505080156115dc57506040513d601f19601f820116820180604052508101906115d991906126b0565b60015b61161d57816040517f4c9c8ce30000000000000000000000000000000000000000000000000000000081526004016116149190611d11565b60405180910390fd5b7f360894a13ba1a3210667c828492db98dca3e2076cc3735a920a3ca505d382bbc5f1b811461168357806040517faa1d49a400000000000000000000000000000000000000000000000000000000815260040161167a9190612128565b60405180910390fd5b61168d838361190c565b505050565b7f000000000000000000000000000000000000000000000000000000000000000073ffffffffffffffffffffffffffffffffffffffff163073ffffffffffffffffffffffffffffffffffffffff1614611717576040517fe07c8dba00000000000000000000000000000000000000000000000000000000815260040160405180910390fd5b565b5f6117226117ea565b90505f815f015f9054906101000a900473ffffffffffffffffffffffffffffffffffffffff16905082825f015f6101000a81548173ffffffffffffffffffffffffffffffffffffffff021916908373ffffffffffffffffffffffffffffffffffffffff1602179055508273ffffffffffffffffffffffffffffffffffffffff168173ffffffffffffffffffffffffffffffffffffffff167f8be0079c531659141344cd1fd0a4f28419497f9722a3daafe3b4186f6b6457e060405160405180910390a3505050565b5f7f9016d09d72d40fdae2fd8ceac6b6234c7706214fd39c1cd1e609a0528c199300905090565b5f5f61181b61197e565b90508091505090565b5f33905090565b6118336119a7565b5f73ffffffffffffffffffffffffffffffffffffffff168173ffffffffffffffffffffffffffffffffffffffff16036118a3575f6040517f1e4fbdf700000000000000000000000000000000000000000000000000000000815260040161189a9190611d11565b60405180910390fd5b6118ac81611719565b50565b6118b76119a7565b565b5f6118e57f360894a13ba1a3210667c828492db98dca3e2076cc3735a920a3ca505d382bbc5f1b6119e7565b5f015f9054906101000a900473ffffffffffffffffffffffffffffffffffffffff16905090565b611915826119f0565b8173ffffffffffffffffffffffffffffffffffffffff167fbc7cd75a20ee27fd9adebab32041f755214dbc6bffa90cc0225b39da2e5c2d3b60405160405180910390a25f815111156119715761196b8282611ab9565b5061197a565b611979611b39565b5b5050565b5f7ff0c57e16840df040f15088dc2f81fe391c3923bec73e23a9662efc9c229c6a005f1b905090565b6119af611b75565b6119e5576040517fd7e6bcf800000000000000000000000000000000000000000000000000000000815260040160405180910390fd5b565b5f819050919050565b5f8173ffffffffffffffffffffffffffffffffffffffff163b03611a4b57806040517f4c9c8ce3000000000000000000000000000000000000000000000000000000008152600401611a429190611d11565b60405180910390fd5b80611a777f360894a13ba1a3210667c828492db98dca3e2076cc3735a920a3ca505d382bbc5f1b6119e7565b5f015f6101000a81548173ffffffffffffffffffffffffffffffffffffffff021916908373ffffffffffffffffffffffffffffffffffffffff16021790555050565b60605f5f8473ffffffffffffffffffffffffffffffffffffffff1684604051611ae2919061258d565b5f60405180830381855af49150503d805f8114611b1a576040519150601f19603f3d011682016040523d82523d5f602084013e611b1f565b606091505b5091509150611b2f858383611b93565b9250505092915050565b5f341115611b73576040517fb398979f00000000000000000000000000000000000000000000000000000000815260040160405180910390fd5b565b5f611b7e611811565b5f0160089054906101000a900460ff16905090565b606082611ba857611ba382611c20565b611c18565b5f8251148015611bce57505f8473ffffffffffffffffffffffffffffffffffffffff163b145b15611c1057836040517f9996b315000000000000000000000000000000000000000000000000000000008152600401611c079190611d11565b60405180910390fd5b819050611c19565b5b9392505050565b5f81511115611c3157805160208201fd5b6040517fd6bda27500000000000000000000000000000000000000000000000000000000815260040160405180910390fd5b5f604051905090565b5f5ffd5b5f5ffd5b5f819050919050565b611c8681611c74565b8114611c90575f5ffd5b50565b5f81359050611ca181611c7d565b92915050565b5f60208284031215611cbc57611cbb611c6c565b5b5f611cc984828501611c93565b91505092915050565b5f73ffffffffffffffffffffffffffffffffffffffff82169050919050565b5f611cfb82611cd2565b9050919050565b611d0b81611cf1565b82525050565b5f602082019050611d245f830184611d02565b92915050565b5f81519050919050565b5f82825260208201905092915050565b5f819050602082019050919050565b611d5c81611cf1565b82525050565b5f611d6d8383611d53565b60208301905092915050565b5f602082019050919050565b5f611d8f82611d2a565b611d998185611d34565b9350611da483611d44565b805f5b83811015611dd4578151611dbb8882611d62565b9750611dc683611d79565b925050600181019050611da7565b5085935050505092915050565b5f6020820190508181035f830152611df98184611d85565b905092915050565b611e0a81611c74565b82525050565b5f604082019050611e235f830185611e01565b611e306020830184611e01565b9392505050565b611e4081611cf1565b8114611e4a575f5ffd5b50565b5f81359050611e5b81611e37565b92915050565b5f60208284031215611e7657611e75611c6c565b5b5f611e8384828501611e4d565b91505092915050565b5f8115159050919050565b611ea081611e8c565b82525050565b5f606082019050611eb95f830186611e01565b611ec66020830185611e01565b611ed36040830184611e97565b949350505050565b5f60ff82169050919050565b611ef081611edb565b8114611efa575f5ffd5b50565b5f81359050611f0b81611ee7565b92915050565b5f5f5f60608486031215611f2857611f27611c6c565b5b5f611f3586828701611efd565b9350506020611f4686828701611c93565b9250506040611f5786828701611c93565b9150509250925092565b5f602082019050611f745f830184611e01565b92915050565b5f5ffd5b5f5ffd5b5f601f19601f8301169050919050565b7f4e487b71000000000000000000000000000000000000000000000000000000005f52604160045260245ffd5b611fc882611f82565b810181811067ffffffffffffffff82111715611fe757611fe6611f92565b5b80604052505050565b5f611ff9611c63565b90506120058282611fbf565b919050565b5f67ffffffffffffffff82111561202457612023611f92565b5b61202d82611f82565b9050602081019050919050565b828183375f83830152505050565b5f61205a6120558461200a565b611ff0565b90508281526020810184848401111561207657612075611f7e565b5b61208184828561203a565b509392505050565b5f82601f83011261209d5761209c611f7a565b5b81356120ad848260208601612048565b91505092915050565b5f5f604083850312156120cc576120cb611c6c565b5b5f6120d985828601611e4d565b925050602083013567ffffffffffffffff8111156120fa576120f9611c70565b5b61210685828601612089565b9150509250929050565b5f819050919050565b61212281612110565b82525050565b5f60208201905061213b5f830184612119565b92915050565b5f5f5f6060848603121561215857612157611c6c565b5b5f61216586828701611c93565b935050602061217686828701611c93565b925050604061218786828701611c93565b9150509250925092565b5f81519050919050565b5f82825260208201905092915050565b8281835e5f83830152505050565b5f6121c382612191565b6121cd818561219b565b93506121dd8185602086016121ab565b6121e681611f82565b840191505092915050565b5f6020820190508181035f83015261220981846121b9565b905092915050565b5f6060820190506122245f830186611e01565b6122316020830185611e01565b61223e6040830184611e01565b949350505050565b7f496e76616c696420737562736372697074696f6e20616d6f756e7400000000005f82015250565b5f61227a601b8361219b565b915061228582612246565b602082019050919050565b5f6020820190508181035f8301526122a78161226e565b9050919050565b7f416c7265616479207375627363726962656400000000000000000000000000005f82015250565b5f6122e260128361219b565b91506122ed826122ae565b602082019050919050565b5f6020820190508181035f83015261230f816122d6565b9050919050565b7f4e487b71000000000000000000000000000000000000000000000000000000005f52601160045260245ffd5b5f61234d82611c74565b915061235883611c74565b92508282019050808211156123705761236f612316565b5b92915050565b7f496e76616c6964206c6576656c000000000000000000000000000000000000005f82015250565b5f6123aa600d8361219b565b91506123b582612376565b602082019050919050565b5f6020820190508181035f8301526123d78161239e565b9050919050565b5f6123e882611c74565b91506123f383611c74565b925082820390508181111561240b5761240a612316565b5b92915050565b7f4e487b71000000000000000000000000000000000000000000000000000000005f52603260045260245ffd5b7f496e76616c6964206c6576656c2076616c7565730000000000000000000000005f82015250565b5f61247260148361219b565b915061247d8261243e565b602082019050919050565b5f6020820190508181035f83015261249f81612466565b9050919050565b5f819050919050565b5f67ffffffffffffffff82169050919050565b5f819050919050565b5f6124e56124e06124db846124a6565b6124c2565b6124af565b9050919050565b6124f5816124cb565b82525050565b5f60208201905061250e5f8301846124ec565b92915050565b5f6060820190506125275f830186611d02565b6125346020830185611d02565b6125416040830184611e01565b949350505050565b5f81519050919050565b5f81905092915050565b5f61256782612549565b6125718185612553565b93506125818185602086016121ab565b80840191505092915050565b5f612598828461255d565b915081905092915050565b6125ac81611e8c565b81146125b6575f5ffd5b50565b5f815190506125c7816125a3565b92915050565b5f602082840312156125e2576125e1611c6c565b5b5f6125ef848285016125b9565b91505092915050565b7f5472616e7366657248656c7065723a205452414e534645525f46524f4d5f46415f8201527f494c454400000000000000000000000000000000000000000000000000000000602082015250565b5f61265260248361219b565b915061265d826125f8565b604082019050919050565b5f6020820190508181035f83015261267f81612646565b9050919050565b61268f81612110565b8114612699575f5ffd5b50565b5f815190506126aa81612686565b92915050565b5f602082840312156126c5576126c4611c6c565b5b5f6126d28482850161269c565b9150509291505056fea264697066735822122037d986a7feb874c88e99b04c88eb076f5c844836d22ebb896b3327ee4519796864736f6c634300081e0033","linkReferences":{}},"methodIdentifiers":{"ADVANCED()":"9aa3acf2","BASIC()":"384d57b5","ELITE()":"664637fc","UPGRADE_INTERFACE_VERSION()":"ad3cb1cc","USDT()":"c54e44eb","advancedUsers(uint256)":"91d02b0f","basicUsers(uint256)":"065a187c","eliteUsers(uint256)":"a652c53f","getAdvancedUsers()":"10bce099","getAllUsersLength()":"b00b968b","getBasicUsers()":"07b7e83e","getEliteUsers()":"57cc2537","getSubscribeInfo()":"14b4ee3b","getUsersPage(uint8,uint256,uint256)":"209630a8","initialize(address)":"c4d66de8","owner()":"8da5cb5b","proxiableUUID()":"52d1902d","recipient()":"66d003ac","renounceOwnership()":"715018a6","setLevelsLimit(uint256,uint256,uint256)":"a9625dfe","setRecipient(address)":"3bbed4a0","subscribe(uint256)":"0f574ba7","transferOwnership(address)":"f2fde38b","upgradeToAndCall(address,bytes)":"4f1ef286","userInfo(address)":"1959a002"},"id":31}