{"abi":[{"type":"constructor","inputs":[{"name":"_initialRecipient","type":"address","internalType":"address"},{"name":"_sellFee","type":"address","internalType":"address"}],"stateMutability":"nonpayable"},{"type":"function","name":"SELL_RATE","inputs":[],"outputs":[{"name":"","type":"uint256","internalType":"uint256"}],"stateMutability":"view"},{"type":"function","name":"USDT","inputs":[],"outputs":[{"name":"","type":"address","internalType":"address"}],"stateMutability":"view"},{"type":"function","name":"allowance","inputs":[{"name":"owner","type":"address","internalType":"address"},{"name":"spender","type":"address","internalType":"address"}],"outputs":[{"name":"","type":"uint256","internalType":"uint256"}],"stateMutability":"view"},{"type":"function","name":"allowlist","inputs":[{"name":"","type":"address","internalType":"address"}],"outputs":[{"name":"","type":"bool","internalType":"bool"}],"stateMutability":"view"},{"type":"function","name":"approve","inputs":[{"name":"spender","type":"address","internalType":"address"},{"name":"value","type":"uint256","internalType":"uint256"}],"outputs":[{"name":"","type":"bool","internalType":"bool"}],"stateMutability":"nonpayable"},{"type":"function","name":"balanceOf","inputs":[{"name":"account","type":"address","internalType":"address"}],"outputs":[{"name":"","type":"uint256","internalType":"uint256"}],"stateMutability":"view"},{"type":"function","name":"decimals","inputs":[],"outputs":[{"name":"","type":"uint8","internalType":"uint8"}],"stateMutability":"view"},{"type":"function","name":"name","inputs":[],"outputs":[{"name":"","type":"string","internalType":"string"}],"stateMutability":"view"},{"type":"function","name":"owner","inputs":[],"outputs":[{"name":"","type":"address","internalType":"address"}],"stateMutability":"view"},{"type":"function","name":"pancakePair","inputs":[],"outputs":[{"name":"","type":"address","internalType":"address"}],"stateMutability":"view"},{"type":"function","name":"pancakeRouter","inputs":[],"outputs":[{"name":"","type":"address","internalType":"contract IPancakeRouter02"}],"stateMutability":"view"},{"type":"function","name":"renounceOwnership","inputs":[],"outputs":[],"stateMutability":"nonpayable"},{"type":"function","name":"sellFee","inputs":[],"outputs":[{"name":"","type":"address","internalType":"address"}],"stateMutability":"view"},{"type":"function","name":"setAddrs","inputs":[{"name":"_sellFee","type":"address","internalType":"address"}],"outputs":[],"stateMutability":"nonpayable"},{"type":"function","name":"setAllowlist","inputs":[{"name":"addr","type":"address","internalType":"address"},{"name":"isAllow","type":"bool","internalType":"bool"}],"outputs":[],"stateMutability":"nonpayable"},{"type":"function","name":"symbol","inputs":[],"outputs":[{"name":"","type":"string","internalType":"string"}],"stateMutability":"view"},{"type":"function","name":"totalSupply","inputs":[],"outputs":[{"name":"","type":"uint256","internalType":"uint256"}],"stateMutability":"view"},{"type":"function","name":"transfer","inputs":[{"name":"to","type":"address","internalType":"address"},{"name":"value","type":"uint256","internalType":"uint256"}],"outputs":[{"name":"","type":"bool","internalType":"bool"}],"stateMutability":"nonpayable"},{"type":"function","name":"transferFrom","inputs":[{"name":"from","type":"address","internalType":"address"},{"name":"to","type":"address","internalType":"address"},{"name":"value","type":"uint256","internalType":"uint256"}],"outputs":[{"name":"","type":"bool","internalType":"bool"}],"stateMutability":"nonpayable"},{"type":"function","name":"transferOwnership","inputs":[{"name":"newOwner","type":"address","internalType":"address"}],"outputs":[],"stateMutability":"nonpayable"},{"type":"event","name":"Approval","inputs":[{"name":"owner","type":"address","indexed":true,"internalType":"address"},{"name":"spender","type":"address","indexed":true,"internalType":"address"},{"name":"value","type":"uint256","indexed":false,"internalType":"uint256"}],"anonymous":false},{"type":"event","name":"Buyback","inputs":[{"name":"buyer","type":"address","indexed":false,"internalType":"address"},{"name":"usdtSpent","type":"uint256","indexed":false,"internalType":"uint256"}],"anonymous":false},{"type":"event","name":"OwnershipTransferred","inputs":[{"name":"previousOwner","type":"address","indexed":true,"internalType":"address"},{"name":"newOwner","type":"address","indexed":true,"internalType":"address"}],"anonymous":false},{"type":"event","name":"SellFee","inputs":[{"name":"from","type":"address","indexed":false,"internalType":"address"},{"name":"amount","type":"uint256","indexed":false,"internalType":"uint256"},{"name":"fee","type":"uint256","indexed":false,"internalType":"uint256"}],"anonymous":false},{"type":"event","name":"SetAllowlist","inputs":[{"name":"user","type":"address","indexed":true,"internalType":"address"},{"name":"allow","type":"bool","indexed":false,"internalType":"bool"}],"anonymous":false},{"type":"event","name":"SwapAndSendTax","inputs":[{"name":"recipient","type":"address","indexed":false,"internalType":"address"},{"name":"tokensSwapped","type":"uint256","indexed":false,"internalType":"uint256"}],"anonymous":false},{"type":"event","name":"Transfer","inputs":[{"name":"from","type":"address","indexed":true,"internalType":"address"},{"name":"to","type":"address","indexed":true,"internalType":"address"},{"name":"value","type":"uint256","indexed":false,"internalType":"uint256"}],"anonymous":false},{"type":"error","name":"ERC20InsufficientAllowance","inputs":[{"name":"spender","type":"address","internalType":"address"},{"name":"allowance","type":"uint256","internalType":"uint256"},{"name":"needed","type":"uint256","internalType":"uint256"}]},{"type":"error","name":"ERC20InsufficientBalance","inputs":[{"name":"sender","type":"address","internalType":"address"},{"name":"balance","type":"uint256","internalType":"uint256"},{"name":"needed","type":"uint256","internalType":"uint256"}]},{"type":"error","name":"ERC20InvalidApprover","inputs":[{"name":"approver","type":"address","internalType":"address"}]},{"type":"error","name":"ERC20InvalidReceiver","inputs":[{"name":"receiver","type":"address","internalType":"address"}]},{"type":"error","name":"ERC20InvalidSender","inputs":[{"name":"sender","type":"address","internalType":"address"}]},{"type":"error","name":"ERC20InvalidSpender","inputs":[{"name":"spender","type":"address","internalType":"address"}]},{"type":"error","name":"OwnableInvalidOwner","inputs":[{"name":"owner","type":"address","internalType":"address"}]},{"type":"error","name":"OwnableUnauthorizedAccount","inputs":[{"name":"account","type":"address","internalType":"address"}]}],"bytecode":{"object":"0x6080604052600680546001600160a01b0319167310ed43c718714eb63d5aa57b78b54704e256024e179055348015610035575f5ffd5b506040516118bd3803806118bd8339810160408190526100549161081c565b6040805180820182526003808252620534b560ec1b6020808401829052845180860190955282855284015233929061008c83826108dd565b50600461009982826108dd565b5050506001600160a01b0381166100ca57604051631e4fbdf760e01b81525f60048201526024015b60405180910390fd5b6100d381610244565b506100e9826a01bcb13a657b2638800000610295565b600880546001600160a01b0319166001600160a01b03838116919091179091556006546040805163c45a015560e01b81529051919092169163c45a01559160048083019260209291908290030181865afa158015610149573d5f5f3e3d5ffd5b505050506040513d601f19601f8201168201806040525081019061016d9190610997565b6040516364e329cb60e11b81523060048201527355d398326f99059ff775485246999027b319795560248201526001600160a01b03919091169063c9c65396906044016020604051808303815f875af11580156101cc573d5f5f3e3d5ffd5b505050506040513d601f19601f820116820180604052508101906101f09190610997565b600780546001600160a01b0319166001600160a01b039283161790559182165f90815260096020526040808220805460ff199081166001908117909255939094168252902080549091169091179055610ab1565b600580546001600160a01b038381166001600160a01b0319831681179093556040519116919082907f8be0079c531659141344cd1fd0a4f28419497f9722a3daafe3b4186f6b6457e0905f90a35050565b6001600160a01b0382166102be5760405163ec442f0560e01b81525f60048201526024016100c1565b6102c95f83836102cd565b5050565b600854600160a01b900460ff16156102ef576102ea83838361047f565b505050565b6001600160a01b038316158061030c57506001600160a01b038216155b1561031c576102ea83838361047f565b6001600160a01b0383165f9081526009602052604090205460ff168061035957506001600160a01b0382165f9081526009602052604090205460ff165b15610369576102ea83838361047f565b6007546001600160a01b0390811684821681149184161481156103c05760405162461bcd60e51b815260206004820152600f60248201526e10955657d393d517d0531313d5d151608a1b60448201526064016100c1565b801561046d575f60646103d46005866109cb565b6103de91906109e8565b90506103eb86308361047f565b6008546104029082906001600160a01b03166105a5565b5f61040d8286610a07565b905061041a87878361047f565b604080516001600160a01b0389168152602081018790529081018390527f0edcb2d0eda5bf0f46ac6de66f9e91dd449e0a30cffbfdbca261e9234cf846cf9060600160405180910390a150505050505050565b61047885858561047f565b5050505050565b6001600160a01b0383166104a9578060025f82825461049e9190610a1a565b909155506105199050565b6001600160a01b0383165f90815260208190526040902054818110156104fb5760405163391434e360e21b81526001600160a01b038516600482015260248101829052604481018390526064016100c1565b6001600160a01b0384165f9081526020819052604090209082900390555b6001600160a01b03821661053557600280548290039055610553565b6001600160a01b0382165f9081526020819052604090208054820190555b816001600160a01b0316836001600160a01b03167fddf252ad1be2c89b69c2b068fc378daa952ba7f163c4a11628f55a4df523b3ef8360405161059891815260200190565b60405180910390a3505050565b815f036105b0575050565b6008805460ff60a01b1916600160a01b1790556040805160028082526060820183525f9260208301908036833701905050905030815f815181106105f6576105f6610a2d565b60200260200101906001600160a01b031690816001600160a01b0316815250507355d398326f99059ff775485246999027b31979558160018151811061063e5761063e610a2d565b6001600160a01b0392831660209182029290920101526006546106649130911685610726565b6006546001600160a01b0316635c11d795845f848661068442601e610a1a565b6040518663ffffffff1660e01b81526004016106a4959493929190610a41565b5f604051808303815f87803b1580156106bb575f5ffd5b505af19250505080156106cc575060015b1561071457604080516001600160a01b0384168152602081018590527faedb4dc54dc30d46d331ffcc44cd836607bea96c12e1b21a95210ed899184d04910160405180910390a15b50506008805460ff60a01b1916905550565b6102ea83838360016001600160a01b0384166107575760405163e602df0560e01b81525f60048201526024016100c1565b6001600160a01b03831661078057604051634a1406b160e11b81525f60048201526024016100c1565b6001600160a01b038085165f90815260016020908152604080832093871683529290522082905580156107fb57826001600160a01b0316846001600160a01b03167f8c5be1e5ebec7d5bd14f71427d1e84f3dd0314c0f7b2291e5b200ac8c7c3b925846040516107f291815260200190565b60405180910390a35b50505050565b80516001600160a01b0381168114610817575f5ffd5b919050565b5f5f6040838503121561082d575f5ffd5b61083683610801565b915061084460208401610801565b90509250929050565b634e487b7160e01b5f52604160045260245ffd5b600181811c9082168061087557607f821691505b60208210810361089357634e487b7160e01b5f52602260045260245ffd5b50919050565b601f8211156102ea57805f5260205f20601f840160051c810160208510156108be5750805b601f840160051c820191505b81811015610478575f81556001016108ca565b81516001600160401b038111156108f6576108f661084d565b61090a816109048454610861565b84610899565b6020601f82116001811461093c575f83156109255750848201515b5f19600385901b1c1916600184901b178455610478565b5f84815260208120601f198516915b8281101561096b578785015182556020948501946001909201910161094b565b508482101561098857868401515f19600387901b60f8161c191681555b50505050600190811b01905550565b5f602082840312156109a7575f5ffd5b6109b082610801565b9392505050565b634e487b7160e01b5f52601160045260245ffd5b80820281158282048414176109e2576109e26109b7565b92915050565b5f82610a0257634e487b7160e01b5f52601260045260245ffd5b500490565b818103818111156109e2576109e26109b7565b808201808211156109e2576109e26109b7565b634e487b7160e01b5f52603260045260245ffd5b5f60a0820187835286602084015260a0604084015280865180835260c0850191506020880192505f5b81811015610a915783516001600160a01b0316835260209384019390920191600101610a6a565b50506001600160a01b039590951660608401525050608001529392505050565b610dff80610abe5f395ff3fe608060405234801561000f575f5ffd5b5060043610610127575f3560e01c8063a7cd52cb116100a9578063c21ebd071161006e578063c21ebd0714610284578063c54e44eb14610297578063dd62ed3e146102b2578063f21c4da4146102ea578063f2fde38b146102f2575f5ffd5b8063a7cd52cb14610216578063a9059cbb14610238578063b0d179a51461024b578063b12527f81461025e578063b8c9d25c14610271575f5ffd5b8063313ce567116100ef578063313ce567146101bc57806370a08231146101cb578063715018a6146101f35780638da5cb5b146101fd57806395d89b411461020e575f5ffd5b806306fdde031461012b578063095ea7b31461014957806318160ddd1461016c57806323b872dd1461017e5780632b14ca5614610191575b5f5ffd5b610133610305565b6040516101409190610b61565b60405180910390f35b61015c610157366004610bb1565b610395565b6040519015158152602001610140565b6002545b604051908152602001610140565b61015c61018c366004610bd9565b6103ae565b6008546101a4906001600160a01b031681565b6040516001600160a01b039091168152602001610140565b60405160128152602001610140565b6101706101d9366004610c13565b6001600160a01b03165f9081526020819052604090205490565b6101fb6103d1565b005b6005546001600160a01b03166101a4565b6101336103e4565b61015c610224366004610c13565b60096020525f908152604090205460ff1681565b61015c610246366004610bb1565b6103f3565b6101fb610259366004610c13565b610400565b6101fb61026c366004610c33565b61042a565b6007546101a4906001600160a01b031681565b6006546101a4906001600160a01b031681565b6101a47355d398326f99059ff775485246999027b319795581565b6101706102c0366004610c6c565b6001600160a01b039182165f90815260016020908152604080832093909416825291909152205490565b610170600581565b6101fb610300366004610c13565b610490565b60606003805461031490610c9d565b80601f016020809104026020016040519081016040528092919081815260200182805461034090610c9d565b801561038b5780601f106103625761010080835404028352916020019161038b565b820191905f5260205f20905b81548152906001019060200180831161036e57829003601f168201915b5050505050905090565b5f336103a28185856104d2565b60019150505b92915050565b5f336103bb8582856104e4565b6103c6858585610560565b506001949350505050565b6103d96105bd565b6103e25f6105ea565b565b60606004805461031490610c9d565b5f336103a2818585610560565b6104086105bd565b600880546001600160a01b0319166001600160a01b0392909216919091179055565b6104326105bd565b6001600160a01b0382165f81815260096020908152604091829020805460ff191685151590811790915591519182527f0461ee29b36d562ad5227f9b55e9acbc21e2be7f6d7342d2a1444252945db543910160405180910390a25050565b6104986105bd565b6001600160a01b0381166104c657604051631e4fbdf760e01b81525f60048201526024015b60405180910390fd5b6104cf816105ea565b50565b6104df838383600161063b565b505050565b6001600160a01b038381165f908152600160209081526040808320938616835292905220545f1981101561055a578181101561054c57604051637dc7a0d960e11b81526001600160a01b038416600482015260248101829052604481018390526064016104bd565b61055a84848484035f61063b565b50505050565b6001600160a01b03831661058957604051634b637e8f60e11b81525f60048201526024016104bd565b6001600160a01b0382166105b25760405163ec442f0560e01b81525f60048201526024016104bd565b6104df83838361070d565b6005546001600160a01b031633146103e25760405163118cdaa760e01b81523360048201526024016104bd565b600580546001600160a01b038381166001600160a01b0319831681179093556040519116919082907f8be0079c531659141344cd1fd0a4f28419497f9722a3daafe3b4186f6b6457e0905f90a35050565b6001600160a01b0384166106645760405163e602df0560e01b81525f60048201526024016104bd565b6001600160a01b03831661068d57604051634a1406b160e11b81525f60048201526024016104bd565b6001600160a01b038085165f908152600160209081526040808320938716835292905220829055801561055a57826001600160a01b0316846001600160a01b03167f8c5be1e5ebec7d5bd14f71427d1e84f3dd0314c0f7b2291e5b200ac8c7c3b925846040516106ff91815260200190565b60405180910390a350505050565b600854600160a01b900460ff161561072a576104df8383836108ba565b6001600160a01b038316158061074757506001600160a01b038216155b15610757576104df8383836108ba565b6001600160a01b0383165f9081526009602052604090205460ff168061079457506001600160a01b0382165f9081526009602052604090205460ff165b156107a4576104df8383836108ba565b6007546001600160a01b0390811684821681149184161481156107fb5760405162461bcd60e51b815260206004820152600f60248201526e10955657d393d517d0531313d5d151608a1b60448201526064016104bd565b80156108a8575f606461080f600586610ce9565b6108199190610d00565b90506108268630836108ba565b60085461083d9082906001600160a01b03166109e0565b5f6108488286610d1f565b90506108558787836108ba565b604080516001600160a01b0389168152602081018790529081018390527f0edcb2d0eda5bf0f46ac6de66f9e91dd449e0a30cffbfdbca261e9234cf846cf9060600160405180910390a150505050505050565b6108b38585856108ba565b5050505050565b6001600160a01b0383166108e4578060025f8282546108d99190610d32565b909155506109549050565b6001600160a01b0383165f90815260208190526040902054818110156109365760405163391434e360e21b81526001600160a01b038516600482015260248101829052604481018390526064016104bd565b6001600160a01b0384165f9081526020819052604090209082900390555b6001600160a01b0382166109705760028054829003905561098e565b6001600160a01b0382165f9081526020819052604090208054820190555b816001600160a01b0316836001600160a01b03167fddf252ad1be2c89b69c2b068fc378daa952ba7f163c4a11628f55a4df523b3ef836040516109d391815260200190565b60405180910390a3505050565b815f036109eb575050565b6008805460ff60a01b1916600160a01b1790556040805160028082526060820183525f9260208301908036833701905050905030815f81518110610a3157610a31610d45565b60200260200101906001600160a01b031690816001600160a01b0316815250507355d398326f99059ff775485246999027b319795581600181518110610a7957610a79610d45565b6001600160a01b039283166020918202929092010152600654610a9f91309116856104d2565b6006546001600160a01b0316635c11d795845f8486610abf42601e610d32565b6040518663ffffffff1660e01b8152600401610adf959493929190610d59565b5f604051808303815f87803b158015610af6575f5ffd5b505af1925050508015610b07575060015b15610b4f57604080516001600160a01b0384168152602081018590527faedb4dc54dc30d46d331ffcc44cd836607bea96c12e1b21a95210ed899184d04910160405180910390a15b50506008805460ff60a01b1916905550565b602081525f82518060208401528060208501604085015e5f604082850101526040601f19601f83011684010191505092915050565b80356001600160a01b0381168114610bac575f5ffd5b919050565b5f5f60408385031215610bc2575f5ffd5b610bcb83610b96565b946020939093013593505050565b5f5f5f60608486031215610beb575f5ffd5b610bf484610b96565b9250610c0260208501610b96565b929592945050506040919091013590565b5f60208284031215610c23575f5ffd5b610c2c82610b96565b9392505050565b5f5f60408385031215610c44575f5ffd5b610c4d83610b96565b915060208301358015158114610c61575f5ffd5b809150509250929050565b5f5f60408385031215610c7d575f5ffd5b610c8683610b96565b9150610c9460208401610b96565b90509250929050565b600181811c90821680610cb157607f821691505b602082108103610ccf57634e487b7160e01b5f52602260045260245ffd5b50919050565b634e487b7160e01b5f52601160045260245ffd5b80820281158282048414176103a8576103a8610cd5565b5f82610d1a57634e487b7160e01b5f52601260045260245ffd5b500490565b818103818111156103a8576103a8610cd5565b808201808211156103a8576103a8610cd5565b634e487b7160e01b5f52603260045260245ffd5b5f60a0820187835286602084015260a0604084015280865180835260c0850191506020880192505f5b81811015610da95783516001600160a01b0316835260209384019390920191600101610d82565b50506001600160a01b03959095166060840152505060800152939250505056fea26469706673582212202eaf465726375373342334714c6116e403acad567da2b82d554a93dc48ec72cc64736f6c634300081e0033","linkReferences":{}},"methodIdentifiers":{"SELL_RATE()":"f21c4da4","USDT()":"c54e44eb","allowance(address,address)":"dd62ed3e","allowlist(address)":"a7cd52cb","approve(address,uint256)":"095ea7b3","balanceOf(address)":"70a08231","decimals()":"313ce567","name()":"06fdde03","owner()":"8da5cb5b","pancakePair()":"b8c9d25c","pancakeRouter()":"c21ebd07","renounceOwnership()":"715018a6","sellFee()":"2b14ca56","setAddrs(address)":"b0d179a5","setAllowlist(address,bool)":"b12527f8","symbol()":"95d89b41","totalSupply()":"18160ddd","transfer(address,uint256)":"a9059cbb","transferFrom(address,address,uint256)":"23b872dd","transferOwnership(address)":"f2fde38b"},"id":39}