{"abi":[{"type":"constructor","inputs":[{"name":"_initialRecipient","type":"address","internalType":"address"},{"name":"_sellFee","type":"address","internalType":"address"}],"stateMutability":"nonpayable"},{"type":"function","name":"OPEN_ADDR","inputs":[],"outputs":[{"name":"","type":"address","internalType":"address"}],"stateMutability":"view"},{"type":"function","name":"SELL_RATE","inputs":[],"outputs":[{"name":"","type":"uint256","internalType":"uint256"}],"stateMutability":"view"},{"type":"function","name":"USDT","inputs":[],"outputs":[{"name":"","type":"address","internalType":"address"}],"stateMutability":"view"},{"type":"function","name":"allowance","inputs":[{"name":"owner","type":"address","internalType":"address"},{"name":"spender","type":"address","internalType":"address"}],"outputs":[{"name":"","type":"uint256","internalType":"uint256"}],"stateMutability":"view"},{"type":"function","name":"allowlist","inputs":[{"name":"","type":"address","internalType":"address"}],"outputs":[{"name":"","type":"bool","internalType":"bool"}],"stateMutability":"view"},{"type":"function","name":"approve","inputs":[{"name":"spender","type":"address","internalType":"address"},{"name":"value","type":"uint256","internalType":"uint256"}],"outputs":[{"name":"","type":"bool","internalType":"bool"}],"stateMutability":"nonpayable"},{"type":"function","name":"balanceOf","inputs":[{"name":"account","type":"address","internalType":"address"}],"outputs":[{"name":"","type":"uint256","internalType":"uint256"}],"stateMutability":"view"},{"type":"function","name":"decimals","inputs":[],"outputs":[{"name":"","type":"uint8","internalType":"uint8"}],"stateMutability":"view"},{"type":"function","name":"name","inputs":[],"outputs":[{"name":"","type":"string","internalType":"string"}],"stateMutability":"view"},{"type":"function","name":"owner","inputs":[],"outputs":[{"name":"","type":"address","internalType":"address"}],"stateMutability":"view"},{"type":"function","name":"pancakePair","inputs":[],"outputs":[{"name":"","type":"address","internalType":"address"}],"stateMutability":"view"},{"type":"function","name":"pancakeRouter","inputs":[],"outputs":[{"name":"","type":"address","internalType":"contract IPancakeRouter02"}],"stateMutability":"view"},{"type":"function","name":"renounceOwnership","inputs":[],"outputs":[],"stateMutability":"nonpayable"},{"type":"function","name":"sellFee","inputs":[],"outputs":[{"name":"","type":"address","internalType":"address"}],"stateMutability":"view"},{"type":"function","name":"setAddrs","inputs":[{"name":"_sellFee","type":"address","internalType":"address"}],"outputs":[],"stateMutability":"nonpayable"},{"type":"function","name":"setAllowlist","inputs":[{"name":"addr","type":"address","internalType":"address"},{"name":"isAllow","type":"bool","internalType":"bool"}],"outputs":[],"stateMutability":"nonpayable"},{"type":"function","name":"symbol","inputs":[],"outputs":[{"name":"","type":"string","internalType":"string"}],"stateMutability":"view"},{"type":"function","name":"totalSupply","inputs":[],"outputs":[{"name":"","type":"uint256","internalType":"uint256"}],"stateMutability":"view"},{"type":"function","name":"tradingOpen","inputs":[],"outputs":[{"name":"","type":"bool","internalType":"bool"}],"stateMutability":"view"},{"type":"function","name":"transfer","inputs":[{"name":"to","type":"address","internalType":"address"},{"name":"value","type":"uint256","internalType":"uint256"}],"outputs":[{"name":"","type":"bool","internalType":"bool"}],"stateMutability":"nonpayable"},{"type":"function","name":"transferFrom","inputs":[{"name":"from","type":"address","internalType":"address"},{"name":"to","type":"address","internalType":"address"},{"name":"value","type":"uint256","internalType":"uint256"}],"outputs":[{"name":"","type":"bool","internalType":"bool"}],"stateMutability":"nonpayable"},{"type":"function","name":"transferOwnership","inputs":[{"name":"newOwner","type":"address","internalType":"address"}],"outputs":[],"stateMutability":"nonpayable"},{"type":"event","name":"Approval","inputs":[{"name":"owner","type":"address","indexed":true,"internalType":"address"},{"name":"spender","type":"address","indexed":true,"internalType":"address"},{"name":"value","type":"uint256","indexed":false,"internalType":"uint256"}],"anonymous":false},{"type":"event","name":"Buyback","inputs":[{"name":"buyer","type":"address","indexed":false,"internalType":"address"},{"name":"usdtSpent","type":"uint256","indexed":false,"internalType":"uint256"}],"anonymous":false},{"type":"event","name":"OwnershipTransferred","inputs":[{"name":"previousOwner","type":"address","indexed":true,"internalType":"address"},{"name":"newOwner","type":"address","indexed":true,"internalType":"address"}],"anonymous":false},{"type":"event","name":"SellFee","inputs":[{"name":"from","type":"address","indexed":false,"internalType":"address"},{"name":"amount","type":"uint256","indexed":false,"internalType":"uint256"},{"name":"fee","type":"uint256","indexed":false,"internalType":"uint256"}],"anonymous":false},{"type":"event","name":"SetAllowlist","inputs":[{"name":"user","type":"address","indexed":true,"internalType":"address"},{"name":"allow","type":"bool","indexed":false,"internalType":"bool"}],"anonymous":false},{"type":"event","name":"SwapAndSendTax","inputs":[{"name":"recipient","type":"address","indexed":false,"internalType":"address"},{"name":"tokensSwapped","type":"uint256","indexed":false,"internalType":"uint256"}],"anonymous":false},{"type":"event","name":"TradingOpened","inputs":[],"anonymous":false},{"type":"event","name":"Transfer","inputs":[{"name":"from","type":"address","indexed":true,"internalType":"address"},{"name":"to","type":"address","indexed":true,"internalType":"address"},{"name":"value","type":"uint256","indexed":false,"internalType":"uint256"}],"anonymous":false},{"type":"error","name":"ERC20InsufficientAllowance","inputs":[{"name":"spender","type":"address","internalType":"address"},{"name":"allowance","type":"uint256","internalType":"uint256"},{"name":"needed","type":"uint256","internalType":"uint256"}]},{"type":"error","name":"ERC20InsufficientBalance","inputs":[{"name":"sender","type":"address","internalType":"address"},{"name":"balance","type":"uint256","internalType":"uint256"},{"name":"needed","type":"uint256","internalType":"uint256"}]},{"type":"error","name":"ERC20InvalidApprover","inputs":[{"name":"approver","type":"address","internalType":"address"}]},{"type":"error","name":"ERC20InvalidReceiver","inputs":[{"name":"receiver","type":"address","internalType":"address"}]},{"type":"error","name":"ERC20InvalidSender","inputs":[{"name":"sender","type":"address","internalType":"address"}]},{"type":"error","name":"ERC20InvalidSpender","inputs":[{"name":"spender","type":"address","internalType":"address"}]},{"type":"error","name":"OwnableInvalidOwner","inputs":[{"name":"owner","type":"address","internalType":"address"}]},{"type":"error","name":"OwnableUnauthorizedAccount","inputs":[{"name":"account","type":"address","internalType":"address"}]}],"bytecode":{"object":"0x6080604052600680546001600160a01b0319167310ed43c718714eb63d5aa57b78b54704e256024e1790556008805460ff60a01b19169055348015610042575f5ffd5b50604051611b3d380380611b3d83398101604081905261006191610960565b6040805180820182526003808252620534b560ec1b602080840182905284518086019095528285528401523392906100998382610a21565b5060046100a68282610a21565b5050506001600160a01b0381166100d757604051631e4fbdf760e01b81525f60048201526024015b60405180910390fd5b6100e081610291565b506100f6826a01bcb13a657b26388000006102e2565b600880546001600160a01b0319166001600160a01b03838116919091179091556006546040805163c45a015560e01b81529051919092169163c45a01559160048083019260209291908290030181865afa158015610156573d5f5f3e3d5ffd5b505050506040513d601f19601f8201168201806040525081019061017a9190610adb565b6040516364e329cb60e11b81523060048201527355d398326f99059ff775485246999027b319795560248201526001600160a01b03919091169063c9c65396906044016020604051808303815f875af11580156101d9573d5f5f3e3d5ffd5b505050506040513d601f19601f820116820180604052508101906101fd9190610adb565b600780546001600160a01b0319166001600160a01b039283161790559182165f90815260096020526040808220805460ff1990811660019081179092559390941682528120805483168417905573717cc0e17a361c6fe16db3238255cda2d79f5a1a90527f83f82f10d1c60e44cd134e3b8ea3d44bb2a8b99f2f7ddcbdc9b723e86ac116fa80549091169091179055610bf5565b600580546001600160a01b038381166001600160a01b0319831681179093556040519116919082907f8be0079c531659141344cd1fd0a4f28419497f9722a3daafe3b4186f6b6457e0905f90a35050565b6001600160a01b03821661030b5760405163ec442f0560e01b81525f60048201526024016100ce565b6103165f838361031a565b5050565b600854600160a81b900460ff161561033c576103378383836105c3565b505050565b6001600160a01b038316158061035957506001600160a01b038216155b15610369576103378383836105c3565b6001600160a01b0383165f9081526009602052604090205460ff16806103a657506001600160a01b0382165f9081526009602052604090205460ff165b1561045357600854600160a01b900460ff1615801561040757506001600160a01b03831673717cc0e17a361c6fe16db3238255cda2d79f5a1a148061040757506001600160a01b03821673717cc0e17a361c6fe16db3238255cda2d79f5a1a145b15610448576008805460ff60a01b1916600160a01b1790556040517fea4359d5c4b8f0945a64ab9c37fe830b3407d45e0e6e6f84275977a570457d6f905f90a15b6103378383836105c3565b6007546008546001600160a01b0391821685831681149285161490600160a01b900460ff166104d95781158015610488575080155b6104c75760405162461bcd60e51b815260206004820152601060248201526f2a3930b234b733903737ba1037b832b760811b60448201526064016100ce565b6104d28585856105c3565b5050505050565b81156105165760405162461bcd60e51b815260206004820152600c60248201526b109d5e48191a5cd8589b195960a21b60448201526064016100ce565b80156104c7575f606461052a600586610b0f565b6105349190610b2c565b90506105418630836105c3565b6008546105589082906001600160a01b03166106e9565b5f6105638286610b4b565b90506105708787836105c3565b604080516001600160a01b0389168152602081018790529081018390527f0edcb2d0eda5bf0f46ac6de66f9e91dd449e0a30cffbfdbca261e9234cf846cf9060600160405180910390a150505050505050565b6001600160a01b0383166105ed578060025f8282546105e29190610b5e565b9091555061065d9050565b6001600160a01b0383165f908152602081905260409020548181101561063f5760405163391434e360e21b81526001600160a01b038516600482015260248101829052604481018390526064016100ce565b6001600160a01b0384165f9081526020819052604090209082900390555b6001600160a01b03821661067957600280548290039055610697565b6001600160a01b0382165f9081526020819052604090208054820190555b816001600160a01b0316836001600160a01b03167fddf252ad1be2c89b69c2b068fc378daa952ba7f163c4a11628f55a4df523b3ef836040516106dc91815260200190565b60405180910390a3505050565b815f036106f4575050565b6008805460ff60a81b1916600160a81b1790556040805160028082526060820183525f9260208301908036833701905050905030815f8151811061073a5761073a610b71565b60200260200101906001600160a01b031690816001600160a01b0316815250507355d398326f99059ff775485246999027b31979558160018151811061078257610782610b71565b6001600160a01b0392831660209182029290920101526006546107a8913091168561086a565b6006546001600160a01b0316635c11d795845f84866107c842601e610b5e565b6040518663ffffffff1660e01b81526004016107e8959493929190610b85565b5f604051808303815f87803b1580156107ff575f5ffd5b505af1925050508015610810575060015b1561085857604080516001600160a01b0384168152602081018590527faedb4dc54dc30d46d331ffcc44cd836607bea96c12e1b21a95210ed899184d04910160405180910390a15b50506008805460ff60a81b1916905550565b61033783838360016001600160a01b03841661089b5760405163e602df0560e01b81525f60048201526024016100ce565b6001600160a01b0383166108c457604051634a1406b160e11b81525f60048201526024016100ce565b6001600160a01b038085165f908152600160209081526040808320938716835292905220829055801561093f57826001600160a01b0316846001600160a01b03167f8c5be1e5ebec7d5bd14f71427d1e84f3dd0314c0f7b2291e5b200ac8c7c3b9258460405161093691815260200190565b60405180910390a35b50505050565b80516001600160a01b038116811461095b575f5ffd5b919050565b5f5f60408385031215610971575f5ffd5b61097a83610945565b915061098860208401610945565b90509250929050565b634e487b7160e01b5f52604160045260245ffd5b600181811c908216806109b957607f821691505b6020821081036109d757634e487b7160e01b5f52602260045260245ffd5b50919050565b601f82111561033757805f5260205f20601f840160051c81016020851015610a025750805b601f840160051c820191505b818110156104d2575f8155600101610a0e565b81516001600160401b03811115610a3a57610a3a610991565b610a4e81610a4884546109a5565b846109dd565b6020601f821160018114610a80575f8315610a695750848201515b5f19600385901b1c1916600184901b1784556104d2565b5f84815260208120601f198516915b82811015610aaf5787850151825560209485019460019092019101610a8f565b5084821015610acc57868401515f19600387901b60f8161c191681555b50505050600190811b01905550565b5f60208284031215610aeb575f5ffd5b610af482610945565b9392505050565b634e487b7160e01b5f52601160045260245ffd5b8082028115828204841417610b2657610b26610afb565b92915050565b5f82610b4657634e487b7160e01b5f52601260045260245ffd5b500490565b81810381811115610b2657610b26610afb565b80820180821115610b2657610b26610afb565b634e487b7160e01b5f52603260045260245ffd5b5f60a0820187835286602084015260a0604084015280865180835260c0850191506020880192505f5b81811015610bd55783516001600160a01b0316835260209384019390920191600101610bae565b50506001600160a01b039590951660608401525050608001529392505050565b610f3b80610c025f395ff3fe608060405234801561000f575f5ffd5b506004361061013d575f3560e01c8063a7cd52cb116100b4578063c21ebd0711610079578063c21ebd07146102b5578063c54e44eb146102c8578063dd62ed3e146102e3578063f21c4da41461031b578063f2fde38b14610323578063ffb54a9914610336575f5ffd5b8063a7cd52cb14610247578063a9059cbb14610269578063b0d179a51461027c578063b12527f81461028f578063b8c9d25c146102a2575f5ffd5b8063313ce56711610105578063313ce567146101d25780634bc01e1b146101e157806370a08231146101fc578063715018a6146102245780638da5cb5b1461022e57806395d89b411461023f575f5ffd5b806306fdde0314610141578063095ea7b31461015f57806318160ddd1461018257806323b872dd146101945780632b14ca56146101a7575b5f5ffd5b61014961034a565b6040516101569190610c9d565b60405180910390f35b61017261016d366004610ced565b6103da565b6040519015158152602001610156565b6002545b604051908152602001610156565b6101726101a2366004610d15565b6103f3565b6008546101ba906001600160a01b031681565b6040516001600160a01b039091168152602001610156565b60405160128152602001610156565b6101ba73717cc0e17a361c6fe16db3238255cda2d79f5a1a81565b61018661020a366004610d4f565b6001600160a01b03165f9081526020819052604090205490565b61022c610416565b005b6005546001600160a01b03166101ba565b610149610429565b610172610255366004610d4f565b60096020525f908152604090205460ff1681565b610172610277366004610ced565b610438565b61022c61028a366004610d4f565b610445565b61022c61029d366004610d6f565b61046f565b6007546101ba906001600160a01b031681565b6006546101ba906001600160a01b031681565b6101ba7355d398326f99059ff775485246999027b319795581565b6101866102f1366004610da8565b6001600160a01b039182165f90815260016020908152604080832093909416825291909152205490565b610186600581565b61022c610331366004610d4f565b6104d5565b60085461017290600160a01b900460ff1681565b60606003805461035990610dd9565b80601f016020809104026020016040519081016040528092919081815260200182805461038590610dd9565b80156103d05780601f106103a7576101008083540402835291602001916103d0565b820191905f5260205f20905b8154815290600101906020018083116103b357829003601f168201915b5050505050905090565b5f336103e7818585610517565b60019150505b92915050565b5f33610400858285610529565b61040b8585856105a5565b506001949350505050565b61041e610602565b6104275f61062f565b565b60606004805461035990610dd9565b5f336103e78185856105a5565b61044d610602565b600880546001600160a01b0319166001600160a01b0392909216919091179055565b610477610602565b6001600160a01b0382165f81815260096020908152604091829020805460ff191685151590811790915591519182527f0461ee29b36d562ad5227f9b55e9acbc21e2be7f6d7342d2a1444252945db543910160405180910390a25050565b6104dd610602565b6001600160a01b03811661050b57604051631e4fbdf760e01b81525f60048201526024015b60405180910390fd5b6105148161062f565b50565b6105248383836001610680565b505050565b6001600160a01b038381165f908152600160209081526040808320938616835292905220545f1981101561059f578181101561059157604051637dc7a0d960e11b81526001600160a01b03841660048201526024810182905260448101839052606401610502565b61059f84848484035f610680565b50505050565b6001600160a01b0383166105ce57604051634b637e8f60e11b81525f6004820152602401610502565b6001600160a01b0382166105f75760405163ec442f0560e01b81525f6004820152602401610502565b610524838383610752565b6005546001600160a01b031633146104275760405163118cdaa760e01b8152336004820152602401610502565b600580546001600160a01b038381166001600160a01b0319831681179093556040519116919082907f8be0079c531659141344cd1fd0a4f28419497f9722a3daafe3b4186f6b6457e0905f90a35050565b6001600160a01b0384166106a95760405163e602df0560e01b81525f6004820152602401610502565b6001600160a01b0383166106d257604051634a1406b160e11b81525f6004820152602401610502565b6001600160a01b038085165f908152600160209081526040808320938716835292905220829055801561059f57826001600160a01b0316846001600160a01b03167f8c5be1e5ebec7d5bd14f71427d1e84f3dd0314c0f7b2291e5b200ac8c7c3b9258460405161074491815260200190565b60405180910390a350505050565b600854600160a81b900460ff161561076f576105248383836109f6565b6001600160a01b038316158061078c57506001600160a01b038216155b1561079c576105248383836109f6565b6001600160a01b0383165f9081526009602052604090205460ff16806107d957506001600160a01b0382165f9081526009602052604090205460ff165b1561088657600854600160a01b900460ff1615801561083a57506001600160a01b03831673717cc0e17a361c6fe16db3238255cda2d79f5a1a148061083a57506001600160a01b03821673717cc0e17a361c6fe16db3238255cda2d79f5a1a145b1561087b576008805460ff60a01b1916600160a01b1790556040517fea4359d5c4b8f0945a64ab9c37fe830b3407d45e0e6e6f84275977a570457d6f905f90a15b6105248383836109f6565b6007546008546001600160a01b0391821685831681149285161490600160a01b900460ff1661090c57811580156108bb575080155b6108fa5760405162461bcd60e51b815260206004820152601060248201526f2a3930b234b733903737ba1037b832b760811b6044820152606401610502565b6109058585856109f6565b5050505050565b81156109495760405162461bcd60e51b815260206004820152600c60248201526b109d5e48191a5cd8589b195960a21b6044820152606401610502565b80156108fa575f606461095d600586610e25565b6109679190610e3c565b90506109748630836109f6565b60085461098b9082906001600160a01b0316610b1c565b5f6109968286610e5b565b90506109a38787836109f6565b604080516001600160a01b0389168152602081018790529081018390527f0edcb2d0eda5bf0f46ac6de66f9e91dd449e0a30cffbfdbca261e9234cf846cf9060600160405180910390a150505050505050565b6001600160a01b038316610a20578060025f828254610a159190610e6e565b90915550610a909050565b6001600160a01b0383165f9081526020819052604090205481811015610a725760405163391434e360e21b81526001600160a01b03851660048201526024810182905260448101839052606401610502565b6001600160a01b0384165f9081526020819052604090209082900390555b6001600160a01b038216610aac57600280548290039055610aca565b6001600160a01b0382165f9081526020819052604090208054820190555b816001600160a01b0316836001600160a01b03167fddf252ad1be2c89b69c2b068fc378daa952ba7f163c4a11628f55a4df523b3ef83604051610b0f91815260200190565b60405180910390a3505050565b815f03610b27575050565b6008805460ff60a81b1916600160a81b1790556040805160028082526060820183525f9260208301908036833701905050905030815f81518110610b6d57610b6d610e81565b60200260200101906001600160a01b031690816001600160a01b0316815250507355d398326f99059ff775485246999027b319795581600181518110610bb557610bb5610e81565b6001600160a01b039283166020918202929092010152600654610bdb9130911685610517565b6006546001600160a01b0316635c11d795845f8486610bfb42601e610e6e565b6040518663ffffffff1660e01b8152600401610c1b959493929190610e95565b5f604051808303815f87803b158015610c32575f5ffd5b505af1925050508015610c43575060015b15610c8b57604080516001600160a01b0384168152602081018590527faedb4dc54dc30d46d331ffcc44cd836607bea96c12e1b21a95210ed899184d04910160405180910390a15b50506008805460ff60a81b1916905550565b602081525f82518060208401528060208501604085015e5f604082850101526040601f19601f83011684010191505092915050565b80356001600160a01b0381168114610ce8575f5ffd5b919050565b5f5f60408385031215610cfe575f5ffd5b610d0783610cd2565b946020939093013593505050565b5f5f5f60608486031215610d27575f5ffd5b610d3084610cd2565b9250610d3e60208501610cd2565b929592945050506040919091013590565b5f60208284031215610d5f575f5ffd5b610d6882610cd2565b9392505050565b5f5f60408385031215610d80575f5ffd5b610d8983610cd2565b915060208301358015158114610d9d575f5ffd5b809150509250929050565b5f5f60408385031215610db9575f5ffd5b610dc283610cd2565b9150610dd060208401610cd2565b90509250929050565b600181811c90821680610ded57607f821691505b602082108103610e0b57634e487b7160e01b5f52602260045260245ffd5b50919050565b634e487b7160e01b5f52601160045260245ffd5b80820281158282048414176103ed576103ed610e11565b5f82610e5657634e487b7160e01b5f52601260045260245ffd5b500490565b818103818111156103ed576103ed610e11565b808201808211156103ed576103ed610e11565b634e487b7160e01b5f52603260045260245ffd5b5f60a0820187835286602084015260a0604084015280865180835260c0850191506020880192505f5b81811015610ee55783516001600160a01b0316835260209384019390920191600101610ebe565b50506001600160a01b03959095166060840152505060800152939250505056fea2646970667358221220a83555d9142779e409bc640a28576ff7b25a9617f18e796cfe606525168ee13664736f6c634300081e0033","linkReferences":{}},"methodIdentifiers":{"OPEN_ADDR()":"4bc01e1b","SELL_RATE()":"f21c4da4","USDT()":"c54e44eb","allowance(address,address)":"dd62ed3e","allowlist(address)":"a7cd52cb","approve(address,uint256)":"095ea7b3","balanceOf(address)":"70a08231","decimals()":"313ce567","name()":"06fdde03","owner()":"8da5cb5b","pancakePair()":"b8c9d25c","pancakeRouter()":"c21ebd07","renounceOwnership()":"715018a6","sellFee()":"2b14ca56","setAddrs(address)":"b0d179a5","setAllowlist(address,bool)":"b12527f8","symbol()":"95d89b41","totalSupply()":"18160ddd","tradingOpen()":"ffb54a99","transfer(address,uint256)":"a9059cbb","transferFrom(address,address,uint256)":"23b872dd","transferOwnership(address)":"f2fde38b"},"id":25}