{"abi":[{"type":"constructor","inputs":[{"name":"_initialRecipient","type":"address","internalType":"address"},{"name":"_sellFee","type":"address","internalType":"address"},{"name":"_buyFee","type":"address","internalType":"address"}],"stateMutability":"nonpayable"},{"type":"function","name":"BUY_RATE","inputs":[],"outputs":[{"name":"","type":"uint256","internalType":"uint256"}],"stateMutability":"view"},{"type":"function","name":"OPEN_ADDR","inputs":[],"outputs":[{"name":"","type":"address","internalType":"address"}],"stateMutability":"view"},{"type":"function","name":"SELL_RATE","inputs":[],"outputs":[{"name":"","type":"uint256","internalType":"uint256"}],"stateMutability":"view"},{"type":"function","name":"USDT","inputs":[],"outputs":[{"name":"","type":"address","internalType":"address"}],"stateMutability":"view"},{"type":"function","name":"allowance","inputs":[{"name":"owner","type":"address","internalType":"address"},{"name":"spender","type":"address","internalType":"address"}],"outputs":[{"name":"","type":"uint256","internalType":"uint256"}],"stateMutability":"view"},{"type":"function","name":"allowlist","inputs":[{"name":"","type":"address","internalType":"address"}],"outputs":[{"name":"","type":"bool","internalType":"bool"}],"stateMutability":"view"},{"type":"function","name":"approve","inputs":[{"name":"spender","type":"address","internalType":"address"},{"name":"value","type":"uint256","internalType":"uint256"}],"outputs":[{"name":"","type":"bool","internalType":"bool"}],"stateMutability":"nonpayable"},{"type":"function","name":"balanceOf","inputs":[{"name":"account","type":"address","internalType":"address"}],"outputs":[{"name":"","type":"uint256","internalType":"uint256"}],"stateMutability":"view"},{"type":"function","name":"buyFee","inputs":[],"outputs":[{"name":"","type":"address","internalType":"address"}],"stateMutability":"view"},{"type":"function","name":"decimals","inputs":[],"outputs":[{"name":"","type":"uint8","internalType":"uint8"}],"stateMutability":"view"},{"type":"function","name":"name","inputs":[],"outputs":[{"name":"","type":"string","internalType":"string"}],"stateMutability":"view"},{"type":"function","name":"owner","inputs":[],"outputs":[{"name":"","type":"address","internalType":"address"}],"stateMutability":"view"},{"type":"function","name":"pancakePair","inputs":[],"outputs":[{"name":"","type":"address","internalType":"address"}],"stateMutability":"view"},{"type":"function","name":"pancakeRouter","inputs":[],"outputs":[{"name":"","type":"address","internalType":"contract IPancakeRouter02"}],"stateMutability":"view"},{"type":"function","name":"renounceOwnership","inputs":[],"outputs":[],"stateMutability":"nonpayable"},{"type":"function","name":"sellFee","inputs":[],"outputs":[{"name":"","type":"address","internalType":"address"}],"stateMutability":"view"},{"type":"function","name":"setAddrs","inputs":[{"name":"_sellFee","type":"address","internalType":"address"}],"outputs":[],"stateMutability":"nonpayable"},{"type":"function","name":"setAllowlist","inputs":[{"name":"addr","type":"address","internalType":"address"},{"name":"isAllow","type":"bool","internalType":"bool"}],"outputs":[],"stateMutability":"nonpayable"},{"type":"function","name":"symbol","inputs":[],"outputs":[{"name":"","type":"string","internalType":"string"}],"stateMutability":"view"},{"type":"function","name":"totalSupply","inputs":[],"outputs":[{"name":"","type":"uint256","internalType":"uint256"}],"stateMutability":"view"},{"type":"function","name":"tradingOpen","inputs":[],"outputs":[{"name":"","type":"bool","internalType":"bool"}],"stateMutability":"view"},{"type":"function","name":"transfer","inputs":[{"name":"to","type":"address","internalType":"address"},{"name":"value","type":"uint256","internalType":"uint256"}],"outputs":[{"name":"","type":"bool","internalType":"bool"}],"stateMutability":"nonpayable"},{"type":"function","name":"transferFrom","inputs":[{"name":"from","type":"address","internalType":"address"},{"name":"to","type":"address","internalType":"address"},{"name":"value","type":"uint256","internalType":"uint256"}],"outputs":[{"name":"","type":"bool","internalType":"bool"}],"stateMutability":"nonpayable"},{"type":"function","name":"transferOwnership","inputs":[{"name":"newOwner","type":"address","internalType":"address"}],"outputs":[],"stateMutability":"nonpayable"},{"type":"event","name":"Approval","inputs":[{"name":"owner","type":"address","indexed":true,"internalType":"address"},{"name":"spender","type":"address","indexed":true,"internalType":"address"},{"name":"value","type":"uint256","indexed":false,"internalType":"uint256"}],"anonymous":false},{"type":"event","name":"BuyFee","inputs":[{"name":"from","type":"address","indexed":false,"internalType":"address"},{"name":"amount","type":"uint256","indexed":false,"internalType":"uint256"},{"name":"fee","type":"uint256","indexed":false,"internalType":"uint256"}],"anonymous":false},{"type":"event","name":"Buyback","inputs":[{"name":"buyer","type":"address","indexed":false,"internalType":"address"},{"name":"usdtSpent","type":"uint256","indexed":false,"internalType":"uint256"}],"anonymous":false},{"type":"event","name":"OwnershipTransferred","inputs":[{"name":"previousOwner","type":"address","indexed":true,"internalType":"address"},{"name":"newOwner","type":"address","indexed":true,"internalType":"address"}],"anonymous":false},{"type":"event","name":"SellFee","inputs":[{"name":"from","type":"address","indexed":false,"internalType":"address"},{"name":"amount","type":"uint256","indexed":false,"internalType":"uint256"},{"name":"fee","type":"uint256","indexed":false,"internalType":"uint256"}],"anonymous":false},{"type":"event","name":"SetAllowlist","inputs":[{"name":"user","type":"address","indexed":true,"internalType":"address"},{"name":"allow","type":"bool","indexed":false,"internalType":"bool"}],"anonymous":false},{"type":"event","name":"SwapAndSendTax","inputs":[{"name":"recipient","type":"address","indexed":false,"internalType":"address"},{"name":"tokensSwapped","type":"uint256","indexed":false,"internalType":"uint256"}],"anonymous":false},{"type":"event","name":"TradingOpened","inputs":[],"anonymous":false},{"type":"event","name":"Transfer","inputs":[{"name":"from","type":"address","indexed":true,"internalType":"address"},{"name":"to","type":"address","indexed":true,"internalType":"address"},{"name":"value","type":"uint256","indexed":false,"internalType":"uint256"}],"anonymous":false},{"type":"error","name":"ERC20InsufficientAllowance","inputs":[{"name":"spender","type":"address","internalType":"address"},{"name":"allowance","type":"uint256","internalType":"uint256"},{"name":"needed","type":"uint256","internalType":"uint256"}]},{"type":"error","name":"ERC20InsufficientBalance","inputs":[{"name":"sender","type":"address","internalType":"address"},{"name":"balance","type":"uint256","internalType":"uint256"},{"name":"needed","type":"uint256","internalType":"uint256"}]},{"type":"error","name":"ERC20InvalidApprover","inputs":[{"name":"approver","type":"address","internalType":"address"}]},{"type":"error","name":"ERC20InvalidReceiver","inputs":[{"name":"receiver","type":"address","internalType":"address"}]},{"type":"error","name":"ERC20InvalidSender","inputs":[{"name":"sender","type":"address","internalType":"address"}]},{"type":"error","name":"ERC20InvalidSpender","inputs":[{"name":"spender","type":"address","internalType":"address"}]},{"type":"error","name":"OwnableInvalidOwner","inputs":[{"name":"owner","type":"address","internalType":"address"}]},{"type":"error","name":"OwnableUnauthorizedAccount","inputs":[{"name":"account","type":"address","internalType":"address"}]}],"bytecode":{"object":"0x6080604052600680546001600160a01b0319167310ed43c718714eb63d5aa57b78b54704e256024e1790556009805460ff60a01b19169055348015610042575f5ffd5b50604051611c93380380611c9383398101604081905261006191610a0c565b6040805180820182526003808252620534b560ec1b602080840182905284518086019095528285528401523392906100998382610ae3565b5060046100a68282610ae3565b5050506001600160a01b0381166100d757604051631e4fbdf760e01b81525f60048201526024015b60405180910390fd5b6100e0816102b1565b506100f6836a01bcb13a657b2638800000610302565b600880546001600160a01b038085166001600160a01b0319928316179092556009805484841692169190911790556006546040805163c45a015560e01b81529051919092169163c45a01559160048083019260209291908290030181865afa158015610164573d5f5f3e3d5ffd5b505050506040513d601f19601f820116820180604052508101906101889190610b9d565b6040516364e329cb60e11b81523060048201527355d398326f99059ff775485246999027b319795560248201526001600160a01b03919091169063c9c65396906044016020604051808303815f875af11580156101e7573d5f5f3e3d5ffd5b505050506040513d601f19601f8201168201806040525081019061020b9190610b9d565b600780546001600160a01b0319166001600160a01b039283161790559283165f908152600a6020526040808220805460ff19908116600190811790925594861683528183208054861682179055929094168152928320805483168217905573d911b113234d37f1eab8fb47a5d95475293923859092527f7e8290fef2854eb21bf56f501d72b1d871e748f03a7a2aece0d4a661c8999c9280549091169091179055610cb7565b600580546001600160a01b038381166001600160a01b0319831681179093556040519116919082907f8be0079c531659141344cd1fd0a4f28419497f9722a3daafe3b4186f6b6457e0905f90a35050565b6001600160a01b03821661032b5760405163ec442f0560e01b81525f60048201526024016100ce565b6103365f838361033a565b5050565b600954600160a81b900460ff161561035c5761035783838361066f565b505050565b6001600160a01b038316158061037957506001600160a01b038216155b156103895761035783838361066f565b6001600160a01b0383165f908152600a602052604090205460ff16806103c657506001600160a01b0382165f908152600a602052604090205460ff165b1561047357600954600160a01b900460ff1615801561042757506001600160a01b03831673d911b113234d37f1eab8fb47a5d9547529392385148061042757506001600160a01b03821673d911b113234d37f1eab8fb47a5d9547529392385145b15610468576009805460ff60a01b1916600160a01b1790556040517fea4359d5c4b8f0945a64ab9c37fe830b3407d45e0e6e6f84275977a570457d6f905f90a15b61035783838361066f565b6007546009546001600160a01b0391821685831681149285161490600160a01b900460ff161580156104a25750815b156104e25760405162461bcd60e51b815260206004820152601060248201526f109d5e481b9bdd081bdc195b881e595d60821b60448201526064016100ce565b8115610579575f60646104f6600386610bd1565b6105009190610bee565b905061050d86308361066f565b5f6105188286610c0d565b905061052587878361066f565b604080516001600160a01b0389168152602081018790529081018390527f07df3626de672d4a6f5390556697c7cff75370a21302ab7160f2b7110a79a9d0906060015b60405180910390a150505050505050565b801561061a575f606461058d600586610bd1565b6105979190610bee565b90506105a486308361066f565b6008546105bb9082906001600160a01b0316610795565b5f6105c68286610c0d565b90506105d387878361066f565b604080516001600160a01b0389168152602081018790529081018390527f0edcb2d0eda5bf0f46ac6de66f9e91dd449e0a30cffbfdbca261e9234cf846cf90606001610568565b305f9081526020819052604090205482158015610635575081155b801561064057505f81115b1561065c5760095461065c9082906001600160a01b0316610795565b61066786868661066f565b505050505050565b6001600160a01b038316610699578060025f82825461068e9190610c20565b909155506107099050565b6001600160a01b0383165f90815260208190526040902054818110156106eb5760405163391434e360e21b81526001600160a01b038516600482015260248101829052604481018390526064016100ce565b6001600160a01b0384165f9081526020819052604090209082900390555b6001600160a01b03821661072557600280548290039055610743565b6001600160a01b0382165f9081526020819052604090208054820190555b816001600160a01b0316836001600160a01b03167fddf252ad1be2c89b69c2b068fc378daa952ba7f163c4a11628f55a4df523b3ef8360405161078891815260200190565b60405180910390a3505050565b815f036107a0575050565b6009805460ff60a81b1916600160a81b1790556040805160028082526060820183525f9260208301908036833701905050905030815f815181106107e6576107e6610c33565b60200260200101906001600160a01b031690816001600160a01b0316815250507355d398326f99059ff775485246999027b31979558160018151811061082e5761082e610c33565b6001600160a01b0392831660209182029290920101526006546108549130911685610916565b6006546001600160a01b0316635c11d795845f848661087442601e610c20565b6040518663ffffffff1660e01b8152600401610894959493929190610c47565b5f604051808303815f87803b1580156108ab575f5ffd5b505af19250505080156108bc575060015b1561090457604080516001600160a01b0384168152602081018590527faedb4dc54dc30d46d331ffcc44cd836607bea96c12e1b21a95210ed899184d04910160405180910390a15b50506009805460ff60a81b1916905550565b61035783838360016001600160a01b0384166109475760405163e602df0560e01b81525f60048201526024016100ce565b6001600160a01b03831661097057604051634a1406b160e11b81525f60048201526024016100ce565b6001600160a01b038085165f90815260016020908152604080832093871683529290522082905580156109eb57826001600160a01b0316846001600160a01b03167f8c5be1e5ebec7d5bd14f71427d1e84f3dd0314c0f7b2291e5b200ac8c7c3b925846040516109e291815260200190565b60405180910390a35b50505050565b80516001600160a01b0381168114610a07575f5ffd5b919050565b5f5f5f60608486031215610a1e575f5ffd5b610a27846109f1565b9250610a35602085016109f1565b9150610a43604085016109f1565b90509250925092565b634e487b7160e01b5f52604160045260245ffd5b600181811c90821680610a7457607f821691505b602082108103610a9257634e487b7160e01b5f52602260045260245ffd5b50919050565b601f82111561035757805f5260205f20601f840160051c81016020851015610abd5750805b601f840160051c820191505b81811015610adc575f8155600101610ac9565b5050505050565b81516001600160401b03811115610afc57610afc610a4c565b610b1081610b0a8454610a60565b84610a98565b6020601f821160018114610b42575f8315610b2b5750848201515b5f19600385901b1c1916600184901b178455610adc565b5f84815260208120601f198516915b82811015610b715787850151825560209485019460019092019101610b51565b5084821015610b8e57868401515f19600387901b60f8161c191681555b50505050600190811b01905550565b5f60208284031215610bad575f5ffd5b610bb6826109f1565b9392505050565b634e487b7160e01b5f52601160045260245ffd5b8082028115828204841417610be857610be8610bbd565b92915050565b5f82610c0857634e487b7160e01b5f52601260045260245ffd5b500490565b81810381811115610be857610be8610bbd565b80820180821115610be857610be8610bbd565b634e487b7160e01b5f52603260045260245ffd5b5f60a0820187835286602084015260a0604084015280865180835260c0850191506020880192505f5b81811015610c975783516001600160a01b0316835260209384019390920191600101610c70565b50506001600160a01b039590951660608401525050608001529392505050565b610fcf80610cc45f395ff3fe608060405234801561000f575f5ffd5b5060043610610153575f3560e01c806395d89b41116100bf578063c21ebd0711610079578063c21ebd07146102e6578063c54e44eb146102f9578063dd62ed3e14610314578063f21c4da41461034c578063f2fde38b14610354578063ffb54a9914610367575f5ffd5b806395d89b4114610270578063a7cd52cb14610278578063a9059cbb1461029a578063b0d179a5146102ad578063b12527f8146102c0578063b8c9d25c146102d3575f5ffd5b8063470624021161011057806347062402146101f7578063473539d41461020a5780634bc01e1b1461021257806370a082311461022d578063715018a6146102555780638da5cb5b1461025f575f5ffd5b806306fdde0314610157578063095ea7b31461017557806318160ddd1461019857806323b872dd146101aa5780632b14ca56146101bd578063313ce567146101e8575b5f5ffd5b61015f61037b565b60405161016c9190610d10565b60405180910390f35b610188610183366004610d60565b61040b565b604051901515815260200161016c565b6002545b60405190815260200161016c565b6101886101b8366004610d88565b610424565b6008546101d0906001600160a01b031681565b6040516001600160a01b03909116815260200161016c565b6040516012815260200161016c565b6009546101d0906001600160a01b031681565b61019c600381565b6101d073d911b113234d37f1eab8fb47a5d954752939238581565b61019c61023b366004610dc2565b6001600160a01b03165f9081526020819052604090205490565b61025d610447565b005b6005546001600160a01b03166101d0565b61015f61045a565b610188610286366004610dc2565b600a6020525f908152604090205460ff1681565b6101886102a8366004610d60565b610469565b61025d6102bb366004610dc2565b610476565b61025d6102ce366004610de2565b6104a0565b6007546101d0906001600160a01b031681565b6006546101d0906001600160a01b031681565b6101d07355d398326f99059ff775485246999027b319795581565b61019c610322366004610e1b565b6001600160a01b039182165f90815260016020908152604080832093909416825291909152205490565b61019c600581565b61025d610362366004610dc2565b610506565b60095461018890600160a01b900460ff1681565b60606003805461038a90610e4c565b80601f01602080910402602001604051908101604052809291908181526020018280546103b690610e4c565b80156104015780601f106103d857610100808354040283529160200191610401565b820191905f5260205f20905b8154815290600101906020018083116103e457829003601f168201915b5050505050905090565b5f33610418818585610548565b60019150505b92915050565b5f3361043185828561055a565b61043c8585856105c3565b506001949350505050565b61044f610620565b6104585f61064d565b565b60606004805461038a90610e4c565b5f336104188185856105c3565b61047e610620565b600880546001600160a01b0319166001600160a01b0392909216919091179055565b6104a8610620565b6001600160a01b0382165f818152600a6020908152604091829020805460ff191685151590811790915591519182527f0461ee29b36d562ad5227f9b55e9acbc21e2be7f6d7342d2a1444252945db543910160405180910390a25050565b61050e610620565b6001600160a01b03811661053c57604051631e4fbdf760e01b81525f60048201526024015b60405180910390fd5b6105458161064d565b50565b610555838383600161069e565b505050565b6001600160a01b038381165f908152600160209081526040808320938616835292905220545f198110156105bd57818110156105af57828183604051637dc7a0d960e11b815260040161053393929190610e84565b6105bd84848484035f61069e565b50505050565b6001600160a01b0383166105ec57604051634b637e8f60e11b81525f6004820152602401610533565b6001600160a01b0382166106155760405163ec442f0560e01b81525f6004820152602401610533565b610555838383610770565b6005546001600160a01b031633146104585760405163118cdaa760e01b8152336004820152602401610533565b600580546001600160a01b038381166001600160a01b0319831681179093556040519116919082907f8be0079c531659141344cd1fd0a4f28419497f9722a3daafe3b4186f6b6457e0905f90a35050565b6001600160a01b0384166106c75760405163e602df0560e01b81525f6004820152602401610533565b6001600160a01b0383166106f057604051634a1406b160e11b81525f6004820152602401610533565b6001600160a01b038085165f90815260016020908152604080832093871683529290522082905580156105bd57826001600160a01b0316846001600160a01b03167f8c5be1e5ebec7d5bd14f71427d1e84f3dd0314c0f7b2291e5b200ac8c7c3b9258460405161076291815260200190565b60405180910390a350505050565b600954600160a81b900460ff161561078d57610555838383610a7c565b6001600160a01b03831615806107aa57506001600160a01b038216155b156107ba57610555838383610a7c565b6001600160a01b0383165f908152600a602052604090205460ff16806107f757506001600160a01b0382165f908152600a602052604090205460ff165b156108a457600954600160a01b900460ff1615801561085857506001600160a01b03831673d911b113234d37f1eab8fb47a5d9547529392385148061085857506001600160a01b03821673d911b113234d37f1eab8fb47a5d9547529392385145b15610899576009805460ff60a01b1916600160a01b1790556040517fea4359d5c4b8f0945a64ab9c37fe830b3407d45e0e6e6f84275977a570457d6f905f90a15b610555838383610a7c565b6007546009546001600160a01b0391821685831681149285161490600160a01b900460ff161580156108d35750815b156109135760405162461bcd60e51b815260206004820152601060248201526f109d5e481b9bdd081bdc195b881e595d60821b6044820152606401610533565b811561099a575f6064610927600386610eb9565b6109319190610ed0565b905061093e863083610a7c565b5f6109498286610eef565b9050610956878783610a7c565b7f07df3626de672d4a6f5390556697c7cff75370a21302ab7160f2b7110a79a9d087868460405161098993929190610e84565b60405180910390a150505050505050565b8015610a27575f60646109ae600586610eb9565b6109b89190610ed0565b90506109c5863083610a7c565b6008546109dc9082906001600160a01b0316610b8f565b5f6109e78286610eef565b90506109f4878783610a7c565b7f0edcb2d0eda5bf0f46ac6de66f9e91dd449e0a30cffbfdbca261e9234cf846cf87868460405161098993929190610e84565b305f9081526020819052604090205482158015610a42575081155b8015610a4d57505f81115b15610a6957600954610a699082906001600160a01b0316610b8f565b610a74868686610a7c565b505050505050565b6001600160a01b038316610aa6578060025f828254610a9b9190610f02565b90915550610b039050565b6001600160a01b0383165f9081526020819052604090205481811015610ae55783818360405163391434e360e21b815260040161053393929190610e84565b6001600160a01b0384165f9081526020819052604090209082900390555b6001600160a01b038216610b1f57600280548290039055610b3d565b6001600160a01b0382165f9081526020819052604090208054820190555b816001600160a01b0316836001600160a01b03167fddf252ad1be2c89b69c2b068fc378daa952ba7f163c4a11628f55a4df523b3ef83604051610b8291815260200190565b60405180910390a3505050565b815f03610b9a575050565b6009805460ff60a81b1916600160a81b1790556040805160028082526060820183525f9260208301908036833701905050905030815f81518110610be057610be0610f15565b60200260200101906001600160a01b031690816001600160a01b0316815250507355d398326f99059ff775485246999027b319795581600181518110610c2857610c28610f15565b6001600160a01b039283166020918202929092010152600654610c4e9130911685610548565b6006546001600160a01b0316635c11d795845f8486610c6e42601e610f02565b6040518663ffffffff1660e01b8152600401610c8e959493929190610f29565b5f604051808303815f87803b158015610ca5575f5ffd5b505af1925050508015610cb6575060015b15610cfe57604080516001600160a01b0384168152602081018590527faedb4dc54dc30d46d331ffcc44cd836607bea96c12e1b21a95210ed899184d04910160405180910390a15b50506009805460ff60a81b1916905550565b602081525f82518060208401528060208501604085015e5f604082850101526040601f19601f83011684010191505092915050565b80356001600160a01b0381168114610d5b575f5ffd5b919050565b5f5f60408385031215610d71575f5ffd5b610d7a83610d45565b946020939093013593505050565b5f5f5f60608486031215610d9a575f5ffd5b610da384610d45565b9250610db160208501610d45565b929592945050506040919091013590565b5f60208284031215610dd2575f5ffd5b610ddb82610d45565b9392505050565b5f5f60408385031215610df3575f5ffd5b610dfc83610d45565b915060208301358015158114610e10575f5ffd5b809150509250929050565b5f5f60408385031215610e2c575f5ffd5b610e3583610d45565b9150610e4360208401610d45565b90509250929050565b600181811c90821680610e6057607f821691505b602082108103610e7e57634e487b7160e01b5f52602260045260245ffd5b50919050565b6001600160a01b039390931683526020830191909152604082015260600190565b634e487b7160e01b5f52601160045260245ffd5b808202811582820484141761041e5761041e610ea5565b5f82610eea57634e487b7160e01b5f52601260045260245ffd5b500490565b8181038181111561041e5761041e610ea5565b8082018082111561041e5761041e610ea5565b634e487b7160e01b5f52603260045260245ffd5b5f60a0820187835286602084015260a0604084015280865180835260c0850191506020880192505f5b81811015610f795783516001600160a01b0316835260209384019390920191600101610f52565b50506001600160a01b03959095166060840152505060800152939250505056fea264697066735822122014329ce6510ca4837e7e2b9e1aa57e55edec37a6be26db293a50177685217ca764736f6c634300081e0033","linkReferences":{}},"methodIdentifiers":{"BUY_RATE()":"473539d4","OPEN_ADDR()":"4bc01e1b","SELL_RATE()":"f21c4da4","USDT()":"c54e44eb","allowance(address,address)":"dd62ed3e","allowlist(address)":"a7cd52cb","approve(address,uint256)":"095ea7b3","balanceOf(address)":"70a08231","buyFee()":"47062402","decimals()":"313ce567","name()":"06fdde03","owner()":"8da5cb5b","pancakePair()":"b8c9d25c","pancakeRouter()":"c21ebd07","renounceOwnership()":"715018a6","sellFee()":"2b14ca56","setAddrs(address)":"b0d179a5","setAllowlist(address,bool)":"b12527f8","symbol()":"95d89b41","totalSupply()":"18160ddd","tradingOpen()":"ffb54a99","transfer(address,uint256)":"a9059cbb","transferFrom(address,address,uint256)":"23b872dd","transferOwnership(address)":"f2fde38b"},"id":39}