{"abi":[{"type":"constructor","inputs":[{"name":"_initialRecipient","type":"address","internalType":"address"},{"name":"_sellFee","type":"address","internalType":"address"}],"stateMutability":"nonpayable"},{"type":"function","name":"SELL_RATE","inputs":[],"outputs":[{"name":"","type":"uint256","internalType":"uint256"}],"stateMutability":"view"},{"type":"function","name":"USDT","inputs":[],"outputs":[{"name":"","type":"address","internalType":"address"}],"stateMutability":"view"},{"type":"function","name":"allowance","inputs":[{"name":"owner","type":"address","internalType":"address"},{"name":"spender","type":"address","internalType":"address"}],"outputs":[{"name":"","type":"uint256","internalType":"uint256"}],"stateMutability":"view"},{"type":"function","name":"allowlist","inputs":[{"name":"","type":"address","internalType":"address"}],"outputs":[{"name":"","type":"bool","internalType":"bool"}],"stateMutability":"view"},{"type":"function","name":"approve","inputs":[{"name":"spender","type":"address","internalType":"address"},{"name":"value","type":"uint256","internalType":"uint256"}],"outputs":[{"name":"","type":"bool","internalType":"bool"}],"stateMutability":"nonpayable"},{"type":"function","name":"balanceOf","inputs":[{"name":"account","type":"address","internalType":"address"}],"outputs":[{"name":"","type":"uint256","internalType":"uint256"}],"stateMutability":"view"},{"type":"function","name":"decimals","inputs":[],"outputs":[{"name":"","type":"uint8","internalType":"uint8"}],"stateMutability":"view"},{"type":"function","name":"name","inputs":[],"outputs":[{"name":"","type":"string","internalType":"string"}],"stateMutability":"view"},{"type":"function","name":"owner","inputs":[],"outputs":[{"name":"","type":"address","internalType":"address"}],"stateMutability":"view"},{"type":"function","name":"pancakePair","inputs":[],"outputs":[{"name":"","type":"address","internalType":"address"}],"stateMutability":"view"},{"type":"function","name":"pancakeRouter","inputs":[],"outputs":[{"name":"","type":"address","internalType":"contract IPancakeRouter02"}],"stateMutability":"view"},{"type":"function","name":"renounceOwnership","inputs":[],"outputs":[],"stateMutability":"nonpayable"},{"type":"function","name":"sellFee","inputs":[],"outputs":[{"name":"","type":"address","internalType":"address"}],"stateMutability":"view"},{"type":"function","name":"setAddrs","inputs":[{"name":"_sellFee","type":"address","internalType":"address"}],"outputs":[],"stateMutability":"nonpayable"},{"type":"function","name":"setAllowlist","inputs":[{"name":"addr","type":"address","internalType":"address"},{"name":"isAllow","type":"bool","internalType":"bool"}],"outputs":[],"stateMutability":"nonpayable"},{"type":"function","name":"symbol","inputs":[],"outputs":[{"name":"","type":"string","internalType":"string"}],"stateMutability":"view"},{"type":"function","name":"totalSupply","inputs":[],"outputs":[{"name":"","type":"uint256","internalType":"uint256"}],"stateMutability":"view"},{"type":"function","name":"transfer","inputs":[{"name":"to","type":"address","internalType":"address"},{"name":"value","type":"uint256","internalType":"uint256"}],"outputs":[{"name":"","type":"bool","internalType":"bool"}],"stateMutability":"nonpayable"},{"type":"function","name":"transferFrom","inputs":[{"name":"from","type":"address","internalType":"address"},{"name":"to","type":"address","internalType":"address"},{"name":"value","type":"uint256","internalType":"uint256"}],"outputs":[{"name":"","type":"bool","internalType":"bool"}],"stateMutability":"nonpayable"},{"type":"function","name":"transferOwnership","inputs":[{"name":"newOwner","type":"address","internalType":"address"}],"outputs":[],"stateMutability":"nonpayable"},{"type":"event","name":"Approval","inputs":[{"name":"owner","type":"address","indexed":true,"internalType":"address"},{"name":"spender","type":"address","indexed":true,"internalType":"address"},{"name":"value","type":"uint256","indexed":false,"internalType":"uint256"}],"anonymous":false},{"type":"event","name":"Buyback","inputs":[{"name":"buyer","type":"address","indexed":false,"internalType":"address"},{"name":"usdtSpent","type":"uint256","indexed":false,"internalType":"uint256"}],"anonymous":false},{"type":"event","name":"OwnershipTransferred","inputs":[{"name":"previousOwner","type":"address","indexed":true,"internalType":"address"},{"name":"newOwner","type":"address","indexed":true,"internalType":"address"}],"anonymous":false},{"type":"event","name":"SellFee","inputs":[{"name":"from","type":"address","indexed":false,"internalType":"address"},{"name":"amount","type":"uint256","indexed":false,"internalType":"uint256"},{"name":"fee","type":"uint256","indexed":false,"internalType":"uint256"}],"anonymous":false},{"type":"event","name":"SetAllowlist","inputs":[{"name":"user","type":"address","indexed":true,"internalType":"address"},{"name":"allow","type":"bool","indexed":false,"internalType":"bool"}],"anonymous":false},{"type":"event","name":"SwapAndSendTax","inputs":[{"name":"recipient","type":"address","indexed":false,"internalType":"address"},{"name":"tokensSwapped","type":"uint256","indexed":false,"internalType":"uint256"}],"anonymous":false},{"type":"event","name":"Transfer","inputs":[{"name":"from","type":"address","indexed":true,"internalType":"address"},{"name":"to","type":"address","indexed":true,"internalType":"address"},{"name":"value","type":"uint256","indexed":false,"internalType":"uint256"}],"anonymous":false},{"type":"error","name":"ERC20InsufficientAllowance","inputs":[{"name":"spender","type":"address","internalType":"address"},{"name":"allowance","type":"uint256","internalType":"uint256"},{"name":"needed","type":"uint256","internalType":"uint256"}]},{"type":"error","name":"ERC20InsufficientBalance","inputs":[{"name":"sender","type":"address","internalType":"address"},{"name":"balance","type":"uint256","internalType":"uint256"},{"name":"needed","type":"uint256","internalType":"uint256"}]},{"type":"error","name":"ERC20InvalidApprover","inputs":[{"name":"approver","type":"address","internalType":"address"}]},{"type":"error","name":"ERC20InvalidReceiver","inputs":[{"name":"receiver","type":"address","internalType":"address"}]},{"type":"error","name":"ERC20InvalidSender","inputs":[{"name":"sender","type":"address","internalType":"address"}]},{"type":"error","name":"ERC20InvalidSpender","inputs":[{"name":"spender","type":"address","internalType":"address"}]},{"type":"error","name":"OwnableInvalidOwner","inputs":[{"name":"owner","type":"address","internalType":"address"}]},{"type":"error","name":"OwnableUnauthorizedAccount","inputs":[{"name":"account","type":"address","internalType":"address"}]}],"bytecode":{"object":"0x60806040527310ed43c718714eb63d5aa57b78b54704e256024e60065f6101000a81548173ffffffffffffffffffffffffffffffffffffffff021916908373ffffffffffffffffffffffffffffffffffffffff160217905550348015610063575f5ffd5b5060405161330c38038061330c83398181016040528101906100859190610f12565b336040518060400160405280600381526020017f534b5000000000000000000000000000000000000000000000000000000000008152506040518060400160405280600381526020017f534b5000000000000000000000000000000000000000000000000000000000008152508160039081610101919061118d565b508060049081610111919061118d565b5050505f73ffffffffffffffffffffffffffffffffffffffff168173ffffffffffffffffffffffffffffffffffffffff1603610184575f6040517f1e4fbdf700000000000000000000000000000000000000000000000000000000815260040161017b919061126b565b60405180910390fd5b610193816103fb60201b60201c565b506101af826a01bcb13a657b26388000006104be60201b60201c565b8060085f6101000a81548173ffffffffffffffffffffffffffffffffffffffff021916908373ffffffffffffffffffffffffffffffffffffffff16021790555060065f9054906101000a900473ffffffffffffffffffffffffffffffffffffffff1673ffffffffffffffffffffffffffffffffffffffff1663c45a01556040518163ffffffff1660e01b8152600401602060405180830381865afa158015610259573d5f5f3e3d5ffd5b505050506040513d601f19601f8201168201806040525081019061027d9190611284565b73ffffffffffffffffffffffffffffffffffffffff1663c9c65396307355d398326f99059ff775485246999027b31979556040518363ffffffff1660e01b81526004016102cb9291906112af565b6020604051808303815f875af11580156102e7573d5f5f3e3d5ffd5b505050506040513d601f19601f8201168201806040525081019061030b9190611284565b60075f6101000a81548173ffffffffffffffffffffffffffffffffffffffff021916908373ffffffffffffffffffffffffffffffffffffffff160217905550600160095f8473ffffffffffffffffffffffffffffffffffffffff1673ffffffffffffffffffffffffffffffffffffffff1681526020019081526020015f205f6101000a81548160ff021916908315150217905550600160095f8373ffffffffffffffffffffffffffffffffffffffff1673ffffffffffffffffffffffffffffffffffffffff1681526020019081526020015f205f6101000a81548160ff0219169083151502179055505050611678565b5f60055f9054906101000a900473ffffffffffffffffffffffffffffffffffffffff1690508160055f6101000a81548173ffffffffffffffffffffffffffffffffffffffff021916908373ffffffffffffffffffffffffffffffffffffffff1602179055508173ffffffffffffffffffffffffffffffffffffffff168173ffffffffffffffffffffffffffffffffffffffff167f8be0079c531659141344cd1fd0a4f28419497f9722a3daafe3b4186f6b6457e060405160405180910390a35050565b5f73ffffffffffffffffffffffffffffffffffffffff168273ffffffffffffffffffffffffffffffffffffffff160361052e575f6040517fec442f05000000000000000000000000000000000000000000000000000000008152600401610525919061126b565b60405180910390fd5b61053f5f838361054360201b60201c565b5050565b600860149054906101000a900460ff161561056e5761056983838361086c60201b60201c565b610867565b5f73ffffffffffffffffffffffffffffffffffffffff168373ffffffffffffffffffffffffffffffffffffffff1614806105d357505f73ffffffffffffffffffffffffffffffffffffffff168273ffffffffffffffffffffffffffffffffffffffff16145b156105ee576105e983838361086c60201b60201c565b610867565b60095f8473ffffffffffffffffffffffffffffffffffffffff1673ffffffffffffffffffffffffffffffffffffffff1681526020019081526020015f205f9054906101000a900460ff1680610689575060095f8373ffffffffffffffffffffffffffffffffffffffff1673ffffffffffffffffffffffffffffffffffffffff1681526020019081526020015f205f9054906101000a900460ff165b156106a45761069f83838361086c60201b60201c565b610867565b5f60075f9054906101000a900473ffffffffffffffffffffffffffffffffffffffff1673ffffffffffffffffffffffffffffffffffffffff168473ffffffffffffffffffffffffffffffffffffffff161490505f60075f9054906101000a900473ffffffffffffffffffffffffffffffffffffffff1673ffffffffffffffffffffffffffffffffffffffff168473ffffffffffffffffffffffffffffffffffffffff16149050811561078b576040517f08c379a000000000000000000000000000000000000000000000000000000000815260040161078290611330565b60405180910390fd5b8015610853575f60646005856107a1919061137b565b6107ab91906113e9565b90506107be86308361086c60201b60201c565b6107ef8160085f9054906101000a900473ffffffffffffffffffffffffffffffffffffffff16610a8560201b60201c565b5f81856107fc9190611419565b905061080f87878361086c60201b60201c565b7f0edcb2d0eda5bf0f46ac6de66f9e91dd449e0a30cffbfdbca261e9234cf846cf8786846040516108429392919061145b565b60405180910390a150505050610867565b61086485858561086c60201b60201c565b50505b505050565b5f73ffffffffffffffffffffffffffffffffffffffff168373ffffffffffffffffffffffffffffffffffffffff16036108bc578060025f8282546108b09190611490565b9250508190555061098a565b5f5f5f8573ffffffffffffffffffffffffffffffffffffffff1673ffffffffffffffffffffffffffffffffffffffff1681526020019081526020015f2054905081811015610945578381836040517fe450d38c00000000000000000000000000000000000000000000000000000000815260040161093c9392919061145b565b60405180910390fd5b8181035f5f8673ffffffffffffffffffffffffffffffffffffffff1673ffffffffffffffffffffffffffffffffffffffff1681526020019081526020015f2081905550505b5f73ffffffffffffffffffffffffffffffffffffffff168273ffffffffffffffffffffffffffffffffffffffff16036109d1578060025f8282540392505081905550610a1b565b805f5f8473ffffffffffffffffffffffffffffffffffffffff1673ffffffffffffffffffffffffffffffffffffffff1681526020019081526020015f205f82825401925050819055505b8173ffffffffffffffffffffffffffffffffffffffff168373ffffffffffffffffffffffffffffffffffffffff167fddf252ad1be2c89b69c2b068fc378daa952ba7f163c4a11628f55a4df523b3ef83604051610a7891906114c3565b60405180910390a3505050565b5f820315610cc9576001600860146101000a81548160ff0219169083151502179055505f600267ffffffffffffffff811115610ac457610ac3610f5a565b5b604051908082528060200260200182016040528015610af25781602001602082028036833780820191505090505b50905030815f81518110610b0957610b086114dc565b5b602002602001019073ffffffffffffffffffffffffffffffffffffffff16908173ffffffffffffffffffffffffffffffffffffffff16815250507355d398326f99059ff775485246999027b319795581600181518110610b6c57610b6b6114dc565b5b602002602001019073ffffffffffffffffffffffffffffffffffffffff16908173ffffffffffffffffffffffffffffffffffffffff1681525050610bd83060065f9054906101000a900473ffffffffffffffffffffffffffffffffffffffff1685610ccd60201b60201c565b60065f9054906101000a900473ffffffffffffffffffffffffffffffffffffffff1673ffffffffffffffffffffffffffffffffffffffff16635c11d795845f8486601e42610c269190611490565b6040518663ffffffff1660e01b8152600401610c469594939291906115f9565b5f604051808303815f87803b158015610c5d575f5ffd5b505af1925050508015610c6e575060015b15610cad577faedb4dc54dc30d46d331ffcc44cd836607bea96c12e1b21a95210ed899184d048284604051610ca4929190611651565b60405180910390a15b5f600860146101000a81548160ff021916908315150217905550505b5050565b610ce08383836001610ce560201b60201c565b505050565b5f73ffffffffffffffffffffffffffffffffffffffff168473ffffffffffffffffffffffffffffffffffffffff1603610d55575f6040517fe602df05000000000000000000000000000000000000000000000000000000008152600401610d4c919061126b565b60405180910390fd5b5f73ffffffffffffffffffffffffffffffffffffffff168373ffffffffffffffffffffffffffffffffffffffff1603610dc5575f6040517f94280d62000000000000000000000000000000000000000000000000000000008152600401610dbc919061126b565b60405180910390fd5b8160015f8673ffffffffffffffffffffffffffffffffffffffff1673ffffffffffffffffffffffffffffffffffffffff1681526020019081526020015f205f8573ffffffffffffffffffffffffffffffffffffffff1673ffffffffffffffffffffffffffffffffffffffff1681526020019081526020015f20819055508015610eae578273ffffffffffffffffffffffffffffffffffffffff168473ffffffffffffffffffffffffffffffffffffffff167f8c5be1e5ebec7d5bd14f71427d1e84f3dd0314c0f7b2291e5b200ac8c7c3b92584604051610ea591906114c3565b60405180910390a35b50505050565b5f5ffd5b5f73ffffffffffffffffffffffffffffffffffffffff82169050919050565b5f610ee182610eb8565b9050919050565b610ef181610ed7565b8114610efb575f5ffd5b50565b5f81519050610f0c81610ee8565b92915050565b5f5f60408385031215610f2857610f27610eb4565b5b5f610f3585828601610efe565b9250506020610f4685828601610efe565b9150509250929050565b5f81519050919050565b7f4e487b71000000000000000000000000000000000000000000000000000000005f52604160045260245ffd5b7f4e487b71000000000000000000000000000000000000000000000000000000005f52602260045260245ffd5b5f6002820490506001821680610fcb57607f821691505b602082108103610fde57610fdd610f87565b5b50919050565b5f819050815f5260205f209050919050565b5f6020601f8301049050919050565b5f82821b905092915050565b5f600883026110407fffffffffffffffffffffffffffffffffffffffffffffffffffffffffffffffff82611005565b61104a8683611005565b95508019841693508086168417925050509392505050565b5f819050919050565b5f819050919050565b5f61108e61108961108484611062565b61106b565b611062565b9050919050565b5f819050919050565b6110a783611074565b6110bb6110b382611095565b848454611011565b825550505050565b5f5f905090565b6110d26110c3565b6110dd81848461109e565b505050565b5b81811015611100576110f55f826110ca565b6001810190506110e3565b5050565b601f8211156111455761111681610fe4565b61111f84610ff6565b8101602085101561112e578190505b61114261113a85610ff6565b8301826110e2565b50505b505050565b5f82821c905092915050565b5f6111655f198460080261114a565b1980831691505092915050565b5f61117d8383611156565b9150826002028217905092915050565b61119682610f50565b67ffffffffffffffff8111156111af576111ae610f5a565b5b6111b98254610fb4565b6111c4828285611104565b5f60209050601f8311600181146111f5575f84156111e3578287015190505b6111ed8582611172565b865550611254565b601f19841661120386610fe4565b5f5b8281101561122a57848901518255600182019150602085019450602081019050611205565b868310156112475784890151611243601f891682611156565b8355505b6001600288020188555050505b505050505050565b61126581610ed7565b82525050565b5f60208201905061127e5f83018461125c565b92915050565b5f6020828403121561129957611298610eb4565b5b5f6112a684828501610efe565b91505092915050565b5f6040820190506112c25f83018561125c565b6112cf602083018461125c565b9392505050565b5f82825260208201905092915050565b7f4255595f4e4f545f414c4c4f57454400000000000000000000000000000000005f82015250565b5f61131a600f836112d6565b9150611325826112e6565b602082019050919050565b5f6020820190508181035f8301526113478161130e565b9050919050565b7f4e487b71000000000000000000000000000000000000000000000000000000005f52601160045260245ffd5b5f61138582611062565b915061139083611062565b925082820261139e81611062565b915082820484148315176113b5576113b461134e565b5b5092915050565b7f4e487b71000000000000000000000000000000000000000000000000000000005f52601260045260245ffd5b5f6113f382611062565b91506113fe83611062565b92508261140e5761140d6113bc565b5b828204905092915050565b5f61142382611062565b915061142e83611062565b92508282039050818111156114465761144561134e565b5b92915050565b61145581611062565b82525050565b5f60608201905061146e5f83018661125c565b61147b602083018561144c565b611488604083018461144c565b949350505050565b5f61149a82611062565b91506114a583611062565b92508282019050808211156114bd576114bc61134e565b5b92915050565b5f6020820190506114d65f83018461144c565b92915050565b7f4e487b71000000000000000000000000000000000000000000000000000000005f52603260045260245ffd5b5f819050919050565b5f61152c61152761152284611509565b61106b565b611062565b9050919050565b61153c81611512565b82525050565b5f81519050919050565b5f82825260208201905092915050565b5f819050602082019050919050565b61157481610ed7565b82525050565b5f611585838361156b565b60208301905092915050565b5f602082019050919050565b5f6115a782611542565b6115b1818561154c565b93506115bc8361155c565b805f5b838110156115ec5781516115d3888261157a565b97506115de83611591565b9250506001810190506115bf565b5085935050505092915050565b5f60a08201905061160c5f83018861144c565b6116196020830187611533565b818103604083015261162b818661159d565b905061163a606083018561125c565b611647608083018461144c565b9695505050505050565b5f6040820190506116645f83018561125c565b611671602083018461144c565b9392505050565b611c87806116855f395ff3fe608060405234801561000f575f5ffd5b506004361061012a575f3560e01c8063a7cd52cb116100ab578063c21ebd071161006f578063c21ebd0714610332578063c54e44eb14610350578063dd62ed3e1461036e578063f21c4da41461039e578063f2fde38b146103bc5761012a565b8063a7cd52cb1461027c578063a9059cbb146102ac578063b0d179a5146102dc578063b12527f8146102f8578063b8c9d25c146103145761012a565b8063313ce567116100f2578063313ce567146101e857806370a0823114610206578063715018a6146102365780638da5cb5b1461024057806395d89b411461025e5761012a565b806306fdde031461012e578063095ea7b31461014c57806318160ddd1461017c57806323b872dd1461019a5780632b14ca56146101ca575b5f5ffd5b6101366103d8565b6040516101439190611522565b60405180910390f35b610166600480360381019061016191906115d3565b610468565b604051610173919061162b565b60405180910390f35b61018461048a565b6040516101919190611653565b60405180910390f35b6101b460048036038101906101af919061166c565b610493565b6040516101c1919061162b565b60405180910390f35b6101d26104c1565b6040516101df91906116cb565b60405180910390f35b6101f06104e6565b6040516101fd91906116ff565b60405180910390f35b610220600480360381019061021b9190611718565b6104ee565b60405161022d9190611653565b60405180910390f35b61023e610533565b005b610248610546565b60405161025591906116cb565b60405180910390f35b61026661056e565b6040516102739190611522565b60405180910390f35b61029660048036038101906102919190611718565b6105fe565b6040516102a3919061162b565b60405180910390f35b6102c660048036038101906102c191906115d3565b61061b565b6040516102d3919061162b565b60405180910390f35b6102f660048036038101906102f19190611718565b61063d565b005b610312600480360381019061030d919061176d565b610688565b005b61031c610736565b60405161032991906116cb565b60405180910390f35b61033a61075b565b6040516103479190611806565b60405180910390f35b610358610780565b60405161036591906116cb565b60405180910390f35b6103886004803603810190610383919061181f565b610798565b6040516103959190611653565b60405180910390f35b6103a661081a565b6040516103b39190611653565b60405180910390f35b6103d660048036038101906103d19190611718565b61081f565b005b6060600380546103e79061188a565b80601f01602080910402602001604051908101604052809291908181526020018280546104139061188a565b801561045e5780601f106104355761010080835404028352916020019161045e565b820191905f5260205f20905b81548152906001019060200180831161044157829003601f168201915b5050505050905090565b5f5f6104726108a3565b905061047f8185856108aa565b600191505092915050565b5f600254905090565b5f5f61049d6108a3565b90506104aa8582856108bc565b6104b585858561094f565b60019150509392505050565b60085f9054906101000a900473ffffffffffffffffffffffffffffffffffffffff1681565b5f6012905090565b5f5f5f8373ffffffffffffffffffffffffffffffffffffffff1673ffffffffffffffffffffffffffffffffffffffff1681526020019081526020015f20549050919050565b61053b610a3f565b6105445f610ac6565b565b5f60055f9054906101000a900473ffffffffffffffffffffffffffffffffffffffff16905090565b60606004805461057d9061188a565b80601f01602080910402602001604051908101604052809291908181526020018280546105a99061188a565b80156105f45780601f106105cb576101008083540402835291602001916105f4565b820191905f5260205f20905b8154815290600101906020018083116105d757829003601f168201915b5050505050905090565b6009602052805f5260405f205f915054906101000a900460ff1681565b5f5f6106256108a3565b905061063281858561094f565b600191505092915050565b610645610a3f565b8060085f6101000a81548173ffffffffffffffffffffffffffffffffffffffff021916908373ffffffffffffffffffffffffffffffffffffffff16021790555050565b610690610a3f565b8060095f8473ffffffffffffffffffffffffffffffffffffffff1673ffffffffffffffffffffffffffffffffffffffff1681526020019081526020015f205f6101000a81548160ff0219169083151502179055508173ffffffffffffffffffffffffffffffffffffffff167f0461ee29b36d562ad5227f9b55e9acbc21e2be7f6d7342d2a1444252945db5438260405161072a919061162b565b60405180910390a25050565b60075f9054906101000a900473ffffffffffffffffffffffffffffffffffffffff1681565b60065f9054906101000a900473ffffffffffffffffffffffffffffffffffffffff1681565b7355d398326f99059ff775485246999027b319795581565b5f60015f8473ffffffffffffffffffffffffffffffffffffffff1673ffffffffffffffffffffffffffffffffffffffff1681526020019081526020015f205f8373ffffffffffffffffffffffffffffffffffffffff1673ffffffffffffffffffffffffffffffffffffffff1681526020019081526020015f2054905092915050565b600581565b610827610a3f565b5f73ffffffffffffffffffffffffffffffffffffffff168173ffffffffffffffffffffffffffffffffffffffff1603610897575f6040517f1e4fbdf700000000000000000000000000000000000000000000000000000000815260040161088e91906116cb565b60405180910390fd5b6108a081610ac6565b50565b5f33905090565b6108b78383836001610b89565b505050565b5f6108c78484610798565b90507fffffffffffffffffffffffffffffffffffffffffffffffffffffffffffffffff811015610949578181101561093a578281836040517ffb8f41b2000000000000000000000000000000000000000000000000000000008152600401610931939291906118ba565b60405180910390fd5b61094884848484035f610b89565b5b50505050565b5f73ffffffffffffffffffffffffffffffffffffffff168373ffffffffffffffffffffffffffffffffffffffff16036109bf575f6040517f96c6fd1e0000000000000000000000000000000000000000000000000000000081526004016109b691906116cb565b60405180910390fd5b5f73ffffffffffffffffffffffffffffffffffffffff168273ffffffffffffffffffffffffffffffffffffffff1603610a2f575f6040517fec442f05000000000000000000000000000000000000000000000000000000008152600401610a2691906116cb565b60405180910390fd5b610a3a838383610d58565b505050565b610a476108a3565b73ffffffffffffffffffffffffffffffffffffffff16610a65610546565b73ffffffffffffffffffffffffffffffffffffffff1614610ac457610a886108a3565b6040517f118cdaa7000000000000000000000000000000000000000000000000000000008152600401610abb91906116cb565b60405180910390fd5b565b5f60055f9054906101000a900473ffffffffffffffffffffffffffffffffffffffff1690508160055f6101000a81548173ffffffffffffffffffffffffffffffffffffffff021916908373ffffffffffffffffffffffffffffffffffffffff1602179055508173ffffffffffffffffffffffffffffffffffffffff168173ffffffffffffffffffffffffffffffffffffffff167f8be0079c531659141344cd1fd0a4f28419497f9722a3daafe3b4186f6b6457e060405160405180910390a35050565b5f73ffffffffffffffffffffffffffffffffffffffff168473ffffffffffffffffffffffffffffffffffffffff1603610bf9575f6040517fe602df05000000000000000000000000000000000000000000000000000000008152600401610bf091906116cb565b60405180910390fd5b5f73ffffffffffffffffffffffffffffffffffffffff168373ffffffffffffffffffffffffffffffffffffffff1603610c69575f6040517f94280d62000000000000000000000000000000000000000000000000000000008152600401610c6091906116cb565b60405180910390fd5b8160015f8673ffffffffffffffffffffffffffffffffffffffff1673ffffffffffffffffffffffffffffffffffffffff1681526020019081526020015f205f8573ffffffffffffffffffffffffffffffffffffffff1673ffffffffffffffffffffffffffffffffffffffff1681526020019081526020015f20819055508015610d52578273ffffffffffffffffffffffffffffffffffffffff168473ffffffffffffffffffffffffffffffffffffffff167f8c5be1e5ebec7d5bd14f71427d1e84f3dd0314c0f7b2291e5b200ac8c7c3b92584604051610d499190611653565b60405180910390a35b50505050565b600860149054906101000a900460ff1615610d7d57610d78838383611057565b611052565b5f73ffffffffffffffffffffffffffffffffffffffff168373ffffffffffffffffffffffffffffffffffffffff161480610de257505f73ffffffffffffffffffffffffffffffffffffffff168273ffffffffffffffffffffffffffffffffffffffff16145b15610df757610df2838383611057565b611052565b60095f8473ffffffffffffffffffffffffffffffffffffffff1673ffffffffffffffffffffffffffffffffffffffff1681526020019081526020015f205f9054906101000a900460ff1680610e92575060095f8373ffffffffffffffffffffffffffffffffffffffff1673ffffffffffffffffffffffffffffffffffffffff1681526020019081526020015f205f9054906101000a900460ff165b15610ea757610ea2838383611057565b611052565b5f60075f9054906101000a900473ffffffffffffffffffffffffffffffffffffffff1673ffffffffffffffffffffffffffffffffffffffff168473ffffffffffffffffffffffffffffffffffffffff161490505f60075f9054906101000a900473ffffffffffffffffffffffffffffffffffffffff1673ffffffffffffffffffffffffffffffffffffffff168473ffffffffffffffffffffffffffffffffffffffff161490508115610f8e576040517f08c379a0000000000000000000000000000000000000000000000000000000008152600401610f8590611939565b60405180910390fd5b8015611044575f6064600585610fa49190611984565b610fae91906119f2565b9050610fbb863083611057565b610fe68160085f9054906101000a900473ffffffffffffffffffffffffffffffffffffffff16611270565b5f8185610ff39190611a22565b9050611000878783611057565b7f0edcb2d0eda5bf0f46ac6de66f9e91dd449e0a30cffbfdbca261e9234cf846cf878684604051611033939291906118ba565b60405180910390a150505050611052565b61104f858585611057565b50505b505050565b5f73ffffffffffffffffffffffffffffffffffffffff168373ffffffffffffffffffffffffffffffffffffffff16036110a7578060025f82825461109b9190611a55565b92505081905550611175565b5f5f5f8573ffffffffffffffffffffffffffffffffffffffff1673ffffffffffffffffffffffffffffffffffffffff1681526020019081526020015f2054905081811015611130578381836040517fe450d38c000000000000000000000000000000000000000000000000000000008152600401611127939291906118ba565b60405180910390fd5b8181035f5f8673ffffffffffffffffffffffffffffffffffffffff1673ffffffffffffffffffffffffffffffffffffffff1681526020019081526020015f2081905550505b5f73ffffffffffffffffffffffffffffffffffffffff168273ffffffffffffffffffffffffffffffffffffffff16036111bc578060025f8282540392505081905550611206565b805f5f8473ffffffffffffffffffffffffffffffffffffffff1673ffffffffffffffffffffffffffffffffffffffff1681526020019081526020015f205f82825401925050819055505b8173ffffffffffffffffffffffffffffffffffffffff168373ffffffffffffffffffffffffffffffffffffffff167fddf252ad1be2c89b69c2b068fc378daa952ba7f163c4a11628f55a4df523b3ef836040516112639190611653565b60405180910390a3505050565b5f8203156114ae576001600860146101000a81548160ff0219169083151502179055505f600267ffffffffffffffff8111156112af576112ae611a88565b5b6040519080825280602002602001820160405280156112dd5781602001602082028036833780820191505090505b50905030815f815181106112f4576112f3611ab5565b5b602002602001019073ffffffffffffffffffffffffffffffffffffffff16908173ffffffffffffffffffffffffffffffffffffffff16815250507355d398326f99059ff775485246999027b31979558160018151811061135757611356611ab5565b5b602002602001019073ffffffffffffffffffffffffffffffffffffffff16908173ffffffffffffffffffffffffffffffffffffffff16815250506113bd3060065f9054906101000a900473ffffffffffffffffffffffffffffffffffffffff16856108aa565b60065f9054906101000a900473ffffffffffffffffffffffffffffffffffffffff1673ffffffffffffffffffffffffffffffffffffffff16635c11d795845f8486601e4261140b9190611a55565b6040518663ffffffff1660e01b815260040161142b959493929190611bd2565b5f604051808303815f87803b158015611442575f5ffd5b505af1925050508015611453575060015b15611492577faedb4dc54dc30d46d331ffcc44cd836607bea96c12e1b21a95210ed899184d048284604051611489929190611c2a565b60405180910390a15b5f600860146101000a81548160ff021916908315150217905550505b5050565b5f81519050919050565b5f82825260208201905092915050565b8281835e5f83830152505050565b5f601f19601f8301169050919050565b5f6114f4826114b2565b6114fe81856114bc565b935061150e8185602086016114cc565b611517816114da565b840191505092915050565b5f6020820190508181035f83015261153a81846114ea565b905092915050565b5f5ffd5b5f73ffffffffffffffffffffffffffffffffffffffff82169050919050565b5f61156f82611546565b9050919050565b61157f81611565565b8114611589575f5ffd5b50565b5f8135905061159a81611576565b92915050565b5f819050919050565b6115b2816115a0565b81146115bc575f5ffd5b50565b5f813590506115cd816115a9565b92915050565b5f5f604083850312156115e9576115e8611542565b5b5f6115f68582860161158c565b9250506020611607858286016115bf565b9150509250929050565b5f8115159050919050565b61162581611611565b82525050565b5f60208201905061163e5f83018461161c565b92915050565b61164d816115a0565b82525050565b5f6020820190506116665f830184611644565b92915050565b5f5f5f6060848603121561168357611682611542565b5b5f6116908682870161158c565b93505060206116a18682870161158c565b92505060406116b2868287016115bf565b9150509250925092565b6116c581611565565b82525050565b5f6020820190506116de5f8301846116bc565b92915050565b5f60ff82169050919050565b6116f9816116e4565b82525050565b5f6020820190506117125f8301846116f0565b92915050565b5f6020828403121561172d5761172c611542565b5b5f61173a8482850161158c565b91505092915050565b61174c81611611565b8114611756575f5ffd5b50565b5f8135905061176781611743565b92915050565b5f5f6040838503121561178357611782611542565b5b5f6117908582860161158c565b92505060206117a185828601611759565b9150509250929050565b5f819050919050565b5f6117ce6117c96117c484611546565b6117ab565b611546565b9050919050565b5f6117df826117b4565b9050919050565b5f6117f0826117d5565b9050919050565b611800816117e6565b82525050565b5f6020820190506118195f8301846117f7565b92915050565b5f5f6040838503121561183557611834611542565b5b5f6118428582860161158c565b92505060206118538582860161158c565b9150509250929050565b7f4e487b71000000000000000000000000000000000000000000000000000000005f52602260045260245ffd5b5f60028204905060018216806118a157607f821691505b6020821081036118b4576118b361185d565b5b50919050565b5f6060820190506118cd5f8301866116bc565b6118da6020830185611644565b6118e76040830184611644565b949350505050565b7f4255595f4e4f545f414c4c4f57454400000000000000000000000000000000005f82015250565b5f611923600f836114bc565b915061192e826118ef565b602082019050919050565b5f6020820190508181035f83015261195081611917565b9050919050565b7f4e487b71000000000000000000000000000000000000000000000000000000005f52601160045260245ffd5b5f61198e826115a0565b9150611999836115a0565b92508282026119a7816115a0565b915082820484148315176119be576119bd611957565b5b5092915050565b7f4e487b71000000000000000000000000000000000000000000000000000000005f52601260045260245ffd5b5f6119fc826115a0565b9150611a07836115a0565b925082611a1757611a166119c5565b5b828204905092915050565b5f611a2c826115a0565b9150611a37836115a0565b9250828203905081811115611a4f57611a4e611957565b5b92915050565b5f611a5f826115a0565b9150611a6a836115a0565b9250828201905080821115611a8257611a81611957565b5b92915050565b7f4e487b71000000000000000000000000000000000000000000000000000000005f52604160045260245ffd5b7f4e487b71000000000000000000000000000000000000000000000000000000005f52603260045260245ffd5b5f819050919050565b5f611b05611b00611afb84611ae2565b6117ab565b6115a0565b9050919050565b611b1581611aeb565b82525050565b5f81519050919050565b5f82825260208201905092915050565b5f819050602082019050919050565b611b4d81611565565b82525050565b5f611b5e8383611b44565b60208301905092915050565b5f602082019050919050565b5f611b8082611b1b565b611b8a8185611b25565b9350611b9583611b35565b805f5b83811015611bc5578151611bac8882611b53565b9750611bb783611b6a565b925050600181019050611b98565b5085935050505092915050565b5f60a082019050611be55f830188611644565b611bf26020830187611b0c565b8181036040830152611c048186611b76565b9050611c1360608301856116bc565b611c206080830184611644565b9695505050505050565b5f604082019050611c3d5f8301856116bc565b611c4a6020830184611644565b939250505056fea26469706673582212201daa10841c31b89cd545a2e4412c1c7c7063be8085e44be746e69f9426d52eb864736f6c634300081e0033","linkReferences":{}},"methodIdentifiers":{"SELL_RATE()":"f21c4da4","USDT()":"c54e44eb","allowance(address,address)":"dd62ed3e","allowlist(address)":"a7cd52cb","approve(address,uint256)":"095ea7b3","balanceOf(address)":"70a08231","decimals()":"313ce567","name()":"06fdde03","owner()":"8da5cb5b","pancakePair()":"b8c9d25c","pancakeRouter()":"c21ebd07","renounceOwnership()":"715018a6","sellFee()":"2b14ca56","setAddrs(address)":"b0d179a5","setAllowlist(address,bool)":"b12527f8","symbol()":"95d89b41","totalSupply()":"18160ddd","transfer(address,uint256)":"a9059cbb","transferFrom(address,address,uint256)":"23b872dd","transferOwnership(address)":"f2fde38b"},"id":39}