{"abi":[{"type":"receive","stateMutability":"payable"},{"type":"function","name":"UPGRADE_INTERFACE_VERSION","inputs":[],"outputs":[{"name":"","type":"string","internalType":"string"}],"stateMutability":"view"},{"type":"function","name":"addIdentity","inputs":[{"name":"addrs","type":"address[]","internalType":"address[]"},{"name":"identity","type":"uint8","internalType":"enum Staking.IdentityType"}],"outputs":[],"stateMutability":"nonpayable"},{"type":"function","name":"admin","inputs":[],"outputs":[{"name":"","type":"address","internalType":"address"}],"stateMutability":"view"},{"type":"function","name":"cessToken","inputs":[],"outputs":[{"name":"","type":"address","internalType":"address"}],"stateMutability":"view"},{"type":"function","name":"cfunToken","inputs":[],"outputs":[{"name":"","type":"address","internalType":"address"}],"stateMutability":"view"},{"type":"function","name":"directReferrers","inputs":[{"name":"","type":"address","internalType":"address"},{"name":"","type":"uint256","internalType":"uint256"}],"outputs":[{"name":"","type":"address","internalType":"address"}],"stateMutability":"view"},{"type":"function","name":"identityInfo","inputs":[{"name":"","type":"address","internalType":"address"}],"outputs":[{"name":"","type":"uint8","internalType":"enum Staking.IdentityType"}],"stateMutability":"view"},{"type":"function","name":"initialize","inputs":[{"name":"_cessToken","type":"address","internalType":"address"},{"name":"_cfunToken","type":"address","internalType":"address"},{"name":"_admin","type":"address","internalType":"address"}],"outputs":[],"stateMutability":"nonpayable"},{"type":"function","name":"nextOrderId","inputs":[],"outputs":[{"name":"","type":"uint256","internalType":"uint256"}],"stateMutability":"view"},{"type":"function","name":"owner","inputs":[],"outputs":[{"name":"","type":"address","internalType":"address"}],"stateMutability":"view"},{"type":"function","name":"proxiableUUID","inputs":[],"outputs":[{"name":"","type":"bytes32","internalType":"bytes32"}],"stateMutability":"view"},{"type":"function","name":"renounceOwnership","inputs":[],"outputs":[],"stateMutability":"nonpayable"},{"type":"function","name":"stakingOrderInfo","inputs":[{"name":"","type":"uint256","internalType":"uint256"}],"outputs":[{"name":"holder","type":"address","internalType":"address"},{"name":"cessAmount","type":"uint256","internalType":"uint256"},{"name":"stakingTime","type":"uint256","internalType":"uint256"},{"name":"withdrawnEarnings","type":"uint256","internalType":"uint256"},{"name":"extracted","type":"bool","internalType":"bool"}],"stateMutability":"view"},{"type":"function","name":"stakingOrdersIds","inputs":[{"name":"","type":"address","internalType":"address"},{"name":"","type":"uint256","internalType":"uint256"}],"outputs":[{"name":"","type":"uint256","internalType":"uint256"}],"stateMutability":"view"},{"type":"function","name":"transferOwnership","inputs":[{"name":"newOwner","type":"address","internalType":"address"}],"outputs":[],"stateMutability":"nonpayable"},{"type":"function","name":"upgradeToAndCall","inputs":[{"name":"newImplementation","type":"address","internalType":"address"},{"name":"data","type":"bytes","internalType":"bytes"}],"outputs":[],"stateMutability":"payable"},{"type":"event","name":"Claim","inputs":[{"name":"holder","type":"address","indexed":false,"internalType":"address"},{"name":"bonus","type":"uint8","indexed":false,"internalType":"enum Staking.BonusType"},{"name":"time","type":"uint256","indexed":false,"internalType":"uint256"}],"anonymous":false},{"type":"event","name":"Initialized","inputs":[{"name":"version","type":"uint64","indexed":false,"internalType":"uint64"}],"anonymous":false},{"type":"event","name":"OwnershipTransferred","inputs":[{"name":"previousOwner","type":"address","indexed":true,"internalType":"address"},{"name":"newOwner","type":"address","indexed":true,"internalType":"address"}],"anonymous":false},{"type":"event","name":"Referrer","inputs":[{"name":"inviter","type":"address","indexed":false,"internalType":"address"},{"name":"invitees","type":"address","indexed":false,"internalType":"address"},{"name":"time","type":"uint256","indexed":false,"internalType":"uint256"}],"anonymous":false},{"type":"event","name":"Stake","inputs":[{"name":"orderId","type":"uint256","indexed":false,"internalType":"uint256"},{"name":"holder","type":"address","indexed":false,"internalType":"address"},{"name":"amount","type":"uint256","indexed":false,"internalType":"uint256"},{"name":"identity","type":"uint8","indexed":false,"internalType":"enum Staking.IdentityType"},{"name":"time","type":"uint256","indexed":false,"internalType":"uint256"}],"anonymous":false},{"type":"event","name":"Upgraded","inputs":[{"name":"implementation","type":"address","indexed":true,"internalType":"address"}],"anonymous":false},{"type":"error","name":"AddressEmptyCode","inputs":[{"name":"target","type":"address","internalType":"address"}]},{"type":"error","name":"ERC1967InvalidImplementation","inputs":[{"name":"implementation","type":"address","internalType":"address"}]},{"type":"error","name":"ERC1967NonPayable","inputs":[]},{"type":"error","name":"FailedCall","inputs":[]},{"type":"error","name":"InvalidInitialization","inputs":[]},{"type":"error","name":"NotInitializing","inputs":[]},{"type":"error","name":"OwnableInvalidOwner","inputs":[{"name":"owner","type":"address","internalType":"address"}]},{"type":"error","name":"OwnableUnauthorizedAccount","inputs":[{"name":"account","type":"address","internalType":"address"}]},{"type":"error","name":"ReentrancyGuardReentrantCall","inputs":[]},{"type":"error","name":"UUPSUnauthorizedCallContext","inputs":[]},{"type":"error","name":"UUPSUnsupportedProxiableUUID","inputs":[{"name":"slot","type":"bytes32","internalType":"bytes32"}]}],"bytecode":{"object":"0x60a06040523073ffffffffffffffffffffffffffffffffffffffff1660809073ffffffffffffffffffffffffffffffffffffffff168152503480156041575f5ffd5b5060015f8190555060805161196061006f5f395f818161098e015281816109e30152610b9d01526119605ff3fe6080604052600436106100f6575f3560e01c80638da5cb5b11610089578063dbc27f3711610058578063dbc27f371461030f578063efe2a60e14610337578063f2fde38b14610373578063f851a4401461039b576100fd565b80638da5cb5b14610253578063ad3cb1cc1461027d578063bb8498cf146102a7578063c0c53b8b146102e7576100fd565b806352d1902d116100c557806352d1902d146101ad57806364d4508a146101d7578063715018a61461020157806374d26e1214610217576100fd565b806316dace35146101015780632a58b3301461013d5780634f1ef2861461016757806351d7e36d14610183576100fd565b366100fd57005b5f5ffd5b34801561010c575f5ffd5b5061012760048036038101906101229190611291565b6103c5565b60405161013491906112de565b60405180910390f35b348015610148575f5ffd5b5061015161040d565b60405161015e9190611306565b60405180910390f35b610181600480360381019061017c919061145b565b610413565b005b34801561018e575f5ffd5b50610197610432565b6040516101a491906112de565b60405180910390f35b3480156101b8575f5ffd5b506101c1610457565b6040516101ce91906114cd565b60405180910390f35b3480156101e2575f5ffd5b506101eb610488565b6040516101f891906112de565b60405180910390f35b34801561020c575f5ffd5b506102156104ad565b005b348015610222575f5ffd5b5061023d60048036038101906102389190611291565b6104c0565b60405161024a9190611306565b60405180910390f35b34801561025e575f5ffd5b506102676104eb565b60405161027491906112de565b60405180910390f35b348015610288575f5ffd5b50610291610520565b60405161029e9190611546565b60405180910390f35b3480156102b2575f5ffd5b506102cd60048036038101906102c89190611566565b610559565b6040516102de9594939291906115ab565b60405180910390f35b3480156102f2575f5ffd5b5061030d600480360381019061030891906115fc565b6105b6565b005b34801561031a575f5ffd5b50610335600480360381019061033091906116cc565b610810565b005b348015610342575f5ffd5b5061035d60048036038101906103589190611729565b6108c6565b60405161036a91906117c7565b60405180910390f35b34801561037e575f5ffd5b5061039960048036038101906103949190611729565b6108e3565b005b3480156103a6575f5ffd5b506103af610967565b6040516103bc91906112de565b60405180910390f35b6003602052815f5260405f2081815481106103de575f80fd5b905f5260205f20015f915091509054906101000a900473ffffffffffffffffffffffffffffffffffffffff1681565b60085481565b61041b61098c565b61042482610a72565b61042e8282610a7d565b5050565b60055f9054906101000a900473ffffffffffffffffffffffffffffffffffffffff1681565b5f610460610b9b565b7f360894a13ba1a3210667c828492db98dca3e2076cc3735a920a3ca505d382bbc5f1b905090565b60065f9054906101000a900473ffffffffffffffffffffffffffffffffffffffff1681565b6104b5610c22565b6104be5f610ca9565b565b6002602052815f5260405f2081815481106104d9575f80fd5b905f5260205f20015f91509150505481565b5f5f6104f5610d7a565b9050805f015f9054906101000a900473ffffffffffffffffffffffffffffffffffffffff1691505090565b6040518060400160405280600581526020017f352e302e3000000000000000000000000000000000000000000000000000000081525081565b6001602052805f5260405f205f91509050805f015f9054906101000a900473ffffffffffffffffffffffffffffffffffffffff1690806001015490806002015490806003015490806004015f9054906101000a900460ff16905085565b5f6105bf610da1565b90505f815f0160089054906101000a900460ff161590505f825f015f9054906101000a900467ffffffffffffffff1690505f5f8267ffffffffffffffff161480156106075750825b90505f60018367ffffffffffffffff1614801561063a57505f3073ffffffffffffffffffffffffffffffffffffffff163b145b905081158015610648575080155b1561067f576040517ff92ee8a900000000000000000000000000000000000000000000000000000000815260040160405180910390fd5b6001855f015f6101000a81548167ffffffffffffffff021916908367ffffffffffffffff16021790555083156106cc576001855f0160086101000a81548160ff0219169083151502179055505b6106dc6106d7610db4565b610dbb565b6106e4610e3f565b8760055f6101000a81548173ffffffffffffffffffffffffffffffffffffffff021916908373ffffffffffffffffffffffffffffffffffffffff1602179055508660065f6101000a81548173ffffffffffffffffffffffffffffffffffffffff021916908373ffffffffffffffffffffffffffffffffffffffff1602179055508560075f6101000a81548173ffffffffffffffffffffffffffffffffffffffff021916908373ffffffffffffffffffffffffffffffffffffffff16021790555060016008819055508315610806575f855f0160086101000a81548160ff0219169083151502179055507fc7f505b2f371ae2175ee4913f4499e1f2633a7b5936321eed1cdaeb6115181d260016040516107fd9190611835565b60405180910390a15b5050505050505050565b610818610c22565b5f5f90505b838390508110156108c0578160045f86868581811061083f5761083e61184e565b5b90506020020160208101906108549190611729565b73ffffffffffffffffffffffffffffffffffffffff1673ffffffffffffffffffffffffffffffffffffffff1681526020019081526020015f205f6101000a81548160ff021916908360038111156108ae576108ad611754565b5b0217905550808060010191505061081d565b50505050565b6004602052805f5260405f205f915054906101000a900460ff1681565b6108eb610c22565b5f73ffffffffffffffffffffffffffffffffffffffff168173ffffffffffffffffffffffffffffffffffffffff160361095b575f6040517f1e4fbdf700000000000000000000000000000000000000000000000000000000815260040161095291906112de565b60405180910390fd5b61096481610ca9565b50565b60075f9054906101000a900473ffffffffffffffffffffffffffffffffffffffff1681565b7f000000000000000000000000000000000000000000000000000000000000000073ffffffffffffffffffffffffffffffffffffffff163073ffffffffffffffffffffffffffffffffffffffff161480610a3957507f000000000000000000000000000000000000000000000000000000000000000073ffffffffffffffffffffffffffffffffffffffff16610a20610e49565b73ffffffffffffffffffffffffffffffffffffffff1614155b15610a70576040517fe07c8dba00000000000000000000000000000000000000000000000000000000815260040160405180910390fd5b565b610a7a610c22565b50565b8173ffffffffffffffffffffffffffffffffffffffff166352d1902d6040518163ffffffff1660e01b8152600401602060405180830381865afa925050508015610ae557506040513d601f19601f82011682018060405250810190610ae291906118a5565b60015b610b2657816040517f4c9c8ce3000000000000000000000000000000000000000000000000000000008152600401610b1d91906112de565b60405180910390fd5b7f360894a13ba1a3210667c828492db98dca3e2076cc3735a920a3ca505d382bbc5f1b8114610b8c57806040517faa1d49a4000000000000000000000000000000000000000000000000000000008152600401610b8391906114cd565b60405180910390fd5b610b968383610e9c565b505050565b7f000000000000000000000000000000000000000000000000000000000000000073ffffffffffffffffffffffffffffffffffffffff163073ffffffffffffffffffffffffffffffffffffffff1614610c20576040517fe07c8dba00000000000000000000000000000000000000000000000000000000815260040160405180910390fd5b565b610c2a610db4565b73ffffffffffffffffffffffffffffffffffffffff16610c486104eb565b73ffffffffffffffffffffffffffffffffffffffff1614610ca757610c6b610db4565b6040517f118cdaa7000000000000000000000000000000000000000000000000000000008152600401610c9e91906112de565b60405180910390fd5b565b5f610cb2610d7a565b90505f815f015f9054906101000a900473ffffffffffffffffffffffffffffffffffffffff16905082825f015f6101000a81548173ffffffffffffffffffffffffffffffffffffffff021916908373ffffffffffffffffffffffffffffffffffffffff1602179055508273ffffffffffffffffffffffffffffffffffffffff168173ffffffffffffffffffffffffffffffffffffffff167f8be0079c531659141344cd1fd0a4f28419497f9722a3daafe3b4186f6b6457e060405160405180910390a3505050565b5f7f9016d09d72d40fdae2fd8ceac6b6234c7706214fd39c1cd1e609a0528c199300905090565b5f5f610dab610f0e565b90508091505090565b5f33905090565b610dc3610f37565b5f73ffffffffffffffffffffffffffffffffffffffff168173ffffffffffffffffffffffffffffffffffffffff1603610e33575f6040517f1e4fbdf7000000000000000000000000000000000000000000000000000000008152600401610e2a91906112de565b60405180910390fd5b610e3c81610ca9565b50565b610e47610f37565b565b5f610e757f360894a13ba1a3210667c828492db98dca3e2076cc3735a920a3ca505d382bbc5f1b610f77565b5f015f9054906101000a900473ffffffffffffffffffffffffffffffffffffffff16905090565b610ea582610f80565b8173ffffffffffffffffffffffffffffffffffffffff167fbc7cd75a20ee27fd9adebab32041f755214dbc6bffa90cc0225b39da2e5c2d3b60405160405180910390a25f81511115610f0157610efb8282611049565b50610f0a565b610f096110c9565b5b5050565b5f7ff0c57e16840df040f15088dc2f81fe391c3923bec73e23a9662efc9c229c6a005f1b905090565b610f3f611105565b610f75576040517fd7e6bcf800000000000000000000000000000000000000000000000000000000815260040160405180910390fd5b565b5f819050919050565b5f8173ffffffffffffffffffffffffffffffffffffffff163b03610fdb57806040517f4c9c8ce3000000000000000000000000000000000000000000000000000000008152600401610fd291906112de565b60405180910390fd5b806110077f360894a13ba1a3210667c828492db98dca3e2076cc3735a920a3ca505d382bbc5f1b610f77565b5f015f6101000a81548173ffffffffffffffffffffffffffffffffffffffff021916908373ffffffffffffffffffffffffffffffffffffffff16021790555050565b60605f5f8473ffffffffffffffffffffffffffffffffffffffff16846040516110729190611914565b5f60405180830381855af49150503d805f81146110aa576040519150601f19603f3d011682016040523d82523d5f602084013e6110af565b606091505b50915091506110bf858383611123565b9250505092915050565b5f341115611103576040517fb398979f00000000000000000000000000000000000000000000000000000000815260040160405180910390fd5b565b5f61110e610da1565b5f0160089054906101000a900460ff16905090565b60608261113857611133826111b0565b6111a8565b5f825114801561115e57505f8473ffffffffffffffffffffffffffffffffffffffff163b145b156111a057836040517f9996b31500000000000000000000000000000000000000000000000000000000815260040161119791906112de565b60405180910390fd5b8190506111a9565b5b9392505050565b5f815111156111c157805160208201fd5b6040517fd6bda27500000000000000000000000000000000000000000000000000000000815260040160405180910390fd5b5f604051905090565b5f5ffd5b5f5ffd5b5f73ffffffffffffffffffffffffffffffffffffffff82169050919050565b5f61122d82611204565b9050919050565b61123d81611223565b8114611247575f5ffd5b50565b5f8135905061125881611234565b92915050565b5f819050919050565b6112708161125e565b811461127a575f5ffd5b50565b5f8135905061128b81611267565b92915050565b5f5f604083850312156112a7576112a66111fc565b5b5f6112b48582860161124a565b92505060206112c58582860161127d565b9150509250929050565b6112d881611223565b82525050565b5f6020820190506112f15f8301846112cf565b92915050565b6113008161125e565b82525050565b5f6020820190506113195f8301846112f7565b92915050565b5f5ffd5b5f5ffd5b5f601f19601f8301169050919050565b7f4e487b71000000000000000000000000000000000000000000000000000000005f52604160045260245ffd5b61136d82611327565b810181811067ffffffffffffffff8211171561138c5761138b611337565b5b80604052505050565b5f61139e6111f3565b90506113aa8282611364565b919050565b5f67ffffffffffffffff8211156113c9576113c8611337565b5b6113d282611327565b9050602081019050919050565b828183375f83830152505050565b5f6113ff6113fa846113af565b611395565b90508281526020810184848401111561141b5761141a611323565b5b6114268482856113df565b509392505050565b5f82601f8301126114425761144161131f565b5b81356114528482602086016113ed565b91505092915050565b5f5f60408385031215611471576114706111fc565b5b5f61147e8582860161124a565b925050602083013567ffffffffffffffff81111561149f5761149e611200565b5b6114ab8582860161142e565b9150509250929050565b5f819050919050565b6114c7816114b5565b82525050565b5f6020820190506114e05f8301846114be565b92915050565b5f81519050919050565b5f82825260208201905092915050565b8281835e5f83830152505050565b5f611518826114e6565b61152281856114f0565b9350611532818560208601611500565b61153b81611327565b840191505092915050565b5f6020820190508181035f83015261155e818461150e565b905092915050565b5f6020828403121561157b5761157a6111fc565b5b5f6115888482850161127d565b91505092915050565b5f8115159050919050565b6115a581611591565b82525050565b5f60a0820190506115be5f8301886112cf565b6115cb60208301876112f7565b6115d860408301866112f7565b6115e560608301856112f7565b6115f2608083018461159c565b9695505050505050565b5f5f5f60608486031215611613576116126111fc565b5b5f6116208682870161124a565b93505060206116318682870161124a565b92505060406116428682870161124a565b9150509250925092565b5f5ffd5b5f5ffd5b5f5f83601f8401126116695761166861131f565b5b8235905067ffffffffffffffff8111156116865761168561164c565b5b6020830191508360208202830111156116a2576116a1611650565b5b9250929050565b600481106116b5575f5ffd5b50565b5f813590506116c6816116a9565b92915050565b5f5f5f604084860312156116e3576116e26111fc565b5b5f84013567ffffffffffffffff811115611700576116ff611200565b5b61170c86828701611654565b9350935050602061171f868287016116b8565b9150509250925092565b5f6020828403121561173e5761173d6111fc565b5b5f61174b8482850161124a565b91505092915050565b7f4e487b71000000000000000000000000000000000000000000000000000000005f52602160045260245ffd5b6004811061179257611791611754565b5b50565b5f8190506117a282611781565b919050565b5f6117b182611795565b9050919050565b6117c1816117a7565b82525050565b5f6020820190506117da5f8301846117b8565b92915050565b5f819050919050565b5f67ffffffffffffffff82169050919050565b5f819050919050565b5f61181f61181a611815846117e0565b6117fc565b6117e9565b9050919050565b61182f81611805565b82525050565b5f6020820190506118485f830184611826565b92915050565b7f4e487b71000000000000000000000000000000000000000000000000000000005f52603260045260245ffd5b611884816114b5565b811461188e575f5ffd5b50565b5f8151905061189f8161187b565b92915050565b5f602082840312156118ba576118b96111fc565b5b5f6118c784828501611891565b91505092915050565b5f81519050919050565b5f81905092915050565b5f6118ee826118d0565b6118f881856118da565b9350611908818560208601611500565b80840191505092915050565b5f61191f82846118e4565b91508190509291505056fea26469706673582212209df85866fa1870951ff74ffbdd16e3cadb99b835ae69c2f29cd74eaae4df6d8d64736f6c634300081e0033","linkReferences":{}},"methodIdentifiers":{"UPGRADE_INTERFACE_VERSION()":"ad3cb1cc","addIdentity(address[],uint8)":"dbc27f37","admin()":"f851a440","cessToken()":"51d7e36d","cfunToken()":"64d4508a","directReferrers(address,uint256)":"16dace35","identityInfo(address)":"efe2a60e","initialize(address,address,address)":"c0c53b8b","nextOrderId()":"2a58b330","owner()":"8da5cb5b","proxiableUUID()":"52d1902d","renounceOwnership()":"715018a6","stakingOrderInfo(uint256)":"bb8498cf","stakingOrdersIds(address,uint256)":"74d26e12","transferOwnership(address)":"f2fde38b","upgradeToAndCall(address,bytes)":"4f1ef286"},"id":38}