{"abi":[{"type":"receive","stateMutability":"payable"},{"type":"function","name":"MIN_STAKE","inputs":[],"outputs":[{"name":"","type":"uint256","internalType":"uint256"}],"stateMutability":"view"},{"type":"function","name":"SIGN_TYPEHASH","inputs":[],"outputs":[{"name":"","type":"bytes32","internalType":"bytes32"}],"stateMutability":"view"},{"type":"function","name":"UPGRADE_INTERFACE_VERSION","inputs":[],"outputs":[{"name":"","type":"string","internalType":"string"}],"stateMutability":"view"},{"type":"function","name":"addIdentity","inputs":[{"name":"addrs","type":"address[]","internalType":"address[]"},{"name":"identity","type":"uint8","internalType":"enum IStaking.Identity"}],"outputs":[],"stateMutability":"nonpayable"},{"type":"function","name":"admin","inputs":[],"outputs":[{"name":"","type":"address","internalType":"address"}],"stateMutability":"view"},{"type":"function","name":"cessToken","inputs":[],"outputs":[{"name":"","type":"address","internalType":"address"}],"stateMutability":"view"},{"type":"function","name":"cfunToken","inputs":[],"outputs":[{"name":"","type":"address","internalType":"address"}],"stateMutability":"view"},{"type":"function","name":"checkerSignMsgSignature","inputs":[{"name":"_msg","type":"tuple","internalType":"struct SignatureInfo.SignMessage","components":[{"name":"mark","type":"string","internalType":"string"},{"name":"token","type":"address","internalType":"address"},{"name":"recipient","type":"address","internalType":"address"},{"name":"amount","type":"uint256","internalType":"uint256"},{"name":"fee","type":"uint256","internalType":"uint256"},{"name":"nonce","type":"uint256","internalType":"uint256"},{"name":"deadline","type":"uint256","internalType":"uint256"},{"name":"v","type":"uint8","internalType":"uint8"},{"name":"r","type":"bytes32","internalType":"bytes32"},{"name":"s","type":"bytes32","internalType":"bytes32"}]}],"outputs":[{"name":"","type":"bool","internalType":"bool"}],"stateMutability":"view"},{"type":"function","name":"eip712Domain","inputs":[],"outputs":[{"name":"fields","type":"bytes1","internalType":"bytes1"},{"name":"name","type":"string","internalType":"string"},{"name":"version","type":"string","internalType":"string"},{"name":"chainId","type":"uint256","internalType":"uint256"},{"name":"verifyingContract","type":"address","internalType":"address"},{"name":"salt","type":"bytes32","internalType":"bytes32"},{"name":"extensions","type":"uint256[]","internalType":"uint256[]"}],"stateMutability":"view"},{"type":"function","name":"emergencyWithdraw","inputs":[],"outputs":[],"stateMutability":"nonpayable"},{"type":"function","name":"getSignMsgHash","inputs":[{"name":"_msg","type":"tuple","internalType":"struct SignatureInfo.SignMessage","components":[{"name":"mark","type":"string","internalType":"string"},{"name":"token","type":"address","internalType":"address"},{"name":"recipient","type":"address","internalType":"address"},{"name":"amount","type":"uint256","internalType":"uint256"},{"name":"fee","type":"uint256","internalType":"uint256"},{"name":"nonce","type":"uint256","internalType":"uint256"},{"name":"deadline","type":"uint256","internalType":"uint256"},{"name":"v","type":"uint8","internalType":"uint8"},{"name":"r","type":"bytes32","internalType":"bytes32"},{"name":"s","type":"bytes32","internalType":"bytes32"}]}],"outputs":[{"name":"","type":"bytes32","internalType":"bytes32"}],"stateMutability":"view"},{"type":"function","name":"identityInfo","inputs":[{"name":"","type":"address","internalType":"address"}],"outputs":[{"name":"","type":"uint8","internalType":"enum IStaking.Identity"}],"stateMutability":"view"},{"type":"function","name":"initialize","inputs":[{"name":"_cessToken","type":"address","internalType":"address"},{"name":"_recipient","type":"address","internalType":"address"},{"name":"_admin","type":"address","internalType":"address"},{"name":"_signer","type":"address","internalType":"address"},{"name":"_addrs","type":"address[]","internalType":"address[]"}],"outputs":[],"stateMutability":"nonpayable"},{"type":"function","name":"isExcuted","inputs":[{"name":"","type":"string","internalType":"string"}],"outputs":[{"name":"","type":"bool","internalType":"bool"}],"stateMutability":"view"},{"type":"function","name":"isStaking","inputs":[{"name":"","type":"address","internalType":"address"}],"outputs":[{"name":"","type":"bool","internalType":"bool"}],"stateMutability":"view"},{"type":"function","name":"lastWithdrawTime","inputs":[{"name":"","type":"address","internalType":"address"}],"outputs":[{"name":"","type":"uint256","internalType":"uint256"}],"stateMutability":"view"},{"type":"function","name":"nonce","inputs":[],"outputs":[{"name":"","type":"uint256","internalType":"uint256"}],"stateMutability":"view"},{"type":"function","name":"owner","inputs":[],"outputs":[{"name":"","type":"address","internalType":"address"}],"stateMutability":"view"},{"type":"function","name":"proxiableUUID","inputs":[],"outputs":[{"name":"","type":"bytes32","internalType":"bytes32"}],"stateMutability":"view"},{"type":"function","name":"recipient","inputs":[],"outputs":[{"name":"","type":"address","internalType":"address"}],"stateMutability":"view"},{"type":"function","name":"renounceOwnership","inputs":[],"outputs":[],"stateMutability":"nonpayable"},{"type":"function","name":"setConfig","inputs":[{"name":"_recipient","type":"address","internalType":"address"},{"name":"_admin","type":"address","internalType":"address"},{"name":"_signer","type":"address","internalType":"address"}],"outputs":[],"stateMutability":"nonpayable"},{"type":"function","name":"setTokenAddr","inputs":[{"name":"_cessToken","type":"address","internalType":"address"},{"name":"_cfunToken","type":"address","internalType":"address"}],"outputs":[],"stateMutability":"nonpayable"},{"type":"function","name":"signer","inputs":[],"outputs":[{"name":"","type":"address","internalType":"address"}],"stateMutability":"view"},{"type":"function","name":"stake","inputs":[{"name":"amount","type":"uint256","internalType":"uint256"}],"outputs":[],"stateMutability":"nonpayable"},{"type":"function","name":"transferOwnership","inputs":[{"name":"newOwner","type":"address","internalType":"address"}],"outputs":[],"stateMutability":"nonpayable"},{"type":"function","name":"upgradeToAndCall","inputs":[{"name":"newImplementation","type":"address","internalType":"address"},{"name":"data","type":"bytes","internalType":"bytes"}],"outputs":[],"stateMutability":"payable"},{"type":"function","name":"withdrawWithSignature","inputs":[{"name":"_msg","type":"tuple","internalType":"struct SignatureInfo.SignMessage","components":[{"name":"mark","type":"string","internalType":"string"},{"name":"token","type":"address","internalType":"address"},{"name":"recipient","type":"address","internalType":"address"},{"name":"amount","type":"uint256","internalType":"uint256"},{"name":"fee","type":"uint256","internalType":"uint256"},{"name":"nonce","type":"uint256","internalType":"uint256"},{"name":"deadline","type":"uint256","internalType":"uint256"},{"name":"v","type":"uint8","internalType":"uint8"},{"name":"r","type":"bytes32","internalType":"bytes32"},{"name":"s","type":"bytes32","internalType":"bytes32"}]}],"outputs":[],"stateMutability":"nonpayable"},{"type":"event","name":"EIP712DomainChanged","inputs":[],"anonymous":false},{"type":"event","name":"Initialized","inputs":[{"name":"version","type":"uint64","indexed":false,"internalType":"uint64"}],"anonymous":false},{"type":"event","name":"OwnershipTransferred","inputs":[{"name":"previousOwner","type":"address","indexed":true,"internalType":"address"},{"name":"newOwner","type":"address","indexed":true,"internalType":"address"}],"anonymous":false},{"type":"event","name":"Stake","inputs":[{"name":"sender","type":"address","indexed":false,"internalType":"address"},{"name":"amount","type":"uint256","indexed":false,"internalType":"uint256"},{"name":"identity","type":"uint8","indexed":false,"internalType":"enum IStaking.Identity"},{"name":"time","type":"uint256","indexed":false,"internalType":"uint256"}],"anonymous":false},{"type":"event","name":"Upgraded","inputs":[{"name":"implementation","type":"address","indexed":true,"internalType":"address"}],"anonymous":false},{"type":"event","name":"Withdraw","inputs":[{"name":"mark","type":"string","indexed":false,"internalType":"string"},{"name":"token","type":"address","indexed":false,"internalType":"address"},{"name":"recipient","type":"address","indexed":false,"internalType":"address"},{"name":"amount","type":"uint256","indexed":false,"internalType":"uint256"},{"name":"fee","type":"uint256","indexed":false,"internalType":"uint256"},{"name":"nonce","type":"uint256","indexed":false,"internalType":"uint256"},{"name":"time","type":"uint256","indexed":false,"internalType":"uint256"}],"anonymous":false},{"type":"error","name":"AddressEmptyCode","inputs":[{"name":"target","type":"address","internalType":"address"}]},{"type":"error","name":"ECDSAInvalidSignature","inputs":[]},{"type":"error","name":"ECDSAInvalidSignatureLength","inputs":[{"name":"length","type":"uint256","internalType":"uint256"}]},{"type":"error","name":"ECDSAInvalidSignatureS","inputs":[{"name":"s","type":"bytes32","internalType":"bytes32"}]},{"type":"error","name":"ERC1967InvalidImplementation","inputs":[{"name":"implementation","type":"address","internalType":"address"}]},{"type":"error","name":"ERC1967NonPayable","inputs":[]},{"type":"error","name":"FailedCall","inputs":[]},{"type":"error","name":"InvalidInitialization","inputs":[]},{"type":"error","name":"NotInitializing","inputs":[]},{"type":"error","name":"OwnableInvalidOwner","inputs":[{"name":"owner","type":"address","internalType":"address"}]},{"type":"error","name":"OwnableUnauthorizedAccount","inputs":[{"name":"account","type":"address","internalType":"address"}]},{"type":"error","name":"ReentrancyGuardReentrantCall","inputs":[]},{"type":"error","name":"UUPSUnauthorizedCallContext","inputs":[]},{"type":"error","name":"UUPSUnsupportedProxiableUUID","inputs":[{"name":"slot","type":"bytes32","internalType":"bytes32"}]}],"bytecode":{"object":"0x60a06040523073ffffffffffffffffffffffffffffffffffffffff1660809073ffffffffffffffffffffffffffffffffffffffff168152503480156041575f5ffd5b5060015f8190555060805161416461006f5f395f8181611b0301528181611b580152611d1201526141645ff3fe6080604052600436106101ba575f3560e01c80637f1d259b116100eb578063db2e21bc11610089578063f2fde38b11610063578063f2fde38b146105d5578063f8453e7c146105fd578063f851a44014610625578063fac62f871461064f576101c1565b8063db2e21bc1461055b578063dbc27f3714610571578063efe2a60e14610599576101c1565b8063a694fc3a116100c5578063a694fc3a146104b5578063ad3cb1cc146104dd578063affed0e014610507578063cb1c2b5c14610531576101c1565b80637f1d259b1461043357806384b0196e1461045b5780638da5cb5b1461048b576101c1565b80634fb7726f1161015857806364d4508a1161013257806364d4508a1461038d57806366d003ac146103b75780636f49712b146103e1578063715018a61461041d576101c1565b80634fb7726f146102fd57806351d7e36d1461033957806352d1902d14610363576101c1565b80632f1d14cb116101945780632f1d14cb146102535780633141e25b1461027d5780634c7303bd146102a55780634f1ef286146102e1576101c1565b806309e00256146101c55780631031ec31146101ed578063238ac93314610229576101c1565b366101c157005b5f5ffd5b3480156101d0575f5ffd5b506101eb60048036038101906101e69190612dd5565b61068b565b005b3480156101f8575f5ffd5b50610213600480360381019061020e9190612e1c565b610ad5565b6040516102209190612e56565b60405180910390f35b348015610234575f5ffd5b5061023d610aea565b60405161024a9190612e7e565b60405180910390f35b34801561025e575f5ffd5b50610267610b0f565b6040516102749190612ea6565b60405180910390f35b348015610288575f5ffd5b506102a3600480360381019061029e9190612ebf565b610b33565b005b3480156102b0575f5ffd5b506102cb60048036038101906102c69190612dd5565b610c00565b6040516102d89190612ea6565b60405180910390f35b6102fb60048036038101906102f69190612fad565b610ca6565b005b348015610308575f5ffd5b50610323600480360381019061031e9190613007565b610cc5565b6040516103309190613068565b60405180910390f35b348015610344575f5ffd5b5061034d610cfa565b60405161035a9190612e7e565b60405180910390f35b34801561036e575f5ffd5b50610377610d1f565b6040516103849190612ea6565b60405180910390f35b348015610398575f5ffd5b506103a1610d50565b6040516103ae9190612e7e565b60405180910390f35b3480156103c2575f5ffd5b506103cb610d75565b6040516103d89190612e7e565b60405180910390f35b3480156103ec575f5ffd5b5061040760048036038101906104029190612e1c565b610d9a565b6040516104149190613068565b60405180910390f35b348015610428575f5ffd5b50610431610db7565b005b34801561043e575f5ffd5b5061045960048036038101906104549190613081565b610dca565b005b348015610466575f5ffd5b5061046f610e56565b6040516104829796959493929190613210565b60405180910390f35b348015610496575f5ffd5b5061049f610f5f565b6040516104ac9190612e7e565b60405180910390f35b3480156104c0575f5ffd5b506104db60048036038101906104d69190613292565b610f94565b005b3480156104e8575f5ffd5b506104f16110eb565b6040516104fe91906132bd565b60405180910390f35b348015610512575f5ffd5b5061051b611124565b6040516105289190612e56565b60405180910390f35b34801561053c575f5ffd5b5061054561112a565b6040516105529190612e56565b60405180910390f35b348015610566575f5ffd5b5061056f611138565b005b34801561057c575f5ffd5b506105976004803603810190610592919061335d565b6113d2565b005b3480156105a4575f5ffd5b506105bf60048036038101906105ba9190612e1c565b611488565b6040516105cc919061342d565b60405180910390f35b3480156105e0575f5ffd5b506105fb60048036038101906105f69190612e1c565b6114a5565b005b348015610608575f5ffd5b50610623600480360381019061061e9190613446565b611529565b005b348015610630575f5ffd5b5061063961183c565b6040516106469190612e7e565b60405180910390f35b34801561065a575f5ffd5b5061067560048036038101906106709190612dd5565b611861565b6040516106829190613068565b60405180910390f35b6106936118e4565b6009548160a00151146106db576040517f08c379a00000000000000000000000000000000000000000000000000000000081526004016106d290613526565b60405180910390fd5b428160c001511015610722576040517f08c379a00000000000000000000000000000000000000000000000000000000081526004016107199061358e565b60405180910390fd5b61072b81611861565b61076a576040517f08c379a0000000000000000000000000000000000000000000000000000000008152600401610761906135f6565b60405180910390fd5b600a5f826040015173ffffffffffffffffffffffffffffffffffffffff1673ffffffffffffffffffffffffffffffffffffffff1681526020019081526020015f205f9054906101000a900460ff1661084a5760015f826040015173ffffffffffffffffffffffffffffffffffffffff1673ffffffffffffffffffffffffffffffffffffffff1681526020019081526020015f205f9054906101000a900460ff16610849576040517f08c379a00000000000000000000000000000000000000000000000000000000081526004016108409061365e565b60405180910390fd5b5b6002815f015160405161085d91906136b6565b90815260200160405180910390205f9054906101000a900460ff16156108b8576040517f08c379a00000000000000000000000000000000000000000000000000000000081526004016108af90613716565b60405180910390fd5b62015180600b5f836040015173ffffffffffffffffffffffffffffffffffffffff1673ffffffffffffffffffffffffffffffffffffffff1681526020019081526020015f20546109089190613761565b42101561094a576040517f08c379a0000000000000000000000000000000000000000000000000000000008152600401610941906137de565b60405180910390fd5b5f73ffffffffffffffffffffffffffffffffffffffff16816020015173ffffffffffffffffffffffffffffffffffffffff16146109da57610998816020015182604001518360600151611928565b5f816080015111156109d9576109d8816020015160065f9054906101000a900473ffffffffffffffffffffffffffffffffffffffff168360800151611928565b5b5b60016002825f01516040516109ef91906136b6565b90815260200160405180910390205f6101000a81548160ff02191690831515021790555060095f815480929190610a25906137fc565b919050555042600b5f836040015173ffffffffffffffffffffffffffffffffffffffff1673ffffffffffffffffffffffffffffffffffffffff1681526020019081526020015f20819055507fd68aaa7e8d58aea5de0fba4e2458f3af4398555134dc58f5999caa807b1ac54c815f015182602001518360400151846060015185608001518660a0015142604051610ac29796959493929190613843565b60405180910390a1610ad2611a58565b50565b600b602052805f5260405f205f915090505481565b60085f9054906101000a900473ffffffffffffffffffffffffffffffffffffffff1681565b7fd078928298736a5369a7f71310cc1aae06828ac5e889a39e30e3fba689a149ea81565b610b3b611a61565b8260065f6101000a81548173ffffffffffffffffffffffffffffffffffffffff021916908373ffffffffffffffffffffffffffffffffffffffff1602179055508160075f6101000a81548173ffffffffffffffffffffffffffffffffffffffff021916908373ffffffffffffffffffffffffffffffffffffffff1602179055508060085f6101000a81548173ffffffffffffffffffffffffffffffffffffffff021916908373ffffffffffffffffffffffffffffffffffffffff160217905550505050565b5f610c9f7fd078928298736a5369a7f71310cc1aae06828ac5e889a39e30e3fba689a149ea835f0151604051602001610c3991906136b6565b6040516020818303038152906040528051906020012084602001518560400151866060015187608001518860a001518960c00151604051602001610c849897969594939291906138b7565b60405160208183030381529060405280519060200120611ae8565b9050919050565b610cae611b01565b610cb782611be7565b610cc18282611bf2565b5050565b6002818051602081018201805184825260208301602085012081835280955050505050505f915054906101000a900460ff1681565b60045f9054906101000a900473ffffffffffffffffffffffffffffffffffffffff1681565b5f610d28611d10565b7f360894a13ba1a3210667c828492db98dca3e2076cc3735a920a3ca505d382bbc5f1b905090565b60055f9054906101000a900473ffffffffffffffffffffffffffffffffffffffff1681565b60065f9054906101000a900473ffffffffffffffffffffffffffffffffffffffff1681565b6001602052805f5260405f205f915054906101000a900460ff1681565b610dbf611a61565b610dc85f611d97565b565b610dd2611a61565b8160045f6101000a81548173ffffffffffffffffffffffffffffffffffffffff021916908373ffffffffffffffffffffffffffffffffffffffff1602179055508060055f6101000a81548173ffffffffffffffffffffffffffffffffffffffff021916908373ffffffffffffffffffffffffffffffffffffffff1602179055505050565b5f6060805f5f5f60605f610e68611e68565b90505f5f1b815f0154148015610e8357505f5f1b8160010154145b610ec2576040517f08c379a0000000000000000000000000000000000000000000000000000000008152600401610eb99061397d565b60405180910390fd5b610eca611e8f565b610ed2611f2d565b46305f5f1b5f67ffffffffffffffff811115610ef157610ef0612aa0565b5b604051908082528060200260200182016040528015610f1f5781602001602082028036833780820191505090505b507f0f0000000000000000000000000000000000000000000000000000000000000095949392919097509750975097509750975097505090919293949596565b5f5f610f69611fcb565b9050805f015f9054906101000a900473ffffffffffffffffffffffffffffffffffffffff1691505090565b69021e19e0c9bab2400000811015610fe1576040517f08c379a0000000000000000000000000000000000000000000000000000000008152600401610fd8906139e5565b60405180910390fd5b61100e60045f9054906101000a900473ffffffffffffffffffffffffffffffffffffffff16333084611ff2565b6001805f3373ffffffffffffffffffffffffffffffffffffffff1673ffffffffffffffffffffffffffffffffffffffff1681526020019081526020015f205f6101000a81548160ff0219169083151502179055507fcdd3573c53d27f67b1a0deddbdb9d8ff02906ead670f7e8a52f4b6a8425dac5f338260035f3373ffffffffffffffffffffffffffffffffffffffff1673ffffffffffffffffffffffffffffffffffffffff1681526020019081526020015f205f9054906101000a900460ff16426040516110e09493929190613a03565b60405180910390a150565b6040518060400160405280600581526020017f352e302e3000000000000000000000000000000000000000000000000000000081525081565b60095481565b69021e19e0c9bab240000081565b6111406118e4565b60075f9054906101000a900473ffffffffffffffffffffffffffffffffffffffff1673ffffffffffffffffffffffffffffffffffffffff163373ffffffffffffffffffffffffffffffffffffffff16146111cf576040517f08c379a00000000000000000000000000000000000000000000000000000000081526004016111c690613a90565b60405180910390fd5b5f60045f9054906101000a900473ffffffffffffffffffffffffffffffffffffffff1673ffffffffffffffffffffffffffffffffffffffff166370a08231306040518263ffffffff1660e01b815260040161122a9190612e7e565b602060405180830381865afa158015611245573d5f5f3e3d5ffd5b505050506040513d601f19601f820116820180604052508101906112699190613ac2565b90505f5f73ffffffffffffffffffffffffffffffffffffffff1660055f9054906101000a900473ffffffffffffffffffffffffffffffffffffffff1673ffffffffffffffffffffffffffffffffffffffff161461135c5760055f9054906101000a900473ffffffffffffffffffffffffffffffffffffffff1673ffffffffffffffffffffffffffffffffffffffff166370a08231306040518263ffffffff1660e01b815260040161131a9190612e7e565b602060405180830381865afa158015611335573d5f5f3e3d5ffd5b505050506040513d601f19601f820116820180604052508101906113599190613ac2565b90505b5f8211156113915761139060045f9054906101000a900473ffffffffffffffffffffffffffffffffffffffff163384611928565b5b5f8111156113c6576113c560055f9054906101000a900473ffffffffffffffffffffffffffffffffffffffff163383611928565b5b50506113d0611a58565b565b6113da611a61565b5f5f90505b83839050811015611482578160035f86868581811061140157611400613aed565b5b90506020020160208101906114169190612e1c565b73ffffffffffffffffffffffffffffffffffffffff1673ffffffffffffffffffffffffffffffffffffffff1681526020019081526020015f205f6101000a81548160ff021916908360038111156114705761146f6133ba565b5b021790555080806001019150506113df565b50505050565b6003602052805f5260405f205f915054906101000a900460ff1681565b6114ad611a61565b5f73ffffffffffffffffffffffffffffffffffffffff168173ffffffffffffffffffffffffffffffffffffffff160361151d575f6040517f1e4fbdf70000000000000000000000000000000000000000000000000000000081526004016115149190612e7e565b60405180910390fd5b61152681611d97565b50565b5f611532612125565b90505f815f0160089054906101000a900460ff161590505f825f015f9054906101000a900467ffffffffffffffff1690505f5f8267ffffffffffffffff1614801561157a5750825b90505f60018367ffffffffffffffff161480156115ad57505f3073ffffffffffffffffffffffffffffffffffffffff163b145b9050811580156115bb575080155b156115f2576040517ff92ee8a900000000000000000000000000000000000000000000000000000000815260040160405180910390fd5b6001855f015f6101000a81548167ffffffffffffffff021916908367ffffffffffffffff160217905550831561163f576001855f0160086101000a81548160ff0219169083151502179055505b6116b36040518060400160405280600781526020017f5374616b696e67000000000000000000000000000000000000000000000000008152506040518060400160405280600181526020017f3100000000000000000000000000000000000000000000000000000000000000815250612138565b6116c36116be612189565b612190565b6116cb612214565b8a60045f6101000a81548173ffffffffffffffffffffffffffffffffffffffff021916908373ffffffffffffffffffffffffffffffffffffffff1602179055508960065f6101000a81548173ffffffffffffffffffffffffffffffffffffffff021916908373ffffffffffffffffffffffffffffffffffffffff1602179055508860075f6101000a81548173ffffffffffffffffffffffffffffffffffffffff021916908373ffffffffffffffffffffffffffffffffffffffff1602179055508760085f6101000a81548173ffffffffffffffffffffffffffffffffffffffff021916908373ffffffffffffffffffffffffffffffffffffffff1602179055506117d5878761221e565b831561182f575f855f0160086101000a81548160ff0219169083151502179055507fc7f505b2f371ae2175ee4913f4499e1f2633a7b5936321eed1cdaeb6115181d260016040516118269190613b6f565b60405180910390a15b5050505050505050505050565b60075f9054906101000a900473ffffffffffffffffffffffffffffffffffffffff1681565b5f5f61186c83610c00565b90505f611889828560e001518661010001518761012001516122bc565b905060085f9054906101000a900473ffffffffffffffffffffffffffffffffffffffff1673ffffffffffffffffffffffffffffffffffffffff168173ffffffffffffffffffffffffffffffffffffffff161492505050919050565b60025f540361191f576040517f3ee5aeb500000000000000000000000000000000000000000000000000000000815260040160405180910390fd5b60025f81905550565b5f5f8473ffffffffffffffffffffffffffffffffffffffff1663a9059cbb8585604051602401611959929190613b88565b6040516020818303038152906040529060e01b6020820180517bffffffffffffffffffffffffffffffffffffffffffffffffffffffff83818316178352505050506040516119a79190613bf3565b5f604051808303815f865af19150503d805f81146119e0576040519150601f19603f3d011682016040523d82523d5f602084013e6119e5565b606091505b5091509150818015611a1257505f81511480611a11575080806020019051810190611a109190613c33565b5b5b611a51576040517f08c379a0000000000000000000000000000000000000000000000000000000008152600401611a4890613ca8565b60405180910390fd5b5050505050565b60015f81905550565b611a69612189565b73ffffffffffffffffffffffffffffffffffffffff16611a87610f5f565b73ffffffffffffffffffffffffffffffffffffffff1614611ae657611aaa612189565b6040517f118cdaa7000000000000000000000000000000000000000000000000000000008152600401611add9190612e7e565b60405180910390fd5b565b5f611afa611af46122ea565b836122f8565b9050919050565b7f000000000000000000000000000000000000000000000000000000000000000073ffffffffffffffffffffffffffffffffffffffff163073ffffffffffffffffffffffffffffffffffffffff161480611bae57507f000000000000000000000000000000000000000000000000000000000000000073ffffffffffffffffffffffffffffffffffffffff16611b95612338565b73ffffffffffffffffffffffffffffffffffffffff1614155b15611be5576040517fe07c8dba00000000000000000000000000000000000000000000000000000000815260040160405180910390fd5b565b611bef611a61565b50565b8173ffffffffffffffffffffffffffffffffffffffff166352d1902d6040518163ffffffff1660e01b8152600401602060405180830381865afa925050508015611c5a57506040513d601f19601f82011682018060405250810190611c579190613cda565b60015b611c9b57816040517f4c9c8ce3000000000000000000000000000000000000000000000000000000008152600401611c929190612e7e565b60405180910390fd5b7f360894a13ba1a3210667c828492db98dca3e2076cc3735a920a3ca505d382bbc5f1b8114611d0157806040517faa1d49a4000000000000000000000000000000000000000000000000000000008152600401611cf89190612ea6565b60405180910390fd5b611d0b838361238b565b505050565b7f000000000000000000000000000000000000000000000000000000000000000073ffffffffffffffffffffffffffffffffffffffff163073ffffffffffffffffffffffffffffffffffffffff1614611d95576040517fe07c8dba00000000000000000000000000000000000000000000000000000000815260040160405180910390fd5b565b5f611da0611fcb565b90505f815f015f9054906101000a900473ffffffffffffffffffffffffffffffffffffffff16905082825f015f6101000a81548173ffffffffffffffffffffffffffffffffffffffff021916908373ffffffffffffffffffffffffffffffffffffffff1602179055508273ffffffffffffffffffffffffffffffffffffffff168173ffffffffffffffffffffffffffffffffffffffff167f8be0079c531659141344cd1fd0a4f28419497f9722a3daafe3b4186f6b6457e060405160405180910390a3505050565b5f7fa16a46d94261c7517cc8ff89f61c0ce93598e3c849801011dee649a6a557d100905090565b60605f611e9a611e68565b9050806002018054611eab90613d32565b80601f0160208091040260200160405190810160405280929190818152602001828054611ed790613d32565b8015611f225780601f10611ef957610100808354040283529160200191611f22565b820191905f5260205f20905b815481529060010190602001808311611f0557829003601f168201915b505050505091505090565b60605f611f38611e68565b9050806003018054611f4990613d32565b80601f0160208091040260200160405190810160405280929190818152602001828054611f7590613d32565b8015611fc05780601f10611f9757610100808354040283529160200191611fc0565b820191905f5260205f20905b815481529060010190602001808311611fa357829003601f168201915b505050505091505090565b5f7f9016d09d72d40fdae2fd8ceac6b6234c7706214fd39c1cd1e609a0528c199300905090565b5f5f8573ffffffffffffffffffffffffffffffffffffffff166323b872dd86868660405160240161202593929190613d62565b6040516020818303038152906040529060e01b6020820180517bffffffffffffffffffffffffffffffffffffffffffffffffffffffff83818316178352505050506040516120739190613bf3565b5f604051808303815f865af19150503d805f81146120ac576040519150601f19603f3d011682016040523d82523d5f602084013e6120b1565b606091505b50915091508180156120de57505f815114806120dd5750808060200190518101906120dc9190613c33565b5b5b61211d576040517f08c379a000000000000000000000000000000000000000000000000000000000815260040161211490613e07565b60405180910390fd5b505050505050565b5f5f61212f6123fd565b90508091505090565b612140612426565b5f612149611e68565b90508281600201908161215c9190613fbc565b508181600301908161216e9190613fbc565b505f5f1b815f01819055505f5f1b8160010181905550505050565b5f33905090565b612198612426565b5f73ffffffffffffffffffffffffffffffffffffffff168173ffffffffffffffffffffffffffffffffffffffff1603612208575f6040517f1e4fbdf70000000000000000000000000000000000000000000000000000000081526004016121ff9190612e7e565b60405180910390fd5b61221181611d97565b50565b61221c612426565b565b5f5f90505b828290508110156122b7576001600a5f85858581811061224657612245613aed565b5b905060200201602081019061225b9190612e1c565b73ffffffffffffffffffffffffffffffffffffffff1673ffffffffffffffffffffffffffffffffffffffff1681526020019081526020015f205f6101000a81548160ff0219169083151502179055508080600101915050612223565b505050565b5f5f5f5f6122cc88888888612466565b9250925092506122dc828261254d565b829350505050949350505050565b5f6122f36126af565b905090565b5f6040517f190100000000000000000000000000000000000000000000000000000000000081528360028201528260228201526042812091505092915050565b5f6123647f360894a13ba1a3210667c828492db98dca3e2076cc3735a920a3ca505d382bbc5f1b612712565b5f015f9054906101000a900473ffffffffffffffffffffffffffffffffffffffff16905090565b6123948261271b565b8173ffffffffffffffffffffffffffffffffffffffff167fbc7cd75a20ee27fd9adebab32041f755214dbc6bffa90cc0225b39da2e5c2d3b60405160405180910390a25f815111156123f0576123ea82826127e4565b506123f9565b6123f8612864565b5b5050565b5f7ff0c57e16840df040f15088dc2f81fe391c3923bec73e23a9662efc9c229c6a005f1b905090565b61242e6128a0565b612464576040517fd7e6bcf800000000000000000000000000000000000000000000000000000000815260040160405180910390fd5b565b5f5f5f7f7fffffffffffffffffffffffffffffff5d576e7357a4501ddfe92f46681b20a0845f1c11156124a2575f600385925092509250612543565b5f6001888888886040515f81526020016040526040516124c5949392919061409a565b6020604051602081039080840390855afa1580156124e5573d5f5f3e3d5ffd5b5050506020604051035190505f73ffffffffffffffffffffffffffffffffffffffff168173ffffffffffffffffffffffffffffffffffffffff1603612536575f60015f5f1b93509350935050612543565b805f5f5f1b935093509350505b9450945094915050565b5f60038111156125605761255f6133ba565b5b826003811115612573576125726133ba565b5b03156126ab576001600381111561258d5761258c6133ba565b5b8260038111156125a05761259f6133ba565b5b036125d7576040517ff645eedf00000000000000000000000000000000000000000000000000000000815260040160405180910390fd5b600260038111156125eb576125ea6133ba565b5b8260038111156125fe576125fd6133ba565b5b0361264257805f1c6040517ffce698f70000000000000000000000000000000000000000000000000000000081526004016126399190612e56565b60405180910390fd5b600380811115612655576126546133ba565b5b826003811115612668576126676133ba565b5b036126aa57806040517fd78bce0c0000000000000000000000000000000000000000000000000000000081526004016126a19190612ea6565b60405180910390fd5b5b5050565b5f7f8b73c3c69bb8fe3d512ecc4cf759cc79239f7b179b0ffacaa9a75d522b39400f6126d96128be565b6126e1612934565b46306040516020016126f79594939291906140dd565b60405160208183030381529060405280519060200120905090565b5f819050919050565b5f8173ffffffffffffffffffffffffffffffffffffffff163b0361277657806040517f4c9c8ce300000000000000000000000000000000000000000000000000000000815260040161276d9190612e7e565b60405180910390fd5b806127a27f360894a13ba1a3210667c828492db98dca3e2076cc3735a920a3ca505d382bbc5f1b612712565b5f015f6101000a81548173ffffffffffffffffffffffffffffffffffffffff021916908373ffffffffffffffffffffffffffffffffffffffff16021790555050565b60605f5f8473ffffffffffffffffffffffffffffffffffffffff168460405161280d9190613bf3565b5f60405180830381855af49150503d805f8114612845576040519150601f19603f3d011682016040523d82523d5f602084013e61284a565b606091505b509150915061285a8583836129ab565b9250505092915050565b5f34111561289e576040517fb398979f00000000000000000000000000000000000000000000000000000000815260040160405180910390fd5b565b5f6128a9612125565b5f0160089054906101000a900460ff16905090565b5f5f6128c8611e68565b90505f6128d3611e8f565b90505f815111156128ef57808051906020012092505050612931565b5f825f015490505f5f1b811461290a57809350505050612931565b7fc5d2460186f7233c927e7db2dcc703c0e500b653ca82273b7bfad8045d85a47093505050505b90565b5f5f61293e611e68565b90505f612949611f2d565b90505f81511115612965578080519060200120925050506129a8565b5f826001015490505f5f1b8114612981578093505050506129a8565b7fc5d2460186f7233c927e7db2dcc703c0e500b653ca82273b7bfad8045d85a47093505050505b90565b6060826129c0576129bb82612a38565b612a30565b5f82511480156129e657505f8473ffffffffffffffffffffffffffffffffffffffff163b145b15612a2857836040517f9996b315000000000000000000000000000000000000000000000000000000008152600401612a1f9190612e7e565b60405180910390fd5b819050612a31565b5b9392505050565b5f81511115612a4957805160208201fd5b6040517fd6bda27500000000000000000000000000000000000000000000000000000000815260040160405180910390fd5b5f604051905090565b5f5ffd5b5f5ffd5b5f5ffd5b5f601f19601f8301169050919050565b7f4e487b71000000000000000000000000000000000000000000000000000000005f52604160045260245ffd5b612ad682612a90565b810181811067ffffffffffffffff82111715612af557612af4612aa0565b5b80604052505050565b5f612b07612a7b565b9050612b138282612acd565b919050565b5f5ffd5b5f5ffd5b5f5ffd5b5f67ffffffffffffffff821115612b3e57612b3d612aa0565b5b612b4782612a90565b9050602081019050919050565b828183375f83830152505050565b5f612b74612b6f84612b24565b612afe565b905082815260208101848484011115612b9057612b8f612b20565b5b612b9b848285612b54565b509392505050565b5f82601f830112612bb757612bb6612b1c565b5b8135612bc7848260208601612b62565b91505092915050565b5f73ffffffffffffffffffffffffffffffffffffffff82169050919050565b5f612bf982612bd0565b9050919050565b612c0981612bef565b8114612c13575f5ffd5b50565b5f81359050612c2481612c00565b92915050565b5f819050919050565b612c3c81612c2a565b8114612c46575f5ffd5b50565b5f81359050612c5781612c33565b92915050565b5f60ff82169050919050565b612c7281612c5d565b8114612c7c575f5ffd5b50565b5f81359050612c8d81612c69565b92915050565b5f819050919050565b612ca581612c93565b8114612caf575f5ffd5b50565b5f81359050612cc081612c9c565b92915050565b5f6101408284031215612cdc57612cdb612a8c565b5b612ce7610140612afe565b90505f82013567ffffffffffffffff811115612d0657612d05612b18565b5b612d1284828501612ba3565b5f830152506020612d2584828501612c16565b6020830152506040612d3984828501612c16565b6040830152506060612d4d84828501612c49565b6060830152506080612d6184828501612c49565b60808301525060a0612d7584828501612c49565b60a08301525060c0612d8984828501612c49565b60c08301525060e0612d9d84828501612c7f565b60e083015250610100612db284828501612cb2565b61010083015250610120612dc884828501612cb2565b6101208301525092915050565b5f60208284031215612dea57612de9612a84565b5b5f82013567ffffffffffffffff811115612e0757612e06612a88565b5b612e1384828501612cc6565b91505092915050565b5f60208284031215612e3157612e30612a84565b5b5f612e3e84828501612c16565b91505092915050565b612e5081612c2a565b82525050565b5f602082019050612e695f830184612e47565b92915050565b612e7881612bef565b82525050565b5f602082019050612e915f830184612e6f565b92915050565b612ea081612c93565b82525050565b5f602082019050612eb95f830184612e97565b92915050565b5f5f5f60608486031215612ed657612ed5612a84565b5b5f612ee386828701612c16565b9350506020612ef486828701612c16565b9250506040612f0586828701612c16565b9150509250925092565b5f67ffffffffffffffff821115612f2957612f28612aa0565b5b612f3282612a90565b9050602081019050919050565b5f612f51612f4c84612f0f565b612afe565b905082815260208101848484011115612f6d57612f6c612b20565b5b612f78848285612b54565b509392505050565b5f82601f830112612f9457612f93612b1c565b5b8135612fa4848260208601612f3f565b91505092915050565b5f5f60408385031215612fc357612fc2612a84565b5b5f612fd085828601612c16565b925050602083013567ffffffffffffffff811115612ff157612ff0612a88565b5b612ffd85828601612f80565b9150509250929050565b5f6020828403121561301c5761301b612a84565b5b5f82013567ffffffffffffffff81111561303957613038612a88565b5b61304584828501612ba3565b91505092915050565b5f8115159050919050565b6130628161304e565b82525050565b5f60208201905061307b5f830184613059565b92915050565b5f5f6040838503121561309757613096612a84565b5b5f6130a485828601612c16565b92505060206130b585828601612c16565b9150509250929050565b5f7fff0000000000000000000000000000000000000000000000000000000000000082169050919050565b6130f3816130bf565b82525050565b5f81519050919050565b5f82825260208201905092915050565b8281835e5f83830152505050565b5f61312b826130f9565b6131358185613103565b9350613145818560208601613113565b61314e81612a90565b840191505092915050565b5f81519050919050565b5f82825260208201905092915050565b5f819050602082019050919050565b61318b81612c2a565b82525050565b5f61319c8383613182565b60208301905092915050565b5f602082019050919050565b5f6131be82613159565b6131c88185613163565b93506131d383613173565b805f5b838110156132035781516131ea8882613191565b97506131f5836131a8565b9250506001810190506131d6565b5085935050505092915050565b5f60e0820190506132235f83018a6130ea565b81810360208301526132358189613121565b905081810360408301526132498188613121565b90506132586060830187612e47565b6132656080830186612e6f565b61327260a0830185612e97565b81810360c083015261328481846131b4565b905098975050505050505050565b5f602082840312156132a7576132a6612a84565b5b5f6132b484828501612c49565b91505092915050565b5f6020820190508181035f8301526132d58184613121565b905092915050565b5f5ffd5b5f5ffd5b5f5f83601f8401126132fa576132f9612b1c565b5b8235905067ffffffffffffffff811115613317576133166132dd565b5b602083019150836020820283011115613333576133326132e1565b5b9250929050565b60048110613346575f5ffd5b50565b5f813590506133578161333a565b92915050565b5f5f5f6040848603121561337457613373612a84565b5b5f84013567ffffffffffffffff81111561339157613390612a88565b5b61339d868287016132e5565b935093505060206133b086828701613349565b9150509250925092565b7f4e487b71000000000000000000000000000000000000000000000000000000005f52602160045260245ffd5b600481106133f8576133f76133ba565b5b50565b5f819050613408826133e7565b919050565b5f613417826133fb565b9050919050565b6134278161340d565b82525050565b5f6020820190506134405f83018461341e565b92915050565b5f5f5f5f5f5f60a087890312156134605761345f612a84565b5b5f61346d89828a01612c16565b965050602061347e89828a01612c16565b955050604061348f89828a01612c16565b94505060606134a089828a01612c16565b935050608087013567ffffffffffffffff8111156134c1576134c0612a88565b5b6134cd89828a016132e5565b92509250509295509295509295565b7f4e6f6e6365206572726f722e00000000000000000000000000000000000000005f82015250565b5f613510600c83613103565b915061351b826134dc565b602082019050919050565b5f6020820190508181035f83015261353d81613504565b9050919050565b7f446561646c696e65206572726f722e00000000000000000000000000000000005f82015250565b5f613578600f83613103565b915061358382613544565b602082019050919050565b5f6020820190508181035f8301526135a58161356c565b9050919050565b7f436865636b207369676e6174757265206572726f722e000000000000000000005f82015250565b5f6135e0601683613103565b91506135eb826135ac565b602082019050919050565b5f6020820190508181035f83015261360d816135d4565b9050919050565b7f4e6f7420706c65646765642e00000000000000000000000000000000000000005f82015250565b5f613648600c83613103565b915061365382613614565b602082019050919050565b5f6020820190508181035f8301526136758161363c565b9050919050565b5f81905092915050565b5f613690826130f9565b61369a818561367c565b93506136aa818560208601613113565b80840191505092915050565b5f6136c18284613686565b915081905092915050565b7f4572726f7220657863757465642e0000000000000000000000000000000000005f82015250565b5f613700600e83613103565b915061370b826136cc565b602082019050919050565b5f6020820190508181035f83015261372d816136f4565b9050919050565b7f4e487b71000000000000000000000000000000000000000000000000000000005f52601160045260245ffd5b5f61376b82612c2a565b915061377683612c2a565b925082820190508082111561378e5761378d613734565b5b92915050565b7f5769746864726177206f6e6c79206f6e636520706572203234680000000000005f82015250565b5f6137c8601a83613103565b91506137d382613794565b602082019050919050565b5f6020820190508181035f8301526137f5816137bc565b9050919050565b5f61380682612c2a565b91507fffffffffffffffffffffffffffffffffffffffffffffffffffffffffffffffff820361383857613837613734565b5b600182019050919050565b5f60e0820190508181035f83015261385b818a613121565b905061386a6020830189612e6f565b6138776040830188612e6f565b6138846060830187612e47565b6138916080830186612e47565b61389e60a0830185612e47565b6138ab60c0830184612e47565b98975050505050505050565b5f610100820190506138cb5f83018b612e97565b6138d8602083018a612e97565b6138e56040830189612e6f565b6138f26060830188612e6f565b6138ff6080830187612e47565b61390c60a0830186612e47565b61391960c0830185612e47565b61392660e0830184612e47565b9998505050505050505050565b7f4549503731323a20556e696e697469616c697a656400000000000000000000005f82015250565b5f613967601583613103565b915061397282613933565b602082019050919050565b5f6020820190508181035f8301526139948161395b565b9050919050565b7f4572726f725f7374616b655f616d6f756e742e000000000000000000000000005f82015250565b5f6139cf601383613103565b91506139da8261399b565b602082019050919050565b5f6020820190508181035f8301526139fc816139c3565b9050919050565b5f608082019050613a165f830187612e6f565b613a236020830186612e47565b613a30604083018561341e565b613a3d6060830184612e47565b95945050505050565b7f4572726f725f61646d696e2e00000000000000000000000000000000000000005f82015250565b5f613a7a600c83613103565b9150613a8582613a46565b602082019050919050565b5f6020820190508181035f830152613aa781613a6e565b9050919050565b5f81519050613abc81612c33565b92915050565b5f60208284031215613ad757613ad6612a84565b5b5f613ae484828501613aae565b91505092915050565b7f4e487b71000000000000000000000000000000000000000000000000000000005f52603260045260245ffd5b5f819050919050565b5f67ffffffffffffffff82169050919050565b5f819050919050565b5f613b59613b54613b4f84613b1a565b613b36565b613b23565b9050919050565b613b6981613b3f565b82525050565b5f602082019050613b825f830184613b60565b92915050565b5f604082019050613b9b5f830185612e6f565b613ba86020830184612e47565b9392505050565b5f81519050919050565b5f81905092915050565b5f613bcd82613baf565b613bd78185613bb9565b9350613be7818560208601613113565b80840191505092915050565b5f613bfe8284613bc3565b915081905092915050565b613c128161304e565b8114613c1c575f5ffd5b50565b5f81519050613c2d81613c09565b92915050565b5f60208284031215613c4857613c47612a84565b5b5f613c5584828501613c1f565b91505092915050565b7f5472616e7366657248656c7065723a205452414e534645525f4641494c4544005f82015250565b5f613c92601f83613103565b9150613c9d82613c5e565b602082019050919050565b5f6020820190508181035f830152613cbf81613c86565b9050919050565b5f81519050613cd481612c9c565b92915050565b5f60208284031215613cef57613cee612a84565b5b5f613cfc84828501613cc6565b91505092915050565b7f4e487b71000000000000000000000000000000000000000000000000000000005f52602260045260245ffd5b5f6002820490506001821680613d4957607f821691505b602082108103613d5c57613d5b613d05565b5b50919050565b5f606082019050613d755f830186612e6f565b613d826020830185612e6f565b613d8f6040830184612e47565b949350505050565b7f5472616e7366657248656c7065723a205452414e534645525f46524f4d5f46415f8201527f494c454400000000000000000000000000000000000000000000000000000000602082015250565b5f613df1602483613103565b9150613dfc82613d97565b604082019050919050565b5f6020820190508181035f830152613e1e81613de5565b9050919050565b5f819050815f5260205f209050919050565b5f6020601f8301049050919050565b5f82821b905092915050565b5f60088302613e817fffffffffffffffffffffffffffffffffffffffffffffffffffffffffffffffff82613e46565b613e8b8683613e46565b95508019841693508086168417925050509392505050565b5f613ebd613eb8613eb384612c2a565b613b36565b612c2a565b9050919050565b5f819050919050565b613ed683613ea3565b613eea613ee282613ec4565b848454613e52565b825550505050565b5f5f905090565b613f01613ef2565b613f0c818484613ecd565b505050565b5b81811015613f2f57613f245f82613ef9565b600181019050613f12565b5050565b601f821115613f7457613f4581613e25565b613f4e84613e37565b81016020851015613f5d578190505b613f71613f6985613e37565b830182613f11565b50505b505050565b5f82821c905092915050565b5f613f945f1984600802613f79565b1980831691505092915050565b5f613fac8383613f85565b9150826002028217905092915050565b613fc5826130f9565b67ffffffffffffffff811115613fde57613fdd612aa0565b5b613fe88254613d32565b613ff3828285613f33565b5f60209050601f831160018114614024575f8415614012578287015190505b61401c8582613fa1565b865550614083565b601f19841661403286613e25565b5f5b8281101561405957848901518255600182019150602085019450602081019050614034565b868310156140765784890151614072601f891682613f85565b8355505b6001600288020188555050505b505050505050565b61409481612c5d565b82525050565b5f6080820190506140ad5f830187612e97565b6140ba602083018661408b565b6140c76040830185612e97565b6140d46060830184612e97565b95945050505050565b5f60a0820190506140f05f830188612e97565b6140fd6020830187612e97565b61410a6040830186612e97565b6141176060830185612e47565b6141246080830184612e6f565b969550505050505056fea264697066735822122029cb6103bb57be638840ef26fc3a6bc2de84e86eab3e5612cb9aaabc2bfc5b6664736f6c634300081e0033","linkReferences":{}},"methodIdentifiers":{"MIN_STAKE()":"cb1c2b5c","SIGN_TYPEHASH()":"2f1d14cb","UPGRADE_INTERFACE_VERSION()":"ad3cb1cc","addIdentity(address[],uint8)":"dbc27f37","admin()":"f851a440","cessToken()":"51d7e36d","cfunToken()":"64d4508a","checkerSignMsgSignature((string,address,address,uint256,uint256,uint256,uint256,uint8,bytes32,bytes32))":"fac62f87","eip712Domain()":"84b0196e","emergencyWithdraw()":"db2e21bc","getSignMsgHash((string,address,address,uint256,uint256,uint256,uint256,uint8,bytes32,bytes32))":"4c7303bd","identityInfo(address)":"efe2a60e","initialize(address,address,address,address,address[])":"f8453e7c","isExcuted(string)":"4fb7726f","isStaking(address)":"6f49712b","lastWithdrawTime(address)":"1031ec31","nonce()":"affed0e0","owner()":"8da5cb5b","proxiableUUID()":"52d1902d","recipient()":"66d003ac","renounceOwnership()":"715018a6","setConfig(address,address,address)":"3141e25b","setTokenAddr(address,address)":"7f1d259b","signer()":"238ac933","stake(uint256)":"a694fc3a","transferOwnership(address)":"f2fde38b","upgradeToAndCall(address,bytes)":"4f1ef286","withdrawWithSignature((string,address,address,uint256,uint256,uint256,uint256,uint8,bytes32,bytes32))":"09e00256"},"id":42}