{"abi":[{"type":"receive","stateMutability":"payable"},{"type":"function","name":"MIN_STAKE","inputs":[],"outputs":[{"name":"","type":"uint256","internalType":"uint256"}],"stateMutability":"view"},{"type":"function","name":"UPGRADE_INTERFACE_VERSION","inputs":[],"outputs":[{"name":"","type":"string","internalType":"string"}],"stateMutability":"view"},{"type":"function","name":"addIdentity","inputs":[{"name":"addrs","type":"address[]","internalType":"address[]"},{"name":"identity","type":"uint8","internalType":"enum Staking.Identity"}],"outputs":[],"stateMutability":"nonpayable"},{"type":"function","name":"admin","inputs":[],"outputs":[{"name":"","type":"address","internalType":"address"}],"stateMutability":"view"},{"type":"function","name":"cessToken","inputs":[],"outputs":[{"name":"","type":"address","internalType":"address"}],"stateMutability":"view"},{"type":"function","name":"cfunToken","inputs":[],"outputs":[{"name":"","type":"address","internalType":"address"}],"stateMutability":"view"},{"type":"function","name":"claim","inputs":[],"outputs":[],"stateMutability":"nonpayable"},{"type":"function","name":"emergencyWithdraw","inputs":[],"outputs":[],"stateMutability":"nonpayable"},{"type":"function","name":"identityInfo","inputs":[{"name":"","type":"address","internalType":"address"}],"outputs":[{"name":"","type":"uint8","internalType":"enum Staking.Identity"}],"stateMutability":"view"},{"type":"function","name":"initialize","inputs":[{"name":"_cessToken","type":"address","internalType":"address"},{"name":"_cfunToken","type":"address","internalType":"address"},{"name":"_recipient","type":"address","internalType":"address"},{"name":"_admin","type":"address","internalType":"address"},{"name":"_signer","type":"address","internalType":"address"}],"outputs":[],"stateMutability":"nonpayable"},{"type":"function","name":"isExcuted","inputs":[{"name":"","type":"string","internalType":"string"}],"outputs":[{"name":"","type":"bool","internalType":"bool"}],"stateMutability":"view"},{"type":"function","name":"isStaking","inputs":[{"name":"","type":"address","internalType":"address"}],"outputs":[{"name":"","type":"bool","internalType":"bool"}],"stateMutability":"view"},{"type":"function","name":"owner","inputs":[],"outputs":[{"name":"","type":"address","internalType":"address"}],"stateMutability":"view"},{"type":"function","name":"proxiableUUID","inputs":[],"outputs":[{"name":"","type":"bytes32","internalType":"bytes32"}],"stateMutability":"view"},{"type":"function","name":"recipient","inputs":[],"outputs":[{"name":"","type":"address","internalType":"address"}],"stateMutability":"view"},{"type":"function","name":"renounceOwnership","inputs":[],"outputs":[],"stateMutability":"nonpayable"},{"type":"function","name":"signer","inputs":[],"outputs":[{"name":"","type":"address","internalType":"address"}],"stateMutability":"view"},{"type":"function","name":"stake","inputs":[{"name":"amount","type":"uint256","internalType":"uint256"}],"outputs":[],"stateMutability":"nonpayable"},{"type":"function","name":"transferOwnership","inputs":[{"name":"newOwner","type":"address","internalType":"address"}],"outputs":[],"stateMutability":"nonpayable"},{"type":"function","name":"upgradeToAndCall","inputs":[{"name":"newImplementation","type":"address","internalType":"address"},{"name":"data","type":"bytes","internalType":"bytes"}],"outputs":[],"stateMutability":"payable"},{"type":"function","name":"withdraw","inputs":[],"outputs":[],"stateMutability":"nonpayable"},{"type":"event","name":"Claim","inputs":[{"name":"mark","type":"string","indexed":false,"internalType":"string"},{"name":"holder","type":"address","indexed":false,"internalType":"address"},{"name":"amount","type":"uint256","indexed":false,"internalType":"uint256"},{"name":"time","type":"uint256","indexed":false,"internalType":"uint256"}],"anonymous":false},{"type":"event","name":"Initialized","inputs":[{"name":"version","type":"uint64","indexed":false,"internalType":"uint64"}],"anonymous":false},{"type":"event","name":"OwnershipTransferred","inputs":[{"name":"previousOwner","type":"address","indexed":true,"internalType":"address"},{"name":"newOwner","type":"address","indexed":true,"internalType":"address"}],"anonymous":false},{"type":"event","name":"Stake","inputs":[{"name":"sender","type":"address","indexed":false,"internalType":"address"},{"name":"amount","type":"uint256","indexed":false,"internalType":"uint256"},{"name":"identity","type":"uint8","indexed":false,"internalType":"enum Staking.Identity"},{"name":"time","type":"uint256","indexed":false,"internalType":"uint256"}],"anonymous":false},{"type":"event","name":"Upgraded","inputs":[{"name":"implementation","type":"address","indexed":true,"internalType":"address"}],"anonymous":false},{"type":"event","name":"Withdraw","inputs":[{"name":"mark","type":"string","indexed":false,"internalType":"string"},{"name":"holder","type":"address","indexed":false,"internalType":"address"},{"name":"amount","type":"uint256","indexed":false,"internalType":"uint256"},{"name":"time","type":"uint256","indexed":false,"internalType":"uint256"}],"anonymous":false},{"type":"error","name":"AddressEmptyCode","inputs":[{"name":"target","type":"address","internalType":"address"}]},{"type":"error","name":"ERC1967InvalidImplementation","inputs":[{"name":"implementation","type":"address","internalType":"address"}]},{"type":"error","name":"ERC1967NonPayable","inputs":[]},{"type":"error","name":"FailedCall","inputs":[]},{"type":"error","name":"InvalidInitialization","inputs":[]},{"type":"error","name":"NotInitializing","inputs":[]},{"type":"error","name":"OwnableInvalidOwner","inputs":[{"name":"owner","type":"address","internalType":"address"}]},{"type":"error","name":"OwnableUnauthorizedAccount","inputs":[{"name":"account","type":"address","internalType":"address"}]},{"type":"error","name":"ReentrancyGuardReentrantCall","inputs":[]},{"type":"error","name":"UUPSUnauthorizedCallContext","inputs":[]},{"type":"error","name":"UUPSUnsupportedProxiableUUID","inputs":[{"name":"slot","type":"bytes32","internalType":"bytes32"}]}],"bytecode":{"object":"0x60a06040523073ffffffffffffffffffffffffffffffffffffffff1660809073ffffffffffffffffffffffffffffffffffffffff168152503480156041575f5ffd5b5060015f8190555060805161244261006f5f395f8181610ed901528181610f2e01526110e801526124425ff3fe60806040526004361061012d575f3560e01c80636f49712b116100aa578063cb1c2b5c1161006e578063cb1c2b5c14610384578063db2e21bc146103ae578063dbc27f37146103c4578063efe2a60e146103ec578063f2fde38b14610428578063f851a4401461045057610134565b80636f49712b146102b6578063715018a6146102f25780638da5cb5b14610308578063a694fc3a14610332578063ad3cb1cc1461035a57610134565b80634fb7726f116100f15780634fb7726f146101d257806351d7e36d1461020e57806352d1902d1461023857806364d4508a1461026257806366d003ac1461028c57610134565b80631459457a14610138578063238ac933146101605780633ccfd60b1461018a5780634e71d92d146101a05780634f1ef286146101b657610134565b3661013457005b5f5ffd5b348015610143575f5ffd5b5061015e600480360381019061015991906119b1565b61047a565b005b34801561016b575f5ffd5b5061017461074e565b6040516101819190611a37565b60405180910390f35b348015610195575f5ffd5b5061019e610773565b005b3480156101ab575f5ffd5b506101b4610775565b005b6101d060048036038101906101cb9190611b8c565b610777565b005b3480156101dd575f5ffd5b506101f860048036038101906101f39190611c84565b610796565b6040516102059190611ce5565b60405180910390f35b348015610219575f5ffd5b506102226107cb565b60405161022f9190611a37565b60405180910390f35b348015610243575f5ffd5b5061024c6107f0565b6040516102599190611d16565b60405180910390f35b34801561026d575f5ffd5b50610276610821565b6040516102839190611a37565b60405180910390f35b348015610297575f5ffd5b506102a0610846565b6040516102ad9190611a37565b60405180910390f35b3480156102c1575f5ffd5b506102dc60048036038101906102d79190611d2f565b61086b565b6040516102e99190611ce5565b60405180910390f35b3480156102fd575f5ffd5b50610306610888565b005b348015610313575f5ffd5b5061031c61089b565b6040516103299190611a37565b60405180910390f35b34801561033d575f5ffd5b5061035860048036038101906103539190611d8d565b6108d0565b005b348015610365575f5ffd5b5061036e610a27565b60405161037b9190611e18565b60405180910390f35b34801561038f575f5ffd5b50610398610a60565b6040516103a59190611e47565b60405180910390f35b3480156103b9575f5ffd5b506103c2610a6e565b005b3480156103cf575f5ffd5b506103ea60048036038101906103e59190611ee0565b610cb3565b005b3480156103f7575f5ffd5b50610412600480360381019061040d9190611d2f565b610d69565b60405161041f9190611fb0565b60405180910390f35b348015610433575f5ffd5b5061044e60048036038101906104499190611d2f565b610d86565b005b34801561045b575f5ffd5b50610464610e0a565b6040516104719190611a37565b60405180910390f35b5f610483610e2f565b90505f815f0160089054906101000a900460ff161590505f825f015f9054906101000a900467ffffffffffffffff1690505f5f8267ffffffffffffffff161480156104cb5750825b90505f60018367ffffffffffffffff161480156104fe57505f3073ffffffffffffffffffffffffffffffffffffffff163b145b90508115801561050c575080155b15610543576040517ff92ee8a900000000000000000000000000000000000000000000000000000000815260040160405180910390fd5b6001855f015f6101000a81548167ffffffffffffffff021916908367ffffffffffffffff1602179055508315610590576001855f0160086101000a81548160ff0219169083151502179055505b6105a061059b610e42565b610e49565b6105a8610ecd565b8960045f6101000a81548173ffffffffffffffffffffffffffffffffffffffff021916908373ffffffffffffffffffffffffffffffffffffffff1602179055508860055f6101000a81548173ffffffffffffffffffffffffffffffffffffffff021916908373ffffffffffffffffffffffffffffffffffffffff1602179055508760065f6101000a81548173ffffffffffffffffffffffffffffffffffffffff021916908373ffffffffffffffffffffffffffffffffffffffff1602179055508660075f6101000a81548173ffffffffffffffffffffffffffffffffffffffff021916908373ffffffffffffffffffffffffffffffffffffffff1602179055508560085f6101000a81548173ffffffffffffffffffffffffffffffffffffffff021916908373ffffffffffffffffffffffffffffffffffffffff1602179055508315610742575f855f0160086101000a81548160ff0219169083151502179055507fc7f505b2f371ae2175ee4913f4499e1f2633a7b5936321eed1cdaeb6115181d26001604051610739919061201e565b60405180910390a15b50505050505050505050565b60085f9054906101000a900473ffffffffffffffffffffffffffffffffffffffff1681565b565b565b61077f610ed7565b61078882610fbd565b6107928282610fc8565b5050565b6002818051602081018201805184825260208301602085012081835280955050505050505f915054906101000a900460ff1681565b60045f9054906101000a900473ffffffffffffffffffffffffffffffffffffffff1681565b5f6107f96110e6565b7f360894a13ba1a3210667c828492db98dca3e2076cc3735a920a3ca505d382bbc5f1b905090565b60055f9054906101000a900473ffffffffffffffffffffffffffffffffffffffff1681565b60065f9054906101000a900473ffffffffffffffffffffffffffffffffffffffff1681565b6001602052805f5260405f205f915054906101000a900460ff1681565b61089061116d565b6108995f6111f4565b565b5f5f6108a56112c5565b9050805f015f9054906101000a900473ffffffffffffffffffffffffffffffffffffffff1691505090565b69021e19e0c9bab240000081101561091d576040517f08c379a000000000000000000000000000000000000000000000000000000000815260040161091490612081565b60405180910390fd5b61094a60045f9054906101000a900473ffffffffffffffffffffffffffffffffffffffff163330846112ec565b6001805f3373ffffffffffffffffffffffffffffffffffffffff1673ffffffffffffffffffffffffffffffffffffffff1681526020019081526020015f205f6101000a81548160ff0219169083151502179055507fcdd3573c53d27f67b1a0deddbdb9d8ff02906ead670f7e8a52f4b6a8425dac5f338260035f3373ffffffffffffffffffffffffffffffffffffffff1673ffffffffffffffffffffffffffffffffffffffff1681526020019081526020015f205f9054906101000a900460ff1642604051610a1c949392919061209f565b60405180910390a150565b6040518060400160405280600581526020017f352e302e3000000000000000000000000000000000000000000000000000000081525081565b69021e19e0c9bab240000081565b610a7661141f565b60075f9054906101000a900473ffffffffffffffffffffffffffffffffffffffff1673ffffffffffffffffffffffffffffffffffffffff163373ffffffffffffffffffffffffffffffffffffffff1614610b05576040517f08c379a0000000000000000000000000000000000000000000000000000000008152600401610afc9061212c565b60405180910390fd5b5f60045f9054906101000a900473ffffffffffffffffffffffffffffffffffffffff1673ffffffffffffffffffffffffffffffffffffffff166370a08231306040518263ffffffff1660e01b8152600401610b609190611a37565b602060405180830381865afa158015610b7b573d5f5f3e3d5ffd5b505050506040513d601f19601f82011682018060405250810190610b9f919061215e565b90505f60055f9054906101000a900473ffffffffffffffffffffffffffffffffffffffff1673ffffffffffffffffffffffffffffffffffffffff166370a08231306040518263ffffffff1660e01b8152600401610bfc9190611a37565b602060405180830381865afa158015610c17573d5f5f3e3d5ffd5b505050506040513d601f19601f82011682018060405250810190610c3b919061215e565b90505f821115610c7257610c7160045f9054906101000a900473ffffffffffffffffffffffffffffffffffffffff163384611463565b5b5f811115610ca757610ca660055f9054906101000a900473ffffffffffffffffffffffffffffffffffffffff163383611463565b5b5050610cb1611593565b565b610cbb61116d565b5f5f90505b83839050811015610d63578160035f868685818110610ce257610ce1612189565b5b9050602002016020810190610cf79190611d2f565b73ffffffffffffffffffffffffffffffffffffffff1673ffffffffffffffffffffffffffffffffffffffff1681526020019081526020015f205f6101000a81548160ff02191690836003811115610d5157610d50611f3d565b5b02179055508080600101915050610cc0565b50505050565b6003602052805f5260405f205f915054906101000a900460ff1681565b610d8e61116d565b5f73ffffffffffffffffffffffffffffffffffffffff168173ffffffffffffffffffffffffffffffffffffffff1603610dfe575f6040517f1e4fbdf7000000000000000000000000000000000000000000000000000000008152600401610df59190611a37565b60405180910390fd5b610e07816111f4565b50565b60075f9054906101000a900473ffffffffffffffffffffffffffffffffffffffff1681565b5f5f610e3961159c565b90508091505090565b5f33905090565b610e516115c5565b5f73ffffffffffffffffffffffffffffffffffffffff168173ffffffffffffffffffffffffffffffffffffffff1603610ec1575f6040517f1e4fbdf7000000000000000000000000000000000000000000000000000000008152600401610eb89190611a37565b60405180910390fd5b610eca816111f4565b50565b610ed56115c5565b565b7f000000000000000000000000000000000000000000000000000000000000000073ffffffffffffffffffffffffffffffffffffffff163073ffffffffffffffffffffffffffffffffffffffff161480610f8457507f000000000000000000000000000000000000000000000000000000000000000073ffffffffffffffffffffffffffffffffffffffff16610f6b611605565b73ffffffffffffffffffffffffffffffffffffffff1614155b15610fbb576040517fe07c8dba00000000000000000000000000000000000000000000000000000000815260040160405180910390fd5b565b610fc561116d565b50565b8173ffffffffffffffffffffffffffffffffffffffff166352d1902d6040518163ffffffff1660e01b8152600401602060405180830381865afa92505050801561103057506040513d601f19601f8201168201806040525081019061102d91906121e0565b60015b61107157816040517f4c9c8ce30000000000000000000000000000000000000000000000000000000081526004016110689190611a37565b60405180910390fd5b7f360894a13ba1a3210667c828492db98dca3e2076cc3735a920a3ca505d382bbc5f1b81146110d757806040517faa1d49a40000000000000000000000000000000000000000000000000000000081526004016110ce9190611d16565b60405180910390fd5b6110e18383611658565b505050565b7f000000000000000000000000000000000000000000000000000000000000000073ffffffffffffffffffffffffffffffffffffffff163073ffffffffffffffffffffffffffffffffffffffff161461116b576040517fe07c8dba00000000000000000000000000000000000000000000000000000000815260040160405180910390fd5b565b611175610e42565b73ffffffffffffffffffffffffffffffffffffffff1661119361089b565b73ffffffffffffffffffffffffffffffffffffffff16146111f2576111b6610e42565b6040517f118cdaa70000000000000000000000000000000000000000000000000000000081526004016111e99190611a37565b60405180910390fd5b565b5f6111fd6112c5565b90505f815f015f9054906101000a900473ffffffffffffffffffffffffffffffffffffffff16905082825f015f6101000a81548173ffffffffffffffffffffffffffffffffffffffff021916908373ffffffffffffffffffffffffffffffffffffffff1602179055508273ffffffffffffffffffffffffffffffffffffffff168173ffffffffffffffffffffffffffffffffffffffff167f8be0079c531659141344cd1fd0a4f28419497f9722a3daafe3b4186f6b6457e060405160405180910390a3505050565b5f7f9016d09d72d40fdae2fd8ceac6b6234c7706214fd39c1cd1e609a0528c199300905090565b5f5f8573ffffffffffffffffffffffffffffffffffffffff166323b872dd86868660405160240161131f9392919061220b565b6040516020818303038152906040529060e01b6020820180517bffffffffffffffffffffffffffffffffffffffffffffffffffffffff838183161783525050505060405161136d9190612284565b5f604051808303815f865af19150503d805f81146113a6576040519150601f19603f3d011682016040523d82523d5f602084013e6113ab565b606091505b50915091508180156113d857505f815114806113d75750808060200190518101906113d691906122c4565b5b5b611417576040517f08c379a000000000000000000000000000000000000000000000000000000000815260040161140e9061235f565b60405180910390fd5b505050505050565b60025f540361145a576040517f3ee5aeb500000000000000000000000000000000000000000000000000000000815260040160405180910390fd5b60025f81905550565b5f5f8473ffffffffffffffffffffffffffffffffffffffff1663a9059cbb858560405160240161149492919061237d565b6040516020818303038152906040529060e01b6020820180517bffffffffffffffffffffffffffffffffffffffffffffffffffffffff83818316178352505050506040516114e29190612284565b5f604051808303815f865af19150503d805f811461151b576040519150601f19603f3d011682016040523d82523d5f602084013e611520565b606091505b509150915081801561154d57505f8151148061154c57508080602001905181019061154b91906122c4565b5b5b61158c576040517f08c379a0000000000000000000000000000000000000000000000000000000008152600401611583906123ee565b60405180910390fd5b5050505050565b60015f81905550565b5f7ff0c57e16840df040f15088dc2f81fe391c3923bec73e23a9662efc9c229c6a005f1b905090565b6115cd6116ca565b611603576040517fd7e6bcf800000000000000000000000000000000000000000000000000000000815260040160405180910390fd5b565b5f6116317f360894a13ba1a3210667c828492db98dca3e2076cc3735a920a3ca505d382bbc5f1b6116e8565b5f015f9054906101000a900473ffffffffffffffffffffffffffffffffffffffff16905090565b611661826116f1565b8173ffffffffffffffffffffffffffffffffffffffff167fbc7cd75a20ee27fd9adebab32041f755214dbc6bffa90cc0225b39da2e5c2d3b60405160405180910390a25f815111156116bd576116b782826117ba565b506116c6565b6116c561183a565b5b5050565b5f6116d3610e2f565b5f0160089054906101000a900460ff16905090565b5f819050919050565b5f8173ffffffffffffffffffffffffffffffffffffffff163b0361174c57806040517f4c9c8ce30000000000000000000000000000000000000000000000000000000081526004016117439190611a37565b60405180910390fd5b806117787f360894a13ba1a3210667c828492db98dca3e2076cc3735a920a3ca505d382bbc5f1b6116e8565b5f015f6101000a81548173ffffffffffffffffffffffffffffffffffffffff021916908373ffffffffffffffffffffffffffffffffffffffff16021790555050565b60605f5f8473ffffffffffffffffffffffffffffffffffffffff16846040516117e39190612284565b5f60405180830381855af49150503d805f811461181b576040519150601f19603f3d011682016040523d82523d5f602084013e611820565b606091505b5091509150611830858383611876565b9250505092915050565b5f341115611874576040517fb398979f00000000000000000000000000000000000000000000000000000000815260040160405180910390fd5b565b60608261188b5761188682611903565b6118fb565b5f82511480156118b157505f8473ffffffffffffffffffffffffffffffffffffffff163b145b156118f357836040517f9996b3150000000000000000000000000000000000000000000000000000000081526004016118ea9190611a37565b60405180910390fd5b8190506118fc565b5b9392505050565b5f8151111561191457805160208201fd5b6040517fd6bda27500000000000000000000000000000000000000000000000000000000815260040160405180910390fd5b5f604051905090565b5f5ffd5b5f5ffd5b5f73ffffffffffffffffffffffffffffffffffffffff82169050919050565b5f61198082611957565b9050919050565b61199081611976565b811461199a575f5ffd5b50565b5f813590506119ab81611987565b92915050565b5f5f5f5f5f60a086880312156119ca576119c961194f565b5b5f6119d78882890161199d565b95505060206119e88882890161199d565b94505060406119f98882890161199d565b9350506060611a0a8882890161199d565b9250506080611a1b8882890161199d565b9150509295509295909350565b611a3181611976565b82525050565b5f602082019050611a4a5f830184611a28565b92915050565b5f5ffd5b5f5ffd5b5f601f19601f8301169050919050565b7f4e487b71000000000000000000000000000000000000000000000000000000005f52604160045260245ffd5b611a9e82611a58565b810181811067ffffffffffffffff82111715611abd57611abc611a68565b5b80604052505050565b5f611acf611946565b9050611adb8282611a95565b919050565b5f67ffffffffffffffff821115611afa57611af9611a68565b5b611b0382611a58565b9050602081019050919050565b828183375f83830152505050565b5f611b30611b2b84611ae0565b611ac6565b905082815260208101848484011115611b4c57611b4b611a54565b5b611b57848285611b10565b509392505050565b5f82601f830112611b7357611b72611a50565b5b8135611b83848260208601611b1e565b91505092915050565b5f5f60408385031215611ba257611ba161194f565b5b5f611baf8582860161199d565b925050602083013567ffffffffffffffff811115611bd057611bcf611953565b5b611bdc85828601611b5f565b9150509250929050565b5f67ffffffffffffffff821115611c0057611bff611a68565b5b611c0982611a58565b9050602081019050919050565b5f611c28611c2384611be6565b611ac6565b905082815260208101848484011115611c4457611c43611a54565b5b611c4f848285611b10565b509392505050565b5f82601f830112611c6b57611c6a611a50565b5b8135611c7b848260208601611c16565b91505092915050565b5f60208284031215611c9957611c9861194f565b5b5f82013567ffffffffffffffff811115611cb657611cb5611953565b5b611cc284828501611c57565b91505092915050565b5f8115159050919050565b611cdf81611ccb565b82525050565b5f602082019050611cf85f830184611cd6565b92915050565b5f819050919050565b611d1081611cfe565b82525050565b5f602082019050611d295f830184611d07565b92915050565b5f60208284031215611d4457611d4361194f565b5b5f611d518482850161199d565b91505092915050565b5f819050919050565b611d6c81611d5a565b8114611d76575f5ffd5b50565b5f81359050611d8781611d63565b92915050565b5f60208284031215611da257611da161194f565b5b5f611daf84828501611d79565b91505092915050565b5f81519050919050565b5f82825260208201905092915050565b8281835e5f83830152505050565b5f611dea82611db8565b611df48185611dc2565b9350611e04818560208601611dd2565b611e0d81611a58565b840191505092915050565b5f6020820190508181035f830152611e308184611de0565b905092915050565b611e4181611d5a565b82525050565b5f602082019050611e5a5f830184611e38565b92915050565b5f5ffd5b5f5ffd5b5f5f83601f840112611e7d57611e7c611a50565b5b8235905067ffffffffffffffff811115611e9a57611e99611e60565b5b602083019150836020820283011115611eb657611eb5611e64565b5b9250929050565b60048110611ec9575f5ffd5b50565b5f81359050611eda81611ebd565b92915050565b5f5f5f60408486031215611ef757611ef661194f565b5b5f84013567ffffffffffffffff811115611f1457611f13611953565b5b611f2086828701611e68565b93509350506020611f3386828701611ecc565b9150509250925092565b7f4e487b71000000000000000000000000000000000000000000000000000000005f52602160045260245ffd5b60048110611f7b57611f7a611f3d565b5b50565b5f819050611f8b82611f6a565b919050565b5f611f9a82611f7e565b9050919050565b611faa81611f90565b82525050565b5f602082019050611fc35f830184611fa1565b92915050565b5f819050919050565b5f67ffffffffffffffff82169050919050565b5f819050919050565b5f612008612003611ffe84611fc9565b611fe5565b611fd2565b9050919050565b61201881611fee565b82525050565b5f6020820190506120315f83018461200f565b92915050565b7f4572726f725f7374616b655f616d6f756e742e000000000000000000000000005f82015250565b5f61206b601383611dc2565b915061207682612037565b602082019050919050565b5f6020820190508181035f8301526120988161205f565b9050919050565b5f6080820190506120b25f830187611a28565b6120bf6020830186611e38565b6120cc6040830185611fa1565b6120d96060830184611e38565b95945050505050565b7f4572726f725f61646d696e2e00000000000000000000000000000000000000005f82015250565b5f612116600c83611dc2565b9150612121826120e2565b602082019050919050565b5f6020820190508181035f8301526121438161210a565b9050919050565b5f8151905061215881611d63565b92915050565b5f602082840312156121735761217261194f565b5b5f6121808482850161214a565b91505092915050565b7f4e487b71000000000000000000000000000000000000000000000000000000005f52603260045260245ffd5b6121bf81611cfe565b81146121c9575f5ffd5b50565b5f815190506121da816121b6565b92915050565b5f602082840312156121f5576121f461194f565b5b5f612202848285016121cc565b91505092915050565b5f60608201905061221e5f830186611a28565b61222b6020830185611a28565b6122386040830184611e38565b949350505050565b5f81519050919050565b5f81905092915050565b5f61225e82612240565b612268818561224a565b9350612278818560208601611dd2565b80840191505092915050565b5f61228f8284612254565b915081905092915050565b6122a381611ccb565b81146122ad575f5ffd5b50565b5f815190506122be8161229a565b92915050565b5f602082840312156122d9576122d861194f565b5b5f6122e6848285016122b0565b91505092915050565b7f5472616e7366657248656c7065723a205452414e534645525f46524f4d5f46415f8201527f494c454400000000000000000000000000000000000000000000000000000000602082015250565b5f612349602483611dc2565b9150612354826122ef565b604082019050919050565b5f6020820190508181035f8301526123768161233d565b9050919050565b5f6040820190506123905f830185611a28565b61239d6020830184611e38565b9392505050565b7f5472616e7366657248656c7065723a205452414e534645525f4641494c4544005f82015250565b5f6123d8601f83611dc2565b91506123e3826123a4565b602082019050919050565b5f6020820190508181035f830152612405816123cc565b905091905056fea264697066735822122080af756f2039d3b3fc3cb220d2a6294621726327caf5cd62c32731f310913af864736f6c634300081e0033","linkReferences":{}},"methodIdentifiers":{"MIN_STAKE()":"cb1c2b5c","UPGRADE_INTERFACE_VERSION()":"ad3cb1cc","addIdentity(address[],uint8)":"dbc27f37","admin()":"f851a440","cessToken()":"51d7e36d","cfunToken()":"64d4508a","claim()":"4e71d92d","emergencyWithdraw()":"db2e21bc","identityInfo(address)":"efe2a60e","initialize(address,address,address,address,address)":"1459457a","isExcuted(string)":"4fb7726f","isStaking(address)":"6f49712b","owner()":"8da5cb5b","proxiableUUID()":"52d1902d","recipient()":"66d003ac","renounceOwnership()":"715018a6","signer()":"238ac933","stake(uint256)":"a694fc3a","transferOwnership(address)":"f2fde38b","upgradeToAndCall(address,bytes)":"4f1ef286","withdraw()":"3ccfd60b"},"id":32}