{"abi":[{"type":"receive","stateMutability":"payable"},{"type":"function","name":"MIN_STAKE","inputs":[],"outputs":[{"name":"","type":"uint256","internalType":"uint256"}],"stateMutability":"view"},{"type":"function","name":"SIGN_TYPEHASH","inputs":[],"outputs":[{"name":"","type":"bytes32","internalType":"bytes32"}],"stateMutability":"view"},{"type":"function","name":"UPGRADE_INTERFACE_VERSION","inputs":[],"outputs":[{"name":"","type":"string","internalType":"string"}],"stateMutability":"view"},{"type":"function","name":"addIdentity","inputs":[{"name":"addrs","type":"address[]","internalType":"address[]"},{"name":"identity","type":"uint8","internalType":"enum IStaking.Identity"}],"outputs":[],"stateMutability":"nonpayable"},{"type":"function","name":"admin","inputs":[],"outputs":[{"name":"","type":"address","internalType":"address"}],"stateMutability":"view"},{"type":"function","name":"cessToken","inputs":[],"outputs":[{"name":"","type":"address","internalType":"address"}],"stateMutability":"view"},{"type":"function","name":"cfunToken","inputs":[],"outputs":[{"name":"","type":"address","internalType":"address"}],"stateMutability":"view"},{"type":"function","name":"checkerSignMsgSignature","inputs":[{"name":"_msg","type":"tuple","internalType":"struct SignatureInfo.SignMessage","components":[{"name":"mark","type":"string","internalType":"string"},{"name":"token","type":"address","internalType":"address"},{"name":"recipient","type":"address","internalType":"address"},{"name":"amount","type":"uint256","internalType":"uint256"},{"name":"fee","type":"uint256","internalType":"uint256"},{"name":"nonce","type":"uint256","internalType":"uint256"},{"name":"deadline","type":"uint256","internalType":"uint256"},{"name":"v","type":"uint8","internalType":"uint8"},{"name":"r","type":"bytes32","internalType":"bytes32"},{"name":"s","type":"bytes32","internalType":"bytes32"}]}],"outputs":[{"name":"","type":"bool","internalType":"bool"}],"stateMutability":"view"},{"type":"function","name":"eip712Domain","inputs":[],"outputs":[{"name":"fields","type":"bytes1","internalType":"bytes1"},{"name":"name","type":"string","internalType":"string"},{"name":"version","type":"string","internalType":"string"},{"name":"chainId","type":"uint256","internalType":"uint256"},{"name":"verifyingContract","type":"address","internalType":"address"},{"name":"salt","type":"bytes32","internalType":"bytes32"},{"name":"extensions","type":"uint256[]","internalType":"uint256[]"}],"stateMutability":"view"},{"type":"function","name":"emergencyWithdraw","inputs":[],"outputs":[],"stateMutability":"nonpayable"},{"type":"function","name":"getSignMsgHash","inputs":[{"name":"_msg","type":"tuple","internalType":"struct SignatureInfo.SignMessage","components":[{"name":"mark","type":"string","internalType":"string"},{"name":"token","type":"address","internalType":"address"},{"name":"recipient","type":"address","internalType":"address"},{"name":"amount","type":"uint256","internalType":"uint256"},{"name":"fee","type":"uint256","internalType":"uint256"},{"name":"nonce","type":"uint256","internalType":"uint256"},{"name":"deadline","type":"uint256","internalType":"uint256"},{"name":"v","type":"uint8","internalType":"uint8"},{"name":"r","type":"bytes32","internalType":"bytes32"},{"name":"s","type":"bytes32","internalType":"bytes32"}]}],"outputs":[{"name":"","type":"bytes32","internalType":"bytes32"}],"stateMutability":"view"},{"type":"function","name":"identityInfo","inputs":[{"name":"","type":"address","internalType":"address"}],"outputs":[{"name":"","type":"uint8","internalType":"enum IStaking.Identity"}],"stateMutability":"view"},{"type":"function","name":"initialize","inputs":[{"name":"_cessToken","type":"address","internalType":"address"},{"name":"_cfunToken","type":"address","internalType":"address"},{"name":"_recipient","type":"address","internalType":"address"},{"name":"_admin","type":"address","internalType":"address"},{"name":"_signer","type":"address","internalType":"address"},{"name":"_addrs","type":"address[]","internalType":"address[]"}],"outputs":[],"stateMutability":"nonpayable"},{"type":"function","name":"isExcuted","inputs":[{"name":"","type":"string","internalType":"string"}],"outputs":[{"name":"","type":"bool","internalType":"bool"}],"stateMutability":"view"},{"type":"function","name":"isStaking","inputs":[{"name":"","type":"address","internalType":"address"}],"outputs":[{"name":"","type":"bool","internalType":"bool"}],"stateMutability":"view"},{"type":"function","name":"lastWithdrawTime","inputs":[{"name":"","type":"address","internalType":"address"}],"outputs":[{"name":"","type":"uint256","internalType":"uint256"}],"stateMutability":"view"},{"type":"function","name":"nonce","inputs":[],"outputs":[{"name":"","type":"uint256","internalType":"uint256"}],"stateMutability":"view"},{"type":"function","name":"owner","inputs":[],"outputs":[{"name":"","type":"address","internalType":"address"}],"stateMutability":"view"},{"type":"function","name":"proxiableUUID","inputs":[],"outputs":[{"name":"","type":"bytes32","internalType":"bytes32"}],"stateMutability":"view"},{"type":"function","name":"recipient","inputs":[],"outputs":[{"name":"","type":"address","internalType":"address"}],"stateMutability":"view"},{"type":"function","name":"renounceOwnership","inputs":[],"outputs":[],"stateMutability":"nonpayable"},{"type":"function","name":"setTokenAddr","inputs":[{"name":"_cessToken","type":"address","internalType":"address"},{"name":"_cfunToken","type":"address","internalType":"address"},{"name":"_recipient","type":"address","internalType":"address"},{"name":"_signer","type":"address","internalType":"address"}],"outputs":[],"stateMutability":"nonpayable"},{"type":"function","name":"signer","inputs":[],"outputs":[{"name":"","type":"address","internalType":"address"}],"stateMutability":"view"},{"type":"function","name":"stake","inputs":[{"name":"amount","type":"uint256","internalType":"uint256"}],"outputs":[],"stateMutability":"nonpayable"},{"type":"function","name":"transferOwnership","inputs":[{"name":"newOwner","type":"address","internalType":"address"}],"outputs":[],"stateMutability":"nonpayable"},{"type":"function","name":"upgradeToAndCall","inputs":[{"name":"newImplementation","type":"address","internalType":"address"},{"name":"data","type":"bytes","internalType":"bytes"}],"outputs":[],"stateMutability":"payable"},{"type":"function","name":"withdrawWithSignature","inputs":[{"name":"_msg","type":"tuple","internalType":"struct SignatureInfo.SignMessage","components":[{"name":"mark","type":"string","internalType":"string"},{"name":"token","type":"address","internalType":"address"},{"name":"recipient","type":"address","internalType":"address"},{"name":"amount","type":"uint256","internalType":"uint256"},{"name":"fee","type":"uint256","internalType":"uint256"},{"name":"nonce","type":"uint256","internalType":"uint256"},{"name":"deadline","type":"uint256","internalType":"uint256"},{"name":"v","type":"uint8","internalType":"uint8"},{"name":"r","type":"bytes32","internalType":"bytes32"},{"name":"s","type":"bytes32","internalType":"bytes32"}]}],"outputs":[],"stateMutability":"nonpayable"},{"type":"event","name":"EIP712DomainChanged","inputs":[],"anonymous":false},{"type":"event","name":"Initialized","inputs":[{"name":"version","type":"uint64","indexed":false,"internalType":"uint64"}],"anonymous":false},{"type":"event","name":"OwnershipTransferred","inputs":[{"name":"previousOwner","type":"address","indexed":true,"internalType":"address"},{"name":"newOwner","type":"address","indexed":true,"internalType":"address"}],"anonymous":false},{"type":"event","name":"Stake","inputs":[{"name":"sender","type":"address","indexed":false,"internalType":"address"},{"name":"amount","type":"uint256","indexed":false,"internalType":"uint256"},{"name":"identity","type":"uint8","indexed":false,"internalType":"enum IStaking.Identity"},{"name":"time","type":"uint256","indexed":false,"internalType":"uint256"}],"anonymous":false},{"type":"event","name":"Upgraded","inputs":[{"name":"implementation","type":"address","indexed":true,"internalType":"address"}],"anonymous":false},{"type":"event","name":"Withdraw","inputs":[{"name":"mark","type":"string","indexed":false,"internalType":"string"},{"name":"token","type":"address","indexed":false,"internalType":"address"},{"name":"recipient","type":"address","indexed":false,"internalType":"address"},{"name":"amount","type":"uint256","indexed":false,"internalType":"uint256"},{"name":"fee","type":"uint256","indexed":false,"internalType":"uint256"},{"name":"nonce","type":"uint256","indexed":false,"internalType":"uint256"},{"name":"time","type":"uint256","indexed":false,"internalType":"uint256"}],"anonymous":false},{"type":"error","name":"AddressEmptyCode","inputs":[{"name":"target","type":"address","internalType":"address"}]},{"type":"error","name":"ECDSAInvalidSignature","inputs":[]},{"type":"error","name":"ECDSAInvalidSignatureLength","inputs":[{"name":"length","type":"uint256","internalType":"uint256"}]},{"type":"error","name":"ECDSAInvalidSignatureS","inputs":[{"name":"s","type":"bytes32","internalType":"bytes32"}]},{"type":"error","name":"ERC1967InvalidImplementation","inputs":[{"name":"implementation","type":"address","internalType":"address"}]},{"type":"error","name":"ERC1967NonPayable","inputs":[]},{"type":"error","name":"FailedCall","inputs":[]},{"type":"error","name":"InvalidInitialization","inputs":[]},{"type":"error","name":"NotInitializing","inputs":[]},{"type":"error","name":"OwnableInvalidOwner","inputs":[{"name":"owner","type":"address","internalType":"address"}]},{"type":"error","name":"OwnableUnauthorizedAccount","inputs":[{"name":"account","type":"address","internalType":"address"}]},{"type":"error","name":"ReentrancyGuardReentrantCall","inputs":[]},{"type":"error","name":"UUPSUnauthorizedCallContext","inputs":[]},{"type":"error","name":"UUPSUnsupportedProxiableUUID","inputs":[{"name":"slot","type":"bytes32","internalType":"bytes32"}]}],"bytecode":{"object":"0x60a06040523073ffffffffffffffffffffffffffffffffffffffff1660809073ffffffffffffffffffffffffffffffffffffffff168152503480156041575f5ffd5b5060015f819055506080516140ac61006f5f395f81816119da01528181611a2f0152611be901526140ac5ff3fe60806040526004361061019f575f3560e01c806384b0196e116100eb578063db2e21bc11610089578063efe2a60e11610063578063efe2a60e1461057e578063f2fde38b146105ba578063f851a440146105e2578063fac62f871461060c576101a6565b8063db2e21bc14610518578063dbc27f371461052e578063dd8f90f514610556576101a6565b8063ad3cb1cc116100c5578063ad3cb1cc14610472578063affed0e01461049c578063b5df06b4146104c6578063cb1c2b5c146104ee576101a6565b806384b0196e146103f05780638da5cb5b14610420578063a694fc3a1461044a576101a6565b80634fb7726f1161015857806364d4508a1161013257806364d4508a1461034a57806366d003ac146103745780636f49712b1461039e578063715018a6146103da576101a6565b80634fb7726f146102ba57806351d7e36d146102f657806352d1902d14610320576101a6565b806309e00256146101aa5780631031ec31146101d2578063238ac9331461020e5780632f1d14cb146102385780634c7303bd146102625780634f1ef2861461029e576101a6565b366101a657005b5f5ffd5b3480156101b5575f5ffd5b506101d060048036038101906101cb9190612d33565b610648565b005b3480156101dd575f5ffd5b506101f860048036038101906101f39190612d7a565b610a92565b6040516102059190612db4565b60405180910390f35b348015610219575f5ffd5b50610222610aa7565b60405161022f9190612ddc565b60405180910390f35b348015610243575f5ffd5b5061024c610acc565b6040516102599190612e04565b60405180910390f35b34801561026d575f5ffd5b5061028860048036038101906102839190612d33565b610af0565b6040516102959190612e04565b60405180910390f35b6102b860048036038101906102b39190612ebb565b610b96565b005b3480156102c5575f5ffd5b506102e060048036038101906102db9190612f15565b610bb5565b6040516102ed9190612f76565b60405180910390f35b348015610301575f5ffd5b5061030a610bea565b6040516103179190612ddc565b60405180910390f35b34801561032b575f5ffd5b50610334610c0f565b6040516103419190612e04565b60405180910390f35b348015610355575f5ffd5b5061035e610c40565b60405161036b9190612ddc565b60405180910390f35b34801561037f575f5ffd5b50610388610c65565b6040516103959190612ddc565b60405180910390f35b3480156103a9575f5ffd5b506103c460048036038101906103bf9190612d7a565b610c8a565b6040516103d19190612f76565b60405180910390f35b3480156103e5575f5ffd5b506103ee610ca7565b005b3480156103fb575f5ffd5b50610404610cba565b60405161041797969594939291906130e0565b60405180910390f35b34801561042b575f5ffd5b50610434610dc3565b6040516104419190612ddc565b60405180910390f35b348015610455575f5ffd5b50610470600480360381019061046b9190613162565b610df8565b005b34801561047d575f5ffd5b50610486610f4f565b604051610493919061318d565b60405180910390f35b3480156104a7575f5ffd5b506104b0610f88565b6040516104bd9190612db4565b60405180910390f35b3480156104d1575f5ffd5b506104ec60048036038101906104e7919061320a565b610f8e565b005b3480156104f9575f5ffd5b506105026112e2565b60405161050f9190612db4565b60405180910390f35b348015610523575f5ffd5b5061052c6112f0565b005b348015610539575f5ffd5b50610554600480360381019061054f91906132d7565b611535565b005b348015610561575f5ffd5b5061057c60048036038101906105779190613334565b6115eb565b005b348015610589575f5ffd5b506105a4600480360381019061059f9190612d7a565b6116f9565b6040516105b1919061340b565b60405180910390f35b3480156105c5575f5ffd5b506105e060048036038101906105db9190612d7a565b611716565b005b3480156105ed575f5ffd5b506105f661179a565b6040516106039190612ddc565b60405180910390f35b348015610617575f5ffd5b50610632600480360381019061062d9190612d33565b6117bf565b60405161063f9190612f76565b60405180910390f35b610650611842565b6009548160a0015114610698576040517f08c379a000000000000000000000000000000000000000000000000000000000815260040161068f9061346e565b60405180910390fd5b428160c0015110156106df576040517f08c379a00000000000000000000000000000000000000000000000000000000081526004016106d6906134d6565b60405180910390fd5b6106e8816117bf565b610727576040517f08c379a000000000000000000000000000000000000000000000000000000000815260040161071e9061353e565b60405180910390fd5b600a5f826040015173ffffffffffffffffffffffffffffffffffffffff1673ffffffffffffffffffffffffffffffffffffffff1681526020019081526020015f205f9054906101000a900460ff166108075760015f826040015173ffffffffffffffffffffffffffffffffffffffff1673ffffffffffffffffffffffffffffffffffffffff1681526020019081526020015f205f9054906101000a900460ff16610806576040517f08c379a00000000000000000000000000000000000000000000000000000000081526004016107fd906135a6565b60405180910390fd5b5b6002815f015160405161081a91906135fe565b90815260200160405180910390205f9054906101000a900460ff1615610875576040517f08c379a000000000000000000000000000000000000000000000000000000000815260040161086c9061365e565b60405180910390fd5b62015180600b5f836040015173ffffffffffffffffffffffffffffffffffffffff1673ffffffffffffffffffffffffffffffffffffffff1681526020019081526020015f20546108c591906136a9565b421015610907576040517f08c379a00000000000000000000000000000000000000000000000000000000081526004016108fe90613726565b60405180910390fd5b5f73ffffffffffffffffffffffffffffffffffffffff16816020015173ffffffffffffffffffffffffffffffffffffffff161461099757610955816020015182604001518360600151611886565b5f8160800151111561099657610995816020015160065f9054906101000a900473ffffffffffffffffffffffffffffffffffffffff168360800151611886565b5b5b60016002825f01516040516109ac91906135fe565b90815260200160405180910390205f6101000a81548160ff02191690831515021790555060095f8154809291906109e290613744565b919050555042600b5f836040015173ffffffffffffffffffffffffffffffffffffffff1673ffffffffffffffffffffffffffffffffffffffff1681526020019081526020015f20819055507fd68aaa7e8d58aea5de0fba4e2458f3af4398555134dc58f5999caa807b1ac54c815f015182602001518360400151846060015185608001518660a0015142604051610a7f979695949392919061378b565b60405180910390a1610a8f6119b6565b50565b600b602052805f5260405f205f915090505481565b60085f9054906101000a900473ffffffffffffffffffffffffffffffffffffffff1681565b7fd078928298736a5369a7f71310cc1aae06828ac5e889a39e30e3fba689a149ea81565b5f610b8f7fd078928298736a5369a7f71310cc1aae06828ac5e889a39e30e3fba689a149ea835f0151604051602001610b2991906135fe565b6040516020818303038152906040528051906020012084602001518560400151866060015187608001518860a001518960c00151604051602001610b749897969594939291906137ff565b604051602081830303815290604052805190602001206119bf565b9050919050565b610b9e6119d8565b610ba782611abe565b610bb18282611ac9565b5050565b6002818051602081018201805184825260208301602085012081835280955050505050505f915054906101000a900460ff1681565b60045f9054906101000a900473ffffffffffffffffffffffffffffffffffffffff1681565b5f610c18611be7565b7f360894a13ba1a3210667c828492db98dca3e2076cc3735a920a3ca505d382bbc5f1b905090565b60055f9054906101000a900473ffffffffffffffffffffffffffffffffffffffff1681565b60065f9054906101000a900473ffffffffffffffffffffffffffffffffffffffff1681565b6001602052805f5260405f205f915054906101000a900460ff1681565b610caf611c6e565b610cb85f611cf5565b565b5f6060805f5f5f60605f610ccc611dc6565b90505f5f1b815f0154148015610ce757505f5f1b8160010154145b610d26576040517f08c379a0000000000000000000000000000000000000000000000000000000008152600401610d1d906138c5565b60405180910390fd5b610d2e611ded565b610d36611e8b565b46305f5f1b5f67ffffffffffffffff811115610d5557610d546129fe565b5b604051908082528060200260200182016040528015610d835781602001602082028036833780820191505090505b507f0f0000000000000000000000000000000000000000000000000000000000000095949392919097509750975097509750975097505090919293949596565b5f5f610dcd611f29565b9050805f015f9054906101000a900473ffffffffffffffffffffffffffffffffffffffff1691505090565b69021e19e0c9bab2400000811015610e45576040517f08c379a0000000000000000000000000000000000000000000000000000000008152600401610e3c9061392d565b60405180910390fd5b610e7260045f9054906101000a900473ffffffffffffffffffffffffffffffffffffffff16333084611f50565b6001805f3373ffffffffffffffffffffffffffffffffffffffff1673ffffffffffffffffffffffffffffffffffffffff1681526020019081526020015f205f6101000a81548160ff0219169083151502179055507fcdd3573c53d27f67b1a0deddbdb9d8ff02906ead670f7e8a52f4b6a8425dac5f338260035f3373ffffffffffffffffffffffffffffffffffffffff1673ffffffffffffffffffffffffffffffffffffffff1681526020019081526020015f205f9054906101000a900460ff1642604051610f44949392919061394b565b60405180910390a150565b6040518060400160405280600581526020017f352e302e3000000000000000000000000000000000000000000000000000000081525081565b60095481565b5f610f97612083565b90505f815f0160089054906101000a900460ff161590505f825f015f9054906101000a900467ffffffffffffffff1690505f5f8267ffffffffffffffff16148015610fdf5750825b90505f60018367ffffffffffffffff1614801561101257505f3073ffffffffffffffffffffffffffffffffffffffff163b145b905081158015611020575080155b15611057576040517ff92ee8a900000000000000000000000000000000000000000000000000000000815260040160405180910390fd5b6001855f015f6101000a81548167ffffffffffffffff021916908367ffffffffffffffff16021790555083156110a4576001855f0160086101000a81548160ff0219169083151502179055505b6111186040518060400160405280600781526020017f5374616b696e67000000000000000000000000000000000000000000000000008152506040518060400160405280600181526020017f3100000000000000000000000000000000000000000000000000000000000000815250612096565b6111286111236120e7565b6120ee565b611130612172565b8b60045f6101000a81548173ffffffffffffffffffffffffffffffffffffffff021916908373ffffffffffffffffffffffffffffffffffffffff1602179055508a60055f6101000a81548173ffffffffffffffffffffffffffffffffffffffff021916908373ffffffffffffffffffffffffffffffffffffffff1602179055508960065f6101000a81548173ffffffffffffffffffffffffffffffffffffffff021916908373ffffffffffffffffffffffffffffffffffffffff1602179055508860075f6101000a81548173ffffffffffffffffffffffffffffffffffffffff021916908373ffffffffffffffffffffffffffffffffffffffff1602179055508760085f6101000a81548173ffffffffffffffffffffffffffffffffffffffff021916908373ffffffffffffffffffffffffffffffffffffffff16021790555061127a878761217c565b83156112d4575f855f0160086101000a81548160ff0219169083151502179055507fc7f505b2f371ae2175ee4913f4499e1f2633a7b5936321eed1cdaeb6115181d260016040516112cb91906139e3565b60405180910390a15b505050505050505050505050565b69021e19e0c9bab240000081565b6112f8611842565b60075f9054906101000a900473ffffffffffffffffffffffffffffffffffffffff1673ffffffffffffffffffffffffffffffffffffffff163373ffffffffffffffffffffffffffffffffffffffff1614611387576040517f08c379a000000000000000000000000000000000000000000000000000000000815260040161137e90613a46565b60405180910390fd5b5f60045f9054906101000a900473ffffffffffffffffffffffffffffffffffffffff1673ffffffffffffffffffffffffffffffffffffffff166370a08231306040518263ffffffff1660e01b81526004016113e29190612ddc565b602060405180830381865afa1580156113fd573d5f5f3e3d5ffd5b505050506040513d601f19601f820116820180604052508101906114219190613a78565b90505f60055f9054906101000a900473ffffffffffffffffffffffffffffffffffffffff1673ffffffffffffffffffffffffffffffffffffffff166370a08231306040518263ffffffff1660e01b815260040161147e9190612ddc565b602060405180830381865afa158015611499573d5f5f3e3d5ffd5b505050506040513d601f19601f820116820180604052508101906114bd9190613a78565b90505f8211156114f4576114f360045f9054906101000a900473ffffffffffffffffffffffffffffffffffffffff163384611886565b5b5f8111156115295761152860055f9054906101000a900473ffffffffffffffffffffffffffffffffffffffff163383611886565b5b50506115336119b6565b565b61153d611c6e565b5f5f90505b838390508110156115e5578160035f86868581811061156457611563613aa3565b5b90506020020160208101906115799190612d7a565b73ffffffffffffffffffffffffffffffffffffffff1673ffffffffffffffffffffffffffffffffffffffff1681526020019081526020015f205f6101000a81548160ff021916908360038111156115d3576115d2613398565b5b02179055508080600101915050611542565b50505050565b6115f3611c6e565b8360045f6101000a81548173ffffffffffffffffffffffffffffffffffffffff021916908373ffffffffffffffffffffffffffffffffffffffff1602179055508260055f6101000a81548173ffffffffffffffffffffffffffffffffffffffff021916908373ffffffffffffffffffffffffffffffffffffffff1602179055508160065f6101000a81548173ffffffffffffffffffffffffffffffffffffffff021916908373ffffffffffffffffffffffffffffffffffffffff1602179055508060085f6101000a81548173ffffffffffffffffffffffffffffffffffffffff021916908373ffffffffffffffffffffffffffffffffffffffff16021790555050505050565b6003602052805f5260405f205f915054906101000a900460ff1681565b61171e611c6e565b5f73ffffffffffffffffffffffffffffffffffffffff168173ffffffffffffffffffffffffffffffffffffffff160361178e575f6040517f1e4fbdf70000000000000000000000000000000000000000000000000000000081526004016117859190612ddc565b60405180910390fd5b61179781611cf5565b50565b60075f9054906101000a900473ffffffffffffffffffffffffffffffffffffffff1681565b5f5f6117ca83610af0565b90505f6117e7828560e0015186610100015187610120015161221a565b905060085f9054906101000a900473ffffffffffffffffffffffffffffffffffffffff1673ffffffffffffffffffffffffffffffffffffffff168173ffffffffffffffffffffffffffffffffffffffff161492505050919050565b60025f540361187d576040517f3ee5aeb500000000000000000000000000000000000000000000000000000000815260040160405180910390fd5b60025f81905550565b5f5f8473ffffffffffffffffffffffffffffffffffffffff1663a9059cbb85856040516024016118b7929190613ad0565b6040516020818303038152906040529060e01b6020820180517bffffffffffffffffffffffffffffffffffffffffffffffffffffffff83818316178352505050506040516119059190613b3b565b5f604051808303815f865af19150503d805f811461193e576040519150601f19603f3d011682016040523d82523d5f602084013e611943565b606091505b509150915081801561197057505f8151148061196f57508080602001905181019061196e9190613b7b565b5b5b6119af576040517f08c379a00000000000000000000000000000000000000000000000000000000081526004016119a690613bf0565b60405180910390fd5b5050505050565b60015f81905550565b5f6119d16119cb612248565b83612256565b9050919050565b7f000000000000000000000000000000000000000000000000000000000000000073ffffffffffffffffffffffffffffffffffffffff163073ffffffffffffffffffffffffffffffffffffffff161480611a8557507f000000000000000000000000000000000000000000000000000000000000000073ffffffffffffffffffffffffffffffffffffffff16611a6c612296565b73ffffffffffffffffffffffffffffffffffffffff1614155b15611abc576040517fe07c8dba00000000000000000000000000000000000000000000000000000000815260040160405180910390fd5b565b611ac6611c6e565b50565b8173ffffffffffffffffffffffffffffffffffffffff166352d1902d6040518163ffffffff1660e01b8152600401602060405180830381865afa925050508015611b3157506040513d601f19601f82011682018060405250810190611b2e9190613c22565b60015b611b7257816040517f4c9c8ce3000000000000000000000000000000000000000000000000000000008152600401611b699190612ddc565b60405180910390fd5b7f360894a13ba1a3210667c828492db98dca3e2076cc3735a920a3ca505d382bbc5f1b8114611bd857806040517faa1d49a4000000000000000000000000000000000000000000000000000000008152600401611bcf9190612e04565b60405180910390fd5b611be283836122e9565b505050565b7f000000000000000000000000000000000000000000000000000000000000000073ffffffffffffffffffffffffffffffffffffffff163073ffffffffffffffffffffffffffffffffffffffff1614611c6c576040517fe07c8dba00000000000000000000000000000000000000000000000000000000815260040160405180910390fd5b565b611c766120e7565b73ffffffffffffffffffffffffffffffffffffffff16611c94610dc3565b73ffffffffffffffffffffffffffffffffffffffff1614611cf357611cb76120e7565b6040517f118cdaa7000000000000000000000000000000000000000000000000000000008152600401611cea9190612ddc565b60405180910390fd5b565b5f611cfe611f29565b90505f815f015f9054906101000a900473ffffffffffffffffffffffffffffffffffffffff16905082825f015f6101000a81548173ffffffffffffffffffffffffffffffffffffffff021916908373ffffffffffffffffffffffffffffffffffffffff1602179055508273ffffffffffffffffffffffffffffffffffffffff168173ffffffffffffffffffffffffffffffffffffffff167f8be0079c531659141344cd1fd0a4f28419497f9722a3daafe3b4186f6b6457e060405160405180910390a3505050565b5f7fa16a46d94261c7517cc8ff89f61c0ce93598e3c849801011dee649a6a557d100905090565b60605f611df8611dc6565b9050806002018054611e0990613c7a565b80601f0160208091040260200160405190810160405280929190818152602001828054611e3590613c7a565b8015611e805780601f10611e5757610100808354040283529160200191611e80565b820191905f5260205f20905b815481529060010190602001808311611e6357829003601f168201915b505050505091505090565b60605f611e96611dc6565b9050806003018054611ea790613c7a565b80601f0160208091040260200160405190810160405280929190818152602001828054611ed390613c7a565b8015611f1e5780601f10611ef557610100808354040283529160200191611f1e565b820191905f5260205f20905b815481529060010190602001808311611f0157829003601f168201915b505050505091505090565b5f7f9016d09d72d40fdae2fd8ceac6b6234c7706214fd39c1cd1e609a0528c199300905090565b5f5f8573ffffffffffffffffffffffffffffffffffffffff166323b872dd868686604051602401611f8393929190613caa565b6040516020818303038152906040529060e01b6020820180517bffffffffffffffffffffffffffffffffffffffffffffffffffffffff8381831617835250505050604051611fd19190613b3b565b5f604051808303815f865af19150503d805f811461200a576040519150601f19603f3d011682016040523d82523d5f602084013e61200f565b606091505b509150915081801561203c57505f8151148061203b57508080602001905181019061203a9190613b7b565b5b5b61207b576040517f08c379a000000000000000000000000000000000000000000000000000000000815260040161207290613d4f565b60405180910390fd5b505050505050565b5f5f61208d61235b565b90508091505090565b61209e612384565b5f6120a7611dc6565b9050828160020190816120ba9190613f04565b50818160030190816120cc9190613f04565b505f5f1b815f01819055505f5f1b8160010181905550505050565b5f33905090565b6120f6612384565b5f73ffffffffffffffffffffffffffffffffffffffff168173ffffffffffffffffffffffffffffffffffffffff1603612166575f6040517f1e4fbdf700000000000000000000000000000000000000000000000000000000815260040161215d9190612ddc565b60405180910390fd5b61216f81611cf5565b50565b61217a612384565b565b5f5f90505b82829050811015612215576001600a5f8585858181106121a4576121a3613aa3565b5b90506020020160208101906121b99190612d7a565b73ffffffffffffffffffffffffffffffffffffffff1673ffffffffffffffffffffffffffffffffffffffff1681526020019081526020015f205f6101000a81548160ff0219169083151502179055508080600101915050612181565b505050565b5f5f5f5f61222a888888886123c4565b92509250925061223a82826124ab565b829350505050949350505050565b5f61225161260d565b905090565b5f6040517f190100000000000000000000000000000000000000000000000000000000000081528360028201528260228201526042812091505092915050565b5f6122c27f360894a13ba1a3210667c828492db98dca3e2076cc3735a920a3ca505d382bbc5f1b612670565b5f015f9054906101000a900473ffffffffffffffffffffffffffffffffffffffff16905090565b6122f282612679565b8173ffffffffffffffffffffffffffffffffffffffff167fbc7cd75a20ee27fd9adebab32041f755214dbc6bffa90cc0225b39da2e5c2d3b60405160405180910390a25f8151111561234e576123488282612742565b50612357565b6123566127c2565b5b5050565b5f7ff0c57e16840df040f15088dc2f81fe391c3923bec73e23a9662efc9c229c6a005f1b905090565b61238c6127fe565b6123c2576040517fd7e6bcf800000000000000000000000000000000000000000000000000000000815260040160405180910390fd5b565b5f5f5f7f7fffffffffffffffffffffffffffffff5d576e7357a4501ddfe92f46681b20a0845f1c1115612400575f6003859250925092506124a1565b5f6001888888886040515f81526020016040526040516124239493929190613fe2565b6020604051602081039080840390855afa158015612443573d5f5f3e3d5ffd5b5050506020604051035190505f73ffffffffffffffffffffffffffffffffffffffff168173ffffffffffffffffffffffffffffffffffffffff1603612494575f60015f5f1b935093509350506124a1565b805f5f5f1b935093509350505b9450945094915050565b5f60038111156124be576124bd613398565b5b8260038111156124d1576124d0613398565b5b031561260957600160038111156124eb576124ea613398565b5b8260038111156124fe576124fd613398565b5b03612535576040517ff645eedf00000000000000000000000000000000000000000000000000000000815260040160405180910390fd5b6002600381111561254957612548613398565b5b82600381111561255c5761255b613398565b5b036125a057805f1c6040517ffce698f70000000000000000000000000000000000000000000000000000000081526004016125979190612db4565b60405180910390fd5b6003808111156125b3576125b2613398565b5b8260038111156125c6576125c5613398565b5b0361260857806040517fd78bce0c0000000000000000000000000000000000000000000000000000000081526004016125ff9190612e04565b60405180910390fd5b5b5050565b5f7f8b73c3c69bb8fe3d512ecc4cf759cc79239f7b179b0ffacaa9a75d522b39400f61263761281c565b61263f612892565b4630604051602001612655959493929190614025565b60405160208183030381529060405280519060200120905090565b5f819050919050565b5f8173ffffffffffffffffffffffffffffffffffffffff163b036126d457806040517f4c9c8ce30000000000000000000000000000000000000000000000000000000081526004016126cb9190612ddc565b60405180910390fd5b806127007f360894a13ba1a3210667c828492db98dca3e2076cc3735a920a3ca505d382bbc5f1b612670565b5f015f6101000a81548173ffffffffffffffffffffffffffffffffffffffff021916908373ffffffffffffffffffffffffffffffffffffffff16021790555050565b60605f5f8473ffffffffffffffffffffffffffffffffffffffff168460405161276b9190613b3b565b5f60405180830381855af49150503d805f81146127a3576040519150601f19603f3d011682016040523d82523d5f602084013e6127a8565b606091505b50915091506127b8858383612909565b9250505092915050565b5f3411156127fc576040517fb398979f00000000000000000000000000000000000000000000000000000000815260040160405180910390fd5b565b5f612807612083565b5f0160089054906101000a900460ff16905090565b5f5f612826611dc6565b90505f612831611ded565b90505f8151111561284d5780805190602001209250505061288f565b5f825f015490505f5f1b81146128685780935050505061288f565b7fc5d2460186f7233c927e7db2dcc703c0e500b653ca82273b7bfad8045d85a47093505050505b90565b5f5f61289c611dc6565b90505f6128a7611e8b565b90505f815111156128c357808051906020012092505050612906565b5f826001015490505f5f1b81146128df57809350505050612906565b7fc5d2460186f7233c927e7db2dcc703c0e500b653ca82273b7bfad8045d85a47093505050505b90565b60608261291e5761291982612996565b61298e565b5f825114801561294457505f8473ffffffffffffffffffffffffffffffffffffffff163b145b1561298657836040517f9996b31500000000000000000000000000000000000000000000000000000000815260040161297d9190612ddc565b60405180910390fd5b81905061298f565b5b9392505050565b5f815111156129a757805160208201fd5b6040517fd6bda27500000000000000000000000000000000000000000000000000000000815260040160405180910390fd5b5f604051905090565b5f5ffd5b5f5ffd5b5f5ffd5b5f601f19601f8301169050919050565b7f4e487b71000000000000000000000000000000000000000000000000000000005f52604160045260245ffd5b612a34826129ee565b810181811067ffffffffffffffff82111715612a5357612a526129fe565b5b80604052505050565b5f612a656129d9565b9050612a718282612a2b565b919050565b5f5ffd5b5f5ffd5b5f5ffd5b5f67ffffffffffffffff821115612a9c57612a9b6129fe565b5b612aa5826129ee565b9050602081019050919050565b828183375f83830152505050565b5f612ad2612acd84612a82565b612a5c565b905082815260208101848484011115612aee57612aed612a7e565b5b612af9848285612ab2565b509392505050565b5f82601f830112612b1557612b14612a7a565b5b8135612b25848260208601612ac0565b91505092915050565b5f73ffffffffffffffffffffffffffffffffffffffff82169050919050565b5f612b5782612b2e565b9050919050565b612b6781612b4d565b8114612b71575f5ffd5b50565b5f81359050612b8281612b5e565b92915050565b5f819050919050565b612b9a81612b88565b8114612ba4575f5ffd5b50565b5f81359050612bb581612b91565b92915050565b5f60ff82169050919050565b612bd081612bbb565b8114612bda575f5ffd5b50565b5f81359050612beb81612bc7565b92915050565b5f819050919050565b612c0381612bf1565b8114612c0d575f5ffd5b50565b5f81359050612c1e81612bfa565b92915050565b5f6101408284031215612c3a57612c396129ea565b5b612c45610140612a5c565b90505f82013567ffffffffffffffff811115612c6457612c63612a76565b5b612c7084828501612b01565b5f830152506020612c8384828501612b74565b6020830152506040612c9784828501612b74565b6040830152506060612cab84828501612ba7565b6060830152506080612cbf84828501612ba7565b60808301525060a0612cd384828501612ba7565b60a08301525060c0612ce784828501612ba7565b60c08301525060e0612cfb84828501612bdd565b60e083015250610100612d1084828501612c10565b61010083015250610120612d2684828501612c10565b6101208301525092915050565b5f60208284031215612d4857612d476129e2565b5b5f82013567ffffffffffffffff811115612d6557612d646129e6565b5b612d7184828501612c24565b91505092915050565b5f60208284031215612d8f57612d8e6129e2565b5b5f612d9c84828501612b74565b91505092915050565b612dae81612b88565b82525050565b5f602082019050612dc75f830184612da5565b92915050565b612dd681612b4d565b82525050565b5f602082019050612def5f830184612dcd565b92915050565b612dfe81612bf1565b82525050565b5f602082019050612e175f830184612df5565b92915050565b5f67ffffffffffffffff821115612e3757612e366129fe565b5b612e40826129ee565b9050602081019050919050565b5f612e5f612e5a84612e1d565b612a5c565b905082815260208101848484011115612e7b57612e7a612a7e565b5b612e86848285612ab2565b509392505050565b5f82601f830112612ea257612ea1612a7a565b5b8135612eb2848260208601612e4d565b91505092915050565b5f5f60408385031215612ed157612ed06129e2565b5b5f612ede85828601612b74565b925050602083013567ffffffffffffffff811115612eff57612efe6129e6565b5b612f0b85828601612e8e565b9150509250929050565b5f60208284031215612f2a57612f296129e2565b5b5f82013567ffffffffffffffff811115612f4757612f466129e6565b5b612f5384828501612b01565b91505092915050565b5f8115159050919050565b612f7081612f5c565b82525050565b5f602082019050612f895f830184612f67565b92915050565b5f7fff0000000000000000000000000000000000000000000000000000000000000082169050919050565b612fc381612f8f565b82525050565b5f81519050919050565b5f82825260208201905092915050565b8281835e5f83830152505050565b5f612ffb82612fc9565b6130058185612fd3565b9350613015818560208601612fe3565b61301e816129ee565b840191505092915050565b5f81519050919050565b5f82825260208201905092915050565b5f819050602082019050919050565b61305b81612b88565b82525050565b5f61306c8383613052565b60208301905092915050565b5f602082019050919050565b5f61308e82613029565b6130988185613033565b93506130a383613043565b805f5b838110156130d35781516130ba8882613061565b97506130c583613078565b9250506001810190506130a6565b5085935050505092915050565b5f60e0820190506130f35f83018a612fba565b81810360208301526131058189612ff1565b905081810360408301526131198188612ff1565b90506131286060830187612da5565b6131356080830186612dcd565b61314260a0830185612df5565b81810360c08301526131548184613084565b905098975050505050505050565b5f60208284031215613177576131766129e2565b5b5f61318484828501612ba7565b91505092915050565b5f6020820190508181035f8301526131a58184612ff1565b905092915050565b5f5ffd5b5f5ffd5b5f5f83601f8401126131ca576131c9612a7a565b5b8235905067ffffffffffffffff8111156131e7576131e66131ad565b5b602083019150836020820283011115613203576132026131b1565b5b9250929050565b5f5f5f5f5f5f5f60c0888a031215613225576132246129e2565b5b5f6132328a828b01612b74565b97505060206132438a828b01612b74565b96505060406132548a828b01612b74565b95505060606132658a828b01612b74565b94505060806132768a828b01612b74565b93505060a088013567ffffffffffffffff811115613297576132966129e6565b5b6132a38a828b016131b5565b925092505092959891949750929550565b600481106132c0575f5ffd5b50565b5f813590506132d1816132b4565b92915050565b5f5f5f604084860312156132ee576132ed6129e2565b5b5f84013567ffffffffffffffff81111561330b5761330a6129e6565b5b613317868287016131b5565b9350935050602061332a868287016132c3565b9150509250925092565b5f5f5f5f6080858703121561334c5761334b6129e2565b5b5f61335987828801612b74565b945050602061336a87828801612b74565b935050604061337b87828801612b74565b925050606061338c87828801612b74565b91505092959194509250565b7f4e487b71000000000000000000000000000000000000000000000000000000005f52602160045260245ffd5b600481106133d6576133d5613398565b5b50565b5f8190506133e6826133c5565b919050565b5f6133f5826133d9565b9050919050565b613405816133eb565b82525050565b5f60208201905061341e5f8301846133fc565b92915050565b7f4e6f6e6365206572726f722e00000000000000000000000000000000000000005f82015250565b5f613458600c83612fd3565b915061346382613424565b602082019050919050565b5f6020820190508181035f8301526134858161344c565b9050919050565b7f446561646c696e65206572726f722e00000000000000000000000000000000005f82015250565b5f6134c0600f83612fd3565b91506134cb8261348c565b602082019050919050565b5f6020820190508181035f8301526134ed816134b4565b9050919050565b7f436865636b207369676e6174757265206572726f722e000000000000000000005f82015250565b5f613528601683612fd3565b9150613533826134f4565b602082019050919050565b5f6020820190508181035f8301526135558161351c565b9050919050565b7f4e6f7420706c65646765642e00000000000000000000000000000000000000005f82015250565b5f613590600c83612fd3565b915061359b8261355c565b602082019050919050565b5f6020820190508181035f8301526135bd81613584565b9050919050565b5f81905092915050565b5f6135d882612fc9565b6135e281856135c4565b93506135f2818560208601612fe3565b80840191505092915050565b5f61360982846135ce565b915081905092915050565b7f4572726f7220657863757465642e0000000000000000000000000000000000005f82015250565b5f613648600e83612fd3565b915061365382613614565b602082019050919050565b5f6020820190508181035f8301526136758161363c565b9050919050565b7f4e487b71000000000000000000000000000000000000000000000000000000005f52601160045260245ffd5b5f6136b382612b88565b91506136be83612b88565b92508282019050808211156136d6576136d561367c565b5b92915050565b7f5769746864726177206f6e6c79206f6e636520706572203234680000000000005f82015250565b5f613710601a83612fd3565b915061371b826136dc565b602082019050919050565b5f6020820190508181035f83015261373d81613704565b9050919050565b5f61374e82612b88565b91507fffffffffffffffffffffffffffffffffffffffffffffffffffffffffffffffff82036137805761377f61367c565b5b600182019050919050565b5f60e0820190508181035f8301526137a3818a612ff1565b90506137b26020830189612dcd565b6137bf6040830188612dcd565b6137cc6060830187612da5565b6137d96080830186612da5565b6137e660a0830185612da5565b6137f360c0830184612da5565b98975050505050505050565b5f610100820190506138135f83018b612df5565b613820602083018a612df5565b61382d6040830189612dcd565b61383a6060830188612dcd565b6138476080830187612da5565b61385460a0830186612da5565b61386160c0830185612da5565b61386e60e0830184612da5565b9998505050505050505050565b7f4549503731323a20556e696e697469616c697a656400000000000000000000005f82015250565b5f6138af601583612fd3565b91506138ba8261387b565b602082019050919050565b5f6020820190508181035f8301526138dc816138a3565b9050919050565b7f4572726f725f7374616b655f616d6f756e742e000000000000000000000000005f82015250565b5f613917601383612fd3565b9150613922826138e3565b602082019050919050565b5f6020820190508181035f8301526139448161390b565b9050919050565b5f60808201905061395e5f830187612dcd565b61396b6020830186612da5565b61397860408301856133fc565b6139856060830184612da5565b95945050505050565b5f819050919050565b5f67ffffffffffffffff82169050919050565b5f819050919050565b5f6139cd6139c86139c38461398e565b6139aa565b613997565b9050919050565b6139dd816139b3565b82525050565b5f6020820190506139f65f8301846139d4565b92915050565b7f4572726f725f61646d696e2e00000000000000000000000000000000000000005f82015250565b5f613a30600c83612fd3565b9150613a3b826139fc565b602082019050919050565b5f6020820190508181035f830152613a5d81613a24565b9050919050565b5f81519050613a7281612b91565b92915050565b5f60208284031215613a8d57613a8c6129e2565b5b5f613a9a84828501613a64565b91505092915050565b7f4e487b71000000000000000000000000000000000000000000000000000000005f52603260045260245ffd5b5f604082019050613ae35f830185612dcd565b613af06020830184612da5565b9392505050565b5f81519050919050565b5f81905092915050565b5f613b1582613af7565b613b1f8185613b01565b9350613b2f818560208601612fe3565b80840191505092915050565b5f613b468284613b0b565b915081905092915050565b613b5a81612f5c565b8114613b64575f5ffd5b50565b5f81519050613b7581613b51565b92915050565b5f60208284031215613b9057613b8f6129e2565b5b5f613b9d84828501613b67565b91505092915050565b7f5472616e7366657248656c7065723a205452414e534645525f4641494c4544005f82015250565b5f613bda601f83612fd3565b9150613be582613ba6565b602082019050919050565b5f6020820190508181035f830152613c0781613bce565b9050919050565b5f81519050613c1c81612bfa565b92915050565b5f60208284031215613c3757613c366129e2565b5b5f613c4484828501613c0e565b91505092915050565b7f4e487b71000000000000000000000000000000000000000000000000000000005f52602260045260245ffd5b5f6002820490506001821680613c9157607f821691505b602082108103613ca457613ca3613c4d565b5b50919050565b5f606082019050613cbd5f830186612dcd565b613cca6020830185612dcd565b613cd76040830184612da5565b949350505050565b7f5472616e7366657248656c7065723a205452414e534645525f46524f4d5f46415f8201527f494c454400000000000000000000000000000000000000000000000000000000602082015250565b5f613d39602483612fd3565b9150613d4482613cdf565b604082019050919050565b5f6020820190508181035f830152613d6681613d2d565b9050919050565b5f819050815f5260205f209050919050565b5f6020601f8301049050919050565b5f82821b905092915050565b5f60088302613dc97fffffffffffffffffffffffffffffffffffffffffffffffffffffffffffffffff82613d8e565b613dd38683613d8e565b95508019841693508086168417925050509392505050565b5f613e05613e00613dfb84612b88565b6139aa565b612b88565b9050919050565b5f819050919050565b613e1e83613deb565b613e32613e2a82613e0c565b848454613d9a565b825550505050565b5f5f905090565b613e49613e3a565b613e54818484613e15565b505050565b5b81811015613e7757613e6c5f82613e41565b600181019050613e5a565b5050565b601f821115613ebc57613e8d81613d6d565b613e9684613d7f565b81016020851015613ea5578190505b613eb9613eb185613d7f565b830182613e59565b50505b505050565b5f82821c905092915050565b5f613edc5f1984600802613ec1565b1980831691505092915050565b5f613ef48383613ecd565b9150826002028217905092915050565b613f0d82612fc9565b67ffffffffffffffff811115613f2657613f256129fe565b5b613f308254613c7a565b613f3b828285613e7b565b5f60209050601f831160018114613f6c575f8415613f5a578287015190505b613f648582613ee9565b865550613fcb565b601f198416613f7a86613d6d565b5f5b82811015613fa157848901518255600182019150602085019450602081019050613f7c565b86831015613fbe5784890151613fba601f891682613ecd565b8355505b6001600288020188555050505b505050505050565b613fdc81612bbb565b82525050565b5f608082019050613ff55f830187612df5565b6140026020830186613fd3565b61400f6040830185612df5565b61401c6060830184612df5565b95945050505050565b5f60a0820190506140385f830188612df5565b6140456020830187612df5565b6140526040830186612df5565b61405f6060830185612da5565b61406c6080830184612dcd565b969550505050505056fea2646970667358221220f77338b6173f1157bcb02006e6d509dcc4fbad6ee346ca42edbcb9d350744f1364736f6c634300081e0033","linkReferences":{}},"methodIdentifiers":{"MIN_STAKE()":"cb1c2b5c","SIGN_TYPEHASH()":"2f1d14cb","UPGRADE_INTERFACE_VERSION()":"ad3cb1cc","addIdentity(address[],uint8)":"dbc27f37","admin()":"f851a440","cessToken()":"51d7e36d","cfunToken()":"64d4508a","checkerSignMsgSignature((string,address,address,uint256,uint256,uint256,uint256,uint8,bytes32,bytes32))":"fac62f87","eip712Domain()":"84b0196e","emergencyWithdraw()":"db2e21bc","getSignMsgHash((string,address,address,uint256,uint256,uint256,uint256,uint8,bytes32,bytes32))":"4c7303bd","identityInfo(address)":"efe2a60e","initialize(address,address,address,address,address,address[])":"b5df06b4","isExcuted(string)":"4fb7726f","isStaking(address)":"6f49712b","lastWithdrawTime(address)":"1031ec31","nonce()":"affed0e0","owner()":"8da5cb5b","proxiableUUID()":"52d1902d","recipient()":"66d003ac","renounceOwnership()":"715018a6","setTokenAddr(address,address,address,address)":"dd8f90f5","signer()":"238ac933","stake(uint256)":"a694fc3a","transferOwnership(address)":"f2fde38b","upgradeToAndCall(address,bytes)":"4f1ef286","withdrawWithSignature((string,address,address,uint256,uint256,uint256,uint256,uint8,bytes32,bytes32))":"09e00256"},"id":50}