{"abi":[{"type":"receive","stateMutability":"payable"},{"type":"function","name":"DEAD","inputs":[],"outputs":[{"name":"","type":"address","internalType":"address"}],"stateMutability":"view"},{"type":"function","name":"MAX_REFERRAL_DEPTH","inputs":[],"outputs":[{"name":"","type":"uint256","internalType":"uint256"}],"stateMutability":"view"},{"type":"function","name":"UPGRADE_INTERFACE_VERSION","inputs":[],"outputs":[{"name":"","type":"string","internalType":"string"}],"stateMutability":"view"},{"type":"function","name":"USDT","inputs":[],"outputs":[{"name":"","type":"address","internalType":"address"}],"stateMutability":"view"},{"type":"function","name":"admin","inputs":[],"outputs":[{"name":"","type":"address","internalType":"address"}],"stateMutability":"view"},{"type":"function","name":"awardRecords","inputs":[{"name":"","type":"address","internalType":"address"},{"name":"","type":"uint256","internalType":"uint256"}],"outputs":[{"name":"from","type":"address","internalType":"address"},{"name":"amount","type":"uint256","internalType":"uint256"},{"name":"time","type":"uint256","internalType":"uint256"}],"stateMutability":"view"},{"type":"function","name":"claim","inputs":[{"name":"amount","type":"uint256","internalType":"uint256"}],"outputs":[],"stateMutability":"nonpayable"},{"type":"function","name":"decimals","inputs":[],"outputs":[{"name":"","type":"uint256","internalType":"uint256"}],"stateMutability":"view"},{"type":"function","name":"directReferrals","inputs":[{"name":"","type":"address","internalType":"address"},{"name":"","type":"uint256","internalType":"uint256"}],"outputs":[{"name":"","type":"address","internalType":"address"}],"stateMutability":"view"},{"type":"function","name":"djsv1","inputs":[],"outputs":[{"name":"","type":"address","internalType":"address"}],"stateMutability":"view"},{"type":"function","name":"getDirectReferrals","inputs":[{"name":"user","type":"address","internalType":"address"}],"outputs":[{"name":"","type":"address[]","internalType":"address[]"}],"stateMutability":"view"},{"type":"function","name":"getReferralAwardRecords","inputs":[{"name":"user","type":"address","internalType":"address"}],"outputs":[{"name":"","type":"tuple[]","internalType":"struct Process.Record[]","components":[{"name":"from","type":"address","internalType":"address"},{"name":"amount","type":"uint256","internalType":"uint256"},{"name":"time","type":"uint256","internalType":"uint256"}]}],"stateMutability":"view"},{"type":"function","name":"getShareLevelAward","inputs":[{"name":"user","type":"address","internalType":"address"}],"outputs":[{"name":"","type":"uint256","internalType":"uint256"}],"stateMutability":"view"},{"type":"function","name":"getUserAward","inputs":[{"name":"user","type":"address","internalType":"address"}],"outputs":[{"name":"","type":"uint256","internalType":"uint256"}],"stateMutability":"view"},{"type":"function","name":"getUserInfoBasic","inputs":[{"name":"user","type":"address","internalType":"address"}],"outputs":[{"name":"level","type":"uint8","internalType":"enum Process.Level"},{"name":"recommender","type":"address","internalType":"address"},{"name":"stakingUsdt","type":"uint256","internalType":"uint256"},{"name":"multiple","type":"uint256","internalType":"uint256"},{"name":"totalAward","type":"uint256","internalType":"uint256"},{"name":"shareAward","type":"uint256","internalType":"uint256"}],"stateMutability":"view"},{"type":"function","name":"getUserInfoReferral","inputs":[{"name":"user","type":"address","internalType":"address"}],"outputs":[{"name":"referralNum","type":"uint256","internalType":"uint256"},{"name":"performance","type":"uint256","internalType":"uint256"},{"name":"referralAward","type":"uint256","internalType":"uint256"},{"name":"subCoinQuota","type":"uint256","internalType":"uint256"},{"name":"isMigration","type":"bool","internalType":"bool"}],"stateMutability":"view"},{"type":"function","name":"initialCode","inputs":[],"outputs":[{"name":"","type":"address","internalType":"address"}],"stateMutability":"view"},{"type":"function","name":"initialize","inputs":[{"name":"_admin","type":"address","internalType":"address"},{"name":"_initialCode","type":"address","internalType":"address"},{"name":"_djsv1","type":"address","internalType":"address"},{"name":"_node","type":"address","internalType":"address"},{"name":"_liquidity","type":"address","internalType":"address"}],"outputs":[],"stateMutability":"nonpayable"},{"type":"function","name":"isAddDirectReferrals","inputs":[{"name":"","type":"address","internalType":"address"}],"outputs":[{"name":"","type":"bool","internalType":"bool"}],"stateMutability":"view"},{"type":"function","name":"lastShareAwardTime","inputs":[],"outputs":[{"name":"","type":"uint256","internalType":"uint256"}],"stateMutability":"view"},{"type":"function","name":"liquidityManager","inputs":[],"outputs":[{"name":"","type":"address","internalType":"address"}],"stateMutability":"view"},{"type":"function","name":"migrationReferral","inputs":[{"name":"user","type":"address","internalType":"address"}],"outputs":[],"stateMutability":"nonpayable"},{"type":"function","name":"node","inputs":[],"outputs":[{"name":"","type":"address","internalType":"address"}],"stateMutability":"view"},{"type":"function","name":"owner","inputs":[],"outputs":[{"name":"","type":"address","internalType":"address"}],"stateMutability":"view"},{"type":"function","name":"pancakeRouter","inputs":[],"outputs":[{"name":"","type":"address","internalType":"contract IUniswapV2Router02"}],"stateMutability":"view"},{"type":"function","name":"pause","inputs":[],"outputs":[{"name":"","type":"bool","internalType":"bool"}],"stateMutability":"view"},{"type":"function","name":"perSecondStakedAeward","inputs":[],"outputs":[{"name":"","type":"uint256","internalType":"uint256"}],"stateMutability":"view"},{"type":"function","name":"perSharePerformanceAward","inputs":[],"outputs":[{"name":"","type":"uint256","internalType":"uint256"}],"stateMutability":"view"},{"type":"function","name":"proxiableUUID","inputs":[],"outputs":[{"name":"","type":"bytes32","internalType":"bytes32"}],"stateMutability":"view"},{"type":"function","name":"referral","inputs":[{"name":"recommender","type":"address","internalType":"address"}],"outputs":[],"stateMutability":"nonpayable"},{"type":"function","name":"referralInfo","inputs":[{"name":"","type":"address","internalType":"address"}],"outputs":[{"name":"recommender","type":"address","internalType":"address"},{"name":"level","type":"uint8","internalType":"enum Process.Level"},{"name":"referralNum","type":"uint256","internalType":"uint256"},{"name":"performance","type":"uint256","internalType":"uint256"},{"name":"referralAward","type":"uint256","internalType":"uint256"},{"name":"subCoinQuota","type":"uint256","internalType":"uint256"},{"name":"shareAwardDebt","type":"uint256","internalType":"uint256"},{"name":"isMigration","type":"bool","internalType":"bool"}],"stateMutability":"view"},{"type":"function","name":"renounceOwnership","inputs":[],"outputs":[],"stateMutability":"nonpayable"},{"type":"function","name":"setPause","inputs":[{"name":"isPause","type":"bool","internalType":"bool"}],"outputs":[],"stateMutability":"nonpayable"},{"type":"function","name":"shareRate","inputs":[],"outputs":[{"name":"","type":"uint256","internalType":"uint256"}],"stateMutability":"view"},{"type":"function","name":"stake","inputs":[{"name":"amountUSDT","type":"uint256","internalType":"uint256"}],"outputs":[],"stateMutability":"nonpayable"},{"type":"function","name":"subCoinQuotas","inputs":[{"name":"","type":"uint8","internalType":"enum Process.Level"}],"outputs":[{"name":"","type":"uint256","internalType":"uint256"}],"stateMutability":"view"},{"type":"function","name":"swapSubToken","inputs":[{"name":"amountUSDT","type":"uint256","internalType":"uint256"}],"outputs":[],"stateMutability":"nonpayable"},{"type":"function","name":"totalSharePerformance","inputs":[],"outputs":[{"name":"","type":"uint256","internalType":"uint256"}],"stateMutability":"view"},{"type":"function","name":"totalStakedUsdt","inputs":[],"outputs":[{"name":"","type":"uint256","internalType":"uint256"}],"stateMutability":"view"},{"type":"function","name":"transferOwnership","inputs":[{"name":"newOwner","type":"address","internalType":"address"}],"outputs":[],"stateMutability":"nonpayable"},{"type":"function","name":"upgradeToAndCall","inputs":[{"name":"newImplementation","type":"address","internalType":"address"},{"name":"data","type":"bytes","internalType":"bytes"}],"outputs":[],"stateMutability":"payable"},{"type":"function","name":"userInfo","inputs":[{"name":"","type":"address","internalType":"address"}],"outputs":[{"name":"stakingUsdt","type":"uint256","internalType":"uint256"},{"name":"multiple","type":"uint256","internalType":"uint256"},{"name":"stakingTime","type":"uint256","internalType":"uint256"},{"name":"pendingProfit","type":"uint256","internalType":"uint256"},{"name":"extracted","type":"uint256","internalType":"uint256"}],"stateMutability":"view"},{"type":"function","name":"whetherNeedMigrate","inputs":[{"name":"user","type":"address","internalType":"address"}],"outputs":[{"name":"","type":"bool","internalType":"bool"}],"stateMutability":"view"},{"type":"event","name":"Claimed","inputs":[{"name":"user","type":"address","indexed":false,"internalType":"address"},{"name":"amount","type":"uint256","indexed":false,"internalType":"uint256"}],"anonymous":false},{"type":"event","name":"Initialized","inputs":[{"name":"version","type":"uint64","indexed":false,"internalType":"uint64"}],"anonymous":false},{"type":"event","name":"OwnershipTransferred","inputs":[{"name":"previousOwner","type":"address","indexed":true,"internalType":"address"},{"name":"newOwner","type":"address","indexed":true,"internalType":"address"}],"anonymous":false},{"type":"event","name":"Referrals","inputs":[{"name":"recommender","type":"address","indexed":false,"internalType":"address"},{"name":"referred","type":"address","indexed":false,"internalType":"address"}],"anonymous":false},{"type":"event","name":"Staked","inputs":[{"name":"user","type":"address","indexed":false,"internalType":"address"},{"name":"amount","type":"uint256","indexed":false,"internalType":"uint256"}],"anonymous":false},{"type":"event","name":"Upgraded","inputs":[{"name":"implementation","type":"address","indexed":true,"internalType":"address"}],"anonymous":false},{"type":"error","name":"AddressEmptyCode","inputs":[{"name":"target","type":"address","internalType":"address"}]},{"type":"error","name":"AlreadyMigrated","inputs":[]},{"type":"error","name":"AmountTooLow","inputs":[]},{"type":"error","name":"ERC1967InvalidImplementation","inputs":[{"name":"implementation","type":"address","internalType":"address"}]},{"type":"error","name":"ERC1967NonPayable","inputs":[]},{"type":"error","name":"FailedCall","inputs":[]},{"type":"error","name":"InsufficientQuota","inputs":[]},{"type":"error","name":"InvalidInitialization","inputs":[]},{"type":"error","name":"InvalidRecommender","inputs":[]},{"type":"error","name":"InviterExists","inputs":[]},{"type":"error","name":"NeedMigrate","inputs":[]},{"type":"error","name":"NoMigrationRequired","inputs":[]},{"type":"error","name":"NoReward","inputs":[]},{"type":"error","name":"NoStake","inputs":[]},{"type":"error","name":"NotInitializing","inputs":[]},{"type":"error","name":"NotRequiredReferral","inputs":[]},{"type":"error","name":"OwnableInvalidOwner","inputs":[{"name":"owner","type":"address","internalType":"address"}]},{"type":"error","name":"OwnableUnauthorizedAccount","inputs":[{"name":"account","type":"address","internalType":"address"}]},{"type":"error","name":"ReentrancyGuardReentrantCall","inputs":[]},{"type":"error","name":"UUPSUnauthorizedCallContext","inputs":[]},{"type":"error","name":"UUPSUnsupportedProxiableUUID","inputs":[{"name":"slot","type":"bytes32","internalType":"bytes32"}]},{"type":"error","name":"ZeroAddress","inputs":[]}],"bytecode":{"object":"0x60a06040523073ffffffffffffffffffffffffffffffffffffffff1660809073ffffffffffffffffffffffffffffffffffffffff168152507310ed43c718714eb63d5aa57b78b54704e256024e60015f6101000a81548173ffffffffffffffffffffffffffffffffffffffff021916908373ffffffffffffffffffffffffffffffffffffffff160217905550348015610096575f5ffd5b5060015f819055506080516153356100c45f395f818161319e015281816131f301526133ad01526153355ff3fe60806040526004361061025e575f3560e01c80638da5cb5b11610143578063c023b3a5116100b5578063d70754ec11610079578063d70754ec14610972578063db81c5151461099c578063eeb05c2c146109c6578063f2fde38b14610a02578063f851a44014610a2a578063fb802a6514610a545761029e565b8063c023b3a51461087a578063c21ebd07146108b8578063c54e44eb146108e2578063d2c8e0e51461090c578063d567aadb146109485761029e565b8063a694fc3a11610107578063a694fc3a1461076b578063ac6439b514610793578063ad3cb1cc146107bd578063b2859e2b146107e7578063b500682314610811578063bedb86fb146108525761029e565b80638da5cb5b14610671578063905635d41461069b578063922be46d146106c55780639238b0f9146106ef578063a3f2a64a1461072f5761029e565b806333827438116101dc57806352d1902d116101a057806352d1902d14610579578063715018a6146105a35780637247959a146105b95780638456cb59146105e157806385215f7c1461060b57806389e59ea0146106475761029e565b8063338274381461048c578063379607f5146104b657806339540b0a146104de5780633e4ff6f2146105215780634f1ef2861461055d5761029e565b80631459457a116102235780631459457a1461039657806318785eb6146103be5780631959a002146103fa5780631b602f221461043a578063313ce567146104625761029e565b8062c4bb2b146102a257806303fd2a45146102de57806305ad3935146103085780630ff9ef121461034457806310baf0891461036c5761029e565b3661029e576040517f08c379a0000000000000000000000000000000000000000000000000000000008152600401610295906143c9565b60405180910390fd5b5f5ffd5b3480156102ad575f5ffd5b506102c860048036038101906102c3919061441b565b610a7e565b6040516102d5919061445e565b60405180910390f35b3480156102e9575f5ffd5b506102f2610a93565b6040516102ff91906144b6565b60405180910390f35b348015610313575f5ffd5b5061032e60048036038101906103299190614523565b610a99565b60405161033b91906144b6565b60405180910390f35b34801561034f575f5ffd5b5061036a60048036038101906103659190614561565b610ae1565b005b348015610377575f5ffd5b50610380610d2e565b60405161038d91906144b6565b60405180910390f35b3480156103a1575f5ffd5b506103bc60048036038101906103b7919061458c565b610d53565b005b3480156103c9575f5ffd5b506103e460048036038101906103df9190614561565b6111c5565b6040516103f19190614709565b60405180910390f35b348015610405575f5ffd5b50610420600480360381019061041b9190614561565b6112c6565b604051610431959493929190614729565b60405180910390f35b348015610445575f5ffd5b50610460600480360381019061045b919061477a565b6112f8565b005b34801561046d575f5ffd5b50610476611495565b604051610483919061445e565b60405180910390f35b348015610497575f5ffd5b506104a061149b565b6040516104ad91906144b6565b60405180910390f35b3480156104c1575f5ffd5b506104dc60048036038101906104d7919061477a565b6114c0565b005b3480156104e9575f5ffd5b5061050460048036038101906104ff9190614561565b6117cb565b604051610518989796959493929190614832565b60405180910390f35b34801561052c575f5ffd5b5061054760048036038101906105429190614561565b611846565b604051610554919061445e565b60405180910390f35b610577600480360381019061057291906149ea565b6119a8565b005b348015610584575f5ffd5b5061058d6119c7565b60405161059a9190614a5c565b60405180910390f35b3480156105ae575f5ffd5b506105b76119f8565b005b3480156105c4575f5ffd5b506105df60048036038101906105da9190614561565b611a0b565b005b3480156105ec575f5ffd5b506105f5611e5c565b6040516106029190614a75565b60405180910390f35b348015610616575f5ffd5b50610631600480360381019061062c9190614561565b611e6e565b60405161063e9190614a75565b60405180910390f35b348015610652575f5ffd5b5061065b611f9c565b604051610668919061445e565b60405180910390f35b34801561067c575f5ffd5b50610685611fa2565b60405161069291906144b6565b60405180910390f35b3480156106a6575f5ffd5b506106af611fd7565b6040516106bc919061445e565b60405180910390f35b3480156106d0575f5ffd5b506106d9611fdd565b6040516106e6919061445e565b60405180910390f35b3480156106fa575f5ffd5b5061071560048036038101906107109190614561565b611fe3565b604051610726959493929190614a8e565b60405180910390f35b34801561073a575f5ffd5b5061075560048036038101906107509190614561565b61213b565b6040516107629190614a75565b60405180910390f35b348015610776575f5ffd5b50610791600480360381019061078c919061477a565b612158565b005b34801561079e575f5ffd5b506107a7612897565b6040516107b491906144b6565b60405180910390f35b3480156107c8575f5ffd5b506107d16128bc565b6040516107de9190614b2f565b60405180910390f35b3480156107f2575f5ffd5b506107fb6128f5565b604051610808919061445e565b60405180910390f35b34801561081c575f5ffd5b5061083760048036038101906108329190614561565b6128fb565b60405161084996959493929190614b4f565b60405180910390f35b34801561085d575f5ffd5b5061087860048036038101906108739190614bd8565b612ade565b005b348015610885575f5ffd5b506108a0600480360381019061089b9190614523565b612b02565b6040516108af93929190614c03565b60405180910390f35b3480156108c3575f5ffd5b506108cc612b61565b6040516108d99190614c93565b60405180910390f35b3480156108ed575f5ffd5b506108f6612b86565b60405161090391906144b6565b60405180910390f35b348015610917575f5ffd5b50610932600480360381019061092d9190614561565b612b9e565b60405161093f9190614d54565b60405180910390f35b348015610953575f5ffd5b5061095c612c66565b604051610969919061445e565b60405180910390f35b34801561097d575f5ffd5b50610986612c6c565b60405161099391906144b6565b60405180910390f35b3480156109a7575f5ffd5b506109b0612c91565b6040516109bd919061445e565b60405180910390f35b3480156109d1575f5ffd5b506109ec60048036038101906109e79190614561565b612c97565b6040516109f9919061445e565b60405180910390f35b348015610a0d575f5ffd5b50610a286004803603810190610a239190614561565b612ea5565b005b348015610a35575f5ffd5b50610a3e612f29565b604051610a4b91906144b6565b60405180910390f35b348015610a5f575f5ffd5b50610a68612f4e565b604051610a75919061445e565b60405180910390f35b600c602052805f5260405f205f915090505481565b61dead81565b600a602052815f5260405f208181548110610ab2575f80fd5b905f5260205f20015f915091509054906101000a900473ffffffffffffffffffffffffffffffffffffffff1681565b610ae9612f54565b600e5f9054906101000a900460ff1615610b38576040517f08c379a0000000000000000000000000000000000000000000000000000000008152600401610b2f90614dbe565b60405180910390fd5b5f60085f8373ffffffffffffffffffffffffffffffffffffffff1673ffffffffffffffffffffffffffffffffffffffff1681526020019081526020015f209050806006015f9054906101000a900460ff1615610bc0576040517fca1c3cbc00000000000000000000000000000000000000000000000000000000815260040160405180910390fd5b5f60045f9054906101000a900473ffffffffffffffffffffffffffffffffffffffff1673ffffffffffffffffffffffffffffffffffffffff16631959a002846040518263ffffffff1660e01b8152600401610c1b91906144b6565b608060405180830381865afa158015610c36573d5f5f3e3d5ffd5b505050506040513d601f19601f82011682018060405250810190610c5a9190614e04565b50505090505f73ffffffffffffffffffffffffffffffffffffffff168173ffffffffffffffffffffffffffffffffffffffff1603610cc4576040517f9c9e07a800000000000000000000000000000000000000000000000000000000815260040160405180910390fd5b80825f015f6101000a81548173ffffffffffffffffffffffffffffffffffffffff021916908373ffffffffffffffffffffffffffffffffffffffff1602179055506001826006015f6101000a81548160ff0219169083151502179055505050610d2b612f98565b50565b60035f9054906101000a900473ffffffffffffffffffffffffffffffffffffffff1681565b5f610d5c612fa1565b90505f815f0160089054906101000a900460ff161590505f825f015f9054906101000a900467ffffffffffffffff1690505f5f8267ffffffffffffffff16148015610da45750825b90505f60018367ffffffffffffffff16148015610dd757505f3073ffffffffffffffffffffffffffffffffffffffff163b145b905081158015610de5575080155b15610e1c576040517ff92ee8a900000000000000000000000000000000000000000000000000000000815260040160405180910390fd5b6001855f015f6101000a81548167ffffffffffffffff021916908367ffffffffffffffff1602179055508315610e69576001855f0160086101000a81548160ff0219169083151502179055505b610e79610e74612fb4565b612fbb565b8960025f6101000a81548173ffffffffffffffffffffffffffffffffffffffff021916908373ffffffffffffffffffffffffffffffffffffffff1602179055508860035f6101000a81548173ffffffffffffffffffffffffffffffffffffffff021916908373ffffffffffffffffffffffffffffffffffffffff1602179055508760045f6101000a81548173ffffffffffffffffffffffffffffffffffffffff021916908373ffffffffffffffffffffffffffffffffffffffff1602179055508660055f6101000a81548173ffffffffffffffffffffffffffffffffffffffff021916908373ffffffffffffffffffffffffffffffffffffffff1602179055508560065f6101000a81548173ffffffffffffffffffffffffffffffffffffffff021916908373ffffffffffffffffffffffffffffffffffffffff1602179055506402540be40060108190555062015180683635c9adc5dea0000060105467a688906bd8b00000610fe99190614e95565b610ff39190614f03565b610ffd9190614f03565b600f81905550600a60148190555068056bc75e2d63100000600c5f6001600681111561102c5761102b6147a5565b5b600681111561103e5761103d6147a5565b5b81526020019081526020015f2081905550681043561a8829300000600c5f600260068111156110705761106f6147a5565b5b6006811115611082576110816147a5565b5b81526020019081526020015f2081905550681b1ae4d6e2ef500000600c5f600360068111156110b4576110b36147a5565b5b60068111156110c6576110c56147a5565b5b81526020019081526020015f2081905550683635c9adc5dea00000600c5f600460068111156110f8576110f76147a5565b5b600681111561110a576111096147a5565b5b81526020019081526020015f208190555068a2a15d09519be00000600c5f6005600681111561113c5761113b6147a5565b5b600681111561114e5761114d6147a5565b5b81526020019081526020015f208190555083156111b9575f855f0160086101000a81548160ff0219169083151502179055507fc7f505b2f371ae2175ee4913f4499e1f2633a7b5936321eed1cdaeb6115181d260016040516111b09190614f7f565b60405180910390a15b50505050505050505050565b606060095f8373ffffffffffffffffffffffffffffffffffffffff1673ffffffffffffffffffffffffffffffffffffffff1681526020019081526020015f20805480602002602001604051908101604052809291908181526020015f905b828210156112bb578382905f5260205f2090600302016040518060600160405290815f82015f9054906101000a900473ffffffffffffffffffffffffffffffffffffffff1673ffffffffffffffffffffffffffffffffffffffff1673ffffffffffffffffffffffffffffffffffffffff1681526020016001820154815260200160028201548152505081526020019060010190611223565b505050509050919050565b6007602052805f5260405f205f91509050805f0154908060010154908060020154908060030154908060040154905085565b60085f3373ffffffffffffffffffffffffffffffffffffffff1673ffffffffffffffffffffffffffffffffffffffff1681526020019081526020015f2060040154811115611372576040517f6aea990400000000000000000000000000000000000000000000000000000000815260040160405180910390fd5b6113b37355d398326f99059ff775485246999027b31979553360065f9054906101000a900473ffffffffffffffffffffffffffffffffffffffff1684612fcf565b60065f9054906101000a900473ffffffffffffffffffffffffffffffffffffffff1673ffffffffffffffffffffffffffffffffffffffff166379e32cd933836040518363ffffffff1660e01b815260040161140f929190614f98565b5f604051808303815f87803b158015611426575f5ffd5b505af1158015611438573d5f5f3e3d5ffd5b505050508060085f3373ffffffffffffffffffffffffffffffffffffffff1673ffffffffffffffffffffffffffffffffffffffff1681526020019081526020015f206004015f82825461148b9190614fbf565b9250508190555050565b60105481565b60065f9054906101000a900473ffffffffffffffffffffffffffffffffffffffff1681565b6114c8612f54565b5f60075f3373ffffffffffffffffffffffffffffffffffffffff1673ffffffffffffffffffffffffffffffffffffffff1681526020019081526020015f2090505f815f015403611544576040517fcacf989a00000000000000000000000000000000000000000000000000000000815260040160405180910390fd5b61154c613102565b5f61155633611846565b90505f8103611591576040517f6e99268600000000000000000000000000000000000000000000000000000000815260040160405180910390fd5b5f81841161159f57836115a1565b815b9050808360030154106115cd5780836003015f8282546115c19190614fbf565b925050819055506115d7565b5f83600301819055505b80836004015f8282546115ea9190614ff2565b9250508190555060065f9054906101000a900473ffffffffffffffffffffffffffffffffffffffff1673ffffffffffffffffffffffffffffffffffffffff16632d019c4233836040518363ffffffff1660e01b815260040161164d929190614f98565b5f604051808303815f87803b158015611664575f5ffd5b505af1158015611676573d5f5f3e3d5ffd5b5050505060068081111561168d5761168c6147a5565b5b60085f3373ffffffffffffffffffffffffffffffffffffffff1673ffffffffffffffffffffffffffffffffffffffff1681526020019081526020015f205f0160149054906101000a900460ff1660068111156116ec576116eb6147a5565b5b036117845760085f3373ffffffffffffffffffffffffffffffffffffffff1673ffffffffffffffffffffffffffffffffffffffff1681526020019081526020015f206002015460125461173f9190614e95565b60085f3373ffffffffffffffffffffffffffffffffffffffff1673ffffffffffffffffffffffffffffffffffffffff1681526020019081526020015f20600501819055505b7fd8138f8a3f377c5259ca548e70e4c2de94f129f5a11036a15b69513cba2b426a33826040516117b5929190614f98565b60405180910390a15050506117c8612f98565b50565b6008602052805f5260405f205f91509050805f015f9054906101000a900473ffffffffffffffffffffffffffffffffffffffff1690805f0160149054906101000a900460ff1690806001015490806002015490806003015490806004015490806005015490806006015f9054906101000a900460ff16905088565b5f5f60075f8473ffffffffffffffffffffffffffffffffffffffff1673ffffffffffffffffffffffffffffffffffffffff1681526020019081526020015f206040518060a00160405290815f820154815260200160018201548152602001600282015481526020016003820154815260200160048201548152505090505f815f0151036118d6575f9150506119a3565b5f8160400151426118e79190614fbf565b90505f601054600f5483855f01516118ff9190614e95565b6119099190614e95565b6119139190614f03565b90505f61191f86612c97565b90505f818386606001516119339190614ff2565b61193d9190614ff2565b90505f8560200151865f01516119539190614e95565b90508086608001511061196e575f96505050505050506119a3565b5f86608001518261197f9190614fbf565b90508083111561199857809750505050505050506119a3565b829750505050505050505b919050565b6119b061319c565b6119b982613282565b6119c3828261328d565b5050565b5f6119d06133ab565b7f360894a13ba1a3210667c828492db98dca3e2076cc3735a920a3ca505d382bbc5f1b905090565b611a00613432565b611a095f6134b9565b565b611a13612f54565b600e5f9054906101000a900460ff1615611a62576040517f08c379a0000000000000000000000000000000000000000000000000000000008152600401611a5990614dbe565b60405180910390fd5b611a6b33611e6e565b15611aa2576040517f1d9410b700000000000000000000000000000000000000000000000000000000815260040160405180910390fd5b5f73ffffffffffffffffffffffffffffffffffffffff168173ffffffffffffffffffffffffffffffffffffffff1603611b07576040517fd92e233d00000000000000000000000000000000000000000000000000000000815260040160405180910390fd5b3373ffffffffffffffffffffffffffffffffffffffff168173ffffffffffffffffffffffffffffffffffffffff1603611b6c576040517f4f2f060100000000000000000000000000000000000000000000000000000000815260040160405180910390fd5b60035f9054906101000a900473ffffffffffffffffffffffffffffffffffffffff1673ffffffffffffffffffffffffffffffffffffffff168173ffffffffffffffffffffffffffffffffffffffff1614611cd8575f73ffffffffffffffffffffffffffffffffffffffff1660085f8373ffffffffffffffffffffffffffffffffffffffff1673ffffffffffffffffffffffffffffffffffffffff1681526020019081526020015f205f015f9054906101000a900473ffffffffffffffffffffffffffffffffffffffff1673ffffffffffffffffffffffffffffffffffffffff1614158015611c9857505f60075f8373ffffffffffffffffffffffffffffffffffffffff1673ffffffffffffffffffffffffffffffffffffffff1681526020019081526020015f205f0154115b611cd7576040517f08c379a0000000000000000000000000000000000000000000000000000000008152600401611cce90615095565b60405180910390fd5b5b5f73ffffffffffffffffffffffffffffffffffffffff1660085f3373ffffffffffffffffffffffffffffffffffffffff1673ffffffffffffffffffffffffffffffffffffffff1681526020019081526020015f205f015f9054906101000a900473ffffffffffffffffffffffffffffffffffffffff1673ffffffffffffffffffffffffffffffffffffffff1614611d9b576040517f5b3d5a1b00000000000000000000000000000000000000000000000000000000815260040160405180910390fd5b8060085f3373ffffffffffffffffffffffffffffffffffffffff1673ffffffffffffffffffffffffffffffffffffffff1681526020019081526020015f205f015f6101000a81548173ffffffffffffffffffffffffffffffffffffffff021916908373ffffffffffffffffffffffffffffffffffffffff1602179055507f455db5b564134af440ac23bd273ce313070080fc2c3d5d36c03f62de3c6284988133604051611e499291906150b3565b60405180910390a1611e59612f98565b50565b600e5f9054906101000a900460ff1681565b5f5f60045f9054906101000a900473ffffffffffffffffffffffffffffffffffffffff1673ffffffffffffffffffffffffffffffffffffffff16631959a002846040518263ffffffff1660e01b8152600401611eca91906144b6565b608060405180830381865afa158015611ee5573d5f5f3e3d5ffd5b505050506040513d601f19601f82011682018060405250810190611f099190614e04565b50505090505f73ffffffffffffffffffffffffffffffffffffffff168173ffffffffffffffffffffffffffffffffffffffff1614158015611f94575060085f8473ffffffffffffffffffffffffffffffffffffffff1673ffffffffffffffffffffffffffffffffffffffff1681526020019081526020015f206006015f9054906101000a900460ff16155b915050919050565b6103e881565b5f5f611fac61358a565b9050805f015f9054906101000a900473ffffffffffffffffffffffffffffffffffffffff1691505090565b600f5481565b60115481565b5f5f5f5f5f5f60085f8873ffffffffffffffffffffffffffffffffffffffff1673ffffffffffffffffffffffffffffffffffffffff1681526020019081526020015f20604051806101000160405290815f82015f9054906101000a900473ffffffffffffffffffffffffffffffffffffffff1673ffffffffffffffffffffffffffffffffffffffff1673ffffffffffffffffffffffffffffffffffffffff1681526020015f820160149054906101000a900460ff1660068111156120aa576120a96147a5565b5b60068111156120bc576120bb6147a5565b5b81526020016001820154815260200160028201548152602001600382015481526020016004820154815260200160058201548152602001600682015f9054906101000a900460ff16151515158152505090508060400151955080606001519450806080015193508060a0015192508060e0015191505091939590929450565b600b602052805f5260405f205f915054906101000a900460ff1681565b612160612f54565b600e5f9054906101000a900460ff16156121af576040517f08c379a00000000000000000000000000000000000000000000000000000000081526004016121a690614dbe565b60405180910390fd5b5f60075f3373ffffffffffffffffffffffffffffffffffffffff1673ffffffffffffffffffffffffffffffffffffffff1681526020019081526020015f2090505f60085f3373ffffffffffffffffffffffffffffffffffffffff1673ffffffffffffffffffffffffffffffffffffffff1681526020019081526020015f2090505f73ffffffffffffffffffffffffffffffffffffffff16815f015f9054906101000a900473ffffffffffffffffffffffffffffffffffffffff1673ffffffffffffffffffffffffffffffffffffffff16036122b6576040517faf4d1ef200000000000000000000000000000000000000000000000000000000815260040160405180910390fd5b68056bc75e2d631000008310156122f9576040517f1fbaba3500000000000000000000000000000000000000000000000000000000815260040160405180910390fd5b5f60646001856123099190614e95565b6123139190614f03565b90505f60646001866123259190614e95565b61232f9190614f03565b905061237d7355d398326f99059ff775485246999027b31979553360065f9054906101000a900473ffffffffffffffffffffffffffffffffffffffff1685896123789190614fbf565b612fcf565b6123be7355d398326f99059ff775485246999027b31979553360055f9054906101000a900473ffffffffffffffffffffffffffffffffffffffff1685612fcf565b60065f9054906101000a900473ffffffffffffffffffffffffffffffffffffffff1673ffffffffffffffffffffffffffffffffffffffff166303ec9fb0826040518263ffffffff1660e01b8152600401612418919061445e565b5f604051808303815f87803b15801561242f575f5ffd5b505af1158015612441573d5f5f3e3d5ffd5b505050505f73ffffffffffffffffffffffffffffffffffffffff1660055f9054906101000a900473ffffffffffffffffffffffffffffffffffffffff1673ffffffffffffffffffffffffffffffffffffffff16146125215760055f9054906101000a900473ffffffffffffffffffffffffffffffffffffffff1673ffffffffffffffffffffffffffffffffffffffff1663cc430ced836040518263ffffffff1660e01b81526004016124f3919061445e565b5f604051808303815f87803b15801561250a575f5ffd5b505af115801561251c573d5f5f3e3d5ffd5b505050505b60065f9054906101000a900473ffffffffffffffffffffffffffffffffffffffff1673ffffffffffffffffffffffffffffffffffffffff166351c6590a82848861256b9190614fbf565b6125759190614fbf565b6040518263ffffffff1660e01b8152600401612591919061445e565b5f604051808303815f87803b1580156125a8575f5ffd5b505af11580156125ba573d5f5f3e3d5ffd5b505050505f6125c833611846565b90505f8111156125ed5780856003015f8282546125e59190614ff2565b925050819055505b85855f015f8282546125ff9190614ff2565b925050819055504285600201819055505f68a2a15d09519be00000865f01541161262a57600261262d565b60035b60ff16905080866001015414612647578086600101819055505b86600d5f8282546126589190614ff2565b925050819055505f61266a33896135b1565b90505f81111561268d578060135f8282546126859190614ff2565b925050819055505b612695613102565b6006808111156126a8576126a76147a5565b5b865f0160149054906101000a900460ff1660068111156126cb576126ca6147a5565b5b036126eb5785600201546012546126e29190614e95565b86600501819055505b600b5f3373ffffffffffffffffffffffffffffffffffffffff1673ffffffffffffffffffffffffffffffffffffffff1681526020019081526020015f205f9054906101000a900460ff1661284c57600a5f875f015f9054906101000a900473ffffffffffffffffffffffffffffffffffffffff1673ffffffffffffffffffffffffffffffffffffffff1673ffffffffffffffffffffffffffffffffffffffff1681526020019081526020015f2033908060018154018082558091505060019003905f5260205f20015f9091909190916101000a81548173ffffffffffffffffffffffffffffffffffffffff021916908373ffffffffffffffffffffffffffffffffffffffff1602179055506001600b5f3373ffffffffffffffffffffffffffffffffffffffff1673ffffffffffffffffffffffffffffffffffffffff1681526020019081526020015f205f6101000a81548160ff0219169083151502179055505b7f9e71bc8eea02a63969f509818f2dafb9254532904319f9dbda79b67bd34a5f3d338960405161287d929190614f98565b60405180910390a150505050505050612894612f98565b50565b60045f9054906101000a900473ffffffffffffffffffffffffffffffffffffffff1681565b6040518060400160405280600581526020017f352e302e3000000000000000000000000000000000000000000000000000000081525081565b600d5481565b5f5f5f5f5f5f5f60075f8973ffffffffffffffffffffffffffffffffffffffff1673ffffffffffffffffffffffffffffffffffffffff1681526020019081526020015f206040518060a00160405290815f820154815260200160018201548152602001600282015481526020016003820154815260200160048201548152505090505f60085f8a73ffffffffffffffffffffffffffffffffffffffff1673ffffffffffffffffffffffffffffffffffffffff1681526020019081526020015f20604051806101000160405290815f82015f9054906101000a900473ffffffffffffffffffffffffffffffffffffffff1673ffffffffffffffffffffffffffffffffffffffff1673ffffffffffffffffffffffffffffffffffffffff1681526020015f820160149054906101000a900460ff166006811115612a3f57612a3e6147a5565b5b6006811115612a5157612a506147a5565b5b81526020016001820154815260200160028201548152602001600382015481526020016004820154815260200160058201548152602001600682015f9054906101000a900460ff161515151581525050905080602001519750805f01519650815f0151955081602001519450612ac689611846565b9350612ad189612c97565b9250505091939550919395565b612ae6613432565b80600e5f6101000a81548160ff02191690831515021790555050565b6009602052815f5260405f208181548110612b1b575f80fd5b905f5260205f2090600302015f9150915050805f015f9054906101000a900473ffffffffffffffffffffffffffffffffffffffff16908060010154908060020154905083565b60015f9054906101000a900473ffffffffffffffffffffffffffffffffffffffff1681565b7355d398326f99059ff775485246999027b319795581565b6060600a5f8373ffffffffffffffffffffffffffffffffffffffff1673ffffffffffffffffffffffffffffffffffffffff1681526020019081526020015f20805480602002602001604051908101604052809291908181526020018280548015612c5a57602002820191905f5260205f20905b815f9054906101000a900473ffffffffffffffffffffffffffffffffffffffff1673ffffffffffffffffffffffffffffffffffffffff1681526020019060010190808311612c11575b50505050509050919050565b60135481565b60055f9054906101000a900473ffffffffffffffffffffffffffffffffffffffff1681565b60125481565b5f5f60085f8473ffffffffffffffffffffffffffffffffffffffff1673ffffffffffffffffffffffffffffffffffffffff1681526020019081526020015f20604051806101000160405290815f82015f9054906101000a900473ffffffffffffffffffffffffffffffffffffffff1673ffffffffffffffffffffffffffffffffffffffff1673ffffffffffffffffffffffffffffffffffffffff1681526020015f820160149054906101000a900460ff166006811115612d5a57612d596147a5565b5b6006811115612d6c57612d6b6147a5565b5b81526020016001820154815260200160028201548152602001600382015481526020016004820154815260200160058201548152602001600682015f9054906101000a900460ff16151515158152505090505f81606001511480612dd157505f601354145b15612ddf575f915050612ea0565b5f60125490505f60115442612df49190614fbf565b90505f811115612e52575f6064601454600f5484600d54612e159190614e95565b612e1f9190614e95565b612e299190614e95565b612e339190614f03565b905060135481612e439190614f03565b83612e4e9190614ff2565b9250505b5f601054838560600151612e669190614e95565b612e709190614f03565b90508360c001518111612e89575f945050505050612ea0565b8360c0015181612e999190614fbf565b9450505050505b919050565b612ead613432565b5f73ffffffffffffffffffffffffffffffffffffffff168173ffffffffffffffffffffffffffffffffffffffff1603612f1d575f6040517f1e4fbdf7000000000000000000000000000000000000000000000000000000008152600401612f1491906144b6565b60405180910390fd5b612f26816134b9565b50565b60025f9054906101000a900473ffffffffffffffffffffffffffffffffffffffff1681565b60145481565b60025f5403612f8f576040517f3ee5aeb500000000000000000000000000000000000000000000000000000000815260040160405180910390fd5b60025f81905550565b60015f81905550565b5f5f612fab613c07565b90508091505090565b5f33905090565b612fc3613c30565b612fcc81613c70565b50565b5f5f8573ffffffffffffffffffffffffffffffffffffffff166323b872dd868686604051602401613002939291906150da565b6040516020818303038152906040529060e01b6020820180517bffffffffffffffffffffffffffffffffffffffffffffffffffffffff83818316178352505050506040516130509190615153565b5f604051808303815f865af19150503d805f8114613089576040519150601f19603f3d011682016040523d82523d5f602084013e61308e565b606091505b50915091508180156130bb57505f815114806130ba5750808060200190518101906130b9919061517d565b5b5b6130fa576040517f08c379a00000000000000000000000000000000000000000000000000000000081526004016130f190615218565b60405180910390fd5b505050505050565b5f601154426131119190614fbf565b90505f81148061312257505f601354145b1561313457426011819055505061319a565b5f6064601454600f5484600d5461314b9190614e95565b6131559190614e95565b61315f9190614e95565b6131699190614f03565b9050601354816131799190614f03565b60125f8282546131899190614ff2565b925050819055504260118190555050505b565b7f000000000000000000000000000000000000000000000000000000000000000073ffffffffffffffffffffffffffffffffffffffff163073ffffffffffffffffffffffffffffffffffffffff16148061324957507f000000000000000000000000000000000000000000000000000000000000000073ffffffffffffffffffffffffffffffffffffffff16613230613cf4565b73ffffffffffffffffffffffffffffffffffffffff1614155b15613280576040517fe07c8dba00000000000000000000000000000000000000000000000000000000815260040160405180910390fd5b565b61328a613432565b50565b8173ffffffffffffffffffffffffffffffffffffffff166352d1902d6040518163ffffffff1660e01b8152600401602060405180830381865afa9250505080156132f557506040513d601f19601f820116820180604052508101906132f29190615260565b60015b61333657816040517f4c9c8ce300000000000000000000000000000000000000000000000000000000815260040161332d91906144b6565b60405180910390fd5b7f360894a13ba1a3210667c828492db98dca3e2076cc3735a920a3ca505d382bbc5f1b811461339c57806040517faa1d49a40000000000000000000000000000000000000000000000000000000081526004016133939190614a5c565b60405180910390fd5b6133a68383613d47565b505050565b7f000000000000000000000000000000000000000000000000000000000000000073ffffffffffffffffffffffffffffffffffffffff163073ffffffffffffffffffffffffffffffffffffffff1614613430576040517fe07c8dba00000000000000000000000000000000000000000000000000000000815260040160405180910390fd5b565b61343a612fb4565b73ffffffffffffffffffffffffffffffffffffffff16613458611fa2565b73ffffffffffffffffffffffffffffffffffffffff16146134b75761347b612fb4565b6040517f118cdaa70000000000000000000000000000000000000000000000000000000081526004016134ae91906144b6565b60405180910390fd5b565b5f6134c261358a565b90505f815f015f9054906101000a900473ffffffffffffffffffffffffffffffffffffffff16905082825f015f6101000a81548173ffffffffffffffffffffffffffffffffffffffff021916908373ffffffffffffffffffffffffffffffffffffffff1602179055508273ffffffffffffffffffffffffffffffffffffffff168173ffffffffffffffffffffffffffffffffffffffff167f8be0079c531659141344cd1fd0a4f28419497f9722a3daafe3b4186f6b6457e060405160405180910390a3505050565b5f7f9016d09d72d40fdae2fd8ceac6b6234c7706214fd39c1cd1e609a0528c199300905090565b5f5f60085f8573ffffffffffffffffffffffffffffffffffffffff1673ffffffffffffffffffffffffffffffffffffffff1681526020019081526020015f205f015f9054906101000a900473ffffffffffffffffffffffffffffffffffffffff16905061361c61434d565b5f603290505f93505b5f73ffffffffffffffffffffffffffffffffffffffff168373ffffffffffffffffffffffffffffffffffffffff1614613b67575f60085f8573ffffffffffffffffffffffffffffffffffffffff1673ffffffffffffffffffffffffffffffffffffffff1681526020019081526020015f2090506001816001015f8282546136ac9190614ff2565b9250508190555085816002015f8282546136c69190614ff2565b925050819055505f5f90505f5f90505b600a5f8773ffffffffffffffffffffffffffffffffffffffff1673ffffffffffffffffffffffffffffffffffffffff1681526020019081526020015f20805490508110156138285760056006811115613732576137316147a5565b5b60085f600a5f8a73ffffffffffffffffffffffffffffffffffffffff1673ffffffffffffffffffffffffffffffffffffffff1681526020019081526020015f2084815481106137845761378361528b565b5b905f5260205f20015f9054906101000a900473ffffffffffffffffffffffffffffffffffffffff1673ffffffffffffffffffffffffffffffffffffffff1673ffffffffffffffffffffffffffffffffffffffff1681526020019081526020015f205f0160149054906101000a900460ff166006811115613807576138066147a5565b5b0361381b578180613817906152b8565b9250505b80806001019150506136d6565b505f5f613846845f0160149054906101000a900460ff16878b613db9565b9150915080156139ae5781846003015f8282546138639190614ff2565b9250508190555060095f8873ffffffffffffffffffffffffffffffffffffffff1673ffffffffffffffffffffffffffffffffffffffff1681526020019081526020015f2060405180606001604052808c73ffffffffffffffffffffffffffffffffffffffff16815260200184815260200142815250908060018154018082558091505060019003905f5260205f2090600302015f909190919091505f820151815f015f6101000a81548173ffffffffffffffffffffffffffffffffffffffff021916908373ffffffffffffffffffffffffffffffffffffffff16021790555060208201518160010155604082015181600201555050600186855f0160149054906101000a900460ff16600681111561397e5761397d6147a5565b5b6006811061398f5761398e61528b565b5b602002019015159081151581525050600a856139ab9190614fbf565b94505b5f5f5f613aa187604051806101000160405290815f82015f9054906101000a900473ffffffffffffffffffffffffffffffffffffffff1673ffffffffffffffffffffffffffffffffffffffff1673ffffffffffffffffffffffffffffffffffffffff1681526020015f820160149054906101000a900460ff166006811115613a3957613a386147a5565b5b6006811115613a4b57613a4a6147a5565b5b81526020016001820154815260200160028201548152602001600382015481526020016004820154815260200160058201548152602001600682015f9054906101000a900460ff16151515158152505087613e7a565b92509250925082875f0160146101000a81548160ff02191690836006811115613acd57613acc6147a5565b5b0217905550818b613ade9190614ff2565b9a508015613b3657600c5f846006811115613afc57613afb6147a5565b5b6006811115613b0e57613b0d6147a5565b5b81526020019081526020015f2054876004015f828254613b2e9190614ff2565b925050819055505b865f015f9054906101000a900473ffffffffffffffffffffffffffffffffffffffff16995050505050505050613625565b5f811115613bfe5760648186613b7d9190614e95565b613b879190614f03565b60085f60035f9054906101000a900473ffffffffffffffffffffffffffffffffffffffff1673ffffffffffffffffffffffffffffffffffffffff1673ffffffffffffffffffffffffffffffffffffffff1681526020019081526020015f206003015f828254613bf69190614ff2565b925050819055505b50505092915050565b5f7ff0c57e16840df040f15088dc2f81fe391c3923bec73e23a9662efc9c229c6a005f1b905090565b613c386140ed565b613c6e576040517fd7e6bcf800000000000000000000000000000000000000000000000000000000815260040160405180910390fd5b565b613c78613c30565b5f73ffffffffffffffffffffffffffffffffffffffff168173ffffffffffffffffffffffffffffffffffffffff1603613ce8575f6040517f1e4fbdf7000000000000000000000000000000000000000000000000000000008152600401613cdf91906144b6565b60405180910390fd5b613cf1816134b9565b50565b5f613d207f360894a13ba1a3210667c828492db98dca3e2076cc3735a920a3ca505d382bbc5f1b61410b565b5f015f9054906101000a900473ffffffffffffffffffffffffffffffffffffffff16905090565b613d5082614114565b8173ffffffffffffffffffffffffffffffffffffffff167fbc7cd75a20ee27fd9adebab32041f755214dbc6bffa90cc0225b39da2e5c2d3b60405160405180910390a25f81511115613dac57613da682826141dd565b50613db5565b613db46142ce565b5b5050565b5f5f5f91505f9050600680811115613dd457613dd36147a5565b5b856006811115613de757613de66147a5565b5b14158015613e1957505f6006811115613e0357613e026147a5565b5b856006811115613e1657613e156147a5565b5b14155b15613e72575f856006811115613e3257613e316147a5565b5b9050848160068110613e4757613e4661528b565b5b6020020151613e70576064600a85613e5f9190614e95565b613e699190614f03565b9250600191505b505b935093915050565b5f5f5f846020015192505f91505f90505f6006811115613e9d57613e9c6147a5565b5b85602001516006811115613eb457613eb36147a5565b5b148015613ec657506003856040015110155b8015613ee0575069021e19e0c9bab2400000856060015110155b15613ef25760019250600190506140e6565b60016006811115613f0657613f056147a5565b5b85602001516006811115613f1d57613f1c6147a5565b5b148015613f2f57506004856040015110155b8015613f495750690a968163f0a57b400000856060015110155b15613f5b5760029250600190506140e5565b60026006811115613f6f57613f6e6147a5565b5b85602001516006811115613f8657613f856147a5565b5b148015613f9857506005856040015110155b8015613fb25750692a5a058fc295ed000000856060015110155b15613fc45760039250600190506140e4565b60036006811115613fd857613fd76147a5565b5b85602001516006811115613fef57613fee6147a5565b5b14801561400157506007856040015110155b801561401b575069a968163f0a57b4000000856060015110155b1561402d5760049250600190506140e3565b60046006811115614041576140406147a5565b5b85602001516006811115614058576140576147a5565b5b14801561406a57506009856040015110155b801561408557506a027b46536c66c8e3000000856060015110155b156140975760059250600190506140e2565b600560068111156140ab576140aa6147a5565b5b856020015160068111156140c2576140c16147a5565b5b1480156140d0575060028410155b156140e15760069250846060015191505b5b5b5b5b5b9250925092565b5f6140f6612fa1565b5f0160089054906101000a900460ff16905090565b5f819050919050565b5f8173ffffffffffffffffffffffffffffffffffffffff163b0361416f57806040517f4c9c8ce300000000000000000000000000000000000000000000000000000000815260040161416691906144b6565b60405180910390fd5b8061419b7f360894a13ba1a3210667c828492db98dca3e2076cc3735a920a3ca505d382bbc5f1b61410b565b5f015f6101000a81548173ffffffffffffffffffffffffffffffffffffffff021916908373ffffffffffffffffffffffffffffffffffffffff16021790555050565b60605f6141ea848461430a565b905080801561422057505f6141fd61431e565b118061421f57505f8473ffffffffffffffffffffffffffffffffffffffff163b115b5b156142355761422d614325565b9150506142c8565b801561427857836040517f9996b31500000000000000000000000000000000000000000000000000000000815260040161426f91906144b6565b60405180910390fd5b5f61428161431e565b11156142945761428f614342565b6142c6565b6040517fd6bda27500000000000000000000000000000000000000000000000000000000815260040160405180910390fd5b505b92915050565b5f341115614308576040517fb398979f00000000000000000000000000000000000000000000000000000000815260040160405180910390fd5b565b5f5f5f835160208501865af4905092915050565b5f3d905090565b606060405190503d81523d5f602083013e3d602001810160405290565b6040513d5f823e3d81fd5b6040518060c00160405280600690602082028036833780820191505090505090565b5f82825260208201905092915050565b7f4e4f5f4449524543545f53454e440000000000000000000000000000000000005f82015250565b5f6143b3600e8361436f565b91506143be8261437f565b602082019050919050565b5f6020820190508181035f8301526143e0816143a7565b9050919050565b5f604051905090565b5f5ffd5b5f5ffd5b60078110614404575f5ffd5b50565b5f81359050614415816143f8565b92915050565b5f602082840312156144305761442f6143f0565b5b5f61443d84828501614407565b91505092915050565b5f819050919050565b61445881614446565b82525050565b5f6020820190506144715f83018461444f565b92915050565b5f73ffffffffffffffffffffffffffffffffffffffff82169050919050565b5f6144a082614477565b9050919050565b6144b081614496565b82525050565b5f6020820190506144c95f8301846144a7565b92915050565b6144d881614496565b81146144e2575f5ffd5b50565b5f813590506144f3816144cf565b92915050565b61450281614446565b811461450c575f5ffd5b50565b5f8135905061451d816144f9565b92915050565b5f5f60408385031215614539576145386143f0565b5b5f614546858286016144e5565b92505060206145578582860161450f565b9150509250929050565b5f60208284031215614576576145756143f0565b5b5f614583848285016144e5565b91505092915050565b5f5f5f5f5f60a086880312156145a5576145a46143f0565b5b5f6145b2888289016144e5565b95505060206145c3888289016144e5565b94505060406145d4888289016144e5565b93505060606145e5888289016144e5565b92505060806145f6888289016144e5565b9150509295509295909350565b5f81519050919050565b5f82825260208201905092915050565b5f819050602082019050919050565b61463581614496565b82525050565b61464481614446565b82525050565b606082015f82015161465e5f85018261462c565b506020820151614671602085018261463b565b506040820151614684604085018261463b565b50505050565b5f614695838361464a565b60608301905092915050565b5f602082019050919050565b5f6146b782614603565b6146c1818561460d565b93506146cc8361461d565b805f5b838110156146fc5781516146e3888261468a565b97506146ee836146a1565b9250506001810190506146cf565b5085935050505092915050565b5f6020820190508181035f83015261472181846146ad565b905092915050565b5f60a08201905061473c5f83018861444f565b614749602083018761444f565b614756604083018661444f565b614763606083018561444f565b614770608083018461444f565b9695505050505050565b5f6020828403121561478f5761478e6143f0565b5b5f61479c8482850161450f565b91505092915050565b7f4e487b71000000000000000000000000000000000000000000000000000000005f52602160045260245ffd5b600781106147e3576147e26147a5565b5b50565b5f8190506147f3826147d2565b919050565b5f614802826147e6565b9050919050565b614812816147f8565b82525050565b5f8115159050919050565b61482c81614818565b82525050565b5f610100820190506148465f83018b6144a7565b614853602083018a614809565b614860604083018961444f565b61486d606083018861444f565b61487a608083018761444f565b61488760a083018661444f565b61489460c083018561444f565b6148a160e0830184614823565b9998505050505050505050565b5f5ffd5b5f5ffd5b5f601f19601f8301169050919050565b7f4e487b71000000000000000000000000000000000000000000000000000000005f52604160045260245ffd5b6148fc826148b6565b810181811067ffffffffffffffff8211171561491b5761491a6148c6565b5b80604052505050565b5f61492d6143e7565b905061493982826148f3565b919050565b5f67ffffffffffffffff821115614958576149576148c6565b5b614961826148b6565b9050602081019050919050565b828183375f83830152505050565b5f61498e6149898461493e565b614924565b9050828152602081018484840111156149aa576149a96148b2565b5b6149b584828561496e565b509392505050565b5f82601f8301126149d1576149d06148ae565b5b81356149e184826020860161497c565b91505092915050565b5f5f60408385031215614a00576149ff6143f0565b5b5f614a0d858286016144e5565b925050602083013567ffffffffffffffff811115614a2e57614a2d6143f4565b5b614a3a858286016149bd565b9150509250929050565b5f819050919050565b614a5681614a44565b82525050565b5f602082019050614a6f5f830184614a4d565b92915050565b5f602082019050614a885f830184614823565b92915050565b5f60a082019050614aa15f83018861444f565b614aae602083018761444f565b614abb604083018661444f565b614ac8606083018561444f565b614ad56080830184614823565b9695505050505050565b5f81519050919050565b8281835e5f83830152505050565b5f614b0182614adf565b614b0b818561436f565b9350614b1b818560208601614ae9565b614b24816148b6565b840191505092915050565b5f6020820190508181035f830152614b478184614af7565b905092915050565b5f60c082019050614b625f830189614809565b614b6f60208301886144a7565b614b7c604083018761444f565b614b89606083018661444f565b614b96608083018561444f565b614ba360a083018461444f565b979650505050505050565b614bb781614818565b8114614bc1575f5ffd5b50565b5f81359050614bd281614bae565b92915050565b5f60208284031215614bed57614bec6143f0565b5b5f614bfa84828501614bc4565b91505092915050565b5f606082019050614c165f8301866144a7565b614c23602083018561444f565b614c30604083018461444f565b949350505050565b5f819050919050565b5f614c5b614c56614c5184614477565b614c38565b614477565b9050919050565b5f614c6c82614c41565b9050919050565b5f614c7d82614c62565b9050919050565b614c8d81614c73565b82525050565b5f602082019050614ca65f830184614c84565b92915050565b5f81519050919050565b5f82825260208201905092915050565b5f819050602082019050919050565b5f614ce0838361462c565b60208301905092915050565b5f602082019050919050565b5f614d0282614cac565b614d0c8185614cb6565b9350614d1783614cc6565b805f5b83811015614d47578151614d2e8882614cd5565b9750614d3983614cec565b925050600181019050614d1a565b5085935050505092915050565b5f6020820190508181035f830152614d6c8184614cf8565b905092915050565b7f50415553455f52454348415247452e00000000000000000000000000000000005f82015250565b5f614da8600f8361436f565b9150614db382614d74565b602082019050919050565b5f6020820190508181035f830152614dd581614d9c565b9050919050565b5f81519050614dea816144cf565b92915050565b5f81519050614dfe816144f9565b92915050565b5f5f5f5f60808587031215614e1c57614e1b6143f0565b5b5f614e2987828801614ddc565b9450506020614e3a87828801614df0565b9350506040614e4b87828801614df0565b9250506060614e5c87828801614df0565b91505092959194509250565b7f4e487b71000000000000000000000000000000000000000000000000000000005f52601160045260245ffd5b5f614e9f82614446565b9150614eaa83614446565b9250828202614eb881614446565b91508282048414831517614ecf57614ece614e68565b5b5092915050565b7f4e487b71000000000000000000000000000000000000000000000000000000005f52601260045260245ffd5b5f614f0d82614446565b9150614f1883614446565b925082614f2857614f27614ed6565b5b828204905092915050565b5f819050919050565b5f67ffffffffffffffff82169050919050565b5f614f69614f64614f5f84614f33565b614c38565b614f3c565b9050919050565b614f7981614f4f565b82525050565b5f602082019050614f925f830184614f70565b92915050565b5f604082019050614fab5f8301856144a7565b614fb8602083018461444f565b9392505050565b5f614fc982614446565b9150614fd483614446565b9250828203905081811115614fec57614feb614e68565b5b92915050565b5f614ffc82614446565b915061500783614446565b925082820190508082111561501f5761501e614e68565b5b92915050565b7f5245434f4d4d454e444154494f4e5f49535f52455155495245445f52454645525f8201527f52414c2e00000000000000000000000000000000000000000000000000000000602082015250565b5f61507f60248361436f565b915061508a82615025565b604082019050919050565b5f6020820190508181035f8301526150ac81615073565b9050919050565b5f6040820190506150c65f8301856144a7565b6150d360208301846144a7565b9392505050565b5f6060820190506150ed5f8301866144a7565b6150fa60208301856144a7565b615107604083018461444f565b949350505050565b5f81519050919050565b5f81905092915050565b5f61512d8261510f565b6151378185615119565b9350615147818560208601614ae9565b80840191505092915050565b5f61515e8284615123565b915081905092915050565b5f8151905061517781614bae565b92915050565b5f60208284031215615192576151916143f0565b5b5f61519f84828501615169565b91505092915050565b7f5472616e7366657248656c7065723a205452414e534645525f46524f4d5f46415f8201527f494c454400000000000000000000000000000000000000000000000000000000602082015250565b5f61520260248361436f565b915061520d826151a8565b604082019050919050565b5f6020820190508181035f83015261522f816151f6565b9050919050565b61523f81614a44565b8114615249575f5ffd5b50565b5f8151905061525a81615236565b92915050565b5f60208284031215615275576152746143f0565b5b5f6152828482850161524c565b91505092915050565b7f4e487b71000000000000000000000000000000000000000000000000000000005f52603260045260245ffd5b5f6152c282614446565b91507fffffffffffffffffffffffffffffffffffffffffffffffffffffffffffffffff82036152f4576152f3614e68565b5b60018201905091905056fea264697066735822122026ce35144a1b9b45a8287af9030e5cd5f73f101422feb3a08a7a00536a2fdd7264736f6c634300081e0033","linkReferences":{}},"methodIdentifiers":{"DEAD()":"03fd2a45","MAX_REFERRAL_DEPTH()":"89e59ea0","UPGRADE_INTERFACE_VERSION()":"ad3cb1cc","USDT()":"c54e44eb","admin()":"f851a440","awardRecords(address,uint256)":"c023b3a5","claim(uint256)":"379607f5","decimals()":"313ce567","directReferrals(address,uint256)":"05ad3935","djsv1()":"ac6439b5","getDirectReferrals(address)":"d2c8e0e5","getReferralAwardRecords(address)":"18785eb6","getShareLevelAward(address)":"eeb05c2c","getUserAward(address)":"3e4ff6f2","getUserInfoBasic(address)":"b5006823","getUserInfoReferral(address)":"9238b0f9","initialCode()":"10baf089","initialize(address,address,address,address,address)":"1459457a","isAddDirectReferrals(address)":"a3f2a64a","lastShareAwardTime()":"922be46d","liquidityManager()":"33827438","migrationReferral(address)":"0ff9ef12","node()":"d70754ec","owner()":"8da5cb5b","pancakeRouter()":"c21ebd07","pause()":"8456cb59","perSecondStakedAeward()":"905635d4","perSharePerformanceAward()":"db81c515","proxiableUUID()":"52d1902d","referral(address)":"7247959a","referralInfo(address)":"39540b0a","renounceOwnership()":"715018a6","setPause(bool)":"bedb86fb","shareRate()":"fb802a65","stake(uint256)":"a694fc3a","subCoinQuotas(uint8)":"00c4bb2b","swapSubToken(uint256)":"1b602f22","totalSharePerformance()":"d567aadb","totalStakedUsdt()":"b2859e2b","transferOwnership(address)":"f2fde38b","upgradeToAndCall(address,bytes)":"4f1ef286","userInfo(address)":"1959a002","whetherNeedMigrate(address)":"85215f7c"},"id":43}