{"abi":[{"type":"receive","stateMutability":"payable"},{"type":"function","name":"DEAD","inputs":[],"outputs":[{"name":"","type":"address","internalType":"address"}],"stateMutability":"view"},{"type":"function","name":"MAX_REFERRAL_DEPTH","inputs":[],"outputs":[{"name":"","type":"uint256","internalType":"uint256"}],"stateMutability":"view"},{"type":"function","name":"UPGRADE_INTERFACE_VERSION","inputs":[],"outputs":[{"name":"","type":"string","internalType":"string"}],"stateMutability":"view"},{"type":"function","name":"USDT","inputs":[],"outputs":[{"name":"","type":"address","internalType":"address"}],"stateMutability":"view"},{"type":"function","name":"admin","inputs":[],"outputs":[{"name":"","type":"address","internalType":"address"}],"stateMutability":"view"},{"type":"function","name":"awardRecords","inputs":[{"name":"","type":"address","internalType":"address"},{"name":"","type":"uint256","internalType":"uint256"}],"outputs":[{"name":"from","type":"address","internalType":"address"},{"name":"amount","type":"uint256","internalType":"uint256"},{"name":"time","type":"uint256","internalType":"uint256"}],"stateMutability":"view"},{"type":"function","name":"claim","inputs":[],"outputs":[],"stateMutability":"nonpayable"},{"type":"function","name":"decimals","inputs":[],"outputs":[{"name":"","type":"uint256","internalType":"uint256"}],"stateMutability":"view"},{"type":"function","name":"directReferrals","inputs":[{"name":"","type":"address","internalType":"address"},{"name":"","type":"uint256","internalType":"uint256"}],"outputs":[{"name":"","type":"address","internalType":"address"}],"stateMutability":"view"},{"type":"function","name":"djsv1","inputs":[],"outputs":[{"name":"","type":"address","internalType":"address"}],"stateMutability":"view"},{"type":"function","name":"emergencyWithdraw","inputs":[{"name":"_token","type":"address","internalType":"address"},{"name":"_amount","type":"uint256","internalType":"uint256"},{"name":"_to","type":"address","internalType":"address"}],"outputs":[],"stateMutability":"nonpayable"},{"type":"function","name":"getDirectReferrals","inputs":[{"name":"user","type":"address","internalType":"address"}],"outputs":[{"name":"","type":"address[]","internalType":"address[]"}],"stateMutability":"view"},{"type":"function","name":"getInvalidStaking","inputs":[{"name":"user","type":"address","internalType":"address"}],"outputs":[{"name":"","type":"uint256","internalType":"uint256"}],"stateMutability":"view"},{"type":"function","name":"getReferralAwardRecords","inputs":[{"name":"user","type":"address","internalType":"address"}],"outputs":[{"name":"","type":"tuple[]","internalType":"struct Process.Record[]","components":[{"name":"from","type":"address","internalType":"address"},{"name":"amount","type":"uint256","internalType":"uint256"},{"name":"time","type":"uint256","internalType":"uint256"}]}],"stateMutability":"view"},{"type":"function","name":"getUserAward","inputs":[{"name":"user","type":"address","internalType":"address"}],"outputs":[{"name":"","type":"uint256","internalType":"uint256"}],"stateMutability":"view"},{"type":"function","name":"getUserInfoBasic","inputs":[{"name":"user","type":"address","internalType":"address"}],"outputs":[{"name":"level","type":"uint8","internalType":"enum Process.Level"},{"name":"recommender","type":"address","internalType":"address"},{"name":"stakingUsdt","type":"uint256","internalType":"uint256"},{"name":"multiple","type":"uint256","internalType":"uint256"},{"name":"totalAward","type":"uint256","internalType":"uint256"},{"name":"shareAward","type":"uint256","internalType":"uint256"}],"stateMutability":"view"},{"type":"function","name":"getUserInfoReferral","inputs":[{"name":"user","type":"address","internalType":"address"}],"outputs":[{"name":"referralNum","type":"uint256","internalType":"uint256"},{"name":"performance","type":"uint256","internalType":"uint256"},{"name":"referralAward","type":"uint256","internalType":"uint256"},{"name":"subCoinQuota","type":"uint256","internalType":"uint256"},{"name":"isMigration","type":"bool","internalType":"bool"}],"stateMutability":"view"},{"type":"function","name":"getUserShareLevelAward","inputs":[{"name":"user","type":"address","internalType":"address"}],"outputs":[{"name":"","type":"uint256","internalType":"uint256"}],"stateMutability":"view"},{"type":"function","name":"getUserStakingAward","inputs":[{"name":"user","type":"address","internalType":"address"}],"outputs":[{"name":"","type":"uint256","internalType":"uint256"}],"stateMutability":"view"},{"type":"function","name":"initialCode","inputs":[],"outputs":[{"name":"","type":"address","internalType":"address"}],"stateMutability":"view"},{"type":"function","name":"initialize","inputs":[{"name":"_admin","type":"address","internalType":"address"},{"name":"_initialCode","type":"address","internalType":"address"},{"name":"_djsv1","type":"address","internalType":"address"},{"name":"_node","type":"address","internalType":"address"},{"name":"_liquidity","type":"address","internalType":"address"}],"outputs":[],"stateMutability":"nonpayable"},{"type":"function","name":"isAddDirectReferrals","inputs":[{"name":"","type":"address","internalType":"address"}],"outputs":[{"name":"","type":"bool","internalType":"bool"}],"stateMutability":"view"},{"type":"function","name":"lastShareAwardTime","inputs":[],"outputs":[{"name":"","type":"uint256","internalType":"uint256"}],"stateMutability":"view"},{"type":"function","name":"liquidityManager","inputs":[],"outputs":[{"name":"","type":"address","internalType":"address"}],"stateMutability":"view"},{"type":"function","name":"migrationReferral","inputs":[{"name":"user","type":"address","internalType":"address"}],"outputs":[],"stateMutability":"nonpayable"},{"type":"function","name":"node","inputs":[],"outputs":[{"name":"","type":"address","internalType":"address"}],"stateMutability":"view"},{"type":"function","name":"owner","inputs":[],"outputs":[{"name":"","type":"address","internalType":"address"}],"stateMutability":"view"},{"type":"function","name":"pancakeRouter","inputs":[],"outputs":[{"name":"","type":"address","internalType":"contract IUniswapV2Router02"}],"stateMutability":"view"},{"type":"function","name":"pause","inputs":[],"outputs":[{"name":"","type":"bool","internalType":"bool"}],"stateMutability":"view"},{"type":"function","name":"perSecondStakedAeward","inputs":[],"outputs":[{"name":"","type":"uint256","internalType":"uint256"}],"stateMutability":"view"},{"type":"function","name":"perSharePerformanceAward","inputs":[],"outputs":[{"name":"","type":"uint256","internalType":"uint256"}],"stateMutability":"view"},{"type":"function","name":"proxiableUUID","inputs":[],"outputs":[{"name":"","type":"bytes32","internalType":"bytes32"}],"stateMutability":"view"},{"type":"function","name":"referral","inputs":[{"name":"recommender","type":"address","internalType":"address"}],"outputs":[],"stateMutability":"nonpayable"},{"type":"function","name":"referralInfo","inputs":[{"name":"","type":"address","internalType":"address"}],"outputs":[{"name":"recommender","type":"address","internalType":"address"},{"name":"level","type":"uint8","internalType":"enum Process.Level"},{"name":"referralNum","type":"uint256","internalType":"uint256"},{"name":"performance","type":"uint256","internalType":"uint256"},{"name":"referralAward","type":"uint256","internalType":"uint256"},{"name":"subCoinQuota","type":"uint256","internalType":"uint256"},{"name":"shareAwardDebt","type":"uint256","internalType":"uint256"},{"name":"isMigration","type":"bool","internalType":"bool"}],"stateMutability":"view"},{"type":"function","name":"renounceOwnership","inputs":[],"outputs":[],"stateMutability":"nonpayable"},{"type":"function","name":"setPause","inputs":[{"name":"isPause","type":"bool","internalType":"bool"}],"outputs":[],"stateMutability":"nonpayable"},{"type":"function","name":"shareRate","inputs":[],"outputs":[{"name":"","type":"uint256","internalType":"uint256"}],"stateMutability":"view"},{"type":"function","name":"stake","inputs":[{"name":"amountUSDT","type":"uint256","internalType":"uint256"}],"outputs":[],"stateMutability":"nonpayable"},{"type":"function","name":"subCoinQuotas","inputs":[{"name":"","type":"uint8","internalType":"enum Process.Level"}],"outputs":[{"name":"","type":"uint256","internalType":"uint256"}],"stateMutability":"view"},{"type":"function","name":"swapSubToken","inputs":[{"name":"amountUSDT","type":"uint256","internalType":"uint256"}],"outputs":[],"stateMutability":"nonpayable"},{"type":"function","name":"totalSharePerformance","inputs":[],"outputs":[{"name":"","type":"uint256","internalType":"uint256"}],"stateMutability":"view"},{"type":"function","name":"totalStakedUsdt","inputs":[],"outputs":[{"name":"","type":"uint256","internalType":"uint256"}],"stateMutability":"view"},{"type":"function","name":"transferOwnership","inputs":[{"name":"newOwner","type":"address","internalType":"address"}],"outputs":[],"stateMutability":"nonpayable"},{"type":"function","name":"upgradeToAndCall","inputs":[{"name":"newImplementation","type":"address","internalType":"address"},{"name":"data","type":"bytes","internalType":"bytes"}],"outputs":[],"stateMutability":"payable"},{"type":"function","name":"userInfo","inputs":[{"name":"","type":"address","internalType":"address"}],"outputs":[{"name":"stakingUsdt","type":"uint256","internalType":"uint256"},{"name":"multiple","type":"uint256","internalType":"uint256"},{"name":"stakingTime","type":"uint256","internalType":"uint256"},{"name":"pendingProfit","type":"uint256","internalType":"uint256"},{"name":"extracted","type":"uint256","internalType":"uint256"}],"stateMutability":"view"},{"type":"function","name":"whetherNeedMigrate","inputs":[{"name":"user","type":"address","internalType":"address"}],"outputs":[{"name":"","type":"bool","internalType":"bool"}],"stateMutability":"view"},{"type":"event","name":"Claimed","inputs":[{"name":"user","type":"address","indexed":false,"internalType":"address"},{"name":"amount","type":"uint256","indexed":false,"internalType":"uint256"}],"anonymous":false},{"type":"event","name":"Initialized","inputs":[{"name":"version","type":"uint64","indexed":false,"internalType":"uint64"}],"anonymous":false},{"type":"event","name":"OwnershipTransferred","inputs":[{"name":"previousOwner","type":"address","indexed":true,"internalType":"address"},{"name":"newOwner","type":"address","indexed":true,"internalType":"address"}],"anonymous":false},{"type":"event","name":"Referrals","inputs":[{"name":"recommender","type":"address","indexed":false,"internalType":"address"},{"name":"referred","type":"address","indexed":false,"internalType":"address"}],"anonymous":false},{"type":"event","name":"Staked","inputs":[{"name":"user","type":"address","indexed":false,"internalType":"address"},{"name":"amount","type":"uint256","indexed":false,"internalType":"uint256"}],"anonymous":false},{"type":"event","name":"Upgraded","inputs":[{"name":"implementation","type":"address","indexed":true,"internalType":"address"}],"anonymous":false},{"type":"error","name":"AddressEmptyCode","inputs":[{"name":"target","type":"address","internalType":"address"}]},{"type":"error","name":"AlreadyMigrated","inputs":[]},{"type":"error","name":"AmountTooLow","inputs":[]},{"type":"error","name":"ERC1967InvalidImplementation","inputs":[{"name":"implementation","type":"address","internalType":"address"}]},{"type":"error","name":"ERC1967NonPayable","inputs":[]},{"type":"error","name":"FailedCall","inputs":[]},{"type":"error","name":"InsufficientQuota","inputs":[]},{"type":"error","name":"InvalidInitialization","inputs":[]},{"type":"error","name":"InvalidRecommender","inputs":[]},{"type":"error","name":"InviterExists","inputs":[]},{"type":"error","name":"NeedMigrate","inputs":[]},{"type":"error","name":"NoMigrationRequired","inputs":[]},{"type":"error","name":"NoReward","inputs":[]},{"type":"error","name":"NoStake","inputs":[]},{"type":"error","name":"NotInitializing","inputs":[]},{"type":"error","name":"NotRequiredReferral","inputs":[]},{"type":"error","name":"OwnableInvalidOwner","inputs":[{"name":"owner","type":"address","internalType":"address"}]},{"type":"error","name":"OwnableUnauthorizedAccount","inputs":[{"name":"account","type":"address","internalType":"address"}]},{"type":"error","name":"ReentrancyGuardReentrantCall","inputs":[]},{"type":"error","name":"UUPSUnauthorizedCallContext","inputs":[]},{"type":"error","name":"UUPSUnsupportedProxiableUUID","inputs":[{"name":"slot","type":"bytes32","internalType":"bytes32"}]},{"type":"error","name":"ZeroAddress","inputs":[]}],"bytecode":{"object":"0x60a06040523073ffffffffffffffffffffffffffffffffffffffff1660809073ffffffffffffffffffffffffffffffffffffffff168152507310ed43c718714eb63d5aa57b78b54704e256024e60015f6101000a81548173ffffffffffffffffffffffffffffffffffffffff021916908373ffffffffffffffffffffffffffffffffffffffff160217905550348015610096575f5ffd5b5060015f819055506080516158146100c45f395f818161338d015281816133e2015261359c01526158145ff3fe60806040526004361061027f575f3560e01c806389e59ea01161014e578063bedb86fb116100c0578063d567aadb11610079578063d567aadb14610a33578063d70754ec14610a5d578063db81c51514610a87578063f2fde38b14610ab1578063f851a44014610ad9578063fb802a6514610b03576102bf565b8063bedb86fb14610901578063c023b3a514610929578063c21ebd0714610967578063c54e44eb14610991578063c7c93c94146109bb578063d2c8e0e5146109f7576102bf565b8063a3f2a64a11610112578063a3f2a64a146107de578063a694fc3a1461081a578063ac6439b514610842578063ad3cb1cc1461086c578063b2859e2b14610896578063b5006823146108c0576102bf565b806389e59ea0146106f65780638da5cb5b14610720578063905635d41461074a578063922be46d146107745780639238b0f91461079e576102bf565b8063313ce567116101f257806352d1902d116101ab57806352d1902d14610600578063551512de1461062a578063715018a6146106525780637247959a146106685780638456cb591461069057806385215f7c146106ba576102bf565b8063313ce567146104fb578063338274381461052557806339540b0a1461054f5780633e4ff6f2146105925780634e71d92d146105ce5780634f1ef286146105e4576102bf565b806310baf0891161024457806310baf089146103c95780631459457a146103f357806318785eb61461041b5780631959a0021461045757806319b12a53146104975780631b602f22146104d3576102bf565b8062c4bb2b146102c357806303fd2a45146102ff57806305ad3935146103295780630acf716b146103655780630ff9ef12146103a1576102bf565b366102bf576040517f08c379a00000000000000000000000000000000000000000000000000000000081526004016102b6906147f0565b60405180910390fd5b5f5ffd5b3480156102ce575f5ffd5b506102e960048036038101906102e49190614842565b610b2d565b6040516102f69190614885565b60405180910390f35b34801561030a575f5ffd5b50610313610b42565b60405161032091906148dd565b60405180910390f35b348015610334575f5ffd5b5061034f600480360381019061034a919061494a565b610b48565b60405161035c91906148dd565b60405180910390f35b348015610370575f5ffd5b5061038b60048036038101906103869190614988565b610b90565b6040516103989190614885565b60405180910390f35b3480156103ac575f5ffd5b506103c760048036038101906103c29190614988565b610c4d565b005b3480156103d4575f5ffd5b506103dd610e9a565b6040516103ea91906148dd565b60405180910390f35b3480156103fe575f5ffd5b50610419600480360381019061041491906149b3565b610ebf565b005b348015610426575f5ffd5b50610441600480360381019061043c9190614988565b611331565b60405161044e9190614b30565b60405180910390f35b348015610462575f5ffd5b5061047d60048036038101906104789190614988565b611432565b60405161048e959493929190614b50565b60405180910390f35b3480156104a2575f5ffd5b506104bd60048036038101906104b89190614988565b611464565b6040516104ca9190614885565b60405180910390f35b3480156104de575f5ffd5b506104f960048036038101906104f49190614ba1565b611521565b005b348015610506575f5ffd5b5061050f6116be565b60405161051c9190614885565b60405180910390f35b348015610530575f5ffd5b506105396116c4565b60405161054691906148dd565b60405180910390f35b34801561055a575f5ffd5b5061057560048036038101906105709190614988565b6116e9565b604051610589989796959493929190614c59565b60405180910390f35b34801561059d575f5ffd5b506105b860048036038101906105b39190614988565b611764565b6040516105c59190614885565b60405180910390f35b3480156105d9575f5ffd5b506105e261193b565b005b6105fe60048036038101906105f99190614e11565b611bb8565b005b34801561060b575f5ffd5b50610614611bd7565b6040516106219190614e83565b60405180910390f35b348015610635575f5ffd5b50610650600480360381019061064b9190614e9c565b611c08565b005b34801561065d575f5ffd5b50610666611c20565b005b348015610673575f5ffd5b5061068e60048036038101906106899190614988565b611c33565b005b34801561069b575f5ffd5b506106a4612084565b6040516106b19190614eec565b60405180910390f35b3480156106c5575f5ffd5b506106e060048036038101906106db9190614988565b612096565b6040516106ed9190614eec565b60405180910390f35b348015610701575f5ffd5b5061070a6121c4565b6040516107179190614885565b60405180910390f35b34801561072b575f5ffd5b506107346121ca565b60405161074191906148dd565b60405180910390f35b348015610755575f5ffd5b5061075e6121ff565b60405161076b9190614885565b60405180910390f35b34801561077f575f5ffd5b50610788612205565b6040516107959190614885565b60405180910390f35b3480156107a9575f5ffd5b506107c460048036038101906107bf9190614988565b61220b565b6040516107d5959493929190614f05565b60405180910390f35b3480156107e9575f5ffd5b5061080460048036038101906107ff9190614988565b612363565b6040516108119190614eec565b60405180910390f35b348015610825575f5ffd5b50610840600480360381019061083b9190614ba1565b612380565b005b34801561084d575f5ffd5b50610856612a87565b60405161086391906148dd565b60405180910390f35b348015610877575f5ffd5b50610880612aac565b60405161088d9190614fa6565b60405180910390f35b3480156108a1575f5ffd5b506108aa612ae5565b6040516108b79190614885565b60405180910390f35b3480156108cb575f5ffd5b506108e660048036038101906108e19190614988565b612aeb565b6040516108f896959493929190614fc6565b60405180910390f35b34801561090c575f5ffd5b506109276004803603810190610922919061504f565b612cce565b005b348015610934575f5ffd5b5061094f600480360381019061094a919061494a565b612cf2565b60405161095e9392919061507a565b60405180910390f35b348015610972575f5ffd5b5061097b612d51565b604051610988919061510a565b60405180910390f35b34801561099c575f5ffd5b506109a5612d76565b6040516109b291906148dd565b60405180910390f35b3480156109c6575f5ffd5b506109e160048036038101906109dc9190614988565b612d8e565b6040516109ee9190614885565b60405180910390f35b348015610a02575f5ffd5b50610a1d6004803603810190610a189190614988565b612f9c565b604051610a2a91906151cb565b60405180910390f35b348015610a3e575f5ffd5b50610a47613064565b604051610a549190614885565b60405180910390f35b348015610a68575f5ffd5b50610a7161306a565b604051610a7e91906148dd565b60405180910390f35b348015610a92575f5ffd5b50610a9b61308f565b604051610aa89190614885565b60405180910390f35b348015610abc575f5ffd5b50610ad76004803603810190610ad29190614988565b613095565b005b348015610ae4575f5ffd5b50610aed613119565b604051610afa91906148dd565b60405180910390f35b348015610b0e575f5ffd5b50610b1761313e565b604051610b249190614885565b60405180910390f35b600c602052805f5260405f205f915090505481565b61dead81565b600a602052815f5260405f208181548110610b61575f80fd5b905f5260205f20015f915091509054906101000a900473ffffffffffffffffffffffffffffffffffffffff1681565b5f5f60075f8473ffffffffffffffffffffffffffffffffffffffff1673ffffffffffffffffffffffffffffffffffffffff1681526020019081526020015f206040518060a00160405290815f82015481526020016001820154815260200160028201548152602001600382015481526020016004820154815250509050601054815f0151600f54836040015142610c279190615218565b610c31919061524b565b610c3b919061524b565b610c4591906152b9565b915050919050565b610c55613144565b600e5f9054906101000a900460ff1615610ca4576040517f08c379a0000000000000000000000000000000000000000000000000000000008152600401610c9b90615333565b60405180910390fd5b5f60085f8373ffffffffffffffffffffffffffffffffffffffff1673ffffffffffffffffffffffffffffffffffffffff1681526020019081526020015f209050806006015f9054906101000a900460ff1615610d2c576040517fca1c3cbc00000000000000000000000000000000000000000000000000000000815260040160405180910390fd5b5f60045f9054906101000a900473ffffffffffffffffffffffffffffffffffffffff1673ffffffffffffffffffffffffffffffffffffffff16631959a002846040518263ffffffff1660e01b8152600401610d8791906148dd565b608060405180830381865afa158015610da2573d5f5f3e3d5ffd5b505050506040513d601f19601f82011682018060405250810190610dc69190615379565b50505090505f73ffffffffffffffffffffffffffffffffffffffff168173ffffffffffffffffffffffffffffffffffffffff1603610e30576040517f9c9e07a800000000000000000000000000000000000000000000000000000000815260040160405180910390fd5b80825f015f6101000a81548173ffffffffffffffffffffffffffffffffffffffff021916908373ffffffffffffffffffffffffffffffffffffffff1602179055506001826006015f6101000a81548160ff0219169083151502179055505050610e97613188565b50565b60035f9054906101000a900473ffffffffffffffffffffffffffffffffffffffff1681565b5f610ec8613191565b90505f815f0160089054906101000a900460ff161590505f825f015f9054906101000a900467ffffffffffffffff1690505f5f8267ffffffffffffffff16148015610f105750825b90505f60018367ffffffffffffffff16148015610f4357505f3073ffffffffffffffffffffffffffffffffffffffff163b145b905081158015610f51575080155b15610f88576040517ff92ee8a900000000000000000000000000000000000000000000000000000000815260040160405180910390fd5b6001855f015f6101000a81548167ffffffffffffffff021916908367ffffffffffffffff1602179055508315610fd5576001855f0160086101000a81548160ff0219169083151502179055505b610fe5610fe06131a4565b6131ab565b8960025f6101000a81548173ffffffffffffffffffffffffffffffffffffffff021916908373ffffffffffffffffffffffffffffffffffffffff1602179055508860035f6101000a81548173ffffffffffffffffffffffffffffffffffffffff021916908373ffffffffffffffffffffffffffffffffffffffff1602179055508760045f6101000a81548173ffffffffffffffffffffffffffffffffffffffff021916908373ffffffffffffffffffffffffffffffffffffffff1602179055508660055f6101000a81548173ffffffffffffffffffffffffffffffffffffffff021916908373ffffffffffffffffffffffffffffffffffffffff1602179055508560065f6101000a81548173ffffffffffffffffffffffffffffffffffffffff021916908373ffffffffffffffffffffffffffffffffffffffff1602179055506402540be40060108190555062015180683635c9adc5dea0000060105467a688906bd8b00000611155919061524b565b61115f91906152b9565b61116991906152b9565b600f81905550600a60148190555068056bc75e2d63100000600c5f6001600681111561119857611197614bcc565b5b60068111156111aa576111a9614bcc565b5b81526020019081526020015f2081905550681043561a8829300000600c5f600260068111156111dc576111db614bcc565b5b60068111156111ee576111ed614bcc565b5b81526020019081526020015f2081905550681b1ae4d6e2ef500000600c5f600360068111156112205761121f614bcc565b5b600681111561123257611231614bcc565b5b81526020019081526020015f2081905550683635c9adc5dea00000600c5f6004600681111561126457611263614bcc565b5b600681111561127657611275614bcc565b5b81526020019081526020015f208190555068a2a15d09519be00000600c5f600560068111156112a8576112a7614bcc565b5b60068111156112ba576112b9614bcc565b5b81526020019081526020015f20819055508315611325575f855f0160086101000a81548160ff0219169083151502179055507fc7f505b2f371ae2175ee4913f4499e1f2633a7b5936321eed1cdaeb6115181d2600160405161131c9190615429565b60405180910390a15b50505050505050505050565b606060095f8373ffffffffffffffffffffffffffffffffffffffff1673ffffffffffffffffffffffffffffffffffffffff1681526020019081526020015f20805480602002602001604051908101604052809291908181526020015f905b82821015611427578382905f5260205f2090600302016040518060600160405290815f82015f9054906101000a900473ffffffffffffffffffffffffffffffffffffffff1673ffffffffffffffffffffffffffffffffffffffff1673ffffffffffffffffffffffffffffffffffffffff168152602001600182015481526020016002820154815250508152602001906001019061138f565b505050509050919050565b6007602052805f5260405f205f91509050805f0154908060010154908060020154908060030154908060040154905085565b5f5f60075f8473ffffffffffffffffffffffffffffffffffffffff1673ffffffffffffffffffffffffffffffffffffffff1681526020019081526020015f2090505f81600401546010546114b786612d8e565b6114c191906152b9565b6114ca86610b90565b84600301546114d99190615442565b6114e39190615442565b6114ed9190615442565b90508160010154825f0154611502919061524b565b81111561151657815f01549250505061151c565b5f925050505b919050565b60085f3373ffffffffffffffffffffffffffffffffffffffff1673ffffffffffffffffffffffffffffffffffffffff1681526020019081526020015f206004015481111561159b576040517f6aea990400000000000000000000000000000000000000000000000000000000815260040160405180910390fd5b6115dc7355d398326f99059ff775485246999027b31979553360065f9054906101000a900473ffffffffffffffffffffffffffffffffffffffff16846131bf565b60065f9054906101000a900473ffffffffffffffffffffffffffffffffffffffff1673ffffffffffffffffffffffffffffffffffffffff166379e32cd933836040518363ffffffff1660e01b8152600401611638929190615475565b5f604051808303815f87803b15801561164f575f5ffd5b505af1158015611661573d5f5f3e3d5ffd5b505050508060085f3373ffffffffffffffffffffffffffffffffffffffff1673ffffffffffffffffffffffffffffffffffffffff1681526020019081526020015f206004015f8282546116b49190615218565b9250508190555050565b60105481565b60065f9054906101000a900473ffffffffffffffffffffffffffffffffffffffff1681565b6008602052805f5260405f205f91509050805f015f9054906101000a900473ffffffffffffffffffffffffffffffffffffffff1690805f0160149054906101000a900460ff1690806001015490806002015490806003015490806004015490806005015490806006015f9054906101000a900460ff16905088565b5f5f60075f8473ffffffffffffffffffffffffffffffffffffffff1673ffffffffffffffffffffffffffffffffffffffff1681526020019081526020015f206040518060a00160405290815f820154815260200160018201548152602001600282015481526020016003820154815260200160048201548152505090505f815f0151036117f4575f915050611936565b5f6117fe84610b90565b90505f61180a85612d8e565b90505f60085f8773ffffffffffffffffffffffffffffffffffffffff1673ffffffffffffffffffffffffffffffffffffffff1681526020019081526020015f20600301548284866060015161185f9190615442565b6118699190615442565b6118739190615442565b905060035f9054906101000a900473ffffffffffffffffffffffffffffffffffffffff1673ffffffffffffffffffffffffffffffffffffffff168673ffffffffffffffffffffffffffffffffffffffff16036118d55780945050505050611936565b5f8460200151855f01516118e9919061524b565b905080856080015110611903575f95505050505050611936565b5f8560800151826119149190615218565b90508083111561192c57809650505050505050611936565b8296505050505050505b919050565b611943613144565b5f60075f3373ffffffffffffffffffffffffffffffffffffffff1673ffffffffffffffffffffffffffffffffffffffff1681526020019081526020015f2090505f815f0154036119bf576040517fcacf989a00000000000000000000000000000000000000000000000000000000815260040160405180910390fd5b5f6119c933611464565b600d546119d69190615218565b90506119e1816132f2565b5f6119eb33611764565b90505f8103611a26576040517f6e99268600000000000000000000000000000000000000000000000000000000815260040160405180910390fd5b5f836003018190555080836004015f828254611a429190615442565b925050819055505f60085f3373ffffffffffffffffffffffffffffffffffffffff1673ffffffffffffffffffffffffffffffffffffffff1681526020019081526020015f2090505f8160030181905550600680811115611aa557611aa4614bcc565b5b815f0160149054906101000a900460ff166006811115611ac857611ac7614bcc565b5b03611ae8578060020154601254611adf919061524b565b81600501819055505b60065f9054906101000a900473ffffffffffffffffffffffffffffffffffffffff1673ffffffffffffffffffffffffffffffffffffffff16632d019c4233846040518363ffffffff1660e01b8152600401611b44929190615475565b5f604051808303815f87803b158015611b5b575f5ffd5b505af1158015611b6d573d5f5f3e3d5ffd5b505050507fd8138f8a3f377c5259ca548e70e4c2de94f129f5a11036a15b69513cba2b426a3383604051611ba2929190615475565b60405180910390a150505050611bb6613188565b565b611bc061338b565b611bc982613471565b611bd3828261347c565b5050565b5f611be061359a565b7f360894a13ba1a3210667c828492db98dca3e2076cc3735a920a3ca505d382bbc5f1b905090565b611c10613621565b611c1b8382846136a8565b505050565b611c28613621565b611c315f6137d8565b565b611c3b613144565b600e5f9054906101000a900460ff1615611c8a576040517f08c379a0000000000000000000000000000000000000000000000000000000008152600401611c8190615333565b60405180910390fd5b611c9333612096565b15611cca576040517f1d9410b700000000000000000000000000000000000000000000000000000000815260040160405180910390fd5b5f73ffffffffffffffffffffffffffffffffffffffff168173ffffffffffffffffffffffffffffffffffffffff1603611d2f576040517fd92e233d00000000000000000000000000000000000000000000000000000000815260040160405180910390fd5b3373ffffffffffffffffffffffffffffffffffffffff168173ffffffffffffffffffffffffffffffffffffffff1603611d94576040517f4f2f060100000000000000000000000000000000000000000000000000000000815260040160405180910390fd5b60035f9054906101000a900473ffffffffffffffffffffffffffffffffffffffff1673ffffffffffffffffffffffffffffffffffffffff168173ffffffffffffffffffffffffffffffffffffffff1614611f00575f73ffffffffffffffffffffffffffffffffffffffff1660085f8373ffffffffffffffffffffffffffffffffffffffff1673ffffffffffffffffffffffffffffffffffffffff1681526020019081526020015f205f015f9054906101000a900473ffffffffffffffffffffffffffffffffffffffff1673ffffffffffffffffffffffffffffffffffffffff1614158015611ec057505f60075f8373ffffffffffffffffffffffffffffffffffffffff1673ffffffffffffffffffffffffffffffffffffffff1681526020019081526020015f205f0154115b611eff576040517f08c379a0000000000000000000000000000000000000000000000000000000008152600401611ef69061550c565b60405180910390fd5b5b5f73ffffffffffffffffffffffffffffffffffffffff1660085f3373ffffffffffffffffffffffffffffffffffffffff1673ffffffffffffffffffffffffffffffffffffffff1681526020019081526020015f205f015f9054906101000a900473ffffffffffffffffffffffffffffffffffffffff1673ffffffffffffffffffffffffffffffffffffffff1614611fc3576040517f5b3d5a1b00000000000000000000000000000000000000000000000000000000815260040160405180910390fd5b8060085f3373ffffffffffffffffffffffffffffffffffffffff1673ffffffffffffffffffffffffffffffffffffffff1681526020019081526020015f205f015f6101000a81548173ffffffffffffffffffffffffffffffffffffffff021916908373ffffffffffffffffffffffffffffffffffffffff1602179055507f455db5b564134af440ac23bd273ce313070080fc2c3d5d36c03f62de3c628498813360405161207192919061552a565b60405180910390a1612081613188565b50565b600e5f9054906101000a900460ff1681565b5f5f60045f9054906101000a900473ffffffffffffffffffffffffffffffffffffffff1673ffffffffffffffffffffffffffffffffffffffff16631959a002846040518263ffffffff1660e01b81526004016120f291906148dd565b608060405180830381865afa15801561210d573d5f5f3e3d5ffd5b505050506040513d601f19601f820116820180604052508101906121319190615379565b50505090505f73ffffffffffffffffffffffffffffffffffffffff168173ffffffffffffffffffffffffffffffffffffffff16141580156121bc575060085f8473ffffffffffffffffffffffffffffffffffffffff1673ffffffffffffffffffffffffffffffffffffffff1681526020019081526020015f206006015f9054906101000a900460ff16155b915050919050565b6103e881565b5f5f6121d46138a9565b9050805f015f9054906101000a900473ffffffffffffffffffffffffffffffffffffffff1691505090565b600f5481565b60115481565b5f5f5f5f5f5f60085f8873ffffffffffffffffffffffffffffffffffffffff1673ffffffffffffffffffffffffffffffffffffffff1681526020019081526020015f20604051806101000160405290815f82015f9054906101000a900473ffffffffffffffffffffffffffffffffffffffff1673ffffffffffffffffffffffffffffffffffffffff1673ffffffffffffffffffffffffffffffffffffffff1681526020015f820160149054906101000a900460ff1660068111156122d2576122d1614bcc565b5b60068111156122e4576122e3614bcc565b5b81526020016001820154815260200160028201548152602001600382015481526020016004820154815260200160058201548152602001600682015f9054906101000a900460ff16151515158152505090508060400151955080606001519450806080015193508060a0015192508060e0015191505091939590929450565b600b602052805f5260405f205f915054906101000a900460ff1681565b612388613144565b600e5f9054906101000a900460ff16156123d7576040517f08c379a00000000000000000000000000000000000000000000000000000000081526004016123ce90615333565b60405180910390fd5b5f60075f3373ffffffffffffffffffffffffffffffffffffffff1673ffffffffffffffffffffffffffffffffffffffff1681526020019081526020015f2090505f60085f3373ffffffffffffffffffffffffffffffffffffffff1673ffffffffffffffffffffffffffffffffffffffff1681526020019081526020015f2090505f73ffffffffffffffffffffffffffffffffffffffff16815f015f9054906101000a900473ffffffffffffffffffffffffffffffffffffffff1673ffffffffffffffffffffffffffffffffffffffff16036124de576040517faf4d1ef200000000000000000000000000000000000000000000000000000000815260040160405180910390fd5b68056bc75e2d63100000831015612521576040517f1fbaba3500000000000000000000000000000000000000000000000000000000815260040160405180910390fd5b5f6064600185612531919061524b565b61253b91906152b9565b90505f606460018661254d919061524b565b61255791906152b9565b90506125a57355d398326f99059ff775485246999027b31979553360065f9054906101000a900473ffffffffffffffffffffffffffffffffffffffff1685896125a09190615218565b6131bf565b6125e67355d398326f99059ff775485246999027b31979553360055f9054906101000a900473ffffffffffffffffffffffffffffffffffffffff16856131bf565b60065f9054906101000a900473ffffffffffffffffffffffffffffffffffffffff1673ffffffffffffffffffffffffffffffffffffffff166303ec9fb0826040518263ffffffff1660e01b81526004016126409190614885565b5f604051808303815f87803b158015612657575f5ffd5b505af1158015612669573d5f5f3e3d5ffd5b505050505f73ffffffffffffffffffffffffffffffffffffffff1660055f9054906101000a900473ffffffffffffffffffffffffffffffffffffffff1673ffffffffffffffffffffffffffffffffffffffff16146127495760055f9054906101000a900473ffffffffffffffffffffffffffffffffffffffff1673ffffffffffffffffffffffffffffffffffffffff1663cc430ced836040518263ffffffff1660e01b815260040161271b9190614885565b5f604051808303815f87803b158015612732575f5ffd5b505af1158015612744573d5f5f3e3d5ffd5b505050505b60065f9054906101000a900473ffffffffffffffffffffffffffffffffffffffff1673ffffffffffffffffffffffffffffffffffffffff166351c6590a8284886127939190615218565b61279d9190615218565b6040518263ffffffff1660e01b81526004016127b99190614885565b5f604051808303815f87803b1580156127d0575f5ffd5b505af11580156127e2573d5f5f3e3d5ffd5b505050506127ef336138d0565b60068081111561280257612801614bcc565b5b835f0160149054906101000a900460ff16600681111561282557612824614bcc565b5b0361284557826002015460125461283c919061524b565b83600501819055505b84845f015f8282546128579190615442565b925050819055505f68a2a15d09519be00000855f01541161287957600261287c565b60035b60ff16905080856001015414612896578085600101819055505b85600d5f8282546128a79190615442565b92505081905550600b5f3373ffffffffffffffffffffffffffffffffffffffff1673ffffffffffffffffffffffffffffffffffffffff1681526020019081526020015f205f9054906101000a900460ff16612a0f57600a5f855f015f9054906101000a900473ffffffffffffffffffffffffffffffffffffffff1673ffffffffffffffffffffffffffffffffffffffff1673ffffffffffffffffffffffffffffffffffffffff1681526020019081526020015f2033908060018154018082558091505060019003905f5260205f20015f9091909190916101000a81548173ffffffffffffffffffffffffffffffffffffffff021916908373ffffffffffffffffffffffffffffffffffffffff1602179055506001600b5f3373ffffffffffffffffffffffffffffffffffffffff1673ffffffffffffffffffffffffffffffffffffffff1681526020019081526020015f205f6101000a81548160ff0219169083151502179055505b5f612a1a33886139a9565b90505f811115612a3d578060135f828254612a359190615442565b925050819055505b7f9e71bc8eea02a63969f509818f2dafb9254532904319f9dbda79b67bd34a5f3d3388604051612a6e929190615475565b60405180910390a1505050505050612a84613188565b50565b60045f9054906101000a900473ffffffffffffffffffffffffffffffffffffffff1681565b6040518060400160405280600581526020017f352e302e3000000000000000000000000000000000000000000000000000000081525081565b600d5481565b5f5f5f5f5f5f5f60075f8973ffffffffffffffffffffffffffffffffffffffff1673ffffffffffffffffffffffffffffffffffffffff1681526020019081526020015f206040518060a00160405290815f820154815260200160018201548152602001600282015481526020016003820154815260200160048201548152505090505f60085f8a73ffffffffffffffffffffffffffffffffffffffff1673ffffffffffffffffffffffffffffffffffffffff1681526020019081526020015f20604051806101000160405290815f82015f9054906101000a900473ffffffffffffffffffffffffffffffffffffffff1673ffffffffffffffffffffffffffffffffffffffff1673ffffffffffffffffffffffffffffffffffffffff1681526020015f820160149054906101000a900460ff166006811115612c2f57612c2e614bcc565b5b6006811115612c4157612c40614bcc565b5b81526020016001820154815260200160028201548152602001600382015481526020016004820154815260200160058201548152602001600682015f9054906101000a900460ff161515151581525050905080602001519750805f01519650815f0151955081602001519450612cb689611764565b9350612cc189612d8e565b9250505091939550919395565b612cd6613621565b80600e5f6101000a81548160ff02191690831515021790555050565b6009602052815f5260405f208181548110612d0b575f80fd5b905f5260205f2090600302015f9150915050805f015f9054906101000a900473ffffffffffffffffffffffffffffffffffffffff16908060010154908060020154905083565b60015f9054906101000a900473ffffffffffffffffffffffffffffffffffffffff1681565b7355d398326f99059ff775485246999027b319795581565b5f5f60085f8473ffffffffffffffffffffffffffffffffffffffff1673ffffffffffffffffffffffffffffffffffffffff1681526020019081526020015f20604051806101000160405290815f82015f9054906101000a900473ffffffffffffffffffffffffffffffffffffffff1673ffffffffffffffffffffffffffffffffffffffff1673ffffffffffffffffffffffffffffffffffffffff1681526020015f820160149054906101000a900460ff166006811115612e5157612e50614bcc565b5b6006811115612e6357612e62614bcc565b5b81526020016001820154815260200160028201548152602001600382015481526020016004820154815260200160058201548152602001600682015f9054906101000a900460ff16151515158152505090505f81606001511480612ec857505f601354145b15612ed6575f915050612f97565b5f60125490505f60115442612eeb9190615218565b90505f811115612f49575f6064601454600f5484600d54612f0c919061524b565b612f16919061524b565b612f20919061524b565b612f2a91906152b9565b905060135481612f3a91906152b9565b83612f459190615442565b9250505b5f601054838560600151612f5d919061524b565b612f6791906152b9565b90508360c001518111612f80575f945050505050612f97565b8360c0015181612f909190615218565b9450505050505b919050565b6060600a5f8373ffffffffffffffffffffffffffffffffffffffff1673ffffffffffffffffffffffffffffffffffffffff1681526020019081526020015f2080548060200260200160405190810160405280929190818152602001828054801561305857602002820191905f5260205f20905b815f9054906101000a900473ffffffffffffffffffffffffffffffffffffffff1673ffffffffffffffffffffffffffffffffffffffff168152602001906001019080831161300f575b50505050509050919050565b60135481565b60055f9054906101000a900473ffffffffffffffffffffffffffffffffffffffff1681565b60125481565b61309d613621565b5f73ffffffffffffffffffffffffffffffffffffffff168173ffffffffffffffffffffffffffffffffffffffff160361310d575f6040517f1e4fbdf700000000000000000000000000000000000000000000000000000000815260040161310491906148dd565b60405180910390fd5b613116816137d8565b50565b60025f9054906101000a900473ffffffffffffffffffffffffffffffffffffffff1681565b60145481565b60025f540361317f576040517f3ee5aeb500000000000000000000000000000000000000000000000000000000815260040160405180910390fd5b60025f81905550565b60015f81905550565b5f5f61319b614040565b90508091505090565b5f33905090565b6131b3614069565b6131bc816140a9565b50565b5f5f8573ffffffffffffffffffffffffffffffffffffffff166323b872dd8686866040516024016131f293929190615551565b6040516020818303038152906040529060e01b6020820180517bffffffffffffffffffffffffffffffffffffffffffffffffffffffff838183161783525050505060405161324091906155ca565b5f604051808303815f865af19150503d805f8114613279576040519150601f19603f3d011682016040523d82523d5f602084013e61327e565b606091505b50915091508180156132ab57505f815114806132aa5750808060200190518101906132a991906155f4565b5b5b6132ea576040517f08c379a00000000000000000000000000000000000000000000000000000000081526004016132e19061568f565b60405180910390fd5b505050505050565b5f601154426133019190615218565b90505f81148061331257505f601354145b15613324574260118190555050613388565b5f6064601454600f548486613339919061524b565b613343919061524b565b61334d919061524b565b61335791906152b9565b90506013548161336791906152b9565b60125f8282546133779190615442565b925050819055504260118190555050505b50565b7f000000000000000000000000000000000000000000000000000000000000000073ffffffffffffffffffffffffffffffffffffffff163073ffffffffffffffffffffffffffffffffffffffff16148061343857507f000000000000000000000000000000000000000000000000000000000000000073ffffffffffffffffffffffffffffffffffffffff1661341f61412d565b73ffffffffffffffffffffffffffffffffffffffff1614155b1561346f576040517fe07c8dba00000000000000000000000000000000000000000000000000000000815260040160405180910390fd5b565b613479613621565b50565b8173ffffffffffffffffffffffffffffffffffffffff166352d1902d6040518163ffffffff1660e01b8152600401602060405180830381865afa9250505080156134e457506040513d601f19601f820116820180604052508101906134e191906156d7565b60015b61352557816040517f4c9c8ce300000000000000000000000000000000000000000000000000000000815260040161351c91906148dd565b60405180910390fd5b7f360894a13ba1a3210667c828492db98dca3e2076cc3735a920a3ca505d382bbc5f1b811461358b57806040517faa1d49a40000000000000000000000000000000000000000000000000000000081526004016135829190614e83565b60405180910390fd5b6135958383614180565b505050565b7f000000000000000000000000000000000000000000000000000000000000000073ffffffffffffffffffffffffffffffffffffffff163073ffffffffffffffffffffffffffffffffffffffff161461361f576040517fe07c8dba00000000000000000000000000000000000000000000000000000000815260040160405180910390fd5b565b6136296131a4565b73ffffffffffffffffffffffffffffffffffffffff166136476121ca565b73ffffffffffffffffffffffffffffffffffffffff16146136a65761366a6131a4565b6040517f118cdaa700000000000000000000000000000000000000000000000000000000815260040161369d91906148dd565b60405180910390fd5b565b5f5f8473ffffffffffffffffffffffffffffffffffffffff1663a9059cbb85856040516024016136d9929190615475565b6040516020818303038152906040529060e01b6020820180517bffffffffffffffffffffffffffffffffffffffffffffffffffffffff838183161783525050505060405161372791906155ca565b5f604051808303815f865af19150503d805f8114613760576040519150601f19603f3d011682016040523d82523d5f602084013e613765565b606091505b509150915081801561379257505f8151148061379157508080602001905181019061379091906155f4565b5b5b6137d1576040517f08c379a00000000000000000000000000000000000000000000000000000000081526004016137c89061574c565b60405180910390fd5b5050505050565b5f6137e16138a9565b90505f815f015f9054906101000a900473ffffffffffffffffffffffffffffffffffffffff16905082825f015f6101000a81548173ffffffffffffffffffffffffffffffffffffffff021916908373ffffffffffffffffffffffffffffffffffffffff1602179055508273ffffffffffffffffffffffffffffffffffffffff168173ffffffffffffffffffffffffffffffffffffffff167f8be0079c531659141344cd1fd0a4f28419497f9722a3daafe3b4186f6b6457e060405160405180910390a3505050565b5f7f9016d09d72d40fdae2fd8ceac6b6234c7706214fd39c1cd1e609a0528c199300905090565b5f60075f8373ffffffffffffffffffffffffffffffffffffffff1673ffffffffffffffffffffffffffffffffffffffff1681526020019081526020015f2090505f815f01540361392957428160020181905550506139a6565b5f81600201544261393a9190615218565b90505f810361394a5750506139a6565b5f601054835f0154600f5484613960919061524b565b61396a919061524b565b61397491906152b9565b90505f8111156139995780836003015f8282546139919190615442565b925050819055505b4283600201819055505050505b50565b5f5f60085f8573ffffffffffffffffffffffffffffffffffffffff1673ffffffffffffffffffffffffffffffffffffffff1681526020019081526020015f205f015f9054906101000a900473ffffffffffffffffffffffffffffffffffffffff169050613a14614774565b5f603290505f93505b5f73ffffffffffffffffffffffffffffffffffffffff168373ffffffffffffffffffffffffffffffffffffffff1614613fa0575f60085f8573ffffffffffffffffffffffffffffffffffffffff1673ffffffffffffffffffffffffffffffffffffffff1681526020019081526020015f2090506001816001015f828254613aa49190615442565b9250508190555085816002015f828254613abe9190615442565b925050819055505f5f90505f5f90505b600a5f8773ffffffffffffffffffffffffffffffffffffffff1673ffffffffffffffffffffffffffffffffffffffff1681526020019081526020015f2080549050811015613c205760056006811115613b2a57613b29614bcc565b5b60085f600a5f8a73ffffffffffffffffffffffffffffffffffffffff1673ffffffffffffffffffffffffffffffffffffffff1681526020019081526020015f208481548110613b7c57613b7b61576a565b5b905f5260205f20015f9054906101000a900473ffffffffffffffffffffffffffffffffffffffff1673ffffffffffffffffffffffffffffffffffffffff1673ffffffffffffffffffffffffffffffffffffffff1681526020019081526020015f205f0160149054906101000a900460ff166006811115613bff57613bfe614bcc565b5b03613c13578180613c0f90615797565b9250505b8080600101915050613ace565b505f5f613c3e845f0160149054906101000a900460ff16878b6141f2565b915091508015613da65781846003015f828254613c5b9190615442565b9250508190555060095f8873ffffffffffffffffffffffffffffffffffffffff1673ffffffffffffffffffffffffffffffffffffffff1681526020019081526020015f2060405180606001604052808c73ffffffffffffffffffffffffffffffffffffffff16815260200184815260200142815250908060018154018082558091505060019003905f5260205f2090600302015f909190919091505f820151815f015f6101000a81548173ffffffffffffffffffffffffffffffffffffffff021916908373ffffffffffffffffffffffffffffffffffffffff16021790555060208201518160010155604082015181600201555050600186855f0160149054906101000a900460ff166006811115613d7657613d75614bcc565b5b60068110613d8757613d8661576a565b5b602002019015159081151581525050600a85613da39190615218565b94505b5f5f5f613eda87604051806101000160405290815f82015f9054906101000a900473ffffffffffffffffffffffffffffffffffffffff1673ffffffffffffffffffffffffffffffffffffffff1673ffffffffffffffffffffffffffffffffffffffff1681526020015f820160149054906101000a900460ff166006811115613e3157613e30614bcc565b5b6006811115613e4357613e42614bcc565b5b81526020016001820154815260200160028201548152602001600382015481526020016004820154815260200160058201548152602001600682015f9054906101000a900460ff161515151581525050600a5f8d73ffffffffffffffffffffffffffffffffffffffff1673ffffffffffffffffffffffffffffffffffffffff1681526020019081526020015f2080549050886142b3565b92509250925082875f0160146101000a81548160ff02191690836006811115613f0657613f05614bcc565b5b0217905550818b613f179190615442565b9a508015613f6f57600c5f846006811115613f3557613f34614bcc565b5b6006811115613f4757613f46614bcc565b5b81526020019081526020015f2054876004015f828254613f679190615442565b925050819055505b865f015f9054906101000a900473ffffffffffffffffffffffffffffffffffffffff16995050505050505050613a1d565b5f8111156140375760648186613fb6919061524b565b613fc091906152b9565b60085f60035f9054906101000a900473ffffffffffffffffffffffffffffffffffffffff1673ffffffffffffffffffffffffffffffffffffffff1673ffffffffffffffffffffffffffffffffffffffff1681526020019081526020015f206003015f82825461402f9190615442565b925050819055505b50505092915050565b5f7ff0c57e16840df040f15088dc2f81fe391c3923bec73e23a9662efc9c229c6a005f1b905090565b614071614514565b6140a7576040517fd7e6bcf800000000000000000000000000000000000000000000000000000000815260040160405180910390fd5b565b6140b1614069565b5f73ffffffffffffffffffffffffffffffffffffffff168173ffffffffffffffffffffffffffffffffffffffff1603614121575f6040517f1e4fbdf700000000000000000000000000000000000000000000000000000000815260040161411891906148dd565b60405180910390fd5b61412a816137d8565b50565b5f6141597f360894a13ba1a3210667c828492db98dca3e2076cc3735a920a3ca505d382bbc5f1b614532565b5f015f9054906101000a900473ffffffffffffffffffffffffffffffffffffffff16905090565b6141898261453b565b8173ffffffffffffffffffffffffffffffffffffffff167fbc7cd75a20ee27fd9adebab32041f755214dbc6bffa90cc0225b39da2e5c2d3b60405160405180910390a25f815111156141e5576141df8282614604565b506141ee565b6141ed6146f5565b5b5050565b5f5f5f91505f905060068081111561420d5761420c614bcc565b5b8560068111156142205761421f614bcc565b5b1415801561425257505f600681111561423c5761423b614bcc565b5b85600681111561424f5761424e614bcc565b5b14155b156142ab575f85600681111561426b5761426a614bcc565b5b90508481600681106142805761427f61576a565b5b60200201516142a9576064600a85614298919061524b565b6142a291906152b9565b9250600191505b505b935093915050565b5f5f5f856020015192505f91505f90505f60068111156142d6576142d5614bcc565b5b866020015160068111156142ed576142ec614bcc565b5b1480156142fb575060038510155b8015614315575069021e19e0c9bab2400000866060015110155b1561432757600192506001905061450b565b6001600681111561433b5761433a614bcc565b5b8660200151600681111561435257614351614bcc565b5b148015614360575060048510155b801561437a5750690a968163f0a57b400000866060015110155b1561438c57600292506001905061450a565b600260068111156143a05761439f614bcc565b5b866020015160068111156143b7576143b6614bcc565b5b1480156143c5575060058510155b80156143df5750692a5a058fc295ed000000866060015110155b156143f1576003925060019050614509565b6003600681111561440557614404614bcc565b5b8660200151600681111561441c5761441b614bcc565b5b14801561442a575060078510155b8015614444575069a968163f0a57b4000000866060015110155b15614456576004925060019050614508565b6004600681111561446a57614469614bcc565b5b8660200151600681111561448157614480614bcc565b5b14801561448f575060098510155b80156144aa57506a027b46536c66c8e3000000866060015110155b156144bc576005925060019050614507565b600560068111156144d0576144cf614bcc565b5b866020015160068111156144e7576144e6614bcc565b5b1480156144f5575060028410155b156145065760069250856060015191505b5b5b5b5b5b93509350939050565b5f61451d613191565b5f0160089054906101000a900460ff16905090565b5f819050919050565b5f8173ffffffffffffffffffffffffffffffffffffffff163b0361459657806040517f4c9c8ce300000000000000000000000000000000000000000000000000000000815260040161458d91906148dd565b60405180910390fd5b806145c27f360894a13ba1a3210667c828492db98dca3e2076cc3735a920a3ca505d382bbc5f1b614532565b5f015f6101000a81548173ffffffffffffffffffffffffffffffffffffffff021916908373ffffffffffffffffffffffffffffffffffffffff16021790555050565b60605f6146118484614731565b905080801561464757505f614624614745565b118061464657505f8473ffffffffffffffffffffffffffffffffffffffff163b115b5b1561465c5761465461474c565b9150506146ef565b801561469f57836040517f9996b31500000000000000000000000000000000000000000000000000000000815260040161469691906148dd565b60405180910390fd5b5f6146a8614745565b11156146bb576146b6614769565b6146ed565b6040517fd6bda27500000000000000000000000000000000000000000000000000000000815260040160405180910390fd5b505b92915050565b5f34111561472f576040517fb398979f00000000000000000000000000000000000000000000000000000000815260040160405180910390fd5b565b5f5f5f835160208501865af4905092915050565b5f3d905090565b606060405190503d81523d5f602083013e3d602001810160405290565b6040513d5f823e3d81fd5b6040518060c00160405280600690602082028036833780820191505090505090565b5f82825260208201905092915050565b7f4e4f5f4449524543545f53454e440000000000000000000000000000000000005f82015250565b5f6147da600e83614796565b91506147e5826147a6565b602082019050919050565b5f6020820190508181035f830152614807816147ce565b9050919050565b5f604051905090565b5f5ffd5b5f5ffd5b6007811061482b575f5ffd5b50565b5f8135905061483c8161481f565b92915050565b5f6020828403121561485757614856614817565b5b5f6148648482850161482e565b91505092915050565b5f819050919050565b61487f8161486d565b82525050565b5f6020820190506148985f830184614876565b92915050565b5f73ffffffffffffffffffffffffffffffffffffffff82169050919050565b5f6148c78261489e565b9050919050565b6148d7816148bd565b82525050565b5f6020820190506148f05f8301846148ce565b92915050565b6148ff816148bd565b8114614909575f5ffd5b50565b5f8135905061491a816148f6565b92915050565b6149298161486d565b8114614933575f5ffd5b50565b5f8135905061494481614920565b92915050565b5f5f604083850312156149605761495f614817565b5b5f61496d8582860161490c565b925050602061497e85828601614936565b9150509250929050565b5f6020828403121561499d5761499c614817565b5b5f6149aa8482850161490c565b91505092915050565b5f5f5f5f5f60a086880312156149cc576149cb614817565b5b5f6149d98882890161490c565b95505060206149ea8882890161490c565b94505060406149fb8882890161490c565b9350506060614a0c8882890161490c565b9250506080614a1d8882890161490c565b9150509295509295909350565b5f81519050919050565b5f82825260208201905092915050565b5f819050602082019050919050565b614a5c816148bd565b82525050565b614a6b8161486d565b82525050565b606082015f820151614a855f850182614a53565b506020820151614a986020850182614a62565b506040820151614aab6040850182614a62565b50505050565b5f614abc8383614a71565b60608301905092915050565b5f602082019050919050565b5f614ade82614a2a565b614ae88185614a34565b9350614af383614a44565b805f5b83811015614b23578151614b0a8882614ab1565b9750614b1583614ac8565b925050600181019050614af6565b5085935050505092915050565b5f6020820190508181035f830152614b488184614ad4565b905092915050565b5f60a082019050614b635f830188614876565b614b706020830187614876565b614b7d6040830186614876565b614b8a6060830185614876565b614b976080830184614876565b9695505050505050565b5f60208284031215614bb657614bb5614817565b5b5f614bc384828501614936565b91505092915050565b7f4e487b71000000000000000000000000000000000000000000000000000000005f52602160045260245ffd5b60078110614c0a57614c09614bcc565b5b50565b5f819050614c1a82614bf9565b919050565b5f614c2982614c0d565b9050919050565b614c3981614c1f565b82525050565b5f8115159050919050565b614c5381614c3f565b82525050565b5f61010082019050614c6d5f83018b6148ce565b614c7a602083018a614c30565b614c876040830189614876565b614c946060830188614876565b614ca16080830187614876565b614cae60a0830186614876565b614cbb60c0830185614876565b614cc860e0830184614c4a565b9998505050505050505050565b5f5ffd5b5f5ffd5b5f601f19601f8301169050919050565b7f4e487b71000000000000000000000000000000000000000000000000000000005f52604160045260245ffd5b614d2382614cdd565b810181811067ffffffffffffffff82111715614d4257614d41614ced565b5b80604052505050565b5f614d5461480e565b9050614d608282614d1a565b919050565b5f67ffffffffffffffff821115614d7f57614d7e614ced565b5b614d8882614cdd565b9050602081019050919050565b828183375f83830152505050565b5f614db5614db084614d65565b614d4b565b905082815260208101848484011115614dd157614dd0614cd9565b5b614ddc848285614d95565b509392505050565b5f82601f830112614df857614df7614cd5565b5b8135614e08848260208601614da3565b91505092915050565b5f5f60408385031215614e2757614e26614817565b5b5f614e348582860161490c565b925050602083013567ffffffffffffffff811115614e5557614e5461481b565b5b614e6185828601614de4565b9150509250929050565b5f819050919050565b614e7d81614e6b565b82525050565b5f602082019050614e965f830184614e74565b92915050565b5f5f5f60608486031215614eb357614eb2614817565b5b5f614ec08682870161490c565b9350506020614ed186828701614936565b9250506040614ee28682870161490c565b9150509250925092565b5f602082019050614eff5f830184614c4a565b92915050565b5f60a082019050614f185f830188614876565b614f256020830187614876565b614f326040830186614876565b614f3f6060830185614876565b614f4c6080830184614c4a565b9695505050505050565b5f81519050919050565b8281835e5f83830152505050565b5f614f7882614f56565b614f828185614796565b9350614f92818560208601614f60565b614f9b81614cdd565b840191505092915050565b5f6020820190508181035f830152614fbe8184614f6e565b905092915050565b5f60c082019050614fd95f830189614c30565b614fe660208301886148ce565b614ff36040830187614876565b6150006060830186614876565b61500d6080830185614876565b61501a60a0830184614876565b979650505050505050565b61502e81614c3f565b8114615038575f5ffd5b50565b5f8135905061504981615025565b92915050565b5f6020828403121561506457615063614817565b5b5f6150718482850161503b565b91505092915050565b5f60608201905061508d5f8301866148ce565b61509a6020830185614876565b6150a76040830184614876565b949350505050565b5f819050919050565b5f6150d26150cd6150c88461489e565b6150af565b61489e565b9050919050565b5f6150e3826150b8565b9050919050565b5f6150f4826150d9565b9050919050565b615104816150ea565b82525050565b5f60208201905061511d5f8301846150fb565b92915050565b5f81519050919050565b5f82825260208201905092915050565b5f819050602082019050919050565b5f6151578383614a53565b60208301905092915050565b5f602082019050919050565b5f61517982615123565b615183818561512d565b935061518e8361513d565b805f5b838110156151be5781516151a5888261514c565b97506151b083615163565b925050600181019050615191565b5085935050505092915050565b5f6020820190508181035f8301526151e3818461516f565b905092915050565b7f4e487b71000000000000000000000000000000000000000000000000000000005f52601160045260245ffd5b5f6152228261486d565b915061522d8361486d565b9250828203905081811115615245576152446151eb565b5b92915050565b5f6152558261486d565b91506152608361486d565b925082820261526e8161486d565b91508282048414831517615285576152846151eb565b5b5092915050565b7f4e487b71000000000000000000000000000000000000000000000000000000005f52601260045260245ffd5b5f6152c38261486d565b91506152ce8361486d565b9250826152de576152dd61528c565b5b828204905092915050565b7f50415553455f52454348415247452e00000000000000000000000000000000005f82015250565b5f61531d600f83614796565b9150615328826152e9565b602082019050919050565b5f6020820190508181035f83015261534a81615311565b9050919050565b5f8151905061535f816148f6565b92915050565b5f8151905061537381614920565b92915050565b5f5f5f5f6080858703121561539157615390614817565b5b5f61539e87828801615351565b94505060206153af87828801615365565b93505060406153c087828801615365565b92505060606153d187828801615365565b91505092959194509250565b5f819050919050565b5f67ffffffffffffffff82169050919050565b5f61541361540e615409846153dd565b6150af565b6153e6565b9050919050565b615423816153f9565b82525050565b5f60208201905061543c5f83018461541a565b92915050565b5f61544c8261486d565b91506154578361486d565b925082820190508082111561546f5761546e6151eb565b5b92915050565b5f6040820190506154885f8301856148ce565b6154956020830184614876565b9392505050565b7f5245434f4d4d454e444154494f4e5f49535f52455155495245445f52454645525f8201527f52414c2e00000000000000000000000000000000000000000000000000000000602082015250565b5f6154f6602483614796565b91506155018261549c565b604082019050919050565b5f6020820190508181035f830152615523816154ea565b9050919050565b5f60408201905061553d5f8301856148ce565b61554a60208301846148ce565b9392505050565b5f6060820190506155645f8301866148ce565b61557160208301856148ce565b61557e6040830184614876565b949350505050565b5f81519050919050565b5f81905092915050565b5f6155a482615586565b6155ae8185615590565b93506155be818560208601614f60565b80840191505092915050565b5f6155d5828461559a565b915081905092915050565b5f815190506155ee81615025565b92915050565b5f6020828403121561560957615608614817565b5b5f615616848285016155e0565b91505092915050565b7f5472616e7366657248656c7065723a205452414e534645525f46524f4d5f46415f8201527f494c454400000000000000000000000000000000000000000000000000000000602082015250565b5f615679602483614796565b91506156848261561f565b604082019050919050565b5f6020820190508181035f8301526156a68161566d565b9050919050565b6156b681614e6b565b81146156c0575f5ffd5b50565b5f815190506156d1816156ad565b92915050565b5f602082840312156156ec576156eb614817565b5b5f6156f9848285016156c3565b91505092915050565b7f5472616e7366657248656c7065723a205452414e534645525f4641494c4544005f82015250565b5f615736601f83614796565b915061574182615702565b602082019050919050565b5f6020820190508181035f8301526157638161572a565b9050919050565b7f4e487b71000000000000000000000000000000000000000000000000000000005f52603260045260245ffd5b5f6157a18261486d565b91507fffffffffffffffffffffffffffffffffffffffffffffffffffffffffffffffff82036157d3576157d26151eb565b5b60018201905091905056fea2646970667358221220d1c8c99012e2fad8aab695d8b31dda83367832100a4222003553427438cdf47b64736f6c634300081e0033","linkReferences":{}},"methodIdentifiers":{"DEAD()":"03fd2a45","MAX_REFERRAL_DEPTH()":"89e59ea0","UPGRADE_INTERFACE_VERSION()":"ad3cb1cc","USDT()":"c54e44eb","admin()":"f851a440","awardRecords(address,uint256)":"c023b3a5","claim()":"4e71d92d","decimals()":"313ce567","directReferrals(address,uint256)":"05ad3935","djsv1()":"ac6439b5","emergencyWithdraw(address,uint256,address)":"551512de","getDirectReferrals(address)":"d2c8e0e5","getInvalidStaking(address)":"19b12a53","getReferralAwardRecords(address)":"18785eb6","getUserAward(address)":"3e4ff6f2","getUserInfoBasic(address)":"b5006823","getUserInfoReferral(address)":"9238b0f9","getUserShareLevelAward(address)":"c7c93c94","getUserStakingAward(address)":"0acf716b","initialCode()":"10baf089","initialize(address,address,address,address,address)":"1459457a","isAddDirectReferrals(address)":"a3f2a64a","lastShareAwardTime()":"922be46d","liquidityManager()":"33827438","migrationReferral(address)":"0ff9ef12","node()":"d70754ec","owner()":"8da5cb5b","pancakeRouter()":"c21ebd07","pause()":"8456cb59","perSecondStakedAeward()":"905635d4","perSharePerformanceAward()":"db81c515","proxiableUUID()":"52d1902d","referral(address)":"7247959a","referralInfo(address)":"39540b0a","renounceOwnership()":"715018a6","setPause(bool)":"bedb86fb","shareRate()":"fb802a65","stake(uint256)":"a694fc3a","subCoinQuotas(uint8)":"00c4bb2b","swapSubToken(uint256)":"1b602f22","totalSharePerformance()":"d567aadb","totalStakedUsdt()":"b2859e2b","transferOwnership(address)":"f2fde38b","upgradeToAndCall(address,bytes)":"4f1ef286","userInfo(address)":"1959a002","whetherNeedMigrate(address)":"85215f7c"},"id":47}