{"abi":[{"type":"receive","stateMutability":"payable"},{"type":"function","name":"DEAD","inputs":[],"outputs":[{"name":"","type":"address","internalType":"address"}],"stateMutability":"view"},{"type":"function","name":"MAX_REFERRAL_DEPTH","inputs":[],"outputs":[{"name":"","type":"uint256","internalType":"uint256"}],"stateMutability":"view"},{"type":"function","name":"UPGRADE_INTERFACE_VERSION","inputs":[],"outputs":[{"name":"","type":"string","internalType":"string"}],"stateMutability":"view"},{"type":"function","name":"USDT","inputs":[],"outputs":[{"name":"","type":"address","internalType":"address"}],"stateMutability":"view"},{"type":"function","name":"admin","inputs":[],"outputs":[{"name":"","type":"address","internalType":"address"}],"stateMutability":"view"},{"type":"function","name":"awardRecords","inputs":[{"name":"","type":"address","internalType":"address"},{"name":"","type":"uint256","internalType":"uint256"}],"outputs":[{"name":"from","type":"address","internalType":"address"},{"name":"amount","type":"uint256","internalType":"uint256"},{"name":"time","type":"uint256","internalType":"uint256"}],"stateMutability":"view"},{"type":"function","name":"claim","inputs":[{"name":"amount","type":"uint256","internalType":"uint256"}],"outputs":[],"stateMutability":"nonpayable"},{"type":"function","name":"decimals","inputs":[],"outputs":[{"name":"","type":"uint256","internalType":"uint256"}],"stateMutability":"view"},{"type":"function","name":"directReferrals","inputs":[{"name":"","type":"address","internalType":"address"},{"name":"","type":"uint256","internalType":"uint256"}],"outputs":[{"name":"","type":"address","internalType":"address"}],"stateMutability":"view"},{"type":"function","name":"djsv1","inputs":[],"outputs":[{"name":"","type":"address","internalType":"address"}],"stateMutability":"view"},{"type":"function","name":"getDirectReferrals","inputs":[{"name":"user","type":"address","internalType":"address"}],"outputs":[{"name":"","type":"address[]","internalType":"address[]"}],"stateMutability":"view"},{"type":"function","name":"getReferralAwardRecords","inputs":[{"name":"user","type":"address","internalType":"address"}],"outputs":[{"name":"","type":"tuple[]","internalType":"struct Process.Record[]","components":[{"name":"from","type":"address","internalType":"address"},{"name":"amount","type":"uint256","internalType":"uint256"},{"name":"time","type":"uint256","internalType":"uint256"}]}],"stateMutability":"view"},{"type":"function","name":"getShareLevelAward","inputs":[{"name":"user","type":"address","internalType":"address"}],"outputs":[{"name":"","type":"uint256","internalType":"uint256"}],"stateMutability":"view"},{"type":"function","name":"getUserAward","inputs":[{"name":"user","type":"address","internalType":"address"}],"outputs":[{"name":"","type":"uint256","internalType":"uint256"}],"stateMutability":"view"},{"type":"function","name":"getUserInfoBasic","inputs":[{"name":"user","type":"address","internalType":"address"}],"outputs":[{"name":"level","type":"uint8","internalType":"enum Process.Level"},{"name":"recommender","type":"address","internalType":"address"},{"name":"stakingUsdt","type":"uint256","internalType":"uint256"},{"name":"multiple","type":"uint256","internalType":"uint256"},{"name":"totalAward","type":"uint256","internalType":"uint256"},{"name":"shareAward","type":"uint256","internalType":"uint256"}],"stateMutability":"view"},{"type":"function","name":"getUserInfoReferral","inputs":[{"name":"user","type":"address","internalType":"address"}],"outputs":[{"name":"referralNum","type":"uint256","internalType":"uint256"},{"name":"performance","type":"uint256","internalType":"uint256"},{"name":"referralAward","type":"uint256","internalType":"uint256"},{"name":"subCoinQuota","type":"uint256","internalType":"uint256"},{"name":"isMigration","type":"bool","internalType":"bool"}],"stateMutability":"view"},{"type":"function","name":"getUserStakingAward","inputs":[{"name":"user","type":"address","internalType":"address"}],"outputs":[{"name":"","type":"uint256","internalType":"uint256"}],"stateMutability":"view"},{"type":"function","name":"initialCode","inputs":[],"outputs":[{"name":"","type":"address","internalType":"address"}],"stateMutability":"view"},{"type":"function","name":"initialize","inputs":[{"name":"_admin","type":"address","internalType":"address"},{"name":"_initialCode","type":"address","internalType":"address"},{"name":"_djsv1","type":"address","internalType":"address"},{"name":"_node","type":"address","internalType":"address"},{"name":"_liquidity","type":"address","internalType":"address"}],"outputs":[],"stateMutability":"nonpayable"},{"type":"function","name":"isAddDirectReferrals","inputs":[{"name":"","type":"address","internalType":"address"}],"outputs":[{"name":"","type":"bool","internalType":"bool"}],"stateMutability":"view"},{"type":"function","name":"lastShareAwardTime","inputs":[],"outputs":[{"name":"","type":"uint256","internalType":"uint256"}],"stateMutability":"view"},{"type":"function","name":"liquidityManager","inputs":[],"outputs":[{"name":"","type":"address","internalType":"address"}],"stateMutability":"view"},{"type":"function","name":"migrationReferral","inputs":[{"name":"user","type":"address","internalType":"address"}],"outputs":[],"stateMutability":"nonpayable"},{"type":"function","name":"node","inputs":[],"outputs":[{"name":"","type":"address","internalType":"address"}],"stateMutability":"view"},{"type":"function","name":"owner","inputs":[],"outputs":[{"name":"","type":"address","internalType":"address"}],"stateMutability":"view"},{"type":"function","name":"pancakeRouter","inputs":[],"outputs":[{"name":"","type":"address","internalType":"contract IUniswapV2Router02"}],"stateMutability":"view"},{"type":"function","name":"pause","inputs":[],"outputs":[{"name":"","type":"bool","internalType":"bool"}],"stateMutability":"view"},{"type":"function","name":"perSecondStakedAeward","inputs":[],"outputs":[{"name":"","type":"uint256","internalType":"uint256"}],"stateMutability":"view"},{"type":"function","name":"perSharePerformanceAward","inputs":[],"outputs":[{"name":"","type":"uint256","internalType":"uint256"}],"stateMutability":"view"},{"type":"function","name":"proxiableUUID","inputs":[],"outputs":[{"name":"","type":"bytes32","internalType":"bytes32"}],"stateMutability":"view"},{"type":"function","name":"referral","inputs":[{"name":"recommender","type":"address","internalType":"address"}],"outputs":[],"stateMutability":"nonpayable"},{"type":"function","name":"referralInfo","inputs":[{"name":"","type":"address","internalType":"address"}],"outputs":[{"name":"recommender","type":"address","internalType":"address"},{"name":"level","type":"uint8","internalType":"enum Process.Level"},{"name":"referralNum","type":"uint256","internalType":"uint256"},{"name":"performance","type":"uint256","internalType":"uint256"},{"name":"referralAward","type":"uint256","internalType":"uint256"},{"name":"subCoinQuota","type":"uint256","internalType":"uint256"},{"name":"shareAwardDebt","type":"uint256","internalType":"uint256"},{"name":"isMigration","type":"bool","internalType":"bool"}],"stateMutability":"view"},{"type":"function","name":"renounceOwnership","inputs":[],"outputs":[],"stateMutability":"nonpayable"},{"type":"function","name":"setPause","inputs":[{"name":"isPause","type":"bool","internalType":"bool"}],"outputs":[],"stateMutability":"nonpayable"},{"type":"function","name":"shareRate","inputs":[],"outputs":[{"name":"","type":"uint256","internalType":"uint256"}],"stateMutability":"view"},{"type":"function","name":"stake","inputs":[{"name":"amountUSDT","type":"uint256","internalType":"uint256"}],"outputs":[],"stateMutability":"nonpayable"},{"type":"function","name":"subCoinQuotas","inputs":[{"name":"","type":"uint8","internalType":"enum Process.Level"}],"outputs":[{"name":"","type":"uint256","internalType":"uint256"}],"stateMutability":"view"},{"type":"function","name":"swapSubToken","inputs":[{"name":"amountUSDT","type":"uint256","internalType":"uint256"}],"outputs":[],"stateMutability":"nonpayable"},{"type":"function","name":"totalSharePerformance","inputs":[],"outputs":[{"name":"","type":"uint256","internalType":"uint256"}],"stateMutability":"view"},{"type":"function","name":"totalStakedUsdt","inputs":[],"outputs":[{"name":"","type":"uint256","internalType":"uint256"}],"stateMutability":"view"},{"type":"function","name":"transferOwnership","inputs":[{"name":"newOwner","type":"address","internalType":"address"}],"outputs":[],"stateMutability":"nonpayable"},{"type":"function","name":"upgradeToAndCall","inputs":[{"name":"newImplementation","type":"address","internalType":"address"},{"name":"data","type":"bytes","internalType":"bytes"}],"outputs":[],"stateMutability":"payable"},{"type":"function","name":"userInfo","inputs":[{"name":"","type":"address","internalType":"address"}],"outputs":[{"name":"stakingUsdt","type":"uint256","internalType":"uint256"},{"name":"multiple","type":"uint256","internalType":"uint256"},{"name":"stakingTime","type":"uint256","internalType":"uint256"},{"name":"pendingProfit","type":"uint256","internalType":"uint256"},{"name":"extracted","type":"uint256","internalType":"uint256"}],"stateMutability":"view"},{"type":"function","name":"whetherNeedMigrate","inputs":[{"name":"user","type":"address","internalType":"address"}],"outputs":[{"name":"","type":"bool","internalType":"bool"}],"stateMutability":"view"},{"type":"event","name":"Claimed","inputs":[{"name":"user","type":"address","indexed":false,"internalType":"address"},{"name":"amount","type":"uint256","indexed":false,"internalType":"uint256"}],"anonymous":false},{"type":"event","name":"Initialized","inputs":[{"name":"version","type":"uint64","indexed":false,"internalType":"uint64"}],"anonymous":false},{"type":"event","name":"OwnershipTransferred","inputs":[{"name":"previousOwner","type":"address","indexed":true,"internalType":"address"},{"name":"newOwner","type":"address","indexed":true,"internalType":"address"}],"anonymous":false},{"type":"event","name":"Referrals","inputs":[{"name":"recommender","type":"address","indexed":false,"internalType":"address"},{"name":"referred","type":"address","indexed":false,"internalType":"address"}],"anonymous":false},{"type":"event","name":"Staked","inputs":[{"name":"user","type":"address","indexed":false,"internalType":"address"},{"name":"amount","type":"uint256","indexed":false,"internalType":"uint256"}],"anonymous":false},{"type":"event","name":"Upgraded","inputs":[{"name":"implementation","type":"address","indexed":true,"internalType":"address"}],"anonymous":false},{"type":"error","name":"AddressEmptyCode","inputs":[{"name":"target","type":"address","internalType":"address"}]},{"type":"error","name":"AlreadyMigrated","inputs":[]},{"type":"error","name":"AmountTooLow","inputs":[]},{"type":"error","name":"ERC1967InvalidImplementation","inputs":[{"name":"implementation","type":"address","internalType":"address"}]},{"type":"error","name":"ERC1967NonPayable","inputs":[]},{"type":"error","name":"FailedCall","inputs":[]},{"type":"error","name":"InsufficientQuota","inputs":[]},{"type":"error","name":"InvalidInitialization","inputs":[]},{"type":"error","name":"InvalidRecommender","inputs":[]},{"type":"error","name":"InviterExists","inputs":[]},{"type":"error","name":"NeedMigrate","inputs":[]},{"type":"error","name":"NoMigrationRequired","inputs":[]},{"type":"error","name":"NoReward","inputs":[]},{"type":"error","name":"NoStake","inputs":[]},{"type":"error","name":"NotInitializing","inputs":[]},{"type":"error","name":"NotRequiredReferral","inputs":[]},{"type":"error","name":"OwnableInvalidOwner","inputs":[{"name":"owner","type":"address","internalType":"address"}]},{"type":"error","name":"OwnableUnauthorizedAccount","inputs":[{"name":"account","type":"address","internalType":"address"}]},{"type":"error","name":"ReentrancyGuardReentrantCall","inputs":[]},{"type":"error","name":"UUPSUnauthorizedCallContext","inputs":[]},{"type":"error","name":"UUPSUnsupportedProxiableUUID","inputs":[{"name":"slot","type":"bytes32","internalType":"bytes32"}]},{"type":"error","name":"ZeroAddress","inputs":[]}],"bytecode":{"object":"0x60a06040523073ffffffffffffffffffffffffffffffffffffffff1660809073ffffffffffffffffffffffffffffffffffffffff168152507310ed43c718714eb63d5aa57b78b54704e256024e60015f6101000a81548173ffffffffffffffffffffffffffffffffffffffff021916908373ffffffffffffffffffffffffffffffffffffffff160217905550348015610096575f5ffd5b5060015f819055506080516154036100c45f395f818161326c015281816132c1015261347b01526154035ff3fe608060405260043610610269575f3560e01c80638da5cb5b11610143578063c023b3a5116100b5578063d70754ec11610079578063d70754ec146109b9578063db81c515146109e3578063eeb05c2c14610a0d578063f2fde38b14610a49578063f851a44014610a71578063fb802a6514610a9b576102a9565b8063c023b3a5146108c1578063c21ebd07146108ff578063c54e44eb14610929578063d2c8e0e514610953578063d567aadb1461098f576102a9565b8063a694fc3a11610107578063a694fc3a146107b2578063ac6439b5146107da578063ad3cb1cc14610804578063b2859e2b1461082e578063b500682314610858578063bedb86fb14610899576102a9565b80638da5cb5b146106b8578063905635d4146106e2578063922be46d1461070c5780639238b0f914610736578063a3f2a64a14610776576102a9565b806333827438116101dc57806352d1902d116101a057806352d1902d146105c0578063715018a6146105ea5780637247959a146106005780638456cb591461062857806385215f7c1461065257806389e59ea01461068e576102a9565b806333827438146104d3578063379607f5146104fd57806339540b0a146105255780633e4ff6f2146105685780634f1ef286146105a4576102a9565b806310baf0891161022e57806310baf089146103b35780631459457a146103dd57806318785eb6146104055780631959a002146104415780631b602f2214610481578063313ce567146104a9576102a9565b8062c4bb2b146102ad57806303fd2a45146102e957806305ad3935146103135780630acf716b1461034f5780630ff9ef121461038b576102a9565b366102a9576040517f08c379a00000000000000000000000000000000000000000000000000000000081526004016102a090614497565b60405180910390fd5b5f5ffd5b3480156102b8575f5ffd5b506102d360048036038101906102ce91906144e9565b610ac5565b6040516102e0919061452c565b60405180910390f35b3480156102f4575f5ffd5b506102fd610ada565b60405161030a9190614584565b60405180910390f35b34801561031e575f5ffd5b50610339600480360381019061033491906145f1565b610ae0565b6040516103469190614584565b60405180910390f35b34801561035a575f5ffd5b506103756004803603810190610370919061462f565b610b28565b604051610382919061452c565b60405180910390f35b348015610396575f5ffd5b506103b160048036038101906103ac919061462f565b610be5565b005b3480156103be575f5ffd5b506103c7610e32565b6040516103d49190614584565b60405180910390f35b3480156103e8575f5ffd5b5061040360048036038101906103fe919061465a565b610e57565b005b348015610410575f5ffd5b5061042b6004803603810190610426919061462f565b6112c9565b60405161043891906147d7565b60405180910390f35b34801561044c575f5ffd5b506104676004803603810190610462919061462f565b6113ca565b6040516104789594939291906147f7565b60405180910390f35b34801561048c575f5ffd5b506104a760048036038101906104a29190614848565b6113fc565b005b3480156104b4575f5ffd5b506104bd611599565b6040516104ca919061452c565b60405180910390f35b3480156104de575f5ffd5b506104e761159f565b6040516104f49190614584565b60405180910390f35b348015610508575f5ffd5b50610523600480360381019061051e9190614848565b6115c4565b005b348015610530575f5ffd5b5061054b6004803603810190610546919061462f565b6118cf565b60405161055f989796959493929190614900565b60405180910390f35b348015610573575f5ffd5b5061058e6004803603810190610589919061462f565b61194a565b60405161059b919061452c565b60405180910390f35b6105be60048036038101906105b99190614ab8565b611a76565b005b3480156105cb575f5ffd5b506105d4611a95565b6040516105e19190614b2a565b60405180910390f35b3480156105f5575f5ffd5b506105fe611ac6565b005b34801561060b575f5ffd5b506106266004803603810190610621919061462f565b611ad9565b005b348015610633575f5ffd5b5061063c611f2a565b6040516106499190614b43565b60405180910390f35b34801561065d575f5ffd5b506106786004803603810190610673919061462f565b611f3c565b6040516106859190614b43565b60405180910390f35b348015610699575f5ffd5b506106a261206a565b6040516106af919061452c565b60405180910390f35b3480156106c3575f5ffd5b506106cc612070565b6040516106d99190614584565b60405180910390f35b3480156106ed575f5ffd5b506106f66120a5565b604051610703919061452c565b60405180910390f35b348015610717575f5ffd5b506107206120ab565b60405161072d919061452c565b60405180910390f35b348015610741575f5ffd5b5061075c6004803603810190610757919061462f565b6120b1565b60405161076d959493929190614b5c565b60405180910390f35b348015610781575f5ffd5b5061079c6004803603810190610797919061462f565b612209565b6040516107a99190614b43565b60405180910390f35b3480156107bd575f5ffd5b506107d860048036038101906107d39190614848565b612226565b005b3480156107e5575f5ffd5b506107ee612965565b6040516107fb9190614584565b60405180910390f35b34801561080f575f5ffd5b5061081861298a565b6040516108259190614bfd565b60405180910390f35b348015610839575f5ffd5b506108426129c3565b60405161084f919061452c565b60405180910390f35b348015610863575f5ffd5b5061087e6004803603810190610879919061462f565b6129c9565b60405161089096959493929190614c1d565b60405180910390f35b3480156108a4575f5ffd5b506108bf60048036038101906108ba9190614ca6565b612bac565b005b3480156108cc575f5ffd5b506108e760048036038101906108e291906145f1565b612bd0565b6040516108f693929190614cd1565b60405180910390f35b34801561090a575f5ffd5b50610913612c2f565b6040516109209190614d61565b60405180910390f35b348015610934575f5ffd5b5061093d612c54565b60405161094a9190614584565b60405180910390f35b34801561095e575f5ffd5b506109796004803603810190610974919061462f565b612c6c565b6040516109869190614e22565b60405180910390f35b34801561099a575f5ffd5b506109a3612d34565b6040516109b0919061452c565b60405180910390f35b3480156109c4575f5ffd5b506109cd612d3a565b6040516109da9190614584565b60405180910390f35b3480156109ee575f5ffd5b506109f7612d5f565b604051610a04919061452c565b60405180910390f35b348015610a18575f5ffd5b50610a336004803603810190610a2e919061462f565b612d65565b604051610a40919061452c565b60405180910390f35b348015610a54575f5ffd5b50610a6f6004803603810190610a6a919061462f565b612f73565b005b348015610a7c575f5ffd5b50610a85612ff7565b604051610a929190614584565b60405180910390f35b348015610aa6575f5ffd5b50610aaf61301c565b604051610abc919061452c565b60405180910390f35b600c602052805f5260405f205f915090505481565b61dead81565b600a602052815f5260405f208181548110610af9575f80fd5b905f5260205f20015f915091509054906101000a900473ffffffffffffffffffffffffffffffffffffffff1681565b5f5f60075f8473ffffffffffffffffffffffffffffffffffffffff1673ffffffffffffffffffffffffffffffffffffffff1681526020019081526020015f206040518060a00160405290815f82015481526020016001820154815260200160028201548152602001600382015481526020016004820154815250509050601054815f0151600f54836040015142610bbf9190614e6f565b610bc99190614ea2565b610bd39190614ea2565b610bdd9190614f10565b915050919050565b610bed613022565b600e5f9054906101000a900460ff1615610c3c576040517f08c379a0000000000000000000000000000000000000000000000000000000008152600401610c3390614f8a565b60405180910390fd5b5f60085f8373ffffffffffffffffffffffffffffffffffffffff1673ffffffffffffffffffffffffffffffffffffffff1681526020019081526020015f209050806006015f9054906101000a900460ff1615610cc4576040517fca1c3cbc00000000000000000000000000000000000000000000000000000000815260040160405180910390fd5b5f60045f9054906101000a900473ffffffffffffffffffffffffffffffffffffffff1673ffffffffffffffffffffffffffffffffffffffff16631959a002846040518263ffffffff1660e01b8152600401610d1f9190614584565b608060405180830381865afa158015610d3a573d5f5f3e3d5ffd5b505050506040513d601f19601f82011682018060405250810190610d5e9190614fd0565b50505090505f73ffffffffffffffffffffffffffffffffffffffff168173ffffffffffffffffffffffffffffffffffffffff1603610dc8576040517f9c9e07a800000000000000000000000000000000000000000000000000000000815260040160405180910390fd5b80825f015f6101000a81548173ffffffffffffffffffffffffffffffffffffffff021916908373ffffffffffffffffffffffffffffffffffffffff1602179055506001826006015f6101000a81548160ff0219169083151502179055505050610e2f613066565b50565b60035f9054906101000a900473ffffffffffffffffffffffffffffffffffffffff1681565b5f610e6061306f565b90505f815f0160089054906101000a900460ff161590505f825f015f9054906101000a900467ffffffffffffffff1690505f5f8267ffffffffffffffff16148015610ea85750825b90505f60018367ffffffffffffffff16148015610edb57505f3073ffffffffffffffffffffffffffffffffffffffff163b145b905081158015610ee9575080155b15610f20576040517ff92ee8a900000000000000000000000000000000000000000000000000000000815260040160405180910390fd5b6001855f015f6101000a81548167ffffffffffffffff021916908367ffffffffffffffff1602179055508315610f6d576001855f0160086101000a81548160ff0219169083151502179055505b610f7d610f78613082565b613089565b8960025f6101000a81548173ffffffffffffffffffffffffffffffffffffffff021916908373ffffffffffffffffffffffffffffffffffffffff1602179055508860035f6101000a81548173ffffffffffffffffffffffffffffffffffffffff021916908373ffffffffffffffffffffffffffffffffffffffff1602179055508760045f6101000a81548173ffffffffffffffffffffffffffffffffffffffff021916908373ffffffffffffffffffffffffffffffffffffffff1602179055508660055f6101000a81548173ffffffffffffffffffffffffffffffffffffffff021916908373ffffffffffffffffffffffffffffffffffffffff1602179055508560065f6101000a81548173ffffffffffffffffffffffffffffffffffffffff021916908373ffffffffffffffffffffffffffffffffffffffff1602179055506402540be40060108190555062015180683635c9adc5dea0000060105467a688906bd8b000006110ed9190614ea2565b6110f79190614f10565b6111019190614f10565b600f81905550600a60148190555068056bc75e2d63100000600c5f600160068111156111305761112f614873565b5b600681111561114257611141614873565b5b81526020019081526020015f2081905550681043561a8829300000600c5f6002600681111561117457611173614873565b5b600681111561118657611185614873565b5b81526020019081526020015f2081905550681b1ae4d6e2ef500000600c5f600360068111156111b8576111b7614873565b5b60068111156111ca576111c9614873565b5b81526020019081526020015f2081905550683635c9adc5dea00000600c5f600460068111156111fc576111fb614873565b5b600681111561120e5761120d614873565b5b81526020019081526020015f208190555068a2a15d09519be00000600c5f600560068111156112405761123f614873565b5b600681111561125257611251614873565b5b81526020019081526020015f208190555083156112bd575f855f0160086101000a81548160ff0219169083151502179055507fc7f505b2f371ae2175ee4913f4499e1f2633a7b5936321eed1cdaeb6115181d260016040516112b49190615080565b60405180910390a15b50505050505050505050565b606060095f8373ffffffffffffffffffffffffffffffffffffffff1673ffffffffffffffffffffffffffffffffffffffff1681526020019081526020015f20805480602002602001604051908101604052809291908181526020015f905b828210156113bf578382905f5260205f2090600302016040518060600160405290815f82015f9054906101000a900473ffffffffffffffffffffffffffffffffffffffff1673ffffffffffffffffffffffffffffffffffffffff1673ffffffffffffffffffffffffffffffffffffffff1681526020016001820154815260200160028201548152505081526020019060010190611327565b505050509050919050565b6007602052805f5260405f205f91509050805f0154908060010154908060020154908060030154908060040154905085565b60085f3373ffffffffffffffffffffffffffffffffffffffff1673ffffffffffffffffffffffffffffffffffffffff1681526020019081526020015f2060040154811115611476576040517f6aea990400000000000000000000000000000000000000000000000000000000815260040160405180910390fd5b6114b77355d398326f99059ff775485246999027b31979553360065f9054906101000a900473ffffffffffffffffffffffffffffffffffffffff168461309d565b60065f9054906101000a900473ffffffffffffffffffffffffffffffffffffffff1673ffffffffffffffffffffffffffffffffffffffff166379e32cd933836040518363ffffffff1660e01b8152600401611513929190615099565b5f604051808303815f87803b15801561152a575f5ffd5b505af115801561153c573d5f5f3e3d5ffd5b505050508060085f3373ffffffffffffffffffffffffffffffffffffffff1673ffffffffffffffffffffffffffffffffffffffff1681526020019081526020015f206004015f82825461158f9190614e6f565b9250508190555050565b60105481565b60065f9054906101000a900473ffffffffffffffffffffffffffffffffffffffff1681565b6115cc613022565b5f60075f3373ffffffffffffffffffffffffffffffffffffffff1673ffffffffffffffffffffffffffffffffffffffff1681526020019081526020015f2090505f815f015403611648576040517fcacf989a00000000000000000000000000000000000000000000000000000000815260040160405180910390fd5b6116506131d0565b5f61165a3361194a565b90505f8103611695576040517f6e99268600000000000000000000000000000000000000000000000000000000815260040160405180910390fd5b5f8184116116a357836116a5565b815b9050808360030154106116d15780836003015f8282546116c59190614e6f565b925050819055506116db565b5f83600301819055505b80836004015f8282546116ee91906150c0565b9250508190555060065f9054906101000a900473ffffffffffffffffffffffffffffffffffffffff1673ffffffffffffffffffffffffffffffffffffffff16632d019c4233836040518363ffffffff1660e01b8152600401611751929190615099565b5f604051808303815f87803b158015611768575f5ffd5b505af115801561177a573d5f5f3e3d5ffd5b5050505060068081111561179157611790614873565b5b60085f3373ffffffffffffffffffffffffffffffffffffffff1673ffffffffffffffffffffffffffffffffffffffff1681526020019081526020015f205f0160149054906101000a900460ff1660068111156117f0576117ef614873565b5b036118885760085f3373ffffffffffffffffffffffffffffffffffffffff1673ffffffffffffffffffffffffffffffffffffffff1681526020019081526020015f20600201546012546118439190614ea2565b60085f3373ffffffffffffffffffffffffffffffffffffffff1673ffffffffffffffffffffffffffffffffffffffff1681526020019081526020015f20600501819055505b7fd8138f8a3f377c5259ca548e70e4c2de94f129f5a11036a15b69513cba2b426a33826040516118b9929190615099565b60405180910390a15050506118cc613066565b50565b6008602052805f5260405f205f91509050805f015f9054906101000a900473ffffffffffffffffffffffffffffffffffffffff1690805f0160149054906101000a900460ff1690806001015490806002015490806003015490806004015490806005015490806006015f9054906101000a900460ff16905088565b5f5f60075f8473ffffffffffffffffffffffffffffffffffffffff1673ffffffffffffffffffffffffffffffffffffffff1681526020019081526020015f206040518060a00160405290815f820154815260200160018201548152602001600282015481526020016003820154815260200160048201548152505090505f815f0151036119da575f915050611a71565b5f6119e484610b28565b90505f6119f085612d65565b90505f81838560600151611a0491906150c0565b611a0e91906150c0565b90505f8460200151855f0151611a249190614ea2565b905080856080015110611a3e575f95505050505050611a71565b5f856080015182611a4f9190614e6f565b905080831115611a6757809650505050505050611a71565b8296505050505050505b919050565b611a7e61326a565b611a8782613350565b611a91828261335b565b5050565b5f611a9e613479565b7f360894a13ba1a3210667c828492db98dca3e2076cc3735a920a3ca505d382bbc5f1b905090565b611ace613500565b611ad75f613587565b565b611ae1613022565b600e5f9054906101000a900460ff1615611b30576040517f08c379a0000000000000000000000000000000000000000000000000000000008152600401611b2790614f8a565b60405180910390fd5b611b3933611f3c565b15611b70576040517f1d9410b700000000000000000000000000000000000000000000000000000000815260040160405180910390fd5b5f73ffffffffffffffffffffffffffffffffffffffff168173ffffffffffffffffffffffffffffffffffffffff1603611bd5576040517fd92e233d00000000000000000000000000000000000000000000000000000000815260040160405180910390fd5b3373ffffffffffffffffffffffffffffffffffffffff168173ffffffffffffffffffffffffffffffffffffffff1603611c3a576040517f4f2f060100000000000000000000000000000000000000000000000000000000815260040160405180910390fd5b60035f9054906101000a900473ffffffffffffffffffffffffffffffffffffffff1673ffffffffffffffffffffffffffffffffffffffff168173ffffffffffffffffffffffffffffffffffffffff1614611da6575f73ffffffffffffffffffffffffffffffffffffffff1660085f8373ffffffffffffffffffffffffffffffffffffffff1673ffffffffffffffffffffffffffffffffffffffff1681526020019081526020015f205f015f9054906101000a900473ffffffffffffffffffffffffffffffffffffffff1673ffffffffffffffffffffffffffffffffffffffff1614158015611d6657505f60075f8373ffffffffffffffffffffffffffffffffffffffff1673ffffffffffffffffffffffffffffffffffffffff1681526020019081526020015f205f0154115b611da5576040517f08c379a0000000000000000000000000000000000000000000000000000000008152600401611d9c90615163565b60405180910390fd5b5b5f73ffffffffffffffffffffffffffffffffffffffff1660085f3373ffffffffffffffffffffffffffffffffffffffff1673ffffffffffffffffffffffffffffffffffffffff1681526020019081526020015f205f015f9054906101000a900473ffffffffffffffffffffffffffffffffffffffff1673ffffffffffffffffffffffffffffffffffffffff1614611e69576040517f5b3d5a1b00000000000000000000000000000000000000000000000000000000815260040160405180910390fd5b8060085f3373ffffffffffffffffffffffffffffffffffffffff1673ffffffffffffffffffffffffffffffffffffffff1681526020019081526020015f205f015f6101000a81548173ffffffffffffffffffffffffffffffffffffffff021916908373ffffffffffffffffffffffffffffffffffffffff1602179055507f455db5b564134af440ac23bd273ce313070080fc2c3d5d36c03f62de3c6284988133604051611f17929190615181565b60405180910390a1611f27613066565b50565b600e5f9054906101000a900460ff1681565b5f5f60045f9054906101000a900473ffffffffffffffffffffffffffffffffffffffff1673ffffffffffffffffffffffffffffffffffffffff16631959a002846040518263ffffffff1660e01b8152600401611f989190614584565b608060405180830381865afa158015611fb3573d5f5f3e3d5ffd5b505050506040513d601f19601f82011682018060405250810190611fd79190614fd0565b50505090505f73ffffffffffffffffffffffffffffffffffffffff168173ffffffffffffffffffffffffffffffffffffffff1614158015612062575060085f8473ffffffffffffffffffffffffffffffffffffffff1673ffffffffffffffffffffffffffffffffffffffff1681526020019081526020015f206006015f9054906101000a900460ff16155b915050919050565b6103e881565b5f5f61207a613658565b9050805f015f9054906101000a900473ffffffffffffffffffffffffffffffffffffffff1691505090565b600f5481565b60115481565b5f5f5f5f5f5f60085f8873ffffffffffffffffffffffffffffffffffffffff1673ffffffffffffffffffffffffffffffffffffffff1681526020019081526020015f20604051806101000160405290815f82015f9054906101000a900473ffffffffffffffffffffffffffffffffffffffff1673ffffffffffffffffffffffffffffffffffffffff1673ffffffffffffffffffffffffffffffffffffffff1681526020015f820160149054906101000a900460ff16600681111561217857612177614873565b5b600681111561218a57612189614873565b5b81526020016001820154815260200160028201548152602001600382015481526020016004820154815260200160058201548152602001600682015f9054906101000a900460ff16151515158152505090508060400151955080606001519450806080015193508060a0015192508060e0015191505091939590929450565b600b602052805f5260405f205f915054906101000a900460ff1681565b61222e613022565b600e5f9054906101000a900460ff161561227d576040517f08c379a000000000000000000000000000000000000000000000000000000000815260040161227490614f8a565b60405180910390fd5b5f60075f3373ffffffffffffffffffffffffffffffffffffffff1673ffffffffffffffffffffffffffffffffffffffff1681526020019081526020015f2090505f60085f3373ffffffffffffffffffffffffffffffffffffffff1673ffffffffffffffffffffffffffffffffffffffff1681526020019081526020015f2090505f73ffffffffffffffffffffffffffffffffffffffff16815f015f9054906101000a900473ffffffffffffffffffffffffffffffffffffffff1673ffffffffffffffffffffffffffffffffffffffff1603612384576040517faf4d1ef200000000000000000000000000000000000000000000000000000000815260040160405180910390fd5b68056bc75e2d631000008310156123c7576040517f1fbaba3500000000000000000000000000000000000000000000000000000000815260040160405180910390fd5b5f60646001856123d79190614ea2565b6123e19190614f10565b90505f60646001866123f39190614ea2565b6123fd9190614f10565b905061244b7355d398326f99059ff775485246999027b31979553360065f9054906101000a900473ffffffffffffffffffffffffffffffffffffffff1685896124469190614e6f565b61309d565b61248c7355d398326f99059ff775485246999027b31979553360055f9054906101000a900473ffffffffffffffffffffffffffffffffffffffff168561309d565b60065f9054906101000a900473ffffffffffffffffffffffffffffffffffffffff1673ffffffffffffffffffffffffffffffffffffffff166303ec9fb0826040518263ffffffff1660e01b81526004016124e6919061452c565b5f604051808303815f87803b1580156124fd575f5ffd5b505af115801561250f573d5f5f3e3d5ffd5b505050505f73ffffffffffffffffffffffffffffffffffffffff1660055f9054906101000a900473ffffffffffffffffffffffffffffffffffffffff1673ffffffffffffffffffffffffffffffffffffffff16146125ef5760055f9054906101000a900473ffffffffffffffffffffffffffffffffffffffff1673ffffffffffffffffffffffffffffffffffffffff1663cc430ced836040518263ffffffff1660e01b81526004016125c1919061452c565b5f604051808303815f87803b1580156125d8575f5ffd5b505af11580156125ea573d5f5f3e3d5ffd5b505050505b60065f9054906101000a900473ffffffffffffffffffffffffffffffffffffffff1673ffffffffffffffffffffffffffffffffffffffff166351c6590a8284886126399190614e6f565b6126439190614e6f565b6040518263ffffffff1660e01b815260040161265f919061452c565b5f604051808303815f87803b158015612676575f5ffd5b505af1158015612688573d5f5f3e3d5ffd5b505050505f6126963361194a565b90505f8111156126bb5780856003015f8282546126b391906150c0565b925050819055505b85855f015f8282546126cd91906150c0565b925050819055504285600201819055505f68a2a15d09519be00000865f0154116126f85760026126fb565b60035b60ff16905080866001015414612715578086600101819055505b86600d5f82825461272691906150c0565b925050819055505f612738338961367f565b90505f81111561275b578060135f82825461275391906150c0565b925050819055505b6127636131d0565b60068081111561277657612775614873565b5b865f0160149054906101000a900460ff16600681111561279957612798614873565b5b036127b95785600201546012546127b09190614ea2565b86600501819055505b600b5f3373ffffffffffffffffffffffffffffffffffffffff1673ffffffffffffffffffffffffffffffffffffffff1681526020019081526020015f205f9054906101000a900460ff1661291a57600a5f875f015f9054906101000a900473ffffffffffffffffffffffffffffffffffffffff1673ffffffffffffffffffffffffffffffffffffffff1673ffffffffffffffffffffffffffffffffffffffff1681526020019081526020015f2033908060018154018082558091505060019003905f5260205f20015f9091909190916101000a81548173ffffffffffffffffffffffffffffffffffffffff021916908373ffffffffffffffffffffffffffffffffffffffff1602179055506001600b5f3373ffffffffffffffffffffffffffffffffffffffff1673ffffffffffffffffffffffffffffffffffffffff1681526020019081526020015f205f6101000a81548160ff0219169083151502179055505b7f9e71bc8eea02a63969f509818f2dafb9254532904319f9dbda79b67bd34a5f3d338960405161294b929190615099565b60405180910390a150505050505050612962613066565b50565b60045f9054906101000a900473ffffffffffffffffffffffffffffffffffffffff1681565b6040518060400160405280600581526020017f352e302e3000000000000000000000000000000000000000000000000000000081525081565b600d5481565b5f5f5f5f5f5f5f60075f8973ffffffffffffffffffffffffffffffffffffffff1673ffffffffffffffffffffffffffffffffffffffff1681526020019081526020015f206040518060a00160405290815f820154815260200160018201548152602001600282015481526020016003820154815260200160048201548152505090505f60085f8a73ffffffffffffffffffffffffffffffffffffffff1673ffffffffffffffffffffffffffffffffffffffff1681526020019081526020015f20604051806101000160405290815f82015f9054906101000a900473ffffffffffffffffffffffffffffffffffffffff1673ffffffffffffffffffffffffffffffffffffffff1673ffffffffffffffffffffffffffffffffffffffff1681526020015f820160149054906101000a900460ff166006811115612b0d57612b0c614873565b5b6006811115612b1f57612b1e614873565b5b81526020016001820154815260200160028201548152602001600382015481526020016004820154815260200160058201548152602001600682015f9054906101000a900460ff161515151581525050905080602001519750805f01519650815f0151955081602001519450612b948961194a565b9350612b9f89612d65565b9250505091939550919395565b612bb4613500565b80600e5f6101000a81548160ff02191690831515021790555050565b6009602052815f5260405f208181548110612be9575f80fd5b905f5260205f2090600302015f9150915050805f015f9054906101000a900473ffffffffffffffffffffffffffffffffffffffff16908060010154908060020154905083565b60015f9054906101000a900473ffffffffffffffffffffffffffffffffffffffff1681565b7355d398326f99059ff775485246999027b319795581565b6060600a5f8373ffffffffffffffffffffffffffffffffffffffff1673ffffffffffffffffffffffffffffffffffffffff1681526020019081526020015f20805480602002602001604051908101604052809291908181526020018280548015612d2857602002820191905f5260205f20905b815f9054906101000a900473ffffffffffffffffffffffffffffffffffffffff1673ffffffffffffffffffffffffffffffffffffffff1681526020019060010190808311612cdf575b50505050509050919050565b60135481565b60055f9054906101000a900473ffffffffffffffffffffffffffffffffffffffff1681565b60125481565b5f5f60085f8473ffffffffffffffffffffffffffffffffffffffff1673ffffffffffffffffffffffffffffffffffffffff1681526020019081526020015f20604051806101000160405290815f82015f9054906101000a900473ffffffffffffffffffffffffffffffffffffffff1673ffffffffffffffffffffffffffffffffffffffff1673ffffffffffffffffffffffffffffffffffffffff1681526020015f820160149054906101000a900460ff166006811115612e2857612e27614873565b5b6006811115612e3a57612e39614873565b5b81526020016001820154815260200160028201548152602001600382015481526020016004820154815260200160058201548152602001600682015f9054906101000a900460ff16151515158152505090505f81606001511480612e9f57505f601354145b15612ead575f915050612f6e565b5f60125490505f60115442612ec29190614e6f565b90505f811115612f20575f6064601454600f5484600d54612ee39190614ea2565b612eed9190614ea2565b612ef79190614ea2565b612f019190614f10565b905060135481612f119190614f10565b83612f1c91906150c0565b9250505b5f601054838560600151612f349190614ea2565b612f3e9190614f10565b90508360c001518111612f57575f945050505050612f6e565b8360c0015181612f679190614e6f565b9450505050505b919050565b612f7b613500565b5f73ffffffffffffffffffffffffffffffffffffffff168173ffffffffffffffffffffffffffffffffffffffff1603612feb575f6040517f1e4fbdf7000000000000000000000000000000000000000000000000000000008152600401612fe29190614584565b60405180910390fd5b612ff481613587565b50565b60025f9054906101000a900473ffffffffffffffffffffffffffffffffffffffff1681565b60145481565b60025f540361305d576040517f3ee5aeb500000000000000000000000000000000000000000000000000000000815260040160405180910390fd5b60025f81905550565b60015f81905550565b5f5f613079613cd5565b90508091505090565b5f33905090565b613091613cfe565b61309a81613d3e565b50565b5f5f8573ffffffffffffffffffffffffffffffffffffffff166323b872dd8686866040516024016130d0939291906151a8565b6040516020818303038152906040529060e01b6020820180517bffffffffffffffffffffffffffffffffffffffffffffffffffffffff838183161783525050505060405161311e9190615221565b5f604051808303815f865af19150503d805f8114613157576040519150601f19603f3d011682016040523d82523d5f602084013e61315c565b606091505b509150915081801561318957505f81511480613188575080806020019051810190613187919061524b565b5b5b6131c8576040517f08c379a00000000000000000000000000000000000000000000000000000000081526004016131bf906152e6565b60405180910390fd5b505050505050565b5f601154426131df9190614e6f565b90505f8114806131f057505f601354145b15613202574260118190555050613268565b5f6064601454600f5484600d546132199190614ea2565b6132239190614ea2565b61322d9190614ea2565b6132379190614f10565b9050601354816132479190614f10565b60125f82825461325791906150c0565b925050819055504260118190555050505b565b7f000000000000000000000000000000000000000000000000000000000000000073ffffffffffffffffffffffffffffffffffffffff163073ffffffffffffffffffffffffffffffffffffffff16148061331757507f000000000000000000000000000000000000000000000000000000000000000073ffffffffffffffffffffffffffffffffffffffff166132fe613dc2565b73ffffffffffffffffffffffffffffffffffffffff1614155b1561334e576040517fe07c8dba00000000000000000000000000000000000000000000000000000000815260040160405180910390fd5b565b613358613500565b50565b8173ffffffffffffffffffffffffffffffffffffffff166352d1902d6040518163ffffffff1660e01b8152600401602060405180830381865afa9250505080156133c357506040513d601f19601f820116820180604052508101906133c0919061532e565b60015b61340457816040517f4c9c8ce30000000000000000000000000000000000000000000000000000000081526004016133fb9190614584565b60405180910390fd5b7f360894a13ba1a3210667c828492db98dca3e2076cc3735a920a3ca505d382bbc5f1b811461346a57806040517faa1d49a40000000000000000000000000000000000000000000000000000000081526004016134619190614b2a565b60405180910390fd5b6134748383613e15565b505050565b7f000000000000000000000000000000000000000000000000000000000000000073ffffffffffffffffffffffffffffffffffffffff163073ffffffffffffffffffffffffffffffffffffffff16146134fe576040517fe07c8dba00000000000000000000000000000000000000000000000000000000815260040160405180910390fd5b565b613508613082565b73ffffffffffffffffffffffffffffffffffffffff16613526612070565b73ffffffffffffffffffffffffffffffffffffffff161461358557613549613082565b6040517f118cdaa700000000000000000000000000000000000000000000000000000000815260040161357c9190614584565b60405180910390fd5b565b5f613590613658565b90505f815f015f9054906101000a900473ffffffffffffffffffffffffffffffffffffffff16905082825f015f6101000a81548173ffffffffffffffffffffffffffffffffffffffff021916908373ffffffffffffffffffffffffffffffffffffffff1602179055508273ffffffffffffffffffffffffffffffffffffffff168173ffffffffffffffffffffffffffffffffffffffff167f8be0079c531659141344cd1fd0a4f28419497f9722a3daafe3b4186f6b6457e060405160405180910390a3505050565b5f7f9016d09d72d40fdae2fd8ceac6b6234c7706214fd39c1cd1e609a0528c199300905090565b5f5f60085f8573ffffffffffffffffffffffffffffffffffffffff1673ffffffffffffffffffffffffffffffffffffffff1681526020019081526020015f205f015f9054906101000a900473ffffffffffffffffffffffffffffffffffffffff1690506136ea61441b565b5f603290505f93505b5f73ffffffffffffffffffffffffffffffffffffffff168373ffffffffffffffffffffffffffffffffffffffff1614613c35575f60085f8573ffffffffffffffffffffffffffffffffffffffff1673ffffffffffffffffffffffffffffffffffffffff1681526020019081526020015f2090506001816001015f82825461377a91906150c0565b9250508190555085816002015f82825461379491906150c0565b925050819055505f5f90505f5f90505b600a5f8773ffffffffffffffffffffffffffffffffffffffff1673ffffffffffffffffffffffffffffffffffffffff1681526020019081526020015f20805490508110156138f65760056006811115613800576137ff614873565b5b60085f600a5f8a73ffffffffffffffffffffffffffffffffffffffff1673ffffffffffffffffffffffffffffffffffffffff1681526020019081526020015f20848154811061385257613851615359565b5b905f5260205f20015f9054906101000a900473ffffffffffffffffffffffffffffffffffffffff1673ffffffffffffffffffffffffffffffffffffffff1673ffffffffffffffffffffffffffffffffffffffff1681526020019081526020015f205f0160149054906101000a900460ff1660068111156138d5576138d4614873565b5b036138e95781806138e590615386565b9250505b80806001019150506137a4565b505f5f613914845f0160149054906101000a900460ff16878b613e87565b915091508015613a7c5781846003015f82825461393191906150c0565b9250508190555060095f8873ffffffffffffffffffffffffffffffffffffffff1673ffffffffffffffffffffffffffffffffffffffff1681526020019081526020015f2060405180606001604052808c73ffffffffffffffffffffffffffffffffffffffff16815260200184815260200142815250908060018154018082558091505060019003905f5260205f2090600302015f909190919091505f820151815f015f6101000a81548173ffffffffffffffffffffffffffffffffffffffff021916908373ffffffffffffffffffffffffffffffffffffffff16021790555060208201518160010155604082015181600201555050600186855f0160149054906101000a900460ff166006811115613a4c57613a4b614873565b5b60068110613a5d57613a5c615359565b5b602002019015159081151581525050600a85613a799190614e6f565b94505b5f5f5f613b6f87604051806101000160405290815f82015f9054906101000a900473ffffffffffffffffffffffffffffffffffffffff1673ffffffffffffffffffffffffffffffffffffffff1673ffffffffffffffffffffffffffffffffffffffff1681526020015f820160149054906101000a900460ff166006811115613b0757613b06614873565b5b6006811115613b1957613b18614873565b5b81526020016001820154815260200160028201548152602001600382015481526020016004820154815260200160058201548152602001600682015f9054906101000a900460ff16151515158152505087613f48565b92509250925082875f0160146101000a81548160ff02191690836006811115613b9b57613b9a614873565b5b0217905550818b613bac91906150c0565b9a508015613c0457600c5f846006811115613bca57613bc9614873565b5b6006811115613bdc57613bdb614873565b5b81526020019081526020015f2054876004015f828254613bfc91906150c0565b925050819055505b865f015f9054906101000a900473ffffffffffffffffffffffffffffffffffffffff169950505050505050506136f3565b5f811115613ccc5760648186613c4b9190614ea2565b613c559190614f10565b60085f60035f9054906101000a900473ffffffffffffffffffffffffffffffffffffffff1673ffffffffffffffffffffffffffffffffffffffff1673ffffffffffffffffffffffffffffffffffffffff1681526020019081526020015f206003015f828254613cc491906150c0565b925050819055505b50505092915050565b5f7ff0c57e16840df040f15088dc2f81fe391c3923bec73e23a9662efc9c229c6a005f1b905090565b613d066141bb565b613d3c576040517fd7e6bcf800000000000000000000000000000000000000000000000000000000815260040160405180910390fd5b565b613d46613cfe565b5f73ffffffffffffffffffffffffffffffffffffffff168173ffffffffffffffffffffffffffffffffffffffff1603613db6575f6040517f1e4fbdf7000000000000000000000000000000000000000000000000000000008152600401613dad9190614584565b60405180910390fd5b613dbf81613587565b50565b5f613dee7f360894a13ba1a3210667c828492db98dca3e2076cc3735a920a3ca505d382bbc5f1b6141d9565b5f015f9054906101000a900473ffffffffffffffffffffffffffffffffffffffff16905090565b613e1e826141e2565b8173ffffffffffffffffffffffffffffffffffffffff167fbc7cd75a20ee27fd9adebab32041f755214dbc6bffa90cc0225b39da2e5c2d3b60405160405180910390a25f81511115613e7a57613e7482826142ab565b50613e83565b613e8261439c565b5b5050565b5f5f5f91505f9050600680811115613ea257613ea1614873565b5b856006811115613eb557613eb4614873565b5b14158015613ee757505f6006811115613ed157613ed0614873565b5b856006811115613ee457613ee3614873565b5b14155b15613f40575f856006811115613f0057613eff614873565b5b9050848160068110613f1557613f14615359565b5b6020020151613f3e576064600a85613f2d9190614ea2565b613f379190614f10565b9250600191505b505b935093915050565b5f5f5f846020015192505f91505f90505f6006811115613f6b57613f6a614873565b5b85602001516006811115613f8257613f81614873565b5b148015613f9457506003856040015110155b8015613fae575069021e19e0c9bab2400000856060015110155b15613fc05760019250600190506141b4565b60016006811115613fd457613fd3614873565b5b85602001516006811115613feb57613fea614873565b5b148015613ffd57506004856040015110155b80156140175750690a968163f0a57b400000856060015110155b156140295760029250600190506141b3565b6002600681111561403d5761403c614873565b5b8560200151600681111561405457614053614873565b5b14801561406657506005856040015110155b80156140805750692a5a058fc295ed000000856060015110155b156140925760039250600190506141b2565b600360068111156140a6576140a5614873565b5b856020015160068111156140bd576140bc614873565b5b1480156140cf57506007856040015110155b80156140e9575069a968163f0a57b4000000856060015110155b156140fb5760049250600190506141b1565b6004600681111561410f5761410e614873565b5b8560200151600681111561412657614125614873565b5b14801561413857506009856040015110155b801561415357506a027b46536c66c8e3000000856060015110155b156141655760059250600190506141b0565b6005600681111561417957614178614873565b5b856020015160068111156141905761418f614873565b5b14801561419e575060028410155b156141af5760069250846060015191505b5b5b5b5b5b9250925092565b5f6141c461306f565b5f0160089054906101000a900460ff16905090565b5f819050919050565b5f8173ffffffffffffffffffffffffffffffffffffffff163b0361423d57806040517f4c9c8ce30000000000000000000000000000000000000000000000000000000081526004016142349190614584565b60405180910390fd5b806142697f360894a13ba1a3210667c828492db98dca3e2076cc3735a920a3ca505d382bbc5f1b6141d9565b5f015f6101000a81548173ffffffffffffffffffffffffffffffffffffffff021916908373ffffffffffffffffffffffffffffffffffffffff16021790555050565b60605f6142b884846143d8565b90508080156142ee57505f6142cb6143ec565b11806142ed57505f8473ffffffffffffffffffffffffffffffffffffffff163b115b5b15614303576142fb6143f3565b915050614396565b801561434657836040517f9996b31500000000000000000000000000000000000000000000000000000000815260040161433d9190614584565b60405180910390fd5b5f61434f6143ec565b11156143625761435d614410565b614394565b6040517fd6bda27500000000000000000000000000000000000000000000000000000000815260040160405180910390fd5b505b92915050565b5f3411156143d6576040517fb398979f00000000000000000000000000000000000000000000000000000000815260040160405180910390fd5b565b5f5f5f835160208501865af4905092915050565b5f3d905090565b606060405190503d81523d5f602083013e3d602001810160405290565b6040513d5f823e3d81fd5b6040518060c00160405280600690602082028036833780820191505090505090565b5f82825260208201905092915050565b7f4e4f5f4449524543545f53454e440000000000000000000000000000000000005f82015250565b5f614481600e8361443d565b915061448c8261444d565b602082019050919050565b5f6020820190508181035f8301526144ae81614475565b9050919050565b5f604051905090565b5f5ffd5b5f5ffd5b600781106144d2575f5ffd5b50565b5f813590506144e3816144c6565b92915050565b5f602082840312156144fe576144fd6144be565b5b5f61450b848285016144d5565b91505092915050565b5f819050919050565b61452681614514565b82525050565b5f60208201905061453f5f83018461451d565b92915050565b5f73ffffffffffffffffffffffffffffffffffffffff82169050919050565b5f61456e82614545565b9050919050565b61457e81614564565b82525050565b5f6020820190506145975f830184614575565b92915050565b6145a681614564565b81146145b0575f5ffd5b50565b5f813590506145c18161459d565b92915050565b6145d081614514565b81146145da575f5ffd5b50565b5f813590506145eb816145c7565b92915050565b5f5f60408385031215614607576146066144be565b5b5f614614858286016145b3565b9250506020614625858286016145dd565b9150509250929050565b5f60208284031215614644576146436144be565b5b5f614651848285016145b3565b91505092915050565b5f5f5f5f5f60a08688031215614673576146726144be565b5b5f614680888289016145b3565b9550506020614691888289016145b3565b94505060406146a2888289016145b3565b93505060606146b3888289016145b3565b92505060806146c4888289016145b3565b9150509295509295909350565b5f81519050919050565b5f82825260208201905092915050565b5f819050602082019050919050565b61470381614564565b82525050565b61471281614514565b82525050565b606082015f82015161472c5f8501826146fa565b50602082015161473f6020850182614709565b5060408201516147526040850182614709565b50505050565b5f6147638383614718565b60608301905092915050565b5f602082019050919050565b5f614785826146d1565b61478f81856146db565b935061479a836146eb565b805f5b838110156147ca5781516147b18882614758565b97506147bc8361476f565b92505060018101905061479d565b5085935050505092915050565b5f6020820190508181035f8301526147ef818461477b565b905092915050565b5f60a08201905061480a5f83018861451d565b614817602083018761451d565b614824604083018661451d565b614831606083018561451d565b61483e608083018461451d565b9695505050505050565b5f6020828403121561485d5761485c6144be565b5b5f61486a848285016145dd565b91505092915050565b7f4e487b71000000000000000000000000000000000000000000000000000000005f52602160045260245ffd5b600781106148b1576148b0614873565b5b50565b5f8190506148c1826148a0565b919050565b5f6148d0826148b4565b9050919050565b6148e0816148c6565b82525050565b5f8115159050919050565b6148fa816148e6565b82525050565b5f610100820190506149145f83018b614575565b614921602083018a6148d7565b61492e604083018961451d565b61493b606083018861451d565b614948608083018761451d565b61495560a083018661451d565b61496260c083018561451d565b61496f60e08301846148f1565b9998505050505050505050565b5f5ffd5b5f5ffd5b5f601f19601f8301169050919050565b7f4e487b71000000000000000000000000000000000000000000000000000000005f52604160045260245ffd5b6149ca82614984565b810181811067ffffffffffffffff821117156149e9576149e8614994565b5b80604052505050565b5f6149fb6144b5565b9050614a0782826149c1565b919050565b5f67ffffffffffffffff821115614a2657614a25614994565b5b614a2f82614984565b9050602081019050919050565b828183375f83830152505050565b5f614a5c614a5784614a0c565b6149f2565b905082815260208101848484011115614a7857614a77614980565b5b614a83848285614a3c565b509392505050565b5f82601f830112614a9f57614a9e61497c565b5b8135614aaf848260208601614a4a565b91505092915050565b5f5f60408385031215614ace57614acd6144be565b5b5f614adb858286016145b3565b925050602083013567ffffffffffffffff811115614afc57614afb6144c2565b5b614b0885828601614a8b565b9150509250929050565b5f819050919050565b614b2481614b12565b82525050565b5f602082019050614b3d5f830184614b1b565b92915050565b5f602082019050614b565f8301846148f1565b92915050565b5f60a082019050614b6f5f83018861451d565b614b7c602083018761451d565b614b89604083018661451d565b614b96606083018561451d565b614ba360808301846148f1565b9695505050505050565b5f81519050919050565b8281835e5f83830152505050565b5f614bcf82614bad565b614bd9818561443d565b9350614be9818560208601614bb7565b614bf281614984565b840191505092915050565b5f6020820190508181035f830152614c158184614bc5565b905092915050565b5f60c082019050614c305f8301896148d7565b614c3d6020830188614575565b614c4a604083018761451d565b614c57606083018661451d565b614c64608083018561451d565b614c7160a083018461451d565b979650505050505050565b614c85816148e6565b8114614c8f575f5ffd5b50565b5f81359050614ca081614c7c565b92915050565b5f60208284031215614cbb57614cba6144be565b5b5f614cc884828501614c92565b91505092915050565b5f606082019050614ce45f830186614575565b614cf1602083018561451d565b614cfe604083018461451d565b949350505050565b5f819050919050565b5f614d29614d24614d1f84614545565b614d06565b614545565b9050919050565b5f614d3a82614d0f565b9050919050565b5f614d4b82614d30565b9050919050565b614d5b81614d41565b82525050565b5f602082019050614d745f830184614d52565b92915050565b5f81519050919050565b5f82825260208201905092915050565b5f819050602082019050919050565b5f614dae83836146fa565b60208301905092915050565b5f602082019050919050565b5f614dd082614d7a565b614dda8185614d84565b9350614de583614d94565b805f5b83811015614e15578151614dfc8882614da3565b9750614e0783614dba565b925050600181019050614de8565b5085935050505092915050565b5f6020820190508181035f830152614e3a8184614dc6565b905092915050565b7f4e487b71000000000000000000000000000000000000000000000000000000005f52601160045260245ffd5b5f614e7982614514565b9150614e8483614514565b9250828203905081811115614e9c57614e9b614e42565b5b92915050565b5f614eac82614514565b9150614eb783614514565b9250828202614ec581614514565b91508282048414831517614edc57614edb614e42565b5b5092915050565b7f4e487b71000000000000000000000000000000000000000000000000000000005f52601260045260245ffd5b5f614f1a82614514565b9150614f2583614514565b925082614f3557614f34614ee3565b5b828204905092915050565b7f50415553455f52454348415247452e00000000000000000000000000000000005f82015250565b5f614f74600f8361443d565b9150614f7f82614f40565b602082019050919050565b5f6020820190508181035f830152614fa181614f68565b9050919050565b5f81519050614fb68161459d565b92915050565b5f81519050614fca816145c7565b92915050565b5f5f5f5f60808587031215614fe857614fe76144be565b5b5f614ff587828801614fa8565b945050602061500687828801614fbc565b935050604061501787828801614fbc565b925050606061502887828801614fbc565b91505092959194509250565b5f819050919050565b5f67ffffffffffffffff82169050919050565b5f61506a61506561506084615034565b614d06565b61503d565b9050919050565b61507a81615050565b82525050565b5f6020820190506150935f830184615071565b92915050565b5f6040820190506150ac5f830185614575565b6150b9602083018461451d565b9392505050565b5f6150ca82614514565b91506150d583614514565b92508282019050808211156150ed576150ec614e42565b5b92915050565b7f5245434f4d4d454e444154494f4e5f49535f52455155495245445f52454645525f8201527f52414c2e00000000000000000000000000000000000000000000000000000000602082015250565b5f61514d60248361443d565b9150615158826150f3565b604082019050919050565b5f6020820190508181035f83015261517a81615141565b9050919050565b5f6040820190506151945f830185614575565b6151a16020830184614575565b9392505050565b5f6060820190506151bb5f830186614575565b6151c86020830185614575565b6151d5604083018461451d565b949350505050565b5f81519050919050565b5f81905092915050565b5f6151fb826151dd565b61520581856151e7565b9350615215818560208601614bb7565b80840191505092915050565b5f61522c82846151f1565b915081905092915050565b5f8151905061524581614c7c565b92915050565b5f602082840312156152605761525f6144be565b5b5f61526d84828501615237565b91505092915050565b7f5472616e7366657248656c7065723a205452414e534645525f46524f4d5f46415f8201527f494c454400000000000000000000000000000000000000000000000000000000602082015250565b5f6152d060248361443d565b91506152db82615276565b604082019050919050565b5f6020820190508181035f8301526152fd816152c4565b9050919050565b61530d81614b12565b8114615317575f5ffd5b50565b5f8151905061532881615304565b92915050565b5f60208284031215615343576153426144be565b5b5f6153508482850161531a565b91505092915050565b7f4e487b71000000000000000000000000000000000000000000000000000000005f52603260045260245ffd5b5f61539082614514565b91507fffffffffffffffffffffffffffffffffffffffffffffffffffffffffffffffff82036153c2576153c1614e42565b5b60018201905091905056fea26469706673582212206effe5a96ac457365bde0f7ae7cb461e3c2eb61dc6a98e81867ca3c24454fa1864736f6c634300081e0033","linkReferences":{}},"methodIdentifiers":{"DEAD()":"03fd2a45","MAX_REFERRAL_DEPTH()":"89e59ea0","UPGRADE_INTERFACE_VERSION()":"ad3cb1cc","USDT()":"c54e44eb","admin()":"f851a440","awardRecords(address,uint256)":"c023b3a5","claim(uint256)":"379607f5","decimals()":"313ce567","directReferrals(address,uint256)":"05ad3935","djsv1()":"ac6439b5","getDirectReferrals(address)":"d2c8e0e5","getReferralAwardRecords(address)":"18785eb6","getShareLevelAward(address)":"eeb05c2c","getUserAward(address)":"3e4ff6f2","getUserInfoBasic(address)":"b5006823","getUserInfoReferral(address)":"9238b0f9","getUserStakingAward(address)":"0acf716b","initialCode()":"10baf089","initialize(address,address,address,address,address)":"1459457a","isAddDirectReferrals(address)":"a3f2a64a","lastShareAwardTime()":"922be46d","liquidityManager()":"33827438","migrationReferral(address)":"0ff9ef12","node()":"d70754ec","owner()":"8da5cb5b","pancakeRouter()":"c21ebd07","pause()":"8456cb59","perSecondStakedAeward()":"905635d4","perSharePerformanceAward()":"db81c515","proxiableUUID()":"52d1902d","referral(address)":"7247959a","referralInfo(address)":"39540b0a","renounceOwnership()":"715018a6","setPause(bool)":"bedb86fb","shareRate()":"fb802a65","stake(uint256)":"a694fc3a","subCoinQuotas(uint8)":"00c4bb2b","swapSubToken(uint256)":"1b602f22","totalSharePerformance()":"d567aadb","totalStakedUsdt()":"b2859e2b","transferOwnership(address)":"f2fde38b","upgradeToAndCall(address,bytes)":"4f1ef286","userInfo(address)":"1959a002","whetherNeedMigrate(address)":"85215f7c"},"id":43}