{"abi":[{"type":"receive","stateMutability":"payable"},{"type":"function","name":"DEAD","inputs":[],"outputs":[{"name":"","type":"address","internalType":"address"}],"stateMutability":"view"},{"type":"function","name":"MAX_REFERRAL_DEPTH","inputs":[],"outputs":[{"name":"","type":"uint256","internalType":"uint256"}],"stateMutability":"view"},{"type":"function","name":"UPGRADE_INTERFACE_VERSION","inputs":[],"outputs":[{"name":"","type":"string","internalType":"string"}],"stateMutability":"view"},{"type":"function","name":"USDT","inputs":[],"outputs":[{"name":"","type":"address","internalType":"address"}],"stateMutability":"view"},{"type":"function","name":"admin","inputs":[],"outputs":[{"name":"","type":"address","internalType":"address"}],"stateMutability":"view"},{"type":"function","name":"awardRecords","inputs":[{"name":"","type":"address","internalType":"address"},{"name":"","type":"uint256","internalType":"uint256"}],"outputs":[{"name":"from","type":"address","internalType":"address"},{"name":"amount","type":"uint256","internalType":"uint256"},{"name":"time","type":"uint256","internalType":"uint256"}],"stateMutability":"view"},{"type":"function","name":"claim","inputs":[{"name":"amount","type":"uint256","internalType":"uint256"}],"outputs":[],"stateMutability":"nonpayable"},{"type":"function","name":"decimals","inputs":[],"outputs":[{"name":"","type":"uint256","internalType":"uint256"}],"stateMutability":"view"},{"type":"function","name":"directReferrals","inputs":[{"name":"","type":"address","internalType":"address"},{"name":"","type":"uint256","internalType":"uint256"}],"outputs":[{"name":"","type":"address","internalType":"address"}],"stateMutability":"view"},{"type":"function","name":"djsv1","inputs":[],"outputs":[{"name":"","type":"address","internalType":"address"}],"stateMutability":"view"},{"type":"function","name":"getDirectReferrals","inputs":[{"name":"user","type":"address","internalType":"address"}],"outputs":[{"name":"","type":"address[]","internalType":"address[]"}],"stateMutability":"view"},{"type":"function","name":"getInvalidStaking","inputs":[{"name":"user","type":"address","internalType":"address"}],"outputs":[{"name":"","type":"uint256","internalType":"uint256"}],"stateMutability":"view"},{"type":"function","name":"getReferralAwardRecords","inputs":[{"name":"user","type":"address","internalType":"address"}],"outputs":[{"name":"","type":"tuple[]","internalType":"struct Process.Record[]","components":[{"name":"from","type":"address","internalType":"address"},{"name":"amount","type":"uint256","internalType":"uint256"},{"name":"time","type":"uint256","internalType":"uint256"}]}],"stateMutability":"view"},{"type":"function","name":"getUserAward","inputs":[{"name":"user","type":"address","internalType":"address"}],"outputs":[{"name":"","type":"uint256","internalType":"uint256"}],"stateMutability":"view"},{"type":"function","name":"getUserInfoBasic","inputs":[{"name":"user","type":"address","internalType":"address"}],"outputs":[{"name":"level","type":"uint8","internalType":"enum Process.Level"},{"name":"recommender","type":"address","internalType":"address"},{"name":"stakingUsdt","type":"uint256","internalType":"uint256"},{"name":"multiple","type":"uint256","internalType":"uint256"},{"name":"totalAward","type":"uint256","internalType":"uint256"},{"name":"shareAward","type":"uint256","internalType":"uint256"}],"stateMutability":"view"},{"type":"function","name":"getUserInfoReferral","inputs":[{"name":"user","type":"address","internalType":"address"}],"outputs":[{"name":"referralNum","type":"uint256","internalType":"uint256"},{"name":"performance","type":"uint256","internalType":"uint256"},{"name":"referralAward","type":"uint256","internalType":"uint256"},{"name":"subCoinQuota","type":"uint256","internalType":"uint256"},{"name":"isMigration","type":"bool","internalType":"bool"}],"stateMutability":"view"},{"type":"function","name":"getUserShareLevelAward","inputs":[{"name":"user","type":"address","internalType":"address"}],"outputs":[{"name":"","type":"uint256","internalType":"uint256"}],"stateMutability":"view"},{"type":"function","name":"getUserStakingAward","inputs":[{"name":"user","type":"address","internalType":"address"}],"outputs":[{"name":"","type":"uint256","internalType":"uint256"}],"stateMutability":"view"},{"type":"function","name":"initialCode","inputs":[],"outputs":[{"name":"","type":"address","internalType":"address"}],"stateMutability":"view"},{"type":"function","name":"initialize","inputs":[{"name":"_admin","type":"address","internalType":"address"},{"name":"_initialCode","type":"address","internalType":"address"},{"name":"_djsv1","type":"address","internalType":"address"},{"name":"_node","type":"address","internalType":"address"},{"name":"_liquidity","type":"address","internalType":"address"}],"outputs":[],"stateMutability":"nonpayable"},{"type":"function","name":"isAddDirectReferrals","inputs":[{"name":"","type":"address","internalType":"address"}],"outputs":[{"name":"","type":"bool","internalType":"bool"}],"stateMutability":"view"},{"type":"function","name":"lastShareAwardTime","inputs":[],"outputs":[{"name":"","type":"uint256","internalType":"uint256"}],"stateMutability":"view"},{"type":"function","name":"liquidityManager","inputs":[],"outputs":[{"name":"","type":"address","internalType":"address"}],"stateMutability":"view"},{"type":"function","name":"migrationReferral","inputs":[{"name":"user","type":"address","internalType":"address"}],"outputs":[],"stateMutability":"nonpayable"},{"type":"function","name":"node","inputs":[],"outputs":[{"name":"","type":"address","internalType":"address"}],"stateMutability":"view"},{"type":"function","name":"owner","inputs":[],"outputs":[{"name":"","type":"address","internalType":"address"}],"stateMutability":"view"},{"type":"function","name":"pancakeRouter","inputs":[],"outputs":[{"name":"","type":"address","internalType":"contract IUniswapV2Router02"}],"stateMutability":"view"},{"type":"function","name":"pause","inputs":[],"outputs":[{"name":"","type":"bool","internalType":"bool"}],"stateMutability":"view"},{"type":"function","name":"perSecondStakedAeward","inputs":[],"outputs":[{"name":"","type":"uint256","internalType":"uint256"}],"stateMutability":"view"},{"type":"function","name":"perSharePerformanceAward","inputs":[],"outputs":[{"name":"","type":"uint256","internalType":"uint256"}],"stateMutability":"view"},{"type":"function","name":"proxiableUUID","inputs":[],"outputs":[{"name":"","type":"bytes32","internalType":"bytes32"}],"stateMutability":"view"},{"type":"function","name":"referral","inputs":[{"name":"recommender","type":"address","internalType":"address"}],"outputs":[],"stateMutability":"nonpayable"},{"type":"function","name":"referralInfo","inputs":[{"name":"","type":"address","internalType":"address"}],"outputs":[{"name":"recommender","type":"address","internalType":"address"},{"name":"level","type":"uint8","internalType":"enum Process.Level"},{"name":"referralNum","type":"uint256","internalType":"uint256"},{"name":"performance","type":"uint256","internalType":"uint256"},{"name":"referralAward","type":"uint256","internalType":"uint256"},{"name":"subCoinQuota","type":"uint256","internalType":"uint256"},{"name":"shareAwardDebt","type":"uint256","internalType":"uint256"},{"name":"isMigration","type":"bool","internalType":"bool"}],"stateMutability":"view"},{"type":"function","name":"renounceOwnership","inputs":[],"outputs":[],"stateMutability":"nonpayable"},{"type":"function","name":"setPause","inputs":[{"name":"isPause","type":"bool","internalType":"bool"}],"outputs":[],"stateMutability":"nonpayable"},{"type":"function","name":"shareRate","inputs":[],"outputs":[{"name":"","type":"uint256","internalType":"uint256"}],"stateMutability":"view"},{"type":"function","name":"stake","inputs":[{"name":"amountUSDT","type":"uint256","internalType":"uint256"}],"outputs":[],"stateMutability":"nonpayable"},{"type":"function","name":"subCoinQuotas","inputs":[{"name":"","type":"uint8","internalType":"enum Process.Level"}],"outputs":[{"name":"","type":"uint256","internalType":"uint256"}],"stateMutability":"view"},{"type":"function","name":"swapSubToken","inputs":[{"name":"amountUSDT","type":"uint256","internalType":"uint256"}],"outputs":[],"stateMutability":"nonpayable"},{"type":"function","name":"totalSharePerformance","inputs":[],"outputs":[{"name":"","type":"uint256","internalType":"uint256"}],"stateMutability":"view"},{"type":"function","name":"totalStakedUsdt","inputs":[],"outputs":[{"name":"","type":"uint256","internalType":"uint256"}],"stateMutability":"view"},{"type":"function","name":"transferOwnership","inputs":[{"name":"newOwner","type":"address","internalType":"address"}],"outputs":[],"stateMutability":"nonpayable"},{"type":"function","name":"upgradeToAndCall","inputs":[{"name":"newImplementation","type":"address","internalType":"address"},{"name":"data","type":"bytes","internalType":"bytes"}],"outputs":[],"stateMutability":"payable"},{"type":"function","name":"userInfo","inputs":[{"name":"","type":"address","internalType":"address"}],"outputs":[{"name":"stakingUsdt","type":"uint256","internalType":"uint256"},{"name":"multiple","type":"uint256","internalType":"uint256"},{"name":"stakingTime","type":"uint256","internalType":"uint256"},{"name":"pendingProfit","type":"uint256","internalType":"uint256"},{"name":"extracted","type":"uint256","internalType":"uint256"}],"stateMutability":"view"},{"type":"function","name":"whetherNeedMigrate","inputs":[{"name":"user","type":"address","internalType":"address"}],"outputs":[{"name":"","type":"bool","internalType":"bool"}],"stateMutability":"view"},{"type":"event","name":"Claimed","inputs":[{"name":"user","type":"address","indexed":false,"internalType":"address"},{"name":"amount","type":"uint256","indexed":false,"internalType":"uint256"}],"anonymous":false},{"type":"event","name":"Initialized","inputs":[{"name":"version","type":"uint64","indexed":false,"internalType":"uint64"}],"anonymous":false},{"type":"event","name":"OwnershipTransferred","inputs":[{"name":"previousOwner","type":"address","indexed":true,"internalType":"address"},{"name":"newOwner","type":"address","indexed":true,"internalType":"address"}],"anonymous":false},{"type":"event","name":"Referrals","inputs":[{"name":"recommender","type":"address","indexed":false,"internalType":"address"},{"name":"referred","type":"address","indexed":false,"internalType":"address"}],"anonymous":false},{"type":"event","name":"Staked","inputs":[{"name":"user","type":"address","indexed":false,"internalType":"address"},{"name":"amount","type":"uint256","indexed":false,"internalType":"uint256"}],"anonymous":false},{"type":"event","name":"Upgraded","inputs":[{"name":"implementation","type":"address","indexed":true,"internalType":"address"}],"anonymous":false},{"type":"error","name":"AddressEmptyCode","inputs":[{"name":"target","type":"address","internalType":"address"}]},{"type":"error","name":"AlreadyMigrated","inputs":[]},{"type":"error","name":"AmountTooLow","inputs":[]},{"type":"error","name":"ERC1967InvalidImplementation","inputs":[{"name":"implementation","type":"address","internalType":"address"}]},{"type":"error","name":"ERC1967NonPayable","inputs":[]},{"type":"error","name":"FailedCall","inputs":[]},{"type":"error","name":"InsufficientQuota","inputs":[]},{"type":"error","name":"InvalidAmount","inputs":[]},{"type":"error","name":"InvalidInitialization","inputs":[]},{"type":"error","name":"InvalidRecommender","inputs":[]},{"type":"error","name":"InviterExists","inputs":[]},{"type":"error","name":"NeedMigrate","inputs":[]},{"type":"error","name":"NoMigrationRequired","inputs":[]},{"type":"error","name":"NoReward","inputs":[]},{"type":"error","name":"NoStake","inputs":[]},{"type":"error","name":"NotInitializing","inputs":[]},{"type":"error","name":"NotRequiredReferral","inputs":[]},{"type":"error","name":"OwnableInvalidOwner","inputs":[{"name":"owner","type":"address","internalType":"address"}]},{"type":"error","name":"OwnableUnauthorizedAccount","inputs":[{"name":"account","type":"address","internalType":"address"}]},{"type":"error","name":"ReentrancyGuardReentrantCall","inputs":[]},{"type":"error","name":"UUPSUnauthorizedCallContext","inputs":[]},{"type":"error","name":"UUPSUnsupportedProxiableUUID","inputs":[{"name":"slot","type":"bytes32","internalType":"bytes32"}]},{"type":"error","name":"ZeroAddress","inputs":[]}],"bytecode":{"object":"0x60a06040523073ffffffffffffffffffffffffffffffffffffffff1660809073ffffffffffffffffffffffffffffffffffffffff168152507310ed43c718714eb63d5aa57b78b54704e256024e60015f6101000a81548173ffffffffffffffffffffffffffffffffffffffff021916908373ffffffffffffffffffffffffffffffffffffffff160217905550348015610096575f5ffd5b5060015f819055506080516154cd6100c45f395f81816133360152818161338b015261354501526154cd5ff3fe608060405260043610610274575f3560e01c806389e59ea01161014e578063bedb86fb116100c0578063d567aadb11610079578063d567aadb14610a12578063d70754ec14610a3c578063db81c51514610a66578063f2fde38b14610a90578063f851a44014610ab8578063fb802a6514610ae2576102b4565b8063bedb86fb146108e0578063c023b3a514610908578063c21ebd0714610946578063c54e44eb14610970578063c7c93c941461099a578063d2c8e0e5146109d6576102b4565b8063a3f2a64a11610112578063a3f2a64a146107bd578063a694fc3a146107f9578063ac6439b514610821578063ad3cb1cc1461084b578063b2859e2b14610875578063b50068231461089f576102b4565b806389e59ea0146106d55780638da5cb5b146106ff578063905635d414610729578063922be46d146107535780639238b0f91461077d576102b4565b8063313ce567116101e75780634f1ef286116101ab5780634f1ef286146105eb57806352d1902d14610607578063715018a6146106315780637247959a146106475780638456cb591461066f57806385215f7c14610699576102b4565b8063313ce567146104f0578063338274381461051a578063379607f51461054457806339540b0a1461056c5780633e4ff6f2146105af576102b4565b806310baf0891161023957806310baf089146103be5780631459457a146103e857806318785eb6146104105780631959a0021461044c57806319b12a531461048c5780631b602f22146104c8576102b4565b8062c4bb2b146102b857806303fd2a45146102f457806305ad39351461031e5780630acf716b1461035a5780630ff9ef1214610396576102b4565b366102b4576040517f08c379a00000000000000000000000000000000000000000000000000000000081526004016102ab90614561565b60405180910390fd5b5f5ffd5b3480156102c3575f5ffd5b506102de60048036038101906102d991906145b3565b610b0c565b6040516102eb91906145f6565b60405180910390f35b3480156102ff575f5ffd5b50610308610b21565b604051610315919061464e565b60405180910390f35b348015610329575f5ffd5b50610344600480360381019061033f91906146bb565b610b27565b604051610351919061464e565b60405180910390f35b348015610365575f5ffd5b50610380600480360381019061037b91906146f9565b610b6f565b60405161038d91906145f6565b60405180910390f35b3480156103a1575f5ffd5b506103bc60048036038101906103b791906146f9565b610c2c565b005b3480156103c9575f5ffd5b506103d2610e79565b6040516103df919061464e565b60405180910390f35b3480156103f3575f5ffd5b5061040e60048036038101906104099190614724565b610e9e565b005b34801561041b575f5ffd5b50610436600480360381019061043191906146f9565b611310565b60405161044391906148a1565b60405180910390f35b348015610457575f5ffd5b50610472600480360381019061046d91906146f9565b611411565b6040516104839594939291906148c1565b60405180910390f35b348015610497575f5ffd5b506104b260048036038101906104ad91906146f9565b611443565b6040516104bf91906145f6565b60405180910390f35b3480156104d3575f5ffd5b506104ee60048036038101906104e99190614912565b611500565b005b3480156104fb575f5ffd5b5061050461169d565b60405161051191906145f6565b60405180910390f35b348015610525575f5ffd5b5061052e6116a3565b60405161053b919061464e565b60405180910390f35b34801561054f575f5ffd5b5061056a60048036038101906105659190614912565b6116c8565b005b348015610577575f5ffd5b50610592600480360381019061058d91906146f9565b6119a2565b6040516105a69897969594939291906149ca565b60405180910390f35b3480156105ba575f5ffd5b506105d560048036038101906105d091906146f9565b611a1d565b6040516105e291906145f6565b60405180910390f35b61060560048036038101906106009190614b82565b611b49565b005b348015610612575f5ffd5b5061061b611b68565b6040516106289190614bf4565b60405180910390f35b34801561063c575f5ffd5b50610645611b99565b005b348015610652575f5ffd5b5061066d600480360381019061066891906146f9565b611bac565b005b34801561067a575f5ffd5b50610683611ffd565b6040516106909190614c0d565b60405180910390f35b3480156106a4575f5ffd5b506106bf60048036038101906106ba91906146f9565b61200f565b6040516106cc9190614c0d565b60405180910390f35b3480156106e0575f5ffd5b506106e961213d565b6040516106f691906145f6565b60405180910390f35b34801561070a575f5ffd5b50610713612143565b604051610720919061464e565b60405180910390f35b348015610734575f5ffd5b5061073d612178565b60405161074a91906145f6565b60405180910390f35b34801561075e575f5ffd5b5061076761217e565b60405161077491906145f6565b60405180910390f35b348015610788575f5ffd5b506107a3600480360381019061079e91906146f9565b612184565b6040516107b4959493929190614c26565b60405180910390f35b3480156107c8575f5ffd5b506107e360048036038101906107de91906146f9565b6122dc565b6040516107f09190614c0d565b60405180910390f35b348015610804575f5ffd5b5061081f600480360381019061081a9190614912565b6122f9565b005b34801561082c575f5ffd5b50610835612a30565b604051610842919061464e565b60405180910390f35b348015610856575f5ffd5b5061085f612a55565b60405161086c9190614cc7565b60405180910390f35b348015610880575f5ffd5b50610889612a8e565b60405161089691906145f6565b60405180910390f35b3480156108aa575f5ffd5b506108c560048036038101906108c091906146f9565b612a94565b6040516108d796959493929190614ce7565b60405180910390f35b3480156108eb575f5ffd5b5061090660048036038101906109019190614d70565b612c77565b005b348015610913575f5ffd5b5061092e600480360381019061092991906146bb565b612c9b565b60405161093d93929190614d9b565b60405180910390f35b348015610951575f5ffd5b5061095a612cfa565b6040516109679190614e2b565b60405180910390f35b34801561097b575f5ffd5b50610984612d1f565b604051610991919061464e565b60405180910390f35b3480156109a5575f5ffd5b506109c060048036038101906109bb91906146f9565b612d37565b6040516109cd91906145f6565b60405180910390f35b3480156109e1575f5ffd5b506109fc60048036038101906109f791906146f9565b612f45565b604051610a099190614eec565b60405180910390f35b348015610a1d575f5ffd5b50610a2661300d565b604051610a3391906145f6565b60405180910390f35b348015610a47575f5ffd5b50610a50613013565b604051610a5d919061464e565b60405180910390f35b348015610a71575f5ffd5b50610a7a613038565b604051610a8791906145f6565b60405180910390f35b348015610a9b575f5ffd5b50610ab66004803603810190610ab191906146f9565b61303e565b005b348015610ac3575f5ffd5b50610acc6130c2565b604051610ad9919061464e565b60405180910390f35b348015610aed575f5ffd5b50610af66130e7565b604051610b0391906145f6565b60405180910390f35b600c602052805f5260405f205f915090505481565b61dead81565b600a602052815f5260405f208181548110610b40575f80fd5b905f5260205f20015f915091509054906101000a900473ffffffffffffffffffffffffffffffffffffffff1681565b5f5f60075f8473ffffffffffffffffffffffffffffffffffffffff1673ffffffffffffffffffffffffffffffffffffffff1681526020019081526020015f206040518060a00160405290815f82015481526020016001820154815260200160028201548152602001600382015481526020016004820154815250509050601054815f0151600f54836040015142610c069190614f39565b610c109190614f6c565b610c1a9190614f6c565b610c249190614fda565b915050919050565b610c346130ed565b600e5f9054906101000a900460ff1615610c83576040517f08c379a0000000000000000000000000000000000000000000000000000000008152600401610c7a90615054565b60405180910390fd5b5f60085f8373ffffffffffffffffffffffffffffffffffffffff1673ffffffffffffffffffffffffffffffffffffffff1681526020019081526020015f209050806006015f9054906101000a900460ff1615610d0b576040517fca1c3cbc00000000000000000000000000000000000000000000000000000000815260040160405180910390fd5b5f60045f9054906101000a900473ffffffffffffffffffffffffffffffffffffffff1673ffffffffffffffffffffffffffffffffffffffff16631959a002846040518263ffffffff1660e01b8152600401610d66919061464e565b608060405180830381865afa158015610d81573d5f5f3e3d5ffd5b505050506040513d601f19601f82011682018060405250810190610da5919061509a565b50505090505f73ffffffffffffffffffffffffffffffffffffffff168173ffffffffffffffffffffffffffffffffffffffff1603610e0f576040517f9c9e07a800000000000000000000000000000000000000000000000000000000815260040160405180910390fd5b80825f015f6101000a81548173ffffffffffffffffffffffffffffffffffffffff021916908373ffffffffffffffffffffffffffffffffffffffff1602179055506001826006015f6101000a81548160ff0219169083151502179055505050610e76613131565b50565b60035f9054906101000a900473ffffffffffffffffffffffffffffffffffffffff1681565b5f610ea761313a565b90505f815f0160089054906101000a900460ff161590505f825f015f9054906101000a900467ffffffffffffffff1690505f5f8267ffffffffffffffff16148015610eef5750825b90505f60018367ffffffffffffffff16148015610f2257505f3073ffffffffffffffffffffffffffffffffffffffff163b145b905081158015610f30575080155b15610f67576040517ff92ee8a900000000000000000000000000000000000000000000000000000000815260040160405180910390fd5b6001855f015f6101000a81548167ffffffffffffffff021916908367ffffffffffffffff1602179055508315610fb4576001855f0160086101000a81548160ff0219169083151502179055505b610fc4610fbf61314d565b613154565b8960025f6101000a81548173ffffffffffffffffffffffffffffffffffffffff021916908373ffffffffffffffffffffffffffffffffffffffff1602179055508860035f6101000a81548173ffffffffffffffffffffffffffffffffffffffff021916908373ffffffffffffffffffffffffffffffffffffffff1602179055508760045f6101000a81548173ffffffffffffffffffffffffffffffffffffffff021916908373ffffffffffffffffffffffffffffffffffffffff1602179055508660055f6101000a81548173ffffffffffffffffffffffffffffffffffffffff021916908373ffffffffffffffffffffffffffffffffffffffff1602179055508560065f6101000a81548173ffffffffffffffffffffffffffffffffffffffff021916908373ffffffffffffffffffffffffffffffffffffffff1602179055506402540be40060108190555062015180683635c9adc5dea0000060105467a688906bd8b000006111349190614f6c565b61113e9190614fda565b6111489190614fda565b600f81905550600a60148190555068056bc75e2d63100000600c5f600160068111156111775761117661493d565b5b60068111156111895761118861493d565b5b81526020019081526020015f2081905550681043561a8829300000600c5f600260068111156111bb576111ba61493d565b5b60068111156111cd576111cc61493d565b5b81526020019081526020015f2081905550681b1ae4d6e2ef500000600c5f600360068111156111ff576111fe61493d565b5b60068111156112115761121061493d565b5b81526020019081526020015f2081905550683635c9adc5dea00000600c5f600460068111156112435761124261493d565b5b60068111156112555761125461493d565b5b81526020019081526020015f208190555068a2a15d09519be00000600c5f600560068111156112875761128661493d565b5b60068111156112995761129861493d565b5b81526020019081526020015f20819055508315611304575f855f0160086101000a81548160ff0219169083151502179055507fc7f505b2f371ae2175ee4913f4499e1f2633a7b5936321eed1cdaeb6115181d260016040516112fb919061514a565b60405180910390a15b50505050505050505050565b606060095f8373ffffffffffffffffffffffffffffffffffffffff1673ffffffffffffffffffffffffffffffffffffffff1681526020019081526020015f20805480602002602001604051908101604052809291908181526020015f905b82821015611406578382905f5260205f2090600302016040518060600160405290815f82015f9054906101000a900473ffffffffffffffffffffffffffffffffffffffff1673ffffffffffffffffffffffffffffffffffffffff1673ffffffffffffffffffffffffffffffffffffffff168152602001600182015481526020016002820154815250508152602001906001019061136e565b505050509050919050565b6007602052805f5260405f205f91509050805f0154908060010154908060020154908060030154908060040154905085565b5f5f60075f8473ffffffffffffffffffffffffffffffffffffffff1673ffffffffffffffffffffffffffffffffffffffff1681526020019081526020015f2090505f816004015460105461149686612d37565b6114a09190614fda565b6114a986610b6f565b84600301546114b89190615163565b6114c29190615163565b6114cc9190615163565b90508160010154825f01546114e19190614f6c565b8111156114f557815f0154925050506114fb565b5f925050505b919050565b60085f3373ffffffffffffffffffffffffffffffffffffffff1673ffffffffffffffffffffffffffffffffffffffff1681526020019081526020015f206004015481111561157a576040517f6aea990400000000000000000000000000000000000000000000000000000000815260040160405180910390fd5b6115bb7355d398326f99059ff775485246999027b31979553360065f9054906101000a900473ffffffffffffffffffffffffffffffffffffffff1684613168565b60065f9054906101000a900473ffffffffffffffffffffffffffffffffffffffff1673ffffffffffffffffffffffffffffffffffffffff166379e32cd933836040518363ffffffff1660e01b8152600401611617929190615196565b5f604051808303815f87803b15801561162e575f5ffd5b505af1158015611640573d5f5f3e3d5ffd5b505050508060085f3373ffffffffffffffffffffffffffffffffffffffff1673ffffffffffffffffffffffffffffffffffffffff1681526020019081526020015f206004015f8282546116939190614f39565b9250508190555050565b60105481565b60065f9054906101000a900473ffffffffffffffffffffffffffffffffffffffff1681565b6116d06130ed565b5f60075f3373ffffffffffffffffffffffffffffffffffffffff1673ffffffffffffffffffffffffffffffffffffffff1681526020019081526020015f2090505f815f01540361174c576040517fcacf989a00000000000000000000000000000000000000000000000000000000815260040160405180910390fd5b5f61175633611443565b600d546117639190614f39565b905061176e8161329b565b5f61177833611a1d565b90505f81036117b3576040517f6e99268600000000000000000000000000000000000000000000000000000000815260040160405180910390fd5b808411156117ed576040517f2c5211c600000000000000000000000000000000000000000000000000000000815260040160405180910390fd5b838360030154106118175783836003015f82825461180b9190614f39565b92505081905550611821565b5f83600301819055505b83836004015f8282546118349190615163565b9250508190555060065f9054906101000a900473ffffffffffffffffffffffffffffffffffffffff1673ffffffffffffffffffffffffffffffffffffffff16632d019c4233866040518363ffffffff1660e01b8152600401611897929190615196565b5f604051808303815f87803b1580156118ae575f5ffd5b505af11580156118c0573d5f5f3e3d5ffd5b505050505f60085f3373ffffffffffffffffffffffffffffffffffffffff1673ffffffffffffffffffffffffffffffffffffffff1681526020019081526020015f2090506006808111156119175761191661493d565b5b815f0160149054906101000a900460ff16600681111561193a5761193961493d565b5b0361195a5780600201546012546119519190614f6c565b81600501819055505b7fd8138f8a3f377c5259ca548e70e4c2de94f129f5a11036a15b69513cba2b426a338660405161198b929190615196565b60405180910390a15050505061199f613131565b50565b6008602052805f5260405f205f91509050805f015f9054906101000a900473ffffffffffffffffffffffffffffffffffffffff1690805f0160149054906101000a900460ff1690806001015490806002015490806003015490806004015490806005015490806006015f9054906101000a900460ff16905088565b5f5f60075f8473ffffffffffffffffffffffffffffffffffffffff1673ffffffffffffffffffffffffffffffffffffffff1681526020019081526020015f206040518060a00160405290815f820154815260200160018201548152602001600282015481526020016003820154815260200160048201548152505090505f815f015103611aad575f915050611b44565b5f611ab784610b6f565b90505f611ac385612d37565b90505f81838560600151611ad79190615163565b611ae19190615163565b90505f8460200151855f0151611af79190614f6c565b905080856080015110611b11575f95505050505050611b44565b5f856080015182611b229190614f39565b905080831115611b3a57809650505050505050611b44565b8296505050505050505b919050565b611b51613334565b611b5a8261341a565b611b648282613425565b5050565b5f611b71613543565b7f360894a13ba1a3210667c828492db98dca3e2076cc3735a920a3ca505d382bbc5f1b905090565b611ba16135ca565b611baa5f613651565b565b611bb46130ed565b600e5f9054906101000a900460ff1615611c03576040517f08c379a0000000000000000000000000000000000000000000000000000000008152600401611bfa90615054565b60405180910390fd5b611c0c3361200f565b15611c43576040517f1d9410b700000000000000000000000000000000000000000000000000000000815260040160405180910390fd5b5f73ffffffffffffffffffffffffffffffffffffffff168173ffffffffffffffffffffffffffffffffffffffff1603611ca8576040517fd92e233d00000000000000000000000000000000000000000000000000000000815260040160405180910390fd5b3373ffffffffffffffffffffffffffffffffffffffff168173ffffffffffffffffffffffffffffffffffffffff1603611d0d576040517f4f2f060100000000000000000000000000000000000000000000000000000000815260040160405180910390fd5b60035f9054906101000a900473ffffffffffffffffffffffffffffffffffffffff1673ffffffffffffffffffffffffffffffffffffffff168173ffffffffffffffffffffffffffffffffffffffff1614611e79575f73ffffffffffffffffffffffffffffffffffffffff1660085f8373ffffffffffffffffffffffffffffffffffffffff1673ffffffffffffffffffffffffffffffffffffffff1681526020019081526020015f205f015f9054906101000a900473ffffffffffffffffffffffffffffffffffffffff1673ffffffffffffffffffffffffffffffffffffffff1614158015611e3957505f60075f8373ffffffffffffffffffffffffffffffffffffffff1673ffffffffffffffffffffffffffffffffffffffff1681526020019081526020015f205f0154115b611e78576040517f08c379a0000000000000000000000000000000000000000000000000000000008152600401611e6f9061522d565b60405180910390fd5b5b5f73ffffffffffffffffffffffffffffffffffffffff1660085f3373ffffffffffffffffffffffffffffffffffffffff1673ffffffffffffffffffffffffffffffffffffffff1681526020019081526020015f205f015f9054906101000a900473ffffffffffffffffffffffffffffffffffffffff1673ffffffffffffffffffffffffffffffffffffffff1614611f3c576040517f5b3d5a1b00000000000000000000000000000000000000000000000000000000815260040160405180910390fd5b8060085f3373ffffffffffffffffffffffffffffffffffffffff1673ffffffffffffffffffffffffffffffffffffffff1681526020019081526020015f205f015f6101000a81548173ffffffffffffffffffffffffffffffffffffffff021916908373ffffffffffffffffffffffffffffffffffffffff1602179055507f455db5b564134af440ac23bd273ce313070080fc2c3d5d36c03f62de3c6284988133604051611fea92919061524b565b60405180910390a1611ffa613131565b50565b600e5f9054906101000a900460ff1681565b5f5f60045f9054906101000a900473ffffffffffffffffffffffffffffffffffffffff1673ffffffffffffffffffffffffffffffffffffffff16631959a002846040518263ffffffff1660e01b815260040161206b919061464e565b608060405180830381865afa158015612086573d5f5f3e3d5ffd5b505050506040513d601f19601f820116820180604052508101906120aa919061509a565b50505090505f73ffffffffffffffffffffffffffffffffffffffff168173ffffffffffffffffffffffffffffffffffffffff1614158015612135575060085f8473ffffffffffffffffffffffffffffffffffffffff1673ffffffffffffffffffffffffffffffffffffffff1681526020019081526020015f206006015f9054906101000a900460ff16155b915050919050565b6103e881565b5f5f61214d613722565b9050805f015f9054906101000a900473ffffffffffffffffffffffffffffffffffffffff1691505090565b600f5481565b60115481565b5f5f5f5f5f5f60085f8873ffffffffffffffffffffffffffffffffffffffff1673ffffffffffffffffffffffffffffffffffffffff1681526020019081526020015f20604051806101000160405290815f82015f9054906101000a900473ffffffffffffffffffffffffffffffffffffffff1673ffffffffffffffffffffffffffffffffffffffff1673ffffffffffffffffffffffffffffffffffffffff1681526020015f820160149054906101000a900460ff16600681111561224b5761224a61493d565b5b600681111561225d5761225c61493d565b5b81526020016001820154815260200160028201548152602001600382015481526020016004820154815260200160058201548152602001600682015f9054906101000a900460ff16151515158152505090508060400151955080606001519450806080015193508060a0015192508060e0015191505091939590929450565b600b602052805f5260405f205f915054906101000a900460ff1681565b6123016130ed565b600e5f9054906101000a900460ff1615612350576040517f08c379a000000000000000000000000000000000000000000000000000000000815260040161234790615054565b60405180910390fd5b5f60075f3373ffffffffffffffffffffffffffffffffffffffff1673ffffffffffffffffffffffffffffffffffffffff1681526020019081526020015f2090505f60085f3373ffffffffffffffffffffffffffffffffffffffff1673ffffffffffffffffffffffffffffffffffffffff1681526020019081526020015f2090505f73ffffffffffffffffffffffffffffffffffffffff16815f015f9054906101000a900473ffffffffffffffffffffffffffffffffffffffff1673ffffffffffffffffffffffffffffffffffffffff1603612457576040517faf4d1ef200000000000000000000000000000000000000000000000000000000815260040160405180910390fd5b68056bc75e2d6310000083101561249a576040517f1fbaba3500000000000000000000000000000000000000000000000000000000815260040160405180910390fd5b5f60646001856124aa9190614f6c565b6124b49190614fda565b90505f60646001866124c69190614f6c565b6124d09190614fda565b905061251e7355d398326f99059ff775485246999027b31979553360065f9054906101000a900473ffffffffffffffffffffffffffffffffffffffff1685896125199190614f39565b613168565b61255f7355d398326f99059ff775485246999027b31979553360055f9054906101000a900473ffffffffffffffffffffffffffffffffffffffff1685613168565b60065f9054906101000a900473ffffffffffffffffffffffffffffffffffffffff1673ffffffffffffffffffffffffffffffffffffffff166303ec9fb0826040518263ffffffff1660e01b81526004016125b991906145f6565b5f604051808303815f87803b1580156125d0575f5ffd5b505af11580156125e2573d5f5f3e3d5ffd5b505050505f73ffffffffffffffffffffffffffffffffffffffff1660055f9054906101000a900473ffffffffffffffffffffffffffffffffffffffff1673ffffffffffffffffffffffffffffffffffffffff16146126c25760055f9054906101000a900473ffffffffffffffffffffffffffffffffffffffff1673ffffffffffffffffffffffffffffffffffffffff1663cc430ced836040518263ffffffff1660e01b815260040161269491906145f6565b5f604051808303815f87803b1580156126ab575f5ffd5b505af11580156126bd573d5f5f3e3d5ffd5b505050505b60065f9054906101000a900473ffffffffffffffffffffffffffffffffffffffff1673ffffffffffffffffffffffffffffffffffffffff166351c6590a82848861270c9190614f39565b6127169190614f39565b6040518263ffffffff1660e01b815260040161273291906145f6565b5f604051808303815f87803b158015612749575f5ffd5b505af115801561275b573d5f5f3e3d5ffd5b505050505f61276933611a1d565b90505f81111561278e5780856003015f8282546127869190615163565b925050819055505b6006808111156127a1576127a061493d565b5b845f0160149054906101000a900460ff1660068111156127c4576127c361493d565b5b036127e45783600201546012546127db9190614f6c565b84600501819055505b85855f015f8282546127f69190615163565b925050819055504285600201819055505f68a2a15d09519be00000865f015411612821576002612824565b60035b60ff1690508086600101541461283e578086600101819055505b86600d5f82825461284f9190615163565b92505081905550600b5f3373ffffffffffffffffffffffffffffffffffffffff1673ffffffffffffffffffffffffffffffffffffffff1681526020019081526020015f205f9054906101000a900460ff166129b757600a5f865f015f9054906101000a900473ffffffffffffffffffffffffffffffffffffffff1673ffffffffffffffffffffffffffffffffffffffff1673ffffffffffffffffffffffffffffffffffffffff1681526020019081526020015f2033908060018154018082558091505060019003905f5260205f20015f9091909190916101000a81548173ffffffffffffffffffffffffffffffffffffffff021916908373ffffffffffffffffffffffffffffffffffffffff1602179055506001600b5f3373ffffffffffffffffffffffffffffffffffffffff1673ffffffffffffffffffffffffffffffffffffffff1681526020019081526020015f205f6101000a81548160ff0219169083151502179055505b5f6129c23389613749565b90505f8111156129e5578060135f8282546129dd9190615163565b925050819055505b7f9e71bc8eea02a63969f509818f2dafb9254532904319f9dbda79b67bd34a5f3d3389604051612a16929190615196565b60405180910390a150505050505050612a2d613131565b50565b60045f9054906101000a900473ffffffffffffffffffffffffffffffffffffffff1681565b6040518060400160405280600581526020017f352e302e3000000000000000000000000000000000000000000000000000000081525081565b600d5481565b5f5f5f5f5f5f5f60075f8973ffffffffffffffffffffffffffffffffffffffff1673ffffffffffffffffffffffffffffffffffffffff1681526020019081526020015f206040518060a00160405290815f820154815260200160018201548152602001600282015481526020016003820154815260200160048201548152505090505f60085f8a73ffffffffffffffffffffffffffffffffffffffff1673ffffffffffffffffffffffffffffffffffffffff1681526020019081526020015f20604051806101000160405290815f82015f9054906101000a900473ffffffffffffffffffffffffffffffffffffffff1673ffffffffffffffffffffffffffffffffffffffff1673ffffffffffffffffffffffffffffffffffffffff1681526020015f820160149054906101000a900460ff166006811115612bd857612bd761493d565b5b6006811115612bea57612be961493d565b5b81526020016001820154815260200160028201548152602001600382015481526020016004820154815260200160058201548152602001600682015f9054906101000a900460ff161515151581525050905080602001519750805f01519650815f0151955081602001519450612c5f89611a1d565b9350612c6a89612d37565b9250505091939550919395565b612c7f6135ca565b80600e5f6101000a81548160ff02191690831515021790555050565b6009602052815f5260405f208181548110612cb4575f80fd5b905f5260205f2090600302015f9150915050805f015f9054906101000a900473ffffffffffffffffffffffffffffffffffffffff16908060010154908060020154905083565b60015f9054906101000a900473ffffffffffffffffffffffffffffffffffffffff1681565b7355d398326f99059ff775485246999027b319795581565b5f5f60085f8473ffffffffffffffffffffffffffffffffffffffff1673ffffffffffffffffffffffffffffffffffffffff1681526020019081526020015f20604051806101000160405290815f82015f9054906101000a900473ffffffffffffffffffffffffffffffffffffffff1673ffffffffffffffffffffffffffffffffffffffff1673ffffffffffffffffffffffffffffffffffffffff1681526020015f820160149054906101000a900460ff166006811115612dfa57612df961493d565b5b6006811115612e0c57612e0b61493d565b5b81526020016001820154815260200160028201548152602001600382015481526020016004820154815260200160058201548152602001600682015f9054906101000a900460ff16151515158152505090505f81606001511480612e7157505f601354145b15612e7f575f915050612f40565b5f60125490505f60115442612e949190614f39565b90505f811115612ef2575f6064601454600f5484600d54612eb59190614f6c565b612ebf9190614f6c565b612ec99190614f6c565b612ed39190614fda565b905060135481612ee39190614fda565b83612eee9190615163565b9250505b5f601054838560600151612f069190614f6c565b612f109190614fda565b90508360c001518111612f29575f945050505050612f40565b8360c0015181612f399190614f39565b9450505050505b919050565b6060600a5f8373ffffffffffffffffffffffffffffffffffffffff1673ffffffffffffffffffffffffffffffffffffffff1681526020019081526020015f2080548060200260200160405190810160405280929190818152602001828054801561300157602002820191905f5260205f20905b815f9054906101000a900473ffffffffffffffffffffffffffffffffffffffff1673ffffffffffffffffffffffffffffffffffffffff1681526020019060010190808311612fb8575b50505050509050919050565b60135481565b60055f9054906101000a900473ffffffffffffffffffffffffffffffffffffffff1681565b60125481565b6130466135ca565b5f73ffffffffffffffffffffffffffffffffffffffff168173ffffffffffffffffffffffffffffffffffffffff16036130b6575f6040517f1e4fbdf70000000000000000000000000000000000000000000000000000000081526004016130ad919061464e565b60405180910390fd5b6130bf81613651565b50565b60025f9054906101000a900473ffffffffffffffffffffffffffffffffffffffff1681565b60145481565b60025f5403613128576040517f3ee5aeb500000000000000000000000000000000000000000000000000000000815260040160405180910390fd5b60025f81905550565b60015f81905550565b5f5f613144613d9f565b90508091505090565b5f33905090565b61315c613dc8565b61316581613e08565b50565b5f5f8573ffffffffffffffffffffffffffffffffffffffff166323b872dd86868660405160240161319b93929190615272565b6040516020818303038152906040529060e01b6020820180517bffffffffffffffffffffffffffffffffffffffffffffffffffffffff83818316178352505050506040516131e991906152eb565b5f604051808303815f865af19150503d805f8114613222576040519150601f19603f3d011682016040523d82523d5f602084013e613227565b606091505b509150915081801561325457505f815114806132535750808060200190518101906132529190615315565b5b5b613293576040517f08c379a000000000000000000000000000000000000000000000000000000000815260040161328a906153b0565b60405180910390fd5b505050505050565b5f601154426132aa9190614f39565b90505f8114806132bb57505f601354145b156132cd574260118190555050613331565b5f6064601454600f5484866132e29190614f6c565b6132ec9190614f6c565b6132f69190614f6c565b6133009190614fda565b9050601354816133109190614fda565b60125f8282546133209190615163565b925050819055504260118190555050505b50565b7f000000000000000000000000000000000000000000000000000000000000000073ffffffffffffffffffffffffffffffffffffffff163073ffffffffffffffffffffffffffffffffffffffff1614806133e157507f000000000000000000000000000000000000000000000000000000000000000073ffffffffffffffffffffffffffffffffffffffff166133c8613e8c565b73ffffffffffffffffffffffffffffffffffffffff1614155b15613418576040517fe07c8dba00000000000000000000000000000000000000000000000000000000815260040160405180910390fd5b565b6134226135ca565b50565b8173ffffffffffffffffffffffffffffffffffffffff166352d1902d6040518163ffffffff1660e01b8152600401602060405180830381865afa92505050801561348d57506040513d601f19601f8201168201806040525081019061348a91906153f8565b60015b6134ce57816040517f4c9c8ce30000000000000000000000000000000000000000000000000000000081526004016134c5919061464e565b60405180910390fd5b7f360894a13ba1a3210667c828492db98dca3e2076cc3735a920a3ca505d382bbc5f1b811461353457806040517faa1d49a400000000000000000000000000000000000000000000000000000000815260040161352b9190614bf4565b60405180910390fd5b61353e8383613edf565b505050565b7f000000000000000000000000000000000000000000000000000000000000000073ffffffffffffffffffffffffffffffffffffffff163073ffffffffffffffffffffffffffffffffffffffff16146135c8576040517fe07c8dba00000000000000000000000000000000000000000000000000000000815260040160405180910390fd5b565b6135d261314d565b73ffffffffffffffffffffffffffffffffffffffff166135f0612143565b73ffffffffffffffffffffffffffffffffffffffff161461364f5761361361314d565b6040517f118cdaa7000000000000000000000000000000000000000000000000000000008152600401613646919061464e565b60405180910390fd5b565b5f61365a613722565b90505f815f015f9054906101000a900473ffffffffffffffffffffffffffffffffffffffff16905082825f015f6101000a81548173ffffffffffffffffffffffffffffffffffffffff021916908373ffffffffffffffffffffffffffffffffffffffff1602179055508273ffffffffffffffffffffffffffffffffffffffff168173ffffffffffffffffffffffffffffffffffffffff167f8be0079c531659141344cd1fd0a4f28419497f9722a3daafe3b4186f6b6457e060405160405180910390a3505050565b5f7f9016d09d72d40fdae2fd8ceac6b6234c7706214fd39c1cd1e609a0528c199300905090565b5f5f60085f8573ffffffffffffffffffffffffffffffffffffffff1673ffffffffffffffffffffffffffffffffffffffff1681526020019081526020015f205f015f9054906101000a900473ffffffffffffffffffffffffffffffffffffffff1690506137b46144e5565b5f603290505f93505b5f73ffffffffffffffffffffffffffffffffffffffff168373ffffffffffffffffffffffffffffffffffffffff1614613cff575f60085f8573ffffffffffffffffffffffffffffffffffffffff1673ffffffffffffffffffffffffffffffffffffffff1681526020019081526020015f2090506001816001015f8282546138449190615163565b9250508190555085816002015f82825461385e9190615163565b925050819055505f5f90505f5f90505b600a5f8773ffffffffffffffffffffffffffffffffffffffff1673ffffffffffffffffffffffffffffffffffffffff1681526020019081526020015f20805490508110156139c057600560068111156138ca576138c961493d565b5b60085f600a5f8a73ffffffffffffffffffffffffffffffffffffffff1673ffffffffffffffffffffffffffffffffffffffff1681526020019081526020015f20848154811061391c5761391b615423565b5b905f5260205f20015f9054906101000a900473ffffffffffffffffffffffffffffffffffffffff1673ffffffffffffffffffffffffffffffffffffffff1673ffffffffffffffffffffffffffffffffffffffff1681526020019081526020015f205f0160149054906101000a900460ff16600681111561399f5761399e61493d565b5b036139b35781806139af90615450565b9250505b808060010191505061386e565b505f5f6139de845f0160149054906101000a900460ff16878b613f51565b915091508015613b465781846003015f8282546139fb9190615163565b9250508190555060095f8873ffffffffffffffffffffffffffffffffffffffff1673ffffffffffffffffffffffffffffffffffffffff1681526020019081526020015f2060405180606001604052808c73ffffffffffffffffffffffffffffffffffffffff16815260200184815260200142815250908060018154018082558091505060019003905f5260205f2090600302015f909190919091505f820151815f015f6101000a81548173ffffffffffffffffffffffffffffffffffffffff021916908373ffffffffffffffffffffffffffffffffffffffff16021790555060208201518160010155604082015181600201555050600186855f0160149054906101000a900460ff166006811115613b1657613b1561493d565b5b60068110613b2757613b26615423565b5b602002019015159081151581525050600a85613b439190614f39565b94505b5f5f5f613c3987604051806101000160405290815f82015f9054906101000a900473ffffffffffffffffffffffffffffffffffffffff1673ffffffffffffffffffffffffffffffffffffffff1673ffffffffffffffffffffffffffffffffffffffff1681526020015f820160149054906101000a900460ff166006811115613bd157613bd061493d565b5b6006811115613be357613be261493d565b5b81526020016001820154815260200160028201548152602001600382015481526020016004820154815260200160058201548152602001600682015f9054906101000a900460ff16151515158152505087614012565b92509250925082875f0160146101000a81548160ff02191690836006811115613c6557613c6461493d565b5b0217905550818b613c769190615163565b9a508015613cce57600c5f846006811115613c9457613c9361493d565b5b6006811115613ca657613ca561493d565b5b81526020019081526020015f2054876004015f828254613cc69190615163565b925050819055505b865f015f9054906101000a900473ffffffffffffffffffffffffffffffffffffffff169950505050505050506137bd565b5f811115613d965760648186613d159190614f6c565b613d1f9190614fda565b60085f60035f9054906101000a900473ffffffffffffffffffffffffffffffffffffffff1673ffffffffffffffffffffffffffffffffffffffff1673ffffffffffffffffffffffffffffffffffffffff1681526020019081526020015f206003015f828254613d8e9190615163565b925050819055505b50505092915050565b5f7ff0c57e16840df040f15088dc2f81fe391c3923bec73e23a9662efc9c229c6a005f1b905090565b613dd0614285565b613e06576040517fd7e6bcf800000000000000000000000000000000000000000000000000000000815260040160405180910390fd5b565b613e10613dc8565b5f73ffffffffffffffffffffffffffffffffffffffff168173ffffffffffffffffffffffffffffffffffffffff1603613e80575f6040517f1e4fbdf7000000000000000000000000000000000000000000000000000000008152600401613e77919061464e565b60405180910390fd5b613e8981613651565b50565b5f613eb87f360894a13ba1a3210667c828492db98dca3e2076cc3735a920a3ca505d382bbc5f1b6142a3565b5f015f9054906101000a900473ffffffffffffffffffffffffffffffffffffffff16905090565b613ee8826142ac565b8173ffffffffffffffffffffffffffffffffffffffff167fbc7cd75a20ee27fd9adebab32041f755214dbc6bffa90cc0225b39da2e5c2d3b60405160405180910390a25f81511115613f4457613f3e8282614375565b50613f4d565b613f4c614466565b5b5050565b5f5f5f91505f9050600680811115613f6c57613f6b61493d565b5b856006811115613f7f57613f7e61493d565b5b14158015613fb157505f6006811115613f9b57613f9a61493d565b5b856006811115613fae57613fad61493d565b5b14155b1561400a575f856006811115613fca57613fc961493d565b5b9050848160068110613fdf57613fde615423565b5b6020020151614008576064600a85613ff79190614f6c565b6140019190614fda565b9250600191505b505b935093915050565b5f5f5f846020015192505f91505f90505f60068111156140355761403461493d565b5b8560200151600681111561404c5761404b61493d565b5b14801561405e57506003856040015110155b8015614078575069021e19e0c9bab2400000856060015110155b1561408a57600192506001905061427e565b6001600681111561409e5761409d61493d565b5b856020015160068111156140b5576140b461493d565b5b1480156140c757506004856040015110155b80156140e15750690a968163f0a57b400000856060015110155b156140f357600292506001905061427d565b600260068111156141075761410661493d565b5b8560200151600681111561411e5761411d61493d565b5b14801561413057506005856040015110155b801561414a5750692a5a058fc295ed000000856060015110155b1561415c57600392506001905061427c565b600360068111156141705761416f61493d565b5b856020015160068111156141875761418661493d565b5b14801561419957506007856040015110155b80156141b3575069a968163f0a57b4000000856060015110155b156141c557600492506001905061427b565b600460068111156141d9576141d861493d565b5b856020015160068111156141f0576141ef61493d565b5b14801561420257506009856040015110155b801561421d57506a027b46536c66c8e3000000856060015110155b1561422f57600592506001905061427a565b600560068111156142435761424261493d565b5b8560200151600681111561425a5761425961493d565b5b148015614268575060028410155b156142795760069250846060015191505b5b5b5b5b5b9250925092565b5f61428e61313a565b5f0160089054906101000a900460ff16905090565b5f819050919050565b5f8173ffffffffffffffffffffffffffffffffffffffff163b0361430757806040517f4c9c8ce30000000000000000000000000000000000000000000000000000000081526004016142fe919061464e565b60405180910390fd5b806143337f360894a13ba1a3210667c828492db98dca3e2076cc3735a920a3ca505d382bbc5f1b6142a3565b5f015f6101000a81548173ffffffffffffffffffffffffffffffffffffffff021916908373ffffffffffffffffffffffffffffffffffffffff16021790555050565b60605f61438284846144a2565b90508080156143b857505f6143956144b6565b11806143b757505f8473ffffffffffffffffffffffffffffffffffffffff163b115b5b156143cd576143c56144bd565b915050614460565b801561441057836040517f9996b315000000000000000000000000000000000000000000000000000000008152600401614407919061464e565b60405180910390fd5b5f6144196144b6565b111561442c576144276144da565b61445e565b6040517fd6bda27500000000000000000000000000000000000000000000000000000000815260040160405180910390fd5b505b92915050565b5f3411156144a0576040517fb398979f00000000000000000000000000000000000000000000000000000000815260040160405180910390fd5b565b5f5f5f835160208501865af4905092915050565b5f3d905090565b606060405190503d81523d5f602083013e3d602001810160405290565b6040513d5f823e3d81fd5b6040518060c00160405280600690602082028036833780820191505090505090565b5f82825260208201905092915050565b7f4e4f5f4449524543545f53454e440000000000000000000000000000000000005f82015250565b5f61454b600e83614507565b915061455682614517565b602082019050919050565b5f6020820190508181035f8301526145788161453f565b9050919050565b5f604051905090565b5f5ffd5b5f5ffd5b6007811061459c575f5ffd5b50565b5f813590506145ad81614590565b92915050565b5f602082840312156145c8576145c7614588565b5b5f6145d58482850161459f565b91505092915050565b5f819050919050565b6145f0816145de565b82525050565b5f6020820190506146095f8301846145e7565b92915050565b5f73ffffffffffffffffffffffffffffffffffffffff82169050919050565b5f6146388261460f565b9050919050565b6146488161462e565b82525050565b5f6020820190506146615f83018461463f565b92915050565b6146708161462e565b811461467a575f5ffd5b50565b5f8135905061468b81614667565b92915050565b61469a816145de565b81146146a4575f5ffd5b50565b5f813590506146b581614691565b92915050565b5f5f604083850312156146d1576146d0614588565b5b5f6146de8582860161467d565b92505060206146ef858286016146a7565b9150509250929050565b5f6020828403121561470e5761470d614588565b5b5f61471b8482850161467d565b91505092915050565b5f5f5f5f5f60a0868803121561473d5761473c614588565b5b5f61474a8882890161467d565b955050602061475b8882890161467d565b945050604061476c8882890161467d565b935050606061477d8882890161467d565b925050608061478e8882890161467d565b9150509295509295909350565b5f81519050919050565b5f82825260208201905092915050565b5f819050602082019050919050565b6147cd8161462e565b82525050565b6147dc816145de565b82525050565b606082015f8201516147f65f8501826147c4565b50602082015161480960208501826147d3565b50604082015161481c60408501826147d3565b50505050565b5f61482d83836147e2565b60608301905092915050565b5f602082019050919050565b5f61484f8261479b565b61485981856147a5565b9350614864836147b5565b805f5b8381101561489457815161487b8882614822565b975061488683614839565b925050600181019050614867565b5085935050505092915050565b5f6020820190508181035f8301526148b98184614845565b905092915050565b5f60a0820190506148d45f8301886145e7565b6148e160208301876145e7565b6148ee60408301866145e7565b6148fb60608301856145e7565b61490860808301846145e7565b9695505050505050565b5f6020828403121561492757614926614588565b5b5f614934848285016146a7565b91505092915050565b7f4e487b71000000000000000000000000000000000000000000000000000000005f52602160045260245ffd5b6007811061497b5761497a61493d565b5b50565b5f81905061498b8261496a565b919050565b5f61499a8261497e565b9050919050565b6149aa81614990565b82525050565b5f8115159050919050565b6149c4816149b0565b82525050565b5f610100820190506149de5f83018b61463f565b6149eb602083018a6149a1565b6149f860408301896145e7565b614a0560608301886145e7565b614a1260808301876145e7565b614a1f60a08301866145e7565b614a2c60c08301856145e7565b614a3960e08301846149bb565b9998505050505050505050565b5f5ffd5b5f5ffd5b5f601f19601f8301169050919050565b7f4e487b71000000000000000000000000000000000000000000000000000000005f52604160045260245ffd5b614a9482614a4e565b810181811067ffffffffffffffff82111715614ab357614ab2614a5e565b5b80604052505050565b5f614ac561457f565b9050614ad18282614a8b565b919050565b5f67ffffffffffffffff821115614af057614aef614a5e565b5b614af982614a4e565b9050602081019050919050565b828183375f83830152505050565b5f614b26614b2184614ad6565b614abc565b905082815260208101848484011115614b4257614b41614a4a565b5b614b4d848285614b06565b509392505050565b5f82601f830112614b6957614b68614a46565b5b8135614b79848260208601614b14565b91505092915050565b5f5f60408385031215614b9857614b97614588565b5b5f614ba58582860161467d565b925050602083013567ffffffffffffffff811115614bc657614bc561458c565b5b614bd285828601614b55565b9150509250929050565b5f819050919050565b614bee81614bdc565b82525050565b5f602082019050614c075f830184614be5565b92915050565b5f602082019050614c205f8301846149bb565b92915050565b5f60a082019050614c395f8301886145e7565b614c4660208301876145e7565b614c5360408301866145e7565b614c6060608301856145e7565b614c6d60808301846149bb565b9695505050505050565b5f81519050919050565b8281835e5f83830152505050565b5f614c9982614c77565b614ca38185614507565b9350614cb3818560208601614c81565b614cbc81614a4e565b840191505092915050565b5f6020820190508181035f830152614cdf8184614c8f565b905092915050565b5f60c082019050614cfa5f8301896149a1565b614d07602083018861463f565b614d1460408301876145e7565b614d2160608301866145e7565b614d2e60808301856145e7565b614d3b60a08301846145e7565b979650505050505050565b614d4f816149b0565b8114614d59575f5ffd5b50565b5f81359050614d6a81614d46565b92915050565b5f60208284031215614d8557614d84614588565b5b5f614d9284828501614d5c565b91505092915050565b5f606082019050614dae5f83018661463f565b614dbb60208301856145e7565b614dc860408301846145e7565b949350505050565b5f819050919050565b5f614df3614dee614de98461460f565b614dd0565b61460f565b9050919050565b5f614e0482614dd9565b9050919050565b5f614e1582614dfa565b9050919050565b614e2581614e0b565b82525050565b5f602082019050614e3e5f830184614e1c565b92915050565b5f81519050919050565b5f82825260208201905092915050565b5f819050602082019050919050565b5f614e7883836147c4565b60208301905092915050565b5f602082019050919050565b5f614e9a82614e44565b614ea48185614e4e565b9350614eaf83614e5e565b805f5b83811015614edf578151614ec68882614e6d565b9750614ed183614e84565b925050600181019050614eb2565b5085935050505092915050565b5f6020820190508181035f830152614f048184614e90565b905092915050565b7f4e487b71000000000000000000000000000000000000000000000000000000005f52601160045260245ffd5b5f614f43826145de565b9150614f4e836145de565b9250828203905081811115614f6657614f65614f0c565b5b92915050565b5f614f76826145de565b9150614f81836145de565b9250828202614f8f816145de565b91508282048414831517614fa657614fa5614f0c565b5b5092915050565b7f4e487b71000000000000000000000000000000000000000000000000000000005f52601260045260245ffd5b5f614fe4826145de565b9150614fef836145de565b925082614fff57614ffe614fad565b5b828204905092915050565b7f50415553455f52454348415247452e00000000000000000000000000000000005f82015250565b5f61503e600f83614507565b91506150498261500a565b602082019050919050565b5f6020820190508181035f83015261506b81615032565b9050919050565b5f8151905061508081614667565b92915050565b5f8151905061509481614691565b92915050565b5f5f5f5f608085870312156150b2576150b1614588565b5b5f6150bf87828801615072565b94505060206150d087828801615086565b93505060406150e187828801615086565b92505060606150f287828801615086565b91505092959194509250565b5f819050919050565b5f67ffffffffffffffff82169050919050565b5f61513461512f61512a846150fe565b614dd0565b615107565b9050919050565b6151448161511a565b82525050565b5f60208201905061515d5f83018461513b565b92915050565b5f61516d826145de565b9150615178836145de565b92508282019050808211156151905761518f614f0c565b5b92915050565b5f6040820190506151a95f83018561463f565b6151b660208301846145e7565b9392505050565b7f5245434f4d4d454e444154494f4e5f49535f52455155495245445f52454645525f8201527f52414c2e00000000000000000000000000000000000000000000000000000000602082015250565b5f615217602483614507565b9150615222826151bd565b604082019050919050565b5f6020820190508181035f8301526152448161520b565b9050919050565b5f60408201905061525e5f83018561463f565b61526b602083018461463f565b9392505050565b5f6060820190506152855f83018661463f565b615292602083018561463f565b61529f60408301846145e7565b949350505050565b5f81519050919050565b5f81905092915050565b5f6152c5826152a7565b6152cf81856152b1565b93506152df818560208601614c81565b80840191505092915050565b5f6152f682846152bb565b915081905092915050565b5f8151905061530f81614d46565b92915050565b5f6020828403121561532a57615329614588565b5b5f61533784828501615301565b91505092915050565b7f5472616e7366657248656c7065723a205452414e534645525f46524f4d5f46415f8201527f494c454400000000000000000000000000000000000000000000000000000000602082015250565b5f61539a602483614507565b91506153a582615340565b604082019050919050565b5f6020820190508181035f8301526153c78161538e565b9050919050565b6153d781614bdc565b81146153e1575f5ffd5b50565b5f815190506153f2816153ce565b92915050565b5f6020828403121561540d5761540c614588565b5b5f61541a848285016153e4565b91505092915050565b7f4e487b71000000000000000000000000000000000000000000000000000000005f52603260045260245ffd5b5f61545a826145de565b91507fffffffffffffffffffffffffffffffffffffffffffffffffffffffffffffffff820361548c5761548b614f0c565b5b60018201905091905056fea26469706673582212207e2fc71242699d42d9674fb19103a9ad2c130cb9d0a27a6f1043fd3506079b9064736f6c634300081e0033","linkReferences":{}},"methodIdentifiers":{"DEAD()":"03fd2a45","MAX_REFERRAL_DEPTH()":"89e59ea0","UPGRADE_INTERFACE_VERSION()":"ad3cb1cc","USDT()":"c54e44eb","admin()":"f851a440","awardRecords(address,uint256)":"c023b3a5","claim(uint256)":"379607f5","decimals()":"313ce567","directReferrals(address,uint256)":"05ad3935","djsv1()":"ac6439b5","getDirectReferrals(address)":"d2c8e0e5","getInvalidStaking(address)":"19b12a53","getReferralAwardRecords(address)":"18785eb6","getUserAward(address)":"3e4ff6f2","getUserInfoBasic(address)":"b5006823","getUserInfoReferral(address)":"9238b0f9","getUserShareLevelAward(address)":"c7c93c94","getUserStakingAward(address)":"0acf716b","initialCode()":"10baf089","initialize(address,address,address,address,address)":"1459457a","isAddDirectReferrals(address)":"a3f2a64a","lastShareAwardTime()":"922be46d","liquidityManager()":"33827438","migrationReferral(address)":"0ff9ef12","node()":"d70754ec","owner()":"8da5cb5b","pancakeRouter()":"c21ebd07","pause()":"8456cb59","perSecondStakedAeward()":"905635d4","perSharePerformanceAward()":"db81c515","proxiableUUID()":"52d1902d","referral(address)":"7247959a","referralInfo(address)":"39540b0a","renounceOwnership()":"715018a6","setPause(bool)":"bedb86fb","shareRate()":"fb802a65","stake(uint256)":"a694fc3a","subCoinQuotas(uint8)":"00c4bb2b","swapSubToken(uint256)":"1b602f22","totalSharePerformance()":"d567aadb","totalStakedUsdt()":"b2859e2b","transferOwnership(address)":"f2fde38b","upgradeToAndCall(address,bytes)":"4f1ef286","userInfo(address)":"1959a002","whetherNeedMigrate(address)":"85215f7c"},"id":43}