{"abi":[{"type":"receive","stateMutability":"payable"},{"type":"function","name":"DEAD","inputs":[],"outputs":[{"name":"","type":"address","internalType":"address"}],"stateMutability":"view"},{"type":"function","name":"MAX_REFERRAL_DEPTH","inputs":[],"outputs":[{"name":"","type":"uint256","internalType":"uint256"}],"stateMutability":"view"},{"type":"function","name":"UPGRADE_INTERFACE_VERSION","inputs":[],"outputs":[{"name":"","type":"string","internalType":"string"}],"stateMutability":"view"},{"type":"function","name":"USDT","inputs":[],"outputs":[{"name":"","type":"address","internalType":"address"}],"stateMutability":"view"},{"type":"function","name":"admin","inputs":[],"outputs":[{"name":"","type":"address","internalType":"address"}],"stateMutability":"view"},{"type":"function","name":"awardRecords","inputs":[{"name":"","type":"address","internalType":"address"},{"name":"","type":"uint256","internalType":"uint256"}],"outputs":[{"name":"from","type":"address","internalType":"address"},{"name":"amount","type":"uint256","internalType":"uint256"},{"name":"time","type":"uint256","internalType":"uint256"}],"stateMutability":"view"},{"type":"function","name":"claim","inputs":[],"outputs":[],"stateMutability":"nonpayable"},{"type":"function","name":"decimals","inputs":[],"outputs":[{"name":"","type":"uint256","internalType":"uint256"}],"stateMutability":"view"},{"type":"function","name":"directReferrals","inputs":[{"name":"","type":"address","internalType":"address"},{"name":"","type":"uint256","internalType":"uint256"}],"outputs":[{"name":"","type":"address","internalType":"address"}],"stateMutability":"view"},{"type":"function","name":"djsv1","inputs":[],"outputs":[{"name":"","type":"address","internalType":"address"}],"stateMutability":"view"},{"type":"function","name":"emergencyWithdraw","inputs":[{"name":"_token","type":"address","internalType":"address"},{"name":"_amount","type":"uint256","internalType":"uint256"},{"name":"_to","type":"address","internalType":"address"}],"outputs":[],"stateMutability":"nonpayable"},{"type":"function","name":"getDirectReferrals","inputs":[{"name":"user","type":"address","internalType":"address"}],"outputs":[{"name":"","type":"address[]","internalType":"address[]"}],"stateMutability":"view"},{"type":"function","name":"getInvalidStaking","inputs":[{"name":"user","type":"address","internalType":"address"}],"outputs":[{"name":"","type":"uint256","internalType":"uint256"}],"stateMutability":"view"},{"type":"function","name":"getReferralAwardRecords","inputs":[{"name":"user","type":"address","internalType":"address"}],"outputs":[{"name":"","type":"tuple[]","internalType":"struct Process.Record[]","components":[{"name":"from","type":"address","internalType":"address"},{"name":"amount","type":"uint256","internalType":"uint256"},{"name":"time","type":"uint256","internalType":"uint256"}]}],"stateMutability":"view"},{"type":"function","name":"getUserAward","inputs":[{"name":"user","type":"address","internalType":"address"}],"outputs":[{"name":"","type":"uint256","internalType":"uint256"}],"stateMutability":"view"},{"type":"function","name":"getUserInfoBasic","inputs":[{"name":"user","type":"address","internalType":"address"}],"outputs":[{"name":"level","type":"uint8","internalType":"enum Process.Level"},{"name":"recommender","type":"address","internalType":"address"},{"name":"stakingUsdt","type":"uint256","internalType":"uint256"},{"name":"multiple","type":"uint256","internalType":"uint256"},{"name":"totalAward","type":"uint256","internalType":"uint256"},{"name":"shareAward","type":"uint256","internalType":"uint256"}],"stateMutability":"view"},{"type":"function","name":"getUserInfoReferral","inputs":[{"name":"user","type":"address","internalType":"address"}],"outputs":[{"name":"referralNum","type":"uint256","internalType":"uint256"},{"name":"performance","type":"uint256","internalType":"uint256"},{"name":"referralAward","type":"uint256","internalType":"uint256"},{"name":"subCoinQuota","type":"uint256","internalType":"uint256"},{"name":"isMigration","type":"bool","internalType":"bool"}],"stateMutability":"view"},{"type":"function","name":"getUserShareLevelAward","inputs":[{"name":"user","type":"address","internalType":"address"}],"outputs":[{"name":"","type":"uint256","internalType":"uint256"}],"stateMutability":"view"},{"type":"function","name":"getUserStakingAward","inputs":[{"name":"user","type":"address","internalType":"address"}],"outputs":[{"name":"","type":"uint256","internalType":"uint256"}],"stateMutability":"view"},{"type":"function","name":"initialCode","inputs":[],"outputs":[{"name":"","type":"address","internalType":"address"}],"stateMutability":"view"},{"type":"function","name":"initialize","inputs":[{"name":"_admin","type":"address","internalType":"address"},{"name":"_initialCode","type":"address","internalType":"address"},{"name":"_djsv1","type":"address","internalType":"address"},{"name":"_node","type":"address","internalType":"address"},{"name":"_liquidity","type":"address","internalType":"address"}],"outputs":[],"stateMutability":"nonpayable"},{"type":"function","name":"isAddDirectReferrals","inputs":[{"name":"","type":"address","internalType":"address"}],"outputs":[{"name":"","type":"bool","internalType":"bool"}],"stateMutability":"view"},{"type":"function","name":"lastShareAwardTime","inputs":[],"outputs":[{"name":"","type":"uint256","internalType":"uint256"}],"stateMutability":"view"},{"type":"function","name":"liquidityManager","inputs":[],"outputs":[{"name":"","type":"address","internalType":"address"}],"stateMutability":"view"},{"type":"function","name":"migrationReferral","inputs":[{"name":"user","type":"address","internalType":"address"}],"outputs":[],"stateMutability":"nonpayable"},{"type":"function","name":"node","inputs":[],"outputs":[{"name":"","type":"address","internalType":"address"}],"stateMutability":"view"},{"type":"function","name":"owner","inputs":[],"outputs":[{"name":"","type":"address","internalType":"address"}],"stateMutability":"view"},{"type":"function","name":"pancakeRouter","inputs":[],"outputs":[{"name":"","type":"address","internalType":"contract IUniswapV2Router02"}],"stateMutability":"view"},{"type":"function","name":"pause","inputs":[],"outputs":[{"name":"","type":"bool","internalType":"bool"}],"stateMutability":"view"},{"type":"function","name":"perSecondStakedAeward","inputs":[],"outputs":[{"name":"","type":"uint256","internalType":"uint256"}],"stateMutability":"view"},{"type":"function","name":"perSharePerformanceAward","inputs":[],"outputs":[{"name":"","type":"uint256","internalType":"uint256"}],"stateMutability":"view"},{"type":"function","name":"proxiableUUID","inputs":[],"outputs":[{"name":"","type":"bytes32","internalType":"bytes32"}],"stateMutability":"view"},{"type":"function","name":"referral","inputs":[{"name":"recommender","type":"address","internalType":"address"}],"outputs":[],"stateMutability":"nonpayable"},{"type":"function","name":"referralInfo","inputs":[{"name":"","type":"address","internalType":"address"}],"outputs":[{"name":"recommender","type":"address","internalType":"address"},{"name":"level","type":"uint8","internalType":"enum Process.Level"},{"name":"referralNum","type":"uint256","internalType":"uint256"},{"name":"performance","type":"uint256","internalType":"uint256"},{"name":"referralAward","type":"uint256","internalType":"uint256"},{"name":"subCoinQuota","type":"uint256","internalType":"uint256"},{"name":"shareAwardDebt","type":"uint256","internalType":"uint256"},{"name":"isMigration","type":"bool","internalType":"bool"}],"stateMutability":"view"},{"type":"function","name":"renounceOwnership","inputs":[],"outputs":[],"stateMutability":"nonpayable"},{"type":"function","name":"setPause","inputs":[{"name":"isPause","type":"bool","internalType":"bool"}],"outputs":[],"stateMutability":"nonpayable"},{"type":"function","name":"shareRate","inputs":[],"outputs":[{"name":"","type":"uint256","internalType":"uint256"}],"stateMutability":"view"},{"type":"function","name":"stake","inputs":[{"name":"amountUSDT","type":"uint256","internalType":"uint256"}],"outputs":[],"stateMutability":"nonpayable"},{"type":"function","name":"subCoinQuotas","inputs":[{"name":"","type":"uint8","internalType":"enum Process.Level"}],"outputs":[{"name":"","type":"uint256","internalType":"uint256"}],"stateMutability":"view"},{"type":"function","name":"swapSubToken","inputs":[{"name":"amountUSDT","type":"uint256","internalType":"uint256"}],"outputs":[],"stateMutability":"nonpayable"},{"type":"function","name":"totalSharePerformance","inputs":[],"outputs":[{"name":"","type":"uint256","internalType":"uint256"}],"stateMutability":"view"},{"type":"function","name":"totalStakedUsdt","inputs":[],"outputs":[{"name":"","type":"uint256","internalType":"uint256"}],"stateMutability":"view"},{"type":"function","name":"transferOwnership","inputs":[{"name":"newOwner","type":"address","internalType":"address"}],"outputs":[],"stateMutability":"nonpayable"},{"type":"function","name":"upgradeToAndCall","inputs":[{"name":"newImplementation","type":"address","internalType":"address"},{"name":"data","type":"bytes","internalType":"bytes"}],"outputs":[],"stateMutability":"payable"},{"type":"function","name":"userInfo","inputs":[{"name":"","type":"address","internalType":"address"}],"outputs":[{"name":"stakingUsdt","type":"uint256","internalType":"uint256"},{"name":"multiple","type":"uint256","internalType":"uint256"},{"name":"stakingTime","type":"uint256","internalType":"uint256"},{"name":"pendingProfit","type":"uint256","internalType":"uint256"},{"name":"extracted","type":"uint256","internalType":"uint256"}],"stateMutability":"view"},{"type":"function","name":"whetherNeedMigrate","inputs":[{"name":"user","type":"address","internalType":"address"}],"outputs":[{"name":"","type":"bool","internalType":"bool"}],"stateMutability":"view"},{"type":"event","name":"Claimed","inputs":[{"name":"user","type":"address","indexed":false,"internalType":"address"},{"name":"amount","type":"uint256","indexed":false,"internalType":"uint256"}],"anonymous":false},{"type":"event","name":"Initialized","inputs":[{"name":"version","type":"uint64","indexed":false,"internalType":"uint64"}],"anonymous":false},{"type":"event","name":"OwnershipTransferred","inputs":[{"name":"previousOwner","type":"address","indexed":true,"internalType":"address"},{"name":"newOwner","type":"address","indexed":true,"internalType":"address"}],"anonymous":false},{"type":"event","name":"Referrals","inputs":[{"name":"recommender","type":"address","indexed":false,"internalType":"address"},{"name":"referred","type":"address","indexed":false,"internalType":"address"}],"anonymous":false},{"type":"event","name":"Staked","inputs":[{"name":"user","type":"address","indexed":false,"internalType":"address"},{"name":"amount","type":"uint256","indexed":false,"internalType":"uint256"}],"anonymous":false},{"type":"event","name":"Upgraded","inputs":[{"name":"implementation","type":"address","indexed":true,"internalType":"address"}],"anonymous":false},{"type":"error","name":"AddressEmptyCode","inputs":[{"name":"target","type":"address","internalType":"address"}]},{"type":"error","name":"AlreadyMigrated","inputs":[]},{"type":"error","name":"AmountTooLow","inputs":[]},{"type":"error","name":"ERC1967InvalidImplementation","inputs":[{"name":"implementation","type":"address","internalType":"address"}]},{"type":"error","name":"ERC1967NonPayable","inputs":[]},{"type":"error","name":"FailedCall","inputs":[]},{"type":"error","name":"InsufficientQuota","inputs":[]},{"type":"error","name":"InvalidInitialization","inputs":[]},{"type":"error","name":"InvalidRecommender","inputs":[]},{"type":"error","name":"InviterExists","inputs":[]},{"type":"error","name":"NeedMigrate","inputs":[]},{"type":"error","name":"NoMigrationRequired","inputs":[]},{"type":"error","name":"NoReward","inputs":[]},{"type":"error","name":"NoStake","inputs":[]},{"type":"error","name":"NotInitializing","inputs":[]},{"type":"error","name":"NotRequiredReferral","inputs":[]},{"type":"error","name":"OwnableInvalidOwner","inputs":[{"name":"owner","type":"address","internalType":"address"}]},{"type":"error","name":"OwnableUnauthorizedAccount","inputs":[{"name":"account","type":"address","internalType":"address"}]},{"type":"error","name":"ReentrancyGuardReentrantCall","inputs":[]},{"type":"error","name":"UUPSUnauthorizedCallContext","inputs":[]},{"type":"error","name":"UUPSUnsupportedProxiableUUID","inputs":[{"name":"slot","type":"bytes32","internalType":"bytes32"}]},{"type":"error","name":"ZeroAddress","inputs":[]}],"bytecode":{"object":"0x60a06040523073ffffffffffffffffffffffffffffffffffffffff1660809073ffffffffffffffffffffffffffffffffffffffff168152507310ed43c718714eb63d5aa57b78b54704e256024e60015f6101000a81548173ffffffffffffffffffffffffffffffffffffffff021916908373ffffffffffffffffffffffffffffffffffffffff160217905550348015610096575f5ffd5b5060015f819055506080516157336100c45f395f81816133b40152818161340901526135c301526157335ff3fe60806040526004361061027f575f3560e01c806389e59ea01161014e578063bedb86fb116100c0578063d567aadb11610079578063d567aadb14610a33578063d70754ec14610a5d578063db81c51514610a87578063f2fde38b14610ab1578063f851a44014610ad9578063fb802a6514610b03576102bf565b8063bedb86fb14610901578063c023b3a514610929578063c21ebd0714610967578063c54e44eb14610991578063c7c93c94146109bb578063d2c8e0e5146109f7576102bf565b8063a3f2a64a11610112578063a3f2a64a146107de578063a694fc3a1461081a578063ac6439b514610842578063ad3cb1cc1461086c578063b2859e2b14610896578063b5006823146108c0576102bf565b806389e59ea0146106f65780638da5cb5b14610720578063905635d41461074a578063922be46d146107745780639238b0f91461079e576102bf565b8063313ce567116101f257806352d1902d116101ab57806352d1902d14610600578063551512de1461062a578063715018a6146106525780637247959a146106685780638456cb591461069057806385215f7c146106ba576102bf565b8063313ce567146104fb578063338274381461052557806339540b0a1461054f5780633e4ff6f2146105925780634e71d92d146105ce5780634f1ef286146105e4576102bf565b806310baf0891161024457806310baf089146103c95780631459457a146103f357806318785eb61461041b5780631959a0021461045757806319b12a53146104975780631b602f22146104d3576102bf565b8062c4bb2b146102c357806303fd2a45146102ff57806305ad3935146103295780630acf716b146103655780630ff9ef12146103a1576102bf565b366102bf576040517f08c379a00000000000000000000000000000000000000000000000000000000081526004016102b69061470f565b60405180910390fd5b5f5ffd5b3480156102ce575f5ffd5b506102e960048036038101906102e49190614761565b610b2d565b6040516102f691906147a4565b60405180910390f35b34801561030a575f5ffd5b50610313610b42565b60405161032091906147fc565b60405180910390f35b348015610334575f5ffd5b5061034f600480360381019061034a9190614869565b610b48565b60405161035c91906147fc565b60405180910390f35b348015610370575f5ffd5b5061038b600480360381019061038691906148a7565b610b90565b60405161039891906147a4565b60405180910390f35b3480156103ac575f5ffd5b506103c760048036038101906103c291906148a7565b610c4d565b005b3480156103d4575f5ffd5b506103dd610e9a565b6040516103ea91906147fc565b60405180910390f35b3480156103fe575f5ffd5b50610419600480360381019061041491906148d2565b610ebf565b005b348015610426575f5ffd5b50610441600480360381019061043c91906148a7565b611331565b60405161044e9190614a4f565b60405180910390f35b348015610462575f5ffd5b5061047d600480360381019061047891906148a7565b611432565b60405161048e959493929190614a6f565b60405180910390f35b3480156104a2575f5ffd5b506104bd60048036038101906104b891906148a7565b611464565b6040516104ca91906147a4565b60405180910390f35b3480156104de575f5ffd5b506104f960048036038101906104f49190614ac0565b611521565b005b348015610506575f5ffd5b5061050f6116be565b60405161051c91906147a4565b60405180910390f35b348015610530575f5ffd5b506105396116c4565b60405161054691906147fc565b60405180910390f35b34801561055a575f5ffd5b50610575600480360381019061057091906148a7565b6116e9565b604051610589989796959493929190614b78565b60405180910390f35b34801561059d575f5ffd5b506105b860048036038101906105b391906148a7565b611764565b6040516105c591906147a4565b60405180910390f35b3480156105d9575f5ffd5b506105e261193b565b005b6105fe60048036038101906105f99190614d30565b611baf565b005b34801561060b575f5ffd5b50610614611bce565b6040516106219190614da2565b60405180910390f35b348015610635575f5ffd5b50610650600480360381019061064b9190614dbb565b611bff565b005b34801561065d575f5ffd5b50610666611c17565b005b348015610673575f5ffd5b5061068e600480360381019061068991906148a7565b611c2a565b005b34801561069b575f5ffd5b506106a461207b565b6040516106b19190614e0b565b60405180910390f35b3480156106c5575f5ffd5b506106e060048036038101906106db91906148a7565b61208d565b6040516106ed9190614e0b565b60405180910390f35b348015610701575f5ffd5b5061070a6121bb565b60405161071791906147a4565b60405180910390f35b34801561072b575f5ffd5b506107346121c1565b60405161074191906147fc565b60405180910390f35b348015610755575f5ffd5b5061075e6121f6565b60405161076b91906147a4565b60405180910390f35b34801561077f575f5ffd5b506107886121fc565b60405161079591906147a4565b60405180910390f35b3480156107a9575f5ffd5b506107c460048036038101906107bf91906148a7565b612202565b6040516107d5959493929190614e24565b60405180910390f35b3480156107e9575f5ffd5b5061080460048036038101906107ff91906148a7565b61235a565b6040516108119190614e0b565b60405180910390f35b348015610825575f5ffd5b50610840600480360381019061083b9190614ac0565b612377565b005b34801561084d575f5ffd5b50610856612aae565b60405161086391906147fc565b60405180910390f35b348015610877575f5ffd5b50610880612ad3565b60405161088d9190614ec5565b60405180910390f35b3480156108a1575f5ffd5b506108aa612b0c565b6040516108b791906147a4565b60405180910390f35b3480156108cb575f5ffd5b506108e660048036038101906108e191906148a7565b612b12565b6040516108f896959493929190614ee5565b60405180910390f35b34801561090c575f5ffd5b5061092760048036038101906109229190614f6e565b612cf5565b005b348015610934575f5ffd5b5061094f600480360381019061094a9190614869565b612d19565b60405161095e93929190614f99565b60405180910390f35b348015610972575f5ffd5b5061097b612d78565b6040516109889190615029565b60405180910390f35b34801561099c575f5ffd5b506109a5612d9d565b6040516109b291906147fc565b60405180910390f35b3480156109c6575f5ffd5b506109e160048036038101906109dc91906148a7565b612db5565b6040516109ee91906147a4565b60405180910390f35b348015610a02575f5ffd5b50610a1d6004803603810190610a1891906148a7565b612fc3565b604051610a2a91906150ea565b60405180910390f35b348015610a3e575f5ffd5b50610a4761308b565b604051610a5491906147a4565b60405180910390f35b348015610a68575f5ffd5b50610a71613091565b604051610a7e91906147fc565b60405180910390f35b348015610a92575f5ffd5b50610a9b6130b6565b604051610aa891906147a4565b60405180910390f35b348015610abc575f5ffd5b50610ad76004803603810190610ad291906148a7565b6130bc565b005b348015610ae4575f5ffd5b50610aed613140565b604051610afa91906147fc565b60405180910390f35b348015610b0e575f5ffd5b50610b17613165565b604051610b2491906147a4565b60405180910390f35b600c602052805f5260405f205f915090505481565b61dead81565b600a602052815f5260405f208181548110610b61575f80fd5b905f5260205f20015f915091509054906101000a900473ffffffffffffffffffffffffffffffffffffffff1681565b5f5f60075f8473ffffffffffffffffffffffffffffffffffffffff1673ffffffffffffffffffffffffffffffffffffffff1681526020019081526020015f206040518060a00160405290815f82015481526020016001820154815260200160028201548152602001600382015481526020016004820154815250509050601054815f0151600f54836040015142610c279190615137565b610c31919061516a565b610c3b919061516a565b610c4591906151d8565b915050919050565b610c5561316b565b600e5f9054906101000a900460ff1615610ca4576040517f08c379a0000000000000000000000000000000000000000000000000000000008152600401610c9b90615252565b60405180910390fd5b5f60085f8373ffffffffffffffffffffffffffffffffffffffff1673ffffffffffffffffffffffffffffffffffffffff1681526020019081526020015f209050806006015f9054906101000a900460ff1615610d2c576040517fca1c3cbc00000000000000000000000000000000000000000000000000000000815260040160405180910390fd5b5f60045f9054906101000a900473ffffffffffffffffffffffffffffffffffffffff1673ffffffffffffffffffffffffffffffffffffffff16631959a002846040518263ffffffff1660e01b8152600401610d8791906147fc565b608060405180830381865afa158015610da2573d5f5f3e3d5ffd5b505050506040513d601f19601f82011682018060405250810190610dc69190615298565b50505090505f73ffffffffffffffffffffffffffffffffffffffff168173ffffffffffffffffffffffffffffffffffffffff1603610e30576040517f9c9e07a800000000000000000000000000000000000000000000000000000000815260040160405180910390fd5b80825f015f6101000a81548173ffffffffffffffffffffffffffffffffffffffff021916908373ffffffffffffffffffffffffffffffffffffffff1602179055506001826006015f6101000a81548160ff0219169083151502179055505050610e976131af565b50565b60035f9054906101000a900473ffffffffffffffffffffffffffffffffffffffff1681565b5f610ec86131b8565b90505f815f0160089054906101000a900460ff161590505f825f015f9054906101000a900467ffffffffffffffff1690505f5f8267ffffffffffffffff16148015610f105750825b90505f60018367ffffffffffffffff16148015610f4357505f3073ffffffffffffffffffffffffffffffffffffffff163b145b905081158015610f51575080155b15610f88576040517ff92ee8a900000000000000000000000000000000000000000000000000000000815260040160405180910390fd5b6001855f015f6101000a81548167ffffffffffffffff021916908367ffffffffffffffff1602179055508315610fd5576001855f0160086101000a81548160ff0219169083151502179055505b610fe5610fe06131cb565b6131d2565b8960025f6101000a81548173ffffffffffffffffffffffffffffffffffffffff021916908373ffffffffffffffffffffffffffffffffffffffff1602179055508860035f6101000a81548173ffffffffffffffffffffffffffffffffffffffff021916908373ffffffffffffffffffffffffffffffffffffffff1602179055508760045f6101000a81548173ffffffffffffffffffffffffffffffffffffffff021916908373ffffffffffffffffffffffffffffffffffffffff1602179055508660055f6101000a81548173ffffffffffffffffffffffffffffffffffffffff021916908373ffffffffffffffffffffffffffffffffffffffff1602179055508560065f6101000a81548173ffffffffffffffffffffffffffffffffffffffff021916908373ffffffffffffffffffffffffffffffffffffffff1602179055506402540be40060108190555062015180683635c9adc5dea0000060105467a688906bd8b00000611155919061516a565b61115f91906151d8565b61116991906151d8565b600f81905550600a60148190555068056bc75e2d63100000600c5f6001600681111561119857611197614aeb565b5b60068111156111aa576111a9614aeb565b5b81526020019081526020015f2081905550681043561a8829300000600c5f600260068111156111dc576111db614aeb565b5b60068111156111ee576111ed614aeb565b5b81526020019081526020015f2081905550681b1ae4d6e2ef500000600c5f600360068111156112205761121f614aeb565b5b600681111561123257611231614aeb565b5b81526020019081526020015f2081905550683635c9adc5dea00000600c5f6004600681111561126457611263614aeb565b5b600681111561127657611275614aeb565b5b81526020019081526020015f208190555068a2a15d09519be00000600c5f600560068111156112a8576112a7614aeb565b5b60068111156112ba576112b9614aeb565b5b81526020019081526020015f20819055508315611325575f855f0160086101000a81548160ff0219169083151502179055507fc7f505b2f371ae2175ee4913f4499e1f2633a7b5936321eed1cdaeb6115181d2600160405161131c9190615348565b60405180910390a15b50505050505050505050565b606060095f8373ffffffffffffffffffffffffffffffffffffffff1673ffffffffffffffffffffffffffffffffffffffff1681526020019081526020015f20805480602002602001604051908101604052809291908181526020015f905b82821015611427578382905f5260205f2090600302016040518060600160405290815f82015f9054906101000a900473ffffffffffffffffffffffffffffffffffffffff1673ffffffffffffffffffffffffffffffffffffffff1673ffffffffffffffffffffffffffffffffffffffff168152602001600182015481526020016002820154815250508152602001906001019061138f565b505050509050919050565b6007602052805f5260405f205f91509050805f0154908060010154908060020154908060030154908060040154905085565b5f5f60075f8473ffffffffffffffffffffffffffffffffffffffff1673ffffffffffffffffffffffffffffffffffffffff1681526020019081526020015f2090505f81600401546010546114b786612db5565b6114c191906151d8565b6114ca86610b90565b84600301546114d99190615361565b6114e39190615361565b6114ed9190615361565b90508160010154825f0154611502919061516a565b81111561151657815f01549250505061151c565b5f925050505b919050565b60085f3373ffffffffffffffffffffffffffffffffffffffff1673ffffffffffffffffffffffffffffffffffffffff1681526020019081526020015f206004015481111561159b576040517f6aea990400000000000000000000000000000000000000000000000000000000815260040160405180910390fd5b6115dc7355d398326f99059ff775485246999027b31979553360065f9054906101000a900473ffffffffffffffffffffffffffffffffffffffff16846131e6565b60065f9054906101000a900473ffffffffffffffffffffffffffffffffffffffff1673ffffffffffffffffffffffffffffffffffffffff166379e32cd933836040518363ffffffff1660e01b8152600401611638929190615394565b5f604051808303815f87803b15801561164f575f5ffd5b505af1158015611661573d5f5f3e3d5ffd5b505050508060085f3373ffffffffffffffffffffffffffffffffffffffff1673ffffffffffffffffffffffffffffffffffffffff1681526020019081526020015f206004015f8282546116b49190615137565b9250508190555050565b60105481565b60065f9054906101000a900473ffffffffffffffffffffffffffffffffffffffff1681565b6008602052805f5260405f205f91509050805f015f9054906101000a900473ffffffffffffffffffffffffffffffffffffffff1690805f0160149054906101000a900460ff1690806001015490806002015490806003015490806004015490806005015490806006015f9054906101000a900460ff16905088565b5f5f60075f8473ffffffffffffffffffffffffffffffffffffffff1673ffffffffffffffffffffffffffffffffffffffff1681526020019081526020015f206040518060a00160405290815f820154815260200160018201548152602001600282015481526020016003820154815260200160048201548152505090505f815f0151036117f4575f915050611936565b5f6117fe84610b90565b90505f61180a85612db5565b90505f60085f8773ffffffffffffffffffffffffffffffffffffffff1673ffffffffffffffffffffffffffffffffffffffff1681526020019081526020015f20600301548284866060015161185f9190615361565b6118699190615361565b6118739190615361565b905060035f9054906101000a900473ffffffffffffffffffffffffffffffffffffffff1673ffffffffffffffffffffffffffffffffffffffff168673ffffffffffffffffffffffffffffffffffffffff16036118d55780945050505050611936565b5f8460200151855f01516118e9919061516a565b905080856080015110611903575f95505050505050611936565b5f8560800151826119149190615137565b90508083111561192c57809650505050505050611936565b8296505050505050505b919050565b61194361316b565b5f60075f3373ffffffffffffffffffffffffffffffffffffffff1673ffffffffffffffffffffffffffffffffffffffff1681526020019081526020015f2090505f815f0154036119bf576040517fcacf989a00000000000000000000000000000000000000000000000000000000815260040160405180910390fd5b5f6119c933611464565b600d546119d69190615137565b90506119e181613319565b5f6119eb33611764565b90505f8103611a26576040517f6e99268600000000000000000000000000000000000000000000000000000000815260040160405180910390fd5b5f836003018190555080836004015f828254611a429190615361565b925050819055505f60085f3373ffffffffffffffffffffffffffffffffffffffff1673ffffffffffffffffffffffffffffffffffffffff1681526020019081526020015f209050600680811115611a9c57611a9b614aeb565b5b815f0160149054906101000a900460ff166006811115611abf57611abe614aeb565b5b03611adf578060020154601254611ad6919061516a565b81600501819055505b60065f9054906101000a900473ffffffffffffffffffffffffffffffffffffffff1673ffffffffffffffffffffffffffffffffffffffff16632d019c4233846040518363ffffffff1660e01b8152600401611b3b929190615394565b5f604051808303815f87803b158015611b52575f5ffd5b505af1158015611b64573d5f5f3e3d5ffd5b505050507fd8138f8a3f377c5259ca548e70e4c2de94f129f5a11036a15b69513cba2b426a3383604051611b99929190615394565b60405180910390a150505050611bad6131af565b565b611bb76133b2565b611bc082613498565b611bca82826134a3565b5050565b5f611bd76135c1565b7f360894a13ba1a3210667c828492db98dca3e2076cc3735a920a3ca505d382bbc5f1b905090565b611c07613648565b611c128382846136cf565b505050565b611c1f613648565b611c285f6137ff565b565b611c3261316b565b600e5f9054906101000a900460ff1615611c81576040517f08c379a0000000000000000000000000000000000000000000000000000000008152600401611c7890615252565b60405180910390fd5b611c8a3361208d565b15611cc1576040517f1d9410b700000000000000000000000000000000000000000000000000000000815260040160405180910390fd5b5f73ffffffffffffffffffffffffffffffffffffffff168173ffffffffffffffffffffffffffffffffffffffff1603611d26576040517fd92e233d00000000000000000000000000000000000000000000000000000000815260040160405180910390fd5b3373ffffffffffffffffffffffffffffffffffffffff168173ffffffffffffffffffffffffffffffffffffffff1603611d8b576040517f4f2f060100000000000000000000000000000000000000000000000000000000815260040160405180910390fd5b60035f9054906101000a900473ffffffffffffffffffffffffffffffffffffffff1673ffffffffffffffffffffffffffffffffffffffff168173ffffffffffffffffffffffffffffffffffffffff1614611ef7575f73ffffffffffffffffffffffffffffffffffffffff1660085f8373ffffffffffffffffffffffffffffffffffffffff1673ffffffffffffffffffffffffffffffffffffffff1681526020019081526020015f205f015f9054906101000a900473ffffffffffffffffffffffffffffffffffffffff1673ffffffffffffffffffffffffffffffffffffffff1614158015611eb757505f60075f8373ffffffffffffffffffffffffffffffffffffffff1673ffffffffffffffffffffffffffffffffffffffff1681526020019081526020015f205f0154115b611ef6576040517f08c379a0000000000000000000000000000000000000000000000000000000008152600401611eed9061542b565b60405180910390fd5b5b5f73ffffffffffffffffffffffffffffffffffffffff1660085f3373ffffffffffffffffffffffffffffffffffffffff1673ffffffffffffffffffffffffffffffffffffffff1681526020019081526020015f205f015f9054906101000a900473ffffffffffffffffffffffffffffffffffffffff1673ffffffffffffffffffffffffffffffffffffffff1614611fba576040517f5b3d5a1b00000000000000000000000000000000000000000000000000000000815260040160405180910390fd5b8060085f3373ffffffffffffffffffffffffffffffffffffffff1673ffffffffffffffffffffffffffffffffffffffff1681526020019081526020015f205f015f6101000a81548173ffffffffffffffffffffffffffffffffffffffff021916908373ffffffffffffffffffffffffffffffffffffffff1602179055507f455db5b564134af440ac23bd273ce313070080fc2c3d5d36c03f62de3c6284988133604051612068929190615449565b60405180910390a16120786131af565b50565b600e5f9054906101000a900460ff1681565b5f5f60045f9054906101000a900473ffffffffffffffffffffffffffffffffffffffff1673ffffffffffffffffffffffffffffffffffffffff16631959a002846040518263ffffffff1660e01b81526004016120e991906147fc565b608060405180830381865afa158015612104573d5f5f3e3d5ffd5b505050506040513d601f19601f820116820180604052508101906121289190615298565b50505090505f73ffffffffffffffffffffffffffffffffffffffff168173ffffffffffffffffffffffffffffffffffffffff16141580156121b3575060085f8473ffffffffffffffffffffffffffffffffffffffff1673ffffffffffffffffffffffffffffffffffffffff1681526020019081526020015f206006015f9054906101000a900460ff16155b915050919050565b6103e881565b5f5f6121cb6138d0565b9050805f015f9054906101000a900473ffffffffffffffffffffffffffffffffffffffff1691505090565b600f5481565b60115481565b5f5f5f5f5f5f60085f8873ffffffffffffffffffffffffffffffffffffffff1673ffffffffffffffffffffffffffffffffffffffff1681526020019081526020015f20604051806101000160405290815f82015f9054906101000a900473ffffffffffffffffffffffffffffffffffffffff1673ffffffffffffffffffffffffffffffffffffffff1673ffffffffffffffffffffffffffffffffffffffff1681526020015f820160149054906101000a900460ff1660068111156122c9576122c8614aeb565b5b60068111156122db576122da614aeb565b5b81526020016001820154815260200160028201548152602001600382015481526020016004820154815260200160058201548152602001600682015f9054906101000a900460ff16151515158152505090508060400151955080606001519450806080015193508060a0015192508060e0015191505091939590929450565b600b602052805f5260405f205f915054906101000a900460ff1681565b61237f61316b565b600e5f9054906101000a900460ff16156123ce576040517f08c379a00000000000000000000000000000000000000000000000000000000081526004016123c590615252565b60405180910390fd5b5f60075f3373ffffffffffffffffffffffffffffffffffffffff1673ffffffffffffffffffffffffffffffffffffffff1681526020019081526020015f2090505f60085f3373ffffffffffffffffffffffffffffffffffffffff1673ffffffffffffffffffffffffffffffffffffffff1681526020019081526020015f2090505f73ffffffffffffffffffffffffffffffffffffffff16815f015f9054906101000a900473ffffffffffffffffffffffffffffffffffffffff1673ffffffffffffffffffffffffffffffffffffffff16036124d5576040517faf4d1ef200000000000000000000000000000000000000000000000000000000815260040160405180910390fd5b68056bc75e2d63100000831015612518576040517f1fbaba3500000000000000000000000000000000000000000000000000000000815260040160405180910390fd5b5f6064600185612528919061516a565b61253291906151d8565b90505f6064600186612544919061516a565b61254e91906151d8565b905061259c7355d398326f99059ff775485246999027b31979553360065f9054906101000a900473ffffffffffffffffffffffffffffffffffffffff1685896125979190615137565b6131e6565b6125dd7355d398326f99059ff775485246999027b31979553360055f9054906101000a900473ffffffffffffffffffffffffffffffffffffffff16856131e6565b60065f9054906101000a900473ffffffffffffffffffffffffffffffffffffffff1673ffffffffffffffffffffffffffffffffffffffff166303ec9fb0826040518263ffffffff1660e01b815260040161263791906147a4565b5f604051808303815f87803b15801561264e575f5ffd5b505af1158015612660573d5f5f3e3d5ffd5b505050505f73ffffffffffffffffffffffffffffffffffffffff1660055f9054906101000a900473ffffffffffffffffffffffffffffffffffffffff1673ffffffffffffffffffffffffffffffffffffffff16146127405760055f9054906101000a900473ffffffffffffffffffffffffffffffffffffffff1673ffffffffffffffffffffffffffffffffffffffff1663cc430ced836040518263ffffffff1660e01b815260040161271291906147a4565b5f604051808303815f87803b158015612729575f5ffd5b505af115801561273b573d5f5f3e3d5ffd5b505050505b60065f9054906101000a900473ffffffffffffffffffffffffffffffffffffffff1673ffffffffffffffffffffffffffffffffffffffff166351c6590a82848861278a9190615137565b6127949190615137565b6040518263ffffffff1660e01b81526004016127b091906147a4565b5f604051808303815f87803b1580156127c7575f5ffd5b505af11580156127d9573d5f5f3e3d5ffd5b505050505f6127e733611764565b90505f81111561280c5780856003015f8282546128049190615361565b925050819055505b60068081111561281f5761281e614aeb565b5b845f0160149054906101000a900460ff16600681111561284257612841614aeb565b5b03612862578360020154601254612859919061516a565b84600501819055505b85855f015f8282546128749190615361565b925050819055504285600201819055505f68a2a15d09519be00000865f01541161289f5760026128a2565b60035b60ff169050808660010154146128bc578086600101819055505b86600d5f8282546128cd9190615361565b92505081905550600b5f3373ffffffffffffffffffffffffffffffffffffffff1673ffffffffffffffffffffffffffffffffffffffff1681526020019081526020015f205f9054906101000a900460ff16612a3557600a5f865f015f9054906101000a900473ffffffffffffffffffffffffffffffffffffffff1673ffffffffffffffffffffffffffffffffffffffff1673ffffffffffffffffffffffffffffffffffffffff1681526020019081526020015f2033908060018154018082558091505060019003905f5260205f20015f9091909190916101000a81548173ffffffffffffffffffffffffffffffffffffffff021916908373ffffffffffffffffffffffffffffffffffffffff1602179055506001600b5f3373ffffffffffffffffffffffffffffffffffffffff1673ffffffffffffffffffffffffffffffffffffffff1681526020019081526020015f205f6101000a81548160ff0219169083151502179055505b5f612a4033896138f7565b90505f811115612a63578060135f828254612a5b9190615361565b925050819055505b7f9e71bc8eea02a63969f509818f2dafb9254532904319f9dbda79b67bd34a5f3d3389604051612a94929190615394565b60405180910390a150505050505050612aab6131af565b50565b60045f9054906101000a900473ffffffffffffffffffffffffffffffffffffffff1681565b6040518060400160405280600581526020017f352e302e3000000000000000000000000000000000000000000000000000000081525081565b600d5481565b5f5f5f5f5f5f5f60075f8973ffffffffffffffffffffffffffffffffffffffff1673ffffffffffffffffffffffffffffffffffffffff1681526020019081526020015f206040518060a00160405290815f820154815260200160018201548152602001600282015481526020016003820154815260200160048201548152505090505f60085f8a73ffffffffffffffffffffffffffffffffffffffff1673ffffffffffffffffffffffffffffffffffffffff1681526020019081526020015f20604051806101000160405290815f82015f9054906101000a900473ffffffffffffffffffffffffffffffffffffffff1673ffffffffffffffffffffffffffffffffffffffff1673ffffffffffffffffffffffffffffffffffffffff1681526020015f820160149054906101000a900460ff166006811115612c5657612c55614aeb565b5b6006811115612c6857612c67614aeb565b5b81526020016001820154815260200160028201548152602001600382015481526020016004820154815260200160058201548152602001600682015f9054906101000a900460ff161515151581525050905080602001519750805f01519650815f0151955081602001519450612cdd89611764565b9350612ce889612db5565b9250505091939550919395565b612cfd613648565b80600e5f6101000a81548160ff02191690831515021790555050565b6009602052815f5260405f208181548110612d32575f80fd5b905f5260205f2090600302015f9150915050805f015f9054906101000a900473ffffffffffffffffffffffffffffffffffffffff16908060010154908060020154905083565b60015f9054906101000a900473ffffffffffffffffffffffffffffffffffffffff1681565b7355d398326f99059ff775485246999027b319795581565b5f5f60085f8473ffffffffffffffffffffffffffffffffffffffff1673ffffffffffffffffffffffffffffffffffffffff1681526020019081526020015f20604051806101000160405290815f82015f9054906101000a900473ffffffffffffffffffffffffffffffffffffffff1673ffffffffffffffffffffffffffffffffffffffff1673ffffffffffffffffffffffffffffffffffffffff1681526020015f820160149054906101000a900460ff166006811115612e7857612e77614aeb565b5b6006811115612e8a57612e89614aeb565b5b81526020016001820154815260200160028201548152602001600382015481526020016004820154815260200160058201548152602001600682015f9054906101000a900460ff16151515158152505090505f81606001511480612eef57505f601354145b15612efd575f915050612fbe565b5f60125490505f60115442612f129190615137565b90505f811115612f70575f6064601454600f5484600d54612f33919061516a565b612f3d919061516a565b612f47919061516a565b612f5191906151d8565b905060135481612f6191906151d8565b83612f6c9190615361565b9250505b5f601054838560600151612f84919061516a565b612f8e91906151d8565b90508360c001518111612fa7575f945050505050612fbe565b8360c0015181612fb79190615137565b9450505050505b919050565b6060600a5f8373ffffffffffffffffffffffffffffffffffffffff1673ffffffffffffffffffffffffffffffffffffffff1681526020019081526020015f2080548060200260200160405190810160405280929190818152602001828054801561307f57602002820191905f5260205f20905b815f9054906101000a900473ffffffffffffffffffffffffffffffffffffffff1673ffffffffffffffffffffffffffffffffffffffff1681526020019060010190808311613036575b50505050509050919050565b60135481565b60055f9054906101000a900473ffffffffffffffffffffffffffffffffffffffff1681565b60125481565b6130c4613648565b5f73ffffffffffffffffffffffffffffffffffffffff168173ffffffffffffffffffffffffffffffffffffffff1603613134575f6040517f1e4fbdf700000000000000000000000000000000000000000000000000000000815260040161312b91906147fc565b60405180910390fd5b61313d816137ff565b50565b60025f9054906101000a900473ffffffffffffffffffffffffffffffffffffffff1681565b60145481565b60025f54036131a6576040517f3ee5aeb500000000000000000000000000000000000000000000000000000000815260040160405180910390fd5b60025f81905550565b60015f81905550565b5f5f6131c2613f4d565b90508091505090565b5f33905090565b6131da613f76565b6131e381613fb6565b50565b5f5f8573ffffffffffffffffffffffffffffffffffffffff166323b872dd86868660405160240161321993929190615470565b6040516020818303038152906040529060e01b6020820180517bffffffffffffffffffffffffffffffffffffffffffffffffffffffff838183161783525050505060405161326791906154e9565b5f604051808303815f865af19150503d805f81146132a0576040519150601f19603f3d011682016040523d82523d5f602084013e6132a5565b606091505b50915091508180156132d257505f815114806132d15750808060200190518101906132d09190615513565b5b5b613311576040517f08c379a0000000000000000000000000000000000000000000000000000000008152600401613308906155ae565b60405180910390fd5b505050505050565b5f601154426133289190615137565b90505f81148061333957505f601354145b1561334b5742601181905550506133af565b5f6064601454600f548486613360919061516a565b61336a919061516a565b613374919061516a565b61337e91906151d8565b90506013548161338e91906151d8565b60125f82825461339e9190615361565b925050819055504260118190555050505b50565b7f000000000000000000000000000000000000000000000000000000000000000073ffffffffffffffffffffffffffffffffffffffff163073ffffffffffffffffffffffffffffffffffffffff16148061345f57507f000000000000000000000000000000000000000000000000000000000000000073ffffffffffffffffffffffffffffffffffffffff1661344661403a565b73ffffffffffffffffffffffffffffffffffffffff1614155b15613496576040517fe07c8dba00000000000000000000000000000000000000000000000000000000815260040160405180910390fd5b565b6134a0613648565b50565b8173ffffffffffffffffffffffffffffffffffffffff166352d1902d6040518163ffffffff1660e01b8152600401602060405180830381865afa92505050801561350b57506040513d601f19601f8201168201806040525081019061350891906155f6565b60015b61354c57816040517f4c9c8ce300000000000000000000000000000000000000000000000000000000815260040161354391906147fc565b60405180910390fd5b7f360894a13ba1a3210667c828492db98dca3e2076cc3735a920a3ca505d382bbc5f1b81146135b257806040517faa1d49a40000000000000000000000000000000000000000000000000000000081526004016135a99190614da2565b60405180910390fd5b6135bc838361408d565b505050565b7f000000000000000000000000000000000000000000000000000000000000000073ffffffffffffffffffffffffffffffffffffffff163073ffffffffffffffffffffffffffffffffffffffff1614613646576040517fe07c8dba00000000000000000000000000000000000000000000000000000000815260040160405180910390fd5b565b6136506131cb565b73ffffffffffffffffffffffffffffffffffffffff1661366e6121c1565b73ffffffffffffffffffffffffffffffffffffffff16146136cd576136916131cb565b6040517f118cdaa70000000000000000000000000000000000000000000000000000000081526004016136c491906147fc565b60405180910390fd5b565b5f5f8473ffffffffffffffffffffffffffffffffffffffff1663a9059cbb8585604051602401613700929190615394565b6040516020818303038152906040529060e01b6020820180517bffffffffffffffffffffffffffffffffffffffffffffffffffffffff838183161783525050505060405161374e91906154e9565b5f604051808303815f865af19150503d805f8114613787576040519150601f19603f3d011682016040523d82523d5f602084013e61378c565b606091505b50915091508180156137b957505f815114806137b85750808060200190518101906137b79190615513565b5b5b6137f8576040517f08c379a00000000000000000000000000000000000000000000000000000000081526004016137ef9061566b565b60405180910390fd5b5050505050565b5f6138086138d0565b90505f815f015f9054906101000a900473ffffffffffffffffffffffffffffffffffffffff16905082825f015f6101000a81548173ffffffffffffffffffffffffffffffffffffffff021916908373ffffffffffffffffffffffffffffffffffffffff1602179055508273ffffffffffffffffffffffffffffffffffffffff168173ffffffffffffffffffffffffffffffffffffffff167f8be0079c531659141344cd1fd0a4f28419497f9722a3daafe3b4186f6b6457e060405160405180910390a3505050565b5f7f9016d09d72d40fdae2fd8ceac6b6234c7706214fd39c1cd1e609a0528c199300905090565b5f5f60085f8573ffffffffffffffffffffffffffffffffffffffff1673ffffffffffffffffffffffffffffffffffffffff1681526020019081526020015f205f015f9054906101000a900473ffffffffffffffffffffffffffffffffffffffff169050613962614693565b5f603290505f93505b5f73ffffffffffffffffffffffffffffffffffffffff168373ffffffffffffffffffffffffffffffffffffffff1614613ead575f60085f8573ffffffffffffffffffffffffffffffffffffffff1673ffffffffffffffffffffffffffffffffffffffff1681526020019081526020015f2090506001816001015f8282546139f29190615361565b9250508190555085816002015f828254613a0c9190615361565b925050819055505f5f90505f5f90505b600a5f8773ffffffffffffffffffffffffffffffffffffffff1673ffffffffffffffffffffffffffffffffffffffff1681526020019081526020015f2080549050811015613b6e5760056006811115613a7857613a77614aeb565b5b60085f600a5f8a73ffffffffffffffffffffffffffffffffffffffff1673ffffffffffffffffffffffffffffffffffffffff1681526020019081526020015f208481548110613aca57613ac9615689565b5b905f5260205f20015f9054906101000a900473ffffffffffffffffffffffffffffffffffffffff1673ffffffffffffffffffffffffffffffffffffffff1673ffffffffffffffffffffffffffffffffffffffff1681526020019081526020015f205f0160149054906101000a900460ff166006811115613b4d57613b4c614aeb565b5b03613b61578180613b5d906156b6565b9250505b8080600101915050613a1c565b505f5f613b8c845f0160149054906101000a900460ff16878b6140ff565b915091508015613cf45781846003015f828254613ba99190615361565b9250508190555060095f8873ffffffffffffffffffffffffffffffffffffffff1673ffffffffffffffffffffffffffffffffffffffff1681526020019081526020015f2060405180606001604052808c73ffffffffffffffffffffffffffffffffffffffff16815260200184815260200142815250908060018154018082558091505060019003905f5260205f2090600302015f909190919091505f820151815f015f6101000a81548173ffffffffffffffffffffffffffffffffffffffff021916908373ffffffffffffffffffffffffffffffffffffffff16021790555060208201518160010155604082015181600201555050600186855f0160149054906101000a900460ff166006811115613cc457613cc3614aeb565b5b60068110613cd557613cd4615689565b5b602002019015159081151581525050600a85613cf19190615137565b94505b5f5f5f613de787604051806101000160405290815f82015f9054906101000a900473ffffffffffffffffffffffffffffffffffffffff1673ffffffffffffffffffffffffffffffffffffffff1673ffffffffffffffffffffffffffffffffffffffff1681526020015f820160149054906101000a900460ff166006811115613d7f57613d7e614aeb565b5b6006811115613d9157613d90614aeb565b5b81526020016001820154815260200160028201548152602001600382015481526020016004820154815260200160058201548152602001600682015f9054906101000a900460ff161515151581525050876141c0565b92509250925082875f0160146101000a81548160ff02191690836006811115613e1357613e12614aeb565b5b0217905550818b613e249190615361565b9a508015613e7c57600c5f846006811115613e4257613e41614aeb565b5b6006811115613e5457613e53614aeb565b5b81526020019081526020015f2054876004015f828254613e749190615361565b925050819055505b865f015f9054906101000a900473ffffffffffffffffffffffffffffffffffffffff1699505050505050505061396b565b5f811115613f445760648186613ec3919061516a565b613ecd91906151d8565b60085f60035f9054906101000a900473ffffffffffffffffffffffffffffffffffffffff1673ffffffffffffffffffffffffffffffffffffffff1673ffffffffffffffffffffffffffffffffffffffff1681526020019081526020015f206003015f828254613f3c9190615361565b925050819055505b50505092915050565b5f7ff0c57e16840df040f15088dc2f81fe391c3923bec73e23a9662efc9c229c6a005f1b905090565b613f7e614433565b613fb4576040517fd7e6bcf800000000000000000000000000000000000000000000000000000000815260040160405180910390fd5b565b613fbe613f76565b5f73ffffffffffffffffffffffffffffffffffffffff168173ffffffffffffffffffffffffffffffffffffffff160361402e575f6040517f1e4fbdf700000000000000000000000000000000000000000000000000000000815260040161402591906147fc565b60405180910390fd5b614037816137ff565b50565b5f6140667f360894a13ba1a3210667c828492db98dca3e2076cc3735a920a3ca505d382bbc5f1b614451565b5f015f9054906101000a900473ffffffffffffffffffffffffffffffffffffffff16905090565b6140968261445a565b8173ffffffffffffffffffffffffffffffffffffffff167fbc7cd75a20ee27fd9adebab32041f755214dbc6bffa90cc0225b39da2e5c2d3b60405160405180910390a25f815111156140f2576140ec8282614523565b506140fb565b6140fa614614565b5b5050565b5f5f5f91505f905060068081111561411a57614119614aeb565b5b85600681111561412d5761412c614aeb565b5b1415801561415f57505f600681111561414957614148614aeb565b5b85600681111561415c5761415b614aeb565b5b14155b156141b8575f85600681111561417857614177614aeb565b5b905084816006811061418d5761418c615689565b5b60200201516141b6576064600a856141a5919061516a565b6141af91906151d8565b9250600191505b505b935093915050565b5f5f5f846020015192505f91505f90505f60068111156141e3576141e2614aeb565b5b856020015160068111156141fa576141f9614aeb565b5b14801561420c57506003856040015110155b8015614226575069021e19e0c9bab2400000856060015110155b1561423857600192506001905061442c565b6001600681111561424c5761424b614aeb565b5b8560200151600681111561426357614262614aeb565b5b14801561427557506004856040015110155b801561428f5750690a968163f0a57b400000856060015110155b156142a157600292506001905061442b565b600260068111156142b5576142b4614aeb565b5b856020015160068111156142cc576142cb614aeb565b5b1480156142de57506005856040015110155b80156142f85750692a5a058fc295ed000000856060015110155b1561430a57600392506001905061442a565b6003600681111561431e5761431d614aeb565b5b8560200151600681111561433557614334614aeb565b5b14801561434757506007856040015110155b8015614361575069a968163f0a57b4000000856060015110155b15614373576004925060019050614429565b6004600681111561438757614386614aeb565b5b8560200151600681111561439e5761439d614aeb565b5b1480156143b057506009856040015110155b80156143cb57506a027b46536c66c8e3000000856060015110155b156143dd576005925060019050614428565b600560068111156143f1576143f0614aeb565b5b8560200151600681111561440857614407614aeb565b5b148015614416575060028410155b156144275760069250846060015191505b5b5b5b5b5b9250925092565b5f61443c6131b8565b5f0160089054906101000a900460ff16905090565b5f819050919050565b5f8173ffffffffffffffffffffffffffffffffffffffff163b036144b557806040517f4c9c8ce30000000000000000000000000000000000000000000000000000000081526004016144ac91906147fc565b60405180910390fd5b806144e17f360894a13ba1a3210667c828492db98dca3e2076cc3735a920a3ca505d382bbc5f1b614451565b5f015f6101000a81548173ffffffffffffffffffffffffffffffffffffffff021916908373ffffffffffffffffffffffffffffffffffffffff16021790555050565b60605f6145308484614650565b905080801561456657505f614543614664565b118061456557505f8473ffffffffffffffffffffffffffffffffffffffff163b115b5b1561457b5761457361466b565b91505061460e565b80156145be57836040517f9996b3150000000000000000000000000000000000000000000000000000000081526004016145b591906147fc565b60405180910390fd5b5f6145c7614664565b11156145da576145d5614688565b61460c565b6040517fd6bda27500000000000000000000000000000000000000000000000000000000815260040160405180910390fd5b505b92915050565b5f34111561464e576040517fb398979f00000000000000000000000000000000000000000000000000000000815260040160405180910390fd5b565b5f5f5f835160208501865af4905092915050565b5f3d905090565b606060405190503d81523d5f602083013e3d602001810160405290565b6040513d5f823e3d81fd5b6040518060c00160405280600690602082028036833780820191505090505090565b5f82825260208201905092915050565b7f4e4f5f4449524543545f53454e440000000000000000000000000000000000005f82015250565b5f6146f9600e836146b5565b9150614704826146c5565b602082019050919050565b5f6020820190508181035f830152614726816146ed565b9050919050565b5f604051905090565b5f5ffd5b5f5ffd5b6007811061474a575f5ffd5b50565b5f8135905061475b8161473e565b92915050565b5f6020828403121561477657614775614736565b5b5f6147838482850161474d565b91505092915050565b5f819050919050565b61479e8161478c565b82525050565b5f6020820190506147b75f830184614795565b92915050565b5f73ffffffffffffffffffffffffffffffffffffffff82169050919050565b5f6147e6826147bd565b9050919050565b6147f6816147dc565b82525050565b5f60208201905061480f5f8301846147ed565b92915050565b61481e816147dc565b8114614828575f5ffd5b50565b5f8135905061483981614815565b92915050565b6148488161478c565b8114614852575f5ffd5b50565b5f813590506148638161483f565b92915050565b5f5f6040838503121561487f5761487e614736565b5b5f61488c8582860161482b565b925050602061489d85828601614855565b9150509250929050565b5f602082840312156148bc576148bb614736565b5b5f6148c98482850161482b565b91505092915050565b5f5f5f5f5f60a086880312156148eb576148ea614736565b5b5f6148f88882890161482b565b95505060206149098882890161482b565b945050604061491a8882890161482b565b935050606061492b8882890161482b565b925050608061493c8882890161482b565b9150509295509295909350565b5f81519050919050565b5f82825260208201905092915050565b5f819050602082019050919050565b61497b816147dc565b82525050565b61498a8161478c565b82525050565b606082015f8201516149a45f850182614972565b5060208201516149b76020850182614981565b5060408201516149ca6040850182614981565b50505050565b5f6149db8383614990565b60608301905092915050565b5f602082019050919050565b5f6149fd82614949565b614a078185614953565b9350614a1283614963565b805f5b83811015614a42578151614a2988826149d0565b9750614a34836149e7565b925050600181019050614a15565b5085935050505092915050565b5f6020820190508181035f830152614a6781846149f3565b905092915050565b5f60a082019050614a825f830188614795565b614a8f6020830187614795565b614a9c6040830186614795565b614aa96060830185614795565b614ab66080830184614795565b9695505050505050565b5f60208284031215614ad557614ad4614736565b5b5f614ae284828501614855565b91505092915050565b7f4e487b71000000000000000000000000000000000000000000000000000000005f52602160045260245ffd5b60078110614b2957614b28614aeb565b5b50565b5f819050614b3982614b18565b919050565b5f614b4882614b2c565b9050919050565b614b5881614b3e565b82525050565b5f8115159050919050565b614b7281614b5e565b82525050565b5f61010082019050614b8c5f83018b6147ed565b614b99602083018a614b4f565b614ba66040830189614795565b614bb36060830188614795565b614bc06080830187614795565b614bcd60a0830186614795565b614bda60c0830185614795565b614be760e0830184614b69565b9998505050505050505050565b5f5ffd5b5f5ffd5b5f601f19601f8301169050919050565b7f4e487b71000000000000000000000000000000000000000000000000000000005f52604160045260245ffd5b614c4282614bfc565b810181811067ffffffffffffffff82111715614c6157614c60614c0c565b5b80604052505050565b5f614c7361472d565b9050614c7f8282614c39565b919050565b5f67ffffffffffffffff821115614c9e57614c9d614c0c565b5b614ca782614bfc565b9050602081019050919050565b828183375f83830152505050565b5f614cd4614ccf84614c84565b614c6a565b905082815260208101848484011115614cf057614cef614bf8565b5b614cfb848285614cb4565b509392505050565b5f82601f830112614d1757614d16614bf4565b5b8135614d27848260208601614cc2565b91505092915050565b5f5f60408385031215614d4657614d45614736565b5b5f614d538582860161482b565b925050602083013567ffffffffffffffff811115614d7457614d7361473a565b5b614d8085828601614d03565b9150509250929050565b5f819050919050565b614d9c81614d8a565b82525050565b5f602082019050614db55f830184614d93565b92915050565b5f5f5f60608486031215614dd257614dd1614736565b5b5f614ddf8682870161482b565b9350506020614df086828701614855565b9250506040614e018682870161482b565b9150509250925092565b5f602082019050614e1e5f830184614b69565b92915050565b5f60a082019050614e375f830188614795565b614e446020830187614795565b614e516040830186614795565b614e5e6060830185614795565b614e6b6080830184614b69565b9695505050505050565b5f81519050919050565b8281835e5f83830152505050565b5f614e9782614e75565b614ea181856146b5565b9350614eb1818560208601614e7f565b614eba81614bfc565b840191505092915050565b5f6020820190508181035f830152614edd8184614e8d565b905092915050565b5f60c082019050614ef85f830189614b4f565b614f0560208301886147ed565b614f126040830187614795565b614f1f6060830186614795565b614f2c6080830185614795565b614f3960a0830184614795565b979650505050505050565b614f4d81614b5e565b8114614f57575f5ffd5b50565b5f81359050614f6881614f44565b92915050565b5f60208284031215614f8357614f82614736565b5b5f614f9084828501614f5a565b91505092915050565b5f606082019050614fac5f8301866147ed565b614fb96020830185614795565b614fc66040830184614795565b949350505050565b5f819050919050565b5f614ff1614fec614fe7846147bd565b614fce565b6147bd565b9050919050565b5f61500282614fd7565b9050919050565b5f61501382614ff8565b9050919050565b61502381615009565b82525050565b5f60208201905061503c5f83018461501a565b92915050565b5f81519050919050565b5f82825260208201905092915050565b5f819050602082019050919050565b5f6150768383614972565b60208301905092915050565b5f602082019050919050565b5f61509882615042565b6150a2818561504c565b93506150ad8361505c565b805f5b838110156150dd5781516150c4888261506b565b97506150cf83615082565b9250506001810190506150b0565b5085935050505092915050565b5f6020820190508181035f830152615102818461508e565b905092915050565b7f4e487b71000000000000000000000000000000000000000000000000000000005f52601160045260245ffd5b5f6151418261478c565b915061514c8361478c565b92508282039050818111156151645761516361510a565b5b92915050565b5f6151748261478c565b915061517f8361478c565b925082820261518d8161478c565b915082820484148315176151a4576151a361510a565b5b5092915050565b7f4e487b71000000000000000000000000000000000000000000000000000000005f52601260045260245ffd5b5f6151e28261478c565b91506151ed8361478c565b9250826151fd576151fc6151ab565b5b828204905092915050565b7f50415553455f52454348415247452e00000000000000000000000000000000005f82015250565b5f61523c600f836146b5565b915061524782615208565b602082019050919050565b5f6020820190508181035f83015261526981615230565b9050919050565b5f8151905061527e81614815565b92915050565b5f815190506152928161483f565b92915050565b5f5f5f5f608085870312156152b0576152af614736565b5b5f6152bd87828801615270565b94505060206152ce87828801615284565b93505060406152df87828801615284565b92505060606152f087828801615284565b91505092959194509250565b5f819050919050565b5f67ffffffffffffffff82169050919050565b5f61533261532d615328846152fc565b614fce565b615305565b9050919050565b61534281615318565b82525050565b5f60208201905061535b5f830184615339565b92915050565b5f61536b8261478c565b91506153768361478c565b925082820190508082111561538e5761538d61510a565b5b92915050565b5f6040820190506153a75f8301856147ed565b6153b46020830184614795565b9392505050565b7f5245434f4d4d454e444154494f4e5f49535f52455155495245445f52454645525f8201527f52414c2e00000000000000000000000000000000000000000000000000000000602082015250565b5f6154156024836146b5565b9150615420826153bb565b604082019050919050565b5f6020820190508181035f83015261544281615409565b9050919050565b5f60408201905061545c5f8301856147ed565b61546960208301846147ed565b9392505050565b5f6060820190506154835f8301866147ed565b61549060208301856147ed565b61549d6040830184614795565b949350505050565b5f81519050919050565b5f81905092915050565b5f6154c3826154a5565b6154cd81856154af565b93506154dd818560208601614e7f565b80840191505092915050565b5f6154f482846154b9565b915081905092915050565b5f8151905061550d81614f44565b92915050565b5f6020828403121561552857615527614736565b5b5f615535848285016154ff565b91505092915050565b7f5472616e7366657248656c7065723a205452414e534645525f46524f4d5f46415f8201527f494c454400000000000000000000000000000000000000000000000000000000602082015250565b5f6155986024836146b5565b91506155a38261553e565b604082019050919050565b5f6020820190508181035f8301526155c58161558c565b9050919050565b6155d581614d8a565b81146155df575f5ffd5b50565b5f815190506155f0816155cc565b92915050565b5f6020828403121561560b5761560a614736565b5b5f615618848285016155e2565b91505092915050565b7f5472616e7366657248656c7065723a205452414e534645525f4641494c4544005f82015250565b5f615655601f836146b5565b915061566082615621565b602082019050919050565b5f6020820190508181035f83015261568281615649565b9050919050565b7f4e487b71000000000000000000000000000000000000000000000000000000005f52603260045260245ffd5b5f6156c08261478c565b91507fffffffffffffffffffffffffffffffffffffffffffffffffffffffffffffffff82036156f2576156f161510a565b5b60018201905091905056fea2646970667358221220a5d8a80ee1a66b04641c57532f7d7776563e673637dfb4dab291e9601e3c90b364736f6c634300081e0033","linkReferences":{}},"methodIdentifiers":{"DEAD()":"03fd2a45","MAX_REFERRAL_DEPTH()":"89e59ea0","UPGRADE_INTERFACE_VERSION()":"ad3cb1cc","USDT()":"c54e44eb","admin()":"f851a440","awardRecords(address,uint256)":"c023b3a5","claim()":"4e71d92d","decimals()":"313ce567","directReferrals(address,uint256)":"05ad3935","djsv1()":"ac6439b5","emergencyWithdraw(address,uint256,address)":"551512de","getDirectReferrals(address)":"d2c8e0e5","getInvalidStaking(address)":"19b12a53","getReferralAwardRecords(address)":"18785eb6","getUserAward(address)":"3e4ff6f2","getUserInfoBasic(address)":"b5006823","getUserInfoReferral(address)":"9238b0f9","getUserShareLevelAward(address)":"c7c93c94","getUserStakingAward(address)":"0acf716b","initialCode()":"10baf089","initialize(address,address,address,address,address)":"1459457a","isAddDirectReferrals(address)":"a3f2a64a","lastShareAwardTime()":"922be46d","liquidityManager()":"33827438","migrationReferral(address)":"0ff9ef12","node()":"d70754ec","owner()":"8da5cb5b","pancakeRouter()":"c21ebd07","pause()":"8456cb59","perSecondStakedAeward()":"905635d4","perSharePerformanceAward()":"db81c515","proxiableUUID()":"52d1902d","referral(address)":"7247959a","referralInfo(address)":"39540b0a","renounceOwnership()":"715018a6","setPause(bool)":"bedb86fb","shareRate()":"fb802a65","stake(uint256)":"a694fc3a","subCoinQuotas(uint8)":"00c4bb2b","swapSubToken(uint256)":"1b602f22","totalSharePerformance()":"d567aadb","totalStakedUsdt()":"b2859e2b","transferOwnership(address)":"f2fde38b","upgradeToAndCall(address,bytes)":"4f1ef286","userInfo(address)":"1959a002","whetherNeedMigrate(address)":"85215f7c"},"id":47}