{"abi":[{"type":"receive","stateMutability":"payable"},{"type":"function","name":"DEAD","inputs":[],"outputs":[{"name":"","type":"address","internalType":"address"}],"stateMutability":"view"},{"type":"function","name":"MAX_REFERRAL_DEPTH","inputs":[],"outputs":[{"name":"","type":"uint256","internalType":"uint256"}],"stateMutability":"view"},{"type":"function","name":"UPGRADE_INTERFACE_VERSION","inputs":[],"outputs":[{"name":"","type":"string","internalType":"string"}],"stateMutability":"view"},{"type":"function","name":"USDT","inputs":[],"outputs":[{"name":"","type":"address","internalType":"address"}],"stateMutability":"view"},{"type":"function","name":"admin","inputs":[],"outputs":[{"name":"","type":"address","internalType":"address"}],"stateMutability":"view"},{"type":"function","name":"awardRecords","inputs":[{"name":"","type":"address","internalType":"address"},{"name":"","type":"uint256","internalType":"uint256"}],"outputs":[{"name":"from","type":"address","internalType":"address"},{"name":"amount","type":"uint256","internalType":"uint256"},{"name":"time","type":"uint256","internalType":"uint256"}],"stateMutability":"view"},{"type":"function","name":"claim","inputs":[{"name":"amount","type":"uint256","internalType":"uint256"}],"outputs":[],"stateMutability":"nonpayable"},{"type":"function","name":"decimals","inputs":[],"outputs":[{"name":"","type":"uint256","internalType":"uint256"}],"stateMutability":"view"},{"type":"function","name":"directReferrals","inputs":[{"name":"","type":"address","internalType":"address"},{"name":"","type":"uint256","internalType":"uint256"}],"outputs":[{"name":"","type":"address","internalType":"address"}],"stateMutability":"view"},{"type":"function","name":"djsv1","inputs":[],"outputs":[{"name":"","type":"address","internalType":"address"}],"stateMutability":"view"},{"type":"function","name":"getShareLevelAward","inputs":[{"name":"user","type":"address","internalType":"address"}],"outputs":[{"name":"","type":"uint256","internalType":"uint256"}],"stateMutability":"view"},{"type":"function","name":"getUserAward","inputs":[{"name":"user","type":"address","internalType":"address"}],"outputs":[{"name":"","type":"uint256","internalType":"uint256"}],"stateMutability":"view"},{"type":"function","name":"getUserInfoBasic","inputs":[{"name":"user","type":"address","internalType":"address"}],"outputs":[{"name":"level","type":"uint8","internalType":"enum Process.Level"},{"name":"recommender","type":"address","internalType":"address"},{"name":"stakingUsdt","type":"uint256","internalType":"uint256"},{"name":"multiple","type":"uint256","internalType":"uint256"},{"name":"totalAward","type":"uint256","internalType":"uint256"},{"name":"shareAward","type":"uint256","internalType":"uint256"}],"stateMutability":"view"},{"type":"function","name":"getUserInfoReferral","inputs":[{"name":"user","type":"address","internalType":"address"}],"outputs":[{"name":"referralNum","type":"uint256","internalType":"uint256"},{"name":"performance","type":"uint256","internalType":"uint256"},{"name":"referralAward","type":"uint256","internalType":"uint256"},{"name":"subCoinQuota","type":"uint256","internalType":"uint256"},{"name":"isMigration","type":"bool","internalType":"bool"}],"stateMutability":"view"},{"type":"function","name":"initialCode","inputs":[],"outputs":[{"name":"","type":"address","internalType":"address"}],"stateMutability":"view"},{"type":"function","name":"initialize","inputs":[{"name":"_admin","type":"address","internalType":"address"},{"name":"_node","type":"address","internalType":"address"}],"outputs":[],"stateMutability":"nonpayable"},{"type":"function","name":"isAddDirectReferrals","inputs":[{"name":"","type":"address","internalType":"address"}],"outputs":[{"name":"","type":"bool","internalType":"bool"}],"stateMutability":"view"},{"type":"function","name":"lastShareAwardTime","inputs":[],"outputs":[{"name":"","type":"uint256","internalType":"uint256"}],"stateMutability":"view"},{"type":"function","name":"liquidityManager","inputs":[],"outputs":[{"name":"","type":"address","internalType":"address"}],"stateMutability":"view"},{"type":"function","name":"migrationReferral","inputs":[{"name":"user","type":"address","internalType":"address"}],"outputs":[],"stateMutability":"nonpayable"},{"type":"function","name":"node","inputs":[],"outputs":[{"name":"","type":"address","internalType":"address"}],"stateMutability":"view"},{"type":"function","name":"owner","inputs":[],"outputs":[{"name":"","type":"address","internalType":"address"}],"stateMutability":"view"},{"type":"function","name":"pancakeRouter","inputs":[],"outputs":[{"name":"","type":"address","internalType":"contract IUniswapV2Router02"}],"stateMutability":"view"},{"type":"function","name":"pause","inputs":[],"outputs":[{"name":"","type":"bool","internalType":"bool"}],"stateMutability":"view"},{"type":"function","name":"perSecondStakedAeward","inputs":[],"outputs":[{"name":"","type":"uint256","internalType":"uint256"}],"stateMutability":"view"},{"type":"function","name":"perSharePerformanceAward","inputs":[],"outputs":[{"name":"","type":"uint256","internalType":"uint256"}],"stateMutability":"view"},{"type":"function","name":"proxiableUUID","inputs":[],"outputs":[{"name":"","type":"bytes32","internalType":"bytes32"}],"stateMutability":"view"},{"type":"function","name":"referral","inputs":[{"name":"recommender","type":"address","internalType":"address"}],"outputs":[],"stateMutability":"nonpayable"},{"type":"function","name":"referralInfo","inputs":[{"name":"","type":"address","internalType":"address"}],"outputs":[{"name":"recommender","type":"address","internalType":"address"},{"name":"level","type":"uint8","internalType":"enum Process.Level"},{"name":"referralNum","type":"uint256","internalType":"uint256"},{"name":"performance","type":"uint256","internalType":"uint256"},{"name":"referralAward","type":"uint256","internalType":"uint256"},{"name":"subCoinQuota","type":"uint256","internalType":"uint256"},{"name":"shareAwardDebt","type":"uint256","internalType":"uint256"},{"name":"isMigration","type":"bool","internalType":"bool"}],"stateMutability":"view"},{"type":"function","name":"renounceOwnership","inputs":[],"outputs":[],"stateMutability":"nonpayable"},{"type":"function","name":"setPause","inputs":[{"name":"isPause","type":"bool","internalType":"bool"}],"outputs":[],"stateMutability":"nonpayable"},{"type":"function","name":"shareRate","inputs":[],"outputs":[{"name":"","type":"uint256","internalType":"uint256"}],"stateMutability":"view"},{"type":"function","name":"stake","inputs":[{"name":"amountUSDT","type":"uint256","internalType":"uint256"}],"outputs":[],"stateMutability":"nonpayable"},{"type":"function","name":"swapSubToken","inputs":[{"name":"amountUSDT","type":"uint256","internalType":"uint256"}],"outputs":[],"stateMutability":"nonpayable"},{"type":"function","name":"totalSharePerformance","inputs":[],"outputs":[{"name":"","type":"uint256","internalType":"uint256"}],"stateMutability":"view"},{"type":"function","name":"totalStakedUsdt","inputs":[],"outputs":[{"name":"","type":"uint256","internalType":"uint256"}],"stateMutability":"view"},{"type":"function","name":"transferOwnership","inputs":[{"name":"newOwner","type":"address","internalType":"address"}],"outputs":[],"stateMutability":"nonpayable"},{"type":"function","name":"upgradeToAndCall","inputs":[{"name":"newImplementation","type":"address","internalType":"address"},{"name":"data","type":"bytes","internalType":"bytes"}],"outputs":[],"stateMutability":"payable"},{"type":"function","name":"userInfo","inputs":[{"name":"","type":"address","internalType":"address"}],"outputs":[{"name":"stakingUsdt","type":"uint256","internalType":"uint256"},{"name":"multiple","type":"uint256","internalType":"uint256"},{"name":"stakingTime","type":"uint256","internalType":"uint256"},{"name":"pendingProfit","type":"uint256","internalType":"uint256"},{"name":"extracted","type":"uint256","internalType":"uint256"}],"stateMutability":"view"},{"type":"function","name":"whetherNeedMigrate","inputs":[{"name":"user","type":"address","internalType":"address"}],"outputs":[{"name":"","type":"bool","internalType":"bool"}],"stateMutability":"view"},{"type":"event","name":"Claimed","inputs":[{"name":"user","type":"address","indexed":false,"internalType":"address"},{"name":"amount","type":"uint256","indexed":false,"internalType":"uint256"}],"anonymous":false},{"type":"event","name":"Initialized","inputs":[{"name":"version","type":"uint64","indexed":false,"internalType":"uint64"}],"anonymous":false},{"type":"event","name":"OwnershipTransferred","inputs":[{"name":"previousOwner","type":"address","indexed":true,"internalType":"address"},{"name":"newOwner","type":"address","indexed":true,"internalType":"address"}],"anonymous":false},{"type":"event","name":"Referrals","inputs":[{"name":"recommender","type":"address","indexed":false,"internalType":"address"},{"name":"referred","type":"address","indexed":false,"internalType":"address"}],"anonymous":false},{"type":"event","name":"Staked","inputs":[{"name":"user","type":"address","indexed":false,"internalType":"address"},{"name":"amount","type":"uint256","indexed":false,"internalType":"uint256"}],"anonymous":false},{"type":"event","name":"Upgraded","inputs":[{"name":"implementation","type":"address","indexed":true,"internalType":"address"}],"anonymous":false},{"type":"error","name":"AddressEmptyCode","inputs":[{"name":"target","type":"address","internalType":"address"}]},{"type":"error","name":"AlreadyMigrated","inputs":[]},{"type":"error","name":"ERC1967InvalidImplementation","inputs":[{"name":"implementation","type":"address","internalType":"address"}]},{"type":"error","name":"ERC1967NonPayable","inputs":[]},{"type":"error","name":"FailedCall","inputs":[]},{"type":"error","name":"InsufficientQuota","inputs":[]},{"type":"error","name":"InvalidInitialization","inputs":[]},{"type":"error","name":"InvalidRecommender","inputs":[]},{"type":"error","name":"InviterExists","inputs":[]},{"type":"error","name":"NeedMigrate","inputs":[]},{"type":"error","name":"NoMigrationRequired","inputs":[]},{"type":"error","name":"NoReward","inputs":[]},{"type":"error","name":"NoStake","inputs":[]},{"type":"error","name":"NotInitializing","inputs":[]},{"type":"error","name":"NotRequiredReferral","inputs":[]},{"type":"error","name":"OwnableInvalidOwner","inputs":[{"name":"owner","type":"address","internalType":"address"}]},{"type":"error","name":"OwnableUnauthorizedAccount","inputs":[{"name":"account","type":"address","internalType":"address"}]},{"type":"error","name":"ReentrancyGuardReentrantCall","inputs":[]},{"type":"error","name":"UUPSUnauthorizedCallContext","inputs":[]},{"type":"error","name":"UUPSUnsupportedProxiableUUID","inputs":[{"name":"slot","type":"bytes32","internalType":"bytes32"}]},{"type":"error","name":"ZeroAddress","inputs":[]}],"bytecode":{"object":"0x60a06040523073ffffffffffffffffffffffffffffffffffffffff1660809073ffffffffffffffffffffffffffffffffffffffff168152507310ed43c718714eb63d5aa57b78b54704e256024e60015f6101000a81548173ffffffffffffffffffffffffffffffffffffffff021916908373ffffffffffffffffffffffffffffffffffffffff160217905550348015610096575f5ffd5b5060015f81905550608051614a096100c45f395f8181612b8b01528181612be00152612d9a0152614a095ff3fe60806040526004361061023e575f3560e01c8063905635d41161012d578063c023b3a5116100aa578063db81c5151161006e578063db81c515146108c8578063eeb05c2c146108f2578063f2fde38b1461092e578063f851a44014610956578063fb802a65146109805761027e565b8063c023b3a5146107e2578063c21ebd0714610820578063c54e44eb1461084a578063d567aadb14610874578063d70754ec1461089e5761027e565b8063ac6439b5116100f1578063ac6439b5146106fb578063ad3cb1cc14610725578063b2859e2b1461074f578063b500682314610779578063bedb86fb146107ba5761027e565b8063905635d414610603578063922be46d1461062d5780639238b0f914610657578063a3f2a64a14610697578063a694fc3a146106d35761027e565b80633e4ff6f2116101bb5780637247959a1161017f5780637247959a146105215780638456cb591461054957806385215f7c1461057357806389e59ea0146105af5780638da5cb5b146105d95761027e565b80633e4ff6f214610461578063485cc9551461049d5780634f1ef286146104c557806352d1902d146104e1578063715018a61461050b5761027e565b80631b602f22116102025780631b602f221461037a578063313ce567146103a257806333827438146103cc578063379607f5146103f657806339540b0a1461041e5761027e565b806303fd2a451461028257806305ad3935146102ac5780630ff9ef12146102e857806310baf089146103105780631959a0021461033a5761027e565b3661027e576040517f08c379a000000000000000000000000000000000000000000000000000000000815260040161027590613d12565b60405180910390fd5b5f5ffd5b34801561028d575f5ffd5b506102966109aa565b6040516102a39190613d6f565b60405180910390f35b3480156102b7575f5ffd5b506102d260048036038101906102cd9190613df6565b6109b0565b6040516102df9190613d6f565b60405180910390f35b3480156102f3575f5ffd5b5061030e60048036038101906103099190613e34565b6109f8565b005b34801561031b575f5ffd5b50610324610c45565b6040516103319190613d6f565b60405180910390f35b348015610345575f5ffd5b50610360600480360381019061035b9190613e34565b610c6a565b604051610371959493929190613e6e565b60405180910390f35b348015610385575f5ffd5b506103a0600480360381019061039b9190613ebf565b610c9c565b005b3480156103ad575f5ffd5b506103b6610e39565b6040516103c39190613eea565b60405180910390f35b3480156103d7575f5ffd5b506103e0610e3f565b6040516103ed9190613d6f565b60405180910390f35b348015610401575f5ffd5b5061041c60048036038101906104179190613ebf565b610e64565b005b348015610429575f5ffd5b50610444600480360381019061043f9190613e34565b61116f565b604051610458989796959493929190613f90565b60405180910390f35b34801561046c575f5ffd5b5061048760048036038101906104829190613e34565b6111ea565b6040516104949190613eea565b60405180910390f35b3480156104a8575f5ffd5b506104c360048036038101906104be919061400c565b61134c565b005b6104df60048036038101906104da9190614186565b6115a7565b005b3480156104ec575f5ffd5b506104f56115c6565b60405161050291906141f8565b60405180910390f35b348015610516575f5ffd5b5061051f6115f7565b005b34801561052c575f5ffd5b5061054760048036038101906105429190613e34565b61160a565b005b348015610554575f5ffd5b5061055d611a5b565b60405161056a9190614211565b60405180910390f35b34801561057e575f5ffd5b5061059960048036038101906105949190613e34565b611a6d565b6040516105a69190614211565b60405180910390f35b3480156105ba575f5ffd5b506105c3611b9b565b6040516105d09190613eea565b60405180910390f35b3480156105e4575f5ffd5b506105ed611ba1565b6040516105fa9190613d6f565b60405180910390f35b34801561060e575f5ffd5b50610617611bd6565b6040516106249190613eea565b60405180910390f35b348015610638575f5ffd5b50610641611bdc565b60405161064e9190613eea565b60405180910390f35b348015610662575f5ffd5b5061067d60048036038101906106789190613e34565b611be2565b60405161068e95949392919061422a565b60405180910390f35b3480156106a2575f5ffd5b506106bd60048036038101906106b89190613e34565b611d3a565b6040516106ca9190614211565b60405180910390f35b3480156106de575f5ffd5b506106f960048036038101906106f49190613ebf565b611d57565b005b348015610706575f5ffd5b5061070f61234c565b60405161071c9190613d6f565b60405180910390f35b348015610730575f5ffd5b50610739612371565b60405161074691906142cb565b60405180910390f35b34801561075a575f5ffd5b506107636123aa565b6040516107709190613eea565b60405180910390f35b348015610784575f5ffd5b5061079f600480360381019061079a9190613e34565b6123b0565b6040516107b1969594939291906142eb565b60405180910390f35b3480156107c5575f5ffd5b506107e060048036038101906107db9190614374565b612593565b005b3480156107ed575f5ffd5b5061080860048036038101906108039190613df6565b6125b7565b6040516108179392919061439f565b60405180910390f35b34801561082b575f5ffd5b50610834612616565b604051610841919061442f565b60405180910390f35b348015610855575f5ffd5b5061085e61263b565b60405161086b9190613d6f565b60405180910390f35b34801561087f575f5ffd5b50610888612653565b6040516108959190613eea565b60405180910390f35b3480156108a9575f5ffd5b506108b2612659565b6040516108bf9190613d6f565b60405180910390f35b3480156108d3575f5ffd5b506108dc61267e565b6040516108e99190613eea565b60405180910390f35b3480156108fd575f5ffd5b5061091860048036038101906109139190613e34565b612684565b6040516109259190613eea565b60405180910390f35b348015610939575f5ffd5b50610954600480360381019061094f9190613e34565b612892565b005b348015610961575f5ffd5b5061096a612916565b6040516109779190613d6f565b60405180910390f35b34801561098b575f5ffd5b5061099461293b565b6040516109a19190613eea565b60405180910390f35b61dead81565b600a602052815f5260405f2081815481106109c9575f80fd5b905f5260205f20015f915091509054906101000a900473ffffffffffffffffffffffffffffffffffffffff1681565b610a00612941565b600d5f9054906101000a900460ff1615610a4f576040517f08c379a0000000000000000000000000000000000000000000000000000000008152600401610a4690614492565b60405180910390fd5b5f60085f8373ffffffffffffffffffffffffffffffffffffffff1673ffffffffffffffffffffffffffffffffffffffff1681526020019081526020015f209050806006015f9054906101000a900460ff1615610ad7576040517fca1c3cbc00000000000000000000000000000000000000000000000000000000815260040160405180910390fd5b5f60045f9054906101000a900473ffffffffffffffffffffffffffffffffffffffff1673ffffffffffffffffffffffffffffffffffffffff16631959a002846040518263ffffffff1660e01b8152600401610b329190613d6f565b608060405180830381865afa158015610b4d573d5f5f3e3d5ffd5b505050506040513d601f19601f82011682018060405250810190610b7191906144d8565b50505090505f73ffffffffffffffffffffffffffffffffffffffff168173ffffffffffffffffffffffffffffffffffffffff1603610bdb576040517f9c9e07a800000000000000000000000000000000000000000000000000000000815260040160405180910390fd5b80825f015f6101000a81548173ffffffffffffffffffffffffffffffffffffffff021916908373ffffffffffffffffffffffffffffffffffffffff1602179055506001826006015f6101000a81548160ff0219169083151502179055505050610c42612985565b50565b60035f9054906101000a900473ffffffffffffffffffffffffffffffffffffffff1681565b6007602052805f5260405f205f91509050805f0154908060010154908060020154908060030154908060040154905085565b60085f3373ffffffffffffffffffffffffffffffffffffffff1673ffffffffffffffffffffffffffffffffffffffff1681526020019081526020015f2060040154811115610d16576040517f6aea990400000000000000000000000000000000000000000000000000000000815260040160405180910390fd5b610d577355d398326f99059ff775485246999027b31979553360065f9054906101000a900473ffffffffffffffffffffffffffffffffffffffff168461298e565b60065f9054906101000a900473ffffffffffffffffffffffffffffffffffffffff1673ffffffffffffffffffffffffffffffffffffffff166379e32cd933836040518363ffffffff1660e01b8152600401610db392919061453c565b5f604051808303815f87803b158015610dca575f5ffd5b505af1158015610ddc573d5f5f3e3d5ffd5b505050508060085f3373ffffffffffffffffffffffffffffffffffffffff1673ffffffffffffffffffffffffffffffffffffffff1681526020019081526020015f206004015f828254610e2f9190614590565b9250508190555050565b600f5481565b60065f9054906101000a900473ffffffffffffffffffffffffffffffffffffffff1681565b610e6c612941565b5f60075f3373ffffffffffffffffffffffffffffffffffffffff1673ffffffffffffffffffffffffffffffffffffffff1681526020019081526020015f2090505f815f015403610ee8576040517fcacf989a00000000000000000000000000000000000000000000000000000000815260040160405180910390fd5b610ef0612ac1565b5f610efa336111ea565b90505f8103610f35576040517f6e99268600000000000000000000000000000000000000000000000000000000815260040160405180910390fd5b5f818411610f435783610f45565b815b905080836003015410610f715780836003015f828254610f659190614590565b92505081905550610f7b565b5f83600301819055505b80836004015f828254610f8e91906145c3565b9250508190555060065f9054906101000a900473ffffffffffffffffffffffffffffffffffffffff1673ffffffffffffffffffffffffffffffffffffffff16632d019c4233836040518363ffffffff1660e01b8152600401610ff192919061453c565b5f604051808303815f87803b158015611008575f5ffd5b505af115801561101a573d5f5f3e3d5ffd5b5050505060068081111561103157611030613f03565b5b60085f3373ffffffffffffffffffffffffffffffffffffffff1673ffffffffffffffffffffffffffffffffffffffff1681526020019081526020015f205f0160149054906101000a900460ff1660068111156110905761108f613f03565b5b036111285760085f3373ffffffffffffffffffffffffffffffffffffffff1673ffffffffffffffffffffffffffffffffffffffff1681526020019081526020015f20600201546011546110e391906145f6565b60085f3373ffffffffffffffffffffffffffffffffffffffff1673ffffffffffffffffffffffffffffffffffffffff1681526020019081526020015f20600501819055505b7fd8138f8a3f377c5259ca548e70e4c2de94f129f5a11036a15b69513cba2b426a338260405161115992919061453c565b60405180910390a150505061116c612985565b50565b6008602052805f5260405f205f91509050805f015f9054906101000a900473ffffffffffffffffffffffffffffffffffffffff1690805f0160149054906101000a900460ff1690806001015490806002015490806003015490806004015490806005015490806006015f9054906101000a900460ff16905088565b5f5f60075f8473ffffffffffffffffffffffffffffffffffffffff1673ffffffffffffffffffffffffffffffffffffffff1681526020019081526020015f206040518060a00160405290815f820154815260200160018201548152602001600282015481526020016003820154815260200160048201548152505090505f815f01510361127a575f915050611347565b5f81604001514261128b9190614590565b90505f600f54600e5483855f01516112a391906145f6565b6112ad91906145f6565b6112b79190614664565b90505f6112c386612684565b90505f818386606001516112d791906145c3565b6112e191906145c3565b90505f8560200151865f01516112f791906145f6565b905080866080015110611312575f9650505050505050611347565b5f8660800151826113239190614590565b90508083111561133c5780975050505050505050611347565b829750505050505050505b919050565b5f611355612b5b565b90505f815f0160089054906101000a900460ff161590505f825f015f9054906101000a900467ffffffffffffffff1690505f5f8267ffffffffffffffff1614801561139d5750825b90505f60018367ffffffffffffffff161480156113d057505f3073ffffffffffffffffffffffffffffffffffffffff163b145b9050811580156113de575080155b15611415576040517ff92ee8a900000000000000000000000000000000000000000000000000000000815260040160405180910390fd5b6001855f015f6101000a81548167ffffffffffffffff021916908367ffffffffffffffff1602179055508315611462576001855f0160086101000a81548160ff0219169083151502179055505b61147261146d612b6e565b612b75565b8660025f6101000a81548173ffffffffffffffffffffffffffffffffffffffff021916908373ffffffffffffffffffffffffffffffffffffffff1602179055508560055f6101000a81548173ffffffffffffffffffffffffffffffffffffffff021916908373ffffffffffffffffffffffffffffffffffffffff1602179055506402540be400600f8190555062015180683635c9adc5dea00000600f5467a688906bd8b0000061152291906145f6565b61152c9190614664565b6115369190614664565b600e81905550600a601381905550831561159e575f855f0160086101000a81548160ff0219169083151502179055507fc7f505b2f371ae2175ee4913f4499e1f2633a7b5936321eed1cdaeb6115181d2600160405161159591906146e0565b60405180910390a15b50505050505050565b6115af612b89565b6115b882612c6f565b6115c28282612c7a565b5050565b5f6115cf612d98565b7f360894a13ba1a3210667c828492db98dca3e2076cc3735a920a3ca505d382bbc5f1b905090565b6115ff612e1f565b6116085f612ea6565b565b611612612941565b600d5f9054906101000a900460ff1615611661576040517f08c379a000000000000000000000000000000000000000000000000000000000815260040161165890614492565b60405180910390fd5b61166a33611a6d565b156116a1576040517f1d9410b700000000000000000000000000000000000000000000000000000000815260040160405180910390fd5b5f73ffffffffffffffffffffffffffffffffffffffff168173ffffffffffffffffffffffffffffffffffffffff1603611706576040517fd92e233d00000000000000000000000000000000000000000000000000000000815260040160405180910390fd5b3373ffffffffffffffffffffffffffffffffffffffff168173ffffffffffffffffffffffffffffffffffffffff160361176b576040517f4f2f060100000000000000000000000000000000000000000000000000000000815260040160405180910390fd5b60035f9054906101000a900473ffffffffffffffffffffffffffffffffffffffff1673ffffffffffffffffffffffffffffffffffffffff168173ffffffffffffffffffffffffffffffffffffffff16146118d7575f73ffffffffffffffffffffffffffffffffffffffff1660085f8373ffffffffffffffffffffffffffffffffffffffff1673ffffffffffffffffffffffffffffffffffffffff1681526020019081526020015f205f015f9054906101000a900473ffffffffffffffffffffffffffffffffffffffff1673ffffffffffffffffffffffffffffffffffffffff161415801561189757505f60075f8373ffffffffffffffffffffffffffffffffffffffff1673ffffffffffffffffffffffffffffffffffffffff1681526020019081526020015f205f0154115b6118d6576040517f08c379a00000000000000000000000000000000000000000000000000000000081526004016118cd90614769565b60405180910390fd5b5b5f73ffffffffffffffffffffffffffffffffffffffff1660085f3373ffffffffffffffffffffffffffffffffffffffff1673ffffffffffffffffffffffffffffffffffffffff1681526020019081526020015f205f015f9054906101000a900473ffffffffffffffffffffffffffffffffffffffff1673ffffffffffffffffffffffffffffffffffffffff161461199a576040517f5b3d5a1b00000000000000000000000000000000000000000000000000000000815260040160405180910390fd5b8060085f3373ffffffffffffffffffffffffffffffffffffffff1673ffffffffffffffffffffffffffffffffffffffff1681526020019081526020015f205f015f6101000a81548173ffffffffffffffffffffffffffffffffffffffff021916908373ffffffffffffffffffffffffffffffffffffffff1602179055507f455db5b564134af440ac23bd273ce313070080fc2c3d5d36c03f62de3c6284988133604051611a48929190614787565b60405180910390a1611a58612985565b50565b600d5f9054906101000a900460ff1681565b5f5f60045f9054906101000a900473ffffffffffffffffffffffffffffffffffffffff1673ffffffffffffffffffffffffffffffffffffffff16631959a002846040518263ffffffff1660e01b8152600401611ac99190613d6f565b608060405180830381865afa158015611ae4573d5f5f3e3d5ffd5b505050506040513d601f19601f82011682018060405250810190611b0891906144d8565b505050905060085f8473ffffffffffffffffffffffffffffffffffffffff1673ffffffffffffffffffffffffffffffffffffffff1681526020019081526020015f206006015f9054906101000a900460ff16158015611b9357505f73ffffffffffffffffffffffffffffffffffffffff168173ffffffffffffffffffffffffffffffffffffffff1614155b915050919050565b6103e881565b5f5f611bab612f77565b9050805f015f9054906101000a900473ffffffffffffffffffffffffffffffffffffffff1691505090565b600e5481565b60105481565b5f5f5f5f5f5f60085f8873ffffffffffffffffffffffffffffffffffffffff1673ffffffffffffffffffffffffffffffffffffffff1681526020019081526020015f20604051806101000160405290815f82015f9054906101000a900473ffffffffffffffffffffffffffffffffffffffff1673ffffffffffffffffffffffffffffffffffffffff1673ffffffffffffffffffffffffffffffffffffffff1681526020015f820160149054906101000a900460ff166006811115611ca957611ca8613f03565b5b6006811115611cbb57611cba613f03565b5b81526020016001820154815260200160028201548152602001600382015481526020016004820154815260200160058201548152602001600682015f9054906101000a900460ff16151515158152505090508060400151955080606001519450806080015193508060a0015192508060e0015191505091939590929450565b600b602052805f5260405f205f915054906101000a900460ff1681565b611d5f612941565b600d5f9054906101000a900460ff1615611dae576040517f08c379a0000000000000000000000000000000000000000000000000000000008152600401611da590614492565b60405180910390fd5b5f60075f3373ffffffffffffffffffffffffffffffffffffffff1673ffffffffffffffffffffffffffffffffffffffff1681526020019081526020015f2090505f73ffffffffffffffffffffffffffffffffffffffff1660085f3373ffffffffffffffffffffffffffffffffffffffff1673ffffffffffffffffffffffffffffffffffffffff1681526020019081526020015f205f015f9054906101000a900473ffffffffffffffffffffffffffffffffffffffff1673ffffffffffffffffffffffffffffffffffffffff1603611eb1576040517faf4d1ef200000000000000000000000000000000000000000000000000000000815260040160405180910390fd5b5f6064600184611ec191906145f6565b611ecb9190614664565b90505f6064600185611edd91906145f6565b611ee79190614664565b9050611f357355d398326f99059ff775485246999027b31979553360065f9054906101000a900473ffffffffffffffffffffffffffffffffffffffff168588611f309190614590565b61298e565b611f767355d398326f99059ff775485246999027b31979553360055f9054906101000a900473ffffffffffffffffffffffffffffffffffffffff168561298e565b60065f9054906101000a900473ffffffffffffffffffffffffffffffffffffffff1673ffffffffffffffffffffffffffffffffffffffff166303ec9fb0826040518263ffffffff1660e01b8152600401611fd09190613eea565b5f604051808303815f87803b158015611fe7575f5ffd5b505af1158015611ff9573d5f5f3e3d5ffd5b5050505060055f9054906101000a900473ffffffffffffffffffffffffffffffffffffffff1673ffffffffffffffffffffffffffffffffffffffff1663cc430ced836040518263ffffffff1660e01b81526004016120579190613eea565b5f604051808303815f87803b15801561206e575f5ffd5b505af1158015612080573d5f5f3e3d5ffd5b5050505060065f9054906101000a900473ffffffffffffffffffffffffffffffffffffffff1673ffffffffffffffffffffffffffffffffffffffff166351c6590a8284876120ce9190614590565b6120d89190614590565b6040518263ffffffff1660e01b81526004016120f49190613eea565b5f604051808303815f87803b15801561210b575f5ffd5b505af115801561211d573d5f5f3e3d5ffd5b505050505f61212b336111ea565b90505f8111156121505780846003015f82825461214891906145c3565b925050819055505b84845f015f82825461216291906145c3565b925050819055504284600201819055505f68a2a15d09519be00000855f01541161218d576002612190565b60035b60ff169050808560010154146121aa578085600101819055505b85600c5f8282546121bb91906145c3565b925050819055505f6121cd3388612f9e565b90505f8111156121f0578060125f8282546121e891906145c3565b925050819055505b6121f8612ac1565b60068081111561220b5761220a613f03565b5b60085f3373ffffffffffffffffffffffffffffffffffffffff1673ffffffffffffffffffffffffffffffffffffffff1681526020019081526020015f205f0160149054906101000a900460ff16600681111561226a57612269613f03565b5b036123025760085f3373ffffffffffffffffffffffffffffffffffffffff1673ffffffffffffffffffffffffffffffffffffffff1681526020019081526020015f20600201546011546122bd91906145f6565b60085f3373ffffffffffffffffffffffffffffffffffffffff1673ffffffffffffffffffffffffffffffffffffffff1681526020019081526020015f20600501819055505b7f9e71bc8eea02a63969f509818f2dafb9254532904319f9dbda79b67bd34a5f3d338860405161233392919061453c565b60405180910390a1505050505050612349612985565b50565b60045f9054906101000a900473ffffffffffffffffffffffffffffffffffffffff1681565b6040518060400160405280600581526020017f352e302e3000000000000000000000000000000000000000000000000000000081525081565b600c5481565b5f5f5f5f5f5f5f60075f8973ffffffffffffffffffffffffffffffffffffffff1673ffffffffffffffffffffffffffffffffffffffff1681526020019081526020015f206040518060a00160405290815f820154815260200160018201548152602001600282015481526020016003820154815260200160048201548152505090505f60085f8a73ffffffffffffffffffffffffffffffffffffffff1673ffffffffffffffffffffffffffffffffffffffff1681526020019081526020015f20604051806101000160405290815f82015f9054906101000a900473ffffffffffffffffffffffffffffffffffffffff1673ffffffffffffffffffffffffffffffffffffffff1673ffffffffffffffffffffffffffffffffffffffff1681526020015f820160149054906101000a900460ff1660068111156124f4576124f3613f03565b5b600681111561250657612505613f03565b5b81526020016001820154815260200160028201548152602001600382015481526020016004820154815260200160058201548152602001600682015f9054906101000a900460ff161515151581525050905080602001519750805f01519650815f015195508160200151945061257b896111ea565b935061258689612684565b9250505091939550919395565b61259b612e1f565b80600d5f6101000a81548160ff02191690831515021790555050565b6009602052815f5260405f2081815481106125d0575f80fd5b905f5260205f2090600302015f9150915050805f015f9054906101000a900473ffffffffffffffffffffffffffffffffffffffff16908060010154908060020154905083565b60015f9054906101000a900473ffffffffffffffffffffffffffffffffffffffff1681565b7355d398326f99059ff775485246999027b319795581565b60125481565b60055f9054906101000a900473ffffffffffffffffffffffffffffffffffffffff1681565b60115481565b5f5f60085f8473ffffffffffffffffffffffffffffffffffffffff1673ffffffffffffffffffffffffffffffffffffffff1681526020019081526020015f20604051806101000160405290815f82015f9054906101000a900473ffffffffffffffffffffffffffffffffffffffff1673ffffffffffffffffffffffffffffffffffffffff1673ffffffffffffffffffffffffffffffffffffffff1681526020015f820160149054906101000a900460ff16600681111561274757612746613f03565b5b600681111561275957612758613f03565b5b81526020016001820154815260200160028201548152602001600382015481526020016004820154815260200160058201548152602001600682015f9054906101000a900460ff16151515158152505090505f816060015114806127be57505f601254145b156127cc575f91505061288d565b5f60115490505f601054426127e19190614590565b90505f81111561283f575f6064601354600e5484600c5461280291906145f6565b61280c91906145f6565b61281691906145f6565b6128209190614664565b9050601254816128309190614664565b8361283b91906145c3565b9250505b5f600f5483856060015161285391906145f6565b61285d9190614664565b90508360c001518111612876575f94505050505061288d565b8360c00151816128869190614590565b9450505050505b919050565b61289a612e1f565b5f73ffffffffffffffffffffffffffffffffffffffff168173ffffffffffffffffffffffffffffffffffffffff160361290a575f6040517f1e4fbdf70000000000000000000000000000000000000000000000000000000081526004016129019190613d6f565b60405180910390fd5b61291381612ea6565b50565b60025f9054906101000a900473ffffffffffffffffffffffffffffffffffffffff1681565b60135481565b60025f540361297c576040517f3ee5aeb500000000000000000000000000000000000000000000000000000000815260040160405180910390fd5b60025f81905550565b60015f81905550565b5f5f8573ffffffffffffffffffffffffffffffffffffffff166323b872dd8686866040516024016129c1939291906147ae565b6040516020818303038152906040529060e01b6020820180517bffffffffffffffffffffffffffffffffffffffffffffffffffffffff8381831617835250505050604051612a0f9190614827565b5f604051808303815f865af19150503d805f8114612a48576040519150601f19603f3d011682016040523d82523d5f602084013e612a4d565b606091505b5091509150818015612a7a57505f81511480612a79575080806020019051810190612a789190614851565b5b5b612ab9576040517f08c379a0000000000000000000000000000000000000000000000000000000008152600401612ab0906148ec565b60405180910390fd5b505050505050565b5f60105442612ad09190614590565b90505f811480612ae157505f601254145b15612af3574260108190555050612b59565b5f6064601354600e5484600c54612b0a91906145f6565b612b1491906145f6565b612b1e91906145f6565b612b289190614664565b905060125481612b389190614664565b60115f828254612b4891906145c3565b925050819055504260108190555050505b565b5f5f612b6561359a565b90508091505090565b5f33905090565b612b7d6135c3565b612b8681613603565b50565b7f000000000000000000000000000000000000000000000000000000000000000073ffffffffffffffffffffffffffffffffffffffff163073ffffffffffffffffffffffffffffffffffffffff161480612c3657507f000000000000000000000000000000000000000000000000000000000000000073ffffffffffffffffffffffffffffffffffffffff16612c1d613687565b73ffffffffffffffffffffffffffffffffffffffff1614155b15612c6d576040517fe07c8dba00000000000000000000000000000000000000000000000000000000815260040160405180910390fd5b565b612c77612e1f565b50565b8173ffffffffffffffffffffffffffffffffffffffff166352d1902d6040518163ffffffff1660e01b8152600401602060405180830381865afa925050508015612ce257506040513d601f19601f82011682018060405250810190612cdf9190614934565b60015b612d2357816040517f4c9c8ce3000000000000000000000000000000000000000000000000000000008152600401612d1a9190613d6f565b60405180910390fd5b7f360894a13ba1a3210667c828492db98dca3e2076cc3735a920a3ca505d382bbc5f1b8114612d8957806040517faa1d49a4000000000000000000000000000000000000000000000000000000008152600401612d8091906141f8565b60405180910390fd5b612d9383836136da565b505050565b7f000000000000000000000000000000000000000000000000000000000000000073ffffffffffffffffffffffffffffffffffffffff163073ffffffffffffffffffffffffffffffffffffffff1614612e1d576040517fe07c8dba00000000000000000000000000000000000000000000000000000000815260040160405180910390fd5b565b612e27612b6e565b73ffffffffffffffffffffffffffffffffffffffff16612e45611ba1565b73ffffffffffffffffffffffffffffffffffffffff1614612ea457612e68612b6e565b6040517f118cdaa7000000000000000000000000000000000000000000000000000000008152600401612e9b9190613d6f565b60405180910390fd5b565b5f612eaf612f77565b90505f815f015f9054906101000a900473ffffffffffffffffffffffffffffffffffffffff16905082825f015f6101000a81548173ffffffffffffffffffffffffffffffffffffffff021916908373ffffffffffffffffffffffffffffffffffffffff1602179055508273ffffffffffffffffffffffffffffffffffffffff168173ffffffffffffffffffffffffffffffffffffffff167f8be0079c531659141344cd1fd0a4f28419497f9722a3daafe3b4186f6b6457e060405160405180910390a3505050565b5f7f9016d09d72d40fdae2fd8ceac6b6234c7706214fd39c1cd1e609a0528c199300905090565b5f5f60085f8573ffffffffffffffffffffffffffffffffffffffff1673ffffffffffffffffffffffffffffffffffffffff1681526020019081526020015f205f015f9054906101000a900473ffffffffffffffffffffffffffffffffffffffff169050613009613c96565b5f603290505f93505b5f73ffffffffffffffffffffffffffffffffffffffff168373ffffffffffffffffffffffffffffffffffffffff16146134fa575f60085f8573ffffffffffffffffffffffffffffffffffffffff1673ffffffffffffffffffffffffffffffffffffffff1681526020019081526020015f2090505f5f90505f5f90505b600a5f8773ffffffffffffffffffffffffffffffffffffffff1673ffffffffffffffffffffffffffffffffffffffff1681526020019081526020015f20805490508110156131e057600560068111156130ea576130e9613f03565b5b60085f600a5f8a73ffffffffffffffffffffffffffffffffffffffff1673ffffffffffffffffffffffffffffffffffffffff1681526020019081526020015f20848154811061313c5761313b61495f565b5b905f5260205f20015f9054906101000a900473ffffffffffffffffffffffffffffffffffffffff1673ffffffffffffffffffffffffffffffffffffffff1673ffffffffffffffffffffffffffffffffffffffff1681526020019081526020015f205f0160149054906101000a900460ff1660068111156131bf576131be613f03565b5b036131d35781806131cf9061498c565b9250505b808060010191505061308e565b505f5f6132d384604051806101000160405290815f82015f9054906101000a900473ffffffffffffffffffffffffffffffffffffffff1673ffffffffffffffffffffffffffffffffffffffff1673ffffffffffffffffffffffffffffffffffffffff1681526020015f820160149054906101000a900460ff16600681111561326b5761326a613f03565b5b600681111561327d5761327c613f03565b5b81526020016001820154815260200160028201548152602001600382015481526020016004820154815260200160058201548152602001600682015f9054906101000a900460ff1615151515815250508461374c565b9150915081845f0160146101000a81548160ff021916908360068111156132fd576132fc613f03565b5b0217905550808861330e91906145c3565b97505f5f61332d865f0160149054906101000a900460ff16898d6139a7565b9150915080156134955781866003015f82825461334a91906145c3565b9250508190555060095f8a73ffffffffffffffffffffffffffffffffffffffff1673ffffffffffffffffffffffffffffffffffffffff1681526020019081526020015f2060405180606001604052808e73ffffffffffffffffffffffffffffffffffffffff16815260200184815260200142815250908060018154018082558091505060019003905f5260205f2090600302015f909190919091505f820151815f015f6101000a81548173ffffffffffffffffffffffffffffffffffffffff021916908373ffffffffffffffffffffffffffffffffffffffff16021790555060208201518160010155604082015181600201555050600188875f0160149054906101000a900460ff16600681111561346557613464613f03565b5b600681106134765761347561495f565b5b602002019015159081151581525050600a876134929190614590565b96505b6001866001015f8282546134a991906145c3565b925050819055508a866002015f8282546134c391906145c3565b92505081905550855f015f9054906101000a900473ffffffffffffffffffffffffffffffffffffffff169850505050505050613012565b5f811115613591576064818661351091906145f6565b61351a9190614664565b60085f60035f9054906101000a900473ffffffffffffffffffffffffffffffffffffffff1673ffffffffffffffffffffffffffffffffffffffff1673ffffffffffffffffffffffffffffffffffffffff1681526020019081526020015f206003015f82825461358991906145c3565b925050819055505b50505092915050565b5f7ff0c57e16840df040f15088dc2f81fe391c3923bec73e23a9662efc9c229c6a005f1b905090565b6135cb613a36565b613601576040517fd7e6bcf800000000000000000000000000000000000000000000000000000000815260040160405180910390fd5b565b61360b6135c3565b5f73ffffffffffffffffffffffffffffffffffffffff168173ffffffffffffffffffffffffffffffffffffffff160361367b575f6040517f1e4fbdf70000000000000000000000000000000000000000000000000000000081526004016136729190613d6f565b60405180910390fd5b61368481612ea6565b50565b5f6136b37f360894a13ba1a3210667c828492db98dca3e2076cc3735a920a3ca505d382bbc5f1b613a54565b5f015f9054906101000a900473ffffffffffffffffffffffffffffffffffffffff16905090565b6136e382613a5d565b8173ffffffffffffffffffffffffffffffffffffffff167fbc7cd75a20ee27fd9adebab32041f755214dbc6bffa90cc0225b39da2e5c2d3b60405160405180910390a25f8151111561373f576137398282613b26565b50613748565b613747613c17565b5b5050565b5f5f836020015191505f90505f600681111561376b5761376a613f03565b5b8460200151600681111561378257613781613f03565b5b14801561379457506003846040015110155b80156137ae575069021e19e0c9bab2400000846060015110155b156137bc57600191506139a0565b600160068111156137d0576137cf613f03565b5b846020015160068111156137e7576137e6613f03565b5b1480156137f957506004846040015110155b80156138135750690a968163f0a57b400000846060015110155b15613821576002915061399f565b6002600681111561383557613834613f03565b5b8460200151600681111561384c5761384b613f03565b5b14801561385e57506005846040015110155b80156138785750692a5a058fc295ed000000846060015110155b15613886576003915061399e565b6003600681111561389a57613899613f03565b5b846020015160068111156138b1576138b0613f03565b5b1480156138c357506007846040015110155b80156138dd575069a968163f0a57b4000000846060015110155b156138eb576004915061399d565b600460068111156138ff576138fe613f03565b5b8460200151600681111561391657613915613f03565b5b14801561392857506009846040015110155b801561394357506a027b46536c66c8e3000000846060015110155b15613951576005915061399c565b6005600681111561396557613964613f03565b5b8460200151600681111561397c5761397b613f03565b5b14801561398a575060028310155b1561399b5760069150836060015190505b5b5b5b5b5b9250929050565b5f5f5f91505f90506006808111156139c2576139c1613f03565b5b8560068111156139d5576139d4613f03565b5b14613a2e575f8560068111156139ee576139ed613f03565b5b9050848160068110613a0357613a0261495f565b5b6020020151613a2c576064600a85613a1b91906145f6565b613a259190614664565b9250600191505b505b935093915050565b5f613a3f612b5b565b5f0160089054906101000a900460ff16905090565b5f819050919050565b5f8173ffffffffffffffffffffffffffffffffffffffff163b03613ab857806040517f4c9c8ce3000000000000000000000000000000000000000000000000000000008152600401613aaf9190613d6f565b60405180910390fd5b80613ae47f360894a13ba1a3210667c828492db98dca3e2076cc3735a920a3ca505d382bbc5f1b613a54565b5f015f6101000a81548173ffffffffffffffffffffffffffffffffffffffff021916908373ffffffffffffffffffffffffffffffffffffffff16021790555050565b60605f613b338484613c53565b9050808015613b6957505f613b46613c67565b1180613b6857505f8473ffffffffffffffffffffffffffffffffffffffff163b115b5b15613b7e57613b76613c6e565b915050613c11565b8015613bc157836040517f9996b315000000000000000000000000000000000000000000000000000000008152600401613bb89190613d6f565b60405180910390fd5b5f613bca613c67565b1115613bdd57613bd8613c8b565b613c0f565b6040517fd6bda27500000000000000000000000000000000000000000000000000000000815260040160405180910390fd5b505b92915050565b5f341115613c51576040517fb398979f00000000000000000000000000000000000000000000000000000000815260040160405180910390fd5b565b5f5f5f835160208501865af4905092915050565b5f3d905090565b606060405190503d81523d5f602083013e3d602001810160405290565b6040513d5f823e3d81fd5b6040518060c00160405280600690602082028036833780820191505090505090565b5f82825260208201905092915050565b7f4e4f5f4449524543545f53454e440000000000000000000000000000000000005f82015250565b5f613cfc600e83613cb8565b9150613d0782613cc8565b602082019050919050565b5f6020820190508181035f830152613d2981613cf0565b9050919050565b5f73ffffffffffffffffffffffffffffffffffffffff82169050919050565b5f613d5982613d30565b9050919050565b613d6981613d4f565b82525050565b5f602082019050613d825f830184613d60565b92915050565b5f604051905090565b5f5ffd5b5f5ffd5b613da281613d4f565b8114613dac575f5ffd5b50565b5f81359050613dbd81613d99565b92915050565b5f819050919050565b613dd581613dc3565b8114613ddf575f5ffd5b50565b5f81359050613df081613dcc565b92915050565b5f5f60408385031215613e0c57613e0b613d91565b5b5f613e1985828601613daf565b9250506020613e2a85828601613de2565b9150509250929050565b5f60208284031215613e4957613e48613d91565b5b5f613e5684828501613daf565b91505092915050565b613e6881613dc3565b82525050565b5f60a082019050613e815f830188613e5f565b613e8e6020830187613e5f565b613e9b6040830186613e5f565b613ea86060830185613e5f565b613eb56080830184613e5f565b9695505050505050565b5f60208284031215613ed457613ed3613d91565b5b5f613ee184828501613de2565b91505092915050565b5f602082019050613efd5f830184613e5f565b92915050565b7f4e487b71000000000000000000000000000000000000000000000000000000005f52602160045260245ffd5b60078110613f4157613f40613f03565b5b50565b5f819050613f5182613f30565b919050565b5f613f6082613f44565b9050919050565b613f7081613f56565b82525050565b5f8115159050919050565b613f8a81613f76565b82525050565b5f61010082019050613fa45f83018b613d60565b613fb1602083018a613f67565b613fbe6040830189613e5f565b613fcb6060830188613e5f565b613fd86080830187613e5f565b613fe560a0830186613e5f565b613ff260c0830185613e5f565b613fff60e0830184613f81565b9998505050505050505050565b5f5f6040838503121561402257614021613d91565b5b5f61402f85828601613daf565b925050602061404085828601613daf565b9150509250929050565b5f5ffd5b5f5ffd5b5f601f19601f8301169050919050565b7f4e487b71000000000000000000000000000000000000000000000000000000005f52604160045260245ffd5b61409882614052565b810181811067ffffffffffffffff821117156140b7576140b6614062565b5b80604052505050565b5f6140c9613d88565b90506140d5828261408f565b919050565b5f67ffffffffffffffff8211156140f4576140f3614062565b5b6140fd82614052565b9050602081019050919050565b828183375f83830152505050565b5f61412a614125846140da565b6140c0565b9050828152602081018484840111156141465761414561404e565b5b61415184828561410a565b509392505050565b5f82601f83011261416d5761416c61404a565b5b813561417d848260208601614118565b91505092915050565b5f5f6040838503121561419c5761419b613d91565b5b5f6141a985828601613daf565b925050602083013567ffffffffffffffff8111156141ca576141c9613d95565b5b6141d685828601614159565b9150509250929050565b5f819050919050565b6141f2816141e0565b82525050565b5f60208201905061420b5f8301846141e9565b92915050565b5f6020820190506142245f830184613f81565b92915050565b5f60a08201905061423d5f830188613e5f565b61424a6020830187613e5f565b6142576040830186613e5f565b6142646060830185613e5f565b6142716080830184613f81565b9695505050505050565b5f81519050919050565b8281835e5f83830152505050565b5f61429d8261427b565b6142a78185613cb8565b93506142b7818560208601614285565b6142c081614052565b840191505092915050565b5f6020820190508181035f8301526142e38184614293565b905092915050565b5f60c0820190506142fe5f830189613f67565b61430b6020830188613d60565b6143186040830187613e5f565b6143256060830186613e5f565b6143326080830185613e5f565b61433f60a0830184613e5f565b979650505050505050565b61435381613f76565b811461435d575f5ffd5b50565b5f8135905061436e8161434a565b92915050565b5f6020828403121561438957614388613d91565b5b5f61439684828501614360565b91505092915050565b5f6060820190506143b25f830186613d60565b6143bf6020830185613e5f565b6143cc6040830184613e5f565b949350505050565b5f819050919050565b5f6143f76143f26143ed84613d30565b6143d4565b613d30565b9050919050565b5f614408826143dd565b9050919050565b5f614419826143fe565b9050919050565b6144298161440f565b82525050565b5f6020820190506144425f830184614420565b92915050565b7f50415553455f52454348415247452e00000000000000000000000000000000005f82015250565b5f61447c600f83613cb8565b915061448782614448565b602082019050919050565b5f6020820190508181035f8301526144a981614470565b9050919050565b5f815190506144be81613d99565b92915050565b5f815190506144d281613dcc565b92915050565b5f5f5f5f608085870312156144f0576144ef613d91565b5b5f6144fd878288016144b0565b945050602061450e878288016144c4565b935050604061451f878288016144c4565b9250506060614530878288016144c4565b91505092959194509250565b5f60408201905061454f5f830185613d60565b61455c6020830184613e5f565b9392505050565b7f4e487b71000000000000000000000000000000000000000000000000000000005f52601160045260245ffd5b5f61459a82613dc3565b91506145a583613dc3565b92508282039050818111156145bd576145bc614563565b5b92915050565b5f6145cd82613dc3565b91506145d883613dc3565b92508282019050808211156145f0576145ef614563565b5b92915050565b5f61460082613dc3565b915061460b83613dc3565b925082820261461981613dc3565b915082820484148315176146305761462f614563565b5b5092915050565b7f4e487b71000000000000000000000000000000000000000000000000000000005f52601260045260245ffd5b5f61466e82613dc3565b915061467983613dc3565b92508261468957614688614637565b5b828204905092915050565b5f819050919050565b5f67ffffffffffffffff82169050919050565b5f6146ca6146c56146c084614694565b6143d4565b61469d565b9050919050565b6146da816146b0565b82525050565b5f6020820190506146f35f8301846146d1565b92915050565b7f5245434f4d4d454e444154494f4e5f49535f52455155495245445f52454645525f8201527f52414c2e00000000000000000000000000000000000000000000000000000000602082015250565b5f614753602483613cb8565b915061475e826146f9565b604082019050919050565b5f6020820190508181035f83015261478081614747565b9050919050565b5f60408201905061479a5f830185613d60565b6147a76020830184613d60565b9392505050565b5f6060820190506147c15f830186613d60565b6147ce6020830185613d60565b6147db6040830184613e5f565b949350505050565b5f81519050919050565b5f81905092915050565b5f614801826147e3565b61480b81856147ed565b935061481b818560208601614285565b80840191505092915050565b5f61483282846147f7565b915081905092915050565b5f8151905061484b8161434a565b92915050565b5f6020828403121561486657614865613d91565b5b5f6148738482850161483d565b91505092915050565b7f5472616e7366657248656c7065723a205452414e534645525f46524f4d5f46415f8201527f494c454400000000000000000000000000000000000000000000000000000000602082015250565b5f6148d6602483613cb8565b91506148e18261487c565b604082019050919050565b5f6020820190508181035f830152614903816148ca565b9050919050565b614913816141e0565b811461491d575f5ffd5b50565b5f8151905061492e8161490a565b92915050565b5f6020828403121561494957614948613d91565b5b5f61495684828501614920565b91505092915050565b7f4e487b71000000000000000000000000000000000000000000000000000000005f52603260045260245ffd5b5f61499682613dc3565b91507fffffffffffffffffffffffffffffffffffffffffffffffffffffffffffffffff82036149c8576149c7614563565b5b60018201905091905056fea26469706673582212205926be805563ade4c2c1a9cfdfcf37c470fe34e4cd7bfd153118f6b8530f5a6364736f6c634300081e0033","linkReferences":{}},"methodIdentifiers":{"DEAD()":"03fd2a45","MAX_REFERRAL_DEPTH()":"89e59ea0","UPGRADE_INTERFACE_VERSION()":"ad3cb1cc","USDT()":"c54e44eb","admin()":"f851a440","awardRecords(address,uint256)":"c023b3a5","claim(uint256)":"379607f5","decimals()":"313ce567","directReferrals(address,uint256)":"05ad3935","djsv1()":"ac6439b5","getShareLevelAward(address)":"eeb05c2c","getUserAward(address)":"3e4ff6f2","getUserInfoBasic(address)":"b5006823","getUserInfoReferral(address)":"9238b0f9","initialCode()":"10baf089","initialize(address,address)":"485cc955","isAddDirectReferrals(address)":"a3f2a64a","lastShareAwardTime()":"922be46d","liquidityManager()":"33827438","migrationReferral(address)":"0ff9ef12","node()":"d70754ec","owner()":"8da5cb5b","pancakeRouter()":"c21ebd07","pause()":"8456cb59","perSecondStakedAeward()":"905635d4","perSharePerformanceAward()":"db81c515","proxiableUUID()":"52d1902d","referral(address)":"7247959a","referralInfo(address)":"39540b0a","renounceOwnership()":"715018a6","setPause(bool)":"bedb86fb","shareRate()":"fb802a65","stake(uint256)":"a694fc3a","swapSubToken(uint256)":"1b602f22","totalSharePerformance()":"d567aadb","totalStakedUsdt()":"b2859e2b","transferOwnership(address)":"f2fde38b","upgradeToAndCall(address,bytes)":"4f1ef286","userInfo(address)":"1959a002","whetherNeedMigrate(address)":"85215f7c"},"id":42}