{"abi":[{"type":"constructor","inputs":[],"stateMutability":"nonpayable"},{"type":"function","name":"approve","inputs":[{"name":"to","type":"address","internalType":"address"},{"name":"tokenId","type":"uint256","internalType":"uint256"}],"outputs":[],"stateMutability":"nonpayable"},{"type":"function","name":"balanceOf","inputs":[{"name":"owner","type":"address","internalType":"address"}],"outputs":[{"name":"","type":"uint256","internalType":"uint256"}],"stateMutability":"view"},{"type":"function","name":"getApproved","inputs":[{"name":"tokenId","type":"uint256","internalType":"uint256"}],"outputs":[{"name":"","type":"address","internalType":"address"}],"stateMutability":"view"},{"type":"function","name":"isApprovedForAll","inputs":[{"name":"owner","type":"address","internalType":"address"},{"name":"operator","type":"address","internalType":"address"}],"outputs":[{"name":"","type":"bool","internalType":"bool"}],"stateMutability":"view"},{"type":"function","name":"mint","inputs":[{"name":"to","type":"address","internalType":"address"}],"outputs":[],"stateMutability":"nonpayable"},{"type":"function","name":"name","inputs":[],"outputs":[{"name":"","type":"string","internalType":"string"}],"stateMutability":"view"},{"type":"function","name":"owner","inputs":[],"outputs":[{"name":"","type":"address","internalType":"address"}],"stateMutability":"view"},{"type":"function","name":"ownerOf","inputs":[{"name":"tokenId","type":"uint256","internalType":"uint256"}],"outputs":[{"name":"","type":"address","internalType":"address"}],"stateMutability":"view"},{"type":"function","name":"renounceOwnership","inputs":[],"outputs":[],"stateMutability":"nonpayable"},{"type":"function","name":"safeTransferFrom","inputs":[{"name":"from","type":"address","internalType":"address"},{"name":"to","type":"address","internalType":"address"},{"name":"tokenId","type":"uint256","internalType":"uint256"}],"outputs":[],"stateMutability":"nonpayable"},{"type":"function","name":"safeTransferFrom","inputs":[{"name":"from","type":"address","internalType":"address"},{"name":"to","type":"address","internalType":"address"},{"name":"tokenId","type":"uint256","internalType":"uint256"},{"name":"data","type":"bytes","internalType":"bytes"}],"outputs":[],"stateMutability":"nonpayable"},{"type":"function","name":"setApprovalForAll","inputs":[{"name":"operator","type":"address","internalType":"address"},{"name":"approved","type":"bool","internalType":"bool"}],"outputs":[],"stateMutability":"nonpayable"},{"type":"function","name":"setBaseURI","inputs":[{"name":"newBaseURI","type":"string","internalType":"string"}],"outputs":[],"stateMutability":"nonpayable"},{"type":"function","name":"supportsInterface","inputs":[{"name":"interfaceId","type":"bytes4","internalType":"bytes4"}],"outputs":[{"name":"","type":"bool","internalType":"bool"}],"stateMutability":"view"},{"type":"function","name":"symbol","inputs":[],"outputs":[{"name":"","type":"string","internalType":"string"}],"stateMutability":"view"},{"type":"function","name":"tokenURI","inputs":[{"name":"tokenId","type":"uint256","internalType":"uint256"}],"outputs":[{"name":"","type":"string","internalType":"string"}],"stateMutability":"view"},{"type":"function","name":"transferFrom","inputs":[{"name":"from","type":"address","internalType":"address"},{"name":"to","type":"address","internalType":"address"},{"name":"tokenId","type":"uint256","internalType":"uint256"}],"outputs":[],"stateMutability":"nonpayable"},{"type":"function","name":"transferOwnership","inputs":[{"name":"newOwner","type":"address","internalType":"address"}],"outputs":[],"stateMutability":"nonpayable"},{"type":"event","name":"Approval","inputs":[{"name":"owner","type":"address","indexed":true,"internalType":"address"},{"name":"approved","type":"address","indexed":true,"internalType":"address"},{"name":"tokenId","type":"uint256","indexed":true,"internalType":"uint256"}],"anonymous":false},{"type":"event","name":"ApprovalForAll","inputs":[{"name":"owner","type":"address","indexed":true,"internalType":"address"},{"name":"operator","type":"address","indexed":true,"internalType":"address"},{"name":"approved","type":"bool","indexed":false,"internalType":"bool"}],"anonymous":false},{"type":"event","name":"OwnershipTransferred","inputs":[{"name":"previousOwner","type":"address","indexed":true,"internalType":"address"},{"name":"newOwner","type":"address","indexed":true,"internalType":"address"}],"anonymous":false},{"type":"event","name":"Transfer","inputs":[{"name":"from","type":"address","indexed":true,"internalType":"address"},{"name":"to","type":"address","indexed":true,"internalType":"address"},{"name":"tokenId","type":"uint256","indexed":true,"internalType":"uint256"}],"anonymous":false},{"type":"error","name":"ERC721IncorrectOwner","inputs":[{"name":"sender","type":"address","internalType":"address"},{"name":"tokenId","type":"uint256","internalType":"uint256"},{"name":"owner","type":"address","internalType":"address"}]},{"type":"error","name":"ERC721InsufficientApproval","inputs":[{"name":"operator","type":"address","internalType":"address"},{"name":"tokenId","type":"uint256","internalType":"uint256"}]},{"type":"error","name":"ERC721InvalidApprover","inputs":[{"name":"approver","type":"address","internalType":"address"}]},{"type":"error","name":"ERC721InvalidOperator","inputs":[{"name":"operator","type":"address","internalType":"address"}]},{"type":"error","name":"ERC721InvalidOwner","inputs":[{"name":"owner","type":"address","internalType":"address"}]},{"type":"error","name":"ERC721InvalidReceiver","inputs":[{"name":"receiver","type":"address","internalType":"address"}]},{"type":"error","name":"ERC721InvalidSender","inputs":[{"name":"sender","type":"address","internalType":"address"}]},{"type":"error","name":"ERC721NonexistentToken","inputs":[{"name":"tokenId","type":"uint256","internalType":"uint256"}]},{"type":"error","name":"OwnableInvalidOwner","inputs":[{"name":"owner","type":"address","internalType":"address"}]},{"type":"error","name":"OwnableUnauthorizedAccount","inputs":[{"name":"account","type":"address","internalType":"address"}]}],"bytecode":{"object":"0x608060405234801561000f575f5ffd5b50336040518060400160405280600381526020017f544e4600000000000000000000000000000000000000000000000000000000008152506040518060400160405280600381526020017f544e460000000000000000000000000000000000000000000000000000000000815250815f908161008b9190610423565b50806001908161009b9190610423565b5050505f73ffffffffffffffffffffffffffffffffffffffff168173ffffffffffffffffffffffffffffffffffffffff160361010e575f6040517f1e4fbdf70000000000000000000000000000000000000000000000000000000081526004016101059190610531565b60405180910390fd5b61011d8161012360201b60201c565b5061054a565b5f60065f9054906101000a900473ffffffffffffffffffffffffffffffffffffffff1690508160065f6101000a81548173ffffffffffffffffffffffffffffffffffffffff021916908373ffffffffffffffffffffffffffffffffffffffff1602179055508173ffffffffffffffffffffffffffffffffffffffff168173ffffffffffffffffffffffffffffffffffffffff167f8be0079c531659141344cd1fd0a4f28419497f9722a3daafe3b4186f6b6457e060405160405180910390a35050565b5f81519050919050565b7f4e487b71000000000000000000000000000000000000000000000000000000005f52604160045260245ffd5b7f4e487b71000000000000000000000000000000000000000000000000000000005f52602260045260245ffd5b5f600282049050600182168061026157607f821691505b6020821081036102745761027361021d565b5b50919050565b5f819050815f5260205f209050919050565b5f6020601f8301049050919050565b5f82821b905092915050565b5f600883026102d67fffffffffffffffffffffffffffffffffffffffffffffffffffffffffffffffff8261029b565b6102e0868361029b565b95508019841693508086168417925050509392505050565b5f819050919050565b5f819050919050565b5f61032461031f61031a846102f8565b610301565b6102f8565b9050919050565b5f819050919050565b61033d8361030a565b6103516103498261032b565b8484546102a7565b825550505050565b5f5f905090565b610368610359565b610373818484610334565b505050565b5b818110156103965761038b5f82610360565b600181019050610379565b5050565b601f8211156103db576103ac8161027a565b6103b58461028c565b810160208510156103c4578190505b6103d86103d08561028c565b830182610378565b50505b505050565b5f82821c905092915050565b5f6103fb5f19846008026103e0565b1980831691505092915050565b5f61041383836103ec565b9150826002028217905092915050565b61042c826101e6565b67ffffffffffffffff811115610445576104446101f0565b5b61044f825461024a565b61045a82828561039a565b5f60209050601f83116001811461048b575f8415610479578287015190505b6104838582610408565b8655506104ea565b601f1984166104998661027a565b5f5b828110156104c05784890151825560018201915060208501945060208101905061049b565b868310156104dd57848901516104d9601f8916826103ec565b8355505b6001600288020188555050505b505050505050565b5f73ffffffffffffffffffffffffffffffffffffffff82169050919050565b5f61051b826104f2565b9050919050565b61052b81610511565b82525050565b5f6020820190506105445f830184610522565b92915050565b612410806105575f395ff3fe608060405234801561000f575f5ffd5b5060043610610114575f3560e01c806370a08231116100a0578063a22cb4651161006f578063a22cb465146102c8578063b88d4fde146102e4578063c87b56dd14610300578063e985e9c514610330578063f2fde38b1461036057610114565b806370a0823114610252578063715018a6146102825780638da5cb5b1461028c57806395d89b41146102aa57610114565b806323b872dd116100e757806323b872dd146101b257806342842e0e146101ce57806355f804b3146101ea5780636352211e146102065780636a6278421461023657610114565b806301ffc9a71461011857806306fdde0314610148578063081812fc14610166578063095ea7b314610196575b5f5ffd5b610132600480360381019061012d91906118f3565b61037c565b60405161013f9190611938565b60405180910390f35b61015061045d565b60405161015d91906119c1565b60405180910390f35b610180600480360381019061017b9190611a14565b6104ec565b60405161018d9190611a7e565b60405180910390f35b6101b060048036038101906101ab9190611ac1565b610507565b005b6101cc60048036038101906101c79190611aff565b61051d565b005b6101e860048036038101906101e39190611aff565b61061c565b005b61020460048036038101906101ff9190611c7b565b61063b565b005b610220600480360381019061021b9190611a14565b610656565b60405161022d9190611a7e565b60405180910390f35b610250600480360381019061024b9190611cc2565b610667565b005b61026c60048036038101906102679190611cc2565b610695565b6040516102799190611cfc565b60405180910390f35b61028a61074b565b005b61029461075e565b6040516102a19190611a7e565b60405180910390f35b6102b2610786565b6040516102bf91906119c1565b60405180910390f35b6102e260048036038101906102dd9190611d3f565b610816565b005b6102fe60048036038101906102f99190611e1b565b61082c565b005b61031a60048036038101906103159190611a14565b610851565b60405161032791906119c1565b60405180910390f35b61034a60048036038101906103459190611e9b565b6108b7565b6040516103579190611938565b60405180910390f35b61037a60048036038101906103759190611cc2565b610945565b005b5f7f80ac58cd000000000000000000000000000000000000000000000000000000007bffffffffffffffffffffffffffffffffffffffffffffffffffffffff1916827bffffffffffffffffffffffffffffffffffffffffffffffffffffffff1916148061044657507f5b5e139f000000000000000000000000000000000000000000000000000000007bffffffffffffffffffffffffffffffffffffffffffffffffffffffff1916827bffffffffffffffffffffffffffffffffffffffffffffffffffffffff1916145b806104565750610455826109c9565b5b9050919050565b60605f805461046b90611f06565b80601f016020809104026020016040519081016040528092919081815260200182805461049790611f06565b80156104e25780601f106104b9576101008083540402835291602001916104e2565b820191905f5260205f20905b8154815290600101906020018083116104c557829003601f168201915b5050505050905090565b5f6104f682610a32565b5061050082610ab8565b9050919050565b6105198282610514610af1565b610af8565b5050565b5f73ffffffffffffffffffffffffffffffffffffffff168273ffffffffffffffffffffffffffffffffffffffff160361058d575f6040517f64a0ae920000000000000000000000000000000000000000000000000000000081526004016105849190611a7e565b60405180910390fd5b5f6105a0838361059b610af1565b610b0a565b90508373ffffffffffffffffffffffffffffffffffffffff168173ffffffffffffffffffffffffffffffffffffffff1614610616578382826040517f64283d7b00000000000000000000000000000000000000000000000000000000815260040161060d93929190611f36565b60405180910390fd5b50505050565b61063683838360405180602001604052805f81525061082c565b505050565b610643610d15565b8060089081610652919061210b565b5050565b5f61066082610a32565b9050919050565b61066f610d15565b60075f81548092919061068190612207565b919050555061069281600754610d9c565b50565b5f5f73ffffffffffffffffffffffffffffffffffffffff168273ffffffffffffffffffffffffffffffffffffffff1603610706575f6040517f89c62b640000000000000000000000000000000000000000000000000000000081526004016106fd9190611a7e565b60405180910390fd5b60035f8373ffffffffffffffffffffffffffffffffffffffff1673ffffffffffffffffffffffffffffffffffffffff1681526020019081526020015f20549050919050565b610753610d15565b61075c5f610e8f565b565b5f60065f9054906101000a900473ffffffffffffffffffffffffffffffffffffffff16905090565b60606001805461079590611f06565b80601f01602080910402602001604051908101604052809291908181526020018280546107c190611f06565b801561080c5780601f106107e35761010080835404028352916020019161080c565b820191905f5260205f20905b8154815290600101906020018083116107ef57829003601f168201915b5050505050905090565b610828610821610af1565b8383610f52565b5050565b61083784848461051d565b61084b610842610af1565b858585856110bb565b50505050565b606061085c82610a32565b505f610866611267565b90505f8151116108845760405180602001604052805f8152506108af565b8061088e846112f7565b60405160200161089f929190612288565b6040516020818303038152906040525b915050919050565b5f60055f8473ffffffffffffffffffffffffffffffffffffffff1673ffffffffffffffffffffffffffffffffffffffff1681526020019081526020015f205f8373ffffffffffffffffffffffffffffffffffffffff1673ffffffffffffffffffffffffffffffffffffffff1681526020019081526020015f205f9054906101000a900460ff16905092915050565b61094d610d15565b5f73ffffffffffffffffffffffffffffffffffffffff168173ffffffffffffffffffffffffffffffffffffffff16036109bd575f6040517f1e4fbdf70000000000000000000000000000000000000000000000000000000081526004016109b49190611a7e565b60405180910390fd5b6109c681610e8f565b50565b5f7f01ffc9a7000000000000000000000000000000000000000000000000000000007bffffffffffffffffffffffffffffffffffffffffffffffffffffffff1916827bffffffffffffffffffffffffffffffffffffffffffffffffffffffff1916149050919050565b5f5f610a3d836113c1565b90505f73ffffffffffffffffffffffffffffffffffffffff168173ffffffffffffffffffffffffffffffffffffffff1603610aaf57826040517f7e273289000000000000000000000000000000000000000000000000000000008152600401610aa69190611cfc565b60405180910390fd5b80915050919050565b5f60045f8381526020019081526020015f205f9054906101000a900473ffffffffffffffffffffffffffffffffffffffff169050919050565b5f33905090565b610b0583838360016113fa565b505050565b5f5f610b15846113c1565b90505f73ffffffffffffffffffffffffffffffffffffffff168373ffffffffffffffffffffffffffffffffffffffff1614610b5657610b558184866115b9565b5b5f73ffffffffffffffffffffffffffffffffffffffff168173ffffffffffffffffffffffffffffffffffffffff1614610be157610b955f855f5f6113fa565b600160035f8373ffffffffffffffffffffffffffffffffffffffff1673ffffffffffffffffffffffffffffffffffffffff1681526020019081526020015f205f82825403925050819055505b5f73ffffffffffffffffffffffffffffffffffffffff168573ffffffffffffffffffffffffffffffffffffffff1614610c6057600160035f8773ffffffffffffffffffffffffffffffffffffffff1673ffffffffffffffffffffffffffffffffffffffff1681526020019081526020015f205f82825401925050819055505b8460025f8681526020019081526020015f205f6101000a81548173ffffffffffffffffffffffffffffffffffffffff021916908373ffffffffffffffffffffffffffffffffffffffff160217905550838573ffffffffffffffffffffffffffffffffffffffff168273ffffffffffffffffffffffffffffffffffffffff167fddf252ad1be2c89b69c2b068fc378daa952ba7f163c4a11628f55a4df523b3ef60405160405180910390a4809150509392505050565b610d1d610af1565b73ffffffffffffffffffffffffffffffffffffffff16610d3b61075e565b73ffffffffffffffffffffffffffffffffffffffff1614610d9a57610d5e610af1565b6040517f118cdaa7000000000000000000000000000000000000000000000000000000008152600401610d919190611a7e565b60405180910390fd5b565b5f73ffffffffffffffffffffffffffffffffffffffff168273ffffffffffffffffffffffffffffffffffffffff1603610e0c575f6040517f64a0ae92000000000000000000000000000000000000000000000000000000008152600401610e039190611a7e565b60405180910390fd5b5f610e1883835f610b0a565b90505f73ffffffffffffffffffffffffffffffffffffffff168173ffffffffffffffffffffffffffffffffffffffff1614610e8a575f6040517f73c6ac6e000000000000000000000000000000000000000000000000000000008152600401610e819190611a7e565b60405180910390fd5b505050565b5f60065f9054906101000a900473ffffffffffffffffffffffffffffffffffffffff1690508160065f6101000a81548173ffffffffffffffffffffffffffffffffffffffff021916908373ffffffffffffffffffffffffffffffffffffffff1602179055508173ffffffffffffffffffffffffffffffffffffffff168173ffffffffffffffffffffffffffffffffffffffff167f8be0079c531659141344cd1fd0a4f28419497f9722a3daafe3b4186f6b6457e060405160405180910390a35050565b5f73ffffffffffffffffffffffffffffffffffffffff168273ffffffffffffffffffffffffffffffffffffffff1603610fc257816040517f5b08ba18000000000000000000000000000000000000000000000000000000008152600401610fb99190611a7e565b60405180910390fd5b8060055f8573ffffffffffffffffffffffffffffffffffffffff1673ffffffffffffffffffffffffffffffffffffffff1681526020019081526020015f205f8473ffffffffffffffffffffffffffffffffffffffff1673ffffffffffffffffffffffffffffffffffffffff1681526020019081526020015f205f6101000a81548160ff0219169083151502179055508173ffffffffffffffffffffffffffffffffffffffff168373ffffffffffffffffffffffffffffffffffffffff167f17307eab39ab6107e8899845ad3d59bd9653f200f220920489ca2b5937696c31836040516110ae9190611938565b60405180910390a3505050565b5f8373ffffffffffffffffffffffffffffffffffffffff163b1115611260578273ffffffffffffffffffffffffffffffffffffffff1663150b7a02868685856040518563ffffffff1660e01b815260040161111994939291906122fd565b6020604051808303815f875af192505050801561115457506040513d601f19601f82011682018060405250810190611151919061235b565b60015b6111d5573d805f8114611182576040519150601f19603f3d011682016040523d82523d5f602084013e611187565b606091505b505f8151036111cd57836040517f64a0ae920000000000000000000000000000000000000000000000000000000081526004016111c49190611a7e565b60405180910390fd5b805160208201fd5b63150b7a0260e01b7bffffffffffffffffffffffffffffffffffffffffffffffffffffffff1916817bffffffffffffffffffffffffffffffffffffffffffffffffffffffff19161461125e57836040517f64a0ae920000000000000000000000000000000000000000000000000000000081526004016112559190611a7e565b60405180910390fd5b505b5050505050565b60606008805461127690611f06565b80601f01602080910402602001604051908101604052809291908181526020018280546112a290611f06565b80156112ed5780601f106112c4576101008083540402835291602001916112ed565b820191905f5260205f20905b8154815290600101906020018083116112d057829003601f168201915b5050505050905090565b60605f60016113058461167c565b0190505f8167ffffffffffffffff81111561132357611322611b57565b5b6040519080825280601f01601f1916602001820160405280156113555781602001600182028036833780820191505090505b5090505f82602083010190505b6001156113b6578080600190039150507f3031323334353637383961626364656600000000000000000000000000000000600a86061a8153600a85816113ab576113aa612386565b5b0494505f8503611362575b819350505050919050565b5f60025f8381526020019081526020015f205f9054906101000a900473ffffffffffffffffffffffffffffffffffffffff169050919050565b808061143257505f73ffffffffffffffffffffffffffffffffffffffff168273ffffffffffffffffffffffffffffffffffffffff1614155b15611564575f61144184610a32565b90505f73ffffffffffffffffffffffffffffffffffffffff168373ffffffffffffffffffffffffffffffffffffffff16141580156114ab57508273ffffffffffffffffffffffffffffffffffffffff168173ffffffffffffffffffffffffffffffffffffffff1614155b80156114be57506114bc81846108b7565b155b1561150057826040517fa9fbf51f0000000000000000000000000000000000000000000000000000000081526004016114f79190611a7e565b60405180910390fd5b811561156257838573ffffffffffffffffffffffffffffffffffffffff168273ffffffffffffffffffffffffffffffffffffffff167f8c5be1e5ebec7d5bd14f71427d1e84f3dd0314c0f7b2291e5b200ac8c7c3b92560405160405180910390a45b505b8360045f8581526020019081526020015f205f6101000a81548173ffffffffffffffffffffffffffffffffffffffff021916908373ffffffffffffffffffffffffffffffffffffffff16021790555050505050565b6115c48383836117cd565b611677575f73ffffffffffffffffffffffffffffffffffffffff168373ffffffffffffffffffffffffffffffffffffffff160361163857806040517f7e27328900000000000000000000000000000000000000000000000000000000815260040161162f9190611cfc565b60405180910390fd5b81816040517f177e802f00000000000000000000000000000000000000000000000000000000815260040161166e9291906123b3565b60405180910390fd5b505050565b5f5f5f90507a184f03e93ff9f4daa797ed6e38ed64bf6a1f01000000000000000083106116d8577a184f03e93ff9f4daa797ed6e38ed64bf6a1f01000000000000000083816116ce576116cd612386565b5b0492506040810190505b6d04ee2d6d415b85acef81000000008310611715576d04ee2d6d415b85acef8100000000838161170b5761170a612386565b5b0492506020810190505b662386f26fc10000831061174457662386f26fc10000838161173a57611739612386565b5b0492506010810190505b6305f5e100831061176d576305f5e100838161176357611762612386565b5b0492506008810190505b612710831061179257612710838161178857611787612386565b5b0492506004810190505b606483106117b557606483816117ab576117aa612386565b5b0492506002810190505b600a83106117c4576001810190505b80915050919050565b5f5f73ffffffffffffffffffffffffffffffffffffffff168373ffffffffffffffffffffffffffffffffffffffff161415801561188457508273ffffffffffffffffffffffffffffffffffffffff168473ffffffffffffffffffffffffffffffffffffffff161480611845575061184484846108b7565b5b8061188357508273ffffffffffffffffffffffffffffffffffffffff1661186b83610ab8565b73ffffffffffffffffffffffffffffffffffffffff16145b5b90509392505050565b5f604051905090565b5f5ffd5b5f5ffd5b5f7fffffffff0000000000000000000000000000000000000000000000000000000082169050919050565b6118d28161189e565b81146118dc575f5ffd5b50565b5f813590506118ed816118c9565b92915050565b5f6020828403121561190857611907611896565b5b5f611915848285016118df565b91505092915050565b5f8115159050919050565b6119328161191e565b82525050565b5f60208201905061194b5f830184611929565b92915050565b5f81519050919050565b5f82825260208201905092915050565b8281835e5f83830152505050565b5f601f19601f8301169050919050565b5f61199382611951565b61199d818561195b565b93506119ad81856020860161196b565b6119b681611979565b840191505092915050565b5f6020820190508181035f8301526119d98184611989565b905092915050565b5f819050919050565b6119f3816119e1565b81146119fd575f5ffd5b50565b5f81359050611a0e816119ea565b92915050565b5f60208284031215611a2957611a28611896565b5b5f611a3684828501611a00565b91505092915050565b5f73ffffffffffffffffffffffffffffffffffffffff82169050919050565b5f611a6882611a3f565b9050919050565b611a7881611a5e565b82525050565b5f602082019050611a915f830184611a6f565b92915050565b611aa081611a5e565b8114611aaa575f5ffd5b50565b5f81359050611abb81611a97565b92915050565b5f5f60408385031215611ad757611ad6611896565b5b5f611ae485828601611aad565b9250506020611af585828601611a00565b9150509250929050565b5f5f5f60608486031215611b1657611b15611896565b5b5f611b2386828701611aad565b9350506020611b3486828701611aad565b9250506040611b4586828701611a00565b9150509250925092565b5f5ffd5b5f5ffd5b7f4e487b71000000000000000000000000000000000000000000000000000000005f52604160045260245ffd5b611b8d82611979565b810181811067ffffffffffffffff82111715611bac57611bab611b57565b5b80604052505050565b5f611bbe61188d565b9050611bca8282611b84565b919050565b5f67ffffffffffffffff821115611be957611be8611b57565b5b611bf282611979565b9050602081019050919050565b828183375f83830152505050565b5f611c1f611c1a84611bcf565b611bb5565b905082815260208101848484011115611c3b57611c3a611b53565b5b611c46848285611bff565b509392505050565b5f82601f830112611c6257611c61611b4f565b5b8135611c72848260208601611c0d565b91505092915050565b5f60208284031215611c9057611c8f611896565b5b5f82013567ffffffffffffffff811115611cad57611cac61189a565b5b611cb984828501611c4e565b91505092915050565b5f60208284031215611cd757611cd6611896565b5b5f611ce484828501611aad565b91505092915050565b611cf6816119e1565b82525050565b5f602082019050611d0f5f830184611ced565b92915050565b611d1e8161191e565b8114611d28575f5ffd5b50565b5f81359050611d3981611d15565b92915050565b5f5f60408385031215611d5557611d54611896565b5b5f611d6285828601611aad565b9250506020611d7385828601611d2b565b9150509250929050565b5f67ffffffffffffffff821115611d9757611d96611b57565b5b611da082611979565b9050602081019050919050565b5f611dbf611dba84611d7d565b611bb5565b905082815260208101848484011115611ddb57611dda611b53565b5b611de6848285611bff565b509392505050565b5f82601f830112611e0257611e01611b4f565b5b8135611e12848260208601611dad565b91505092915050565b5f5f5f5f60808587031215611e3357611e32611896565b5b5f611e4087828801611aad565b9450506020611e5187828801611aad565b9350506040611e6287828801611a00565b925050606085013567ffffffffffffffff811115611e8357611e8261189a565b5b611e8f87828801611dee565b91505092959194509250565b5f5f60408385031215611eb157611eb0611896565b5b5f611ebe85828601611aad565b9250506020611ecf85828601611aad565b9150509250929050565b7f4e487b71000000000000000000000000000000000000000000000000000000005f52602260045260245ffd5b5f6002820490506001821680611f1d57607f821691505b602082108103611f3057611f2f611ed9565b5b50919050565b5f606082019050611f495f830186611a6f565b611f566020830185611ced565b611f636040830184611a6f565b949350505050565b5f819050815f5260205f209050919050565b5f6020601f8301049050919050565b5f82821b905092915050565b5f60088302611fc77fffffffffffffffffffffffffffffffffffffffffffffffffffffffffffffffff82611f8c565b611fd18683611f8c565b95508019841693508086168417925050509392505050565b5f819050919050565b5f61200c612007612002846119e1565b611fe9565b6119e1565b9050919050565b5f819050919050565b61202583611ff2565b61203961203182612013565b848454611f98565b825550505050565b5f5f905090565b612050612041565b61205b81848461201c565b505050565b5b8181101561207e576120735f82612048565b600181019050612061565b5050565b601f8211156120c35761209481611f6b565b61209d84611f7d565b810160208510156120ac578190505b6120c06120b885611f7d565b830182612060565b50505b505050565b5f82821c905092915050565b5f6120e35f19846008026120c8565b1980831691505092915050565b5f6120fb83836120d4565b9150826002028217905092915050565b61211482611951565b67ffffffffffffffff81111561212d5761212c611b57565b5b6121378254611f06565b612142828285612082565b5f60209050601f831160018114612173575f8415612161578287015190505b61216b85826120f0565b8655506121d2565b601f19841661218186611f6b565b5f5b828110156121a857848901518255600182019150602085019450602081019050612183565b868310156121c557848901516121c1601f8916826120d4565b8355505b6001600288020188555050505b505050505050565b7f4e487b71000000000000000000000000000000000000000000000000000000005f52601160045260245ffd5b5f612211826119e1565b91507fffffffffffffffffffffffffffffffffffffffffffffffffffffffffffffffff8203612243576122426121da565b5b600182019050919050565b5f81905092915050565b5f61226282611951565b61226c818561224e565b935061227c81856020860161196b565b80840191505092915050565b5f6122938285612258565b915061229f8284612258565b91508190509392505050565b5f81519050919050565b5f82825260208201905092915050565b5f6122cf826122ab565b6122d981856122b5565b93506122e981856020860161196b565b6122f281611979565b840191505092915050565b5f6080820190506123105f830187611a6f565b61231d6020830186611a6f565b61232a6040830185611ced565b818103606083015261233c81846122c5565b905095945050505050565b5f81519050612355816118c9565b92915050565b5f602082840312156123705761236f611896565b5b5f61237d84828501612347565b91505092915050565b7f4e487b71000000000000000000000000000000000000000000000000000000005f52601260045260245ffd5b5f6040820190506123c65f830185611a6f565b6123d36020830184611ced565b939250505056fea26469706673582212200fa7cbacbebdec9f5698f75d0c9fb3c133dae022cbf9919c324e69dd9ff7f95c64736f6c634300081e0033","linkReferences":{}},"methodIdentifiers":{"approve(address,uint256)":"095ea7b3","balanceOf(address)":"70a08231","getApproved(uint256)":"081812fc","isApprovedForAll(address,address)":"e985e9c5","mint(address)":"6a627842","name()":"06fdde03","owner()":"8da5cb5b","ownerOf(uint256)":"6352211e","renounceOwnership()":"715018a6","safeTransferFrom(address,address,uint256)":"42842e0e","safeTransferFrom(address,address,uint256,bytes)":"b88d4fde","setApprovalForAll(address,bool)":"a22cb465","setBaseURI(string)":"55f804b3","supportsInterface(bytes4)":"01ffc9a7","symbol()":"95d89b41","tokenURI(uint256)":"c87b56dd","transferFrom(address,address,uint256)":"23b872dd","transferOwnership(address)":"f2fde38b"},"id":69}