{"abi":[{"type":"function","name":"ADX","inputs":[],"outputs":[{"name":"","type":"address","internalType":"address"}],"stateMutability":"view"},{"type":"function","name":"deployX101","inputs":[{"name":"_initialRecipient","type":"address","internalType":"address"},{"name":"_sellFee","type":"address","internalType":"address"}],"outputs":[{"name":"","type":"address","internalType":"address"}],"stateMutability":"nonpayable"},{"type":"function","name":"deployedAddress","inputs":[],"outputs":[{"name":"","type":"address","internalType":"address"}],"stateMutability":"view"},{"type":"function","name":"predictAddress","inputs":[{"name":"_initialRecipient","type":"address","internalType":"address"},{"name":"_sellFee","type":"address","internalType":"address"},{"name":"salt","type":"bytes32","internalType":"bytes32"}],"outputs":[{"name":"","type":"address","internalType":"address"}],"stateMutability":"view"},{"type":"function","name":"setAllowlist","inputs":[{"name":"customer","type":"address","internalType":"address"}],"outputs":[],"stateMutability":"nonpayable"},{"type":"function","name":"transferOwnership","inputs":[{"name":"newOwner","type":"address","internalType":"address"}],"outputs":[],"stateMutability":"nonpayable"},{"type":"event","name":"TokenDeployed","inputs":[{"name":"tokenAddress","type":"address","indexed":true,"internalType":"address"},{"name":"salt","type":"bytes32","indexed":false,"internalType":"bytes32"}],"anonymous":false}],"bytecode":{"object":"0x608060405234801561001057600080fd5b50614874806100206000396000f3fe60806040523480156200001157600080fd5b50600436106200006a5760003560e01c806358bf3c7f146200006f5780638da5b357146200008f5780638efc30f914620000c5578063bd127ada14620000e7578063dcea0a64146200011d578063f2fde38b146200013f575b600080fd5b6200008d6004803603810190620000879190620005e8565b6200015f565b005b620000ad6004803603810190620000a7919062000655565b620001f4565b604051620000bc9190620006c2565b60405180910390f35b620000cf6200020c565b604051620000de9190620006c2565b60405180910390f35b620001056004803603810190620000ff9190620006df565b62000230565b604051620001149190620006c2565b60405180910390f35b6200012762000402565b604051620001369190620006c2565b60405180910390f35b6200015d6004803603810190620001579190620005e8565b6200041a565b005b60008054906101000a900473ffffffffffffffffffffffffffffffffffffffff1673ffffffffffffffffffffffffffffffffffffffff1663b12527f88260016040518363ffffffff1660e01b8152600401620001bd92919062000743565b600060405180830381600087803b158015620001d857600080fd5b505af1158015620001ed573d6000803e3d6000fd5b5050505050565b600062000203848484620004ac565b90509392505050565b60008054906101000a900473ffffffffffffffffffffffffffffffffffffffff1681565b600080600080600090505b6103e8811015620002da578585826040516020016200025d93929190620007ef565b60405160208183030381529060405280519060200120925062000282868685620004ac565b915073af3a1f455d37cc960b359686a016193f7275551073ffffffffffffffffffffffffffffffffffffffff168273ffffffffffffffffffffffffffffffffffffffff1611620002da5780806001019150506200023b565b50600060405180602001620002ef9062000570565b6020820181038252601f19601f8201166040525086866040516020016200031892919062000832565b6040516020818303038152906040526040516020016200033a929190620008d8565b60405160208183030381529060405290506000838251602084016000f59050803b6200036557600080fd5b806000806101000a81548173ffffffffffffffffffffffffffffffffffffffff021916908373ffffffffffffffffffffffffffffffffffffffff1602179055508073ffffffffffffffffffffffffffffffffffffffff167f2e90ed431e23f7e363af7d2e69461e22b648cc99c034731f7f1fa247e74fcd6485604051620003ed919062000911565b60405180910390a28094505050505092915050565b73af3a1f455d37cc960b359686a016193f7275551081565b60008054906101000a900473ffffffffffffffffffffffffffffffffffffffff1673ffffffffffffffffffffffffffffffffffffffff1663f2fde38b826040518263ffffffff1660e01b8152600401620004759190620006c2565b600060405180830381600087803b1580156200049057600080fd5b505af1158015620004a5573d6000803e3d6000fd5b5050505050565b60008060405180602001620004c19062000570565b6020820181038252601f19601f820116604052508585604051602001620004ea92919062000832565b6040516020818303038152906040526040516020016200050c929190620008d8565b6040516020818303038152906040529050600081805190602001209050600060ff60f81b308684604051602001620005489493929190620009a4565b6040516020818303038152906040528051906020012090508060001c93505050509392505050565b613e4480620009fb83390190565b600080fd5b600073ffffffffffffffffffffffffffffffffffffffff82169050919050565b6000620005b08262000583565b9050919050565b620005c281620005a3565b8114620005ce57600080fd5b50565b600081359050620005e281620005b7565b92915050565b6000602082840312156200060157620006006200057e565b5b60006200061184828501620005d1565b91505092915050565b6000819050919050565b6200062f816200061a565b81146200063b57600080fd5b50565b6000813590506200064f8162000624565b92915050565b6000806000606084860312156200067157620006706200057e565b5b60006200068186828701620005d1565b93505060206200069486828701620005d1565b9250506040620006a7868287016200063e565b9150509250925092565b620006bc81620005a3565b82525050565b6000602082019050620006d96000830184620006b1565b92915050565b60008060408385031215620006f957620006f86200057e565b5b60006200070985828601620005d1565b92505060206200071c85828601620005d1565b9150509250929050565b60008115159050919050565b6200073d8162000726565b82525050565b60006040820190506200075a6000830185620006b1565b62000769602083018462000732565b9392505050565b60008160601b9050919050565b60006200078a8262000770565b9050919050565b60006200079e826200077d565b9050919050565b620007ba620007b482620005a3565b62000791565b82525050565b6000819050919050565b6000819050919050565b620007e9620007e382620007c0565b620007ca565b82525050565b6000620007fd8286620007a5565b6014820191506200080f8285620007a5565b601482019150620008218284620007d4565b602082019150819050949350505050565b6000604082019050620008496000830185620006b1565b620008586020830184620006b1565b9392505050565b600081519050919050565b600081905092915050565b60005b838110156200089557808201518184015260208101905062000878565b60008484015250505050565b6000620008ae826200085f565b620008ba81856200086a565b9350620008cc81856020860162000875565b80840191505092915050565b6000620008e68285620008a1565b9150620008f48284620008a1565b91508190509392505050565b6200090b816200061a565b82525050565b600060208201905062000928600083018462000900565b92915050565b60007fff0000000000000000000000000000000000000000000000000000000000000082169050919050565b6000819050919050565b6200097962000973826200092e565b6200095a565b82525050565b6000819050919050565b6200099e62000998826200061a565b6200097f565b82525050565b6000620009b2828762000964565b600182019150620009c48286620007a5565b601482019150620009d6828562000989565b602082019150620009e8828462000989565b6020820191508190509594505050505056fe6080604052731f7cda03d18834c8328ca259abe57bf33c46647c600660006101000a81548173ffffffffffffffffffffffffffffffffffffffff021916908373ffffffffffffffffffffffffffffffffffffffff1602179055503480156200006657600080fd5b5060405162003e4438038062003e4483398181016040528101906200008c919062001325565b336040518060400160405280600481526020017f58313031000000000000000000000000000000000000000000000000000000008152506040518060400160405280600481526020017f583130310000000000000000000000000000000000000000000000000000000081525081600390816200010a9190620015e6565b5080600490816200011c9190620015e6565b505050600073ffffffffffffffffffffffffffffffffffffffff168173ffffffffffffffffffffffffffffffffffffffff1603620001945760006040517f1e4fbdf70000000000000000000000000000000000000000000000000000000081526004016200018b9190620016de565b60405180910390fd5b620001a5816200046160201b60201c565b5081600960006101000a81548173ffffffffffffffffffffffffffffffffffffffff021916908373ffffffffffffffffffffffffffffffffffffffff16021790555080600a60006101000a81548173ffffffffffffffffffffffffffffffffffffffff021916908373ffffffffffffffffffffffffffffffffffffffff160217905550600660009054906101000a900473ffffffffffffffffffffffffffffffffffffffff1673ffffffffffffffffffffffffffffffffffffffff1663c45a01556040518163ffffffff1660e01b8152600401602060405180830381865afa15801562000296573d6000803e3d6000fd5b505050506040513d601f19601f82011682018060405250810190620002bc9190620016fb565b73ffffffffffffffffffffffffffffffffffffffff1663c9c653963073af3a1f455d37cc960b359686a016193f727555106040518363ffffffff1660e01b81526004016200030c9291906200172d565b6020604051808303816000875af11580156200032c573d6000803e3d6000fd5b505050506040513d601f19601f82011682018060405250810190620003529190620016fb565b600760006101000a81548173ffffffffffffffffffffffffffffffffffffffff021916908373ffffffffffffffffffffffffffffffffffffffff160217905550620003ae8269d5e035af96a8534000006200052760201b60201c565b620003c1826001620005b460201b60201c565b620003d4816001620005b460201b60201c565b73af3a1f455d37cc960b359686a016193f7275551073ffffffffffffffffffffffffffffffffffffffff163073ffffffffffffffffffffffffffffffffffffffff161162000459576040517f08c379a00000000000000000000000000000000000000000000000000000000081526004016200045090620017bb565b60405180910390fd5b505062001c40565b6000600560009054906101000a900473ffffffffffffffffffffffffffffffffffffffff16905081600560006101000a81548173ffffffffffffffffffffffffffffffffffffffff021916908373ffffffffffffffffffffffffffffffffffffffff1602179055508173ffffffffffffffffffffffffffffffffffffffff168173ffffffffffffffffffffffffffffffffffffffff167f8be0079c531659141344cd1fd0a4f28419497f9722a3daafe3b4186f6b6457e060405160405180910390a35050565b600073ffffffffffffffffffffffffffffffffffffffff168273ffffffffffffffffffffffffffffffffffffffff16036200059c5760006040517fec442f05000000000000000000000000000000000000000000000000000000008152600401620005939190620016de565b60405180910390fd5b620005b0600083836200069160201b60201c565b5050565b620005c462000b1460201b60201c565b600073ffffffffffffffffffffffffffffffffffffffff168273ffffffffffffffffffffffffffffffffffffffff160362000636576040517f08c379a00000000000000000000000000000000000000000000000000000000081526004016200062d906200182d565b60405180910390fd5b80600860008473ffffffffffffffffffffffffffffffffffffffff1673ffffffffffffffffffffffffffffffffffffffff16815260200190815260200160002060006101000a81548160ff0219169083151502179055505050565b600073ffffffffffffffffffffffffffffffffffffffff168373ffffffffffffffffffffffffffffffffffffffff161480620006f95750600073ffffffffffffffffffffffffffffffffffffffff168273ffffffffffffffffffffffffffffffffffffffff16145b1562000718576200071283838362000bb660201b60201c565b62000b0f565b600860008473ffffffffffffffffffffffffffffffffffffffff1673ffffffffffffffffffffffffffffffffffffffff16815260200190815260200160002060009054906101000a900460ff1680620007ba5750600860008373ffffffffffffffffffffffffffffffffffffffff1673ffffffffffffffffffffffffffffffffffffffff16815260200190815260200160002060009054906101000a900460ff165b15620007d957620007d383838362000bb660201b60201c565b62000b0f565b6000620007eb62000de660201b60201c565b509050808015620008495750600760009054906101000a900473ffffffffffffffffffffffffffffffffffffffff1673ffffffffffffffffffffffffffffffffffffffff168373ffffffffffffffffffffffffffffffffffffffff16145b1562000869576200086284848462000bb660201b60201c565b5062000b0f565b5060006200087c6200103260201b60201c565b50509050808015620008db5750600760009054906101000a900473ffffffffffffffffffffffffffffffffffffffff1673ffffffffffffffffffffffffffffffffffffffff168473ffffffffffffffffffffffffffffffffffffffff16145b15620009655760006064600584620008f491906200187e565b620009009190620018f8565b90506000818462000912919062001930565b90506200094986600960009054906101000a900473ffffffffffffffffffffffffffffffffffffffff168462000bb660201b60201c565b6200095c86868362000bb660201b60201c565b50505062000b0f565b50600760009054906101000a900473ffffffffffffffffffffffffffffffffffffffff1673ffffffffffffffffffffffffffffffffffffffff168373ffffffffffffffffffffffffffffffffffffffff1603620009f9576040517f08c379a0000000000000000000000000000000000000000000000000000000008152600401620009f090620019bb565b60405180910390fd5b600760009054906101000a900473ffffffffffffffffffffffffffffffffffffffff1673ffffffffffffffffffffffffffffffffffffffff168273ffffffffffffffffffffffffffffffffffffffff160362000ad2576000606460148362000a6291906200187e565b62000a6e9190620018f8565b90506000818362000a80919062001930565b905062000ab785600a60009054906101000a900473ffffffffffffffffffffffffffffffffffffffff168462000bb660201b60201c565b62000aca85858362000bb660201b60201c565b505062000b0f565b6040517f08c379a000000000000000000000000000000000000000000000000000000000815260040162000b069062001a2d565b60405180910390fd5b505050565b62000b246200128960201b60201c565b73ffffffffffffffffffffffffffffffffffffffff1662000b4a6200129160201b60201c565b73ffffffffffffffffffffffffffffffffffffffff161462000bb45762000b766200128960201b60201c565b6040517f118cdaa700000000000000000000000000000000000000000000000000000000815260040162000bab9190620016de565b60405180910390fd5b565b600073ffffffffffffffffffffffffffffffffffffffff168373ffffffffffffffffffffffffffffffffffffffff160362000c0c57806002600082825462000bff919062001a4f565b9250508190555062000ce2565b60008060008573ffffffffffffffffffffffffffffffffffffffff1673ffffffffffffffffffffffffffffffffffffffff1681526020019081526020016000205490508181101562000c9b578381836040517fe450d38c00000000000000000000000000000000000000000000000000000000815260040162000c929392919062001a9b565b60405180910390fd5b8181036000808673ffffffffffffffffffffffffffffffffffffffff1673ffffffffffffffffffffffffffffffffffffffff16815260200190815260200160002081905550505b600073ffffffffffffffffffffffffffffffffffffffff168273ffffffffffffffffffffffffffffffffffffffff160362000d2d578060026000828254039250508190555062000d7a565b806000808473ffffffffffffffffffffffffffffffffffffffff1673ffffffffffffffffffffffffffffffffffffffff168152602001908152602001600020600082825401925050819055505b8173ffffffffffffffffffffffffffffffffffffffff168373ffffffffffffffffffffffffffffffffffffffff167fddf252ad1be2c89b69c2b068fc378daa952ba7f163c4a11628f55a4df523b3ef8360405162000dd9919062001ad8565b60405180910390a3505050565b6000806000600760009054906101000a900473ffffffffffffffffffffffffffffffffffffffff1673ffffffffffffffffffffffffffffffffffffffff16630dfe16816040518163ffffffff1660e01b8152600401602060405180830381865afa15801562000e59573d6000803e3d6000fd5b505050506040513d601f19601f8201168201806040525081019062000e7f9190620016fb565b90506000600760009054906101000a900473ffffffffffffffffffffffffffffffffffffffff1673ffffffffffffffffffffffffffffffffffffffff16630902f1ac6040518163ffffffff1660e01b8152600401606060405180830381865afa15801562000ef1573d6000803e3d6000fd5b505050506040513d601f19601f8201168201806040525081019062000f17919062001b81565b50506dffffffffffffffffffffffffffff16905060008273ffffffffffffffffffffffffffffffffffffffff166370a08231600760009054906101000a900473ffffffffffffffffffffffffffffffffffffffff166040518263ffffffff1660e01b815260040162000f8a9190620016de565b602060405180830381865afa15801562000fa8573d6000803e3d6000fd5b505050506040513d601f19601f8201168201806040525081019062000fce919062001c0e565b90503073ffffffffffffffffffffffffffffffffffffffff168373ffffffffffffffffffffffffffffffffffffffff16146200102b57818111156200102a5781816200101b919062001930565b935066038d7ea4c68000841194505b5b5050509091565b600080600080600760009054906101000a900473ffffffffffffffffffffffffffffffffffffffff1673ffffffffffffffffffffffffffffffffffffffff16630dfe16816040518163ffffffff1660e01b8152600401602060405180830381865afa158015620010a6573d6000803e3d6000fd5b505050506040513d601f19601f82011682018060405250810190620010cc9190620016fb565b90506000600760009054906101000a900473ffffffffffffffffffffffffffffffffffffffff1673ffffffffffffffffffffffffffffffffffffffff16630902f1ac6040518163ffffffff1660e01b8152600401606060405180830381865afa1580156200113e573d6000803e3d6000fd5b505050506040513d601f19601f8201168201806040525081019062001164919062001b81565b50506dffffffffffffffffffffffffffff16905060008273ffffffffffffffffffffffffffffffffffffffff166370a08231600760009054906101000a900473ffffffffffffffffffffffffffffffffffffffff166040518263ffffffff1660e01b8152600401620011d79190620016de565b602060405180830381865afa158015620011f5573d6000803e3d6000fd5b505050506040513d601f19601f820116820180604052508101906200121b919062001c0e565b90503073ffffffffffffffffffffffffffffffffffffffff168373ffffffffffffffffffffffffffffffffffffffff16146200128157808211156200127a57808262001268919062001930565b93506402540be4008411955062001280565b80821494505b5b505050909192565b600033905090565b6000600560009054906101000a900473ffffffffffffffffffffffffffffffffffffffff16905090565b600080fd5b600073ffffffffffffffffffffffffffffffffffffffff82169050919050565b6000620012ed82620012c0565b9050919050565b620012ff81620012e0565b81146200130b57600080fd5b50565b6000815190506200131f81620012f4565b92915050565b600080604083850312156200133f576200133e620012bb565b5b60006200134f858286016200130e565b925050602062001362858286016200130e565b9150509250929050565b600081519050919050565b7f4e487b7100000000000000000000000000000000000000000000000000000000600052604160045260246000fd5b7f4e487b7100000000000000000000000000000000000000000000000000000000600052602260045260246000fd5b60006002820490506001821680620013ee57607f821691505b602082108103620014045762001403620013a6565b5b50919050565b60008190508160005260206000209050919050565b60006020601f8301049050919050565b600082821b905092915050565b6000600883026200146e7fffffffffffffffffffffffffffffffffffffffffffffffffffffffffffffffff826200142f565b6200147a86836200142f565b95508019841693508086168417925050509392505050565b6000819050919050565b6000819050919050565b6000620014c7620014c1620014bb8462001492565b6200149c565b62001492565b9050919050565b6000819050919050565b620014e383620014a6565b620014fb620014f282620014ce565b8484546200143c565b825550505050565b600090565b6200151262001503565b6200151f818484620014d8565b505050565b5b8181101562001547576200153b60008262001508565b60018101905062001525565b5050565b601f821115620015965762001560816200140a565b6200156b846200141f565b810160208510156200157b578190505b620015936200158a856200141f565b83018262001524565b50505b505050565b600082821c905092915050565b6000620015bb600019846008026200159b565b1980831691505092915050565b6000620015d68383620015a8565b9150826002028217905092915050565b620015f1826200136c565b67ffffffffffffffff8111156200160d576200160c62001377565b5b620016198254620013d5565b620016268282856200154b565b600060209050601f8311600181146200165e576000841562001649578287015190505b620016558582620015c8565b865550620016c5565b601f1984166200166e866200140a565b60005b82811015620016985784890151825560018201915060208501945060208101905062001671565b86831015620016b85784890151620016b4601f891682620015a8565b8355505b6001600288020188555050505b505050505050565b620016d881620012e0565b82525050565b6000602082019050620016f56000830184620016cd565b92915050565b600060208284031215620017145762001713620012bb565b5b600062001724848285016200130e565b91505092915050565b6000604082019050620017446000830185620016cd565b620017536020830184620016cd565b9392505050565b600082825260208201905092915050565b7f4445504c4f595f4552524f522e00000000000000000000000000000000000000600082015250565b6000620017a3600d836200175a565b9150620017b0826200176b565b602082019050919050565b60006020820190508181036000830152620017d68162001794565b9050919050565b7f494e56414c49445f414444524553532e00000000000000000000000000000000600082015250565b6000620018156010836200175a565b91506200182282620017dd565b602082019050919050565b60006020820190508181036000830152620018488162001806565b9050919050565b7f4e487b7100000000000000000000000000000000000000000000000000000000600052601160045260246000fd5b60006200188b8262001492565b9150620018988362001492565b9250828202620018a88162001492565b91508282048414831517620018c257620018c16200184f565b5b5092915050565b7f4e487b7100000000000000000000000000000000000000000000000000000000600052601260045260246000fd5b6000620019058262001492565b9150620019128362001492565b925082620019255762001924620018c9565b5b828204905092915050565b60006200193d8262001492565b91506200194a8362001492565b92508282039050818111156200196557620019646200184f565b5b92915050565b7f4275792064697361626c65640000000000000000000000000000000000000000600082015250565b6000620019a3600c836200175a565b9150620019b0826200196b565b602082019050919050565b60006020820190508181036000830152620019d68162001994565b9050919050565b7f5472616e73666572732064697361626c65640000000000000000000000000000600082015250565b600062001a156012836200175a565b915062001a2282620019dd565b602082019050919050565b6000602082019050818103600083015262001a488162001a06565b9050919050565b600062001a5c8262001492565b915062001a698362001492565b925082820190508082111562001a845762001a836200184f565b5b92915050565b62001a958162001492565b82525050565b600060608201905062001ab26000830186620016cd565b62001ac1602083018562001a8a565b62001ad0604083018462001a8a565b949350505050565b600060208201905062001aef600083018462001a8a565b92915050565b60006dffffffffffffffffffffffffffff82169050919050565b62001b1a8162001af5565b811462001b2657600080fd5b50565b60008151905062001b3a8162001b0f565b92915050565b600063ffffffff82169050919050565b62001b5b8162001b40565b811462001b6757600080fd5b50565b60008151905062001b7b8162001b50565b92915050565b60008060006060848603121562001b9d5762001b9c620012bb565b5b600062001bad8682870162001b29565b935050602062001bc08682870162001b29565b925050604062001bd38682870162001b6a565b9150509250925092565b62001be88162001492565b811462001bf457600080fd5b50565b60008151905062001c088162001bdd565b92915050565b60006020828403121562001c275762001c26620012bb565b5b600062001c378482850162001bf7565b91505092915050565b6121f48062001c506000396000f3fe608060405234801561001057600080fd5b50600436106101425760003560e01c806395d89b41116100b8578063c21ebd071161007c578063c21ebd071461036b578063dcea0a6414610389578063dd62ed3e146103a7578063e24a10f6146103d7578063f2fde38b146103f5578063fe59b1eb1461041157610142565b806395d89b41146102b3578063a7cd52cb146102d1578063a9059cbb14610301578063b12527f814610331578063b8c9d25c1461034d57610142565b80632b14ca561161010a5780632b14ca5614610201578063313ce5671461021f578063504deacd1461023d57806370a082311461025b578063715018a61461028b5780638da5cb5b1461029557610142565b8063032996521461014757806306fdde0314610165578063095ea7b31461018357806318160ddd146101b357806323b872dd146101d1575b600080fd5b61014f61042d565b60405161015c91906119a0565b60405180910390f35b61016d610453565b60405161017a9190611a4b565b60405180910390f35b61019d60048036038101906101989190611ad4565b6104e5565b6040516101aa9190611b2f565b60405180910390f35b6101bb610508565b6040516101c89190611b59565b60405180910390f35b6101eb60048036038101906101e69190611b74565b610512565b6040516101f89190611b2f565b60405180910390f35b610209610541565b60405161021691906119a0565b60405180910390f35b610227610567565b6040516102349190611be3565b60405180910390f35b610245610570565b6040516102529190611b59565b60405180910390f35b61027560048036038101906102709190611bfe565b610575565b6040516102829190611b59565b60405180910390f35b6102936105bd565b005b61029d6105d1565b6040516102aa91906119a0565b60405180910390f35b6102bb6105fb565b6040516102c89190611a4b565b60405180910390f35b6102eb60048036038101906102e69190611bfe565b61068d565b6040516102f89190611b2f565b60405180910390f35b61031b60048036038101906103169190611ad4565b6106ad565b6040516103289190611b2f565b60405180910390f35b61034b60048036038101906103469190611c57565b6106d0565b005b6103556107a2565b60405161036291906119a0565b60405180910390f35b6103736107c8565b6040516103809190611cf6565b60405180910390f35b6103916107ee565b60405161039e91906119a0565b60405180910390f35b6103c160048036038101906103bc9190611d11565b610806565b6040516103ce9190611b59565b60405180910390f35b6103df61088d565b6040516103ec9190611b59565b60405180910390f35b61040f600480360381019061040a9190611bfe565b610892565b005b61042b60048036038101906104269190611bfe565b610918565b005b600960009054906101000a900473ffffffffffffffffffffffffffffffffffffffff1681565b60606003805461046290611d80565b80601f016020809104026020016040519081016040528092919081815260200182805461048e90611d80565b80156104db5780601f106104b0576101008083540402835291602001916104db565b820191906000526020600020905b8154815290600101906020018083116104be57829003601f168201915b5050505050905090565b6000806104f06109d3565b90506104fd8185856109db565b600191505092915050565b6000600254905090565b60008061051d6109d3565b905061052a8582856109ed565b610535858585610a82565b60019150509392505050565b600a60009054906101000a900473ffffffffffffffffffffffffffffffffffffffff1681565b60006012905090565b601481565b60008060008373ffffffffffffffffffffffffffffffffffffffff1673ffffffffffffffffffffffffffffffffffffffff168152602001908152602001600020549050919050565b6105c5610b76565b6105cf6000610bfd565b565b6000600560009054906101000a900473ffffffffffffffffffffffffffffffffffffffff16905090565b60606004805461060a90611d80565b80601f016020809104026020016040519081016040528092919081815260200182805461063690611d80565b80156106835780601f1061065857610100808354040283529160200191610683565b820191906000526020600020905b81548152906001019060200180831161066657829003601f168201915b5050505050905090565b60086020528060005260406000206000915054906101000a900460ff1681565b6000806106b86109d3565b90506106c5818585610a82565b600191505092915050565b6106d8610b76565b600073ffffffffffffffffffffffffffffffffffffffff168273ffffffffffffffffffffffffffffffffffffffff1603610747576040517f08c379a000000000000000000000000000000000000000000000000000000000815260040161073e90611dfd565b60405180910390fd5b80600860008473ffffffffffffffffffffffffffffffffffffffff1673ffffffffffffffffffffffffffffffffffffffff16815260200190815260200160002060006101000a81548160ff0219169083151502179055505050565b600760009054906101000a900473ffffffffffffffffffffffffffffffffffffffff1681565b600660009054906101000a900473ffffffffffffffffffffffffffffffffffffffff1681565b73af3a1f455d37cc960b359686a016193f7275551081565b6000600160008473ffffffffffffffffffffffffffffffffffffffff1673ffffffffffffffffffffffffffffffffffffffff16815260200190815260200160002060008373ffffffffffffffffffffffffffffffffffffffff1673ffffffffffffffffffffffffffffffffffffffff16815260200190815260200160002054905092915050565b600581565b61089a610b76565b600073ffffffffffffffffffffffffffffffffffffffff168173ffffffffffffffffffffffffffffffffffffffff160361090c5760006040517f1e4fbdf700000000000000000000000000000000000000000000000000000000815260040161090391906119a0565b60405180910390fd5b61091581610bfd565b50565b610920610b76565b600073ffffffffffffffffffffffffffffffffffffffff168173ffffffffffffffffffffffffffffffffffffffff160361098f576040517f08c379a000000000000000000000000000000000000000000000000000000000815260040161098690611dfd565b60405180910390fd5b80600a60006101000a81548173ffffffffffffffffffffffffffffffffffffffff021916908373ffffffffffffffffffffffffffffffffffffffff16021790555050565b600033905090565b6109e88383836001610cc3565b505050565b60006109f98484610806565b90507fffffffffffffffffffffffffffffffffffffffffffffffffffffffffffffffff811015610a7c5781811015610a6c578281836040517ffb8f41b2000000000000000000000000000000000000000000000000000000008152600401610a6393929190611e1d565b60405180910390fd5b610a7b84848484036000610cc3565b5b50505050565b600073ffffffffffffffffffffffffffffffffffffffff168373ffffffffffffffffffffffffffffffffffffffff1603610af45760006040517f96c6fd1e000000000000000000000000000000000000000000000000000000008152600401610aeb91906119a0565b60405180910390fd5b600073ffffffffffffffffffffffffffffffffffffffff168273ffffffffffffffffffffffffffffffffffffffff1603610b665760006040517fec442f05000000000000000000000000000000000000000000000000000000008152600401610b5d91906119a0565b60405180910390fd5b610b71838383610e9a565b505050565b610b7e6109d3565b73ffffffffffffffffffffffffffffffffffffffff16610b9c6105d1565b73ffffffffffffffffffffffffffffffffffffffff1614610bfb57610bbf6109d3565b6040517f118cdaa7000000000000000000000000000000000000000000000000000000008152600401610bf291906119a0565b60405180910390fd5b565b6000600560009054906101000a900473ffffffffffffffffffffffffffffffffffffffff16905081600560006101000a81548173ffffffffffffffffffffffffffffffffffffffff021916908373ffffffffffffffffffffffffffffffffffffffff1602179055508173ffffffffffffffffffffffffffffffffffffffff168173ffffffffffffffffffffffffffffffffffffffff167f8be0079c531659141344cd1fd0a4f28419497f9722a3daafe3b4186f6b6457e060405160405180910390a35050565b600073ffffffffffffffffffffffffffffffffffffffff168473ffffffffffffffffffffffffffffffffffffffff1603610d355760006040517fe602df05000000000000000000000000000000000000000000000000000000008152600401610d2c91906119a0565b60405180910390fd5b600073ffffffffffffffffffffffffffffffffffffffff168373ffffffffffffffffffffffffffffffffffffffff1603610da75760006040517f94280d62000000000000000000000000000000000000000000000000000000008152600401610d9e91906119a0565b60405180910390fd5b81600160008673ffffffffffffffffffffffffffffffffffffffff1673ffffffffffffffffffffffffffffffffffffffff16815260200190815260200160002060008573ffffffffffffffffffffffffffffffffffffffff1673ffffffffffffffffffffffffffffffffffffffff168152602001908152602001600020819055508015610e94578273ffffffffffffffffffffffffffffffffffffffff168473ffffffffffffffffffffffffffffffffffffffff167f8c5be1e5ebec7d5bd14f71427d1e84f3dd0314c0f7b2291e5b200ac8c7c3b92584604051610e8b9190611b59565b60405180910390a35b50505050565b600073ffffffffffffffffffffffffffffffffffffffff168373ffffffffffffffffffffffffffffffffffffffff161480610f015750600073ffffffffffffffffffffffffffffffffffffffff168273ffffffffffffffffffffffffffffffffffffffff16145b15610f1657610f118383836112b6565b6112b1565b600860008473ffffffffffffffffffffffffffffffffffffffff1673ffffffffffffffffffffffffffffffffffffffff16815260200190815260200160002060009054906101000a900460ff1680610fb75750600860008373ffffffffffffffffffffffffffffffffffffffff1673ffffffffffffffffffffffffffffffffffffffff16815260200190815260200160002060009054906101000a900460ff165b15610fcc57610fc78383836112b6565b6112b1565b6000610fd66114db565b5090508080156110335750600760009054906101000a900473ffffffffffffffffffffffffffffffffffffffff1673ffffffffffffffffffffffffffffffffffffffff168373ffffffffffffffffffffffffffffffffffffffff16145b15611049576110438484846112b6565b506112b1565b506000611054611718565b505090508080156110b25750600760009054906101000a900473ffffffffffffffffffffffffffffffffffffffff1673ffffffffffffffffffffffffffffffffffffffff168473ffffffffffffffffffffffffffffffffffffffff16145b1561112457600060646005846110c89190611e83565b6110d29190611ef4565b9050600081846110e29190611f25565b905061111186600960009054906101000a900473ffffffffffffffffffffffffffffffffffffffff16846112b6565b61111c8686836112b6565b5050506112b1565b50600760009054906101000a900473ffffffffffffffffffffffffffffffffffffffff1673ffffffffffffffffffffffffffffffffffffffff168373ffffffffffffffffffffffffffffffffffffffff16036111b5576040517f08c379a00000000000000000000000000000000000000000000000000000000081526004016111ac90611fa5565b60405180910390fd5b600760009054906101000a900473ffffffffffffffffffffffffffffffffffffffff1673ffffffffffffffffffffffffffffffffffffffff168273ffffffffffffffffffffffffffffffffffffffff1603611276576000606460148361121b9190611e83565b6112259190611ef4565b9050600081836112359190611f25565b905061126485600a60009054906101000a900473ffffffffffffffffffffffffffffffffffffffff16846112b6565b61126f8585836112b6565b50506112b1565b6040517f08c379a00000000000000000000000000000000000000000000000000000000081526004016112a890612011565b60405180910390fd5b505050565b600073ffffffffffffffffffffffffffffffffffffffff168373ffffffffffffffffffffffffffffffffffffffff16036113085780600260008282546112fc9190612031565b925050819055506113db565b60008060008573ffffffffffffffffffffffffffffffffffffffff1673ffffffffffffffffffffffffffffffffffffffff16815260200190815260200160002054905081811015611394578381836040517fe450d38c00000000000000000000000000000000000000000000000000000000815260040161138b93929190611e1d565b60405180910390fd5b8181036000808673ffffffffffffffffffffffffffffffffffffffff1673ffffffffffffffffffffffffffffffffffffffff16815260200190815260200160002081905550505b600073ffffffffffffffffffffffffffffffffffffffff168273ffffffffffffffffffffffffffffffffffffffff16036114245780600260008282540392505081905550611471565b806000808473ffffffffffffffffffffffffffffffffffffffff1673ffffffffffffffffffffffffffffffffffffffff168152602001908152602001600020600082825401925050819055505b8173ffffffffffffffffffffffffffffffffffffffff168373ffffffffffffffffffffffffffffffffffffffff167fddf252ad1be2c89b69c2b068fc378daa952ba7f163c4a11628f55a4df523b3ef836040516114ce9190611b59565b60405180910390a3505050565b6000806000600760009054906101000a900473ffffffffffffffffffffffffffffffffffffffff1673ffffffffffffffffffffffffffffffffffffffff16630dfe16816040518163ffffffff1660e01b8152600401602060405180830381865afa15801561154d573d6000803e3d6000fd5b505050506040513d601f19601f82011682018060405250810190611571919061207a565b90506000600760009054906101000a900473ffffffffffffffffffffffffffffffffffffffff1673ffffffffffffffffffffffffffffffffffffffff16630902f1ac6040518163ffffffff1660e01b8152600401606060405180830381865afa1580156115e2573d6000803e3d6000fd5b505050506040513d601f19601f820116820180604052508101906116069190612129565b50506dffffffffffffffffffffffffffff16905060008273ffffffffffffffffffffffffffffffffffffffff166370a08231600760009054906101000a900473ffffffffffffffffffffffffffffffffffffffff166040518263ffffffff1660e01b815260040161167791906119a0565b602060405180830381865afa158015611694573d6000803e3d6000fd5b505050506040513d601f19601f820116820180604052508101906116b89190612191565b90503073ffffffffffffffffffffffffffffffffffffffff168373ffffffffffffffffffffffffffffffffffffffff161461171157818111156117105781816117019190611f25565b935066038d7ea4c68000841194505b5b5050509091565b600080600080600760009054906101000a900473ffffffffffffffffffffffffffffffffffffffff1673ffffffffffffffffffffffffffffffffffffffff16630dfe16816040518163ffffffff1660e01b8152600401602060405180830381865afa15801561178b573d6000803e3d6000fd5b505050506040513d601f19601f820116820180604052508101906117af919061207a565b90506000600760009054906101000a900473ffffffffffffffffffffffffffffffffffffffff1673ffffffffffffffffffffffffffffffffffffffff16630902f1ac6040518163ffffffff1660e01b8152600401606060405180830381865afa158015611820573d6000803e3d6000fd5b505050506040513d601f19601f820116820180604052508101906118449190612129565b50506dffffffffffffffffffffffffffff16905060008273ffffffffffffffffffffffffffffffffffffffff166370a08231600760009054906101000a900473ffffffffffffffffffffffffffffffffffffffff166040518263ffffffff1660e01b81526004016118b591906119a0565b602060405180830381865afa1580156118d2573d6000803e3d6000fd5b505050506040513d601f19601f820116820180604052508101906118f69190612191565b90503073ffffffffffffffffffffffffffffffffffffffff168373ffffffffffffffffffffffffffffffffffffffff1614611957578082111561195057808261193f9190611f25565b93506402540be40084119550611956565b80821494505b5b505050909192565b600073ffffffffffffffffffffffffffffffffffffffff82169050919050565b600061198a8261195f565b9050919050565b61199a8161197f565b82525050565b60006020820190506119b56000830184611991565b92915050565b600081519050919050565b600082825260208201905092915050565b60005b838110156119f55780820151818401526020810190506119da565b60008484015250505050565b6000601f19601f8301169050919050565b6000611a1d826119bb565b611a2781856119c6565b9350611a378185602086016119d7565b611a4081611a01565b840191505092915050565b60006020820190508181036000830152611a658184611a12565b905092915050565b600080fd5b611a7b8161197f565b8114611a8657600080fd5b50565b600081359050611a9881611a72565b92915050565b6000819050919050565b611ab181611a9e565b8114611abc57600080fd5b50565b600081359050611ace81611aa8565b92915050565b60008060408385031215611aeb57611aea611a6d565b5b6000611af985828601611a89565b9250506020611b0a85828601611abf565b9150509250929050565b60008115159050919050565b611b2981611b14565b82525050565b6000602082019050611b446000830184611b20565b92915050565b611b5381611a9e565b82525050565b6000602082019050611b6e6000830184611b4a565b92915050565b600080600060608486031215611b8d57611b8c611a6d565b5b6000611b9b86828701611a89565b9350506020611bac86828701611a89565b9250506040611bbd86828701611abf565b9150509250925092565b600060ff82169050919050565b611bdd81611bc7565b82525050565b6000602082019050611bf86000830184611bd4565b92915050565b600060208284031215611c1457611c13611a6d565b5b6000611c2284828501611a89565b91505092915050565b611c3481611b14565b8114611c3f57600080fd5b50565b600081359050611c5181611c2b565b92915050565b60008060408385031215611c6e57611c6d611a6d565b5b6000611c7c85828601611a89565b9250506020611c8d85828601611c42565b9150509250929050565b6000819050919050565b6000611cbc611cb7611cb28461195f565b611c97565b61195f565b9050919050565b6000611cce82611ca1565b9050919050565b6000611ce082611cc3565b9050919050565b611cf081611cd5565b82525050565b6000602082019050611d0b6000830184611ce7565b92915050565b60008060408385031215611d2857611d27611a6d565b5b6000611d3685828601611a89565b9250506020611d4785828601611a89565b9150509250929050565b7f4e487b7100000000000000000000000000000000000000000000000000000000600052602260045260246000fd5b60006002820490506001821680611d9857607f821691505b602082108103611dab57611daa611d51565b5b50919050565b7f494e56414c49445f414444524553532e00000000000000000000000000000000600082015250565b6000611de76010836119c6565b9150611df282611db1565b602082019050919050565b60006020820190508181036000830152611e1681611dda565b9050919050565b6000606082019050611e326000830186611991565b611e3f6020830185611b4a565b611e4c6040830184611b4a565b949350505050565b7f4e487b7100000000000000000000000000000000000000000000000000000000600052601160045260246000fd5b6000611e8e82611a9e565b9150611e9983611a9e565b9250828202611ea781611a9e565b91508282048414831517611ebe57611ebd611e54565b5b5092915050565b7f4e487b7100000000000000000000000000000000000000000000000000000000600052601260045260246000fd5b6000611eff82611a9e565b9150611f0a83611a9e565b925082611f1a57611f19611ec5565b5b828204905092915050565b6000611f3082611a9e565b9150611f3b83611a9e565b9250828203905081811115611f5357611f52611e54565b5b92915050565b7f4275792064697361626c65640000000000000000000000000000000000000000600082015250565b6000611f8f600c836119c6565b9150611f9a82611f59565b602082019050919050565b60006020820190508181036000830152611fbe81611f82565b9050919050565b7f5472616e73666572732064697361626c65640000000000000000000000000000600082015250565b6000611ffb6012836119c6565b915061200682611fc5565b602082019050919050565b6000602082019050818103600083015261202a81611fee565b9050919050565b600061203c82611a9e565b915061204783611a9e565b925082820190508082111561205f5761205e611e54565b5b92915050565b60008151905061207481611a72565b92915050565b6000602082840312156120905761208f611a6d565b5b600061209e84828501612065565b91505092915050565b60006dffffffffffffffffffffffffffff82169050919050565b6120ca816120a7565b81146120d557600080fd5b50565b6000815190506120e7816120c1565b92915050565b600063ffffffff82169050919050565b612106816120ed565b811461211157600080fd5b50565b600081519050612123816120fd565b92915050565b60008060006060848603121561214257612141611a6d565b5b6000612150868287016120d8565b9350506020612161868287016120d8565b925050604061217286828701612114565b9150509250925092565b60008151905061218b81611aa8565b92915050565b6000602082840312156121a7576121a6611a6d565b5b60006121b58482850161217c565b9150509291505056fea26469706673582212200075ec98b2875f0df5ad358124b1e45181bdecb9d134c669ee036835b322699264736f6c63430008160033a26469706673582212206866625e44260fde7c56099b1e2ade9d47ddfbd0b74a0bfe3e841cbdd255d91864736f6c63430008160033","linkReferences":{}},"methodIdentifiers":{"ADX()":"dcea0a64","deployX101(address,address)":"bd127ada","deployedAddress()":"8efc30f9","predictAddress(address,address,bytes32)":"8da5b357","setAllowlist(address)":"58bf3c7f","transferOwnership(address)":"f2fde38b"},"id":45}