{"abi":[{"type":"constructor","inputs":[],"stateMutability":"nonpayable"},{"type":"function","name":"approve","inputs":[{"name":"to","type":"address","internalType":"address"},{"name":"tokenId","type":"uint256","internalType":"uint256"}],"outputs":[],"stateMutability":"nonpayable"},{"type":"function","name":"balanceOf","inputs":[{"name":"owner","type":"address","internalType":"address"}],"outputs":[{"name":"","type":"uint256","internalType":"uint256"}],"stateMutability":"view"},{"type":"function","name":"getApproved","inputs":[{"name":"tokenId","type":"uint256","internalType":"uint256"}],"outputs":[{"name":"","type":"address","internalType":"address"}],"stateMutability":"view"},{"type":"function","name":"isApprovedForAll","inputs":[{"name":"owner","type":"address","internalType":"address"},{"name":"operator","type":"address","internalType":"address"}],"outputs":[{"name":"","type":"bool","internalType":"bool"}],"stateMutability":"view"},{"type":"function","name":"mint","inputs":[{"name":"to","type":"address","internalType":"address"}],"outputs":[],"stateMutability":"nonpayable"},{"type":"function","name":"name","inputs":[],"outputs":[{"name":"","type":"string","internalType":"string"}],"stateMutability":"view"},{"type":"function","name":"owner","inputs":[],"outputs":[{"name":"","type":"address","internalType":"address"}],"stateMutability":"view"},{"type":"function","name":"ownerOf","inputs":[{"name":"tokenId","type":"uint256","internalType":"uint256"}],"outputs":[{"name":"","type":"address","internalType":"address"}],"stateMutability":"view"},{"type":"function","name":"recharge","inputs":[],"outputs":[{"name":"","type":"address","internalType":"address"}],"stateMutability":"view"},{"type":"function","name":"renounceOwnership","inputs":[],"outputs":[],"stateMutability":"nonpayable"},{"type":"function","name":"safeTransferFrom","inputs":[{"name":"from","type":"address","internalType":"address"},{"name":"to","type":"address","internalType":"address"},{"name":"tokenId","type":"uint256","internalType":"uint256"}],"outputs":[],"stateMutability":"nonpayable"},{"type":"function","name":"safeTransferFrom","inputs":[{"name":"from","type":"address","internalType":"address"},{"name":"to","type":"address","internalType":"address"},{"name":"tokenId","type":"uint256","internalType":"uint256"},{"name":"data","type":"bytes","internalType":"bytes"}],"outputs":[],"stateMutability":"nonpayable"},{"type":"function","name":"setApprovalForAll","inputs":[{"name":"operator","type":"address","internalType":"address"},{"name":"approved","type":"bool","internalType":"bool"}],"outputs":[],"stateMutability":"nonpayable"},{"type":"function","name":"setBaseURI","inputs":[{"name":"newBaseURI","type":"string","internalType":"string"}],"outputs":[],"stateMutability":"nonpayable"},{"type":"function","name":"setRecharge","inputs":[{"name":"_recharge","type":"address","internalType":"address"}],"outputs":[],"stateMutability":"nonpayable"},{"type":"function","name":"supportsInterface","inputs":[{"name":"interfaceId","type":"bytes4","internalType":"bytes4"}],"outputs":[{"name":"","type":"bool","internalType":"bool"}],"stateMutability":"view"},{"type":"function","name":"symbol","inputs":[],"outputs":[{"name":"","type":"string","internalType":"string"}],"stateMutability":"view"},{"type":"function","name":"tokenURI","inputs":[{"name":"tokenId","type":"uint256","internalType":"uint256"}],"outputs":[{"name":"","type":"string","internalType":"string"}],"stateMutability":"view"},{"type":"function","name":"transferFrom","inputs":[{"name":"from","type":"address","internalType":"address"},{"name":"to","type":"address","internalType":"address"},{"name":"tokenId","type":"uint256","internalType":"uint256"}],"outputs":[],"stateMutability":"nonpayable"},{"type":"function","name":"transferOwnership","inputs":[{"name":"newOwner","type":"address","internalType":"address"}],"outputs":[],"stateMutability":"nonpayable"},{"type":"event","name":"Approval","inputs":[{"name":"owner","type":"address","indexed":true,"internalType":"address"},{"name":"approved","type":"address","indexed":true,"internalType":"address"},{"name":"tokenId","type":"uint256","indexed":true,"internalType":"uint256"}],"anonymous":false},{"type":"event","name":"ApprovalForAll","inputs":[{"name":"owner","type":"address","indexed":true,"internalType":"address"},{"name":"operator","type":"address","indexed":true,"internalType":"address"},{"name":"approved","type":"bool","indexed":false,"internalType":"bool"}],"anonymous":false},{"type":"event","name":"OwnershipTransferred","inputs":[{"name":"previousOwner","type":"address","indexed":true,"internalType":"address"},{"name":"newOwner","type":"address","indexed":true,"internalType":"address"}],"anonymous":false},{"type":"event","name":"Transfer","inputs":[{"name":"from","type":"address","indexed":true,"internalType":"address"},{"name":"to","type":"address","indexed":true,"internalType":"address"},{"name":"tokenId","type":"uint256","indexed":true,"internalType":"uint256"}],"anonymous":false},{"type":"error","name":"ERC721IncorrectOwner","inputs":[{"name":"sender","type":"address","internalType":"address"},{"name":"tokenId","type":"uint256","internalType":"uint256"},{"name":"owner","type":"address","internalType":"address"}]},{"type":"error","name":"ERC721InsufficientApproval","inputs":[{"name":"operator","type":"address","internalType":"address"},{"name":"tokenId","type":"uint256","internalType":"uint256"}]},{"type":"error","name":"ERC721InvalidApprover","inputs":[{"name":"approver","type":"address","internalType":"address"}]},{"type":"error","name":"ERC721InvalidOperator","inputs":[{"name":"operator","type":"address","internalType":"address"}]},{"type":"error","name":"ERC721InvalidOwner","inputs":[{"name":"owner","type":"address","internalType":"address"}]},{"type":"error","name":"ERC721InvalidReceiver","inputs":[{"name":"receiver","type":"address","internalType":"address"}]},{"type":"error","name":"ERC721InvalidSender","inputs":[{"name":"sender","type":"address","internalType":"address"}]},{"type":"error","name":"ERC721NonexistentToken","inputs":[{"name":"tokenId","type":"uint256","internalType":"uint256"}]},{"type":"error","name":"OwnableInvalidOwner","inputs":[{"name":"owner","type":"address","internalType":"address"}]},{"type":"error","name":"OwnableUnauthorizedAccount","inputs":[{"name":"account","type":"address","internalType":"address"}]}],"bytecode":{"object":"0x608060405234801561000f575f5ffd5b50336040518060400160405280600781526020017f444a534e465473000000000000000000000000000000000000000000000000008152506040518060400160405280600381526020017f444e730000000000000000000000000000000000000000000000000000000000815250815f908161008b9190610423565b50806001908161009b9190610423565b5050505f73ffffffffffffffffffffffffffffffffffffffff168173ffffffffffffffffffffffffffffffffffffffff160361010e575f6040517f1e4fbdf70000000000000000000000000000000000000000000000000000000081526004016101059190610531565b60405180910390fd5b61011d8161012360201b60201c565b5061054a565b5f60065f9054906101000a900473ffffffffffffffffffffffffffffffffffffffff1690508160065f6101000a81548173ffffffffffffffffffffffffffffffffffffffff021916908373ffffffffffffffffffffffffffffffffffffffff1602179055508173ffffffffffffffffffffffffffffffffffffffff168173ffffffffffffffffffffffffffffffffffffffff167f8be0079c531659141344cd1fd0a4f28419497f9722a3daafe3b4186f6b6457e060405160405180910390a35050565b5f81519050919050565b7f4e487b71000000000000000000000000000000000000000000000000000000005f52604160045260245ffd5b7f4e487b71000000000000000000000000000000000000000000000000000000005f52602260045260245ffd5b5f600282049050600182168061026157607f821691505b6020821081036102745761027361021d565b5b50919050565b5f819050815f5260205f209050919050565b5f6020601f8301049050919050565b5f82821b905092915050565b5f600883026102d67fffffffffffffffffffffffffffffffffffffffffffffffffffffffffffffffff8261029b565b6102e0868361029b565b95508019841693508086168417925050509392505050565b5f819050919050565b5f819050919050565b5f61032461031f61031a846102f8565b610301565b6102f8565b9050919050565b5f819050919050565b61033d8361030a565b6103516103498261032b565b8484546102a7565b825550505050565b5f5f905090565b610368610359565b610373818484610334565b505050565b5b818110156103965761038b5f82610360565b600181019050610379565b5050565b601f8211156103db576103ac8161027a565b6103b58461028c565b810160208510156103c4578190505b6103d86103d08561028c565b830182610378565b50505b505050565b5f82821c905092915050565b5f6103fb5f19846008026103e0565b1980831691505092915050565b5f61041383836103ec565b9150826002028217905092915050565b61042c826101e6565b67ffffffffffffffff811115610445576104446101f0565b5b61044f825461024a565b61045a82828561039a565b5f60209050601f83116001811461048b575f8415610479578287015190505b6104838582610408565b8655506104ea565b601f1984166104998661027a565b5f5b828110156104c05784890151825560018201915060208501945060208101905061049b565b868310156104dd57848901516104d9601f8916826103ec565b8355505b6001600288020188555050505b505050505050565b5f73ffffffffffffffffffffffffffffffffffffffff82169050919050565b5f61051b826104f2565b9050919050565b61052b81610511565b82525050565b5f6020820190506105445f830184610522565b92915050565b612695806105575f395ff3fe608060405234801561000f575f5ffd5b506004361061012a575f3560e01c80636a627842116100ab578063a22cb4651161006f578063a22cb46514610318578063b88d4fde14610334578063c87b56dd14610350578063e985e9c514610380578063f2fde38b146103b05761012a565b80636a6278421461028657806370a08231146102a2578063715018a6146102d25780638da5cb5b146102dc57806395d89b41146102fa5761012a565b806342842e0e116100f257806342842e0e146101e45780634cddae281461020057806354a993931461021e57806355f804b31461023a5780636352211e146102565761012a565b806301ffc9a71461012e57806306fdde031461015e578063081812fc1461017c578063095ea7b3146101ac57806323b872dd146101c8575b5f5ffd5b61014860048036038101906101439190611aa8565b6103cc565b6040516101559190611aed565b60405180910390f35b6101666104ad565b6040516101739190611b76565b60405180910390f35b61019660048036038101906101919190611bc9565b61053c565b6040516101a39190611c33565b60405180910390f35b6101c660048036038101906101c19190611c76565b610557565b005b6101e260048036038101906101dd9190611cb4565b61056d565b005b6101fe60048036038101906101f99190611cb4565b61066c565b005b61020861068b565b6040516102159190611c33565b60405180910390f35b61023860048036038101906102339190611d04565b6106b0565b005b610254600480360381019061024f9190611e5b565b610769565b005b610270600480360381019061026b9190611bc9565b610784565b60405161027d9190611c33565b60405180910390f35b6102a0600480360381019061029b9190611d04565b610795565b005b6102bc60048036038101906102b79190611d04565b61084a565b6040516102c99190611eb1565b60405180910390f35b6102da610900565b005b6102e4610913565b6040516102f19190611c33565b60405180910390f35b61030261093b565b60405161030f9190611b76565b60405180910390f35b610332600480360381019061032d9190611ef4565b6109cb565b005b61034e60048036038101906103499190611fd0565b6109e1565b005b61036a60048036038101906103659190611bc9565b610a06565b6040516103779190611b76565b60405180910390f35b61039a60048036038101906103959190612050565b610a6c565b6040516103a79190611aed565b60405180910390f35b6103ca60048036038101906103c59190611d04565b610afa565b005b5f7f80ac58cd000000000000000000000000000000000000000000000000000000007bffffffffffffffffffffffffffffffffffffffffffffffffffffffff1916827bffffffffffffffffffffffffffffffffffffffffffffffffffffffff1916148061049657507f5b5e139f000000000000000000000000000000000000000000000000000000007bffffffffffffffffffffffffffffffffffffffffffffffffffffffff1916827bffffffffffffffffffffffffffffffffffffffffffffffffffffffff1916145b806104a657506104a582610b7e565b5b9050919050565b60605f80546104bb906120bb565b80601f01602080910402602001604051908101604052809291908181526020018280546104e7906120bb565b80156105325780601f1061050957610100808354040283529160200191610532565b820191905f5260205f20905b81548152906001019060200180831161051557829003601f168201915b5050505050905090565b5f61054682610be7565b5061055082610c6d565b9050919050565b6105698282610564610ca6565b610cad565b5050565b5f73ffffffffffffffffffffffffffffffffffffffff168273ffffffffffffffffffffffffffffffffffffffff16036105dd575f6040517f64a0ae920000000000000000000000000000000000000000000000000000000081526004016105d49190611c33565b60405180910390fd5b5f6105f083836105eb610ca6565b610cbf565b90508373ffffffffffffffffffffffffffffffffffffffff168173ffffffffffffffffffffffffffffffffffffffff1614610666578382826040517f64283d7b00000000000000000000000000000000000000000000000000000000815260040161065d939291906120eb565b60405180910390fd5b50505050565b61068683838360405180602001604052805f8152506109e1565b505050565b60095f9054906101000a900473ffffffffffffffffffffffffffffffffffffffff1681565b6106b8610eca565b5f73ffffffffffffffffffffffffffffffffffffffff168173ffffffffffffffffffffffffffffffffffffffff1603610726576040517f08c379a000000000000000000000000000000000000000000000000000000000815260040161071d9061216a565b60405180910390fd5b8060095f6101000a81548173ffffffffffffffffffffffffffffffffffffffff021916908373ffffffffffffffffffffffffffffffffffffffff16021790555050565b610771610eca565b80600890816107809190612328565b5050565b5f61078e82610be7565b9050919050565b3373ffffffffffffffffffffffffffffffffffffffff1660095f9054906101000a900473ffffffffffffffffffffffffffffffffffffffff1673ffffffffffffffffffffffffffffffffffffffff1614610824576040517f08c379a000000000000000000000000000000000000000000000000000000000815260040161081b90612441565b60405180910390fd5b60075f8154809291906108369061248c565b919050555061084781600754610f51565b50565b5f5f73ffffffffffffffffffffffffffffffffffffffff168273ffffffffffffffffffffffffffffffffffffffff16036108bb575f6040517f89c62b640000000000000000000000000000000000000000000000000000000081526004016108b29190611c33565b60405180910390fd5b60035f8373ffffffffffffffffffffffffffffffffffffffff1673ffffffffffffffffffffffffffffffffffffffff1681526020019081526020015f20549050919050565b610908610eca565b6109115f611044565b565b5f60065f9054906101000a900473ffffffffffffffffffffffffffffffffffffffff16905090565b60606001805461094a906120bb565b80601f0160208091040260200160405190810160405280929190818152602001828054610976906120bb565b80156109c15780601f10610998576101008083540402835291602001916109c1565b820191905f5260205f20905b8154815290600101906020018083116109a457829003601f168201915b5050505050905090565b6109dd6109d6610ca6565b8383611107565b5050565b6109ec84848461056d565b610a006109f7610ca6565b85858585611270565b50505050565b6060610a1182610be7565b505f610a1b61141c565b90505f815111610a395760405180602001604052805f815250610a64565b80610a43846114ac565b604051602001610a5492919061250d565b6040516020818303038152906040525b915050919050565b5f60055f8473ffffffffffffffffffffffffffffffffffffffff1673ffffffffffffffffffffffffffffffffffffffff1681526020019081526020015f205f8373ffffffffffffffffffffffffffffffffffffffff1673ffffffffffffffffffffffffffffffffffffffff1681526020019081526020015f205f9054906101000a900460ff16905092915050565b610b02610eca565b5f73ffffffffffffffffffffffffffffffffffffffff168173ffffffffffffffffffffffffffffffffffffffff1603610b72575f6040517f1e4fbdf7000000000000000000000000000000000000000000000000000000008152600401610b699190611c33565b60405180910390fd5b610b7b81611044565b50565b5f7f01ffc9a7000000000000000000000000000000000000000000000000000000007bffffffffffffffffffffffffffffffffffffffffffffffffffffffff1916827bffffffffffffffffffffffffffffffffffffffffffffffffffffffff1916149050919050565b5f5f610bf283611576565b90505f73ffffffffffffffffffffffffffffffffffffffff168173ffffffffffffffffffffffffffffffffffffffff1603610c6457826040517f7e273289000000000000000000000000000000000000000000000000000000008152600401610c5b9190611eb1565b60405180910390fd5b80915050919050565b5f60045f8381526020019081526020015f205f9054906101000a900473ffffffffffffffffffffffffffffffffffffffff169050919050565b5f33905090565b610cba83838360016115af565b505050565b5f5f610cca84611576565b90505f73ffffffffffffffffffffffffffffffffffffffff168373ffffffffffffffffffffffffffffffffffffffff1614610d0b57610d0a81848661176e565b5b5f73ffffffffffffffffffffffffffffffffffffffff168173ffffffffffffffffffffffffffffffffffffffff1614610d9657610d4a5f855f5f6115af565b600160035f8373ffffffffffffffffffffffffffffffffffffffff1673ffffffffffffffffffffffffffffffffffffffff1681526020019081526020015f205f82825403925050819055505b5f73ffffffffffffffffffffffffffffffffffffffff168573ffffffffffffffffffffffffffffffffffffffff1614610e1557600160035f8773ffffffffffffffffffffffffffffffffffffffff1673ffffffffffffffffffffffffffffffffffffffff1681526020019081526020015f205f82825401925050819055505b8460025f8681526020019081526020015f205f6101000a81548173ffffffffffffffffffffffffffffffffffffffff021916908373ffffffffffffffffffffffffffffffffffffffff160217905550838573ffffffffffffffffffffffffffffffffffffffff168273ffffffffffffffffffffffffffffffffffffffff167fddf252ad1be2c89b69c2b068fc378daa952ba7f163c4a11628f55a4df523b3ef60405160405180910390a4809150509392505050565b610ed2610ca6565b73ffffffffffffffffffffffffffffffffffffffff16610ef0610913565b73ffffffffffffffffffffffffffffffffffffffff1614610f4f57610f13610ca6565b6040517f118cdaa7000000000000000000000000000000000000000000000000000000008152600401610f469190611c33565b60405180910390fd5b565b5f73ffffffffffffffffffffffffffffffffffffffff168273ffffffffffffffffffffffffffffffffffffffff1603610fc1575f6040517f64a0ae92000000000000000000000000000000000000000000000000000000008152600401610fb89190611c33565b60405180910390fd5b5f610fcd83835f610cbf565b90505f73ffffffffffffffffffffffffffffffffffffffff168173ffffffffffffffffffffffffffffffffffffffff161461103f575f6040517f73c6ac6e0000000000000000000000000000000000000000000000000000000081526004016110369190611c33565b60405180910390fd5b505050565b5f60065f9054906101000a900473ffffffffffffffffffffffffffffffffffffffff1690508160065f6101000a81548173ffffffffffffffffffffffffffffffffffffffff021916908373ffffffffffffffffffffffffffffffffffffffff1602179055508173ffffffffffffffffffffffffffffffffffffffff168173ffffffffffffffffffffffffffffffffffffffff167f8be0079c531659141344cd1fd0a4f28419497f9722a3daafe3b4186f6b6457e060405160405180910390a35050565b5f73ffffffffffffffffffffffffffffffffffffffff168273ffffffffffffffffffffffffffffffffffffffff160361117757816040517f5b08ba1800000000000000000000000000000000000000000000000000000000815260040161116e9190611c33565b60405180910390fd5b8060055f8573ffffffffffffffffffffffffffffffffffffffff1673ffffffffffffffffffffffffffffffffffffffff1681526020019081526020015f205f8473ffffffffffffffffffffffffffffffffffffffff1673ffffffffffffffffffffffffffffffffffffffff1681526020019081526020015f205f6101000a81548160ff0219169083151502179055508173ffffffffffffffffffffffffffffffffffffffff168373ffffffffffffffffffffffffffffffffffffffff167f17307eab39ab6107e8899845ad3d59bd9653f200f220920489ca2b5937696c31836040516112639190611aed565b60405180910390a3505050565b5f8373ffffffffffffffffffffffffffffffffffffffff163b1115611415578273ffffffffffffffffffffffffffffffffffffffff1663150b7a02868685856040518563ffffffff1660e01b81526004016112ce9493929190612582565b6020604051808303815f875af192505050801561130957506040513d601f19601f8201168201806040525081019061130691906125e0565b60015b61138a573d805f8114611337576040519150601f19603f3d011682016040523d82523d5f602084013e61133c565b606091505b505f81510361138257836040517f64a0ae920000000000000000000000000000000000000000000000000000000081526004016113799190611c33565b60405180910390fd5b805160208201fd5b63150b7a0260e01b7bffffffffffffffffffffffffffffffffffffffffffffffffffffffff1916817bffffffffffffffffffffffffffffffffffffffffffffffffffffffff19161461141357836040517f64a0ae9200000000000000000000000000000000000000000000000000000000815260040161140a9190611c33565b60405180910390fd5b505b5050505050565b60606008805461142b906120bb565b80601f0160208091040260200160405190810160405280929190818152602001828054611457906120bb565b80156114a25780601f10611479576101008083540402835291602001916114a2565b820191905f5260205f20905b81548152906001019060200180831161148557829003601f168201915b5050505050905090565b60605f60016114ba84611831565b0190505f8167ffffffffffffffff8111156114d8576114d7611d37565b5b6040519080825280601f01601f19166020018201604052801561150a5781602001600182028036833780820191505090505b5090505f82602083010190505b60011561156b578080600190039150507f3031323334353637383961626364656600000000000000000000000000000000600a86061a8153600a85816115605761155f61260b565b5b0494505f8503611517575b819350505050919050565b5f60025f8381526020019081526020015f205f9054906101000a900473ffffffffffffffffffffffffffffffffffffffff169050919050565b80806115e757505f73ffffffffffffffffffffffffffffffffffffffff168273ffffffffffffffffffffffffffffffffffffffff1614155b15611719575f6115f684610be7565b90505f73ffffffffffffffffffffffffffffffffffffffff168373ffffffffffffffffffffffffffffffffffffffff161415801561166057508273ffffffffffffffffffffffffffffffffffffffff168173ffffffffffffffffffffffffffffffffffffffff1614155b801561167357506116718184610a6c565b155b156116b557826040517fa9fbf51f0000000000000000000000000000000000000000000000000000000081526004016116ac9190611c33565b60405180910390fd5b811561171757838573ffffffffffffffffffffffffffffffffffffffff168273ffffffffffffffffffffffffffffffffffffffff167f8c5be1e5ebec7d5bd14f71427d1e84f3dd0314c0f7b2291e5b200ac8c7c3b92560405160405180910390a45b505b8360045f8581526020019081526020015f205f6101000a81548173ffffffffffffffffffffffffffffffffffffffff021916908373ffffffffffffffffffffffffffffffffffffffff16021790555050505050565b611779838383611982565b61182c575f73ffffffffffffffffffffffffffffffffffffffff168373ffffffffffffffffffffffffffffffffffffffff16036117ed57806040517f7e2732890000000000000000000000000000000000000000000000000000000081526004016117e49190611eb1565b60405180910390fd5b81816040517f177e802f000000000000000000000000000000000000000000000000000000008152600401611823929190612638565b60405180910390fd5b505050565b5f5f5f90507a184f03e93ff9f4daa797ed6e38ed64bf6a1f010000000000000000831061188d577a184f03e93ff9f4daa797ed6e38ed64bf6a1f01000000000000000083816118835761188261260b565b5b0492506040810190505b6d04ee2d6d415b85acef810000000083106118ca576d04ee2d6d415b85acef810000000083816118c0576118bf61260b565b5b0492506020810190505b662386f26fc1000083106118f957662386f26fc1000083816118ef576118ee61260b565b5b0492506010810190505b6305f5e1008310611922576305f5e10083816119185761191761260b565b5b0492506008810190505b612710831061194757612710838161193d5761193c61260b565b5b0492506004810190505b6064831061196a57606483816119605761195f61260b565b5b0492506002810190505b600a8310611979576001810190505b80915050919050565b5f5f73ffffffffffffffffffffffffffffffffffffffff168373ffffffffffffffffffffffffffffffffffffffff1614158015611a3957508273ffffffffffffffffffffffffffffffffffffffff168473ffffffffffffffffffffffffffffffffffffffff1614806119fa57506119f98484610a6c565b5b80611a3857508273ffffffffffffffffffffffffffffffffffffffff16611a2083610c6d565b73ffffffffffffffffffffffffffffffffffffffff16145b5b90509392505050565b5f604051905090565b5f5ffd5b5f5ffd5b5f7fffffffff0000000000000000000000000000000000000000000000000000000082169050919050565b611a8781611a53565b8114611a91575f5ffd5b50565b5f81359050611aa281611a7e565b92915050565b5f60208284031215611abd57611abc611a4b565b5b5f611aca84828501611a94565b91505092915050565b5f8115159050919050565b611ae781611ad3565b82525050565b5f602082019050611b005f830184611ade565b92915050565b5f81519050919050565b5f82825260208201905092915050565b8281835e5f83830152505050565b5f601f19601f8301169050919050565b5f611b4882611b06565b611b528185611b10565b9350611b62818560208601611b20565b611b6b81611b2e565b840191505092915050565b5f6020820190508181035f830152611b8e8184611b3e565b905092915050565b5f819050919050565b611ba881611b96565b8114611bb2575f5ffd5b50565b5f81359050611bc381611b9f565b92915050565b5f60208284031215611bde57611bdd611a4b565b5b5f611beb84828501611bb5565b91505092915050565b5f73ffffffffffffffffffffffffffffffffffffffff82169050919050565b5f611c1d82611bf4565b9050919050565b611c2d81611c13565b82525050565b5f602082019050611c465f830184611c24565b92915050565b611c5581611c13565b8114611c5f575f5ffd5b50565b5f81359050611c7081611c4c565b92915050565b5f5f60408385031215611c8c57611c8b611a4b565b5b5f611c9985828601611c62565b9250506020611caa85828601611bb5565b9150509250929050565b5f5f5f60608486031215611ccb57611cca611a4b565b5b5f611cd886828701611c62565b9350506020611ce986828701611c62565b9250506040611cfa86828701611bb5565b9150509250925092565b5f60208284031215611d1957611d18611a4b565b5b5f611d2684828501611c62565b91505092915050565b5f5ffd5b5f5ffd5b7f4e487b71000000000000000000000000000000000000000000000000000000005f52604160045260245ffd5b611d6d82611b2e565b810181811067ffffffffffffffff82111715611d8c57611d8b611d37565b5b80604052505050565b5f611d9e611a42565b9050611daa8282611d64565b919050565b5f67ffffffffffffffff821115611dc957611dc8611d37565b5b611dd282611b2e565b9050602081019050919050565b828183375f83830152505050565b5f611dff611dfa84611daf565b611d95565b905082815260208101848484011115611e1b57611e1a611d33565b5b611e26848285611ddf565b509392505050565b5f82601f830112611e4257611e41611d2f565b5b8135611e52848260208601611ded565b91505092915050565b5f60208284031215611e7057611e6f611a4b565b5b5f82013567ffffffffffffffff811115611e8d57611e8c611a4f565b5b611e9984828501611e2e565b91505092915050565b611eab81611b96565b82525050565b5f602082019050611ec45f830184611ea2565b92915050565b611ed381611ad3565b8114611edd575f5ffd5b50565b5f81359050611eee81611eca565b92915050565b5f5f60408385031215611f0a57611f09611a4b565b5b5f611f1785828601611c62565b9250506020611f2885828601611ee0565b9150509250929050565b5f67ffffffffffffffff821115611f4c57611f4b611d37565b5b611f5582611b2e565b9050602081019050919050565b5f611f74611f6f84611f32565b611d95565b905082815260208101848484011115611f9057611f8f611d33565b5b611f9b848285611ddf565b509392505050565b5f82601f830112611fb757611fb6611d2f565b5b8135611fc7848260208601611f62565b91505092915050565b5f5f5f5f60808587031215611fe857611fe7611a4b565b5b5f611ff587828801611c62565b945050602061200687828801611c62565b935050604061201787828801611bb5565b925050606085013567ffffffffffffffff81111561203857612037611a4f565b5b61204487828801611fa3565b91505092959194509250565b5f5f6040838503121561206657612065611a4b565b5b5f61207385828601611c62565b925050602061208485828601611c62565b9150509250929050565b7f4e487b71000000000000000000000000000000000000000000000000000000005f52602260045260245ffd5b5f60028204905060018216806120d257607f821691505b6020821081036120e5576120e461208e565b5b50919050565b5f6060820190506120fe5f830186611c24565b61210b6020830185611ea2565b6121186040830184611c24565b949350505050565b7f5a45524f5f414444524553532e000000000000000000000000000000000000005f82015250565b5f612154600d83611b10565b915061215f82612120565b602082019050919050565b5f6020820190508181035f83015261218181612148565b9050919050565b5f819050815f5260205f209050919050565b5f6020601f8301049050919050565b5f82821b905092915050565b5f600883026121e47fffffffffffffffffffffffffffffffffffffffffffffffffffffffffffffffff826121a9565b6121ee86836121a9565b95508019841693508086168417925050509392505050565b5f819050919050565b5f61222961222461221f84611b96565b612206565b611b96565b9050919050565b5f819050919050565b6122428361220f565b61225661224e82612230565b8484546121b5565b825550505050565b5f5f905090565b61226d61225e565b612278818484612239565b505050565b5b8181101561229b576122905f82612265565b60018101905061227e565b5050565b601f8211156122e0576122b181612188565b6122ba8461219a565b810160208510156122c9578190505b6122dd6122d58561219a565b83018261227d565b50505b505050565b5f82821c905092915050565b5f6123005f19846008026122e5565b1980831691505092915050565b5f61231883836122f1565b9150826002028217905092915050565b61233182611b06565b67ffffffffffffffff81111561234a57612349611d37565b5b61235482546120bb565b61235f82828561229f565b5f60209050601f831160018114612390575f841561237e578287015190505b612388858261230d565b8655506123ef565b601f19841661239e86612188565b5f5b828110156123c5578489015182556001820191506020850194506020810190506123a0565b868310156123e257848901516123de601f8916826122f1565b8355505b6001600288020188555050505b505050505050565b7f4e4f5f5045524d49542e000000000000000000000000000000000000000000005f82015250565b5f61242b600a83611b10565b9150612436826123f7565b602082019050919050565b5f6020820190508181035f8301526124588161241f565b9050919050565b7f4e487b71000000000000000000000000000000000000000000000000000000005f52601160045260245ffd5b5f61249682611b96565b91507fffffffffffffffffffffffffffffffffffffffffffffffffffffffffffffffff82036124c8576124c761245f565b5b600182019050919050565b5f81905092915050565b5f6124e782611b06565b6124f181856124d3565b9350612501818560208601611b20565b80840191505092915050565b5f61251882856124dd565b915061252482846124dd565b91508190509392505050565b5f81519050919050565b5f82825260208201905092915050565b5f61255482612530565b61255e818561253a565b935061256e818560208601611b20565b61257781611b2e565b840191505092915050565b5f6080820190506125955f830187611c24565b6125a26020830186611c24565b6125af6040830185611ea2565b81810360608301526125c1818461254a565b905095945050505050565b5f815190506125da81611a7e565b92915050565b5f602082840312156125f5576125f4611a4b565b5b5f612602848285016125cc565b91505092915050565b7f4e487b71000000000000000000000000000000000000000000000000000000005f52601260045260245ffd5b5f60408201905061264b5f830185611c24565b6126586020830184611ea2565b939250505056fea26469706673582212206a9914bdac77b136819f802e2fe27e78b652cd6af1b35bc4497fd75e8c160eb264736f6c634300081e0033","linkReferences":{}},"methodIdentifiers":{"approve(address,uint256)":"095ea7b3","balanceOf(address)":"70a08231","getApproved(uint256)":"081812fc","isApprovedForAll(address,address)":"e985e9c5","mint(address)":"6a627842","name()":"06fdde03","owner()":"8da5cb5b","ownerOf(uint256)":"6352211e","recharge()":"4cddae28","renounceOwnership()":"715018a6","safeTransferFrom(address,address,uint256)":"42842e0e","safeTransferFrom(address,address,uint256,bytes)":"b88d4fde","setApprovalForAll(address,bool)":"a22cb465","setBaseURI(string)":"55f804b3","setRecharge(address)":"54a99393","supportsInterface(bytes4)":"01ffc9a7","symbol()":"95d89b41","tokenURI(uint256)":"c87b56dd","transferFrom(address,address,uint256)":"23b872dd","transferOwnership(address)":"f2fde38b"},"id":49}